{
	"data": {
		"bytecode": {
			"linkReferences": {},
			"object": "60a06040526207a12060015534801561001757600080fd5b5060405161089038038061089083398101604081905261003691610145565b338061005c57604051631e4fbdf760e01b81526000600482015260240160405180910390fd5b610065816100f5565b506001600160a01b03811660808190526040805163313ce56760e01b8152905163313ce567916004808201926020929091908290030181865afa1580156100b0573d6000803e3d6000fd5b505050506040513d601f19601f820116820180604052508101906100d49190610175565b6100df90600a610297565b6001546100ec91906102a6565b600155506102bd565b600080546001600160a01b038381166001600160a01b0319831681178455604051919092169283917f8be0079c531659141344cd1fd0a4f28419497f9722a3daafe3b4186f6b6457e09190a35050565b60006020828403121561015757600080fd5b81516001600160a01b038116811461016e57600080fd5b9392505050565b60006020828403121561018757600080fd5b815160ff8116811461016e57600080fd5b634e487b7160e01b600052601160045260246000fd5b6001815b60018411156101e9578085048111156101cd576101cd610198565b60018416156101db57908102905b60019390931c9280026101b2565b935093915050565b60008261020057506001610291565b8161020d57506000610291565b8160018114610223576002811461022d57610249565b6001915050610291565b60ff84111561023e5761023e610198565b50506001821b610291565b5060208310610133831016604e8410600b841016171561026c575081810a610291565b61027960001984846101ae565b806000190482111561028d5761028d610198565b0290505b92915050565b600061016e60ff8416836101f1565b808202811582820484141761029157610291610198565b6080516105ab6102e56000396000818160870152818161018e015261026901526105ab6000f3fe608060405234801561001057600080fd5b506004361061007d5760003560e01c80638ef1e2591161005b5780638ef1e259146100e15780639a3bfdf514610104578063f2fde38b14610115578063ffdd60f91461012857600080fd5b80636db08f2514610082578063715018a6146100c65780638da5cb5b146100d0575b600080fd5b6100a97f000000000000000000000000000000000000000000000000000000000000000081565b6040516001600160a01b0390911681526020015b60405180910390f35b6100ce61013b565b005b6000546001600160a01b03166100a9565b6100f46100ef3660046103b2565b61014f565b60405190151581526020016100bd565b6001546040519081526020016100bd565b6100ce6101233660046103b2565b610203565b6100ce6101363660046103e2565b61025f565b610143610304565b61014d600061034a565b565b6001546040517f70a082310000000000000000000000000000000000000000000000000000000081526001600160a01b038381166004830152600092917f0000000000000000000000000000000000000000000000000000000000000000909116906370a0823190602401602060405180830381865afa1580156101d7573d6000803e3d6000fd5b505050506040513d601f19601f820116820180604052508101906101fb91906103fb565b101592915050565b61020b610304565b6001600160a01b038116610253576040517f1e4fbdf7000000000000000000000000000000000000000000000000000000008152600060048201526024015b60405180910390fd5b61025c8161034a565b50565b610267610304565b7f00000000000000000000000000000000000000000000000000000000000000006001600160a01b031663313ce5676040518163ffffffff1660e01b8152600401602060405180830381865afa1580156102c5573d6000803e3d6000fd5b505050506040513d601f19601f820116820180604052508101906102e99190610414565b6102f490600a61054f565b6102fe908261055e565b60015550565b6000546001600160a01b0316331461014d576040517f118cdaa700000000000000000000000000000000000000000000000000000000815233600482015260240161024a565b600080546001600160a01b038381167fffffffffffffffffffffffff0000000000000000000000000000000000000000831681178455604051919092169283917f8be0079c531659141344cd1fd0a4f28419497f9722a3daafe3b4186f6b6457e09190a35050565b6000602082840312156103c457600080fd5b81356001600160a01b03811681146103db57600080fd5b9392505050565b6000602082840312156103f457600080fd5b5035919050565b60006020828403121561040d57600080fd5b5051919050565b60006020828403121561042657600080fd5b815160ff811681146103db57600080fd5b7f4e487b7100000000000000000000000000000000000000000000000000000000600052601160045260246000fd5b6001815b60018411156104a15780850481111561048557610485610437565b600184161561049357908102905b60019390931c92800261046a565b935093915050565b6000826104b857506001610549565b816104c557506000610549565b81600181146104db57600281146104e557610501565b6001915050610549565b60ff8411156104f6576104f6610437565b50506001821b610549565b5060208310610133831016604e8410600b8410161715610524575081810a610549565b6105316000198484610466565b806000190482111561054557610545610437565b0290505b92915050565b60006103db60ff8416836104a9565b80820281158282048414176105495761054961043756fea26469706673582212209b32d9044c1becae1f7f5299fed52d88992995cfbccf3da39aa1c70f56cd4cde64736f6c634300081e0033",
			"opcodes": "PUSH1 0xA0 PUSH1 0x40 MSTORE PUSH3 0x7A120 PUSH1 0x1 SSTORE CALLVALUE DUP1 ISZERO PUSH2 0x17 JUMPI PUSH1 0x0 DUP1 REVERT JUMPDEST POP PUSH1 0x40 MLOAD PUSH2 0x890 CODESIZE SUB DUP1 PUSH2 0x890 DUP4 CODECOPY DUP2 ADD PUSH1 0x40 DUP2 SWAP1 MSTORE PUSH2 0x36 SWAP2 PUSH2 0x145 JUMP JUMPDEST CALLER DUP1 PUSH2 0x5C JUMPI PUSH1 0x40 MLOAD PUSH4 0x1E4FBDF7 PUSH1 0xE0 SHL DUP2 MSTORE PUSH1 0x0 PUSH1 0x4 DUP3 ADD MSTORE PUSH1 0x24 ADD PUSH1 0x40 MLOAD DUP1 SWAP2 SUB SWAP1 REVERT JUMPDEST PUSH2 0x65 DUP2 PUSH2 0xF5 JUMP JUMPDEST POP PUSH1 0x1 PUSH1 0x1 PUSH1 0xA0 SHL SUB DUP2 AND PUSH1 0x80 DUP2 SWAP1 MSTORE PUSH1 0x40 DUP1 MLOAD PUSH4 0x313CE567 PUSH1 0xE0 SHL DUP2 MSTORE SWAP1 MLOAD PUSH4 0x313CE567 SWAP2 PUSH1 0x4 DUP1 DUP3 ADD SWAP3 PUSH1 0x20 SWAP3 SWAP1 SWAP2 SWAP1 DUP3 SWAP1 SUB ADD DUP2 DUP7 GAS STATICCALL ISZERO DUP1 ISZERO PUSH2 0xB0 JUMPI RETURNDATASIZE PUSH1 0x0 DUP1 RETURNDATACOPY RETURNDATASIZE PUSH1 0x0 REVERT JUMPDEST POP POP POP POP PUSH1 0x40 MLOAD RETURNDATASIZE PUSH1 0x1F NOT PUSH1 0x1F DUP3 ADD AND DUP3 ADD DUP1 PUSH1 0x40 MSTORE POP DUP2 ADD SWAP1 PUSH2 0xD4 SWAP2 SWAP1 PUSH2 0x175 JUMP JUMPDEST PUSH2 0xDF SWAP1 PUSH1 0xA PUSH2 0x297 JUMP JUMPDEST PUSH1 0x1 SLOAD PUSH2 0xEC SWAP2 SWAP1 PUSH2 0x2A6 JUMP JUMPDEST PUSH1 0x1 SSTORE POP PUSH2 0x2BD JUMP JUMPDEST PUSH1 0x0 DUP1 SLOAD PUSH1 0x1 PUSH1 0x1 PUSH1 0xA0 SHL SUB DUP4 DUP2 AND PUSH1 0x1 PUSH1 0x1 PUSH1 0xA0 SHL SUB NOT DUP4 AND DUP2 OR DUP5 SSTORE PUSH1 0x40 MLOAD SWAP2 SWAP1 SWAP3 AND SWAP3 DUP4 SWAP2 PUSH32 0x8BE0079C531659141344CD1FD0A4F28419497F9722A3DAAFE3B4186F6B6457E0 SWAP2 SWAP1 LOG3 POP POP JUMP JUMPDEST PUSH1 0x0 PUSH1 0x20 DUP3 DUP5 SUB SLT ISZERO PUSH2 0x157 JUMPI PUSH1 0x0 DUP1 REVERT JUMPDEST DUP2 MLOAD PUSH1 0x1 PUSH1 0x1 PUSH1 0xA0 SHL SUB DUP2 AND DUP2 EQ PUSH2 0x16E JUMPI PUSH1 0x0 DUP1 REVERT JUMPDEST SWAP4 SWAP3 POP POP POP JUMP JUMPDEST PUSH1 0x0 PUSH1 0x20 DUP3 DUP5 SUB SLT ISZERO PUSH2 0x187 JUMPI PUSH1 0x0 DUP1 REVERT JUMPDEST DUP2 MLOAD PUSH1 0xFF DUP2 AND DUP2 EQ PUSH2 0x16E JUMPI PUSH1 0x0 DUP1 REVERT JUMPDEST PUSH4 0x4E487B71 PUSH1 0xE0 SHL PUSH1 0x0 MSTORE PUSH1 0x11 PUSH1 0x4 MSTORE PUSH1 0x24 PUSH1 0x0 REVERT JUMPDEST PUSH1 0x1 DUP2 JUMPDEST PUSH1 0x1 DUP5 GT ISZERO PUSH2 0x1E9 JUMPI DUP1 DUP6 DIV DUP2 GT ISZERO PUSH2 0x1CD JUMPI PUSH2 0x1CD PUSH2 0x198 JUMP JUMPDEST PUSH1 0x1 DUP5 AND ISZERO PUSH2 0x1DB JUMPI SWAP1 DUP2 MUL SWAP1 JUMPDEST PUSH1 0x1 SWAP4 SWAP1 SWAP4 SHR SWAP3 DUP1 MUL PUSH2 0x1B2 JUMP JUMPDEST SWAP4 POP SWAP4 SWAP2 POP POP JUMP JUMPDEST PUSH1 0x0 DUP3 PUSH2 0x200 JUMPI POP PUSH1 0x1 PUSH2 0x291 JUMP JUMPDEST DUP2 PUSH2 0x20D JUMPI POP PUSH1 0x0 PUSH2 0x291 JUMP JUMPDEST DUP2 PUSH1 0x1 DUP2 EQ PUSH2 0x223 JUMPI PUSH1 0x2 DUP2 EQ PUSH2 0x22D JUMPI PUSH2 0x249 JUMP JUMPDEST PUSH1 0x1 SWAP2 POP POP PUSH2 0x291 JUMP JUMPDEST PUSH1 0xFF DUP5 GT ISZERO PUSH2 0x23E JUMPI PUSH2 0x23E PUSH2 0x198 JUMP JUMPDEST POP POP PUSH1 0x1 DUP3 SHL PUSH2 0x291 JUMP JUMPDEST POP PUSH1 0x20 DUP4 LT PUSH2 0x133 DUP4 LT AND PUSH1 0x4E DUP5 LT PUSH1 0xB DUP5 LT AND OR ISZERO PUSH2 0x26C JUMPI POP DUP2 DUP2 EXP PUSH2 0x291 JUMP JUMPDEST PUSH2 0x279 PUSH1 0x0 NOT DUP5 DUP5 PUSH2 0x1AE JUMP JUMPDEST DUP1 PUSH1 0x0 NOT DIV DUP3 GT ISZERO PUSH2 0x28D JUMPI PUSH2 0x28D PUSH2 0x198 JUMP JUMPDEST MUL SWAP1 POP JUMPDEST SWAP3 SWAP2 POP POP JUMP JUMPDEST PUSH1 0x0 PUSH2 0x16E PUSH1 0xFF DUP5 AND DUP4 PUSH2 0x1F1 JUMP JUMPDEST DUP1 DUP3 MUL DUP2 ISZERO DUP3 DUP3 DIV DUP5 EQ OR PUSH2 0x291 JUMPI PUSH2 0x291 PUSH2 0x198 JUMP JUMPDEST PUSH1 0x80 MLOAD PUSH2 0x5AB PUSH2 0x2E5 PUSH1 0x0 CODECOPY PUSH1 0x0 DUP2 DUP2 PUSH1 0x87 ADD MSTORE DUP2 DUP2 PUSH2 0x18E ADD MSTORE PUSH2 0x269 ADD MSTORE PUSH2 0x5AB PUSH1 0x0 RETURN INVALID PUSH1 0x80 PUSH1 0x40 MSTORE CALLVALUE DUP1 ISZERO PUSH2 0x10 JUMPI PUSH1 0x0 DUP1 REVERT JUMPDEST POP PUSH1 0x4 CALLDATASIZE LT PUSH2 0x7D JUMPI PUSH1 0x0 CALLDATALOAD PUSH1 0xE0 SHR DUP1 PUSH4 0x8EF1E259 GT PUSH2 0x5B JUMPI DUP1 PUSH4 0x8EF1E259 EQ PUSH2 0xE1 JUMPI DUP1 PUSH4 0x9A3BFDF5 EQ PUSH2 0x104 JUMPI DUP1 PUSH4 0xF2FDE38B EQ PUSH2 0x115 JUMPI DUP1 PUSH4 0xFFDD60F9 EQ PUSH2 0x128 JUMPI PUSH1 0x0 DUP1 REVERT JUMPDEST DUP1 PUSH4 0x6DB08F25 EQ PUSH2 0x82 JUMPI DUP1 PUSH4 0x715018A6 EQ PUSH2 0xC6 JUMPI DUP1 PUSH4 0x8DA5CB5B EQ PUSH2 0xD0 JUMPI JUMPDEST PUSH1 0x0 DUP1 REVERT JUMPDEST PUSH2 0xA9 PUSH32 0x0 DUP2 JUMP JUMPDEST PUSH1 0x40 MLOAD PUSH1 0x1 PUSH1 0x1 PUSH1 0xA0 SHL SUB SWAP1 SWAP2 AND DUP2 MSTORE PUSH1 0x20 ADD JUMPDEST PUSH1 0x40 MLOAD DUP1 SWAP2 SUB SWAP1 RETURN JUMPDEST PUSH2 0xCE PUSH2 0x13B JUMP JUMPDEST STOP JUMPDEST PUSH1 0x0 SLOAD PUSH1 0x1 PUSH1 0x1 PUSH1 0xA0 SHL SUB AND PUSH2 0xA9 JUMP JUMPDEST PUSH2 0xF4 PUSH2 0xEF CALLDATASIZE PUSH1 0x4 PUSH2 0x3B2 JUMP JUMPDEST PUSH2 0x14F JUMP JUMPDEST PUSH1 0x40 MLOAD SWAP1 ISZERO ISZERO DUP2 MSTORE PUSH1 0x20 ADD PUSH2 0xBD JUMP JUMPDEST PUSH1 0x1 SLOAD PUSH1 0x40 MLOAD SWAP1 DUP2 MSTORE PUSH1 0x20 ADD PUSH2 0xBD JUMP JUMPDEST PUSH2 0xCE PUSH2 0x123 CALLDATASIZE PUSH1 0x4 PUSH2 0x3B2 JUMP JUMPDEST PUSH2 0x203 JUMP JUMPDEST PUSH2 0xCE PUSH2 0x136 CALLDATASIZE PUSH1 0x4 PUSH2 0x3E2 JUMP JUMPDEST PUSH2 0x25F JUMP JUMPDEST PUSH2 0x143 PUSH2 0x304 JUMP JUMPDEST PUSH2 0x14D PUSH1 0x0 PUSH2 0x34A JUMP JUMPDEST JUMP JUMPDEST PUSH1 0x1 SLOAD PUSH1 0x40 MLOAD PUSH32 0x70A0823100000000000000000000000000000000000000000000000000000000 DUP2 MSTORE PUSH1 0x1 PUSH1 0x1 PUSH1 0xA0 SHL SUB DUP4 DUP2 AND PUSH1 0x4 DUP4 ADD MSTORE PUSH1 0x0 SWAP3 SWAP2 PUSH32 0x0 SWAP1 SWAP2 AND SWAP1 PUSH4 0x70A08231 SWAP1 PUSH1 0x24 ADD PUSH1 0x20 PUSH1 0x40 MLOAD DUP1 DUP4 SUB DUP2 DUP7 GAS STATICCALL ISZERO DUP1 ISZERO PUSH2 0x1D7 JUMPI RETURNDATASIZE PUSH1 0x0 DUP1 RETURNDATACOPY RETURNDATASIZE PUSH1 0x0 REVERT JUMPDEST POP POP POP POP PUSH1 0x40 MLOAD RETURNDATASIZE PUSH1 0x1F NOT PUSH1 0x1F DUP3 ADD AND DUP3 ADD DUP1 PUSH1 0x40 MSTORE POP DUP2 ADD SWAP1 PUSH2 0x1FB SWAP2 SWAP1 PUSH2 0x3FB JUMP JUMPDEST LT ISZERO SWAP3 SWAP2 POP POP JUMP JUMPDEST PUSH2 0x20B PUSH2 0x304 JUMP JUMPDEST PUSH1 0x1 PUSH1 0x1 PUSH1 0xA0 SHL SUB DUP2 AND PUSH2 0x253 JUMPI PUSH1 0x40 MLOAD PUSH32 0x1E4FBDF700000000000000000000000000000000000000000000000000000000 DUP2 MSTORE PUSH1 0x0 PUSH1 0x4 DUP3 ADD MSTORE PUSH1 0x24 ADD JUMPDEST PUSH1 0x40 MLOAD DUP1 SWAP2 SUB SWAP1 REVERT JUMPDEST PUSH2 0x25C DUP2 PUSH2 0x34A JUMP JUMPDEST POP JUMP JUMPDEST PUSH2 0x267 PUSH2 0x304 JUMP JUMPDEST PUSH32 0x0 PUSH1 0x1 PUSH1 0x1 PUSH1 0xA0 SHL SUB AND PUSH4 0x313CE567 PUSH1 0x40 MLOAD DUP2 PUSH4 0xFFFFFFFF AND PUSH1 0xE0 SHL DUP2 MSTORE PUSH1 0x4 ADD PUSH1 0x20 PUSH1 0x40 MLOAD DUP1 DUP4 SUB DUP2 DUP7 GAS STATICCALL ISZERO DUP1 ISZERO PUSH2 0x2C5 JUMPI RETURNDATASIZE PUSH1 0x0 DUP1 RETURNDATACOPY RETURNDATASIZE PUSH1 0x0 REVERT JUMPDEST POP POP POP POP PUSH1 0x40 MLOAD RETURNDATASIZE PUSH1 0x1F NOT PUSH1 0x1F DUP3 ADD AND DUP3 ADD DUP1 PUSH1 0x40 MSTORE POP DUP2 ADD SWAP1 PUSH2 0x2E9 SWAP2 SWAP1 PUSH2 0x414 JUMP JUMPDEST PUSH2 0x2F4 SWAP1 PUSH1 0xA PUSH2 0x54F JUMP JUMPDEST PUSH2 0x2FE SWAP1 DUP3 PUSH2 0x55E JUMP JUMPDEST PUSH1 0x1 SSTORE POP JUMP JUMPDEST PUSH1 0x0 SLOAD PUSH1 0x1 PUSH1 0x1 PUSH1 0xA0 SHL SUB AND CALLER EQ PUSH2 0x14D JUMPI PUSH1 0x40 MLOAD PUSH32 0x118CDAA700000000000000000000000000000000000000000000000000000000 DUP2 MSTORE CALLER PUSH1 0x4 DUP3 ADD MSTORE PUSH1 0x24 ADD PUSH2 0x24A JUMP JUMPDEST PUSH1 0x0 DUP1 SLOAD PUSH1 0x1 PUSH1 0x1 PUSH1 0xA0 SHL SUB DUP4 DUP2 AND PUSH32 0xFFFFFFFFFFFFFFFFFFFFFFFF0000000000000000000000000000000000000000 DUP4 AND DUP2 OR DUP5 SSTORE PUSH1 0x40 MLOAD SWAP2 SWAP1 SWAP3 AND SWAP3 DUP4 SWAP2 PUSH32 0x8BE0079C531659141344CD1FD0A4F28419497F9722A3DAAFE3B4186F6B6457E0 SWAP2 SWAP1 LOG3 POP POP JUMP JUMPDEST PUSH1 0x0 PUSH1 0x20 DUP3 DUP5 SUB SLT ISZERO PUSH2 0x3C4 JUMPI PUSH1 0x0 DUP1 REVERT JUMPDEST DUP2 CALLDATALOAD PUSH1 0x1 PUSH1 0x1 PUSH1 0xA0 SHL SUB DUP2 AND DUP2 EQ PUSH2 0x3DB JUMPI PUSH1 0x0 DUP1 REVERT JUMPDEST SWAP4 SWAP3 POP POP POP JUMP JUMPDEST PUSH1 0x0 PUSH1 0x20 DUP3 DUP5 SUB SLT ISZERO PUSH2 0x3F4 JUMPI PUSH1 0x0 DUP1 REVERT JUMPDEST POP CALLDATALOAD SWAP2 SWAP1 POP JUMP JUMPDEST PUSH1 0x0 PUSH1 0x20 DUP3 DUP5 SUB SLT ISZERO PUSH2 0x40D JUMPI PUSH1 0x0 DUP1 REVERT JUMPDEST POP MLOAD SWAP2 SWAP1 POP JUMP JUMPDEST PUSH1 0x0 PUSH1 0x20 DUP3 DUP5 SUB SLT ISZERO PUSH2 0x426 JUMPI PUSH1 0x0 DUP1 REVERT JUMPDEST DUP2 MLOAD PUSH1 0xFF DUP2 AND DUP2 EQ PUSH2 0x3DB JUMPI PUSH1 0x0 DUP1 REVERT JUMPDEST PUSH32 0x4E487B7100000000000000000000000000000000000000000000000000000000 PUSH1 0x0 MSTORE PUSH1 0x11 PUSH1 0x4 MSTORE PUSH1 0x24 PUSH1 0x0 REVERT JUMPDEST PUSH1 0x1 DUP2 JUMPDEST PUSH1 0x1 DUP5 GT ISZERO PUSH2 0x4A1 JUMPI DUP1 DUP6 DIV DUP2 GT ISZERO PUSH2 0x485 JUMPI PUSH2 0x485 PUSH2 0x437 JUMP JUMPDEST PUSH1 0x1 DUP5 AND ISZERO PUSH2 0x493 JUMPI SWAP1 DUP2 MUL SWAP1 JUMPDEST PUSH1 0x1 SWAP4 SWAP1 SWAP4 SHR SWAP3 DUP1 MUL PUSH2 0x46A JUMP JUMPDEST SWAP4 POP SWAP4 SWAP2 POP POP JUMP JUMPDEST PUSH1 0x0 DUP3 PUSH2 0x4B8 JUMPI POP PUSH1 0x1 PUSH2 0x549 JUMP JUMPDEST DUP2 PUSH2 0x4C5 JUMPI POP PUSH1 0x0 PUSH2 0x549 JUMP JUMPDEST DUP2 PUSH1 0x1 DUP2 EQ PUSH2 0x4DB JUMPI PUSH1 0x2 DUP2 EQ PUSH2 0x4E5 JUMPI PUSH2 0x501 JUMP JUMPDEST PUSH1 0x1 SWAP2 POP POP PUSH2 0x549 JUMP JUMPDEST PUSH1 0xFF DUP5 GT ISZERO PUSH2 0x4F6 JUMPI PUSH2 0x4F6 PUSH2 0x437 JUMP JUMPDEST POP POP PUSH1 0x1 DUP3 SHL PUSH2 0x549 JUMP JUMPDEST POP PUSH1 0x20 DUP4 LT PUSH2 0x133 DUP4 LT AND PUSH1 0x4E DUP5 LT PUSH1 0xB DUP5 LT AND OR ISZERO PUSH2 0x524 JUMPI POP DUP2 DUP2 EXP PUSH2 0x549 JUMP JUMPDEST PUSH2 0x531 PUSH1 0x0 NOT DUP5 DUP5 PUSH2 0x466 JUMP JUMPDEST DUP1 PUSH1 0x0 NOT DIV DUP3 GT ISZERO PUSH2 0x545 JUMPI PUSH2 0x545 PUSH2 0x437 JUMP JUMPDEST MUL SWAP1 POP JUMPDEST SWAP3 SWAP2 POP POP JUMP JUMPDEST PUSH1 0x0 PUSH2 0x3DB PUSH1 0xFF DUP5 AND DUP4 PUSH2 0x4A9 JUMP JUMPDEST DUP1 DUP3 MUL DUP2 ISZERO DUP3 DUP3 DIV DUP5 EQ OR PUSH2 0x549 JUMPI PUSH2 0x549 PUSH2 0x437 JUMP INVALID LOG2 PUSH5 0x6970667358 0x22 SLT KECCAK256 SWAP12 ORIGIN 0xD9 DIV 0x4C SHL EOFCREATE 0xAE 0x1F PUSH32 0x5299FED52D88992995CFBCCF3DA39AA1C70F56CD4CDE64736F6C634300081E00 CALLER "
		},
		"gasEstimates": {
			"creation": {
				"codeDepositCost": "290200",
				"executionCost": "infinite",
				"totalCost": "infinite"
			},
			"external": {
				"CREDI()": "infinite",
				"isWhale(address)": "infinite",
				"owner()": "2365",
				"renounceOwnership()": "infinite",
				"setWhaleThreshold(uint256)": "infinite",
				"transferOwnership(address)": "28327",
				"whaleThreshold()": "2302"
			}
		},
		"methodIdentifiers": {
			"CREDI()": "6db08f25",
			"isWhale(address)": "8ef1e259",
			"owner()": "8da5cb5b",
			"renounceOwnership()": "715018a6",
			"setWhaleThreshold(uint256)": "ffdd60f9",
			"transferOwnership(address)": "f2fde38b",
			"whaleThreshold()": "9a3bfdf5"
		}
	},
	"abi": [
		{
			"inputs": [
				{
					"internalType": "address",
					"name": "_CREDI",
					"type": "address"
				}
			],
			"stateMutability": "nonpayable",
			"type": "constructor"
		},
		{
			"inputs": [
				{
					"internalType": "address",
					"name": "owner",
					"type": "address"
				}
			],
			"name": "OwnableInvalidOwner",
			"type": "error"
		},
		{
			"inputs": [
				{
					"internalType": "address",
					"name": "account",
					"type": "address"
				}
			],
			"name": "OwnableUnauthorizedAccount",
			"type": "error"
		},
		{
			"anonymous": false,
			"inputs": [
				{
					"indexed": true,
					"internalType": "address",
					"name": "previousOwner",
					"type": "address"
				},
				{
					"indexed": true,
					"internalType": "address",
					"name": "newOwner",
					"type": "address"
				}
			],
			"name": "OwnershipTransferred",
			"type": "event"
		},
		{
			"inputs": [],
			"name": "CREDI",
			"outputs": [
				{
					"internalType": "address",
					"name": "",
					"type": "address"
				}
			],
			"stateMutability": "view",
			"type": "function"
		},
		{
			"inputs": [
				{
					"internalType": "address",
					"name": "user_address",
					"type": "address"
				}
			],
			"name": "isWhale",
			"outputs": [
				{
					"internalType": "bool",
					"name": "",
					"type": "bool"
				}
			],
			"stateMutability": "view",
			"type": "function"
		},
		{
			"inputs": [],
			"name": "owner",
			"outputs": [
				{
					"internalType": "address",
					"name": "",
					"type": "address"
				}
			],
			"stateMutability": "view",
			"type": "function"
		},
		{
			"inputs": [],
			"name": "renounceOwnership",
			"outputs": [],
			"stateMutability": "nonpayable",
			"type": "function"
		},
		{
			"inputs": [
				{
					"internalType": "uint256",
					"name": "new_threshold",
					"type": "uint256"
				}
			],
			"name": "setWhaleThreshold",
			"outputs": [],
			"stateMutability": "nonpayable",
			"type": "function"
		},
		{
			"inputs": [
				{
					"internalType": "address",
					"name": "newOwner",
					"type": "address"
				}
			],
			"name": "transferOwnership",
			"outputs": [],
			"stateMutability": "nonpayable",
			"type": "function"
		},
		{
			"inputs": [],
			"name": "whaleThreshold",
			"outputs": [
				{
					"internalType": "uint256",
					"name": "",
					"type": "uint256"
				}
			],
			"stateMutability": "view",
			"type": "function"
		}
	]
}