{
	"data": {
		"bytecode": {
			"linkReferences": {},
			"object": "60a06040526001600455348015610014575f5ffd5b50604051612595380380612595833981016040819052610033916101b3565b338061005857604051631e4fbdf760e01b81525f600482015260240160405180910390fd5b61006181610164565b5060018080556001600160a01b0391821660809081526040805160c0810182525f808252602082018181529282018181526060830182815294830182815260a0840183815260028054988901815590935292519351938716600160a01b6001600160601b039586168102919091177f405787fa12a823e0f2b7631cc41b3ba8828b3321ca811111fa75cd3aa3bb5ace600390980297880155905194519487169484168102949094177f405787fa12a823e0f2b7631cc41b3ba8828b3321ca811111fa75cd3aa3bb5acf860155905190519416931602919091177f405787fa12a823e0f2b7631cc41b3ba8828b3321ca811111fa75cd3aa3bb5ad0909101556101e0565b5f80546001600160a01b038381166001600160a01b0319831681178455604051919092169283917f8be0079c531659141344cd1fd0a4f28419497f9722a3daafe3b4186f6b6457e09190a35050565b5f602082840312156101c3575f5ffd5b81516001600160a01b03811681146101d9575f5ffd5b9392505050565b60805161238f6102065f395f81816102cb01528181610eb90152610f6c015261238f5ff3fe608060405234801561000f575f5ffd5b506004361061012e575f3560e01c8063715018a6116100ad578063a9fc507b1161007d578063cc5c56dc11610063578063cc5c56dc146102c6578063ce325bf8146102ed578063f2fde38b14610345575f5ffd5b8063a9fc507b146102ab578063b4ac6860146102be575f5ffd5b8063715018a61461024d57806374ee6b62146102555780638da5cb5b14610268578063954821b61461028c575f5ffd5b806325d5971f116101025780633b5dd047116100e85780633b5dd047146102065780634f44daa91461021957806369ca431b1461022c575f5ffd5b806325d5971f146101e0578063379607f5146101f3575f5ffd5b806221578414610132578063039ba6b714610147578063068bcd8d1461015a57806321241dfe146101be575b5f5ffd5b610145610140366004611f2e565b610358565b005b610145610155366004611f60565b6104aa565b61016d610168366004611f2e565b6105ed565b604080516001600160a01b039788168152958716602087015293909516928401929092526001600160601b039081166060840152908116608083015290911660a082015260c0015b60405180910390f35b6101c86234bc0081565b6040516001600160601b0390911681526020016101b5565b6101456101ee366004611f2e565b6107a1565b610145610201366004611f2e565b6109f7565b610145610214366004611fcf565b610cb8565b610145610227366004611f60565b61121a565b61023f61023a366004612065565b611354565b6040519081526020016101b5565b610145611698565b6101456102633660046120e5565b6116ab565b5f546001600160a01b03165b6040516001600160a01b0390911681526020016101b5565b61023f61029a366004612123565b60056020525f908152604090205481565b6101456102b9366004612145565b611808565b61023f6118d9565b6102747f000000000000000000000000000000000000000000000000000000000000000081565b6103006102fb366004611f2e565b6118ef565b604080516001600160a01b03909716875260208701959095526001600160601b03909316938501939093526060840152608083019190915260a082015260c0016101b5565b610145610353366004612123565b6119a2565b6103606119f5565b805f81118015610371575060045481105b6103c25760405162461bcd60e51b815260206004820152601b60248201527f4c505374616b696e673a496e76616c6964205374616b6520494421000000000060448201526064015b60405180910390fd5b5f82815260036020526040902060018101546103f2906234bc0090600160a01b90046001600160601b0316612183565b6001600160601b0316426001600160601b0316101561040f575f5ffd5b5f6002825f015481548110610426576104266121a8565b5f918252602080832060038681015493020160018101546001600160a01b0316845260059091526040832080549194509192906104649084906121bc565b90915550505f600383015581546040518581527f085cf309fcbacaf1ee2b300f62e8586a0661e41c7f318003e9aab792be89980b9060200160405180910390a250505050565b6104b26119f5565b815f811180156104c3575060025481105b61050f5760405162461bcd60e51b815260206004820152601a60248201527f4c505374616b696e673a496e76616c696420506f6f6c2049442100000000000060448201526064016103b9565b620186a0826001600160601b0316111561056b5760405162461bcd60e51b815260206004820152601a60248201527f4c505374616b696e673a6d61782061707920697320313030302500000000000060448201526064016103b9565b816002848154811061057f5761057f6121a8565b5f9182526020918290206003919091020160010180546001600160a01b0316600160a01b6001600160601b0394851602179055604051918416825284917f09a2c3c653a42f5c64bbfdf07224d8e0d6526460f44e520ac49bae23804e18e891015b60405180910390a2505050565b5f5f5f5f5f5f865f81118015610604575060025481105b6106505760405162461bcd60e51b815260206004820152601a60248201527f4c505374616b696e673a496e76616c696420506f6f6c2049442100000000000060448201526064016103b9565b60028881548110610663576106636121a8565b5f918252602090912060039091020154600280546001600160a01b03909216918a908110610693576106936121a8565b905f5260205f2090600302016001015f9054906101000a90046001600160a01b031660028a815481106106c8576106c86121a8565b905f5260205f2090600302016002015f9054906101000a90046001600160a01b031660028b815481106106fd576106fd6121a8565b905f5260205f2090600302015f0160149054906101000a90046001600160601b031660028c81548110610732576107326121a8565b905f5260205f20906003020160010160149054906101000a90046001600160601b031660028d81548110610768576107686121a8565b905f5260205f20906003020160020160149054906101000a90046001600160601b03169650965096509650965096505091939550919395565b6107a9611a3a565b805f811180156107ba575060045481105b6108065760405162461bcd60e51b815260206004820152601b60248201527f4c505374616b696e673a496e76616c6964205374616b6520494421000000000060448201526064016103b9565b5f82815260036020526040902060018101546001600160a01b031633146108795760405162461bcd60e51b815260206004820152602160248201527f4c505374616b696e673a43616c6c6572206973206e6f7420746865206f776e656044820152603960f91b60648201526084016103b9565b5f6002825f015481548110610890576108906121a8565b5f9182526020918290206040805160c081018252600390930290910180546001600160a01b0380821685526001600160601b03600160a01b92839004811696860196909652600180840154808316958701959095529382900486166060860152600290920154918216608085015290819004841660a08401529085015491935090041661091a4290565b6001600160601b031610156109865760405162461bcd60e51b815260206004820152602c60248201527f4c505374616b696e673a4561726c79205769746864726177616c206973206e6f60448201526b74207065726d69747465642160a01b60648201526084016103b9565b6002820154156109e8576109ab33600284015483516001600160a01b03169190611a7d565b5f600283015581546040518581527f3db0ca701d7c1106534c6003e5d65dae65a9cb891ad5bbb9be39c091df79d87e906020015b60405180910390a25b5050506109f460018055565b50565b6109ff611a3a565b805f81118015610a10575060045481105b610a5c5760405162461bcd60e51b815260206004820152601b60248201527f4c505374616b696e673a496e76616c6964205374616b6520494421000000000060448201526064016103b9565b5f82815260036020526040902060018101546001600160a01b03163314610acf5760405162461bcd60e51b815260206004820152602160248201527f4c505374616b696e673a43616c6c6572206973206e6f7420746865206f776e656044820152603960f91b60648201526084016103b9565b5f6002825f015481548110610ae657610ae66121a8565b5f918252602090912060018401546003909202019150600160a01b90046001600160601b0316426001600160601b03161015610b795760405162461bcd60e51b815260206004820152602c60248201527f4c505374616b696e673a4561726c79205769746864726177616c206973206e6f60448201526b74207065726d69747465642160a01b60648201526084016103b9565b5f826003015411610bcc5760405162461bcd60e51b815260206004820152601a60248201527f4c505374616b696e673a4e6f7468696e6720746f20636c61696d00000000000060448201526064016103b9565b600282015415610bf857610bf133600284015483546001600160a01b03169190611a7d565b5f60028301555b610c1633600384015460018401546001600160a01b03169190611a7d565b600382015460018201546001600160a01b03165f9081526005602052604081208054909190610c469084906121bc565b90915550505f600383015581546040518581527f3db0ca701d7c1106534c6003e5d65dae65a9cb891ad5bbb9be39c091df79d87e9060200160405180910390a281546040518581527f4d7828f2aa36030cc63cdea79ec646099aa121d019f1a90edb55078939fb84ea906020016109df565b610cc0611a3a565b855f81118015610cd1575060025481105b610d1d5760405162461bcd60e51b815260206004820152601a60248201527f4c505374616b696e673a496e76616c696420506f6f6c2049442100000000000060448201526064016103b9565b5f8611610d925760405162461bcd60e51b815260206004820152603160248201527f4c505374616b696e673a7374616b655f616d6f756e74206d757374206265206760448201527f726561746572207468616e207a65726f2100000000000000000000000000000060648201526084016103b9565b5f60028881548110610da657610da66121a8565b905f5260205f20906003020190505f8160010160149054906101000a90046001600160601b03166001600160601b031611610e235760405162461bcd60e51b815260206004820152601960248201527f4c505374616b696e673a506f6f6c20697320706175736564210000000000000060448201526064016103b9565b610e3a3382546001600160a01b031690308a611af6565b805460028201545f91610e5f916001600160a01b03918216918b91168a8a8a8a611b35565b825460018401549192505f916301e13380916001600160601b03600160a01b9182900481169261271092610e9692910416866121cf565b610ea091906121e6565b610eaa91906121cf565b610eb491906121e6565b90505f7f00000000000000000000000000000000000000000000000000000000000000006001600160a01b0316638ef1e259336040517fffffffff0000000000000000000000000000000000000000000000000000000060e084901b1681526001600160a01b039091166004820152602401602060405180830381865afa158015610f41573d5f5f3e3d5ffd5b505050506040513d601f19601f82011682018060405250810190610f659190612205565b1561104b577f00000000000000000000000000000000000000000000000000000000000000006001600160a01b0316639a3bfdf56040518163ffffffff1660e01b8152600401602060405180830381865afa158015610fc6573d5f5f3e3d5ffd5b505050506040513d601f19601f82011682018060405250810190610fea9190612224565b845460028601549192506301e13380916001600160601b03600160a01b92839004811692612710926110209291900416876121cf565b61102a91906121e6565b61103491906121cf565b61103e91906121e6565b611048908361223b565b91505b83545f90600160a01b90046001600160601b03164261106a9190612183565b90506040518060c001604052808d81526020016110843390565b6001600160a01b03168152602001826001600160601b031681526020018c81526020018481526020018381525060035f60045481526020019081526020015f205f820151815f01556020820151816001015f6101000a8154816001600160a01b0302191690836001600160a01b0316021790555060408201518160010160146101000a8154816001600160601b0302191690836001600160601b03160217905550606082015181600201556080820151816003015560a082015181600401559050508260055f876001015f9054906101000a90046001600160a01b03166001600160a01b03166001600160a01b031681526020019081526020015f205f82825461118e919061223b565b9091555050600454604080519182526001600160601b03831660208301528181018d90526060820185905260808201849052518d9133917fc48192cf3609b4932a8b10a6f09fe1cac38610fdef14eacc15b35c454da0b4c59181900360a00190a360048054905f6111fe8361224e565b919050555050505050505061121260018055565b505050505050565b6112226119f5565b815f81118015611233575060025481105b61127f5760405162461bcd60e51b815260206004820152601a60248201527f4c505374616b696e673a496e76616c696420506f6f6c2049442100000000000060448201526064016103b9565b620186a0826001600160601b031611156112db5760405162461bcd60e51b815260206004820181905260248201527f4c505374616b696e673a6d617820626f6e75732061707920697320313030302560448201526064016103b9565b81600284815481106112ef576112ef6121a8565b5f9182526020918290206003919091020160020180546001600160a01b0316600160a01b6001600160601b0394851602179055604051918416825284917fd3cd184b56b5b95016981fc55484ff8fdf06eb587430055c7ab828a0edc0dc9d91016105e0565b5f61135d6119f5565b5f846001600160601b0316116113db5760405162461bcd60e51b815260206004820152602960248201527f4c505374616b696e673a6d61747572697479206d75737420626520677265617460448201527f6572207468616e2030000000000000000000000000000000000000000000000060648201526084016103b9565b866001600160a01b0316866001600160a01b031663217a4b706040518163ffffffff1660e01b8152600401602060405180830381865afa158015611421573d5f5f3e3d5ffd5b505050506040513d601f19601f820116820180604052508101906114459190612266565b6001600160a01b0316146114e75760405162461bcd60e51b815260206004820152604160248201527f4c505374616b696e673a726577617264735f746f6b656e206d7573742062652060448201527f657175616c20746f2070726963655f6f7261636c652071756f746520746f6b6560648201527f6e00000000000000000000000000000000000000000000000000000000000000608482015260a4016103b9565b6040805160c0810182526001600160a01b038a811682526001600160601b03878116602084019081528b8316948401948552878216606085019081528b84166080860190815288841660a0870190815260028054600180820183555f83815299519651968916600160a01b9789168802177f405787fa12a823e0f2b7631cc41b3ba8828b3321ca811111fa75cd3aa3bb5ace600390930292830155995194519488169487168602949094177f405787fa12a823e0f2b7631cc41b3ba8828b3321ca811111fa75cd3aa3bb5acf85015591519051951694909316909102929092177f405787fa12a823e0f2b7631cc41b3ba8828b3321ca811111fa75cd3aa3bb5ad0909201919091555490916115fb916121bc565b9050876001600160a01b0316896001600160a01b0316827f6b64b7e8b6f4656658efb1c74b7d1bbff6e84d3d7b1cd5ae89fd6cd91de6ef968a89898960405161167494939291906001600160a01b039490941684526001600160601b039283166020850152908216604084015216606082015260800190565b60405180910390a4851561168c5761168c8887611808565b98975050505050505050565b6116a06119f5565b6116a95f611d05565b565b6116b36119f5565b6001600160a01b0383165f908152600560205260409020546116d5908261223b565b6040517f70a082310000000000000000000000000000000000000000000000000000000081523060048201526001600160a01b038516906370a0823190602401602060405180830381865afa158015611730573d5f5f3e3d5ffd5b505050506040513d601f19601f820116820180604052508101906117549190612224565b10156117a25760405162461bcd60e51b815260206004820152601560248201527f496e73756666696369656e742062616c616e636521000000000000000000000060448201526064016103b9565b6117b66001600160a01b0384168383611a7d565b816001600160a01b0316836001600160a01b03167fe06fab35f3c220725c11d544884aff93ebf67222c8310c487c71f27c844593e8836040516117fb91815260200190565b60405180910390a3505050565b5f811161187d5760405162461bcd60e51b815260206004820152602b60248201527f4c505374616b696e673a616d6f756e74206d757374206265206772656174657260448201527f207468616e207a65726f2100000000000000000000000000000000000000000060648201526084016103b9565b6118926001600160a01b038316333084611af6565b816001600160a01b03167fac24935fd910bc682b5ccb1a07b718cadf8cf2f6d1404c4f3ddc3662dae40e29826040516118cd91815260200190565b60405180910390a25050565b6002545f906118ea906001906121bc565b905090565b5f5f5f5f5f5f865f81118015611906575060045481105b6119525760405162461bcd60e51b815260206004820152601b60248201527f4c505374616b696e673a496e76616c6964205374616b6520494421000000000060448201526064016103b9565b5050505f9485525050600360208190526040909320600181015481546002830154958301546004909301546001600160a01b038316979196600160a01b9093046001600160601b03169550919350565b6119aa6119f5565b6001600160a01b0381166119ec576040517f1e4fbdf70000000000000000000000000000000000000000000000000000000081525f60048201526024016103b9565b6109f481611d05565b5f546001600160a01b031633146116a9576040517f118cdaa70000000000000000000000000000000000000000000000000000000081523360048201526024016103b9565b600260015403611a76576040517f3ee5aeb500000000000000000000000000000000000000000000000000000000815260040160405180910390fd5b6002600155565b6040516001600160a01b03838116602483015260448201839052611af191859182169063a9059cbb906064015b604051602081830303815290604052915060e01b6020820180517bffffffffffffffffffffffffffffffffffffffffffffffffffffffff8381831617835250505050611d6c565b505050565b6040516001600160a01b038481166024830152838116604483015260648201839052611b2f9186918216906323b872dd90608401611aaa565b50505050565b5f5f8890505f5f826001600160a01b0316630902f1ac6040518163ffffffff1660e01b8152600401606060405180830381865afa158015611b78573d5f5f3e3d5ffd5b505050506040513d601f19601f82011682018060405250810190611b9c919061229e565b50915091505f5f611c0e8c866001600160a01b03166318160ddd6040518163ffffffff1660e01b8152600401602060405180830381865afa158015611be3573d5f5f3e3d5ffd5b505050506040513d601f19601f82011682018060405250810190611c079190612224565b8686611df1565b91509150611c7e856001600160a01b031663d21220a76040518163ffffffff1660e01b8152600401602060405180830381865afa158015611c51573d5f5f3e3d5ffd5b505050506040513d601f19601f82011682018060405250810190611c759190612266565b828d8b8b611e50565b611cea866001600160a01b0316630dfe16816040518163ffffffff1660e01b8152600401602060405180830381865afa158015611cbd573d5f5f3e3d5ffd5b505050506040513d601f19601f82011682018060405250810190611ce19190612266565b848e8e8e611e50565b611cf4919061223b565b9d9c50505050505050505050505050565b5f80546001600160a01b038381167fffffffffffffffffffffffff0000000000000000000000000000000000000000831681178455604051919092169283917f8be0079c531659141344cd1fd0a4f28419497f9722a3daafe3b4186f6b6457e09190a35050565b5f5f60205f8451602086015f885af180611d8b576040513d5f823e3d81fd5b50505f513d91508115611da2578060011415611daf565b6001600160a01b0384163b155b15611b2f576040517f5274afe70000000000000000000000000000000000000000000000000000000081526001600160a01b03851660048201526024016103b9565b5f808085611e0f886dffffffffffffffffffffffffffff88166121cf565b611e1991906121e6565b90505f86611e37896dffffffffffffffffffffffffffff88166121cf565b611e4191906121e6565b91989197509095505050505050565b5f836001600160a01b0316636a0892158787896001600160a01b031663313ce5676040518163ffffffff1660e01b8152600401602060405180830381865afa158015611e9e573d5f5f3e3d5ffd5b505050506040513d601f19601f82011682018060405250810190611ec291906122ea565b87876040518663ffffffff1660e01b8152600401611ee495949392919061230a565b6020604051808303815f875af1158015611f00573d5f5f3e3d5ffd5b505050506040513d601f19601f82011682018060405250810190611f249190612224565b9695505050505050565b5f60208284031215611f3e575f5ffd5b5035919050565b80356001600160601b0381168114611f5b575f5ffd5b919050565b5f5f60408385031215611f71575f5ffd5b82359150611f8160208401611f45565b90509250929050565b5f5f83601f840112611f9a575f5ffd5b50813567ffffffffffffffff811115611fb1575f5ffd5b602083019150836020828501011115611fc8575f5ffd5b9250929050565b5f5f5f5f5f5f60808789031215611fe4575f5ffd5b8635955060208701359450604087013567ffffffffffffffff811115612008575f5ffd5b61201489828a01611f8a565b909550935050606087013567ffffffffffffffff811115612033575f5ffd5b61203f89828a01611f8a565b979a9699509497509295939492505050565b6001600160a01b03811681146109f4575f5ffd5b5f5f5f5f5f5f5f60e0888a03121561207b575f5ffd5b873561208681612051565b9650602088013561209681612051565b955060408801356120a681612051565b9450606088013593506120bb60808901611f45565b92506120c960a08901611f45565b91506120d760c08901611f45565b905092959891949750929550565b5f5f5f606084860312156120f7575f5ffd5b833561210281612051565b9250602084013561211281612051565b929592945050506040919091013590565b5f60208284031215612133575f5ffd5b813561213e81612051565b9392505050565b5f5f60408385031215612156575f5ffd5b823561216181612051565b946020939093013593505050565b634e487b7160e01b5f52601160045260245ffd5b6001600160601b0381811683821601908111156121a2576121a261216f565b92915050565b634e487b7160e01b5f52603260045260245ffd5b818103818111156121a2576121a261216f565b80820281158282048414176121a2576121a261216f565b5f8261220057634e487b7160e01b5f52601260045260245ffd5b500490565b5f60208284031215612215575f5ffd5b8151801515811461213e575f5ffd5b5f60208284031215612234575f5ffd5b5051919050565b808201808211156121a2576121a261216f565b5f6001820161225f5761225f61216f565b5060010190565b5f60208284031215612276575f5ffd5b815161213e81612051565b80516dffffffffffffffffffffffffffff81168114611f5b575f5ffd5b5f5f5f606084860312156122b0575f5ffd5b6122b984612281565b92506122c760208501612281565b9150604084015163ffffffff811681146122df575f5ffd5b809150509250925092565b5f602082840312156122fa575f5ffd5b815160ff8116811461213e575f5ffd5b6001600160a01b038616815284602082015260ff8416604082015260806060820152816080820152818360a08301375f81830160a090810191909152601f909201601f1916010194935050505056fea2646970667358221220f4a58dbffa6e655f93d91c0abcd6dd19730178db6015d5993607743d4f07653f64736f6c634300081e0033",
			"opcodes": "PUSH1 0xA0 PUSH1 0x40 MSTORE PUSH1 0x1 PUSH1 0x4 SSTORE CALLVALUE DUP1 ISZERO PUSH2 0x14 JUMPI PUSH0 PUSH0 REVERT JUMPDEST POP PUSH1 0x40 MLOAD PUSH2 0x2595 CODESIZE SUB DUP1 PUSH2 0x2595 DUP4 CODECOPY DUP2 ADD PUSH1 0x40 DUP2 SWAP1 MSTORE PUSH2 0x33 SWAP2 PUSH2 0x1B3 JUMP JUMPDEST CALLER DUP1 PUSH2 0x58 JUMPI PUSH1 0x40 MLOAD PUSH4 0x1E4FBDF7 PUSH1 0xE0 SHL DUP2 MSTORE PUSH0 PUSH1 0x4 DUP3 ADD MSTORE PUSH1 0x24 ADD PUSH1 0x40 MLOAD DUP1 SWAP2 SUB SWAP1 REVERT JUMPDEST PUSH2 0x61 DUP2 PUSH2 0x164 JUMP JUMPDEST POP PUSH1 0x1 DUP1 DUP1 SSTORE PUSH1 0x1 PUSH1 0x1 PUSH1 0xA0 SHL SUB SWAP2 DUP3 AND PUSH1 0x80 SWAP1 DUP2 MSTORE PUSH1 0x40 DUP1 MLOAD PUSH1 0xC0 DUP2 ADD DUP3 MSTORE PUSH0 DUP1 DUP3 MSTORE PUSH1 0x20 DUP3 ADD DUP2 DUP2 MSTORE SWAP3 DUP3 ADD DUP2 DUP2 MSTORE PUSH1 0x60 DUP4 ADD DUP3 DUP2 MSTORE SWAP5 DUP4 ADD DUP3 DUP2 MSTORE PUSH1 0xA0 DUP5 ADD DUP4 DUP2 MSTORE PUSH1 0x2 DUP1 SLOAD SWAP9 DUP10 ADD DUP2 SSTORE SWAP1 SWAP4 MSTORE SWAP3 MLOAD SWAP4 MLOAD SWAP4 DUP8 AND PUSH1 0x1 PUSH1 0xA0 SHL PUSH1 0x1 PUSH1 0x1 PUSH1 0x60 SHL SUB SWAP6 DUP7 AND DUP2 MUL SWAP2 SWAP1 SWAP2 OR PUSH32 0x405787FA12A823E0F2B7631CC41B3BA8828B3321CA811111FA75CD3AA3BB5ACE PUSH1 0x3 SWAP1 SWAP9 MUL SWAP8 DUP9 ADD SSTORE SWAP1 MLOAD SWAP5 MLOAD SWAP5 DUP8 AND SWAP5 DUP5 AND DUP2 MUL SWAP5 SWAP1 SWAP5 OR PUSH32 0x405787FA12A823E0F2B7631CC41B3BA8828B3321CA811111FA75CD3AA3BB5ACF DUP7 ADD SSTORE SWAP1 MLOAD SWAP1 MLOAD SWAP5 AND SWAP4 AND MUL SWAP2 SWAP1 SWAP2 OR PUSH32 0x405787FA12A823E0F2B7631CC41B3BA8828B3321CA811111FA75CD3AA3BB5AD0 SWAP1 SWAP2 ADD SSTORE PUSH2 0x1E0 JUMP JUMPDEST PUSH0 DUP1 SLOAD PUSH1 0x1 PUSH1 0x1 PUSH1 0xA0 SHL SUB DUP4 DUP2 AND PUSH1 0x1 PUSH1 0x1 PUSH1 0xA0 SHL SUB NOT DUP4 AND DUP2 OR DUP5 SSTORE PUSH1 0x40 MLOAD SWAP2 SWAP1 SWAP3 AND SWAP3 DUP4 SWAP2 PUSH32 0x8BE0079C531659141344CD1FD0A4F28419497F9722A3DAAFE3B4186F6B6457E0 SWAP2 SWAP1 LOG3 POP POP JUMP JUMPDEST PUSH0 PUSH1 0x20 DUP3 DUP5 SUB SLT ISZERO PUSH2 0x1C3 JUMPI PUSH0 PUSH0 REVERT JUMPDEST DUP2 MLOAD PUSH1 0x1 PUSH1 0x1 PUSH1 0xA0 SHL SUB DUP2 AND DUP2 EQ PUSH2 0x1D9 JUMPI PUSH0 PUSH0 REVERT JUMPDEST SWAP4 SWAP3 POP POP POP JUMP JUMPDEST PUSH1 0x80 MLOAD PUSH2 0x238F PUSH2 0x206 PUSH0 CODECOPY PUSH0 DUP2 DUP2 PUSH2 0x2CB ADD MSTORE DUP2 DUP2 PUSH2 0xEB9 ADD MSTORE PUSH2 0xF6C ADD MSTORE PUSH2 0x238F PUSH0 RETURN INVALID PUSH1 0x80 PUSH1 0x40 MSTORE CALLVALUE DUP1 ISZERO PUSH2 0xF JUMPI PUSH0 PUSH0 REVERT JUMPDEST POP PUSH1 0x4 CALLDATASIZE LT PUSH2 0x12E JUMPI PUSH0 CALLDATALOAD PUSH1 0xE0 SHR DUP1 PUSH4 0x715018A6 GT PUSH2 0xAD JUMPI DUP1 PUSH4 0xA9FC507B GT PUSH2 0x7D JUMPI DUP1 PUSH4 0xCC5C56DC GT PUSH2 0x63 JUMPI DUP1 PUSH4 0xCC5C56DC EQ PUSH2 0x2C6 JUMPI DUP1 PUSH4 0xCE325BF8 EQ PUSH2 0x2ED JUMPI DUP1 PUSH4 0xF2FDE38B EQ PUSH2 0x345 JUMPI PUSH0 PUSH0 REVERT JUMPDEST DUP1 PUSH4 0xA9FC507B EQ PUSH2 0x2AB JUMPI DUP1 PUSH4 0xB4AC6860 EQ PUSH2 0x2BE JUMPI PUSH0 PUSH0 REVERT JUMPDEST DUP1 PUSH4 0x715018A6 EQ PUSH2 0x24D JUMPI DUP1 PUSH4 0x74EE6B62 EQ PUSH2 0x255 JUMPI DUP1 PUSH4 0x8DA5CB5B EQ PUSH2 0x268 JUMPI DUP1 PUSH4 0x954821B6 EQ PUSH2 0x28C JUMPI PUSH0 PUSH0 REVERT JUMPDEST DUP1 PUSH4 0x25D5971F GT PUSH2 0x102 JUMPI DUP1 PUSH4 0x3B5DD047 GT PUSH2 0xE8 JUMPI DUP1 PUSH4 0x3B5DD047 EQ PUSH2 0x206 JUMPI DUP1 PUSH4 0x4F44DAA9 EQ PUSH2 0x219 JUMPI DUP1 PUSH4 0x69CA431B EQ PUSH2 0x22C JUMPI PUSH0 PUSH0 REVERT JUMPDEST DUP1 PUSH4 0x25D5971F EQ PUSH2 0x1E0 JUMPI DUP1 PUSH4 0x379607F5 EQ PUSH2 0x1F3 JUMPI PUSH0 PUSH0 REVERT JUMPDEST DUP1 PUSH3 0x215784 EQ PUSH2 0x132 JUMPI DUP1 PUSH4 0x39BA6B7 EQ PUSH2 0x147 JUMPI DUP1 PUSH4 0x68BCD8D EQ PUSH2 0x15A JUMPI DUP1 PUSH4 0x21241DFE EQ PUSH2 0x1BE JUMPI JUMPDEST PUSH0 PUSH0 REVERT JUMPDEST PUSH2 0x145 PUSH2 0x140 CALLDATASIZE PUSH1 0x4 PUSH2 0x1F2E JUMP JUMPDEST PUSH2 0x358 JUMP JUMPDEST STOP JUMPDEST PUSH2 0x145 PUSH2 0x155 CALLDATASIZE PUSH1 0x4 PUSH2 0x1F60 JUMP JUMPDEST PUSH2 0x4AA JUMP JUMPDEST PUSH2 0x16D PUSH2 0x168 CALLDATASIZE PUSH1 0x4 PUSH2 0x1F2E JUMP JUMPDEST PUSH2 0x5ED JUMP JUMPDEST PUSH1 0x40 DUP1 MLOAD PUSH1 0x1 PUSH1 0x1 PUSH1 0xA0 SHL SUB SWAP8 DUP9 AND DUP2 MSTORE SWAP6 DUP8 AND PUSH1 0x20 DUP8 ADD MSTORE SWAP4 SWAP1 SWAP6 AND SWAP3 DUP5 ADD SWAP3 SWAP1 SWAP3 MSTORE PUSH1 0x1 PUSH1 0x1 PUSH1 0x60 SHL SUB SWAP1 DUP2 AND PUSH1 0x60 DUP5 ADD MSTORE SWAP1 DUP2 AND PUSH1 0x80 DUP4 ADD MSTORE SWAP1 SWAP2 AND PUSH1 0xA0 DUP3 ADD MSTORE PUSH1 0xC0 ADD JUMPDEST PUSH1 0x40 MLOAD DUP1 SWAP2 SUB SWAP1 RETURN JUMPDEST PUSH2 0x1C8 PUSH3 0x34BC00 DUP2 JUMP JUMPDEST PUSH1 0x40 MLOAD PUSH1 0x1 PUSH1 0x1 PUSH1 0x60 SHL SUB SWAP1 SWAP2 AND DUP2 MSTORE PUSH1 0x20 ADD PUSH2 0x1B5 JUMP JUMPDEST PUSH2 0x145 PUSH2 0x1EE CALLDATASIZE PUSH1 0x4 PUSH2 0x1F2E JUMP JUMPDEST PUSH2 0x7A1 JUMP JUMPDEST PUSH2 0x145 PUSH2 0x201 CALLDATASIZE PUSH1 0x4 PUSH2 0x1F2E JUMP JUMPDEST PUSH2 0x9F7 JUMP JUMPDEST PUSH2 0x145 PUSH2 0x214 CALLDATASIZE PUSH1 0x4 PUSH2 0x1FCF JUMP JUMPDEST PUSH2 0xCB8 JUMP JUMPDEST PUSH2 0x145 PUSH2 0x227 CALLDATASIZE PUSH1 0x4 PUSH2 0x1F60 JUMP JUMPDEST PUSH2 0x121A JUMP JUMPDEST PUSH2 0x23F PUSH2 0x23A CALLDATASIZE PUSH1 0x4 PUSH2 0x2065 JUMP JUMPDEST PUSH2 0x1354 JUMP JUMPDEST PUSH1 0x40 MLOAD SWAP1 DUP2 MSTORE PUSH1 0x20 ADD PUSH2 0x1B5 JUMP JUMPDEST PUSH2 0x145 PUSH2 0x1698 JUMP JUMPDEST PUSH2 0x145 PUSH2 0x263 CALLDATASIZE PUSH1 0x4 PUSH2 0x20E5 JUMP JUMPDEST PUSH2 0x16AB JUMP JUMPDEST PUSH0 SLOAD PUSH1 0x1 PUSH1 0x1 PUSH1 0xA0 SHL SUB AND JUMPDEST PUSH1 0x40 MLOAD PUSH1 0x1 PUSH1 0x1 PUSH1 0xA0 SHL SUB SWAP1 SWAP2 AND DUP2 MSTORE PUSH1 0x20 ADD PUSH2 0x1B5 JUMP JUMPDEST PUSH2 0x23F PUSH2 0x29A CALLDATASIZE PUSH1 0x4 PUSH2 0x2123 JUMP JUMPDEST PUSH1 0x5 PUSH1 0x20 MSTORE PUSH0 SWAP1 DUP2 MSTORE PUSH1 0x40 SWAP1 KECCAK256 SLOAD DUP2 JUMP JUMPDEST PUSH2 0x145 PUSH2 0x2B9 CALLDATASIZE PUSH1 0x4 PUSH2 0x2145 JUMP JUMPDEST PUSH2 0x1808 JUMP JUMPDEST PUSH2 0x23F PUSH2 0x18D9 JUMP JUMPDEST PUSH2 0x274 PUSH32 0x0 DUP2 JUMP JUMPDEST PUSH2 0x300 PUSH2 0x2FB CALLDATASIZE PUSH1 0x4 PUSH2 0x1F2E JUMP JUMPDEST PUSH2 0x18EF JUMP JUMPDEST PUSH1 0x40 DUP1 MLOAD PUSH1 0x1 PUSH1 0x1 PUSH1 0xA0 SHL SUB SWAP1 SWAP8 AND DUP8 MSTORE PUSH1 0x20 DUP8 ADD SWAP6 SWAP1 SWAP6 MSTORE PUSH1 0x1 PUSH1 0x1 PUSH1 0x60 SHL SUB SWAP1 SWAP4 AND SWAP4 DUP6 ADD SWAP4 SWAP1 SWAP4 MSTORE PUSH1 0x60 DUP5 ADD MSTORE PUSH1 0x80 DUP4 ADD SWAP2 SWAP1 SWAP2 MSTORE PUSH1 0xA0 DUP3 ADD MSTORE PUSH1 0xC0 ADD PUSH2 0x1B5 JUMP JUMPDEST PUSH2 0x145 PUSH2 0x353 CALLDATASIZE PUSH1 0x4 PUSH2 0x2123 JUMP JUMPDEST PUSH2 0x19A2 JUMP JUMPDEST PUSH2 0x360 PUSH2 0x19F5 JUMP JUMPDEST DUP1 PUSH0 DUP2 GT DUP1 ISZERO PUSH2 0x371 JUMPI POP PUSH1 0x4 SLOAD DUP2 LT JUMPDEST PUSH2 0x3C2 JUMPI PUSH1 0x40 MLOAD PUSH3 0x461BCD PUSH1 0xE5 SHL DUP2 MSTORE PUSH1 0x20 PUSH1 0x4 DUP3 ADD MSTORE PUSH1 0x1B PUSH1 0x24 DUP3 ADD MSTORE PUSH32 0x4C505374616B696E673A496E76616C6964205374616B65204944210000000000 PUSH1 0x44 DUP3 ADD MSTORE PUSH1 0x64 ADD JUMPDEST PUSH1 0x40 MLOAD DUP1 SWAP2 SUB SWAP1 REVERT JUMPDEST PUSH0 DUP3 DUP2 MSTORE PUSH1 0x3 PUSH1 0x20 MSTORE PUSH1 0x40 SWAP1 KECCAK256 PUSH1 0x1 DUP2 ADD SLOAD PUSH2 0x3F2 SWAP1 PUSH3 0x34BC00 SWAP1 PUSH1 0x1 PUSH1 0xA0 SHL SWAP1 DIV PUSH1 0x1 PUSH1 0x1 PUSH1 0x60 SHL SUB AND PUSH2 0x2183 JUMP JUMPDEST PUSH1 0x1 PUSH1 0x1 PUSH1 0x60 SHL SUB AND TIMESTAMP PUSH1 0x1 PUSH1 0x1 PUSH1 0x60 SHL SUB AND LT ISZERO PUSH2 0x40F JUMPI PUSH0 PUSH0 REVERT JUMPDEST PUSH0 PUSH1 0x2 DUP3 PUSH0 ADD SLOAD DUP2 SLOAD DUP2 LT PUSH2 0x426 JUMPI PUSH2 0x426 PUSH2 0x21A8 JUMP JUMPDEST PUSH0 SWAP2 DUP3 MSTORE PUSH1 0x20 DUP1 DUP4 KECCAK256 PUSH1 0x3 DUP7 DUP2 ADD SLOAD SWAP4 MUL ADD PUSH1 0x1 DUP2 ADD SLOAD PUSH1 0x1 PUSH1 0x1 PUSH1 0xA0 SHL SUB AND DUP5 MSTORE PUSH1 0x5 SWAP1 SWAP2 MSTORE PUSH1 0x40 DUP4 KECCAK256 DUP1 SLOAD SWAP2 SWAP5 POP SWAP2 SWAP3 SWAP1 PUSH2 0x464 SWAP1 DUP5 SWAP1 PUSH2 0x21BC JUMP JUMPDEST SWAP1 SWAP2 SSTORE POP POP PUSH0 PUSH1 0x3 DUP4 ADD SSTORE DUP2 SLOAD PUSH1 0x40 MLOAD DUP6 DUP2 MSTORE PUSH32 0x85CF309FCBACAF1EE2B300F62E8586A0661E41C7F318003E9AAB792BE89980B SWAP1 PUSH1 0x20 ADD PUSH1 0x40 MLOAD DUP1 SWAP2 SUB SWAP1 LOG2 POP POP POP POP JUMP JUMPDEST PUSH2 0x4B2 PUSH2 0x19F5 JUMP JUMPDEST DUP2 PUSH0 DUP2 GT DUP1 ISZERO PUSH2 0x4C3 JUMPI POP PUSH1 0x2 SLOAD DUP2 LT JUMPDEST PUSH2 0x50F JUMPI PUSH1 0x40 MLOAD PUSH3 0x461BCD PUSH1 0xE5 SHL DUP2 MSTORE PUSH1 0x20 PUSH1 0x4 DUP3 ADD MSTORE PUSH1 0x1A PUSH1 0x24 DUP3 ADD MSTORE PUSH32 0x4C505374616B696E673A496E76616C696420506F6F6C20494421000000000000 PUSH1 0x44 DUP3 ADD MSTORE PUSH1 0x64 ADD PUSH2 0x3B9 JUMP JUMPDEST PUSH3 0x186A0 DUP3 PUSH1 0x1 PUSH1 0x1 PUSH1 0x60 SHL SUB AND GT ISZERO PUSH2 0x56B JUMPI PUSH1 0x40 MLOAD PUSH3 0x461BCD PUSH1 0xE5 SHL DUP2 MSTORE PUSH1 0x20 PUSH1 0x4 DUP3 ADD MSTORE PUSH1 0x1A PUSH1 0x24 DUP3 ADD MSTORE PUSH32 0x4C505374616B696E673A6D617820617079206973203130303025000000000000 PUSH1 0x44 DUP3 ADD MSTORE PUSH1 0x64 ADD PUSH2 0x3B9 JUMP JUMPDEST DUP2 PUSH1 0x2 DUP5 DUP2 SLOAD DUP2 LT PUSH2 0x57F JUMPI PUSH2 0x57F PUSH2 0x21A8 JUMP JUMPDEST PUSH0 SWAP2 DUP3 MSTORE PUSH1 0x20 SWAP2 DUP3 SWAP1 KECCAK256 PUSH1 0x3 SWAP2 SWAP1 SWAP2 MUL ADD PUSH1 0x1 ADD DUP1 SLOAD PUSH1 0x1 PUSH1 0x1 PUSH1 0xA0 SHL SUB AND PUSH1 0x1 PUSH1 0xA0 SHL PUSH1 0x1 PUSH1 0x1 PUSH1 0x60 SHL SUB SWAP5 DUP6 AND MUL OR SWAP1 SSTORE PUSH1 0x40 MLOAD SWAP2 DUP5 AND DUP3 MSTORE DUP5 SWAP2 PUSH32 0x9A2C3C653A42F5C64BBFDF07224D8E0D6526460F44E520AC49BAE23804E18E8 SWAP2 ADD JUMPDEST PUSH1 0x40 MLOAD DUP1 SWAP2 SUB SWAP1 LOG2 POP POP POP JUMP JUMPDEST PUSH0 PUSH0 PUSH0 PUSH0 PUSH0 PUSH0 DUP7 PUSH0 DUP2 GT DUP1 ISZERO PUSH2 0x604 JUMPI POP PUSH1 0x2 SLOAD DUP2 LT JUMPDEST PUSH2 0x650 JUMPI PUSH1 0x40 MLOAD PUSH3 0x461BCD PUSH1 0xE5 SHL DUP2 MSTORE PUSH1 0x20 PUSH1 0x4 DUP3 ADD MSTORE PUSH1 0x1A PUSH1 0x24 DUP3 ADD MSTORE PUSH32 0x4C505374616B696E673A496E76616C696420506F6F6C20494421000000000000 PUSH1 0x44 DUP3 ADD MSTORE PUSH1 0x64 ADD PUSH2 0x3B9 JUMP JUMPDEST PUSH1 0x2 DUP9 DUP2 SLOAD DUP2 LT PUSH2 0x663 JUMPI PUSH2 0x663 PUSH2 0x21A8 JUMP JUMPDEST PUSH0 SWAP2 DUP3 MSTORE PUSH1 0x20 SWAP1 SWAP2 KECCAK256 PUSH1 0x3 SWAP1 SWAP2 MUL ADD SLOAD PUSH1 0x2 DUP1 SLOAD PUSH1 0x1 PUSH1 0x1 PUSH1 0xA0 SHL SUB SWAP1 SWAP3 AND SWAP2 DUP11 SWAP1 DUP2 LT PUSH2 0x693 JUMPI PUSH2 0x693 PUSH2 0x21A8 JUMP JUMPDEST SWAP1 PUSH0 MSTORE PUSH1 0x20 PUSH0 KECCAK256 SWAP1 PUSH1 0x3 MUL ADD PUSH1 0x1 ADD PUSH0 SWAP1 SLOAD SWAP1 PUSH2 0x100 EXP SWAP1 DIV PUSH1 0x1 PUSH1 0x1 PUSH1 0xA0 SHL SUB AND PUSH1 0x2 DUP11 DUP2 SLOAD DUP2 LT PUSH2 0x6C8 JUMPI PUSH2 0x6C8 PUSH2 0x21A8 JUMP JUMPDEST SWAP1 PUSH0 MSTORE PUSH1 0x20 PUSH0 KECCAK256 SWAP1 PUSH1 0x3 MUL ADD PUSH1 0x2 ADD PUSH0 SWAP1 SLOAD SWAP1 PUSH2 0x100 EXP SWAP1 DIV PUSH1 0x1 PUSH1 0x1 PUSH1 0xA0 SHL SUB AND PUSH1 0x2 DUP12 DUP2 SLOAD DUP2 LT PUSH2 0x6FD JUMPI PUSH2 0x6FD PUSH2 0x21A8 JUMP JUMPDEST SWAP1 PUSH0 MSTORE PUSH1 0x20 PUSH0 KECCAK256 SWAP1 PUSH1 0x3 MUL ADD PUSH0 ADD PUSH1 0x14 SWAP1 SLOAD SWAP1 PUSH2 0x100 EXP SWAP1 DIV PUSH1 0x1 PUSH1 0x1 PUSH1 0x60 SHL SUB AND PUSH1 0x2 DUP13 DUP2 SLOAD DUP2 LT PUSH2 0x732 JUMPI PUSH2 0x732 PUSH2 0x21A8 JUMP JUMPDEST SWAP1 PUSH0 MSTORE PUSH1 0x20 PUSH0 KECCAK256 SWAP1 PUSH1 0x3 MUL ADD PUSH1 0x1 ADD PUSH1 0x14 SWAP1 SLOAD SWAP1 PUSH2 0x100 EXP SWAP1 DIV PUSH1 0x1 PUSH1 0x1 PUSH1 0x60 SHL SUB AND PUSH1 0x2 DUP14 DUP2 SLOAD DUP2 LT PUSH2 0x768 JUMPI PUSH2 0x768 PUSH2 0x21A8 JUMP JUMPDEST SWAP1 PUSH0 MSTORE PUSH1 0x20 PUSH0 KECCAK256 SWAP1 PUSH1 0x3 MUL ADD PUSH1 0x2 ADD PUSH1 0x14 SWAP1 SLOAD SWAP1 PUSH2 0x100 EXP SWAP1 DIV PUSH1 0x1 PUSH1 0x1 PUSH1 0x60 SHL SUB AND SWAP7 POP SWAP7 POP SWAP7 POP SWAP7 POP SWAP7 POP SWAP7 POP POP SWAP2 SWAP4 SWAP6 POP SWAP2 SWAP4 SWAP6 JUMP JUMPDEST PUSH2 0x7A9 PUSH2 0x1A3A JUMP JUMPDEST DUP1 PUSH0 DUP2 GT DUP1 ISZERO PUSH2 0x7BA JUMPI POP PUSH1 0x4 SLOAD DUP2 LT JUMPDEST PUSH2 0x806 JUMPI PUSH1 0x40 MLOAD PUSH3 0x461BCD PUSH1 0xE5 SHL DUP2 MSTORE PUSH1 0x20 PUSH1 0x4 DUP3 ADD MSTORE PUSH1 0x1B PUSH1 0x24 DUP3 ADD MSTORE PUSH32 0x4C505374616B696E673A496E76616C6964205374616B65204944210000000000 PUSH1 0x44 DUP3 ADD MSTORE PUSH1 0x64 ADD PUSH2 0x3B9 JUMP JUMPDEST PUSH0 DUP3 DUP2 MSTORE PUSH1 0x3 PUSH1 0x20 MSTORE PUSH1 0x40 SWAP1 KECCAK256 PUSH1 0x1 DUP2 ADD SLOAD PUSH1 0x1 PUSH1 0x1 PUSH1 0xA0 SHL SUB AND CALLER EQ PUSH2 0x879 JUMPI PUSH1 0x40 MLOAD PUSH3 0x461BCD PUSH1 0xE5 SHL DUP2 MSTORE PUSH1 0x20 PUSH1 0x4 DUP3 ADD MSTORE PUSH1 0x21 PUSH1 0x24 DUP3 ADD MSTORE PUSH32 0x4C505374616B696E673A43616C6C6572206973206E6F7420746865206F776E65 PUSH1 0x44 DUP3 ADD MSTORE PUSH1 0x39 PUSH1 0xF9 SHL PUSH1 0x64 DUP3 ADD MSTORE PUSH1 0x84 ADD PUSH2 0x3B9 JUMP JUMPDEST PUSH0 PUSH1 0x2 DUP3 PUSH0 ADD SLOAD DUP2 SLOAD DUP2 LT PUSH2 0x890 JUMPI PUSH2 0x890 PUSH2 0x21A8 JUMP JUMPDEST PUSH0 SWAP2 DUP3 MSTORE PUSH1 0x20 SWAP2 DUP3 SWAP1 KECCAK256 PUSH1 0x40 DUP1 MLOAD PUSH1 0xC0 DUP2 ADD DUP3 MSTORE PUSH1 0x3 SWAP1 SWAP4 MUL SWAP1 SWAP2 ADD DUP1 SLOAD PUSH1 0x1 PUSH1 0x1 PUSH1 0xA0 SHL SUB DUP1 DUP3 AND DUP6 MSTORE PUSH1 0x1 PUSH1 0x1 PUSH1 0x60 SHL SUB PUSH1 0x1 PUSH1 0xA0 SHL SWAP3 DUP4 SWAP1 DIV DUP2 AND SWAP7 DUP7 ADD SWAP7 SWAP1 SWAP7 MSTORE PUSH1 0x1 DUP1 DUP5 ADD SLOAD DUP1 DUP4 AND SWAP6 DUP8 ADD SWAP6 SWAP1 SWAP6 MSTORE SWAP4 DUP3 SWAP1 DIV DUP7 AND PUSH1 0x60 DUP7 ADD MSTORE PUSH1 0x2 SWAP1 SWAP3 ADD SLOAD SWAP2 DUP3 AND PUSH1 0x80 DUP6 ADD MSTORE SWAP1 DUP2 SWAP1 DIV DUP5 AND PUSH1 0xA0 DUP5 ADD MSTORE SWAP1 DUP6 ADD SLOAD SWAP2 SWAP4 POP SWAP1 DIV AND PUSH2 0x91A TIMESTAMP SWAP1 JUMP JUMPDEST PUSH1 0x1 PUSH1 0x1 PUSH1 0x60 SHL SUB AND LT ISZERO PUSH2 0x986 JUMPI PUSH1 0x40 MLOAD PUSH3 0x461BCD PUSH1 0xE5 SHL DUP2 MSTORE PUSH1 0x20 PUSH1 0x4 DUP3 ADD MSTORE PUSH1 0x2C PUSH1 0x24 DUP3 ADD MSTORE PUSH32 0x4C505374616B696E673A4561726C79205769746864726177616C206973206E6F PUSH1 0x44 DUP3 ADD MSTORE PUSH12 0x74207065726D697474656421 PUSH1 0xA0 SHL PUSH1 0x64 DUP3 ADD MSTORE PUSH1 0x84 ADD PUSH2 0x3B9 JUMP JUMPDEST PUSH1 0x2 DUP3 ADD SLOAD ISZERO PUSH2 0x9E8 JUMPI PUSH2 0x9AB CALLER PUSH1 0x2 DUP5 ADD SLOAD DUP4 MLOAD PUSH1 0x1 PUSH1 0x1 PUSH1 0xA0 SHL SUB AND SWAP2 SWAP1 PUSH2 0x1A7D JUMP JUMPDEST PUSH0 PUSH1 0x2 DUP4 ADD SSTORE DUP2 SLOAD PUSH1 0x40 MLOAD DUP6 DUP2 MSTORE PUSH32 0x3DB0CA701D7C1106534C6003E5D65DAE65A9CB891AD5BBB9BE39C091DF79D87E SWAP1 PUSH1 0x20 ADD JUMPDEST PUSH1 0x40 MLOAD DUP1 SWAP2 SUB SWAP1 LOG2 JUMPDEST POP POP POP PUSH2 0x9F4 PUSH1 0x1 DUP1 SSTORE JUMP JUMPDEST POP JUMP JUMPDEST PUSH2 0x9FF PUSH2 0x1A3A JUMP JUMPDEST DUP1 PUSH0 DUP2 GT DUP1 ISZERO PUSH2 0xA10 JUMPI POP PUSH1 0x4 SLOAD DUP2 LT JUMPDEST PUSH2 0xA5C JUMPI PUSH1 0x40 MLOAD PUSH3 0x461BCD PUSH1 0xE5 SHL DUP2 MSTORE PUSH1 0x20 PUSH1 0x4 DUP3 ADD MSTORE PUSH1 0x1B PUSH1 0x24 DUP3 ADD MSTORE PUSH32 0x4C505374616B696E673A496E76616C6964205374616B65204944210000000000 PUSH1 0x44 DUP3 ADD MSTORE PUSH1 0x64 ADD PUSH2 0x3B9 JUMP JUMPDEST PUSH0 DUP3 DUP2 MSTORE PUSH1 0x3 PUSH1 0x20 MSTORE PUSH1 0x40 SWAP1 KECCAK256 PUSH1 0x1 DUP2 ADD SLOAD PUSH1 0x1 PUSH1 0x1 PUSH1 0xA0 SHL SUB AND CALLER EQ PUSH2 0xACF JUMPI PUSH1 0x40 MLOAD PUSH3 0x461BCD PUSH1 0xE5 SHL DUP2 MSTORE PUSH1 0x20 PUSH1 0x4 DUP3 ADD MSTORE PUSH1 0x21 PUSH1 0x24 DUP3 ADD MSTORE PUSH32 0x4C505374616B696E673A43616C6C6572206973206E6F7420746865206F776E65 PUSH1 0x44 DUP3 ADD MSTORE PUSH1 0x39 PUSH1 0xF9 SHL PUSH1 0x64 DUP3 ADD MSTORE PUSH1 0x84 ADD PUSH2 0x3B9 JUMP JUMPDEST PUSH0 PUSH1 0x2 DUP3 PUSH0 ADD SLOAD DUP2 SLOAD DUP2 LT PUSH2 0xAE6 JUMPI PUSH2 0xAE6 PUSH2 0x21A8 JUMP JUMPDEST PUSH0 SWAP2 DUP3 MSTORE PUSH1 0x20 SWAP1 SWAP2 KECCAK256 PUSH1 0x1 DUP5 ADD SLOAD PUSH1 0x3 SWAP1 SWAP3 MUL ADD SWAP2 POP PUSH1 0x1 PUSH1 0xA0 SHL SWAP1 DIV PUSH1 0x1 PUSH1 0x1 PUSH1 0x60 SHL SUB AND TIMESTAMP PUSH1 0x1 PUSH1 0x1 PUSH1 0x60 SHL SUB AND LT ISZERO PUSH2 0xB79 JUMPI PUSH1 0x40 MLOAD PUSH3 0x461BCD PUSH1 0xE5 SHL DUP2 MSTORE PUSH1 0x20 PUSH1 0x4 DUP3 ADD MSTORE PUSH1 0x2C PUSH1 0x24 DUP3 ADD MSTORE PUSH32 0x4C505374616B696E673A4561726C79205769746864726177616C206973206E6F PUSH1 0x44 DUP3 ADD MSTORE PUSH12 0x74207065726D697474656421 PUSH1 0xA0 SHL PUSH1 0x64 DUP3 ADD MSTORE PUSH1 0x84 ADD PUSH2 0x3B9 JUMP JUMPDEST PUSH0 DUP3 PUSH1 0x3 ADD SLOAD GT PUSH2 0xBCC JUMPI PUSH1 0x40 MLOAD PUSH3 0x461BCD PUSH1 0xE5 SHL DUP2 MSTORE PUSH1 0x20 PUSH1 0x4 DUP3 ADD MSTORE PUSH1 0x1A PUSH1 0x24 DUP3 ADD MSTORE PUSH32 0x4C505374616B696E673A4E6F7468696E6720746F20636C61696D000000000000 PUSH1 0x44 DUP3 ADD MSTORE PUSH1 0x64 ADD PUSH2 0x3B9 JUMP JUMPDEST PUSH1 0x2 DUP3 ADD SLOAD ISZERO PUSH2 0xBF8 JUMPI PUSH2 0xBF1 CALLER PUSH1 0x2 DUP5 ADD SLOAD DUP4 SLOAD PUSH1 0x1 PUSH1 0x1 PUSH1 0xA0 SHL SUB AND SWAP2 SWAP1 PUSH2 0x1A7D JUMP JUMPDEST PUSH0 PUSH1 0x2 DUP4 ADD SSTORE JUMPDEST PUSH2 0xC16 CALLER PUSH1 0x3 DUP5 ADD SLOAD PUSH1 0x1 DUP5 ADD SLOAD PUSH1 0x1 PUSH1 0x1 PUSH1 0xA0 SHL SUB AND SWAP2 SWAP1 PUSH2 0x1A7D JUMP JUMPDEST PUSH1 0x3 DUP3 ADD SLOAD PUSH1 0x1 DUP3 ADD SLOAD PUSH1 0x1 PUSH1 0x1 PUSH1 0xA0 SHL SUB AND PUSH0 SWAP1 DUP2 MSTORE PUSH1 0x5 PUSH1 0x20 MSTORE PUSH1 0x40 DUP2 KECCAK256 DUP1 SLOAD SWAP1 SWAP2 SWAP1 PUSH2 0xC46 SWAP1 DUP5 SWAP1 PUSH2 0x21BC JUMP JUMPDEST SWAP1 SWAP2 SSTORE POP POP PUSH0 PUSH1 0x3 DUP4 ADD SSTORE DUP2 SLOAD PUSH1 0x40 MLOAD DUP6 DUP2 MSTORE PUSH32 0x3DB0CA701D7C1106534C6003E5D65DAE65A9CB891AD5BBB9BE39C091DF79D87E SWAP1 PUSH1 0x20 ADD PUSH1 0x40 MLOAD DUP1 SWAP2 SUB SWAP1 LOG2 DUP2 SLOAD PUSH1 0x40 MLOAD DUP6 DUP2 MSTORE PUSH32 0x4D7828F2AA36030CC63CDEA79EC646099AA121D019F1A90EDB55078939FB84EA SWAP1 PUSH1 0x20 ADD PUSH2 0x9DF JUMP JUMPDEST PUSH2 0xCC0 PUSH2 0x1A3A JUMP JUMPDEST DUP6 PUSH0 DUP2 GT DUP1 ISZERO PUSH2 0xCD1 JUMPI POP PUSH1 0x2 SLOAD DUP2 LT JUMPDEST PUSH2 0xD1D JUMPI PUSH1 0x40 MLOAD PUSH3 0x461BCD PUSH1 0xE5 SHL DUP2 MSTORE PUSH1 0x20 PUSH1 0x4 DUP3 ADD MSTORE PUSH1 0x1A PUSH1 0x24 DUP3 ADD MSTORE PUSH32 0x4C505374616B696E673A496E76616C696420506F6F6C20494421000000000000 PUSH1 0x44 DUP3 ADD MSTORE PUSH1 0x64 ADD PUSH2 0x3B9 JUMP JUMPDEST PUSH0 DUP7 GT PUSH2 0xD92 JUMPI PUSH1 0x40 MLOAD PUSH3 0x461BCD PUSH1 0xE5 SHL DUP2 MSTORE PUSH1 0x20 PUSH1 0x4 DUP3 ADD MSTORE PUSH1 0x31 PUSH1 0x24 DUP3 ADD MSTORE PUSH32 0x4C505374616B696E673A7374616B655F616D6F756E74206D7573742062652067 PUSH1 0x44 DUP3 ADD MSTORE PUSH32 0x726561746572207468616E207A65726F21000000000000000000000000000000 PUSH1 0x64 DUP3 ADD MSTORE PUSH1 0x84 ADD PUSH2 0x3B9 JUMP JUMPDEST PUSH0 PUSH1 0x2 DUP9 DUP2 SLOAD DUP2 LT PUSH2 0xDA6 JUMPI PUSH2 0xDA6 PUSH2 0x21A8 JUMP JUMPDEST SWAP1 PUSH0 MSTORE PUSH1 0x20 PUSH0 KECCAK256 SWAP1 PUSH1 0x3 MUL ADD SWAP1 POP PUSH0 DUP2 PUSH1 0x1 ADD PUSH1 0x14 SWAP1 SLOAD SWAP1 PUSH2 0x100 EXP SWAP1 DIV PUSH1 0x1 PUSH1 0x1 PUSH1 0x60 SHL SUB AND PUSH1 0x1 PUSH1 0x1 PUSH1 0x60 SHL SUB AND GT PUSH2 0xE23 JUMPI PUSH1 0x40 MLOAD PUSH3 0x461BCD PUSH1 0xE5 SHL DUP2 MSTORE PUSH1 0x20 PUSH1 0x4 DUP3 ADD MSTORE PUSH1 0x19 PUSH1 0x24 DUP3 ADD MSTORE PUSH32 0x4C505374616B696E673A506F6F6C206973207061757365642100000000000000 PUSH1 0x44 DUP3 ADD MSTORE PUSH1 0x64 ADD PUSH2 0x3B9 JUMP JUMPDEST PUSH2 0xE3A CALLER DUP3 SLOAD PUSH1 0x1 PUSH1 0x1 PUSH1 0xA0 SHL SUB AND SWAP1 ADDRESS DUP11 PUSH2 0x1AF6 JUMP JUMPDEST DUP1 SLOAD PUSH1 0x2 DUP3 ADD SLOAD PUSH0 SWAP2 PUSH2 0xE5F SWAP2 PUSH1 0x1 PUSH1 0x1 PUSH1 0xA0 SHL SUB SWAP2 DUP3 AND SWAP2 DUP12 SWAP2 AND DUP11 DUP11 DUP11 DUP11 PUSH2 0x1B35 JUMP JUMPDEST DUP3 SLOAD PUSH1 0x1 DUP5 ADD SLOAD SWAP2 SWAP3 POP PUSH0 SWAP2 PUSH4 0x1E13380 SWAP2 PUSH1 0x1 PUSH1 0x1 PUSH1 0x60 SHL SUB PUSH1 0x1 PUSH1 0xA0 SHL SWAP2 DUP3 SWAP1 DIV DUP2 AND SWAP3 PUSH2 0x2710 SWAP3 PUSH2 0xE96 SWAP3 SWAP2 DIV AND DUP7 PUSH2 0x21CF JUMP JUMPDEST PUSH2 0xEA0 SWAP2 SWAP1 PUSH2 0x21E6 JUMP JUMPDEST PUSH2 0xEAA SWAP2 SWAP1 PUSH2 0x21CF JUMP JUMPDEST PUSH2 0xEB4 SWAP2 SWAP1 PUSH2 0x21E6 JUMP JUMPDEST SWAP1 POP PUSH0 PUSH32 0x0 PUSH1 0x1 PUSH1 0x1 PUSH1 0xA0 SHL SUB AND PUSH4 0x8EF1E259 CALLER PUSH1 0x40 MLOAD PUSH32 0xFFFFFFFF00000000000000000000000000000000000000000000000000000000 PUSH1 0xE0 DUP5 SWAP1 SHL AND DUP2 MSTORE PUSH1 0x1 PUSH1 0x1 PUSH1 0xA0 SHL SUB SWAP1 SWAP2 AND PUSH1 0x4 DUP3 ADD MSTORE PUSH1 0x24 ADD PUSH1 0x20 PUSH1 0x40 MLOAD DUP1 DUP4 SUB DUP2 DUP7 GAS STATICCALL ISZERO DUP1 ISZERO PUSH2 0xF41 JUMPI RETURNDATASIZE PUSH0 PUSH0 RETURNDATACOPY RETURNDATASIZE PUSH0 REVERT JUMPDEST POP POP POP POP PUSH1 0x40 MLOAD RETURNDATASIZE PUSH1 0x1F NOT PUSH1 0x1F DUP3 ADD AND DUP3 ADD DUP1 PUSH1 0x40 MSTORE POP DUP2 ADD SWAP1 PUSH2 0xF65 SWAP2 SWAP1 PUSH2 0x2205 JUMP JUMPDEST ISZERO PUSH2 0x104B JUMPI PUSH32 0x0 PUSH1 0x1 PUSH1 0x1 PUSH1 0xA0 SHL SUB AND PUSH4 0x9A3BFDF5 PUSH1 0x40 MLOAD DUP2 PUSH4 0xFFFFFFFF AND PUSH1 0xE0 SHL DUP2 MSTORE PUSH1 0x4 ADD PUSH1 0x20 PUSH1 0x40 MLOAD DUP1 DUP4 SUB DUP2 DUP7 GAS STATICCALL ISZERO DUP1 ISZERO PUSH2 0xFC6 JUMPI RETURNDATASIZE PUSH0 PUSH0 RETURNDATACOPY RETURNDATASIZE PUSH0 REVERT JUMPDEST POP POP POP POP PUSH1 0x40 MLOAD RETURNDATASIZE PUSH1 0x1F NOT PUSH1 0x1F DUP3 ADD AND DUP3 ADD DUP1 PUSH1 0x40 MSTORE POP DUP2 ADD SWAP1 PUSH2 0xFEA SWAP2 SWAP1 PUSH2 0x2224 JUMP JUMPDEST DUP5 SLOAD PUSH1 0x2 DUP7 ADD SLOAD SWAP2 SWAP3 POP PUSH4 0x1E13380 SWAP2 PUSH1 0x1 PUSH1 0x1 PUSH1 0x60 SHL SUB PUSH1 0x1 PUSH1 0xA0 SHL SWAP3 DUP4 SWAP1 DIV DUP2 AND SWAP3 PUSH2 0x2710 SWAP3 PUSH2 0x1020 SWAP3 SWAP2 SWAP1 DIV AND DUP8 PUSH2 0x21CF JUMP JUMPDEST PUSH2 0x102A SWAP2 SWAP1 PUSH2 0x21E6 JUMP JUMPDEST PUSH2 0x1034 SWAP2 SWAP1 PUSH2 0x21CF JUMP JUMPDEST PUSH2 0x103E SWAP2 SWAP1 PUSH2 0x21E6 JUMP JUMPDEST PUSH2 0x1048 SWAP1 DUP4 PUSH2 0x223B JUMP JUMPDEST SWAP2 POP JUMPDEST DUP4 SLOAD PUSH0 SWAP1 PUSH1 0x1 PUSH1 0xA0 SHL SWAP1 DIV PUSH1 0x1 PUSH1 0x1 PUSH1 0x60 SHL SUB AND TIMESTAMP PUSH2 0x106A SWAP2 SWAP1 PUSH2 0x2183 JUMP JUMPDEST SWAP1 POP PUSH1 0x40 MLOAD DUP1 PUSH1 0xC0 ADD PUSH1 0x40 MSTORE DUP1 DUP14 DUP2 MSTORE PUSH1 0x20 ADD PUSH2 0x1084 CALLER SWAP1 JUMP JUMPDEST PUSH1 0x1 PUSH1 0x1 PUSH1 0xA0 SHL SUB AND DUP2 MSTORE PUSH1 0x20 ADD DUP3 PUSH1 0x1 PUSH1 0x1 PUSH1 0x60 SHL SUB AND DUP2 MSTORE PUSH1 0x20 ADD DUP13 DUP2 MSTORE PUSH1 0x20 ADD DUP5 DUP2 MSTORE PUSH1 0x20 ADD DUP4 DUP2 MSTORE POP PUSH1 0x3 PUSH0 PUSH1 0x4 SLOAD DUP2 MSTORE PUSH1 0x20 ADD SWAP1 DUP2 MSTORE PUSH1 0x20 ADD PUSH0 KECCAK256 PUSH0 DUP3 ADD MLOAD DUP2 PUSH0 ADD SSTORE PUSH1 0x20 DUP3 ADD MLOAD DUP2 PUSH1 0x1 ADD PUSH0 PUSH2 0x100 EXP DUP2 SLOAD DUP2 PUSH1 0x1 PUSH1 0x1 PUSH1 0xA0 SHL SUB MUL NOT AND SWAP1 DUP4 PUSH1 0x1 PUSH1 0x1 PUSH1 0xA0 SHL SUB AND MUL OR SWAP1 SSTORE POP PUSH1 0x40 DUP3 ADD MLOAD DUP2 PUSH1 0x1 ADD PUSH1 0x14 PUSH2 0x100 EXP DUP2 SLOAD DUP2 PUSH1 0x1 PUSH1 0x1 PUSH1 0x60 SHL SUB MUL NOT AND SWAP1 DUP4 PUSH1 0x1 PUSH1 0x1 PUSH1 0x60 SHL SUB AND MUL OR SWAP1 SSTORE POP PUSH1 0x60 DUP3 ADD MLOAD DUP2 PUSH1 0x2 ADD SSTORE PUSH1 0x80 DUP3 ADD MLOAD DUP2 PUSH1 0x3 ADD SSTORE PUSH1 0xA0 DUP3 ADD MLOAD DUP2 PUSH1 0x4 ADD SSTORE SWAP1 POP POP DUP3 PUSH1 0x5 PUSH0 DUP8 PUSH1 0x1 ADD PUSH0 SWAP1 SLOAD SWAP1 PUSH2 0x100 EXP SWAP1 DIV PUSH1 0x1 PUSH1 0x1 PUSH1 0xA0 SHL SUB AND PUSH1 0x1 PUSH1 0x1 PUSH1 0xA0 SHL SUB AND PUSH1 0x1 PUSH1 0x1 PUSH1 0xA0 SHL SUB AND DUP2 MSTORE PUSH1 0x20 ADD SWAP1 DUP2 MSTORE PUSH1 0x20 ADD PUSH0 KECCAK256 PUSH0 DUP3 DUP3 SLOAD PUSH2 0x118E SWAP2 SWAP1 PUSH2 0x223B JUMP JUMPDEST SWAP1 SWAP2 SSTORE POP POP PUSH1 0x4 SLOAD PUSH1 0x40 DUP1 MLOAD SWAP2 DUP3 MSTORE PUSH1 0x1 PUSH1 0x1 PUSH1 0x60 SHL SUB DUP4 AND PUSH1 0x20 DUP4 ADD MSTORE DUP2 DUP2 ADD DUP14 SWAP1 MSTORE PUSH1 0x60 DUP3 ADD DUP6 SWAP1 MSTORE PUSH1 0x80 DUP3 ADD DUP5 SWAP1 MSTORE MLOAD DUP14 SWAP2 CALLER SWAP2 PUSH32 0xC48192CF3609B4932A8B10A6F09FE1CAC38610FDEF14EACC15B35C454DA0B4C5 SWAP2 DUP2 SWAP1 SUB PUSH1 0xA0 ADD SWAP1 LOG3 PUSH1 0x4 DUP1 SLOAD SWAP1 PUSH0 PUSH2 0x11FE DUP4 PUSH2 0x224E JUMP JUMPDEST SWAP2 SWAP1 POP SSTORE POP POP POP POP POP POP POP PUSH2 0x1212 PUSH1 0x1 DUP1 SSTORE JUMP JUMPDEST POP POP POP POP POP POP JUMP JUMPDEST PUSH2 0x1222 PUSH2 0x19F5 JUMP JUMPDEST DUP2 PUSH0 DUP2 GT DUP1 ISZERO PUSH2 0x1233 JUMPI POP PUSH1 0x2 SLOAD DUP2 LT JUMPDEST PUSH2 0x127F JUMPI PUSH1 0x40 MLOAD PUSH3 0x461BCD PUSH1 0xE5 SHL DUP2 MSTORE PUSH1 0x20 PUSH1 0x4 DUP3 ADD MSTORE PUSH1 0x1A PUSH1 0x24 DUP3 ADD MSTORE PUSH32 0x4C505374616B696E673A496E76616C696420506F6F6C20494421000000000000 PUSH1 0x44 DUP3 ADD MSTORE PUSH1 0x64 ADD PUSH2 0x3B9 JUMP JUMPDEST PUSH3 0x186A0 DUP3 PUSH1 0x1 PUSH1 0x1 PUSH1 0x60 SHL SUB AND GT ISZERO PUSH2 0x12DB JUMPI PUSH1 0x40 MLOAD PUSH3 0x461BCD PUSH1 0xE5 SHL DUP2 MSTORE PUSH1 0x20 PUSH1 0x4 DUP3 ADD DUP2 SWAP1 MSTORE PUSH1 0x24 DUP3 ADD MSTORE PUSH32 0x4C505374616B696E673A6D617820626F6E757320617079206973203130303025 PUSH1 0x44 DUP3 ADD MSTORE PUSH1 0x64 ADD PUSH2 0x3B9 JUMP JUMPDEST DUP2 PUSH1 0x2 DUP5 DUP2 SLOAD DUP2 LT PUSH2 0x12EF JUMPI PUSH2 0x12EF PUSH2 0x21A8 JUMP JUMPDEST PUSH0 SWAP2 DUP3 MSTORE PUSH1 0x20 SWAP2 DUP3 SWAP1 KECCAK256 PUSH1 0x3 SWAP2 SWAP1 SWAP2 MUL ADD PUSH1 0x2 ADD DUP1 SLOAD PUSH1 0x1 PUSH1 0x1 PUSH1 0xA0 SHL SUB AND PUSH1 0x1 PUSH1 0xA0 SHL PUSH1 0x1 PUSH1 0x1 PUSH1 0x60 SHL SUB SWAP5 DUP6 AND MUL OR SWAP1 SSTORE PUSH1 0x40 MLOAD SWAP2 DUP5 AND DUP3 MSTORE DUP5 SWAP2 PUSH32 0xD3CD184B56B5B95016981FC55484FF8FDF06EB587430055C7AB828A0EDC0DC9D SWAP2 ADD PUSH2 0x5E0 JUMP JUMPDEST PUSH0 PUSH2 0x135D PUSH2 0x19F5 JUMP JUMPDEST PUSH0 DUP5 PUSH1 0x1 PUSH1 0x1 PUSH1 0x60 SHL SUB AND GT PUSH2 0x13DB JUMPI PUSH1 0x40 MLOAD PUSH3 0x461BCD PUSH1 0xE5 SHL DUP2 MSTORE PUSH1 0x20 PUSH1 0x4 DUP3 ADD MSTORE PUSH1 0x29 PUSH1 0x24 DUP3 ADD MSTORE PUSH32 0x4C505374616B696E673A6D61747572697479206D757374206265206772656174 PUSH1 0x44 DUP3 ADD MSTORE PUSH32 0x6572207468616E20300000000000000000000000000000000000000000000000 PUSH1 0x64 DUP3 ADD MSTORE PUSH1 0x84 ADD PUSH2 0x3B9 JUMP JUMPDEST DUP7 PUSH1 0x1 PUSH1 0x1 PUSH1 0xA0 SHL SUB AND DUP7 PUSH1 0x1 PUSH1 0x1 PUSH1 0xA0 SHL SUB AND PUSH4 0x217A4B70 PUSH1 0x40 MLOAD DUP2 PUSH4 0xFFFFFFFF AND PUSH1 0xE0 SHL DUP2 MSTORE PUSH1 0x4 ADD PUSH1 0x20 PUSH1 0x40 MLOAD DUP1 DUP4 SUB DUP2 DUP7 GAS STATICCALL ISZERO DUP1 ISZERO PUSH2 0x1421 JUMPI RETURNDATASIZE PUSH0 PUSH0 RETURNDATACOPY RETURNDATASIZE PUSH0 REVERT JUMPDEST POP POP POP POP PUSH1 0x40 MLOAD RETURNDATASIZE PUSH1 0x1F NOT PUSH1 0x1F DUP3 ADD AND DUP3 ADD DUP1 PUSH1 0x40 MSTORE POP DUP2 ADD SWAP1 PUSH2 0x1445 SWAP2 SWAP1 PUSH2 0x2266 JUMP JUMPDEST PUSH1 0x1 PUSH1 0x1 PUSH1 0xA0 SHL SUB AND EQ PUSH2 0x14E7 JUMPI PUSH1 0x40 MLOAD PUSH3 0x461BCD PUSH1 0xE5 SHL DUP2 MSTORE PUSH1 0x20 PUSH1 0x4 DUP3 ADD MSTORE PUSH1 0x41 PUSH1 0x24 DUP3 ADD MSTORE PUSH32 0x4C505374616B696E673A726577617264735F746F6B656E206D75737420626520 PUSH1 0x44 DUP3 ADD MSTORE PUSH32 0x657175616C20746F2070726963655F6F7261636C652071756F746520746F6B65 PUSH1 0x64 DUP3 ADD MSTORE PUSH32 0x6E00000000000000000000000000000000000000000000000000000000000000 PUSH1 0x84 DUP3 ADD MSTORE PUSH1 0xA4 ADD PUSH2 0x3B9 JUMP JUMPDEST PUSH1 0x40 DUP1 MLOAD PUSH1 0xC0 DUP2 ADD DUP3 MSTORE PUSH1 0x1 PUSH1 0x1 PUSH1 0xA0 SHL SUB DUP11 DUP2 AND DUP3 MSTORE PUSH1 0x1 PUSH1 0x1 PUSH1 0x60 SHL SUB DUP8 DUP2 AND PUSH1 0x20 DUP5 ADD SWAP1 DUP2 MSTORE DUP12 DUP4 AND SWAP5 DUP5 ADD SWAP5 DUP6 MSTORE DUP8 DUP3 AND PUSH1 0x60 DUP6 ADD SWAP1 DUP2 MSTORE DUP12 DUP5 AND PUSH1 0x80 DUP7 ADD SWAP1 DUP2 MSTORE DUP9 DUP5 AND PUSH1 0xA0 DUP8 ADD SWAP1 DUP2 MSTORE PUSH1 0x2 DUP1 SLOAD PUSH1 0x1 DUP1 DUP3 ADD DUP4 SSTORE PUSH0 DUP4 DUP2 MSTORE SWAP10 MLOAD SWAP7 MLOAD SWAP7 DUP10 AND PUSH1 0x1 PUSH1 0xA0 SHL SWAP8 DUP10 AND DUP9 MUL OR PUSH32 0x405787FA12A823E0F2B7631CC41B3BA8828B3321CA811111FA75CD3AA3BB5ACE PUSH1 0x3 SWAP1 SWAP4 MUL SWAP3 DUP4 ADD SSTORE SWAP10 MLOAD SWAP5 MLOAD SWAP5 DUP9 AND SWAP5 DUP8 AND DUP7 MUL SWAP5 SWAP1 SWAP5 OR PUSH32 0x405787FA12A823E0F2B7631CC41B3BA8828B3321CA811111FA75CD3AA3BB5ACF DUP6 ADD SSTORE SWAP2 MLOAD SWAP1 MLOAD SWAP6 AND SWAP5 SWAP1 SWAP4 AND SWAP1 SWAP2 MUL SWAP3 SWAP1 SWAP3 OR PUSH32 0x405787FA12A823E0F2B7631CC41B3BA8828B3321CA811111FA75CD3AA3BB5AD0 SWAP1 SWAP3 ADD SWAP2 SWAP1 SWAP2 SSTORE SLOAD SWAP1 SWAP2 PUSH2 0x15FB SWAP2 PUSH2 0x21BC JUMP JUMPDEST SWAP1 POP DUP8 PUSH1 0x1 PUSH1 0x1 PUSH1 0xA0 SHL SUB AND DUP10 PUSH1 0x1 PUSH1 0x1 PUSH1 0xA0 SHL SUB AND DUP3 PUSH32 0x6B64B7E8B6F4656658EFB1C74B7D1BBFF6E84D3D7B1CD5AE89FD6CD91DE6EF96 DUP11 DUP10 DUP10 DUP10 PUSH1 0x40 MLOAD PUSH2 0x1674 SWAP5 SWAP4 SWAP3 SWAP2 SWAP1 PUSH1 0x1 PUSH1 0x1 PUSH1 0xA0 SHL SUB SWAP5 SWAP1 SWAP5 AND DUP5 MSTORE PUSH1 0x1 PUSH1 0x1 PUSH1 0x60 SHL SUB SWAP3 DUP4 AND PUSH1 0x20 DUP6 ADD MSTORE SWAP1 DUP3 AND PUSH1 0x40 DUP5 ADD MSTORE AND PUSH1 0x60 DUP3 ADD MSTORE PUSH1 0x80 ADD SWAP1 JUMP JUMPDEST PUSH1 0x40 MLOAD DUP1 SWAP2 SUB SWAP1 LOG4 DUP6 ISZERO PUSH2 0x168C JUMPI PUSH2 0x168C DUP9 DUP8 PUSH2 0x1808 JUMP JUMPDEST SWAP9 SWAP8 POP POP POP POP POP POP POP POP JUMP JUMPDEST PUSH2 0x16A0 PUSH2 0x19F5 JUMP JUMPDEST PUSH2 0x16A9 PUSH0 PUSH2 0x1D05 JUMP JUMPDEST JUMP JUMPDEST PUSH2 0x16B3 PUSH2 0x19F5 JUMP JUMPDEST PUSH1 0x1 PUSH1 0x1 PUSH1 0xA0 SHL SUB DUP4 AND PUSH0 SWAP1 DUP2 MSTORE PUSH1 0x5 PUSH1 0x20 MSTORE PUSH1 0x40 SWAP1 KECCAK256 SLOAD PUSH2 0x16D5 SWAP1 DUP3 PUSH2 0x223B JUMP JUMPDEST PUSH1 0x40 MLOAD PUSH32 0x70A0823100000000000000000000000000000000000000000000000000000000 DUP2 MSTORE ADDRESS PUSH1 0x4 DUP3 ADD MSTORE PUSH1 0x1 PUSH1 0x1 PUSH1 0xA0 SHL SUB DUP6 AND SWAP1 PUSH4 0x70A08231 SWAP1 PUSH1 0x24 ADD PUSH1 0x20 PUSH1 0x40 MLOAD DUP1 DUP4 SUB DUP2 DUP7 GAS STATICCALL ISZERO DUP1 ISZERO PUSH2 0x1730 JUMPI RETURNDATASIZE PUSH0 PUSH0 RETURNDATACOPY RETURNDATASIZE PUSH0 REVERT JUMPDEST POP POP POP POP PUSH1 0x40 MLOAD RETURNDATASIZE PUSH1 0x1F NOT PUSH1 0x1F DUP3 ADD AND DUP3 ADD DUP1 PUSH1 0x40 MSTORE POP DUP2 ADD SWAP1 PUSH2 0x1754 SWAP2 SWAP1 PUSH2 0x2224 JUMP JUMPDEST LT ISZERO PUSH2 0x17A2 JUMPI PUSH1 0x40 MLOAD PUSH3 0x461BCD PUSH1 0xE5 SHL DUP2 MSTORE PUSH1 0x20 PUSH1 0x4 DUP3 ADD MSTORE PUSH1 0x15 PUSH1 0x24 DUP3 ADD MSTORE PUSH32 0x496E73756666696369656E742062616C616E6365210000000000000000000000 PUSH1 0x44 DUP3 ADD MSTORE PUSH1 0x64 ADD PUSH2 0x3B9 JUMP JUMPDEST PUSH2 0x17B6 PUSH1 0x1 PUSH1 0x1 PUSH1 0xA0 SHL SUB DUP5 AND DUP4 DUP4 PUSH2 0x1A7D JUMP JUMPDEST DUP2 PUSH1 0x1 PUSH1 0x1 PUSH1 0xA0 SHL SUB AND DUP4 PUSH1 0x1 PUSH1 0x1 PUSH1 0xA0 SHL SUB AND PUSH32 0xE06FAB35F3C220725C11D544884AFF93EBF67222C8310C487C71F27C844593E8 DUP4 PUSH1 0x40 MLOAD PUSH2 0x17FB SWAP2 DUP2 MSTORE PUSH1 0x20 ADD SWAP1 JUMP JUMPDEST PUSH1 0x40 MLOAD DUP1 SWAP2 SUB SWAP1 LOG3 POP POP POP JUMP JUMPDEST PUSH0 DUP2 GT PUSH2 0x187D JUMPI PUSH1 0x40 MLOAD PUSH3 0x461BCD PUSH1 0xE5 SHL DUP2 MSTORE PUSH1 0x20 PUSH1 0x4 DUP3 ADD MSTORE PUSH1 0x2B PUSH1 0x24 DUP3 ADD MSTORE PUSH32 0x4C505374616B696E673A616D6F756E74206D7573742062652067726561746572 PUSH1 0x44 DUP3 ADD MSTORE PUSH32 0x207468616E207A65726F21000000000000000000000000000000000000000000 PUSH1 0x64 DUP3 ADD MSTORE PUSH1 0x84 ADD PUSH2 0x3B9 JUMP JUMPDEST PUSH2 0x1892 PUSH1 0x1 PUSH1 0x1 PUSH1 0xA0 SHL SUB DUP4 AND CALLER ADDRESS DUP5 PUSH2 0x1AF6 JUMP JUMPDEST DUP2 PUSH1 0x1 PUSH1 0x1 PUSH1 0xA0 SHL SUB AND PUSH32 0xAC24935FD910BC682B5CCB1A07B718CADF8CF2F6D1404C4F3DDC3662DAE40E29 DUP3 PUSH1 0x40 MLOAD PUSH2 0x18CD SWAP2 DUP2 MSTORE PUSH1 0x20 ADD SWAP1 JUMP JUMPDEST PUSH1 0x40 MLOAD DUP1 SWAP2 SUB SWAP1 LOG2 POP POP JUMP JUMPDEST PUSH1 0x2 SLOAD PUSH0 SWAP1 PUSH2 0x18EA SWAP1 PUSH1 0x1 SWAP1 PUSH2 0x21BC JUMP JUMPDEST SWAP1 POP SWAP1 JUMP JUMPDEST PUSH0 PUSH0 PUSH0 PUSH0 PUSH0 PUSH0 DUP7 PUSH0 DUP2 GT DUP1 ISZERO PUSH2 0x1906 JUMPI POP PUSH1 0x4 SLOAD DUP2 LT JUMPDEST PUSH2 0x1952 JUMPI PUSH1 0x40 MLOAD PUSH3 0x461BCD PUSH1 0xE5 SHL DUP2 MSTORE PUSH1 0x20 PUSH1 0x4 DUP3 ADD MSTORE PUSH1 0x1B PUSH1 0x24 DUP3 ADD MSTORE PUSH32 0x4C505374616B696E673A496E76616C6964205374616B65204944210000000000 PUSH1 0x44 DUP3 ADD MSTORE PUSH1 0x64 ADD PUSH2 0x3B9 JUMP JUMPDEST POP POP POP PUSH0 SWAP5 DUP6 MSTORE POP POP PUSH1 0x3 PUSH1 0x20 DUP2 SWAP1 MSTORE PUSH1 0x40 SWAP1 SWAP4 KECCAK256 PUSH1 0x1 DUP2 ADD SLOAD DUP2 SLOAD PUSH1 0x2 DUP4 ADD SLOAD SWAP6 DUP4 ADD SLOAD PUSH1 0x4 SWAP1 SWAP4 ADD SLOAD PUSH1 0x1 PUSH1 0x1 PUSH1 0xA0 SHL SUB DUP4 AND SWAP8 SWAP2 SWAP7 PUSH1 0x1 PUSH1 0xA0 SHL SWAP1 SWAP4 DIV PUSH1 0x1 PUSH1 0x1 PUSH1 0x60 SHL SUB AND SWAP6 POP SWAP2 SWAP4 POP JUMP JUMPDEST PUSH2 0x19AA PUSH2 0x19F5 JUMP JUMPDEST PUSH1 0x1 PUSH1 0x1 PUSH1 0xA0 SHL SUB DUP2 AND PUSH2 0x19EC JUMPI PUSH1 0x40 MLOAD PUSH32 0x1E4FBDF700000000000000000000000000000000000000000000000000000000 DUP2 MSTORE PUSH0 PUSH1 0x4 DUP3 ADD MSTORE PUSH1 0x24 ADD PUSH2 0x3B9 JUMP JUMPDEST PUSH2 0x9F4 DUP2 PUSH2 0x1D05 JUMP JUMPDEST PUSH0 SLOAD PUSH1 0x1 PUSH1 0x1 PUSH1 0xA0 SHL SUB AND CALLER EQ PUSH2 0x16A9 JUMPI PUSH1 0x40 MLOAD PUSH32 0x118CDAA700000000000000000000000000000000000000000000000000000000 DUP2 MSTORE CALLER PUSH1 0x4 DUP3 ADD MSTORE PUSH1 0x24 ADD PUSH2 0x3B9 JUMP JUMPDEST PUSH1 0x2 PUSH1 0x1 SLOAD SUB PUSH2 0x1A76 JUMPI PUSH1 0x40 MLOAD PUSH32 0x3EE5AEB500000000000000000000000000000000000000000000000000000000 DUP2 MSTORE PUSH1 0x4 ADD PUSH1 0x40 MLOAD DUP1 SWAP2 SUB SWAP1 REVERT JUMPDEST PUSH1 0x2 PUSH1 0x1 SSTORE JUMP JUMPDEST PUSH1 0x40 MLOAD PUSH1 0x1 PUSH1 0x1 PUSH1 0xA0 SHL SUB DUP4 DUP2 AND PUSH1 0x24 DUP4 ADD MSTORE PUSH1 0x44 DUP3 ADD DUP4 SWAP1 MSTORE PUSH2 0x1AF1 SWAP2 DUP6 SWAP2 DUP3 AND SWAP1 PUSH4 0xA9059CBB SWAP1 PUSH1 0x64 ADD JUMPDEST PUSH1 0x40 MLOAD PUSH1 0x20 DUP2 DUP4 SUB SUB DUP2 MSTORE SWAP1 PUSH1 0x40 MSTORE SWAP2 POP PUSH1 0xE0 SHL PUSH1 0x20 DUP3 ADD DUP1 MLOAD PUSH28 0xFFFFFFFFFFFFFFFFFFFFFFFFFFFFFFFFFFFFFFFFFFFFFFFFFFFFFFFF DUP4 DUP2 DUP4 AND OR DUP4 MSTORE POP POP POP POP PUSH2 0x1D6C JUMP JUMPDEST POP POP POP JUMP JUMPDEST PUSH1 0x40 MLOAD PUSH1 0x1 PUSH1 0x1 PUSH1 0xA0 SHL SUB DUP5 DUP2 AND PUSH1 0x24 DUP4 ADD MSTORE DUP4 DUP2 AND PUSH1 0x44 DUP4 ADD MSTORE PUSH1 0x64 DUP3 ADD DUP4 SWAP1 MSTORE PUSH2 0x1B2F SWAP2 DUP7 SWAP2 DUP3 AND SWAP1 PUSH4 0x23B872DD SWAP1 PUSH1 0x84 ADD PUSH2 0x1AAA JUMP JUMPDEST POP POP POP POP JUMP JUMPDEST PUSH0 PUSH0 DUP9 SWAP1 POP PUSH0 PUSH0 DUP3 PUSH1 0x1 PUSH1 0x1 PUSH1 0xA0 SHL SUB AND PUSH4 0x902F1AC PUSH1 0x40 MLOAD DUP2 PUSH4 0xFFFFFFFF AND PUSH1 0xE0 SHL DUP2 MSTORE PUSH1 0x4 ADD PUSH1 0x60 PUSH1 0x40 MLOAD DUP1 DUP4 SUB DUP2 DUP7 GAS STATICCALL ISZERO DUP1 ISZERO PUSH2 0x1B78 JUMPI RETURNDATASIZE PUSH0 PUSH0 RETURNDATACOPY RETURNDATASIZE PUSH0 REVERT JUMPDEST POP POP POP POP PUSH1 0x40 MLOAD RETURNDATASIZE PUSH1 0x1F NOT PUSH1 0x1F DUP3 ADD AND DUP3 ADD DUP1 PUSH1 0x40 MSTORE POP DUP2 ADD SWAP1 PUSH2 0x1B9C SWAP2 SWAP1 PUSH2 0x229E JUMP JUMPDEST POP SWAP2 POP SWAP2 POP PUSH0 PUSH0 PUSH2 0x1C0E DUP13 DUP7 PUSH1 0x1 PUSH1 0x1 PUSH1 0xA0 SHL SUB AND PUSH4 0x18160DDD PUSH1 0x40 MLOAD DUP2 PUSH4 0xFFFFFFFF AND PUSH1 0xE0 SHL DUP2 MSTORE PUSH1 0x4 ADD PUSH1 0x20 PUSH1 0x40 MLOAD DUP1 DUP4 SUB DUP2 DUP7 GAS STATICCALL ISZERO DUP1 ISZERO PUSH2 0x1BE3 JUMPI RETURNDATASIZE PUSH0 PUSH0 RETURNDATACOPY RETURNDATASIZE PUSH0 REVERT JUMPDEST POP POP POP POP PUSH1 0x40 MLOAD RETURNDATASIZE PUSH1 0x1F NOT PUSH1 0x1F DUP3 ADD AND DUP3 ADD DUP1 PUSH1 0x40 MSTORE POP DUP2 ADD SWAP1 PUSH2 0x1C07 SWAP2 SWAP1 PUSH2 0x2224 JUMP JUMPDEST DUP7 DUP7 PUSH2 0x1DF1 JUMP JUMPDEST SWAP2 POP SWAP2 POP PUSH2 0x1C7E DUP6 PUSH1 0x1 PUSH1 0x1 PUSH1 0xA0 SHL SUB AND PUSH4 0xD21220A7 PUSH1 0x40 MLOAD DUP2 PUSH4 0xFFFFFFFF AND PUSH1 0xE0 SHL DUP2 MSTORE PUSH1 0x4 ADD PUSH1 0x20 PUSH1 0x40 MLOAD DUP1 DUP4 SUB DUP2 DUP7 GAS STATICCALL ISZERO DUP1 ISZERO PUSH2 0x1C51 JUMPI RETURNDATASIZE PUSH0 PUSH0 RETURNDATACOPY RETURNDATASIZE PUSH0 REVERT JUMPDEST POP POP POP POP PUSH1 0x40 MLOAD RETURNDATASIZE PUSH1 0x1F NOT PUSH1 0x1F DUP3 ADD AND DUP3 ADD DUP1 PUSH1 0x40 MSTORE POP DUP2 ADD SWAP1 PUSH2 0x1C75 SWAP2 SWAP1 PUSH2 0x2266 JUMP JUMPDEST DUP3 DUP14 DUP12 DUP12 PUSH2 0x1E50 JUMP JUMPDEST PUSH2 0x1CEA DUP7 PUSH1 0x1 PUSH1 0x1 PUSH1 0xA0 SHL SUB AND PUSH4 0xDFE1681 PUSH1 0x40 MLOAD DUP2 PUSH4 0xFFFFFFFF AND PUSH1 0xE0 SHL DUP2 MSTORE PUSH1 0x4 ADD PUSH1 0x20 PUSH1 0x40 MLOAD DUP1 DUP4 SUB DUP2 DUP7 GAS STATICCALL ISZERO DUP1 ISZERO PUSH2 0x1CBD JUMPI RETURNDATASIZE PUSH0 PUSH0 RETURNDATACOPY RETURNDATASIZE PUSH0 REVERT JUMPDEST POP POP POP POP PUSH1 0x40 MLOAD RETURNDATASIZE PUSH1 0x1F NOT PUSH1 0x1F DUP3 ADD AND DUP3 ADD DUP1 PUSH1 0x40 MSTORE POP DUP2 ADD SWAP1 PUSH2 0x1CE1 SWAP2 SWAP1 PUSH2 0x2266 JUMP JUMPDEST DUP5 DUP15 DUP15 DUP15 PUSH2 0x1E50 JUMP JUMPDEST PUSH2 0x1CF4 SWAP2 SWAP1 PUSH2 0x223B JUMP JUMPDEST SWAP14 SWAP13 POP POP POP POP POP POP POP POP POP POP POP POP POP JUMP JUMPDEST PUSH0 DUP1 SLOAD PUSH1 0x1 PUSH1 0x1 PUSH1 0xA0 SHL SUB DUP4 DUP2 AND PUSH32 0xFFFFFFFFFFFFFFFFFFFFFFFF0000000000000000000000000000000000000000 DUP4 AND DUP2 OR DUP5 SSTORE PUSH1 0x40 MLOAD SWAP2 SWAP1 SWAP3 AND SWAP3 DUP4 SWAP2 PUSH32 0x8BE0079C531659141344CD1FD0A4F28419497F9722A3DAAFE3B4186F6B6457E0 SWAP2 SWAP1 LOG3 POP POP JUMP JUMPDEST PUSH0 PUSH0 PUSH1 0x20 PUSH0 DUP5 MLOAD PUSH1 0x20 DUP7 ADD PUSH0 DUP9 GAS CALL DUP1 PUSH2 0x1D8B JUMPI PUSH1 0x40 MLOAD RETURNDATASIZE PUSH0 DUP3 RETURNDATACOPY RETURNDATASIZE DUP2 REVERT JUMPDEST POP POP PUSH0 MLOAD RETURNDATASIZE SWAP2 POP DUP2 ISZERO PUSH2 0x1DA2 JUMPI DUP1 PUSH1 0x1 EQ ISZERO PUSH2 0x1DAF JUMP JUMPDEST PUSH1 0x1 PUSH1 0x1 PUSH1 0xA0 SHL SUB DUP5 AND EXTCODESIZE ISZERO JUMPDEST ISZERO PUSH2 0x1B2F JUMPI PUSH1 0x40 MLOAD PUSH32 0x5274AFE700000000000000000000000000000000000000000000000000000000 DUP2 MSTORE PUSH1 0x1 PUSH1 0x1 PUSH1 0xA0 SHL SUB DUP6 AND PUSH1 0x4 DUP3 ADD MSTORE PUSH1 0x24 ADD PUSH2 0x3B9 JUMP JUMPDEST PUSH0 DUP1 DUP1 DUP6 PUSH2 0x1E0F DUP9 PUSH14 0xFFFFFFFFFFFFFFFFFFFFFFFFFFFF DUP9 AND PUSH2 0x21CF JUMP JUMPDEST PUSH2 0x1E19 SWAP2 SWAP1 PUSH2 0x21E6 JUMP JUMPDEST SWAP1 POP PUSH0 DUP7 PUSH2 0x1E37 DUP10 PUSH14 0xFFFFFFFFFFFFFFFFFFFFFFFFFFFF DUP9 AND PUSH2 0x21CF JUMP JUMPDEST PUSH2 0x1E41 SWAP2 SWAP1 PUSH2 0x21E6 JUMP JUMPDEST SWAP2 SWAP9 SWAP2 SWAP8 POP SWAP1 SWAP6 POP POP POP POP POP POP JUMP JUMPDEST PUSH0 DUP4 PUSH1 0x1 PUSH1 0x1 PUSH1 0xA0 SHL SUB AND PUSH4 0x6A089215 DUP8 DUP8 DUP10 PUSH1 0x1 PUSH1 0x1 PUSH1 0xA0 SHL SUB AND PUSH4 0x313CE567 PUSH1 0x40 MLOAD DUP2 PUSH4 0xFFFFFFFF AND PUSH1 0xE0 SHL DUP2 MSTORE PUSH1 0x4 ADD PUSH1 0x20 PUSH1 0x40 MLOAD DUP1 DUP4 SUB DUP2 DUP7 GAS STATICCALL ISZERO DUP1 ISZERO PUSH2 0x1E9E JUMPI RETURNDATASIZE PUSH0 PUSH0 RETURNDATACOPY RETURNDATASIZE PUSH0 REVERT JUMPDEST POP POP POP POP PUSH1 0x40 MLOAD RETURNDATASIZE PUSH1 0x1F NOT PUSH1 0x1F DUP3 ADD AND DUP3 ADD DUP1 PUSH1 0x40 MSTORE POP DUP2 ADD SWAP1 PUSH2 0x1EC2 SWAP2 SWAP1 PUSH2 0x22EA JUMP JUMPDEST DUP8 DUP8 PUSH1 0x40 MLOAD DUP7 PUSH4 0xFFFFFFFF AND PUSH1 0xE0 SHL DUP2 MSTORE PUSH1 0x4 ADD PUSH2 0x1EE4 SWAP6 SWAP5 SWAP4 SWAP3 SWAP2 SWAP1 PUSH2 0x230A JUMP JUMPDEST PUSH1 0x20 PUSH1 0x40 MLOAD DUP1 DUP4 SUB DUP2 PUSH0 DUP8 GAS CALL ISZERO DUP1 ISZERO PUSH2 0x1F00 JUMPI RETURNDATASIZE PUSH0 PUSH0 RETURNDATACOPY RETURNDATASIZE PUSH0 REVERT JUMPDEST POP POP POP POP PUSH1 0x40 MLOAD RETURNDATASIZE PUSH1 0x1F NOT PUSH1 0x1F DUP3 ADD AND DUP3 ADD DUP1 PUSH1 0x40 MSTORE POP DUP2 ADD SWAP1 PUSH2 0x1F24 SWAP2 SWAP1 PUSH2 0x2224 JUMP JUMPDEST SWAP7 SWAP6 POP POP POP POP POP POP JUMP JUMPDEST PUSH0 PUSH1 0x20 DUP3 DUP5 SUB SLT ISZERO PUSH2 0x1F3E JUMPI PUSH0 PUSH0 REVERT JUMPDEST POP CALLDATALOAD SWAP2 SWAP1 POP JUMP JUMPDEST DUP1 CALLDATALOAD PUSH1 0x1 PUSH1 0x1 PUSH1 0x60 SHL SUB DUP2 AND DUP2 EQ PUSH2 0x1F5B JUMPI PUSH0 PUSH0 REVERT JUMPDEST SWAP2 SWAP1 POP JUMP JUMPDEST PUSH0 PUSH0 PUSH1 0x40 DUP4 DUP6 SUB SLT ISZERO PUSH2 0x1F71 JUMPI PUSH0 PUSH0 REVERT JUMPDEST DUP3 CALLDATALOAD SWAP2 POP PUSH2 0x1F81 PUSH1 0x20 DUP5 ADD PUSH2 0x1F45 JUMP JUMPDEST SWAP1 POP SWAP3 POP SWAP3 SWAP1 POP JUMP JUMPDEST PUSH0 PUSH0 DUP4 PUSH1 0x1F DUP5 ADD SLT PUSH2 0x1F9A JUMPI PUSH0 PUSH0 REVERT JUMPDEST POP DUP2 CALLDATALOAD PUSH8 0xFFFFFFFFFFFFFFFF DUP2 GT ISZERO PUSH2 0x1FB1 JUMPI PUSH0 PUSH0 REVERT JUMPDEST PUSH1 0x20 DUP4 ADD SWAP2 POP DUP4 PUSH1 0x20 DUP3 DUP6 ADD ADD GT ISZERO PUSH2 0x1FC8 JUMPI PUSH0 PUSH0 REVERT JUMPDEST SWAP3 POP SWAP3 SWAP1 POP JUMP JUMPDEST PUSH0 PUSH0 PUSH0 PUSH0 PUSH0 PUSH0 PUSH1 0x80 DUP8 DUP10 SUB SLT ISZERO PUSH2 0x1FE4 JUMPI PUSH0 PUSH0 REVERT JUMPDEST DUP7 CALLDATALOAD SWAP6 POP PUSH1 0x20 DUP8 ADD CALLDATALOAD SWAP5 POP PUSH1 0x40 DUP8 ADD CALLDATALOAD PUSH8 0xFFFFFFFFFFFFFFFF DUP2 GT ISZERO PUSH2 0x2008 JUMPI PUSH0 PUSH0 REVERT JUMPDEST PUSH2 0x2014 DUP10 DUP3 DUP11 ADD PUSH2 0x1F8A JUMP JUMPDEST SWAP1 SWAP6 POP SWAP4 POP POP PUSH1 0x60 DUP8 ADD CALLDATALOAD PUSH8 0xFFFFFFFFFFFFFFFF DUP2 GT ISZERO PUSH2 0x2033 JUMPI PUSH0 PUSH0 REVERT JUMPDEST PUSH2 0x203F DUP10 DUP3 DUP11 ADD PUSH2 0x1F8A JUMP JUMPDEST SWAP8 SWAP11 SWAP7 SWAP10 POP SWAP5 SWAP8 POP SWAP3 SWAP6 SWAP4 SWAP5 SWAP3 POP POP POP JUMP JUMPDEST PUSH1 0x1 PUSH1 0x1 PUSH1 0xA0 SHL SUB DUP2 AND DUP2 EQ PUSH2 0x9F4 JUMPI PUSH0 PUSH0 REVERT JUMPDEST PUSH0 PUSH0 PUSH0 PUSH0 PUSH0 PUSH0 PUSH0 PUSH1 0xE0 DUP9 DUP11 SUB SLT ISZERO PUSH2 0x207B JUMPI PUSH0 PUSH0 REVERT JUMPDEST DUP8 CALLDATALOAD PUSH2 0x2086 DUP2 PUSH2 0x2051 JUMP JUMPDEST SWAP7 POP PUSH1 0x20 DUP9 ADD CALLDATALOAD PUSH2 0x2096 DUP2 PUSH2 0x2051 JUMP JUMPDEST SWAP6 POP PUSH1 0x40 DUP9 ADD CALLDATALOAD PUSH2 0x20A6 DUP2 PUSH2 0x2051 JUMP JUMPDEST SWAP5 POP PUSH1 0x60 DUP9 ADD CALLDATALOAD SWAP4 POP PUSH2 0x20BB PUSH1 0x80 DUP10 ADD PUSH2 0x1F45 JUMP JUMPDEST SWAP3 POP PUSH2 0x20C9 PUSH1 0xA0 DUP10 ADD PUSH2 0x1F45 JUMP JUMPDEST SWAP2 POP PUSH2 0x20D7 PUSH1 0xC0 DUP10 ADD PUSH2 0x1F45 JUMP JUMPDEST SWAP1 POP SWAP3 SWAP6 SWAP9 SWAP2 SWAP5 SWAP8 POP SWAP3 SWAP6 POP JUMP JUMPDEST PUSH0 PUSH0 PUSH0 PUSH1 0x60 DUP5 DUP7 SUB SLT ISZERO PUSH2 0x20F7 JUMPI PUSH0 PUSH0 REVERT JUMPDEST DUP4 CALLDATALOAD PUSH2 0x2102 DUP2 PUSH2 0x2051 JUMP JUMPDEST SWAP3 POP PUSH1 0x20 DUP5 ADD CALLDATALOAD PUSH2 0x2112 DUP2 PUSH2 0x2051 JUMP JUMPDEST SWAP3 SWAP6 SWAP3 SWAP5 POP POP POP PUSH1 0x40 SWAP2 SWAP1 SWAP2 ADD CALLDATALOAD SWAP1 JUMP JUMPDEST PUSH0 PUSH1 0x20 DUP3 DUP5 SUB SLT ISZERO PUSH2 0x2133 JUMPI PUSH0 PUSH0 REVERT JUMPDEST DUP2 CALLDATALOAD PUSH2 0x213E DUP2 PUSH2 0x2051 JUMP JUMPDEST SWAP4 SWAP3 POP POP POP JUMP JUMPDEST PUSH0 PUSH0 PUSH1 0x40 DUP4 DUP6 SUB SLT ISZERO PUSH2 0x2156 JUMPI PUSH0 PUSH0 REVERT JUMPDEST DUP3 CALLDATALOAD PUSH2 0x2161 DUP2 PUSH2 0x2051 JUMP JUMPDEST SWAP5 PUSH1 0x20 SWAP4 SWAP1 SWAP4 ADD CALLDATALOAD SWAP4 POP POP POP JUMP JUMPDEST PUSH4 0x4E487B71 PUSH1 0xE0 SHL PUSH0 MSTORE PUSH1 0x11 PUSH1 0x4 MSTORE PUSH1 0x24 PUSH0 REVERT JUMPDEST PUSH1 0x1 PUSH1 0x1 PUSH1 0x60 SHL SUB DUP2 DUP2 AND DUP4 DUP3 AND ADD SWAP1 DUP2 GT ISZERO PUSH2 0x21A2 JUMPI PUSH2 0x21A2 PUSH2 0x216F JUMP JUMPDEST SWAP3 SWAP2 POP POP JUMP JUMPDEST PUSH4 0x4E487B71 PUSH1 0xE0 SHL PUSH0 MSTORE PUSH1 0x32 PUSH1 0x4 MSTORE PUSH1 0x24 PUSH0 REVERT JUMPDEST DUP2 DUP2 SUB DUP2 DUP2 GT ISZERO PUSH2 0x21A2 JUMPI PUSH2 0x21A2 PUSH2 0x216F JUMP JUMPDEST DUP1 DUP3 MUL DUP2 ISZERO DUP3 DUP3 DIV DUP5 EQ OR PUSH2 0x21A2 JUMPI PUSH2 0x21A2 PUSH2 0x216F JUMP JUMPDEST PUSH0 DUP3 PUSH2 0x2200 JUMPI PUSH4 0x4E487B71 PUSH1 0xE0 SHL PUSH0 MSTORE PUSH1 0x12 PUSH1 0x4 MSTORE PUSH1 0x24 PUSH0 REVERT JUMPDEST POP DIV SWAP1 JUMP JUMPDEST PUSH0 PUSH1 0x20 DUP3 DUP5 SUB SLT ISZERO PUSH2 0x2215 JUMPI PUSH0 PUSH0 REVERT JUMPDEST DUP2 MLOAD DUP1 ISZERO ISZERO DUP2 EQ PUSH2 0x213E JUMPI PUSH0 PUSH0 REVERT JUMPDEST PUSH0 PUSH1 0x20 DUP3 DUP5 SUB SLT ISZERO PUSH2 0x2234 JUMPI PUSH0 PUSH0 REVERT JUMPDEST POP MLOAD SWAP2 SWAP1 POP JUMP JUMPDEST DUP1 DUP3 ADD DUP1 DUP3 GT ISZERO PUSH2 0x21A2 JUMPI PUSH2 0x21A2 PUSH2 0x216F JUMP JUMPDEST PUSH0 PUSH1 0x1 DUP3 ADD PUSH2 0x225F JUMPI PUSH2 0x225F PUSH2 0x216F JUMP JUMPDEST POP PUSH1 0x1 ADD SWAP1 JUMP JUMPDEST PUSH0 PUSH1 0x20 DUP3 DUP5 SUB SLT ISZERO PUSH2 0x2276 JUMPI PUSH0 PUSH0 REVERT JUMPDEST DUP2 MLOAD PUSH2 0x213E DUP2 PUSH2 0x2051 JUMP JUMPDEST DUP1 MLOAD PUSH14 0xFFFFFFFFFFFFFFFFFFFFFFFFFFFF DUP2 AND DUP2 EQ PUSH2 0x1F5B JUMPI PUSH0 PUSH0 REVERT JUMPDEST PUSH0 PUSH0 PUSH0 PUSH1 0x60 DUP5 DUP7 SUB SLT ISZERO PUSH2 0x22B0 JUMPI PUSH0 PUSH0 REVERT JUMPDEST PUSH2 0x22B9 DUP5 PUSH2 0x2281 JUMP JUMPDEST SWAP3 POP PUSH2 0x22C7 PUSH1 0x20 DUP6 ADD PUSH2 0x2281 JUMP JUMPDEST SWAP2 POP PUSH1 0x40 DUP5 ADD MLOAD PUSH4 0xFFFFFFFF DUP2 AND DUP2 EQ PUSH2 0x22DF JUMPI PUSH0 PUSH0 REVERT JUMPDEST DUP1 SWAP2 POP POP SWAP3 POP SWAP3 POP SWAP3 JUMP JUMPDEST PUSH0 PUSH1 0x20 DUP3 DUP5 SUB SLT ISZERO PUSH2 0x22FA JUMPI PUSH0 PUSH0 REVERT JUMPDEST DUP2 MLOAD PUSH1 0xFF DUP2 AND DUP2 EQ PUSH2 0x213E JUMPI PUSH0 PUSH0 REVERT JUMPDEST PUSH1 0x1 PUSH1 0x1 PUSH1 0xA0 SHL SUB DUP7 AND DUP2 MSTORE DUP5 PUSH1 0x20 DUP3 ADD MSTORE PUSH1 0xFF DUP5 AND PUSH1 0x40 DUP3 ADD MSTORE PUSH1 0x80 PUSH1 0x60 DUP3 ADD MSTORE DUP2 PUSH1 0x80 DUP3 ADD MSTORE DUP2 DUP4 PUSH1 0xA0 DUP4 ADD CALLDATACOPY PUSH0 DUP2 DUP4 ADD PUSH1 0xA0 SWAP1 DUP2 ADD SWAP2 SWAP1 SWAP2 MSTORE PUSH1 0x1F SWAP1 SWAP3 ADD PUSH1 0x1F NOT AND ADD ADD SWAP5 SWAP4 POP POP POP POP JUMP INVALID LOG2 PUSH5 0x6970667358 0x22 SLT KECCAK256 DELEGATECALL 0xA5 DUP14 0xBF STATICCALL PUSH15 0x655F93D91C0ABCD6DD19730178DB60 ISZERO 0xD5 SWAP10 CALLDATASIZE SMOD PUSH21 0x3D4F07653F64736F6C634300081E00330000000000 "
		},
		"gasEstimates": {
			"creation": {
				"codeDepositCost": "1820600",
				"executionCost": "infinite",
				"totalCost": "infinite"
			},
			"external": {
				"CLAIM_PERIOD()": "305",
				"CREDI_WHALE_ORACLE()": "infinite",
				"addRewards(address,uint256)": "infinite",
				"claim(uint256)": "infinite",
				"createPool(address,address,address,uint256,uint96,uint96,uint96)": "infinite",
				"getPool(uint256)": "28933",
				"getPoolsCount()": "2461",
				"getStake(uint256)": "13370",
				"owner()": "2385",
				"pending_payments(address)": "2599",
				"renounceOwnership()": "infinite",
				"setAPY(uint256,uint96)": "32664",
				"setBonusAPY(uint256,uint96)": "32696",
				"stake(uint256,uint256,bytes,bytes)": "infinite",
				"transferOwnership(address)": "infinite",
				"voidReward(uint256)": "infinite",
				"withdrawRewards(address,address,uint256)": "infinite",
				"withdrawStake(uint256)": "infinite"
			},
			"internal": {
				"time_now()": "infinite"
			}
		},
		"methodIdentifiers": {
			"CLAIM_PERIOD()": "21241dfe",
			"CREDI_WHALE_ORACLE()": "cc5c56dc",
			"addRewards(address,uint256)": "a9fc507b",
			"claim(uint256)": "379607f5",
			"createPool(address,address,address,uint256,uint96,uint96,uint96)": "69ca431b",
			"getPool(uint256)": "068bcd8d",
			"getPoolsCount()": "b4ac6860",
			"getStake(uint256)": "ce325bf8",
			"owner()": "8da5cb5b",
			"pending_payments(address)": "954821b6",
			"renounceOwnership()": "715018a6",
			"setAPY(uint256,uint96)": "039ba6b7",
			"setBonusAPY(uint256,uint96)": "4f44daa9",
			"stake(uint256,uint256,bytes,bytes)": "3b5dd047",
			"transferOwnership(address)": "f2fde38b",
			"voidReward(uint256)": "00215784",
			"withdrawRewards(address,address,uint256)": "74ee6b62",
			"withdrawStake(uint256)": "25d5971f"
		}
	},
	"abi": [
		{
			"inputs": [
				{
					"internalType": "address",
					"name": "_whale_oracle_addr",
					"type": "address"
				}
			],
			"stateMutability": "nonpayable",
			"type": "constructor"
		},
		{
			"inputs": [
				{
					"internalType": "address",
					"name": "owner",
					"type": "address"
				}
			],
			"name": "OwnableInvalidOwner",
			"type": "error"
		},
		{
			"inputs": [
				{
					"internalType": "address",
					"name": "account",
					"type": "address"
				}
			],
			"name": "OwnableUnauthorizedAccount",
			"type": "error"
		},
		{
			"inputs": [],
			"name": "ReentrancyGuardReentrantCall",
			"type": "error"
		},
		{
			"inputs": [
				{
					"internalType": "address",
					"name": "token",
					"type": "address"
				}
			],
			"name": "SafeERC20FailedOperation",
			"type": "error"
		},
		{
			"anonymous": false,
			"inputs": [
				{
					"indexed": true,
					"internalType": "uint256",
					"name": "pool_id",
					"type": "uint256"
				},
				{
					"indexed": false,
					"internalType": "uint96",
					"name": "apy",
					"type": "uint96"
				}
			],
			"name": "APYChanged",
			"type": "event"
		},
		{
			"anonymous": false,
			"inputs": [
				{
					"indexed": true,
					"internalType": "uint256",
					"name": "pool_id",
					"type": "uint256"
				},
				{
					"indexed": false,
					"internalType": "uint96",
					"name": "whales_bonus_apy",
					"type": "uint96"
				}
			],
			"name": "BonusAPYChanged",
			"type": "event"
		},
		{
			"anonymous": false,
			"inputs": [
				{
					"indexed": true,
					"internalType": "address",
					"name": "previousOwner",
					"type": "address"
				},
				{
					"indexed": true,
					"internalType": "address",
					"name": "newOwner",
					"type": "address"
				}
			],
			"name": "OwnershipTransferred",
			"type": "event"
		},
		{
			"anonymous": false,
			"inputs": [
				{
					"indexed": true,
					"internalType": "uint256",
					"name": "pool_id",
					"type": "uint256"
				},
				{
					"indexed": true,
					"internalType": "address",
					"name": "staking_token",
					"type": "address"
				},
				{
					"indexed": true,
					"internalType": "address",
					"name": "rewards_token",
					"type": "address"
				},
				{
					"indexed": false,
					"internalType": "address",
					"name": "price_oracle",
					"type": "address"
				},
				{
					"indexed": false,
					"internalType": "uint96",
					"name": "maturity",
					"type": "uint96"
				},
				{
					"indexed": false,
					"internalType": "uint96",
					"name": "apy",
					"type": "uint96"
				},
				{
					"indexed": false,
					"internalType": "uint96",
					"name": "whales_bonus_apy",
					"type": "uint96"
				}
			],
			"name": "PoolCreated",
			"type": "event"
		},
		{
			"anonymous": false,
			"inputs": [
				{
					"indexed": true,
					"internalType": "address",
					"name": "token",
					"type": "address"
				},
				{
					"indexed": false,
					"internalType": "uint256",
					"name": "amount",
					"type": "uint256"
				}
			],
			"name": "RewardAdded",
			"type": "event"
		},
		{
			"anonymous": false,
			"inputs": [
				{
					"indexed": true,
					"internalType": "uint256",
					"name": "pool_id",
					"type": "uint256"
				},
				{
					"indexed": false,
					"internalType": "uint256",
					"name": "stake_id",
					"type": "uint256"
				}
			],
			"name": "RewardPaid",
			"type": "event"
		},
		{
			"anonymous": false,
			"inputs": [
				{
					"indexed": true,
					"internalType": "uint256",
					"name": "pool_id",
					"type": "uint256"
				},
				{
					"indexed": false,
					"internalType": "uint256",
					"name": "stake_id",
					"type": "uint256"
				}
			],
			"name": "RewardVoided",
			"type": "event"
		},
		{
			"anonymous": false,
			"inputs": [
				{
					"indexed": true,
					"internalType": "address",
					"name": "token",
					"type": "address"
				},
				{
					"indexed": true,
					"internalType": "address",
					"name": "to",
					"type": "address"
				},
				{
					"indexed": false,
					"internalType": "uint256",
					"name": "amount",
					"type": "uint256"
				}
			],
			"name": "RewardWithdrawn",
			"type": "event"
		},
		{
			"anonymous": false,
			"inputs": [
				{
					"indexed": true,
					"internalType": "uint256",
					"name": "pool_id",
					"type": "uint256"
				},
				{
					"indexed": false,
					"internalType": "uint256",
					"name": "stake_id",
					"type": "uint256"
				}
			],
			"name": "StakeWithdrawn",
			"type": "event"
		},
		{
			"anonymous": false,
			"inputs": [
				{
					"indexed": true,
					"internalType": "address",
					"name": "owner",
					"type": "address"
				},
				{
					"indexed": false,
					"internalType": "uint256",
					"name": "stake_id",
					"type": "uint256"
				},
				{
					"indexed": true,
					"internalType": "uint256",
					"name": "pool_id",
					"type": "uint256"
				},
				{
					"indexed": false,
					"internalType": "uint96",
					"name": "maturity",
					"type": "uint96"
				},
				{
					"indexed": false,
					"internalType": "uint256",
					"name": "stake_amount",
					"type": "uint256"
				},
				{
					"indexed": false,
					"internalType": "uint256",
					"name": "rewards_amount",
					"type": "uint256"
				},
				{
					"indexed": false,
					"internalType": "uint256",
					"name": "required_CREDI",
					"type": "uint256"
				}
			],
			"name": "Staked",
			"type": "event"
		},
		{
			"inputs": [],
			"name": "CLAIM_PERIOD",
			"outputs": [
				{
					"internalType": "uint96",
					"name": "",
					"type": "uint96"
				}
			],
			"stateMutability": "view",
			"type": "function"
		},
		{
			"inputs": [],
			"name": "CREDI_WHALE_ORACLE",
			"outputs": [
				{
					"internalType": "contract ICREDIWhale",
					"name": "",
					"type": "address"
				}
			],
			"stateMutability": "view",
			"type": "function"
		},
		{
			"inputs": [
				{
					"internalType": "address",
					"name": "rewards_token",
					"type": "address"
				},
				{
					"internalType": "uint256",
					"name": "amount",
					"type": "uint256"
				}
			],
			"name": "addRewards",
			"outputs": [],
			"stateMutability": "nonpayable",
			"type": "function"
		},
		{
			"inputs": [
				{
					"internalType": "uint256",
					"name": "stake_id",
					"type": "uint256"
				}
			],
			"name": "claim",
			"outputs": [],
			"stateMutability": "nonpayable",
			"type": "function"
		},
		{
			"inputs": [
				{
					"internalType": "address",
					"name": "staking_token",
					"type": "address"
				},
				{
					"internalType": "address",
					"name": "rewards_token",
					"type": "address"
				},
				{
					"internalType": "address",
					"name": "price_oracle",
					"type": "address"
				},
				{
					"internalType": "uint256",
					"name": "reward_amount",
					"type": "uint256"
				},
				{
					"internalType": "uint96",
					"name": "maturity",
					"type": "uint96"
				},
				{
					"internalType": "uint96",
					"name": "apy",
					"type": "uint96"
				},
				{
					"internalType": "uint96",
					"name": "whales_bonus_apy",
					"type": "uint96"
				}
			],
			"name": "createPool",
			"outputs": [
				{
					"internalType": "uint256",
					"name": "",
					"type": "uint256"
				}
			],
			"stateMutability": "nonpayable",
			"type": "function"
		},
		{
			"inputs": [
				{
					"internalType": "uint256",
					"name": "pool_id",
					"type": "uint256"
				}
			],
			"name": "getPool",
			"outputs": [
				{
					"internalType": "address",
					"name": "staking_token",
					"type": "address"
				},
				{
					"internalType": "address",
					"name": "rewards_token",
					"type": "address"
				},
				{
					"internalType": "address",
					"name": "price_oracle",
					"type": "address"
				},
				{
					"internalType": "uint96",
					"name": "maturity",
					"type": "uint96"
				},
				{
					"internalType": "uint96",
					"name": "apy",
					"type": "uint96"
				},
				{
					"internalType": "uint96",
					"name": "whales_bonus_apy",
					"type": "uint96"
				}
			],
			"stateMutability": "view",
			"type": "function"
		},
		{
			"inputs": [],
			"name": "getPoolsCount",
			"outputs": [
				{
					"internalType": "uint256",
					"name": "",
					"type": "uint256"
				}
			],
			"stateMutability": "view",
			"type": "function"
		},
		{
			"inputs": [
				{
					"internalType": "uint256",
					"name": "stake_id",
					"type": "uint256"
				}
			],
			"name": "getStake",
			"outputs": [
				{
					"internalType": "address",
					"name": "owner",
					"type": "address"
				},
				{
					"internalType": "uint256",
					"name": "pool_id",
					"type": "uint256"
				},
				{
					"internalType": "uint96",
					"name": "maturity",
					"type": "uint96"
				},
				{
					"internalType": "uint256",
					"name": "stake_amount",
					"type": "uint256"
				},
				{
					"internalType": "uint256",
					"name": "reward_amount",
					"type": "uint256"
				},
				{
					"internalType": "uint256",
					"name": "required_CREDI",
					"type": "uint256"
				}
			],
			"stateMutability": "view",
			"type": "function"
		},
		{
			"inputs": [],
			"name": "owner",
			"outputs": [
				{
					"internalType": "address",
					"name": "",
					"type": "address"
				}
			],
			"stateMutability": "view",
			"type": "function"
		},
		{
			"inputs": [
				{
					"internalType": "address",
					"name": "",
					"type": "address"
				}
			],
			"name": "pending_payments",
			"outputs": [
				{
					"internalType": "uint256",
					"name": "",
					"type": "uint256"
				}
			],
			"stateMutability": "view",
			"type": "function"
		},
		{
			"inputs": [],
			"name": "renounceOwnership",
			"outputs": [],
			"stateMutability": "nonpayable",
			"type": "function"
		},
		{
			"inputs": [
				{
					"internalType": "uint256",
					"name": "pool_id",
					"type": "uint256"
				},
				{
					"internalType": "uint96",
					"name": "apy",
					"type": "uint96"
				}
			],
			"name": "setAPY",
			"outputs": [],
			"stateMutability": "nonpayable",
			"type": "function"
		},
		{
			"inputs": [
				{
					"internalType": "uint256",
					"name": "pool_id",
					"type": "uint256"
				},
				{
					"internalType": "uint96",
					"name": "whales_bonus_apy",
					"type": "uint96"
				}
			],
			"name": "setBonusAPY",
			"outputs": [],
			"stateMutability": "nonpayable",
			"type": "function"
		},
		{
			"inputs": [
				{
					"internalType": "uint256",
					"name": "pool_id",
					"type": "uint256"
				},
				{
					"internalType": "uint256",
					"name": "stake_amount",
					"type": "uint256"
				},
				{
					"internalType": "bytes",
					"name": "token0_price_data",
					"type": "bytes"
				},
				{
					"internalType": "bytes",
					"name": "token1_price_data",
					"type": "bytes"
				}
			],
			"name": "stake",
			"outputs": [],
			"stateMutability": "nonpayable",
			"type": "function"
		},
		{
			"inputs": [
				{
					"internalType": "address",
					"name": "newOwner",
					"type": "address"
				}
			],
			"name": "transferOwnership",
			"outputs": [],
			"stateMutability": "nonpayable",
			"type": "function"
		},
		{
			"inputs": [
				{
					"internalType": "uint256",
					"name": "stake_id",
					"type": "uint256"
				}
			],
			"name": "voidReward",
			"outputs": [],
			"stateMutability": "nonpayable",
			"type": "function"
		},
		{
			"inputs": [
				{
					"internalType": "address",
					"name": "rewards_token",
					"type": "address"
				},
				{
					"internalType": "address",
					"name": "to",
					"type": "address"
				},
				{
					"internalType": "uint256",
					"name": "amount",
					"type": "uint256"
				}
			],
			"name": "withdrawRewards",
			"outputs": [],
			"stateMutability": "nonpayable",
			"type": "function"
		},
		{
			"inputs": [
				{
					"internalType": "uint256",
					"name": "stake_id",
					"type": "uint256"
				}
			],
			"name": "withdrawStake",
			"outputs": [],
			"stateMutability": "nonpayable",
			"type": "function"
		}
	]
}