{
	"data": {
		"bytecode": {
			"linkReferences": {},
			"object": "608060405234801561001057600080fd5b50338061003757604051631e4fbdf760e01b81526000600482015260240160405180910390fd5b610040816101f4565b5060018080556040805161012081018252600080825260208201818152928201818152606083018281526080840183815260a0850184815260c0860185815260e087018681526101008801878152600280549b8c018155909752965197516001600160a01b03988916600160a01b6001600160601b039283168102919091177f405787fa12a823e0f2b7631cc41b3ba8828b3321ca811111fa75cd3aa3bb5ace6007909c029b8c01559551945194909816938816909402929092177f405787fa12a823e0f2b7631cc41b3ba8828b3321ca811111fa75cd3aa3bb5acf880155517f405787fa12a823e0f2b7631cc41b3ba8828b3321ca811111fa75cd3aa3bb5ad0870155517f405787fa12a823e0f2b7631cc41b3ba8828b3321ca811111fa75cd3aa3bb5ad1860155517f405787fa12a823e0f2b7631cc41b3ba8828b3321ca811111fa75cd3aa3bb5ad285015590517f405787fa12a823e0f2b7631cc41b3ba8828b3321ca811111fa75cd3aa3bb5ad3840155517f405787fa12a823e0f2b7631cc41b3ba8828b3321ca811111fa75cd3aa3bb5ad490920180546001600160601b03191692909116919091179055610244565b600080546001600160a01b038381166001600160a01b0319831681178455604051919092169283917f8be0079c531659141344cd1fd0a4f28419497f9722a3daafe3b4186f6b6457e09190a35050565b611cfe806102536000396000f3fe608060405234801561001057600080fd5b50600436106100f55760003560e01c80637b0472f011610097578063ce4b5bbe11610066578063ce4b5bbe1461027e578063f2fde38b1461028e578063fc41aa09146102a1578063fdeef425146102b457600080fd5b80637b0472f0146102355780637db7e3bf146102485780638da5cb5b1461025b578063b4ac68601461027657600080fd5b8063379607f5116100d3578063379607f5146101a4578063584b62a1146101b75780635d9d23181461020c578063715018a61461022d57600080fd5b8063068bcd8d146100fa57806321241dfe1461016d57806325d5971f1461018f575b600080fd5b61010d610108366004611a84565b6102c7565b604080516001600160a01b039a8b1681529990981660208a01526001600160601b03968716978901979097529385166060880152608087019290925260a086015260c08501521660e0830152610100820152610120015b60405180910390f35b6101776234bc0081565b6040516001600160601b039091168152602001610164565b6101a261019d366004611a84565b610414565b005b6101a26101b2366004611a84565b6106b5565b6101f16101c5366004611ab9565b600360209081526000928352604080842090915290825290208054600182015460029092015490919083565b60408051938452602084019290925290820152606001610164565b61021f61021a366004611afa565b6109db565b604051908152602001610164565b6101a2610dde565b6101a2610243366004611b60565b610df2565b6101a2610256366004611b82565b6110e8565b6000546040516001600160a01b039091168152602001610164565b61021f61131d565b61021f683635c9adc5dea0000081565b6101a261029c366004611bb8565b611334565b6101a26102af366004611b60565b611388565b61021f6102c2366004611bd3565b61150c565b6000806000806000806000806000896000811180156102e7575060025481105b6103425760405162461bcd60e51b815260206004820152602160248201527f4d61726b6574696e675374616b696e673a496e76616c696420506f6f6c2049446044820152602160f81b60648201526084015b60405180910390fd5b600060028c8154811061035757610357611bff565b906000526020600020906007020190508060000160009054906101000a90046001600160a01b03168160010160009054906101000a90046001600160a01b03168260000160149054906101000a90046001600160601b03168360010160149054906101000a90046001600160601b03168460020154856003015486600401548760060160009054906101000a90046001600160601b031688600501549a509a509a509a509a509a509a509a509a5050509193959799909294969850565b61041c6116b2565b8060008111801561042e575060025481105b6104845760405162461bcd60e51b815260206004820152602160248201527f4d61726b6574696e675374616b696e673a496e76616c696420506f6f6c2049446044820152602160f81b6064820152608401610339565b61048e82336116f5565b336000908152600360209081526040808320858452909152812060028054919291859081106104bf576104bf611bff565b600091825260209091206007909102016001810154909150600160a01b90046001600160601b0316426001600160601b031610156105655760405162461bcd60e51b815260206004820152603360248201527f4d61726b6574696e675374616b696e673a4561726c792057697468647261776160448201527f6c206973206e6f74207065726d697474656421000000000000000000000000006064820152608401610339565b8154156106a657610585335b835483546001600160a01b03169190611875565b815460028201805460009061059b908490611c2b565b90915550508154604051908152339085907f459d5aef2c549903c1eeb1736f5728845d5ccf82537ddd5bf8035795eee892639060200160405180910390a360008255335b6001600160a01b0316847f8fe70e917ad578cbb5b0779aa52ee3f23afa39c5295542125059f2a4e98cbbfe846000015485600101548660020154604051610639939291909283526020830191909152604082015260600190565b60405180910390a36002810154600382015460048301546006840154604080519485526020850193909352918301526001600160601b0316606082015284907fe9d4ced29dfd1b7392aa77b7ea3220d8318a5a65cd900f4e40e9d816d11d84f29060800160405180910390a25b5050506106b260018055565b50565b6106bd6116b2565b806000811180156106cf575060025481105b6107255760405162461bcd60e51b815260206004820152602160248201527f4d61726b6574696e675374616b696e673a496e76616c696420506f6f6c2049446044820152602160f81b6064820152608401610339565b61072f82336116f5565b3360009081526003602090815260408083208584529091528120600280549192918590811061076057610760611bff565b600091825260209091206007909102016001810154909150600160a01b90046001600160601b0316426001600160601b031610156108065760405162461bcd60e51b815260206004820152603360248201527f4d61726b6574696e675374616b696e673a4561726c792057697468647261776160448201527f6c206973206e6f74207065726d697474656421000000000000000000000000006064820152608401610339565b60008260010154116108805760405162461bcd60e51b815260206004820152602160248201527f4d61726b6574696e675374616b696e673a4e6f7468696e6720746f20636c616960448201527f6d000000000000000000000000000000000000000000000000000000000000006064820152608401610339565b8160010154816005015410156108e75760405162461bcd60e51b815260206004820152602660248201527f4d61726b6574696e675374616b696e673a496e73756666696369656e742062616044820152656c616e63652160d01b6064820152608401610339565b815415610950576108f733610571565b815460028201805460009061090d908490611c2b565b90915550508154604051908152339085907f459d5aef2c549903c1eeb1736f5728845d5ccf82537ddd5bf8035795eee892639060200160405180910390a3600082555b61096e33600180850154908401546001600160a01b03169190611875565b81600101548160050160008282546109869190611c2b565b90915550506001820154604051908152339085907f04492fab062412e7e4e5f46c9e919f1640652946a5e163ad6e6c1c03d87954d29060200160405180910390a36000600183018190556002830155336105df565b60006109e56118ee565b6001600160601b038416426001600160601b031610610a6c5760405162461bcd60e51b815260206004820152603860248201527f4d61726b6574696e675374616b696e673a456e642074696d65206d757374206260448201527f652067726561746572207468616e2074696d655f6e6f772100000000000000006064820152608401610339565b610a886001600160601b038616426001600160601b0316611934565b9450836001600160601b0316856001600160601b031610610b115760405162461bcd60e51b815260206004820152603760248201527f4d61726b6574696e675374616b696e673a53746172742074696d65206d75737460448201527f206265206c657373207468616e20656e642074696d65210000000000000000006064820152608401610339565b6000610b1d8686611c3e565b6001600160601b0316610b3985683635c9adc5dea00000611c5d565b610b439190611c74565b60408051610120810182526001600160a01b038b811682526001600160601b038a8116602084018181528d84169585019586528b83166060860190815260006080870181815260a088018a815260c0890183815260e08a018f81526101008b0197885260028054600180820183558288529c519851988c16600160a01b998c168a02177f405787fa12a823e0f2b7631cc41b3ba8828b3321ca811111fa75cd3aa3bb5ace6007909202918201559c51965196909a16958916909602949094177f405787fa12a823e0f2b7631cc41b3ba8828b3321ca811111fa75cd3aa3bb5acf8b015590517f405787fa12a823e0f2b7631cc41b3ba8828b3321ca811111fa75cd3aa3bb5ad08a0155517f405787fa12a823e0f2b7631cc41b3ba8828b3321ca811111fa75cd3aa3bb5ad189015590517f405787fa12a823e0f2b7631cc41b3ba8828b3321ca811111fa75cd3aa3bb5ad288015590517f405787fa12a823e0f2b7631cc41b3ba8828b3321ca811111fa75cd3aa3bb5ad387015590517f405787fa12a823e0f2b7631cc41b3ba8828b3321ca811111fa75cd3aa3bb5ad490950180546bffffffffffffffffffffffff191695909216949094179055549293509091610d0e9190611c2b565b604080516001600160a01b038c811682528b1660208201526001600160601b038a81168284015289166060820152683635c9adc5dea000006080820152905191925082917f7c89ff64ffbfc8006a5f9ef85541e2fc4f990a7906ba4920928ffd9c9b7b3a959181900360a00190a28315610dd257610d976001600160a01b038916333087611949565b807f6c07ee05dcf262f13abf9d87b846ee789d2f90fe991d495acd7d7fc109ee1f5585604051610dc991815260200190565b60405180910390a25b98975050505050505050565b610de66118ee565b610df06000611982565b565b610dfa6116b2565b81600081118015610e0c575060025481105b610e625760405162461bcd60e51b815260206004820152602160248201527f4d61726b6574696e675374616b696e673a496e76616c696420506f6f6c2049446044820152602160f81b6064820152608401610339565b600060028481548110610e7757610e77611bff565b600091825260209091206007909102018054909150600160a01b90046001600160601b0316426001600160601b031610158015610ed057506001810154600160a01b90046001600160601b0316426001600160601b0316105b610f415760405162461bcd60e51b8152602060048201526024808201527f4d61726b6574696e675374616b696e673a506f6f6c206973206e6f742061637460448201527f69766521000000000000000000000000000000000000000000000000000000006064820152608401610339565b60008311610fb75760405162461bcd60e51b815260206004820152603560248201527f4d61726b6574696e675374616b696e673a7374616b655f616d6f756e74206d7560448201527f73742062652067726561746572207468616e20302100000000000000000000006064820152608401610339565b610fce3382546001600160a01b0316903086611949565b610fd884336116f5565b3360009081526003602090815260408083208784529091528120805490918591839190611006908490611c96565b92505081905550838260020160008282546110219190611c96565b90915550508054600182015460028301546040805193845260208401929092528282015251339187917f8fe70e917ad578cbb5b0779aa52ee3f23afa39c5295542125059f2a4e98cbbfe9181900360600190a36002820154600383015460048401546006850154604080519485526020850193909352918301526001600160601b0316606082015285907fe9d4ced29dfd1b7392aa77b7ea3220d8318a5a65cd900f4e40e9d816d11d84f29060800160405180910390a25050506110e460018055565b5050565b6110f06118ee565b82600081118015611102575060025481105b6111585760405162461bcd60e51b815260206004820152602160248201527f4d61726b6574696e675374616b696e673a496e76616c696420506f6f6c2049446044820152602160f81b6064820152608401610339565b600082116111ce5760405162461bcd60e51b815260206004820152603260248201527f4d61726b6574696e675374616b696e673a616d6f756e74206d7573742062652060448201527f67726561746572207468616e207a65726f2100000000000000000000000000006064820152608401610339565b6000600285815481106111e3576111e3611bff565b9060005260206000209060070201905082816005015410156112565760405162461bcd60e51b815260206004820152602660248201527f4d61726b6574696e675374616b696e673a496e73756666696369656e742062616044820152656c616e63652160d01b6064820152608401610339565b6001810154611279906234bc0090600160a01b90046001600160601b0316611ca9565b6001600160601b0316426001600160601b031610158061129b57506002810154155b6112a457600080fd5b60018101546112bd906001600160a01b03168585611875565b828160050160008282546112d19190611c2b565b90915550506040518381526001600160a01b0385169086907fb886382d42263e3c08a157dd29a33c435741f36625dbc3acb6fb8c19bbf782479060200160405180910390a35050505050565b60025460009061132f90600190611c2b565b905090565b61133c6118ee565b6001600160a01b03811661137f576040517f1e4fbdf700000000000000000000000000000000000000000000000000000000815260006004820152602401610339565b6106b281611982565b6113906116b2565b816000811180156113a2575060025481105b6113f85760405162461bcd60e51b815260206004820152602160248201527f4d61726b6574696e675374616b696e673a496e76616c696420506f6f6c2049446044820152602160f81b6064820152608401610339565b6000821161146e5760405162461bcd60e51b815260206004820152603260248201527f4d61726b6574696e675374616b696e673a616d6f756e74206d7573742062652060448201527f67726561746572207468616e207a65726f2100000000000000000000000000006064820152608401610339565b60006002848154811061148357611483611bff565b906000526020600020906007020190506114b361149d3390565b60018301546001600160a01b0316903086611949565b828160050160008282546114c79190611c96565b909155505060405183815284907f6c07ee05dcf262f13abf9d87b846ee789d2f90fe991d495acd7d7fc109ee1f559060200160405180910390a250506110e460018055565b600082600081118015611520575060025481105b6115765760405162461bcd60e51b815260206004820152602160248201527f4d61726b6574696e675374616b696e673a496e76616c696420506f6f6c2049446044820152602160f81b6064820152608401610339565b6001600160a01b0383166000908152600360209081526040808320878452909152812060028054919291879081106115b0576115b0611bff565b6000918252602082206007919091020160068101549092506115fe906001600160601b03166115f9425b60018601546001600160601b0391821691600160a01b909104166119ea565b611934565b600483015460028401549192509015801590611626575060068301546001600160601b031682115b156116735760028301546003840154600685015461164d906001600160601b031685611c2b565b6116579190611c5d565b6116619190611c74565b83600401546116709190611c96565b90505b683635c9adc5dea0000084600201548261168d9190611c2b565b85546116999190611c5d565b6116a39190611c74565b8460010154610dd29190611c96565b6002600154036116ee576040517f3ee5aeb500000000000000000000000000000000000000000000000000000000815260040160405180910390fd5b6002600155565b60006002838154811061170a5761170a611bff565b600091825260208220600791909102016006810154909250611738906001600160601b03166115f9426115da565b90506000826002015411801561175e575060068201546001600160601b03908116908216115b156117bb57600282015460038301546006840154611785906001600160601b031684611c3e565b6001600160601b03166117989190611c5d565b6117a29190611c74565b8260040160008282546117b59190611c96565b90915550505b6006820180546bffffffffffffffffffffffff19166001600160601b0383161790556001600160a01b0383161561186f576001600160a01b0383166000908152600360209081526040808320878452909152902080541561186357683635c9adc5dea00000816002015484600401546118349190611c2b565b82546118409190611c5d565b61184a9190611c74565b81600101600082825461185d9190611c96565b90915550505b60048301546002909101555b50505050565b6040516001600160a01b038381166024830152604482018390526118e991859182169063a9059cbb906064015b604051602081830303815290604052915060e01b6020820180517bffffffffffffffffffffffffffffffffffffffffffffffffffffffff83818316178352505050506119fa565b505050565b6000546001600160a01b03163314610df0576040517f118cdaa7000000000000000000000000000000000000000000000000000000008152336004820152602401610339565b60008282188284110282185b90505b92915050565b6040516001600160a01b03848116602483015283811660448301526064820183905261186f9186918216906323b872dd906084016118a2565b600080546001600160a01b038381167fffffffffffffffffffffffff0000000000000000000000000000000000000000831681178455604051919092169283917f8be0079c531659141344cd1fd0a4f28419497f9722a3daafe3b4186f6b6457e09190a35050565b6000828218828410028218611940565b600080602060008451602086016000885af180611a1d576040513d6000823e3d81fd5b50506000513d91508115611a35578060011415611a42565b6001600160a01b0384163b155b1561186f576040517f5274afe70000000000000000000000000000000000000000000000000000000081526001600160a01b0385166004820152602401610339565b600060208284031215611a9657600080fd5b5035919050565b80356001600160a01b0381168114611ab457600080fd5b919050565b60008060408385031215611acc57600080fd5b611ad583611a9d565b946020939093013593505050565b80356001600160601b0381168114611ab457600080fd5b60008060008060008060c08789031215611b1357600080fd5b611b1c87611a9d565b9550611b2a60208801611a9d565b9450611b3860408801611ae3565b9350611b4660608801611ae3565b9598949750929560808101359460a0909101359350915050565b60008060408385031215611b7357600080fd5b50508035926020909101359150565b600080600060608486031215611b9757600080fd5b83359250611ba760208501611a9d565b929592945050506040919091013590565b600060208284031215611bca57600080fd5b61194082611a9d565b60008060408385031215611be657600080fd5b82359150611bf660208401611a9d565b90509250929050565b634e487b7160e01b600052603260045260246000fd5b634e487b7160e01b600052601160045260246000fd5b8181038181111561194357611943611c15565b6001600160601b03828116828216039081111561194357611943611c15565b808202811582820484141761194357611943611c15565b600082611c9157634e487b7160e01b600052601260045260246000fd5b500490565b8082018082111561194357611943611c15565b6001600160601b03818116838216019081111561194357611943611c1556fea264697066735822122000d94f1739068fe57b8085ddd9302481260bd36a6b435beb2e015ee741e3e93564736f6c634300081e0033",
			"opcodes": "PUSH1 0x80 PUSH1 0x40 MSTORE CALLVALUE DUP1 ISZERO PUSH2 0x10 JUMPI PUSH1 0x0 DUP1 REVERT JUMPDEST POP CALLER DUP1 PUSH2 0x37 JUMPI PUSH1 0x40 MLOAD PUSH4 0x1E4FBDF7 PUSH1 0xE0 SHL DUP2 MSTORE PUSH1 0x0 PUSH1 0x4 DUP3 ADD MSTORE PUSH1 0x24 ADD PUSH1 0x40 MLOAD DUP1 SWAP2 SUB SWAP1 REVERT JUMPDEST PUSH2 0x40 DUP2 PUSH2 0x1F4 JUMP JUMPDEST POP PUSH1 0x1 DUP1 DUP1 SSTORE PUSH1 0x40 DUP1 MLOAD PUSH2 0x120 DUP2 ADD DUP3 MSTORE PUSH1 0x0 DUP1 DUP3 MSTORE PUSH1 0x20 DUP3 ADD DUP2 DUP2 MSTORE SWAP3 DUP3 ADD DUP2 DUP2 MSTORE PUSH1 0x60 DUP4 ADD DUP3 DUP2 MSTORE PUSH1 0x80 DUP5 ADD DUP4 DUP2 MSTORE PUSH1 0xA0 DUP6 ADD DUP5 DUP2 MSTORE PUSH1 0xC0 DUP7 ADD DUP6 DUP2 MSTORE PUSH1 0xE0 DUP8 ADD DUP7 DUP2 MSTORE PUSH2 0x100 DUP9 ADD DUP8 DUP2 MSTORE PUSH1 0x2 DUP1 SLOAD SWAP12 DUP13 ADD DUP2 SSTORE SWAP1 SWAP8 MSTORE SWAP7 MLOAD SWAP8 MLOAD PUSH1 0x1 PUSH1 0x1 PUSH1 0xA0 SHL SUB SWAP9 DUP10 AND PUSH1 0x1 PUSH1 0xA0 SHL PUSH1 0x1 PUSH1 0x1 PUSH1 0x60 SHL SUB SWAP3 DUP4 AND DUP2 MUL SWAP2 SWAP1 SWAP2 OR PUSH32 0x405787FA12A823E0F2B7631CC41B3BA8828B3321CA811111FA75CD3AA3BB5ACE PUSH1 0x7 SWAP1 SWAP13 MUL SWAP12 DUP13 ADD SSTORE SWAP6 MLOAD SWAP5 MLOAD SWAP5 SWAP1 SWAP9 AND SWAP4 DUP9 AND SWAP1 SWAP5 MUL SWAP3 SWAP1 SWAP3 OR PUSH32 0x405787FA12A823E0F2B7631CC41B3BA8828B3321CA811111FA75CD3AA3BB5ACF DUP9 ADD SSTORE MLOAD PUSH32 0x405787FA12A823E0F2B7631CC41B3BA8828B3321CA811111FA75CD3AA3BB5AD0 DUP8 ADD SSTORE MLOAD PUSH32 0x405787FA12A823E0F2B7631CC41B3BA8828B3321CA811111FA75CD3AA3BB5AD1 DUP7 ADD SSTORE MLOAD PUSH32 0x405787FA12A823E0F2B7631CC41B3BA8828B3321CA811111FA75CD3AA3BB5AD2 DUP6 ADD SSTORE SWAP1 MLOAD PUSH32 0x405787FA12A823E0F2B7631CC41B3BA8828B3321CA811111FA75CD3AA3BB5AD3 DUP5 ADD SSTORE MLOAD PUSH32 0x405787FA12A823E0F2B7631CC41B3BA8828B3321CA811111FA75CD3AA3BB5AD4 SWAP1 SWAP3 ADD DUP1 SLOAD PUSH1 0x1 PUSH1 0x1 PUSH1 0x60 SHL SUB NOT AND SWAP3 SWAP1 SWAP2 AND SWAP2 SWAP1 SWAP2 OR SWAP1 SSTORE PUSH2 0x244 JUMP JUMPDEST PUSH1 0x0 DUP1 SLOAD PUSH1 0x1 PUSH1 0x1 PUSH1 0xA0 SHL SUB DUP4 DUP2 AND PUSH1 0x1 PUSH1 0x1 PUSH1 0xA0 SHL SUB NOT DUP4 AND DUP2 OR DUP5 SSTORE PUSH1 0x40 MLOAD SWAP2 SWAP1 SWAP3 AND SWAP3 DUP4 SWAP2 PUSH32 0x8BE0079C531659141344CD1FD0A4F28419497F9722A3DAAFE3B4186F6B6457E0 SWAP2 SWAP1 LOG3 POP POP JUMP JUMPDEST PUSH2 0x1CFE DUP1 PUSH2 0x253 PUSH1 0x0 CODECOPY PUSH1 0x0 RETURN INVALID PUSH1 0x80 PUSH1 0x40 MSTORE CALLVALUE DUP1 ISZERO PUSH2 0x10 JUMPI PUSH1 0x0 DUP1 REVERT JUMPDEST POP PUSH1 0x4 CALLDATASIZE LT PUSH2 0xF5 JUMPI PUSH1 0x0 CALLDATALOAD PUSH1 0xE0 SHR DUP1 PUSH4 0x7B0472F0 GT PUSH2 0x97 JUMPI DUP1 PUSH4 0xCE4B5BBE GT PUSH2 0x66 JUMPI DUP1 PUSH4 0xCE4B5BBE EQ PUSH2 0x27E JUMPI DUP1 PUSH4 0xF2FDE38B EQ PUSH2 0x28E JUMPI DUP1 PUSH4 0xFC41AA09 EQ PUSH2 0x2A1 JUMPI DUP1 PUSH4 0xFDEEF425 EQ PUSH2 0x2B4 JUMPI PUSH1 0x0 DUP1 REVERT JUMPDEST DUP1 PUSH4 0x7B0472F0 EQ PUSH2 0x235 JUMPI DUP1 PUSH4 0x7DB7E3BF EQ PUSH2 0x248 JUMPI DUP1 PUSH4 0x8DA5CB5B EQ PUSH2 0x25B JUMPI DUP1 PUSH4 0xB4AC6860 EQ PUSH2 0x276 JUMPI PUSH1 0x0 DUP1 REVERT JUMPDEST DUP1 PUSH4 0x379607F5 GT PUSH2 0xD3 JUMPI DUP1 PUSH4 0x379607F5 EQ PUSH2 0x1A4 JUMPI DUP1 PUSH4 0x584B62A1 EQ PUSH2 0x1B7 JUMPI DUP1 PUSH4 0x5D9D2318 EQ PUSH2 0x20C JUMPI DUP1 PUSH4 0x715018A6 EQ PUSH2 0x22D JUMPI PUSH1 0x0 DUP1 REVERT JUMPDEST DUP1 PUSH4 0x68BCD8D EQ PUSH2 0xFA JUMPI DUP1 PUSH4 0x21241DFE EQ PUSH2 0x16D JUMPI DUP1 PUSH4 0x25D5971F EQ PUSH2 0x18F JUMPI JUMPDEST PUSH1 0x0 DUP1 REVERT JUMPDEST PUSH2 0x10D PUSH2 0x108 CALLDATASIZE PUSH1 0x4 PUSH2 0x1A84 JUMP JUMPDEST PUSH2 0x2C7 JUMP JUMPDEST PUSH1 0x40 DUP1 MLOAD PUSH1 0x1 PUSH1 0x1 PUSH1 0xA0 SHL SUB SWAP11 DUP12 AND DUP2 MSTORE SWAP10 SWAP1 SWAP9 AND PUSH1 0x20 DUP11 ADD MSTORE PUSH1 0x1 PUSH1 0x1 PUSH1 0x60 SHL SUB SWAP7 DUP8 AND SWAP8 DUP10 ADD SWAP8 SWAP1 SWAP8 MSTORE SWAP4 DUP6 AND PUSH1 0x60 DUP9 ADD MSTORE PUSH1 0x80 DUP8 ADD SWAP3 SWAP1 SWAP3 MSTORE PUSH1 0xA0 DUP7 ADD MSTORE PUSH1 0xC0 DUP6 ADD MSTORE AND PUSH1 0xE0 DUP4 ADD MSTORE PUSH2 0x100 DUP3 ADD MSTORE PUSH2 0x120 ADD JUMPDEST PUSH1 0x40 MLOAD DUP1 SWAP2 SUB SWAP1 RETURN JUMPDEST PUSH2 0x177 PUSH3 0x34BC00 DUP2 JUMP JUMPDEST PUSH1 0x40 MLOAD PUSH1 0x1 PUSH1 0x1 PUSH1 0x60 SHL SUB SWAP1 SWAP2 AND DUP2 MSTORE PUSH1 0x20 ADD PUSH2 0x164 JUMP JUMPDEST PUSH2 0x1A2 PUSH2 0x19D CALLDATASIZE PUSH1 0x4 PUSH2 0x1A84 JUMP JUMPDEST PUSH2 0x414 JUMP JUMPDEST STOP JUMPDEST PUSH2 0x1A2 PUSH2 0x1B2 CALLDATASIZE PUSH1 0x4 PUSH2 0x1A84 JUMP JUMPDEST PUSH2 0x6B5 JUMP JUMPDEST PUSH2 0x1F1 PUSH2 0x1C5 CALLDATASIZE PUSH1 0x4 PUSH2 0x1AB9 JUMP JUMPDEST PUSH1 0x3 PUSH1 0x20 SWAP1 DUP2 MSTORE PUSH1 0x0 SWAP3 DUP4 MSTORE PUSH1 0x40 DUP1 DUP5 KECCAK256 SWAP1 SWAP2 MSTORE SWAP1 DUP3 MSTORE SWAP1 KECCAK256 DUP1 SLOAD PUSH1 0x1 DUP3 ADD SLOAD PUSH1 0x2 SWAP1 SWAP3 ADD SLOAD SWAP1 SWAP2 SWAP1 DUP4 JUMP JUMPDEST PUSH1 0x40 DUP1 MLOAD SWAP4 DUP5 MSTORE PUSH1 0x20 DUP5 ADD SWAP3 SWAP1 SWAP3 MSTORE SWAP1 DUP3 ADD MSTORE PUSH1 0x60 ADD PUSH2 0x164 JUMP JUMPDEST PUSH2 0x21F PUSH2 0x21A CALLDATASIZE PUSH1 0x4 PUSH2 0x1AFA JUMP JUMPDEST PUSH2 0x9DB JUMP JUMPDEST PUSH1 0x40 MLOAD SWAP1 DUP2 MSTORE PUSH1 0x20 ADD PUSH2 0x164 JUMP JUMPDEST PUSH2 0x1A2 PUSH2 0xDDE JUMP JUMPDEST PUSH2 0x1A2 PUSH2 0x243 CALLDATASIZE PUSH1 0x4 PUSH2 0x1B60 JUMP JUMPDEST PUSH2 0xDF2 JUMP JUMPDEST PUSH2 0x1A2 PUSH2 0x256 CALLDATASIZE PUSH1 0x4 PUSH2 0x1B82 JUMP JUMPDEST PUSH2 0x10E8 JUMP JUMPDEST PUSH1 0x0 SLOAD PUSH1 0x40 MLOAD PUSH1 0x1 PUSH1 0x1 PUSH1 0xA0 SHL SUB SWAP1 SWAP2 AND DUP2 MSTORE PUSH1 0x20 ADD PUSH2 0x164 JUMP JUMPDEST PUSH2 0x21F PUSH2 0x131D JUMP JUMPDEST PUSH2 0x21F PUSH9 0x3635C9ADC5DEA00000 DUP2 JUMP JUMPDEST PUSH2 0x1A2 PUSH2 0x29C CALLDATASIZE PUSH1 0x4 PUSH2 0x1BB8 JUMP JUMPDEST PUSH2 0x1334 JUMP JUMPDEST PUSH2 0x1A2 PUSH2 0x2AF CALLDATASIZE PUSH1 0x4 PUSH2 0x1B60 JUMP JUMPDEST PUSH2 0x1388 JUMP JUMPDEST PUSH2 0x21F PUSH2 0x2C2 CALLDATASIZE PUSH1 0x4 PUSH2 0x1BD3 JUMP JUMPDEST PUSH2 0x150C JUMP JUMPDEST PUSH1 0x0 DUP1 PUSH1 0x0 DUP1 PUSH1 0x0 DUP1 PUSH1 0x0 DUP1 PUSH1 0x0 DUP10 PUSH1 0x0 DUP2 GT DUP1 ISZERO PUSH2 0x2E7 JUMPI POP PUSH1 0x2 SLOAD DUP2 LT JUMPDEST PUSH2 0x342 JUMPI PUSH1 0x40 MLOAD PUSH3 0x461BCD PUSH1 0xE5 SHL DUP2 MSTORE PUSH1 0x20 PUSH1 0x4 DUP3 ADD MSTORE PUSH1 0x21 PUSH1 0x24 DUP3 ADD MSTORE PUSH32 0x4D61726B6574696E675374616B696E673A496E76616C696420506F6F6C204944 PUSH1 0x44 DUP3 ADD MSTORE PUSH1 0x21 PUSH1 0xF8 SHL PUSH1 0x64 DUP3 ADD MSTORE PUSH1 0x84 ADD JUMPDEST PUSH1 0x40 MLOAD DUP1 SWAP2 SUB SWAP1 REVERT JUMPDEST PUSH1 0x0 PUSH1 0x2 DUP13 DUP2 SLOAD DUP2 LT PUSH2 0x357 JUMPI PUSH2 0x357 PUSH2 0x1BFF JUMP JUMPDEST SWAP1 PUSH1 0x0 MSTORE PUSH1 0x20 PUSH1 0x0 KECCAK256 SWAP1 PUSH1 0x7 MUL ADD SWAP1 POP DUP1 PUSH1 0x0 ADD PUSH1 0x0 SWAP1 SLOAD SWAP1 PUSH2 0x100 EXP SWAP1 DIV PUSH1 0x1 PUSH1 0x1 PUSH1 0xA0 SHL SUB AND DUP2 PUSH1 0x1 ADD PUSH1 0x0 SWAP1 SLOAD SWAP1 PUSH2 0x100 EXP SWAP1 DIV PUSH1 0x1 PUSH1 0x1 PUSH1 0xA0 SHL SUB AND DUP3 PUSH1 0x0 ADD PUSH1 0x14 SWAP1 SLOAD SWAP1 PUSH2 0x100 EXP SWAP1 DIV PUSH1 0x1 PUSH1 0x1 PUSH1 0x60 SHL SUB AND DUP4 PUSH1 0x1 ADD PUSH1 0x14 SWAP1 SLOAD SWAP1 PUSH2 0x100 EXP SWAP1 DIV PUSH1 0x1 PUSH1 0x1 PUSH1 0x60 SHL SUB AND DUP5 PUSH1 0x2 ADD SLOAD DUP6 PUSH1 0x3 ADD SLOAD DUP7 PUSH1 0x4 ADD SLOAD DUP8 PUSH1 0x6 ADD PUSH1 0x0 SWAP1 SLOAD SWAP1 PUSH2 0x100 EXP SWAP1 DIV PUSH1 0x1 PUSH1 0x1 PUSH1 0x60 SHL SUB AND DUP9 PUSH1 0x5 ADD SLOAD SWAP11 POP SWAP11 POP SWAP11 POP SWAP11 POP SWAP11 POP SWAP11 POP SWAP11 POP SWAP11 POP SWAP11 POP POP POP SWAP2 SWAP4 SWAP6 SWAP8 SWAP10 SWAP1 SWAP3 SWAP5 SWAP7 SWAP9 POP JUMP JUMPDEST PUSH2 0x41C PUSH2 0x16B2 JUMP JUMPDEST DUP1 PUSH1 0x0 DUP2 GT DUP1 ISZERO PUSH2 0x42E JUMPI POP PUSH1 0x2 SLOAD DUP2 LT JUMPDEST PUSH2 0x484 JUMPI PUSH1 0x40 MLOAD PUSH3 0x461BCD PUSH1 0xE5 SHL DUP2 MSTORE PUSH1 0x20 PUSH1 0x4 DUP3 ADD MSTORE PUSH1 0x21 PUSH1 0x24 DUP3 ADD MSTORE PUSH32 0x4D61726B6574696E675374616B696E673A496E76616C696420506F6F6C204944 PUSH1 0x44 DUP3 ADD MSTORE PUSH1 0x21 PUSH1 0xF8 SHL PUSH1 0x64 DUP3 ADD MSTORE PUSH1 0x84 ADD PUSH2 0x339 JUMP JUMPDEST PUSH2 0x48E DUP3 CALLER PUSH2 0x16F5 JUMP JUMPDEST CALLER PUSH1 0x0 SWAP1 DUP2 MSTORE PUSH1 0x3 PUSH1 0x20 SWAP1 DUP2 MSTORE PUSH1 0x40 DUP1 DUP4 KECCAK256 DUP6 DUP5 MSTORE SWAP1 SWAP2 MSTORE DUP2 KECCAK256 PUSH1 0x2 DUP1 SLOAD SWAP2 SWAP3 SWAP2 DUP6 SWAP1 DUP2 LT PUSH2 0x4BF JUMPI PUSH2 0x4BF PUSH2 0x1BFF JUMP JUMPDEST PUSH1 0x0 SWAP2 DUP3 MSTORE PUSH1 0x20 SWAP1 SWAP2 KECCAK256 PUSH1 0x7 SWAP1 SWAP2 MUL ADD PUSH1 0x1 DUP2 ADD SLOAD SWAP1 SWAP2 POP PUSH1 0x1 PUSH1 0xA0 SHL SWAP1 DIV PUSH1 0x1 PUSH1 0x1 PUSH1 0x60 SHL SUB AND TIMESTAMP PUSH1 0x1 PUSH1 0x1 PUSH1 0x60 SHL SUB AND LT ISZERO PUSH2 0x565 JUMPI PUSH1 0x40 MLOAD PUSH3 0x461BCD PUSH1 0xE5 SHL DUP2 MSTORE PUSH1 0x20 PUSH1 0x4 DUP3 ADD MSTORE PUSH1 0x33 PUSH1 0x24 DUP3 ADD MSTORE PUSH32 0x4D61726B6574696E675374616B696E673A4561726C7920576974686472617761 PUSH1 0x44 DUP3 ADD MSTORE PUSH32 0x6C206973206E6F74207065726D69747465642100000000000000000000000000 PUSH1 0x64 DUP3 ADD MSTORE PUSH1 0x84 ADD PUSH2 0x339 JUMP JUMPDEST DUP2 SLOAD ISZERO PUSH2 0x6A6 JUMPI PUSH2 0x585 CALLER JUMPDEST DUP4 SLOAD DUP4 SLOAD PUSH1 0x1 PUSH1 0x1 PUSH1 0xA0 SHL SUB AND SWAP2 SWAP1 PUSH2 0x1875 JUMP JUMPDEST DUP2 SLOAD PUSH1 0x2 DUP3 ADD DUP1 SLOAD PUSH1 0x0 SWAP1 PUSH2 0x59B SWAP1 DUP5 SWAP1 PUSH2 0x1C2B JUMP JUMPDEST SWAP1 SWAP2 SSTORE POP POP DUP2 SLOAD PUSH1 0x40 MLOAD SWAP1 DUP2 MSTORE CALLER SWAP1 DUP6 SWAP1 PUSH32 0x459D5AEF2C549903C1EEB1736F5728845D5CCF82537DDD5BF8035795EEE89263 SWAP1 PUSH1 0x20 ADD PUSH1 0x40 MLOAD DUP1 SWAP2 SUB SWAP1 LOG3 PUSH1 0x0 DUP3 SSTORE CALLER JUMPDEST PUSH1 0x1 PUSH1 0x1 PUSH1 0xA0 SHL SUB AND DUP5 PUSH32 0x8FE70E917AD578CBB5B0779AA52EE3F23AFA39C5295542125059F2A4E98CBBFE DUP5 PUSH1 0x0 ADD SLOAD DUP6 PUSH1 0x1 ADD SLOAD DUP7 PUSH1 0x2 ADD SLOAD PUSH1 0x40 MLOAD PUSH2 0x639 SWAP4 SWAP3 SWAP2 SWAP1 SWAP3 DUP4 MSTORE PUSH1 0x20 DUP4 ADD SWAP2 SWAP1 SWAP2 MSTORE PUSH1 0x40 DUP3 ADD MSTORE PUSH1 0x60 ADD SWAP1 JUMP JUMPDEST PUSH1 0x40 MLOAD DUP1 SWAP2 SUB SWAP1 LOG3 PUSH1 0x2 DUP2 ADD SLOAD PUSH1 0x3 DUP3 ADD SLOAD PUSH1 0x4 DUP4 ADD SLOAD PUSH1 0x6 DUP5 ADD SLOAD PUSH1 0x40 DUP1 MLOAD SWAP5 DUP6 MSTORE PUSH1 0x20 DUP6 ADD SWAP4 SWAP1 SWAP4 MSTORE SWAP2 DUP4 ADD MSTORE PUSH1 0x1 PUSH1 0x1 PUSH1 0x60 SHL SUB AND PUSH1 0x60 DUP3 ADD MSTORE DUP5 SWAP1 PUSH32 0xE9D4CED29DFD1B7392AA77B7EA3220D8318A5A65CD900F4E40E9D816D11D84F2 SWAP1 PUSH1 0x80 ADD PUSH1 0x40 MLOAD DUP1 SWAP2 SUB SWAP1 LOG2 JUMPDEST POP POP POP PUSH2 0x6B2 PUSH1 0x1 DUP1 SSTORE JUMP JUMPDEST POP JUMP JUMPDEST PUSH2 0x6BD PUSH2 0x16B2 JUMP JUMPDEST DUP1 PUSH1 0x0 DUP2 GT DUP1 ISZERO PUSH2 0x6CF JUMPI POP PUSH1 0x2 SLOAD DUP2 LT JUMPDEST PUSH2 0x725 JUMPI PUSH1 0x40 MLOAD PUSH3 0x461BCD PUSH1 0xE5 SHL DUP2 MSTORE PUSH1 0x20 PUSH1 0x4 DUP3 ADD MSTORE PUSH1 0x21 PUSH1 0x24 DUP3 ADD MSTORE PUSH32 0x4D61726B6574696E675374616B696E673A496E76616C696420506F6F6C204944 PUSH1 0x44 DUP3 ADD MSTORE PUSH1 0x21 PUSH1 0xF8 SHL PUSH1 0x64 DUP3 ADD MSTORE PUSH1 0x84 ADD PUSH2 0x339 JUMP JUMPDEST PUSH2 0x72F DUP3 CALLER PUSH2 0x16F5 JUMP JUMPDEST CALLER PUSH1 0x0 SWAP1 DUP2 MSTORE PUSH1 0x3 PUSH1 0x20 SWAP1 DUP2 MSTORE PUSH1 0x40 DUP1 DUP4 KECCAK256 DUP6 DUP5 MSTORE SWAP1 SWAP2 MSTORE DUP2 KECCAK256 PUSH1 0x2 DUP1 SLOAD SWAP2 SWAP3 SWAP2 DUP6 SWAP1 DUP2 LT PUSH2 0x760 JUMPI PUSH2 0x760 PUSH2 0x1BFF JUMP JUMPDEST PUSH1 0x0 SWAP2 DUP3 MSTORE PUSH1 0x20 SWAP1 SWAP2 KECCAK256 PUSH1 0x7 SWAP1 SWAP2 MUL ADD PUSH1 0x1 DUP2 ADD SLOAD SWAP1 SWAP2 POP PUSH1 0x1 PUSH1 0xA0 SHL SWAP1 DIV PUSH1 0x1 PUSH1 0x1 PUSH1 0x60 SHL SUB AND TIMESTAMP PUSH1 0x1 PUSH1 0x1 PUSH1 0x60 SHL SUB AND LT ISZERO PUSH2 0x806 JUMPI PUSH1 0x40 MLOAD PUSH3 0x461BCD PUSH1 0xE5 SHL DUP2 MSTORE PUSH1 0x20 PUSH1 0x4 DUP3 ADD MSTORE PUSH1 0x33 PUSH1 0x24 DUP3 ADD MSTORE PUSH32 0x4D61726B6574696E675374616B696E673A4561726C7920576974686472617761 PUSH1 0x44 DUP3 ADD MSTORE PUSH32 0x6C206973206E6F74207065726D69747465642100000000000000000000000000 PUSH1 0x64 DUP3 ADD MSTORE PUSH1 0x84 ADD PUSH2 0x339 JUMP JUMPDEST PUSH1 0x0 DUP3 PUSH1 0x1 ADD SLOAD GT PUSH2 0x880 JUMPI PUSH1 0x40 MLOAD PUSH3 0x461BCD PUSH1 0xE5 SHL DUP2 MSTORE PUSH1 0x20 PUSH1 0x4 DUP3 ADD MSTORE PUSH1 0x21 PUSH1 0x24 DUP3 ADD MSTORE PUSH32 0x4D61726B6574696E675374616B696E673A4E6F7468696E6720746F20636C6169 PUSH1 0x44 DUP3 ADD MSTORE PUSH32 0x6D00000000000000000000000000000000000000000000000000000000000000 PUSH1 0x64 DUP3 ADD MSTORE PUSH1 0x84 ADD PUSH2 0x339 JUMP JUMPDEST DUP2 PUSH1 0x1 ADD SLOAD DUP2 PUSH1 0x5 ADD SLOAD LT ISZERO PUSH2 0x8E7 JUMPI PUSH1 0x40 MLOAD PUSH3 0x461BCD PUSH1 0xE5 SHL DUP2 MSTORE PUSH1 0x20 PUSH1 0x4 DUP3 ADD MSTORE PUSH1 0x26 PUSH1 0x24 DUP3 ADD MSTORE PUSH32 0x4D61726B6574696E675374616B696E673A496E73756666696369656E74206261 PUSH1 0x44 DUP3 ADD MSTORE PUSH6 0x6C616E636521 PUSH1 0xD0 SHL PUSH1 0x64 DUP3 ADD MSTORE PUSH1 0x84 ADD PUSH2 0x339 JUMP JUMPDEST DUP2 SLOAD ISZERO PUSH2 0x950 JUMPI PUSH2 0x8F7 CALLER PUSH2 0x571 JUMP JUMPDEST DUP2 SLOAD PUSH1 0x2 DUP3 ADD DUP1 SLOAD PUSH1 0x0 SWAP1 PUSH2 0x90D SWAP1 DUP5 SWAP1 PUSH2 0x1C2B JUMP JUMPDEST SWAP1 SWAP2 SSTORE POP POP DUP2 SLOAD PUSH1 0x40 MLOAD SWAP1 DUP2 MSTORE CALLER SWAP1 DUP6 SWAP1 PUSH32 0x459D5AEF2C549903C1EEB1736F5728845D5CCF82537DDD5BF8035795EEE89263 SWAP1 PUSH1 0x20 ADD PUSH1 0x40 MLOAD DUP1 SWAP2 SUB SWAP1 LOG3 PUSH1 0x0 DUP3 SSTORE JUMPDEST PUSH2 0x96E CALLER PUSH1 0x1 DUP1 DUP6 ADD SLOAD SWAP1 DUP5 ADD SLOAD PUSH1 0x1 PUSH1 0x1 PUSH1 0xA0 SHL SUB AND SWAP2 SWAP1 PUSH2 0x1875 JUMP JUMPDEST DUP2 PUSH1 0x1 ADD SLOAD DUP2 PUSH1 0x5 ADD PUSH1 0x0 DUP3 DUP3 SLOAD PUSH2 0x986 SWAP2 SWAP1 PUSH2 0x1C2B JUMP JUMPDEST SWAP1 SWAP2 SSTORE POP POP PUSH1 0x1 DUP3 ADD SLOAD PUSH1 0x40 MLOAD SWAP1 DUP2 MSTORE CALLER SWAP1 DUP6 SWAP1 PUSH32 0x4492FAB062412E7E4E5F46C9E919F1640652946A5E163AD6E6C1C03D87954D2 SWAP1 PUSH1 0x20 ADD PUSH1 0x40 MLOAD DUP1 SWAP2 SUB SWAP1 LOG3 PUSH1 0x0 PUSH1 0x1 DUP4 ADD DUP2 SWAP1 SSTORE PUSH1 0x2 DUP4 ADD SSTORE CALLER PUSH2 0x5DF JUMP JUMPDEST PUSH1 0x0 PUSH2 0x9E5 PUSH2 0x18EE JUMP JUMPDEST PUSH1 0x1 PUSH1 0x1 PUSH1 0x60 SHL SUB DUP5 AND TIMESTAMP PUSH1 0x1 PUSH1 0x1 PUSH1 0x60 SHL SUB AND LT PUSH2 0xA6C JUMPI PUSH1 0x40 MLOAD PUSH3 0x461BCD PUSH1 0xE5 SHL DUP2 MSTORE PUSH1 0x20 PUSH1 0x4 DUP3 ADD MSTORE PUSH1 0x38 PUSH1 0x24 DUP3 ADD MSTORE PUSH32 0x4D61726B6574696E675374616B696E673A456E642074696D65206D7573742062 PUSH1 0x44 DUP3 ADD MSTORE PUSH32 0x652067726561746572207468616E2074696D655F6E6F77210000000000000000 PUSH1 0x64 DUP3 ADD MSTORE PUSH1 0x84 ADD PUSH2 0x339 JUMP JUMPDEST PUSH2 0xA88 PUSH1 0x1 PUSH1 0x1 PUSH1 0x60 SHL SUB DUP7 AND TIMESTAMP PUSH1 0x1 PUSH1 0x1 PUSH1 0x60 SHL SUB AND PUSH2 0x1934 JUMP JUMPDEST SWAP5 POP DUP4 PUSH1 0x1 PUSH1 0x1 PUSH1 0x60 SHL SUB AND DUP6 PUSH1 0x1 PUSH1 0x1 PUSH1 0x60 SHL SUB AND LT PUSH2 0xB11 JUMPI PUSH1 0x40 MLOAD PUSH3 0x461BCD PUSH1 0xE5 SHL DUP2 MSTORE PUSH1 0x20 PUSH1 0x4 DUP3 ADD MSTORE PUSH1 0x37 PUSH1 0x24 DUP3 ADD MSTORE PUSH32 0x4D61726B6574696E675374616B696E673A53746172742074696D65206D757374 PUSH1 0x44 DUP3 ADD MSTORE PUSH32 0x206265206C657373207468616E20656E642074696D6521000000000000000000 PUSH1 0x64 DUP3 ADD MSTORE PUSH1 0x84 ADD PUSH2 0x339 JUMP JUMPDEST PUSH1 0x0 PUSH2 0xB1D DUP7 DUP7 PUSH2 0x1C3E JUMP JUMPDEST PUSH1 0x1 PUSH1 0x1 PUSH1 0x60 SHL SUB AND PUSH2 0xB39 DUP6 PUSH9 0x3635C9ADC5DEA00000 PUSH2 0x1C5D JUMP JUMPDEST PUSH2 0xB43 SWAP2 SWAP1 PUSH2 0x1C74 JUMP JUMPDEST PUSH1 0x40 DUP1 MLOAD PUSH2 0x120 DUP2 ADD DUP3 MSTORE PUSH1 0x1 PUSH1 0x1 PUSH1 0xA0 SHL SUB DUP12 DUP2 AND DUP3 MSTORE PUSH1 0x1 PUSH1 0x1 PUSH1 0x60 SHL SUB DUP11 DUP2 AND PUSH1 0x20 DUP5 ADD DUP2 DUP2 MSTORE DUP14 DUP5 AND SWAP6 DUP6 ADD SWAP6 DUP7 MSTORE DUP12 DUP4 AND PUSH1 0x60 DUP7 ADD SWAP1 DUP2 MSTORE PUSH1 0x0 PUSH1 0x80 DUP8 ADD DUP2 DUP2 MSTORE PUSH1 0xA0 DUP9 ADD DUP11 DUP2 MSTORE PUSH1 0xC0 DUP10 ADD DUP4 DUP2 MSTORE PUSH1 0xE0 DUP11 ADD DUP16 DUP2 MSTORE PUSH2 0x100 DUP12 ADD SWAP8 DUP9 MSTORE PUSH1 0x2 DUP1 SLOAD PUSH1 0x1 DUP1 DUP3 ADD DUP4 SSTORE DUP3 DUP9 MSTORE SWAP13 MLOAD SWAP9 MLOAD SWAP9 DUP13 AND PUSH1 0x1 PUSH1 0xA0 SHL SWAP10 DUP13 AND DUP11 MUL OR PUSH32 0x405787FA12A823E0F2B7631CC41B3BA8828B3321CA811111FA75CD3AA3BB5ACE PUSH1 0x7 SWAP1 SWAP3 MUL SWAP2 DUP3 ADD SSTORE SWAP13 MLOAD SWAP7 MLOAD SWAP7 SWAP1 SWAP11 AND SWAP6 DUP10 AND SWAP1 SWAP7 MUL SWAP5 SWAP1 SWAP5 OR PUSH32 0x405787FA12A823E0F2B7631CC41B3BA8828B3321CA811111FA75CD3AA3BB5ACF DUP12 ADD SSTORE SWAP1 MLOAD PUSH32 0x405787FA12A823E0F2B7631CC41B3BA8828B3321CA811111FA75CD3AA3BB5AD0 DUP11 ADD SSTORE MLOAD PUSH32 0x405787FA12A823E0F2B7631CC41B3BA8828B3321CA811111FA75CD3AA3BB5AD1 DUP10 ADD SSTORE SWAP1 MLOAD PUSH32 0x405787FA12A823E0F2B7631CC41B3BA8828B3321CA811111FA75CD3AA3BB5AD2 DUP9 ADD SSTORE SWAP1 MLOAD PUSH32 0x405787FA12A823E0F2B7631CC41B3BA8828B3321CA811111FA75CD3AA3BB5AD3 DUP8 ADD SSTORE SWAP1 MLOAD PUSH32 0x405787FA12A823E0F2B7631CC41B3BA8828B3321CA811111FA75CD3AA3BB5AD4 SWAP1 SWAP6 ADD DUP1 SLOAD PUSH12 0xFFFFFFFFFFFFFFFFFFFFFFFF NOT AND SWAP6 SWAP1 SWAP3 AND SWAP5 SWAP1 SWAP5 OR SWAP1 SSTORE SLOAD SWAP3 SWAP4 POP SWAP1 SWAP2 PUSH2 0xD0E SWAP2 SWAP1 PUSH2 0x1C2B JUMP JUMPDEST PUSH1 0x40 DUP1 MLOAD PUSH1 0x1 PUSH1 0x1 PUSH1 0xA0 SHL SUB DUP13 DUP2 AND DUP3 MSTORE DUP12 AND PUSH1 0x20 DUP3 ADD MSTORE PUSH1 0x1 PUSH1 0x1 PUSH1 0x60 SHL SUB DUP11 DUP2 AND DUP3 DUP5 ADD MSTORE DUP10 AND PUSH1 0x60 DUP3 ADD MSTORE PUSH9 0x3635C9ADC5DEA00000 PUSH1 0x80 DUP3 ADD MSTORE SWAP1 MLOAD SWAP2 SWAP3 POP DUP3 SWAP2 PUSH32 0x7C89FF64FFBFC8006A5F9EF85541E2FC4F990A7906BA4920928FFD9C9B7B3A95 SWAP2 DUP2 SWAP1 SUB PUSH1 0xA0 ADD SWAP1 LOG2 DUP4 ISZERO PUSH2 0xDD2 JUMPI PUSH2 0xD97 PUSH1 0x1 PUSH1 0x1 PUSH1 0xA0 SHL SUB DUP10 AND CALLER ADDRESS DUP8 PUSH2 0x1949 JUMP JUMPDEST DUP1 PUSH32 0x6C07EE05DCF262F13ABF9D87B846EE789D2F90FE991D495ACD7D7FC109EE1F55 DUP6 PUSH1 0x40 MLOAD PUSH2 0xDC9 SWAP2 DUP2 MSTORE PUSH1 0x20 ADD SWAP1 JUMP JUMPDEST PUSH1 0x40 MLOAD DUP1 SWAP2 SUB SWAP1 LOG2 JUMPDEST SWAP9 SWAP8 POP POP POP POP POP POP POP POP JUMP JUMPDEST PUSH2 0xDE6 PUSH2 0x18EE JUMP JUMPDEST PUSH2 0xDF0 PUSH1 0x0 PUSH2 0x1982 JUMP JUMPDEST JUMP JUMPDEST PUSH2 0xDFA PUSH2 0x16B2 JUMP JUMPDEST DUP2 PUSH1 0x0 DUP2 GT DUP1 ISZERO PUSH2 0xE0C JUMPI POP PUSH1 0x2 SLOAD DUP2 LT JUMPDEST PUSH2 0xE62 JUMPI PUSH1 0x40 MLOAD PUSH3 0x461BCD PUSH1 0xE5 SHL DUP2 MSTORE PUSH1 0x20 PUSH1 0x4 DUP3 ADD MSTORE PUSH1 0x21 PUSH1 0x24 DUP3 ADD MSTORE PUSH32 0x4D61726B6574696E675374616B696E673A496E76616C696420506F6F6C204944 PUSH1 0x44 DUP3 ADD MSTORE PUSH1 0x21 PUSH1 0xF8 SHL PUSH1 0x64 DUP3 ADD MSTORE PUSH1 0x84 ADD PUSH2 0x339 JUMP JUMPDEST PUSH1 0x0 PUSH1 0x2 DUP5 DUP2 SLOAD DUP2 LT PUSH2 0xE77 JUMPI PUSH2 0xE77 PUSH2 0x1BFF JUMP JUMPDEST PUSH1 0x0 SWAP2 DUP3 MSTORE PUSH1 0x20 SWAP1 SWAP2 KECCAK256 PUSH1 0x7 SWAP1 SWAP2 MUL ADD DUP1 SLOAD SWAP1 SWAP2 POP PUSH1 0x1 PUSH1 0xA0 SHL SWAP1 DIV PUSH1 0x1 PUSH1 0x1 PUSH1 0x60 SHL SUB AND TIMESTAMP PUSH1 0x1 PUSH1 0x1 PUSH1 0x60 SHL SUB AND LT ISZERO DUP1 ISZERO PUSH2 0xED0 JUMPI POP PUSH1 0x1 DUP2 ADD SLOAD PUSH1 0x1 PUSH1 0xA0 SHL SWAP1 DIV PUSH1 0x1 PUSH1 0x1 PUSH1 0x60 SHL SUB AND TIMESTAMP PUSH1 0x1 PUSH1 0x1 PUSH1 0x60 SHL SUB AND LT JUMPDEST PUSH2 0xF41 JUMPI PUSH1 0x40 MLOAD PUSH3 0x461BCD PUSH1 0xE5 SHL DUP2 MSTORE PUSH1 0x20 PUSH1 0x4 DUP3 ADD MSTORE PUSH1 0x24 DUP1 DUP3 ADD MSTORE PUSH32 0x4D61726B6574696E675374616B696E673A506F6F6C206973206E6F7420616374 PUSH1 0x44 DUP3 ADD MSTORE PUSH32 0x6976652100000000000000000000000000000000000000000000000000000000 PUSH1 0x64 DUP3 ADD MSTORE PUSH1 0x84 ADD PUSH2 0x339 JUMP JUMPDEST PUSH1 0x0 DUP4 GT PUSH2 0xFB7 JUMPI PUSH1 0x40 MLOAD PUSH3 0x461BCD PUSH1 0xE5 SHL DUP2 MSTORE PUSH1 0x20 PUSH1 0x4 DUP3 ADD MSTORE PUSH1 0x35 PUSH1 0x24 DUP3 ADD MSTORE PUSH32 0x4D61726B6574696E675374616B696E673A7374616B655F616D6F756E74206D75 PUSH1 0x44 DUP3 ADD MSTORE PUSH32 0x73742062652067726561746572207468616E2030210000000000000000000000 PUSH1 0x64 DUP3 ADD MSTORE PUSH1 0x84 ADD PUSH2 0x339 JUMP JUMPDEST PUSH2 0xFCE CALLER DUP3 SLOAD PUSH1 0x1 PUSH1 0x1 PUSH1 0xA0 SHL SUB AND SWAP1 ADDRESS DUP7 PUSH2 0x1949 JUMP JUMPDEST PUSH2 0xFD8 DUP5 CALLER PUSH2 0x16F5 JUMP JUMPDEST CALLER PUSH1 0x0 SWAP1 DUP2 MSTORE PUSH1 0x3 PUSH1 0x20 SWAP1 DUP2 MSTORE PUSH1 0x40 DUP1 DUP4 KECCAK256 DUP8 DUP5 MSTORE SWAP1 SWAP2 MSTORE DUP2 KECCAK256 DUP1 SLOAD SWAP1 SWAP2 DUP6 SWAP2 DUP4 SWAP2 SWAP1 PUSH2 0x1006 SWAP1 DUP5 SWAP1 PUSH2 0x1C96 JUMP JUMPDEST SWAP3 POP POP DUP2 SWAP1 SSTORE POP DUP4 DUP3 PUSH1 0x2 ADD PUSH1 0x0 DUP3 DUP3 SLOAD PUSH2 0x1021 SWAP2 SWAP1 PUSH2 0x1C96 JUMP JUMPDEST SWAP1 SWAP2 SSTORE POP POP DUP1 SLOAD PUSH1 0x1 DUP3 ADD SLOAD PUSH1 0x2 DUP4 ADD SLOAD PUSH1 0x40 DUP1 MLOAD SWAP4 DUP5 MSTORE PUSH1 0x20 DUP5 ADD SWAP3 SWAP1 SWAP3 MSTORE DUP3 DUP3 ADD MSTORE MLOAD CALLER SWAP2 DUP8 SWAP2 PUSH32 0x8FE70E917AD578CBB5B0779AA52EE3F23AFA39C5295542125059F2A4E98CBBFE SWAP2 DUP2 SWAP1 SUB PUSH1 0x60 ADD SWAP1 LOG3 PUSH1 0x2 DUP3 ADD SLOAD PUSH1 0x3 DUP4 ADD SLOAD PUSH1 0x4 DUP5 ADD SLOAD PUSH1 0x6 DUP6 ADD SLOAD PUSH1 0x40 DUP1 MLOAD SWAP5 DUP6 MSTORE PUSH1 0x20 DUP6 ADD SWAP4 SWAP1 SWAP4 MSTORE SWAP2 DUP4 ADD MSTORE PUSH1 0x1 PUSH1 0x1 PUSH1 0x60 SHL SUB AND PUSH1 0x60 DUP3 ADD MSTORE DUP6 SWAP1 PUSH32 0xE9D4CED29DFD1B7392AA77B7EA3220D8318A5A65CD900F4E40E9D816D11D84F2 SWAP1 PUSH1 0x80 ADD PUSH1 0x40 MLOAD DUP1 SWAP2 SUB SWAP1 LOG2 POP POP POP PUSH2 0x10E4 PUSH1 0x1 DUP1 SSTORE JUMP JUMPDEST POP POP JUMP JUMPDEST PUSH2 0x10F0 PUSH2 0x18EE JUMP JUMPDEST DUP3 PUSH1 0x0 DUP2 GT DUP1 ISZERO PUSH2 0x1102 JUMPI POP PUSH1 0x2 SLOAD DUP2 LT JUMPDEST PUSH2 0x1158 JUMPI PUSH1 0x40 MLOAD PUSH3 0x461BCD PUSH1 0xE5 SHL DUP2 MSTORE PUSH1 0x20 PUSH1 0x4 DUP3 ADD MSTORE PUSH1 0x21 PUSH1 0x24 DUP3 ADD MSTORE PUSH32 0x4D61726B6574696E675374616B696E673A496E76616C696420506F6F6C204944 PUSH1 0x44 DUP3 ADD MSTORE PUSH1 0x21 PUSH1 0xF8 SHL PUSH1 0x64 DUP3 ADD MSTORE PUSH1 0x84 ADD PUSH2 0x339 JUMP JUMPDEST PUSH1 0x0 DUP3 GT PUSH2 0x11CE JUMPI PUSH1 0x40 MLOAD PUSH3 0x461BCD PUSH1 0xE5 SHL DUP2 MSTORE PUSH1 0x20 PUSH1 0x4 DUP3 ADD MSTORE PUSH1 0x32 PUSH1 0x24 DUP3 ADD MSTORE PUSH32 0x4D61726B6574696E675374616B696E673A616D6F756E74206D75737420626520 PUSH1 0x44 DUP3 ADD MSTORE PUSH32 0x67726561746572207468616E207A65726F210000000000000000000000000000 PUSH1 0x64 DUP3 ADD MSTORE PUSH1 0x84 ADD PUSH2 0x339 JUMP JUMPDEST PUSH1 0x0 PUSH1 0x2 DUP6 DUP2 SLOAD DUP2 LT PUSH2 0x11E3 JUMPI PUSH2 0x11E3 PUSH2 0x1BFF JUMP JUMPDEST SWAP1 PUSH1 0x0 MSTORE PUSH1 0x20 PUSH1 0x0 KECCAK256 SWAP1 PUSH1 0x7 MUL ADD SWAP1 POP DUP3 DUP2 PUSH1 0x5 ADD SLOAD LT ISZERO PUSH2 0x1256 JUMPI PUSH1 0x40 MLOAD PUSH3 0x461BCD PUSH1 0xE5 SHL DUP2 MSTORE PUSH1 0x20 PUSH1 0x4 DUP3 ADD MSTORE PUSH1 0x26 PUSH1 0x24 DUP3 ADD MSTORE PUSH32 0x4D61726B6574696E675374616B696E673A496E73756666696369656E74206261 PUSH1 0x44 DUP3 ADD MSTORE PUSH6 0x6C616E636521 PUSH1 0xD0 SHL PUSH1 0x64 DUP3 ADD MSTORE PUSH1 0x84 ADD PUSH2 0x339 JUMP JUMPDEST PUSH1 0x1 DUP2 ADD SLOAD PUSH2 0x1279 SWAP1 PUSH3 0x34BC00 SWAP1 PUSH1 0x1 PUSH1 0xA0 SHL SWAP1 DIV PUSH1 0x1 PUSH1 0x1 PUSH1 0x60 SHL SUB AND PUSH2 0x1CA9 JUMP JUMPDEST PUSH1 0x1 PUSH1 0x1 PUSH1 0x60 SHL SUB AND TIMESTAMP PUSH1 0x1 PUSH1 0x1 PUSH1 0x60 SHL SUB AND LT ISZERO DUP1 PUSH2 0x129B JUMPI POP PUSH1 0x2 DUP2 ADD SLOAD ISZERO JUMPDEST PUSH2 0x12A4 JUMPI PUSH1 0x0 DUP1 REVERT JUMPDEST PUSH1 0x1 DUP2 ADD SLOAD PUSH2 0x12BD SWAP1 PUSH1 0x1 PUSH1 0x1 PUSH1 0xA0 SHL SUB AND DUP6 DUP6 PUSH2 0x1875 JUMP JUMPDEST DUP3 DUP2 PUSH1 0x5 ADD PUSH1 0x0 DUP3 DUP3 SLOAD PUSH2 0x12D1 SWAP2 SWAP1 PUSH2 0x1C2B JUMP JUMPDEST SWAP1 SWAP2 SSTORE POP POP PUSH1 0x40 MLOAD DUP4 DUP2 MSTORE PUSH1 0x1 PUSH1 0x1 PUSH1 0xA0 SHL SUB DUP6 AND SWAP1 DUP7 SWAP1 PUSH32 0xB886382D42263E3C08A157DD29A33C435741F36625DBC3ACB6FB8C19BBF78247 SWAP1 PUSH1 0x20 ADD PUSH1 0x40 MLOAD DUP1 SWAP2 SUB SWAP1 LOG3 POP POP POP POP POP JUMP JUMPDEST PUSH1 0x2 SLOAD PUSH1 0x0 SWAP1 PUSH2 0x132F SWAP1 PUSH1 0x1 SWAP1 PUSH2 0x1C2B JUMP JUMPDEST SWAP1 POP SWAP1 JUMP JUMPDEST PUSH2 0x133C PUSH2 0x18EE JUMP JUMPDEST PUSH1 0x1 PUSH1 0x1 PUSH1 0xA0 SHL SUB DUP2 AND PUSH2 0x137F JUMPI PUSH1 0x40 MLOAD PUSH32 0x1E4FBDF700000000000000000000000000000000000000000000000000000000 DUP2 MSTORE PUSH1 0x0 PUSH1 0x4 DUP3 ADD MSTORE PUSH1 0x24 ADD PUSH2 0x339 JUMP JUMPDEST PUSH2 0x6B2 DUP2 PUSH2 0x1982 JUMP JUMPDEST PUSH2 0x1390 PUSH2 0x16B2 JUMP JUMPDEST DUP2 PUSH1 0x0 DUP2 GT DUP1 ISZERO PUSH2 0x13A2 JUMPI POP PUSH1 0x2 SLOAD DUP2 LT JUMPDEST PUSH2 0x13F8 JUMPI PUSH1 0x40 MLOAD PUSH3 0x461BCD PUSH1 0xE5 SHL DUP2 MSTORE PUSH1 0x20 PUSH1 0x4 DUP3 ADD MSTORE PUSH1 0x21 PUSH1 0x24 DUP3 ADD MSTORE PUSH32 0x4D61726B6574696E675374616B696E673A496E76616C696420506F6F6C204944 PUSH1 0x44 DUP3 ADD MSTORE PUSH1 0x21 PUSH1 0xF8 SHL PUSH1 0x64 DUP3 ADD MSTORE PUSH1 0x84 ADD PUSH2 0x339 JUMP JUMPDEST PUSH1 0x0 DUP3 GT PUSH2 0x146E JUMPI PUSH1 0x40 MLOAD PUSH3 0x461BCD PUSH1 0xE5 SHL DUP2 MSTORE PUSH1 0x20 PUSH1 0x4 DUP3 ADD MSTORE PUSH1 0x32 PUSH1 0x24 DUP3 ADD MSTORE PUSH32 0x4D61726B6574696E675374616B696E673A616D6F756E74206D75737420626520 PUSH1 0x44 DUP3 ADD MSTORE PUSH32 0x67726561746572207468616E207A65726F210000000000000000000000000000 PUSH1 0x64 DUP3 ADD MSTORE PUSH1 0x84 ADD PUSH2 0x339 JUMP JUMPDEST PUSH1 0x0 PUSH1 0x2 DUP5 DUP2 SLOAD DUP2 LT PUSH2 0x1483 JUMPI PUSH2 0x1483 PUSH2 0x1BFF JUMP JUMPDEST SWAP1 PUSH1 0x0 MSTORE PUSH1 0x20 PUSH1 0x0 KECCAK256 SWAP1 PUSH1 0x7 MUL ADD SWAP1 POP PUSH2 0x14B3 PUSH2 0x149D CALLER SWAP1 JUMP JUMPDEST PUSH1 0x1 DUP4 ADD SLOAD PUSH1 0x1 PUSH1 0x1 PUSH1 0xA0 SHL SUB AND SWAP1 ADDRESS DUP7 PUSH2 0x1949 JUMP JUMPDEST DUP3 DUP2 PUSH1 0x5 ADD PUSH1 0x0 DUP3 DUP3 SLOAD PUSH2 0x14C7 SWAP2 SWAP1 PUSH2 0x1C96 JUMP JUMPDEST SWAP1 SWAP2 SSTORE POP POP PUSH1 0x40 MLOAD DUP4 DUP2 MSTORE DUP5 SWAP1 PUSH32 0x6C07EE05DCF262F13ABF9D87B846EE789D2F90FE991D495ACD7D7FC109EE1F55 SWAP1 PUSH1 0x20 ADD PUSH1 0x40 MLOAD DUP1 SWAP2 SUB SWAP1 LOG2 POP POP PUSH2 0x10E4 PUSH1 0x1 DUP1 SSTORE JUMP JUMPDEST PUSH1 0x0 DUP3 PUSH1 0x0 DUP2 GT DUP1 ISZERO PUSH2 0x1520 JUMPI POP PUSH1 0x2 SLOAD DUP2 LT JUMPDEST PUSH2 0x1576 JUMPI PUSH1 0x40 MLOAD PUSH3 0x461BCD PUSH1 0xE5 SHL DUP2 MSTORE PUSH1 0x20 PUSH1 0x4 DUP3 ADD MSTORE PUSH1 0x21 PUSH1 0x24 DUP3 ADD MSTORE PUSH32 0x4D61726B6574696E675374616B696E673A496E76616C696420506F6F6C204944 PUSH1 0x44 DUP3 ADD MSTORE PUSH1 0x21 PUSH1 0xF8 SHL PUSH1 0x64 DUP3 ADD MSTORE PUSH1 0x84 ADD PUSH2 0x339 JUMP JUMPDEST PUSH1 0x1 PUSH1 0x1 PUSH1 0xA0 SHL SUB DUP4 AND PUSH1 0x0 SWAP1 DUP2 MSTORE PUSH1 0x3 PUSH1 0x20 SWAP1 DUP2 MSTORE PUSH1 0x40 DUP1 DUP4 KECCAK256 DUP8 DUP5 MSTORE SWAP1 SWAP2 MSTORE DUP2 KECCAK256 PUSH1 0x2 DUP1 SLOAD SWAP2 SWAP3 SWAP2 DUP8 SWAP1 DUP2 LT PUSH2 0x15B0 JUMPI PUSH2 0x15B0 PUSH2 0x1BFF JUMP JUMPDEST PUSH1 0x0 SWAP2 DUP3 MSTORE PUSH1 0x20 DUP3 KECCAK256 PUSH1 0x7 SWAP2 SWAP1 SWAP2 MUL ADD PUSH1 0x6 DUP2 ADD SLOAD SWAP1 SWAP3 POP PUSH2 0x15FE SWAP1 PUSH1 0x1 PUSH1 0x1 PUSH1 0x60 SHL SUB AND PUSH2 0x15F9 TIMESTAMP JUMPDEST PUSH1 0x1 DUP7 ADD SLOAD PUSH1 0x1 PUSH1 0x1 PUSH1 0x60 SHL SUB SWAP2 DUP3 AND SWAP2 PUSH1 0x1 PUSH1 0xA0 SHL SWAP1 SWAP2 DIV AND PUSH2 0x19EA JUMP JUMPDEST PUSH2 0x1934 JUMP JUMPDEST PUSH1 0x4 DUP4 ADD SLOAD PUSH1 0x2 DUP5 ADD SLOAD SWAP2 SWAP3 POP SWAP1 ISZERO DUP1 ISZERO SWAP1 PUSH2 0x1626 JUMPI POP PUSH1 0x6 DUP4 ADD SLOAD PUSH1 0x1 PUSH1 0x1 PUSH1 0x60 SHL SUB AND DUP3 GT JUMPDEST ISZERO PUSH2 0x1673 JUMPI PUSH1 0x2 DUP4 ADD SLOAD PUSH1 0x3 DUP5 ADD SLOAD PUSH1 0x6 DUP6 ADD SLOAD PUSH2 0x164D SWAP1 PUSH1 0x1 PUSH1 0x1 PUSH1 0x60 SHL SUB AND DUP6 PUSH2 0x1C2B JUMP JUMPDEST PUSH2 0x1657 SWAP2 SWAP1 PUSH2 0x1C5D JUMP JUMPDEST PUSH2 0x1661 SWAP2 SWAP1 PUSH2 0x1C74 JUMP JUMPDEST DUP4 PUSH1 0x4 ADD SLOAD PUSH2 0x1670 SWAP2 SWAP1 PUSH2 0x1C96 JUMP JUMPDEST SWAP1 POP JUMPDEST PUSH9 0x3635C9ADC5DEA00000 DUP5 PUSH1 0x2 ADD SLOAD DUP3 PUSH2 0x168D SWAP2 SWAP1 PUSH2 0x1C2B JUMP JUMPDEST DUP6 SLOAD PUSH2 0x1699 SWAP2 SWAP1 PUSH2 0x1C5D JUMP JUMPDEST PUSH2 0x16A3 SWAP2 SWAP1 PUSH2 0x1C74 JUMP JUMPDEST DUP5 PUSH1 0x1 ADD SLOAD PUSH2 0xDD2 SWAP2 SWAP1 PUSH2 0x1C96 JUMP JUMPDEST PUSH1 0x2 PUSH1 0x1 SLOAD SUB PUSH2 0x16EE JUMPI PUSH1 0x40 MLOAD PUSH32 0x3EE5AEB500000000000000000000000000000000000000000000000000000000 DUP2 MSTORE PUSH1 0x4 ADD PUSH1 0x40 MLOAD DUP1 SWAP2 SUB SWAP1 REVERT JUMPDEST PUSH1 0x2 PUSH1 0x1 SSTORE JUMP JUMPDEST PUSH1 0x0 PUSH1 0x2 DUP4 DUP2 SLOAD DUP2 LT PUSH2 0x170A JUMPI PUSH2 0x170A PUSH2 0x1BFF JUMP JUMPDEST PUSH1 0x0 SWAP2 DUP3 MSTORE PUSH1 0x20 DUP3 KECCAK256 PUSH1 0x7 SWAP2 SWAP1 SWAP2 MUL ADD PUSH1 0x6 DUP2 ADD SLOAD SWAP1 SWAP3 POP PUSH2 0x1738 SWAP1 PUSH1 0x1 PUSH1 0x1 PUSH1 0x60 SHL SUB AND PUSH2 0x15F9 TIMESTAMP PUSH2 0x15DA JUMP JUMPDEST SWAP1 POP PUSH1 0x0 DUP3 PUSH1 0x2 ADD SLOAD GT DUP1 ISZERO PUSH2 0x175E JUMPI POP PUSH1 0x6 DUP3 ADD SLOAD PUSH1 0x1 PUSH1 0x1 PUSH1 0x60 SHL SUB SWAP1 DUP2 AND SWAP1 DUP3 AND GT JUMPDEST ISZERO PUSH2 0x17BB JUMPI PUSH1 0x2 DUP3 ADD SLOAD PUSH1 0x3 DUP4 ADD SLOAD PUSH1 0x6 DUP5 ADD SLOAD PUSH2 0x1785 SWAP1 PUSH1 0x1 PUSH1 0x1 PUSH1 0x60 SHL SUB AND DUP5 PUSH2 0x1C3E JUMP JUMPDEST PUSH1 0x1 PUSH1 0x1 PUSH1 0x60 SHL SUB AND PUSH2 0x1798 SWAP2 SWAP1 PUSH2 0x1C5D JUMP JUMPDEST PUSH2 0x17A2 SWAP2 SWAP1 PUSH2 0x1C74 JUMP JUMPDEST DUP3 PUSH1 0x4 ADD PUSH1 0x0 DUP3 DUP3 SLOAD PUSH2 0x17B5 SWAP2 SWAP1 PUSH2 0x1C96 JUMP JUMPDEST SWAP1 SWAP2 SSTORE POP POP JUMPDEST PUSH1 0x6 DUP3 ADD DUP1 SLOAD PUSH12 0xFFFFFFFFFFFFFFFFFFFFFFFF NOT AND PUSH1 0x1 PUSH1 0x1 PUSH1 0x60 SHL SUB DUP4 AND OR SWAP1 SSTORE PUSH1 0x1 PUSH1 0x1 PUSH1 0xA0 SHL SUB DUP4 AND ISZERO PUSH2 0x186F JUMPI PUSH1 0x1 PUSH1 0x1 PUSH1 0xA0 SHL SUB DUP4 AND PUSH1 0x0 SWAP1 DUP2 MSTORE PUSH1 0x3 PUSH1 0x20 SWAP1 DUP2 MSTORE PUSH1 0x40 DUP1 DUP4 KECCAK256 DUP8 DUP5 MSTORE SWAP1 SWAP2 MSTORE SWAP1 KECCAK256 DUP1 SLOAD ISZERO PUSH2 0x1863 JUMPI PUSH9 0x3635C9ADC5DEA00000 DUP2 PUSH1 0x2 ADD SLOAD DUP5 PUSH1 0x4 ADD SLOAD PUSH2 0x1834 SWAP2 SWAP1 PUSH2 0x1C2B JUMP JUMPDEST DUP3 SLOAD PUSH2 0x1840 SWAP2 SWAP1 PUSH2 0x1C5D JUMP JUMPDEST PUSH2 0x184A SWAP2 SWAP1 PUSH2 0x1C74 JUMP JUMPDEST DUP2 PUSH1 0x1 ADD PUSH1 0x0 DUP3 DUP3 SLOAD PUSH2 0x185D SWAP2 SWAP1 PUSH2 0x1C96 JUMP JUMPDEST SWAP1 SWAP2 SSTORE POP POP JUMPDEST PUSH1 0x4 DUP4 ADD SLOAD PUSH1 0x2 SWAP1 SWAP2 ADD SSTORE JUMPDEST POP POP POP POP JUMP JUMPDEST PUSH1 0x40 MLOAD PUSH1 0x1 PUSH1 0x1 PUSH1 0xA0 SHL SUB DUP4 DUP2 AND PUSH1 0x24 DUP4 ADD MSTORE PUSH1 0x44 DUP3 ADD DUP4 SWAP1 MSTORE PUSH2 0x18E9 SWAP2 DUP6 SWAP2 DUP3 AND SWAP1 PUSH4 0xA9059CBB SWAP1 PUSH1 0x64 ADD JUMPDEST PUSH1 0x40 MLOAD PUSH1 0x20 DUP2 DUP4 SUB SUB DUP2 MSTORE SWAP1 PUSH1 0x40 MSTORE SWAP2 POP PUSH1 0xE0 SHL PUSH1 0x20 DUP3 ADD DUP1 MLOAD PUSH28 0xFFFFFFFFFFFFFFFFFFFFFFFFFFFFFFFFFFFFFFFFFFFFFFFFFFFFFFFF DUP4 DUP2 DUP4 AND OR DUP4 MSTORE POP POP POP POP PUSH2 0x19FA JUMP JUMPDEST POP POP POP JUMP JUMPDEST PUSH1 0x0 SLOAD PUSH1 0x1 PUSH1 0x1 PUSH1 0xA0 SHL SUB AND CALLER EQ PUSH2 0xDF0 JUMPI PUSH1 0x40 MLOAD PUSH32 0x118CDAA700000000000000000000000000000000000000000000000000000000 DUP2 MSTORE CALLER PUSH1 0x4 DUP3 ADD MSTORE PUSH1 0x24 ADD PUSH2 0x339 JUMP JUMPDEST PUSH1 0x0 DUP3 DUP3 XOR DUP3 DUP5 GT MUL DUP3 XOR JUMPDEST SWAP1 POP JUMPDEST SWAP3 SWAP2 POP POP JUMP JUMPDEST PUSH1 0x40 MLOAD PUSH1 0x1 PUSH1 0x1 PUSH1 0xA0 SHL SUB DUP5 DUP2 AND PUSH1 0x24 DUP4 ADD MSTORE DUP4 DUP2 AND PUSH1 0x44 DUP4 ADD MSTORE PUSH1 0x64 DUP3 ADD DUP4 SWAP1 MSTORE PUSH2 0x186F SWAP2 DUP7 SWAP2 DUP3 AND SWAP1 PUSH4 0x23B872DD SWAP1 PUSH1 0x84 ADD PUSH2 0x18A2 JUMP JUMPDEST PUSH1 0x0 DUP1 SLOAD PUSH1 0x1 PUSH1 0x1 PUSH1 0xA0 SHL SUB DUP4 DUP2 AND PUSH32 0xFFFFFFFFFFFFFFFFFFFFFFFF0000000000000000000000000000000000000000 DUP4 AND DUP2 OR DUP5 SSTORE PUSH1 0x40 MLOAD SWAP2 SWAP1 SWAP3 AND SWAP3 DUP4 SWAP2 PUSH32 0x8BE0079C531659141344CD1FD0A4F28419497F9722A3DAAFE3B4186F6B6457E0 SWAP2 SWAP1 LOG3 POP POP JUMP JUMPDEST PUSH1 0x0 DUP3 DUP3 XOR DUP3 DUP5 LT MUL DUP3 XOR PUSH2 0x1940 JUMP JUMPDEST PUSH1 0x0 DUP1 PUSH1 0x20 PUSH1 0x0 DUP5 MLOAD PUSH1 0x20 DUP7 ADD PUSH1 0x0 DUP9 GAS CALL DUP1 PUSH2 0x1A1D JUMPI PUSH1 0x40 MLOAD RETURNDATASIZE PUSH1 0x0 DUP3 RETURNDATACOPY RETURNDATASIZE DUP2 REVERT JUMPDEST POP POP PUSH1 0x0 MLOAD RETURNDATASIZE SWAP2 POP DUP2 ISZERO PUSH2 0x1A35 JUMPI DUP1 PUSH1 0x1 EQ ISZERO PUSH2 0x1A42 JUMP JUMPDEST PUSH1 0x1 PUSH1 0x1 PUSH1 0xA0 SHL SUB DUP5 AND EXTCODESIZE ISZERO JUMPDEST ISZERO PUSH2 0x186F JUMPI PUSH1 0x40 MLOAD PUSH32 0x5274AFE700000000000000000000000000000000000000000000000000000000 DUP2 MSTORE PUSH1 0x1 PUSH1 0x1 PUSH1 0xA0 SHL SUB DUP6 AND PUSH1 0x4 DUP3 ADD MSTORE PUSH1 0x24 ADD PUSH2 0x339 JUMP JUMPDEST PUSH1 0x0 PUSH1 0x20 DUP3 DUP5 SUB SLT ISZERO PUSH2 0x1A96 JUMPI PUSH1 0x0 DUP1 REVERT JUMPDEST POP CALLDATALOAD SWAP2 SWAP1 POP JUMP JUMPDEST DUP1 CALLDATALOAD PUSH1 0x1 PUSH1 0x1 PUSH1 0xA0 SHL SUB DUP2 AND DUP2 EQ PUSH2 0x1AB4 JUMPI PUSH1 0x0 DUP1 REVERT JUMPDEST SWAP2 SWAP1 POP JUMP JUMPDEST PUSH1 0x0 DUP1 PUSH1 0x40 DUP4 DUP6 SUB SLT ISZERO PUSH2 0x1ACC JUMPI PUSH1 0x0 DUP1 REVERT JUMPDEST PUSH2 0x1AD5 DUP4 PUSH2 0x1A9D JUMP JUMPDEST SWAP5 PUSH1 0x20 SWAP4 SWAP1 SWAP4 ADD CALLDATALOAD SWAP4 POP POP POP JUMP JUMPDEST DUP1 CALLDATALOAD PUSH1 0x1 PUSH1 0x1 PUSH1 0x60 SHL SUB DUP2 AND DUP2 EQ PUSH2 0x1AB4 JUMPI PUSH1 0x0 DUP1 REVERT JUMPDEST PUSH1 0x0 DUP1 PUSH1 0x0 DUP1 PUSH1 0x0 DUP1 PUSH1 0xC0 DUP8 DUP10 SUB SLT ISZERO PUSH2 0x1B13 JUMPI PUSH1 0x0 DUP1 REVERT JUMPDEST PUSH2 0x1B1C DUP8 PUSH2 0x1A9D JUMP JUMPDEST SWAP6 POP PUSH2 0x1B2A PUSH1 0x20 DUP9 ADD PUSH2 0x1A9D JUMP JUMPDEST SWAP5 POP PUSH2 0x1B38 PUSH1 0x40 DUP9 ADD PUSH2 0x1AE3 JUMP JUMPDEST SWAP4 POP PUSH2 0x1B46 PUSH1 0x60 DUP9 ADD PUSH2 0x1AE3 JUMP JUMPDEST SWAP6 SWAP9 SWAP5 SWAP8 POP SWAP3 SWAP6 PUSH1 0x80 DUP2 ADD CALLDATALOAD SWAP5 PUSH1 0xA0 SWAP1 SWAP2 ADD CALLDATALOAD SWAP4 POP SWAP2 POP POP JUMP JUMPDEST PUSH1 0x0 DUP1 PUSH1 0x40 DUP4 DUP6 SUB SLT ISZERO PUSH2 0x1B73 JUMPI PUSH1 0x0 DUP1 REVERT JUMPDEST POP POP DUP1 CALLDATALOAD SWAP3 PUSH1 0x20 SWAP1 SWAP2 ADD CALLDATALOAD SWAP2 POP JUMP JUMPDEST PUSH1 0x0 DUP1 PUSH1 0x0 PUSH1 0x60 DUP5 DUP7 SUB SLT ISZERO PUSH2 0x1B97 JUMPI PUSH1 0x0 DUP1 REVERT JUMPDEST DUP4 CALLDATALOAD SWAP3 POP PUSH2 0x1BA7 PUSH1 0x20 DUP6 ADD PUSH2 0x1A9D JUMP JUMPDEST SWAP3 SWAP6 SWAP3 SWAP5 POP POP POP PUSH1 0x40 SWAP2 SWAP1 SWAP2 ADD CALLDATALOAD SWAP1 JUMP JUMPDEST PUSH1 0x0 PUSH1 0x20 DUP3 DUP5 SUB SLT ISZERO PUSH2 0x1BCA JUMPI PUSH1 0x0 DUP1 REVERT JUMPDEST PUSH2 0x1940 DUP3 PUSH2 0x1A9D JUMP JUMPDEST PUSH1 0x0 DUP1 PUSH1 0x40 DUP4 DUP6 SUB SLT ISZERO PUSH2 0x1BE6 JUMPI PUSH1 0x0 DUP1 REVERT JUMPDEST DUP3 CALLDATALOAD SWAP2 POP PUSH2 0x1BF6 PUSH1 0x20 DUP5 ADD PUSH2 0x1A9D JUMP JUMPDEST SWAP1 POP SWAP3 POP SWAP3 SWAP1 POP JUMP JUMPDEST PUSH4 0x4E487B71 PUSH1 0xE0 SHL PUSH1 0x0 MSTORE PUSH1 0x32 PUSH1 0x4 MSTORE PUSH1 0x24 PUSH1 0x0 REVERT JUMPDEST PUSH4 0x4E487B71 PUSH1 0xE0 SHL PUSH1 0x0 MSTORE PUSH1 0x11 PUSH1 0x4 MSTORE PUSH1 0x24 PUSH1 0x0 REVERT JUMPDEST DUP2 DUP2 SUB DUP2 DUP2 GT ISZERO PUSH2 0x1943 JUMPI PUSH2 0x1943 PUSH2 0x1C15 JUMP JUMPDEST PUSH1 0x1 PUSH1 0x1 PUSH1 0x60 SHL SUB DUP3 DUP2 AND DUP3 DUP3 AND SUB SWAP1 DUP2 GT ISZERO PUSH2 0x1943 JUMPI PUSH2 0x1943 PUSH2 0x1C15 JUMP JUMPDEST DUP1 DUP3 MUL DUP2 ISZERO DUP3 DUP3 DIV DUP5 EQ OR PUSH2 0x1943 JUMPI PUSH2 0x1943 PUSH2 0x1C15 JUMP JUMPDEST PUSH1 0x0 DUP3 PUSH2 0x1C91 JUMPI PUSH4 0x4E487B71 PUSH1 0xE0 SHL PUSH1 0x0 MSTORE PUSH1 0x12 PUSH1 0x4 MSTORE PUSH1 0x24 PUSH1 0x0 REVERT JUMPDEST POP DIV SWAP1 JUMP JUMPDEST DUP1 DUP3 ADD DUP1 DUP3 GT ISZERO PUSH2 0x1943 JUMPI PUSH2 0x1943 PUSH2 0x1C15 JUMP JUMPDEST PUSH1 0x1 PUSH1 0x1 PUSH1 0x60 SHL SUB DUP2 DUP2 AND DUP4 DUP3 AND ADD SWAP1 DUP2 GT ISZERO PUSH2 0x1943 JUMPI PUSH2 0x1943 PUSH2 0x1C15 JUMP INVALID LOG2 PUSH5 0x6970667358 0x22 SLT KECCAK256 STOP 0xD9 0x4F OR CODECOPY MOD DUP16 JUMPF 0x7B80 DUP6 0xDD 0xD9 ADDRESS 0x24 DUP2 0x26 SIGNEXTEND 0xD3 PUSH11 0x6B435BEB2E015EE741E3E9 CALLDATALOAD PUSH5 0x736F6C6343 STOP ADDMOD 0x1E STOP CALLER "
		},
		"gasEstimates": {
			"creation": {
				"codeDepositCost": "1484400",
				"executionCost": "128424",
				"totalCost": "1612824"
			},
			"external": {
				"CLAIM_PERIOD()": "262",
				"SCALE_FACTOR()": "217",
				"addRewards(uint256,uint256)": "infinite",
				"claim(uint256)": "infinite",
				"createPool(address,address,uint96,uint96,uint256,uint256)": "infinite",
				"getPool(uint256)": "24289",
				"getPoolsCount()": "2485",
				"getUserRewards(uint256,address)": "infinite",
				"owner()": "2368",
				"renounceOwnership()": "infinite",
				"stake(uint256,uint256)": "infinite",
				"stakes(address,uint256)": "6932",
				"transferOwnership(address)": "28366",
				"withdrawRewards(uint256,address,uint256)": "infinite",
				"withdrawStake(uint256)": "infinite"
			},
			"internal": {
				"time_now()": "infinite",
				"updatePool(uint256,address)": "infinite"
			}
		},
		"methodIdentifiers": {
			"CLAIM_PERIOD()": "21241dfe",
			"SCALE_FACTOR()": "ce4b5bbe",
			"addRewards(uint256,uint256)": "fc41aa09",
			"claim(uint256)": "379607f5",
			"createPool(address,address,uint96,uint96,uint256,uint256)": "5d9d2318",
			"getPool(uint256)": "068bcd8d",
			"getPoolsCount()": "b4ac6860",
			"getUserRewards(uint256,address)": "fdeef425",
			"owner()": "8da5cb5b",
			"renounceOwnership()": "715018a6",
			"stake(uint256,uint256)": "7b0472f0",
			"stakes(address,uint256)": "584b62a1",
			"transferOwnership(address)": "f2fde38b",
			"withdrawRewards(uint256,address,uint256)": "7db7e3bf",
			"withdrawStake(uint256)": "25d5971f"
		}
	},
	"abi": [
		{
			"inputs": [],
			"stateMutability": "nonpayable",
			"type": "constructor"
		},
		{
			"inputs": [
				{
					"internalType": "address",
					"name": "owner",
					"type": "address"
				}
			],
			"name": "OwnableInvalidOwner",
			"type": "error"
		},
		{
			"inputs": [
				{
					"internalType": "address",
					"name": "account",
					"type": "address"
				}
			],
			"name": "OwnableUnauthorizedAccount",
			"type": "error"
		},
		{
			"inputs": [],
			"name": "ReentrancyGuardReentrantCall",
			"type": "error"
		},
		{
			"inputs": [
				{
					"internalType": "address",
					"name": "token",
					"type": "address"
				}
			],
			"name": "SafeERC20FailedOperation",
			"type": "error"
		},
		{
			"anonymous": false,
			"inputs": [
				{
					"indexed": true,
					"internalType": "address",
					"name": "previousOwner",
					"type": "address"
				},
				{
					"indexed": true,
					"internalType": "address",
					"name": "newOwner",
					"type": "address"
				}
			],
			"name": "OwnershipTransferred",
			"type": "event"
		},
		{
			"anonymous": false,
			"inputs": [
				{
					"indexed": true,
					"internalType": "uint256",
					"name": "pool_id",
					"type": "uint256"
				},
				{
					"indexed": false,
					"internalType": "address",
					"name": "staking_token",
					"type": "address"
				},
				{
					"indexed": false,
					"internalType": "address",
					"name": "rewards_token",
					"type": "address"
				},
				{
					"indexed": false,
					"internalType": "uint96",
					"name": "start_epoch",
					"type": "uint96"
				},
				{
					"indexed": false,
					"internalType": "uint96",
					"name": "end_epoch",
					"type": "uint96"
				},
				{
					"indexed": false,
					"internalType": "uint256",
					"name": "scale_factor",
					"type": "uint256"
				}
			],
			"name": "PoolCreated",
			"type": "event"
		},
		{
			"anonymous": false,
			"inputs": [
				{
					"indexed": true,
					"internalType": "uint256",
					"name": "pool_id",
					"type": "uint256"
				},
				{
					"indexed": false,
					"internalType": "uint256",
					"name": "stake_amount",
					"type": "uint256"
				},
				{
					"indexed": false,
					"internalType": "uint256",
					"name": "reward_rate",
					"type": "uint256"
				},
				{
					"indexed": false,
					"internalType": "uint256",
					"name": "reward_rate_cumsum",
					"type": "uint256"
				},
				{
					"indexed": false,
					"internalType": "uint96",
					"name": "last_update_epoch",
					"type": "uint96"
				}
			],
			"name": "PoolUpdated",
			"type": "event"
		},
		{
			"anonymous": false,
			"inputs": [
				{
					"indexed": true,
					"internalType": "uint256",
					"name": "pool_id",
					"type": "uint256"
				},
				{
					"indexed": false,
					"internalType": "uint256",
					"name": "amount",
					"type": "uint256"
				}
			],
			"name": "RewardAdded",
			"type": "event"
		},
		{
			"anonymous": false,
			"inputs": [
				{
					"indexed": true,
					"internalType": "uint256",
					"name": "pool_id",
					"type": "uint256"
				},
				{
					"indexed": true,
					"internalType": "address",
					"name": "user",
					"type": "address"
				},
				{
					"indexed": false,
					"internalType": "uint256",
					"name": "amount",
					"type": "uint256"
				}
			],
			"name": "RewardPaid",
			"type": "event"
		},
		{
			"anonymous": false,
			"inputs": [
				{
					"indexed": true,
					"internalType": "uint256",
					"name": "pool_id",
					"type": "uint256"
				},
				{
					"indexed": true,
					"internalType": "address",
					"name": "to",
					"type": "address"
				},
				{
					"indexed": false,
					"internalType": "uint256",
					"name": "amount",
					"type": "uint256"
				}
			],
			"name": "RewardWithdrawn",
			"type": "event"
		},
		{
			"anonymous": false,
			"inputs": [
				{
					"indexed": true,
					"internalType": "uint256",
					"name": "pool_id",
					"type": "uint256"
				},
				{
					"indexed": true,
					"internalType": "address",
					"name": "user",
					"type": "address"
				},
				{
					"indexed": false,
					"internalType": "uint256",
					"name": "stake_amount",
					"type": "uint256"
				},
				{
					"indexed": false,
					"internalType": "uint256",
					"name": "reward_amount",
					"type": "uint256"
				},
				{
					"indexed": false,
					"internalType": "uint256",
					"name": "reward_rate_cumsum",
					"type": "uint256"
				}
			],
			"name": "StakeUpdated",
			"type": "event"
		},
		{
			"anonymous": false,
			"inputs": [
				{
					"indexed": true,
					"internalType": "uint256",
					"name": "pool_id",
					"type": "uint256"
				},
				{
					"indexed": true,
					"internalType": "address",
					"name": "user",
					"type": "address"
				},
				{
					"indexed": false,
					"internalType": "uint256",
					"name": "amount",
					"type": "uint256"
				}
			],
			"name": "StakeWithdrawn",
			"type": "event"
		},
		{
			"inputs": [],
			"name": "CLAIM_PERIOD",
			"outputs": [
				{
					"internalType": "uint96",
					"name": "",
					"type": "uint96"
				}
			],
			"stateMutability": "view",
			"type": "function"
		},
		{
			"inputs": [],
			"name": "SCALE_FACTOR",
			"outputs": [
				{
					"internalType": "uint256",
					"name": "",
					"type": "uint256"
				}
			],
			"stateMutability": "view",
			"type": "function"
		},
		{
			"inputs": [
				{
					"internalType": "uint256",
					"name": "pool_id",
					"type": "uint256"
				},
				{
					"internalType": "uint256",
					"name": "amount",
					"type": "uint256"
				}
			],
			"name": "addRewards",
			"outputs": [],
			"stateMutability": "nonpayable",
			"type": "function"
		},
		{
			"inputs": [
				{
					"internalType": "uint256",
					"name": "pool_id",
					"type": "uint256"
				}
			],
			"name": "claim",
			"outputs": [],
			"stateMutability": "nonpayable",
			"type": "function"
		},
		{
			"inputs": [
				{
					"internalType": "address",
					"name": "staking_token",
					"type": "address"
				},
				{
					"internalType": "address",
					"name": "rewards_token",
					"type": "address"
				},
				{
					"internalType": "uint96",
					"name": "start_epoch",
					"type": "uint96"
				},
				{
					"internalType": "uint96",
					"name": "end_epoch",
					"type": "uint96"
				},
				{
					"internalType": "uint256",
					"name": "reward_amount",
					"type": "uint256"
				},
				{
					"internalType": "uint256",
					"name": "transfer_reward_amount",
					"type": "uint256"
				}
			],
			"name": "createPool",
			"outputs": [
				{
					"internalType": "uint256",
					"name": "",
					"type": "uint256"
				}
			],
			"stateMutability": "nonpayable",
			"type": "function"
		},
		{
			"inputs": [
				{
					"internalType": "uint256",
					"name": "pool_id",
					"type": "uint256"
				}
			],
			"name": "getPool",
			"outputs": [
				{
					"internalType": "address",
					"name": "staking_token",
					"type": "address"
				},
				{
					"internalType": "address",
					"name": "rewards_token",
					"type": "address"
				},
				{
					"internalType": "uint96",
					"name": "start_epoch",
					"type": "uint96"
				},
				{
					"internalType": "uint96",
					"name": "end_epoch",
					"type": "uint96"
				},
				{
					"internalType": "uint256",
					"name": "stake_amount",
					"type": "uint256"
				},
				{
					"internalType": "uint256",
					"name": "reward_rate",
					"type": "uint256"
				},
				{
					"internalType": "uint256",
					"name": "reward_rate_cumsum",
					"type": "uint256"
				},
				{
					"internalType": "uint96",
					"name": "last_update_epoch",
					"type": "uint96"
				},
				{
					"internalType": "uint256",
					"name": "available_rewards",
					"type": "uint256"
				}
			],
			"stateMutability": "view",
			"type": "function"
		},
		{
			"inputs": [],
			"name": "getPoolsCount",
			"outputs": [
				{
					"internalType": "uint256",
					"name": "",
					"type": "uint256"
				}
			],
			"stateMutability": "view",
			"type": "function"
		},
		{
			"inputs": [
				{
					"internalType": "uint256",
					"name": "pool_id",
					"type": "uint256"
				},
				{
					"internalType": "address",
					"name": "user",
					"type": "address"
				}
			],
			"name": "getUserRewards",
			"outputs": [
				{
					"internalType": "uint256",
					"name": "",
					"type": "uint256"
				}
			],
			"stateMutability": "view",
			"type": "function"
		},
		{
			"inputs": [],
			"name": "owner",
			"outputs": [
				{
					"internalType": "address",
					"name": "",
					"type": "address"
				}
			],
			"stateMutability": "view",
			"type": "function"
		},
		{
			"inputs": [],
			"name": "renounceOwnership",
			"outputs": [],
			"stateMutability": "nonpayable",
			"type": "function"
		},
		{
			"inputs": [
				{
					"internalType": "uint256",
					"name": "pool_id",
					"type": "uint256"
				},
				{
					"internalType": "uint256",
					"name": "stake_amount",
					"type": "uint256"
				}
			],
			"name": "stake",
			"outputs": [],
			"stateMutability": "nonpayable",
			"type": "function"
		},
		{
			"inputs": [
				{
					"internalType": "address",
					"name": "",
					"type": "address"
				},
				{
					"internalType": "uint256",
					"name": "",
					"type": "uint256"
				}
			],
			"name": "stakes",
			"outputs": [
				{
					"internalType": "uint256",
					"name": "stake_amount",
					"type": "uint256"
				},
				{
					"internalType": "uint256",
					"name": "reward_amount",
					"type": "uint256"
				},
				{
					"internalType": "uint256",
					"name": "reward_rate_cumsum",
					"type": "uint256"
				}
			],
			"stateMutability": "view",
			"type": "function"
		},
		{
			"inputs": [
				{
					"internalType": "address",
					"name": "newOwner",
					"type": "address"
				}
			],
			"name": "transferOwnership",
			"outputs": [],
			"stateMutability": "nonpayable",
			"type": "function"
		},
		{
			"inputs": [
				{
					"internalType": "uint256",
					"name": "pool_id",
					"type": "uint256"
				},
				{
					"internalType": "address",
					"name": "to",
					"type": "address"
				},
				{
					"internalType": "uint256",
					"name": "amount",
					"type": "uint256"
				}
			],
			"name": "withdrawRewards",
			"outputs": [],
			"stateMutability": "nonpayable",
			"type": "function"
		},
		{
			"inputs": [
				{
					"internalType": "uint256",
					"name": "pool_id",
					"type": "uint256"
				}
			],
			"name": "withdrawStake",
			"outputs": [],
			"stateMutability": "nonpayable",
			"type": "function"
		}
	]
}