{
	"data": {
		"bytecode": {
			"linkReferences": {},
			"object": "60c06040526000805460ff60a01b19168155600181815560055560065534801561002857600080fd5b506040516118c33803806118c383398101604081905261004791610103565b338061006d57604051631e4fbdf760e01b81526000600482015260240160405180910390fd5b61007681610097565b506001600160a01b039384166080529190921660a052600355600255610146565b600080546001600160a01b038381166001600160a01b0319831681178455604051919092169283917f8be0079c531659141344cd1fd0a4f28419497f9722a3daafe3b4186f6b6457e09190a35050565b80516001600160a01b03811681146100fe57600080fd5b919050565b6000806000806080858703121561011957600080fd5b610122856100e7565b9350610130602086016100e7565b6040860151606090960151949790965092505050565b60805160a0516117196101aa60003960008181610243015281816102c40152818161060c01528181610b8e01528181610e680152610f360152600081816101db015281816103810152818161084f01528181610af301526110d801526117196000f3fe608060405234801561001057600080fd5b50600436106101985760003560e01c8063b109beec116100e3578063ce325bf81161008c578063d6ef7af011610066578063d6ef7af0146103a5578063d93c04a0146103b8578063f2fde38b146103e057600080fd5b8063ce325bf81461032f578063d2d7231f1461036c578063d46149a21461037f57600080fd5b8063bc854352116100bd578063bc854352146102f6578063beceed3914610309578063c9ea62c11461031c57600080fd5b8063b109beec146102bf578063b5fa91fe146102e6578063b6baffe3146102ee57600080fd5b80637c2fdeb5116101455780638f4729b71161011f5780638f4729b71461029a578063ac00500f146102a3578063af7568dd146102b657600080fd5b80637c2fdeb5146102415780638da5cb5b146102675780638e12c0cd1461027857600080fd5b80636db08f25116101765780636db08f25146101d6578063715018a61461021557806375f12b211461021d57600080fd5b806307da68f51461019d578063109cf399146101a7578063379607f5146101c3575b600080fd5b6101a56103f3565b005b6101b060035481565b6040519081526020015b60405180910390f35b6101b06101d1366004611491565b610452565b6101fd7f000000000000000000000000000000000000000000000000000000000000000081565b6040516001600160a01b0390911681526020016101ba565b6101a5610694565b60005461023190600160a01b900460ff1681565b60405190151581526020016101ba565b7f00000000000000000000000000000000000000000000000000000000000000006101fd565b6000546001600160a01b03166101fd565b61028262ed4e0081565b6040516001600160601b0390911681526020016101ba565b6101b060065481565b6101a56102b13660046114aa565b6106a8565b6101b060015481565b6101fd7f000000000000000000000000000000000000000000000000000000000000000081565b6101b06108ce565b6101b06108e4565b6101a56103043660046114cc565b610903565b6101a5610317366004611491565b610b27565b6101a561032a366004611543565b610bf4565b61034261033d366004611491565b610c0a565b604080516001600160a01b03909516855260208501939093529183015260608201526080016101ba565b6101b061037a366004611491565b610cae565b7f00000000000000000000000000000000000000000000000000000000000000006101fd565b6101a56103b336600461158b565b610e25565b6103cb6103c63660046115b5565b610fa4565b604080519283526020830191909152016101ba565b6101a56103ee3660046115df565b61124f565b6103fb6112a6565b600080547fffffffffffffffffffffff00ffffffffffffffffffffffffffffffffffffffff16600160a01b1781556040517f7acc84e34091ae817647a4c49116f5cc07f319078ba80f8f5fde37ea7e25cbd69190a1565b600081600081118015610466575060055481105b6104b75760405162461bcd60e51b815260206004820152601960248201527f4d6f64756c65583a496e76616c6964205374616b65204944210000000000000060448201526064015b60405180910390fd5b600083815260046020526040902080546001600160a01b0316331461051e5760405162461bcd60e51b815260206004820152601f60248201527f4d6f64756c65583a43616c6c6572206973206e6f7420746865206f776e65720060448201526064016104ae565b8054600160a01b90046001600160601b0316426001600160601b031610156105ae5760405162461bcd60e51b815260206004820152602a60248201527f4d6f64756c65583a4561726c79205769746864726177616c206973206e6f742060448201527f7065726d6974746564210000000000000000000000000000000000000000000060648201526084016104ae565b60008160020154116106025760405162461bcd60e51b815260206004820152601860248201527f4d6f64756c65583a4e6f7468696e6720746f20636c61696d000000000000000060448201526064016104ae565b600281015461063b7f00000000000000000000000000000000000000000000000000000000000000006001600160a01b031633836112ec565b806006600082825461064d9190611617565b9091555050600060028301556040518581527f67bb155fcabb99400c32b640dc7704c8f18aae4c817704c7267c5a8cd26dfc199060200160405180910390a1949350505050565b61069c6112a6565b6106a66000611360565b565b6106b06112a6565b816000811180156106c2575060055481105b61070e5760405162461bcd60e51b815260206004820152601960248201527f4d6f64756c65583a496e76616c6964205374616b65204944210000000000000060448201526064016104ae565b600082116107705760405162461bcd60e51b815260206004820152602960248201527f4d6f64756c65583a616d6f756e74206d7573742062652067726561746572207460448201526868616e207a65726f2160b81b60648201526084016104ae565b60008381526004602052604090208054600160a01b90046001600160601b0316426001600160601b031611156107e85760405162461bcd60e51b815260206004820152601560248201527f4d6f64756c65583a4275726e7420746f6b656e7321000000000000000000000060448201526064016104ae565b806001015483111561083c5760405162461bcd60e51b815260206004820152601d60248201527f4d6f64756c65583a496e73756666696369656e742062616c616e63652100000060448201526064016104ae565b6108763360018301546001600160a01b037f00000000000000000000000000000000000000000000000000000000000000001691906112ec565b8281600101600082825461088a9190611617565b909155505060408051858152602081018590527f03a00e6132085cbc9ea18899cd135ef9cad5d305d58506e08e7b1a9b96199a9c910160405180910390a150505050565b600060016005546108df9190611617565b905090565b60006002546003546001546108f99190611630565b6108df9190611652565b61090b6112a6565b6000805b82811015610a9d5760055484848381811061092c5761092c611665565b90506020020135106109805760405162461bcd60e51b815260206004820152601960248201527f4d6f64756c65583a496e76616c6964205374616b65204944210000000000000060448201526064016104ae565b60006004600086868581811061099857610998611665565b602090810292909201358352508101919091526040016000208054909150600160a01b90046001600160601b0316426001600160601b03161115610a1e5760405162461bcd60e51b815260206004820152601560248201527f4d6f64756c65583a4275726e7420746f6b656e7321000000000000000000000060448201526064016104ae565b6001810154610a2d9084611652565b6000600183015592507f03a00e6132085cbc9ea18899cd135ef9cad5d305d58506e08e7b1a9b96199a9c858584818110610a6957610a69611665565b905060200201358260010154604051610a8c929190918252602082015260400190565b60405180910390a15060010161090f565b5060008111610aee5760405162461bcd60e51b815260206004820152601a60248201527f4d6f64756c65583a546f74616c20616d6f756e7420697320302100000000000060448201526064016104ae565b610b227f00000000000000000000000000000000000000000000000000000000000000006001600160a01b031633836112ec565b505050565b60008111610b895760405162461bcd60e51b815260206004820152602960248201527f4d6f64756c65583a616d6f756e74206d7573742062652067726561746572207460448201526868616e207a65726f2160b81b60648201526084016104ae565b610bbe7f00000000000000000000000000000000000000000000000000000000000000006001600160a01b03163330846113c8565b6040518181527fde88a922e0d3b88b24e9623efeb464919c6bf9f66857a65e2bfcf2ce87a9433d9060200160405180910390a150565b610bfc6112a6565b600292909255600355600155565b60008060008084600081118015610c22575060055481105b610c6e5760405162461bcd60e51b815260206004820152601960248201527f4d6f64756c65583a496e76616c6964205374616b65204944210000000000000060448201526064016104ae565b50505060009283525050600460205260409020805460018201546002909201546001600160a01b03821693600160a01b9092046001600160601b03169291565b600080670de0b6b3a76400009050600083600154610ccc9190611652565b90506000600354600154610ce09190611630565b9050600060035483610cf29190611630565b9050808203610d1c57600254610d089083611652565b610d129087611630565b9695505050505050565b600060025483610d2c9190611652565b600154600354856001610d3f9190611652565b610d49919061167b565b610d539190611617565b610d5d908761167b565b610d679190611630565b9050600060025483610d799190611652565b600354610d86908561167b565b610d909087611617565b610d9a908861167b565b610da49190611630565b9050600080610db4866001611652565b90505b84811015610df757600254610dcc9082611652565b600354610dd9908a61167b565b610de39190611630565b610ded9083611652565b9150600101610db7565b508682610e048386611652565b610e0e9190611652565b610e189190611630565b9998505050505050505050565b610e2d6112a6565b600654610e3a9082611652565b6040517f70a082310000000000000000000000000000000000000000000000000000000081523060048201527f00000000000000000000000000000000000000000000000000000000000000006001600160a01b0316906370a0823190602401602060405180830381865afa158015610eb7573d6000803e3d6000fd5b505050506040513d601f19601f82011682018060405250810190610edb9190611692565b1015610f295760405162461bcd60e51b815260206004820152601d60248201527f4d6f64756c65583a496e73756666696369656e742062616c616e63652100000060448201526064016104ae565b610f5d6001600160a01b037f00000000000000000000000000000000000000000000000000000000000000001683836112ec565b816001600160a01b03167f1d3eee4ca001cff39eec6ec7615aacf2f2bd61791273830728ba00ccbd6e133782604051610f9891815260200190565b60405180910390a25050565b600080548190600160a01b900460ff16156110015760405162461bcd60e51b815260206004820152601060248201527f4d6f64756c65583a53544f50504544210000000000000000000000000000000060448201526064016104ae565b600083116110775760405162461bcd60e51b815260206004820152602c60248201527f4d6f64756c65583a5374616b6520616d6f756e74206d7573742062652067726560448201527f61746572207468616e203021000000000000000000000000000000000000000060648201526084016104ae565b62ed4e006001600160601b03851610156110d35760405162461bcd60e51b815260206004820152601f60248201527f4d6f64756c65583a557365206c6f6e676572206c6f636b5f706572696f64210060448201526064016104ae565b6111087f00000000000000000000000000000000000000000000000000000000000000006001600160a01b03163330866113c8565b600061111485426116ab565b9050600061112185610cae565b905060006005549050604051806080016040528061113c3390565b6001600160a01b0390811682526001600160601b0380871660208085019190915260408085018c90526060948501889052600087815260048352818120875193880151909416600160a01b029290941691909117825584015160018083019190915593909201516002909201919091558154889291906111bd908490611652565b9250508190555081600660008282546111d69190611652565b9091555050604080518281526001600160601b038516602082015280820188905260608101849052905133917f24fe2d25c10eb2c67b5ac1e3edbcadc94191e154ed388ad667a9480c44f47146919081900360800190a26005805490600061123d836116ca565b90915550909791965090945050505050565b6112576112a6565b6001600160a01b03811661129a576040517f1e4fbdf7000000000000000000000000000000000000000000000000000000008152600060048201526024016104ae565b6112a381611360565b50565b6000546001600160a01b031633146106a6576040517f118cdaa70000000000000000000000000000000000000000000000000000000081523360048201526024016104ae565b6040516001600160a01b03838116602483015260448201839052610b2291859182169063a9059cbb906064015b604051602081830303815290604052915060e01b6020820180517bffffffffffffffffffffffffffffffffffffffffffffffffffffffff8381831617835250505050611407565b600080546001600160a01b038381167fffffffffffffffffffffffff0000000000000000000000000000000000000000831681178455604051919092169283917f8be0079c531659141344cd1fd0a4f28419497f9722a3daafe3b4186f6b6457e09190a35050565b6040516001600160a01b0384811660248301528381166044830152606482018390526114019186918216906323b872dd90608401611319565b50505050565b600080602060008451602086016000885af18061142a576040513d6000823e3d81fd5b50506000513d9150811561144257806001141561144f565b6001600160a01b0384163b155b15611401576040517f5274afe70000000000000000000000000000000000000000000000000000000081526001600160a01b03851660048201526024016104ae565b6000602082840312156114a357600080fd5b5035919050565b600080604083850312156114bd57600080fd5b50508035926020909101359150565b600080602083850312156114df57600080fd5b823567ffffffffffffffff8111156114f657600080fd5b8301601f8101851361150757600080fd5b803567ffffffffffffffff81111561151e57600080fd5b8560208260051b840101111561153357600080fd5b6020919091019590945092505050565b60008060006060848603121561155857600080fd5b505081359360208301359350604090920135919050565b80356001600160a01b038116811461158657600080fd5b919050565b6000806040838503121561159e57600080fd5b6115a78361156f565b946020939093013593505050565b600080604083850312156115c857600080fd5b82356001600160601b03811681146115a757600080fd5b6000602082840312156115f157600080fd5b6115fa8261156f565b9392505050565b634e487b7160e01b600052601160045260246000fd5b8181038181111561162a5761162a611601565b92915050565b60008261164d57634e487b7160e01b600052601260045260246000fd5b500490565b8082018082111561162a5761162a611601565b634e487b7160e01b600052603260045260246000fd5b808202811582820484141761162a5761162a611601565b6000602082840312156116a457600080fd5b5051919050565b6001600160601b03818116838216019081111561162a5761162a611601565b6000600182016116dc576116dc611601565b506001019056fea2646970667358221220b084a7f36b3d23381cffcdcc5078b9dae03cc69fcf4c5068cbe556f82fea0e1a64736f6c634300081e0033",
			"opcodes": "PUSH1 0xC0 PUSH1 0x40 MSTORE PUSH1 0x0 DUP1 SLOAD PUSH1 0xFF PUSH1 0xA0 SHL NOT AND DUP2 SSTORE PUSH1 0x1 DUP2 DUP2 SSTORE PUSH1 0x5 SSTORE PUSH1 0x6 SSTORE CALLVALUE DUP1 ISZERO PUSH2 0x28 JUMPI PUSH1 0x0 DUP1 REVERT JUMPDEST POP PUSH1 0x40 MLOAD PUSH2 0x18C3 CODESIZE SUB DUP1 PUSH2 0x18C3 DUP4 CODECOPY DUP2 ADD PUSH1 0x40 DUP2 SWAP1 MSTORE PUSH2 0x47 SWAP2 PUSH2 0x103 JUMP JUMPDEST CALLER DUP1 PUSH2 0x6D JUMPI PUSH1 0x40 MLOAD PUSH4 0x1E4FBDF7 PUSH1 0xE0 SHL DUP2 MSTORE PUSH1 0x0 PUSH1 0x4 DUP3 ADD MSTORE PUSH1 0x24 ADD PUSH1 0x40 MLOAD DUP1 SWAP2 SUB SWAP1 REVERT JUMPDEST PUSH2 0x76 DUP2 PUSH2 0x97 JUMP JUMPDEST POP PUSH1 0x1 PUSH1 0x1 PUSH1 0xA0 SHL SUB SWAP4 DUP5 AND PUSH1 0x80 MSTORE SWAP2 SWAP1 SWAP3 AND PUSH1 0xA0 MSTORE PUSH1 0x3 SSTORE PUSH1 0x2 SSTORE PUSH2 0x146 JUMP JUMPDEST PUSH1 0x0 DUP1 SLOAD PUSH1 0x1 PUSH1 0x1 PUSH1 0xA0 SHL SUB DUP4 DUP2 AND PUSH1 0x1 PUSH1 0x1 PUSH1 0xA0 SHL SUB NOT DUP4 AND DUP2 OR DUP5 SSTORE PUSH1 0x40 MLOAD SWAP2 SWAP1 SWAP3 AND SWAP3 DUP4 SWAP2 PUSH32 0x8BE0079C531659141344CD1FD0A4F28419497F9722A3DAAFE3B4186F6B6457E0 SWAP2 SWAP1 LOG3 POP POP JUMP JUMPDEST DUP1 MLOAD PUSH1 0x1 PUSH1 0x1 PUSH1 0xA0 SHL SUB DUP2 AND DUP2 EQ PUSH2 0xFE JUMPI PUSH1 0x0 DUP1 REVERT JUMPDEST SWAP2 SWAP1 POP JUMP JUMPDEST PUSH1 0x0 DUP1 PUSH1 0x0 DUP1 PUSH1 0x80 DUP6 DUP8 SUB SLT ISZERO PUSH2 0x119 JUMPI PUSH1 0x0 DUP1 REVERT JUMPDEST PUSH2 0x122 DUP6 PUSH2 0xE7 JUMP JUMPDEST SWAP4 POP PUSH2 0x130 PUSH1 0x20 DUP7 ADD PUSH2 0xE7 JUMP JUMPDEST PUSH1 0x40 DUP7 ADD MLOAD PUSH1 0x60 SWAP1 SWAP7 ADD MLOAD SWAP5 SWAP8 SWAP1 SWAP7 POP SWAP3 POP POP POP JUMP JUMPDEST PUSH1 0x80 MLOAD PUSH1 0xA0 MLOAD PUSH2 0x1719 PUSH2 0x1AA PUSH1 0x0 CODECOPY PUSH1 0x0 DUP2 DUP2 PUSH2 0x243 ADD MSTORE DUP2 DUP2 PUSH2 0x2C4 ADD MSTORE DUP2 DUP2 PUSH2 0x60C ADD MSTORE DUP2 DUP2 PUSH2 0xB8E ADD MSTORE DUP2 DUP2 PUSH2 0xE68 ADD MSTORE PUSH2 0xF36 ADD MSTORE PUSH1 0x0 DUP2 DUP2 PUSH2 0x1DB ADD MSTORE DUP2 DUP2 PUSH2 0x381 ADD MSTORE DUP2 DUP2 PUSH2 0x84F ADD MSTORE DUP2 DUP2 PUSH2 0xAF3 ADD MSTORE PUSH2 0x10D8 ADD MSTORE PUSH2 0x1719 PUSH1 0x0 RETURN INVALID PUSH1 0x80 PUSH1 0x40 MSTORE CALLVALUE DUP1 ISZERO PUSH2 0x10 JUMPI PUSH1 0x0 DUP1 REVERT JUMPDEST POP PUSH1 0x4 CALLDATASIZE LT PUSH2 0x198 JUMPI PUSH1 0x0 CALLDATALOAD PUSH1 0xE0 SHR DUP1 PUSH4 0xB109BEEC GT PUSH2 0xE3 JUMPI DUP1 PUSH4 0xCE325BF8 GT PUSH2 0x8C JUMPI DUP1 PUSH4 0xD6EF7AF0 GT PUSH2 0x66 JUMPI DUP1 PUSH4 0xD6EF7AF0 EQ PUSH2 0x3A5 JUMPI DUP1 PUSH4 0xD93C04A0 EQ PUSH2 0x3B8 JUMPI DUP1 PUSH4 0xF2FDE38B EQ PUSH2 0x3E0 JUMPI PUSH1 0x0 DUP1 REVERT JUMPDEST DUP1 PUSH4 0xCE325BF8 EQ PUSH2 0x32F JUMPI DUP1 PUSH4 0xD2D7231F EQ PUSH2 0x36C JUMPI DUP1 PUSH4 0xD46149A2 EQ PUSH2 0x37F JUMPI PUSH1 0x0 DUP1 REVERT JUMPDEST DUP1 PUSH4 0xBC854352 GT PUSH2 0xBD JUMPI DUP1 PUSH4 0xBC854352 EQ PUSH2 0x2F6 JUMPI DUP1 PUSH4 0xBECEED39 EQ PUSH2 0x309 JUMPI DUP1 PUSH4 0xC9EA62C1 EQ PUSH2 0x31C JUMPI PUSH1 0x0 DUP1 REVERT JUMPDEST DUP1 PUSH4 0xB109BEEC EQ PUSH2 0x2BF JUMPI DUP1 PUSH4 0xB5FA91FE EQ PUSH2 0x2E6 JUMPI DUP1 PUSH4 0xB6BAFFE3 EQ PUSH2 0x2EE JUMPI PUSH1 0x0 DUP1 REVERT JUMPDEST DUP1 PUSH4 0x7C2FDEB5 GT PUSH2 0x145 JUMPI DUP1 PUSH4 0x8F4729B7 GT PUSH2 0x11F JUMPI DUP1 PUSH4 0x8F4729B7 EQ PUSH2 0x29A JUMPI DUP1 PUSH4 0xAC00500F EQ PUSH2 0x2A3 JUMPI DUP1 PUSH4 0xAF7568DD EQ PUSH2 0x2B6 JUMPI PUSH1 0x0 DUP1 REVERT JUMPDEST DUP1 PUSH4 0x7C2FDEB5 EQ PUSH2 0x241 JUMPI DUP1 PUSH4 0x8DA5CB5B EQ PUSH2 0x267 JUMPI DUP1 PUSH4 0x8E12C0CD EQ PUSH2 0x278 JUMPI PUSH1 0x0 DUP1 REVERT JUMPDEST DUP1 PUSH4 0x6DB08F25 GT PUSH2 0x176 JUMPI DUP1 PUSH4 0x6DB08F25 EQ PUSH2 0x1D6 JUMPI DUP1 PUSH4 0x715018A6 EQ PUSH2 0x215 JUMPI DUP1 PUSH4 0x75F12B21 EQ PUSH2 0x21D JUMPI PUSH1 0x0 DUP1 REVERT JUMPDEST DUP1 PUSH4 0x7DA68F5 EQ PUSH2 0x19D JUMPI DUP1 PUSH4 0x109CF399 EQ PUSH2 0x1A7 JUMPI DUP1 PUSH4 0x379607F5 EQ PUSH2 0x1C3 JUMPI JUMPDEST PUSH1 0x0 DUP1 REVERT JUMPDEST PUSH2 0x1A5 PUSH2 0x3F3 JUMP JUMPDEST STOP JUMPDEST PUSH2 0x1B0 PUSH1 0x3 SLOAD DUP2 JUMP JUMPDEST PUSH1 0x40 MLOAD SWAP1 DUP2 MSTORE PUSH1 0x20 ADD JUMPDEST PUSH1 0x40 MLOAD DUP1 SWAP2 SUB SWAP1 RETURN JUMPDEST PUSH2 0x1B0 PUSH2 0x1D1 CALLDATASIZE PUSH1 0x4 PUSH2 0x1491 JUMP JUMPDEST PUSH2 0x452 JUMP JUMPDEST PUSH2 0x1FD PUSH32 0x0 DUP2 JUMP JUMPDEST PUSH1 0x40 MLOAD PUSH1 0x1 PUSH1 0x1 PUSH1 0xA0 SHL SUB SWAP1 SWAP2 AND DUP2 MSTORE PUSH1 0x20 ADD PUSH2 0x1BA JUMP JUMPDEST PUSH2 0x1A5 PUSH2 0x694 JUMP JUMPDEST PUSH1 0x0 SLOAD PUSH2 0x231 SWAP1 PUSH1 0x1 PUSH1 0xA0 SHL SWAP1 DIV PUSH1 0xFF AND DUP2 JUMP JUMPDEST PUSH1 0x40 MLOAD SWAP1 ISZERO ISZERO DUP2 MSTORE PUSH1 0x20 ADD PUSH2 0x1BA JUMP JUMPDEST PUSH32 0x0 PUSH2 0x1FD JUMP JUMPDEST PUSH1 0x0 SLOAD PUSH1 0x1 PUSH1 0x1 PUSH1 0xA0 SHL SUB AND PUSH2 0x1FD JUMP JUMPDEST PUSH2 0x282 PUSH3 0xED4E00 DUP2 JUMP JUMPDEST PUSH1 0x40 MLOAD PUSH1 0x1 PUSH1 0x1 PUSH1 0x60 SHL SUB SWAP1 SWAP2 AND DUP2 MSTORE PUSH1 0x20 ADD PUSH2 0x1BA JUMP JUMPDEST PUSH2 0x1B0 PUSH1 0x6 SLOAD DUP2 JUMP JUMPDEST PUSH2 0x1A5 PUSH2 0x2B1 CALLDATASIZE PUSH1 0x4 PUSH2 0x14AA JUMP JUMPDEST PUSH2 0x6A8 JUMP JUMPDEST PUSH2 0x1B0 PUSH1 0x1 SLOAD DUP2 JUMP JUMPDEST PUSH2 0x1FD PUSH32 0x0 DUP2 JUMP JUMPDEST PUSH2 0x1B0 PUSH2 0x8CE JUMP JUMPDEST PUSH2 0x1B0 PUSH2 0x8E4 JUMP JUMPDEST PUSH2 0x1A5 PUSH2 0x304 CALLDATASIZE PUSH1 0x4 PUSH2 0x14CC JUMP JUMPDEST PUSH2 0x903 JUMP JUMPDEST PUSH2 0x1A5 PUSH2 0x317 CALLDATASIZE PUSH1 0x4 PUSH2 0x1491 JUMP JUMPDEST PUSH2 0xB27 JUMP JUMPDEST PUSH2 0x1A5 PUSH2 0x32A CALLDATASIZE PUSH1 0x4 PUSH2 0x1543 JUMP JUMPDEST PUSH2 0xBF4 JUMP JUMPDEST PUSH2 0x342 PUSH2 0x33D CALLDATASIZE PUSH1 0x4 PUSH2 0x1491 JUMP JUMPDEST PUSH2 0xC0A JUMP JUMPDEST PUSH1 0x40 DUP1 MLOAD PUSH1 0x1 PUSH1 0x1 PUSH1 0xA0 SHL SUB SWAP1 SWAP6 AND DUP6 MSTORE PUSH1 0x20 DUP6 ADD SWAP4 SWAP1 SWAP4 MSTORE SWAP2 DUP4 ADD MSTORE PUSH1 0x60 DUP3 ADD MSTORE PUSH1 0x80 ADD PUSH2 0x1BA JUMP JUMPDEST PUSH2 0x1B0 PUSH2 0x37A CALLDATASIZE PUSH1 0x4 PUSH2 0x1491 JUMP JUMPDEST PUSH2 0xCAE JUMP JUMPDEST PUSH32 0x0 PUSH2 0x1FD JUMP JUMPDEST PUSH2 0x1A5 PUSH2 0x3B3 CALLDATASIZE PUSH1 0x4 PUSH2 0x158B JUMP JUMPDEST PUSH2 0xE25 JUMP JUMPDEST PUSH2 0x3CB PUSH2 0x3C6 CALLDATASIZE PUSH1 0x4 PUSH2 0x15B5 JUMP JUMPDEST PUSH2 0xFA4 JUMP JUMPDEST PUSH1 0x40 DUP1 MLOAD SWAP3 DUP4 MSTORE PUSH1 0x20 DUP4 ADD SWAP2 SWAP1 SWAP2 MSTORE ADD PUSH2 0x1BA JUMP JUMPDEST PUSH2 0x1A5 PUSH2 0x3EE CALLDATASIZE PUSH1 0x4 PUSH2 0x15DF JUMP JUMPDEST PUSH2 0x124F JUMP JUMPDEST PUSH2 0x3FB PUSH2 0x12A6 JUMP JUMPDEST PUSH1 0x0 DUP1 SLOAD PUSH32 0xFFFFFFFFFFFFFFFFFFFFFF00FFFFFFFFFFFFFFFFFFFFFFFFFFFFFFFFFFFFFFFF AND PUSH1 0x1 PUSH1 0xA0 SHL OR DUP2 SSTORE PUSH1 0x40 MLOAD PUSH32 0x7ACC84E34091AE817647A4C49116F5CC07F319078BA80F8F5FDE37EA7E25CBD6 SWAP2 SWAP1 LOG1 JUMP JUMPDEST PUSH1 0x0 DUP2 PUSH1 0x0 DUP2 GT DUP1 ISZERO PUSH2 0x466 JUMPI POP PUSH1 0x5 SLOAD DUP2 LT JUMPDEST PUSH2 0x4B7 JUMPI PUSH1 0x40 MLOAD PUSH3 0x461BCD PUSH1 0xE5 SHL DUP2 MSTORE PUSH1 0x20 PUSH1 0x4 DUP3 ADD MSTORE PUSH1 0x19 PUSH1 0x24 DUP3 ADD MSTORE PUSH32 0x4D6F64756C65583A496E76616C6964205374616B652049442100000000000000 PUSH1 0x44 DUP3 ADD MSTORE PUSH1 0x64 ADD JUMPDEST PUSH1 0x40 MLOAD DUP1 SWAP2 SUB SWAP1 REVERT JUMPDEST PUSH1 0x0 DUP4 DUP2 MSTORE PUSH1 0x4 PUSH1 0x20 MSTORE PUSH1 0x40 SWAP1 KECCAK256 DUP1 SLOAD PUSH1 0x1 PUSH1 0x1 PUSH1 0xA0 SHL SUB AND CALLER EQ PUSH2 0x51E JUMPI PUSH1 0x40 MLOAD PUSH3 0x461BCD PUSH1 0xE5 SHL DUP2 MSTORE PUSH1 0x20 PUSH1 0x4 DUP3 ADD MSTORE PUSH1 0x1F PUSH1 0x24 DUP3 ADD MSTORE PUSH32 0x4D6F64756C65583A43616C6C6572206973206E6F7420746865206F776E657200 PUSH1 0x44 DUP3 ADD MSTORE PUSH1 0x64 ADD PUSH2 0x4AE JUMP JUMPDEST DUP1 SLOAD PUSH1 0x1 PUSH1 0xA0 SHL SWAP1 DIV PUSH1 0x1 PUSH1 0x1 PUSH1 0x60 SHL SUB AND TIMESTAMP PUSH1 0x1 PUSH1 0x1 PUSH1 0x60 SHL SUB AND LT ISZERO PUSH2 0x5AE JUMPI PUSH1 0x40 MLOAD PUSH3 0x461BCD PUSH1 0xE5 SHL DUP2 MSTORE PUSH1 0x20 PUSH1 0x4 DUP3 ADD MSTORE PUSH1 0x2A PUSH1 0x24 DUP3 ADD MSTORE PUSH32 0x4D6F64756C65583A4561726C79205769746864726177616C206973206E6F7420 PUSH1 0x44 DUP3 ADD MSTORE PUSH32 0x7065726D69747465642100000000000000000000000000000000000000000000 PUSH1 0x64 DUP3 ADD MSTORE PUSH1 0x84 ADD PUSH2 0x4AE JUMP JUMPDEST PUSH1 0x0 DUP2 PUSH1 0x2 ADD SLOAD GT PUSH2 0x602 JUMPI PUSH1 0x40 MLOAD PUSH3 0x461BCD PUSH1 0xE5 SHL DUP2 MSTORE PUSH1 0x20 PUSH1 0x4 DUP3 ADD MSTORE PUSH1 0x18 PUSH1 0x24 DUP3 ADD MSTORE PUSH32 0x4D6F64756C65583A4E6F7468696E6720746F20636C61696D0000000000000000 PUSH1 0x44 DUP3 ADD MSTORE PUSH1 0x64 ADD PUSH2 0x4AE JUMP JUMPDEST PUSH1 0x2 DUP2 ADD SLOAD PUSH2 0x63B PUSH32 0x0 PUSH1 0x1 PUSH1 0x1 PUSH1 0xA0 SHL SUB AND CALLER DUP4 PUSH2 0x12EC JUMP JUMPDEST DUP1 PUSH1 0x6 PUSH1 0x0 DUP3 DUP3 SLOAD PUSH2 0x64D SWAP2 SWAP1 PUSH2 0x1617 JUMP JUMPDEST SWAP1 SWAP2 SSTORE POP POP PUSH1 0x0 PUSH1 0x2 DUP4 ADD SSTORE PUSH1 0x40 MLOAD DUP6 DUP2 MSTORE PUSH32 0x67BB155FCABB99400C32B640DC7704C8F18AAE4C817704C7267C5A8CD26DFC19 SWAP1 PUSH1 0x20 ADD PUSH1 0x40 MLOAD DUP1 SWAP2 SUB SWAP1 LOG1 SWAP5 SWAP4 POP POP POP POP JUMP JUMPDEST PUSH2 0x69C PUSH2 0x12A6 JUMP JUMPDEST PUSH2 0x6A6 PUSH1 0x0 PUSH2 0x1360 JUMP JUMPDEST JUMP JUMPDEST PUSH2 0x6B0 PUSH2 0x12A6 JUMP JUMPDEST DUP2 PUSH1 0x0 DUP2 GT DUP1 ISZERO PUSH2 0x6C2 JUMPI POP PUSH1 0x5 SLOAD DUP2 LT JUMPDEST PUSH2 0x70E JUMPI PUSH1 0x40 MLOAD PUSH3 0x461BCD PUSH1 0xE5 SHL DUP2 MSTORE PUSH1 0x20 PUSH1 0x4 DUP3 ADD MSTORE PUSH1 0x19 PUSH1 0x24 DUP3 ADD MSTORE PUSH32 0x4D6F64756C65583A496E76616C6964205374616B652049442100000000000000 PUSH1 0x44 DUP3 ADD MSTORE PUSH1 0x64 ADD PUSH2 0x4AE JUMP JUMPDEST PUSH1 0x0 DUP3 GT PUSH2 0x770 JUMPI PUSH1 0x40 MLOAD PUSH3 0x461BCD PUSH1 0xE5 SHL DUP2 MSTORE PUSH1 0x20 PUSH1 0x4 DUP3 ADD MSTORE PUSH1 0x29 PUSH1 0x24 DUP3 ADD MSTORE PUSH32 0x4D6F64756C65583A616D6F756E74206D75737420626520677265617465722074 PUSH1 0x44 DUP3 ADD MSTORE PUSH9 0x68616E207A65726F21 PUSH1 0xB8 SHL PUSH1 0x64 DUP3 ADD MSTORE PUSH1 0x84 ADD PUSH2 0x4AE JUMP JUMPDEST PUSH1 0x0 DUP4 DUP2 MSTORE PUSH1 0x4 PUSH1 0x20 MSTORE PUSH1 0x40 SWAP1 KECCAK256 DUP1 SLOAD PUSH1 0x1 PUSH1 0xA0 SHL SWAP1 DIV PUSH1 0x1 PUSH1 0x1 PUSH1 0x60 SHL SUB AND TIMESTAMP PUSH1 0x1 PUSH1 0x1 PUSH1 0x60 SHL SUB AND GT ISZERO PUSH2 0x7E8 JUMPI PUSH1 0x40 MLOAD PUSH3 0x461BCD PUSH1 0xE5 SHL DUP2 MSTORE PUSH1 0x20 PUSH1 0x4 DUP3 ADD MSTORE PUSH1 0x15 PUSH1 0x24 DUP3 ADD MSTORE PUSH32 0x4D6F64756C65583A4275726E7420746F6B656E73210000000000000000000000 PUSH1 0x44 DUP3 ADD MSTORE PUSH1 0x64 ADD PUSH2 0x4AE JUMP JUMPDEST DUP1 PUSH1 0x1 ADD SLOAD DUP4 GT ISZERO PUSH2 0x83C JUMPI PUSH1 0x40 MLOAD PUSH3 0x461BCD PUSH1 0xE5 SHL DUP2 MSTORE PUSH1 0x20 PUSH1 0x4 DUP3 ADD MSTORE PUSH1 0x1D PUSH1 0x24 DUP3 ADD MSTORE PUSH32 0x4D6F64756C65583A496E73756666696369656E742062616C616E636521000000 PUSH1 0x44 DUP3 ADD MSTORE PUSH1 0x64 ADD PUSH2 0x4AE JUMP JUMPDEST PUSH2 0x876 CALLER PUSH1 0x1 DUP4 ADD SLOAD PUSH1 0x1 PUSH1 0x1 PUSH1 0xA0 SHL SUB PUSH32 0x0 AND SWAP2 SWAP1 PUSH2 0x12EC JUMP JUMPDEST DUP3 DUP2 PUSH1 0x1 ADD PUSH1 0x0 DUP3 DUP3 SLOAD PUSH2 0x88A SWAP2 SWAP1 PUSH2 0x1617 JUMP JUMPDEST SWAP1 SWAP2 SSTORE POP POP PUSH1 0x40 DUP1 MLOAD DUP6 DUP2 MSTORE PUSH1 0x20 DUP2 ADD DUP6 SWAP1 MSTORE PUSH32 0x3A00E6132085CBC9EA18899CD135EF9CAD5D305D58506E08E7B1A9B96199A9C SWAP2 ADD PUSH1 0x40 MLOAD DUP1 SWAP2 SUB SWAP1 LOG1 POP POP POP POP JUMP JUMPDEST PUSH1 0x0 PUSH1 0x1 PUSH1 0x5 SLOAD PUSH2 0x8DF SWAP2 SWAP1 PUSH2 0x1617 JUMP JUMPDEST SWAP1 POP SWAP1 JUMP JUMPDEST PUSH1 0x0 PUSH1 0x2 SLOAD PUSH1 0x3 SLOAD PUSH1 0x1 SLOAD PUSH2 0x8F9 SWAP2 SWAP1 PUSH2 0x1630 JUMP JUMPDEST PUSH2 0x8DF SWAP2 SWAP1 PUSH2 0x1652 JUMP JUMPDEST PUSH2 0x90B PUSH2 0x12A6 JUMP JUMPDEST PUSH1 0x0 DUP1 JUMPDEST DUP3 DUP2 LT ISZERO PUSH2 0xA9D JUMPI PUSH1 0x5 SLOAD DUP5 DUP5 DUP4 DUP2 DUP2 LT PUSH2 0x92C JUMPI PUSH2 0x92C PUSH2 0x1665 JUMP JUMPDEST SWAP1 POP PUSH1 0x20 MUL ADD CALLDATALOAD LT PUSH2 0x980 JUMPI PUSH1 0x40 MLOAD PUSH3 0x461BCD PUSH1 0xE5 SHL DUP2 MSTORE PUSH1 0x20 PUSH1 0x4 DUP3 ADD MSTORE PUSH1 0x19 PUSH1 0x24 DUP3 ADD MSTORE PUSH32 0x4D6F64756C65583A496E76616C6964205374616B652049442100000000000000 PUSH1 0x44 DUP3 ADD MSTORE PUSH1 0x64 ADD PUSH2 0x4AE JUMP JUMPDEST PUSH1 0x0 PUSH1 0x4 PUSH1 0x0 DUP7 DUP7 DUP6 DUP2 DUP2 LT PUSH2 0x998 JUMPI PUSH2 0x998 PUSH2 0x1665 JUMP JUMPDEST PUSH1 0x20 SWAP1 DUP2 MUL SWAP3 SWAP1 SWAP3 ADD CALLDATALOAD DUP4 MSTORE POP DUP2 ADD SWAP2 SWAP1 SWAP2 MSTORE PUSH1 0x40 ADD PUSH1 0x0 KECCAK256 DUP1 SLOAD SWAP1 SWAP2 POP PUSH1 0x1 PUSH1 0xA0 SHL SWAP1 DIV PUSH1 0x1 PUSH1 0x1 PUSH1 0x60 SHL SUB AND TIMESTAMP PUSH1 0x1 PUSH1 0x1 PUSH1 0x60 SHL SUB AND GT ISZERO PUSH2 0xA1E JUMPI PUSH1 0x40 MLOAD PUSH3 0x461BCD PUSH1 0xE5 SHL DUP2 MSTORE PUSH1 0x20 PUSH1 0x4 DUP3 ADD MSTORE PUSH1 0x15 PUSH1 0x24 DUP3 ADD MSTORE PUSH32 0x4D6F64756C65583A4275726E7420746F6B656E73210000000000000000000000 PUSH1 0x44 DUP3 ADD MSTORE PUSH1 0x64 ADD PUSH2 0x4AE JUMP JUMPDEST PUSH1 0x1 DUP2 ADD SLOAD PUSH2 0xA2D SWAP1 DUP5 PUSH2 0x1652 JUMP JUMPDEST PUSH1 0x0 PUSH1 0x1 DUP4 ADD SSTORE SWAP3 POP PUSH32 0x3A00E6132085CBC9EA18899CD135EF9CAD5D305D58506E08E7B1A9B96199A9C DUP6 DUP6 DUP5 DUP2 DUP2 LT PUSH2 0xA69 JUMPI PUSH2 0xA69 PUSH2 0x1665 JUMP JUMPDEST SWAP1 POP PUSH1 0x20 MUL ADD CALLDATALOAD DUP3 PUSH1 0x1 ADD SLOAD PUSH1 0x40 MLOAD PUSH2 0xA8C SWAP3 SWAP2 SWAP1 SWAP2 DUP3 MSTORE PUSH1 0x20 DUP3 ADD MSTORE PUSH1 0x40 ADD SWAP1 JUMP JUMPDEST PUSH1 0x40 MLOAD DUP1 SWAP2 SUB SWAP1 LOG1 POP PUSH1 0x1 ADD PUSH2 0x90F JUMP JUMPDEST POP PUSH1 0x0 DUP2 GT PUSH2 0xAEE JUMPI PUSH1 0x40 MLOAD PUSH3 0x461BCD PUSH1 0xE5 SHL DUP2 MSTORE PUSH1 0x20 PUSH1 0x4 DUP3 ADD MSTORE PUSH1 0x1A PUSH1 0x24 DUP3 ADD MSTORE PUSH32 0x4D6F64756C65583A546F74616C20616D6F756E74206973203021000000000000 PUSH1 0x44 DUP3 ADD MSTORE PUSH1 0x64 ADD PUSH2 0x4AE JUMP JUMPDEST PUSH2 0xB22 PUSH32 0x0 PUSH1 0x1 PUSH1 0x1 PUSH1 0xA0 SHL SUB AND CALLER DUP4 PUSH2 0x12EC JUMP JUMPDEST POP POP POP JUMP JUMPDEST PUSH1 0x0 DUP2 GT PUSH2 0xB89 JUMPI PUSH1 0x40 MLOAD PUSH3 0x461BCD PUSH1 0xE5 SHL DUP2 MSTORE PUSH1 0x20 PUSH1 0x4 DUP3 ADD MSTORE PUSH1 0x29 PUSH1 0x24 DUP3 ADD MSTORE PUSH32 0x4D6F64756C65583A616D6F756E74206D75737420626520677265617465722074 PUSH1 0x44 DUP3 ADD MSTORE PUSH9 0x68616E207A65726F21 PUSH1 0xB8 SHL PUSH1 0x64 DUP3 ADD MSTORE PUSH1 0x84 ADD PUSH2 0x4AE JUMP JUMPDEST PUSH2 0xBBE PUSH32 0x0 PUSH1 0x1 PUSH1 0x1 PUSH1 0xA0 SHL SUB AND CALLER ADDRESS DUP5 PUSH2 0x13C8 JUMP JUMPDEST PUSH1 0x40 MLOAD DUP2 DUP2 MSTORE PUSH32 0xDE88A922E0D3B88B24E9623EFEB464919C6BF9F66857A65E2BFCF2CE87A9433D SWAP1 PUSH1 0x20 ADD PUSH1 0x40 MLOAD DUP1 SWAP2 SUB SWAP1 LOG1 POP JUMP JUMPDEST PUSH2 0xBFC PUSH2 0x12A6 JUMP JUMPDEST PUSH1 0x2 SWAP3 SWAP1 SWAP3 SSTORE PUSH1 0x3 SSTORE PUSH1 0x1 SSTORE JUMP JUMPDEST PUSH1 0x0 DUP1 PUSH1 0x0 DUP1 DUP5 PUSH1 0x0 DUP2 GT DUP1 ISZERO PUSH2 0xC22 JUMPI POP PUSH1 0x5 SLOAD DUP2 LT JUMPDEST PUSH2 0xC6E JUMPI PUSH1 0x40 MLOAD PUSH3 0x461BCD PUSH1 0xE5 SHL DUP2 MSTORE PUSH1 0x20 PUSH1 0x4 DUP3 ADD MSTORE PUSH1 0x19 PUSH1 0x24 DUP3 ADD MSTORE PUSH32 0x4D6F64756C65583A496E76616C6964205374616B652049442100000000000000 PUSH1 0x44 DUP3 ADD MSTORE PUSH1 0x64 ADD PUSH2 0x4AE JUMP JUMPDEST POP POP POP PUSH1 0x0 SWAP3 DUP4 MSTORE POP POP PUSH1 0x4 PUSH1 0x20 MSTORE PUSH1 0x40 SWAP1 KECCAK256 DUP1 SLOAD PUSH1 0x1 DUP3 ADD SLOAD PUSH1 0x2 SWAP1 SWAP3 ADD SLOAD PUSH1 0x1 PUSH1 0x1 PUSH1 0xA0 SHL SUB DUP3 AND SWAP4 PUSH1 0x1 PUSH1 0xA0 SHL SWAP1 SWAP3 DIV PUSH1 0x1 PUSH1 0x1 PUSH1 0x60 SHL SUB AND SWAP3 SWAP2 JUMP JUMPDEST PUSH1 0x0 DUP1 PUSH8 0xDE0B6B3A7640000 SWAP1 POP PUSH1 0x0 DUP4 PUSH1 0x1 SLOAD PUSH2 0xCCC SWAP2 SWAP1 PUSH2 0x1652 JUMP JUMPDEST SWAP1 POP PUSH1 0x0 PUSH1 0x3 SLOAD PUSH1 0x1 SLOAD PUSH2 0xCE0 SWAP2 SWAP1 PUSH2 0x1630 JUMP JUMPDEST SWAP1 POP PUSH1 0x0 PUSH1 0x3 SLOAD DUP4 PUSH2 0xCF2 SWAP2 SWAP1 PUSH2 0x1630 JUMP JUMPDEST SWAP1 POP DUP1 DUP3 SUB PUSH2 0xD1C JUMPI PUSH1 0x2 SLOAD PUSH2 0xD08 SWAP1 DUP4 PUSH2 0x1652 JUMP JUMPDEST PUSH2 0xD12 SWAP1 DUP8 PUSH2 0x1630 JUMP JUMPDEST SWAP7 SWAP6 POP POP POP POP POP POP JUMP JUMPDEST PUSH1 0x0 PUSH1 0x2 SLOAD DUP4 PUSH2 0xD2C SWAP2 SWAP1 PUSH2 0x1652 JUMP JUMPDEST PUSH1 0x1 SLOAD PUSH1 0x3 SLOAD DUP6 PUSH1 0x1 PUSH2 0xD3F SWAP2 SWAP1 PUSH2 0x1652 JUMP JUMPDEST PUSH2 0xD49 SWAP2 SWAP1 PUSH2 0x167B JUMP JUMPDEST PUSH2 0xD53 SWAP2 SWAP1 PUSH2 0x1617 JUMP JUMPDEST PUSH2 0xD5D SWAP1 DUP8 PUSH2 0x167B JUMP JUMPDEST PUSH2 0xD67 SWAP2 SWAP1 PUSH2 0x1630 JUMP JUMPDEST SWAP1 POP PUSH1 0x0 PUSH1 0x2 SLOAD DUP4 PUSH2 0xD79 SWAP2 SWAP1 PUSH2 0x1652 JUMP JUMPDEST PUSH1 0x3 SLOAD PUSH2 0xD86 SWAP1 DUP6 PUSH2 0x167B JUMP JUMPDEST PUSH2 0xD90 SWAP1 DUP8 PUSH2 0x1617 JUMP JUMPDEST PUSH2 0xD9A SWAP1 DUP9 PUSH2 0x167B JUMP JUMPDEST PUSH2 0xDA4 SWAP2 SWAP1 PUSH2 0x1630 JUMP JUMPDEST SWAP1 POP PUSH1 0x0 DUP1 PUSH2 0xDB4 DUP7 PUSH1 0x1 PUSH2 0x1652 JUMP JUMPDEST SWAP1 POP JUMPDEST DUP5 DUP2 LT ISZERO PUSH2 0xDF7 JUMPI PUSH1 0x2 SLOAD PUSH2 0xDCC SWAP1 DUP3 PUSH2 0x1652 JUMP JUMPDEST PUSH1 0x3 SLOAD PUSH2 0xDD9 SWAP1 DUP11 PUSH2 0x167B JUMP JUMPDEST PUSH2 0xDE3 SWAP2 SWAP1 PUSH2 0x1630 JUMP JUMPDEST PUSH2 0xDED SWAP1 DUP4 PUSH2 0x1652 JUMP JUMPDEST SWAP2 POP PUSH1 0x1 ADD PUSH2 0xDB7 JUMP JUMPDEST POP DUP7 DUP3 PUSH2 0xE04 DUP4 DUP7 PUSH2 0x1652 JUMP JUMPDEST PUSH2 0xE0E SWAP2 SWAP1 PUSH2 0x1652 JUMP JUMPDEST PUSH2 0xE18 SWAP2 SWAP1 PUSH2 0x1630 JUMP JUMPDEST SWAP10 SWAP9 POP POP POP POP POP POP POP POP POP JUMP JUMPDEST PUSH2 0xE2D PUSH2 0x12A6 JUMP JUMPDEST PUSH1 0x6 SLOAD PUSH2 0xE3A SWAP1 DUP3 PUSH2 0x1652 JUMP JUMPDEST PUSH1 0x40 MLOAD PUSH32 0x70A0823100000000000000000000000000000000000000000000000000000000 DUP2 MSTORE ADDRESS PUSH1 0x4 DUP3 ADD MSTORE PUSH32 0x0 PUSH1 0x1 PUSH1 0x1 PUSH1 0xA0 SHL SUB AND SWAP1 PUSH4 0x70A08231 SWAP1 PUSH1 0x24 ADD PUSH1 0x20 PUSH1 0x40 MLOAD DUP1 DUP4 SUB DUP2 DUP7 GAS STATICCALL ISZERO DUP1 ISZERO PUSH2 0xEB7 JUMPI RETURNDATASIZE PUSH1 0x0 DUP1 RETURNDATACOPY RETURNDATASIZE PUSH1 0x0 REVERT JUMPDEST POP POP POP POP PUSH1 0x40 MLOAD RETURNDATASIZE PUSH1 0x1F NOT PUSH1 0x1F DUP3 ADD AND DUP3 ADD DUP1 PUSH1 0x40 MSTORE POP DUP2 ADD SWAP1 PUSH2 0xEDB SWAP2 SWAP1 PUSH2 0x1692 JUMP JUMPDEST LT ISZERO PUSH2 0xF29 JUMPI PUSH1 0x40 MLOAD PUSH3 0x461BCD PUSH1 0xE5 SHL DUP2 MSTORE PUSH1 0x20 PUSH1 0x4 DUP3 ADD MSTORE PUSH1 0x1D PUSH1 0x24 DUP3 ADD MSTORE PUSH32 0x4D6F64756C65583A496E73756666696369656E742062616C616E636521000000 PUSH1 0x44 DUP3 ADD MSTORE PUSH1 0x64 ADD PUSH2 0x4AE JUMP JUMPDEST PUSH2 0xF5D PUSH1 0x1 PUSH1 0x1 PUSH1 0xA0 SHL SUB PUSH32 0x0 AND DUP4 DUP4 PUSH2 0x12EC JUMP JUMPDEST DUP2 PUSH1 0x1 PUSH1 0x1 PUSH1 0xA0 SHL SUB AND PUSH32 0x1D3EEE4CA001CFF39EEC6EC7615AACF2F2BD61791273830728BA00CCBD6E1337 DUP3 PUSH1 0x40 MLOAD PUSH2 0xF98 SWAP2 DUP2 MSTORE PUSH1 0x20 ADD SWAP1 JUMP JUMPDEST PUSH1 0x40 MLOAD DUP1 SWAP2 SUB SWAP1 LOG2 POP POP JUMP JUMPDEST PUSH1 0x0 DUP1 SLOAD DUP2 SWAP1 PUSH1 0x1 PUSH1 0xA0 SHL SWAP1 DIV PUSH1 0xFF AND ISZERO PUSH2 0x1001 JUMPI PUSH1 0x40 MLOAD PUSH3 0x461BCD PUSH1 0xE5 SHL DUP2 MSTORE PUSH1 0x20 PUSH1 0x4 DUP3 ADD MSTORE PUSH1 0x10 PUSH1 0x24 DUP3 ADD MSTORE PUSH32 0x4D6F64756C65583A53544F505045442100000000000000000000000000000000 PUSH1 0x44 DUP3 ADD MSTORE PUSH1 0x64 ADD PUSH2 0x4AE JUMP JUMPDEST PUSH1 0x0 DUP4 GT PUSH2 0x1077 JUMPI PUSH1 0x40 MLOAD PUSH3 0x461BCD PUSH1 0xE5 SHL DUP2 MSTORE PUSH1 0x20 PUSH1 0x4 DUP3 ADD MSTORE PUSH1 0x2C PUSH1 0x24 DUP3 ADD MSTORE PUSH32 0x4D6F64756C65583A5374616B6520616D6F756E74206D75737420626520677265 PUSH1 0x44 DUP3 ADD MSTORE PUSH32 0x61746572207468616E2030210000000000000000000000000000000000000000 PUSH1 0x64 DUP3 ADD MSTORE PUSH1 0x84 ADD PUSH2 0x4AE JUMP JUMPDEST PUSH3 0xED4E00 PUSH1 0x1 PUSH1 0x1 PUSH1 0x60 SHL SUB DUP6 AND LT ISZERO PUSH2 0x10D3 JUMPI PUSH1 0x40 MLOAD PUSH3 0x461BCD PUSH1 0xE5 SHL DUP2 MSTORE PUSH1 0x20 PUSH1 0x4 DUP3 ADD MSTORE PUSH1 0x1F PUSH1 0x24 DUP3 ADD MSTORE PUSH32 0x4D6F64756C65583A557365206C6F6E676572206C6F636B5F706572696F642100 PUSH1 0x44 DUP3 ADD MSTORE PUSH1 0x64 ADD PUSH2 0x4AE JUMP JUMPDEST PUSH2 0x1108 PUSH32 0x0 PUSH1 0x1 PUSH1 0x1 PUSH1 0xA0 SHL SUB AND CALLER ADDRESS DUP7 PUSH2 0x13C8 JUMP JUMPDEST PUSH1 0x0 PUSH2 0x1114 DUP6 TIMESTAMP PUSH2 0x16AB JUMP JUMPDEST SWAP1 POP PUSH1 0x0 PUSH2 0x1121 DUP6 PUSH2 0xCAE JUMP JUMPDEST SWAP1 POP PUSH1 0x0 PUSH1 0x5 SLOAD SWAP1 POP PUSH1 0x40 MLOAD DUP1 PUSH1 0x80 ADD PUSH1 0x40 MSTORE DUP1 PUSH2 0x113C CALLER SWAP1 JUMP JUMPDEST PUSH1 0x1 PUSH1 0x1 PUSH1 0xA0 SHL SUB SWAP1 DUP2 AND DUP3 MSTORE PUSH1 0x1 PUSH1 0x1 PUSH1 0x60 SHL SUB DUP1 DUP8 AND PUSH1 0x20 DUP1 DUP6 ADD SWAP2 SWAP1 SWAP2 MSTORE PUSH1 0x40 DUP1 DUP6 ADD DUP13 SWAP1 MSTORE PUSH1 0x60 SWAP5 DUP6 ADD DUP9 SWAP1 MSTORE PUSH1 0x0 DUP8 DUP2 MSTORE PUSH1 0x4 DUP4 MSTORE DUP2 DUP2 KECCAK256 DUP8 MLOAD SWAP4 DUP9 ADD MLOAD SWAP1 SWAP5 AND PUSH1 0x1 PUSH1 0xA0 SHL MUL SWAP3 SWAP1 SWAP5 AND SWAP2 SWAP1 SWAP2 OR DUP3 SSTORE DUP5 ADD MLOAD PUSH1 0x1 DUP1 DUP4 ADD SWAP2 SWAP1 SWAP2 SSTORE SWAP4 SWAP1 SWAP3 ADD MLOAD PUSH1 0x2 SWAP1 SWAP3 ADD SWAP2 SWAP1 SWAP2 SSTORE DUP2 SLOAD DUP9 SWAP3 SWAP2 SWAP1 PUSH2 0x11BD SWAP1 DUP5 SWAP1 PUSH2 0x1652 JUMP JUMPDEST SWAP3 POP POP DUP2 SWAP1 SSTORE POP DUP2 PUSH1 0x6 PUSH1 0x0 DUP3 DUP3 SLOAD PUSH2 0x11D6 SWAP2 SWAP1 PUSH2 0x1652 JUMP JUMPDEST SWAP1 SWAP2 SSTORE POP POP PUSH1 0x40 DUP1 MLOAD DUP3 DUP2 MSTORE PUSH1 0x1 PUSH1 0x1 PUSH1 0x60 SHL SUB DUP6 AND PUSH1 0x20 DUP3 ADD MSTORE DUP1 DUP3 ADD DUP9 SWAP1 MSTORE PUSH1 0x60 DUP2 ADD DUP5 SWAP1 MSTORE SWAP1 MLOAD CALLER SWAP2 PUSH32 0x24FE2D25C10EB2C67B5AC1E3EDBCADC94191E154ED388AD667A9480C44F47146 SWAP2 SWAP1 DUP2 SWAP1 SUB PUSH1 0x80 ADD SWAP1 LOG2 PUSH1 0x5 DUP1 SLOAD SWAP1 PUSH1 0x0 PUSH2 0x123D DUP4 PUSH2 0x16CA JUMP JUMPDEST SWAP1 SWAP2 SSTORE POP SWAP1 SWAP8 SWAP2 SWAP7 POP SWAP1 SWAP5 POP POP POP POP POP JUMP JUMPDEST PUSH2 0x1257 PUSH2 0x12A6 JUMP JUMPDEST PUSH1 0x1 PUSH1 0x1 PUSH1 0xA0 SHL SUB DUP2 AND PUSH2 0x129A JUMPI PUSH1 0x40 MLOAD PUSH32 0x1E4FBDF700000000000000000000000000000000000000000000000000000000 DUP2 MSTORE PUSH1 0x0 PUSH1 0x4 DUP3 ADD MSTORE PUSH1 0x24 ADD PUSH2 0x4AE JUMP JUMPDEST PUSH2 0x12A3 DUP2 PUSH2 0x1360 JUMP JUMPDEST POP JUMP JUMPDEST PUSH1 0x0 SLOAD PUSH1 0x1 PUSH1 0x1 PUSH1 0xA0 SHL SUB AND CALLER EQ PUSH2 0x6A6 JUMPI PUSH1 0x40 MLOAD PUSH32 0x118CDAA700000000000000000000000000000000000000000000000000000000 DUP2 MSTORE CALLER PUSH1 0x4 DUP3 ADD MSTORE PUSH1 0x24 ADD PUSH2 0x4AE JUMP JUMPDEST PUSH1 0x40 MLOAD PUSH1 0x1 PUSH1 0x1 PUSH1 0xA0 SHL SUB DUP4 DUP2 AND PUSH1 0x24 DUP4 ADD MSTORE PUSH1 0x44 DUP3 ADD DUP4 SWAP1 MSTORE PUSH2 0xB22 SWAP2 DUP6 SWAP2 DUP3 AND SWAP1 PUSH4 0xA9059CBB SWAP1 PUSH1 0x64 ADD JUMPDEST PUSH1 0x40 MLOAD PUSH1 0x20 DUP2 DUP4 SUB SUB DUP2 MSTORE SWAP1 PUSH1 0x40 MSTORE SWAP2 POP PUSH1 0xE0 SHL PUSH1 0x20 DUP3 ADD DUP1 MLOAD PUSH28 0xFFFFFFFFFFFFFFFFFFFFFFFFFFFFFFFFFFFFFFFFFFFFFFFFFFFFFFFF DUP4 DUP2 DUP4 AND OR DUP4 MSTORE POP POP POP POP PUSH2 0x1407 JUMP JUMPDEST PUSH1 0x0 DUP1 SLOAD PUSH1 0x1 PUSH1 0x1 PUSH1 0xA0 SHL SUB DUP4 DUP2 AND PUSH32 0xFFFFFFFFFFFFFFFFFFFFFFFF0000000000000000000000000000000000000000 DUP4 AND DUP2 OR DUP5 SSTORE PUSH1 0x40 MLOAD SWAP2 SWAP1 SWAP3 AND SWAP3 DUP4 SWAP2 PUSH32 0x8BE0079C531659141344CD1FD0A4F28419497F9722A3DAAFE3B4186F6B6457E0 SWAP2 SWAP1 LOG3 POP POP JUMP JUMPDEST PUSH1 0x40 MLOAD PUSH1 0x1 PUSH1 0x1 PUSH1 0xA0 SHL SUB DUP5 DUP2 AND PUSH1 0x24 DUP4 ADD MSTORE DUP4 DUP2 AND PUSH1 0x44 DUP4 ADD MSTORE PUSH1 0x64 DUP3 ADD DUP4 SWAP1 MSTORE PUSH2 0x1401 SWAP2 DUP7 SWAP2 DUP3 AND SWAP1 PUSH4 0x23B872DD SWAP1 PUSH1 0x84 ADD PUSH2 0x1319 JUMP JUMPDEST POP POP POP POP JUMP JUMPDEST PUSH1 0x0 DUP1 PUSH1 0x20 PUSH1 0x0 DUP5 MLOAD PUSH1 0x20 DUP7 ADD PUSH1 0x0 DUP9 GAS CALL DUP1 PUSH2 0x142A JUMPI PUSH1 0x40 MLOAD RETURNDATASIZE PUSH1 0x0 DUP3 RETURNDATACOPY RETURNDATASIZE DUP2 REVERT JUMPDEST POP POP PUSH1 0x0 MLOAD RETURNDATASIZE SWAP2 POP DUP2 ISZERO PUSH2 0x1442 JUMPI DUP1 PUSH1 0x1 EQ ISZERO PUSH2 0x144F JUMP JUMPDEST PUSH1 0x1 PUSH1 0x1 PUSH1 0xA0 SHL SUB DUP5 AND EXTCODESIZE ISZERO JUMPDEST ISZERO PUSH2 0x1401 JUMPI PUSH1 0x40 MLOAD PUSH32 0x5274AFE700000000000000000000000000000000000000000000000000000000 DUP2 MSTORE PUSH1 0x1 PUSH1 0x1 PUSH1 0xA0 SHL SUB DUP6 AND PUSH1 0x4 DUP3 ADD MSTORE PUSH1 0x24 ADD PUSH2 0x4AE JUMP JUMPDEST PUSH1 0x0 PUSH1 0x20 DUP3 DUP5 SUB SLT ISZERO PUSH2 0x14A3 JUMPI PUSH1 0x0 DUP1 REVERT JUMPDEST POP CALLDATALOAD SWAP2 SWAP1 POP JUMP JUMPDEST PUSH1 0x0 DUP1 PUSH1 0x40 DUP4 DUP6 SUB SLT ISZERO PUSH2 0x14BD JUMPI PUSH1 0x0 DUP1 REVERT JUMPDEST POP POP DUP1 CALLDATALOAD SWAP3 PUSH1 0x20 SWAP1 SWAP2 ADD CALLDATALOAD SWAP2 POP JUMP JUMPDEST PUSH1 0x0 DUP1 PUSH1 0x20 DUP4 DUP6 SUB SLT ISZERO PUSH2 0x14DF JUMPI PUSH1 0x0 DUP1 REVERT JUMPDEST DUP3 CALLDATALOAD PUSH8 0xFFFFFFFFFFFFFFFF DUP2 GT ISZERO PUSH2 0x14F6 JUMPI PUSH1 0x0 DUP1 REVERT JUMPDEST DUP4 ADD PUSH1 0x1F DUP2 ADD DUP6 SGT PUSH2 0x1507 JUMPI PUSH1 0x0 DUP1 REVERT JUMPDEST DUP1 CALLDATALOAD PUSH8 0xFFFFFFFFFFFFFFFF DUP2 GT ISZERO PUSH2 0x151E JUMPI PUSH1 0x0 DUP1 REVERT JUMPDEST DUP6 PUSH1 0x20 DUP3 PUSH1 0x5 SHL DUP5 ADD ADD GT ISZERO PUSH2 0x1533 JUMPI PUSH1 0x0 DUP1 REVERT JUMPDEST PUSH1 0x20 SWAP2 SWAP1 SWAP2 ADD SWAP6 SWAP1 SWAP5 POP SWAP3 POP POP POP JUMP JUMPDEST PUSH1 0x0 DUP1 PUSH1 0x0 PUSH1 0x60 DUP5 DUP7 SUB SLT ISZERO PUSH2 0x1558 JUMPI PUSH1 0x0 DUP1 REVERT JUMPDEST POP POP DUP2 CALLDATALOAD SWAP4 PUSH1 0x20 DUP4 ADD CALLDATALOAD SWAP4 POP PUSH1 0x40 SWAP1 SWAP3 ADD CALLDATALOAD SWAP2 SWAP1 POP JUMP JUMPDEST DUP1 CALLDATALOAD PUSH1 0x1 PUSH1 0x1 PUSH1 0xA0 SHL SUB DUP2 AND DUP2 EQ PUSH2 0x1586 JUMPI PUSH1 0x0 DUP1 REVERT JUMPDEST SWAP2 SWAP1 POP JUMP JUMPDEST PUSH1 0x0 DUP1 PUSH1 0x40 DUP4 DUP6 SUB SLT ISZERO PUSH2 0x159E JUMPI PUSH1 0x0 DUP1 REVERT JUMPDEST PUSH2 0x15A7 DUP4 PUSH2 0x156F JUMP JUMPDEST SWAP5 PUSH1 0x20 SWAP4 SWAP1 SWAP4 ADD CALLDATALOAD SWAP4 POP POP POP JUMP JUMPDEST PUSH1 0x0 DUP1 PUSH1 0x40 DUP4 DUP6 SUB SLT ISZERO PUSH2 0x15C8 JUMPI PUSH1 0x0 DUP1 REVERT JUMPDEST DUP3 CALLDATALOAD PUSH1 0x1 PUSH1 0x1 PUSH1 0x60 SHL SUB DUP2 AND DUP2 EQ PUSH2 0x15A7 JUMPI PUSH1 0x0 DUP1 REVERT JUMPDEST PUSH1 0x0 PUSH1 0x20 DUP3 DUP5 SUB SLT ISZERO PUSH2 0x15F1 JUMPI PUSH1 0x0 DUP1 REVERT JUMPDEST PUSH2 0x15FA DUP3 PUSH2 0x156F JUMP JUMPDEST SWAP4 SWAP3 POP POP POP JUMP JUMPDEST PUSH4 0x4E487B71 PUSH1 0xE0 SHL PUSH1 0x0 MSTORE PUSH1 0x11 PUSH1 0x4 MSTORE PUSH1 0x24 PUSH1 0x0 REVERT JUMPDEST DUP2 DUP2 SUB DUP2 DUP2 GT ISZERO PUSH2 0x162A JUMPI PUSH2 0x162A PUSH2 0x1601 JUMP JUMPDEST SWAP3 SWAP2 POP POP JUMP JUMPDEST PUSH1 0x0 DUP3 PUSH2 0x164D JUMPI PUSH4 0x4E487B71 PUSH1 0xE0 SHL PUSH1 0x0 MSTORE PUSH1 0x12 PUSH1 0x4 MSTORE PUSH1 0x24 PUSH1 0x0 REVERT JUMPDEST POP DIV SWAP1 JUMP JUMPDEST DUP1 DUP3 ADD DUP1 DUP3 GT ISZERO PUSH2 0x162A JUMPI PUSH2 0x162A PUSH2 0x1601 JUMP JUMPDEST PUSH4 0x4E487B71 PUSH1 0xE0 SHL PUSH1 0x0 MSTORE PUSH1 0x32 PUSH1 0x4 MSTORE PUSH1 0x24 PUSH1 0x0 REVERT JUMPDEST DUP1 DUP3 MUL DUP2 ISZERO DUP3 DUP3 DIV DUP5 EQ OR PUSH2 0x162A JUMPI PUSH2 0x162A PUSH2 0x1601 JUMP JUMPDEST PUSH1 0x0 PUSH1 0x20 DUP3 DUP5 SUB SLT ISZERO PUSH2 0x16A4 JUMPI PUSH1 0x0 DUP1 REVERT JUMPDEST POP MLOAD SWAP2 SWAP1 POP JUMP JUMPDEST PUSH1 0x1 PUSH1 0x1 PUSH1 0x60 SHL SUB DUP2 DUP2 AND DUP4 DUP3 AND ADD SWAP1 DUP2 GT ISZERO PUSH2 0x162A JUMPI PUSH2 0x162A PUSH2 0x1601 JUMP JUMPDEST PUSH1 0x0 PUSH1 0x1 DUP3 ADD PUSH2 0x16DC JUMPI PUSH2 0x16DC PUSH2 0x1601 JUMP JUMPDEST POP PUSH1 0x1 ADD SWAP1 JUMP INVALID LOG2 PUSH5 0x6970667358 0x22 SLT KECCAK256 0xB0 DUP5 0xA7 RETURN PUSH12 0x3D23381CFFCDCC5078B9DAE0 EXTCODECOPY 0xC6 SWAP16 0xCF 0x4C POP PUSH9 0xCBE556F82FEA0E1A64 PUSH20 0x6F6C634300081E00330000000000000000000000 "
		},
		"gasEstimates": {
			"creation": {
				"codeDepositCost": "1182600",
				"executionCost": "infinite",
				"totalCost": "infinite"
			},
			"external": {
				"CREDI()": "infinite",
				"DIFFICULTY_INTERVAL()": "2353",
				"MATURITY()": "306",
				"addRewards(uint256)": "infinite",
				"batchWithdrawCREDI(uint256[])": "infinite",
				"calculateReward(uint256)": "infinite",
				"claim(uint256)": "infinite",
				"getCREDIAddress()": "infinite",
				"getDifficulty()": "6735",
				"getStake(uint256)": "9041",
				"getStakesCount()": "2450",
				"getxCREDIAddress()": "infinite",
				"owner()": "2399",
				"pending_payments()": "2329",
				"renounceOwnership()": "infinite",
				"setDifficulty(uint256,uint256,uint256)": "68838",
				"stake(uint96,uint256)": "infinite",
				"stop()": "27347",
				"stopped()": "2417",
				"total_staked()": "2373",
				"transferOwnership(address)": "28406",
				"withdrawCREDI(uint256,uint256)": "infinite",
				"withdrawRewards(address,uint256)": "infinite",
				"xCREDI()": "infinite"
			},
			"internal": {
				"time_now()": "infinite"
			}
		},
		"methodIdentifiers": {
			"CREDI()": "6db08f25",
			"DIFFICULTY_INTERVAL()": "109cf399",
			"MATURITY()": "8e12c0cd",
			"addRewards(uint256)": "beceed39",
			"batchWithdrawCREDI(uint256[])": "bc854352",
			"calculateReward(uint256)": "d2d7231f",
			"claim(uint256)": "379607f5",
			"getCREDIAddress()": "d46149a2",
			"getDifficulty()": "b6baffe3",
			"getStake(uint256)": "ce325bf8",
			"getStakesCount()": "b5fa91fe",
			"getxCREDIAddress()": "7c2fdeb5",
			"owner()": "8da5cb5b",
			"pending_payments()": "8f4729b7",
			"renounceOwnership()": "715018a6",
			"setDifficulty(uint256,uint256,uint256)": "c9ea62c1",
			"stake(uint96,uint256)": "d93c04a0",
			"stop()": "07da68f5",
			"stopped()": "75f12b21",
			"total_staked()": "af7568dd",
			"transferOwnership(address)": "f2fde38b",
			"withdrawCREDI(uint256,uint256)": "ac00500f",
			"withdrawRewards(address,uint256)": "d6ef7af0",
			"xCREDI()": "b109beec"
		}
	},
	"abi": [
		{
			"inputs": [
				{
					"internalType": "address",
					"name": "_credi_addr",
					"type": "address"
				},
				{
					"internalType": "address",
					"name": "_xcredi_addr",
					"type": "address"
				},
				{
					"internalType": "uint256",
					"name": "_DIFFICULTY",
					"type": "uint256"
				},
				{
					"internalType": "uint256",
					"name": "_DIFFICULTY_INTERVAL",
					"type": "uint256"
				}
			],
			"stateMutability": "nonpayable",
			"type": "constructor"
		},
		{
			"inputs": [
				{
					"internalType": "address",
					"name": "owner",
					"type": "address"
				}
			],
			"name": "OwnableInvalidOwner",
			"type": "error"
		},
		{
			"inputs": [
				{
					"internalType": "address",
					"name": "account",
					"type": "address"
				}
			],
			"name": "OwnableUnauthorizedAccount",
			"type": "error"
		},
		{
			"inputs": [
				{
					"internalType": "address",
					"name": "token",
					"type": "address"
				}
			],
			"name": "SafeERC20FailedOperation",
			"type": "error"
		},
		{
			"anonymous": false,
			"inputs": [
				{
					"indexed": false,
					"internalType": "uint256",
					"name": "stake_id",
					"type": "uint256"
				},
				{
					"indexed": false,
					"internalType": "uint256",
					"name": "amount",
					"type": "uint256"
				}
			],
			"name": "CREDIWithdrawn",
			"type": "event"
		},
		{
			"anonymous": false,
			"inputs": [
				{
					"indexed": true,
					"internalType": "address",
					"name": "previousOwner",
					"type": "address"
				},
				{
					"indexed": true,
					"internalType": "address",
					"name": "newOwner",
					"type": "address"
				}
			],
			"name": "OwnershipTransferred",
			"type": "event"
		},
		{
			"anonymous": false,
			"inputs": [
				{
					"indexed": false,
					"internalType": "uint256",
					"name": "amount",
					"type": "uint256"
				}
			],
			"name": "RewardAdded",
			"type": "event"
		},
		{
			"anonymous": false,
			"inputs": [
				{
					"indexed": false,
					"internalType": "uint256",
					"name": "stake_id",
					"type": "uint256"
				}
			],
			"name": "RewardPaid",
			"type": "event"
		},
		{
			"anonymous": false,
			"inputs": [
				{
					"indexed": true,
					"internalType": "address",
					"name": "to",
					"type": "address"
				},
				{
					"indexed": false,
					"internalType": "uint256",
					"name": "amount",
					"type": "uint256"
				}
			],
			"name": "RewardWithdrawn",
			"type": "event"
		},
		{
			"anonymous": false,
			"inputs": [
				{
					"indexed": true,
					"internalType": "address",
					"name": "user",
					"type": "address"
				},
				{
					"indexed": false,
					"internalType": "uint256",
					"name": "stake_id",
					"type": "uint256"
				},
				{
					"indexed": false,
					"internalType": "uint96",
					"name": "maturity",
					"type": "uint96"
				},
				{
					"indexed": false,
					"internalType": "uint256",
					"name": "stake_amount",
					"type": "uint256"
				},
				{
					"indexed": false,
					"internalType": "uint256",
					"name": "rewards_amount",
					"type": "uint256"
				}
			],
			"name": "Staked",
			"type": "event"
		},
		{
			"anonymous": false,
			"inputs": [],
			"name": "Stopped",
			"type": "event"
		},
		{
			"inputs": [],
			"name": "CREDI",
			"outputs": [
				{
					"internalType": "contract IERC20",
					"name": "",
					"type": "address"
				}
			],
			"stateMutability": "view",
			"type": "function"
		},
		{
			"inputs": [],
			"name": "DIFFICULTY_INTERVAL",
			"outputs": [
				{
					"internalType": "uint256",
					"name": "",
					"type": "uint256"
				}
			],
			"stateMutability": "view",
			"type": "function"
		},
		{
			"inputs": [],
			"name": "MATURITY",
			"outputs": [
				{
					"internalType": "uint96",
					"name": "",
					"type": "uint96"
				}
			],
			"stateMutability": "view",
			"type": "function"
		},
		{
			"inputs": [
				{
					"internalType": "uint256",
					"name": "amount",
					"type": "uint256"
				}
			],
			"name": "addRewards",
			"outputs": [],
			"stateMutability": "nonpayable",
			"type": "function"
		},
		{
			"inputs": [
				{
					"internalType": "uint256[]",
					"name": "stake_ids",
					"type": "uint256[]"
				}
			],
			"name": "batchWithdrawCREDI",
			"outputs": [],
			"stateMutability": "nonpayable",
			"type": "function"
		},
		{
			"inputs": [
				{
					"internalType": "uint256",
					"name": "stake_amount",
					"type": "uint256"
				}
			],
			"name": "calculateReward",
			"outputs": [
				{
					"internalType": "uint256",
					"name": "",
					"type": "uint256"
				}
			],
			"stateMutability": "view",
			"type": "function"
		},
		{
			"inputs": [
				{
					"internalType": "uint256",
					"name": "stake_id",
					"type": "uint256"
				}
			],
			"name": "claim",
			"outputs": [
				{
					"internalType": "uint256",
					"name": "",
					"type": "uint256"
				}
			],
			"stateMutability": "nonpayable",
			"type": "function"
		},
		{
			"inputs": [],
			"name": "getCREDIAddress",
			"outputs": [
				{
					"internalType": "address",
					"name": "",
					"type": "address"
				}
			],
			"stateMutability": "view",
			"type": "function"
		},
		{
			"inputs": [],
			"name": "getDifficulty",
			"outputs": [
				{
					"internalType": "uint256",
					"name": "",
					"type": "uint256"
				}
			],
			"stateMutability": "view",
			"type": "function"
		},
		{
			"inputs": [
				{
					"internalType": "uint256",
					"name": "stake_id",
					"type": "uint256"
				}
			],
			"name": "getStake",
			"outputs": [
				{
					"internalType": "address",
					"name": "owner",
					"type": "address"
				},
				{
					"internalType": "uint256",
					"name": "maturity",
					"type": "uint256"
				},
				{
					"internalType": "uint256",
					"name": "stake_amount",
					"type": "uint256"
				},
				{
					"internalType": "uint256",
					"name": "reward_amount",
					"type": "uint256"
				}
			],
			"stateMutability": "view",
			"type": "function"
		},
		{
			"inputs": [],
			"name": "getStakesCount",
			"outputs": [
				{
					"internalType": "uint256",
					"name": "",
					"type": "uint256"
				}
			],
			"stateMutability": "view",
			"type": "function"
		},
		{
			"inputs": [],
			"name": "getxCREDIAddress",
			"outputs": [
				{
					"internalType": "address",
					"name": "",
					"type": "address"
				}
			],
			"stateMutability": "view",
			"type": "function"
		},
		{
			"inputs": [],
			"name": "owner",
			"outputs": [
				{
					"internalType": "address",
					"name": "",
					"type": "address"
				}
			],
			"stateMutability": "view",
			"type": "function"
		},
		{
			"inputs": [],
			"name": "pending_payments",
			"outputs": [
				{
					"internalType": "uint256",
					"name": "",
					"type": "uint256"
				}
			],
			"stateMutability": "view",
			"type": "function"
		},
		{
			"inputs": [],
			"name": "renounceOwnership",
			"outputs": [],
			"stateMutability": "nonpayable",
			"type": "function"
		},
		{
			"inputs": [
				{
					"internalType": "uint256",
					"name": "_DIFFICULTY",
					"type": "uint256"
				},
				{
					"internalType": "uint256",
					"name": "_DIFFICULTY_INTERVAL",
					"type": "uint256"
				},
				{
					"internalType": "uint256",
					"name": "_total_staked",
					"type": "uint256"
				}
			],
			"name": "setDifficulty",
			"outputs": [],
			"stateMutability": "nonpayable",
			"type": "function"
		},
		{
			"inputs": [
				{
					"internalType": "uint96",
					"name": "lock_period",
					"type": "uint96"
				},
				{
					"internalType": "uint256",
					"name": "stake_amount",
					"type": "uint256"
				}
			],
			"name": "stake",
			"outputs": [
				{
					"internalType": "uint256",
					"name": "",
					"type": "uint256"
				},
				{
					"internalType": "uint256",
					"name": "",
					"type": "uint256"
				}
			],
			"stateMutability": "nonpayable",
			"type": "function"
		},
		{
			"inputs": [],
			"name": "stop",
			"outputs": [],
			"stateMutability": "nonpayable",
			"type": "function"
		},
		{
			"inputs": [],
			"name": "stopped",
			"outputs": [
				{
					"internalType": "bool",
					"name": "",
					"type": "bool"
				}
			],
			"stateMutability": "view",
			"type": "function"
		},
		{
			"inputs": [],
			"name": "total_staked",
			"outputs": [
				{
					"internalType": "uint256",
					"name": "",
					"type": "uint256"
				}
			],
			"stateMutability": "view",
			"type": "function"
		},
		{
			"inputs": [
				{
					"internalType": "address",
					"name": "newOwner",
					"type": "address"
				}
			],
			"name": "transferOwnership",
			"outputs": [],
			"stateMutability": "nonpayable",
			"type": "function"
		},
		{
			"inputs": [
				{
					"internalType": "uint256",
					"name": "stake_id",
					"type": "uint256"
				},
				{
					"internalType": "uint256",
					"name": "amount",
					"type": "uint256"
				}
			],
			"name": "withdrawCREDI",
			"outputs": [],
			"stateMutability": "nonpayable",
			"type": "function"
		},
		{
			"inputs": [
				{
					"internalType": "address",
					"name": "to",
					"type": "address"
				},
				{
					"internalType": "uint256",
					"name": "amount",
					"type": "uint256"
				}
			],
			"name": "withdrawRewards",
			"outputs": [],
			"stateMutability": "nonpayable",
			"type": "function"
		},
		{
			"inputs": [],
			"name": "xCREDI",
			"outputs": [
				{
					"internalType": "contract IERC20",
					"name": "",
					"type": "address"
				}
			],
			"stateMutability": "view",
			"type": "function"
		}
	]
}