{
	"data": {
		"bytecode": {
			"linkReferences": {},
			"object": "610140604052600060c090815269021e19e0c9bab240000060e05269054b40b1f852bda0000061010052690a968163f0a57b40000061012052610046906002906004610680565b50604080516080810182526103e881526105dc60208201526107d091810191909152610bb8606082015261007e9060039060046106d6565b5034801561008b57600080fd5b50604051612cd0380380612cd08339810160408190526100aa9161075f565b33806100d157604051631e4fbdf760e01b8152600060048201526024015b60405180910390fd5b6100da81610555565b50600180556001600160a01b03821660a081905260408051636a30a4d160e11b8152905163d46149a2916004808201926020929091908290030181865afa158015610129573d6000803e3d6000fd5b505050506040513d601f19601f8201168201806040525081019061014d91906107bd565b6001600160a01b03166080526000805260046020527f17ef568e3e12ab5b9c7254a8d58478811de00f9e6eb34345acd53bf8fd09d3ec805463ffffffff19166103e81790556001600160601b0384166101a34290565b6001600160601b03161061021f5760405162461bcd60e51b815260206004820152603360248201527f50726f66697453686172653a456e642074696d65206d7573742062652067726560448201527f61746572207468616e2074696d655f6e6f77210000000000000000000000000060648201526084016100c8565b61023b6001600160601b038616426001600160601b03166105a5565b9450836001600160601b0316856001600160601b0316106102b95760405162461bcd60e51b815260206004820152603260248201527f50726f66697453686172653a53746172742074696d65206d757374206265206c604482015271657373207468616e20656e642074696d652160701b60648201526084016100c8565b60006102c586866107ee565b6001600160601b03166102e185683635c9adc5dea0000061080d565b6102eb9190610824565b905060405180610100016040528060a0516001600160a01b0316637c2fdeb56040518163ffffffff1660e01b8152600401602060405180830381865afa158015610339573d6000803e3d6000fd5b505050506040513d601f19601f8201168201806040525081019061035d91906107bd565b6001600160a01b0390811682526001600160601b0389811660208085018290528784166040808701919091528b84166060808801919091526000608080890182905260a0808a018c905260c0808b019390935260e0998a019690965289518a860151908916600160a01b918916820281811760078190558d8801518e880151908d16908c1685028181176008558f8701516009559a8f0151600a55958e0151600b559c909b0151600c80546001600160601b031916918b1691909117905585519a8a16178a529590971617928701929092529190950490911690830152683635c9adc5dea00000928201929092527fdc04d80ebe596008505211bb5ef7b7b76945b378723c7fbc1dd952cd919394bb910160405180910390a1600954600a54600b54600c54600854604080519586526020860194909452848401929092526001600160601b039081166060850152600160a01b909104166080830152517fe111f67a87ace56a1496291914b8e0da23748ffddaa8bc98d0f4d4dfb51796a59181900360a00190a160408051600081526103e86020820152600080516020612cb0833981519152910160405180910390a161051c62278d006107d06105ba565b61052b6276a700610bb86105ba565b61053a62ed4e00610fa06105ba565b61054a6301da9c006117706105ba565b505050505050610846565b600080546001600160a01b038381166001600160a01b0319831681178455604051919092169283917f8be0079c531659141344cd1fd0a4f28419497f9722a3daafe3b4186f6b6457e09190a35050565b60008282188284110282185b90505b92915050565b6105c2610651565b6000826001600160601b03161180156105f0575063ffffffff81166103e810806105f0575063ffffffff8116155b6105f957600080fd5b6001600160601b038216600081815260046020908152604091829020805463ffffffff191663ffffffff8616908117909155825193845290830152600080516020612cb0833981519152910160405180910390a15050565b6000546001600160a01b0316331461067e5760405163118cdaa760e01b81523360048201526024016100c8565b565b8280548282559060005260206000209081019282156106c6579160200282015b828111156106c657825182906001600160501b03169055916020019190600101906106a0565b506106d2929150610717565b5090565b8280548282559060005260206000209081019282156106c6579160200282015b828111156106c6578251829061ffff169055916020019190600101906106f6565b5b808211156106d25760008155600101610718565b80516001600160601b038116811461074357600080fd5b919050565b80516001600160a01b038116811461074357600080fd5b600080600080600060a0868803121561077757600080fd5b6107808661072c565b945061078e6020870161072c565b9350604086015192506107a360608701610748565b91506107b160808701610748565b90509295509295909350565b6000602082840312156107cf57600080fd5b6105b182610748565b634e487b7160e01b600052601160045260246000fd5b6001600160601b0382811682821603908111156105b4576105b46107d8565b80820281158282048414176105b4576105b46107d8565b60008261084157634e487b7160e01b600052601260045260246000fd5b500490565b60805160a05161242261088e600039600081816103bc01528181610b6801528181610c500152610f5c0152600081816102dd01528181610b080152610b9701526124226000f3fe608060405234801561001057600080fd5b50600436106101975760003560e01c806399c1e891116100e3578063ce4b5bbe1161008c578063d93c04a011610066578063d93c04a01461047c578063da540bbf1461048f578063f2fde38b1461049857600080fd5b8063ce4b5bbe14610417578063cfd4766314610427578063d6ef7af01461046957600080fd5b8063beceed39116100bd578063beceed39146103de578063c96d6635146103f1578063ccc54f2e1461040457600080fd5b806399c1e891146103915780639ebea88c146103a4578063b1da1b2d146103b757600080fd5b80636db08f25116101455780638af6e8801161011f5780638af6e880146103325780638c7933301461036d5780638da5cb5b1461038057600080fd5b80636db08f25146102d85780637135cd6a14610317578063715018a61461032a57600080fd5b806321241dfe1161017657806321241dfe14610273578063372500ab146102955780636386c1c71461029d57600080fd5b806272c7441461019c578063078b0fb7146101b157806316f0115b146101d7575b600080fd5b6101af6101aa366004612035565b6104ab565b005b6101c46101bf3660046120c2565b61060a565b6040519081526020015b60405180910390f35b600754600854600954600a54600b54600c5461021e956001600160a01b03808216966001600160601b03600160a01b93849004811697928216969390910481169491931688565b604080516001600160a01b03998a1681526001600160601b03988916602082015298909616958801959095529285166060870152608086019190915260a085015260c08401521660e0820152610100016101ce565b61027d6234bc0081565b6040516001600160601b0390911681526020016101ce565b6101af610720565b6102b06102ab3660046120c2565b610748565b604080519586526020860194909452928401919091526060830152608082015260a0016101ce565b6102ff7f000000000000000000000000000000000000000000000000000000000000000081565b6040516001600160a01b0390911681526020016101ce565b6101af6103253660046120f4565b610796565b6101af61092a565b610358610340366004612127565b60046020526000908152604090205463ffffffff1681565b60405163ffffffff90911681526020016101ce565b6101af61037b366004612142565b61093c565b6000546001600160a01b03166102ff565b6101af61039f366004612178565b610afb565b6101af6103b23660046121b0565b610db4565b6102ff7f000000000000000000000000000000000000000000000000000000000000000081565b6101af6103ec3660046121e0565b61107d565b6101af6103ff3660046121f9565b611089565b6101af6104123660046121b0565b611132565b6101c4683635c9adc5dea0000081565b61043a61043536600461222e565b6111c5565b6040516101ce949392919093845260208401929092526001600160601b03166040830152606082015260800190565b6101af61047736600461222e565b61129d565b6101af61048a366004612178565b6113b3565b6103586103e881565b6101af6104a63660046120c2565b611429565b6104b361147d565b82811480156104c157508015155b6104ca57600080fd5b6105068484808060200260200160405190810160405280939291908181526020018383602002808284376000920191909152506114c392505050565b805161051a91600291602090910190611f89565b506105578282808060200260200160405190810160405280939291908181526020018383602002808284376000920191909152506114c392505050565b805161056b91600391602090910190611f89565b5060026000815481106105805761058061224a565b906000526020600020015460001480156105c057506103e863ffffffff1660036000815481106105b2576105b261224a565b906000526020600020015410155b6105c957600080fd5b7f36636bd3caf33bddbd656aadda2fc454e5093f7cec3de1405319ef0ef3aa6ba7600260036040516105fc9291906122a1565b60405180910390a150505050565b6001600160a01b0381166000908152600560205260408120600c54829061065b906001600160601b0316610656425b6008546001600160601b0391821691600160a01b909104166114d8565b6114ed565b600b5460095491925090158015906106815750600c546001600160601b03908116908316115b156106cf57600954600a54600c546106a2906001600160601b0316856122dc565b6001600160601b03166106b591906122fb565b6106bf9190612312565b600b546106cc9190612334565b90505b683635c9adc5dea000008360020154826106e99190612347565b84546106f4906114fd565b6106fe91906122fb565b6107089190612312565b83600101546107179190612334565b95945050505050565b610728611555565b61073433600080611598565b61073d336117eb565b61074660018055565b565b6001600160a01b03811660009081526005602052604081208054829182918291829161077560028261187e565b60018301546002840154600390940154929a91995097509195509350915050565b61079e61147d565b6107ab6000806000611598565b6008544290600160a01b90046001600160601b03908116908216106107f9576001600160601b0384166107e784683635c9adc5dea000006122fb565b6107f19190612312565b600a5561085d565b600a546008546001600160601b03808716929161081f918591600160a01b9004166122dc565b6001600160601b031661083291906122fb565b61084585683635c9adc5dea000006122fb565b61084f9190612334565b6108599190612312565b600a555b600c80546bffffffffffffffffffffffff19166001600160601b038316179055610887848261235a565b600880546001600160601b0392909216600160a01b026001600160a01b0390921691909117905581156108bd576108bd826118dc565b600954600a54600b54600c54600854604080519586526020860194909452928401919091526001600160601b039081166060840152600160a01b9091041660808201527fe111f67a87ace56a1496291914b8e0da23748ffddaa8bc98d0f4d4dfb51796a59060a0016105fc565b61093261147d565b6107466000611990565b610944611555565b336000818152600560205260409020600301548490610964906001612334565b81106109b75760405162461bcd60e51b815260206004820152601d60248201527f50726f66697453686172653a496e76616c6964205374616b652049442100000060448201526064015b60405180910390fd5b82156109d5576109d5336007546001600160a01b03169030866119f8565b33600090815260066020908152604080832088845282528083206001600160601b0388168452600490925290912054600282015463ffffffff918216600160601b9091049091161115610a905760405162461bcd60e51b815260206004820152602360248201527f50726f66697453686172653a557365206c6f6e676572206c6f636b5f7065726960448201527f6f6421000000000000000000000000000000000000000000000000000000000060648201526084016109ae565b8054600090610a9f9086612334565b9050610aad33835489611a74565b86600003610add573360009081526005602052604081206003018054909190610ad590612379565b918290555096505b610ae93387838a611ba4565b50505050610af660018055565b505050565b610b03611555565b610b387f00000000000000000000000000000000000000000000000000000000000000006001600160a01b03163330846119f8565b6040517f095ea7b30000000000000000000000000000000000000000000000000000000081526001600160a01b037f000000000000000000000000000000000000000000000000000000000000000081166004830152602482018390527f0000000000000000000000000000000000000000000000000000000000000000169063095ea7b3906044016020604051808303816000875af1158015610be0573d6000803e3d6000fd5b505050506040513d601f19601f82011682018060405250810190610c049190612392565b506040517fd93c04a00000000000000000000000000000000000000000000000000000000081526001600160601b03831660048201526024810182905260009081906001600160a01b037f0000000000000000000000000000000000000000000000000000000000000000169063d93c04a09060440160408051808303816000875af1158015610c98573d6000803e3d6000fd5b505050506040513d601f19601f82011682018060405250810190610cbc91906123af565b915091506000846001600160601b0316600014610cfd573360009081526005602052604081206003018054909190610cf390612379565b9182905550610d00565b60005b905060008111610d785760405162461bcd60e51b815260206004820152602f60248201527f50726f66697453686172653a7374616b655f6964206d7573742062652067726560448201527f61746572207468616e207a65726f21000000000000000000000000000000000060648201526084016109ae565b3360008181526006602090815260408083208584529091529020600101849055610da490868484611ba4565b505050610db060018055565b5050565b610dbc611555565b336000818152600560205260409020600301548390610ddc906001612334565b8110610e2a5760405162461bcd60e51b815260206004820152601d60248201527f50726f66697453686172653a496e76616c6964205374616b652049442100000060448201526064016109ae565b336000908152600660209081526040808320878452909152902060028101546001600160601b03908116429091161015610ecc5760405162461bcd60e51b815260206004820152602e60248201527f50726f66697453686172653a4561726c79205769746864726177616c2069732060448201527f6e6f74207065726d69747465642100000000000000000000000000000000000060648201526084016109ae565b8054610f1a5760405162461bcd60e51b815260206004820152601c60248201527f50726f66697453686172653a4e6f7468696e6720746f20636c61696d0000000060448201526064016109ae565b6001810154156110495760018101546040517f379607f50000000000000000000000000000000000000000000000000000000081526000916001600160a01b037f0000000000000000000000000000000000000000000000000000000000000000169163379607f591610f939160040190815260200190565b6020604051808303816000875af1158015610fb2573d6000803e3d6000fd5b505050506040513d601f19601f82011682018060405250810190610fd691906123d3565b116110495760405162461bcd60e51b815260206004820152602d60248201527f50726f66697453686172653a43616e6e6f7420636c61696d207843524544492060448201527f66726f6d204d6f64756c6558210000000000000000000000000000000000000060648201526084016109ae565b6110623382546007546001600160a01b03169190611dd1565b61106e33825487611a74565b8315610da457610da4336117eb565b611086816118dc565b50565b61109161147d565b6000826001600160601b03161180156110bf575063ffffffff81166103e810806110bf575063ffffffff8116155b6110c857600080fd5b6001600160601b038216600081815260046020908152604091829020805463ffffffff191663ffffffff86169081179091558251938452908301527f0dfde28ba1cfae98db642e3246355850b37332d75f04945da4676e38ad045386910160405180910390a15050565b61113a611555565b6000821161118a5760405162461bcd60e51b815260206004820152601160248201527f43616e6e6f7420756e7374616b6520302100000000000000000000000000000060448201526064016109ae565b6111a1336007546001600160a01b03169084611dd1565b6111ad33836000611a74565b80156111bc576111bc336117eb565b610db060018055565b6001600160a01b038216600090815260056020526040812060030154819081908190869086906111f6906001612334565b81106112445760405162461bcd60e51b815260206004820152601d60248201527f50726f66697453686172653a496e76616c6964205374616b652049442100000060448201526064016109ae565b505050506001600160a01b03939093166000908152600660209081526040808320948352939052919091208054600182015460029092015490949193506001600160601b0381169250600160601b900463ffffffff1690565b6112a561147d565b6000811161130b5760405162461bcd60e51b815260206004820152602d60248201527f50726f66697453686172653a616d6f756e74206d75737420626520677265617460448201526c6572207468616e207a65726f2160981b60648201526084016109ae565b60085461132c906234bc0090600160a01b90046001600160601b031661235a565b6001600160601b0316426001600160601b031610158061134c5750600954155b61135557600080fd5b60085461136c906001600160a01b03168383611dd1565b816001600160a01b03167f1d3eee4ca001cff39eec6ec7615aacf2f2bd61791273830728ba00ccbd6e1337826040516113a791815260200190565b60405180910390a25050565b6113bb611555565b6113d3336007546001600160a01b03169030846119f8565b60006001600160601b0383161561140e57336000908152600560205260408120600301805490919061140490612379565b9182905550611411565b60005b905061141f33848484611ba4565b50610db060018055565b61143161147d565b6001600160a01b038116611474576040517f1e4fbdf7000000000000000000000000000000000000000000000000000000008152600060048201526024016109ae565b61108681611990565b6000546001600160a01b03163314610746576040517f118cdaa70000000000000000000000000000000000000000000000000000000081523360048201526024016109ae565b60606114d182611e02611e06565b5090919050565b60008282188284100282185b90505b92915050565b60008282188284110282186114e4565b6000806003600161150f60028661187e565b6115199190612347565b815481106115295761152961224a565b60009182526020909120015490506103e861154484836122fb565b61154e9190612312565b9392505050565b600260015403611591576040517f3ee5aeb500000000000000000000000000000000000000000000000000000000815260040160405180910390fd5b6002600155565b600c546000906115b4906001600160601b031661065642610639565b600954909150158015906115d65750600c546001600160601b03908116908216115b1561162c57600954600a54600c546115f7906001600160601b0316846122dc565b6001600160601b031661160a91906122fb565b6116149190612312565b600b8054600090611626908490612334565b90915550505b600c80546bffffffffffffffffffffffff19166001600160601b0383161790556001600160a01b038416156117e5576001600160a01b03841660009081526005602052604081208054909190611681906114fd565b8254909150156116d4576002820154600b54683635c9adc5dea00000916116a791612347565b6116b190836122fb565b6116bb9190612312565b8260010160008282546116ce9190612334565b90915550505b600b546002830155815484906116eb908790612334565b6116f59190612347565b8083558190611703906114fd565b6009546117109190612334565b61171a9190612347565b600955815460018301546002840154604080519384526020840192909252908201526001600160a01b038716907ff1da46a1ca3e37613208b2a3d7ec556866482d77a0005d6168d73270ced6b26a9060600160405180910390a2600954600a54600b54600c54600854604080519586526020860194909452848401929092526001600160601b039081166060850152600160a01b909104166080830152517fe111f67a87ace56a1496291914b8e0da23748ffddaa8bc98d0f4d4dfb51796a59181900360a00190a150505b50505050565b6001600160a01b0381166000908152600560205260409020600181015415610db057600181015460085461182c916001600160a01b03909116908490611dd1565b816001600160a01b03167fe2403640ba68fed3a2f88b7557551d1993f84b99bb10ff833f0cf8db0c5e0486826001015460405161186b91815260200190565b60405180910390a2600060018201555050565b81546000908190808203611897576000925050506114e7565b808210156118d45760006118ab8383611e1e565b9050846118b88783611e39565b5411156118c7578091506118ce565b8060010192505b50611897565b509392505050565b600081116119425760405162461bcd60e51b815260206004820152602d60248201527f50726f66697453686172653a616d6f756e74206d75737420626520677265617460448201526c6572207468616e207a65726f2160981b60648201526084016109ae565b61195a336008546001600160a01b03169030846119f8565b6040518181527fde88a922e0d3b88b24e9623efeb464919c6bf9f66857a65e2bfcf2ce87a9433d9060200160405180910390a150565b600080546001600160a01b038381167fffffffffffffffffffffffff0000000000000000000000000000000000000000831681178455604051919092169283917f8be0079c531659141344cd1fd0a4f28419497f9722a3daafe3b4186f6b6457e09190a35050565b6040516001600160a01b0384811660248301528381166044830152606482018390526117e59186918216906323b872dd906084015b604051602081830303815290604052915060e01b6020820180517bffffffffffffffffffffffffffffffffffffffffffffffffffffffff8381831617835250505050611e62565b6001600160a01b038316600090815260066020908152604080832084845290915290208054831115611b0e5760405162461bcd60e51b815260206004820152602160248201527f50726f66697453686172653a496e73756666696369656e742062616c616e636560448201527f210000000000000000000000000000000000000000000000000000000000000060648201526084016109ae565b60028101546000906103e890611b3190600160601b900463ffffffff16866122fb565b611b3b9190612312565b9050611b4985600083611598565b83826000016000828254611b5d9190612347565b9091555050604080518481526020810186905233917f459d5aef2c549903c1eeb1736f5728845d5ccf82537ddd5bf8035795eee89263910160405180910390a25050505050565b600754600160a01b90046001600160601b0316426001600160601b031610158015611be95750600854600160a01b90046001600160601b0316426001600160601b0316105b611c355760405162461bcd60e51b815260206004820152601f60248201527f50726f66697453686172653a506f6f6c206973206e6f7420616374697665210060448201526064016109ae565b6001600160601b03831660009081526004602052604081205463ffffffff16906103e8611c6283866122fb565b611c6c9190612312565b905060008111611ce45760405162461bcd60e51b815260206004820152603960248201527f50726f66697453686172653a616d6f756e7420616e64206d756c7469706c696560448201527f72206d7573742062652067726561746572207468616e2030210000000000000060648201526084016109ae565b611cf086826000611598565b3360009081526006602090815260408083208684529091528120805490918691839190611d1e908490612334565b90915550611d2e9050864261235a565b6002820180546001600160601b039283166fffffffffffffffffffffffffffffffff1990911617600160601b63ffffffff871602179081905582546001840154604080518981526020810193909352820152908216606082015290871660808201526001600160a01b038816907ffb323914bfe99940926cd03fe7969535604dd9a3c82b28853e738744dd6f9aaa9060a00160405180910390a250505050505050565b6040516001600160a01b03838116602483015260448201839052610af691859182169063a9059cbb90606401611a2d565b1190565b60606114d160208401611e1885611eec565b84611f04565b6000611e2d6002848418612312565b6114e490848416612334565b600082611e5a611e5784611e538460009081526020902090565b0190565b90565b949350505050565b600080602060008451602086016000885af180611e85576040513d6000823e3d81fd5b50506000513d91508115611e9d578060011415611eaa565b6001600160a01b0384163b155b156117e5576040517f5274afe70000000000000000000000000000000000000000000000000000000081526001600160a01b03851660048201526024016109ae565b60008151602002611efd8360200190565b0192915050565b60408383031015611f1457505050565b6000611f1e845190565b905083602081015b84811015611f6057611f43611f39825190565b848663ffffffff16565b15611f58576020919091018051825182528252905b602001611f26565b508451815186528152611f74858285611f04565b611f82816020018585611f04565b5050505050565b828054828255906000526020600020908101928215611fc4579160200282015b82811115611fc4578251825591602001919060010190611fa9565b50611fd0929150611fd4565b5090565b5b80821115611fd05760008155600101611fd5565b60008083601f840112611ffb57600080fd5b50813567ffffffffffffffff81111561201357600080fd5b6020830191508360208260051b850101111561202e57600080fd5b9250929050565b6000806000806040858703121561204b57600080fd5b843567ffffffffffffffff81111561206257600080fd5b61206e87828801611fe9565b909550935050602085013567ffffffffffffffff81111561208e57600080fd5b61209a87828801611fe9565b95989497509550505050565b80356001600160a01b03811681146120bd57600080fd5b919050565b6000602082840312156120d457600080fd5b6114e4826120a6565b80356001600160601b03811681146120bd57600080fd5b60008060006060848603121561210957600080fd5b612112846120dd565b95602085013595506040909401359392505050565b60006020828403121561213957600080fd5b6114e4826120dd565b60008060006060848603121561215757600080fd5b83359250612167602085016120dd565b929592945050506040919091013590565b6000806040838503121561218b57600080fd5b612194836120dd565b946020939093013593505050565b801515811461108657600080fd5b600080604083850312156121c357600080fd5b8235915060208301356121d5816121a2565b809150509250929050565b6000602082840312156121f257600080fd5b5035919050565b6000806040838503121561220c57600080fd5b612215836120dd565b9150602083013563ffffffff811681146121d557600080fd5b6000806040838503121561224157600080fd5b612194836120a6565b634e487b7160e01b600052603260045260246000fd5b6000815480845260208401935082600052602060002060005b82811015612297578154865260209095019460019182019101612279565b5093949350505050565b6040815260006122b46040830185612260565b82810360208401526107178185612260565b634e487b7160e01b600052601160045260246000fd5b6001600160601b0382811682821603908111156114e7576114e76122c6565b80820281158282048414176114e7576114e76122c6565b60008261232f57634e487b7160e01b600052601260045260246000fd5b500490565b808201808211156114e7576114e76122c6565b818103818111156114e7576114e76122c6565b6001600160601b0381811683821601908111156114e7576114e76122c6565b60006001820161238b5761238b6122c6565b5060010190565b6000602082840312156123a457600080fd5b815161154e816121a2565b600080604083850312156123c257600080fd5b505080516020909101519092909150565b6000602082840312156123e557600080fd5b505191905056fea2646970667358221220bc201d25db20df738bdf596b814f32722b783fbd0cfce4b2dbe39b51714e7b7964736f6c634300081e00330dfde28ba1cfae98db642e3246355850b37332d75f04945da4676e38ad045386",
			"opcodes": "PUSH2 0x140 PUSH1 0x40 MSTORE PUSH1 0x0 PUSH1 0xC0 SWAP1 DUP2 MSTORE PUSH10 0x21E19E0C9BAB2400000 PUSH1 0xE0 MSTORE PUSH10 0x54B40B1F852BDA00000 PUSH2 0x100 MSTORE PUSH10 0xA968163F0A57B400000 PUSH2 0x120 MSTORE PUSH2 0x46 SWAP1 PUSH1 0x2 SWAP1 PUSH1 0x4 PUSH2 0x680 JUMP JUMPDEST POP PUSH1 0x40 DUP1 MLOAD PUSH1 0x80 DUP2 ADD DUP3 MSTORE PUSH2 0x3E8 DUP2 MSTORE PUSH2 0x5DC PUSH1 0x20 DUP3 ADD MSTORE PUSH2 0x7D0 SWAP2 DUP2 ADD SWAP2 SWAP1 SWAP2 MSTORE PUSH2 0xBB8 PUSH1 0x60 DUP3 ADD MSTORE PUSH2 0x7E SWAP1 PUSH1 0x3 SWAP1 PUSH1 0x4 PUSH2 0x6D6 JUMP JUMPDEST POP CALLVALUE DUP1 ISZERO PUSH2 0x8B JUMPI PUSH1 0x0 DUP1 REVERT JUMPDEST POP PUSH1 0x40 MLOAD PUSH2 0x2CD0 CODESIZE SUB DUP1 PUSH2 0x2CD0 DUP4 CODECOPY DUP2 ADD PUSH1 0x40 DUP2 SWAP1 MSTORE PUSH2 0xAA SWAP2 PUSH2 0x75F JUMP JUMPDEST CALLER DUP1 PUSH2 0xD1 JUMPI PUSH1 0x40 MLOAD PUSH4 0x1E4FBDF7 PUSH1 0xE0 SHL DUP2 MSTORE PUSH1 0x0 PUSH1 0x4 DUP3 ADD MSTORE PUSH1 0x24 ADD JUMPDEST PUSH1 0x40 MLOAD DUP1 SWAP2 SUB SWAP1 REVERT JUMPDEST PUSH2 0xDA DUP2 PUSH2 0x555 JUMP JUMPDEST POP PUSH1 0x1 DUP1 SSTORE PUSH1 0x1 PUSH1 0x1 PUSH1 0xA0 SHL SUB DUP3 AND PUSH1 0xA0 DUP2 SWAP1 MSTORE PUSH1 0x40 DUP1 MLOAD PUSH4 0x6A30A4D1 PUSH1 0xE1 SHL DUP2 MSTORE SWAP1 MLOAD PUSH4 0xD46149A2 SWAP2 PUSH1 0x4 DUP1 DUP3 ADD SWAP3 PUSH1 0x20 SWAP3 SWAP1 SWAP2 SWAP1 DUP3 SWAP1 SUB ADD DUP2 DUP7 GAS STATICCALL ISZERO DUP1 ISZERO PUSH2 0x129 JUMPI RETURNDATASIZE PUSH1 0x0 DUP1 RETURNDATACOPY RETURNDATASIZE PUSH1 0x0 REVERT JUMPDEST POP POP POP POP PUSH1 0x40 MLOAD RETURNDATASIZE PUSH1 0x1F NOT PUSH1 0x1F DUP3 ADD AND DUP3 ADD DUP1 PUSH1 0x40 MSTORE POP DUP2 ADD SWAP1 PUSH2 0x14D SWAP2 SWAP1 PUSH2 0x7BD JUMP JUMPDEST PUSH1 0x1 PUSH1 0x1 PUSH1 0xA0 SHL SUB AND PUSH1 0x80 MSTORE PUSH1 0x0 DUP1 MSTORE PUSH1 0x4 PUSH1 0x20 MSTORE PUSH32 0x17EF568E3E12AB5B9C7254A8D58478811DE00F9E6EB34345ACD53BF8FD09D3EC DUP1 SLOAD PUSH4 0xFFFFFFFF NOT AND PUSH2 0x3E8 OR SWAP1 SSTORE PUSH1 0x1 PUSH1 0x1 PUSH1 0x60 SHL SUB DUP5 AND PUSH2 0x1A3 TIMESTAMP SWAP1 JUMP JUMPDEST PUSH1 0x1 PUSH1 0x1 PUSH1 0x60 SHL SUB AND LT PUSH2 0x21F JUMPI PUSH1 0x40 MLOAD PUSH3 0x461BCD PUSH1 0xE5 SHL DUP2 MSTORE PUSH1 0x20 PUSH1 0x4 DUP3 ADD MSTORE PUSH1 0x33 PUSH1 0x24 DUP3 ADD MSTORE PUSH32 0x50726F66697453686172653A456E642074696D65206D75737420626520677265 PUSH1 0x44 DUP3 ADD MSTORE PUSH32 0x61746572207468616E2074696D655F6E6F772100000000000000000000000000 PUSH1 0x64 DUP3 ADD MSTORE PUSH1 0x84 ADD PUSH2 0xC8 JUMP JUMPDEST PUSH2 0x23B PUSH1 0x1 PUSH1 0x1 PUSH1 0x60 SHL SUB DUP7 AND TIMESTAMP PUSH1 0x1 PUSH1 0x1 PUSH1 0x60 SHL SUB AND PUSH2 0x5A5 JUMP JUMPDEST SWAP5 POP DUP4 PUSH1 0x1 PUSH1 0x1 PUSH1 0x60 SHL SUB AND DUP6 PUSH1 0x1 PUSH1 0x1 PUSH1 0x60 SHL SUB AND LT PUSH2 0x2B9 JUMPI PUSH1 0x40 MLOAD PUSH3 0x461BCD PUSH1 0xE5 SHL DUP2 MSTORE PUSH1 0x20 PUSH1 0x4 DUP3 ADD MSTORE PUSH1 0x32 PUSH1 0x24 DUP3 ADD MSTORE PUSH32 0x50726F66697453686172653A53746172742074696D65206D757374206265206C PUSH1 0x44 DUP3 ADD MSTORE PUSH18 0x657373207468616E20656E642074696D6521 PUSH1 0x70 SHL PUSH1 0x64 DUP3 ADD MSTORE PUSH1 0x84 ADD PUSH2 0xC8 JUMP JUMPDEST PUSH1 0x0 PUSH2 0x2C5 DUP7 DUP7 PUSH2 0x7EE JUMP JUMPDEST PUSH1 0x1 PUSH1 0x1 PUSH1 0x60 SHL SUB AND PUSH2 0x2E1 DUP6 PUSH9 0x3635C9ADC5DEA00000 PUSH2 0x80D JUMP JUMPDEST PUSH2 0x2EB SWAP2 SWAP1 PUSH2 0x824 JUMP JUMPDEST SWAP1 POP PUSH1 0x40 MLOAD DUP1 PUSH2 0x100 ADD PUSH1 0x40 MSTORE DUP1 PUSH1 0xA0 MLOAD PUSH1 0x1 PUSH1 0x1 PUSH1 0xA0 SHL SUB AND PUSH4 0x7C2FDEB5 PUSH1 0x40 MLOAD DUP2 PUSH4 0xFFFFFFFF AND PUSH1 0xE0 SHL DUP2 MSTORE PUSH1 0x4 ADD PUSH1 0x20 PUSH1 0x40 MLOAD DUP1 DUP4 SUB DUP2 DUP7 GAS STATICCALL ISZERO DUP1 ISZERO PUSH2 0x339 JUMPI RETURNDATASIZE PUSH1 0x0 DUP1 RETURNDATACOPY RETURNDATASIZE PUSH1 0x0 REVERT JUMPDEST POP POP POP POP PUSH1 0x40 MLOAD RETURNDATASIZE PUSH1 0x1F NOT PUSH1 0x1F DUP3 ADD AND DUP3 ADD DUP1 PUSH1 0x40 MSTORE POP DUP2 ADD SWAP1 PUSH2 0x35D SWAP2 SWAP1 PUSH2 0x7BD JUMP JUMPDEST PUSH1 0x1 PUSH1 0x1 PUSH1 0xA0 SHL SUB SWAP1 DUP2 AND DUP3 MSTORE PUSH1 0x1 PUSH1 0x1 PUSH1 0x60 SHL SUB DUP10 DUP2 AND PUSH1 0x20 DUP1 DUP6 ADD DUP3 SWAP1 MSTORE DUP8 DUP5 AND PUSH1 0x40 DUP1 DUP8 ADD SWAP2 SWAP1 SWAP2 MSTORE DUP12 DUP5 AND PUSH1 0x60 DUP1 DUP9 ADD SWAP2 SWAP1 SWAP2 MSTORE PUSH1 0x0 PUSH1 0x80 DUP1 DUP10 ADD DUP3 SWAP1 MSTORE PUSH1 0xA0 DUP1 DUP11 ADD DUP13 SWAP1 MSTORE PUSH1 0xC0 DUP1 DUP12 ADD SWAP4 SWAP1 SWAP4 MSTORE PUSH1 0xE0 SWAP10 DUP11 ADD SWAP7 SWAP1 SWAP7 MSTORE DUP10 MLOAD DUP11 DUP7 ADD MLOAD SWAP1 DUP10 AND PUSH1 0x1 PUSH1 0xA0 SHL SWAP2 DUP10 AND DUP3 MUL DUP2 DUP2 OR PUSH1 0x7 DUP2 SWAP1 SSTORE DUP14 DUP9 ADD MLOAD DUP15 DUP9 ADD MLOAD SWAP1 DUP14 AND SWAP1 DUP13 AND DUP6 MUL DUP2 DUP2 OR PUSH1 0x8 SSTORE DUP16 DUP8 ADD MLOAD PUSH1 0x9 SSTORE SWAP11 DUP16 ADD MLOAD PUSH1 0xA SSTORE SWAP6 DUP15 ADD MLOAD PUSH1 0xB SSTORE SWAP13 SWAP1 SWAP12 ADD MLOAD PUSH1 0xC DUP1 SLOAD PUSH1 0x1 PUSH1 0x1 PUSH1 0x60 SHL SUB NOT AND SWAP2 DUP12 AND SWAP2 SWAP1 SWAP2 OR SWAP1 SSTORE DUP6 MLOAD SWAP11 DUP11 AND OR DUP11 MSTORE SWAP6 SWAP1 SWAP8 AND OR SWAP3 DUP8 ADD SWAP3 SWAP1 SWAP3 MSTORE SWAP2 SWAP1 SWAP6 DIV SWAP1 SWAP2 AND SWAP1 DUP4 ADD MSTORE PUSH9 0x3635C9ADC5DEA00000 SWAP3 DUP3 ADD SWAP3 SWAP1 SWAP3 MSTORE PUSH32 0xDC04D80EBE596008505211BB5EF7B7B76945B378723C7FBC1DD952CD919394BB SWAP2 ADD PUSH1 0x40 MLOAD DUP1 SWAP2 SUB SWAP1 LOG1 PUSH1 0x9 SLOAD PUSH1 0xA SLOAD PUSH1 0xB SLOAD PUSH1 0xC SLOAD PUSH1 0x8 SLOAD PUSH1 0x40 DUP1 MLOAD SWAP6 DUP7 MSTORE PUSH1 0x20 DUP7 ADD SWAP5 SWAP1 SWAP5 MSTORE DUP5 DUP5 ADD SWAP3 SWAP1 SWAP3 MSTORE PUSH1 0x1 PUSH1 0x1 PUSH1 0x60 SHL SUB SWAP1 DUP2 AND PUSH1 0x60 DUP6 ADD MSTORE PUSH1 0x1 PUSH1 0xA0 SHL SWAP1 SWAP2 DIV AND PUSH1 0x80 DUP4 ADD MSTORE MLOAD PUSH32 0xE111F67A87ACE56A1496291914B8E0DA23748FFDDAA8BC98D0F4D4DFB51796A5 SWAP2 DUP2 SWAP1 SUB PUSH1 0xA0 ADD SWAP1 LOG1 PUSH1 0x40 DUP1 MLOAD PUSH1 0x0 DUP2 MSTORE PUSH2 0x3E8 PUSH1 0x20 DUP3 ADD MSTORE PUSH1 0x0 DUP1 MLOAD PUSH1 0x20 PUSH2 0x2CB0 DUP4 CODECOPY DUP2 MLOAD SWAP2 MSTORE SWAP2 ADD PUSH1 0x40 MLOAD DUP1 SWAP2 SUB SWAP1 LOG1 PUSH2 0x51C PUSH3 0x278D00 PUSH2 0x7D0 PUSH2 0x5BA JUMP JUMPDEST PUSH2 0x52B PUSH3 0x76A700 PUSH2 0xBB8 PUSH2 0x5BA JUMP JUMPDEST PUSH2 0x53A PUSH3 0xED4E00 PUSH2 0xFA0 PUSH2 0x5BA JUMP JUMPDEST PUSH2 0x54A PUSH4 0x1DA9C00 PUSH2 0x1770 PUSH2 0x5BA JUMP JUMPDEST POP POP POP POP POP POP PUSH2 0x846 JUMP JUMPDEST PUSH1 0x0 DUP1 SLOAD PUSH1 0x1 PUSH1 0x1 PUSH1 0xA0 SHL SUB DUP4 DUP2 AND PUSH1 0x1 PUSH1 0x1 PUSH1 0xA0 SHL SUB NOT DUP4 AND DUP2 OR DUP5 SSTORE PUSH1 0x40 MLOAD SWAP2 SWAP1 SWAP3 AND SWAP3 DUP4 SWAP2 PUSH32 0x8BE0079C531659141344CD1FD0A4F28419497F9722A3DAAFE3B4186F6B6457E0 SWAP2 SWAP1 LOG3 POP POP JUMP JUMPDEST PUSH1 0x0 DUP3 DUP3 XOR DUP3 DUP5 GT MUL DUP3 XOR JUMPDEST SWAP1 POP JUMPDEST SWAP3 SWAP2 POP POP JUMP JUMPDEST PUSH2 0x5C2 PUSH2 0x651 JUMP JUMPDEST PUSH1 0x0 DUP3 PUSH1 0x1 PUSH1 0x1 PUSH1 0x60 SHL SUB AND GT DUP1 ISZERO PUSH2 0x5F0 JUMPI POP PUSH4 0xFFFFFFFF DUP2 AND PUSH2 0x3E8 LT DUP1 PUSH2 0x5F0 JUMPI POP PUSH4 0xFFFFFFFF DUP2 AND ISZERO JUMPDEST PUSH2 0x5F9 JUMPI PUSH1 0x0 DUP1 REVERT JUMPDEST PUSH1 0x1 PUSH1 0x1 PUSH1 0x60 SHL SUB DUP3 AND PUSH1 0x0 DUP2 DUP2 MSTORE PUSH1 0x4 PUSH1 0x20 SWAP1 DUP2 MSTORE PUSH1 0x40 SWAP2 DUP3 SWAP1 KECCAK256 DUP1 SLOAD PUSH4 0xFFFFFFFF NOT AND PUSH4 0xFFFFFFFF DUP7 AND SWAP1 DUP2 OR SWAP1 SWAP2 SSTORE DUP3 MLOAD SWAP4 DUP5 MSTORE SWAP1 DUP4 ADD MSTORE PUSH1 0x0 DUP1 MLOAD PUSH1 0x20 PUSH2 0x2CB0 DUP4 CODECOPY DUP2 MLOAD SWAP2 MSTORE SWAP2 ADD PUSH1 0x40 MLOAD DUP1 SWAP2 SUB SWAP1 LOG1 POP POP JUMP JUMPDEST PUSH1 0x0 SLOAD PUSH1 0x1 PUSH1 0x1 PUSH1 0xA0 SHL SUB AND CALLER EQ PUSH2 0x67E JUMPI PUSH1 0x40 MLOAD PUSH4 0x118CDAA7 PUSH1 0xE0 SHL DUP2 MSTORE CALLER PUSH1 0x4 DUP3 ADD MSTORE PUSH1 0x24 ADD PUSH2 0xC8 JUMP JUMPDEST JUMP JUMPDEST DUP3 DUP1 SLOAD DUP3 DUP3 SSTORE SWAP1 PUSH1 0x0 MSTORE PUSH1 0x20 PUSH1 0x0 KECCAK256 SWAP1 DUP2 ADD SWAP3 DUP3 ISZERO PUSH2 0x6C6 JUMPI SWAP2 PUSH1 0x20 MUL DUP3 ADD JUMPDEST DUP3 DUP2 GT ISZERO PUSH2 0x6C6 JUMPI DUP3 MLOAD DUP3 SWAP1 PUSH1 0x1 PUSH1 0x1 PUSH1 0x50 SHL SUB AND SWAP1 SSTORE SWAP2 PUSH1 0x20 ADD SWAP2 SWAP1 PUSH1 0x1 ADD SWAP1 PUSH2 0x6A0 JUMP JUMPDEST POP PUSH2 0x6D2 SWAP3 SWAP2 POP PUSH2 0x717 JUMP JUMPDEST POP SWAP1 JUMP JUMPDEST DUP3 DUP1 SLOAD DUP3 DUP3 SSTORE SWAP1 PUSH1 0x0 MSTORE PUSH1 0x20 PUSH1 0x0 KECCAK256 SWAP1 DUP2 ADD SWAP3 DUP3 ISZERO PUSH2 0x6C6 JUMPI SWAP2 PUSH1 0x20 MUL DUP3 ADD JUMPDEST DUP3 DUP2 GT ISZERO PUSH2 0x6C6 JUMPI DUP3 MLOAD DUP3 SWAP1 PUSH2 0xFFFF AND SWAP1 SSTORE SWAP2 PUSH1 0x20 ADD SWAP2 SWAP1 PUSH1 0x1 ADD SWAP1 PUSH2 0x6F6 JUMP JUMPDEST JUMPDEST DUP1 DUP3 GT ISZERO PUSH2 0x6D2 JUMPI PUSH1 0x0 DUP2 SSTORE PUSH1 0x1 ADD PUSH2 0x718 JUMP JUMPDEST DUP1 MLOAD PUSH1 0x1 PUSH1 0x1 PUSH1 0x60 SHL SUB DUP2 AND DUP2 EQ PUSH2 0x743 JUMPI PUSH1 0x0 DUP1 REVERT JUMPDEST SWAP2 SWAP1 POP JUMP JUMPDEST DUP1 MLOAD PUSH1 0x1 PUSH1 0x1 PUSH1 0xA0 SHL SUB DUP2 AND DUP2 EQ PUSH2 0x743 JUMPI PUSH1 0x0 DUP1 REVERT JUMPDEST PUSH1 0x0 DUP1 PUSH1 0x0 DUP1 PUSH1 0x0 PUSH1 0xA0 DUP7 DUP9 SUB SLT ISZERO PUSH2 0x777 JUMPI PUSH1 0x0 DUP1 REVERT JUMPDEST PUSH2 0x780 DUP7 PUSH2 0x72C JUMP JUMPDEST SWAP5 POP PUSH2 0x78E PUSH1 0x20 DUP8 ADD PUSH2 0x72C JUMP JUMPDEST SWAP4 POP PUSH1 0x40 DUP7 ADD MLOAD SWAP3 POP PUSH2 0x7A3 PUSH1 0x60 DUP8 ADD PUSH2 0x748 JUMP JUMPDEST SWAP2 POP PUSH2 0x7B1 PUSH1 0x80 DUP8 ADD PUSH2 0x748 JUMP JUMPDEST SWAP1 POP SWAP3 SWAP6 POP SWAP3 SWAP6 SWAP1 SWAP4 POP JUMP JUMPDEST PUSH1 0x0 PUSH1 0x20 DUP3 DUP5 SUB SLT ISZERO PUSH2 0x7CF JUMPI PUSH1 0x0 DUP1 REVERT JUMPDEST PUSH2 0x5B1 DUP3 PUSH2 0x748 JUMP JUMPDEST PUSH4 0x4E487B71 PUSH1 0xE0 SHL PUSH1 0x0 MSTORE PUSH1 0x11 PUSH1 0x4 MSTORE PUSH1 0x24 PUSH1 0x0 REVERT JUMPDEST PUSH1 0x1 PUSH1 0x1 PUSH1 0x60 SHL SUB DUP3 DUP2 AND DUP3 DUP3 AND SUB SWAP1 DUP2 GT ISZERO PUSH2 0x5B4 JUMPI PUSH2 0x5B4 PUSH2 0x7D8 JUMP JUMPDEST DUP1 DUP3 MUL DUP2 ISZERO DUP3 DUP3 DIV DUP5 EQ OR PUSH2 0x5B4 JUMPI PUSH2 0x5B4 PUSH2 0x7D8 JUMP JUMPDEST PUSH1 0x0 DUP3 PUSH2 0x841 JUMPI PUSH4 0x4E487B71 PUSH1 0xE0 SHL PUSH1 0x0 MSTORE PUSH1 0x12 PUSH1 0x4 MSTORE PUSH1 0x24 PUSH1 0x0 REVERT JUMPDEST POP DIV SWAP1 JUMP JUMPDEST PUSH1 0x80 MLOAD PUSH1 0xA0 MLOAD PUSH2 0x2422 PUSH2 0x88E PUSH1 0x0 CODECOPY PUSH1 0x0 DUP2 DUP2 PUSH2 0x3BC ADD MSTORE DUP2 DUP2 PUSH2 0xB68 ADD MSTORE DUP2 DUP2 PUSH2 0xC50 ADD MSTORE PUSH2 0xF5C ADD MSTORE PUSH1 0x0 DUP2 DUP2 PUSH2 0x2DD ADD MSTORE DUP2 DUP2 PUSH2 0xB08 ADD MSTORE PUSH2 0xB97 ADD MSTORE PUSH2 0x2422 PUSH1 0x0 RETURN INVALID PUSH1 0x80 PUSH1 0x40 MSTORE CALLVALUE DUP1 ISZERO PUSH2 0x10 JUMPI PUSH1 0x0 DUP1 REVERT JUMPDEST POP PUSH1 0x4 CALLDATASIZE LT PUSH2 0x197 JUMPI PUSH1 0x0 CALLDATALOAD PUSH1 0xE0 SHR DUP1 PUSH4 0x99C1E891 GT PUSH2 0xE3 JUMPI DUP1 PUSH4 0xCE4B5BBE GT PUSH2 0x8C JUMPI DUP1 PUSH4 0xD93C04A0 GT PUSH2 0x66 JUMPI DUP1 PUSH4 0xD93C04A0 EQ PUSH2 0x47C JUMPI DUP1 PUSH4 0xDA540BBF EQ PUSH2 0x48F JUMPI DUP1 PUSH4 0xF2FDE38B EQ PUSH2 0x498 JUMPI PUSH1 0x0 DUP1 REVERT JUMPDEST DUP1 PUSH4 0xCE4B5BBE EQ PUSH2 0x417 JUMPI DUP1 PUSH4 0xCFD47663 EQ PUSH2 0x427 JUMPI DUP1 PUSH4 0xD6EF7AF0 EQ PUSH2 0x469 JUMPI PUSH1 0x0 DUP1 REVERT JUMPDEST DUP1 PUSH4 0xBECEED39 GT PUSH2 0xBD JUMPI DUP1 PUSH4 0xBECEED39 EQ PUSH2 0x3DE JUMPI DUP1 PUSH4 0xC96D6635 EQ PUSH2 0x3F1 JUMPI DUP1 PUSH4 0xCCC54F2E EQ PUSH2 0x404 JUMPI PUSH1 0x0 DUP1 REVERT JUMPDEST DUP1 PUSH4 0x99C1E891 EQ PUSH2 0x391 JUMPI DUP1 PUSH4 0x9EBEA88C EQ PUSH2 0x3A4 JUMPI DUP1 PUSH4 0xB1DA1B2D EQ PUSH2 0x3B7 JUMPI PUSH1 0x0 DUP1 REVERT JUMPDEST DUP1 PUSH4 0x6DB08F25 GT PUSH2 0x145 JUMPI DUP1 PUSH4 0x8AF6E880 GT PUSH2 0x11F JUMPI DUP1 PUSH4 0x8AF6E880 EQ PUSH2 0x332 JUMPI DUP1 PUSH4 0x8C793330 EQ PUSH2 0x36D JUMPI DUP1 PUSH4 0x8DA5CB5B EQ PUSH2 0x380 JUMPI PUSH1 0x0 DUP1 REVERT JUMPDEST DUP1 PUSH4 0x6DB08F25 EQ PUSH2 0x2D8 JUMPI DUP1 PUSH4 0x7135CD6A EQ PUSH2 0x317 JUMPI DUP1 PUSH4 0x715018A6 EQ PUSH2 0x32A JUMPI PUSH1 0x0 DUP1 REVERT JUMPDEST DUP1 PUSH4 0x21241DFE GT PUSH2 0x176 JUMPI DUP1 PUSH4 0x21241DFE EQ PUSH2 0x273 JUMPI DUP1 PUSH4 0x372500AB EQ PUSH2 0x295 JUMPI DUP1 PUSH4 0x6386C1C7 EQ PUSH2 0x29D JUMPI PUSH1 0x0 DUP1 REVERT JUMPDEST DUP1 PUSH3 0x72C744 EQ PUSH2 0x19C JUMPI DUP1 PUSH4 0x78B0FB7 EQ PUSH2 0x1B1 JUMPI DUP1 PUSH4 0x16F0115B EQ PUSH2 0x1D7 JUMPI JUMPDEST PUSH1 0x0 DUP1 REVERT JUMPDEST PUSH2 0x1AF PUSH2 0x1AA CALLDATASIZE PUSH1 0x4 PUSH2 0x2035 JUMP JUMPDEST PUSH2 0x4AB JUMP JUMPDEST STOP JUMPDEST PUSH2 0x1C4 PUSH2 0x1BF CALLDATASIZE PUSH1 0x4 PUSH2 0x20C2 JUMP JUMPDEST PUSH2 0x60A JUMP JUMPDEST PUSH1 0x40 MLOAD SWAP1 DUP2 MSTORE PUSH1 0x20 ADD JUMPDEST PUSH1 0x40 MLOAD DUP1 SWAP2 SUB SWAP1 RETURN JUMPDEST PUSH1 0x7 SLOAD PUSH1 0x8 SLOAD PUSH1 0x9 SLOAD PUSH1 0xA SLOAD PUSH1 0xB SLOAD PUSH1 0xC SLOAD PUSH2 0x21E SWAP6 PUSH1 0x1 PUSH1 0x1 PUSH1 0xA0 SHL SUB DUP1 DUP3 AND SWAP7 PUSH1 0x1 PUSH1 0x1 PUSH1 0x60 SHL SUB PUSH1 0x1 PUSH1 0xA0 SHL SWAP4 DUP5 SWAP1 DIV DUP2 AND SWAP8 SWAP3 DUP3 AND SWAP7 SWAP4 SWAP1 SWAP2 DIV DUP2 AND SWAP5 SWAP2 SWAP4 AND DUP9 JUMP JUMPDEST PUSH1 0x40 DUP1 MLOAD PUSH1 0x1 PUSH1 0x1 PUSH1 0xA0 SHL SUB SWAP10 DUP11 AND DUP2 MSTORE PUSH1 0x1 PUSH1 0x1 PUSH1 0x60 SHL SUB SWAP9 DUP10 AND PUSH1 0x20 DUP3 ADD MSTORE SWAP9 SWAP1 SWAP7 AND SWAP6 DUP9 ADD SWAP6 SWAP1 SWAP6 MSTORE SWAP3 DUP6 AND PUSH1 0x60 DUP8 ADD MSTORE PUSH1 0x80 DUP7 ADD SWAP2 SWAP1 SWAP2 MSTORE PUSH1 0xA0 DUP6 ADD MSTORE PUSH1 0xC0 DUP5 ADD MSTORE AND PUSH1 0xE0 DUP3 ADD MSTORE PUSH2 0x100 ADD PUSH2 0x1CE JUMP JUMPDEST PUSH2 0x27D PUSH3 0x34BC00 DUP2 JUMP JUMPDEST PUSH1 0x40 MLOAD PUSH1 0x1 PUSH1 0x1 PUSH1 0x60 SHL SUB SWAP1 SWAP2 AND DUP2 MSTORE PUSH1 0x20 ADD PUSH2 0x1CE JUMP JUMPDEST PUSH2 0x1AF PUSH2 0x720 JUMP JUMPDEST PUSH2 0x2B0 PUSH2 0x2AB CALLDATASIZE PUSH1 0x4 PUSH2 0x20C2 JUMP JUMPDEST PUSH2 0x748 JUMP JUMPDEST PUSH1 0x40 DUP1 MLOAD SWAP6 DUP7 MSTORE PUSH1 0x20 DUP7 ADD SWAP5 SWAP1 SWAP5 MSTORE SWAP3 DUP5 ADD SWAP2 SWAP1 SWAP2 MSTORE PUSH1 0x60 DUP4 ADD MSTORE PUSH1 0x80 DUP3 ADD MSTORE PUSH1 0xA0 ADD PUSH2 0x1CE JUMP JUMPDEST PUSH2 0x2FF PUSH32 0x0 DUP2 JUMP JUMPDEST PUSH1 0x40 MLOAD PUSH1 0x1 PUSH1 0x1 PUSH1 0xA0 SHL SUB SWAP1 SWAP2 AND DUP2 MSTORE PUSH1 0x20 ADD PUSH2 0x1CE JUMP JUMPDEST PUSH2 0x1AF PUSH2 0x325 CALLDATASIZE PUSH1 0x4 PUSH2 0x20F4 JUMP JUMPDEST PUSH2 0x796 JUMP JUMPDEST PUSH2 0x1AF PUSH2 0x92A JUMP JUMPDEST PUSH2 0x358 PUSH2 0x340 CALLDATASIZE PUSH1 0x4 PUSH2 0x2127 JUMP JUMPDEST PUSH1 0x4 PUSH1 0x20 MSTORE PUSH1 0x0 SWAP1 DUP2 MSTORE PUSH1 0x40 SWAP1 KECCAK256 SLOAD PUSH4 0xFFFFFFFF AND DUP2 JUMP JUMPDEST PUSH1 0x40 MLOAD PUSH4 0xFFFFFFFF SWAP1 SWAP2 AND DUP2 MSTORE PUSH1 0x20 ADD PUSH2 0x1CE JUMP JUMPDEST PUSH2 0x1AF PUSH2 0x37B CALLDATASIZE PUSH1 0x4 PUSH2 0x2142 JUMP JUMPDEST PUSH2 0x93C JUMP JUMPDEST PUSH1 0x0 SLOAD PUSH1 0x1 PUSH1 0x1 PUSH1 0xA0 SHL SUB AND PUSH2 0x2FF JUMP JUMPDEST PUSH2 0x1AF PUSH2 0x39F CALLDATASIZE PUSH1 0x4 PUSH2 0x2178 JUMP JUMPDEST PUSH2 0xAFB JUMP JUMPDEST PUSH2 0x1AF PUSH2 0x3B2 CALLDATASIZE PUSH1 0x4 PUSH2 0x21B0 JUMP JUMPDEST PUSH2 0xDB4 JUMP JUMPDEST PUSH2 0x2FF PUSH32 0x0 DUP2 JUMP JUMPDEST PUSH2 0x1AF PUSH2 0x3EC CALLDATASIZE PUSH1 0x4 PUSH2 0x21E0 JUMP JUMPDEST PUSH2 0x107D JUMP JUMPDEST PUSH2 0x1AF PUSH2 0x3FF CALLDATASIZE PUSH1 0x4 PUSH2 0x21F9 JUMP JUMPDEST PUSH2 0x1089 JUMP JUMPDEST PUSH2 0x1AF PUSH2 0x412 CALLDATASIZE PUSH1 0x4 PUSH2 0x21B0 JUMP JUMPDEST PUSH2 0x1132 JUMP JUMPDEST PUSH2 0x1C4 PUSH9 0x3635C9ADC5DEA00000 DUP2 JUMP JUMPDEST PUSH2 0x43A PUSH2 0x435 CALLDATASIZE PUSH1 0x4 PUSH2 0x222E JUMP JUMPDEST PUSH2 0x11C5 JUMP JUMPDEST PUSH1 0x40 MLOAD PUSH2 0x1CE SWAP5 SWAP4 SWAP3 SWAP2 SWAP1 SWAP4 DUP5 MSTORE PUSH1 0x20 DUP5 ADD SWAP3 SWAP1 SWAP3 MSTORE PUSH1 0x1 PUSH1 0x1 PUSH1 0x60 SHL SUB AND PUSH1 0x40 DUP4 ADD MSTORE PUSH1 0x60 DUP3 ADD MSTORE PUSH1 0x80 ADD SWAP1 JUMP JUMPDEST PUSH2 0x1AF PUSH2 0x477 CALLDATASIZE PUSH1 0x4 PUSH2 0x222E JUMP JUMPDEST PUSH2 0x129D JUMP JUMPDEST PUSH2 0x1AF PUSH2 0x48A CALLDATASIZE PUSH1 0x4 PUSH2 0x2178 JUMP JUMPDEST PUSH2 0x13B3 JUMP JUMPDEST PUSH2 0x358 PUSH2 0x3E8 DUP2 JUMP JUMPDEST PUSH2 0x1AF PUSH2 0x4A6 CALLDATASIZE PUSH1 0x4 PUSH2 0x20C2 JUMP JUMPDEST PUSH2 0x1429 JUMP JUMPDEST PUSH2 0x4B3 PUSH2 0x147D JUMP JUMPDEST DUP3 DUP2 EQ DUP1 ISZERO PUSH2 0x4C1 JUMPI POP DUP1 ISZERO ISZERO JUMPDEST PUSH2 0x4CA JUMPI PUSH1 0x0 DUP1 REVERT JUMPDEST PUSH2 0x506 DUP5 DUP5 DUP1 DUP1 PUSH1 0x20 MUL PUSH1 0x20 ADD PUSH1 0x40 MLOAD SWAP1 DUP2 ADD PUSH1 0x40 MSTORE DUP1 SWAP4 SWAP3 SWAP2 SWAP1 DUP2 DUP2 MSTORE PUSH1 0x20 ADD DUP4 DUP4 PUSH1 0x20 MUL DUP1 DUP3 DUP5 CALLDATACOPY PUSH1 0x0 SWAP3 ADD SWAP2 SWAP1 SWAP2 MSTORE POP PUSH2 0x14C3 SWAP3 POP POP POP JUMP JUMPDEST DUP1 MLOAD PUSH2 0x51A SWAP2 PUSH1 0x2 SWAP2 PUSH1 0x20 SWAP1 SWAP2 ADD SWAP1 PUSH2 0x1F89 JUMP JUMPDEST POP PUSH2 0x557 DUP3 DUP3 DUP1 DUP1 PUSH1 0x20 MUL PUSH1 0x20 ADD PUSH1 0x40 MLOAD SWAP1 DUP2 ADD PUSH1 0x40 MSTORE DUP1 SWAP4 SWAP3 SWAP2 SWAP1 DUP2 DUP2 MSTORE PUSH1 0x20 ADD DUP4 DUP4 PUSH1 0x20 MUL DUP1 DUP3 DUP5 CALLDATACOPY PUSH1 0x0 SWAP3 ADD SWAP2 SWAP1 SWAP2 MSTORE POP PUSH2 0x14C3 SWAP3 POP POP POP JUMP JUMPDEST DUP1 MLOAD PUSH2 0x56B SWAP2 PUSH1 0x3 SWAP2 PUSH1 0x20 SWAP1 SWAP2 ADD SWAP1 PUSH2 0x1F89 JUMP JUMPDEST POP PUSH1 0x2 PUSH1 0x0 DUP2 SLOAD DUP2 LT PUSH2 0x580 JUMPI PUSH2 0x580 PUSH2 0x224A JUMP JUMPDEST SWAP1 PUSH1 0x0 MSTORE PUSH1 0x20 PUSH1 0x0 KECCAK256 ADD SLOAD PUSH1 0x0 EQ DUP1 ISZERO PUSH2 0x5C0 JUMPI POP PUSH2 0x3E8 PUSH4 0xFFFFFFFF AND PUSH1 0x3 PUSH1 0x0 DUP2 SLOAD DUP2 LT PUSH2 0x5B2 JUMPI PUSH2 0x5B2 PUSH2 0x224A JUMP JUMPDEST SWAP1 PUSH1 0x0 MSTORE PUSH1 0x20 PUSH1 0x0 KECCAK256 ADD SLOAD LT ISZERO JUMPDEST PUSH2 0x5C9 JUMPI PUSH1 0x0 DUP1 REVERT JUMPDEST PUSH32 0x36636BD3CAF33BDDBD656AADDA2FC454E5093F7CEC3DE1405319EF0EF3AA6BA7 PUSH1 0x2 PUSH1 0x3 PUSH1 0x40 MLOAD PUSH2 0x5FC SWAP3 SWAP2 SWAP1 PUSH2 0x22A1 JUMP JUMPDEST PUSH1 0x40 MLOAD DUP1 SWAP2 SUB SWAP1 LOG1 POP POP POP POP JUMP JUMPDEST PUSH1 0x1 PUSH1 0x1 PUSH1 0xA0 SHL SUB DUP2 AND PUSH1 0x0 SWAP1 DUP2 MSTORE PUSH1 0x5 PUSH1 0x20 MSTORE PUSH1 0x40 DUP2 KECCAK256 PUSH1 0xC SLOAD DUP3 SWAP1 PUSH2 0x65B SWAP1 PUSH1 0x1 PUSH1 0x1 PUSH1 0x60 SHL SUB AND PUSH2 0x656 TIMESTAMP JUMPDEST PUSH1 0x8 SLOAD PUSH1 0x1 PUSH1 0x1 PUSH1 0x60 SHL SUB SWAP2 DUP3 AND SWAP2 PUSH1 0x1 PUSH1 0xA0 SHL SWAP1 SWAP2 DIV AND PUSH2 0x14D8 JUMP JUMPDEST PUSH2 0x14ED JUMP JUMPDEST PUSH1 0xB SLOAD PUSH1 0x9 SLOAD SWAP2 SWAP3 POP SWAP1 ISZERO DUP1 ISZERO SWAP1 PUSH2 0x681 JUMPI POP PUSH1 0xC SLOAD PUSH1 0x1 PUSH1 0x1 PUSH1 0x60 SHL SUB SWAP1 DUP2 AND SWAP1 DUP4 AND GT JUMPDEST ISZERO PUSH2 0x6CF JUMPI PUSH1 0x9 SLOAD PUSH1 0xA SLOAD PUSH1 0xC SLOAD PUSH2 0x6A2 SWAP1 PUSH1 0x1 PUSH1 0x1 PUSH1 0x60 SHL SUB AND DUP6 PUSH2 0x22DC JUMP JUMPDEST PUSH1 0x1 PUSH1 0x1 PUSH1 0x60 SHL SUB AND PUSH2 0x6B5 SWAP2 SWAP1 PUSH2 0x22FB JUMP JUMPDEST PUSH2 0x6BF SWAP2 SWAP1 PUSH2 0x2312 JUMP JUMPDEST PUSH1 0xB SLOAD PUSH2 0x6CC SWAP2 SWAP1 PUSH2 0x2334 JUMP JUMPDEST SWAP1 POP JUMPDEST PUSH9 0x3635C9ADC5DEA00000 DUP4 PUSH1 0x2 ADD SLOAD DUP3 PUSH2 0x6E9 SWAP2 SWAP1 PUSH2 0x2347 JUMP JUMPDEST DUP5 SLOAD PUSH2 0x6F4 SWAP1 PUSH2 0x14FD JUMP JUMPDEST PUSH2 0x6FE SWAP2 SWAP1 PUSH2 0x22FB JUMP JUMPDEST PUSH2 0x708 SWAP2 SWAP1 PUSH2 0x2312 JUMP JUMPDEST DUP4 PUSH1 0x1 ADD SLOAD PUSH2 0x717 SWAP2 SWAP1 PUSH2 0x2334 JUMP JUMPDEST SWAP6 SWAP5 POP POP POP POP POP JUMP JUMPDEST PUSH2 0x728 PUSH2 0x1555 JUMP JUMPDEST PUSH2 0x734 CALLER PUSH1 0x0 DUP1 PUSH2 0x1598 JUMP JUMPDEST PUSH2 0x73D CALLER PUSH2 0x17EB JUMP JUMPDEST PUSH2 0x746 PUSH1 0x1 DUP1 SSTORE JUMP JUMPDEST JUMP JUMPDEST PUSH1 0x1 PUSH1 0x1 PUSH1 0xA0 SHL SUB DUP2 AND PUSH1 0x0 SWAP1 DUP2 MSTORE PUSH1 0x5 PUSH1 0x20 MSTORE PUSH1 0x40 DUP2 KECCAK256 DUP1 SLOAD DUP3 SWAP2 DUP3 SWAP2 DUP3 SWAP2 DUP3 SWAP2 PUSH2 0x775 PUSH1 0x2 DUP3 PUSH2 0x187E JUMP JUMPDEST PUSH1 0x1 DUP4 ADD SLOAD PUSH1 0x2 DUP5 ADD SLOAD PUSH1 0x3 SWAP1 SWAP5 ADD SLOAD SWAP3 SWAP11 SWAP2 SWAP10 POP SWAP8 POP SWAP2 SWAP6 POP SWAP4 POP SWAP2 POP POP JUMP JUMPDEST PUSH2 0x79E PUSH2 0x147D JUMP JUMPDEST PUSH2 0x7AB PUSH1 0x0 DUP1 PUSH1 0x0 PUSH2 0x1598 JUMP JUMPDEST PUSH1 0x8 SLOAD TIMESTAMP SWAP1 PUSH1 0x1 PUSH1 0xA0 SHL SWAP1 DIV PUSH1 0x1 PUSH1 0x1 PUSH1 0x60 SHL SUB SWAP1 DUP2 AND SWAP1 DUP3 AND LT PUSH2 0x7F9 JUMPI PUSH1 0x1 PUSH1 0x1 PUSH1 0x60 SHL SUB DUP5 AND PUSH2 0x7E7 DUP5 PUSH9 0x3635C9ADC5DEA00000 PUSH2 0x22FB JUMP JUMPDEST PUSH2 0x7F1 SWAP2 SWAP1 PUSH2 0x2312 JUMP JUMPDEST PUSH1 0xA SSTORE PUSH2 0x85D JUMP JUMPDEST PUSH1 0xA SLOAD PUSH1 0x8 SLOAD PUSH1 0x1 PUSH1 0x1 PUSH1 0x60 SHL SUB DUP1 DUP8 AND SWAP3 SWAP2 PUSH2 0x81F SWAP2 DUP6 SWAP2 PUSH1 0x1 PUSH1 0xA0 SHL SWAP1 DIV AND PUSH2 0x22DC JUMP JUMPDEST PUSH1 0x1 PUSH1 0x1 PUSH1 0x60 SHL SUB AND PUSH2 0x832 SWAP2 SWAP1 PUSH2 0x22FB JUMP JUMPDEST PUSH2 0x845 DUP6 PUSH9 0x3635C9ADC5DEA00000 PUSH2 0x22FB JUMP JUMPDEST PUSH2 0x84F SWAP2 SWAP1 PUSH2 0x2334 JUMP JUMPDEST PUSH2 0x859 SWAP2 SWAP1 PUSH2 0x2312 JUMP JUMPDEST PUSH1 0xA SSTORE JUMPDEST PUSH1 0xC DUP1 SLOAD PUSH12 0xFFFFFFFFFFFFFFFFFFFFFFFF NOT AND PUSH1 0x1 PUSH1 0x1 PUSH1 0x60 SHL SUB DUP4 AND OR SWAP1 SSTORE PUSH2 0x887 DUP5 DUP3 PUSH2 0x235A JUMP JUMPDEST PUSH1 0x8 DUP1 SLOAD PUSH1 0x1 PUSH1 0x1 PUSH1 0x60 SHL SUB SWAP3 SWAP1 SWAP3 AND PUSH1 0x1 PUSH1 0xA0 SHL MUL PUSH1 0x1 PUSH1 0x1 PUSH1 0xA0 SHL SUB SWAP1 SWAP3 AND SWAP2 SWAP1 SWAP2 OR SWAP1 SSTORE DUP2 ISZERO PUSH2 0x8BD JUMPI PUSH2 0x8BD DUP3 PUSH2 0x18DC JUMP JUMPDEST PUSH1 0x9 SLOAD PUSH1 0xA SLOAD PUSH1 0xB SLOAD PUSH1 0xC SLOAD PUSH1 0x8 SLOAD PUSH1 0x40 DUP1 MLOAD SWAP6 DUP7 MSTORE PUSH1 0x20 DUP7 ADD SWAP5 SWAP1 SWAP5 MSTORE SWAP3 DUP5 ADD SWAP2 SWAP1 SWAP2 MSTORE PUSH1 0x1 PUSH1 0x1 PUSH1 0x60 SHL SUB SWAP1 DUP2 AND PUSH1 0x60 DUP5 ADD MSTORE PUSH1 0x1 PUSH1 0xA0 SHL SWAP1 SWAP2 DIV AND PUSH1 0x80 DUP3 ADD MSTORE PUSH32 0xE111F67A87ACE56A1496291914B8E0DA23748FFDDAA8BC98D0F4D4DFB51796A5 SWAP1 PUSH1 0xA0 ADD PUSH2 0x5FC JUMP JUMPDEST PUSH2 0x932 PUSH2 0x147D JUMP JUMPDEST PUSH2 0x746 PUSH1 0x0 PUSH2 0x1990 JUMP JUMPDEST PUSH2 0x944 PUSH2 0x1555 JUMP JUMPDEST CALLER PUSH1 0x0 DUP2 DUP2 MSTORE PUSH1 0x5 PUSH1 0x20 MSTORE PUSH1 0x40 SWAP1 KECCAK256 PUSH1 0x3 ADD SLOAD DUP5 SWAP1 PUSH2 0x964 SWAP1 PUSH1 0x1 PUSH2 0x2334 JUMP JUMPDEST DUP2 LT PUSH2 0x9B7 JUMPI PUSH1 0x40 MLOAD PUSH3 0x461BCD PUSH1 0xE5 SHL DUP2 MSTORE PUSH1 0x20 PUSH1 0x4 DUP3 ADD MSTORE PUSH1 0x1D PUSH1 0x24 DUP3 ADD MSTORE PUSH32 0x50726F66697453686172653A496E76616C6964205374616B6520494421000000 PUSH1 0x44 DUP3 ADD MSTORE PUSH1 0x64 ADD JUMPDEST PUSH1 0x40 MLOAD DUP1 SWAP2 SUB SWAP1 REVERT JUMPDEST DUP3 ISZERO PUSH2 0x9D5 JUMPI PUSH2 0x9D5 CALLER PUSH1 0x7 SLOAD PUSH1 0x1 PUSH1 0x1 PUSH1 0xA0 SHL SUB AND SWAP1 ADDRESS DUP7 PUSH2 0x19F8 JUMP JUMPDEST CALLER PUSH1 0x0 SWAP1 DUP2 MSTORE PUSH1 0x6 PUSH1 0x20 SWAP1 DUP2 MSTORE PUSH1 0x40 DUP1 DUP4 KECCAK256 DUP9 DUP5 MSTORE DUP3 MSTORE DUP1 DUP4 KECCAK256 PUSH1 0x1 PUSH1 0x1 PUSH1 0x60 SHL SUB DUP9 AND DUP5 MSTORE PUSH1 0x4 SWAP1 SWAP3 MSTORE SWAP1 SWAP2 KECCAK256 SLOAD PUSH1 0x2 DUP3 ADD SLOAD PUSH4 0xFFFFFFFF SWAP2 DUP3 AND PUSH1 0x1 PUSH1 0x60 SHL SWAP1 SWAP2 DIV SWAP1 SWAP2 AND GT ISZERO PUSH2 0xA90 JUMPI PUSH1 0x40 MLOAD PUSH3 0x461BCD PUSH1 0xE5 SHL DUP2 MSTORE PUSH1 0x20 PUSH1 0x4 DUP3 ADD MSTORE PUSH1 0x23 PUSH1 0x24 DUP3 ADD MSTORE PUSH32 0x50726F66697453686172653A557365206C6F6E676572206C6F636B5F70657269 PUSH1 0x44 DUP3 ADD MSTORE PUSH32 0x6F64210000000000000000000000000000000000000000000000000000000000 PUSH1 0x64 DUP3 ADD MSTORE PUSH1 0x84 ADD PUSH2 0x9AE JUMP JUMPDEST DUP1 SLOAD PUSH1 0x0 SWAP1 PUSH2 0xA9F SWAP1 DUP7 PUSH2 0x2334 JUMP JUMPDEST SWAP1 POP PUSH2 0xAAD CALLER DUP4 SLOAD DUP10 PUSH2 0x1A74 JUMP JUMPDEST DUP7 PUSH1 0x0 SUB PUSH2 0xADD JUMPI CALLER PUSH1 0x0 SWAP1 DUP2 MSTORE PUSH1 0x5 PUSH1 0x20 MSTORE PUSH1 0x40 DUP2 KECCAK256 PUSH1 0x3 ADD DUP1 SLOAD SWAP1 SWAP2 SWAP1 PUSH2 0xAD5 SWAP1 PUSH2 0x2379 JUMP JUMPDEST SWAP2 DUP3 SWAP1 SSTORE POP SWAP7 POP JUMPDEST PUSH2 0xAE9 CALLER DUP8 DUP4 DUP11 PUSH2 0x1BA4 JUMP JUMPDEST POP POP POP POP PUSH2 0xAF6 PUSH1 0x1 DUP1 SSTORE JUMP JUMPDEST POP POP POP JUMP JUMPDEST PUSH2 0xB03 PUSH2 0x1555 JUMP JUMPDEST PUSH2 0xB38 PUSH32 0x0 PUSH1 0x1 PUSH1 0x1 PUSH1 0xA0 SHL SUB AND CALLER ADDRESS DUP5 PUSH2 0x19F8 JUMP JUMPDEST PUSH1 0x40 MLOAD PUSH32 0x95EA7B300000000000000000000000000000000000000000000000000000000 DUP2 MSTORE PUSH1 0x1 PUSH1 0x1 PUSH1 0xA0 SHL SUB PUSH32 0x0 DUP2 AND PUSH1 0x4 DUP4 ADD MSTORE PUSH1 0x24 DUP3 ADD DUP4 SWAP1 MSTORE PUSH32 0x0 AND SWAP1 PUSH4 0x95EA7B3 SWAP1 PUSH1 0x44 ADD PUSH1 0x20 PUSH1 0x40 MLOAD DUP1 DUP4 SUB DUP2 PUSH1 0x0 DUP8 GAS CALL ISZERO DUP1 ISZERO PUSH2 0xBE0 JUMPI RETURNDATASIZE PUSH1 0x0 DUP1 RETURNDATACOPY RETURNDATASIZE PUSH1 0x0 REVERT JUMPDEST POP POP POP POP PUSH1 0x40 MLOAD RETURNDATASIZE PUSH1 0x1F NOT PUSH1 0x1F DUP3 ADD AND DUP3 ADD DUP1 PUSH1 0x40 MSTORE POP DUP2 ADD SWAP1 PUSH2 0xC04 SWAP2 SWAP1 PUSH2 0x2392 JUMP JUMPDEST POP PUSH1 0x40 MLOAD PUSH32 0xD93C04A000000000000000000000000000000000000000000000000000000000 DUP2 MSTORE PUSH1 0x1 PUSH1 0x1 PUSH1 0x60 SHL SUB DUP4 AND PUSH1 0x4 DUP3 ADD MSTORE PUSH1 0x24 DUP2 ADD DUP3 SWAP1 MSTORE PUSH1 0x0 SWAP1 DUP2 SWAP1 PUSH1 0x1 PUSH1 0x1 PUSH1 0xA0 SHL SUB PUSH32 0x0 AND SWAP1 PUSH4 0xD93C04A0 SWAP1 PUSH1 0x44 ADD PUSH1 0x40 DUP1 MLOAD DUP1 DUP4 SUB DUP2 PUSH1 0x0 DUP8 GAS CALL ISZERO DUP1 ISZERO PUSH2 0xC98 JUMPI RETURNDATASIZE PUSH1 0x0 DUP1 RETURNDATACOPY RETURNDATASIZE PUSH1 0x0 REVERT JUMPDEST POP POP POP POP PUSH1 0x40 MLOAD RETURNDATASIZE PUSH1 0x1F NOT PUSH1 0x1F DUP3 ADD AND DUP3 ADD DUP1 PUSH1 0x40 MSTORE POP DUP2 ADD SWAP1 PUSH2 0xCBC SWAP2 SWAP1 PUSH2 0x23AF JUMP JUMPDEST SWAP2 POP SWAP2 POP PUSH1 0x0 DUP5 PUSH1 0x1 PUSH1 0x1 PUSH1 0x60 SHL SUB AND PUSH1 0x0 EQ PUSH2 0xCFD JUMPI CALLER PUSH1 0x0 SWAP1 DUP2 MSTORE PUSH1 0x5 PUSH1 0x20 MSTORE PUSH1 0x40 DUP2 KECCAK256 PUSH1 0x3 ADD DUP1 SLOAD SWAP1 SWAP2 SWAP1 PUSH2 0xCF3 SWAP1 PUSH2 0x2379 JUMP JUMPDEST SWAP2 DUP3 SWAP1 SSTORE POP PUSH2 0xD00 JUMP JUMPDEST PUSH1 0x0 JUMPDEST SWAP1 POP PUSH1 0x0 DUP2 GT PUSH2 0xD78 JUMPI PUSH1 0x40 MLOAD PUSH3 0x461BCD PUSH1 0xE5 SHL DUP2 MSTORE PUSH1 0x20 PUSH1 0x4 DUP3 ADD MSTORE PUSH1 0x2F PUSH1 0x24 DUP3 ADD MSTORE PUSH32 0x50726F66697453686172653A7374616B655F6964206D75737420626520677265 PUSH1 0x44 DUP3 ADD MSTORE PUSH32 0x61746572207468616E207A65726F210000000000000000000000000000000000 PUSH1 0x64 DUP3 ADD MSTORE PUSH1 0x84 ADD PUSH2 0x9AE JUMP JUMPDEST CALLER PUSH1 0x0 DUP2 DUP2 MSTORE PUSH1 0x6 PUSH1 0x20 SWAP1 DUP2 MSTORE PUSH1 0x40 DUP1 DUP4 KECCAK256 DUP6 DUP5 MSTORE SWAP1 SWAP2 MSTORE SWAP1 KECCAK256 PUSH1 0x1 ADD DUP5 SWAP1 SSTORE PUSH2 0xDA4 SWAP1 DUP7 DUP5 DUP5 PUSH2 0x1BA4 JUMP JUMPDEST POP POP POP PUSH2 0xDB0 PUSH1 0x1 DUP1 SSTORE JUMP JUMPDEST POP POP JUMP JUMPDEST PUSH2 0xDBC PUSH2 0x1555 JUMP JUMPDEST CALLER PUSH1 0x0 DUP2 DUP2 MSTORE PUSH1 0x5 PUSH1 0x20 MSTORE PUSH1 0x40 SWAP1 KECCAK256 PUSH1 0x3 ADD SLOAD DUP4 SWAP1 PUSH2 0xDDC SWAP1 PUSH1 0x1 PUSH2 0x2334 JUMP JUMPDEST DUP2 LT PUSH2 0xE2A JUMPI PUSH1 0x40 MLOAD PUSH3 0x461BCD PUSH1 0xE5 SHL DUP2 MSTORE PUSH1 0x20 PUSH1 0x4 DUP3 ADD MSTORE PUSH1 0x1D PUSH1 0x24 DUP3 ADD MSTORE PUSH32 0x50726F66697453686172653A496E76616C6964205374616B6520494421000000 PUSH1 0x44 DUP3 ADD MSTORE PUSH1 0x64 ADD PUSH2 0x9AE JUMP JUMPDEST CALLER PUSH1 0x0 SWAP1 DUP2 MSTORE PUSH1 0x6 PUSH1 0x20 SWAP1 DUP2 MSTORE PUSH1 0x40 DUP1 DUP4 KECCAK256 DUP8 DUP5 MSTORE SWAP1 SWAP2 MSTORE SWAP1 KECCAK256 PUSH1 0x2 DUP2 ADD SLOAD PUSH1 0x1 PUSH1 0x1 PUSH1 0x60 SHL SUB SWAP1 DUP2 AND TIMESTAMP SWAP1 SWAP2 AND LT ISZERO PUSH2 0xECC JUMPI PUSH1 0x40 MLOAD PUSH3 0x461BCD PUSH1 0xE5 SHL DUP2 MSTORE PUSH1 0x20 PUSH1 0x4 DUP3 ADD MSTORE PUSH1 0x2E PUSH1 0x24 DUP3 ADD MSTORE PUSH32 0x50726F66697453686172653A4561726C79205769746864726177616C20697320 PUSH1 0x44 DUP3 ADD MSTORE PUSH32 0x6E6F74207065726D697474656421000000000000000000000000000000000000 PUSH1 0x64 DUP3 ADD MSTORE PUSH1 0x84 ADD PUSH2 0x9AE JUMP JUMPDEST DUP1 SLOAD PUSH2 0xF1A JUMPI PUSH1 0x40 MLOAD PUSH3 0x461BCD PUSH1 0xE5 SHL DUP2 MSTORE PUSH1 0x20 PUSH1 0x4 DUP3 ADD MSTORE PUSH1 0x1C PUSH1 0x24 DUP3 ADD MSTORE PUSH32 0x50726F66697453686172653A4E6F7468696E6720746F20636C61696D00000000 PUSH1 0x44 DUP3 ADD MSTORE PUSH1 0x64 ADD PUSH2 0x9AE JUMP JUMPDEST PUSH1 0x1 DUP2 ADD SLOAD ISZERO PUSH2 0x1049 JUMPI PUSH1 0x1 DUP2 ADD SLOAD PUSH1 0x40 MLOAD PUSH32 0x379607F500000000000000000000000000000000000000000000000000000000 DUP2 MSTORE PUSH1 0x0 SWAP2 PUSH1 0x1 PUSH1 0x1 PUSH1 0xA0 SHL SUB PUSH32 0x0 AND SWAP2 PUSH4 0x379607F5 SWAP2 PUSH2 0xF93 SWAP2 PUSH1 0x4 ADD SWAP1 DUP2 MSTORE PUSH1 0x20 ADD SWAP1 JUMP JUMPDEST PUSH1 0x20 PUSH1 0x40 MLOAD DUP1 DUP4 SUB DUP2 PUSH1 0x0 DUP8 GAS CALL ISZERO DUP1 ISZERO PUSH2 0xFB2 JUMPI RETURNDATASIZE PUSH1 0x0 DUP1 RETURNDATACOPY RETURNDATASIZE PUSH1 0x0 REVERT JUMPDEST POP POP POP POP PUSH1 0x40 MLOAD RETURNDATASIZE PUSH1 0x1F NOT PUSH1 0x1F DUP3 ADD AND DUP3 ADD DUP1 PUSH1 0x40 MSTORE POP DUP2 ADD SWAP1 PUSH2 0xFD6 SWAP2 SWAP1 PUSH2 0x23D3 JUMP JUMPDEST GT PUSH2 0x1049 JUMPI PUSH1 0x40 MLOAD PUSH3 0x461BCD PUSH1 0xE5 SHL DUP2 MSTORE PUSH1 0x20 PUSH1 0x4 DUP3 ADD MSTORE PUSH1 0x2D PUSH1 0x24 DUP3 ADD MSTORE PUSH32 0x50726F66697453686172653A43616E6E6F7420636C61696D2078435245444920 PUSH1 0x44 DUP3 ADD MSTORE PUSH32 0x66726F6D204D6F64756C65582100000000000000000000000000000000000000 PUSH1 0x64 DUP3 ADD MSTORE PUSH1 0x84 ADD PUSH2 0x9AE JUMP JUMPDEST PUSH2 0x1062 CALLER DUP3 SLOAD PUSH1 0x7 SLOAD PUSH1 0x1 PUSH1 0x1 PUSH1 0xA0 SHL SUB AND SWAP2 SWAP1 PUSH2 0x1DD1 JUMP JUMPDEST PUSH2 0x106E CALLER DUP3 SLOAD DUP8 PUSH2 0x1A74 JUMP JUMPDEST DUP4 ISZERO PUSH2 0xDA4 JUMPI PUSH2 0xDA4 CALLER PUSH2 0x17EB JUMP JUMPDEST PUSH2 0x1086 DUP2 PUSH2 0x18DC JUMP JUMPDEST POP JUMP JUMPDEST PUSH2 0x1091 PUSH2 0x147D JUMP JUMPDEST PUSH1 0x0 DUP3 PUSH1 0x1 PUSH1 0x1 PUSH1 0x60 SHL SUB AND GT DUP1 ISZERO PUSH2 0x10BF JUMPI POP PUSH4 0xFFFFFFFF DUP2 AND PUSH2 0x3E8 LT DUP1 PUSH2 0x10BF JUMPI POP PUSH4 0xFFFFFFFF DUP2 AND ISZERO JUMPDEST PUSH2 0x10C8 JUMPI PUSH1 0x0 DUP1 REVERT JUMPDEST PUSH1 0x1 PUSH1 0x1 PUSH1 0x60 SHL SUB DUP3 AND PUSH1 0x0 DUP2 DUP2 MSTORE PUSH1 0x4 PUSH1 0x20 SWAP1 DUP2 MSTORE PUSH1 0x40 SWAP2 DUP3 SWAP1 KECCAK256 DUP1 SLOAD PUSH4 0xFFFFFFFF NOT AND PUSH4 0xFFFFFFFF DUP7 AND SWAP1 DUP2 OR SWAP1 SWAP2 SSTORE DUP3 MLOAD SWAP4 DUP5 MSTORE SWAP1 DUP4 ADD MSTORE PUSH32 0xDFDE28BA1CFAE98DB642E3246355850B37332D75F04945DA4676E38AD045386 SWAP2 ADD PUSH1 0x40 MLOAD DUP1 SWAP2 SUB SWAP1 LOG1 POP POP JUMP JUMPDEST PUSH2 0x113A PUSH2 0x1555 JUMP JUMPDEST PUSH1 0x0 DUP3 GT PUSH2 0x118A JUMPI PUSH1 0x40 MLOAD PUSH3 0x461BCD PUSH1 0xE5 SHL DUP2 MSTORE PUSH1 0x20 PUSH1 0x4 DUP3 ADD MSTORE PUSH1 0x11 PUSH1 0x24 DUP3 ADD MSTORE PUSH32 0x43616E6E6F7420756E7374616B65203021000000000000000000000000000000 PUSH1 0x44 DUP3 ADD MSTORE PUSH1 0x64 ADD PUSH2 0x9AE JUMP JUMPDEST PUSH2 0x11A1 CALLER PUSH1 0x7 SLOAD PUSH1 0x1 PUSH1 0x1 PUSH1 0xA0 SHL SUB AND SWAP1 DUP5 PUSH2 0x1DD1 JUMP JUMPDEST PUSH2 0x11AD CALLER DUP4 PUSH1 0x0 PUSH2 0x1A74 JUMP JUMPDEST DUP1 ISZERO PUSH2 0x11BC JUMPI PUSH2 0x11BC CALLER PUSH2 0x17EB JUMP JUMPDEST PUSH2 0xDB0 PUSH1 0x1 DUP1 SSTORE JUMP JUMPDEST PUSH1 0x1 PUSH1 0x1 PUSH1 0xA0 SHL SUB DUP3 AND PUSH1 0x0 SWAP1 DUP2 MSTORE PUSH1 0x5 PUSH1 0x20 MSTORE PUSH1 0x40 DUP2 KECCAK256 PUSH1 0x3 ADD SLOAD DUP2 SWAP1 DUP2 SWAP1 DUP2 SWAP1 DUP7 SWAP1 DUP7 SWAP1 PUSH2 0x11F6 SWAP1 PUSH1 0x1 PUSH2 0x2334 JUMP JUMPDEST DUP2 LT PUSH2 0x1244 JUMPI PUSH1 0x40 MLOAD PUSH3 0x461BCD PUSH1 0xE5 SHL DUP2 MSTORE PUSH1 0x20 PUSH1 0x4 DUP3 ADD MSTORE PUSH1 0x1D PUSH1 0x24 DUP3 ADD MSTORE PUSH32 0x50726F66697453686172653A496E76616C6964205374616B6520494421000000 PUSH1 0x44 DUP3 ADD MSTORE PUSH1 0x64 ADD PUSH2 0x9AE JUMP JUMPDEST POP POP POP POP PUSH1 0x1 PUSH1 0x1 PUSH1 0xA0 SHL SUB SWAP4 SWAP1 SWAP4 AND PUSH1 0x0 SWAP1 DUP2 MSTORE PUSH1 0x6 PUSH1 0x20 SWAP1 DUP2 MSTORE PUSH1 0x40 DUP1 DUP4 KECCAK256 SWAP5 DUP4 MSTORE SWAP4 SWAP1 MSTORE SWAP2 SWAP1 SWAP2 KECCAK256 DUP1 SLOAD PUSH1 0x1 DUP3 ADD SLOAD PUSH1 0x2 SWAP1 SWAP3 ADD SLOAD SWAP1 SWAP5 SWAP2 SWAP4 POP PUSH1 0x1 PUSH1 0x1 PUSH1 0x60 SHL SUB DUP2 AND SWAP3 POP PUSH1 0x1 PUSH1 0x60 SHL SWAP1 DIV PUSH4 0xFFFFFFFF AND SWAP1 JUMP JUMPDEST PUSH2 0x12A5 PUSH2 0x147D JUMP JUMPDEST PUSH1 0x0 DUP2 GT PUSH2 0x130B JUMPI PUSH1 0x40 MLOAD PUSH3 0x461BCD PUSH1 0xE5 SHL DUP2 MSTORE PUSH1 0x20 PUSH1 0x4 DUP3 ADD MSTORE PUSH1 0x2D PUSH1 0x24 DUP3 ADD MSTORE PUSH32 0x50726F66697453686172653A616D6F756E74206D757374206265206772656174 PUSH1 0x44 DUP3 ADD MSTORE PUSH13 0x6572207468616E207A65726F21 PUSH1 0x98 SHL PUSH1 0x64 DUP3 ADD MSTORE PUSH1 0x84 ADD PUSH2 0x9AE JUMP JUMPDEST PUSH1 0x8 SLOAD PUSH2 0x132C SWAP1 PUSH3 0x34BC00 SWAP1 PUSH1 0x1 PUSH1 0xA0 SHL SWAP1 DIV PUSH1 0x1 PUSH1 0x1 PUSH1 0x60 SHL SUB AND PUSH2 0x235A JUMP JUMPDEST PUSH1 0x1 PUSH1 0x1 PUSH1 0x60 SHL SUB AND TIMESTAMP PUSH1 0x1 PUSH1 0x1 PUSH1 0x60 SHL SUB AND LT ISZERO DUP1 PUSH2 0x134C JUMPI POP PUSH1 0x9 SLOAD ISZERO JUMPDEST PUSH2 0x1355 JUMPI PUSH1 0x0 DUP1 REVERT JUMPDEST PUSH1 0x8 SLOAD PUSH2 0x136C SWAP1 PUSH1 0x1 PUSH1 0x1 PUSH1 0xA0 SHL SUB AND DUP4 DUP4 PUSH2 0x1DD1 JUMP JUMPDEST DUP2 PUSH1 0x1 PUSH1 0x1 PUSH1 0xA0 SHL SUB AND PUSH32 0x1D3EEE4CA001CFF39EEC6EC7615AACF2F2BD61791273830728BA00CCBD6E1337 DUP3 PUSH1 0x40 MLOAD PUSH2 0x13A7 SWAP2 DUP2 MSTORE PUSH1 0x20 ADD SWAP1 JUMP JUMPDEST PUSH1 0x40 MLOAD DUP1 SWAP2 SUB SWAP1 LOG2 POP POP JUMP JUMPDEST PUSH2 0x13BB PUSH2 0x1555 JUMP JUMPDEST PUSH2 0x13D3 CALLER PUSH1 0x7 SLOAD PUSH1 0x1 PUSH1 0x1 PUSH1 0xA0 SHL SUB AND SWAP1 ADDRESS DUP5 PUSH2 0x19F8 JUMP JUMPDEST PUSH1 0x0 PUSH1 0x1 PUSH1 0x1 PUSH1 0x60 SHL SUB DUP4 AND ISZERO PUSH2 0x140E JUMPI CALLER PUSH1 0x0 SWAP1 DUP2 MSTORE PUSH1 0x5 PUSH1 0x20 MSTORE PUSH1 0x40 DUP2 KECCAK256 PUSH1 0x3 ADD DUP1 SLOAD SWAP1 SWAP2 SWAP1 PUSH2 0x1404 SWAP1 PUSH2 0x2379 JUMP JUMPDEST SWAP2 DUP3 SWAP1 SSTORE POP PUSH2 0x1411 JUMP JUMPDEST PUSH1 0x0 JUMPDEST SWAP1 POP PUSH2 0x141F CALLER DUP5 DUP5 DUP5 PUSH2 0x1BA4 JUMP JUMPDEST POP PUSH2 0xDB0 PUSH1 0x1 DUP1 SSTORE JUMP JUMPDEST PUSH2 0x1431 PUSH2 0x147D JUMP JUMPDEST PUSH1 0x1 PUSH1 0x1 PUSH1 0xA0 SHL SUB DUP2 AND PUSH2 0x1474 JUMPI PUSH1 0x40 MLOAD PUSH32 0x1E4FBDF700000000000000000000000000000000000000000000000000000000 DUP2 MSTORE PUSH1 0x0 PUSH1 0x4 DUP3 ADD MSTORE PUSH1 0x24 ADD PUSH2 0x9AE JUMP JUMPDEST PUSH2 0x1086 DUP2 PUSH2 0x1990 JUMP JUMPDEST PUSH1 0x0 SLOAD PUSH1 0x1 PUSH1 0x1 PUSH1 0xA0 SHL SUB AND CALLER EQ PUSH2 0x746 JUMPI PUSH1 0x40 MLOAD PUSH32 0x118CDAA700000000000000000000000000000000000000000000000000000000 DUP2 MSTORE CALLER PUSH1 0x4 DUP3 ADD MSTORE PUSH1 0x24 ADD PUSH2 0x9AE JUMP JUMPDEST PUSH1 0x60 PUSH2 0x14D1 DUP3 PUSH2 0x1E02 PUSH2 0x1E06 JUMP JUMPDEST POP SWAP1 SWAP2 SWAP1 POP JUMP JUMPDEST PUSH1 0x0 DUP3 DUP3 XOR DUP3 DUP5 LT MUL DUP3 XOR JUMPDEST SWAP1 POP JUMPDEST SWAP3 SWAP2 POP POP JUMP JUMPDEST PUSH1 0x0 DUP3 DUP3 XOR DUP3 DUP5 GT MUL DUP3 XOR PUSH2 0x14E4 JUMP JUMPDEST PUSH1 0x0 DUP1 PUSH1 0x3 PUSH1 0x1 PUSH2 0x150F PUSH1 0x2 DUP7 PUSH2 0x187E JUMP JUMPDEST PUSH2 0x1519 SWAP2 SWAP1 PUSH2 0x2347 JUMP JUMPDEST DUP2 SLOAD DUP2 LT PUSH2 0x1529 JUMPI PUSH2 0x1529 PUSH2 0x224A JUMP JUMPDEST PUSH1 0x0 SWAP2 DUP3 MSTORE PUSH1 0x20 SWAP1 SWAP2 KECCAK256 ADD SLOAD SWAP1 POP PUSH2 0x3E8 PUSH2 0x1544 DUP5 DUP4 PUSH2 0x22FB JUMP JUMPDEST PUSH2 0x154E SWAP2 SWAP1 PUSH2 0x2312 JUMP JUMPDEST SWAP4 SWAP3 POP POP POP JUMP JUMPDEST PUSH1 0x2 PUSH1 0x1 SLOAD SUB PUSH2 0x1591 JUMPI PUSH1 0x40 MLOAD PUSH32 0x3EE5AEB500000000000000000000000000000000000000000000000000000000 DUP2 MSTORE PUSH1 0x4 ADD PUSH1 0x40 MLOAD DUP1 SWAP2 SUB SWAP1 REVERT JUMPDEST PUSH1 0x2 PUSH1 0x1 SSTORE JUMP JUMPDEST PUSH1 0xC SLOAD PUSH1 0x0 SWAP1 PUSH2 0x15B4 SWAP1 PUSH1 0x1 PUSH1 0x1 PUSH1 0x60 SHL SUB AND PUSH2 0x656 TIMESTAMP PUSH2 0x639 JUMP JUMPDEST PUSH1 0x9 SLOAD SWAP1 SWAP2 POP ISZERO DUP1 ISZERO SWAP1 PUSH2 0x15D6 JUMPI POP PUSH1 0xC SLOAD PUSH1 0x1 PUSH1 0x1 PUSH1 0x60 SHL SUB SWAP1 DUP2 AND SWAP1 DUP3 AND GT JUMPDEST ISZERO PUSH2 0x162C JUMPI PUSH1 0x9 SLOAD PUSH1 0xA SLOAD PUSH1 0xC SLOAD PUSH2 0x15F7 SWAP1 PUSH1 0x1 PUSH1 0x1 PUSH1 0x60 SHL SUB AND DUP5 PUSH2 0x22DC JUMP JUMPDEST PUSH1 0x1 PUSH1 0x1 PUSH1 0x60 SHL SUB AND PUSH2 0x160A SWAP2 SWAP1 PUSH2 0x22FB JUMP JUMPDEST PUSH2 0x1614 SWAP2 SWAP1 PUSH2 0x2312 JUMP JUMPDEST PUSH1 0xB DUP1 SLOAD PUSH1 0x0 SWAP1 PUSH2 0x1626 SWAP1 DUP5 SWAP1 PUSH2 0x2334 JUMP JUMPDEST SWAP1 SWAP2 SSTORE POP POP JUMPDEST PUSH1 0xC DUP1 SLOAD PUSH12 0xFFFFFFFFFFFFFFFFFFFFFFFF NOT AND PUSH1 0x1 PUSH1 0x1 PUSH1 0x60 SHL SUB DUP4 AND OR SWAP1 SSTORE PUSH1 0x1 PUSH1 0x1 PUSH1 0xA0 SHL SUB DUP5 AND ISZERO PUSH2 0x17E5 JUMPI PUSH1 0x1 PUSH1 0x1 PUSH1 0xA0 SHL SUB DUP5 AND PUSH1 0x0 SWAP1 DUP2 MSTORE PUSH1 0x5 PUSH1 0x20 MSTORE PUSH1 0x40 DUP2 KECCAK256 DUP1 SLOAD SWAP1 SWAP2 SWAP1 PUSH2 0x1681 SWAP1 PUSH2 0x14FD JUMP JUMPDEST DUP3 SLOAD SWAP1 SWAP2 POP ISZERO PUSH2 0x16D4 JUMPI PUSH1 0x2 DUP3 ADD SLOAD PUSH1 0xB SLOAD PUSH9 0x3635C9ADC5DEA00000 SWAP2 PUSH2 0x16A7 SWAP2 PUSH2 0x2347 JUMP JUMPDEST PUSH2 0x16B1 SWAP1 DUP4 PUSH2 0x22FB JUMP JUMPDEST PUSH2 0x16BB SWAP2 SWAP1 PUSH2 0x2312 JUMP JUMPDEST DUP3 PUSH1 0x1 ADD PUSH1 0x0 DUP3 DUP3 SLOAD PUSH2 0x16CE SWAP2 SWAP1 PUSH2 0x2334 JUMP JUMPDEST SWAP1 SWAP2 SSTORE POP POP JUMPDEST PUSH1 0xB SLOAD PUSH1 0x2 DUP4 ADD SSTORE DUP2 SLOAD DUP5 SWAP1 PUSH2 0x16EB SWAP1 DUP8 SWAP1 PUSH2 0x2334 JUMP JUMPDEST PUSH2 0x16F5 SWAP2 SWAP1 PUSH2 0x2347 JUMP JUMPDEST DUP1 DUP4 SSTORE DUP2 SWAP1 PUSH2 0x1703 SWAP1 PUSH2 0x14FD JUMP JUMPDEST PUSH1 0x9 SLOAD PUSH2 0x1710 SWAP2 SWAP1 PUSH2 0x2334 JUMP JUMPDEST PUSH2 0x171A SWAP2 SWAP1 PUSH2 0x2347 JUMP JUMPDEST PUSH1 0x9 SSTORE DUP2 SLOAD PUSH1 0x1 DUP4 ADD SLOAD PUSH1 0x2 DUP5 ADD SLOAD PUSH1 0x40 DUP1 MLOAD SWAP4 DUP5 MSTORE PUSH1 0x20 DUP5 ADD SWAP3 SWAP1 SWAP3 MSTORE SWAP1 DUP3 ADD MSTORE PUSH1 0x1 PUSH1 0x1 PUSH1 0xA0 SHL SUB DUP8 AND SWAP1 PUSH32 0xF1DA46A1CA3E37613208B2A3D7EC556866482D77A0005D6168D73270CED6B26A SWAP1 PUSH1 0x60 ADD PUSH1 0x40 MLOAD DUP1 SWAP2 SUB SWAP1 LOG2 PUSH1 0x9 SLOAD PUSH1 0xA SLOAD PUSH1 0xB SLOAD PUSH1 0xC SLOAD PUSH1 0x8 SLOAD PUSH1 0x40 DUP1 MLOAD SWAP6 DUP7 MSTORE PUSH1 0x20 DUP7 ADD SWAP5 SWAP1 SWAP5 MSTORE DUP5 DUP5 ADD SWAP3 SWAP1 SWAP3 MSTORE PUSH1 0x1 PUSH1 0x1 PUSH1 0x60 SHL SUB SWAP1 DUP2 AND PUSH1 0x60 DUP6 ADD MSTORE PUSH1 0x1 PUSH1 0xA0 SHL SWAP1 SWAP2 DIV AND PUSH1 0x80 DUP4 ADD MSTORE MLOAD PUSH32 0xE111F67A87ACE56A1496291914B8E0DA23748FFDDAA8BC98D0F4D4DFB51796A5 SWAP2 DUP2 SWAP1 SUB PUSH1 0xA0 ADD SWAP1 LOG1 POP POP JUMPDEST POP POP POP POP JUMP JUMPDEST PUSH1 0x1 PUSH1 0x1 PUSH1 0xA0 SHL SUB DUP2 AND PUSH1 0x0 SWAP1 DUP2 MSTORE PUSH1 0x5 PUSH1 0x20 MSTORE PUSH1 0x40 SWAP1 KECCAK256 PUSH1 0x1 DUP2 ADD SLOAD ISZERO PUSH2 0xDB0 JUMPI PUSH1 0x1 DUP2 ADD SLOAD PUSH1 0x8 SLOAD PUSH2 0x182C SWAP2 PUSH1 0x1 PUSH1 0x1 PUSH1 0xA0 SHL SUB SWAP1 SWAP2 AND SWAP1 DUP5 SWAP1 PUSH2 0x1DD1 JUMP JUMPDEST DUP2 PUSH1 0x1 PUSH1 0x1 PUSH1 0xA0 SHL SUB AND PUSH32 0xE2403640BA68FED3A2F88B7557551D1993F84B99BB10FF833F0CF8DB0C5E0486 DUP3 PUSH1 0x1 ADD SLOAD PUSH1 0x40 MLOAD PUSH2 0x186B SWAP2 DUP2 MSTORE PUSH1 0x20 ADD SWAP1 JUMP JUMPDEST PUSH1 0x40 MLOAD DUP1 SWAP2 SUB SWAP1 LOG2 PUSH1 0x0 PUSH1 0x1 DUP3 ADD SSTORE POP POP JUMP JUMPDEST DUP2 SLOAD PUSH1 0x0 SWAP1 DUP2 SWAP1 DUP1 DUP3 SUB PUSH2 0x1897 JUMPI PUSH1 0x0 SWAP3 POP POP POP PUSH2 0x14E7 JUMP JUMPDEST DUP1 DUP3 LT ISZERO PUSH2 0x18D4 JUMPI PUSH1 0x0 PUSH2 0x18AB DUP4 DUP4 PUSH2 0x1E1E JUMP JUMPDEST SWAP1 POP DUP5 PUSH2 0x18B8 DUP8 DUP4 PUSH2 0x1E39 JUMP JUMPDEST SLOAD GT ISZERO PUSH2 0x18C7 JUMPI DUP1 SWAP2 POP PUSH2 0x18CE JUMP JUMPDEST DUP1 PUSH1 0x1 ADD SWAP3 POP JUMPDEST POP PUSH2 0x1897 JUMP JUMPDEST POP SWAP4 SWAP3 POP POP POP JUMP JUMPDEST PUSH1 0x0 DUP2 GT PUSH2 0x1942 JUMPI PUSH1 0x40 MLOAD PUSH3 0x461BCD PUSH1 0xE5 SHL DUP2 MSTORE PUSH1 0x20 PUSH1 0x4 DUP3 ADD MSTORE PUSH1 0x2D PUSH1 0x24 DUP3 ADD MSTORE PUSH32 0x50726F66697453686172653A616D6F756E74206D757374206265206772656174 PUSH1 0x44 DUP3 ADD MSTORE PUSH13 0x6572207468616E207A65726F21 PUSH1 0x98 SHL PUSH1 0x64 DUP3 ADD MSTORE PUSH1 0x84 ADD PUSH2 0x9AE JUMP JUMPDEST PUSH2 0x195A CALLER PUSH1 0x8 SLOAD PUSH1 0x1 PUSH1 0x1 PUSH1 0xA0 SHL SUB AND SWAP1 ADDRESS DUP5 PUSH2 0x19F8 JUMP JUMPDEST PUSH1 0x40 MLOAD DUP2 DUP2 MSTORE PUSH32 0xDE88A922E0D3B88B24E9623EFEB464919C6BF9F66857A65E2BFCF2CE87A9433D SWAP1 PUSH1 0x20 ADD PUSH1 0x40 MLOAD DUP1 SWAP2 SUB SWAP1 LOG1 POP JUMP JUMPDEST PUSH1 0x0 DUP1 SLOAD PUSH1 0x1 PUSH1 0x1 PUSH1 0xA0 SHL SUB DUP4 DUP2 AND PUSH32 0xFFFFFFFFFFFFFFFFFFFFFFFF0000000000000000000000000000000000000000 DUP4 AND DUP2 OR DUP5 SSTORE PUSH1 0x40 MLOAD SWAP2 SWAP1 SWAP3 AND SWAP3 DUP4 SWAP2 PUSH32 0x8BE0079C531659141344CD1FD0A4F28419497F9722A3DAAFE3B4186F6B6457E0 SWAP2 SWAP1 LOG3 POP POP JUMP JUMPDEST PUSH1 0x40 MLOAD PUSH1 0x1 PUSH1 0x1 PUSH1 0xA0 SHL SUB DUP5 DUP2 AND PUSH1 0x24 DUP4 ADD MSTORE DUP4 DUP2 AND PUSH1 0x44 DUP4 ADD MSTORE PUSH1 0x64 DUP3 ADD DUP4 SWAP1 MSTORE PUSH2 0x17E5 SWAP2 DUP7 SWAP2 DUP3 AND SWAP1 PUSH4 0x23B872DD SWAP1 PUSH1 0x84 ADD JUMPDEST PUSH1 0x40 MLOAD PUSH1 0x20 DUP2 DUP4 SUB SUB DUP2 MSTORE SWAP1 PUSH1 0x40 MSTORE SWAP2 POP PUSH1 0xE0 SHL PUSH1 0x20 DUP3 ADD DUP1 MLOAD PUSH28 0xFFFFFFFFFFFFFFFFFFFFFFFFFFFFFFFFFFFFFFFFFFFFFFFFFFFFFFFF DUP4 DUP2 DUP4 AND OR DUP4 MSTORE POP POP POP POP PUSH2 0x1E62 JUMP JUMPDEST PUSH1 0x1 PUSH1 0x1 PUSH1 0xA0 SHL SUB DUP4 AND PUSH1 0x0 SWAP1 DUP2 MSTORE PUSH1 0x6 PUSH1 0x20 SWAP1 DUP2 MSTORE PUSH1 0x40 DUP1 DUP4 KECCAK256 DUP5 DUP5 MSTORE SWAP1 SWAP2 MSTORE SWAP1 KECCAK256 DUP1 SLOAD DUP4 GT ISZERO PUSH2 0x1B0E JUMPI PUSH1 0x40 MLOAD PUSH3 0x461BCD PUSH1 0xE5 SHL DUP2 MSTORE PUSH1 0x20 PUSH1 0x4 DUP3 ADD MSTORE PUSH1 0x21 PUSH1 0x24 DUP3 ADD MSTORE PUSH32 0x50726F66697453686172653A496E73756666696369656E742062616C616E6365 PUSH1 0x44 DUP3 ADD MSTORE PUSH32 0x2100000000000000000000000000000000000000000000000000000000000000 PUSH1 0x64 DUP3 ADD MSTORE PUSH1 0x84 ADD PUSH2 0x9AE JUMP JUMPDEST PUSH1 0x2 DUP2 ADD SLOAD PUSH1 0x0 SWAP1 PUSH2 0x3E8 SWAP1 PUSH2 0x1B31 SWAP1 PUSH1 0x1 PUSH1 0x60 SHL SWAP1 DIV PUSH4 0xFFFFFFFF AND DUP7 PUSH2 0x22FB JUMP JUMPDEST PUSH2 0x1B3B SWAP2 SWAP1 PUSH2 0x2312 JUMP JUMPDEST SWAP1 POP PUSH2 0x1B49 DUP6 PUSH1 0x0 DUP4 PUSH2 0x1598 JUMP JUMPDEST DUP4 DUP3 PUSH1 0x0 ADD PUSH1 0x0 DUP3 DUP3 SLOAD PUSH2 0x1B5D SWAP2 SWAP1 PUSH2 0x2347 JUMP JUMPDEST SWAP1 SWAP2 SSTORE POP POP PUSH1 0x40 DUP1 MLOAD DUP5 DUP2 MSTORE PUSH1 0x20 DUP2 ADD DUP7 SWAP1 MSTORE CALLER SWAP2 PUSH32 0x459D5AEF2C549903C1EEB1736F5728845D5CCF82537DDD5BF8035795EEE89263 SWAP2 ADD PUSH1 0x40 MLOAD DUP1 SWAP2 SUB SWAP1 LOG2 POP POP POP POP POP JUMP JUMPDEST PUSH1 0x7 SLOAD PUSH1 0x1 PUSH1 0xA0 SHL SWAP1 DIV PUSH1 0x1 PUSH1 0x1 PUSH1 0x60 SHL SUB AND TIMESTAMP PUSH1 0x1 PUSH1 0x1 PUSH1 0x60 SHL SUB AND LT ISZERO DUP1 ISZERO PUSH2 0x1BE9 JUMPI POP PUSH1 0x8 SLOAD PUSH1 0x1 PUSH1 0xA0 SHL SWAP1 DIV PUSH1 0x1 PUSH1 0x1 PUSH1 0x60 SHL SUB AND TIMESTAMP PUSH1 0x1 PUSH1 0x1 PUSH1 0x60 SHL SUB AND LT JUMPDEST PUSH2 0x1C35 JUMPI PUSH1 0x40 MLOAD PUSH3 0x461BCD PUSH1 0xE5 SHL DUP2 MSTORE PUSH1 0x20 PUSH1 0x4 DUP3 ADD MSTORE PUSH1 0x1F PUSH1 0x24 DUP3 ADD MSTORE PUSH32 0x50726F66697453686172653A506F6F6C206973206E6F74206163746976652100 PUSH1 0x44 DUP3 ADD MSTORE PUSH1 0x64 ADD PUSH2 0x9AE JUMP JUMPDEST PUSH1 0x1 PUSH1 0x1 PUSH1 0x60 SHL SUB DUP4 AND PUSH1 0x0 SWAP1 DUP2 MSTORE PUSH1 0x4 PUSH1 0x20 MSTORE PUSH1 0x40 DUP2 KECCAK256 SLOAD PUSH4 0xFFFFFFFF AND SWAP1 PUSH2 0x3E8 PUSH2 0x1C62 DUP4 DUP7 PUSH2 0x22FB JUMP JUMPDEST PUSH2 0x1C6C SWAP2 SWAP1 PUSH2 0x2312 JUMP JUMPDEST SWAP1 POP PUSH1 0x0 DUP2 GT PUSH2 0x1CE4 JUMPI PUSH1 0x40 MLOAD PUSH3 0x461BCD PUSH1 0xE5 SHL DUP2 MSTORE PUSH1 0x20 PUSH1 0x4 DUP3 ADD MSTORE PUSH1 0x39 PUSH1 0x24 DUP3 ADD MSTORE PUSH32 0x50726F66697453686172653A616D6F756E7420616E64206D756C7469706C6965 PUSH1 0x44 DUP3 ADD MSTORE PUSH32 0x72206D7573742062652067726561746572207468616E20302100000000000000 PUSH1 0x64 DUP3 ADD MSTORE PUSH1 0x84 ADD PUSH2 0x9AE JUMP JUMPDEST PUSH2 0x1CF0 DUP7 DUP3 PUSH1 0x0 PUSH2 0x1598 JUMP JUMPDEST CALLER PUSH1 0x0 SWAP1 DUP2 MSTORE PUSH1 0x6 PUSH1 0x20 SWAP1 DUP2 MSTORE PUSH1 0x40 DUP1 DUP4 KECCAK256 DUP7 DUP5 MSTORE SWAP1 SWAP2 MSTORE DUP2 KECCAK256 DUP1 SLOAD SWAP1 SWAP2 DUP7 SWAP2 DUP4 SWAP2 SWAP1 PUSH2 0x1D1E SWAP1 DUP5 SWAP1 PUSH2 0x2334 JUMP JUMPDEST SWAP1 SWAP2 SSTORE POP PUSH2 0x1D2E SWAP1 POP DUP7 TIMESTAMP PUSH2 0x235A JUMP JUMPDEST PUSH1 0x2 DUP3 ADD DUP1 SLOAD PUSH1 0x1 PUSH1 0x1 PUSH1 0x60 SHL SUB SWAP3 DUP4 AND PUSH16 0xFFFFFFFFFFFFFFFFFFFFFFFFFFFFFFFF NOT SWAP1 SWAP2 AND OR PUSH1 0x1 PUSH1 0x60 SHL PUSH4 0xFFFFFFFF DUP8 AND MUL OR SWAP1 DUP2 SWAP1 SSTORE DUP3 SLOAD PUSH1 0x1 DUP5 ADD SLOAD PUSH1 0x40 DUP1 MLOAD DUP10 DUP2 MSTORE PUSH1 0x20 DUP2 ADD SWAP4 SWAP1 SWAP4 MSTORE DUP3 ADD MSTORE SWAP1 DUP3 AND PUSH1 0x60 DUP3 ADD MSTORE SWAP1 DUP8 AND PUSH1 0x80 DUP3 ADD MSTORE PUSH1 0x1 PUSH1 0x1 PUSH1 0xA0 SHL SUB DUP9 AND SWAP1 PUSH32 0xFB323914BFE99940926CD03FE7969535604DD9A3C82B28853E738744DD6F9AAA SWAP1 PUSH1 0xA0 ADD PUSH1 0x40 MLOAD DUP1 SWAP2 SUB SWAP1 LOG2 POP POP POP POP POP POP POP JUMP JUMPDEST PUSH1 0x40 MLOAD PUSH1 0x1 PUSH1 0x1 PUSH1 0xA0 SHL SUB DUP4 DUP2 AND PUSH1 0x24 DUP4 ADD MSTORE PUSH1 0x44 DUP3 ADD DUP4 SWAP1 MSTORE PUSH2 0xAF6 SWAP2 DUP6 SWAP2 DUP3 AND SWAP1 PUSH4 0xA9059CBB SWAP1 PUSH1 0x64 ADD PUSH2 0x1A2D JUMP JUMPDEST GT SWAP1 JUMP JUMPDEST PUSH1 0x60 PUSH2 0x14D1 PUSH1 0x20 DUP5 ADD PUSH2 0x1E18 DUP6 PUSH2 0x1EEC JUMP JUMPDEST DUP5 PUSH2 0x1F04 JUMP JUMPDEST PUSH1 0x0 PUSH2 0x1E2D PUSH1 0x2 DUP5 DUP5 XOR PUSH2 0x2312 JUMP JUMPDEST PUSH2 0x14E4 SWAP1 DUP5 DUP5 AND PUSH2 0x2334 JUMP JUMPDEST PUSH1 0x0 DUP3 PUSH2 0x1E5A PUSH2 0x1E57 DUP5 PUSH2 0x1E53 DUP5 PUSH1 0x0 SWAP1 DUP2 MSTORE PUSH1 0x20 SWAP1 KECCAK256 SWAP1 JUMP JUMPDEST ADD SWAP1 JUMP JUMPDEST SWAP1 JUMP JUMPDEST SWAP5 SWAP4 POP POP POP POP JUMP JUMPDEST PUSH1 0x0 DUP1 PUSH1 0x20 PUSH1 0x0 DUP5 MLOAD PUSH1 0x20 DUP7 ADD PUSH1 0x0 DUP9 GAS CALL DUP1 PUSH2 0x1E85 JUMPI PUSH1 0x40 MLOAD RETURNDATASIZE PUSH1 0x0 DUP3 RETURNDATACOPY RETURNDATASIZE DUP2 REVERT JUMPDEST POP POP PUSH1 0x0 MLOAD RETURNDATASIZE SWAP2 POP DUP2 ISZERO PUSH2 0x1E9D JUMPI DUP1 PUSH1 0x1 EQ ISZERO PUSH2 0x1EAA JUMP JUMPDEST PUSH1 0x1 PUSH1 0x1 PUSH1 0xA0 SHL SUB DUP5 AND EXTCODESIZE ISZERO JUMPDEST ISZERO PUSH2 0x17E5 JUMPI PUSH1 0x40 MLOAD PUSH32 0x5274AFE700000000000000000000000000000000000000000000000000000000 DUP2 MSTORE PUSH1 0x1 PUSH1 0x1 PUSH1 0xA0 SHL SUB DUP6 AND PUSH1 0x4 DUP3 ADD MSTORE PUSH1 0x24 ADD PUSH2 0x9AE JUMP JUMPDEST PUSH1 0x0 DUP2 MLOAD PUSH1 0x20 MUL PUSH2 0x1EFD DUP4 PUSH1 0x20 ADD SWAP1 JUMP JUMPDEST ADD SWAP3 SWAP2 POP POP JUMP JUMPDEST PUSH1 0x40 DUP4 DUP4 SUB LT ISZERO PUSH2 0x1F14 JUMPI POP POP POP JUMP JUMPDEST PUSH1 0x0 PUSH2 0x1F1E DUP5 MLOAD SWAP1 JUMP JUMPDEST SWAP1 POP DUP4 PUSH1 0x20 DUP2 ADD JUMPDEST DUP5 DUP2 LT ISZERO PUSH2 0x1F60 JUMPI PUSH2 0x1F43 PUSH2 0x1F39 DUP3 MLOAD SWAP1 JUMP JUMPDEST DUP5 DUP7 PUSH4 0xFFFFFFFF AND JUMP JUMPDEST ISZERO PUSH2 0x1F58 JUMPI PUSH1 0x20 SWAP2 SWAP1 SWAP2 ADD DUP1 MLOAD DUP3 MLOAD DUP3 MSTORE DUP3 MSTORE SWAP1 JUMPDEST PUSH1 0x20 ADD PUSH2 0x1F26 JUMP JUMPDEST POP DUP5 MLOAD DUP2 MLOAD DUP7 MSTORE DUP2 MSTORE PUSH2 0x1F74 DUP6 DUP3 DUP6 PUSH2 0x1F04 JUMP JUMPDEST PUSH2 0x1F82 DUP2 PUSH1 0x20 ADD DUP6 DUP6 PUSH2 0x1F04 JUMP JUMPDEST POP POP POP POP POP JUMP JUMPDEST DUP3 DUP1 SLOAD DUP3 DUP3 SSTORE SWAP1 PUSH1 0x0 MSTORE PUSH1 0x20 PUSH1 0x0 KECCAK256 SWAP1 DUP2 ADD SWAP3 DUP3 ISZERO PUSH2 0x1FC4 JUMPI SWAP2 PUSH1 0x20 MUL DUP3 ADD JUMPDEST DUP3 DUP2 GT ISZERO PUSH2 0x1FC4 JUMPI DUP3 MLOAD DUP3 SSTORE SWAP2 PUSH1 0x20 ADD SWAP2 SWAP1 PUSH1 0x1 ADD SWAP1 PUSH2 0x1FA9 JUMP JUMPDEST POP PUSH2 0x1FD0 SWAP3 SWAP2 POP PUSH2 0x1FD4 JUMP JUMPDEST POP SWAP1 JUMP JUMPDEST JUMPDEST DUP1 DUP3 GT ISZERO PUSH2 0x1FD0 JUMPI PUSH1 0x0 DUP2 SSTORE PUSH1 0x1 ADD PUSH2 0x1FD5 JUMP JUMPDEST PUSH1 0x0 DUP1 DUP4 PUSH1 0x1F DUP5 ADD SLT PUSH2 0x1FFB JUMPI PUSH1 0x0 DUP1 REVERT JUMPDEST POP DUP2 CALLDATALOAD PUSH8 0xFFFFFFFFFFFFFFFF DUP2 GT ISZERO PUSH2 0x2013 JUMPI PUSH1 0x0 DUP1 REVERT JUMPDEST PUSH1 0x20 DUP4 ADD SWAP2 POP DUP4 PUSH1 0x20 DUP3 PUSH1 0x5 SHL DUP6 ADD ADD GT ISZERO PUSH2 0x202E JUMPI PUSH1 0x0 DUP1 REVERT JUMPDEST SWAP3 POP SWAP3 SWAP1 POP JUMP JUMPDEST PUSH1 0x0 DUP1 PUSH1 0x0 DUP1 PUSH1 0x40 DUP6 DUP8 SUB SLT ISZERO PUSH2 0x204B JUMPI PUSH1 0x0 DUP1 REVERT JUMPDEST DUP5 CALLDATALOAD PUSH8 0xFFFFFFFFFFFFFFFF DUP2 GT ISZERO PUSH2 0x2062 JUMPI PUSH1 0x0 DUP1 REVERT JUMPDEST PUSH2 0x206E DUP8 DUP3 DUP9 ADD PUSH2 0x1FE9 JUMP JUMPDEST SWAP1 SWAP6 POP SWAP4 POP POP PUSH1 0x20 DUP6 ADD CALLDATALOAD PUSH8 0xFFFFFFFFFFFFFFFF DUP2 GT ISZERO PUSH2 0x208E JUMPI PUSH1 0x0 DUP1 REVERT JUMPDEST PUSH2 0x209A DUP8 DUP3 DUP9 ADD PUSH2 0x1FE9 JUMP JUMPDEST SWAP6 SWAP9 SWAP5 SWAP8 POP SWAP6 POP POP POP POP JUMP JUMPDEST DUP1 CALLDATALOAD PUSH1 0x1 PUSH1 0x1 PUSH1 0xA0 SHL SUB DUP2 AND DUP2 EQ PUSH2 0x20BD JUMPI PUSH1 0x0 DUP1 REVERT JUMPDEST SWAP2 SWAP1 POP JUMP JUMPDEST PUSH1 0x0 PUSH1 0x20 DUP3 DUP5 SUB SLT ISZERO PUSH2 0x20D4 JUMPI PUSH1 0x0 DUP1 REVERT JUMPDEST PUSH2 0x14E4 DUP3 PUSH2 0x20A6 JUMP JUMPDEST DUP1 CALLDATALOAD PUSH1 0x1 PUSH1 0x1 PUSH1 0x60 SHL SUB DUP2 AND DUP2 EQ PUSH2 0x20BD JUMPI PUSH1 0x0 DUP1 REVERT JUMPDEST PUSH1 0x0 DUP1 PUSH1 0x0 PUSH1 0x60 DUP5 DUP7 SUB SLT ISZERO PUSH2 0x2109 JUMPI PUSH1 0x0 DUP1 REVERT JUMPDEST PUSH2 0x2112 DUP5 PUSH2 0x20DD JUMP JUMPDEST SWAP6 PUSH1 0x20 DUP6 ADD CALLDATALOAD SWAP6 POP PUSH1 0x40 SWAP1 SWAP5 ADD CALLDATALOAD SWAP4 SWAP3 POP POP POP JUMP JUMPDEST PUSH1 0x0 PUSH1 0x20 DUP3 DUP5 SUB SLT ISZERO PUSH2 0x2139 JUMPI PUSH1 0x0 DUP1 REVERT JUMPDEST PUSH2 0x14E4 DUP3 PUSH2 0x20DD JUMP JUMPDEST PUSH1 0x0 DUP1 PUSH1 0x0 PUSH1 0x60 DUP5 DUP7 SUB SLT ISZERO PUSH2 0x2157 JUMPI PUSH1 0x0 DUP1 REVERT JUMPDEST DUP4 CALLDATALOAD SWAP3 POP PUSH2 0x2167 PUSH1 0x20 DUP6 ADD PUSH2 0x20DD JUMP JUMPDEST SWAP3 SWAP6 SWAP3 SWAP5 POP POP POP PUSH1 0x40 SWAP2 SWAP1 SWAP2 ADD CALLDATALOAD SWAP1 JUMP JUMPDEST PUSH1 0x0 DUP1 PUSH1 0x40 DUP4 DUP6 SUB SLT ISZERO PUSH2 0x218B JUMPI PUSH1 0x0 DUP1 REVERT JUMPDEST PUSH2 0x2194 DUP4 PUSH2 0x20DD JUMP JUMPDEST SWAP5 PUSH1 0x20 SWAP4 SWAP1 SWAP4 ADD CALLDATALOAD SWAP4 POP POP POP JUMP JUMPDEST DUP1 ISZERO ISZERO DUP2 EQ PUSH2 0x1086 JUMPI PUSH1 0x0 DUP1 REVERT JUMPDEST PUSH1 0x0 DUP1 PUSH1 0x40 DUP4 DUP6 SUB SLT ISZERO PUSH2 0x21C3 JUMPI PUSH1 0x0 DUP1 REVERT JUMPDEST DUP3 CALLDATALOAD SWAP2 POP PUSH1 0x20 DUP4 ADD CALLDATALOAD PUSH2 0x21D5 DUP2 PUSH2 0x21A2 JUMP JUMPDEST DUP1 SWAP2 POP POP SWAP3 POP SWAP3 SWAP1 POP JUMP JUMPDEST PUSH1 0x0 PUSH1 0x20 DUP3 DUP5 SUB SLT ISZERO PUSH2 0x21F2 JUMPI PUSH1 0x0 DUP1 REVERT JUMPDEST POP CALLDATALOAD SWAP2 SWAP1 POP JUMP JUMPDEST PUSH1 0x0 DUP1 PUSH1 0x40 DUP4 DUP6 SUB SLT ISZERO PUSH2 0x220C JUMPI PUSH1 0x0 DUP1 REVERT JUMPDEST PUSH2 0x2215 DUP4 PUSH2 0x20DD JUMP JUMPDEST SWAP2 POP PUSH1 0x20 DUP4 ADD CALLDATALOAD PUSH4 0xFFFFFFFF DUP2 AND DUP2 EQ PUSH2 0x21D5 JUMPI PUSH1 0x0 DUP1 REVERT JUMPDEST PUSH1 0x0 DUP1 PUSH1 0x40 DUP4 DUP6 SUB SLT ISZERO PUSH2 0x2241 JUMPI PUSH1 0x0 DUP1 REVERT JUMPDEST PUSH2 0x2194 DUP4 PUSH2 0x20A6 JUMP JUMPDEST PUSH4 0x4E487B71 PUSH1 0xE0 SHL PUSH1 0x0 MSTORE PUSH1 0x32 PUSH1 0x4 MSTORE PUSH1 0x24 PUSH1 0x0 REVERT JUMPDEST PUSH1 0x0 DUP2 SLOAD DUP1 DUP5 MSTORE PUSH1 0x20 DUP5 ADD SWAP4 POP DUP3 PUSH1 0x0 MSTORE PUSH1 0x20 PUSH1 0x0 KECCAK256 PUSH1 0x0 JUMPDEST DUP3 DUP2 LT ISZERO PUSH2 0x2297 JUMPI DUP2 SLOAD DUP7 MSTORE PUSH1 0x20 SWAP1 SWAP6 ADD SWAP5 PUSH1 0x1 SWAP2 DUP3 ADD SWAP2 ADD PUSH2 0x2279 JUMP JUMPDEST POP SWAP4 SWAP5 SWAP4 POP POP POP POP JUMP JUMPDEST PUSH1 0x40 DUP2 MSTORE PUSH1 0x0 PUSH2 0x22B4 PUSH1 0x40 DUP4 ADD DUP6 PUSH2 0x2260 JUMP JUMPDEST DUP3 DUP2 SUB PUSH1 0x20 DUP5 ADD MSTORE PUSH2 0x717 DUP2 DUP6 PUSH2 0x2260 JUMP JUMPDEST PUSH4 0x4E487B71 PUSH1 0xE0 SHL PUSH1 0x0 MSTORE PUSH1 0x11 PUSH1 0x4 MSTORE PUSH1 0x24 PUSH1 0x0 REVERT JUMPDEST PUSH1 0x1 PUSH1 0x1 PUSH1 0x60 SHL SUB DUP3 DUP2 AND DUP3 DUP3 AND SUB SWAP1 DUP2 GT ISZERO PUSH2 0x14E7 JUMPI PUSH2 0x14E7 PUSH2 0x22C6 JUMP JUMPDEST DUP1 DUP3 MUL DUP2 ISZERO DUP3 DUP3 DIV DUP5 EQ OR PUSH2 0x14E7 JUMPI PUSH2 0x14E7 PUSH2 0x22C6 JUMP JUMPDEST PUSH1 0x0 DUP3 PUSH2 0x232F JUMPI PUSH4 0x4E487B71 PUSH1 0xE0 SHL PUSH1 0x0 MSTORE PUSH1 0x12 PUSH1 0x4 MSTORE PUSH1 0x24 PUSH1 0x0 REVERT JUMPDEST POP DIV SWAP1 JUMP JUMPDEST DUP1 DUP3 ADD DUP1 DUP3 GT ISZERO PUSH2 0x14E7 JUMPI PUSH2 0x14E7 PUSH2 0x22C6 JUMP JUMPDEST DUP2 DUP2 SUB DUP2 DUP2 GT ISZERO PUSH2 0x14E7 JUMPI PUSH2 0x14E7 PUSH2 0x22C6 JUMP JUMPDEST PUSH1 0x1 PUSH1 0x1 PUSH1 0x60 SHL SUB DUP2 DUP2 AND DUP4 DUP3 AND ADD SWAP1 DUP2 GT ISZERO PUSH2 0x14E7 JUMPI PUSH2 0x14E7 PUSH2 0x22C6 JUMP JUMPDEST PUSH1 0x0 PUSH1 0x1 DUP3 ADD PUSH2 0x238B JUMPI PUSH2 0x238B PUSH2 0x22C6 JUMP JUMPDEST POP PUSH1 0x1 ADD SWAP1 JUMP JUMPDEST PUSH1 0x0 PUSH1 0x20 DUP3 DUP5 SUB SLT ISZERO PUSH2 0x23A4 JUMPI PUSH1 0x0 DUP1 REVERT JUMPDEST DUP2 MLOAD PUSH2 0x154E DUP2 PUSH2 0x21A2 JUMP JUMPDEST PUSH1 0x0 DUP1 PUSH1 0x40 DUP4 DUP6 SUB SLT ISZERO PUSH2 0x23C2 JUMPI PUSH1 0x0 DUP1 REVERT JUMPDEST POP POP DUP1 MLOAD PUSH1 0x20 SWAP1 SWAP2 ADD MLOAD SWAP1 SWAP3 SWAP1 SWAP2 POP JUMP JUMPDEST PUSH1 0x0 PUSH1 0x20 DUP3 DUP5 SUB SLT ISZERO PUSH2 0x23E5 JUMPI PUSH1 0x0 DUP1 REVERT JUMPDEST POP MLOAD SWAP2 SWAP1 POP JUMP INVALID LOG2 PUSH5 0x6970667358 0x22 SLT KECCAK256 0xBC KECCAK256 SAR 0x25 0xDB KECCAK256 0xDF PUSH20 0x8BDF596B814F32722B783FBD0CFCE4B2DBE39B51 PUSH18 0x4E7B7964736F6C634300081E00330DFDE28B LOG1 0xCF 0xAE SWAP9 0xDB PUSH5 0x2E32463558 POP 0xB3 PUSH20 0x32D75F04945DA4676E38AD045386000000000000 "
		},
		"gasEstimates": {
			"creation": {
				"codeDepositCost": "1850000",
				"executionCost": "infinite",
				"totalCost": "infinite"
			},
			"external": {
				"CLAIM_PERIOD()": "262",
				"CREDI()": "infinite",
				"MODULEX()": "infinite",
				"SCALE_FACTOR()": "229",
				"addRewards(uint256)": "infinite",
				"claimRewards()": "infinite",
				"duration_multiplier(uint96)": "2583",
				"extendRewards(uint96,uint256,uint256)": "infinite",
				"getStake(address,uint256)": "9430",
				"getUserInfo(address)": "infinite",
				"getUserRewards(address)": "infinite",
				"multiplier_BASE()": "270",
				"owner()": "2420",
				"pool()": "13217",
				"renounceOwnership()": "infinite",
				"restake(uint256,uint96,uint256)": "infinite",
				"setDurationMultiplier(uint96,uint32)": "28368",
				"setXTierMultipliers(uint256[],uint256[])": "infinite",
				"stake(uint96,uint256)": "infinite",
				"stakeCREDI(uint96,uint256)": "infinite",
				"transferOwnership(address)": "28410",
				"unstake(uint256,bool)": "infinite",
				"unstakePerpetual(uint256,bool)": "infinite",
				"withdrawRewards(address,uint256)": "infinite"
			},
			"internal": {
				"_addRewards(uint256)": "infinite",
				"_claim(address)": "infinite",
				"_stake(address,uint96,uint256,uint256)": "infinite",
				"_unstake(address,uint256,uint256)": "infinite",
				"effective_xpoints(uint256)": "infinite",
				"time_now()": "infinite",
				"update_pool_and_user(address,uint256,uint256)": "infinite"
			}
		},
		"methodIdentifiers": {
			"CLAIM_PERIOD()": "21241dfe",
			"CREDI()": "6db08f25",
			"MODULEX()": "b1da1b2d",
			"SCALE_FACTOR()": "ce4b5bbe",
			"addRewards(uint256)": "beceed39",
			"claimRewards()": "372500ab",
			"duration_multiplier(uint96)": "8af6e880",
			"extendRewards(uint96,uint256,uint256)": "7135cd6a",
			"getStake(address,uint256)": "cfd47663",
			"getUserInfo(address)": "6386c1c7",
			"getUserRewards(address)": "078b0fb7",
			"multiplier_BASE()": "da540bbf",
			"owner()": "8da5cb5b",
			"pool()": "16f0115b",
			"renounceOwnership()": "715018a6",
			"restake(uint256,uint96,uint256)": "8c793330",
			"setDurationMultiplier(uint96,uint32)": "c96d6635",
			"setXTierMultipliers(uint256[],uint256[])": "0072c744",
			"stake(uint96,uint256)": "d93c04a0",
			"stakeCREDI(uint96,uint256)": "99c1e891",
			"transferOwnership(address)": "f2fde38b",
			"unstake(uint256,bool)": "9ebea88c",
			"unstakePerpetual(uint256,bool)": "ccc54f2e",
			"withdrawRewards(address,uint256)": "d6ef7af0"
		}
	},
	"abi": [
		{
			"inputs": [
				{
					"internalType": "uint96",
					"name": "start_epoch",
					"type": "uint96"
				},
				{
					"internalType": "uint96",
					"name": "end_epoch",
					"type": "uint96"
				},
				{
					"internalType": "uint256",
					"name": "reward_amount",
					"type": "uint256"
				},
				{
					"internalType": "address",
					"name": "_modulex_addr",
					"type": "address"
				},
				{
					"internalType": "address",
					"name": "_rewards_token",
					"type": "address"
				}
			],
			"stateMutability": "nonpayable",
			"type": "constructor"
		},
		{
			"inputs": [
				{
					"internalType": "address",
					"name": "owner",
					"type": "address"
				}
			],
			"name": "OwnableInvalidOwner",
			"type": "error"
		},
		{
			"inputs": [
				{
					"internalType": "address",
					"name": "account",
					"type": "address"
				}
			],
			"name": "OwnableUnauthorizedAccount",
			"type": "error"
		},
		{
			"inputs": [],
			"name": "ReentrancyGuardReentrantCall",
			"type": "error"
		},
		{
			"inputs": [
				{
					"internalType": "address",
					"name": "token",
					"type": "address"
				}
			],
			"name": "SafeERC20FailedOperation",
			"type": "error"
		},
		{
			"anonymous": false,
			"inputs": [
				{
					"indexed": true,
					"internalType": "address",
					"name": "previousOwner",
					"type": "address"
				},
				{
					"indexed": true,
					"internalType": "address",
					"name": "newOwner",
					"type": "address"
				}
			],
			"name": "OwnershipTransferred",
			"type": "event"
		},
		{
			"anonymous": false,
			"inputs": [
				{
					"indexed": false,
					"internalType": "address",
					"name": "staking_token",
					"type": "address"
				},
				{
					"indexed": false,
					"internalType": "address",
					"name": "rewards_token",
					"type": "address"
				},
				{
					"indexed": false,
					"internalType": "uint96",
					"name": "start_epoch",
					"type": "uint96"
				},
				{
					"indexed": false,
					"internalType": "uint256",
					"name": "scale_factor",
					"type": "uint256"
				}
			],
			"name": "PoolCreated",
			"type": "event"
		},
		{
			"anonymous": false,
			"inputs": [
				{
					"indexed": false,
					"internalType": "uint256",
					"name": "effective_xpoints",
					"type": "uint256"
				},
				{
					"indexed": false,
					"internalType": "uint256",
					"name": "reward_rate",
					"type": "uint256"
				},
				{
					"indexed": false,
					"internalType": "uint256",
					"name": "reward_rate_cumsum",
					"type": "uint256"
				},
				{
					"indexed": false,
					"internalType": "uint96",
					"name": "last_update_epoch",
					"type": "uint96"
				},
				{
					"indexed": false,
					"internalType": "uint96",
					"name": "end_epoch",
					"type": "uint96"
				}
			],
			"name": "PoolUpdated",
			"type": "event"
		},
		{
			"anonymous": false,
			"inputs": [
				{
					"indexed": false,
					"internalType": "uint256",
					"name": "amount",
					"type": "uint256"
				}
			],
			"name": "RewardAdded",
			"type": "event"
		},
		{
			"anonymous": false,
			"inputs": [
				{
					"indexed": true,
					"internalType": "address",
					"name": "user",
					"type": "address"
				},
				{
					"indexed": false,
					"internalType": "uint256",
					"name": "amount",
					"type": "uint256"
				}
			],
			"name": "RewardPaid",
			"type": "event"
		},
		{
			"anonymous": false,
			"inputs": [
				{
					"indexed": true,
					"internalType": "address",
					"name": "to",
					"type": "address"
				},
				{
					"indexed": false,
					"internalType": "uint256",
					"name": "amount",
					"type": "uint256"
				}
			],
			"name": "RewardWithdrawn",
			"type": "event"
		},
		{
			"anonymous": false,
			"inputs": [
				{
					"indexed": false,
					"internalType": "uint96",
					"name": "duration",
					"type": "uint96"
				},
				{
					"indexed": false,
					"internalType": "uint32",
					"name": "multiplier",
					"type": "uint32"
				}
			],
			"name": "SetDurationMultiplier",
			"type": "event"
		},
		{
			"anonymous": false,
			"inputs": [
				{
					"indexed": false,
					"internalType": "uint256[]",
					"name": "thresholds",
					"type": "uint256[]"
				},
				{
					"indexed": false,
					"internalType": "uint256[]",
					"name": "multipliers",
					"type": "uint256[]"
				}
			],
			"name": "SetXTierMultipliers",
			"type": "event"
		},
		{
			"anonymous": false,
			"inputs": [
				{
					"indexed": false,
					"internalType": "uint256",
					"name": "stake_id",
					"type": "uint256"
				},
				{
					"indexed": true,
					"internalType": "address",
					"name": "user",
					"type": "address"
				},
				{
					"indexed": false,
					"internalType": "uint256",
					"name": "stake_amount",
					"type": "uint256"
				},
				{
					"indexed": false,
					"internalType": "uint256",
					"name": "modulex_stake_id",
					"type": "uint256"
				},
				{
					"indexed": false,
					"internalType": "uint96",
					"name": "maturity",
					"type": "uint96"
				},
				{
					"indexed": false,
					"internalType": "uint96",
					"name": "lock_period",
					"type": "uint96"
				}
			],
			"name": "StakeUpdated",
			"type": "event"
		},
		{
			"anonymous": false,
			"inputs": [
				{
					"indexed": false,
					"internalType": "uint256",
					"name": "stake_id",
					"type": "uint256"
				},
				{
					"indexed": true,
					"internalType": "address",
					"name": "user",
					"type": "address"
				},
				{
					"indexed": false,
					"internalType": "uint256",
					"name": "amount",
					"type": "uint256"
				}
			],
			"name": "StakeWithdrawn",
			"type": "event"
		},
		{
			"anonymous": false,
			"inputs": [
				{
					"indexed": true,
					"internalType": "address",
					"name": "owner",
					"type": "address"
				},
				{
					"indexed": false,
					"internalType": "uint256",
					"name": "xpoints",
					"type": "uint256"
				},
				{
					"indexed": false,
					"internalType": "uint256",
					"name": "reward_amount",
					"type": "uint256"
				},
				{
					"indexed": false,
					"internalType": "uint256",
					"name": "reward_rate_cumsum",
					"type": "uint256"
				}
			],
			"name": "UserUpdated",
			"type": "event"
		},
		{
			"inputs": [],
			"name": "CLAIM_PERIOD",
			"outputs": [
				{
					"internalType": "uint96",
					"name": "",
					"type": "uint96"
				}
			],
			"stateMutability": "view",
			"type": "function"
		},
		{
			"inputs": [],
			"name": "CREDI",
			"outputs": [
				{
					"internalType": "contract IERC20",
					"name": "",
					"type": "address"
				}
			],
			"stateMutability": "view",
			"type": "function"
		},
		{
			"inputs": [],
			"name": "MODULEX",
			"outputs": [
				{
					"internalType": "address",
					"name": "",
					"type": "address"
				}
			],
			"stateMutability": "view",
			"type": "function"
		},
		{
			"inputs": [],
			"name": "SCALE_FACTOR",
			"outputs": [
				{
					"internalType": "uint256",
					"name": "",
					"type": "uint256"
				}
			],
			"stateMutability": "view",
			"type": "function"
		},
		{
			"inputs": [
				{
					"internalType": "uint256",
					"name": "amount",
					"type": "uint256"
				}
			],
			"name": "addRewards",
			"outputs": [],
			"stateMutability": "nonpayable",
			"type": "function"
		},
		{
			"inputs": [],
			"name": "claimRewards",
			"outputs": [],
			"stateMutability": "nonpayable",
			"type": "function"
		},
		{
			"inputs": [
				{
					"internalType": "uint96",
					"name": "",
					"type": "uint96"
				}
			],
			"name": "duration_multiplier",
			"outputs": [
				{
					"internalType": "uint32",
					"name": "",
					"type": "uint32"
				}
			],
			"stateMutability": "view",
			"type": "function"
		},
		{
			"inputs": [
				{
					"internalType": "uint96",
					"name": "duration",
					"type": "uint96"
				},
				{
					"internalType": "uint256",
					"name": "reward_amount",
					"type": "uint256"
				},
				{
					"internalType": "uint256",
					"name": "transfer_reward_amount",
					"type": "uint256"
				}
			],
			"name": "extendRewards",
			"outputs": [],
			"stateMutability": "nonpayable",
			"type": "function"
		},
		{
			"inputs": [
				{
					"internalType": "address",
					"name": "owner",
					"type": "address"
				},
				{
					"internalType": "uint256",
					"name": "stake_id",
					"type": "uint256"
				}
			],
			"name": "getStake",
			"outputs": [
				{
					"internalType": "uint256",
					"name": "stake_amount",
					"type": "uint256"
				},
				{
					"internalType": "uint256",
					"name": "modulex_stake_id",
					"type": "uint256"
				},
				{
					"internalType": "uint96",
					"name": "maturity",
					"type": "uint96"
				},
				{
					"internalType": "uint256",
					"name": "multiplier",
					"type": "uint256"
				}
			],
			"stateMutability": "view",
			"type": "function"
		},
		{
			"inputs": [
				{
					"internalType": "address",
					"name": "owner",
					"type": "address"
				}
			],
			"name": "getUserInfo",
			"outputs": [
				{
					"internalType": "uint256",
					"name": "xpoints",
					"type": "uint256"
				},
				{
					"internalType": "uint256",
					"name": "xtier",
					"type": "uint256"
				},
				{
					"internalType": "uint256",
					"name": "reward_amount",
					"type": "uint256"
				},
				{
					"internalType": "uint256",
					"name": "reward_rate_cumsum",
					"type": "uint256"
				},
				{
					"internalType": "uint256",
					"name": "stakes_count",
					"type": "uint256"
				}
			],
			"stateMutability": "view",
			"type": "function"
		},
		{
			"inputs": [
				{
					"internalType": "address",
					"name": "owner",
					"type": "address"
				}
			],
			"name": "getUserRewards",
			"outputs": [
				{
					"internalType": "uint256",
					"name": "",
					"type": "uint256"
				}
			],
			"stateMutability": "view",
			"type": "function"
		},
		{
			"inputs": [],
			"name": "multiplier_BASE",
			"outputs": [
				{
					"internalType": "uint32",
					"name": "",
					"type": "uint32"
				}
			],
			"stateMutability": "view",
			"type": "function"
		},
		{
			"inputs": [],
			"name": "owner",
			"outputs": [
				{
					"internalType": "address",
					"name": "",
					"type": "address"
				}
			],
			"stateMutability": "view",
			"type": "function"
		},
		{
			"inputs": [],
			"name": "pool",
			"outputs": [
				{
					"internalType": "contract IERC20",
					"name": "staking_token",
					"type": "address"
				},
				{
					"internalType": "uint96",
					"name": "start_epoch",
					"type": "uint96"
				},
				{
					"internalType": "contract IERC20",
					"name": "rewards_token",
					"type": "address"
				},
				{
					"internalType": "uint96",
					"name": "end_epoch",
					"type": "uint96"
				},
				{
					"internalType": "uint256",
					"name": "effective_xpoints",
					"type": "uint256"
				},
				{
					"internalType": "uint256",
					"name": "reward_rate",
					"type": "uint256"
				},
				{
					"internalType": "uint256",
					"name": "reward_rate_cumsum",
					"type": "uint256"
				},
				{
					"internalType": "uint96",
					"name": "last_update_epoch",
					"type": "uint96"
				}
			],
			"stateMutability": "view",
			"type": "function"
		},
		{
			"inputs": [],
			"name": "renounceOwnership",
			"outputs": [],
			"stateMutability": "nonpayable",
			"type": "function"
		},
		{
			"inputs": [
				{
					"internalType": "uint256",
					"name": "stake_id",
					"type": "uint256"
				},
				{
					"internalType": "uint96",
					"name": "lock_period",
					"type": "uint96"
				},
				{
					"internalType": "uint256",
					"name": "amount",
					"type": "uint256"
				}
			],
			"name": "restake",
			"outputs": [],
			"stateMutability": "nonpayable",
			"type": "function"
		},
		{
			"inputs": [
				{
					"internalType": "uint96",
					"name": "duration",
					"type": "uint96"
				},
				{
					"internalType": "uint32",
					"name": "multiplier",
					"type": "uint32"
				}
			],
			"name": "setDurationMultiplier",
			"outputs": [],
			"stateMutability": "nonpayable",
			"type": "function"
		},
		{
			"inputs": [
				{
					"internalType": "uint256[]",
					"name": "_thresholds",
					"type": "uint256[]"
				},
				{
					"internalType": "uint256[]",
					"name": "_mulitpliers",
					"type": "uint256[]"
				}
			],
			"name": "setXTierMultipliers",
			"outputs": [],
			"stateMutability": "nonpayable",
			"type": "function"
		},
		{
			"inputs": [
				{
					"internalType": "uint96",
					"name": "lock_period",
					"type": "uint96"
				},
				{
					"internalType": "uint256",
					"name": "amount",
					"type": "uint256"
				}
			],
			"name": "stake",
			"outputs": [],
			"stateMutability": "nonpayable",
			"type": "function"
		},
		{
			"inputs": [
				{
					"internalType": "uint96",
					"name": "lock_period",
					"type": "uint96"
				},
				{
					"internalType": "uint256",
					"name": "CREDI_amount",
					"type": "uint256"
				}
			],
			"name": "stakeCREDI",
			"outputs": [],
			"stateMutability": "nonpayable",
			"type": "function"
		},
		{
			"inputs": [
				{
					"internalType": "address",
					"name": "newOwner",
					"type": "address"
				}
			],
			"name": "transferOwnership",
			"outputs": [],
			"stateMutability": "nonpayable",
			"type": "function"
		},
		{
			"inputs": [
				{
					"internalType": "uint256",
					"name": "stake_id",
					"type": "uint256"
				},
				{
					"internalType": "bool",
					"name": "claim_rewards",
					"type": "bool"
				}
			],
			"name": "unstake",
			"outputs": [],
			"stateMutability": "nonpayable",
			"type": "function"
		},
		{
			"inputs": [
				{
					"internalType": "uint256",
					"name": "amount",
					"type": "uint256"
				},
				{
					"internalType": "bool",
					"name": "claim_rewards",
					"type": "bool"
				}
			],
			"name": "unstakePerpetual",
			"outputs": [],
			"stateMutability": "nonpayable",
			"type": "function"
		},
		{
			"inputs": [
				{
					"internalType": "address",
					"name": "to",
					"type": "address"
				},
				{
					"internalType": "uint256",
					"name": "amount",
					"type": "uint256"
				}
			],
			"name": "withdrawRewards",
			"outputs": [],
			"stateMutability": "nonpayable",
			"type": "function"
		}
	]
}