{
	"contracts/ModuleX.sol": {
		"ModuleX": {
			"abi": [
				{
					"inputs": [
						{
							"internalType": "address",
							"name": "_credi_addr",
							"type": "address"
						},
						{
							"internalType": "address",
							"name": "_xcredi_addr",
							"type": "address"
						},
						{
							"internalType": "uint256",
							"name": "_DIFFICULTY",
							"type": "uint256"
						},
						{
							"internalType": "uint256",
							"name": "_DIFFICULTY_INTERVAL",
							"type": "uint256"
						}
					],
					"stateMutability": "nonpayable",
					"type": "constructor"
				},
				{
					"inputs": [
						{
							"internalType": "address",
							"name": "owner",
							"type": "address"
						}
					],
					"name": "OwnableInvalidOwner",
					"type": "error"
				},
				{
					"inputs": [
						{
							"internalType": "address",
							"name": "account",
							"type": "address"
						}
					],
					"name": "OwnableUnauthorizedAccount",
					"type": "error"
				},
				{
					"inputs": [
						{
							"internalType": "address",
							"name": "token",
							"type": "address"
						}
					],
					"name": "SafeERC20FailedOperation",
					"type": "error"
				},
				{
					"anonymous": false,
					"inputs": [
						{
							"indexed": false,
							"internalType": "uint256",
							"name": "stake_id",
							"type": "uint256"
						},
						{
							"indexed": false,
							"internalType": "uint256",
							"name": "amount",
							"type": "uint256"
						}
					],
					"name": "CREDIWithdrawn",
					"type": "event"
				},
				{
					"anonymous": false,
					"inputs": [
						{
							"indexed": true,
							"internalType": "address",
							"name": "previousOwner",
							"type": "address"
						},
						{
							"indexed": true,
							"internalType": "address",
							"name": "newOwner",
							"type": "address"
						}
					],
					"name": "OwnershipTransferred",
					"type": "event"
				},
				{
					"anonymous": false,
					"inputs": [
						{
							"indexed": false,
							"internalType": "uint256",
							"name": "amount",
							"type": "uint256"
						}
					],
					"name": "RewardAdded",
					"type": "event"
				},
				{
					"anonymous": false,
					"inputs": [
						{
							"indexed": false,
							"internalType": "uint256",
							"name": "stake_id",
							"type": "uint256"
						}
					],
					"name": "RewardPaid",
					"type": "event"
				},
				{
					"anonymous": false,
					"inputs": [
						{
							"indexed": true,
							"internalType": "address",
							"name": "to",
							"type": "address"
						},
						{
							"indexed": false,
							"internalType": "uint256",
							"name": "amount",
							"type": "uint256"
						}
					],
					"name": "RewardWithdrawn",
					"type": "event"
				},
				{
					"anonymous": false,
					"inputs": [
						{
							"indexed": true,
							"internalType": "address",
							"name": "user",
							"type": "address"
						},
						{
							"indexed": false,
							"internalType": "uint256",
							"name": "stake_id",
							"type": "uint256"
						},
						{
							"indexed": false,
							"internalType": "uint96",
							"name": "maturity",
							"type": "uint96"
						},
						{
							"indexed": false,
							"internalType": "uint256",
							"name": "stake_amount",
							"type": "uint256"
						},
						{
							"indexed": false,
							"internalType": "uint256",
							"name": "rewards_amount",
							"type": "uint256"
						}
					],
					"name": "Staked",
					"type": "event"
				},
				{
					"anonymous": false,
					"inputs": [],
					"name": "Stopped",
					"type": "event"
				},
				{
					"inputs": [],
					"name": "CREDI",
					"outputs": [
						{
							"internalType": "contract IERC20",
							"name": "",
							"type": "address"
						}
					],
					"stateMutability": "view",
					"type": "function"
				},
				{
					"inputs": [],
					"name": "DIFFICULTY_INTERVAL",
					"outputs": [
						{
							"internalType": "uint256",
							"name": "",
							"type": "uint256"
						}
					],
					"stateMutability": "view",
					"type": "function"
				},
				{
					"inputs": [],
					"name": "MATURITY",
					"outputs": [
						{
							"internalType": "uint96",
							"name": "",
							"type": "uint96"
						}
					],
					"stateMutability": "view",
					"type": "function"
				},
				{
					"inputs": [
						{
							"internalType": "uint256",
							"name": "amount",
							"type": "uint256"
						}
					],
					"name": "addRewards",
					"outputs": [],
					"stateMutability": "nonpayable",
					"type": "function"
				},
				{
					"inputs": [
						{
							"internalType": "uint256[]",
							"name": "stake_ids",
							"type": "uint256[]"
						}
					],
					"name": "batchWithdrawCREDI",
					"outputs": [],
					"stateMutability": "nonpayable",
					"type": "function"
				},
				{
					"inputs": [
						{
							"internalType": "uint256",
							"name": "stake_amount",
							"type": "uint256"
						}
					],
					"name": "calculateReward",
					"outputs": [
						{
							"internalType": "uint256",
							"name": "",
							"type": "uint256"
						}
					],
					"stateMutability": "view",
					"type": "function"
				},
				{
					"inputs": [
						{
							"internalType": "uint256",
							"name": "stake_id",
							"type": "uint256"
						}
					],
					"name": "claim",
					"outputs": [
						{
							"internalType": "uint256",
							"name": "",
							"type": "uint256"
						}
					],
					"stateMutability": "nonpayable",
					"type": "function"
				},
				{
					"inputs": [],
					"name": "getCREDIAddress",
					"outputs": [
						{
							"internalType": "address",
							"name": "",
							"type": "address"
						}
					],
					"stateMutability": "view",
					"type": "function"
				},
				{
					"inputs": [],
					"name": "getDifficulty",
					"outputs": [
						{
							"internalType": "uint256",
							"name": "",
							"type": "uint256"
						}
					],
					"stateMutability": "view",
					"type": "function"
				},
				{
					"inputs": [
						{
							"internalType": "uint256",
							"name": "stake_id",
							"type": "uint256"
						}
					],
					"name": "getStake",
					"outputs": [
						{
							"internalType": "address",
							"name": "owner",
							"type": "address"
						},
						{
							"internalType": "uint256",
							"name": "maturity",
							"type": "uint256"
						},
						{
							"internalType": "uint256",
							"name": "stake_amount",
							"type": "uint256"
						},
						{
							"internalType": "uint256",
							"name": "reward_amount",
							"type": "uint256"
						}
					],
					"stateMutability": "view",
					"type": "function"
				},
				{
					"inputs": [],
					"name": "getStakesCount",
					"outputs": [
						{
							"internalType": "uint256",
							"name": "",
							"type": "uint256"
						}
					],
					"stateMutability": "view",
					"type": "function"
				},
				{
					"inputs": [],
					"name": "getxCREDIAddress",
					"outputs": [
						{
							"internalType": "address",
							"name": "",
							"type": "address"
						}
					],
					"stateMutability": "view",
					"type": "function"
				},
				{
					"inputs": [],
					"name": "owner",
					"outputs": [
						{
							"internalType": "address",
							"name": "",
							"type": "address"
						}
					],
					"stateMutability": "view",
					"type": "function"
				},
				{
					"inputs": [],
					"name": "pending_payments",
					"outputs": [
						{
							"internalType": "uint256",
							"name": "",
							"type": "uint256"
						}
					],
					"stateMutability": "view",
					"type": "function"
				},
				{
					"inputs": [],
					"name": "renounceOwnership",
					"outputs": [],
					"stateMutability": "nonpayable",
					"type": "function"
				},
				{
					"inputs": [
						{
							"internalType": "uint96",
							"name": "lock_period",
							"type": "uint96"
						},
						{
							"internalType": "uint256",
							"name": "stake_amount",
							"type": "uint256"
						}
					],
					"name": "stake",
					"outputs": [
						{
							"internalType": "uint256",
							"name": "",
							"type": "uint256"
						},
						{
							"internalType": "uint256",
							"name": "",
							"type": "uint256"
						}
					],
					"stateMutability": "nonpayable",
					"type": "function"
				},
				{
					"inputs": [],
					"name": "stop",
					"outputs": [],
					"stateMutability": "nonpayable",
					"type": "function"
				},
				{
					"inputs": [],
					"name": "stopped",
					"outputs": [
						{
							"internalType": "bool",
							"name": "",
							"type": "bool"
						}
					],
					"stateMutability": "view",
					"type": "function"
				},
				{
					"inputs": [],
					"name": "total_staked",
					"outputs": [
						{
							"internalType": "uint256",
							"name": "",
							"type": "uint256"
						}
					],
					"stateMutability": "view",
					"type": "function"
				},
				{
					"inputs": [
						{
							"internalType": "address",
							"name": "newOwner",
							"type": "address"
						}
					],
					"name": "transferOwnership",
					"outputs": [],
					"stateMutability": "nonpayable",
					"type": "function"
				},
				{
					"inputs": [
						{
							"internalType": "uint256",
							"name": "stake_id",
							"type": "uint256"
						},
						{
							"internalType": "uint256",
							"name": "amount",
							"type": "uint256"
						}
					],
					"name": "withdrawCREDI",
					"outputs": [],
					"stateMutability": "nonpayable",
					"type": "function"
				},
				{
					"inputs": [
						{
							"internalType": "address",
							"name": "to",
							"type": "address"
						},
						{
							"internalType": "uint256",
							"name": "amount",
							"type": "uint256"
						}
					],
					"name": "withdrawRewards",
					"outputs": [],
					"stateMutability": "nonpayable",
					"type": "function"
				},
				{
					"inputs": [],
					"name": "xCREDI",
					"outputs": [
						{
							"internalType": "contract IERC20",
							"name": "",
							"type": "address"
						}
					],
					"stateMutability": "view",
					"type": "function"
				}
			],
			"devdoc": {
				"errors": {
					"OwnableInvalidOwner(address)": [
						{
							"details": "The owner is not a valid owner account. (eg. `address(0)`)"
						}
					],
					"OwnableUnauthorizedAccount(address)": [
						{
							"details": "The caller account is not authorized to perform an operation."
						}
					],
					"SafeERC20FailedOperation(address)": [
						{
							"details": "An operation with an ERC-20 token failed."
						}
					]
				},
				"kind": "dev",
				"methods": {
					"owner()": {
						"details": "Returns the address of the current owner."
					},
					"renounceOwnership()": {
						"details": "Leaves the contract without owner. It will not be possible to call `onlyOwner` functions. Can only be called by the current owner. NOTE: Renouncing ownership will leave the contract without an owner, thereby disabling any functionality that is only available to the owner."
					},
					"transferOwnership(address)": {
						"details": "Transfers ownership of the contract to a new account (`newOwner`). Can only be called by the current owner."
					}
				},
				"version": 1
			},
			"evm": {
				"assembly": "    /* \"contracts/ModuleX.sol\":278:7250  contract ModuleX is IModuleX, Ownable ... */\n  mstore(0x40, 0x0100)\n    /* \"contracts/ModuleX.sol\":530:535  false */\n  0x00\n    /* \"contracts/ModuleX.sol\":508:535  bool public stopped = false */\n  dup1\n  sload\n  not(shl(0xa0, 0xff))\n  and\n  dup2\n  sstore\n  0x01\n    /* \"contracts/ModuleX.sol\":849:878  uint private stakes_count = 1 */\n  0x02\n  sstore\n    /* \"contracts/ModuleX.sol\":885:913  uint public total_staked = 0 */\n  0x03\n  dup2\n  swap1\n  sstore\n    /* \"contracts/ModuleX.sol\":920:952  uint public pending_payments = 0 */\n  0x04\n  sstore\n    /* \"contracts/ModuleX.sol\":1450:1752  constructor(address _credi_addr, address _xcredi_addr, uint _DIFFICULTY, uint _DIFFICULTY_INTERVAL) Ownable(_msgSender())... */\n  callvalue\n  dup1\n  iszero\n  tag_1\n  jumpi\n  revert(0x00, 0x00)\ntag_1:\n  pop\n  mload(0x40)\n  sub(codesize, bytecodeSize)\n  dup1\n  bytecodeSize\n  dup4\n  codecopy\n  dup2\n  add\n  0x40\n  dup2\n  swap1\n  mstore\n  tag_2\n  swap2\n  tag_3\n  jump\t// in\ntag_2:\n    /* \"@openzeppelin/contracts/utils/Context.sol\":735:745  msg.sender */\n  caller\n  dup1\n    /* \"@openzeppelin/contracts/access/Ownable.sol\":1269:1364  if (initialOwner == address(0)) {... */\n  tag_9\n  jumpi\n    /* \"@openzeppelin/contracts/access/Ownable.sol\":1322:1353  OwnableInvalidOwner(address(0)) */\n  mload(0x40)\n  shl(0xe0, 0x1e4fbdf7)\n  dup2\n  mstore\n    /* \"@openzeppelin/contracts/access/Ownable.sol\":1350:1351  0 */\n  0x00\n    /* \"@openzeppelin/contracts/access/Ownable.sol\":1322:1353  OwnableInvalidOwner(address(0)) */\n  0x04\n  dup3\n  add\n    /* \"#utility.yul\":861:912   */\n  mstore\n    /* \"#utility.yul\":834:852   */\n  0x24\n  add\n    /* \"@openzeppelin/contracts/access/Ownable.sol\":1322:1353  OwnableInvalidOwner(address(0)) */\n  mload(0x40)\n  dup1\n  swap2\n  sub\n  swap1\n  revert\n    /* \"@openzeppelin/contracts/access/Ownable.sol\":1269:1364  if (initialOwner == address(0)) {... */\ntag_9:\n    /* \"@openzeppelin/contracts/access/Ownable.sol\":1373:1405  _transferOwnership(initialOwner) */\n  tag_12\n    /* \"@openzeppelin/contracts/access/Ownable.sol\":1392:1404  initialOwner */\n  dup2\n    /* \"@openzeppelin/contracts/access/Ownable.sol\":1373:1391  _transferOwnership */\n  tag_13\n    /* \"@openzeppelin/contracts/access/Ownable.sol\":1373:1405  _transferOwnership(initialOwner) */\n  jump\t// in\ntag_12:\n  pop\n  sub(shl(0xa0, 0x01), 0x01)\n    /* \"contracts/ModuleX.sol\":1589:1616  CREDI = IERC20(_credi_addr) */\n  swap4\n  dup5\n  and\n  0xc0\n  mstore\n    /* \"contracts/ModuleX.sol\":1627:1656  xCREDI = IERC20(_xcredi_addr) */\n  swap2\n  swap1\n  swap3\n  and\n  0xe0\n  mstore\n    /* \"contracts/ModuleX.sol\":1667:1709  DIFFICULTY_INTERVAL = _DIFFICULTY_INTERVAL */\n  0xa0\n  mstore\n    /* \"contracts/ModuleX.sol\":1720:1744  DIFFICULTY = _DIFFICULTY */\n  0x80\n  mstore\n    /* \"contracts/ModuleX.sol\":278:7250  contract ModuleX is IModuleX, Ownable ... */\n  jump(tag_19)\n    /* \"@openzeppelin/contracts/access/Ownable.sol\":2912:3099  function _transferOwnership(address newOwner) internal virtual {... */\ntag_13:\n    /* \"@openzeppelin/contracts/access/Ownable.sol\":2985:3001  address oldOwner */\n  0x00\n    /* \"@openzeppelin/contracts/access/Ownable.sol\":3004:3010  _owner */\n  dup1\n  sload\n  sub(shl(0xa0, 0x01), 0x01)\n    /* \"@openzeppelin/contracts/access/Ownable.sol\":3020:3037  _owner = newOwner */\n  dup4\n  dup2\n  and\n  not(sub(shl(0xa0, 0x01), 0x01))\n  dup4\n  and\n  dup2\n  or\n  dup5\n  sstore\n    /* \"@openzeppelin/contracts/access/Ownable.sol\":3052:3092  OwnershipTransferred(oldOwner, newOwner) */\n  mload(0x40)\n    /* \"@openzeppelin/contracts/access/Ownable.sol\":3004:3010  _owner */\n  swap2\n  swap1\n  swap3\n  and\n  swap3\n  dup4\n  swap2\n    /* \"@openzeppelin/contracts/access/Ownable.sol\":3052:3092  OwnershipTransferred(oldOwner, newOwner) */\n  0x8be0079c531659141344cd1fd0a4f28419497f9722a3daafe3b4186f6b6457e0\n  swap2\n    /* \"@openzeppelin/contracts/access/Ownable.sol\":2985:3001  address oldOwner */\n  swap1\n    /* \"@openzeppelin/contracts/access/Ownable.sol\":3052:3092  OwnershipTransferred(oldOwner, newOwner) */\n  log3\n    /* \"@openzeppelin/contracts/access/Ownable.sol\":2975:3099  {... */\n  pop\n    /* \"@openzeppelin/contracts/access/Ownable.sol\":2912:3099  function _transferOwnership(address newOwner) internal virtual {... */\n  pop\n  jump\t// out\n    /* \"#utility.yul\":14:191   */\ntag_18:\n    /* \"#utility.yul\":93:106   */\n  dup1\n  mload\n  sub(shl(0xa0, 0x01), 0x01)\n    /* \"#utility.yul\":135:166   */\n  dup2\n  and\n    /* \"#utility.yul\":125:167   */\n  dup2\n  eq\n    /* \"#utility.yul\":115:185   */\n  tag_21\n  jumpi\n    /* \"#utility.yul\":181:182   */\n  0x00\n    /* \"#utility.yul\":178:179   */\n  0x00\n    /* \"#utility.yul\":171:183   */\n  revert\n    /* \"#utility.yul\":115:185   */\ntag_21:\n    /* \"#utility.yul\":14:191   */\n  swap2\n  swap1\n  pop\n  jump\t// out\n    /* \"#utility.yul\":196:710   */\ntag_3:\n    /* \"#utility.yul\":293:299   */\n  0x00\n    /* \"#utility.yul\":301:307   */\n  0x00\n    /* \"#utility.yul\":309:315   */\n  0x00\n    /* \"#utility.yul\":317:323   */\n  0x00\n    /* \"#utility.yul\":370:373   */\n  0x80\n    /* \"#utility.yul\":358:367   */\n  dup6\n    /* \"#utility.yul\":349:356   */\n  dup8\n    /* \"#utility.yul\":345:368   */\n  sub\n    /* \"#utility.yul\":341:374   */\n  slt\n    /* \"#utility.yul\":338:391   */\n  iszero\n  tag_23\n  jumpi\n    /* \"#utility.yul\":387:388   */\n  0x00\n    /* \"#utility.yul\":384:385   */\n  0x00\n    /* \"#utility.yul\":377:389   */\n  revert\n    /* \"#utility.yul\":338:391   */\ntag_23:\n    /* \"#utility.yul\":410:450   */\n  tag_24\n    /* \"#utility.yul\":440:449   */\n  dup6\n    /* \"#utility.yul\":410:450   */\n  tag_18\n  jump\t// in\ntag_24:\n    /* \"#utility.yul\":400:450   */\n  swap4\n  pop\n    /* \"#utility.yul\":469:518   */\n  tag_25\n    /* \"#utility.yul\":514:516   */\n  0x20\n    /* \"#utility.yul\":503:512   */\n  dup7\n    /* \"#utility.yul\":499:517   */\n  add\n    /* \"#utility.yul\":469:518   */\n  tag_18\n  jump\t// in\ntag_25:\n    /* \"#utility.yul\":580:582   */\n  0x40\n    /* \"#utility.yul\":565:583   */\n  dup7\n  add\n    /* \"#utility.yul\":559:584   */\n  mload\n    /* \"#utility.yul\":674:676   */\n  0x60\n    /* \"#utility.yul\":659:677   */\n  swap1\n  swap7\n  add\n    /* \"#utility.yul\":653:678   */\n  mload\n    /* \"#utility.yul\":196:710   */\n  swap5\n  swap8\n    /* \"#utility.yul\":459:518   */\n  swap1\n  swap7\n  pop\n    /* \"#utility.yul\":196:710   */\n  swap3\n  pop\n  pop\n  pop\n  jump\t// out\n    /* \"#utility.yul\":715:918   */\ntag_19:\n    /* \"contracts/ModuleX.sol\":278:7250  contract ModuleX is IModuleX, Ownable ... */\n  mload(0x80)\n  mload(0xa0)\n  mload(0xc0)\n  mload(0xe0)\n  codecopy(0x00, dataOffset(sub_0), dataSize(sub_0))\n  0x00\n  assignImmutable(\"0xad444e1082e5d5bbfca385a9a566a2d71dbd349bb06a97871f0be4657884f8e0\")\n  0x00\n  assignImmutable(\"0xdff167ddfa3189a3e9389ac75b945e17c7959b64870603a7f04a55d1519d28e2\")\n  0x00\n  assignImmutable(\"0x1953a27a405e8582cf1be8a2db4a8d6898082fbed25ec72fb4b95dbd76ab849b\")\n  0x00\n  assignImmutable(\"0xeb29b49011c9cf62c1f2455e9e4472fdc1b37c8f4e32969c812d39bb921154f4\")\n  return(0x00, dataSize(sub_0))\nstop\n\nsub_0: assembly {\n        /* \"contracts/ModuleX.sol\":278:7250  contract ModuleX is IModuleX, Ownable ... */\n      mstore(0x40, 0x80)\n      callvalue\n      dup1\n      iszero\n      tag_1\n      jumpi\n      revert(0x00, 0x00)\n    tag_1:\n      pop\n      jumpi(tag_2, lt(calldatasize, 0x04))\n      shr(0xe0, calldataload(0x00))\n      dup1\n      0xaf7568dd\n      gt\n      tag_26\n      jumpi\n      dup1\n      0xce325bf8\n      gt\n      tag_27\n      jumpi\n      dup1\n      0xd6ef7af0\n      gt\n      tag_28\n      jumpi\n      dup1\n      0xd6ef7af0\n      eq\n      tag_23\n      jumpi\n      dup1\n      0xd93c04a0\n      eq\n      tag_24\n      jumpi\n      dup1\n      0xf2fde38b\n      eq\n      tag_25\n      jumpi\n      revert(0x00, 0x00)\n    tag_28:\n      dup1\n      0xce325bf8\n      eq\n      tag_20\n      jumpi\n      dup1\n      0xd2d7231f\n      eq\n      tag_21\n      jumpi\n      dup1\n      0xd46149a2\n      eq\n      tag_22\n      jumpi\n      revert(0x00, 0x00)\n    tag_27:\n      dup1\n      0xb6baffe3\n      gt\n      tag_29\n      jumpi\n      dup1\n      0xb6baffe3\n      eq\n      tag_17\n      jumpi\n      dup1\n      0xbc854352\n      eq\n      tag_18\n      jumpi\n      dup1\n      0xbeceed39\n      eq\n      tag_19\n      jumpi\n      revert(0x00, 0x00)\n    tag_29:\n      dup1\n      0xaf7568dd\n      eq\n      tag_14\n      jumpi\n      dup1\n      0xb109beec\n      eq\n      tag_15\n      jumpi\n      dup1\n      0xb5fa91fe\n      eq\n      tag_16\n      jumpi\n      revert(0x00, 0x00)\n    tag_26:\n      dup1\n      0x75f12b21\n      gt\n      tag_30\n      jumpi\n      dup1\n      0x8e12c0cd\n      gt\n      tag_31\n      jumpi\n      dup1\n      0x8e12c0cd\n      eq\n      tag_11\n      jumpi\n      dup1\n      0x8f4729b7\n      eq\n      tag_12\n      jumpi\n      dup1\n      0xac00500f\n      eq\n      tag_13\n      jumpi\n      revert(0x00, 0x00)\n    tag_31:\n      dup1\n      0x75f12b21\n      eq\n      tag_8\n      jumpi\n      dup1\n      0x7c2fdeb5\n      eq\n      tag_9\n      jumpi\n      dup1\n      0x8da5cb5b\n      eq\n      tag_10\n      jumpi\n      revert(0x00, 0x00)\n    tag_30:\n      dup1\n      0x07da68f5\n      eq\n      tag_3\n      jumpi\n      dup1\n      0x109cf399\n      eq\n      tag_4\n      jumpi\n      dup1\n      0x379607f5\n      eq\n      tag_5\n      jumpi\n      dup1\n      0x6db08f25\n      eq\n      tag_6\n      jumpi\n      dup1\n      0x715018a6\n      eq\n      tag_7\n      jumpi\n    tag_2:\n      revert(0x00, 0x00)\n        /* \"contracts/ModuleX.sol\":7147:7245  function stop() external onlyOwner... */\n    tag_3:\n      tag_32\n      tag_33\n      jump\t// in\n    tag_32:\n      stop\n        /* \"contracts/ModuleX.sol\":670:711  uint immutable public DIFFICULTY_INTERVAL */\n    tag_4:\n      tag_34\n      immutable(\"0x1953a27a405e8582cf1be8a2db4a8d6898082fbed25ec72fb4b95dbd76ab849b\")\n      dup2\n      jump\n    tag_34:\n      mload(0x40)\n        /* \"#utility.yul\":160:185   */\n      swap1\n      dup2\n      mstore\n        /* \"#utility.yul\":148:150   */\n      0x20\n        /* \"#utility.yul\":133:151   */\n      add\n        /* \"contracts/ModuleX.sol\":670:711  uint immutable public DIFFICULTY_INTERVAL */\n    tag_36:\n      mload(0x40)\n      dup1\n      swap2\n      sub\n      swap1\n      return\n        /* \"contracts/ModuleX.sol\":4652:5321  function claim(uint stake_id) external validate_stake(stake_id) returns(uint)... */\n    tag_5:\n      tag_34\n      tag_39\n      calldatasize\n      0x04\n      tag_40\n      jump\t// in\n    tag_39:\n      tag_41\n      jump\t// in\n        /* \"contracts/ModuleX.sol\":718:747  IERC20 immutable public CREDI */\n    tag_6:\n      tag_43\n      immutable(\"0xdff167ddfa3189a3e9389ac75b945e17c7959b64870603a7f04a55d1519d28e2\")\n      dup2\n      jump\n    tag_43:\n      mload(0x40)\n      sub(shl(0xa0, 0x01), 0x01)\n        /* \"#utility.yul\":605:660   */\n      swap1\n      swap2\n      and\n        /* \"#utility.yul\":587:661   */\n      dup2\n      mstore\n        /* \"#utility.yul\":575:577   */\n      0x20\n        /* \"#utility.yul\":560:578   */\n      add\n        /* \"contracts/ModuleX.sol\":718:747  IERC20 immutable public CREDI */\n      tag_36\n        /* \"#utility.yul\":427:667   */\n      jump\n        /* \"@openzeppelin/contracts/access/Ownable.sol\":2293:2394  function renounceOwnership() public virtual onlyOwner {... */\n    tag_7:\n      tag_32\n      tag_48\n      jump\t// in\n        /* \"contracts/ModuleX.sol\":508:535  bool public stopped = false */\n    tag_8:\n      sload(0x00)\n      tag_49\n      swap1\n      shl(0xa0, 0x01)\n      swap1\n      div\n      0xff\n      and\n      dup2\n      jump\n    tag_49:\n      mload(0x40)\n        /* \"#utility.yul\":837:851   */\n      swap1\n      iszero\n        /* \"#utility.yul\":830:852   */\n      iszero\n        /* \"#utility.yul\":812:853   */\n      dup2\n      mstore\n        /* \"#utility.yul\":800:802   */\n      0x20\n        /* \"#utility.yul\":785:803   */\n      add\n        /* \"contracts/ModuleX.sol\":508:535  bool public stopped = false */\n      tag_36\n        /* \"#utility.yul\":672:859   */\n      jump\n        /* \"contracts/ModuleX.sol\":1875:1980  function getxCREDIAddress() external view returns(address)... */\n    tag_9:\n        /* \"contracts/ModuleX.sol\":1965:1971  xCREDI */\n      immutable(\"0xad444e1082e5d5bbfca385a9a566a2d71dbd349bb06a97871f0be4657884f8e0\")\n        /* \"contracts/ModuleX.sol\":1875:1980  function getxCREDIAddress() external view returns(address)... */\n      jump(tag_43)\n        /* \"@openzeppelin/contracts/access/Ownable.sol\":1638:1723  function owner() public view virtual returns (address) {... */\n    tag_10:\n        /* \"@openzeppelin/contracts/access/Ownable.sol\":1684:1691  address */\n      0x00\n        /* \"@openzeppelin/contracts/access/Ownable.sol\":1710:1716  _owner */\n      sload\n      sub(shl(0xa0, 0x01), 0x01)\n      and\n        /* \"@openzeppelin/contracts/access/Ownable.sol\":1638:1723  function owner() public view virtual returns (address) {... */\n      jump(tag_43)\n        /* \"contracts/ModuleX.sol\":543:588  uint96 constant public MATURITY = 180 minutes */\n    tag_11:\n      tag_60\n        /* \"contracts/ModuleX.sol\":577:588  180 minutes */\n      0x2a30\n        /* \"contracts/ModuleX.sol\":543:588  uint96 constant public MATURITY = 180 minutes */\n      dup2\n      jump\n    tag_60:\n      mload(0x40)\n      sub(shl(0x60, 0x01), 0x01)\n        /* \"#utility.yul\":1257:1296   */\n      swap1\n      swap2\n      and\n        /* \"#utility.yul\":1239:1297   */\n      dup2\n      mstore\n        /* \"#utility.yul\":1227:1229   */\n      0x20\n        /* \"#utility.yul\":1212:1230   */\n      add\n        /* \"contracts/ModuleX.sol\":543:588  uint96 constant public MATURITY = 180 minutes */\n      tag_36\n        /* \"#utility.yul\":1095:1303   */\n      jump\n        /* \"contracts/ModuleX.sol\":920:952  uint public pending_payments = 0 */\n    tag_12:\n      tag_34\n      sload(0x04)\n      dup2\n      jump\n        /* \"contracts/ModuleX.sol\":5329:5885  function withdrawCREDI(uint stake_id, uint amount) external onlyOwner validate_stake(stake_id)... */\n    tag_13:\n      tag_32\n      tag_68\n      calldatasize\n      0x04\n      tag_69\n      jump\t// in\n    tag_68:\n      tag_70\n      jump\t// in\n        /* \"contracts/ModuleX.sol\":885:913  uint public total_staked = 0 */\n    tag_14:\n      tag_34\n      sload(0x03)\n      dup2\n      jump\n        /* \"contracts/ModuleX.sol\":754:784  IERC20 immutable public xCREDI */\n    tag_15:\n      tag_43\n      immutable(\"0xad444e1082e5d5bbfca385a9a566a2d71dbd349bb06a97871f0be4657884f8e0\")\n      dup2\n      jump\n        /* \"contracts/ModuleX.sol\":1988:2089  function getStakesCount() external view returns(uint)... */\n    tag_16:\n      tag_34\n      tag_78\n      jump\t// in\n        /* \"contracts/ModuleX.sol\":3519:3648  function getDifficulty() external view returns(uint)... */\n    tag_17:\n      tag_34\n      tag_81\n      jump\t// in\n        /* \"contracts/ModuleX.sol\":5893:6605  function batchWithdrawCREDI(uint[] calldata stake_ids) external onlyOwner... */\n    tag_18:\n      tag_32\n      tag_84\n      calldatasize\n      0x04\n      tag_85\n      jump\t// in\n    tag_84:\n      tag_86\n      jump\t// in\n        /* \"contracts/ModuleX.sol\":6613:6851  function addRewards(uint amount) external ... */\n    tag_19:\n      tag_32\n      tag_88\n      calldatasize\n      0x04\n      tag_40\n      jump\t// in\n    tag_88:\n      tag_89\n      jump\t// in\n        /* \"contracts/ModuleX.sol\":2097:2492  function getStake(uint stake_id) external validate_stake(stake_id) view ... */\n    tag_20:\n      tag_90\n      tag_91\n      calldatasize\n      0x04\n      tag_40\n      jump\t// in\n    tag_91:\n      tag_92\n      jump\t// in\n    tag_90:\n      0x40\n      dup1\n      mload\n      sub(shl(0xa0, 0x01), 0x01)\n        /* \"#utility.yul\":2523:2578   */\n      swap1\n      swap6\n      and\n        /* \"#utility.yul\":2505:2579   */\n      dup6\n      mstore\n        /* \"#utility.yul\":2610:2612   */\n      0x20\n        /* \"#utility.yul\":2595:2613   */\n      dup6\n      add\n        /* \"#utility.yul\":2588:2622   */\n      swap4\n      swap1\n      swap4\n      mstore\n        /* \"#utility.yul\":2638:2656   */\n      swap2\n      dup4\n      add\n        /* \"#utility.yul\":2631:2665   */\n      mstore\n        /* \"#utility.yul\":2696:2698   */\n      0x60\n        /* \"#utility.yul\":2681:2699   */\n      dup3\n      add\n        /* \"#utility.yul\":2674:2708   */\n      mstore\n        /* \"#utility.yul\":2492:2495   */\n      0x80\n        /* \"#utility.yul\":2477:2496   */\n      add\n        /* \"contracts/ModuleX.sol\":2097:2492  function getStake(uint stake_id) external validate_stake(stake_id) view ... */\n      tag_36\n        /* \"#utility.yul\":2274:2714   */\n      jump\n        /* \"contracts/ModuleX.sol\":2611:3511  function calculateReward(uint stake_amount) public view returns(uint)... */\n    tag_21:\n      tag_34\n      tag_96\n      calldatasize\n      0x04\n      tag_40\n      jump\t// in\n    tag_96:\n      tag_97\n      jump\t// in\n        /* \"contracts/ModuleX.sol\":1764:1867  function getCREDIAddress() external view returns(address)... */\n    tag_22:\n        /* \"contracts/ModuleX.sol\":1853:1858  CREDI */\n      immutable(\"0xdff167ddfa3189a3e9389ac75b945e17c7959b64870603a7f04a55d1519d28e2\")\n        /* \"contracts/ModuleX.sol\":1764:1867  function getCREDIAddress() external view returns(address)... */\n      jump(tag_43)\n        /* \"contracts/ModuleX.sol\":6859:7139  function withdrawRewards(address to, uint amount) external onlyOwner... */\n    tag_23:\n      tag_32\n      tag_103\n      calldatasize\n      0x04\n      tag_104\n      jump\t// in\n    tag_103:\n      tag_105\n      jump\t// in\n        /* \"contracts/ModuleX.sol\":3656:4644  function stake(uint96 lock_period, uint stake_amount) external returns(uint, uint)... */\n    tag_24:\n      tag_106\n      tag_107\n      calldatasize\n      0x04\n      tag_108\n      jump\t// in\n    tag_107:\n      tag_109\n      jump\t// in\n    tag_106:\n      0x40\n      dup1\n      mload\n        /* \"#utility.yul\":3816:3841   */\n      swap3\n      dup4\n      mstore\n        /* \"#utility.yul\":3872:3874   */\n      0x20\n        /* \"#utility.yul\":3857:3875   */\n      dup4\n      add\n        /* \"#utility.yul\":3850:3884   */\n      swap2\n      swap1\n      swap2\n      mstore\n        /* \"#utility.yul\":3789:3807   */\n      add\n        /* \"contracts/ModuleX.sol\":3656:4644  function stake(uint96 lock_period, uint stake_amount) external returns(uint, uint)... */\n      tag_36\n        /* \"#utility.yul\":3642:3890   */\n      jump\n        /* \"@openzeppelin/contracts/access/Ownable.sol\":2543:2758  function transferOwnership(address newOwner) public virtual onlyOwner {... */\n    tag_25:\n      tag_32\n      tag_113\n      calldatasize\n      0x04\n      tag_114\n      jump\t// in\n    tag_113:\n      tag_115\n      jump\t// in\n        /* \"contracts/ModuleX.sol\":7147:7245  function stop() external onlyOwner... */\n    tag_33:\n        /* \"@openzeppelin/contracts/access/Ownable.sol\":1531:1544  _checkOwner() */\n      tag_117\n        /* \"@openzeppelin/contracts/access/Ownable.sol\":1531:1542  _checkOwner */\n      tag_118\n        /* \"@openzeppelin/contracts/access/Ownable.sol\":1531:1544  _checkOwner() */\n      jump\t// in\n    tag_117:\n        /* \"contracts/ModuleX.sol\":7198:7205  stopped */\n      0x00\n        /* \"contracts/ModuleX.sol\":7198:7212  stopped = true */\n      dup1\n      sload\n      not(shl(0xa0, 0xff))\n      and\n      shl(0xa0, 0x01)\n      or\n      dup2\n      sstore\n        /* \"contracts/ModuleX.sol\":7228:7237  Stopped() */\n      mload(0x40)\n      0x7acc84e34091ae817647a4c49116f5cc07f319078ba80f8f5fde37ea7e25cbd6\n      swap2\n        /* \"contracts/ModuleX.sol\":7198:7205  stopped */\n      swap1\n        /* \"contracts/ModuleX.sol\":7228:7237  Stopped() */\n      log1\n        /* \"contracts/ModuleX.sol\":7147:7245  function stop() external onlyOwner... */\n      jump\t// out\n        /* \"contracts/ModuleX.sol\":4652:5321  function claim(uint stake_id) external validate_stake(stake_id) returns(uint)... */\n    tag_41:\n        /* \"contracts/ModuleX.sol\":4724:4728  uint */\n      0x00\n        /* \"contracts/ModuleX.sol\":4706:4714  stake_id */\n      dup2\n        /* \"contracts/ModuleX.sol\":1364:1365  0 */\n      0x00\n        /* \"contracts/ModuleX.sol\":1353:1361  stake_id */\n      dup2\n        /* \"contracts/ModuleX.sol\":1353:1365  stake_id > 0 */\n      gt\n        /* \"contracts/ModuleX.sol\":1353:1392  stake_id > 0 && stake_id < stakes_count */\n      dup1\n      iszero\n      tag_121\n      jumpi\n      pop\n        /* \"contracts/ModuleX.sol\":1380:1392  stakes_count */\n      sload(0x02)\n        /* \"contracts/ModuleX.sol\":1369:1377  stake_id */\n      dup2\n        /* \"contracts/ModuleX.sol\":1369:1392  stake_id < stakes_count */\n      lt\n        /* \"contracts/ModuleX.sol\":1353:1392  stake_id > 0 && stake_id < stakes_count */\n    tag_121:\n        /* \"contracts/ModuleX.sol\":1345:1422  require(stake_id > 0 && stake_id < stakes_count, \"ModuleX:Invalid Stake ID!\") */\n      tag_122\n      jumpi\n      mload(0x40)\n      shl(0xe5, 0x461bcd)\n      dup2\n      mstore\n        /* \"#utility.yul\":4288:4290   */\n      0x20\n        /* \"contracts/ModuleX.sol\":1345:1422  require(stake_id > 0 && stake_id < stakes_count, \"ModuleX:Invalid Stake ID!\") */\n      0x04\n      dup3\n      add\n        /* \"#utility.yul\":4270:4291   */\n      mstore\n        /* \"#utility.yul\":4327:4329   */\n      0x19\n        /* \"#utility.yul\":4307:4325   */\n      0x24\n      dup3\n      add\n        /* \"#utility.yul\":4300:4330   */\n      mstore\n      shl(0x38, 0x4d6f64756c65583a496e76616c6964205374616b6520494421)\n        /* \"#utility.yul\":4346:4364   */\n      0x44\n      dup3\n      add\n        /* \"#utility.yul\":4339:4394   */\n      mstore\n        /* \"#utility.yul\":4411:4429   */\n      0x64\n      add\n        /* \"contracts/ModuleX.sol\":1345:1422  require(stake_id > 0 && stake_id < stakes_count, \"ModuleX:Invalid Stake ID!\") */\n    tag_123:\n      mload(0x40)\n      dup1\n      swap2\n      sub\n      swap1\n      revert\n    tag_122:\n        /* \"contracts/ModuleX.sol\":4746:4774  StakeDetails storage details */\n      0x00\n        /* \"contracts/ModuleX.sol\":4777:4793  stakes[stake_id] */\n      dup4\n      dup2\n      mstore\n        /* \"contracts/ModuleX.sol\":4777:4783  stakes */\n      0x01\n        /* \"contracts/ModuleX.sol\":4777:4793  stakes[stake_id] */\n      0x20\n      mstore\n      0x40\n      swap1\n      keccak256\n        /* \"contracts/ModuleX.sol\":4812:4825  details.owner */\n      dup1\n      sload\n      sub(shl(0xa0, 0x01), 0x01)\n      and\n        /* \"@openzeppelin/contracts/utils/Context.sol\":735:745  msg.sender */\n      caller\n        /* \"contracts/ModuleX.sol\":4812:4841  details.owner == _msgSender() */\n      eq\n        /* \"contracts/ModuleX.sol\":4804:4877  require(details.owner == _msgSender(), \"ModuleX:Caller is not the owner\") */\n      tag_128\n      jumpi\n      mload(0x40)\n      shl(0xe5, 0x461bcd)\n      dup2\n      mstore\n        /* \"#utility.yul\":4642:4644   */\n      0x20\n        /* \"contracts/ModuleX.sol\":4804:4877  require(details.owner == _msgSender(), \"ModuleX:Caller is not the owner\") */\n      0x04\n      dup3\n      add\n        /* \"#utility.yul\":4624:4645   */\n      mstore\n        /* \"#utility.yul\":4681:4683   */\n      0x1f\n        /* \"#utility.yul\":4661:4679   */\n      0x24\n      dup3\n      add\n        /* \"#utility.yul\":4654:4684   */\n      mstore\n        /* \"#utility.yul\":4720:4753   */\n      0x4d6f64756c65583a43616c6c6572206973206e6f7420746865206f776e657200\n        /* \"#utility.yul\":4700:4718   */\n      0x44\n      dup3\n      add\n        /* \"#utility.yul\":4693:4754   */\n      mstore\n        /* \"#utility.yul\":4771:4789   */\n      0x64\n      add\n        /* \"contracts/ModuleX.sol\":4804:4877  require(details.owner == _msgSender(), \"ModuleX:Caller is not the owner\") */\n      tag_123\n        /* \"#utility.yul\":4440:4795   */\n      jump\n        /* \"contracts/ModuleX.sol\":4804:4877  require(details.owner == _msgSender(), \"ModuleX:Caller is not the owner\") */\n    tag_128:\n        /* \"contracts/ModuleX.sol\":4910:4926  details.maturity */\n      dup1\n      sload\n      shl(0xa0, 0x01)\n      swap1\n      div\n      sub(shl(0x60, 0x01), 0x01)\n      and\n        /* \"contracts/ModuleX.sol\":2579:2594  block.timestamp */\n      timestamp\n      sub(shl(0x60, 0x01), 0x01)\n        /* \"contracts/ModuleX.sol\":4896:4926  time_now() >= details.maturity */\n      and\n      lt\n      iszero\n        /* \"contracts/ModuleX.sol\":4888:4973  require(time_now() >= details.maturity, \"ModuleX:Early Withdrawal is not permitted!\") */\n      tag_133\n      jumpi\n      mload(0x40)\n      shl(0xe5, 0x461bcd)\n      dup2\n      mstore\n        /* \"#utility.yul\":5002:5004   */\n      0x20\n        /* \"contracts/ModuleX.sol\":4888:4973  require(time_now() >= details.maturity, \"ModuleX:Early Withdrawal is not permitted!\") */\n      0x04\n      dup3\n      add\n        /* \"#utility.yul\":4984:5005   */\n      mstore\n        /* \"#utility.yul\":5041:5043   */\n      0x2a\n        /* \"#utility.yul\":5021:5039   */\n      0x24\n      dup3\n      add\n        /* \"#utility.yul\":5014:5044   */\n      mstore\n        /* \"#utility.yul\":5080:5114   */\n      0x4d6f64756c65583a4561726c79205769746864726177616c206973206e6f7420\n        /* \"#utility.yul\":5060:5078   */\n      0x44\n      dup3\n      add\n        /* \"#utility.yul\":5053:5115   */\n      mstore\n      shl(0xb0, 0x7065726d697474656421)\n        /* \"#utility.yul\":5131:5149   */\n      0x64\n      dup3\n      add\n        /* \"#utility.yul\":5124:5164   */\n      mstore\n        /* \"#utility.yul\":5181:5200   */\n      0x84\n      add\n        /* \"contracts/ModuleX.sol\":4888:4973  require(time_now() >= details.maturity, \"ModuleX:Early Withdrawal is not permitted!\") */\n      tag_123\n        /* \"#utility.yul\":4800:5206   */\n      jump\n        /* \"contracts/ModuleX.sol\":4888:4973  require(time_now() >= details.maturity, \"ModuleX:Early Withdrawal is not permitted!\") */\n    tag_133:\n        /* \"contracts/ModuleX.sol\":5017:5018  0 */\n      0x00\n        /* \"contracts/ModuleX.sol\":4993:5000  details */\n      dup2\n        /* \"contracts/ModuleX.sol\":4993:5014  details.reward_amount */\n      0x02\n      add\n      sload\n        /* \"contracts/ModuleX.sol\":4993:5018  details.reward_amount > 0 */\n      gt\n        /* \"contracts/ModuleX.sol\":4985:5047  require(details.reward_amount > 0, \"ModuleX:Nothing to claim\") */\n      tag_136\n      jumpi\n      mload(0x40)\n      shl(0xe5, 0x461bcd)\n      dup2\n      mstore\n        /* \"#utility.yul\":5413:5415   */\n      0x20\n        /* \"contracts/ModuleX.sol\":4985:5047  require(details.reward_amount > 0, \"ModuleX:Nothing to claim\") */\n      0x04\n      dup3\n      add\n        /* \"#utility.yul\":5395:5416   */\n      mstore\n        /* \"#utility.yul\":5452:5454   */\n      0x18\n        /* \"#utility.yul\":5432:5450   */\n      0x24\n      dup3\n      add\n        /* \"#utility.yul\":5425:5455   */\n      mstore\n        /* \"#utility.yul\":5491:5517   */\n      0x4d6f64756c65583a4e6f7468696e6720746f20636c61696d0000000000000000\n        /* \"#utility.yul\":5471:5489   */\n      0x44\n      dup3\n      add\n        /* \"#utility.yul\":5464:5518   */\n      mstore\n        /* \"#utility.yul\":5535:5553   */\n      0x64\n      add\n        /* \"contracts/ModuleX.sol\":4985:5047  require(details.reward_amount > 0, \"ModuleX:Nothing to claim\") */\n      tag_123\n        /* \"#utility.yul\":5211:5559   */\n      jump\n        /* \"contracts/ModuleX.sol\":4985:5047  require(details.reward_amount > 0, \"ModuleX:Nothing to claim\") */\n    tag_136:\n        /* \"contracts/ModuleX.sol\":5079:5100  details.reward_amount */\n      0x02\n      dup2\n      add\n      sload\n        /* \"contracts/ModuleX.sol\":5111:5159  xCREDI.safeTransfer(_msgSender(), reward_amount) */\n      tag_139\n        /* \"contracts/ModuleX.sol\":5111:5117  xCREDI */\n      immutable(\"0xad444e1082e5d5bbfca385a9a566a2d71dbd349bb06a97871f0be4657884f8e0\")\n      sub(shl(0xa0, 0x01), 0x01)\n        /* \"contracts/ModuleX.sol\":5111:5130  xCREDI.safeTransfer */\n      and\n        /* \"@openzeppelin/contracts/utils/Context.sol\":735:745  msg.sender */\n      caller\n        /* \"contracts/ModuleX.sol\":5079:5100  details.reward_amount */\n      dup4\n        /* \"contracts/ModuleX.sol\":5111:5130  xCREDI.safeTransfer */\n      tag_141\n        /* \"contracts/ModuleX.sol\":5111:5159  xCREDI.safeTransfer(_msgSender(), reward_amount) */\n      jump\t// in\n    tag_139:\n        /* \"contracts/ModuleX.sol\":5195:5208  reward_amount */\n      dup1\n        /* \"contracts/ModuleX.sol\":5175:5191  pending_payments */\n      0x04\n      0x00\n        /* \"contracts/ModuleX.sol\":5175:5208  pending_payments -= reward_amount */\n      dup3\n      dup3\n      sload\n      tag_142\n      swap2\n      swap1\n      tag_143\n      jump\t// in\n    tag_142:\n      swap1\n      swap2\n      sstore\n      pop\n      pop\n        /* \"contracts/ModuleX.sol\":5243:5244  0 */\n      0x00\n        /* \"contracts/ModuleX.sol\":5219:5240  details.reward_amount */\n      0x02\n      dup4\n      add\n        /* \"contracts/ModuleX.sol\":5219:5244  details.reward_amount = 0 */\n      sstore\n        /* \"contracts/ModuleX.sol\":5261:5281  RewardPaid(stake_id) */\n      mload(0x40)\n        /* \"#utility.yul\":160:185   */\n      dup6\n      dup2\n      mstore\n        /* \"contracts/ModuleX.sol\":5261:5281  RewardPaid(stake_id) */\n      0x67bb155fcabb99400c32b640dc7704c8f18aae4c817704c7267c5a8cd26dfc19\n      swap1\n        /* \"#utility.yul\":148:150   */\n      0x20\n        /* \"#utility.yul\":133:151   */\n      add\n        /* \"contracts/ModuleX.sol\":5261:5281  RewardPaid(stake_id) */\n      mload(0x40)\n      dup1\n      swap2\n      sub\n      swap1\n      log1\n        /* \"contracts/ModuleX.sol\":5300:5313  reward_amount */\n      swap5\n        /* \"contracts/ModuleX.sol\":4652:5321  function claim(uint stake_id) external validate_stake(stake_id) returns(uint)... */\n      swap4\n      pop\n      pop\n      pop\n      pop\n      jump\t// out\n        /* \"@openzeppelin/contracts/access/Ownable.sol\":2293:2394  function renounceOwnership() public virtual onlyOwner {... */\n    tag_48:\n        /* \"@openzeppelin/contracts/access/Ownable.sol\":1531:1544  _checkOwner() */\n      tag_146\n        /* \"@openzeppelin/contracts/access/Ownable.sol\":1531:1542  _checkOwner */\n      tag_118\n        /* \"@openzeppelin/contracts/access/Ownable.sol\":1531:1544  _checkOwner() */\n      jump\t// in\n    tag_146:\n        /* \"@openzeppelin/contracts/access/Ownable.sol\":2357:2387  _transferOwnership(address(0)) */\n      tag_148\n        /* \"@openzeppelin/contracts/access/Ownable.sol\":2384:2385  0 */\n      0x00\n        /* \"@openzeppelin/contracts/access/Ownable.sol\":2357:2375  _transferOwnership */\n      tag_149\n        /* \"@openzeppelin/contracts/access/Ownable.sol\":2357:2387  _transferOwnership(address(0)) */\n      jump\t// in\n    tag_148:\n        /* \"@openzeppelin/contracts/access/Ownable.sol\":2293:2394  function renounceOwnership() public virtual onlyOwner {... */\n      jump\t// out\n        /* \"contracts/ModuleX.sol\":5329:5885  function withdrawCREDI(uint stake_id, uint amount) external onlyOwner validate_stake(stake_id)... */\n    tag_70:\n        /* \"@openzeppelin/contracts/access/Ownable.sol\":1531:1544  _checkOwner() */\n      tag_153\n        /* \"@openzeppelin/contracts/access/Ownable.sol\":1531:1542  _checkOwner */\n      tag_118\n        /* \"@openzeppelin/contracts/access/Ownable.sol\":1531:1544  _checkOwner() */\n      jump\t// in\n    tag_153:\n        /* \"contracts/ModuleX.sol\":5414:5422  stake_id */\n      dup2\n        /* \"contracts/ModuleX.sol\":1364:1365  0 */\n      0x00\n        /* \"contracts/ModuleX.sol\":1353:1361  stake_id */\n      dup2\n        /* \"contracts/ModuleX.sol\":1353:1365  stake_id > 0 */\n      gt\n        /* \"contracts/ModuleX.sol\":1353:1392  stake_id > 0 && stake_id < stakes_count */\n      dup1\n      iszero\n      tag_155\n      jumpi\n      pop\n        /* \"contracts/ModuleX.sol\":1380:1392  stakes_count */\n      sload(0x02)\n        /* \"contracts/ModuleX.sol\":1369:1377  stake_id */\n      dup2\n        /* \"contracts/ModuleX.sol\":1369:1392  stake_id < stakes_count */\n      lt\n        /* \"contracts/ModuleX.sol\":1353:1392  stake_id > 0 && stake_id < stakes_count */\n    tag_155:\n        /* \"contracts/ModuleX.sol\":1345:1422  require(stake_id > 0 && stake_id < stakes_count, \"ModuleX:Invalid Stake ID!\") */\n      tag_156\n      jumpi\n      mload(0x40)\n      shl(0xe5, 0x461bcd)\n      dup2\n      mstore\n        /* \"#utility.yul\":4288:4290   */\n      0x20\n        /* \"contracts/ModuleX.sol\":1345:1422  require(stake_id > 0 && stake_id < stakes_count, \"ModuleX:Invalid Stake ID!\") */\n      0x04\n      dup3\n      add\n        /* \"#utility.yul\":4270:4291   */\n      mstore\n        /* \"#utility.yul\":4327:4329   */\n      0x19\n        /* \"#utility.yul\":4307:4325   */\n      0x24\n      dup3\n      add\n        /* \"#utility.yul\":4300:4330   */\n      mstore\n      shl(0x38, 0x4d6f64756c65583a496e76616c6964205374616b6520494421)\n        /* \"#utility.yul\":4346:4364   */\n      0x44\n      dup3\n      add\n        /* \"#utility.yul\":4339:4394   */\n      mstore\n        /* \"#utility.yul\":4411:4429   */\n      0x64\n      add\n        /* \"contracts/ModuleX.sol\":1345:1422  require(stake_id > 0 && stake_id < stakes_count, \"ModuleX:Invalid Stake ID!\") */\n      tag_123\n        /* \"#utility.yul\":4086:4435   */\n      jump\n        /* \"contracts/ModuleX.sol\":1345:1422  require(stake_id > 0 && stake_id < stakes_count, \"ModuleX:Invalid Stake ID!\") */\n    tag_156:\n        /* \"contracts/ModuleX.sol\":5458:5459  0 */\n      0x00\n        /* \"contracts/ModuleX.sol\":5449:5455  amount */\n      dup3\n        /* \"contracts/ModuleX.sol\":5449:5459  amount > 0 */\n      gt\n        /* \"contracts/ModuleX.sol\":5440:5505  require (amount > 0, \"ModuleX:amount must be greater than zero!\") */\n      tag_159\n      jumpi\n      mload(0x40)\n      shl(0xe5, 0x461bcd)\n      dup2\n      mstore\n        /* \"#utility.yul\":6031:6033   */\n      0x20\n        /* \"contracts/ModuleX.sol\":5440:5505  require (amount > 0, \"ModuleX:amount must be greater than zero!\") */\n      0x04\n      dup3\n      add\n        /* \"#utility.yul\":6013:6034   */\n      mstore\n        /* \"#utility.yul\":6070:6072   */\n      0x29\n        /* \"#utility.yul\":6050:6068   */\n      0x24\n      dup3\n      add\n        /* \"#utility.yul\":6043:6073   */\n      mstore\n        /* \"#utility.yul\":6109:6143   */\n      0x4d6f64756c65583a616d6f756e74206d75737420626520677265617465722074\n        /* \"#utility.yul\":6089:6107   */\n      0x44\n      dup3\n      add\n        /* \"#utility.yul\":6082:6144   */\n      mstore\n      shl(0xb8, 0x68616e207a65726f21)\n        /* \"#utility.yul\":6160:6178   */\n      0x64\n      dup3\n      add\n        /* \"#utility.yul\":6153:6192   */\n      mstore\n        /* \"#utility.yul\":6209:6228   */\n      0x84\n      add\n        /* \"contracts/ModuleX.sol\":5440:5505  require (amount > 0, \"ModuleX:amount must be greater than zero!\") */\n      tag_123\n        /* \"#utility.yul\":5829:6234   */\n      jump\n        /* \"contracts/ModuleX.sol\":5440:5505  require (amount > 0, \"ModuleX:amount must be greater than zero!\") */\n    tag_159:\n        /* \"contracts/ModuleX.sol\":5516:5544  StakeDetails storage details */\n      0x00\n        /* \"contracts/ModuleX.sol\":5547:5563  stakes[stake_id] */\n      dup4\n      dup2\n      mstore\n        /* \"contracts/ModuleX.sol\":5547:5553  stakes */\n      0x01\n        /* \"contracts/ModuleX.sol\":5547:5563  stakes[stake_id] */\n      0x20\n      mstore\n      0x40\n      swap1\n      keccak256\n        /* \"contracts/ModuleX.sol\":5596:5612  details.maturity */\n      dup1\n      sload\n      shl(0xa0, 0x01)\n      swap1\n      div\n      sub(shl(0x60, 0x01), 0x01)\n      and\n        /* \"contracts/ModuleX.sol\":2579:2594  block.timestamp */\n      timestamp\n      sub(shl(0x60, 0x01), 0x01)\n        /* \"contracts/ModuleX.sol\":5582:5612  time_now() <= details.maturity */\n      and\n      gt\n      iszero\n        /* \"contracts/ModuleX.sol\":5574:5638  require(time_now() <= details.maturity, \"ModuleX:Burnt tokens!\") */\n      tag_163\n      jumpi\n      mload(0x40)\n      shl(0xe5, 0x461bcd)\n      dup2\n      mstore\n        /* \"#utility.yul\":6441:6443   */\n      0x20\n        /* \"contracts/ModuleX.sol\":5574:5638  require(time_now() <= details.maturity, \"ModuleX:Burnt tokens!\") */\n      0x04\n      dup3\n      add\n        /* \"#utility.yul\":6423:6444   */\n      mstore\n        /* \"#utility.yul\":6480:6482   */\n      0x15\n        /* \"#utility.yul\":6460:6478   */\n      0x24\n      dup3\n      add\n        /* \"#utility.yul\":6453:6483   */\n      mstore\n      shl(0x58, 0x4d6f64756c65583a4275726e7420746f6b656e7321)\n        /* \"#utility.yul\":6499:6517   */\n      0x44\n      dup3\n      add\n        /* \"#utility.yul\":6492:6543   */\n      mstore\n        /* \"#utility.yul\":6560:6578   */\n      0x64\n      add\n        /* \"contracts/ModuleX.sol\":5574:5638  require(time_now() <= details.maturity, \"ModuleX:Burnt tokens!\") */\n      tag_123\n        /* \"#utility.yul\":6239:6584   */\n      jump\n        /* \"contracts/ModuleX.sol\":5574:5638  require(time_now() <= details.maturity, \"ModuleX:Burnt tokens!\") */\n    tag_163:\n        /* \"contracts/ModuleX.sol\":5668:5675  details */\n      dup1\n        /* \"contracts/ModuleX.sol\":5668:5688  details.stake_amount */\n      0x01\n      add\n      sload\n        /* \"contracts/ModuleX.sol\":5658:5664  amount */\n      dup4\n        /* \"contracts/ModuleX.sol\":5658:5688  amount <= details.stake_amount */\n      gt\n      iszero\n        /* \"contracts/ModuleX.sol\":5650:5722  require(amount <= details.stake_amount, \"ModuleX:Insufficient balance!\") */\n      tag_166\n      jumpi\n      mload(0x40)\n      shl(0xe5, 0x461bcd)\n      dup2\n      mstore\n        /* \"#utility.yul\":6791:6793   */\n      0x20\n        /* \"contracts/ModuleX.sol\":5650:5722  require(amount <= details.stake_amount, \"ModuleX:Insufficient balance!\") */\n      0x04\n      dup3\n      add\n        /* \"#utility.yul\":6773:6794   */\n      mstore\n        /* \"#utility.yul\":6830:6832   */\n      0x1d\n        /* \"#utility.yul\":6810:6828   */\n      0x24\n      dup3\n      add\n        /* \"#utility.yul\":6803:6833   */\n      mstore\n        /* \"#utility.yul\":6869:6900   */\n      0x4d6f64756c65583a496e73756666696369656e742062616c616e636521000000\n        /* \"#utility.yul\":6849:6867   */\n      0x44\n      dup3\n      add\n        /* \"#utility.yul\":6842:6901   */\n      mstore\n        /* \"#utility.yul\":6918:6936   */\n      0x64\n      add\n        /* \"contracts/ModuleX.sol\":5650:5722  require(amount <= details.stake_amount, \"ModuleX:Insufficient balance!\") */\n      tag_123\n        /* \"#utility.yul\":6589:6942   */\n      jump\n        /* \"contracts/ModuleX.sol\":5650:5722  require(amount <= details.stake_amount, \"ModuleX:Insufficient balance!\") */\n    tag_166:\n        /* \"contracts/ModuleX.sol\":5734:5788  CREDI.safeTransfer(_msgSender(), details.stake_amount) */\n      tag_169\n        /* \"@openzeppelin/contracts/utils/Context.sol\":735:745  msg.sender */\n      caller\n        /* \"contracts/ModuleX.sol\":5767:5787  details.stake_amount */\n      0x01\n      dup4\n      add\n      sload\n      sub(shl(0xa0, 0x01), 0x01)\n        /* \"contracts/ModuleX.sol\":5734:5739  CREDI */\n      immutable(\"0xdff167ddfa3189a3e9389ac75b945e17c7959b64870603a7f04a55d1519d28e2\")\n        /* \"contracts/ModuleX.sol\":5734:5752  CREDI.safeTransfer */\n      and\n      swap2\n        /* \"contracts/ModuleX.sol\":5734:5788  CREDI.safeTransfer(_msgSender(), details.stake_amount) */\n      swap1\n        /* \"contracts/ModuleX.sol\":5734:5752  CREDI.safeTransfer */\n      tag_141\n        /* \"contracts/ModuleX.sol\":5734:5788  CREDI.safeTransfer(_msgSender(), details.stake_amount) */\n      jump\t// in\n    tag_169:\n        /* \"contracts/ModuleX.sol\":5823:5829  amount */\n      dup3\n        /* \"contracts/ModuleX.sol\":5799:5806  details */\n      dup2\n        /* \"contracts/ModuleX.sol\":5799:5819  details.stake_amount */\n      0x01\n      add\n      0x00\n        /* \"contracts/ModuleX.sol\":5799:5829  details.stake_amount -= amount */\n      dup3\n      dup3\n      sload\n      tag_171\n      swap2\n      swap1\n      tag_143\n      jump\t// in\n    tag_171:\n      swap1\n      swap2\n      sstore\n      pop\n      pop\n        /* \"contracts/ModuleX.sol\":5845:5877  CREDIWithdrawn(stake_id, amount) */\n      0x40\n      dup1\n      mload\n        /* \"#utility.yul\":3816:3841   */\n      dup6\n      dup2\n      mstore\n        /* \"#utility.yul\":3872:3874   */\n      0x20\n        /* \"#utility.yul\":3857:3875   */\n      dup2\n      add\n        /* \"#utility.yul\":3850:3884   */\n      dup6\n      swap1\n      mstore\n        /* \"contracts/ModuleX.sol\":5845:5877  CREDIWithdrawn(stake_id, amount) */\n      0x03a00e6132085cbc9ea18899cd135ef9cad5d305d58506e08e7b1a9b96199a9c\n      swap2\n        /* \"#utility.yul\":3789:3807   */\n      add\n        /* \"contracts/ModuleX.sol\":5845:5877  CREDIWithdrawn(stake_id, amount) */\n      mload(0x40)\n      dup1\n      swap2\n      sub\n      swap1\n      log1\n        /* \"contracts/ModuleX.sol\":5429:5885  {... */\n      pop\n        /* \"@openzeppelin/contracts/access/Ownable.sol\":1554:1555  _ */\n      pop\n        /* \"contracts/ModuleX.sol\":5329:5885  function withdrawCREDI(uint stake_id, uint amount) external onlyOwner validate_stake(stake_id)... */\n      pop\n      pop\n      jump\t// out\n        /* \"contracts/ModuleX.sol\":1988:2089  function getStakesCount() external view returns(uint)... */\n    tag_78:\n        /* \"contracts/ModuleX.sol\":2036:2040  uint */\n      0x00\n        /* \"contracts/ModuleX.sol\":2080:2081  1 */\n      0x01\n        /* \"contracts/ModuleX.sol\":2065:2077  stakes_count */\n      sload(0x02)\n        /* \"contracts/ModuleX.sol\":2065:2081  stakes_count - 1 */\n      tag_174\n      swap2\n      swap1\n      tag_143\n      jump\t// in\n    tag_174:\n        /* \"contracts/ModuleX.sol\":2058:2081  return stakes_count - 1 */\n      swap1\n      pop\n        /* \"contracts/ModuleX.sol\":1988:2089  function getStakesCount() external view returns(uint)... */\n      swap1\n      jump\t// out\n        /* \"contracts/ModuleX.sol\":3519:3648  function getDifficulty() external view returns(uint)... */\n    tag_81:\n        /* \"contracts/ModuleX.sol\":3566:3570  uint */\n      0x00\n        /* \"contracts/ModuleX.sol\":3630:3640  DIFFICULTY */\n      immutable(\"0xeb29b49011c9cf62c1f2455e9e4472fdc1b37c8f4e32969c812d39bb921154f4\")\n        /* \"contracts/ModuleX.sol\":3608:3627  DIFFICULTY_INTERVAL */\n      immutable(\"0x1953a27a405e8582cf1be8a2db4a8d6898082fbed25ec72fb4b95dbd76ab849b\")\n        /* \"contracts/ModuleX.sol\":3595:3607  total_staked */\n      sload(0x03)\n        /* \"contracts/ModuleX.sol\":3595:3627  total_staked/DIFFICULTY_INTERVAL */\n      tag_176\n      swap2\n      swap1\n      tag_177\n      jump\t// in\n    tag_176:\n        /* \"contracts/ModuleX.sol\":3595:3640  total_staked/DIFFICULTY_INTERVAL + DIFFICULTY */\n      tag_174\n      swap2\n      swap1\n      tag_179\n      jump\t// in\n        /* \"contracts/ModuleX.sol\":5893:6605  function batchWithdrawCREDI(uint[] calldata stake_ids) external onlyOwner... */\n    tag_86:\n        /* \"@openzeppelin/contracts/access/Ownable.sol\":1531:1544  _checkOwner() */\n      tag_181\n        /* \"@openzeppelin/contracts/access/Ownable.sol\":1531:1542  _checkOwner */\n      tag_118\n        /* \"@openzeppelin/contracts/access/Ownable.sol\":1531:1544  _checkOwner() */\n      jump\t// in\n    tag_181:\n        /* \"contracts/ModuleX.sol\":5983:6000  uint total_amount */\n      0x00\n      dup1\n        /* \"contracts/ModuleX.sol\":6015:6474  for(uint i = 0; i < stake_ids.length; i++)... */\n    tag_183:\n        /* \"contracts/ModuleX.sol\":6031:6051  i < stake_ids.length */\n      dup3\n      dup2\n      lt\n        /* \"contracts/ModuleX.sol\":6015:6474  for(uint i = 0; i < stake_ids.length; i++)... */\n      iszero\n      tag_184\n      jumpi\n        /* \"contracts/ModuleX.sol\":6105:6117  stakes_count */\n      sload(0x02)\n        /* \"contracts/ModuleX.sol\":6090:6099  stake_ids */\n      dup5\n      dup5\n        /* \"contracts/ModuleX.sol\":6100:6101  i */\n      dup4\n        /* \"contracts/ModuleX.sol\":6090:6102  stake_ids[i] */\n      dup2\n      dup2\n      lt\n      tag_187\n      jumpi\n      tag_187\n      tag_188\n      jump\t// in\n    tag_187:\n      swap1\n      pop\n      0x20\n      mul\n      add\n      calldataload\n        /* \"contracts/ModuleX.sol\":6090:6117  stake_ids[i] < stakes_count */\n      lt\n        /* \"contracts/ModuleX.sol\":6082:6147  require(stake_ids[i] < stakes_count, \"ModuleX:Invalid Stake ID!\") */\n      tag_189\n      jumpi\n      mload(0x40)\n      shl(0xe5, 0x461bcd)\n      dup2\n      mstore\n        /* \"#utility.yul\":4288:4290   */\n      0x20\n        /* \"contracts/ModuleX.sol\":6082:6147  require(stake_ids[i] < stakes_count, \"ModuleX:Invalid Stake ID!\") */\n      0x04\n      dup3\n      add\n        /* \"#utility.yul\":4270:4291   */\n      mstore\n        /* \"#utility.yul\":4327:4329   */\n      0x19\n        /* \"#utility.yul\":4307:4325   */\n      0x24\n      dup3\n      add\n        /* \"#utility.yul\":4300:4330   */\n      mstore\n      shl(0x38, 0x4d6f64756c65583a496e76616c6964205374616b6520494421)\n        /* \"#utility.yul\":4346:4364   */\n      0x44\n      dup3\n      add\n        /* \"#utility.yul\":4339:4394   */\n      mstore\n        /* \"#utility.yul\":4411:4429   */\n      0x64\n      add\n        /* \"contracts/ModuleX.sol\":6082:6147  require(stake_ids[i] < stakes_count, \"ModuleX:Invalid Stake ID!\") */\n      tag_123\n        /* \"#utility.yul\":4086:4435   */\n      jump\n        /* \"contracts/ModuleX.sol\":6082:6147  require(stake_ids[i] < stakes_count, \"ModuleX:Invalid Stake ID!\") */\n    tag_189:\n        /* \"contracts/ModuleX.sol\":6162:6190  StakeDetails storage details */\n      0x00\n        /* \"contracts/ModuleX.sol\":6193:6199  stakes */\n      0x01\n        /* \"contracts/ModuleX.sol\":6193:6213  stakes[stake_ids[i]] */\n      0x00\n        /* \"contracts/ModuleX.sol\":6200:6209  stake_ids */\n      dup7\n      dup7\n        /* \"contracts/ModuleX.sol\":6210:6211  i */\n      dup6\n        /* \"contracts/ModuleX.sol\":6200:6212  stake_ids[i] */\n      dup2\n      dup2\n      lt\n      tag_192\n      jumpi\n      tag_192\n      tag_188\n      jump\t// in\n    tag_192:\n      0x20\n      swap1\n      dup2\n      mul\n      swap3\n      swap1\n      swap3\n      add\n      calldataload\n        /* \"contracts/ModuleX.sol\":6193:6213  stakes[stake_ids[i]] */\n      dup4\n      mstore\n      pop\n      dup2\n      add\n      swap2\n      swap1\n      swap2\n      mstore\n      0x40\n      add\n      0x00\n      keccak256\n        /* \"contracts/ModuleX.sol\":6250:6266  details.maturity */\n      dup1\n      sload\n        /* \"contracts/ModuleX.sol\":6193:6213  stakes[stake_ids[i]] */\n      swap1\n      swap2\n      pop\n      shl(0xa0, 0x01)\n        /* \"contracts/ModuleX.sol\":6250:6266  details.maturity */\n      swap1\n      div\n      sub(shl(0x60, 0x01), 0x01)\n      and\n        /* \"contracts/ModuleX.sol\":2579:2594  block.timestamp */\n      timestamp\n      sub(shl(0x60, 0x01), 0x01)\n        /* \"contracts/ModuleX.sol\":6236:6266  time_now() <= details.maturity */\n      and\n      gt\n      iszero\n        /* \"contracts/ModuleX.sol\":6228:6292  require(time_now() <= details.maturity, \"ModuleX:Burnt tokens!\") */\n      tag_194\n      jumpi\n      mload(0x40)\n      shl(0xe5, 0x461bcd)\n      dup2\n      mstore\n        /* \"#utility.yul\":6441:6443   */\n      0x20\n        /* \"contracts/ModuleX.sol\":6228:6292  require(time_now() <= details.maturity, \"ModuleX:Burnt tokens!\") */\n      0x04\n      dup3\n      add\n        /* \"#utility.yul\":6423:6444   */\n      mstore\n        /* \"#utility.yul\":6480:6482   */\n      0x15\n        /* \"#utility.yul\":6460:6478   */\n      0x24\n      dup3\n      add\n        /* \"#utility.yul\":6453:6483   */\n      mstore\n      shl(0x58, 0x4d6f64756c65583a4275726e7420746f6b656e7321)\n        /* \"#utility.yul\":6499:6517   */\n      0x44\n      dup3\n      add\n        /* \"#utility.yul\":6492:6543   */\n      mstore\n        /* \"#utility.yul\":6560:6578   */\n      0x64\n      add\n        /* \"contracts/ModuleX.sol\":6228:6292  require(time_now() <= details.maturity, \"ModuleX:Burnt tokens!\") */\n      tag_123\n        /* \"#utility.yul\":6239:6584   */\n      jump\n        /* \"contracts/ModuleX.sol\":6228:6292  require(time_now() <= details.maturity, \"ModuleX:Burnt tokens!\") */\n    tag_194:\n        /* \"contracts/ModuleX.sol\":6323:6343  details.stake_amount */\n      0x01\n      dup2\n      add\n      sload\n        /* \"contracts/ModuleX.sol\":6307:6343  total_amount += details.stake_amount */\n      tag_196\n      swap1\n      dup5\n      tag_179\n      jump\t// in\n    tag_196:\n        /* \"contracts/ModuleX.sol\":6381:6382  0 */\n      0x00\n        /* \"contracts/ModuleX.sol\":6358:6378  details.stake_amount */\n      0x01\n      dup4\n      add\n        /* \"contracts/ModuleX.sol\":6358:6382  details.stake_amount = 0 */\n      sstore\n        /* \"contracts/ModuleX.sol\":6307:6343  total_amount += details.stake_amount */\n      swap3\n      pop\n        /* \"contracts/ModuleX.sol\":6412:6462  CREDIWithdrawn(stake_ids[i], details.stake_amount) */\n      0x03a00e6132085cbc9ea18899cd135ef9cad5d305d58506e08e7b1a9b96199a9c\n        /* \"contracts/ModuleX.sol\":6427:6436  stake_ids */\n      dup6\n      dup6\n        /* \"contracts/ModuleX.sol\":6437:6438  i */\n      dup5\n        /* \"contracts/ModuleX.sol\":6427:6439  stake_ids[i] */\n      dup2\n      dup2\n      lt\n      tag_198\n      jumpi\n      tag_198\n      tag_188\n      jump\t// in\n    tag_198:\n      swap1\n      pop\n      0x20\n      mul\n      add\n      calldataload\n        /* \"contracts/ModuleX.sol\":6441:6448  details */\n      dup3\n        /* \"contracts/ModuleX.sol\":6441:6461  details.stake_amount */\n      0x01\n      add\n      sload\n        /* \"contracts/ModuleX.sol\":6412:6462  CREDIWithdrawn(stake_ids[i], details.stake_amount) */\n      mload(0x40)\n      tag_199\n      swap3\n      swap2\n      swap1\n        /* \"#utility.yul\":3816:3841   */\n      swap2\n      dup3\n      mstore\n        /* \"#utility.yul\":3872:3874   */\n      0x20\n        /* \"#utility.yul\":3857:3875   */\n      dup3\n      add\n        /* \"#utility.yul\":3850:3884   */\n      mstore\n        /* \"#utility.yul\":3804:3806   */\n      0x40\n        /* \"#utility.yul\":3789:3807   */\n      add\n      swap1\n        /* \"#utility.yul\":3642:3890   */\n      jump\n        /* \"contracts/ModuleX.sol\":6412:6462  CREDIWithdrawn(stake_ids[i], details.stake_amount) */\n    tag_199:\n      mload(0x40)\n      dup1\n      swap2\n      sub\n      swap1\n      log1\n      pop\n        /* \"contracts/ModuleX.sol\":6053:6056  i++ */\n      0x01\n      add\n        /* \"contracts/ModuleX.sol\":6015:6474  for(uint i = 0; i < stake_ids.length; i++)... */\n      jump(tag_183)\n    tag_184:\n      pop\n        /* \"contracts/ModuleX.sol\":6507:6508  0 */\n      0x00\n        /* \"contracts/ModuleX.sol\":6492:6504  total_amount */\n      dup2\n        /* \"contracts/ModuleX.sol\":6492:6508  total_amount > 0 */\n      gt\n        /* \"contracts/ModuleX.sol\":6484:6539  require(total_amount > 0, \"ModuleX:Total amount is 0!\") */\n      tag_200\n      jumpi\n      mload(0x40)\n      shl(0xe5, 0x461bcd)\n      dup2\n      mstore\n        /* \"#utility.yul\":7633:7635   */\n      0x20\n        /* \"contracts/ModuleX.sol\":6484:6539  require(total_amount > 0, \"ModuleX:Total amount is 0!\") */\n      0x04\n      dup3\n      add\n        /* \"#utility.yul\":7615:7636   */\n      mstore\n        /* \"#utility.yul\":7672:7674   */\n      0x1a\n        /* \"#utility.yul\":7652:7670   */\n      0x24\n      dup3\n      add\n        /* \"#utility.yul\":7645:7675   */\n      mstore\n        /* \"#utility.yul\":7711:7739   */\n      0x4d6f64756c65583a546f74616c20616d6f756e74206973203021000000000000\n        /* \"#utility.yul\":7691:7709   */\n      0x44\n      dup3\n      add\n        /* \"#utility.yul\":7684:7740   */\n      mstore\n        /* \"#utility.yul\":7757:7775   */\n      0x64\n      add\n        /* \"contracts/ModuleX.sol\":6484:6539  require(total_amount > 0, \"ModuleX:Total amount is 0!\") */\n      tag_123\n        /* \"#utility.yul\":7431:7781   */\n      jump\n        /* \"contracts/ModuleX.sol\":6484:6539  require(total_amount > 0, \"ModuleX:Total amount is 0!\") */\n    tag_200:\n        /* \"contracts/ModuleX.sol\":6551:6597  CREDI.safeTransfer(_msgSender(), total_amount) */\n      tag_203\n        /* \"contracts/ModuleX.sol\":6551:6556  CREDI */\n      immutable(\"0xdff167ddfa3189a3e9389ac75b945e17c7959b64870603a7f04a55d1519d28e2\")\n      sub(shl(0xa0, 0x01), 0x01)\n        /* \"contracts/ModuleX.sol\":6551:6569  CREDI.safeTransfer */\n      and\n        /* \"@openzeppelin/contracts/utils/Context.sol\":735:745  msg.sender */\n      caller\n        /* \"contracts/ModuleX.sol\":6584:6596  total_amount */\n      dup4\n        /* \"contracts/ModuleX.sol\":6551:6569  CREDI.safeTransfer */\n      tag_141\n        /* \"contracts/ModuleX.sol\":6551:6597  CREDI.safeTransfer(_msgSender(), total_amount) */\n      jump\t// in\n    tag_203:\n        /* \"contracts/ModuleX.sol\":5972:6605  {... */\n      pop\n        /* \"contracts/ModuleX.sol\":5893:6605  function batchWithdrawCREDI(uint[] calldata stake_ids) external onlyOwner... */\n      pop\n      pop\n      jump\t// out\n        /* \"contracts/ModuleX.sol\":6613:6851  function addRewards(uint amount) external ... */\n    tag_89:\n        /* \"contracts/ModuleX.sol\":6690:6691  0 */\n      0x00\n        /* \"contracts/ModuleX.sol\":6681:6687  amount */\n      dup2\n        /* \"contracts/ModuleX.sol\":6681:6691  amount > 0 */\n      gt\n        /* \"contracts/ModuleX.sol\":6672:6737  require (amount > 0, \"ModuleX:amount must be greater than zero!\") */\n      tag_206\n      jumpi\n      mload(0x40)\n      shl(0xe5, 0x461bcd)\n      dup2\n      mstore\n        /* \"#utility.yul\":6031:6033   */\n      0x20\n        /* \"contracts/ModuleX.sol\":6672:6737  require (amount > 0, \"ModuleX:amount must be greater than zero!\") */\n      0x04\n      dup3\n      add\n        /* \"#utility.yul\":6013:6034   */\n      mstore\n        /* \"#utility.yul\":6070:6072   */\n      0x29\n        /* \"#utility.yul\":6050:6068   */\n      0x24\n      dup3\n      add\n        /* \"#utility.yul\":6043:6073   */\n      mstore\n        /* \"#utility.yul\":6109:6143   */\n      0x4d6f64756c65583a616d6f756e74206d75737420626520677265617465722074\n        /* \"#utility.yul\":6089:6107   */\n      0x44\n      dup3\n      add\n        /* \"#utility.yul\":6082:6144   */\n      mstore\n      shl(0xb8, 0x68616e207a65726f21)\n        /* \"#utility.yul\":6160:6178   */\n      0x64\n      dup3\n      add\n        /* \"#utility.yul\":6153:6192   */\n      mstore\n        /* \"#utility.yul\":6209:6228   */\n      0x84\n      add\n        /* \"contracts/ModuleX.sol\":6672:6737  require (amount > 0, \"ModuleX:amount must be greater than zero!\") */\n      tag_123\n        /* \"#utility.yul\":5829:6234   */\n      jump\n        /* \"contracts/ModuleX.sol\":6672:6737  require (amount > 0, \"ModuleX:amount must be greater than zero!\") */\n    tag_206:\n        /* \"contracts/ModuleX.sol\":6748:6808  xCREDI.safeTransferFrom(_msgSender(), address(this), amount) */\n      tag_208\n        /* \"contracts/ModuleX.sol\":6748:6754  xCREDI */\n      immutable(\"0xad444e1082e5d5bbfca385a9a566a2d71dbd349bb06a97871f0be4657884f8e0\")\n      sub(shl(0xa0, 0x01), 0x01)\n        /* \"contracts/ModuleX.sol\":6748:6771  xCREDI.safeTransferFrom */\n      and\n        /* \"@openzeppelin/contracts/utils/Context.sol\":735:745  msg.sender */\n      caller\n        /* \"contracts/ModuleX.sol\":6794:6798  this */\n      address\n        /* \"contracts/ModuleX.sol\":6801:6807  amount */\n      dup5\n        /* \"contracts/ModuleX.sol\":6748:6771  xCREDI.safeTransferFrom */\n      tag_210\n        /* \"contracts/ModuleX.sol\":6748:6808  xCREDI.safeTransferFrom(_msgSender(), address(this), amount) */\n      jump\t// in\n    tag_208:\n        /* \"contracts/ModuleX.sol\":6824:6843  RewardAdded(amount) */\n      mload(0x40)\n        /* \"#utility.yul\":160:185   */\n      dup2\n      dup2\n      mstore\n        /* \"contracts/ModuleX.sol\":6824:6843  RewardAdded(amount) */\n      0xde88a922e0d3b88b24e9623efeb464919c6bf9f66857a65e2bfcf2ce87a9433d\n      swap1\n        /* \"#utility.yul\":148:150   */\n      0x20\n        /* \"#utility.yul\":133:151   */\n      add\n        /* \"contracts/ModuleX.sol\":6824:6843  RewardAdded(amount) */\n      mload(0x40)\n      dup1\n      swap2\n      sub\n      swap1\n      log1\n        /* \"contracts/ModuleX.sol\":6613:6851  function addRewards(uint amount) external ... */\n      pop\n      jump\t// out\n        /* \"contracts/ModuleX.sol\":2097:2492  function getStake(uint stake_id) external validate_stake(stake_id) view ... */\n    tag_92:\n        /* \"contracts/ModuleX.sol\":2198:2211  address owner */\n      0x00\n        /* \"contracts/ModuleX.sol\":2222:2235  uint maturity */\n      0x00\n        /* \"contracts/ModuleX.sol\":2246:2263  uint stake_amount */\n      0x00\n        /* \"contracts/ModuleX.sol\":2274:2292  uint reward_amount */\n      0x00\n        /* \"contracts/ModuleX.sol\":2154:2162  stake_id */\n      dup5\n        /* \"contracts/ModuleX.sol\":1364:1365  0 */\n      0x00\n        /* \"contracts/ModuleX.sol\":1353:1361  stake_id */\n      dup2\n        /* \"contracts/ModuleX.sol\":1353:1365  stake_id > 0 */\n      gt\n        /* \"contracts/ModuleX.sol\":1353:1392  stake_id > 0 && stake_id < stakes_count */\n      dup1\n      iszero\n      tag_213\n      jumpi\n      pop\n        /* \"contracts/ModuleX.sol\":1380:1392  stakes_count */\n      sload(0x02)\n        /* \"contracts/ModuleX.sol\":1369:1377  stake_id */\n      dup2\n        /* \"contracts/ModuleX.sol\":1369:1392  stake_id < stakes_count */\n      lt\n        /* \"contracts/ModuleX.sol\":1353:1392  stake_id > 0 && stake_id < stakes_count */\n    tag_213:\n        /* \"contracts/ModuleX.sol\":1345:1422  require(stake_id > 0 && stake_id < stakes_count, \"ModuleX:Invalid Stake ID!\") */\n      tag_214\n      jumpi\n      mload(0x40)\n      shl(0xe5, 0x461bcd)\n      dup2\n      mstore\n        /* \"#utility.yul\":4288:4290   */\n      0x20\n        /* \"contracts/ModuleX.sol\":1345:1422  require(stake_id > 0 && stake_id < stakes_count, \"ModuleX:Invalid Stake ID!\") */\n      0x04\n      dup3\n      add\n        /* \"#utility.yul\":4270:4291   */\n      mstore\n        /* \"#utility.yul\":4327:4329   */\n      0x19\n        /* \"#utility.yul\":4307:4325   */\n      0x24\n      dup3\n      add\n        /* \"#utility.yul\":4300:4330   */\n      mstore\n      shl(0x38, 0x4d6f64756c65583a496e76616c6964205374616b6520494421)\n        /* \"#utility.yul\":4346:4364   */\n      0x44\n      dup3\n      add\n        /* \"#utility.yul\":4339:4394   */\n      mstore\n        /* \"#utility.yul\":4411:4429   */\n      0x64\n      add\n        /* \"contracts/ModuleX.sol\":1345:1422  require(stake_id > 0 && stake_id < stakes_count, \"ModuleX:Invalid Stake ID!\") */\n      tag_123\n        /* \"#utility.yul\":4086:4435   */\n      jump\n        /* \"contracts/ModuleX.sol\":1345:1422  require(stake_id > 0 && stake_id < stakes_count, \"ModuleX:Invalid Stake ID!\") */\n    tag_214:\n      pop\n      pop\n      pop\n        /* \"contracts/ModuleX.sol\":2332:2348  stakes[stake_id] */\n      0x00\n      swap3\n      dup4\n      mstore\n      pop\n      pop\n        /* \"contracts/ModuleX.sol\":2332:2338  stakes */\n      0x01\n        /* \"contracts/ModuleX.sol\":2332:2348  stakes[stake_id] */\n      0x20\n      dup2\n      swap1\n      mstore\n      0x40\n      swap1\n      swap2\n      keccak256\n        /* \"contracts/ModuleX.sol\":2332:2354  stakes[stake_id].owner */\n      dup1\n      sload\n        /* \"contracts/ModuleX.sol\":2409:2438  stakes[stake_id].stake_amount */\n      swap2\n      dup2\n      add\n      sload\n        /* \"contracts/ModuleX.sol\":2453:2483  stakes[stake_id].reward_amount */\n      0x02\n      swap1\n      swap2\n      add\n      sload\n      sub(shl(0xa0, 0x01), 0x01)\n        /* \"contracts/ModuleX.sol\":2332:2354  stakes[stake_id].owner */\n      dup4\n      and\n      swap4\n      shl(0xa0, 0x01)\n        /* \"contracts/ModuleX.sol\":2369:2394  stakes[stake_id].maturity */\n      swap1\n      swap4\n      div\n      sub(shl(0x60, 0x01), 0x01)\n      and\n      swap3\n        /* \"contracts/ModuleX.sol\":2097:2492  function getStake(uint stake_id) external validate_stake(stake_id) view ... */\n      jump\t// out\n        /* \"contracts/ModuleX.sol\":2611:3511  function calculateReward(uint stake_amount) public view returns(uint)... */\n    tag_97:\n        /* \"contracts/ModuleX.sol\":2675:2679  uint */\n      0x00\n        /* \"contracts/ModuleX.sol\":2698:2715  uint SCALE_FACTOR */\n      0x00\n        /* \"contracts/ModuleX.sol\":2718:2722  1e18 */\n      0x0de0b6b3a7640000\n        /* \"contracts/ModuleX.sol\":2698:2722  uint SCALE_FACTOR = 1e18 */\n      swap1\n      pop\n        /* \"contracts/ModuleX.sol\":2733:2748  uint curr_total */\n      0x00\n        /* \"contracts/ModuleX.sol\":2766:2778  stake_amount */\n      dup4\n        /* \"contracts/ModuleX.sol\":2751:2763  total_staked */\n      sload(0x03)\n        /* \"contracts/ModuleX.sol\":2751:2778  total_staked + stake_amount */\n      tag_218\n      swap2\n      swap1\n      tag_179\n      jump\t// in\n    tag_218:\n        /* \"contracts/ModuleX.sol\":2733:2778  uint curr_total = total_staked + stake_amount */\n      swap1\n      pop\n        /* \"contracts/ModuleX.sol\":2789:2799  uint low_d */\n      0x00\n        /* \"contracts/ModuleX.sol\":2815:2834  DIFFICULTY_INTERVAL */\n      immutable(\"0x1953a27a405e8582cf1be8a2db4a8d6898082fbed25ec72fb4b95dbd76ab849b\")\n        /* \"contracts/ModuleX.sol\":2802:2814  total_staked */\n      sload(0x03)\n        /* \"contracts/ModuleX.sol\":2802:2834  total_staked/DIFFICULTY_INTERVAL */\n      tag_219\n      swap2\n      swap1\n      tag_177\n      jump\t// in\n    tag_219:\n        /* \"contracts/ModuleX.sol\":2789:2834  uint low_d = total_staked/DIFFICULTY_INTERVAL */\n      swap1\n      pop\n        /* \"contracts/ModuleX.sol\":2845:2856  uint high_d */\n      0x00\n        /* \"contracts/ModuleX.sol\":2859:2889  curr_total/DIFFICULTY_INTERVAL */\n      tag_220\n        /* \"contracts/ModuleX.sol\":2870:2889  DIFFICULTY_INTERVAL */\n      immutable(\"0x1953a27a405e8582cf1be8a2db4a8d6898082fbed25ec72fb4b95dbd76ab849b\")\n        /* \"contracts/ModuleX.sol\":2859:2869  curr_total */\n      dup5\n        /* \"contracts/ModuleX.sol\":2859:2889  curr_total/DIFFICULTY_INTERVAL */\n      tag_177\n      jump\t// in\n    tag_220:\n        /* \"contracts/ModuleX.sol\":2845:2889  uint high_d = curr_total/DIFFICULTY_INTERVAL */\n      swap1\n      pop\n        /* \"contracts/ModuleX.sol\":2912:2918  high_d */\n      dup1\n        /* \"contracts/ModuleX.sol\":2903:2908  low_d */\n      dup3\n        /* \"contracts/ModuleX.sol\":2903:2918  low_d == high_d */\n      sub\n        /* \"contracts/ModuleX.sol\":2900:3504  if(low_d == high_d)... */\n      tag_221\n      jumpi\n        /* \"contracts/ModuleX.sol\":2965:2983  low_d + DIFFICULTY */\n      tag_222\n        /* \"contracts/ModuleX.sol\":2973:2983  DIFFICULTY */\n      immutable(\"0xeb29b49011c9cf62c1f2455e9e4472fdc1b37c8f4e32969c812d39bb921154f4\")\n        /* \"contracts/ModuleX.sol\":2965:2970  low_d */\n      dup4\n        /* \"contracts/ModuleX.sol\":2965:2983  low_d + DIFFICULTY */\n      tag_179\n      jump\t// in\n    tag_222:\n        /* \"contracts/ModuleX.sol\":2951:2984  stake_amount/(low_d + DIFFICULTY) */\n      tag_223\n      swap1\n        /* \"contracts/ModuleX.sol\":2951:2963  stake_amount */\n      dup8\n        /* \"contracts/ModuleX.sol\":2951:2984  stake_amount/(low_d + DIFFICULTY) */\n      tag_177\n      jump\t// in\n    tag_223:\n        /* \"contracts/ModuleX.sol\":2944:2984  return stake_amount/(low_d + DIFFICULTY) */\n      swap7\n        /* \"contracts/ModuleX.sol\":2611:3511  function calculateReward(uint stake_amount) public view returns(uint)... */\n      swap6\n      pop\n      pop\n      pop\n      pop\n      pop\n      pop\n      jump\t// out\n        /* \"contracts/ModuleX.sol\":2900:3504  if(low_d == high_d)... */\n    tag_221:\n        /* \"contracts/ModuleX.sol\":3036:3046  uint low_r */\n      0x00\n        /* \"contracts/ModuleX.sol\":3112:3130  low_d + DIFFICULTY */\n      tag_225\n        /* \"contracts/ModuleX.sol\":3120:3130  DIFFICULTY */\n      immutable(\"0xeb29b49011c9cf62c1f2455e9e4472fdc1b37c8f4e32969c812d39bb921154f4\")\n        /* \"contracts/ModuleX.sol\":3112:3117  low_d */\n      dup5\n        /* \"contracts/ModuleX.sol\":3112:3130  low_d + DIFFICULTY */\n      tag_179\n      jump\t// in\n    tag_225:\n        /* \"contracts/ModuleX.sol\":3097:3109  total_staked */\n      sload(0x03)\n        /* \"contracts/ModuleX.sol\":3075:3094  DIFFICULTY_INTERVAL */\n      immutable(\"0x1953a27a405e8582cf1be8a2db4a8d6898082fbed25ec72fb4b95dbd76ab849b\")\n        /* \"contracts/ModuleX.sol\":3064:3073  low_d + 1 */\n      tag_226\n        /* \"contracts/ModuleX.sol\":3064:3069  low_d */\n      dup7\n        /* \"contracts/ModuleX.sol\":3072:3073  1 */\n      0x01\n        /* \"contracts/ModuleX.sol\":3064:3073  low_d + 1 */\n      tag_179\n      jump\t// in\n    tag_226:\n        /* \"contracts/ModuleX.sol\":3063:3094  (low_d + 1)*DIFFICULTY_INTERVAL */\n      tag_227\n      swap2\n      swap1\n      tag_228\n      jump\t// in\n    tag_227:\n        /* \"contracts/ModuleX.sol\":3063:3109  (low_d + 1)*DIFFICULTY_INTERVAL - total_staked */\n      tag_229\n      swap2\n      swap1\n      tag_143\n      jump\t// in\n    tag_229:\n        /* \"contracts/ModuleX.sol\":3049:3110  SCALE_FACTOR*((low_d + 1)*DIFFICULTY_INTERVAL - total_staked) */\n      tag_230\n      swap1\n        /* \"contracts/ModuleX.sol\":3049:3061  SCALE_FACTOR */\n      dup8\n        /* \"contracts/ModuleX.sol\":3049:3110  SCALE_FACTOR*((low_d + 1)*DIFFICULTY_INTERVAL - total_staked) */\n      tag_228\n      jump\t// in\n    tag_230:\n        /* \"contracts/ModuleX.sol\":3049:3131  SCALE_FACTOR*((low_d + 1)*DIFFICULTY_INTERVAL - total_staked)/(low_d + DIFFICULTY) */\n      tag_231\n      swap2\n      swap1\n      tag_177\n      jump\t// in\n    tag_231:\n        /* \"contracts/ModuleX.sol\":3036:3131  uint low_r = SCALE_FACTOR*((low_d + 1)*DIFFICULTY_INTERVAL - total_staked)/(low_d + DIFFICULTY) */\n      swap1\n      pop\n        /* \"contracts/ModuleX.sol\":3146:3157  uint high_r */\n      0x00\n        /* \"contracts/ModuleX.sol\":3216:3235  high_d + DIFFICULTY */\n      tag_232\n        /* \"contracts/ModuleX.sol\":3225:3235  DIFFICULTY */\n      immutable(\"0xeb29b49011c9cf62c1f2455e9e4472fdc1b37c8f4e32969c812d39bb921154f4\")\n        /* \"contracts/ModuleX.sol\":3216:3222  high_d */\n      dup5\n        /* \"contracts/ModuleX.sol\":3216:3235  high_d + DIFFICULTY */\n      tag_179\n      jump\t// in\n    tag_232:\n        /* \"contracts/ModuleX.sol\":3187:3213  high_d*DIFFICULTY_INTERVAL */\n      tag_233\n        /* \"contracts/ModuleX.sol\":3194:3213  DIFFICULTY_INTERVAL */\n      immutable(\"0x1953a27a405e8582cf1be8a2db4a8d6898082fbed25ec72fb4b95dbd76ab849b\")\n        /* \"contracts/ModuleX.sol\":3187:3193  high_d */\n      dup6\n        /* \"contracts/ModuleX.sol\":3187:3213  high_d*DIFFICULTY_INTERVAL */\n      tag_228\n      jump\t// in\n    tag_233:\n        /* \"contracts/ModuleX.sol\":3174:3213  curr_total - high_d*DIFFICULTY_INTERVAL */\n      tag_234\n      swap1\n        /* \"contracts/ModuleX.sol\":3174:3184  curr_total */\n      dup8\n        /* \"contracts/ModuleX.sol\":3174:3213  curr_total - high_d*DIFFICULTY_INTERVAL */\n      tag_143\n      jump\t// in\n    tag_234:\n        /* \"contracts/ModuleX.sol\":3160:3214  SCALE_FACTOR*(curr_total - high_d*DIFFICULTY_INTERVAL) */\n      tag_235\n      swap1\n        /* \"contracts/ModuleX.sol\":3160:3172  SCALE_FACTOR */\n      dup9\n        /* \"contracts/ModuleX.sol\":3160:3214  SCALE_FACTOR*(curr_total - high_d*DIFFICULTY_INTERVAL) */\n      tag_228\n      jump\t// in\n    tag_235:\n        /* \"contracts/ModuleX.sol\":3160:3236  SCALE_FACTOR*(curr_total - high_d*DIFFICULTY_INTERVAL)/(high_d + DIFFICULTY) */\n      tag_236\n      swap2\n      swap1\n      tag_177\n      jump\t// in\n    tag_236:\n        /* \"contracts/ModuleX.sol\":3146:3236  uint high_r = SCALE_FACTOR*(curr_total - high_d*DIFFICULTY_INTERVAL)/(high_d + DIFFICULTY) */\n      swap1\n      pop\n        /* \"contracts/ModuleX.sol\":3251:3264  uint middle_r */\n      0x00\n      dup1\n        /* \"contracts/ModuleX.sol\":3294:3303  low_d + 1 */\n      tag_240\n        /* \"contracts/ModuleX.sol\":3294:3299  low_d */\n      dup7\n        /* \"contracts/ModuleX.sol\":3302:3303  1 */\n      0x01\n        /* \"contracts/ModuleX.sol\":3294:3303  low_d + 1 */\n      tag_179\n      jump\t// in\n    tag_240:\n        /* \"contracts/ModuleX.sol\":3287:3303  uint i=low_d + 1 */\n      swap1\n      pop\n        /* \"contracts/ModuleX.sol\":3283:3431  for(uint i=low_d + 1; i < high_d; i++)... */\n    tag_237:\n        /* \"contracts/ModuleX.sol\":3309:3315  high_d */\n      dup5\n        /* \"contracts/ModuleX.sol\":3305:3306  i */\n      dup2\n        /* \"contracts/ModuleX.sol\":3305:3315  i < high_d */\n      lt\n        /* \"contracts/ModuleX.sol\":3283:3431  for(uint i=low_d + 1; i < high_d; i++)... */\n      iszero\n      tag_238\n      jumpi\n        /* \"contracts/ModuleX.sol\":3400:3414  i + DIFFICULTY */\n      tag_241\n        /* \"contracts/ModuleX.sol\":3404:3414  DIFFICULTY */\n      immutable(\"0xeb29b49011c9cf62c1f2455e9e4472fdc1b37c8f4e32969c812d39bb921154f4\")\n        /* \"contracts/ModuleX.sol\":3400:3401  i */\n      dup3\n        /* \"contracts/ModuleX.sol\":3400:3414  i + DIFFICULTY */\n      tag_179\n      jump\t// in\n    tag_241:\n        /* \"contracts/ModuleX.sol\":3366:3398  SCALE_FACTOR*DIFFICULTY_INTERVAL */\n      tag_242\n        /* \"contracts/ModuleX.sol\":3379:3398  DIFFICULTY_INTERVAL */\n      immutable(\"0x1953a27a405e8582cf1be8a2db4a8d6898082fbed25ec72fb4b95dbd76ab849b\")\n        /* \"contracts/ModuleX.sol\":3366:3378  SCALE_FACTOR */\n      dup11\n        /* \"contracts/ModuleX.sol\":3366:3398  SCALE_FACTOR*DIFFICULTY_INTERVAL */\n      tag_228\n      jump\t// in\n    tag_242:\n        /* \"contracts/ModuleX.sol\":3366:3415  SCALE_FACTOR*DIFFICULTY_INTERVAL/(i + DIFFICULTY) */\n      tag_243\n      swap2\n      swap1\n      tag_177\n      jump\t// in\n    tag_243:\n        /* \"contracts/ModuleX.sol\":3354:3415  middle_r += SCALE_FACTOR*DIFFICULTY_INTERVAL/(i + DIFFICULTY) */\n      tag_244\n      swap1\n      dup4\n      tag_179\n      jump\t// in\n    tag_244:\n      swap2\n      pop\n        /* \"contracts/ModuleX.sol\":3317:3320  i++ */\n      0x01\n      add\n        /* \"contracts/ModuleX.sol\":3283:3431  for(uint i=low_d + 1; i < high_d; i++)... */\n      jump(tag_237)\n    tag_238:\n      pop\n        /* \"contracts/ModuleX.sol\":3480:3492  SCALE_FACTOR */\n      dup7\n        /* \"contracts/ModuleX.sol\":3472:3478  high_r */\n      dup3\n        /* \"contracts/ModuleX.sol\":3453:3469  low_r + middle_r */\n      tag_245\n        /* \"contracts/ModuleX.sol\":3461:3469  middle_r */\n      dup4\n        /* \"contracts/ModuleX.sol\":3453:3458  low_r */\n      dup7\n        /* \"contracts/ModuleX.sol\":3453:3469  low_r + middle_r */\n      tag_179\n      jump\t// in\n    tag_245:\n        /* \"contracts/ModuleX.sol\":3453:3478  low_r + middle_r + high_r */\n      tag_246\n      swap2\n      swap1\n      tag_179\n      jump\t// in\n    tag_246:\n        /* \"contracts/ModuleX.sol\":3452:3492  (low_r + middle_r + high_r)/SCALE_FACTOR */\n      tag_247\n      swap2\n      swap1\n      tag_177\n      jump\t// in\n    tag_247:\n        /* \"contracts/ModuleX.sol\":3445:3492  return (low_r + middle_r + high_r)/SCALE_FACTOR */\n      swap10\n        /* \"contracts/ModuleX.sol\":2611:3511  function calculateReward(uint stake_amount) public view returns(uint)... */\n      swap9\n      pop\n      pop\n      pop\n      pop\n      pop\n      pop\n      pop\n      pop\n      pop\n      jump\t// out\n        /* \"contracts/ModuleX.sol\":6859:7139  function withdrawRewards(address to, uint amount) external onlyOwner... */\n    tag_105:\n        /* \"@openzeppelin/contracts/access/Ownable.sol\":1531:1544  _checkOwner() */\n      tag_250\n        /* \"@openzeppelin/contracts/access/Ownable.sol\":1531:1542  _checkOwner */\n      tag_118\n        /* \"@openzeppelin/contracts/access/Ownable.sol\":1531:1544  _checkOwner() */\n      jump\t// in\n    tag_250:\n        /* \"contracts/ModuleX.sol\":6996:7012  pending_payments */\n      sload(0x04)\n        /* \"contracts/ModuleX.sol\":6987:7012  amount + pending_payments */\n      tag_252\n      swap1\n        /* \"contracts/ModuleX.sol\":6987:6993  amount */\n      dup3\n        /* \"contracts/ModuleX.sol\":6987:7012  amount + pending_payments */\n      tag_179\n      jump\t// in\n    tag_252:\n        /* \"contracts/ModuleX.sol\":6952:6983  xCREDI.balanceOf(address(this)) */\n      mload(0x40)\n      shl(0xe0, 0x70a08231)\n      dup2\n      mstore\n        /* \"contracts/ModuleX.sol\":6977:6981  this */\n      address\n        /* \"contracts/ModuleX.sol\":6952:6983  xCREDI.balanceOf(address(this)) */\n      0x04\n      dup3\n      add\n        /* \"#utility.yul\":587:661   */\n      mstore\n        /* \"contracts/ModuleX.sol\":6952:6958  xCREDI */\n      immutable(\"0xad444e1082e5d5bbfca385a9a566a2d71dbd349bb06a97871f0be4657884f8e0\")\n      sub(shl(0xa0, 0x01), 0x01)\n        /* \"contracts/ModuleX.sol\":6952:6968  xCREDI.balanceOf */\n      and\n      swap1\n      0x70a08231\n      swap1\n        /* \"#utility.yul\":560:578   */\n      0x24\n      add\n        /* \"contracts/ModuleX.sol\":6952:6983  xCREDI.balanceOf(address(this)) */\n      0x20\n      mload(0x40)\n      dup1\n      dup4\n      sub\n      dup2\n      dup7\n      gas\n      staticcall\n      iszero\n      dup1\n      iszero\n      tag_255\n      jumpi\n      returndatacopy(0x00, 0x00, returndatasize)\n      revert(0x00, returndatasize)\n    tag_255:\n      pop\n      pop\n      pop\n      pop\n      mload(0x40)\n      returndatasize\n      not(0x1f)\n      0x1f\n      dup3\n      add\n      and\n      dup3\n      add\n      dup1\n      0x40\n      mstore\n      pop\n      dup2\n      add\n      swap1\n      tag_256\n      swap2\n      swap1\n      tag_257\n      jump\t// in\n    tag_256:\n        /* \"contracts/ModuleX.sol\":6952:7012  xCREDI.balanceOf(address(this)) >= amount + pending_payments */\n      lt\n      iszero\n        /* \"contracts/ModuleX.sol\":6944:7046  require(xCREDI.balanceOf(address(this)) >= amount + pending_payments, \"ModuleX:Insufficient balance!\") */\n      tag_258\n      jumpi\n      mload(0x40)\n      shl(0xe5, 0x461bcd)\n      dup2\n      mstore\n        /* \"#utility.yul\":6791:6793   */\n      0x20\n        /* \"contracts/ModuleX.sol\":6944:7046  require(xCREDI.balanceOf(address(this)) >= amount + pending_payments, \"ModuleX:Insufficient balance!\") */\n      0x04\n      dup3\n      add\n        /* \"#utility.yul\":6773:6794   */\n      mstore\n        /* \"#utility.yul\":6830:6832   */\n      0x1d\n        /* \"#utility.yul\":6810:6828   */\n      0x24\n      dup3\n      add\n        /* \"#utility.yul\":6803:6833   */\n      mstore\n        /* \"#utility.yul\":6869:6900   */\n      0x4d6f64756c65583a496e73756666696369656e742062616c616e636521000000\n        /* \"#utility.yul\":6849:6867   */\n      0x44\n      dup3\n      add\n        /* \"#utility.yul\":6842:6901   */\n      mstore\n        /* \"#utility.yul\":6918:6936   */\n      0x64\n      add\n        /* \"contracts/ModuleX.sol\":6944:7046  require(xCREDI.balanceOf(address(this)) >= amount + pending_payments, \"ModuleX:Insufficient balance!\") */\n      tag_123\n        /* \"#utility.yul\":6589:6942   */\n      jump\n        /* \"contracts/ModuleX.sol\":6944:7046  require(xCREDI.balanceOf(address(this)) >= amount + pending_payments, \"ModuleX:Insufficient balance!\") */\n    tag_258:\n        /* \"contracts/ModuleX.sol\":7057:7088  xCREDI.safeTransfer(to, amount) */\n      tag_260\n      sub(shl(0xa0, 0x01), 0x01)\n        /* \"contracts/ModuleX.sol\":7057:7063  xCREDI */\n      immutable(\"0xad444e1082e5d5bbfca385a9a566a2d71dbd349bb06a97871f0be4657884f8e0\")\n        /* \"contracts/ModuleX.sol\":7057:7076  xCREDI.safeTransfer */\n      and\n        /* \"contracts/ModuleX.sol\":7077:7079  to */\n      dup4\n        /* \"contracts/ModuleX.sol\":7081:7087  amount */\n      dup4\n        /* \"contracts/ModuleX.sol\":7057:7076  xCREDI.safeTransfer */\n      tag_141\n        /* \"contracts/ModuleX.sol\":7057:7088  xCREDI.safeTransfer(to, amount) */\n      jump\t// in\n    tag_260:\n        /* \"contracts/ModuleX.sol\":7120:7122  to */\n      dup2\n      sub(shl(0xa0, 0x01), 0x01)\n        /* \"contracts/ModuleX.sol\":7104:7131  RewardWithdrawn(to, amount) */\n      and\n      0x1d3eee4ca001cff39eec6ec7615aacf2f2bd61791273830728ba00ccbd6e1337\n        /* \"contracts/ModuleX.sol\":7124:7130  amount */\n      dup3\n        /* \"contracts/ModuleX.sol\":7104:7131  RewardWithdrawn(to, amount) */\n      mload(0x40)\n      tag_261\n      swap2\n        /* \"#utility.yul\":160:185   */\n      dup2\n      mstore\n        /* \"#utility.yul\":148:150   */\n      0x20\n        /* \"#utility.yul\":133:151   */\n      add\n      swap1\n        /* \"#utility.yul\":14:191   */\n      jump\n        /* \"contracts/ModuleX.sol\":7104:7131  RewardWithdrawn(to, amount) */\n    tag_261:\n      mload(0x40)\n      dup1\n      swap2\n      sub\n      swap1\n      log2\n        /* \"contracts/ModuleX.sol\":6859:7139  function withdrawRewards(address to, uint amount) external onlyOwner... */\n      pop\n      pop\n      jump\t// out\n        /* \"contracts/ModuleX.sol\":3656:4644  function stake(uint96 lock_period, uint stake_amount) external returns(uint, uint)... */\n    tag_109:\n        /* \"contracts/ModuleX.sol\":3727:3731  uint */\n      0x00\n        /* \"contracts/ModuleX.sol\":3764:3771  stopped */\n      dup1\n      sload\n        /* \"contracts/ModuleX.sol\":3727:3731  uint */\n      dup2\n      swap1\n      shl(0xa0, 0x01)\n        /* \"contracts/ModuleX.sol\":3764:3771  stopped */\n      swap1\n      div\n      0xff\n      and\n        /* \"contracts/ModuleX.sol\":3763:3771  !stopped */\n      iszero\n        /* \"contracts/ModuleX.sol\":3755:3792  require(!stopped, \"ModuleX:STOPPED!\") */\n      tag_263\n      jumpi\n      mload(0x40)\n      shl(0xe5, 0x461bcd)\n      dup2\n      mstore\n        /* \"#utility.yul\":8350:8352   */\n      0x20\n        /* \"contracts/ModuleX.sol\":3755:3792  require(!stopped, \"ModuleX:STOPPED!\") */\n      0x04\n      dup3\n      add\n        /* \"#utility.yul\":8332:8353   */\n      mstore\n        /* \"#utility.yul\":8389:8391   */\n      0x10\n        /* \"#utility.yul\":8369:8387   */\n      0x24\n      dup3\n      add\n        /* \"#utility.yul\":8362:8392   */\n      mstore\n        /* \"#utility.yul\":8428:8446   */\n      0x4d6f64756c65583a53544f505045442100000000000000000000000000000000\n        /* \"#utility.yul\":8408:8426   */\n      0x44\n      dup3\n      add\n        /* \"#utility.yul\":8401:8447   */\n      mstore\n        /* \"#utility.yul\":8464:8482   */\n      0x64\n      add\n        /* \"contracts/ModuleX.sol\":3755:3792  require(!stopped, \"ModuleX:STOPPED!\") */\n      tag_123\n        /* \"#utility.yul\":8148:8488   */\n      jump\n        /* \"contracts/ModuleX.sol\":3755:3792  require(!stopped, \"ModuleX:STOPPED!\") */\n    tag_263:\n        /* \"contracts/ModuleX.sol\":3826:3827  0 */\n      0x00\n        /* \"contracts/ModuleX.sol\":3811:3823  stake_amount */\n      dup4\n        /* \"contracts/ModuleX.sol\":3811:3827  stake_amount > 0 */\n      gt\n        /* \"contracts/ModuleX.sol\":3803:3876  require(stake_amount > 0, \"ModuleX:Stake amount must be greater than 0!\") */\n      tag_266\n      jumpi\n      mload(0x40)\n      shl(0xe5, 0x461bcd)\n      dup2\n      mstore\n        /* \"#utility.yul\":8695:8697   */\n      0x20\n        /* \"contracts/ModuleX.sol\":3803:3876  require(stake_amount > 0, \"ModuleX:Stake amount must be greater than 0!\") */\n      0x04\n      dup3\n      add\n        /* \"#utility.yul\":8677:8698   */\n      mstore\n        /* \"#utility.yul\":8734:8736   */\n      0x2c\n        /* \"#utility.yul\":8714:8732   */\n      0x24\n      dup3\n      add\n        /* \"#utility.yul\":8707:8737   */\n      mstore\n        /* \"#utility.yul\":8773:8807   */\n      0x4d6f64756c65583a5374616b6520616d6f756e74206d75737420626520677265\n        /* \"#utility.yul\":8753:8771   */\n      0x44\n      dup3\n      add\n        /* \"#utility.yul\":8746:8808   */\n      mstore\n      shl(0xa0, 0x61746572207468616e203021)\n        /* \"#utility.yul\":8824:8842   */\n      0x64\n      dup3\n      add\n        /* \"#utility.yul\":8817:8859   */\n      mstore\n        /* \"#utility.yul\":8876:8895   */\n      0x84\n      add\n        /* \"contracts/ModuleX.sol\":3803:3876  require(stake_amount > 0, \"ModuleX:Stake amount must be greater than 0!\") */\n      tag_123\n        /* \"#utility.yul\":8493:8901   */\n      jump\n        /* \"contracts/ModuleX.sol\":3803:3876  require(stake_amount > 0, \"ModuleX:Stake amount must be greater than 0!\") */\n    tag_266:\n        /* \"contracts/ModuleX.sol\":577:588  180 minutes */\n      0x2a30\n      sub(shl(0x60, 0x01), 0x01)\n        /* \"contracts/ModuleX.sol\":3895:3918  lock_period >= MATURITY */\n      dup6\n      and\n      lt\n      iszero\n        /* \"contracts/ModuleX.sol\":3887:3954  require(lock_period >= MATURITY, \"ModuleX:Use longer lock_period!\") */\n      tag_269\n      jumpi\n      mload(0x40)\n      shl(0xe5, 0x461bcd)\n      dup2\n      mstore\n        /* \"#utility.yul\":9108:9110   */\n      0x20\n        /* \"contracts/ModuleX.sol\":3887:3954  require(lock_period >= MATURITY, \"ModuleX:Use longer lock_period!\") */\n      0x04\n      dup3\n      add\n        /* \"#utility.yul\":9090:9111   */\n      mstore\n        /* \"#utility.yul\":9147:9149   */\n      0x1f\n        /* \"#utility.yul\":9127:9145   */\n      0x24\n      dup3\n      add\n        /* \"#utility.yul\":9120:9150   */\n      mstore\n        /* \"#utility.yul\":9186:9219   */\n      0x4d6f64756c65583a557365206c6f6e676572206c6f636b5f706572696f642100\n        /* \"#utility.yul\":9166:9184   */\n      0x44\n      dup3\n      add\n        /* \"#utility.yul\":9159:9220   */\n      mstore\n        /* \"#utility.yul\":9237:9255   */\n      0x64\n      add\n        /* \"contracts/ModuleX.sol\":3887:3954  require(lock_period >= MATURITY, \"ModuleX:Use longer lock_period!\") */\n      tag_123\n        /* \"#utility.yul\":8906:9261   */\n      jump\n        /* \"contracts/ModuleX.sol\":3887:3954  require(lock_period >= MATURITY, \"ModuleX:Use longer lock_period!\") */\n    tag_269:\n        /* \"contracts/ModuleX.sol\":3965:4030  CREDI.safeTransferFrom(_msgSender(), address(this), stake_amount) */\n      tag_272\n        /* \"contracts/ModuleX.sol\":3965:3970  CREDI */\n      immutable(\"0xdff167ddfa3189a3e9389ac75b945e17c7959b64870603a7f04a55d1519d28e2\")\n      sub(shl(0xa0, 0x01), 0x01)\n        /* \"contracts/ModuleX.sol\":3965:3987  CREDI.safeTransferFrom */\n      and\n        /* \"@openzeppelin/contracts/utils/Context.sol\":735:745  msg.sender */\n      caller\n        /* \"contracts/ModuleX.sol\":4010:4014  this */\n      address\n        /* \"contracts/ModuleX.sol\":4017:4029  stake_amount */\n      dup7\n        /* \"contracts/ModuleX.sol\":3965:3987  CREDI.safeTransferFrom */\n      tag_210\n        /* \"contracts/ModuleX.sol\":3965:4030  CREDI.safeTransferFrom(_msgSender(), address(this), stake_amount) */\n      jump\t// in\n    tag_272:\n        /* \"contracts/ModuleX.sol\":4042:4057  uint96 maturity */\n      0x00\n        /* \"contracts/ModuleX.sol\":4060:4084  time_now() + lock_period */\n      tag_275\n        /* \"contracts/ModuleX.sol\":4073:4084  lock_period */\n      dup6\n        /* \"contracts/ModuleX.sol\":2579:2594  block.timestamp */\n      timestamp\n        /* \"contracts/ModuleX.sol\":4060:4084  time_now() + lock_period */\n      tag_276\n      jump\t// in\n    tag_275:\n        /* \"contracts/ModuleX.sol\":4042:4084  uint96 maturity = time_now() + lock_period */\n      swap1\n      pop\n        /* \"contracts/ModuleX.sol\":4095:4113  uint reward_amount */\n      0x00\n        /* \"contracts/ModuleX.sol\":4116:4145  calculateReward(stake_amount) */\n      tag_277\n        /* \"contracts/ModuleX.sol\":4132:4144  stake_amount */\n      dup6\n        /* \"contracts/ModuleX.sol\":4116:4131  calculateReward */\n      tag_97\n        /* \"contracts/ModuleX.sol\":4116:4145  calculateReward(stake_amount) */\n      jump\t// in\n    tag_277:\n        /* \"contracts/ModuleX.sol\":4095:4145  uint reward_amount = calculateReward(stake_amount) */\n      swap1\n      pop\n        /* \"contracts/ModuleX.sol\":4156:4169  uint stake_id */\n      0x00\n        /* \"contracts/ModuleX.sol\":4172:4184  stakes_count */\n      sload(0x02)\n        /* \"contracts/ModuleX.sol\":4156:4184  uint stake_id = stakes_count */\n      swap1\n      pop\n        /* \"contracts/ModuleX.sol\":4214:4390  StakeDetails({... */\n      mload(0x40)\n      dup1\n      0x80\n      add\n      0x40\n      mstore\n      dup1\n        /* \"contracts/ModuleX.sol\":4249:4261  _msgSender() */\n      tag_278\n        /* \"@openzeppelin/contracts/utils/Context.sol\":735:745  msg.sender */\n      caller\n      swap1\n        /* \"@openzeppelin/contracts/utils/Context.sol\":656:752  function _msgSender() internal view virtual returns (address) {... */\n      jump\n        /* \"contracts/ModuleX.sol\":4249:4261  _msgSender() */\n    tag_278:\n      sub(shl(0xa0, 0x01), 0x01)\n        /* \"contracts/ModuleX.sol\":4214:4390  StakeDetails({... */\n      swap1\n      dup2\n      and\n      dup3\n      mstore\n      sub(shl(0x60, 0x01), 0x01)\n      dup7\n      dup2\n      and\n      0x20\n      dup1\n      dup6\n      add\n      swap2\n      swap1\n      swap2\n      mstore\n      0x40\n      dup1\n      dup6\n      add\n      dup13\n      swap1\n      mstore\n      0x60\n      swap5\n      dup6\n      add\n      dup9\n      swap1\n      mstore\n      0x00\n        /* \"contracts/ModuleX.sol\":4195:4211  stakes[stake_id] */\n      dup8\n      dup2\n      mstore\n        /* \"contracts/ModuleX.sol\":4195:4201  stakes */\n      0x01\n        /* \"contracts/ModuleX.sol\":4195:4211  stakes[stake_id] */\n      dup1\n      dup5\n      mstore\n      dup3\n      dup3\n      keccak256\n        /* \"contracts/ModuleX.sol\":4195:4390  stakes[stake_id] = StakeDetails({... */\n      dup9\n      mload\n      swap5\n      dup10\n      add\n      mload\n      swap5\n      swap1\n      swap7\n      and\n      shl(0xa0, 0x01)\n      swap5\n      swap1\n      swap6\n      and\n      swap4\n      swap1\n      swap4\n      mul\n      swap4\n      swap1\n      swap4\n      or\n      dup5\n      sstore\n      dup6\n      add\n      mload\n      swap1\n      dup4\n      add\n      sstore\n      swap3\n      swap1\n      swap2\n      add\n      mload\n      0x02\n      swap1\n      swap2\n      add\n      sstore\n        /* \"contracts/ModuleX.sol\":4411:4423  total_staked */\n      0x03\n        /* \"contracts/ModuleX.sol\":4411:4439  total_staked += stake_amount */\n      dup1\n      sload\n        /* \"contracts/ModuleX.sol\":4214:4390  StakeDetails({... */\n      dup9\n      swap3\n      swap1\n        /* \"contracts/ModuleX.sol\":4411:4439  total_staked += stake_amount */\n      tag_279\n      swap1\n        /* \"contracts/ModuleX.sol\":4214:4390  StakeDetails({... */\n      dup5\n      swap1\n        /* \"contracts/ModuleX.sol\":4411:4439  total_staked += stake_amount */\n      tag_179\n      jump\t// in\n    tag_279:\n      swap3\n      pop\n      pop\n      dup2\n      swap1\n      sstore\n      pop\n        /* \"contracts/ModuleX.sol\":4471:4484  reward_amount */\n      dup2\n        /* \"contracts/ModuleX.sol\":4451:4467  pending_payments */\n      0x04\n      0x00\n        /* \"contracts/ModuleX.sol\":4451:4484  pending_payments += reward_amount */\n      dup3\n      dup3\n      sload\n      tag_280\n      swap2\n      swap1\n      tag_179\n      jump\t// in\n    tag_280:\n      swap1\n      swap2\n      sstore\n      pop\n      pop\n        /* \"contracts/ModuleX.sol\":4500:4569  Staked(_msgSender(), stake_id, maturity, stake_amount, reward_amount) */\n      0x40\n      dup1\n      mload\n        /* \"#utility.yul\":9715:9740   */\n      dup3\n      dup2\n      mstore\n      sub(shl(0x60, 0x01), 0x01)\n        /* \"#utility.yul\":9776:9815   */\n      dup6\n      and\n        /* \"#utility.yul\":9771:9773   */\n      0x20\n        /* \"#utility.yul\":9756:9774   */\n      dup3\n      add\n        /* \"#utility.yul\":9749:9816   */\n      mstore\n        /* \"#utility.yul\":9832:9850   */\n      dup1\n      dup3\n      add\n        /* \"#utility.yul\":9825:9859   */\n      dup9\n      swap1\n      mstore\n        /* \"#utility.yul\":9890:9892   */\n      0x60\n        /* \"#utility.yul\":9875:9893   */\n      dup2\n      add\n        /* \"#utility.yul\":9868:9902   */\n      dup5\n      swap1\n      mstore\n        /* \"contracts/ModuleX.sol\":4500:4569  Staked(_msgSender(), stake_id, maturity, stake_amount, reward_amount) */\n      swap1\n      mload\n        /* \"@openzeppelin/contracts/utils/Context.sol\":735:745  msg.sender */\n      caller\n      swap2\n        /* \"contracts/ModuleX.sol\":4500:4569  Staked(_msgSender(), stake_id, maturity, stake_amount, reward_amount) */\n      0x24fe2d25c10eb2c67b5ac1e3edbcadc94191e154ed388ad667a9480c44f47146\n      swap2\n      swap1\n      dup2\n      swap1\n      sub\n        /* \"#utility.yul\":9702:9705   */\n      0x80\n        /* \"contracts/ModuleX.sol\":4500:4569  Staked(_msgSender(), stake_id, maturity, stake_amount, reward_amount) */\n      add\n      swap1\n      log2\n        /* \"contracts/ModuleX.sol\":4580:4592  stakes_count */\n      0x02\n        /* \"contracts/ModuleX.sol\":4580:4594  stakes_count++ */\n      dup1\n      sload\n      swap1\n        /* \"contracts/ModuleX.sol\":4580:4592  stakes_count */\n      0x00\n        /* \"contracts/ModuleX.sol\":4580:4594  stakes_count++ */\n      tag_284\n      dup4\n      tag_285\n      jump\t// in\n    tag_284:\n      swap1\n      swap2\n      sstore\n      pop\n        /* \"contracts/ModuleX.sol\":4612:4620  stake_id */\n      swap1\n      swap8\n        /* \"contracts/ModuleX.sol\":4622:4635  reward_amount */\n      swap2\n      swap7\n      pop\n        /* \"contracts/ModuleX.sol\":3656:4644  function stake(uint96 lock_period, uint stake_amount) external returns(uint, uint)... */\n      swap1\n      swap5\n      pop\n      pop\n      pop\n      pop\n      pop\n      jump\t// out\n        /* \"@openzeppelin/contracts/access/Ownable.sol\":2543:2758  function transferOwnership(address newOwner) public virtual onlyOwner {... */\n    tag_115:\n        /* \"@openzeppelin/contracts/access/Ownable.sol\":1531:1544  _checkOwner() */\n      tag_287\n        /* \"@openzeppelin/contracts/access/Ownable.sol\":1531:1542  _checkOwner */\n      tag_118\n        /* \"@openzeppelin/contracts/access/Ownable.sol\":1531:1544  _checkOwner() */\n      jump\t// in\n    tag_287:\n      sub(shl(0xa0, 0x01), 0x01)\n        /* \"@openzeppelin/contracts/access/Ownable.sol\":2627:2649  newOwner == address(0) */\n      dup2\n      and\n        /* \"@openzeppelin/contracts/access/Ownable.sol\":2623:2714  if (newOwner == address(0)) {... */\n      tag_289\n      jumpi\n        /* \"@openzeppelin/contracts/access/Ownable.sol\":2672:2703  OwnableInvalidOwner(address(0)) */\n      mload(0x40)\n      shl(0xe0, 0x1e4fbdf7)\n      dup2\n      mstore\n        /* \"@openzeppelin/contracts/access/Ownable.sol\":2700:2701  0 */\n      0x00\n        /* \"@openzeppelin/contracts/access/Ownable.sol\":2672:2703  OwnableInvalidOwner(address(0)) */\n      0x04\n      dup3\n      add\n        /* \"#utility.yul\":587:661   */\n      mstore\n        /* \"#utility.yul\":560:578   */\n      0x24\n      add\n        /* \"@openzeppelin/contracts/access/Ownable.sol\":2672:2703  OwnableInvalidOwner(address(0)) */\n      tag_123\n        /* \"#utility.yul\":427:667   */\n      jump\n        /* \"@openzeppelin/contracts/access/Ownable.sol\":2623:2714  if (newOwner == address(0)) {... */\n    tag_289:\n        /* \"@openzeppelin/contracts/access/Ownable.sol\":2723:2751  _transferOwnership(newOwner) */\n      tag_291\n        /* \"@openzeppelin/contracts/access/Ownable.sol\":2742:2750  newOwner */\n      dup2\n        /* \"@openzeppelin/contracts/access/Ownable.sol\":2723:2741  _transferOwnership */\n      tag_149\n        /* \"@openzeppelin/contracts/access/Ownable.sol\":2723:2751  _transferOwnership(newOwner) */\n      jump\t// in\n    tag_291:\n        /* \"@openzeppelin/contracts/access/Ownable.sol\":2543:2758  function transferOwnership(address newOwner) public virtual onlyOwner {... */\n      pop\n      jump\t// out\n        /* \"@openzeppelin/contracts/access/Ownable.sol\":1796:1958  function _checkOwner() internal view virtual {... */\n    tag_118:\n        /* \"@openzeppelin/contracts/access/Ownable.sol\":1684:1691  address */\n      0x00\n        /* \"@openzeppelin/contracts/access/Ownable.sol\":1710:1716  _owner */\n      sload\n      sub(shl(0xa0, 0x01), 0x01)\n      and\n        /* \"@openzeppelin/contracts/utils/Context.sol\":735:745  msg.sender */\n      caller\n        /* \"@openzeppelin/contracts/access/Ownable.sol\":1855:1878  owner() != _msgSender() */\n      eq\n        /* \"@openzeppelin/contracts/access/Ownable.sol\":1851:1952  if (owner() != _msgSender()) {... */\n      tag_148\n      jumpi\n        /* \"@openzeppelin/contracts/access/Ownable.sol\":1901:1941  OwnableUnauthorizedAccount(_msgSender()) */\n      mload(0x40)\n      shl(0xe0, 0x118cdaa7)\n      dup2\n      mstore\n        /* \"@openzeppelin/contracts/utils/Context.sol\":735:745  msg.sender */\n      caller\n        /* \"@openzeppelin/contracts/access/Ownable.sol\":1901:1941  OwnableUnauthorizedAccount(_msgSender()) */\n      0x04\n      dup3\n      add\n        /* \"#utility.yul\":587:661   */\n      mstore\n        /* \"#utility.yul\":560:578   */\n      0x24\n      add\n        /* \"@openzeppelin/contracts/access/Ownable.sol\":1901:1941  OwnableUnauthorizedAccount(_msgSender()) */\n      tag_123\n        /* \"#utility.yul\":427:667   */\n      jump\n        /* \"@openzeppelin/contracts/token/ERC20/utils/SafeERC20.sol\":1219:1379  function safeTransfer(IERC20 token, address to, uint256 value) internal {... */\n    tag_141:\n        /* \"@openzeppelin/contracts/token/ERC20/utils/SafeERC20.sol\":1328:1371  abi.encodeCall(token.transfer, (to, value)) */\n      mload(0x40)\n      sub(shl(0xa0, 0x01), 0x01)\n        /* \"#utility.yul\":10245:10300   */\n      dup4\n      dup2\n      and\n        /* \"@openzeppelin/contracts/token/ERC20/utils/SafeERC20.sol\":1328:1371  abi.encodeCall(token.transfer, (to, value)) */\n      0x24\n      dup4\n      add\n        /* \"#utility.yul\":10227:10301   */\n      mstore\n        /* \"#utility.yul\":10317:10335   */\n      0x44\n      dup3\n      add\n        /* \"#utility.yul\":10310:10344   */\n      dup4\n      swap1\n      mstore\n        /* \"@openzeppelin/contracts/token/ERC20/utils/SafeERC20.sol\":1301:1372  _callOptionalReturn(token, abi.encodeCall(token.transfer, (to, value))) */\n      tag_203\n      swap2\n        /* \"@openzeppelin/contracts/token/ERC20/utils/SafeERC20.sol\":1321:1326  token */\n      dup6\n      swap2\n        /* \"@openzeppelin/contracts/token/ERC20/utils/SafeERC20.sol\":1343:1357  token.transfer */\n      dup3\n      and\n      swap1\n      0xa9059cbb\n      swap1\n        /* \"#utility.yul\":10200:10218   */\n      0x64\n      add\n        /* \"@openzeppelin/contracts/token/ERC20/utils/SafeERC20.sol\":1328:1371  abi.encodeCall(token.transfer, (to, value)) */\n    tag_302:\n      mload(0x40)\n      0x20\n      dup2\n      dup4\n      sub\n      sub\n      dup2\n      mstore\n      swap1\n      0x40\n      mstore\n      swap2\n      pop\n      0xe0\n      shl\n      0x20\n      dup3\n      add\n      dup1\n      mload\n      0xffffffffffffffffffffffffffffffffffffffffffffffffffffffff\n      dup4\n      dup2\n      dup4\n      and\n      or\n      dup4\n      mstore\n      pop\n      pop\n      pop\n      pop\n        /* \"@openzeppelin/contracts/token/ERC20/utils/SafeERC20.sol\":1301:1320  _callOptionalReturn */\n      tag_304\n        /* \"@openzeppelin/contracts/token/ERC20/utils/SafeERC20.sol\":1301:1372  _callOptionalReturn(token, abi.encodeCall(token.transfer, (to, value))) */\n      jump\t// in\n        /* \"@openzeppelin/contracts/access/Ownable.sol\":2912:3099  function _transferOwnership(address newOwner) internal virtual {... */\n    tag_149:\n        /* \"@openzeppelin/contracts/access/Ownable.sol\":2985:3001  address oldOwner */\n      0x00\n        /* \"@openzeppelin/contracts/access/Ownable.sol\":3004:3010  _owner */\n      dup1\n      sload\n      sub(shl(0xa0, 0x01), 0x01)\n        /* \"@openzeppelin/contracts/access/Ownable.sol\":3020:3037  _owner = newOwner */\n      dup4\n      dup2\n      and\n      not(0xffffffffffffffffffffffffffffffffffffffff)\n      dup4\n      and\n      dup2\n      or\n      dup5\n      sstore\n        /* \"@openzeppelin/contracts/access/Ownable.sol\":3052:3092  OwnershipTransferred(oldOwner, newOwner) */\n      mload(0x40)\n        /* \"@openzeppelin/contracts/access/Ownable.sol\":3004:3010  _owner */\n      swap2\n      swap1\n      swap3\n      and\n      swap3\n      dup4\n      swap2\n        /* \"@openzeppelin/contracts/access/Ownable.sol\":3052:3092  OwnershipTransferred(oldOwner, newOwner) */\n      0x8be0079c531659141344cd1fd0a4f28419497f9722a3daafe3b4186f6b6457e0\n      swap2\n        /* \"@openzeppelin/contracts/access/Ownable.sol\":2985:3001  address oldOwner */\n      swap1\n        /* \"@openzeppelin/contracts/access/Ownable.sol\":3052:3092  OwnershipTransferred(oldOwner, newOwner) */\n      log3\n        /* \"@openzeppelin/contracts/access/Ownable.sol\":2975:3099  {... */\n      pop\n        /* \"@openzeppelin/contracts/access/Ownable.sol\":2912:3099  function _transferOwnership(address newOwner) internal virtual {... */\n      pop\n      jump\t// out\n        /* \"@openzeppelin/contracts/token/ERC20/utils/SafeERC20.sol\":1618:1806  function safeTransferFrom(IERC20 token, address from, address to, uint256 value) internal {... */\n    tag_210:\n        /* \"@openzeppelin/contracts/token/ERC20/utils/SafeERC20.sol\":1745:1798  abi.encodeCall(token.transferFrom, (from, to, value)) */\n      mload(0x40)\n      sub(shl(0xa0, 0x01), 0x01)\n        /* \"#utility.yul\":10575:10630   */\n      dup5\n      dup2\n      and\n        /* \"@openzeppelin/contracts/token/ERC20/utils/SafeERC20.sol\":1745:1798  abi.encodeCall(token.transferFrom, (from, to, value)) */\n      0x24\n      dup4\n      add\n        /* \"#utility.yul\":10557:10631   */\n      mstore\n        /* \"#utility.yul\":10667:10722   */\n      dup4\n      dup2\n      and\n        /* \"#utility.yul\":10647:10665   */\n      0x44\n      dup4\n      add\n        /* \"#utility.yul\":10640:10723   */\n      mstore\n        /* \"#utility.yul\":10739:10757   */\n      0x64\n      dup3\n      add\n        /* \"#utility.yul\":10732:10766   */\n      dup4\n      swap1\n      mstore\n        /* \"@openzeppelin/contracts/token/ERC20/utils/SafeERC20.sol\":1718:1799  _callOptionalReturn(token, abi.encodeCall(token.transferFrom, (from, to, value))) */\n      tag_307\n      swap2\n        /* \"@openzeppelin/contracts/token/ERC20/utils/SafeERC20.sol\":1738:1743  token */\n      dup7\n      swap2\n        /* \"@openzeppelin/contracts/token/ERC20/utils/SafeERC20.sol\":1760:1778  token.transferFrom */\n      dup3\n      and\n      swap1\n      0x23b872dd\n      swap1\n        /* \"#utility.yul\":10530:10548   */\n      0x84\n      add\n        /* \"@openzeppelin/contracts/token/ERC20/utils/SafeERC20.sol\":1745:1798  abi.encodeCall(token.transferFrom, (from, to, value)) */\n      tag_302\n        /* \"#utility.yul\":10355:10772   */\n      jump\n        /* \"@openzeppelin/contracts/token/ERC20/utils/SafeERC20.sol\":1718:1799  _callOptionalReturn(token, abi.encodeCall(token.transferFrom, (from, to, value))) */\n    tag_307:\n        /* \"@openzeppelin/contracts/token/ERC20/utils/SafeERC20.sol\":1618:1806  function safeTransferFrom(IERC20 token, address from, address to, uint256 value) internal {... */\n      pop\n      pop\n      pop\n      pop\n      jump\t// out\n        /* \"@openzeppelin/contracts/token/ERC20/utils/SafeERC20.sol\":8370:9090  function _callOptionalReturn(IERC20 token, bytes memory data) private {... */\n    tag_304:\n        /* \"@openzeppelin/contracts/token/ERC20/utils/SafeERC20.sol\":8450:8468  uint256 returnSize */\n      0x00\n        /* \"@openzeppelin/contracts/token/ERC20/utils/SafeERC20.sol\":8478:8497  uint256 returnValue */\n      0x00\n        /* \"@openzeppelin/contracts/token/ERC20/utils/SafeERC20.sol\":8616:8620  0x20 */\n      0x20\n        /* \"@openzeppelin/contracts/token/ERC20/utils/SafeERC20.sol\":8613:8614  0 */\n      0x00\n        /* \"@openzeppelin/contracts/token/ERC20/utils/SafeERC20.sol\":8606:8610  data */\n      dup5\n        /* \"@openzeppelin/contracts/token/ERC20/utils/SafeERC20.sol\":8600:8611  mload(data) */\n      mload\n        /* \"@openzeppelin/contracts/token/ERC20/utils/SafeERC20.sol\":8593:8597  0x20 */\n      0x20\n        /* \"@openzeppelin/contracts/token/ERC20/utils/SafeERC20.sol\":8587:8591  data */\n      dup7\n        /* \"@openzeppelin/contracts/token/ERC20/utils/SafeERC20.sol\":8583:8598  add(data, 0x20) */\n      add\n        /* \"@openzeppelin/contracts/token/ERC20/utils/SafeERC20.sol\":8580:8581  0 */\n      0x00\n        /* \"@openzeppelin/contracts/token/ERC20/utils/SafeERC20.sol\":8573:8578  token */\n      dup9\n        /* \"@openzeppelin/contracts/token/ERC20/utils/SafeERC20.sol\":8566:8571  gas() */\n      gas\n        /* \"@openzeppelin/contracts/token/ERC20/utils/SafeERC20.sol\":8561:8621  call(gas(), token, 0, add(data, 0x20), mload(data), 0, 0x20) */\n      call\n        /* \"@openzeppelin/contracts/token/ERC20/utils/SafeERC20.sol\":8673:8680  success */\n      dup1\n        /* \"@openzeppelin/contracts/token/ERC20/utils/SafeERC20.sol\":8663:8839  if iszero(success) {... */\n      tag_311\n      jumpi\n        /* \"@openzeppelin/contracts/token/ERC20/utils/SafeERC20.sol\":8717:8721  0x40 */\n      0x40\n        /* \"@openzeppelin/contracts/token/ERC20/utils/SafeERC20.sol\":8711:8722  mload(0x40) */\n      mload\n        /* \"@openzeppelin/contracts/token/ERC20/utils/SafeERC20.sol\":8762:8778  returndatasize() */\n      returndatasize\n        /* \"@openzeppelin/contracts/token/ERC20/utils/SafeERC20.sol\":8759:8760  0 */\n      0x00\n        /* \"@openzeppelin/contracts/token/ERC20/utils/SafeERC20.sol\":8754:8757  ptr */\n      dup3\n        /* \"@openzeppelin/contracts/token/ERC20/utils/SafeERC20.sol\":8739:8779  returndatacopy(ptr, 0, returndatasize()) */\n      returndatacopy\n        /* \"@openzeppelin/contracts/token/ERC20/utils/SafeERC20.sol\":8808:8824  returndatasize() */\n      returndatasize\n        /* \"@openzeppelin/contracts/token/ERC20/utils/SafeERC20.sol\":8803:8806  ptr */\n      dup2\n        /* \"@openzeppelin/contracts/token/ERC20/utils/SafeERC20.sol\":8796:8825  revert(ptr, returndatasize()) */\n      revert\n        /* \"@openzeppelin/contracts/token/ERC20/utils/SafeERC20.sol\":8663:8839  if iszero(success) {... */\n    tag_311:\n      pop\n      pop\n        /* \"@openzeppelin/contracts/token/ERC20/utils/SafeERC20.sol\":8916:8917  0 */\n      0x00\n        /* \"@openzeppelin/contracts/token/ERC20/utils/SafeERC20.sol\":8910:8918  mload(0) */\n      mload\n        /* \"@openzeppelin/contracts/token/ERC20/utils/SafeERC20.sol\":8866:8882  returndatasize() */\n      returndatasize\n      swap2\n      pop\n        /* \"@openzeppelin/contracts/token/ERC20/utils/SafeERC20.sol\":8942:8957  returnSize == 0 */\n      dup2\n      iszero\n        /* \"@openzeppelin/contracts/token/ERC20/utils/SafeERC20.sol\":8942:9010  returnSize == 0 ? address(token).code.length == 0 : returnValue != 1 */\n      tag_312\n      jumpi\n        /* \"@openzeppelin/contracts/token/ERC20/utils/SafeERC20.sol\":8994:9005  returnValue */\n      dup1\n        /* \"@openzeppelin/contracts/token/ERC20/utils/SafeERC20.sol\":9009:9010  1 */\n      0x01\n        /* \"@openzeppelin/contracts/token/ERC20/utils/SafeERC20.sol\":8994:9010  returnValue != 1 */\n      eq\n      iszero\n        /* \"@openzeppelin/contracts/token/ERC20/utils/SafeERC20.sol\":8942:9010  returnSize == 0 ? address(token).code.length == 0 : returnValue != 1 */\n      jump(tag_313)\n    tag_312:\n      sub(shl(0xa0, 0x01), 0x01)\n        /* \"@openzeppelin/contracts/token/ERC20/utils/SafeERC20.sol\":8960:8986  address(token).code.length */\n      dup5\n      and\n      extcodesize\n        /* \"@openzeppelin/contracts/token/ERC20/utils/SafeERC20.sol\":8960:8991  address(token).code.length == 0 */\n      iszero\n        /* \"@openzeppelin/contracts/token/ERC20/utils/SafeERC20.sol\":8942:9010  returnSize == 0 ? address(token).code.length == 0 : returnValue != 1 */\n    tag_313:\n        /* \"@openzeppelin/contracts/token/ERC20/utils/SafeERC20.sol\":8938:9084  if (returnSize == 0 ? address(token).code.length == 0 : returnValue != 1) {... */\n      iszero\n      tag_307\n      jumpi\n        /* \"@openzeppelin/contracts/token/ERC20/utils/SafeERC20.sol\":9033:9073  SafeERC20FailedOperation(address(token)) */\n      mload(0x40)\n      shl(0xe0, 0x5274afe7)\n      dup2\n      mstore\n      sub(shl(0xa0, 0x01), 0x01)\n        /* \"#utility.yul\":605:660   */\n      dup6\n      and\n        /* \"@openzeppelin/contracts/token/ERC20/utils/SafeERC20.sol\":9033:9073  SafeERC20FailedOperation(address(token)) */\n      0x04\n      dup3\n      add\n        /* \"#utility.yul\":587:661   */\n      mstore\n        /* \"#utility.yul\":560:578   */\n      0x24\n      add\n        /* \"@openzeppelin/contracts/token/ERC20/utils/SafeERC20.sol\":9033:9073  SafeERC20FailedOperation(address(token)) */\n      tag_123\n        /* \"#utility.yul\":427:667   */\n      jump\n        /* \"#utility.yul\":196:422   */\n    tag_40:\n        /* \"#utility.yul\":255:261   */\n      0x00\n        /* \"#utility.yul\":308:310   */\n      0x20\n        /* \"#utility.yul\":296:305   */\n      dup3\n        /* \"#utility.yul\":287:294   */\n      dup5\n        /* \"#utility.yul\":283:306   */\n      sub\n        /* \"#utility.yul\":279:311   */\n      slt\n        /* \"#utility.yul\":276:328   */\n      iszero\n      tag_321\n      jumpi\n        /* \"#utility.yul\":324:325   */\n      0x00\n        /* \"#utility.yul\":321:322   */\n      0x00\n        /* \"#utility.yul\":314:326   */\n      revert\n        /* \"#utility.yul\":276:328   */\n    tag_321:\n      pop\n        /* \"#utility.yul\":369:392   */\n      calldataload\n      swap2\n        /* \"#utility.yul\":196:422   */\n      swap1\n      pop\n      jump\t// out\n        /* \"#utility.yul\":1308:1654   */\n    tag_69:\n        /* \"#utility.yul\":1376:1382   */\n      0x00\n        /* \"#utility.yul\":1384:1390   */\n      0x00\n        /* \"#utility.yul\":1437:1439   */\n      0x40\n        /* \"#utility.yul\":1425:1434   */\n      dup4\n        /* \"#utility.yul\":1416:1423   */\n      dup6\n        /* \"#utility.yul\":1412:1435   */\n      sub\n        /* \"#utility.yul\":1408:1440   */\n      slt\n        /* \"#utility.yul\":1405:1457   */\n      iszero\n      tag_327\n      jumpi\n        /* \"#utility.yul\":1453:1454   */\n      0x00\n        /* \"#utility.yul\":1450:1451   */\n      0x00\n        /* \"#utility.yul\":1443:1455   */\n      revert\n        /* \"#utility.yul\":1405:1457   */\n    tag_327:\n      pop\n      pop\n        /* \"#utility.yul\":1498:1521   */\n      dup1\n      calldataload\n      swap3\n        /* \"#utility.yul\":1618:1620   */\n      0x20\n        /* \"#utility.yul\":1603:1621   */\n      swap1\n      swap2\n      add\n        /* \"#utility.yul\":1590:1622   */\n      calldataload\n      swap2\n      pop\n        /* \"#utility.yul\":1308:1654   */\n      jump\t// out\n        /* \"#utility.yul\":1659:2269   */\n    tag_85:\n        /* \"#utility.yul\":1745:1751   */\n      0x00\n        /* \"#utility.yul\":1753:1759   */\n      0x00\n        /* \"#utility.yul\":1806:1808   */\n      0x20\n        /* \"#utility.yul\":1794:1803   */\n      dup4\n        /* \"#utility.yul\":1785:1792   */\n      dup6\n        /* \"#utility.yul\":1781:1804   */\n      sub\n        /* \"#utility.yul\":1777:1809   */\n      slt\n        /* \"#utility.yul\":1774:1826   */\n      iszero\n      tag_329\n      jumpi\n        /* \"#utility.yul\":1822:1823   */\n      0x00\n        /* \"#utility.yul\":1819:1820   */\n      0x00\n        /* \"#utility.yul\":1812:1824   */\n      revert\n        /* \"#utility.yul\":1774:1826   */\n    tag_329:\n        /* \"#utility.yul\":1862:1871   */\n      dup3\n        /* \"#utility.yul\":1849:1872   */\n      calldataload\n        /* \"#utility.yul\":1895:1913   */\n      0xffffffffffffffff\n        /* \"#utility.yul\":1887:1893   */\n      dup2\n        /* \"#utility.yul\":1884:1914   */\n      gt\n        /* \"#utility.yul\":1881:1931   */\n      iszero\n      tag_330\n      jumpi\n        /* \"#utility.yul\":1927:1928   */\n      0x00\n        /* \"#utility.yul\":1924:1925   */\n      0x00\n        /* \"#utility.yul\":1917:1929   */\n      revert\n        /* \"#utility.yul\":1881:1931   */\n    tag_330:\n        /* \"#utility.yul\":1950:1972   */\n      dup4\n      add\n        /* \"#utility.yul\":2003:2007   */\n      0x1f\n        /* \"#utility.yul\":1995:2008   */\n      dup2\n      add\n        /* \"#utility.yul\":1991:2018   */\n      dup6\n      sgt\n        /* \"#utility.yul\":1981:2036   */\n      tag_331\n      jumpi\n        /* \"#utility.yul\":2032:2033   */\n      0x00\n        /* \"#utility.yul\":2029:2030   */\n      0x00\n        /* \"#utility.yul\":2022:2034   */\n      revert\n        /* \"#utility.yul\":1981:2036   */\n    tag_331:\n        /* \"#utility.yul\":2072:2074   */\n      dup1\n        /* \"#utility.yul\":2059:2075   */\n      calldataload\n        /* \"#utility.yul\":2098:2116   */\n      0xffffffffffffffff\n        /* \"#utility.yul\":2090:2096   */\n      dup2\n        /* \"#utility.yul\":2087:2117   */\n      gt\n        /* \"#utility.yul\":2084:2134   */\n      iszero\n      tag_332\n      jumpi\n        /* \"#utility.yul\":2130:2131   */\n      0x00\n        /* \"#utility.yul\":2127:2128   */\n      0x00\n        /* \"#utility.yul\":2120:2132   */\n      revert\n        /* \"#utility.yul\":2084:2134   */\n    tag_332:\n        /* \"#utility.yul\":2183:2190   */\n      dup6\n        /* \"#utility.yul\":2178:2180   */\n      0x20\n        /* \"#utility.yul\":2168:2174   */\n      dup3\n        /* \"#utility.yul\":2165:2166   */\n      0x05\n        /* \"#utility.yul\":2161:2175   */\n      shl\n        /* \"#utility.yul\":2157:2159   */\n      dup5\n        /* \"#utility.yul\":2153:2176   */\n      add\n        /* \"#utility.yul\":2149:2181   */\n      add\n        /* \"#utility.yul\":2146:2191   */\n      gt\n        /* \"#utility.yul\":2143:2208   */\n      iszero\n      tag_333\n      jumpi\n        /* \"#utility.yul\":2204:2205   */\n      0x00\n        /* \"#utility.yul\":2201:2202   */\n      0x00\n        /* \"#utility.yul\":2194:2206   */\n      revert\n        /* \"#utility.yul\":2143:2208   */\n    tag_333:\n        /* \"#utility.yul\":2235:2237   */\n      0x20\n        /* \"#utility.yul\":2227:2238   */\n      swap2\n      swap1\n      swap2\n      add\n      swap6\n        /* \"#utility.yul\":2257:2263   */\n      swap1\n      swap5\n      pop\n        /* \"#utility.yul\":1659:2269   */\n      swap3\n      pop\n      pop\n      pop\n      jump\t// out\n        /* \"#utility.yul\":2719:2915   */\n    tag_316:\n        /* \"#utility.yul\":2787:2807   */\n      dup1\n      calldataload\n      sub(shl(0xa0, 0x01), 0x01)\n        /* \"#utility.yul\":2836:2890   */\n      dup2\n      and\n        /* \"#utility.yul\":2826:2891   */\n      dup2\n      eq\n        /* \"#utility.yul\":2816:2909   */\n      tag_336\n      jumpi\n        /* \"#utility.yul\":2905:2906   */\n      0x00\n        /* \"#utility.yul\":2902:2903   */\n      0x00\n        /* \"#utility.yul\":2895:2907   */\n      revert\n        /* \"#utility.yul\":2816:2909   */\n    tag_336:\n        /* \"#utility.yul\":2719:2915   */\n      swap2\n      swap1\n      pop\n      jump\t// out\n        /* \"#utility.yul\":2920:3220   */\n    tag_104:\n        /* \"#utility.yul\":2988:2994   */\n      0x00\n        /* \"#utility.yul\":2996:3002   */\n      0x00\n        /* \"#utility.yul\":3049:3051   */\n      0x40\n        /* \"#utility.yul\":3037:3046   */\n      dup4\n        /* \"#utility.yul\":3028:3035   */\n      dup6\n        /* \"#utility.yul\":3024:3047   */\n      sub\n        /* \"#utility.yul\":3020:3052   */\n      slt\n        /* \"#utility.yul\":3017:3069   */\n      iszero\n      tag_338\n      jumpi\n        /* \"#utility.yul\":3065:3066   */\n      0x00\n        /* \"#utility.yul\":3062:3063   */\n      0x00\n        /* \"#utility.yul\":3055:3067   */\n      revert\n        /* \"#utility.yul\":3017:3069   */\n    tag_338:\n        /* \"#utility.yul\":3088:3117   */\n      tag_339\n        /* \"#utility.yul\":3107:3116   */\n      dup4\n        /* \"#utility.yul\":3088:3117   */\n      tag_316\n      jump\t// in\n    tag_339:\n        /* \"#utility.yul\":3078:3117   */\n      swap5\n        /* \"#utility.yul\":3186:3188   */\n      0x20\n        /* \"#utility.yul\":3171:3189   */\n      swap4\n      swap1\n      swap4\n      add\n        /* \"#utility.yul\":3158:3190   */\n      calldataload\n      swap4\n      pop\n      pop\n      pop\n        /* \"#utility.yul\":2920:3220   */\n      jump\t// out\n        /* \"#utility.yul\":3225:3637   */\n    tag_108:\n        /* \"#utility.yul\":3292:3298   */\n      0x00\n        /* \"#utility.yul\":3300:3306   */\n      0x00\n        /* \"#utility.yul\":3353:3355   */\n      0x40\n        /* \"#utility.yul\":3341:3350   */\n      dup4\n        /* \"#utility.yul\":3332:3339   */\n      dup6\n        /* \"#utility.yul\":3328:3351   */\n      sub\n        /* \"#utility.yul\":3324:3356   */\n      slt\n        /* \"#utility.yul\":3321:3373   */\n      iszero\n      tag_341\n      jumpi\n        /* \"#utility.yul\":3369:3370   */\n      0x00\n        /* \"#utility.yul\":3366:3367   */\n      0x00\n        /* \"#utility.yul\":3359:3371   */\n      revert\n        /* \"#utility.yul\":3321:3373   */\n    tag_341:\n        /* \"#utility.yul\":3408:3417   */\n      dup3\n        /* \"#utility.yul\":3395:3418   */\n      calldataload\n      sub(shl(0x60, 0x01), 0x01)\n        /* \"#utility.yul\":3451:3456   */\n      dup2\n        /* \"#utility.yul\":3447:3485   */\n      and\n        /* \"#utility.yul\":3440:3445   */\n      dup2\n        /* \"#utility.yul\":3437:3486   */\n      eq\n        /* \"#utility.yul\":3427:3504   */\n      tag_339\n      jumpi\n        /* \"#utility.yul\":3500:3501   */\n      0x00\n        /* \"#utility.yul\":3497:3498   */\n      0x00\n        /* \"#utility.yul\":3490:3502   */\n      revert\n        /* \"#utility.yul\":3895:4081   */\n    tag_114:\n        /* \"#utility.yul\":3954:3960   */\n      0x00\n        /* \"#utility.yul\":4007:4009   */\n      0x20\n        /* \"#utility.yul\":3995:4004   */\n      dup3\n        /* \"#utility.yul\":3986:3993   */\n      dup5\n        /* \"#utility.yul\":3982:4005   */\n      sub\n        /* \"#utility.yul\":3978:4010   */\n      slt\n        /* \"#utility.yul\":3975:4027   */\n      iszero\n      tag_345\n      jumpi\n        /* \"#utility.yul\":4023:4024   */\n      0x00\n        /* \"#utility.yul\":4020:4021   */\n      0x00\n        /* \"#utility.yul\":4013:4025   */\n      revert\n        /* \"#utility.yul\":3975:4027   */\n    tag_345:\n        /* \"#utility.yul\":4046:4075   */\n      tag_346\n        /* \"#utility.yul\":4065:4074   */\n      dup3\n        /* \"#utility.yul\":4046:4075   */\n      tag_316\n      jump\t// in\n    tag_346:\n        /* \"#utility.yul\":4036:4075   */\n      swap4\n        /* \"#utility.yul\":3895:4081   */\n      swap3\n      pop\n      pop\n      pop\n      jump\t// out\n        /* \"#utility.yul\":5564:5691   */\n    tag_317:\n        /* \"#utility.yul\":5625:5635   */\n      0x4e487b71\n        /* \"#utility.yul\":5620:5623   */\n      0xe0\n        /* \"#utility.yul\":5616:5636   */\n      shl\n        /* \"#utility.yul\":5613:5614   */\n      0x00\n        /* \"#utility.yul\":5606:5637   */\n      mstore\n        /* \"#utility.yul\":5656:5660   */\n      0x11\n        /* \"#utility.yul\":5653:5654   */\n      0x04\n        /* \"#utility.yul\":5646:5661   */\n      mstore\n        /* \"#utility.yul\":5680:5684   */\n      0x24\n        /* \"#utility.yul\":5677:5678   */\n      0x00\n        /* \"#utility.yul\":5670:5685   */\n      revert\n        /* \"#utility.yul\":5696:5824   */\n    tag_143:\n        /* \"#utility.yul\":5763:5772   */\n      dup2\n      dup2\n      sub\n        /* \"#utility.yul\":5784:5795   */\n      dup2\n      dup2\n      gt\n        /* \"#utility.yul\":5781:5818   */\n      iszero\n      tag_354\n      jumpi\n        /* \"#utility.yul\":5798:5816   */\n      tag_354\n      tag_317\n      jump\t// in\n    tag_354:\n        /* \"#utility.yul\":5696:5824   */\n      swap3\n      swap2\n      pop\n      pop\n      jump\t// out\n        /* \"#utility.yul\":6947:7164   */\n    tag_177:\n        /* \"#utility.yul\":6987:6988   */\n      0x00\n        /* \"#utility.yul\":7013:7014   */\n      dup3\n        /* \"#utility.yul\":7003:7135   */\n      tag_359\n      jumpi\n        /* \"#utility.yul\":7057:7067   */\n      0x4e487b71\n        /* \"#utility.yul\":7052:7055   */\n      0xe0\n        /* \"#utility.yul\":7048:7068   */\n      shl\n        /* \"#utility.yul\":7045:7046   */\n      0x00\n        /* \"#utility.yul\":7038:7069   */\n      mstore\n        /* \"#utility.yul\":7092:7096   */\n      0x12\n        /* \"#utility.yul\":7089:7090   */\n      0x04\n        /* \"#utility.yul\":7082:7097   */\n      mstore\n        /* \"#utility.yul\":7120:7124   */\n      0x24\n        /* \"#utility.yul\":7117:7118   */\n      0x00\n        /* \"#utility.yul\":7110:7125   */\n      revert\n        /* \"#utility.yul\":7003:7135   */\n    tag_359:\n      pop\n        /* \"#utility.yul\":7149:7158   */\n      div\n      swap1\n        /* \"#utility.yul\":6947:7164   */\n      jump\t// out\n        /* \"#utility.yul\":7169:7294   */\n    tag_179:\n        /* \"#utility.yul\":7234:7243   */\n      dup1\n      dup3\n      add\n        /* \"#utility.yul\":7255:7265   */\n      dup1\n      dup3\n      gt\n        /* \"#utility.yul\":7252:7288   */\n      iszero\n      tag_354\n      jumpi\n        /* \"#utility.yul\":7268:7286   */\n      tag_354\n      tag_317\n      jump\t// in\n        /* \"#utility.yul\":7299:7426   */\n    tag_188:\n        /* \"#utility.yul\":7360:7370   */\n      0x4e487b71\n        /* \"#utility.yul\":7355:7358   */\n      0xe0\n        /* \"#utility.yul\":7351:7371   */\n      shl\n        /* \"#utility.yul\":7348:7349   */\n      0x00\n        /* \"#utility.yul\":7341:7372   */\n      mstore\n        /* \"#utility.yul\":7391:7395   */\n      0x32\n        /* \"#utility.yul\":7388:7389   */\n      0x04\n        /* \"#utility.yul\":7381:7396   */\n      mstore\n        /* \"#utility.yul\":7415:7419   */\n      0x24\n        /* \"#utility.yul\":7412:7413   */\n      0x00\n        /* \"#utility.yul\":7405:7420   */\n      revert\n        /* \"#utility.yul\":7786:7954   */\n    tag_228:\n        /* \"#utility.yul\":7859:7868   */\n      dup1\n      dup3\n      mul\n        /* \"#utility.yul\":7890:7899   */\n      dup2\n      iszero\n        /* \"#utility.yul\":7907:7922   */\n      dup3\n      dup3\n      div\n        /* \"#utility.yul\":7901:7923   */\n      dup5\n      eq\n        /* \"#utility.yul\":7887:7924   */\n      or\n        /* \"#utility.yul\":7877:7948   */\n      tag_354\n      jumpi\n        /* \"#utility.yul\":7928:7946   */\n      tag_354\n      tag_317\n      jump\t// in\n        /* \"#utility.yul\":7959:8143   */\n    tag_257:\n        /* \"#utility.yul\":8029:8035   */\n      0x00\n        /* \"#utility.yul\":8082:8084   */\n      0x20\n        /* \"#utility.yul\":8070:8079   */\n      dup3\n        /* \"#utility.yul\":8061:8068   */\n      dup5\n        /* \"#utility.yul\":8057:8080   */\n      sub\n        /* \"#utility.yul\":8053:8085   */\n      slt\n        /* \"#utility.yul\":8050:8102   */\n      iszero\n      tag_369\n      jumpi\n        /* \"#utility.yul\":8098:8099   */\n      0x00\n        /* \"#utility.yul\":8095:8096   */\n      0x00\n        /* \"#utility.yul\":8088:8100   */\n      revert\n        /* \"#utility.yul\":8050:8102   */\n    tag_369:\n      pop\n        /* \"#utility.yul\":8121:8137   */\n      mload\n      swap2\n        /* \"#utility.yul\":7959:8143   */\n      swap1\n      pop\n      jump\t// out\n        /* \"#utility.yul\":9266:9481   */\n    tag_276:\n      sub(shl(0x60, 0x01), 0x01)\n        /* \"#utility.yul\":9334:9368   */\n      dup2\n      dup2\n      and\n        /* \"#utility.yul\":9370:9404   */\n      dup4\n      dup3\n      and\n        /* \"#utility.yul\":9330:9405   */\n      add\n      swap1\n        /* \"#utility.yul\":9417:9452   */\n      dup2\n      gt\n        /* \"#utility.yul\":9414:9475   */\n      iszero\n      tag_354\n      jumpi\n        /* \"#utility.yul\":9455:9473   */\n      tag_354\n      tag_317\n      jump\t// in\n        /* \"#utility.yul\":9913:10048   */\n    tag_285:\n        /* \"#utility.yul\":9952:9955   */\n      0x00\n        /* \"#utility.yul\":9973:9990   */\n      0x01\n      dup3\n      add\n        /* \"#utility.yul\":9970:10013   */\n      tag_379\n      jumpi\n        /* \"#utility.yul\":9993:10011   */\n      tag_379\n      tag_317\n      jump\t// in\n    tag_379:\n      pop\n        /* \"#utility.yul\":10040:10041   */\n      0x01\n        /* \"#utility.yul\":10029:10042   */\n      add\n      swap1\n        /* \"#utility.yul\":9913:10048   */\n      jump\t// out\n\n    auxdata: 0xa2646970667358221220b6b1ce30a7dedc2f8d4fdf861fa8ecb55c18d31a255d3d79ea2b3c59b26580d464736f6c634300081e0033\n}\n",
				"bytecode": {
					"linkReferences": {},
					"object": "6101006040525f805460ff60a01b1916815560016002556003819055600455348015610029575f5ffd5b506040516118d43803806118d483398101604081905261004891610101565b338061006d57604051631e4fbdf760e01b81525f600482015260240160405180910390fd5b61007681610097565b506001600160a01b0393841660c0529190921660e05260a052608052610141565b5f80546001600160a01b038381166001600160a01b0319831681178455604051919092169283917f8be0079c531659141344cd1fd0a4f28419497f9722a3daafe3b4186f6b6457e09190a35050565b80516001600160a01b03811681146100fc575f5ffd5b919050565b5f5f5f5f60808587031215610114575f5ffd5b61011d856100e6565b935061012b602086016100e6565b6040860151606090960151949790965092505050565b60805160a05160c05160e0516116db6101f95f395f818161023c015281816102bb015281816105b901528181610b4f01528181610eee0152610fba01525f81816101d501528181610365015281816107ea01528181610ab5015261114801525f8181610188015281816108a101528181610c7301528181610ca701528181610d4301528181610dc70152610e5301525f818161088001528181610cda01528181610d1901528181610d9d0152610e2901526116db5ff3fe608060405234801561000f575f5ffd5b5060043610610175575f3560e01c8063af7568dd116100dd578063ce325bf811610088578063d6ef7af011610063578063d6ef7af014610389578063d93c04a01461039c578063f2fde38b146103c4575f5ffd5b8063ce325bf814610313578063d2d7231f14610350578063d46149a214610363575f5ffd5b8063b6baffe3116100b8578063b6baffe3146102e5578063bc854352146102ed578063beceed3914610300575f5ffd5b8063af7568dd146102ad578063b109beec146102b6578063b5fa91fe146102dd575f5ffd5b806375f12b211161013d5780638e12c0cd116101185780638e12c0cd146102705780638f4729b714610291578063ac00500f1461029a575f5ffd5b806375f12b21146102175780637c2fdeb51461023a5780638da5cb5b14610260575f5ffd5b806307da68f514610179578063109cf39914610183578063379607f5146101bd5780636db08f25146101d0578063715018a61461020f575b5f5ffd5b6101816103d7565b005b6101aa7f000000000000000000000000000000000000000000000000000000000000000081565b6040519081526020015b60405180910390f35b6101aa6101cb36600461149b565b61041a565b6101f77f000000000000000000000000000000000000000000000000000000000000000081565b6040516001600160a01b0390911681526020016101b4565b61018161063f565b5f5461022a90600160a01b900460ff1681565b60405190151581526020016101b4565b7f00000000000000000000000000000000000000000000000000000000000000006101f7565b5f546001600160a01b03166101f7565b610279612a3081565b6040516001600160601b0390911681526020016101b4565b6101aa60045481565b6101816102a83660046114b2565b610652565b6101aa60035481565b6101f77f000000000000000000000000000000000000000000000000000000000000000081565b6101aa610868565b6101aa61087d565b6101816102fb3660046114d2565b6108d7565b61018161030e36600461149b565b610ae9565b61032661032136600461149b565b610bb5565b604080516001600160a01b03909516855260208501939093529183015260608201526080016101b4565b6101aa61035e36600461149b565b610c52565b7f00000000000000000000000000000000000000000000000000000000000000006101f7565b61018161039736600461155e565b610ec4565b6103af6103aa366004611586565b611028565b604080519283526020830191909152016101b4565b6101816103d23660046115ad565b6112b7565b6103df6112f4565b5f805460ff60a01b1916600160a01b1781556040517f7acc84e34091ae817647a4c49116f5cc07f319078ba80f8f5fde37ea7e25cbd69190a1565b5f815f8111801561042c575060025481105b6104795760405162461bcd60e51b81526020600482015260196024820152784d6f64756c65583a496e76616c6964205374616b652049442160381b60448201526064015b60405180910390fd5b5f83815260016020526040902080546001600160a01b031633146104df5760405162461bcd60e51b815260206004820152601f60248201527f4d6f64756c65583a43616c6c6572206973206e6f7420746865206f776e6572006044820152606401610470565b8054600160a01b90046001600160601b0316426001600160601b0316101561055c5760405162461bcd60e51b815260206004820152602a60248201527f4d6f64756c65583a4561726c79205769746864726177616c206973206e6f74206044820152697065726d69747465642160b01b6064820152608401610470565b5f8160020154116105af5760405162461bcd60e51b815260206004820152601860248201527f4d6f64756c65583a4e6f7468696e6720746f20636c61696d00000000000000006044820152606401610470565b60028101546105e87f00000000000000000000000000000000000000000000000000000000000000006001600160a01b03163383611320565b8060045f8282546105f991906115e1565b90915550505f60028301556040518581527f67bb155fcabb99400c32b640dc7704c8f18aae4c817704c7267c5a8cd26dfc199060200160405180910390a1949350505050565b6106476112f4565b6106505f611394565b565b61065a6112f4565b815f8111801561066b575060025481105b6106b35760405162461bcd60e51b81526020600482015260196024820152784d6f64756c65583a496e76616c6964205374616b652049442160381b6044820152606401610470565b5f82116107145760405162461bcd60e51b815260206004820152602960248201527f4d6f64756c65583a616d6f756e74206d7573742062652067726561746572207460448201526868616e207a65726f2160b81b6064820152608401610470565b5f8381526001602052604090208054600160a01b90046001600160601b0316426001600160601b031611156107835760405162461bcd60e51b81526020600482015260156024820152744d6f64756c65583a4275726e7420746f6b656e732160581b6044820152606401610470565b80600101548311156107d75760405162461bcd60e51b815260206004820152601d60248201527f4d6f64756c65583a496e73756666696369656e742062616c616e6365210000006044820152606401610470565b6108113360018301546001600160a01b037f0000000000000000000000000000000000000000000000000000000000000000169190611320565b82816001015f82825461082491906115e1565b909155505060408051858152602081018590527f03a00e6132085cbc9ea18899cd135ef9cad5d305d58506e08e7b1a9b96199a9c910160405180910390a150505050565b5f600160025461087891906115e1565b905090565b5f7f00000000000000000000000000000000000000000000000000000000000000007f00000000000000000000000000000000000000000000000000000000000000006003546108cd91906115fa565b6108789190611619565b6108df6112f4565b5f805b82811015610a60576002548484838181106108ff576108ff61162c565b905060200201351061094f5760405162461bcd60e51b81526020600482015260196024820152784d6f64756c65583a496e76616c6964205374616b652049442160381b6044820152606401610470565b5f60015f8686858181106109655761096561162c565b602090810292909201358352508101919091526040015f208054909150600160a01b90046001600160601b0316426001600160601b031611156109e25760405162461bcd60e51b81526020600482015260156024820152744d6f64756c65583a4275726e7420746f6b656e732160581b6044820152606401610470565b60018101546109f19084611619565b5f600183015592507f03a00e6132085cbc9ea18899cd135ef9cad5d305d58506e08e7b1a9b96199a9c858584818110610a2c57610a2c61162c565b905060200201358260010154604051610a4f929190918252602082015260400190565b60405180910390a1506001016108e2565b505f8111610ab05760405162461bcd60e51b815260206004820152601a60248201527f4d6f64756c65583a546f74616c20616d6f756e742069732030210000000000006044820152606401610470565b610ae47f00000000000000000000000000000000000000000000000000000000000000006001600160a01b03163383611320565b505050565b5f8111610b4a5760405162461bcd60e51b815260206004820152602960248201527f4d6f64756c65583a616d6f756e74206d7573742062652067726561746572207460448201526868616e207a65726f2160b81b6064820152608401610470565b610b7f7f00000000000000000000000000000000000000000000000000000000000000006001600160a01b03163330846113f0565b6040518181527fde88a922e0d3b88b24e9623efeb464919c6bf9f66857a65e2bfcf2ce87a9433d9060200160405180910390a150565b5f5f5f5f845f81118015610bca575060025481105b610c125760405162461bcd60e51b81526020600482015260196024820152784d6f64756c65583a496e76616c6964205374616b652049442160381b6044820152606401610470565b5050505f92835250506001602081905260409091208054918101546002909101546001600160a01b03831693600160a01b9093046001600160601b031692565b5f5f670de0b6b3a764000090505f83600354610c6e9190611619565b90505f7f0000000000000000000000000000000000000000000000000000000000000000600354610c9f91906115fa565b90505f610ccc7f0000000000000000000000000000000000000000000000000000000000000000846115fa565b9050808203610d1357610cff7f000000000000000000000000000000000000000000000000000000000000000083611619565b610d0990876115fa565b9695505050505050565b5f610d3e7f000000000000000000000000000000000000000000000000000000000000000084611619565b6003547f0000000000000000000000000000000000000000000000000000000000000000610d6d866001611619565b610d779190611640565b610d8191906115e1565b610d8b9087611640565b610d9591906115fa565b90505f610dc27f000000000000000000000000000000000000000000000000000000000000000084611619565b610dec7f000000000000000000000000000000000000000000000000000000000000000085611640565b610df690876115e1565b610e009088611640565b610e0a91906115fa565b90505f80610e19866001611619565b90505b84811015610e9657610e4e7f000000000000000000000000000000000000000000000000000000000000000082611619565b610e787f00000000000000000000000000000000000000000000000000000000000000008a611640565b610e8291906115fa565b610e8c9083611619565b9150600101610e1c565b508682610ea38386611619565b610ead9190611619565b610eb791906115fa565b9998505050505050505050565b610ecc6112f4565b600454610ed99082611619565b6040516370a0823160e01b81523060048201527f00000000000000000000000000000000000000000000000000000000000000006001600160a01b0316906370a0823190602401602060405180830381865afa158015610f3b573d5f5f3e3d5ffd5b505050506040513d601f19601f82011682018060405250810190610f5f9190611657565b1015610fad5760405162461bcd60e51b815260206004820152601d60248201527f4d6f64756c65583a496e73756666696369656e742062616c616e6365210000006044820152606401610470565b610fe16001600160a01b037f0000000000000000000000000000000000000000000000000000000000000000168383611320565b816001600160a01b03167f1d3eee4ca001cff39eec6ec7615aacf2f2bd61791273830728ba00ccbd6e13378260405161101c91815260200190565b60405180910390a25050565b5f80548190600160a01b900460ff16156110845760405162461bcd60e51b815260206004820152601060248201527f4d6f64756c65583a53544f5050454421000000000000000000000000000000006044820152606401610470565b5f83116110e85760405162461bcd60e51b815260206004820152602c60248201527f4d6f64756c65583a5374616b6520616d6f756e74206d7573742062652067726560448201526b61746572207468616e20302160a01b6064820152608401610470565b612a306001600160601b03851610156111435760405162461bcd60e51b815260206004820152601f60248201527f4d6f64756c65583a557365206c6f6e676572206c6f636b5f706572696f6421006044820152606401610470565b6111787f00000000000000000000000000000000000000000000000000000000000000006001600160a01b03163330866113f0565b5f611183854261166e565b90505f61118f85610c52565b90505f600254905060405180608001604052806111a93390565b6001600160a01b0390811682526001600160601b0386811660208085019190915260408085018c905260609485018890525f878152600180845282822088519489015194909616600160a01b949095169390930293909317845585015190830155929091015160029091015560038054889290611227908490611619565b925050819055508160045f82825461123f9190611619565b9091555050604080518281526001600160601b038516602082015280820188905260608101849052905133917f24fe2d25c10eb2c67b5ac1e3edbcadc94191e154ed388ad667a9480c44f47146919081900360800190a260028054905f6112a58361168d565b90915550909791965090945050505050565b6112bf6112f4565b6001600160a01b0381166112e857604051631e4fbdf760e01b81525f6004820152602401610470565b6112f181611394565b50565b5f546001600160a01b031633146106505760405163118cdaa760e01b8152336004820152602401610470565b6040516001600160a01b03838116602483015260448201839052610ae491859182169063a9059cbb906064015b604051602081830303815290604052915060e01b6020820180517bffffffffffffffffffffffffffffffffffffffffffffffffffffffff838183161783525050505061142f565b5f80546001600160a01b0383811673ffffffffffffffffffffffffffffffffffffffff19831681178455604051919092169283917f8be0079c531659141344cd1fd0a4f28419497f9722a3daafe3b4186f6b6457e09190a35050565b6040516001600160a01b0384811660248301528381166044830152606482018390526114299186918216906323b872dd9060840161134d565b50505050565b5f5f60205f8451602086015f885af18061144e576040513d5f823e3d81fd5b50505f513d91508115611465578060011415611472565b6001600160a01b0384163b155b1561142957604051635274afe760e01b81526001600160a01b0385166004820152602401610470565b5f602082840312156114ab575f5ffd5b5035919050565b5f5f604083850312156114c3575f5ffd5b50508035926020909101359150565b5f5f602083850312156114e3575f5ffd5b823567ffffffffffffffff8111156114f9575f5ffd5b8301601f81018513611509575f5ffd5b803567ffffffffffffffff81111561151f575f5ffd5b8560208260051b8401011115611533575f5ffd5b6020919091019590945092505050565b80356001600160a01b0381168114611559575f5ffd5b919050565b5f5f6040838503121561156f575f5ffd5b61157883611543565b946020939093013593505050565b5f5f60408385031215611597575f5ffd5b82356001600160601b0381168114611578575f5ffd5b5f602082840312156115bd575f5ffd5b6115c682611543565b9392505050565b634e487b7160e01b5f52601160045260245ffd5b818103818111156115f4576115f46115cd565b92915050565b5f8261161457634e487b7160e01b5f52601260045260245ffd5b500490565b808201808211156115f4576115f46115cd565b634e487b7160e01b5f52603260045260245ffd5b80820281158282048414176115f4576115f46115cd565b5f60208284031215611667575f5ffd5b5051919050565b6001600160601b0381811683821601908111156115f4576115f46115cd565b5f6001820161169e5761169e6115cd565b506001019056fea2646970667358221220b6b1ce30a7dedc2f8d4fdf861fa8ecb55c18d31a255d3d79ea2b3c59b26580d464736f6c634300081e0033",
					"opcodes": "PUSH2 0x100 PUSH1 0x40 MSTORE PUSH0 DUP1 SLOAD PUSH1 0xFF PUSH1 0xA0 SHL NOT AND DUP2 SSTORE PUSH1 0x1 PUSH1 0x2 SSTORE PUSH1 0x3 DUP2 SWAP1 SSTORE PUSH1 0x4 SSTORE CALLVALUE DUP1 ISZERO PUSH2 0x29 JUMPI PUSH0 PUSH0 REVERT JUMPDEST POP PUSH1 0x40 MLOAD PUSH2 0x18D4 CODESIZE SUB DUP1 PUSH2 0x18D4 DUP4 CODECOPY DUP2 ADD PUSH1 0x40 DUP2 SWAP1 MSTORE PUSH2 0x48 SWAP2 PUSH2 0x101 JUMP JUMPDEST CALLER DUP1 PUSH2 0x6D JUMPI PUSH1 0x40 MLOAD PUSH4 0x1E4FBDF7 PUSH1 0xE0 SHL DUP2 MSTORE PUSH0 PUSH1 0x4 DUP3 ADD MSTORE PUSH1 0x24 ADD PUSH1 0x40 MLOAD DUP1 SWAP2 SUB SWAP1 REVERT JUMPDEST PUSH2 0x76 DUP2 PUSH2 0x97 JUMP JUMPDEST POP PUSH1 0x1 PUSH1 0x1 PUSH1 0xA0 SHL SUB SWAP4 DUP5 AND PUSH1 0xC0 MSTORE SWAP2 SWAP1 SWAP3 AND PUSH1 0xE0 MSTORE PUSH1 0xA0 MSTORE PUSH1 0x80 MSTORE PUSH2 0x141 JUMP JUMPDEST PUSH0 DUP1 SLOAD PUSH1 0x1 PUSH1 0x1 PUSH1 0xA0 SHL SUB DUP4 DUP2 AND PUSH1 0x1 PUSH1 0x1 PUSH1 0xA0 SHL SUB NOT DUP4 AND DUP2 OR DUP5 SSTORE PUSH1 0x40 MLOAD SWAP2 SWAP1 SWAP3 AND SWAP3 DUP4 SWAP2 PUSH32 0x8BE0079C531659141344CD1FD0A4F28419497F9722A3DAAFE3B4186F6B6457E0 SWAP2 SWAP1 LOG3 POP POP JUMP JUMPDEST DUP1 MLOAD PUSH1 0x1 PUSH1 0x1 PUSH1 0xA0 SHL SUB DUP2 AND DUP2 EQ PUSH2 0xFC JUMPI PUSH0 PUSH0 REVERT JUMPDEST SWAP2 SWAP1 POP JUMP JUMPDEST PUSH0 PUSH0 PUSH0 PUSH0 PUSH1 0x80 DUP6 DUP8 SUB SLT ISZERO PUSH2 0x114 JUMPI PUSH0 PUSH0 REVERT JUMPDEST PUSH2 0x11D DUP6 PUSH2 0xE6 JUMP JUMPDEST SWAP4 POP PUSH2 0x12B PUSH1 0x20 DUP7 ADD PUSH2 0xE6 JUMP JUMPDEST PUSH1 0x40 DUP7 ADD MLOAD PUSH1 0x60 SWAP1 SWAP7 ADD MLOAD SWAP5 SWAP8 SWAP1 SWAP7 POP SWAP3 POP POP POP JUMP JUMPDEST PUSH1 0x80 MLOAD PUSH1 0xA0 MLOAD PUSH1 0xC0 MLOAD PUSH1 0xE0 MLOAD PUSH2 0x16DB PUSH2 0x1F9 PUSH0 CODECOPY PUSH0 DUP2 DUP2 PUSH2 0x23C ADD MSTORE DUP2 DUP2 PUSH2 0x2BB ADD MSTORE DUP2 DUP2 PUSH2 0x5B9 ADD MSTORE DUP2 DUP2 PUSH2 0xB4F ADD MSTORE DUP2 DUP2 PUSH2 0xEEE ADD MSTORE PUSH2 0xFBA ADD MSTORE PUSH0 DUP2 DUP2 PUSH2 0x1D5 ADD MSTORE DUP2 DUP2 PUSH2 0x365 ADD MSTORE DUP2 DUP2 PUSH2 0x7EA ADD MSTORE DUP2 DUP2 PUSH2 0xAB5 ADD MSTORE PUSH2 0x1148 ADD MSTORE PUSH0 DUP2 DUP2 PUSH2 0x188 ADD MSTORE DUP2 DUP2 PUSH2 0x8A1 ADD MSTORE DUP2 DUP2 PUSH2 0xC73 ADD MSTORE DUP2 DUP2 PUSH2 0xCA7 ADD MSTORE DUP2 DUP2 PUSH2 0xD43 ADD MSTORE DUP2 DUP2 PUSH2 0xDC7 ADD MSTORE PUSH2 0xE53 ADD MSTORE PUSH0 DUP2 DUP2 PUSH2 0x880 ADD MSTORE DUP2 DUP2 PUSH2 0xCDA ADD MSTORE DUP2 DUP2 PUSH2 0xD19 ADD MSTORE DUP2 DUP2 PUSH2 0xD9D ADD MSTORE PUSH2 0xE29 ADD MSTORE PUSH2 0x16DB PUSH0 RETURN INVALID PUSH1 0x80 PUSH1 0x40 MSTORE CALLVALUE DUP1 ISZERO PUSH2 0xF JUMPI PUSH0 PUSH0 REVERT JUMPDEST POP PUSH1 0x4 CALLDATASIZE LT PUSH2 0x175 JUMPI PUSH0 CALLDATALOAD PUSH1 0xE0 SHR DUP1 PUSH4 0xAF7568DD GT PUSH2 0xDD JUMPI DUP1 PUSH4 0xCE325BF8 GT PUSH2 0x88 JUMPI DUP1 PUSH4 0xD6EF7AF0 GT PUSH2 0x63 JUMPI DUP1 PUSH4 0xD6EF7AF0 EQ PUSH2 0x389 JUMPI DUP1 PUSH4 0xD93C04A0 EQ PUSH2 0x39C JUMPI DUP1 PUSH4 0xF2FDE38B EQ PUSH2 0x3C4 JUMPI PUSH0 PUSH0 REVERT JUMPDEST DUP1 PUSH4 0xCE325BF8 EQ PUSH2 0x313 JUMPI DUP1 PUSH4 0xD2D7231F EQ PUSH2 0x350 JUMPI DUP1 PUSH4 0xD46149A2 EQ PUSH2 0x363 JUMPI PUSH0 PUSH0 REVERT JUMPDEST DUP1 PUSH4 0xB6BAFFE3 GT PUSH2 0xB8 JUMPI DUP1 PUSH4 0xB6BAFFE3 EQ PUSH2 0x2E5 JUMPI DUP1 PUSH4 0xBC854352 EQ PUSH2 0x2ED JUMPI DUP1 PUSH4 0xBECEED39 EQ PUSH2 0x300 JUMPI PUSH0 PUSH0 REVERT JUMPDEST DUP1 PUSH4 0xAF7568DD EQ PUSH2 0x2AD JUMPI DUP1 PUSH4 0xB109BEEC EQ PUSH2 0x2B6 JUMPI DUP1 PUSH4 0xB5FA91FE EQ PUSH2 0x2DD JUMPI PUSH0 PUSH0 REVERT JUMPDEST DUP1 PUSH4 0x75F12B21 GT PUSH2 0x13D JUMPI DUP1 PUSH4 0x8E12C0CD GT PUSH2 0x118 JUMPI DUP1 PUSH4 0x8E12C0CD EQ PUSH2 0x270 JUMPI DUP1 PUSH4 0x8F4729B7 EQ PUSH2 0x291 JUMPI DUP1 PUSH4 0xAC00500F EQ PUSH2 0x29A JUMPI PUSH0 PUSH0 REVERT JUMPDEST DUP1 PUSH4 0x75F12B21 EQ PUSH2 0x217 JUMPI DUP1 PUSH4 0x7C2FDEB5 EQ PUSH2 0x23A JUMPI DUP1 PUSH4 0x8DA5CB5B EQ PUSH2 0x260 JUMPI PUSH0 PUSH0 REVERT JUMPDEST DUP1 PUSH4 0x7DA68F5 EQ PUSH2 0x179 JUMPI DUP1 PUSH4 0x109CF399 EQ PUSH2 0x183 JUMPI DUP1 PUSH4 0x379607F5 EQ PUSH2 0x1BD JUMPI DUP1 PUSH4 0x6DB08F25 EQ PUSH2 0x1D0 JUMPI DUP1 PUSH4 0x715018A6 EQ PUSH2 0x20F JUMPI JUMPDEST PUSH0 PUSH0 REVERT JUMPDEST PUSH2 0x181 PUSH2 0x3D7 JUMP JUMPDEST STOP JUMPDEST PUSH2 0x1AA PUSH32 0x0 DUP2 JUMP JUMPDEST PUSH1 0x40 MLOAD SWAP1 DUP2 MSTORE PUSH1 0x20 ADD JUMPDEST PUSH1 0x40 MLOAD DUP1 SWAP2 SUB SWAP1 RETURN JUMPDEST PUSH2 0x1AA PUSH2 0x1CB CALLDATASIZE PUSH1 0x4 PUSH2 0x149B JUMP JUMPDEST PUSH2 0x41A JUMP JUMPDEST PUSH2 0x1F7 PUSH32 0x0 DUP2 JUMP JUMPDEST PUSH1 0x40 MLOAD PUSH1 0x1 PUSH1 0x1 PUSH1 0xA0 SHL SUB SWAP1 SWAP2 AND DUP2 MSTORE PUSH1 0x20 ADD PUSH2 0x1B4 JUMP JUMPDEST PUSH2 0x181 PUSH2 0x63F JUMP JUMPDEST PUSH0 SLOAD PUSH2 0x22A SWAP1 PUSH1 0x1 PUSH1 0xA0 SHL SWAP1 DIV PUSH1 0xFF AND DUP2 JUMP JUMPDEST PUSH1 0x40 MLOAD SWAP1 ISZERO ISZERO DUP2 MSTORE PUSH1 0x20 ADD PUSH2 0x1B4 JUMP JUMPDEST PUSH32 0x0 PUSH2 0x1F7 JUMP JUMPDEST PUSH0 SLOAD PUSH1 0x1 PUSH1 0x1 PUSH1 0xA0 SHL SUB AND PUSH2 0x1F7 JUMP JUMPDEST PUSH2 0x279 PUSH2 0x2A30 DUP2 JUMP JUMPDEST PUSH1 0x40 MLOAD PUSH1 0x1 PUSH1 0x1 PUSH1 0x60 SHL SUB SWAP1 SWAP2 AND DUP2 MSTORE PUSH1 0x20 ADD PUSH2 0x1B4 JUMP JUMPDEST PUSH2 0x1AA PUSH1 0x4 SLOAD DUP2 JUMP JUMPDEST PUSH2 0x181 PUSH2 0x2A8 CALLDATASIZE PUSH1 0x4 PUSH2 0x14B2 JUMP JUMPDEST PUSH2 0x652 JUMP JUMPDEST PUSH2 0x1AA PUSH1 0x3 SLOAD DUP2 JUMP JUMPDEST PUSH2 0x1F7 PUSH32 0x0 DUP2 JUMP JUMPDEST PUSH2 0x1AA PUSH2 0x868 JUMP JUMPDEST PUSH2 0x1AA PUSH2 0x87D JUMP JUMPDEST PUSH2 0x181 PUSH2 0x2FB CALLDATASIZE PUSH1 0x4 PUSH2 0x14D2 JUMP JUMPDEST PUSH2 0x8D7 JUMP JUMPDEST PUSH2 0x181 PUSH2 0x30E CALLDATASIZE PUSH1 0x4 PUSH2 0x149B JUMP JUMPDEST PUSH2 0xAE9 JUMP JUMPDEST PUSH2 0x326 PUSH2 0x321 CALLDATASIZE PUSH1 0x4 PUSH2 0x149B JUMP JUMPDEST PUSH2 0xBB5 JUMP JUMPDEST PUSH1 0x40 DUP1 MLOAD PUSH1 0x1 PUSH1 0x1 PUSH1 0xA0 SHL SUB SWAP1 SWAP6 AND DUP6 MSTORE PUSH1 0x20 DUP6 ADD SWAP4 SWAP1 SWAP4 MSTORE SWAP2 DUP4 ADD MSTORE PUSH1 0x60 DUP3 ADD MSTORE PUSH1 0x80 ADD PUSH2 0x1B4 JUMP JUMPDEST PUSH2 0x1AA PUSH2 0x35E CALLDATASIZE PUSH1 0x4 PUSH2 0x149B JUMP JUMPDEST PUSH2 0xC52 JUMP JUMPDEST PUSH32 0x0 PUSH2 0x1F7 JUMP JUMPDEST PUSH2 0x181 PUSH2 0x397 CALLDATASIZE PUSH1 0x4 PUSH2 0x155E JUMP JUMPDEST PUSH2 0xEC4 JUMP JUMPDEST PUSH2 0x3AF PUSH2 0x3AA CALLDATASIZE PUSH1 0x4 PUSH2 0x1586 JUMP JUMPDEST PUSH2 0x1028 JUMP JUMPDEST PUSH1 0x40 DUP1 MLOAD SWAP3 DUP4 MSTORE PUSH1 0x20 DUP4 ADD SWAP2 SWAP1 SWAP2 MSTORE ADD PUSH2 0x1B4 JUMP JUMPDEST PUSH2 0x181 PUSH2 0x3D2 CALLDATASIZE PUSH1 0x4 PUSH2 0x15AD JUMP JUMPDEST PUSH2 0x12B7 JUMP JUMPDEST PUSH2 0x3DF PUSH2 0x12F4 JUMP JUMPDEST PUSH0 DUP1 SLOAD PUSH1 0xFF PUSH1 0xA0 SHL NOT AND PUSH1 0x1 PUSH1 0xA0 SHL OR DUP2 SSTORE PUSH1 0x40 MLOAD PUSH32 0x7ACC84E34091AE817647A4C49116F5CC07F319078BA80F8F5FDE37EA7E25CBD6 SWAP2 SWAP1 LOG1 JUMP JUMPDEST PUSH0 DUP2 PUSH0 DUP2 GT DUP1 ISZERO PUSH2 0x42C JUMPI POP PUSH1 0x2 SLOAD DUP2 LT JUMPDEST PUSH2 0x479 JUMPI PUSH1 0x40 MLOAD PUSH3 0x461BCD PUSH1 0xE5 SHL DUP2 MSTORE PUSH1 0x20 PUSH1 0x4 DUP3 ADD MSTORE PUSH1 0x19 PUSH1 0x24 DUP3 ADD MSTORE PUSH25 0x4D6F64756C65583A496E76616C6964205374616B6520494421 PUSH1 0x38 SHL PUSH1 0x44 DUP3 ADD MSTORE PUSH1 0x64 ADD JUMPDEST PUSH1 0x40 MLOAD DUP1 SWAP2 SUB SWAP1 REVERT JUMPDEST PUSH0 DUP4 DUP2 MSTORE PUSH1 0x1 PUSH1 0x20 MSTORE PUSH1 0x40 SWAP1 KECCAK256 DUP1 SLOAD PUSH1 0x1 PUSH1 0x1 PUSH1 0xA0 SHL SUB AND CALLER EQ PUSH2 0x4DF JUMPI PUSH1 0x40 MLOAD PUSH3 0x461BCD PUSH1 0xE5 SHL DUP2 MSTORE PUSH1 0x20 PUSH1 0x4 DUP3 ADD MSTORE PUSH1 0x1F PUSH1 0x24 DUP3 ADD MSTORE PUSH32 0x4D6F64756C65583A43616C6C6572206973206E6F7420746865206F776E657200 PUSH1 0x44 DUP3 ADD MSTORE PUSH1 0x64 ADD PUSH2 0x470 JUMP JUMPDEST DUP1 SLOAD PUSH1 0x1 PUSH1 0xA0 SHL SWAP1 DIV PUSH1 0x1 PUSH1 0x1 PUSH1 0x60 SHL SUB AND TIMESTAMP PUSH1 0x1 PUSH1 0x1 PUSH1 0x60 SHL SUB AND LT ISZERO PUSH2 0x55C JUMPI PUSH1 0x40 MLOAD PUSH3 0x461BCD PUSH1 0xE5 SHL DUP2 MSTORE PUSH1 0x20 PUSH1 0x4 DUP3 ADD MSTORE PUSH1 0x2A PUSH1 0x24 DUP3 ADD MSTORE PUSH32 0x4D6F64756C65583A4561726C79205769746864726177616C206973206E6F7420 PUSH1 0x44 DUP3 ADD MSTORE PUSH10 0x7065726D697474656421 PUSH1 0xB0 SHL PUSH1 0x64 DUP3 ADD MSTORE PUSH1 0x84 ADD PUSH2 0x470 JUMP JUMPDEST PUSH0 DUP2 PUSH1 0x2 ADD SLOAD GT PUSH2 0x5AF JUMPI PUSH1 0x40 MLOAD PUSH3 0x461BCD PUSH1 0xE5 SHL DUP2 MSTORE PUSH1 0x20 PUSH1 0x4 DUP3 ADD MSTORE PUSH1 0x18 PUSH1 0x24 DUP3 ADD MSTORE PUSH32 0x4D6F64756C65583A4E6F7468696E6720746F20636C61696D0000000000000000 PUSH1 0x44 DUP3 ADD MSTORE PUSH1 0x64 ADD PUSH2 0x470 JUMP JUMPDEST PUSH1 0x2 DUP2 ADD SLOAD PUSH2 0x5E8 PUSH32 0x0 PUSH1 0x1 PUSH1 0x1 PUSH1 0xA0 SHL SUB AND CALLER DUP4 PUSH2 0x1320 JUMP JUMPDEST DUP1 PUSH1 0x4 PUSH0 DUP3 DUP3 SLOAD PUSH2 0x5F9 SWAP2 SWAP1 PUSH2 0x15E1 JUMP JUMPDEST SWAP1 SWAP2 SSTORE POP POP PUSH0 PUSH1 0x2 DUP4 ADD SSTORE PUSH1 0x40 MLOAD DUP6 DUP2 MSTORE PUSH32 0x67BB155FCABB99400C32B640DC7704C8F18AAE4C817704C7267C5A8CD26DFC19 SWAP1 PUSH1 0x20 ADD PUSH1 0x40 MLOAD DUP1 SWAP2 SUB SWAP1 LOG1 SWAP5 SWAP4 POP POP POP POP JUMP JUMPDEST PUSH2 0x647 PUSH2 0x12F4 JUMP JUMPDEST PUSH2 0x650 PUSH0 PUSH2 0x1394 JUMP JUMPDEST JUMP JUMPDEST PUSH2 0x65A PUSH2 0x12F4 JUMP JUMPDEST DUP2 PUSH0 DUP2 GT DUP1 ISZERO PUSH2 0x66B JUMPI POP PUSH1 0x2 SLOAD DUP2 LT JUMPDEST PUSH2 0x6B3 JUMPI PUSH1 0x40 MLOAD PUSH3 0x461BCD PUSH1 0xE5 SHL DUP2 MSTORE PUSH1 0x20 PUSH1 0x4 DUP3 ADD MSTORE PUSH1 0x19 PUSH1 0x24 DUP3 ADD MSTORE PUSH25 0x4D6F64756C65583A496E76616C6964205374616B6520494421 PUSH1 0x38 SHL PUSH1 0x44 DUP3 ADD MSTORE PUSH1 0x64 ADD PUSH2 0x470 JUMP JUMPDEST PUSH0 DUP3 GT PUSH2 0x714 JUMPI PUSH1 0x40 MLOAD PUSH3 0x461BCD PUSH1 0xE5 SHL DUP2 MSTORE PUSH1 0x20 PUSH1 0x4 DUP3 ADD MSTORE PUSH1 0x29 PUSH1 0x24 DUP3 ADD MSTORE PUSH32 0x4D6F64756C65583A616D6F756E74206D75737420626520677265617465722074 PUSH1 0x44 DUP3 ADD MSTORE PUSH9 0x68616E207A65726F21 PUSH1 0xB8 SHL PUSH1 0x64 DUP3 ADD MSTORE PUSH1 0x84 ADD PUSH2 0x470 JUMP JUMPDEST PUSH0 DUP4 DUP2 MSTORE PUSH1 0x1 PUSH1 0x20 MSTORE PUSH1 0x40 SWAP1 KECCAK256 DUP1 SLOAD PUSH1 0x1 PUSH1 0xA0 SHL SWAP1 DIV PUSH1 0x1 PUSH1 0x1 PUSH1 0x60 SHL SUB AND TIMESTAMP PUSH1 0x1 PUSH1 0x1 PUSH1 0x60 SHL SUB AND GT ISZERO PUSH2 0x783 JUMPI PUSH1 0x40 MLOAD PUSH3 0x461BCD PUSH1 0xE5 SHL DUP2 MSTORE PUSH1 0x20 PUSH1 0x4 DUP3 ADD MSTORE PUSH1 0x15 PUSH1 0x24 DUP3 ADD MSTORE PUSH21 0x4D6F64756C65583A4275726E7420746F6B656E7321 PUSH1 0x58 SHL PUSH1 0x44 DUP3 ADD MSTORE PUSH1 0x64 ADD PUSH2 0x470 JUMP JUMPDEST DUP1 PUSH1 0x1 ADD SLOAD DUP4 GT ISZERO PUSH2 0x7D7 JUMPI PUSH1 0x40 MLOAD PUSH3 0x461BCD PUSH1 0xE5 SHL DUP2 MSTORE PUSH1 0x20 PUSH1 0x4 DUP3 ADD MSTORE PUSH1 0x1D PUSH1 0x24 DUP3 ADD MSTORE PUSH32 0x4D6F64756C65583A496E73756666696369656E742062616C616E636521000000 PUSH1 0x44 DUP3 ADD MSTORE PUSH1 0x64 ADD PUSH2 0x470 JUMP JUMPDEST PUSH2 0x811 CALLER PUSH1 0x1 DUP4 ADD SLOAD PUSH1 0x1 PUSH1 0x1 PUSH1 0xA0 SHL SUB PUSH32 0x0 AND SWAP2 SWAP1 PUSH2 0x1320 JUMP JUMPDEST DUP3 DUP2 PUSH1 0x1 ADD PUSH0 DUP3 DUP3 SLOAD PUSH2 0x824 SWAP2 SWAP1 PUSH2 0x15E1 JUMP JUMPDEST SWAP1 SWAP2 SSTORE POP POP PUSH1 0x40 DUP1 MLOAD DUP6 DUP2 MSTORE PUSH1 0x20 DUP2 ADD DUP6 SWAP1 MSTORE PUSH32 0x3A00E6132085CBC9EA18899CD135EF9CAD5D305D58506E08E7B1A9B96199A9C SWAP2 ADD PUSH1 0x40 MLOAD DUP1 SWAP2 SUB SWAP1 LOG1 POP POP POP POP JUMP JUMPDEST PUSH0 PUSH1 0x1 PUSH1 0x2 SLOAD PUSH2 0x878 SWAP2 SWAP1 PUSH2 0x15E1 JUMP JUMPDEST SWAP1 POP SWAP1 JUMP JUMPDEST PUSH0 PUSH32 0x0 PUSH32 0x0 PUSH1 0x3 SLOAD PUSH2 0x8CD SWAP2 SWAP1 PUSH2 0x15FA JUMP JUMPDEST PUSH2 0x878 SWAP2 SWAP1 PUSH2 0x1619 JUMP JUMPDEST PUSH2 0x8DF PUSH2 0x12F4 JUMP JUMPDEST PUSH0 DUP1 JUMPDEST DUP3 DUP2 LT ISZERO PUSH2 0xA60 JUMPI PUSH1 0x2 SLOAD DUP5 DUP5 DUP4 DUP2 DUP2 LT PUSH2 0x8FF JUMPI PUSH2 0x8FF PUSH2 0x162C JUMP JUMPDEST SWAP1 POP PUSH1 0x20 MUL ADD CALLDATALOAD LT PUSH2 0x94F JUMPI PUSH1 0x40 MLOAD PUSH3 0x461BCD PUSH1 0xE5 SHL DUP2 MSTORE PUSH1 0x20 PUSH1 0x4 DUP3 ADD MSTORE PUSH1 0x19 PUSH1 0x24 DUP3 ADD MSTORE PUSH25 0x4D6F64756C65583A496E76616C6964205374616B6520494421 PUSH1 0x38 SHL PUSH1 0x44 DUP3 ADD MSTORE PUSH1 0x64 ADD PUSH2 0x470 JUMP JUMPDEST PUSH0 PUSH1 0x1 PUSH0 DUP7 DUP7 DUP6 DUP2 DUP2 LT PUSH2 0x965 JUMPI PUSH2 0x965 PUSH2 0x162C JUMP JUMPDEST PUSH1 0x20 SWAP1 DUP2 MUL SWAP3 SWAP1 SWAP3 ADD CALLDATALOAD DUP4 MSTORE POP DUP2 ADD SWAP2 SWAP1 SWAP2 MSTORE PUSH1 0x40 ADD PUSH0 KECCAK256 DUP1 SLOAD SWAP1 SWAP2 POP PUSH1 0x1 PUSH1 0xA0 SHL SWAP1 DIV PUSH1 0x1 PUSH1 0x1 PUSH1 0x60 SHL SUB AND TIMESTAMP PUSH1 0x1 PUSH1 0x1 PUSH1 0x60 SHL SUB AND GT ISZERO PUSH2 0x9E2 JUMPI PUSH1 0x40 MLOAD PUSH3 0x461BCD PUSH1 0xE5 SHL DUP2 MSTORE PUSH1 0x20 PUSH1 0x4 DUP3 ADD MSTORE PUSH1 0x15 PUSH1 0x24 DUP3 ADD MSTORE PUSH21 0x4D6F64756C65583A4275726E7420746F6B656E7321 PUSH1 0x58 SHL PUSH1 0x44 DUP3 ADD MSTORE PUSH1 0x64 ADD PUSH2 0x470 JUMP JUMPDEST PUSH1 0x1 DUP2 ADD SLOAD PUSH2 0x9F1 SWAP1 DUP5 PUSH2 0x1619 JUMP JUMPDEST PUSH0 PUSH1 0x1 DUP4 ADD SSTORE SWAP3 POP PUSH32 0x3A00E6132085CBC9EA18899CD135EF9CAD5D305D58506E08E7B1A9B96199A9C DUP6 DUP6 DUP5 DUP2 DUP2 LT PUSH2 0xA2C JUMPI PUSH2 0xA2C PUSH2 0x162C JUMP JUMPDEST SWAP1 POP PUSH1 0x20 MUL ADD CALLDATALOAD DUP3 PUSH1 0x1 ADD SLOAD PUSH1 0x40 MLOAD PUSH2 0xA4F SWAP3 SWAP2 SWAP1 SWAP2 DUP3 MSTORE PUSH1 0x20 DUP3 ADD MSTORE PUSH1 0x40 ADD SWAP1 JUMP JUMPDEST PUSH1 0x40 MLOAD DUP1 SWAP2 SUB SWAP1 LOG1 POP PUSH1 0x1 ADD PUSH2 0x8E2 JUMP JUMPDEST POP PUSH0 DUP2 GT PUSH2 0xAB0 JUMPI PUSH1 0x40 MLOAD PUSH3 0x461BCD PUSH1 0xE5 SHL DUP2 MSTORE PUSH1 0x20 PUSH1 0x4 DUP3 ADD MSTORE PUSH1 0x1A PUSH1 0x24 DUP3 ADD MSTORE PUSH32 0x4D6F64756C65583A546F74616C20616D6F756E74206973203021000000000000 PUSH1 0x44 DUP3 ADD MSTORE PUSH1 0x64 ADD PUSH2 0x470 JUMP JUMPDEST PUSH2 0xAE4 PUSH32 0x0 PUSH1 0x1 PUSH1 0x1 PUSH1 0xA0 SHL SUB AND CALLER DUP4 PUSH2 0x1320 JUMP JUMPDEST POP POP POP JUMP JUMPDEST PUSH0 DUP2 GT PUSH2 0xB4A JUMPI PUSH1 0x40 MLOAD PUSH3 0x461BCD PUSH1 0xE5 SHL DUP2 MSTORE PUSH1 0x20 PUSH1 0x4 DUP3 ADD MSTORE PUSH1 0x29 PUSH1 0x24 DUP3 ADD MSTORE PUSH32 0x4D6F64756C65583A616D6F756E74206D75737420626520677265617465722074 PUSH1 0x44 DUP3 ADD MSTORE PUSH9 0x68616E207A65726F21 PUSH1 0xB8 SHL PUSH1 0x64 DUP3 ADD MSTORE PUSH1 0x84 ADD PUSH2 0x470 JUMP JUMPDEST PUSH2 0xB7F PUSH32 0x0 PUSH1 0x1 PUSH1 0x1 PUSH1 0xA0 SHL SUB AND CALLER ADDRESS DUP5 PUSH2 0x13F0 JUMP JUMPDEST PUSH1 0x40 MLOAD DUP2 DUP2 MSTORE PUSH32 0xDE88A922E0D3B88B24E9623EFEB464919C6BF9F66857A65E2BFCF2CE87A9433D SWAP1 PUSH1 0x20 ADD PUSH1 0x40 MLOAD DUP1 SWAP2 SUB SWAP1 LOG1 POP JUMP JUMPDEST PUSH0 PUSH0 PUSH0 PUSH0 DUP5 PUSH0 DUP2 GT DUP1 ISZERO PUSH2 0xBCA JUMPI POP PUSH1 0x2 SLOAD DUP2 LT JUMPDEST PUSH2 0xC12 JUMPI PUSH1 0x40 MLOAD PUSH3 0x461BCD PUSH1 0xE5 SHL DUP2 MSTORE PUSH1 0x20 PUSH1 0x4 DUP3 ADD MSTORE PUSH1 0x19 PUSH1 0x24 DUP3 ADD MSTORE PUSH25 0x4D6F64756C65583A496E76616C6964205374616B6520494421 PUSH1 0x38 SHL PUSH1 0x44 DUP3 ADD MSTORE PUSH1 0x64 ADD PUSH2 0x470 JUMP JUMPDEST POP POP POP PUSH0 SWAP3 DUP4 MSTORE POP POP PUSH1 0x1 PUSH1 0x20 DUP2 SWAP1 MSTORE PUSH1 0x40 SWAP1 SWAP2 KECCAK256 DUP1 SLOAD SWAP2 DUP2 ADD SLOAD PUSH1 0x2 SWAP1 SWAP2 ADD SLOAD PUSH1 0x1 PUSH1 0x1 PUSH1 0xA0 SHL SUB DUP4 AND SWAP4 PUSH1 0x1 PUSH1 0xA0 SHL SWAP1 SWAP4 DIV PUSH1 0x1 PUSH1 0x1 PUSH1 0x60 SHL SUB AND SWAP3 JUMP JUMPDEST PUSH0 PUSH0 PUSH8 0xDE0B6B3A7640000 SWAP1 POP PUSH0 DUP4 PUSH1 0x3 SLOAD PUSH2 0xC6E SWAP2 SWAP1 PUSH2 0x1619 JUMP JUMPDEST SWAP1 POP PUSH0 PUSH32 0x0 PUSH1 0x3 SLOAD PUSH2 0xC9F SWAP2 SWAP1 PUSH2 0x15FA JUMP JUMPDEST SWAP1 POP PUSH0 PUSH2 0xCCC PUSH32 0x0 DUP5 PUSH2 0x15FA JUMP JUMPDEST SWAP1 POP DUP1 DUP3 SUB PUSH2 0xD13 JUMPI PUSH2 0xCFF PUSH32 0x0 DUP4 PUSH2 0x1619 JUMP JUMPDEST PUSH2 0xD09 SWAP1 DUP8 PUSH2 0x15FA JUMP JUMPDEST SWAP7 SWAP6 POP POP POP POP POP POP JUMP JUMPDEST PUSH0 PUSH2 0xD3E PUSH32 0x0 DUP5 PUSH2 0x1619 JUMP JUMPDEST PUSH1 0x3 SLOAD PUSH32 0x0 PUSH2 0xD6D DUP7 PUSH1 0x1 PUSH2 0x1619 JUMP JUMPDEST PUSH2 0xD77 SWAP2 SWAP1 PUSH2 0x1640 JUMP JUMPDEST PUSH2 0xD81 SWAP2 SWAP1 PUSH2 0x15E1 JUMP JUMPDEST PUSH2 0xD8B SWAP1 DUP8 PUSH2 0x1640 JUMP JUMPDEST PUSH2 0xD95 SWAP2 SWAP1 PUSH2 0x15FA JUMP JUMPDEST SWAP1 POP PUSH0 PUSH2 0xDC2 PUSH32 0x0 DUP5 PUSH2 0x1619 JUMP JUMPDEST PUSH2 0xDEC PUSH32 0x0 DUP6 PUSH2 0x1640 JUMP JUMPDEST PUSH2 0xDF6 SWAP1 DUP8 PUSH2 0x15E1 JUMP JUMPDEST PUSH2 0xE00 SWAP1 DUP9 PUSH2 0x1640 JUMP JUMPDEST PUSH2 0xE0A SWAP2 SWAP1 PUSH2 0x15FA JUMP JUMPDEST SWAP1 POP PUSH0 DUP1 PUSH2 0xE19 DUP7 PUSH1 0x1 PUSH2 0x1619 JUMP JUMPDEST SWAP1 POP JUMPDEST DUP5 DUP2 LT ISZERO PUSH2 0xE96 JUMPI PUSH2 0xE4E PUSH32 0x0 DUP3 PUSH2 0x1619 JUMP JUMPDEST PUSH2 0xE78 PUSH32 0x0 DUP11 PUSH2 0x1640 JUMP JUMPDEST PUSH2 0xE82 SWAP2 SWAP1 PUSH2 0x15FA JUMP JUMPDEST PUSH2 0xE8C SWAP1 DUP4 PUSH2 0x1619 JUMP JUMPDEST SWAP2 POP PUSH1 0x1 ADD PUSH2 0xE1C JUMP JUMPDEST POP DUP7 DUP3 PUSH2 0xEA3 DUP4 DUP7 PUSH2 0x1619 JUMP JUMPDEST PUSH2 0xEAD SWAP2 SWAP1 PUSH2 0x1619 JUMP JUMPDEST PUSH2 0xEB7 SWAP2 SWAP1 PUSH2 0x15FA JUMP JUMPDEST SWAP10 SWAP9 POP POP POP POP POP POP POP POP POP JUMP JUMPDEST PUSH2 0xECC PUSH2 0x12F4 JUMP JUMPDEST PUSH1 0x4 SLOAD PUSH2 0xED9 SWAP1 DUP3 PUSH2 0x1619 JUMP JUMPDEST PUSH1 0x40 MLOAD PUSH4 0x70A08231 PUSH1 0xE0 SHL DUP2 MSTORE ADDRESS PUSH1 0x4 DUP3 ADD MSTORE PUSH32 0x0 PUSH1 0x1 PUSH1 0x1 PUSH1 0xA0 SHL SUB AND SWAP1 PUSH4 0x70A08231 SWAP1 PUSH1 0x24 ADD PUSH1 0x20 PUSH1 0x40 MLOAD DUP1 DUP4 SUB DUP2 DUP7 GAS STATICCALL ISZERO DUP1 ISZERO PUSH2 0xF3B JUMPI RETURNDATASIZE PUSH0 PUSH0 RETURNDATACOPY RETURNDATASIZE PUSH0 REVERT JUMPDEST POP POP POP POP PUSH1 0x40 MLOAD RETURNDATASIZE PUSH1 0x1F NOT PUSH1 0x1F DUP3 ADD AND DUP3 ADD DUP1 PUSH1 0x40 MSTORE POP DUP2 ADD SWAP1 PUSH2 0xF5F SWAP2 SWAP1 PUSH2 0x1657 JUMP JUMPDEST LT ISZERO PUSH2 0xFAD JUMPI PUSH1 0x40 MLOAD PUSH3 0x461BCD PUSH1 0xE5 SHL DUP2 MSTORE PUSH1 0x20 PUSH1 0x4 DUP3 ADD MSTORE PUSH1 0x1D PUSH1 0x24 DUP3 ADD MSTORE PUSH32 0x4D6F64756C65583A496E73756666696369656E742062616C616E636521000000 PUSH1 0x44 DUP3 ADD MSTORE PUSH1 0x64 ADD PUSH2 0x470 JUMP JUMPDEST PUSH2 0xFE1 PUSH1 0x1 PUSH1 0x1 PUSH1 0xA0 SHL SUB PUSH32 0x0 AND DUP4 DUP4 PUSH2 0x1320 JUMP JUMPDEST DUP2 PUSH1 0x1 PUSH1 0x1 PUSH1 0xA0 SHL SUB AND PUSH32 0x1D3EEE4CA001CFF39EEC6EC7615AACF2F2BD61791273830728BA00CCBD6E1337 DUP3 PUSH1 0x40 MLOAD PUSH2 0x101C SWAP2 DUP2 MSTORE PUSH1 0x20 ADD SWAP1 JUMP JUMPDEST PUSH1 0x40 MLOAD DUP1 SWAP2 SUB SWAP1 LOG2 POP POP JUMP JUMPDEST PUSH0 DUP1 SLOAD DUP2 SWAP1 PUSH1 0x1 PUSH1 0xA0 SHL SWAP1 DIV PUSH1 0xFF AND ISZERO PUSH2 0x1084 JUMPI PUSH1 0x40 MLOAD PUSH3 0x461BCD PUSH1 0xE5 SHL DUP2 MSTORE PUSH1 0x20 PUSH1 0x4 DUP3 ADD MSTORE PUSH1 0x10 PUSH1 0x24 DUP3 ADD MSTORE PUSH32 0x4D6F64756C65583A53544F505045442100000000000000000000000000000000 PUSH1 0x44 DUP3 ADD MSTORE PUSH1 0x64 ADD PUSH2 0x470 JUMP JUMPDEST PUSH0 DUP4 GT PUSH2 0x10E8 JUMPI PUSH1 0x40 MLOAD PUSH3 0x461BCD PUSH1 0xE5 SHL DUP2 MSTORE PUSH1 0x20 PUSH1 0x4 DUP3 ADD MSTORE PUSH1 0x2C PUSH1 0x24 DUP3 ADD MSTORE PUSH32 0x4D6F64756C65583A5374616B6520616D6F756E74206D75737420626520677265 PUSH1 0x44 DUP3 ADD MSTORE PUSH12 0x61746572207468616E203021 PUSH1 0xA0 SHL PUSH1 0x64 DUP3 ADD MSTORE PUSH1 0x84 ADD PUSH2 0x470 JUMP JUMPDEST PUSH2 0x2A30 PUSH1 0x1 PUSH1 0x1 PUSH1 0x60 SHL SUB DUP6 AND LT ISZERO PUSH2 0x1143 JUMPI PUSH1 0x40 MLOAD PUSH3 0x461BCD PUSH1 0xE5 SHL DUP2 MSTORE PUSH1 0x20 PUSH1 0x4 DUP3 ADD MSTORE PUSH1 0x1F PUSH1 0x24 DUP3 ADD MSTORE PUSH32 0x4D6F64756C65583A557365206C6F6E676572206C6F636B5F706572696F642100 PUSH1 0x44 DUP3 ADD MSTORE PUSH1 0x64 ADD PUSH2 0x470 JUMP JUMPDEST PUSH2 0x1178 PUSH32 0x0 PUSH1 0x1 PUSH1 0x1 PUSH1 0xA0 SHL SUB AND CALLER ADDRESS DUP7 PUSH2 0x13F0 JUMP JUMPDEST PUSH0 PUSH2 0x1183 DUP6 TIMESTAMP PUSH2 0x166E JUMP JUMPDEST SWAP1 POP PUSH0 PUSH2 0x118F DUP6 PUSH2 0xC52 JUMP JUMPDEST SWAP1 POP PUSH0 PUSH1 0x2 SLOAD SWAP1 POP PUSH1 0x40 MLOAD DUP1 PUSH1 0x80 ADD PUSH1 0x40 MSTORE DUP1 PUSH2 0x11A9 CALLER SWAP1 JUMP JUMPDEST PUSH1 0x1 PUSH1 0x1 PUSH1 0xA0 SHL SUB SWAP1 DUP2 AND DUP3 MSTORE PUSH1 0x1 PUSH1 0x1 PUSH1 0x60 SHL SUB DUP7 DUP2 AND PUSH1 0x20 DUP1 DUP6 ADD SWAP2 SWAP1 SWAP2 MSTORE PUSH1 0x40 DUP1 DUP6 ADD DUP13 SWAP1 MSTORE PUSH1 0x60 SWAP5 DUP6 ADD DUP9 SWAP1 MSTORE PUSH0 DUP8 DUP2 MSTORE PUSH1 0x1 DUP1 DUP5 MSTORE DUP3 DUP3 KECCAK256 DUP9 MLOAD SWAP5 DUP10 ADD MLOAD SWAP5 SWAP1 SWAP7 AND PUSH1 0x1 PUSH1 0xA0 SHL SWAP5 SWAP1 SWAP6 AND SWAP4 SWAP1 SWAP4 MUL SWAP4 SWAP1 SWAP4 OR DUP5 SSTORE DUP6 ADD MLOAD SWAP1 DUP4 ADD SSTORE SWAP3 SWAP1 SWAP2 ADD MLOAD PUSH1 0x2 SWAP1 SWAP2 ADD SSTORE PUSH1 0x3 DUP1 SLOAD DUP9 SWAP3 SWAP1 PUSH2 0x1227 SWAP1 DUP5 SWAP1 PUSH2 0x1619 JUMP JUMPDEST SWAP3 POP POP DUP2 SWAP1 SSTORE POP DUP2 PUSH1 0x4 PUSH0 DUP3 DUP3 SLOAD PUSH2 0x123F SWAP2 SWAP1 PUSH2 0x1619 JUMP JUMPDEST SWAP1 SWAP2 SSTORE POP POP PUSH1 0x40 DUP1 MLOAD DUP3 DUP2 MSTORE PUSH1 0x1 PUSH1 0x1 PUSH1 0x60 SHL SUB DUP6 AND PUSH1 0x20 DUP3 ADD MSTORE DUP1 DUP3 ADD DUP9 SWAP1 MSTORE PUSH1 0x60 DUP2 ADD DUP5 SWAP1 MSTORE SWAP1 MLOAD CALLER SWAP2 PUSH32 0x24FE2D25C10EB2C67B5AC1E3EDBCADC94191E154ED388AD667A9480C44F47146 SWAP2 SWAP1 DUP2 SWAP1 SUB PUSH1 0x80 ADD SWAP1 LOG2 PUSH1 0x2 DUP1 SLOAD SWAP1 PUSH0 PUSH2 0x12A5 DUP4 PUSH2 0x168D JUMP JUMPDEST SWAP1 SWAP2 SSTORE POP SWAP1 SWAP8 SWAP2 SWAP7 POP SWAP1 SWAP5 POP POP POP POP POP JUMP JUMPDEST PUSH2 0x12BF PUSH2 0x12F4 JUMP JUMPDEST PUSH1 0x1 PUSH1 0x1 PUSH1 0xA0 SHL SUB DUP2 AND PUSH2 0x12E8 JUMPI PUSH1 0x40 MLOAD PUSH4 0x1E4FBDF7 PUSH1 0xE0 SHL DUP2 MSTORE PUSH0 PUSH1 0x4 DUP3 ADD MSTORE PUSH1 0x24 ADD PUSH2 0x470 JUMP JUMPDEST PUSH2 0x12F1 DUP2 PUSH2 0x1394 JUMP JUMPDEST POP JUMP JUMPDEST PUSH0 SLOAD PUSH1 0x1 PUSH1 0x1 PUSH1 0xA0 SHL SUB AND CALLER EQ PUSH2 0x650 JUMPI PUSH1 0x40 MLOAD PUSH4 0x118CDAA7 PUSH1 0xE0 SHL DUP2 MSTORE CALLER PUSH1 0x4 DUP3 ADD MSTORE PUSH1 0x24 ADD PUSH2 0x470 JUMP JUMPDEST PUSH1 0x40 MLOAD PUSH1 0x1 PUSH1 0x1 PUSH1 0xA0 SHL SUB DUP4 DUP2 AND PUSH1 0x24 DUP4 ADD MSTORE PUSH1 0x44 DUP3 ADD DUP4 SWAP1 MSTORE PUSH2 0xAE4 SWAP2 DUP6 SWAP2 DUP3 AND SWAP1 PUSH4 0xA9059CBB SWAP1 PUSH1 0x64 ADD JUMPDEST PUSH1 0x40 MLOAD PUSH1 0x20 DUP2 DUP4 SUB SUB DUP2 MSTORE SWAP1 PUSH1 0x40 MSTORE SWAP2 POP PUSH1 0xE0 SHL PUSH1 0x20 DUP3 ADD DUP1 MLOAD PUSH28 0xFFFFFFFFFFFFFFFFFFFFFFFFFFFFFFFFFFFFFFFFFFFFFFFFFFFFFFFF DUP4 DUP2 DUP4 AND OR DUP4 MSTORE POP POP POP POP PUSH2 0x142F JUMP JUMPDEST PUSH0 DUP1 SLOAD PUSH1 0x1 PUSH1 0x1 PUSH1 0xA0 SHL SUB DUP4 DUP2 AND PUSH20 0xFFFFFFFFFFFFFFFFFFFFFFFFFFFFFFFFFFFFFFFF NOT DUP4 AND DUP2 OR DUP5 SSTORE PUSH1 0x40 MLOAD SWAP2 SWAP1 SWAP3 AND SWAP3 DUP4 SWAP2 PUSH32 0x8BE0079C531659141344CD1FD0A4F28419497F9722A3DAAFE3B4186F6B6457E0 SWAP2 SWAP1 LOG3 POP POP JUMP JUMPDEST PUSH1 0x40 MLOAD PUSH1 0x1 PUSH1 0x1 PUSH1 0xA0 SHL SUB DUP5 DUP2 AND PUSH1 0x24 DUP4 ADD MSTORE DUP4 DUP2 AND PUSH1 0x44 DUP4 ADD MSTORE PUSH1 0x64 DUP3 ADD DUP4 SWAP1 MSTORE PUSH2 0x1429 SWAP2 DUP7 SWAP2 DUP3 AND SWAP1 PUSH4 0x23B872DD SWAP1 PUSH1 0x84 ADD PUSH2 0x134D JUMP JUMPDEST POP POP POP POP JUMP JUMPDEST PUSH0 PUSH0 PUSH1 0x20 PUSH0 DUP5 MLOAD PUSH1 0x20 DUP7 ADD PUSH0 DUP9 GAS CALL DUP1 PUSH2 0x144E JUMPI PUSH1 0x40 MLOAD RETURNDATASIZE PUSH0 DUP3 RETURNDATACOPY RETURNDATASIZE DUP2 REVERT JUMPDEST POP POP PUSH0 MLOAD RETURNDATASIZE SWAP2 POP DUP2 ISZERO PUSH2 0x1465 JUMPI DUP1 PUSH1 0x1 EQ ISZERO PUSH2 0x1472 JUMP JUMPDEST PUSH1 0x1 PUSH1 0x1 PUSH1 0xA0 SHL SUB DUP5 AND EXTCODESIZE ISZERO JUMPDEST ISZERO PUSH2 0x1429 JUMPI PUSH1 0x40 MLOAD PUSH4 0x5274AFE7 PUSH1 0xE0 SHL DUP2 MSTORE PUSH1 0x1 PUSH1 0x1 PUSH1 0xA0 SHL SUB DUP6 AND PUSH1 0x4 DUP3 ADD MSTORE PUSH1 0x24 ADD PUSH2 0x470 JUMP JUMPDEST PUSH0 PUSH1 0x20 DUP3 DUP5 SUB SLT ISZERO PUSH2 0x14AB JUMPI PUSH0 PUSH0 REVERT JUMPDEST POP CALLDATALOAD SWAP2 SWAP1 POP JUMP JUMPDEST PUSH0 PUSH0 PUSH1 0x40 DUP4 DUP6 SUB SLT ISZERO PUSH2 0x14C3 JUMPI PUSH0 PUSH0 REVERT JUMPDEST POP POP DUP1 CALLDATALOAD SWAP3 PUSH1 0x20 SWAP1 SWAP2 ADD CALLDATALOAD SWAP2 POP JUMP JUMPDEST PUSH0 PUSH0 PUSH1 0x20 DUP4 DUP6 SUB SLT ISZERO PUSH2 0x14E3 JUMPI PUSH0 PUSH0 REVERT JUMPDEST DUP3 CALLDATALOAD PUSH8 0xFFFFFFFFFFFFFFFF DUP2 GT ISZERO PUSH2 0x14F9 JUMPI PUSH0 PUSH0 REVERT JUMPDEST DUP4 ADD PUSH1 0x1F DUP2 ADD DUP6 SGT PUSH2 0x1509 JUMPI PUSH0 PUSH0 REVERT JUMPDEST DUP1 CALLDATALOAD PUSH8 0xFFFFFFFFFFFFFFFF DUP2 GT ISZERO PUSH2 0x151F JUMPI PUSH0 PUSH0 REVERT JUMPDEST DUP6 PUSH1 0x20 DUP3 PUSH1 0x5 SHL DUP5 ADD ADD GT ISZERO PUSH2 0x1533 JUMPI PUSH0 PUSH0 REVERT JUMPDEST PUSH1 0x20 SWAP2 SWAP1 SWAP2 ADD SWAP6 SWAP1 SWAP5 POP SWAP3 POP POP POP JUMP JUMPDEST DUP1 CALLDATALOAD PUSH1 0x1 PUSH1 0x1 PUSH1 0xA0 SHL SUB DUP2 AND DUP2 EQ PUSH2 0x1559 JUMPI PUSH0 PUSH0 REVERT JUMPDEST SWAP2 SWAP1 POP JUMP JUMPDEST PUSH0 PUSH0 PUSH1 0x40 DUP4 DUP6 SUB SLT ISZERO PUSH2 0x156F JUMPI PUSH0 PUSH0 REVERT JUMPDEST PUSH2 0x1578 DUP4 PUSH2 0x1543 JUMP JUMPDEST SWAP5 PUSH1 0x20 SWAP4 SWAP1 SWAP4 ADD CALLDATALOAD SWAP4 POP POP POP JUMP JUMPDEST PUSH0 PUSH0 PUSH1 0x40 DUP4 DUP6 SUB SLT ISZERO PUSH2 0x1597 JUMPI PUSH0 PUSH0 REVERT JUMPDEST DUP3 CALLDATALOAD PUSH1 0x1 PUSH1 0x1 PUSH1 0x60 SHL SUB DUP2 AND DUP2 EQ PUSH2 0x1578 JUMPI PUSH0 PUSH0 REVERT JUMPDEST PUSH0 PUSH1 0x20 DUP3 DUP5 SUB SLT ISZERO PUSH2 0x15BD JUMPI PUSH0 PUSH0 REVERT JUMPDEST PUSH2 0x15C6 DUP3 PUSH2 0x1543 JUMP JUMPDEST SWAP4 SWAP3 POP POP POP JUMP JUMPDEST PUSH4 0x4E487B71 PUSH1 0xE0 SHL PUSH0 MSTORE PUSH1 0x11 PUSH1 0x4 MSTORE PUSH1 0x24 PUSH0 REVERT JUMPDEST DUP2 DUP2 SUB DUP2 DUP2 GT ISZERO PUSH2 0x15F4 JUMPI PUSH2 0x15F4 PUSH2 0x15CD JUMP JUMPDEST SWAP3 SWAP2 POP POP JUMP JUMPDEST PUSH0 DUP3 PUSH2 0x1614 JUMPI PUSH4 0x4E487B71 PUSH1 0xE0 SHL PUSH0 MSTORE PUSH1 0x12 PUSH1 0x4 MSTORE PUSH1 0x24 PUSH0 REVERT JUMPDEST POP DIV SWAP1 JUMP JUMPDEST DUP1 DUP3 ADD DUP1 DUP3 GT ISZERO PUSH2 0x15F4 JUMPI PUSH2 0x15F4 PUSH2 0x15CD JUMP JUMPDEST PUSH4 0x4E487B71 PUSH1 0xE0 SHL PUSH0 MSTORE PUSH1 0x32 PUSH1 0x4 MSTORE PUSH1 0x24 PUSH0 REVERT JUMPDEST DUP1 DUP3 MUL DUP2 ISZERO DUP3 DUP3 DIV DUP5 EQ OR PUSH2 0x15F4 JUMPI PUSH2 0x15F4 PUSH2 0x15CD JUMP JUMPDEST PUSH0 PUSH1 0x20 DUP3 DUP5 SUB SLT ISZERO PUSH2 0x1667 JUMPI PUSH0 PUSH0 REVERT JUMPDEST POP MLOAD SWAP2 SWAP1 POP JUMP JUMPDEST PUSH1 0x1 PUSH1 0x1 PUSH1 0x60 SHL SUB DUP2 DUP2 AND DUP4 DUP3 AND ADD SWAP1 DUP2 GT ISZERO PUSH2 0x15F4 JUMPI PUSH2 0x15F4 PUSH2 0x15CD JUMP JUMPDEST PUSH0 PUSH1 0x1 DUP3 ADD PUSH2 0x169E JUMPI PUSH2 0x169E PUSH2 0x15CD JUMP JUMPDEST POP PUSH1 0x1 ADD SWAP1 JUMP INVALID LOG2 PUSH5 0x6970667358 0x22 SLT KECCAK256 0xB6 0xB1 0xCE ADDRESS 0xA7 0xDE 0xDC 0x2F DUP14 0x4F 0xDF DUP7 0x1F 0xA8 EOFCREATE 0xB5 TLOAD XOR 0xD3 BYTE 0x25 TSTORE RETURNDATASIZE PUSH26 0xEA2B3C59B26580D464736F6C634300081E003300000000000000 "
				},
				"gasEstimates": {
					"creation": {
						"codeDepositCost": "1170200",
						"executionCost": "infinite",
						"totalCost": "infinite"
					},
					"external": {
						"CREDI()": "infinite",
						"DIFFICULTY_INTERVAL()": "infinite",
						"MATURITY()": "260",
						"addRewards(uint256)": "infinite",
						"batchWithdrawCREDI(uint256[])": "infinite",
						"calculateReward(uint256)": "infinite",
						"claim(uint256)": "infinite",
						"getCREDIAddress()": "infinite",
						"getDifficulty()": "infinite",
						"getStake(uint256)": "9039",
						"getStakesCount()": "2470",
						"getxCREDIAddress()": "infinite",
						"owner()": "2419",
						"pending_payments()": "2350",
						"renounceOwnership()": "infinite",
						"stake(uint96,uint256)": "infinite",
						"stop()": "27330",
						"stopped()": "2371",
						"total_staked()": "2329",
						"transferOwnership(address)": "28405",
						"withdrawCREDI(uint256,uint256)": "infinite",
						"withdrawRewards(address,uint256)": "infinite",
						"xCREDI()": "infinite"
					},
					"internal": {
						"time_now()": "infinite"
					}
				},
				"methodIdentifiers": {
					"CREDI()": "6db08f25",
					"DIFFICULTY_INTERVAL()": "109cf399",
					"MATURITY()": "8e12c0cd",
					"addRewards(uint256)": "beceed39",
					"batchWithdrawCREDI(uint256[])": "bc854352",
					"calculateReward(uint256)": "d2d7231f",
					"claim(uint256)": "379607f5",
					"getCREDIAddress()": "d46149a2",
					"getDifficulty()": "b6baffe3",
					"getStake(uint256)": "ce325bf8",
					"getStakesCount()": "b5fa91fe",
					"getxCREDIAddress()": "7c2fdeb5",
					"owner()": "8da5cb5b",
					"pending_payments()": "8f4729b7",
					"renounceOwnership()": "715018a6",
					"stake(uint96,uint256)": "d93c04a0",
					"stop()": "07da68f5",
					"stopped()": "75f12b21",
					"total_staked()": "af7568dd",
					"transferOwnership(address)": "f2fde38b",
					"withdrawCREDI(uint256,uint256)": "ac00500f",
					"withdrawRewards(address,uint256)": "d6ef7af0",
					"xCREDI()": "b109beec"
				}
			},
			"storageLayout": {
				"storage": [
					{
						"astId": 8,
						"contract": "contracts/ModuleX.sol:ModuleX",
						"label": "_owner",
						"offset": 0,
						"slot": "0",
						"type": "t_address"
					},
					{
						"astId": 847,
						"contract": "contracts/ModuleX.sol:ModuleX",
						"label": "stopped",
						"offset": 20,
						"slot": "0",
						"type": "t_bool"
					},
					{
						"astId": 865,
						"contract": "contracts/ModuleX.sol:ModuleX",
						"label": "stakes",
						"offset": 0,
						"slot": "1",
						"type": "t_mapping(t_uint256,t_struct(StakeDetails)844_storage)"
					},
					{
						"astId": 868,
						"contract": "contracts/ModuleX.sol:ModuleX",
						"label": "stakes_count",
						"offset": 0,
						"slot": "2",
						"type": "t_uint256"
					},
					{
						"astId": 871,
						"contract": "contracts/ModuleX.sol:ModuleX",
						"label": "total_staked",
						"offset": 0,
						"slot": "3",
						"type": "t_uint256"
					},
					{
						"astId": 874,
						"contract": "contracts/ModuleX.sol:ModuleX",
						"label": "pending_payments",
						"offset": 0,
						"slot": "4",
						"type": "t_uint256"
					}
				],
				"types": {
					"t_address": {
						"encoding": "inplace",
						"label": "address",
						"numberOfBytes": "20"
					},
					"t_bool": {
						"encoding": "inplace",
						"label": "bool",
						"numberOfBytes": "1"
					},
					"t_mapping(t_uint256,t_struct(StakeDetails)844_storage)": {
						"encoding": "mapping",
						"key": "t_uint256",
						"label": "mapping(uint256 => struct ModuleX.StakeDetails)",
						"numberOfBytes": "32",
						"value": "t_struct(StakeDetails)844_storage"
					},
					"t_struct(StakeDetails)844_storage": {
						"encoding": "inplace",
						"label": "struct ModuleX.StakeDetails",
						"members": [
							{
								"astId": 837,
								"contract": "contracts/ModuleX.sol:ModuleX",
								"label": "owner",
								"offset": 0,
								"slot": "0",
								"type": "t_address"
							},
							{
								"astId": 839,
								"contract": "contracts/ModuleX.sol:ModuleX",
								"label": "maturity",
								"offset": 20,
								"slot": "0",
								"type": "t_uint96"
							},
							{
								"astId": 841,
								"contract": "contracts/ModuleX.sol:ModuleX",
								"label": "stake_amount",
								"offset": 0,
								"slot": "1",
								"type": "t_uint256"
							},
							{
								"astId": 843,
								"contract": "contracts/ModuleX.sol:ModuleX",
								"label": "reward_amount",
								"offset": 0,
								"slot": "2",
								"type": "t_uint256"
							}
						],
						"numberOfBytes": "96"
					},
					"t_uint256": {
						"encoding": "inplace",
						"label": "uint256",
						"numberOfBytes": "32"
					},
					"t_uint96": {
						"encoding": "inplace",
						"label": "uint96",
						"numberOfBytes": "12"
					}
				}
			},
			"userdoc": {
				"kind": "user",
				"methods": {},
				"version": 1
			}
		}
	}
}