{
	"contracts/ModuleX.sol": {
		"ModuleX": {
			"abi": [
				{
					"inputs": [
						{
							"internalType": "address",
							"name": "_credi_addr",
							"type": "address"
						},
						{
							"internalType": "address",
							"name": "_xcredi_addr",
							"type": "address"
						},
						{
							"internalType": "uint256",
							"name": "_DIFFICULTY",
							"type": "uint256"
						},
						{
							"internalType": "uint256",
							"name": "_DIFFICULTY_INTERVAL",
							"type": "uint256"
						}
					],
					"stateMutability": "nonpayable",
					"type": "constructor"
				},
				{
					"inputs": [
						{
							"internalType": "address",
							"name": "owner",
							"type": "address"
						}
					],
					"name": "OwnableInvalidOwner",
					"type": "error"
				},
				{
					"inputs": [
						{
							"internalType": "address",
							"name": "account",
							"type": "address"
						}
					],
					"name": "OwnableUnauthorizedAccount",
					"type": "error"
				},
				{
					"inputs": [
						{
							"internalType": "address",
							"name": "token",
							"type": "address"
						}
					],
					"name": "SafeERC20FailedOperation",
					"type": "error"
				},
				{
					"anonymous": false,
					"inputs": [
						{
							"indexed": false,
							"internalType": "uint256",
							"name": "stake_id",
							"type": "uint256"
						},
						{
							"indexed": false,
							"internalType": "uint256",
							"name": "amount",
							"type": "uint256"
						}
					],
					"name": "CREDIWithdrawn",
					"type": "event"
				},
				{
					"anonymous": false,
					"inputs": [
						{
							"indexed": true,
							"internalType": "address",
							"name": "previousOwner",
							"type": "address"
						},
						{
							"indexed": true,
							"internalType": "address",
							"name": "newOwner",
							"type": "address"
						}
					],
					"name": "OwnershipTransferred",
					"type": "event"
				},
				{
					"anonymous": false,
					"inputs": [
						{
							"indexed": false,
							"internalType": "uint256",
							"name": "amount",
							"type": "uint256"
						}
					],
					"name": "RewardAdded",
					"type": "event"
				},
				{
					"anonymous": false,
					"inputs": [
						{
							"indexed": false,
							"internalType": "uint256",
							"name": "stake_id",
							"type": "uint256"
						}
					],
					"name": "RewardPaid",
					"type": "event"
				},
				{
					"anonymous": false,
					"inputs": [
						{
							"indexed": true,
							"internalType": "address",
							"name": "to",
							"type": "address"
						},
						{
							"indexed": false,
							"internalType": "uint256",
							"name": "amount",
							"type": "uint256"
						}
					],
					"name": "RewardWithdrawn",
					"type": "event"
				},
				{
					"anonymous": false,
					"inputs": [
						{
							"indexed": true,
							"internalType": "address",
							"name": "user",
							"type": "address"
						},
						{
							"indexed": false,
							"internalType": "uint256",
							"name": "stake_id",
							"type": "uint256"
						},
						{
							"indexed": false,
							"internalType": "uint96",
							"name": "maturity",
							"type": "uint96"
						},
						{
							"indexed": false,
							"internalType": "uint256",
							"name": "stake_amount",
							"type": "uint256"
						},
						{
							"indexed": false,
							"internalType": "uint256",
							"name": "rewards_amount",
							"type": "uint256"
						}
					],
					"name": "Staked",
					"type": "event"
				},
				{
					"anonymous": false,
					"inputs": [],
					"name": "Stopped",
					"type": "event"
				},
				{
					"inputs": [],
					"name": "CREDI",
					"outputs": [
						{
							"internalType": "contract IERC20",
							"name": "",
							"type": "address"
						}
					],
					"stateMutability": "view",
					"type": "function"
				},
				{
					"inputs": [],
					"name": "DIFFICULTY_INTERVAL",
					"outputs": [
						{
							"internalType": "uint256",
							"name": "",
							"type": "uint256"
						}
					],
					"stateMutability": "view",
					"type": "function"
				},
				{
					"inputs": [],
					"name": "MATURITY",
					"outputs": [
						{
							"internalType": "uint96",
							"name": "",
							"type": "uint96"
						}
					],
					"stateMutability": "view",
					"type": "function"
				},
				{
					"inputs": [
						{
							"internalType": "uint256",
							"name": "amount",
							"type": "uint256"
						}
					],
					"name": "addRewards",
					"outputs": [],
					"stateMutability": "nonpayable",
					"type": "function"
				},
				{
					"inputs": [
						{
							"internalType": "uint256[]",
							"name": "stake_ids",
							"type": "uint256[]"
						}
					],
					"name": "batchWithdrawCREDI",
					"outputs": [],
					"stateMutability": "nonpayable",
					"type": "function"
				},
				{
					"inputs": [
						{
							"internalType": "uint256",
							"name": "stake_amount",
							"type": "uint256"
						}
					],
					"name": "calculateReward",
					"outputs": [
						{
							"internalType": "uint256",
							"name": "",
							"type": "uint256"
						}
					],
					"stateMutability": "view",
					"type": "function"
				},
				{
					"inputs": [
						{
							"internalType": "uint256",
							"name": "stake_id",
							"type": "uint256"
						}
					],
					"name": "claim",
					"outputs": [
						{
							"internalType": "uint256",
							"name": "",
							"type": "uint256"
						}
					],
					"stateMutability": "nonpayable",
					"type": "function"
				},
				{
					"inputs": [],
					"name": "getCREDIAddress",
					"outputs": [
						{
							"internalType": "address",
							"name": "",
							"type": "address"
						}
					],
					"stateMutability": "view",
					"type": "function"
				},
				{
					"inputs": [],
					"name": "getDifficulty",
					"outputs": [
						{
							"internalType": "uint256",
							"name": "",
							"type": "uint256"
						}
					],
					"stateMutability": "view",
					"type": "function"
				},
				{
					"inputs": [
						{
							"internalType": "uint256",
							"name": "stake_id",
							"type": "uint256"
						}
					],
					"name": "getStake",
					"outputs": [
						{
							"internalType": "address",
							"name": "owner",
							"type": "address"
						},
						{
							"internalType": "uint256",
							"name": "maturity",
							"type": "uint256"
						},
						{
							"internalType": "uint256",
							"name": "stake_amount",
							"type": "uint256"
						},
						{
							"internalType": "uint256",
							"name": "reward_amount",
							"type": "uint256"
						}
					],
					"stateMutability": "view",
					"type": "function"
				},
				{
					"inputs": [],
					"name": "getStakesCount",
					"outputs": [
						{
							"internalType": "uint256",
							"name": "",
							"type": "uint256"
						}
					],
					"stateMutability": "view",
					"type": "function"
				},
				{
					"inputs": [],
					"name": "getxCREDIAddress",
					"outputs": [
						{
							"internalType": "address",
							"name": "",
							"type": "address"
						}
					],
					"stateMutability": "view",
					"type": "function"
				},
				{
					"inputs": [],
					"name": "owner",
					"outputs": [
						{
							"internalType": "address",
							"name": "",
							"type": "address"
						}
					],
					"stateMutability": "view",
					"type": "function"
				},
				{
					"inputs": [],
					"name": "pending_payments",
					"outputs": [
						{
							"internalType": "uint256",
							"name": "",
							"type": "uint256"
						}
					],
					"stateMutability": "view",
					"type": "function"
				},
				{
					"inputs": [],
					"name": "renounceOwnership",
					"outputs": [],
					"stateMutability": "nonpayable",
					"type": "function"
				},
				{
					"inputs": [
						{
							"internalType": "uint256",
							"name": "_DIFFICULTY",
							"type": "uint256"
						},
						{
							"internalType": "uint256",
							"name": "_DIFFICULTY_INTERVAL",
							"type": "uint256"
						},
						{
							"internalType": "uint256",
							"name": "_total_staked",
							"type": "uint256"
						}
					],
					"name": "setDifficulty",
					"outputs": [],
					"stateMutability": "nonpayable",
					"type": "function"
				},
				{
					"inputs": [
						{
							"internalType": "uint96",
							"name": "lock_period",
							"type": "uint96"
						},
						{
							"internalType": "uint256",
							"name": "stake_amount",
							"type": "uint256"
						}
					],
					"name": "stake",
					"outputs": [
						{
							"internalType": "uint256",
							"name": "",
							"type": "uint256"
						},
						{
							"internalType": "uint256",
							"name": "",
							"type": "uint256"
						}
					],
					"stateMutability": "nonpayable",
					"type": "function"
				},
				{
					"inputs": [],
					"name": "stop",
					"outputs": [],
					"stateMutability": "nonpayable",
					"type": "function"
				},
				{
					"inputs": [],
					"name": "stopped",
					"outputs": [
						{
							"internalType": "bool",
							"name": "",
							"type": "bool"
						}
					],
					"stateMutability": "view",
					"type": "function"
				},
				{
					"inputs": [],
					"name": "total_staked",
					"outputs": [
						{
							"internalType": "uint256",
							"name": "",
							"type": "uint256"
						}
					],
					"stateMutability": "view",
					"type": "function"
				},
				{
					"inputs": [
						{
							"internalType": "address",
							"name": "newOwner",
							"type": "address"
						}
					],
					"name": "transferOwnership",
					"outputs": [],
					"stateMutability": "nonpayable",
					"type": "function"
				},
				{
					"inputs": [
						{
							"internalType": "uint256",
							"name": "stake_id",
							"type": "uint256"
						},
						{
							"internalType": "uint256",
							"name": "amount",
							"type": "uint256"
						}
					],
					"name": "withdrawCREDI",
					"outputs": [],
					"stateMutability": "nonpayable",
					"type": "function"
				},
				{
					"inputs": [
						{
							"internalType": "address",
							"name": "to",
							"type": "address"
						},
						{
							"internalType": "uint256",
							"name": "amount",
							"type": "uint256"
						}
					],
					"name": "withdrawRewards",
					"outputs": [],
					"stateMutability": "nonpayable",
					"type": "function"
				},
				{
					"inputs": [],
					"name": "xCREDI",
					"outputs": [
						{
							"internalType": "contract IERC20",
							"name": "",
							"type": "address"
						}
					],
					"stateMutability": "view",
					"type": "function"
				}
			],
			"devdoc": {
				"errors": {
					"OwnableInvalidOwner(address)": [
						{
							"details": "The owner is not a valid owner account. (eg. `address(0)`)"
						}
					],
					"OwnableUnauthorizedAccount(address)": [
						{
							"details": "The caller account is not authorized to perform an operation."
						}
					],
					"SafeERC20FailedOperation(address)": [
						{
							"details": "An operation with an ERC-20 token failed."
						}
					]
				},
				"kind": "dev",
				"methods": {
					"owner()": {
						"details": "Returns the address of the current owner."
					},
					"renounceOwnership()": {
						"details": "Leaves the contract without owner. It will not be possible to call `onlyOwner` functions. Can only be called by the current owner. NOTE: Renouncing ownership will leave the contract without an owner, thereby disabling any functionality that is only available to the owner."
					},
					"transferOwnership(address)": {
						"details": "Transfers ownership of the contract to a new account (`newOwner`). Can only be called by the current owner."
					}
				},
				"version": 1
			},
			"evm": {
				"assembly": "    /* \"contracts/ModuleX.sol\":278:7469  contract ModuleX is IModuleX, Ownable ... */\n  mstore(0x40, 0xc0)\n    /* \"contracts/ModuleX.sol\":530:535  false */\n  0x00\n    /* \"contracts/ModuleX.sol\":508:535  bool public stopped = false */\n  dup1\n  sload\n  not(shl(0xa0, 0xff))\n  and\n  dup2\n  sstore\n  0x01\n    /* \"contracts/ModuleX.sol\":592:620  uint public total_staked = 0 */\n  dup2\n  dup2\n  sstore\n    /* \"contracts/ModuleX.sol\":848:877  uint private stakes_count = 1 */\n  0x05\n  sstore\n    /* \"contracts/ModuleX.sol\":884:916  uint public pending_payments = 0 */\n  0x06\n  sstore\n    /* \"contracts/ModuleX.sol\":1414:1716  constructor(address _credi_addr, address _xcredi_addr, uint _DIFFICULTY, uint _DIFFICULTY_INTERVAL) Ownable(_msgSender())... */\n  callvalue\n  dup1\n  iszero\n  tag_1\n  jumpi\n  revert(0x00, 0x00)\ntag_1:\n  pop\n  mload(0x40)\n  sub(codesize, bytecodeSize)\n  dup1\n  bytecodeSize\n  dup4\n  codecopy\n  dup2\n  add\n  0x40\n  dup2\n  swap1\n  mstore\n  tag_2\n  swap2\n  tag_3\n  jump\t// in\ntag_2:\n    /* \"@openzeppelin/contracts/utils/Context.sol\":735:745  msg.sender */\n  caller\n  dup1\n    /* \"@openzeppelin/contracts/access/Ownable.sol\":1269:1364  if (initialOwner == address(0)) {... */\n  tag_9\n  jumpi\n    /* \"@openzeppelin/contracts/access/Ownable.sol\":1322:1353  OwnableInvalidOwner(address(0)) */\n  mload(0x40)\n  shl(0xe0, 0x1e4fbdf7)\n  dup2\n  mstore\n    /* \"@openzeppelin/contracts/access/Ownable.sol\":1350:1351  0 */\n  0x00\n    /* \"@openzeppelin/contracts/access/Ownable.sol\":1322:1353  OwnableInvalidOwner(address(0)) */\n  0x04\n  dup3\n  add\n    /* \"#utility.yul\":861:912   */\n  mstore\n    /* \"#utility.yul\":834:852   */\n  0x24\n  add\n    /* \"@openzeppelin/contracts/access/Ownable.sol\":1322:1353  OwnableInvalidOwner(address(0)) */\n  mload(0x40)\n  dup1\n  swap2\n  sub\n  swap1\n  revert\n    /* \"@openzeppelin/contracts/access/Ownable.sol\":1269:1364  if (initialOwner == address(0)) {... */\ntag_9:\n    /* \"@openzeppelin/contracts/access/Ownable.sol\":1373:1405  _transferOwnership(initialOwner) */\n  tag_12\n    /* \"@openzeppelin/contracts/access/Ownable.sol\":1392:1404  initialOwner */\n  dup2\n    /* \"@openzeppelin/contracts/access/Ownable.sol\":1373:1391  _transferOwnership */\n  tag_13\n    /* \"@openzeppelin/contracts/access/Ownable.sol\":1373:1405  _transferOwnership(initialOwner) */\n  jump\t// in\ntag_12:\n  pop\n  sub(shl(0xa0, 0x01), 0x01)\n    /* \"contracts/ModuleX.sol\":1553:1580  CREDI = IERC20(_credi_addr) */\n  swap4\n  dup5\n  and\n  0x80\n  mstore\n    /* \"contracts/ModuleX.sol\":1591:1620  xCREDI = IERC20(_xcredi_addr) */\n  swap2\n  swap1\n  swap3\n  and\n  0xa0\n  mstore\n    /* \"contracts/ModuleX.sol\":1631:1650  DIFFICULTY_INTERVAL */\n  0x03\n    /* \"contracts/ModuleX.sol\":1631:1673  DIFFICULTY_INTERVAL = _DIFFICULTY_INTERVAL */\n  sstore\n    /* \"contracts/ModuleX.sol\":1684:1694  DIFFICULTY */\n  0x02\n    /* \"contracts/ModuleX.sol\":1684:1708  DIFFICULTY = _DIFFICULTY */\n  sstore\n    /* \"contracts/ModuleX.sol\":278:7469  contract ModuleX is IModuleX, Ownable ... */\n  jump(tag_19)\n    /* \"@openzeppelin/contracts/access/Ownable.sol\":2912:3099  function _transferOwnership(address newOwner) internal virtual {... */\ntag_13:\n    /* \"@openzeppelin/contracts/access/Ownable.sol\":2985:3001  address oldOwner */\n  0x00\n    /* \"@openzeppelin/contracts/access/Ownable.sol\":3004:3010  _owner */\n  dup1\n  sload\n  sub(shl(0xa0, 0x01), 0x01)\n    /* \"@openzeppelin/contracts/access/Ownable.sol\":3020:3037  _owner = newOwner */\n  dup4\n  dup2\n  and\n  not(sub(shl(0xa0, 0x01), 0x01))\n  dup4\n  and\n  dup2\n  or\n  dup5\n  sstore\n    /* \"@openzeppelin/contracts/access/Ownable.sol\":3052:3092  OwnershipTransferred(oldOwner, newOwner) */\n  mload(0x40)\n    /* \"@openzeppelin/contracts/access/Ownable.sol\":3004:3010  _owner */\n  swap2\n  swap1\n  swap3\n  and\n  swap3\n  dup4\n  swap2\n    /* \"@openzeppelin/contracts/access/Ownable.sol\":3052:3092  OwnershipTransferred(oldOwner, newOwner) */\n  0x8be0079c531659141344cd1fd0a4f28419497f9722a3daafe3b4186f6b6457e0\n  swap2\n    /* \"@openzeppelin/contracts/access/Ownable.sol\":2985:3001  address oldOwner */\n  swap1\n    /* \"@openzeppelin/contracts/access/Ownable.sol\":3052:3092  OwnershipTransferred(oldOwner, newOwner) */\n  log3\n    /* \"@openzeppelin/contracts/access/Ownable.sol\":2975:3099  {... */\n  pop\n    /* \"@openzeppelin/contracts/access/Ownable.sol\":2912:3099  function _transferOwnership(address newOwner) internal virtual {... */\n  pop\n  jump\t// out\n    /* \"#utility.yul\":14:191   */\ntag_18:\n    /* \"#utility.yul\":93:106   */\n  dup1\n  mload\n  sub(shl(0xa0, 0x01), 0x01)\n    /* \"#utility.yul\":135:166   */\n  dup2\n  and\n    /* \"#utility.yul\":125:167   */\n  dup2\n  eq\n    /* \"#utility.yul\":115:185   */\n  tag_21\n  jumpi\n    /* \"#utility.yul\":181:182   */\n  0x00\n    /* \"#utility.yul\":178:179   */\n  0x00\n    /* \"#utility.yul\":171:183   */\n  revert\n    /* \"#utility.yul\":115:185   */\ntag_21:\n    /* \"#utility.yul\":14:191   */\n  swap2\n  swap1\n  pop\n  jump\t// out\n    /* \"#utility.yul\":196:710   */\ntag_3:\n    /* \"#utility.yul\":293:299   */\n  0x00\n    /* \"#utility.yul\":301:307   */\n  0x00\n    /* \"#utility.yul\":309:315   */\n  0x00\n    /* \"#utility.yul\":317:323   */\n  0x00\n    /* \"#utility.yul\":370:373   */\n  0x80\n    /* \"#utility.yul\":358:367   */\n  dup6\n    /* \"#utility.yul\":349:356   */\n  dup8\n    /* \"#utility.yul\":345:368   */\n  sub\n    /* \"#utility.yul\":341:374   */\n  slt\n    /* \"#utility.yul\":338:391   */\n  iszero\n  tag_23\n  jumpi\n    /* \"#utility.yul\":387:388   */\n  0x00\n    /* \"#utility.yul\":384:385   */\n  0x00\n    /* \"#utility.yul\":377:389   */\n  revert\n    /* \"#utility.yul\":338:391   */\ntag_23:\n    /* \"#utility.yul\":410:450   */\n  tag_24\n    /* \"#utility.yul\":440:449   */\n  dup6\n    /* \"#utility.yul\":410:450   */\n  tag_18\n  jump\t// in\ntag_24:\n    /* \"#utility.yul\":400:450   */\n  swap4\n  pop\n    /* \"#utility.yul\":469:518   */\n  tag_25\n    /* \"#utility.yul\":514:516   */\n  0x20\n    /* \"#utility.yul\":503:512   */\n  dup7\n    /* \"#utility.yul\":499:517   */\n  add\n    /* \"#utility.yul\":469:518   */\n  tag_18\n  jump\t// in\ntag_25:\n    /* \"#utility.yul\":580:582   */\n  0x40\n    /* \"#utility.yul\":565:583   */\n  dup7\n  add\n    /* \"#utility.yul\":559:584   */\n  mload\n    /* \"#utility.yul\":674:676   */\n  0x60\n    /* \"#utility.yul\":659:677   */\n  swap1\n  swap7\n  add\n    /* \"#utility.yul\":653:678   */\n  mload\n    /* \"#utility.yul\":196:710   */\n  swap5\n  swap8\n    /* \"#utility.yul\":459:518   */\n  swap1\n  swap7\n  pop\n    /* \"#utility.yul\":196:710   */\n  swap3\n  pop\n  pop\n  pop\n  jump\t// out\n    /* \"#utility.yul\":715:918   */\ntag_19:\n    /* \"contracts/ModuleX.sol\":278:7469  contract ModuleX is IModuleX, Ownable ... */\n  mload(0x80)\n  mload(0xa0)\n  codecopy(0x00, dataOffset(sub_0), dataSize(sub_0))\n  0x00\n  assignImmutable(\"0x0d39e801c12a1db7a049a11375544bfecda5660c1466262d86703950d5bcb07f\")\n  0x00\n  assignImmutable(\"0xad444e1082e5d5bbfca385a9a566a2d71dbd349bb06a97871f0be4657884f8e0\")\n  return(0x00, dataSize(sub_0))\nstop\n\nsub_0: assembly {\n        /* \"contracts/ModuleX.sol\":278:7469  contract ModuleX is IModuleX, Ownable ... */\n      mstore(0x40, 0x80)\n      callvalue\n      dup1\n      iszero\n      tag_1\n      jumpi\n      revert(0x00, 0x00)\n    tag_1:\n      pop\n      jumpi(tag_2, lt(calldatasize, 0x04))\n      shr(0xe0, calldataload(0x00))\n      dup1\n      0xb109beec\n      gt\n      tag_27\n      jumpi\n      dup1\n      0xce325bf8\n      gt\n      tag_28\n      jumpi\n      dup1\n      0xd6ef7af0\n      gt\n      tag_29\n      jumpi\n      dup1\n      0xd6ef7af0\n      eq\n      tag_24\n      jumpi\n      dup1\n      0xd93c04a0\n      eq\n      tag_25\n      jumpi\n      dup1\n      0xf2fde38b\n      eq\n      tag_26\n      jumpi\n      revert(0x00, 0x00)\n    tag_29:\n      dup1\n      0xce325bf8\n      eq\n      tag_21\n      jumpi\n      dup1\n      0xd2d7231f\n      eq\n      tag_22\n      jumpi\n      dup1\n      0xd46149a2\n      eq\n      tag_23\n      jumpi\n      revert(0x00, 0x00)\n    tag_28:\n      dup1\n      0xbc854352\n      gt\n      tag_30\n      jumpi\n      dup1\n      0xbc854352\n      eq\n      tag_18\n      jumpi\n      dup1\n      0xbeceed39\n      eq\n      tag_19\n      jumpi\n      dup1\n      0xc9ea62c1\n      eq\n      tag_20\n      jumpi\n      revert(0x00, 0x00)\n    tag_30:\n      dup1\n      0xb109beec\n      eq\n      tag_15\n      jumpi\n      dup1\n      0xb5fa91fe\n      eq\n      tag_16\n      jumpi\n      dup1\n      0xb6baffe3\n      eq\n      tag_17\n      jumpi\n      revert(0x00, 0x00)\n    tag_27:\n      dup1\n      0x7c2fdeb5\n      gt\n      tag_31\n      jumpi\n      dup1\n      0x8f4729b7\n      gt\n      tag_32\n      jumpi\n      dup1\n      0x8f4729b7\n      eq\n      tag_12\n      jumpi\n      dup1\n      0xac00500f\n      eq\n      tag_13\n      jumpi\n      dup1\n      0xaf7568dd\n      eq\n      tag_14\n      jumpi\n      revert(0x00, 0x00)\n    tag_32:\n      dup1\n      0x7c2fdeb5\n      eq\n      tag_9\n      jumpi\n      dup1\n      0x8da5cb5b\n      eq\n      tag_10\n      jumpi\n      dup1\n      0x8e12c0cd\n      eq\n      tag_11\n      jumpi\n      revert(0x00, 0x00)\n    tag_31:\n      dup1\n      0x6db08f25\n      gt\n      tag_33\n      jumpi\n      dup1\n      0x6db08f25\n      eq\n      tag_6\n      jumpi\n      dup1\n      0x715018a6\n      eq\n      tag_7\n      jumpi\n      dup1\n      0x75f12b21\n      eq\n      tag_8\n      jumpi\n      revert(0x00, 0x00)\n    tag_33:\n      dup1\n      0x07da68f5\n      eq\n      tag_3\n      jumpi\n      dup1\n      0x109cf399\n      eq\n      tag_4\n      jumpi\n      dup1\n      0x379607f5\n      eq\n      tag_5\n      jumpi\n    tag_2:\n      revert(0x00, 0x00)\n        /* \"contracts/ModuleX.sol\":7366:7464  function stop() external onlyOwner... */\n    tag_3:\n      tag_34\n      tag_35\n      jump\t// in\n    tag_34:\n      stop\n        /* \"contracts/ModuleX.sol\":679:710  uint public DIFFICULTY_INTERVAL */\n    tag_4:\n      tag_36\n      sload(0x03)\n      dup2\n      jump\n    tag_36:\n      mload(0x40)\n        /* \"#utility.yul\":160:185   */\n      swap1\n      dup2\n      mstore\n        /* \"#utility.yul\":148:150   */\n      0x20\n        /* \"#utility.yul\":133:151   */\n      add\n        /* \"contracts/ModuleX.sol\":679:710  uint public DIFFICULTY_INTERVAL */\n    tag_38:\n      mload(0x40)\n      dup1\n      swap2\n      sub\n      swap1\n      return\n        /* \"contracts/ModuleX.sol\":4616:5285  function claim(uint stake_id) external validate_stake(stake_id) returns(uint)... */\n    tag_5:\n      tag_36\n      tag_41\n      calldatasize\n      0x04\n      tag_42\n      jump\t// in\n    tag_41:\n      tag_43\n      jump\t// in\n        /* \"contracts/ModuleX.sol\":717:746  IERC20 immutable public CREDI */\n    tag_6:\n      tag_45\n      immutable(\"0xad444e1082e5d5bbfca385a9a566a2d71dbd349bb06a97871f0be4657884f8e0\")\n      dup2\n      jump\n    tag_45:\n      mload(0x40)\n      sub(shl(0xa0, 0x01), 0x01)\n        /* \"#utility.yul\":605:660   */\n      swap1\n      swap2\n      and\n        /* \"#utility.yul\":587:661   */\n      dup2\n      mstore\n        /* \"#utility.yul\":575:577   */\n      0x20\n        /* \"#utility.yul\":560:578   */\n      add\n        /* \"contracts/ModuleX.sol\":717:746  IERC20 immutable public CREDI */\n      tag_38\n        /* \"#utility.yul\":427:667   */\n      jump\n        /* \"@openzeppelin/contracts/access/Ownable.sol\":2293:2394  function renounceOwnership() public virtual onlyOwner {... */\n    tag_7:\n      tag_34\n      tag_50\n      jump\t// in\n        /* \"contracts/ModuleX.sol\":508:535  bool public stopped = false */\n    tag_8:\n      sload(0x00)\n      tag_51\n      swap1\n      shl(0xa0, 0x01)\n      swap1\n      div\n      0xff\n      and\n      dup2\n      jump\n    tag_51:\n      mload(0x40)\n        /* \"#utility.yul\":837:851   */\n      swap1\n      iszero\n        /* \"#utility.yul\":830:852   */\n      iszero\n        /* \"#utility.yul\":812:853   */\n      dup2\n      mstore\n        /* \"#utility.yul\":800:802   */\n      0x20\n        /* \"#utility.yul\":785:803   */\n      add\n        /* \"contracts/ModuleX.sol\":508:535  bool public stopped = false */\n      tag_38\n        /* \"#utility.yul\":672:859   */\n      jump\n        /* \"contracts/ModuleX.sol\":1839:1944  function getxCREDIAddress() external view returns(address)... */\n    tag_9:\n        /* \"contracts/ModuleX.sol\":1929:1935  xCREDI */\n      immutable(\"0x0d39e801c12a1db7a049a11375544bfecda5660c1466262d86703950d5bcb07f\")\n        /* \"contracts/ModuleX.sol\":1839:1944  function getxCREDIAddress() external view returns(address)... */\n      jump(tag_45)\n        /* \"@openzeppelin/contracts/access/Ownable.sol\":1638:1723  function owner() public view virtual returns (address) {... */\n    tag_10:\n        /* \"@openzeppelin/contracts/access/Ownable.sol\":1684:1691  address */\n      0x00\n        /* \"@openzeppelin/contracts/access/Ownable.sol\":1710:1716  _owner */\n      sload\n      sub(shl(0xa0, 0x01), 0x01)\n      and\n        /* \"@openzeppelin/contracts/access/Ownable.sol\":1638:1723  function owner() public view virtual returns (address) {... */\n      jump(tag_45)\n        /* \"contracts/ModuleX.sol\":543:585  uint96 constant public MATURITY = 180 days */\n    tag_11:\n      tag_62\n        /* \"contracts/ModuleX.sol\":577:585  180 days */\n      0xed4e00\n        /* \"contracts/ModuleX.sol\":543:585  uint96 constant public MATURITY = 180 days */\n      dup2\n      jump\n    tag_62:\n      mload(0x40)\n      sub(shl(0x60, 0x01), 0x01)\n        /* \"#utility.yul\":1257:1296   */\n      swap1\n      swap2\n      and\n        /* \"#utility.yul\":1239:1297   */\n      dup2\n      mstore\n        /* \"#utility.yul\":1227:1229   */\n      0x20\n        /* \"#utility.yul\":1212:1230   */\n      add\n        /* \"contracts/ModuleX.sol\":543:585  uint96 constant public MATURITY = 180 days */\n      tag_38\n        /* \"#utility.yul\":1095:1303   */\n      jump\n        /* \"contracts/ModuleX.sol\":884:916  uint public pending_payments = 0 */\n    tag_12:\n      tag_36\n      sload(0x06)\n      dup2\n      jump\n        /* \"contracts/ModuleX.sol\":5293:5849  function withdrawCREDI(uint stake_id, uint amount) external onlyOwner validate_stake(stake_id)... */\n    tag_13:\n      tag_34\n      tag_70\n      calldatasize\n      0x04\n      tag_71\n      jump\t// in\n    tag_70:\n      tag_72\n      jump\t// in\n        /* \"contracts/ModuleX.sol\":592:620  uint public total_staked = 0 */\n    tag_14:\n      tag_36\n      sload(0x01)\n      dup2\n      jump\n        /* \"contracts/ModuleX.sol\":753:783  IERC20 immutable public xCREDI */\n    tag_15:\n      tag_45\n      immutable(\"0x0d39e801c12a1db7a049a11375544bfecda5660c1466262d86703950d5bcb07f\")\n      dup2\n      jump\n        /* \"contracts/ModuleX.sol\":1952:2053  function getStakesCount() external view returns(uint)... */\n    tag_16:\n      tag_36\n      tag_80\n      jump\t// in\n        /* \"contracts/ModuleX.sol\":3483:3612  function getDifficulty() external view returns(uint)... */\n    tag_17:\n      tag_36\n      tag_83\n      jump\t// in\n        /* \"contracts/ModuleX.sol\":5857:6569  function batchWithdrawCREDI(uint[] calldata stake_ids) external onlyOwner... */\n    tag_18:\n      tag_34\n      tag_86\n      calldatasize\n      0x04\n      tag_87\n      jump\t// in\n    tag_86:\n      tag_88\n      jump\t// in\n        /* \"contracts/ModuleX.sol\":6577:6815  function addRewards(uint amount) external ... */\n    tag_19:\n      tag_34\n      tag_90\n      calldatasize\n      0x04\n      tag_42\n      jump\t// in\n    tag_90:\n      tag_91\n      jump\t// in\n        /* \"contracts/ModuleX.sol\":7111:7358  function setDifficulty(uint _DIFFICULTY, uint _DIFFICULTY_INTERVAL, uint _total_staked) external onlyOwner... */\n    tag_20:\n      tag_34\n      tag_93\n      calldatasize\n      0x04\n      tag_94\n      jump\t// in\n    tag_93:\n      tag_95\n      jump\t// in\n        /* \"contracts/ModuleX.sol\":2061:2456  function getStake(uint stake_id) external validate_stake(stake_id) view ... */\n    tag_21:\n      tag_96\n      tag_97\n      calldatasize\n      0x04\n      tag_42\n      jump\t// in\n    tag_97:\n      tag_98\n      jump\t// in\n    tag_96:\n      0x40\n      dup1\n      mload\n      sub(shl(0xa0, 0x01), 0x01)\n        /* \"#utility.yul\":2994:3049   */\n      swap1\n      swap6\n      and\n        /* \"#utility.yul\":2976:3050   */\n      dup6\n      mstore\n        /* \"#utility.yul\":3081:3083   */\n      0x20\n        /* \"#utility.yul\":3066:3084   */\n      dup6\n      add\n        /* \"#utility.yul\":3059:3093   */\n      swap4\n      swap1\n      swap4\n      mstore\n        /* \"#utility.yul\":3109:3127   */\n      swap2\n      dup4\n      add\n        /* \"#utility.yul\":3102:3136   */\n      mstore\n        /* \"#utility.yul\":3167:3169   */\n      0x60\n        /* \"#utility.yul\":3152:3170   */\n      dup3\n      add\n        /* \"#utility.yul\":3145:3179   */\n      mstore\n        /* \"#utility.yul\":2963:2966   */\n      0x80\n        /* \"#utility.yul\":2948:2967   */\n      add\n        /* \"contracts/ModuleX.sol\":2061:2456  function getStake(uint stake_id) external validate_stake(stake_id) view ... */\n      tag_38\n        /* \"#utility.yul\":2745:3185   */\n      jump\n        /* \"contracts/ModuleX.sol\":2575:3475  function calculateReward(uint stake_amount) public view returns(uint)... */\n    tag_22:\n      tag_36\n      tag_102\n      calldatasize\n      0x04\n      tag_42\n      jump\t// in\n    tag_102:\n      tag_103\n      jump\t// in\n        /* \"contracts/ModuleX.sol\":1728:1831  function getCREDIAddress() external view returns(address)... */\n    tag_23:\n        /* \"contracts/ModuleX.sol\":1817:1822  CREDI */\n      immutable(\"0xad444e1082e5d5bbfca385a9a566a2d71dbd349bb06a97871f0be4657884f8e0\")\n        /* \"contracts/ModuleX.sol\":1728:1831  function getCREDIAddress() external view returns(address)... */\n      jump(tag_45)\n        /* \"contracts/ModuleX.sol\":6823:7103  function withdrawRewards(address to, uint amount) external onlyOwner... */\n    tag_24:\n      tag_34\n      tag_109\n      calldatasize\n      0x04\n      tag_110\n      jump\t// in\n    tag_109:\n      tag_111\n      jump\t// in\n        /* \"contracts/ModuleX.sol\":3620:4608  function stake(uint96 lock_period, uint stake_amount) external returns(uint, uint)... */\n    tag_25:\n      tag_112\n      tag_113\n      calldatasize\n      0x04\n      tag_114\n      jump\t// in\n    tag_113:\n      tag_115\n      jump\t// in\n    tag_112:\n      0x40\n      dup1\n      mload\n        /* \"#utility.yul\":4287:4312   */\n      swap3\n      dup4\n      mstore\n        /* \"#utility.yul\":4343:4345   */\n      0x20\n        /* \"#utility.yul\":4328:4346   */\n      dup4\n      add\n        /* \"#utility.yul\":4321:4355   */\n      swap2\n      swap1\n      swap2\n      mstore\n        /* \"#utility.yul\":4260:4278   */\n      add\n        /* \"contracts/ModuleX.sol\":3620:4608  function stake(uint96 lock_period, uint stake_amount) external returns(uint, uint)... */\n      tag_38\n        /* \"#utility.yul\":4113:4361   */\n      jump\n        /* \"@openzeppelin/contracts/access/Ownable.sol\":2543:2758  function transferOwnership(address newOwner) public virtual onlyOwner {... */\n    tag_26:\n      tag_34\n      tag_119\n      calldatasize\n      0x04\n      tag_120\n      jump\t// in\n    tag_119:\n      tag_121\n      jump\t// in\n        /* \"contracts/ModuleX.sol\":7366:7464  function stop() external onlyOwner... */\n    tag_35:\n        /* \"@openzeppelin/contracts/access/Ownable.sol\":1531:1544  _checkOwner() */\n      tag_123\n        /* \"@openzeppelin/contracts/access/Ownable.sol\":1531:1542  _checkOwner */\n      tag_124\n        /* \"@openzeppelin/contracts/access/Ownable.sol\":1531:1544  _checkOwner() */\n      jump\t// in\n    tag_123:\n        /* \"contracts/ModuleX.sol\":7417:7424  stopped */\n      0x00\n        /* \"contracts/ModuleX.sol\":7417:7431  stopped = true */\n      dup1\n      sload\n      0xffffffffffffffffffffff00ffffffffffffffffffffffffffffffffffffffff\n      and\n      shl(0xa0, 0x01)\n      or\n      dup2\n      sstore\n        /* \"contracts/ModuleX.sol\":7447:7456  Stopped() */\n      mload(0x40)\n      0x7acc84e34091ae817647a4c49116f5cc07f319078ba80f8f5fde37ea7e25cbd6\n      swap2\n        /* \"contracts/ModuleX.sol\":7417:7424  stopped */\n      swap1\n        /* \"contracts/ModuleX.sol\":7447:7456  Stopped() */\n      log1\n        /* \"contracts/ModuleX.sol\":7366:7464  function stop() external onlyOwner... */\n      jump\t// out\n        /* \"contracts/ModuleX.sol\":4616:5285  function claim(uint stake_id) external validate_stake(stake_id) returns(uint)... */\n    tag_43:\n        /* \"contracts/ModuleX.sol\":4688:4692  uint */\n      0x00\n        /* \"contracts/ModuleX.sol\":4670:4678  stake_id */\n      dup2\n        /* \"contracts/ModuleX.sol\":1328:1329  0 */\n      0x00\n        /* \"contracts/ModuleX.sol\":1317:1325  stake_id */\n      dup2\n        /* \"contracts/ModuleX.sol\":1317:1329  stake_id > 0 */\n      gt\n        /* \"contracts/ModuleX.sol\":1317:1356  stake_id > 0 && stake_id < stakes_count */\n      dup1\n      iszero\n      tag_127\n      jumpi\n      pop\n        /* \"contracts/ModuleX.sol\":1344:1356  stakes_count */\n      sload(0x05)\n        /* \"contracts/ModuleX.sol\":1333:1341  stake_id */\n      dup2\n        /* \"contracts/ModuleX.sol\":1333:1356  stake_id < stakes_count */\n      lt\n        /* \"contracts/ModuleX.sol\":1317:1356  stake_id > 0 && stake_id < stakes_count */\n    tag_127:\n        /* \"contracts/ModuleX.sol\":1309:1386  require(stake_id > 0 && stake_id < stakes_count, \"ModuleX:Invalid Stake ID!\") */\n      tag_128\n      jumpi\n      mload(0x40)\n      shl(0xe5, 0x461bcd)\n      dup2\n      mstore\n        /* \"#utility.yul\":4759:4761   */\n      0x20\n        /* \"contracts/ModuleX.sol\":1309:1386  require(stake_id > 0 && stake_id < stakes_count, \"ModuleX:Invalid Stake ID!\") */\n      0x04\n      dup3\n      add\n        /* \"#utility.yul\":4741:4762   */\n      mstore\n        /* \"#utility.yul\":4798:4800   */\n      0x19\n        /* \"#utility.yul\":4778:4796   */\n      0x24\n      dup3\n      add\n        /* \"#utility.yul\":4771:4801   */\n      mstore\n        /* \"#utility.yul\":4837:4864   */\n      0x4d6f64756c65583a496e76616c6964205374616b652049442100000000000000\n        /* \"#utility.yul\":4817:4835   */\n      0x44\n      dup3\n      add\n        /* \"#utility.yul\":4810:4865   */\n      mstore\n        /* \"#utility.yul\":4882:4900   */\n      0x64\n      add\n        /* \"contracts/ModuleX.sol\":1309:1386  require(stake_id > 0 && stake_id < stakes_count, \"ModuleX:Invalid Stake ID!\") */\n    tag_129:\n      mload(0x40)\n      dup1\n      swap2\n      sub\n      swap1\n      revert\n    tag_128:\n        /* \"contracts/ModuleX.sol\":4710:4738  StakeDetails storage details */\n      0x00\n        /* \"contracts/ModuleX.sol\":4741:4757  stakes[stake_id] */\n      dup4\n      dup2\n      mstore\n        /* \"contracts/ModuleX.sol\":4741:4747  stakes */\n      0x04\n        /* \"contracts/ModuleX.sol\":4741:4757  stakes[stake_id] */\n      0x20\n      mstore\n      0x40\n      swap1\n      keccak256\n        /* \"contracts/ModuleX.sol\":4776:4789  details.owner */\n      dup1\n      sload\n      sub(shl(0xa0, 0x01), 0x01)\n      and\n        /* \"@openzeppelin/contracts/utils/Context.sol\":735:745  msg.sender */\n      caller\n        /* \"contracts/ModuleX.sol\":4776:4805  details.owner == _msgSender() */\n      eq\n        /* \"contracts/ModuleX.sol\":4768:4841  require(details.owner == _msgSender(), \"ModuleX:Caller is not the owner\") */\n      tag_134\n      jumpi\n      mload(0x40)\n      shl(0xe5, 0x461bcd)\n      dup2\n      mstore\n        /* \"#utility.yul\":5113:5115   */\n      0x20\n        /* \"contracts/ModuleX.sol\":4768:4841  require(details.owner == _msgSender(), \"ModuleX:Caller is not the owner\") */\n      0x04\n      dup3\n      add\n        /* \"#utility.yul\":5095:5116   */\n      mstore\n        /* \"#utility.yul\":5152:5154   */\n      0x1f\n        /* \"#utility.yul\":5132:5150   */\n      0x24\n      dup3\n      add\n        /* \"#utility.yul\":5125:5155   */\n      mstore\n        /* \"#utility.yul\":5191:5224   */\n      0x4d6f64756c65583a43616c6c6572206973206e6f7420746865206f776e657200\n        /* \"#utility.yul\":5171:5189   */\n      0x44\n      dup3\n      add\n        /* \"#utility.yul\":5164:5225   */\n      mstore\n        /* \"#utility.yul\":5242:5260   */\n      0x64\n      add\n        /* \"contracts/ModuleX.sol\":4768:4841  require(details.owner == _msgSender(), \"ModuleX:Caller is not the owner\") */\n      tag_129\n        /* \"#utility.yul\":4911:5266   */\n      jump\n        /* \"contracts/ModuleX.sol\":4768:4841  require(details.owner == _msgSender(), \"ModuleX:Caller is not the owner\") */\n    tag_134:\n        /* \"contracts/ModuleX.sol\":4874:4890  details.maturity */\n      dup1\n      sload\n      shl(0xa0, 0x01)\n      swap1\n      div\n      sub(shl(0x60, 0x01), 0x01)\n      and\n        /* \"contracts/ModuleX.sol\":2543:2558  block.timestamp */\n      timestamp\n      sub(shl(0x60, 0x01), 0x01)\n        /* \"contracts/ModuleX.sol\":4860:4890  time_now() >= details.maturity */\n      and\n      lt\n      iszero\n        /* \"contracts/ModuleX.sol\":4852:4937  require(time_now() >= details.maturity, \"ModuleX:Early Withdrawal is not permitted!\") */\n      tag_139\n      jumpi\n      mload(0x40)\n      shl(0xe5, 0x461bcd)\n      dup2\n      mstore\n        /* \"#utility.yul\":5473:5475   */\n      0x20\n        /* \"contracts/ModuleX.sol\":4852:4937  require(time_now() >= details.maturity, \"ModuleX:Early Withdrawal is not permitted!\") */\n      0x04\n      dup3\n      add\n        /* \"#utility.yul\":5455:5476   */\n      mstore\n        /* \"#utility.yul\":5512:5514   */\n      0x2a\n        /* \"#utility.yul\":5492:5510   */\n      0x24\n      dup3\n      add\n        /* \"#utility.yul\":5485:5515   */\n      mstore\n        /* \"#utility.yul\":5551:5585   */\n      0x4d6f64756c65583a4561726c79205769746864726177616c206973206e6f7420\n        /* \"#utility.yul\":5531:5549   */\n      0x44\n      dup3\n      add\n        /* \"#utility.yul\":5524:5586   */\n      mstore\n        /* \"#utility.yul\":5622:5634   */\n      0x7065726d69747465642100000000000000000000000000000000000000000000\n        /* \"#utility.yul\":5602:5620   */\n      0x64\n      dup3\n      add\n        /* \"#utility.yul\":5595:5635   */\n      mstore\n        /* \"#utility.yul\":5652:5671   */\n      0x84\n      add\n        /* \"contracts/ModuleX.sol\":4852:4937  require(time_now() >= details.maturity, \"ModuleX:Early Withdrawal is not permitted!\") */\n      tag_129\n        /* \"#utility.yul\":5271:5677   */\n      jump\n        /* \"contracts/ModuleX.sol\":4852:4937  require(time_now() >= details.maturity, \"ModuleX:Early Withdrawal is not permitted!\") */\n    tag_139:\n        /* \"contracts/ModuleX.sol\":4981:4982  0 */\n      0x00\n        /* \"contracts/ModuleX.sol\":4957:4964  details */\n      dup2\n        /* \"contracts/ModuleX.sol\":4957:4978  details.reward_amount */\n      0x02\n      add\n      sload\n        /* \"contracts/ModuleX.sol\":4957:4982  details.reward_amount > 0 */\n      gt\n        /* \"contracts/ModuleX.sol\":4949:5011  require(details.reward_amount > 0, \"ModuleX:Nothing to claim\") */\n      tag_142\n      jumpi\n      mload(0x40)\n      shl(0xe5, 0x461bcd)\n      dup2\n      mstore\n        /* \"#utility.yul\":5884:5886   */\n      0x20\n        /* \"contracts/ModuleX.sol\":4949:5011  require(details.reward_amount > 0, \"ModuleX:Nothing to claim\") */\n      0x04\n      dup3\n      add\n        /* \"#utility.yul\":5866:5887   */\n      mstore\n        /* \"#utility.yul\":5923:5925   */\n      0x18\n        /* \"#utility.yul\":5903:5921   */\n      0x24\n      dup3\n      add\n        /* \"#utility.yul\":5896:5926   */\n      mstore\n        /* \"#utility.yul\":5962:5988   */\n      0x4d6f64756c65583a4e6f7468696e6720746f20636c61696d0000000000000000\n        /* \"#utility.yul\":5942:5960   */\n      0x44\n      dup3\n      add\n        /* \"#utility.yul\":5935:5989   */\n      mstore\n        /* \"#utility.yul\":6006:6024   */\n      0x64\n      add\n        /* \"contracts/ModuleX.sol\":4949:5011  require(details.reward_amount > 0, \"ModuleX:Nothing to claim\") */\n      tag_129\n        /* \"#utility.yul\":5682:6030   */\n      jump\n        /* \"contracts/ModuleX.sol\":4949:5011  require(details.reward_amount > 0, \"ModuleX:Nothing to claim\") */\n    tag_142:\n        /* \"contracts/ModuleX.sol\":5043:5064  details.reward_amount */\n      0x02\n      dup2\n      add\n      sload\n        /* \"contracts/ModuleX.sol\":5075:5123  xCREDI.safeTransfer(_msgSender(), reward_amount) */\n      tag_145\n        /* \"contracts/ModuleX.sol\":5075:5081  xCREDI */\n      immutable(\"0x0d39e801c12a1db7a049a11375544bfecda5660c1466262d86703950d5bcb07f\")\n      sub(shl(0xa0, 0x01), 0x01)\n        /* \"contracts/ModuleX.sol\":5075:5094  xCREDI.safeTransfer */\n      and\n        /* \"@openzeppelin/contracts/utils/Context.sol\":735:745  msg.sender */\n      caller\n        /* \"contracts/ModuleX.sol\":5043:5064  details.reward_amount */\n      dup4\n        /* \"contracts/ModuleX.sol\":5075:5094  xCREDI.safeTransfer */\n      tag_147\n        /* \"contracts/ModuleX.sol\":5075:5123  xCREDI.safeTransfer(_msgSender(), reward_amount) */\n      jump\t// in\n    tag_145:\n        /* \"contracts/ModuleX.sol\":5159:5172  reward_amount */\n      dup1\n        /* \"contracts/ModuleX.sol\":5139:5155  pending_payments */\n      0x06\n      0x00\n        /* \"contracts/ModuleX.sol\":5139:5172  pending_payments -= reward_amount */\n      dup3\n      dup3\n      sload\n      tag_148\n      swap2\n      swap1\n      tag_149\n      jump\t// in\n    tag_148:\n      swap1\n      swap2\n      sstore\n      pop\n      pop\n        /* \"contracts/ModuleX.sol\":5207:5208  0 */\n      0x00\n        /* \"contracts/ModuleX.sol\":5183:5204  details.reward_amount */\n      0x02\n      dup4\n      add\n        /* \"contracts/ModuleX.sol\":5183:5208  details.reward_amount = 0 */\n      sstore\n        /* \"contracts/ModuleX.sol\":5225:5245  RewardPaid(stake_id) */\n      mload(0x40)\n        /* \"#utility.yul\":160:185   */\n      dup6\n      dup2\n      mstore\n        /* \"contracts/ModuleX.sol\":5225:5245  RewardPaid(stake_id) */\n      0x67bb155fcabb99400c32b640dc7704c8f18aae4c817704c7267c5a8cd26dfc19\n      swap1\n        /* \"#utility.yul\":148:150   */\n      0x20\n        /* \"#utility.yul\":133:151   */\n      add\n        /* \"contracts/ModuleX.sol\":5225:5245  RewardPaid(stake_id) */\n      mload(0x40)\n      dup1\n      swap2\n      sub\n      swap1\n      log1\n        /* \"contracts/ModuleX.sol\":5264:5277  reward_amount */\n      swap5\n        /* \"contracts/ModuleX.sol\":4616:5285  function claim(uint stake_id) external validate_stake(stake_id) returns(uint)... */\n      swap4\n      pop\n      pop\n      pop\n      pop\n      jump\t// out\n        /* \"@openzeppelin/contracts/access/Ownable.sol\":2293:2394  function renounceOwnership() public virtual onlyOwner {... */\n    tag_50:\n        /* \"@openzeppelin/contracts/access/Ownable.sol\":1531:1544  _checkOwner() */\n      tag_152\n        /* \"@openzeppelin/contracts/access/Ownable.sol\":1531:1542  _checkOwner */\n      tag_124\n        /* \"@openzeppelin/contracts/access/Ownable.sol\":1531:1544  _checkOwner() */\n      jump\t// in\n    tag_152:\n        /* \"@openzeppelin/contracts/access/Ownable.sol\":2357:2387  _transferOwnership(address(0)) */\n      tag_154\n        /* \"@openzeppelin/contracts/access/Ownable.sol\":2384:2385  0 */\n      0x00\n        /* \"@openzeppelin/contracts/access/Ownable.sol\":2357:2375  _transferOwnership */\n      tag_155\n        /* \"@openzeppelin/contracts/access/Ownable.sol\":2357:2387  _transferOwnership(address(0)) */\n      jump\t// in\n    tag_154:\n        /* \"@openzeppelin/contracts/access/Ownable.sol\":2293:2394  function renounceOwnership() public virtual onlyOwner {... */\n      jump\t// out\n        /* \"contracts/ModuleX.sol\":5293:5849  function withdrawCREDI(uint stake_id, uint amount) external onlyOwner validate_stake(stake_id)... */\n    tag_72:\n        /* \"@openzeppelin/contracts/access/Ownable.sol\":1531:1544  _checkOwner() */\n      tag_159\n        /* \"@openzeppelin/contracts/access/Ownable.sol\":1531:1542  _checkOwner */\n      tag_124\n        /* \"@openzeppelin/contracts/access/Ownable.sol\":1531:1544  _checkOwner() */\n      jump\t// in\n    tag_159:\n        /* \"contracts/ModuleX.sol\":5378:5386  stake_id */\n      dup2\n        /* \"contracts/ModuleX.sol\":1328:1329  0 */\n      0x00\n        /* \"contracts/ModuleX.sol\":1317:1325  stake_id */\n      dup2\n        /* \"contracts/ModuleX.sol\":1317:1329  stake_id > 0 */\n      gt\n        /* \"contracts/ModuleX.sol\":1317:1356  stake_id > 0 && stake_id < stakes_count */\n      dup1\n      iszero\n      tag_161\n      jumpi\n      pop\n        /* \"contracts/ModuleX.sol\":1344:1356  stakes_count */\n      sload(0x05)\n        /* \"contracts/ModuleX.sol\":1333:1341  stake_id */\n      dup2\n        /* \"contracts/ModuleX.sol\":1333:1356  stake_id < stakes_count */\n      lt\n        /* \"contracts/ModuleX.sol\":1317:1356  stake_id > 0 && stake_id < stakes_count */\n    tag_161:\n        /* \"contracts/ModuleX.sol\":1309:1386  require(stake_id > 0 && stake_id < stakes_count, \"ModuleX:Invalid Stake ID!\") */\n      tag_162\n      jumpi\n      mload(0x40)\n      shl(0xe5, 0x461bcd)\n      dup2\n      mstore\n        /* \"#utility.yul\":4759:4761   */\n      0x20\n        /* \"contracts/ModuleX.sol\":1309:1386  require(stake_id > 0 && stake_id < stakes_count, \"ModuleX:Invalid Stake ID!\") */\n      0x04\n      dup3\n      add\n        /* \"#utility.yul\":4741:4762   */\n      mstore\n        /* \"#utility.yul\":4798:4800   */\n      0x19\n        /* \"#utility.yul\":4778:4796   */\n      0x24\n      dup3\n      add\n        /* \"#utility.yul\":4771:4801   */\n      mstore\n        /* \"#utility.yul\":4837:4864   */\n      0x4d6f64756c65583a496e76616c6964205374616b652049442100000000000000\n        /* \"#utility.yul\":4817:4835   */\n      0x44\n      dup3\n      add\n        /* \"#utility.yul\":4810:4865   */\n      mstore\n        /* \"#utility.yul\":4882:4900   */\n      0x64\n      add\n        /* \"contracts/ModuleX.sol\":1309:1386  require(stake_id > 0 && stake_id < stakes_count, \"ModuleX:Invalid Stake ID!\") */\n      tag_129\n        /* \"#utility.yul\":4557:4906   */\n      jump\n        /* \"contracts/ModuleX.sol\":1309:1386  require(stake_id > 0 && stake_id < stakes_count, \"ModuleX:Invalid Stake ID!\") */\n    tag_162:\n        /* \"contracts/ModuleX.sol\":5422:5423  0 */\n      0x00\n        /* \"contracts/ModuleX.sol\":5413:5419  amount */\n      dup3\n        /* \"contracts/ModuleX.sol\":5413:5423  amount > 0 */\n      gt\n        /* \"contracts/ModuleX.sol\":5404:5469  require (amount > 0, \"ModuleX:amount must be greater than zero!\") */\n      tag_165\n      jumpi\n      mload(0x40)\n      shl(0xe5, 0x461bcd)\n      dup2\n      mstore\n        /* \"#utility.yul\":6559:6561   */\n      0x20\n        /* \"contracts/ModuleX.sol\":5404:5469  require (amount > 0, \"ModuleX:amount must be greater than zero!\") */\n      0x04\n      dup3\n      add\n        /* \"#utility.yul\":6541:6562   */\n      mstore\n        /* \"#utility.yul\":6598:6600   */\n      0x29\n        /* \"#utility.yul\":6578:6596   */\n      0x24\n      dup3\n      add\n        /* \"#utility.yul\":6571:6601   */\n      mstore\n        /* \"#utility.yul\":6637:6671   */\n      0x4d6f64756c65583a616d6f756e74206d75737420626520677265617465722074\n        /* \"#utility.yul\":6617:6635   */\n      0x44\n      dup3\n      add\n        /* \"#utility.yul\":6610:6672   */\n      mstore\n      shl(0xb8, 0x68616e207a65726f21)\n        /* \"#utility.yul\":6688:6706   */\n      0x64\n      dup3\n      add\n        /* \"#utility.yul\":6681:6720   */\n      mstore\n        /* \"#utility.yul\":6737:6756   */\n      0x84\n      add\n        /* \"contracts/ModuleX.sol\":5404:5469  require (amount > 0, \"ModuleX:amount must be greater than zero!\") */\n      tag_129\n        /* \"#utility.yul\":6357:6762   */\n      jump\n        /* \"contracts/ModuleX.sol\":5404:5469  require (amount > 0, \"ModuleX:amount must be greater than zero!\") */\n    tag_165:\n        /* \"contracts/ModuleX.sol\":5480:5508  StakeDetails storage details */\n      0x00\n        /* \"contracts/ModuleX.sol\":5511:5527  stakes[stake_id] */\n      dup4\n      dup2\n      mstore\n        /* \"contracts/ModuleX.sol\":5511:5517  stakes */\n      0x04\n        /* \"contracts/ModuleX.sol\":5511:5527  stakes[stake_id] */\n      0x20\n      mstore\n      0x40\n      swap1\n      keccak256\n        /* \"contracts/ModuleX.sol\":5560:5576  details.maturity */\n      dup1\n      sload\n      shl(0xa0, 0x01)\n      swap1\n      div\n      sub(shl(0x60, 0x01), 0x01)\n      and\n        /* \"contracts/ModuleX.sol\":2543:2558  block.timestamp */\n      timestamp\n      sub(shl(0x60, 0x01), 0x01)\n        /* \"contracts/ModuleX.sol\":5546:5576  time_now() <= details.maturity */\n      and\n      gt\n      iszero\n        /* \"contracts/ModuleX.sol\":5538:5602  require(time_now() <= details.maturity, \"ModuleX:Burnt tokens!\") */\n      tag_169\n      jumpi\n      mload(0x40)\n      shl(0xe5, 0x461bcd)\n      dup2\n      mstore\n        /* \"#utility.yul\":6969:6971   */\n      0x20\n        /* \"contracts/ModuleX.sol\":5538:5602  require(time_now() <= details.maturity, \"ModuleX:Burnt tokens!\") */\n      0x04\n      dup3\n      add\n        /* \"#utility.yul\":6951:6972   */\n      mstore\n        /* \"#utility.yul\":7008:7010   */\n      0x15\n        /* \"#utility.yul\":6988:7006   */\n      0x24\n      dup3\n      add\n        /* \"#utility.yul\":6981:7011   */\n      mstore\n        /* \"#utility.yul\":7047:7070   */\n      0x4d6f64756c65583a4275726e7420746f6b656e73210000000000000000000000\n        /* \"#utility.yul\":7027:7045   */\n      0x44\n      dup3\n      add\n        /* \"#utility.yul\":7020:7071   */\n      mstore\n        /* \"#utility.yul\":7088:7106   */\n      0x64\n      add\n        /* \"contracts/ModuleX.sol\":5538:5602  require(time_now() <= details.maturity, \"ModuleX:Burnt tokens!\") */\n      tag_129\n        /* \"#utility.yul\":6767:7112   */\n      jump\n        /* \"contracts/ModuleX.sol\":5538:5602  require(time_now() <= details.maturity, \"ModuleX:Burnt tokens!\") */\n    tag_169:\n        /* \"contracts/ModuleX.sol\":5632:5639  details */\n      dup1\n        /* \"contracts/ModuleX.sol\":5632:5652  details.stake_amount */\n      0x01\n      add\n      sload\n        /* \"contracts/ModuleX.sol\":5622:5628  amount */\n      dup4\n        /* \"contracts/ModuleX.sol\":5622:5652  amount <= details.stake_amount */\n      gt\n      iszero\n        /* \"contracts/ModuleX.sol\":5614:5686  require(amount <= details.stake_amount, \"ModuleX:Insufficient balance!\") */\n      tag_172\n      jumpi\n      mload(0x40)\n      shl(0xe5, 0x461bcd)\n      dup2\n      mstore\n        /* \"#utility.yul\":7319:7321   */\n      0x20\n        /* \"contracts/ModuleX.sol\":5614:5686  require(amount <= details.stake_amount, \"ModuleX:Insufficient balance!\") */\n      0x04\n      dup3\n      add\n        /* \"#utility.yul\":7301:7322   */\n      mstore\n        /* \"#utility.yul\":7358:7360   */\n      0x1d\n        /* \"#utility.yul\":7338:7356   */\n      0x24\n      dup3\n      add\n        /* \"#utility.yul\":7331:7361   */\n      mstore\n        /* \"#utility.yul\":7397:7428   */\n      0x4d6f64756c65583a496e73756666696369656e742062616c616e636521000000\n        /* \"#utility.yul\":7377:7395   */\n      0x44\n      dup3\n      add\n        /* \"#utility.yul\":7370:7429   */\n      mstore\n        /* \"#utility.yul\":7446:7464   */\n      0x64\n      add\n        /* \"contracts/ModuleX.sol\":5614:5686  require(amount <= details.stake_amount, \"ModuleX:Insufficient balance!\") */\n      tag_129\n        /* \"#utility.yul\":7117:7470   */\n      jump\n        /* \"contracts/ModuleX.sol\":5614:5686  require(amount <= details.stake_amount, \"ModuleX:Insufficient balance!\") */\n    tag_172:\n        /* \"contracts/ModuleX.sol\":5698:5752  CREDI.safeTransfer(_msgSender(), details.stake_amount) */\n      tag_175\n        /* \"@openzeppelin/contracts/utils/Context.sol\":735:745  msg.sender */\n      caller\n        /* \"contracts/ModuleX.sol\":5731:5751  details.stake_amount */\n      0x01\n      dup4\n      add\n      sload\n      sub(shl(0xa0, 0x01), 0x01)\n        /* \"contracts/ModuleX.sol\":5698:5703  CREDI */\n      immutable(\"0xad444e1082e5d5bbfca385a9a566a2d71dbd349bb06a97871f0be4657884f8e0\")\n        /* \"contracts/ModuleX.sol\":5698:5716  CREDI.safeTransfer */\n      and\n      swap2\n        /* \"contracts/ModuleX.sol\":5698:5752  CREDI.safeTransfer(_msgSender(), details.stake_amount) */\n      swap1\n        /* \"contracts/ModuleX.sol\":5698:5716  CREDI.safeTransfer */\n      tag_147\n        /* \"contracts/ModuleX.sol\":5698:5752  CREDI.safeTransfer(_msgSender(), details.stake_amount) */\n      jump\t// in\n    tag_175:\n        /* \"contracts/ModuleX.sol\":5787:5793  amount */\n      dup3\n        /* \"contracts/ModuleX.sol\":5763:5770  details */\n      dup2\n        /* \"contracts/ModuleX.sol\":5763:5783  details.stake_amount */\n      0x01\n      add\n      0x00\n        /* \"contracts/ModuleX.sol\":5763:5793  details.stake_amount -= amount */\n      dup3\n      dup3\n      sload\n      tag_177\n      swap2\n      swap1\n      tag_149\n      jump\t// in\n    tag_177:\n      swap1\n      swap2\n      sstore\n      pop\n      pop\n        /* \"contracts/ModuleX.sol\":5809:5841  CREDIWithdrawn(stake_id, amount) */\n      0x40\n      dup1\n      mload\n        /* \"#utility.yul\":4287:4312   */\n      dup6\n      dup2\n      mstore\n        /* \"#utility.yul\":4343:4345   */\n      0x20\n        /* \"#utility.yul\":4328:4346   */\n      dup2\n      add\n        /* \"#utility.yul\":4321:4355   */\n      dup6\n      swap1\n      mstore\n        /* \"contracts/ModuleX.sol\":5809:5841  CREDIWithdrawn(stake_id, amount) */\n      0x03a00e6132085cbc9ea18899cd135ef9cad5d305d58506e08e7b1a9b96199a9c\n      swap2\n        /* \"#utility.yul\":4260:4278   */\n      add\n        /* \"contracts/ModuleX.sol\":5809:5841  CREDIWithdrawn(stake_id, amount) */\n      mload(0x40)\n      dup1\n      swap2\n      sub\n      swap1\n      log1\n        /* \"contracts/ModuleX.sol\":5393:5849  {... */\n      pop\n        /* \"@openzeppelin/contracts/access/Ownable.sol\":1554:1555  _ */\n      pop\n        /* \"contracts/ModuleX.sol\":5293:5849  function withdrawCREDI(uint stake_id, uint amount) external onlyOwner validate_stake(stake_id)... */\n      pop\n      pop\n      jump\t// out\n        /* \"contracts/ModuleX.sol\":1952:2053  function getStakesCount() external view returns(uint)... */\n    tag_80:\n        /* \"contracts/ModuleX.sol\":2000:2004  uint */\n      0x00\n        /* \"contracts/ModuleX.sol\":2044:2045  1 */\n      0x01\n        /* \"contracts/ModuleX.sol\":2029:2041  stakes_count */\n      sload(0x05)\n        /* \"contracts/ModuleX.sol\":2029:2045  stakes_count - 1 */\n      tag_180\n      swap2\n      swap1\n      tag_149\n      jump\t// in\n    tag_180:\n        /* \"contracts/ModuleX.sol\":2022:2045  return stakes_count - 1 */\n      swap1\n      pop\n        /* \"contracts/ModuleX.sol\":1952:2053  function getStakesCount() external view returns(uint)... */\n      swap1\n      jump\t// out\n        /* \"contracts/ModuleX.sol\":3483:3612  function getDifficulty() external view returns(uint)... */\n    tag_83:\n        /* \"contracts/ModuleX.sol\":3530:3534  uint */\n      0x00\n        /* \"contracts/ModuleX.sol\":3594:3604  DIFFICULTY */\n      sload(0x02)\n        /* \"contracts/ModuleX.sol\":3572:3591  DIFFICULTY_INTERVAL */\n      sload(0x03)\n        /* \"contracts/ModuleX.sol\":3559:3571  total_staked */\n      sload(0x01)\n        /* \"contracts/ModuleX.sol\":3559:3591  total_staked/DIFFICULTY_INTERVAL */\n      tag_182\n      swap2\n      swap1\n      tag_183\n      jump\t// in\n    tag_182:\n        /* \"contracts/ModuleX.sol\":3559:3604  total_staked/DIFFICULTY_INTERVAL + DIFFICULTY */\n      tag_180\n      swap2\n      swap1\n      tag_185\n      jump\t// in\n        /* \"contracts/ModuleX.sol\":5857:6569  function batchWithdrawCREDI(uint[] calldata stake_ids) external onlyOwner... */\n    tag_88:\n        /* \"@openzeppelin/contracts/access/Ownable.sol\":1531:1544  _checkOwner() */\n      tag_187\n        /* \"@openzeppelin/contracts/access/Ownable.sol\":1531:1542  _checkOwner */\n      tag_124\n        /* \"@openzeppelin/contracts/access/Ownable.sol\":1531:1544  _checkOwner() */\n      jump\t// in\n    tag_187:\n        /* \"contracts/ModuleX.sol\":5947:5964  uint total_amount */\n      0x00\n      dup1\n        /* \"contracts/ModuleX.sol\":5979:6438  for(uint i = 0; i < stake_ids.length; i++)... */\n    tag_189:\n        /* \"contracts/ModuleX.sol\":5995:6015  i < stake_ids.length */\n      dup3\n      dup2\n      lt\n        /* \"contracts/ModuleX.sol\":5979:6438  for(uint i = 0; i < stake_ids.length; i++)... */\n      iszero\n      tag_190\n      jumpi\n        /* \"contracts/ModuleX.sol\":6069:6081  stakes_count */\n      sload(0x05)\n        /* \"contracts/ModuleX.sol\":6054:6063  stake_ids */\n      dup5\n      dup5\n        /* \"contracts/ModuleX.sol\":6064:6065  i */\n      dup4\n        /* \"contracts/ModuleX.sol\":6054:6066  stake_ids[i] */\n      dup2\n      dup2\n      lt\n      tag_193\n      jumpi\n      tag_193\n      tag_194\n      jump\t// in\n    tag_193:\n      swap1\n      pop\n      0x20\n      mul\n      add\n      calldataload\n        /* \"contracts/ModuleX.sol\":6054:6081  stake_ids[i] < stakes_count */\n      lt\n        /* \"contracts/ModuleX.sol\":6046:6111  require(stake_ids[i] < stakes_count, \"ModuleX:Invalid Stake ID!\") */\n      tag_195\n      jumpi\n      mload(0x40)\n      shl(0xe5, 0x461bcd)\n      dup2\n      mstore\n        /* \"#utility.yul\":4759:4761   */\n      0x20\n        /* \"contracts/ModuleX.sol\":6046:6111  require(stake_ids[i] < stakes_count, \"ModuleX:Invalid Stake ID!\") */\n      0x04\n      dup3\n      add\n        /* \"#utility.yul\":4741:4762   */\n      mstore\n        /* \"#utility.yul\":4798:4800   */\n      0x19\n        /* \"#utility.yul\":4778:4796   */\n      0x24\n      dup3\n      add\n        /* \"#utility.yul\":4771:4801   */\n      mstore\n        /* \"#utility.yul\":4837:4864   */\n      0x4d6f64756c65583a496e76616c6964205374616b652049442100000000000000\n        /* \"#utility.yul\":4817:4835   */\n      0x44\n      dup3\n      add\n        /* \"#utility.yul\":4810:4865   */\n      mstore\n        /* \"#utility.yul\":4882:4900   */\n      0x64\n      add\n        /* \"contracts/ModuleX.sol\":6046:6111  require(stake_ids[i] < stakes_count, \"ModuleX:Invalid Stake ID!\") */\n      tag_129\n        /* \"#utility.yul\":4557:4906   */\n      jump\n        /* \"contracts/ModuleX.sol\":6046:6111  require(stake_ids[i] < stakes_count, \"ModuleX:Invalid Stake ID!\") */\n    tag_195:\n        /* \"contracts/ModuleX.sol\":6126:6154  StakeDetails storage details */\n      0x00\n        /* \"contracts/ModuleX.sol\":6157:6163  stakes */\n      0x04\n        /* \"contracts/ModuleX.sol\":6157:6177  stakes[stake_ids[i]] */\n      0x00\n        /* \"contracts/ModuleX.sol\":6164:6173  stake_ids */\n      dup7\n      dup7\n        /* \"contracts/ModuleX.sol\":6174:6175  i */\n      dup6\n        /* \"contracts/ModuleX.sol\":6164:6176  stake_ids[i] */\n      dup2\n      dup2\n      lt\n      tag_198\n      jumpi\n      tag_198\n      tag_194\n      jump\t// in\n    tag_198:\n      0x20\n      swap1\n      dup2\n      mul\n      swap3\n      swap1\n      swap3\n      add\n      calldataload\n        /* \"contracts/ModuleX.sol\":6157:6177  stakes[stake_ids[i]] */\n      dup4\n      mstore\n      pop\n      dup2\n      add\n      swap2\n      swap1\n      swap2\n      mstore\n      0x40\n      add\n      0x00\n      keccak256\n        /* \"contracts/ModuleX.sol\":6214:6230  details.maturity */\n      dup1\n      sload\n        /* \"contracts/ModuleX.sol\":6157:6177  stakes[stake_ids[i]] */\n      swap1\n      swap2\n      pop\n      shl(0xa0, 0x01)\n        /* \"contracts/ModuleX.sol\":6214:6230  details.maturity */\n      swap1\n      div\n      sub(shl(0x60, 0x01), 0x01)\n      and\n        /* \"contracts/ModuleX.sol\":2543:2558  block.timestamp */\n      timestamp\n      sub(shl(0x60, 0x01), 0x01)\n        /* \"contracts/ModuleX.sol\":6200:6230  time_now() <= details.maturity */\n      and\n      gt\n      iszero\n        /* \"contracts/ModuleX.sol\":6192:6256  require(time_now() <= details.maturity, \"ModuleX:Burnt tokens!\") */\n      tag_200\n      jumpi\n      mload(0x40)\n      shl(0xe5, 0x461bcd)\n      dup2\n      mstore\n        /* \"#utility.yul\":6969:6971   */\n      0x20\n        /* \"contracts/ModuleX.sol\":6192:6256  require(time_now() <= details.maturity, \"ModuleX:Burnt tokens!\") */\n      0x04\n      dup3\n      add\n        /* \"#utility.yul\":6951:6972   */\n      mstore\n        /* \"#utility.yul\":7008:7010   */\n      0x15\n        /* \"#utility.yul\":6988:7006   */\n      0x24\n      dup3\n      add\n        /* \"#utility.yul\":6981:7011   */\n      mstore\n        /* \"#utility.yul\":7047:7070   */\n      0x4d6f64756c65583a4275726e7420746f6b656e73210000000000000000000000\n        /* \"#utility.yul\":7027:7045   */\n      0x44\n      dup3\n      add\n        /* \"#utility.yul\":7020:7071   */\n      mstore\n        /* \"#utility.yul\":7088:7106   */\n      0x64\n      add\n        /* \"contracts/ModuleX.sol\":6192:6256  require(time_now() <= details.maturity, \"ModuleX:Burnt tokens!\") */\n      tag_129\n        /* \"#utility.yul\":6767:7112   */\n      jump\n        /* \"contracts/ModuleX.sol\":6192:6256  require(time_now() <= details.maturity, \"ModuleX:Burnt tokens!\") */\n    tag_200:\n        /* \"contracts/ModuleX.sol\":6287:6307  details.stake_amount */\n      0x01\n      dup2\n      add\n      sload\n        /* \"contracts/ModuleX.sol\":6271:6307  total_amount += details.stake_amount */\n      tag_202\n      swap1\n      dup5\n      tag_185\n      jump\t// in\n    tag_202:\n        /* \"contracts/ModuleX.sol\":6345:6346  0 */\n      0x00\n        /* \"contracts/ModuleX.sol\":6322:6342  details.stake_amount */\n      0x01\n      dup4\n      add\n        /* \"contracts/ModuleX.sol\":6322:6346  details.stake_amount = 0 */\n      sstore\n        /* \"contracts/ModuleX.sol\":6271:6307  total_amount += details.stake_amount */\n      swap3\n      pop\n        /* \"contracts/ModuleX.sol\":6376:6426  CREDIWithdrawn(stake_ids[i], details.stake_amount) */\n      0x03a00e6132085cbc9ea18899cd135ef9cad5d305d58506e08e7b1a9b96199a9c\n        /* \"contracts/ModuleX.sol\":6391:6400  stake_ids */\n      dup6\n      dup6\n        /* \"contracts/ModuleX.sol\":6401:6402  i */\n      dup5\n        /* \"contracts/ModuleX.sol\":6391:6403  stake_ids[i] */\n      dup2\n      dup2\n      lt\n      tag_204\n      jumpi\n      tag_204\n      tag_194\n      jump\t// in\n    tag_204:\n      swap1\n      pop\n      0x20\n      mul\n      add\n      calldataload\n        /* \"contracts/ModuleX.sol\":6405:6412  details */\n      dup3\n        /* \"contracts/ModuleX.sol\":6405:6425  details.stake_amount */\n      0x01\n      add\n      sload\n        /* \"contracts/ModuleX.sol\":6376:6426  CREDIWithdrawn(stake_ids[i], details.stake_amount) */\n      mload(0x40)\n      tag_205\n      swap3\n      swap2\n      swap1\n        /* \"#utility.yul\":4287:4312   */\n      swap2\n      dup3\n      mstore\n        /* \"#utility.yul\":4343:4345   */\n      0x20\n        /* \"#utility.yul\":4328:4346   */\n      dup3\n      add\n        /* \"#utility.yul\":4321:4355   */\n      mstore\n        /* \"#utility.yul\":4275:4277   */\n      0x40\n        /* \"#utility.yul\":4260:4278   */\n      add\n      swap1\n        /* \"#utility.yul\":4113:4361   */\n      jump\n        /* \"contracts/ModuleX.sol\":6376:6426  CREDIWithdrawn(stake_ids[i], details.stake_amount) */\n    tag_205:\n      mload(0x40)\n      dup1\n      swap2\n      sub\n      swap1\n      log1\n      pop\n        /* \"contracts/ModuleX.sol\":6017:6020  i++ */\n      0x01\n      add\n        /* \"contracts/ModuleX.sol\":5979:6438  for(uint i = 0; i < stake_ids.length; i++)... */\n      jump(tag_189)\n    tag_190:\n      pop\n        /* \"contracts/ModuleX.sol\":6471:6472  0 */\n      0x00\n        /* \"contracts/ModuleX.sol\":6456:6468  total_amount */\n      dup2\n        /* \"contracts/ModuleX.sol\":6456:6472  total_amount > 0 */\n      gt\n        /* \"contracts/ModuleX.sol\":6448:6503  require(total_amount > 0, \"ModuleX:Total amount is 0!\") */\n      tag_206\n      jumpi\n      mload(0x40)\n      shl(0xe5, 0x461bcd)\n      dup2\n      mstore\n        /* \"#utility.yul\":8275:8277   */\n      0x20\n        /* \"contracts/ModuleX.sol\":6448:6503  require(total_amount > 0, \"ModuleX:Total amount is 0!\") */\n      0x04\n      dup3\n      add\n        /* \"#utility.yul\":8257:8278   */\n      mstore\n        /* \"#utility.yul\":8314:8316   */\n      0x1a\n        /* \"#utility.yul\":8294:8312   */\n      0x24\n      dup3\n      add\n        /* \"#utility.yul\":8287:8317   */\n      mstore\n        /* \"#utility.yul\":8353:8381   */\n      0x4d6f64756c65583a546f74616c20616d6f756e74206973203021000000000000\n        /* \"#utility.yul\":8333:8351   */\n      0x44\n      dup3\n      add\n        /* \"#utility.yul\":8326:8382   */\n      mstore\n        /* \"#utility.yul\":8399:8417   */\n      0x64\n      add\n        /* \"contracts/ModuleX.sol\":6448:6503  require(total_amount > 0, \"ModuleX:Total amount is 0!\") */\n      tag_129\n        /* \"#utility.yul\":8073:8423   */\n      jump\n        /* \"contracts/ModuleX.sol\":6448:6503  require(total_amount > 0, \"ModuleX:Total amount is 0!\") */\n    tag_206:\n        /* \"contracts/ModuleX.sol\":6515:6561  CREDI.safeTransfer(_msgSender(), total_amount) */\n      tag_209\n        /* \"contracts/ModuleX.sol\":6515:6520  CREDI */\n      immutable(\"0xad444e1082e5d5bbfca385a9a566a2d71dbd349bb06a97871f0be4657884f8e0\")\n      sub(shl(0xa0, 0x01), 0x01)\n        /* \"contracts/ModuleX.sol\":6515:6533  CREDI.safeTransfer */\n      and\n        /* \"@openzeppelin/contracts/utils/Context.sol\":735:745  msg.sender */\n      caller\n        /* \"contracts/ModuleX.sol\":6548:6560  total_amount */\n      dup4\n        /* \"contracts/ModuleX.sol\":6515:6533  CREDI.safeTransfer */\n      tag_147\n        /* \"contracts/ModuleX.sol\":6515:6561  CREDI.safeTransfer(_msgSender(), total_amount) */\n      jump\t// in\n    tag_209:\n        /* \"contracts/ModuleX.sol\":5936:6569  {... */\n      pop\n        /* \"contracts/ModuleX.sol\":5857:6569  function batchWithdrawCREDI(uint[] calldata stake_ids) external onlyOwner... */\n      pop\n      pop\n      jump\t// out\n        /* \"contracts/ModuleX.sol\":6577:6815  function addRewards(uint amount) external ... */\n    tag_91:\n        /* \"contracts/ModuleX.sol\":6654:6655  0 */\n      0x00\n        /* \"contracts/ModuleX.sol\":6645:6651  amount */\n      dup2\n        /* \"contracts/ModuleX.sol\":6645:6655  amount > 0 */\n      gt\n        /* \"contracts/ModuleX.sol\":6636:6701  require (amount > 0, \"ModuleX:amount must be greater than zero!\") */\n      tag_212\n      jumpi\n      mload(0x40)\n      shl(0xe5, 0x461bcd)\n      dup2\n      mstore\n        /* \"#utility.yul\":6559:6561   */\n      0x20\n        /* \"contracts/ModuleX.sol\":6636:6701  require (amount > 0, \"ModuleX:amount must be greater than zero!\") */\n      0x04\n      dup3\n      add\n        /* \"#utility.yul\":6541:6562   */\n      mstore\n        /* \"#utility.yul\":6598:6600   */\n      0x29\n        /* \"#utility.yul\":6578:6596   */\n      0x24\n      dup3\n      add\n        /* \"#utility.yul\":6571:6601   */\n      mstore\n        /* \"#utility.yul\":6637:6671   */\n      0x4d6f64756c65583a616d6f756e74206d75737420626520677265617465722074\n        /* \"#utility.yul\":6617:6635   */\n      0x44\n      dup3\n      add\n        /* \"#utility.yul\":6610:6672   */\n      mstore\n      shl(0xb8, 0x68616e207a65726f21)\n        /* \"#utility.yul\":6688:6706   */\n      0x64\n      dup3\n      add\n        /* \"#utility.yul\":6681:6720   */\n      mstore\n        /* \"#utility.yul\":6737:6756   */\n      0x84\n      add\n        /* \"contracts/ModuleX.sol\":6636:6701  require (amount > 0, \"ModuleX:amount must be greater than zero!\") */\n      tag_129\n        /* \"#utility.yul\":6357:6762   */\n      jump\n        /* \"contracts/ModuleX.sol\":6636:6701  require (amount > 0, \"ModuleX:amount must be greater than zero!\") */\n    tag_212:\n        /* \"contracts/ModuleX.sol\":6712:6772  xCREDI.safeTransferFrom(_msgSender(), address(this), amount) */\n      tag_214\n        /* \"contracts/ModuleX.sol\":6712:6718  xCREDI */\n      immutable(\"0x0d39e801c12a1db7a049a11375544bfecda5660c1466262d86703950d5bcb07f\")\n      sub(shl(0xa0, 0x01), 0x01)\n        /* \"contracts/ModuleX.sol\":6712:6735  xCREDI.safeTransferFrom */\n      and\n        /* \"@openzeppelin/contracts/utils/Context.sol\":735:745  msg.sender */\n      caller\n        /* \"contracts/ModuleX.sol\":6758:6762  this */\n      address\n        /* \"contracts/ModuleX.sol\":6765:6771  amount */\n      dup5\n        /* \"contracts/ModuleX.sol\":6712:6735  xCREDI.safeTransferFrom */\n      tag_216\n        /* \"contracts/ModuleX.sol\":6712:6772  xCREDI.safeTransferFrom(_msgSender(), address(this), amount) */\n      jump\t// in\n    tag_214:\n        /* \"contracts/ModuleX.sol\":6788:6807  RewardAdded(amount) */\n      mload(0x40)\n        /* \"#utility.yul\":160:185   */\n      dup2\n      dup2\n      mstore\n        /* \"contracts/ModuleX.sol\":6788:6807  RewardAdded(amount) */\n      0xde88a922e0d3b88b24e9623efeb464919c6bf9f66857a65e2bfcf2ce87a9433d\n      swap1\n        /* \"#utility.yul\":148:150   */\n      0x20\n        /* \"#utility.yul\":133:151   */\n      add\n        /* \"contracts/ModuleX.sol\":6788:6807  RewardAdded(amount) */\n      mload(0x40)\n      dup1\n      swap2\n      sub\n      swap1\n      log1\n        /* \"contracts/ModuleX.sol\":6577:6815  function addRewards(uint amount) external ... */\n      pop\n      jump\t// out\n        /* \"contracts/ModuleX.sol\":7111:7358  function setDifficulty(uint _DIFFICULTY, uint _DIFFICULTY_INTERVAL, uint _total_staked) external onlyOwner... */\n    tag_95:\n        /* \"@openzeppelin/contracts/access/Ownable.sol\":1531:1544  _checkOwner() */\n      tag_219\n        /* \"@openzeppelin/contracts/access/Ownable.sol\":1531:1542  _checkOwner */\n      tag_124\n        /* \"@openzeppelin/contracts/access/Ownable.sol\":1531:1544  _checkOwner() */\n      jump\t// in\n    tag_219:\n        /* \"contracts/ModuleX.sol\":7234:7244  DIFFICULTY */\n      0x02\n        /* \"contracts/ModuleX.sol\":7234:7258  DIFFICULTY = _DIFFICULTY */\n      swap3\n      swap1\n      swap3\n      sstore\n        /* \"contracts/ModuleX.sol\":7269:7288  DIFFICULTY_INTERVAL */\n      0x03\n        /* \"contracts/ModuleX.sol\":7269:7311  DIFFICULTY_INTERVAL = _DIFFICULTY_INTERVAL */\n      sstore\n        /* \"contracts/ModuleX.sol\":7322:7334  total_staked */\n      0x01\n        /* \"contracts/ModuleX.sol\":7322:7350  total_staked = _total_staked */\n      sstore\n        /* \"contracts/ModuleX.sol\":7111:7358  function setDifficulty(uint _DIFFICULTY, uint _DIFFICULTY_INTERVAL, uint _total_staked) external onlyOwner... */\n      jump\t// out\n        /* \"contracts/ModuleX.sol\":2061:2456  function getStake(uint stake_id) external validate_stake(stake_id) view ... */\n    tag_98:\n        /* \"contracts/ModuleX.sol\":2162:2175  address owner */\n      0x00\n        /* \"contracts/ModuleX.sol\":2186:2199  uint maturity */\n      0x00\n        /* \"contracts/ModuleX.sol\":2210:2227  uint stake_amount */\n      0x00\n        /* \"contracts/ModuleX.sol\":2238:2256  uint reward_amount */\n      0x00\n        /* \"contracts/ModuleX.sol\":2118:2126  stake_id */\n      dup5\n        /* \"contracts/ModuleX.sol\":1328:1329  0 */\n      0x00\n        /* \"contracts/ModuleX.sol\":1317:1325  stake_id */\n      dup2\n        /* \"contracts/ModuleX.sol\":1317:1329  stake_id > 0 */\n      gt\n        /* \"contracts/ModuleX.sol\":1317:1356  stake_id > 0 && stake_id < stakes_count */\n      dup1\n      iszero\n      tag_222\n      jumpi\n      pop\n        /* \"contracts/ModuleX.sol\":1344:1356  stakes_count */\n      sload(0x05)\n        /* \"contracts/ModuleX.sol\":1333:1341  stake_id */\n      dup2\n        /* \"contracts/ModuleX.sol\":1333:1356  stake_id < stakes_count */\n      lt\n        /* \"contracts/ModuleX.sol\":1317:1356  stake_id > 0 && stake_id < stakes_count */\n    tag_222:\n        /* \"contracts/ModuleX.sol\":1309:1386  require(stake_id > 0 && stake_id < stakes_count, \"ModuleX:Invalid Stake ID!\") */\n      tag_223\n      jumpi\n      mload(0x40)\n      shl(0xe5, 0x461bcd)\n      dup2\n      mstore\n        /* \"#utility.yul\":4759:4761   */\n      0x20\n        /* \"contracts/ModuleX.sol\":1309:1386  require(stake_id > 0 && stake_id < stakes_count, \"ModuleX:Invalid Stake ID!\") */\n      0x04\n      dup3\n      add\n        /* \"#utility.yul\":4741:4762   */\n      mstore\n        /* \"#utility.yul\":4798:4800   */\n      0x19\n        /* \"#utility.yul\":4778:4796   */\n      0x24\n      dup3\n      add\n        /* \"#utility.yul\":4771:4801   */\n      mstore\n        /* \"#utility.yul\":4837:4864   */\n      0x4d6f64756c65583a496e76616c6964205374616b652049442100000000000000\n        /* \"#utility.yul\":4817:4835   */\n      0x44\n      dup3\n      add\n        /* \"#utility.yul\":4810:4865   */\n      mstore\n        /* \"#utility.yul\":4882:4900   */\n      0x64\n      add\n        /* \"contracts/ModuleX.sol\":1309:1386  require(stake_id > 0 && stake_id < stakes_count, \"ModuleX:Invalid Stake ID!\") */\n      tag_129\n        /* \"#utility.yul\":4557:4906   */\n      jump\n        /* \"contracts/ModuleX.sol\":1309:1386  require(stake_id > 0 && stake_id < stakes_count, \"ModuleX:Invalid Stake ID!\") */\n    tag_223:\n      pop\n      pop\n      pop\n        /* \"contracts/ModuleX.sol\":2296:2312  stakes[stake_id] */\n      0x00\n      swap3\n      dup4\n      mstore\n      pop\n      pop\n        /* \"contracts/ModuleX.sol\":2296:2302  stakes */\n      0x04\n        /* \"contracts/ModuleX.sol\":2296:2312  stakes[stake_id] */\n      0x20\n      mstore\n      0x40\n      swap1\n      keccak256\n        /* \"contracts/ModuleX.sol\":2296:2318  stakes[stake_id].owner */\n      dup1\n      sload\n      0x01\n        /* \"contracts/ModuleX.sol\":2373:2402  stakes[stake_id].stake_amount */\n      dup3\n      add\n      sload\n        /* \"contracts/ModuleX.sol\":2417:2447  stakes[stake_id].reward_amount */\n      0x02\n      swap1\n      swap3\n      add\n      sload\n      sub(shl(0xa0, 0x01), 0x01)\n        /* \"contracts/ModuleX.sol\":2296:2318  stakes[stake_id].owner */\n      dup3\n      and\n      swap4\n      shl(0xa0, 0x01)\n        /* \"contracts/ModuleX.sol\":2333:2358  stakes[stake_id].maturity */\n      swap1\n      swap3\n      div\n      sub(shl(0x60, 0x01), 0x01)\n      and\n      swap3\n        /* \"contracts/ModuleX.sol\":2373:2402  stakes[stake_id].stake_amount */\n      swap2\n        /* \"contracts/ModuleX.sol\":2061:2456  function getStake(uint stake_id) external validate_stake(stake_id) view ... */\n      jump\t// out\n        /* \"contracts/ModuleX.sol\":2575:3475  function calculateReward(uint stake_amount) public view returns(uint)... */\n    tag_103:\n        /* \"contracts/ModuleX.sol\":2639:2643  uint */\n      0x00\n        /* \"contracts/ModuleX.sol\":2662:2679  uint SCALE_FACTOR */\n      0x00\n        /* \"contracts/ModuleX.sol\":2682:2686  1e18 */\n      0x0de0b6b3a7640000\n        /* \"contracts/ModuleX.sol\":2662:2686  uint SCALE_FACTOR = 1e18 */\n      swap1\n      pop\n        /* \"contracts/ModuleX.sol\":2697:2712  uint curr_total */\n      0x00\n        /* \"contracts/ModuleX.sol\":2730:2742  stake_amount */\n      dup4\n        /* \"contracts/ModuleX.sol\":2715:2727  total_staked */\n      sload(0x01)\n        /* \"contracts/ModuleX.sol\":2715:2742  total_staked + stake_amount */\n      tag_227\n      swap2\n      swap1\n      tag_185\n      jump\t// in\n    tag_227:\n        /* \"contracts/ModuleX.sol\":2697:2742  uint curr_total = total_staked + stake_amount */\n      swap1\n      pop\n        /* \"contracts/ModuleX.sol\":2753:2763  uint low_d */\n      0x00\n        /* \"contracts/ModuleX.sol\":2779:2798  DIFFICULTY_INTERVAL */\n      sload(0x03)\n        /* \"contracts/ModuleX.sol\":2766:2778  total_staked */\n      sload(0x01)\n        /* \"contracts/ModuleX.sol\":2766:2798  total_staked/DIFFICULTY_INTERVAL */\n      tag_228\n      swap2\n      swap1\n      tag_183\n      jump\t// in\n    tag_228:\n        /* \"contracts/ModuleX.sol\":2753:2798  uint low_d = total_staked/DIFFICULTY_INTERVAL */\n      swap1\n      pop\n        /* \"contracts/ModuleX.sol\":2809:2820  uint high_d */\n      0x00\n        /* \"contracts/ModuleX.sol\":2834:2853  DIFFICULTY_INTERVAL */\n      sload(0x03)\n        /* \"contracts/ModuleX.sol\":2823:2833  curr_total */\n      dup4\n        /* \"contracts/ModuleX.sol\":2823:2853  curr_total/DIFFICULTY_INTERVAL */\n      tag_229\n      swap2\n      swap1\n      tag_183\n      jump\t// in\n    tag_229:\n        /* \"contracts/ModuleX.sol\":2809:2853  uint high_d = curr_total/DIFFICULTY_INTERVAL */\n      swap1\n      pop\n        /* \"contracts/ModuleX.sol\":2876:2882  high_d */\n      dup1\n        /* \"contracts/ModuleX.sol\":2867:2872  low_d */\n      dup3\n        /* \"contracts/ModuleX.sol\":2867:2882  low_d == high_d */\n      sub\n        /* \"contracts/ModuleX.sol\":2864:3468  if(low_d == high_d)... */\n      tag_230\n      jumpi\n        /* \"contracts/ModuleX.sol\":2937:2947  DIFFICULTY */\n      sload(0x02)\n        /* \"contracts/ModuleX.sol\":2929:2947  low_d + DIFFICULTY */\n      tag_231\n      swap1\n        /* \"contracts/ModuleX.sol\":2929:2934  low_d */\n      dup4\n        /* \"contracts/ModuleX.sol\":2929:2947  low_d + DIFFICULTY */\n      tag_185\n      jump\t// in\n    tag_231:\n        /* \"contracts/ModuleX.sol\":2915:2948  stake_amount/(low_d + DIFFICULTY) */\n      tag_232\n      swap1\n        /* \"contracts/ModuleX.sol\":2915:2927  stake_amount */\n      dup8\n        /* \"contracts/ModuleX.sol\":2915:2948  stake_amount/(low_d + DIFFICULTY) */\n      tag_183\n      jump\t// in\n    tag_232:\n        /* \"contracts/ModuleX.sol\":2908:2948  return stake_amount/(low_d + DIFFICULTY) */\n      swap7\n        /* \"contracts/ModuleX.sol\":2575:3475  function calculateReward(uint stake_amount) public view returns(uint)... */\n      swap6\n      pop\n      pop\n      pop\n      pop\n      pop\n      pop\n      jump\t// out\n        /* \"contracts/ModuleX.sol\":2864:3468  if(low_d == high_d)... */\n    tag_230:\n        /* \"contracts/ModuleX.sol\":3000:3010  uint low_r */\n      0x00\n        /* \"contracts/ModuleX.sol\":3084:3094  DIFFICULTY */\n      sload(0x02)\n        /* \"contracts/ModuleX.sol\":3076:3081  low_d */\n      dup4\n        /* \"contracts/ModuleX.sol\":3076:3094  low_d + DIFFICULTY */\n      tag_234\n      swap2\n      swap1\n      tag_185\n      jump\t// in\n    tag_234:\n        /* \"contracts/ModuleX.sol\":3061:3073  total_staked */\n      sload(0x01)\n        /* \"contracts/ModuleX.sol\":3039:3058  DIFFICULTY_INTERVAL */\n      sload(0x03)\n        /* \"contracts/ModuleX.sol\":3028:3033  low_d */\n      dup6\n        /* \"contracts/ModuleX.sol\":3036:3037  1 */\n      0x01\n        /* \"contracts/ModuleX.sol\":3028:3037  low_d + 1 */\n      tag_235\n      swap2\n      swap1\n      tag_185\n      jump\t// in\n    tag_235:\n        /* \"contracts/ModuleX.sol\":3027:3058  (low_d + 1)*DIFFICULTY_INTERVAL */\n      tag_236\n      swap2\n      swap1\n      tag_237\n      jump\t// in\n    tag_236:\n        /* \"contracts/ModuleX.sol\":3027:3073  (low_d + 1)*DIFFICULTY_INTERVAL - total_staked */\n      tag_238\n      swap2\n      swap1\n      tag_149\n      jump\t// in\n    tag_238:\n        /* \"contracts/ModuleX.sol\":3013:3074  SCALE_FACTOR*((low_d + 1)*DIFFICULTY_INTERVAL - total_staked) */\n      tag_239\n      swap1\n        /* \"contracts/ModuleX.sol\":3013:3025  SCALE_FACTOR */\n      dup8\n        /* \"contracts/ModuleX.sol\":3013:3074  SCALE_FACTOR*((low_d + 1)*DIFFICULTY_INTERVAL - total_staked) */\n      tag_237\n      jump\t// in\n    tag_239:\n        /* \"contracts/ModuleX.sol\":3013:3095  SCALE_FACTOR*((low_d + 1)*DIFFICULTY_INTERVAL - total_staked)/(low_d + DIFFICULTY) */\n      tag_240\n      swap2\n      swap1\n      tag_183\n      jump\t// in\n    tag_240:\n        /* \"contracts/ModuleX.sol\":3000:3095  uint low_r = SCALE_FACTOR*((low_d + 1)*DIFFICULTY_INTERVAL - total_staked)/(low_d + DIFFICULTY) */\n      swap1\n      pop\n        /* \"contracts/ModuleX.sol\":3110:3121  uint high_r */\n      0x00\n        /* \"contracts/ModuleX.sol\":3189:3199  DIFFICULTY */\n      sload(0x02)\n        /* \"contracts/ModuleX.sol\":3180:3186  high_d */\n      dup4\n        /* \"contracts/ModuleX.sol\":3180:3199  high_d + DIFFICULTY */\n      tag_241\n      swap2\n      swap1\n      tag_185\n      jump\t// in\n    tag_241:\n        /* \"contracts/ModuleX.sol\":3158:3177  DIFFICULTY_INTERVAL */\n      sload(0x03)\n        /* \"contracts/ModuleX.sol\":3151:3177  high_d*DIFFICULTY_INTERVAL */\n      tag_242\n      swap1\n        /* \"contracts/ModuleX.sol\":3151:3157  high_d */\n      dup6\n        /* \"contracts/ModuleX.sol\":3151:3177  high_d*DIFFICULTY_INTERVAL */\n      tag_237\n      jump\t// in\n    tag_242:\n        /* \"contracts/ModuleX.sol\":3138:3177  curr_total - high_d*DIFFICULTY_INTERVAL */\n      tag_243\n      swap1\n        /* \"contracts/ModuleX.sol\":3138:3148  curr_total */\n      dup8\n        /* \"contracts/ModuleX.sol\":3138:3177  curr_total - high_d*DIFFICULTY_INTERVAL */\n      tag_149\n      jump\t// in\n    tag_243:\n        /* \"contracts/ModuleX.sol\":3124:3178  SCALE_FACTOR*(curr_total - high_d*DIFFICULTY_INTERVAL) */\n      tag_244\n      swap1\n        /* \"contracts/ModuleX.sol\":3124:3136  SCALE_FACTOR */\n      dup9\n        /* \"contracts/ModuleX.sol\":3124:3178  SCALE_FACTOR*(curr_total - high_d*DIFFICULTY_INTERVAL) */\n      tag_237\n      jump\t// in\n    tag_244:\n        /* \"contracts/ModuleX.sol\":3124:3200  SCALE_FACTOR*(curr_total - high_d*DIFFICULTY_INTERVAL)/(high_d + DIFFICULTY) */\n      tag_245\n      swap2\n      swap1\n      tag_183\n      jump\t// in\n    tag_245:\n        /* \"contracts/ModuleX.sol\":3110:3200  uint high_r = SCALE_FACTOR*(curr_total - high_d*DIFFICULTY_INTERVAL)/(high_d + DIFFICULTY) */\n      swap1\n      pop\n        /* \"contracts/ModuleX.sol\":3215:3228  uint middle_r */\n      0x00\n      dup1\n        /* \"contracts/ModuleX.sol\":3258:3267  low_d + 1 */\n      tag_249\n        /* \"contracts/ModuleX.sol\":3258:3263  low_d */\n      dup7\n        /* \"contracts/ModuleX.sol\":3266:3267  1 */\n      0x01\n        /* \"contracts/ModuleX.sol\":3258:3267  low_d + 1 */\n      tag_185\n      jump\t// in\n    tag_249:\n        /* \"contracts/ModuleX.sol\":3251:3267  uint i=low_d + 1 */\n      swap1\n      pop\n        /* \"contracts/ModuleX.sol\":3247:3395  for(uint i=low_d + 1; i < high_d; i++)... */\n    tag_246:\n        /* \"contracts/ModuleX.sol\":3273:3279  high_d */\n      dup5\n        /* \"contracts/ModuleX.sol\":3269:3270  i */\n      dup2\n        /* \"contracts/ModuleX.sol\":3269:3279  i < high_d */\n      lt\n        /* \"contracts/ModuleX.sol\":3247:3395  for(uint i=low_d + 1; i < high_d; i++)... */\n      iszero\n      tag_247\n      jumpi\n        /* \"contracts/ModuleX.sol\":3368:3378  DIFFICULTY */\n      sload(0x02)\n        /* \"contracts/ModuleX.sol\":3364:3378  i + DIFFICULTY */\n      tag_250\n      swap1\n        /* \"contracts/ModuleX.sol\":3364:3365  i */\n      dup3\n        /* \"contracts/ModuleX.sol\":3364:3378  i + DIFFICULTY */\n      tag_185\n      jump\t// in\n    tag_250:\n        /* \"contracts/ModuleX.sol\":3343:3362  DIFFICULTY_INTERVAL */\n      sload(0x03)\n        /* \"contracts/ModuleX.sol\":3330:3362  SCALE_FACTOR*DIFFICULTY_INTERVAL */\n      tag_251\n      swap1\n        /* \"contracts/ModuleX.sol\":3330:3342  SCALE_FACTOR */\n      dup11\n        /* \"contracts/ModuleX.sol\":3330:3362  SCALE_FACTOR*DIFFICULTY_INTERVAL */\n      tag_237\n      jump\t// in\n    tag_251:\n        /* \"contracts/ModuleX.sol\":3330:3379  SCALE_FACTOR*DIFFICULTY_INTERVAL/(i + DIFFICULTY) */\n      tag_252\n      swap2\n      swap1\n      tag_183\n      jump\t// in\n    tag_252:\n        /* \"contracts/ModuleX.sol\":3318:3379  middle_r += SCALE_FACTOR*DIFFICULTY_INTERVAL/(i + DIFFICULTY) */\n      tag_253\n      swap1\n      dup4\n      tag_185\n      jump\t// in\n    tag_253:\n      swap2\n      pop\n        /* \"contracts/ModuleX.sol\":3281:3284  i++ */\n      0x01\n      add\n        /* \"contracts/ModuleX.sol\":3247:3395  for(uint i=low_d + 1; i < high_d; i++)... */\n      jump(tag_246)\n    tag_247:\n      pop\n        /* \"contracts/ModuleX.sol\":3444:3456  SCALE_FACTOR */\n      dup7\n        /* \"contracts/ModuleX.sol\":3436:3442  high_r */\n      dup3\n        /* \"contracts/ModuleX.sol\":3417:3433  low_r + middle_r */\n      tag_254\n        /* \"contracts/ModuleX.sol\":3425:3433  middle_r */\n      dup4\n        /* \"contracts/ModuleX.sol\":3417:3422  low_r */\n      dup7\n        /* \"contracts/ModuleX.sol\":3417:3433  low_r + middle_r */\n      tag_185\n      jump\t// in\n    tag_254:\n        /* \"contracts/ModuleX.sol\":3417:3442  low_r + middle_r + high_r */\n      tag_255\n      swap2\n      swap1\n      tag_185\n      jump\t// in\n    tag_255:\n        /* \"contracts/ModuleX.sol\":3416:3456  (low_r + middle_r + high_r)/SCALE_FACTOR */\n      tag_256\n      swap2\n      swap1\n      tag_183\n      jump\t// in\n    tag_256:\n        /* \"contracts/ModuleX.sol\":3409:3456  return (low_r + middle_r + high_r)/SCALE_FACTOR */\n      swap10\n        /* \"contracts/ModuleX.sol\":2575:3475  function calculateReward(uint stake_amount) public view returns(uint)... */\n      swap9\n      pop\n      pop\n      pop\n      pop\n      pop\n      pop\n      pop\n      pop\n      pop\n      jump\t// out\n        /* \"contracts/ModuleX.sol\":6823:7103  function withdrawRewards(address to, uint amount) external onlyOwner... */\n    tag_111:\n        /* \"@openzeppelin/contracts/access/Ownable.sol\":1531:1544  _checkOwner() */\n      tag_259\n        /* \"@openzeppelin/contracts/access/Ownable.sol\":1531:1542  _checkOwner */\n      tag_124\n        /* \"@openzeppelin/contracts/access/Ownable.sol\":1531:1544  _checkOwner() */\n      jump\t// in\n    tag_259:\n        /* \"contracts/ModuleX.sol\":6960:6976  pending_payments */\n      sload(0x06)\n        /* \"contracts/ModuleX.sol\":6951:6976  amount + pending_payments */\n      tag_261\n      swap1\n        /* \"contracts/ModuleX.sol\":6951:6957  amount */\n      dup3\n        /* \"contracts/ModuleX.sol\":6951:6976  amount + pending_payments */\n      tag_185\n      jump\t// in\n    tag_261:\n        /* \"contracts/ModuleX.sol\":6916:6947  xCREDI.balanceOf(address(this)) */\n      mload(0x40)\n      0x70a0823100000000000000000000000000000000000000000000000000000000\n      dup2\n      mstore\n        /* \"contracts/ModuleX.sol\":6941:6945  this */\n      address\n        /* \"contracts/ModuleX.sol\":6916:6947  xCREDI.balanceOf(address(this)) */\n      0x04\n      dup3\n      add\n        /* \"#utility.yul\":587:661   */\n      mstore\n        /* \"contracts/ModuleX.sol\":6916:6922  xCREDI */\n      immutable(\"0x0d39e801c12a1db7a049a11375544bfecda5660c1466262d86703950d5bcb07f\")\n      sub(shl(0xa0, 0x01), 0x01)\n        /* \"contracts/ModuleX.sol\":6916:6932  xCREDI.balanceOf */\n      and\n      swap1\n      0x70a08231\n      swap1\n        /* \"#utility.yul\":560:578   */\n      0x24\n      add\n        /* \"contracts/ModuleX.sol\":6916:6947  xCREDI.balanceOf(address(this)) */\n      0x20\n      mload(0x40)\n      dup1\n      dup4\n      sub\n      dup2\n      dup7\n      gas\n      staticcall\n      iszero\n      dup1\n      iszero\n      tag_264\n      jumpi\n      returndatacopy(0x00, 0x00, returndatasize)\n      revert(0x00, returndatasize)\n    tag_264:\n      pop\n      pop\n      pop\n      pop\n      mload(0x40)\n      returndatasize\n      not(0x1f)\n      0x1f\n      dup3\n      add\n      and\n      dup3\n      add\n      dup1\n      0x40\n      mstore\n      pop\n      dup2\n      add\n      swap1\n      tag_265\n      swap2\n      swap1\n      tag_266\n      jump\t// in\n    tag_265:\n        /* \"contracts/ModuleX.sol\":6916:6976  xCREDI.balanceOf(address(this)) >= amount + pending_payments */\n      lt\n      iszero\n        /* \"contracts/ModuleX.sol\":6908:7010  require(xCREDI.balanceOf(address(this)) >= amount + pending_payments, \"ModuleX:Insufficient balance!\") */\n      tag_267\n      jumpi\n      mload(0x40)\n      shl(0xe5, 0x461bcd)\n      dup2\n      mstore\n        /* \"#utility.yul\":7319:7321   */\n      0x20\n        /* \"contracts/ModuleX.sol\":6908:7010  require(xCREDI.balanceOf(address(this)) >= amount + pending_payments, \"ModuleX:Insufficient balance!\") */\n      0x04\n      dup3\n      add\n        /* \"#utility.yul\":7301:7322   */\n      mstore\n        /* \"#utility.yul\":7358:7360   */\n      0x1d\n        /* \"#utility.yul\":7338:7356   */\n      0x24\n      dup3\n      add\n        /* \"#utility.yul\":7331:7361   */\n      mstore\n        /* \"#utility.yul\":7397:7428   */\n      0x4d6f64756c65583a496e73756666696369656e742062616c616e636521000000\n        /* \"#utility.yul\":7377:7395   */\n      0x44\n      dup3\n      add\n        /* \"#utility.yul\":7370:7429   */\n      mstore\n        /* \"#utility.yul\":7446:7464   */\n      0x64\n      add\n        /* \"contracts/ModuleX.sol\":6908:7010  require(xCREDI.balanceOf(address(this)) >= amount + pending_payments, \"ModuleX:Insufficient balance!\") */\n      tag_129\n        /* \"#utility.yul\":7117:7470   */\n      jump\n        /* \"contracts/ModuleX.sol\":6908:7010  require(xCREDI.balanceOf(address(this)) >= amount + pending_payments, \"ModuleX:Insufficient balance!\") */\n    tag_267:\n        /* \"contracts/ModuleX.sol\":7021:7052  xCREDI.safeTransfer(to, amount) */\n      tag_269\n      sub(shl(0xa0, 0x01), 0x01)\n        /* \"contracts/ModuleX.sol\":7021:7027  xCREDI */\n      immutable(\"0x0d39e801c12a1db7a049a11375544bfecda5660c1466262d86703950d5bcb07f\")\n        /* \"contracts/ModuleX.sol\":7021:7040  xCREDI.safeTransfer */\n      and\n        /* \"contracts/ModuleX.sol\":7041:7043  to */\n      dup4\n        /* \"contracts/ModuleX.sol\":7045:7051  amount */\n      dup4\n        /* \"contracts/ModuleX.sol\":7021:7040  xCREDI.safeTransfer */\n      tag_147\n        /* \"contracts/ModuleX.sol\":7021:7052  xCREDI.safeTransfer(to, amount) */\n      jump\t// in\n    tag_269:\n        /* \"contracts/ModuleX.sol\":7084:7086  to */\n      dup2\n      sub(shl(0xa0, 0x01), 0x01)\n        /* \"contracts/ModuleX.sol\":7068:7095  RewardWithdrawn(to, amount) */\n      and\n      0x1d3eee4ca001cff39eec6ec7615aacf2f2bd61791273830728ba00ccbd6e1337\n        /* \"contracts/ModuleX.sol\":7088:7094  amount */\n      dup3\n        /* \"contracts/ModuleX.sol\":7068:7095  RewardWithdrawn(to, amount) */\n      mload(0x40)\n      tag_270\n      swap2\n        /* \"#utility.yul\":160:185   */\n      dup2\n      mstore\n        /* \"#utility.yul\":148:150   */\n      0x20\n        /* \"#utility.yul\":133:151   */\n      add\n      swap1\n        /* \"#utility.yul\":14:191   */\n      jump\n        /* \"contracts/ModuleX.sol\":7068:7095  RewardWithdrawn(to, amount) */\n    tag_270:\n      mload(0x40)\n      dup1\n      swap2\n      sub\n      swap1\n      log2\n        /* \"contracts/ModuleX.sol\":6823:7103  function withdrawRewards(address to, uint amount) external onlyOwner... */\n      pop\n      pop\n      jump\t// out\n        /* \"contracts/ModuleX.sol\":3620:4608  function stake(uint96 lock_period, uint stake_amount) external returns(uint, uint)... */\n    tag_115:\n        /* \"contracts/ModuleX.sol\":3691:3695  uint */\n      0x00\n        /* \"contracts/ModuleX.sol\":3728:3735  stopped */\n      dup1\n      sload\n        /* \"contracts/ModuleX.sol\":3691:3695  uint */\n      dup2\n      swap1\n      shl(0xa0, 0x01)\n        /* \"contracts/ModuleX.sol\":3728:3735  stopped */\n      swap1\n      div\n      0xff\n      and\n        /* \"contracts/ModuleX.sol\":3727:3735  !stopped */\n      iszero\n        /* \"contracts/ModuleX.sol\":3719:3756  require(!stopped, \"ModuleX:STOPPED!\") */\n      tag_272\n      jumpi\n      mload(0x40)\n      shl(0xe5, 0x461bcd)\n      dup2\n      mstore\n        /* \"#utility.yul\":8992:8994   */\n      0x20\n        /* \"contracts/ModuleX.sol\":3719:3756  require(!stopped, \"ModuleX:STOPPED!\") */\n      0x04\n      dup3\n      add\n        /* \"#utility.yul\":8974:8995   */\n      mstore\n        /* \"#utility.yul\":9031:9033   */\n      0x10\n        /* \"#utility.yul\":9011:9029   */\n      0x24\n      dup3\n      add\n        /* \"#utility.yul\":9004:9034   */\n      mstore\n        /* \"#utility.yul\":9070:9088   */\n      0x4d6f64756c65583a53544f505045442100000000000000000000000000000000\n        /* \"#utility.yul\":9050:9068   */\n      0x44\n      dup3\n      add\n        /* \"#utility.yul\":9043:9089   */\n      mstore\n        /* \"#utility.yul\":9106:9124   */\n      0x64\n      add\n        /* \"contracts/ModuleX.sol\":3719:3756  require(!stopped, \"ModuleX:STOPPED!\") */\n      tag_129\n        /* \"#utility.yul\":8790:9130   */\n      jump\n        /* \"contracts/ModuleX.sol\":3719:3756  require(!stopped, \"ModuleX:STOPPED!\") */\n    tag_272:\n        /* \"contracts/ModuleX.sol\":3790:3791  0 */\n      0x00\n        /* \"contracts/ModuleX.sol\":3775:3787  stake_amount */\n      dup4\n        /* \"contracts/ModuleX.sol\":3775:3791  stake_amount > 0 */\n      gt\n        /* \"contracts/ModuleX.sol\":3767:3840  require(stake_amount > 0, \"ModuleX:Stake amount must be greater than 0!\") */\n      tag_275\n      jumpi\n      mload(0x40)\n      shl(0xe5, 0x461bcd)\n      dup2\n      mstore\n        /* \"#utility.yul\":9337:9339   */\n      0x20\n        /* \"contracts/ModuleX.sol\":3767:3840  require(stake_amount > 0, \"ModuleX:Stake amount must be greater than 0!\") */\n      0x04\n      dup3\n      add\n        /* \"#utility.yul\":9319:9340   */\n      mstore\n        /* \"#utility.yul\":9376:9378   */\n      0x2c\n        /* \"#utility.yul\":9356:9374   */\n      0x24\n      dup3\n      add\n        /* \"#utility.yul\":9349:9379   */\n      mstore\n        /* \"#utility.yul\":9415:9449   */\n      0x4d6f64756c65583a5374616b6520616d6f756e74206d75737420626520677265\n        /* \"#utility.yul\":9395:9413   */\n      0x44\n      dup3\n      add\n        /* \"#utility.yul\":9388:9450   */\n      mstore\n        /* \"#utility.yul\":9486:9500   */\n      0x61746572207468616e2030210000000000000000000000000000000000000000\n        /* \"#utility.yul\":9466:9484   */\n      0x64\n      dup3\n      add\n        /* \"#utility.yul\":9459:9501   */\n      mstore\n        /* \"#utility.yul\":9518:9537   */\n      0x84\n      add\n        /* \"contracts/ModuleX.sol\":3767:3840  require(stake_amount > 0, \"ModuleX:Stake amount must be greater than 0!\") */\n      tag_129\n        /* \"#utility.yul\":9135:9543   */\n      jump\n        /* \"contracts/ModuleX.sol\":3767:3840  require(stake_amount > 0, \"ModuleX:Stake amount must be greater than 0!\") */\n    tag_275:\n        /* \"contracts/ModuleX.sol\":577:585  180 days */\n      0xed4e00\n      sub(shl(0x60, 0x01), 0x01)\n        /* \"contracts/ModuleX.sol\":3859:3882  lock_period >= MATURITY */\n      dup6\n      and\n      lt\n      iszero\n        /* \"contracts/ModuleX.sol\":3851:3918  require(lock_period >= MATURITY, \"ModuleX:Use longer lock_period!\") */\n      tag_278\n      jumpi\n      mload(0x40)\n      shl(0xe5, 0x461bcd)\n      dup2\n      mstore\n        /* \"#utility.yul\":9750:9752   */\n      0x20\n        /* \"contracts/ModuleX.sol\":3851:3918  require(lock_period >= MATURITY, \"ModuleX:Use longer lock_period!\") */\n      0x04\n      dup3\n      add\n        /* \"#utility.yul\":9732:9753   */\n      mstore\n        /* \"#utility.yul\":9789:9791   */\n      0x1f\n        /* \"#utility.yul\":9769:9787   */\n      0x24\n      dup3\n      add\n        /* \"#utility.yul\":9762:9792   */\n      mstore\n        /* \"#utility.yul\":9828:9861   */\n      0x4d6f64756c65583a557365206c6f6e676572206c6f636b5f706572696f642100\n        /* \"#utility.yul\":9808:9826   */\n      0x44\n      dup3\n      add\n        /* \"#utility.yul\":9801:9862   */\n      mstore\n        /* \"#utility.yul\":9879:9897   */\n      0x64\n      add\n        /* \"contracts/ModuleX.sol\":3851:3918  require(lock_period >= MATURITY, \"ModuleX:Use longer lock_period!\") */\n      tag_129\n        /* \"#utility.yul\":9548:9903   */\n      jump\n        /* \"contracts/ModuleX.sol\":3851:3918  require(lock_period >= MATURITY, \"ModuleX:Use longer lock_period!\") */\n    tag_278:\n        /* \"contracts/ModuleX.sol\":3929:3994  CREDI.safeTransferFrom(_msgSender(), address(this), stake_amount) */\n      tag_281\n        /* \"contracts/ModuleX.sol\":3929:3934  CREDI */\n      immutable(\"0xad444e1082e5d5bbfca385a9a566a2d71dbd349bb06a97871f0be4657884f8e0\")\n      sub(shl(0xa0, 0x01), 0x01)\n        /* \"contracts/ModuleX.sol\":3929:3951  CREDI.safeTransferFrom */\n      and\n        /* \"@openzeppelin/contracts/utils/Context.sol\":735:745  msg.sender */\n      caller\n        /* \"contracts/ModuleX.sol\":3974:3978  this */\n      address\n        /* \"contracts/ModuleX.sol\":3981:3993  stake_amount */\n      dup7\n        /* \"contracts/ModuleX.sol\":3929:3951  CREDI.safeTransferFrom */\n      tag_216\n        /* \"contracts/ModuleX.sol\":3929:3994  CREDI.safeTransferFrom(_msgSender(), address(this), stake_amount) */\n      jump\t// in\n    tag_281:\n        /* \"contracts/ModuleX.sol\":4006:4021  uint96 maturity */\n      0x00\n        /* \"contracts/ModuleX.sol\":4024:4048  time_now() + lock_period */\n      tag_284\n        /* \"contracts/ModuleX.sol\":4037:4048  lock_period */\n      dup6\n        /* \"contracts/ModuleX.sol\":2543:2558  block.timestamp */\n      timestamp\n        /* \"contracts/ModuleX.sol\":4024:4048  time_now() + lock_period */\n      tag_285\n      jump\t// in\n    tag_284:\n        /* \"contracts/ModuleX.sol\":4006:4048  uint96 maturity = time_now() + lock_period */\n      swap1\n      pop\n        /* \"contracts/ModuleX.sol\":4059:4077  uint reward_amount */\n      0x00\n        /* \"contracts/ModuleX.sol\":4080:4109  calculateReward(stake_amount) */\n      tag_286\n        /* \"contracts/ModuleX.sol\":4096:4108  stake_amount */\n      dup6\n        /* \"contracts/ModuleX.sol\":4080:4095  calculateReward */\n      tag_103\n        /* \"contracts/ModuleX.sol\":4080:4109  calculateReward(stake_amount) */\n      jump\t// in\n    tag_286:\n        /* \"contracts/ModuleX.sol\":4059:4109  uint reward_amount = calculateReward(stake_amount) */\n      swap1\n      pop\n        /* \"contracts/ModuleX.sol\":4120:4133  uint stake_id */\n      0x00\n        /* \"contracts/ModuleX.sol\":4136:4148  stakes_count */\n      sload(0x05)\n        /* \"contracts/ModuleX.sol\":4120:4148  uint stake_id = stakes_count */\n      swap1\n      pop\n        /* \"contracts/ModuleX.sol\":4178:4354  StakeDetails({... */\n      mload(0x40)\n      dup1\n      0x80\n      add\n      0x40\n      mstore\n      dup1\n        /* \"contracts/ModuleX.sol\":4213:4225  _msgSender() */\n      tag_287\n        /* \"@openzeppelin/contracts/utils/Context.sol\":735:745  msg.sender */\n      caller\n      swap1\n        /* \"@openzeppelin/contracts/utils/Context.sol\":656:752  function _msgSender() internal view virtual returns (address) {... */\n      jump\n        /* \"contracts/ModuleX.sol\":4213:4225  _msgSender() */\n    tag_287:\n      sub(shl(0xa0, 0x01), 0x01)\n        /* \"contracts/ModuleX.sol\":4178:4354  StakeDetails({... */\n      swap1\n      dup2\n      and\n      dup3\n      mstore\n      sub(shl(0x60, 0x01), 0x01)\n      dup1\n      dup8\n      and\n      0x20\n      dup1\n      dup6\n      add\n      swap2\n      swap1\n      swap2\n      mstore\n      0x40\n      dup1\n      dup6\n      add\n      dup13\n      swap1\n      mstore\n      0x60\n      swap5\n      dup6\n      add\n      dup9\n      swap1\n      mstore\n      0x00\n        /* \"contracts/ModuleX.sol\":4159:4175  stakes[stake_id] */\n      dup8\n      dup2\n      mstore\n        /* \"contracts/ModuleX.sol\":4159:4165  stakes */\n      0x04\n        /* \"contracts/ModuleX.sol\":4159:4175  stakes[stake_id] */\n      dup4\n      mstore\n      dup2\n      dup2\n      keccak256\n        /* \"contracts/ModuleX.sol\":4159:4354  stakes[stake_id] = StakeDetails({... */\n      dup8\n      mload\n      swap4\n      dup9\n      add\n      mload\n      swap1\n      swap5\n      and\n      shl(0xa0, 0x01)\n      mul\n      swap3\n      swap1\n      swap5\n      and\n      swap2\n      swap1\n      swap2\n      or\n      dup3\n      sstore\n      dup5\n      add\n      mload\n      0x01\n      dup1\n      dup4\n      add\n      swap2\n      swap1\n      swap2\n      sstore\n      swap4\n      swap1\n      swap3\n      add\n      mload\n      0x02\n      swap1\n      swap3\n      add\n      swap2\n      swap1\n      swap2\n      sstore\n        /* \"contracts/ModuleX.sol\":4375:4403  total_staked += stake_amount */\n      dup2\n      sload\n        /* \"contracts/ModuleX.sol\":4287:4299  stake_amount */\n      dup9\n      swap3\n        /* \"contracts/ModuleX.sol\":4159:4354  stakes[stake_id] = StakeDetails({... */\n      swap2\n      swap1\n        /* \"contracts/ModuleX.sol\":4375:4403  total_staked += stake_amount */\n      tag_288\n      swap1\n        /* \"contracts/ModuleX.sol\":4287:4299  stake_amount */\n      dup5\n      swap1\n        /* \"contracts/ModuleX.sol\":4375:4403  total_staked += stake_amount */\n      tag_185\n      jump\t// in\n    tag_288:\n      swap3\n      pop\n      pop\n      dup2\n      swap1\n      sstore\n      pop\n        /* \"contracts/ModuleX.sol\":4435:4448  reward_amount */\n      dup2\n        /* \"contracts/ModuleX.sol\":4415:4431  pending_payments */\n      0x06\n      0x00\n        /* \"contracts/ModuleX.sol\":4415:4448  pending_payments += reward_amount */\n      dup3\n      dup3\n      sload\n      tag_289\n      swap2\n      swap1\n      tag_185\n      jump\t// in\n    tag_289:\n      swap1\n      swap2\n      sstore\n      pop\n      pop\n        /* \"contracts/ModuleX.sol\":4464:4533  Staked(_msgSender(), stake_id, maturity, stake_amount, reward_amount) */\n      0x40\n      dup1\n      mload\n        /* \"#utility.yul\":10357:10382   */\n      dup3\n      dup2\n      mstore\n      sub(shl(0x60, 0x01), 0x01)\n        /* \"#utility.yul\":10418:10457   */\n      dup6\n      and\n        /* \"#utility.yul\":10413:10415   */\n      0x20\n        /* \"#utility.yul\":10398:10416   */\n      dup3\n      add\n        /* \"#utility.yul\":10391:10458   */\n      mstore\n        /* \"#utility.yul\":10474:10492   */\n      dup1\n      dup3\n      add\n        /* \"#utility.yul\":10467:10501   */\n      dup9\n      swap1\n      mstore\n        /* \"#utility.yul\":10532:10534   */\n      0x60\n        /* \"#utility.yul\":10517:10535   */\n      dup2\n      add\n        /* \"#utility.yul\":10510:10544   */\n      dup5\n      swap1\n      mstore\n        /* \"contracts/ModuleX.sol\":4464:4533  Staked(_msgSender(), stake_id, maturity, stake_amount, reward_amount) */\n      swap1\n      mload\n        /* \"@openzeppelin/contracts/utils/Context.sol\":735:745  msg.sender */\n      caller\n      swap2\n        /* \"contracts/ModuleX.sol\":4464:4533  Staked(_msgSender(), stake_id, maturity, stake_amount, reward_amount) */\n      0x24fe2d25c10eb2c67b5ac1e3edbcadc94191e154ed388ad667a9480c44f47146\n      swap2\n      swap1\n      dup2\n      swap1\n      sub\n        /* \"#utility.yul\":10344:10347   */\n      0x80\n        /* \"contracts/ModuleX.sol\":4464:4533  Staked(_msgSender(), stake_id, maturity, stake_amount, reward_amount) */\n      add\n      swap1\n      log2\n        /* \"contracts/ModuleX.sol\":4544:4556  stakes_count */\n      0x05\n        /* \"contracts/ModuleX.sol\":4544:4558  stakes_count++ */\n      dup1\n      sload\n      swap1\n        /* \"contracts/ModuleX.sol\":4544:4556  stakes_count */\n      0x00\n        /* \"contracts/ModuleX.sol\":4544:4558  stakes_count++ */\n      tag_293\n      dup4\n      tag_294\n      jump\t// in\n    tag_293:\n      swap1\n      swap2\n      sstore\n      pop\n        /* \"contracts/ModuleX.sol\":4576:4584  stake_id */\n      swap1\n      swap8\n        /* \"contracts/ModuleX.sol\":4586:4599  reward_amount */\n      swap2\n      swap7\n      pop\n        /* \"contracts/ModuleX.sol\":3620:4608  function stake(uint96 lock_period, uint stake_amount) external returns(uint, uint)... */\n      swap1\n      swap5\n      pop\n      pop\n      pop\n      pop\n      pop\n      jump\t// out\n        /* \"@openzeppelin/contracts/access/Ownable.sol\":2543:2758  function transferOwnership(address newOwner) public virtual onlyOwner {... */\n    tag_121:\n        /* \"@openzeppelin/contracts/access/Ownable.sol\":1531:1544  _checkOwner() */\n      tag_296\n        /* \"@openzeppelin/contracts/access/Ownable.sol\":1531:1542  _checkOwner */\n      tag_124\n        /* \"@openzeppelin/contracts/access/Ownable.sol\":1531:1544  _checkOwner() */\n      jump\t// in\n    tag_296:\n      sub(shl(0xa0, 0x01), 0x01)\n        /* \"@openzeppelin/contracts/access/Ownable.sol\":2627:2649  newOwner == address(0) */\n      dup2\n      and\n        /* \"@openzeppelin/contracts/access/Ownable.sol\":2623:2714  if (newOwner == address(0)) {... */\n      tag_298\n      jumpi\n        /* \"@openzeppelin/contracts/access/Ownable.sol\":2672:2703  OwnableInvalidOwner(address(0)) */\n      mload(0x40)\n      0x1e4fbdf700000000000000000000000000000000000000000000000000000000\n      dup2\n      mstore\n        /* \"@openzeppelin/contracts/access/Ownable.sol\":2700:2701  0 */\n      0x00\n        /* \"@openzeppelin/contracts/access/Ownable.sol\":2672:2703  OwnableInvalidOwner(address(0)) */\n      0x04\n      dup3\n      add\n        /* \"#utility.yul\":587:661   */\n      mstore\n        /* \"#utility.yul\":560:578   */\n      0x24\n      add\n        /* \"@openzeppelin/contracts/access/Ownable.sol\":2672:2703  OwnableInvalidOwner(address(0)) */\n      tag_129\n        /* \"#utility.yul\":427:667   */\n      jump\n        /* \"@openzeppelin/contracts/access/Ownable.sol\":2623:2714  if (newOwner == address(0)) {... */\n    tag_298:\n        /* \"@openzeppelin/contracts/access/Ownable.sol\":2723:2751  _transferOwnership(newOwner) */\n      tag_300\n        /* \"@openzeppelin/contracts/access/Ownable.sol\":2742:2750  newOwner */\n      dup2\n        /* \"@openzeppelin/contracts/access/Ownable.sol\":2723:2741  _transferOwnership */\n      tag_155\n        /* \"@openzeppelin/contracts/access/Ownable.sol\":2723:2751  _transferOwnership(newOwner) */\n      jump\t// in\n    tag_300:\n        /* \"@openzeppelin/contracts/access/Ownable.sol\":2543:2758  function transferOwnership(address newOwner) public virtual onlyOwner {... */\n      pop\n      jump\t// out\n        /* \"@openzeppelin/contracts/access/Ownable.sol\":1796:1958  function _checkOwner() internal view virtual {... */\n    tag_124:\n        /* \"@openzeppelin/contracts/access/Ownable.sol\":1684:1691  address */\n      0x00\n        /* \"@openzeppelin/contracts/access/Ownable.sol\":1710:1716  _owner */\n      sload\n      sub(shl(0xa0, 0x01), 0x01)\n      and\n        /* \"@openzeppelin/contracts/utils/Context.sol\":735:745  msg.sender */\n      caller\n        /* \"@openzeppelin/contracts/access/Ownable.sol\":1855:1878  owner() != _msgSender() */\n      eq\n        /* \"@openzeppelin/contracts/access/Ownable.sol\":1851:1952  if (owner() != _msgSender()) {... */\n      tag_154\n      jumpi\n        /* \"@openzeppelin/contracts/access/Ownable.sol\":1901:1941  OwnableUnauthorizedAccount(_msgSender()) */\n      mload(0x40)\n      0x118cdaa700000000000000000000000000000000000000000000000000000000\n      dup2\n      mstore\n        /* \"@openzeppelin/contracts/utils/Context.sol\":735:745  msg.sender */\n      caller\n        /* \"@openzeppelin/contracts/access/Ownable.sol\":1901:1941  OwnableUnauthorizedAccount(_msgSender()) */\n      0x04\n      dup3\n      add\n        /* \"#utility.yul\":587:661   */\n      mstore\n        /* \"#utility.yul\":560:578   */\n      0x24\n      add\n        /* \"@openzeppelin/contracts/access/Ownable.sol\":1901:1941  OwnableUnauthorizedAccount(_msgSender()) */\n      tag_129\n        /* \"#utility.yul\":427:667   */\n      jump\n        /* \"@openzeppelin/contracts/token/ERC20/utils/SafeERC20.sol\":1219:1379  function safeTransfer(IERC20 token, address to, uint256 value) internal {... */\n    tag_147:\n        /* \"@openzeppelin/contracts/token/ERC20/utils/SafeERC20.sol\":1328:1371  abi.encodeCall(token.transfer, (to, value)) */\n      mload(0x40)\n      sub(shl(0xa0, 0x01), 0x01)\n        /* \"#utility.yul\":10887:10942   */\n      dup4\n      dup2\n      and\n        /* \"@openzeppelin/contracts/token/ERC20/utils/SafeERC20.sol\":1328:1371  abi.encodeCall(token.transfer, (to, value)) */\n      0x24\n      dup4\n      add\n        /* \"#utility.yul\":10869:10943   */\n      mstore\n        /* \"#utility.yul\":10959:10977   */\n      0x44\n      dup3\n      add\n        /* \"#utility.yul\":10952:10986   */\n      dup4\n      swap1\n      mstore\n        /* \"@openzeppelin/contracts/token/ERC20/utils/SafeERC20.sol\":1301:1372  _callOptionalReturn(token, abi.encodeCall(token.transfer, (to, value))) */\n      tag_209\n      swap2\n        /* \"@openzeppelin/contracts/token/ERC20/utils/SafeERC20.sol\":1321:1326  token */\n      dup6\n      swap2\n        /* \"@openzeppelin/contracts/token/ERC20/utils/SafeERC20.sol\":1343:1357  token.transfer */\n      dup3\n      and\n      swap1\n      0xa9059cbb\n      swap1\n        /* \"#utility.yul\":10842:10860   */\n      0x64\n      add\n        /* \"@openzeppelin/contracts/token/ERC20/utils/SafeERC20.sol\":1328:1371  abi.encodeCall(token.transfer, (to, value)) */\n    tag_311:\n      mload(0x40)\n      0x20\n      dup2\n      dup4\n      sub\n      sub\n      dup2\n      mstore\n      swap1\n      0x40\n      mstore\n      swap2\n      pop\n      0xe0\n      shl\n      0x20\n      dup3\n      add\n      dup1\n      mload\n      0xffffffffffffffffffffffffffffffffffffffffffffffffffffffff\n      dup4\n      dup2\n      dup4\n      and\n      or\n      dup4\n      mstore\n      pop\n      pop\n      pop\n      pop\n        /* \"@openzeppelin/contracts/token/ERC20/utils/SafeERC20.sol\":1301:1320  _callOptionalReturn */\n      tag_313\n        /* \"@openzeppelin/contracts/token/ERC20/utils/SafeERC20.sol\":1301:1372  _callOptionalReturn(token, abi.encodeCall(token.transfer, (to, value))) */\n      jump\t// in\n        /* \"@openzeppelin/contracts/access/Ownable.sol\":2912:3099  function _transferOwnership(address newOwner) internal virtual {... */\n    tag_155:\n        /* \"@openzeppelin/contracts/access/Ownable.sol\":2985:3001  address oldOwner */\n      0x00\n        /* \"@openzeppelin/contracts/access/Ownable.sol\":3004:3010  _owner */\n      dup1\n      sload\n      sub(shl(0xa0, 0x01), 0x01)\n        /* \"@openzeppelin/contracts/access/Ownable.sol\":3020:3037  _owner = newOwner */\n      dup4\n      dup2\n      and\n      0xffffffffffffffffffffffff0000000000000000000000000000000000000000\n      dup4\n      and\n      dup2\n      or\n      dup5\n      sstore\n        /* \"@openzeppelin/contracts/access/Ownable.sol\":3052:3092  OwnershipTransferred(oldOwner, newOwner) */\n      mload(0x40)\n        /* \"@openzeppelin/contracts/access/Ownable.sol\":3004:3010  _owner */\n      swap2\n      swap1\n      swap3\n      and\n      swap3\n      dup4\n      swap2\n        /* \"@openzeppelin/contracts/access/Ownable.sol\":3052:3092  OwnershipTransferred(oldOwner, newOwner) */\n      0x8be0079c531659141344cd1fd0a4f28419497f9722a3daafe3b4186f6b6457e0\n      swap2\n        /* \"@openzeppelin/contracts/access/Ownable.sol\":2985:3001  address oldOwner */\n      swap1\n        /* \"@openzeppelin/contracts/access/Ownable.sol\":3052:3092  OwnershipTransferred(oldOwner, newOwner) */\n      log3\n        /* \"@openzeppelin/contracts/access/Ownable.sol\":2975:3099  {... */\n      pop\n        /* \"@openzeppelin/contracts/access/Ownable.sol\":2912:3099  function _transferOwnership(address newOwner) internal virtual {... */\n      pop\n      jump\t// out\n        /* \"@openzeppelin/contracts/token/ERC20/utils/SafeERC20.sol\":1618:1806  function safeTransferFrom(IERC20 token, address from, address to, uint256 value) internal {... */\n    tag_216:\n        /* \"@openzeppelin/contracts/token/ERC20/utils/SafeERC20.sol\":1745:1798  abi.encodeCall(token.transferFrom, (from, to, value)) */\n      mload(0x40)\n      sub(shl(0xa0, 0x01), 0x01)\n        /* \"#utility.yul\":11217:11272   */\n      dup5\n      dup2\n      and\n        /* \"@openzeppelin/contracts/token/ERC20/utils/SafeERC20.sol\":1745:1798  abi.encodeCall(token.transferFrom, (from, to, value)) */\n      0x24\n      dup4\n      add\n        /* \"#utility.yul\":11199:11273   */\n      mstore\n        /* \"#utility.yul\":11309:11364   */\n      dup4\n      dup2\n      and\n        /* \"#utility.yul\":11289:11307   */\n      0x44\n      dup4\n      add\n        /* \"#utility.yul\":11282:11365   */\n      mstore\n        /* \"#utility.yul\":11381:11399   */\n      0x64\n      dup3\n      add\n        /* \"#utility.yul\":11374:11408   */\n      dup4\n      swap1\n      mstore\n        /* \"@openzeppelin/contracts/token/ERC20/utils/SafeERC20.sol\":1718:1799  _callOptionalReturn(token, abi.encodeCall(token.transferFrom, (from, to, value))) */\n      tag_316\n      swap2\n        /* \"@openzeppelin/contracts/token/ERC20/utils/SafeERC20.sol\":1738:1743  token */\n      dup7\n      swap2\n        /* \"@openzeppelin/contracts/token/ERC20/utils/SafeERC20.sol\":1760:1778  token.transferFrom */\n      dup3\n      and\n      swap1\n      0x23b872dd\n      swap1\n        /* \"#utility.yul\":11172:11190   */\n      0x84\n      add\n        /* \"@openzeppelin/contracts/token/ERC20/utils/SafeERC20.sol\":1745:1798  abi.encodeCall(token.transferFrom, (from, to, value)) */\n      tag_311\n        /* \"#utility.yul\":10997:11414   */\n      jump\n        /* \"@openzeppelin/contracts/token/ERC20/utils/SafeERC20.sol\":1718:1799  _callOptionalReturn(token, abi.encodeCall(token.transferFrom, (from, to, value))) */\n    tag_316:\n        /* \"@openzeppelin/contracts/token/ERC20/utils/SafeERC20.sol\":1618:1806  function safeTransferFrom(IERC20 token, address from, address to, uint256 value) internal {... */\n      pop\n      pop\n      pop\n      pop\n      jump\t// out\n        /* \"@openzeppelin/contracts/token/ERC20/utils/SafeERC20.sol\":8370:9090  function _callOptionalReturn(IERC20 token, bytes memory data) private {... */\n    tag_313:\n        /* \"@openzeppelin/contracts/token/ERC20/utils/SafeERC20.sol\":8450:8468  uint256 returnSize */\n      0x00\n        /* \"@openzeppelin/contracts/token/ERC20/utils/SafeERC20.sol\":8478:8497  uint256 returnValue */\n      0x00\n        /* \"@openzeppelin/contracts/token/ERC20/utils/SafeERC20.sol\":8616:8620  0x20 */\n      0x20\n        /* \"@openzeppelin/contracts/token/ERC20/utils/SafeERC20.sol\":8613:8614  0 */\n      0x00\n        /* \"@openzeppelin/contracts/token/ERC20/utils/SafeERC20.sol\":8606:8610  data */\n      dup5\n        /* \"@openzeppelin/contracts/token/ERC20/utils/SafeERC20.sol\":8600:8611  mload(data) */\n      mload\n        /* \"@openzeppelin/contracts/token/ERC20/utils/SafeERC20.sol\":8593:8597  0x20 */\n      0x20\n        /* \"@openzeppelin/contracts/token/ERC20/utils/SafeERC20.sol\":8587:8591  data */\n      dup7\n        /* \"@openzeppelin/contracts/token/ERC20/utils/SafeERC20.sol\":8583:8598  add(data, 0x20) */\n      add\n        /* \"@openzeppelin/contracts/token/ERC20/utils/SafeERC20.sol\":8580:8581  0 */\n      0x00\n        /* \"@openzeppelin/contracts/token/ERC20/utils/SafeERC20.sol\":8573:8578  token */\n      dup9\n        /* \"@openzeppelin/contracts/token/ERC20/utils/SafeERC20.sol\":8566:8571  gas() */\n      gas\n        /* \"@openzeppelin/contracts/token/ERC20/utils/SafeERC20.sol\":8561:8621  call(gas(), token, 0, add(data, 0x20), mload(data), 0, 0x20) */\n      call\n        /* \"@openzeppelin/contracts/token/ERC20/utils/SafeERC20.sol\":8673:8680  success */\n      dup1\n        /* \"@openzeppelin/contracts/token/ERC20/utils/SafeERC20.sol\":8663:8839  if iszero(success) {... */\n      tag_320\n      jumpi\n        /* \"@openzeppelin/contracts/token/ERC20/utils/SafeERC20.sol\":8717:8721  0x40 */\n      0x40\n        /* \"@openzeppelin/contracts/token/ERC20/utils/SafeERC20.sol\":8711:8722  mload(0x40) */\n      mload\n        /* \"@openzeppelin/contracts/token/ERC20/utils/SafeERC20.sol\":8762:8778  returndatasize() */\n      returndatasize\n        /* \"@openzeppelin/contracts/token/ERC20/utils/SafeERC20.sol\":8759:8760  0 */\n      0x00\n        /* \"@openzeppelin/contracts/token/ERC20/utils/SafeERC20.sol\":8754:8757  ptr */\n      dup3\n        /* \"@openzeppelin/contracts/token/ERC20/utils/SafeERC20.sol\":8739:8779  returndatacopy(ptr, 0, returndatasize()) */\n      returndatacopy\n        /* \"@openzeppelin/contracts/token/ERC20/utils/SafeERC20.sol\":8808:8824  returndatasize() */\n      returndatasize\n        /* \"@openzeppelin/contracts/token/ERC20/utils/SafeERC20.sol\":8803:8806  ptr */\n      dup2\n        /* \"@openzeppelin/contracts/token/ERC20/utils/SafeERC20.sol\":8796:8825  revert(ptr, returndatasize()) */\n      revert\n        /* \"@openzeppelin/contracts/token/ERC20/utils/SafeERC20.sol\":8663:8839  if iszero(success) {... */\n    tag_320:\n      pop\n      pop\n        /* \"@openzeppelin/contracts/token/ERC20/utils/SafeERC20.sol\":8916:8917  0 */\n      0x00\n        /* \"@openzeppelin/contracts/token/ERC20/utils/SafeERC20.sol\":8910:8918  mload(0) */\n      mload\n        /* \"@openzeppelin/contracts/token/ERC20/utils/SafeERC20.sol\":8866:8882  returndatasize() */\n      returndatasize\n      swap2\n      pop\n        /* \"@openzeppelin/contracts/token/ERC20/utils/SafeERC20.sol\":8942:8957  returnSize == 0 */\n      dup2\n      iszero\n        /* \"@openzeppelin/contracts/token/ERC20/utils/SafeERC20.sol\":8942:9010  returnSize == 0 ? address(token).code.length == 0 : returnValue != 1 */\n      tag_321\n      jumpi\n        /* \"@openzeppelin/contracts/token/ERC20/utils/SafeERC20.sol\":8994:9005  returnValue */\n      dup1\n        /* \"@openzeppelin/contracts/token/ERC20/utils/SafeERC20.sol\":9009:9010  1 */\n      0x01\n        /* \"@openzeppelin/contracts/token/ERC20/utils/SafeERC20.sol\":8994:9010  returnValue != 1 */\n      eq\n      iszero\n        /* \"@openzeppelin/contracts/token/ERC20/utils/SafeERC20.sol\":8942:9010  returnSize == 0 ? address(token).code.length == 0 : returnValue != 1 */\n      jump(tag_322)\n    tag_321:\n      sub(shl(0xa0, 0x01), 0x01)\n        /* \"@openzeppelin/contracts/token/ERC20/utils/SafeERC20.sol\":8960:8986  address(token).code.length */\n      dup5\n      and\n      extcodesize\n        /* \"@openzeppelin/contracts/token/ERC20/utils/SafeERC20.sol\":8960:8991  address(token).code.length == 0 */\n      iszero\n        /* \"@openzeppelin/contracts/token/ERC20/utils/SafeERC20.sol\":8942:9010  returnSize == 0 ? address(token).code.length == 0 : returnValue != 1 */\n    tag_322:\n        /* \"@openzeppelin/contracts/token/ERC20/utils/SafeERC20.sol\":8938:9084  if (returnSize == 0 ? address(token).code.length == 0 : returnValue != 1) {... */\n      iszero\n      tag_316\n      jumpi\n        /* \"@openzeppelin/contracts/token/ERC20/utils/SafeERC20.sol\":9033:9073  SafeERC20FailedOperation(address(token)) */\n      mload(0x40)\n      0x5274afe700000000000000000000000000000000000000000000000000000000\n      dup2\n      mstore\n      sub(shl(0xa0, 0x01), 0x01)\n        /* \"#utility.yul\":605:660   */\n      dup6\n      and\n        /* \"@openzeppelin/contracts/token/ERC20/utils/SafeERC20.sol\":9033:9073  SafeERC20FailedOperation(address(token)) */\n      0x04\n      dup3\n      add\n        /* \"#utility.yul\":587:661   */\n      mstore\n        /* \"#utility.yul\":560:578   */\n      0x24\n      add\n        /* \"@openzeppelin/contracts/token/ERC20/utils/SafeERC20.sol\":9033:9073  SafeERC20FailedOperation(address(token)) */\n      tag_129\n        /* \"#utility.yul\":427:667   */\n      jump\n        /* \"#utility.yul\":196:422   */\n    tag_42:\n        /* \"#utility.yul\":255:261   */\n      0x00\n        /* \"#utility.yul\":308:310   */\n      0x20\n        /* \"#utility.yul\":296:305   */\n      dup3\n        /* \"#utility.yul\":287:294   */\n      dup5\n        /* \"#utility.yul\":283:306   */\n      sub\n        /* \"#utility.yul\":279:311   */\n      slt\n        /* \"#utility.yul\":276:328   */\n      iszero\n      tag_330\n      jumpi\n        /* \"#utility.yul\":324:325   */\n      0x00\n        /* \"#utility.yul\":321:322   */\n      0x00\n        /* \"#utility.yul\":314:326   */\n      revert\n        /* \"#utility.yul\":276:328   */\n    tag_330:\n      pop\n        /* \"#utility.yul\":369:392   */\n      calldataload\n      swap2\n        /* \"#utility.yul\":196:422   */\n      swap1\n      pop\n      jump\t// out\n        /* \"#utility.yul\":1308:1654   */\n    tag_71:\n        /* \"#utility.yul\":1376:1382   */\n      0x00\n        /* \"#utility.yul\":1384:1390   */\n      0x00\n        /* \"#utility.yul\":1437:1439   */\n      0x40\n        /* \"#utility.yul\":1425:1434   */\n      dup4\n        /* \"#utility.yul\":1416:1423   */\n      dup6\n        /* \"#utility.yul\":1412:1435   */\n      sub\n        /* \"#utility.yul\":1408:1440   */\n      slt\n        /* \"#utility.yul\":1405:1457   */\n      iszero\n      tag_336\n      jumpi\n        /* \"#utility.yul\":1453:1454   */\n      0x00\n        /* \"#utility.yul\":1450:1451   */\n      0x00\n        /* \"#utility.yul\":1443:1455   */\n      revert\n        /* \"#utility.yul\":1405:1457   */\n    tag_336:\n      pop\n      pop\n        /* \"#utility.yul\":1498:1521   */\n      dup1\n      calldataload\n      swap3\n        /* \"#utility.yul\":1618:1620   */\n      0x20\n        /* \"#utility.yul\":1603:1621   */\n      swap1\n      swap2\n      add\n        /* \"#utility.yul\":1590:1622   */\n      calldataload\n      swap2\n      pop\n        /* \"#utility.yul\":1308:1654   */\n      jump\t// out\n        /* \"#utility.yul\":1659:2269   */\n    tag_87:\n        /* \"#utility.yul\":1745:1751   */\n      0x00\n        /* \"#utility.yul\":1753:1759   */\n      0x00\n        /* \"#utility.yul\":1806:1808   */\n      0x20\n        /* \"#utility.yul\":1794:1803   */\n      dup4\n        /* \"#utility.yul\":1785:1792   */\n      dup6\n        /* \"#utility.yul\":1781:1804   */\n      sub\n        /* \"#utility.yul\":1777:1809   */\n      slt\n        /* \"#utility.yul\":1774:1826   */\n      iszero\n      tag_338\n      jumpi\n        /* \"#utility.yul\":1822:1823   */\n      0x00\n        /* \"#utility.yul\":1819:1820   */\n      0x00\n        /* \"#utility.yul\":1812:1824   */\n      revert\n        /* \"#utility.yul\":1774:1826   */\n    tag_338:\n        /* \"#utility.yul\":1862:1871   */\n      dup3\n        /* \"#utility.yul\":1849:1872   */\n      calldataload\n        /* \"#utility.yul\":1895:1913   */\n      0xffffffffffffffff\n        /* \"#utility.yul\":1887:1893   */\n      dup2\n        /* \"#utility.yul\":1884:1914   */\n      gt\n        /* \"#utility.yul\":1881:1931   */\n      iszero\n      tag_339\n      jumpi\n        /* \"#utility.yul\":1927:1928   */\n      0x00\n        /* \"#utility.yul\":1924:1925   */\n      0x00\n        /* \"#utility.yul\":1917:1929   */\n      revert\n        /* \"#utility.yul\":1881:1931   */\n    tag_339:\n        /* \"#utility.yul\":1950:1972   */\n      dup4\n      add\n        /* \"#utility.yul\":2003:2007   */\n      0x1f\n        /* \"#utility.yul\":1995:2008   */\n      dup2\n      add\n        /* \"#utility.yul\":1991:2018   */\n      dup6\n      sgt\n        /* \"#utility.yul\":1981:2036   */\n      tag_340\n      jumpi\n        /* \"#utility.yul\":2032:2033   */\n      0x00\n        /* \"#utility.yul\":2029:2030   */\n      0x00\n        /* \"#utility.yul\":2022:2034   */\n      revert\n        /* \"#utility.yul\":1981:2036   */\n    tag_340:\n        /* \"#utility.yul\":2072:2074   */\n      dup1\n        /* \"#utility.yul\":2059:2075   */\n      calldataload\n        /* \"#utility.yul\":2098:2116   */\n      0xffffffffffffffff\n        /* \"#utility.yul\":2090:2096   */\n      dup2\n        /* \"#utility.yul\":2087:2117   */\n      gt\n        /* \"#utility.yul\":2084:2134   */\n      iszero\n      tag_341\n      jumpi\n        /* \"#utility.yul\":2130:2131   */\n      0x00\n        /* \"#utility.yul\":2127:2128   */\n      0x00\n        /* \"#utility.yul\":2120:2132   */\n      revert\n        /* \"#utility.yul\":2084:2134   */\n    tag_341:\n        /* \"#utility.yul\":2183:2190   */\n      dup6\n        /* \"#utility.yul\":2178:2180   */\n      0x20\n        /* \"#utility.yul\":2168:2174   */\n      dup3\n        /* \"#utility.yul\":2165:2166   */\n      0x05\n        /* \"#utility.yul\":2161:2175   */\n      shl\n        /* \"#utility.yul\":2157:2159   */\n      dup5\n        /* \"#utility.yul\":2153:2176   */\n      add\n        /* \"#utility.yul\":2149:2181   */\n      add\n        /* \"#utility.yul\":2146:2191   */\n      gt\n        /* \"#utility.yul\":2143:2208   */\n      iszero\n      tag_342\n      jumpi\n        /* \"#utility.yul\":2204:2205   */\n      0x00\n        /* \"#utility.yul\":2201:2202   */\n      0x00\n        /* \"#utility.yul\":2194:2206   */\n      revert\n        /* \"#utility.yul\":2143:2208   */\n    tag_342:\n        /* \"#utility.yul\":2235:2237   */\n      0x20\n        /* \"#utility.yul\":2227:2238   */\n      swap2\n      swap1\n      swap2\n      add\n      swap6\n        /* \"#utility.yul\":2257:2263   */\n      swap1\n      swap5\n      pop\n        /* \"#utility.yul\":1659:2269   */\n      swap3\n      pop\n      pop\n      pop\n      jump\t// out\n        /* \"#utility.yul\":2274:2740   */\n    tag_94:\n        /* \"#utility.yul\":2351:2357   */\n      0x00\n        /* \"#utility.yul\":2359:2365   */\n      0x00\n        /* \"#utility.yul\":2367:2373   */\n      0x00\n        /* \"#utility.yul\":2420:2422   */\n      0x60\n        /* \"#utility.yul\":2408:2417   */\n      dup5\n        /* \"#utility.yul\":2399:2406   */\n      dup7\n        /* \"#utility.yul\":2395:2418   */\n      sub\n        /* \"#utility.yul\":2391:2423   */\n      slt\n        /* \"#utility.yul\":2388:2440   */\n      iszero\n      tag_344\n      jumpi\n        /* \"#utility.yul\":2436:2437   */\n      0x00\n        /* \"#utility.yul\":2433:2434   */\n      0x00\n        /* \"#utility.yul\":2426:2438   */\n      revert\n        /* \"#utility.yul\":2388:2440   */\n    tag_344:\n      pop\n      pop\n        /* \"#utility.yul\":2481:2504   */\n      dup2\n      calldataload\n      swap4\n        /* \"#utility.yul\":2601:2603   */\n      0x20\n        /* \"#utility.yul\":2586:2604   */\n      dup4\n      add\n        /* \"#utility.yul\":2573:2605   */\n      calldataload\n      swap4\n      pop\n        /* \"#utility.yul\":2704:2706   */\n      0x40\n        /* \"#utility.yul\":2689:2707   */\n      swap1\n      swap3\n      add\n        /* \"#utility.yul\":2676:2708   */\n      calldataload\n      swap2\n        /* \"#utility.yul\":2274:2740   */\n      swap1\n      pop\n      jump\t// out\n        /* \"#utility.yul\":3190:3386   */\n    tag_325:\n        /* \"#utility.yul\":3258:3278   */\n      dup1\n      calldataload\n      sub(shl(0xa0, 0x01), 0x01)\n        /* \"#utility.yul\":3307:3361   */\n      dup2\n      and\n        /* \"#utility.yul\":3297:3362   */\n      dup2\n      eq\n        /* \"#utility.yul\":3287:3380   */\n      tag_347\n      jumpi\n        /* \"#utility.yul\":3376:3377   */\n      0x00\n        /* \"#utility.yul\":3373:3374   */\n      0x00\n        /* \"#utility.yul\":3366:3378   */\n      revert\n        /* \"#utility.yul\":3287:3380   */\n    tag_347:\n        /* \"#utility.yul\":3190:3386   */\n      swap2\n      swap1\n      pop\n      jump\t// out\n        /* \"#utility.yul\":3391:3691   */\n    tag_110:\n        /* \"#utility.yul\":3459:3465   */\n      0x00\n        /* \"#utility.yul\":3467:3473   */\n      0x00\n        /* \"#utility.yul\":3520:3522   */\n      0x40\n        /* \"#utility.yul\":3508:3517   */\n      dup4\n        /* \"#utility.yul\":3499:3506   */\n      dup6\n        /* \"#utility.yul\":3495:3518   */\n      sub\n        /* \"#utility.yul\":3491:3523   */\n      slt\n        /* \"#utility.yul\":3488:3540   */\n      iszero\n      tag_349\n      jumpi\n        /* \"#utility.yul\":3536:3537   */\n      0x00\n        /* \"#utility.yul\":3533:3534   */\n      0x00\n        /* \"#utility.yul\":3526:3538   */\n      revert\n        /* \"#utility.yul\":3488:3540   */\n    tag_349:\n        /* \"#utility.yul\":3559:3588   */\n      tag_350\n        /* \"#utility.yul\":3578:3587   */\n      dup4\n        /* \"#utility.yul\":3559:3588   */\n      tag_325\n      jump\t// in\n    tag_350:\n        /* \"#utility.yul\":3549:3588   */\n      swap5\n        /* \"#utility.yul\":3657:3659   */\n      0x20\n        /* \"#utility.yul\":3642:3660   */\n      swap4\n      swap1\n      swap4\n      add\n        /* \"#utility.yul\":3629:3661   */\n      calldataload\n      swap4\n      pop\n      pop\n      pop\n        /* \"#utility.yul\":3391:3691   */\n      jump\t// out\n        /* \"#utility.yul\":3696:4108   */\n    tag_114:\n        /* \"#utility.yul\":3763:3769   */\n      0x00\n        /* \"#utility.yul\":3771:3777   */\n      0x00\n        /* \"#utility.yul\":3824:3826   */\n      0x40\n        /* \"#utility.yul\":3812:3821   */\n      dup4\n        /* \"#utility.yul\":3803:3810   */\n      dup6\n        /* \"#utility.yul\":3799:3822   */\n      sub\n        /* \"#utility.yul\":3795:3827   */\n      slt\n        /* \"#utility.yul\":3792:3844   */\n      iszero\n      tag_352\n      jumpi\n        /* \"#utility.yul\":3840:3841   */\n      0x00\n        /* \"#utility.yul\":3837:3838   */\n      0x00\n        /* \"#utility.yul\":3830:3842   */\n      revert\n        /* \"#utility.yul\":3792:3844   */\n    tag_352:\n        /* \"#utility.yul\":3879:3888   */\n      dup3\n        /* \"#utility.yul\":3866:3889   */\n      calldataload\n      sub(shl(0x60, 0x01), 0x01)\n        /* \"#utility.yul\":3922:3927   */\n      dup2\n        /* \"#utility.yul\":3918:3956   */\n      and\n        /* \"#utility.yul\":3911:3916   */\n      dup2\n        /* \"#utility.yul\":3908:3957   */\n      eq\n        /* \"#utility.yul\":3898:3975   */\n      tag_350\n      jumpi\n        /* \"#utility.yul\":3971:3972   */\n      0x00\n        /* \"#utility.yul\":3968:3969   */\n      0x00\n        /* \"#utility.yul\":3961:3973   */\n      revert\n        /* \"#utility.yul\":4366:4552   */\n    tag_120:\n        /* \"#utility.yul\":4425:4431   */\n      0x00\n        /* \"#utility.yul\":4478:4480   */\n      0x20\n        /* \"#utility.yul\":4466:4475   */\n      dup3\n        /* \"#utility.yul\":4457:4464   */\n      dup5\n        /* \"#utility.yul\":4453:4476   */\n      sub\n        /* \"#utility.yul\":4449:4481   */\n      slt\n        /* \"#utility.yul\":4446:4498   */\n      iszero\n      tag_356\n      jumpi\n        /* \"#utility.yul\":4494:4495   */\n      0x00\n        /* \"#utility.yul\":4491:4492   */\n      0x00\n        /* \"#utility.yul\":4484:4496   */\n      revert\n        /* \"#utility.yul\":4446:4498   */\n    tag_356:\n        /* \"#utility.yul\":4517:4546   */\n      tag_357\n        /* \"#utility.yul\":4536:4545   */\n      dup3\n        /* \"#utility.yul\":4517:4546   */\n      tag_325\n      jump\t// in\n    tag_357:\n        /* \"#utility.yul\":4507:4546   */\n      swap4\n        /* \"#utility.yul\":4366:4552   */\n      swap3\n      pop\n      pop\n      pop\n      jump\t// out\n        /* \"#utility.yul\":6035:6219   */\n    tag_326:\n      shl(0xe0, 0x4e487b71)\n        /* \"#utility.yul\":6084:6085   */\n      0x00\n        /* \"#utility.yul\":6077:6165   */\n      mstore\n        /* \"#utility.yul\":6184:6188   */\n      0x11\n        /* \"#utility.yul\":6181:6182   */\n      0x04\n        /* \"#utility.yul\":6174:6189   */\n      mstore\n        /* \"#utility.yul\":6208:6212   */\n      0x24\n        /* \"#utility.yul\":6205:6206   */\n      0x00\n        /* \"#utility.yul\":6198:6213   */\n      revert\n        /* \"#utility.yul\":6224:6352   */\n    tag_149:\n        /* \"#utility.yul\":6291:6300   */\n      dup2\n      dup2\n      sub\n        /* \"#utility.yul\":6312:6323   */\n      dup2\n      dup2\n      gt\n        /* \"#utility.yul\":6309:6346   */\n      iszero\n      tag_365\n      jumpi\n        /* \"#utility.yul\":6326:6344   */\n      tag_365\n      tag_326\n      jump\t// in\n    tag_365:\n        /* \"#utility.yul\":6224:6352   */\n      swap3\n      swap2\n      pop\n      pop\n      jump\t// out\n        /* \"#utility.yul\":7475:7749   */\n    tag_183:\n        /* \"#utility.yul\":7515:7516   */\n      0x00\n        /* \"#utility.yul\":7541:7542   */\n      dup3\n        /* \"#utility.yul\":7531:7720   */\n      tag_370\n      jumpi\n      shl(0xe0, 0x4e487b71)\n        /* \"#utility.yul\":7573:7574   */\n      0x00\n        /* \"#utility.yul\":7566:7654   */\n      mstore\n        /* \"#utility.yul\":7677:7681   */\n      0x12\n        /* \"#utility.yul\":7674:7675   */\n      0x04\n        /* \"#utility.yul\":7667:7682   */\n      mstore\n        /* \"#utility.yul\":7705:7709   */\n      0x24\n        /* \"#utility.yul\":7702:7703   */\n      0x00\n        /* \"#utility.yul\":7695:7710   */\n      revert\n        /* \"#utility.yul\":7531:7720   */\n    tag_370:\n      pop\n        /* \"#utility.yul\":7734:7743   */\n      div\n      swap1\n        /* \"#utility.yul\":7475:7749   */\n      jump\t// out\n        /* \"#utility.yul\":7754:7879   */\n    tag_185:\n        /* \"#utility.yul\":7819:7828   */\n      dup1\n      dup3\n      add\n        /* \"#utility.yul\":7840:7850   */\n      dup1\n      dup3\n      gt\n        /* \"#utility.yul\":7837:7873   */\n      iszero\n      tag_365\n      jumpi\n        /* \"#utility.yul\":7853:7871   */\n      tag_365\n      tag_326\n      jump\t// in\n        /* \"#utility.yul\":7884:8068   */\n    tag_194:\n      shl(0xe0, 0x4e487b71)\n        /* \"#utility.yul\":7933:7934   */\n      0x00\n        /* \"#utility.yul\":7926:8014   */\n      mstore\n        /* \"#utility.yul\":8033:8037   */\n      0x32\n        /* \"#utility.yul\":8030:8031   */\n      0x04\n        /* \"#utility.yul\":8023:8038   */\n      mstore\n        /* \"#utility.yul\":8057:8061   */\n      0x24\n        /* \"#utility.yul\":8054:8055   */\n      0x00\n        /* \"#utility.yul\":8047:8062   */\n      revert\n        /* \"#utility.yul\":8428:8596   */\n    tag_237:\n        /* \"#utility.yul\":8501:8510   */\n      dup1\n      dup3\n      mul\n        /* \"#utility.yul\":8532:8541   */\n      dup2\n      iszero\n        /* \"#utility.yul\":8549:8564   */\n      dup3\n      dup3\n      div\n        /* \"#utility.yul\":8543:8565   */\n      dup5\n      eq\n        /* \"#utility.yul\":8529:8566   */\n      or\n        /* \"#utility.yul\":8519:8590   */\n      tag_365\n      jumpi\n        /* \"#utility.yul\":8570:8588   */\n      tag_365\n      tag_326\n      jump\t// in\n        /* \"#utility.yul\":8601:8785   */\n    tag_266:\n        /* \"#utility.yul\":8671:8677   */\n      0x00\n        /* \"#utility.yul\":8724:8726   */\n      0x20\n        /* \"#utility.yul\":8712:8721   */\n      dup3\n        /* \"#utility.yul\":8703:8710   */\n      dup5\n        /* \"#utility.yul\":8699:8722   */\n      sub\n        /* \"#utility.yul\":8695:8727   */\n      slt\n        /* \"#utility.yul\":8692:8744   */\n      iszero\n      tag_380\n      jumpi\n        /* \"#utility.yul\":8740:8741   */\n      0x00\n        /* \"#utility.yul\":8737:8738   */\n      0x00\n        /* \"#utility.yul\":8730:8742   */\n      revert\n        /* \"#utility.yul\":8692:8744   */\n    tag_380:\n      pop\n        /* \"#utility.yul\":8763:8779   */\n      mload\n      swap2\n        /* \"#utility.yul\":8601:8785   */\n      swap1\n      pop\n      jump\t// out\n        /* \"#utility.yul\":9908:10123   */\n    tag_285:\n      sub(shl(0x60, 0x01), 0x01)\n        /* \"#utility.yul\":9976:10010   */\n      dup2\n      dup2\n      and\n        /* \"#utility.yul\":10012:10046   */\n      dup4\n      dup3\n      and\n        /* \"#utility.yul\":9972:10047   */\n      add\n      swap1\n        /* \"#utility.yul\":10059:10094   */\n      dup2\n      gt\n        /* \"#utility.yul\":10056:10117   */\n      iszero\n      tag_365\n      jumpi\n        /* \"#utility.yul\":10097:10115   */\n      tag_365\n      tag_326\n      jump\t// in\n        /* \"#utility.yul\":10555:10690   */\n    tag_294:\n        /* \"#utility.yul\":10594:10597   */\n      0x00\n        /* \"#utility.yul\":10615:10632   */\n      0x01\n      dup3\n      add\n        /* \"#utility.yul\":10612:10655   */\n      tag_390\n      jumpi\n        /* \"#utility.yul\":10635:10653   */\n      tag_390\n      tag_326\n      jump\t// in\n    tag_390:\n      pop\n        /* \"#utility.yul\":10682:10683   */\n      0x01\n        /* \"#utility.yul\":10671:10684   */\n      add\n      swap1\n        /* \"#utility.yul\":10555:10690   */\n      jump\t// out\n\n    auxdata: 0xa2646970667358221220a86d218e0601a27a13e9ac69315a81a71f07dd0a08f8464db62e06291793ff9e64736f6c634300081e0033\n}\n",
				"bytecode": {
					"linkReferences": {},
					"object": "60c06040525f805460ff60a01b191681556001818155600555600655348015610026575f5ffd5b5060405161185a38038061185a833981016040819052610045916100fe565b338061006a57604051631e4fbdf760e01b81525f600482015260240160405180910390fd5b61007381610094565b506001600160a01b039384166080529190921660a05260035560025561013e565b5f80546001600160a01b038381166001600160a01b0319831681178455604051919092169283917f8be0079c531659141344cd1fd0a4f28419497f9722a3daafe3b4186f6b6457e09190a35050565b80516001600160a01b03811681146100f9575f5ffd5b919050565b5f5f5f5f60808587031215610111575f5ffd5b61011a856100e3565b9350610128602086016100e3565b6040860151606090960151949790965092505050565b60805160a0516116bc61019e5f395f8181610238015281816102b8015281816105fb01528181610b6d01528181610e3c0152610f0801525f81816101d1015281816103750152818161083801528181610ad301526110a801526116bc5ff3fe608060405234801561000f575f5ffd5b506004361061018f575f3560e01c8063b109beec116100dd578063ce325bf811610088578063d6ef7af011610063578063d6ef7af014610399578063d93c04a0146103ac578063f2fde38b146103d4575f5ffd5b8063ce325bf814610323578063d2d7231f14610360578063d46149a214610373575f5ffd5b8063bc854352116100b8578063bc854352146102ea578063beceed39146102fd578063c9ea62c114610310575f5ffd5b8063b109beec146102b3578063b5fa91fe146102da578063b6baffe3146102e2575f5ffd5b80637c2fdeb51161013d5780638f4729b7116101185780638f4729b71461028e578063ac00500f14610297578063af7568dd146102aa575f5ffd5b80637c2fdeb5146102365780638da5cb5b1461025c5780638e12c0cd1461026c575f5ffd5b80636db08f251161016d5780636db08f25146101cc578063715018a61461020b57806375f12b2114610213575f5ffd5b806307da68f514610193578063109cf3991461019d578063379607f5146101b9575b5f5ffd5b61019b6103e7565b005b6101a660035481565b6040519081526020015b60405180910390f35b6101a66101c7366004611453565b610445565b6101f37f000000000000000000000000000000000000000000000000000000000000000081565b6040516001600160a01b0390911681526020016101b0565b61019b610681565b5f5461022690600160a01b900460ff1681565b60405190151581526020016101b0565b7f00000000000000000000000000000000000000000000000000000000000000006101f3565b5f546001600160a01b03166101f3565b61027662ed4e0081565b6040516001600160601b0390911681526020016101b0565b6101a660065481565b61019b6102a536600461146a565b610694565b6101a660015481565b6101f37f000000000000000000000000000000000000000000000000000000000000000081565b6101a66108b6565b6101a66108cb565b61019b6102f836600461148a565b6108e9565b61019b61030b366004611453565b610b07565b61019b61031e3660046114fb565b610bd3565b610336610331366004611453565b610be9565b604080516001600160a01b03909516855260208501939093529183015260608201526080016101b0565b6101a661036e366004611453565b610c89565b7f00000000000000000000000000000000000000000000000000000000000000006101f3565b61019b6103a736600461153f565b610df9565b6103bf6103ba366004611567565b610f76565b604080519283526020830191909152016101b0565b61019b6103e236600461158e565b611219565b6103ef61126f565b5f80547fffffffffffffffffffffff00ffffffffffffffffffffffffffffffffffffffff16600160a01b1781556040517f7acc84e34091ae817647a4c49116f5cc07f319078ba80f8f5fde37ea7e25cbd69190a1565b5f815f81118015610457575060055481105b6104a85760405162461bcd60e51b815260206004820152601960248201527f4d6f64756c65583a496e76616c6964205374616b65204944210000000000000060448201526064015b60405180910390fd5b5f83815260046020526040902080546001600160a01b0316331461050e5760405162461bcd60e51b815260206004820152601f60248201527f4d6f64756c65583a43616c6c6572206973206e6f7420746865206f776e657200604482015260640161049f565b8054600160a01b90046001600160601b0316426001600160601b0316101561059e5760405162461bcd60e51b815260206004820152602a60248201527f4d6f64756c65583a4561726c79205769746864726177616c206973206e6f742060448201527f7065726d69747465642100000000000000000000000000000000000000000000606482015260840161049f565b5f8160020154116105f15760405162461bcd60e51b815260206004820152601860248201527f4d6f64756c65583a4e6f7468696e6720746f20636c61696d0000000000000000604482015260640161049f565b600281015461062a7f00000000000000000000000000000000000000000000000000000000000000006001600160a01b031633836112b4565b8060065f82825461063b91906115c2565b90915550505f60028301556040518581527f67bb155fcabb99400c32b640dc7704c8f18aae4c817704c7267c5a8cd26dfc199060200160405180910390a1949350505050565b61068961126f565b6106925f611328565b565b61069c61126f565b815f811180156106ad575060055481105b6106f95760405162461bcd60e51b815260206004820152601960248201527f4d6f64756c65583a496e76616c6964205374616b652049442100000000000000604482015260640161049f565b5f821161075a5760405162461bcd60e51b815260206004820152602960248201527f4d6f64756c65583a616d6f756e74206d7573742062652067726561746572207460448201526868616e207a65726f2160b81b606482015260840161049f565b5f8381526004602052604090208054600160a01b90046001600160601b0316426001600160601b031611156107d15760405162461bcd60e51b815260206004820152601560248201527f4d6f64756c65583a4275726e7420746f6b656e73210000000000000000000000604482015260640161049f565b80600101548311156108255760405162461bcd60e51b815260206004820152601d60248201527f4d6f64756c65583a496e73756666696369656e742062616c616e636521000000604482015260640161049f565b61085f3360018301546001600160a01b037f00000000000000000000000000000000000000000000000000000000000000001691906112b4565b82816001015f82825461087291906115c2565b909155505060408051858152602081018590527f03a00e6132085cbc9ea18899cd135ef9cad5d305d58506e08e7b1a9b96199a9c910160405180910390a150505050565b5f60016005546108c691906115c2565b905090565b5f6002546003546001546108df91906115db565b6108c691906115fa565b6108f161126f565b5f805b82811015610a7e576005548484838181106109115761091161160d565b90506020020135106109655760405162461bcd60e51b815260206004820152601960248201527f4d6f64756c65583a496e76616c6964205374616b652049442100000000000000604482015260640161049f565b5f60045f86868581811061097b5761097b61160d565b602090810292909201358352508101919091526040015f208054909150600160a01b90046001600160601b0316426001600160601b03161115610a005760405162461bcd60e51b815260206004820152601560248201527f4d6f64756c65583a4275726e7420746f6b656e73210000000000000000000000604482015260640161049f565b6001810154610a0f90846115fa565b5f600183015592507f03a00e6132085cbc9ea18899cd135ef9cad5d305d58506e08e7b1a9b96199a9c858584818110610a4a57610a4a61160d565b905060200201358260010154604051610a6d929190918252602082015260400190565b60405180910390a1506001016108f4565b505f8111610ace5760405162461bcd60e51b815260206004820152601a60248201527f4d6f64756c65583a546f74616c20616d6f756e74206973203021000000000000604482015260640161049f565b610b027f00000000000000000000000000000000000000000000000000000000000000006001600160a01b031633836112b4565b505050565b5f8111610b685760405162461bcd60e51b815260206004820152602960248201527f4d6f64756c65583a616d6f756e74206d7573742062652067726561746572207460448201526868616e207a65726f2160b81b606482015260840161049f565b610b9d7f00000000000000000000000000000000000000000000000000000000000000006001600160a01b031633308461138f565b6040518181527fde88a922e0d3b88b24e9623efeb464919c6bf9f66857a65e2bfcf2ce87a9433d9060200160405180910390a150565b610bdb61126f565b600292909255600355600155565b5f5f5f5f845f81118015610bfe575060055481105b610c4a5760405162461bcd60e51b815260206004820152601960248201527f4d6f64756c65583a496e76616c6964205374616b652049442100000000000000604482015260640161049f565b5050505f9283525050600460205260409020805460018201546002909201546001600160a01b03821693600160a01b9092046001600160601b03169291565b5f5f670de0b6b3a764000090505f83600154610ca591906115fa565b90505f600354600154610cb891906115db565b90505f60035483610cc991906115db565b9050808203610cf357600254610cdf90836115fa565b610ce990876115db565b9695505050505050565b5f60025483610d0291906115fa565b600154600354856001610d1591906115fa565b610d1f9190611621565b610d2991906115c2565b610d339087611621565b610d3d91906115db565b90505f60025483610d4e91906115fa565b600354610d5b9085611621565b610d6590876115c2565b610d6f9088611621565b610d7991906115db565b90505f80610d888660016115fa565b90505b84811015610dcb57600254610da090826115fa565b600354610dad908a611621565b610db791906115db565b610dc190836115fa565b9150600101610d8b565b508682610dd883866115fa565b610de291906115fa565b610dec91906115db565b9998505050505050505050565b610e0161126f565b600654610e0e90826115fa565b6040517f70a082310000000000000000000000000000000000000000000000000000000081523060048201527f00000000000000000000000000000000000000000000000000000000000000006001600160a01b0316906370a0823190602401602060405180830381865afa158015610e89573d5f5f3e3d5ffd5b505050506040513d601f19601f82011682018060405250810190610ead9190611638565b1015610efb5760405162461bcd60e51b815260206004820152601d60248201527f4d6f64756c65583a496e73756666696369656e742062616c616e636521000000604482015260640161049f565b610f2f6001600160a01b037f00000000000000000000000000000000000000000000000000000000000000001683836112b4565b816001600160a01b03167f1d3eee4ca001cff39eec6ec7615aacf2f2bd61791273830728ba00ccbd6e133782604051610f6a91815260200190565b60405180910390a25050565b5f80548190600160a01b900460ff1615610fd25760405162461bcd60e51b815260206004820152601060248201527f4d6f64756c65583a53544f505045442100000000000000000000000000000000604482015260640161049f565b5f83116110475760405162461bcd60e51b815260206004820152602c60248201527f4d6f64756c65583a5374616b6520616d6f756e74206d7573742062652067726560448201527f61746572207468616e2030210000000000000000000000000000000000000000606482015260840161049f565b62ed4e006001600160601b03851610156110a35760405162461bcd60e51b815260206004820152601f60248201527f4d6f64756c65583a557365206c6f6e676572206c6f636b5f706572696f642100604482015260640161049f565b6110d87f00000000000000000000000000000000000000000000000000000000000000006001600160a01b031633308661138f565b5f6110e3854261164f565b90505f6110ef85610c89565b90505f600554905060405180608001604052806111093390565b6001600160a01b0390811682526001600160601b0380871660208085019190915260408085018c905260609485018890525f87815260048352818120875193880151909416600160a01b029290941691909117825584015160018083019190915593909201516002909201919091558154889291906111899084906115fa565b925050819055508160065f8282546111a191906115fa565b9091555050604080518281526001600160601b038516602082015280820188905260608101849052905133917f24fe2d25c10eb2c67b5ac1e3edbcadc94191e154ed388ad667a9480c44f47146919081900360800190a260058054905f6112078361166e565b90915550909791965090945050505050565b61122161126f565b6001600160a01b038116611263576040517f1e4fbdf70000000000000000000000000000000000000000000000000000000081525f600482015260240161049f565b61126c81611328565b50565b5f546001600160a01b03163314610692576040517f118cdaa700000000000000000000000000000000000000000000000000000000815233600482015260240161049f565b6040516001600160a01b03838116602483015260448201839052610b0291859182169063a9059cbb906064015b604051602081830303815290604052915060e01b6020820180517bffffffffffffffffffffffffffffffffffffffffffffffffffffffff83818316178352505050506113ce565b5f80546001600160a01b038381167fffffffffffffffffffffffff0000000000000000000000000000000000000000831681178455604051919092169283917f8be0079c531659141344cd1fd0a4f28419497f9722a3daafe3b4186f6b6457e09190a35050565b6040516001600160a01b0384811660248301528381166044830152606482018390526113c89186918216906323b872dd906084016112e1565b50505050565b5f5f60205f8451602086015f885af1806113ed576040513d5f823e3d81fd5b50505f513d91508115611404578060011415611411565b6001600160a01b0384163b155b156113c8576040517f5274afe70000000000000000000000000000000000000000000000000000000081526001600160a01b038516600482015260240161049f565b5f60208284031215611463575f5ffd5b5035919050565b5f5f6040838503121561147b575f5ffd5b50508035926020909101359150565b5f5f6020838503121561149b575f5ffd5b823567ffffffffffffffff8111156114b1575f5ffd5b8301601f810185136114c1575f5ffd5b803567ffffffffffffffff8111156114d7575f5ffd5b8560208260051b84010111156114eb575f5ffd5b6020919091019590945092505050565b5f5f5f6060848603121561150d575f5ffd5b505081359360208301359350604090920135919050565b80356001600160a01b038116811461153a575f5ffd5b919050565b5f5f60408385031215611550575f5ffd5b61155983611524565b946020939093013593505050565b5f5f60408385031215611578575f5ffd5b82356001600160601b0381168114611559575f5ffd5b5f6020828403121561159e575f5ffd5b6115a782611524565b9392505050565b634e487b7160e01b5f52601160045260245ffd5b818103818111156115d5576115d56115ae565b92915050565b5f826115f557634e487b7160e01b5f52601260045260245ffd5b500490565b808201808211156115d5576115d56115ae565b634e487b7160e01b5f52603260045260245ffd5b80820281158282048414176115d5576115d56115ae565b5f60208284031215611648575f5ffd5b5051919050565b6001600160601b0381811683821601908111156115d5576115d56115ae565b5f6001820161167f5761167f6115ae565b506001019056fea2646970667358221220a86d218e0601a27a13e9ac69315a81a71f07dd0a08f8464db62e06291793ff9e64736f6c634300081e0033",
					"opcodes": "PUSH1 0xC0 PUSH1 0x40 MSTORE PUSH0 DUP1 SLOAD PUSH1 0xFF PUSH1 0xA0 SHL NOT AND DUP2 SSTORE PUSH1 0x1 DUP2 DUP2 SSTORE PUSH1 0x5 SSTORE PUSH1 0x6 SSTORE CALLVALUE DUP1 ISZERO PUSH2 0x26 JUMPI PUSH0 PUSH0 REVERT JUMPDEST POP PUSH1 0x40 MLOAD PUSH2 0x185A CODESIZE SUB DUP1 PUSH2 0x185A DUP4 CODECOPY DUP2 ADD PUSH1 0x40 DUP2 SWAP1 MSTORE PUSH2 0x45 SWAP2 PUSH2 0xFE JUMP JUMPDEST CALLER DUP1 PUSH2 0x6A JUMPI PUSH1 0x40 MLOAD PUSH4 0x1E4FBDF7 PUSH1 0xE0 SHL DUP2 MSTORE PUSH0 PUSH1 0x4 DUP3 ADD MSTORE PUSH1 0x24 ADD PUSH1 0x40 MLOAD DUP1 SWAP2 SUB SWAP1 REVERT JUMPDEST PUSH2 0x73 DUP2 PUSH2 0x94 JUMP JUMPDEST POP PUSH1 0x1 PUSH1 0x1 PUSH1 0xA0 SHL SUB SWAP4 DUP5 AND PUSH1 0x80 MSTORE SWAP2 SWAP1 SWAP3 AND PUSH1 0xA0 MSTORE PUSH1 0x3 SSTORE PUSH1 0x2 SSTORE PUSH2 0x13E JUMP JUMPDEST PUSH0 DUP1 SLOAD PUSH1 0x1 PUSH1 0x1 PUSH1 0xA0 SHL SUB DUP4 DUP2 AND PUSH1 0x1 PUSH1 0x1 PUSH1 0xA0 SHL SUB NOT DUP4 AND DUP2 OR DUP5 SSTORE PUSH1 0x40 MLOAD SWAP2 SWAP1 SWAP3 AND SWAP3 DUP4 SWAP2 PUSH32 0x8BE0079C531659141344CD1FD0A4F28419497F9722A3DAAFE3B4186F6B6457E0 SWAP2 SWAP1 LOG3 POP POP JUMP JUMPDEST DUP1 MLOAD PUSH1 0x1 PUSH1 0x1 PUSH1 0xA0 SHL SUB DUP2 AND DUP2 EQ PUSH2 0xF9 JUMPI PUSH0 PUSH0 REVERT JUMPDEST SWAP2 SWAP1 POP JUMP JUMPDEST PUSH0 PUSH0 PUSH0 PUSH0 PUSH1 0x80 DUP6 DUP8 SUB SLT ISZERO PUSH2 0x111 JUMPI PUSH0 PUSH0 REVERT JUMPDEST PUSH2 0x11A DUP6 PUSH2 0xE3 JUMP JUMPDEST SWAP4 POP PUSH2 0x128 PUSH1 0x20 DUP7 ADD PUSH2 0xE3 JUMP JUMPDEST PUSH1 0x40 DUP7 ADD MLOAD PUSH1 0x60 SWAP1 SWAP7 ADD MLOAD SWAP5 SWAP8 SWAP1 SWAP7 POP SWAP3 POP POP POP JUMP JUMPDEST PUSH1 0x80 MLOAD PUSH1 0xA0 MLOAD PUSH2 0x16BC PUSH2 0x19E PUSH0 CODECOPY PUSH0 DUP2 DUP2 PUSH2 0x238 ADD MSTORE DUP2 DUP2 PUSH2 0x2B8 ADD MSTORE DUP2 DUP2 PUSH2 0x5FB ADD MSTORE DUP2 DUP2 PUSH2 0xB6D ADD MSTORE DUP2 DUP2 PUSH2 0xE3C ADD MSTORE PUSH2 0xF08 ADD MSTORE PUSH0 DUP2 DUP2 PUSH2 0x1D1 ADD MSTORE DUP2 DUP2 PUSH2 0x375 ADD MSTORE DUP2 DUP2 PUSH2 0x838 ADD MSTORE DUP2 DUP2 PUSH2 0xAD3 ADD MSTORE PUSH2 0x10A8 ADD MSTORE PUSH2 0x16BC PUSH0 RETURN INVALID PUSH1 0x80 PUSH1 0x40 MSTORE CALLVALUE DUP1 ISZERO PUSH2 0xF JUMPI PUSH0 PUSH0 REVERT JUMPDEST POP PUSH1 0x4 CALLDATASIZE LT PUSH2 0x18F JUMPI PUSH0 CALLDATALOAD PUSH1 0xE0 SHR DUP1 PUSH4 0xB109BEEC GT PUSH2 0xDD JUMPI DUP1 PUSH4 0xCE325BF8 GT PUSH2 0x88 JUMPI DUP1 PUSH4 0xD6EF7AF0 GT PUSH2 0x63 JUMPI DUP1 PUSH4 0xD6EF7AF0 EQ PUSH2 0x399 JUMPI DUP1 PUSH4 0xD93C04A0 EQ PUSH2 0x3AC JUMPI DUP1 PUSH4 0xF2FDE38B EQ PUSH2 0x3D4 JUMPI PUSH0 PUSH0 REVERT JUMPDEST DUP1 PUSH4 0xCE325BF8 EQ PUSH2 0x323 JUMPI DUP1 PUSH4 0xD2D7231F EQ PUSH2 0x360 JUMPI DUP1 PUSH4 0xD46149A2 EQ PUSH2 0x373 JUMPI PUSH0 PUSH0 REVERT JUMPDEST DUP1 PUSH4 0xBC854352 GT PUSH2 0xB8 JUMPI DUP1 PUSH4 0xBC854352 EQ PUSH2 0x2EA JUMPI DUP1 PUSH4 0xBECEED39 EQ PUSH2 0x2FD JUMPI DUP1 PUSH4 0xC9EA62C1 EQ PUSH2 0x310 JUMPI PUSH0 PUSH0 REVERT JUMPDEST DUP1 PUSH4 0xB109BEEC EQ PUSH2 0x2B3 JUMPI DUP1 PUSH4 0xB5FA91FE EQ PUSH2 0x2DA JUMPI DUP1 PUSH4 0xB6BAFFE3 EQ PUSH2 0x2E2 JUMPI PUSH0 PUSH0 REVERT JUMPDEST DUP1 PUSH4 0x7C2FDEB5 GT PUSH2 0x13D JUMPI DUP1 PUSH4 0x8F4729B7 GT PUSH2 0x118 JUMPI DUP1 PUSH4 0x8F4729B7 EQ PUSH2 0x28E JUMPI DUP1 PUSH4 0xAC00500F EQ PUSH2 0x297 JUMPI DUP1 PUSH4 0xAF7568DD EQ PUSH2 0x2AA JUMPI PUSH0 PUSH0 REVERT JUMPDEST DUP1 PUSH4 0x7C2FDEB5 EQ PUSH2 0x236 JUMPI DUP1 PUSH4 0x8DA5CB5B EQ PUSH2 0x25C JUMPI DUP1 PUSH4 0x8E12C0CD EQ PUSH2 0x26C JUMPI PUSH0 PUSH0 REVERT JUMPDEST DUP1 PUSH4 0x6DB08F25 GT PUSH2 0x16D JUMPI DUP1 PUSH4 0x6DB08F25 EQ PUSH2 0x1CC JUMPI DUP1 PUSH4 0x715018A6 EQ PUSH2 0x20B JUMPI DUP1 PUSH4 0x75F12B21 EQ PUSH2 0x213 JUMPI PUSH0 PUSH0 REVERT JUMPDEST DUP1 PUSH4 0x7DA68F5 EQ PUSH2 0x193 JUMPI DUP1 PUSH4 0x109CF399 EQ PUSH2 0x19D JUMPI DUP1 PUSH4 0x379607F5 EQ PUSH2 0x1B9 JUMPI JUMPDEST PUSH0 PUSH0 REVERT JUMPDEST PUSH2 0x19B PUSH2 0x3E7 JUMP JUMPDEST STOP JUMPDEST PUSH2 0x1A6 PUSH1 0x3 SLOAD DUP2 JUMP JUMPDEST PUSH1 0x40 MLOAD SWAP1 DUP2 MSTORE PUSH1 0x20 ADD JUMPDEST PUSH1 0x40 MLOAD DUP1 SWAP2 SUB SWAP1 RETURN JUMPDEST PUSH2 0x1A6 PUSH2 0x1C7 CALLDATASIZE PUSH1 0x4 PUSH2 0x1453 JUMP JUMPDEST PUSH2 0x445 JUMP JUMPDEST PUSH2 0x1F3 PUSH32 0x0 DUP2 JUMP JUMPDEST PUSH1 0x40 MLOAD PUSH1 0x1 PUSH1 0x1 PUSH1 0xA0 SHL SUB SWAP1 SWAP2 AND DUP2 MSTORE PUSH1 0x20 ADD PUSH2 0x1B0 JUMP JUMPDEST PUSH2 0x19B PUSH2 0x681 JUMP JUMPDEST PUSH0 SLOAD PUSH2 0x226 SWAP1 PUSH1 0x1 PUSH1 0xA0 SHL SWAP1 DIV PUSH1 0xFF AND DUP2 JUMP JUMPDEST PUSH1 0x40 MLOAD SWAP1 ISZERO ISZERO DUP2 MSTORE PUSH1 0x20 ADD PUSH2 0x1B0 JUMP JUMPDEST PUSH32 0x0 PUSH2 0x1F3 JUMP JUMPDEST PUSH0 SLOAD PUSH1 0x1 PUSH1 0x1 PUSH1 0xA0 SHL SUB AND PUSH2 0x1F3 JUMP JUMPDEST PUSH2 0x276 PUSH3 0xED4E00 DUP2 JUMP JUMPDEST PUSH1 0x40 MLOAD PUSH1 0x1 PUSH1 0x1 PUSH1 0x60 SHL SUB SWAP1 SWAP2 AND DUP2 MSTORE PUSH1 0x20 ADD PUSH2 0x1B0 JUMP JUMPDEST PUSH2 0x1A6 PUSH1 0x6 SLOAD DUP2 JUMP JUMPDEST PUSH2 0x19B PUSH2 0x2A5 CALLDATASIZE PUSH1 0x4 PUSH2 0x146A JUMP JUMPDEST PUSH2 0x694 JUMP JUMPDEST PUSH2 0x1A6 PUSH1 0x1 SLOAD DUP2 JUMP JUMPDEST PUSH2 0x1F3 PUSH32 0x0 DUP2 JUMP JUMPDEST PUSH2 0x1A6 PUSH2 0x8B6 JUMP JUMPDEST PUSH2 0x1A6 PUSH2 0x8CB JUMP JUMPDEST PUSH2 0x19B PUSH2 0x2F8 CALLDATASIZE PUSH1 0x4 PUSH2 0x148A JUMP JUMPDEST PUSH2 0x8E9 JUMP JUMPDEST PUSH2 0x19B PUSH2 0x30B CALLDATASIZE PUSH1 0x4 PUSH2 0x1453 JUMP JUMPDEST PUSH2 0xB07 JUMP JUMPDEST PUSH2 0x19B PUSH2 0x31E CALLDATASIZE PUSH1 0x4 PUSH2 0x14FB JUMP JUMPDEST PUSH2 0xBD3 JUMP JUMPDEST PUSH2 0x336 PUSH2 0x331 CALLDATASIZE PUSH1 0x4 PUSH2 0x1453 JUMP JUMPDEST PUSH2 0xBE9 JUMP JUMPDEST PUSH1 0x40 DUP1 MLOAD PUSH1 0x1 PUSH1 0x1 PUSH1 0xA0 SHL SUB SWAP1 SWAP6 AND DUP6 MSTORE PUSH1 0x20 DUP6 ADD SWAP4 SWAP1 SWAP4 MSTORE SWAP2 DUP4 ADD MSTORE PUSH1 0x60 DUP3 ADD MSTORE PUSH1 0x80 ADD PUSH2 0x1B0 JUMP JUMPDEST PUSH2 0x1A6 PUSH2 0x36E CALLDATASIZE PUSH1 0x4 PUSH2 0x1453 JUMP JUMPDEST PUSH2 0xC89 JUMP JUMPDEST PUSH32 0x0 PUSH2 0x1F3 JUMP JUMPDEST PUSH2 0x19B PUSH2 0x3A7 CALLDATASIZE PUSH1 0x4 PUSH2 0x153F JUMP JUMPDEST PUSH2 0xDF9 JUMP JUMPDEST PUSH2 0x3BF PUSH2 0x3BA CALLDATASIZE PUSH1 0x4 PUSH2 0x1567 JUMP JUMPDEST PUSH2 0xF76 JUMP JUMPDEST PUSH1 0x40 DUP1 MLOAD SWAP3 DUP4 MSTORE PUSH1 0x20 DUP4 ADD SWAP2 SWAP1 SWAP2 MSTORE ADD PUSH2 0x1B0 JUMP JUMPDEST PUSH2 0x19B PUSH2 0x3E2 CALLDATASIZE PUSH1 0x4 PUSH2 0x158E JUMP JUMPDEST PUSH2 0x1219 JUMP JUMPDEST PUSH2 0x3EF PUSH2 0x126F JUMP JUMPDEST PUSH0 DUP1 SLOAD PUSH32 0xFFFFFFFFFFFFFFFFFFFFFF00FFFFFFFFFFFFFFFFFFFFFFFFFFFFFFFFFFFFFFFF AND PUSH1 0x1 PUSH1 0xA0 SHL OR DUP2 SSTORE PUSH1 0x40 MLOAD PUSH32 0x7ACC84E34091AE817647A4C49116F5CC07F319078BA80F8F5FDE37EA7E25CBD6 SWAP2 SWAP1 LOG1 JUMP JUMPDEST PUSH0 DUP2 PUSH0 DUP2 GT DUP1 ISZERO PUSH2 0x457 JUMPI POP PUSH1 0x5 SLOAD DUP2 LT JUMPDEST PUSH2 0x4A8 JUMPI PUSH1 0x40 MLOAD PUSH3 0x461BCD PUSH1 0xE5 SHL DUP2 MSTORE PUSH1 0x20 PUSH1 0x4 DUP3 ADD MSTORE PUSH1 0x19 PUSH1 0x24 DUP3 ADD MSTORE PUSH32 0x4D6F64756C65583A496E76616C6964205374616B652049442100000000000000 PUSH1 0x44 DUP3 ADD MSTORE PUSH1 0x64 ADD JUMPDEST PUSH1 0x40 MLOAD DUP1 SWAP2 SUB SWAP1 REVERT JUMPDEST PUSH0 DUP4 DUP2 MSTORE PUSH1 0x4 PUSH1 0x20 MSTORE PUSH1 0x40 SWAP1 KECCAK256 DUP1 SLOAD PUSH1 0x1 PUSH1 0x1 PUSH1 0xA0 SHL SUB AND CALLER EQ PUSH2 0x50E JUMPI PUSH1 0x40 MLOAD PUSH3 0x461BCD PUSH1 0xE5 SHL DUP2 MSTORE PUSH1 0x20 PUSH1 0x4 DUP3 ADD MSTORE PUSH1 0x1F PUSH1 0x24 DUP3 ADD MSTORE PUSH32 0x4D6F64756C65583A43616C6C6572206973206E6F7420746865206F776E657200 PUSH1 0x44 DUP3 ADD MSTORE PUSH1 0x64 ADD PUSH2 0x49F JUMP JUMPDEST DUP1 SLOAD PUSH1 0x1 PUSH1 0xA0 SHL SWAP1 DIV PUSH1 0x1 PUSH1 0x1 PUSH1 0x60 SHL SUB AND TIMESTAMP PUSH1 0x1 PUSH1 0x1 PUSH1 0x60 SHL SUB AND LT ISZERO PUSH2 0x59E JUMPI PUSH1 0x40 MLOAD PUSH3 0x461BCD PUSH1 0xE5 SHL DUP2 MSTORE PUSH1 0x20 PUSH1 0x4 DUP3 ADD MSTORE PUSH1 0x2A PUSH1 0x24 DUP3 ADD MSTORE PUSH32 0x4D6F64756C65583A4561726C79205769746864726177616C206973206E6F7420 PUSH1 0x44 DUP3 ADD MSTORE PUSH32 0x7065726D69747465642100000000000000000000000000000000000000000000 PUSH1 0x64 DUP3 ADD MSTORE PUSH1 0x84 ADD PUSH2 0x49F JUMP JUMPDEST PUSH0 DUP2 PUSH1 0x2 ADD SLOAD GT PUSH2 0x5F1 JUMPI PUSH1 0x40 MLOAD PUSH3 0x461BCD PUSH1 0xE5 SHL DUP2 MSTORE PUSH1 0x20 PUSH1 0x4 DUP3 ADD MSTORE PUSH1 0x18 PUSH1 0x24 DUP3 ADD MSTORE PUSH32 0x4D6F64756C65583A4E6F7468696E6720746F20636C61696D0000000000000000 PUSH1 0x44 DUP3 ADD MSTORE PUSH1 0x64 ADD PUSH2 0x49F JUMP JUMPDEST PUSH1 0x2 DUP2 ADD SLOAD PUSH2 0x62A PUSH32 0x0 PUSH1 0x1 PUSH1 0x1 PUSH1 0xA0 SHL SUB AND CALLER DUP4 PUSH2 0x12B4 JUMP JUMPDEST DUP1 PUSH1 0x6 PUSH0 DUP3 DUP3 SLOAD PUSH2 0x63B SWAP2 SWAP1 PUSH2 0x15C2 JUMP JUMPDEST SWAP1 SWAP2 SSTORE POP POP PUSH0 PUSH1 0x2 DUP4 ADD SSTORE PUSH1 0x40 MLOAD DUP6 DUP2 MSTORE PUSH32 0x67BB155FCABB99400C32B640DC7704C8F18AAE4C817704C7267C5A8CD26DFC19 SWAP1 PUSH1 0x20 ADD PUSH1 0x40 MLOAD DUP1 SWAP2 SUB SWAP1 LOG1 SWAP5 SWAP4 POP POP POP POP JUMP JUMPDEST PUSH2 0x689 PUSH2 0x126F JUMP JUMPDEST PUSH2 0x692 PUSH0 PUSH2 0x1328 JUMP JUMPDEST JUMP JUMPDEST PUSH2 0x69C PUSH2 0x126F JUMP JUMPDEST DUP2 PUSH0 DUP2 GT DUP1 ISZERO PUSH2 0x6AD JUMPI POP PUSH1 0x5 SLOAD DUP2 LT JUMPDEST PUSH2 0x6F9 JUMPI PUSH1 0x40 MLOAD PUSH3 0x461BCD PUSH1 0xE5 SHL DUP2 MSTORE PUSH1 0x20 PUSH1 0x4 DUP3 ADD MSTORE PUSH1 0x19 PUSH1 0x24 DUP3 ADD MSTORE PUSH32 0x4D6F64756C65583A496E76616C6964205374616B652049442100000000000000 PUSH1 0x44 DUP3 ADD MSTORE PUSH1 0x64 ADD PUSH2 0x49F JUMP JUMPDEST PUSH0 DUP3 GT PUSH2 0x75A JUMPI PUSH1 0x40 MLOAD PUSH3 0x461BCD PUSH1 0xE5 SHL DUP2 MSTORE PUSH1 0x20 PUSH1 0x4 DUP3 ADD MSTORE PUSH1 0x29 PUSH1 0x24 DUP3 ADD MSTORE PUSH32 0x4D6F64756C65583A616D6F756E74206D75737420626520677265617465722074 PUSH1 0x44 DUP3 ADD MSTORE PUSH9 0x68616E207A65726F21 PUSH1 0xB8 SHL PUSH1 0x64 DUP3 ADD MSTORE PUSH1 0x84 ADD PUSH2 0x49F JUMP JUMPDEST PUSH0 DUP4 DUP2 MSTORE PUSH1 0x4 PUSH1 0x20 MSTORE PUSH1 0x40 SWAP1 KECCAK256 DUP1 SLOAD PUSH1 0x1 PUSH1 0xA0 SHL SWAP1 DIV PUSH1 0x1 PUSH1 0x1 PUSH1 0x60 SHL SUB AND TIMESTAMP PUSH1 0x1 PUSH1 0x1 PUSH1 0x60 SHL SUB AND GT ISZERO PUSH2 0x7D1 JUMPI PUSH1 0x40 MLOAD PUSH3 0x461BCD PUSH1 0xE5 SHL DUP2 MSTORE PUSH1 0x20 PUSH1 0x4 DUP3 ADD MSTORE PUSH1 0x15 PUSH1 0x24 DUP3 ADD MSTORE PUSH32 0x4D6F64756C65583A4275726E7420746F6B656E73210000000000000000000000 PUSH1 0x44 DUP3 ADD MSTORE PUSH1 0x64 ADD PUSH2 0x49F JUMP JUMPDEST DUP1 PUSH1 0x1 ADD SLOAD DUP4 GT ISZERO PUSH2 0x825 JUMPI PUSH1 0x40 MLOAD PUSH3 0x461BCD PUSH1 0xE5 SHL DUP2 MSTORE PUSH1 0x20 PUSH1 0x4 DUP3 ADD MSTORE PUSH1 0x1D PUSH1 0x24 DUP3 ADD MSTORE PUSH32 0x4D6F64756C65583A496E73756666696369656E742062616C616E636521000000 PUSH1 0x44 DUP3 ADD MSTORE PUSH1 0x64 ADD PUSH2 0x49F JUMP JUMPDEST PUSH2 0x85F CALLER PUSH1 0x1 DUP4 ADD SLOAD PUSH1 0x1 PUSH1 0x1 PUSH1 0xA0 SHL SUB PUSH32 0x0 AND SWAP2 SWAP1 PUSH2 0x12B4 JUMP JUMPDEST DUP3 DUP2 PUSH1 0x1 ADD PUSH0 DUP3 DUP3 SLOAD PUSH2 0x872 SWAP2 SWAP1 PUSH2 0x15C2 JUMP JUMPDEST SWAP1 SWAP2 SSTORE POP POP PUSH1 0x40 DUP1 MLOAD DUP6 DUP2 MSTORE PUSH1 0x20 DUP2 ADD DUP6 SWAP1 MSTORE PUSH32 0x3A00E6132085CBC9EA18899CD135EF9CAD5D305D58506E08E7B1A9B96199A9C SWAP2 ADD PUSH1 0x40 MLOAD DUP1 SWAP2 SUB SWAP1 LOG1 POP POP POP POP JUMP JUMPDEST PUSH0 PUSH1 0x1 PUSH1 0x5 SLOAD PUSH2 0x8C6 SWAP2 SWAP1 PUSH2 0x15C2 JUMP JUMPDEST SWAP1 POP SWAP1 JUMP JUMPDEST PUSH0 PUSH1 0x2 SLOAD PUSH1 0x3 SLOAD PUSH1 0x1 SLOAD PUSH2 0x8DF SWAP2 SWAP1 PUSH2 0x15DB JUMP JUMPDEST PUSH2 0x8C6 SWAP2 SWAP1 PUSH2 0x15FA JUMP JUMPDEST PUSH2 0x8F1 PUSH2 0x126F JUMP JUMPDEST PUSH0 DUP1 JUMPDEST DUP3 DUP2 LT ISZERO PUSH2 0xA7E JUMPI PUSH1 0x5 SLOAD DUP5 DUP5 DUP4 DUP2 DUP2 LT PUSH2 0x911 JUMPI PUSH2 0x911 PUSH2 0x160D JUMP JUMPDEST SWAP1 POP PUSH1 0x20 MUL ADD CALLDATALOAD LT PUSH2 0x965 JUMPI PUSH1 0x40 MLOAD PUSH3 0x461BCD PUSH1 0xE5 SHL DUP2 MSTORE PUSH1 0x20 PUSH1 0x4 DUP3 ADD MSTORE PUSH1 0x19 PUSH1 0x24 DUP3 ADD MSTORE PUSH32 0x4D6F64756C65583A496E76616C6964205374616B652049442100000000000000 PUSH1 0x44 DUP3 ADD MSTORE PUSH1 0x64 ADD PUSH2 0x49F JUMP JUMPDEST PUSH0 PUSH1 0x4 PUSH0 DUP7 DUP7 DUP6 DUP2 DUP2 LT PUSH2 0x97B JUMPI PUSH2 0x97B PUSH2 0x160D JUMP JUMPDEST PUSH1 0x20 SWAP1 DUP2 MUL SWAP3 SWAP1 SWAP3 ADD CALLDATALOAD DUP4 MSTORE POP DUP2 ADD SWAP2 SWAP1 SWAP2 MSTORE PUSH1 0x40 ADD PUSH0 KECCAK256 DUP1 SLOAD SWAP1 SWAP2 POP PUSH1 0x1 PUSH1 0xA0 SHL SWAP1 DIV PUSH1 0x1 PUSH1 0x1 PUSH1 0x60 SHL SUB AND TIMESTAMP PUSH1 0x1 PUSH1 0x1 PUSH1 0x60 SHL SUB AND GT ISZERO PUSH2 0xA00 JUMPI PUSH1 0x40 MLOAD PUSH3 0x461BCD PUSH1 0xE5 SHL DUP2 MSTORE PUSH1 0x20 PUSH1 0x4 DUP3 ADD MSTORE PUSH1 0x15 PUSH1 0x24 DUP3 ADD MSTORE PUSH32 0x4D6F64756C65583A4275726E7420746F6B656E73210000000000000000000000 PUSH1 0x44 DUP3 ADD MSTORE PUSH1 0x64 ADD PUSH2 0x49F JUMP JUMPDEST PUSH1 0x1 DUP2 ADD SLOAD PUSH2 0xA0F SWAP1 DUP5 PUSH2 0x15FA JUMP JUMPDEST PUSH0 PUSH1 0x1 DUP4 ADD SSTORE SWAP3 POP PUSH32 0x3A00E6132085CBC9EA18899CD135EF9CAD5D305D58506E08E7B1A9B96199A9C DUP6 DUP6 DUP5 DUP2 DUP2 LT PUSH2 0xA4A JUMPI PUSH2 0xA4A PUSH2 0x160D JUMP JUMPDEST SWAP1 POP PUSH1 0x20 MUL ADD CALLDATALOAD DUP3 PUSH1 0x1 ADD SLOAD PUSH1 0x40 MLOAD PUSH2 0xA6D SWAP3 SWAP2 SWAP1 SWAP2 DUP3 MSTORE PUSH1 0x20 DUP3 ADD MSTORE PUSH1 0x40 ADD SWAP1 JUMP JUMPDEST PUSH1 0x40 MLOAD DUP1 SWAP2 SUB SWAP1 LOG1 POP PUSH1 0x1 ADD PUSH2 0x8F4 JUMP JUMPDEST POP PUSH0 DUP2 GT PUSH2 0xACE JUMPI PUSH1 0x40 MLOAD PUSH3 0x461BCD PUSH1 0xE5 SHL DUP2 MSTORE PUSH1 0x20 PUSH1 0x4 DUP3 ADD MSTORE PUSH1 0x1A PUSH1 0x24 DUP3 ADD MSTORE PUSH32 0x4D6F64756C65583A546F74616C20616D6F756E74206973203021000000000000 PUSH1 0x44 DUP3 ADD MSTORE PUSH1 0x64 ADD PUSH2 0x49F JUMP JUMPDEST PUSH2 0xB02 PUSH32 0x0 PUSH1 0x1 PUSH1 0x1 PUSH1 0xA0 SHL SUB AND CALLER DUP4 PUSH2 0x12B4 JUMP JUMPDEST POP POP POP JUMP JUMPDEST PUSH0 DUP2 GT PUSH2 0xB68 JUMPI PUSH1 0x40 MLOAD PUSH3 0x461BCD PUSH1 0xE5 SHL DUP2 MSTORE PUSH1 0x20 PUSH1 0x4 DUP3 ADD MSTORE PUSH1 0x29 PUSH1 0x24 DUP3 ADD MSTORE PUSH32 0x4D6F64756C65583A616D6F756E74206D75737420626520677265617465722074 PUSH1 0x44 DUP3 ADD MSTORE PUSH9 0x68616E207A65726F21 PUSH1 0xB8 SHL PUSH1 0x64 DUP3 ADD MSTORE PUSH1 0x84 ADD PUSH2 0x49F JUMP JUMPDEST PUSH2 0xB9D PUSH32 0x0 PUSH1 0x1 PUSH1 0x1 PUSH1 0xA0 SHL SUB AND CALLER ADDRESS DUP5 PUSH2 0x138F JUMP JUMPDEST PUSH1 0x40 MLOAD DUP2 DUP2 MSTORE PUSH32 0xDE88A922E0D3B88B24E9623EFEB464919C6BF9F66857A65E2BFCF2CE87A9433D SWAP1 PUSH1 0x20 ADD PUSH1 0x40 MLOAD DUP1 SWAP2 SUB SWAP1 LOG1 POP JUMP JUMPDEST PUSH2 0xBDB PUSH2 0x126F JUMP JUMPDEST PUSH1 0x2 SWAP3 SWAP1 SWAP3 SSTORE PUSH1 0x3 SSTORE PUSH1 0x1 SSTORE JUMP JUMPDEST PUSH0 PUSH0 PUSH0 PUSH0 DUP5 PUSH0 DUP2 GT DUP1 ISZERO PUSH2 0xBFE JUMPI POP PUSH1 0x5 SLOAD DUP2 LT JUMPDEST PUSH2 0xC4A JUMPI PUSH1 0x40 MLOAD PUSH3 0x461BCD PUSH1 0xE5 SHL DUP2 MSTORE PUSH1 0x20 PUSH1 0x4 DUP3 ADD MSTORE PUSH1 0x19 PUSH1 0x24 DUP3 ADD MSTORE PUSH32 0x4D6F64756C65583A496E76616C6964205374616B652049442100000000000000 PUSH1 0x44 DUP3 ADD MSTORE PUSH1 0x64 ADD PUSH2 0x49F JUMP JUMPDEST POP POP POP PUSH0 SWAP3 DUP4 MSTORE POP POP PUSH1 0x4 PUSH1 0x20 MSTORE PUSH1 0x40 SWAP1 KECCAK256 DUP1 SLOAD PUSH1 0x1 DUP3 ADD SLOAD PUSH1 0x2 SWAP1 SWAP3 ADD SLOAD PUSH1 0x1 PUSH1 0x1 PUSH1 0xA0 SHL SUB DUP3 AND SWAP4 PUSH1 0x1 PUSH1 0xA0 SHL SWAP1 SWAP3 DIV PUSH1 0x1 PUSH1 0x1 PUSH1 0x60 SHL SUB AND SWAP3 SWAP2 JUMP JUMPDEST PUSH0 PUSH0 PUSH8 0xDE0B6B3A7640000 SWAP1 POP PUSH0 DUP4 PUSH1 0x1 SLOAD PUSH2 0xCA5 SWAP2 SWAP1 PUSH2 0x15FA JUMP JUMPDEST SWAP1 POP PUSH0 PUSH1 0x3 SLOAD PUSH1 0x1 SLOAD PUSH2 0xCB8 SWAP2 SWAP1 PUSH2 0x15DB JUMP JUMPDEST SWAP1 POP PUSH0 PUSH1 0x3 SLOAD DUP4 PUSH2 0xCC9 SWAP2 SWAP1 PUSH2 0x15DB JUMP JUMPDEST SWAP1 POP DUP1 DUP3 SUB PUSH2 0xCF3 JUMPI PUSH1 0x2 SLOAD PUSH2 0xCDF SWAP1 DUP4 PUSH2 0x15FA JUMP JUMPDEST PUSH2 0xCE9 SWAP1 DUP8 PUSH2 0x15DB JUMP JUMPDEST SWAP7 SWAP6 POP POP POP POP POP POP JUMP JUMPDEST PUSH0 PUSH1 0x2 SLOAD DUP4 PUSH2 0xD02 SWAP2 SWAP1 PUSH2 0x15FA JUMP JUMPDEST PUSH1 0x1 SLOAD PUSH1 0x3 SLOAD DUP6 PUSH1 0x1 PUSH2 0xD15 SWAP2 SWAP1 PUSH2 0x15FA JUMP JUMPDEST PUSH2 0xD1F SWAP2 SWAP1 PUSH2 0x1621 JUMP JUMPDEST PUSH2 0xD29 SWAP2 SWAP1 PUSH2 0x15C2 JUMP JUMPDEST PUSH2 0xD33 SWAP1 DUP8 PUSH2 0x1621 JUMP JUMPDEST PUSH2 0xD3D SWAP2 SWAP1 PUSH2 0x15DB JUMP JUMPDEST SWAP1 POP PUSH0 PUSH1 0x2 SLOAD DUP4 PUSH2 0xD4E SWAP2 SWAP1 PUSH2 0x15FA JUMP JUMPDEST PUSH1 0x3 SLOAD PUSH2 0xD5B SWAP1 DUP6 PUSH2 0x1621 JUMP JUMPDEST PUSH2 0xD65 SWAP1 DUP8 PUSH2 0x15C2 JUMP JUMPDEST PUSH2 0xD6F SWAP1 DUP9 PUSH2 0x1621 JUMP JUMPDEST PUSH2 0xD79 SWAP2 SWAP1 PUSH2 0x15DB JUMP JUMPDEST SWAP1 POP PUSH0 DUP1 PUSH2 0xD88 DUP7 PUSH1 0x1 PUSH2 0x15FA JUMP JUMPDEST SWAP1 POP JUMPDEST DUP5 DUP2 LT ISZERO PUSH2 0xDCB JUMPI PUSH1 0x2 SLOAD PUSH2 0xDA0 SWAP1 DUP3 PUSH2 0x15FA JUMP JUMPDEST PUSH1 0x3 SLOAD PUSH2 0xDAD SWAP1 DUP11 PUSH2 0x1621 JUMP JUMPDEST PUSH2 0xDB7 SWAP2 SWAP1 PUSH2 0x15DB JUMP JUMPDEST PUSH2 0xDC1 SWAP1 DUP4 PUSH2 0x15FA JUMP JUMPDEST SWAP2 POP PUSH1 0x1 ADD PUSH2 0xD8B JUMP JUMPDEST POP DUP7 DUP3 PUSH2 0xDD8 DUP4 DUP7 PUSH2 0x15FA JUMP JUMPDEST PUSH2 0xDE2 SWAP2 SWAP1 PUSH2 0x15FA JUMP JUMPDEST PUSH2 0xDEC SWAP2 SWAP1 PUSH2 0x15DB JUMP JUMPDEST SWAP10 SWAP9 POP POP POP POP POP POP POP POP POP JUMP JUMPDEST PUSH2 0xE01 PUSH2 0x126F JUMP JUMPDEST PUSH1 0x6 SLOAD PUSH2 0xE0E SWAP1 DUP3 PUSH2 0x15FA JUMP JUMPDEST PUSH1 0x40 MLOAD PUSH32 0x70A0823100000000000000000000000000000000000000000000000000000000 DUP2 MSTORE ADDRESS PUSH1 0x4 DUP3 ADD MSTORE PUSH32 0x0 PUSH1 0x1 PUSH1 0x1 PUSH1 0xA0 SHL SUB AND SWAP1 PUSH4 0x70A08231 SWAP1 PUSH1 0x24 ADD PUSH1 0x20 PUSH1 0x40 MLOAD DUP1 DUP4 SUB DUP2 DUP7 GAS STATICCALL ISZERO DUP1 ISZERO PUSH2 0xE89 JUMPI RETURNDATASIZE PUSH0 PUSH0 RETURNDATACOPY RETURNDATASIZE PUSH0 REVERT JUMPDEST POP POP POP POP PUSH1 0x40 MLOAD RETURNDATASIZE PUSH1 0x1F NOT PUSH1 0x1F DUP3 ADD AND DUP3 ADD DUP1 PUSH1 0x40 MSTORE POP DUP2 ADD SWAP1 PUSH2 0xEAD SWAP2 SWAP1 PUSH2 0x1638 JUMP JUMPDEST LT ISZERO PUSH2 0xEFB JUMPI PUSH1 0x40 MLOAD PUSH3 0x461BCD PUSH1 0xE5 SHL DUP2 MSTORE PUSH1 0x20 PUSH1 0x4 DUP3 ADD MSTORE PUSH1 0x1D PUSH1 0x24 DUP3 ADD MSTORE PUSH32 0x4D6F64756C65583A496E73756666696369656E742062616C616E636521000000 PUSH1 0x44 DUP3 ADD MSTORE PUSH1 0x64 ADD PUSH2 0x49F JUMP JUMPDEST PUSH2 0xF2F PUSH1 0x1 PUSH1 0x1 PUSH1 0xA0 SHL SUB PUSH32 0x0 AND DUP4 DUP4 PUSH2 0x12B4 JUMP JUMPDEST DUP2 PUSH1 0x1 PUSH1 0x1 PUSH1 0xA0 SHL SUB AND PUSH32 0x1D3EEE4CA001CFF39EEC6EC7615AACF2F2BD61791273830728BA00CCBD6E1337 DUP3 PUSH1 0x40 MLOAD PUSH2 0xF6A SWAP2 DUP2 MSTORE PUSH1 0x20 ADD SWAP1 JUMP JUMPDEST PUSH1 0x40 MLOAD DUP1 SWAP2 SUB SWAP1 LOG2 POP POP JUMP JUMPDEST PUSH0 DUP1 SLOAD DUP2 SWAP1 PUSH1 0x1 PUSH1 0xA0 SHL SWAP1 DIV PUSH1 0xFF AND ISZERO PUSH2 0xFD2 JUMPI PUSH1 0x40 MLOAD PUSH3 0x461BCD PUSH1 0xE5 SHL DUP2 MSTORE PUSH1 0x20 PUSH1 0x4 DUP3 ADD MSTORE PUSH1 0x10 PUSH1 0x24 DUP3 ADD MSTORE PUSH32 0x4D6F64756C65583A53544F505045442100000000000000000000000000000000 PUSH1 0x44 DUP3 ADD MSTORE PUSH1 0x64 ADD PUSH2 0x49F JUMP JUMPDEST PUSH0 DUP4 GT PUSH2 0x1047 JUMPI PUSH1 0x40 MLOAD PUSH3 0x461BCD PUSH1 0xE5 SHL DUP2 MSTORE PUSH1 0x20 PUSH1 0x4 DUP3 ADD MSTORE PUSH1 0x2C PUSH1 0x24 DUP3 ADD MSTORE PUSH32 0x4D6F64756C65583A5374616B6520616D6F756E74206D75737420626520677265 PUSH1 0x44 DUP3 ADD MSTORE PUSH32 0x61746572207468616E2030210000000000000000000000000000000000000000 PUSH1 0x64 DUP3 ADD MSTORE PUSH1 0x84 ADD PUSH2 0x49F JUMP JUMPDEST PUSH3 0xED4E00 PUSH1 0x1 PUSH1 0x1 PUSH1 0x60 SHL SUB DUP6 AND LT ISZERO PUSH2 0x10A3 JUMPI PUSH1 0x40 MLOAD PUSH3 0x461BCD PUSH1 0xE5 SHL DUP2 MSTORE PUSH1 0x20 PUSH1 0x4 DUP3 ADD MSTORE PUSH1 0x1F PUSH1 0x24 DUP3 ADD MSTORE PUSH32 0x4D6F64756C65583A557365206C6F6E676572206C6F636B5F706572696F642100 PUSH1 0x44 DUP3 ADD MSTORE PUSH1 0x64 ADD PUSH2 0x49F JUMP JUMPDEST PUSH2 0x10D8 PUSH32 0x0 PUSH1 0x1 PUSH1 0x1 PUSH1 0xA0 SHL SUB AND CALLER ADDRESS DUP7 PUSH2 0x138F JUMP JUMPDEST PUSH0 PUSH2 0x10E3 DUP6 TIMESTAMP PUSH2 0x164F JUMP JUMPDEST SWAP1 POP PUSH0 PUSH2 0x10EF DUP6 PUSH2 0xC89 JUMP JUMPDEST SWAP1 POP PUSH0 PUSH1 0x5 SLOAD SWAP1 POP PUSH1 0x40 MLOAD DUP1 PUSH1 0x80 ADD PUSH1 0x40 MSTORE DUP1 PUSH2 0x1109 CALLER SWAP1 JUMP JUMPDEST PUSH1 0x1 PUSH1 0x1 PUSH1 0xA0 SHL SUB SWAP1 DUP2 AND DUP3 MSTORE PUSH1 0x1 PUSH1 0x1 PUSH1 0x60 SHL SUB DUP1 DUP8 AND PUSH1 0x20 DUP1 DUP6 ADD SWAP2 SWAP1 SWAP2 MSTORE PUSH1 0x40 DUP1 DUP6 ADD DUP13 SWAP1 MSTORE PUSH1 0x60 SWAP5 DUP6 ADD DUP9 SWAP1 MSTORE PUSH0 DUP8 DUP2 MSTORE PUSH1 0x4 DUP4 MSTORE DUP2 DUP2 KECCAK256 DUP8 MLOAD SWAP4 DUP9 ADD MLOAD SWAP1 SWAP5 AND PUSH1 0x1 PUSH1 0xA0 SHL MUL SWAP3 SWAP1 SWAP5 AND SWAP2 SWAP1 SWAP2 OR DUP3 SSTORE DUP5 ADD MLOAD PUSH1 0x1 DUP1 DUP4 ADD SWAP2 SWAP1 SWAP2 SSTORE SWAP4 SWAP1 SWAP3 ADD MLOAD PUSH1 0x2 SWAP1 SWAP3 ADD SWAP2 SWAP1 SWAP2 SSTORE DUP2 SLOAD DUP9 SWAP3 SWAP2 SWAP1 PUSH2 0x1189 SWAP1 DUP5 SWAP1 PUSH2 0x15FA JUMP JUMPDEST SWAP3 POP POP DUP2 SWAP1 SSTORE POP DUP2 PUSH1 0x6 PUSH0 DUP3 DUP3 SLOAD PUSH2 0x11A1 SWAP2 SWAP1 PUSH2 0x15FA JUMP JUMPDEST SWAP1 SWAP2 SSTORE POP POP PUSH1 0x40 DUP1 MLOAD DUP3 DUP2 MSTORE PUSH1 0x1 PUSH1 0x1 PUSH1 0x60 SHL SUB DUP6 AND PUSH1 0x20 DUP3 ADD MSTORE DUP1 DUP3 ADD DUP9 SWAP1 MSTORE PUSH1 0x60 DUP2 ADD DUP5 SWAP1 MSTORE SWAP1 MLOAD CALLER SWAP2 PUSH32 0x24FE2D25C10EB2C67B5AC1E3EDBCADC94191E154ED388AD667A9480C44F47146 SWAP2 SWAP1 DUP2 SWAP1 SUB PUSH1 0x80 ADD SWAP1 LOG2 PUSH1 0x5 DUP1 SLOAD SWAP1 PUSH0 PUSH2 0x1207 DUP4 PUSH2 0x166E JUMP JUMPDEST SWAP1 SWAP2 SSTORE POP SWAP1 SWAP8 SWAP2 SWAP7 POP SWAP1 SWAP5 POP POP POP POP POP JUMP JUMPDEST PUSH2 0x1221 PUSH2 0x126F JUMP JUMPDEST PUSH1 0x1 PUSH1 0x1 PUSH1 0xA0 SHL SUB DUP2 AND PUSH2 0x1263 JUMPI PUSH1 0x40 MLOAD PUSH32 0x1E4FBDF700000000000000000000000000000000000000000000000000000000 DUP2 MSTORE PUSH0 PUSH1 0x4 DUP3 ADD MSTORE PUSH1 0x24 ADD PUSH2 0x49F JUMP JUMPDEST PUSH2 0x126C DUP2 PUSH2 0x1328 JUMP JUMPDEST POP JUMP JUMPDEST PUSH0 SLOAD PUSH1 0x1 PUSH1 0x1 PUSH1 0xA0 SHL SUB AND CALLER EQ PUSH2 0x692 JUMPI PUSH1 0x40 MLOAD PUSH32 0x118CDAA700000000000000000000000000000000000000000000000000000000 DUP2 MSTORE CALLER PUSH1 0x4 DUP3 ADD MSTORE PUSH1 0x24 ADD PUSH2 0x49F JUMP JUMPDEST PUSH1 0x40 MLOAD PUSH1 0x1 PUSH1 0x1 PUSH1 0xA0 SHL SUB DUP4 DUP2 AND PUSH1 0x24 DUP4 ADD MSTORE PUSH1 0x44 DUP3 ADD DUP4 SWAP1 MSTORE PUSH2 0xB02 SWAP2 DUP6 SWAP2 DUP3 AND SWAP1 PUSH4 0xA9059CBB SWAP1 PUSH1 0x64 ADD JUMPDEST PUSH1 0x40 MLOAD PUSH1 0x20 DUP2 DUP4 SUB SUB DUP2 MSTORE SWAP1 PUSH1 0x40 MSTORE SWAP2 POP PUSH1 0xE0 SHL PUSH1 0x20 DUP3 ADD DUP1 MLOAD PUSH28 0xFFFFFFFFFFFFFFFFFFFFFFFFFFFFFFFFFFFFFFFFFFFFFFFFFFFFFFFF DUP4 DUP2 DUP4 AND OR DUP4 MSTORE POP POP POP POP PUSH2 0x13CE JUMP JUMPDEST PUSH0 DUP1 SLOAD PUSH1 0x1 PUSH1 0x1 PUSH1 0xA0 SHL SUB DUP4 DUP2 AND PUSH32 0xFFFFFFFFFFFFFFFFFFFFFFFF0000000000000000000000000000000000000000 DUP4 AND DUP2 OR DUP5 SSTORE PUSH1 0x40 MLOAD SWAP2 SWAP1 SWAP3 AND SWAP3 DUP4 SWAP2 PUSH32 0x8BE0079C531659141344CD1FD0A4F28419497F9722A3DAAFE3B4186F6B6457E0 SWAP2 SWAP1 LOG3 POP POP JUMP JUMPDEST PUSH1 0x40 MLOAD PUSH1 0x1 PUSH1 0x1 PUSH1 0xA0 SHL SUB DUP5 DUP2 AND PUSH1 0x24 DUP4 ADD MSTORE DUP4 DUP2 AND PUSH1 0x44 DUP4 ADD MSTORE PUSH1 0x64 DUP3 ADD DUP4 SWAP1 MSTORE PUSH2 0x13C8 SWAP2 DUP7 SWAP2 DUP3 AND SWAP1 PUSH4 0x23B872DD SWAP1 PUSH1 0x84 ADD PUSH2 0x12E1 JUMP JUMPDEST POP POP POP POP JUMP JUMPDEST PUSH0 PUSH0 PUSH1 0x20 PUSH0 DUP5 MLOAD PUSH1 0x20 DUP7 ADD PUSH0 DUP9 GAS CALL DUP1 PUSH2 0x13ED JUMPI PUSH1 0x40 MLOAD RETURNDATASIZE PUSH0 DUP3 RETURNDATACOPY RETURNDATASIZE DUP2 REVERT JUMPDEST POP POP PUSH0 MLOAD RETURNDATASIZE SWAP2 POP DUP2 ISZERO PUSH2 0x1404 JUMPI DUP1 PUSH1 0x1 EQ ISZERO PUSH2 0x1411 JUMP JUMPDEST PUSH1 0x1 PUSH1 0x1 PUSH1 0xA0 SHL SUB DUP5 AND EXTCODESIZE ISZERO JUMPDEST ISZERO PUSH2 0x13C8 JUMPI PUSH1 0x40 MLOAD PUSH32 0x5274AFE700000000000000000000000000000000000000000000000000000000 DUP2 MSTORE PUSH1 0x1 PUSH1 0x1 PUSH1 0xA0 SHL SUB DUP6 AND PUSH1 0x4 DUP3 ADD MSTORE PUSH1 0x24 ADD PUSH2 0x49F JUMP JUMPDEST PUSH0 PUSH1 0x20 DUP3 DUP5 SUB SLT ISZERO PUSH2 0x1463 JUMPI PUSH0 PUSH0 REVERT JUMPDEST POP CALLDATALOAD SWAP2 SWAP1 POP JUMP JUMPDEST PUSH0 PUSH0 PUSH1 0x40 DUP4 DUP6 SUB SLT ISZERO PUSH2 0x147B JUMPI PUSH0 PUSH0 REVERT JUMPDEST POP POP DUP1 CALLDATALOAD SWAP3 PUSH1 0x20 SWAP1 SWAP2 ADD CALLDATALOAD SWAP2 POP JUMP JUMPDEST PUSH0 PUSH0 PUSH1 0x20 DUP4 DUP6 SUB SLT ISZERO PUSH2 0x149B JUMPI PUSH0 PUSH0 REVERT JUMPDEST DUP3 CALLDATALOAD PUSH8 0xFFFFFFFFFFFFFFFF DUP2 GT ISZERO PUSH2 0x14B1 JUMPI PUSH0 PUSH0 REVERT JUMPDEST DUP4 ADD PUSH1 0x1F DUP2 ADD DUP6 SGT PUSH2 0x14C1 JUMPI PUSH0 PUSH0 REVERT JUMPDEST DUP1 CALLDATALOAD PUSH8 0xFFFFFFFFFFFFFFFF DUP2 GT ISZERO PUSH2 0x14D7 JUMPI PUSH0 PUSH0 REVERT JUMPDEST DUP6 PUSH1 0x20 DUP3 PUSH1 0x5 SHL DUP5 ADD ADD GT ISZERO PUSH2 0x14EB JUMPI PUSH0 PUSH0 REVERT JUMPDEST PUSH1 0x20 SWAP2 SWAP1 SWAP2 ADD SWAP6 SWAP1 SWAP5 POP SWAP3 POP POP POP JUMP JUMPDEST PUSH0 PUSH0 PUSH0 PUSH1 0x60 DUP5 DUP7 SUB SLT ISZERO PUSH2 0x150D JUMPI PUSH0 PUSH0 REVERT JUMPDEST POP POP DUP2 CALLDATALOAD SWAP4 PUSH1 0x20 DUP4 ADD CALLDATALOAD SWAP4 POP PUSH1 0x40 SWAP1 SWAP3 ADD CALLDATALOAD SWAP2 SWAP1 POP JUMP JUMPDEST DUP1 CALLDATALOAD PUSH1 0x1 PUSH1 0x1 PUSH1 0xA0 SHL SUB DUP2 AND DUP2 EQ PUSH2 0x153A JUMPI PUSH0 PUSH0 REVERT JUMPDEST SWAP2 SWAP1 POP JUMP JUMPDEST PUSH0 PUSH0 PUSH1 0x40 DUP4 DUP6 SUB SLT ISZERO PUSH2 0x1550 JUMPI PUSH0 PUSH0 REVERT JUMPDEST PUSH2 0x1559 DUP4 PUSH2 0x1524 JUMP JUMPDEST SWAP5 PUSH1 0x20 SWAP4 SWAP1 SWAP4 ADD CALLDATALOAD SWAP4 POP POP POP JUMP JUMPDEST PUSH0 PUSH0 PUSH1 0x40 DUP4 DUP6 SUB SLT ISZERO PUSH2 0x1578 JUMPI PUSH0 PUSH0 REVERT JUMPDEST DUP3 CALLDATALOAD PUSH1 0x1 PUSH1 0x1 PUSH1 0x60 SHL SUB DUP2 AND DUP2 EQ PUSH2 0x1559 JUMPI PUSH0 PUSH0 REVERT JUMPDEST PUSH0 PUSH1 0x20 DUP3 DUP5 SUB SLT ISZERO PUSH2 0x159E JUMPI PUSH0 PUSH0 REVERT JUMPDEST PUSH2 0x15A7 DUP3 PUSH2 0x1524 JUMP JUMPDEST SWAP4 SWAP3 POP POP POP JUMP JUMPDEST PUSH4 0x4E487B71 PUSH1 0xE0 SHL PUSH0 MSTORE PUSH1 0x11 PUSH1 0x4 MSTORE PUSH1 0x24 PUSH0 REVERT JUMPDEST DUP2 DUP2 SUB DUP2 DUP2 GT ISZERO PUSH2 0x15D5 JUMPI PUSH2 0x15D5 PUSH2 0x15AE JUMP JUMPDEST SWAP3 SWAP2 POP POP JUMP JUMPDEST PUSH0 DUP3 PUSH2 0x15F5 JUMPI PUSH4 0x4E487B71 PUSH1 0xE0 SHL PUSH0 MSTORE PUSH1 0x12 PUSH1 0x4 MSTORE PUSH1 0x24 PUSH0 REVERT JUMPDEST POP DIV SWAP1 JUMP JUMPDEST DUP1 DUP3 ADD DUP1 DUP3 GT ISZERO PUSH2 0x15D5 JUMPI PUSH2 0x15D5 PUSH2 0x15AE JUMP JUMPDEST PUSH4 0x4E487B71 PUSH1 0xE0 SHL PUSH0 MSTORE PUSH1 0x32 PUSH1 0x4 MSTORE PUSH1 0x24 PUSH0 REVERT JUMPDEST DUP1 DUP3 MUL DUP2 ISZERO DUP3 DUP3 DIV DUP5 EQ OR PUSH2 0x15D5 JUMPI PUSH2 0x15D5 PUSH2 0x15AE JUMP JUMPDEST PUSH0 PUSH1 0x20 DUP3 DUP5 SUB SLT ISZERO PUSH2 0x1648 JUMPI PUSH0 PUSH0 REVERT JUMPDEST POP MLOAD SWAP2 SWAP1 POP JUMP JUMPDEST PUSH1 0x1 PUSH1 0x1 PUSH1 0x60 SHL SUB DUP2 DUP2 AND DUP4 DUP3 AND ADD SWAP1 DUP2 GT ISZERO PUSH2 0x15D5 JUMPI PUSH2 0x15D5 PUSH2 0x15AE JUMP JUMPDEST PUSH0 PUSH1 0x1 DUP3 ADD PUSH2 0x167F JUMPI PUSH2 0x167F PUSH2 0x15AE JUMP JUMPDEST POP PUSH1 0x1 ADD SWAP1 JUMP INVALID LOG2 PUSH5 0x6970667358 0x22 SLT KECCAK256 0xA8 PUSH14 0x218E0601A27A13E9AC69315A81A7 0x1F SMOD 0xDD EXP ADDMOD EXTCALL CHAINID 0x4D 0xB6 0x2E MOD 0x29 OR SWAP4 SELFDESTRUCT SWAP15 PUSH5 0x736F6C6343 STOP ADDMOD 0x1E STOP CALLER "
				},
				"gasEstimates": {
					"creation": {
						"codeDepositCost": "1164000",
						"executionCost": "infinite",
						"totalCost": "infinite"
					},
					"external": {
						"CREDI()": "infinite",
						"DIFFICULTY_INTERVAL()": "2352",
						"MATURITY()": "305",
						"addRewards(uint256)": "infinite",
						"batchWithdrawCREDI(uint256[])": "infinite",
						"calculateReward(uint256)": "infinite",
						"claim(uint256)": "infinite",
						"getCREDIAddress()": "infinite",
						"getDifficulty()": "6732",
						"getStake(uint256)": "9033",
						"getStakesCount()": "2448",
						"getxCREDIAddress()": "infinite",
						"owner()": "2397",
						"pending_payments()": "2328",
						"renounceOwnership()": "infinite",
						"setDifficulty(uint256,uint256,uint256)": "68833",
						"stake(uint96,uint256)": "infinite",
						"stop()": "27344",
						"stopped()": "2415",
						"total_staked()": "2372",
						"transferOwnership(address)": "28402",
						"withdrawCREDI(uint256,uint256)": "infinite",
						"withdrawRewards(address,uint256)": "infinite",
						"xCREDI()": "infinite"
					},
					"internal": {
						"time_now()": "infinite"
					}
				},
				"methodIdentifiers": {
					"CREDI()": "6db08f25",
					"DIFFICULTY_INTERVAL()": "109cf399",
					"MATURITY()": "8e12c0cd",
					"addRewards(uint256)": "beceed39",
					"batchWithdrawCREDI(uint256[])": "bc854352",
					"calculateReward(uint256)": "d2d7231f",
					"claim(uint256)": "379607f5",
					"getCREDIAddress()": "d46149a2",
					"getDifficulty()": "b6baffe3",
					"getStake(uint256)": "ce325bf8",
					"getStakesCount()": "b5fa91fe",
					"getxCREDIAddress()": "7c2fdeb5",
					"owner()": "8da5cb5b",
					"pending_payments()": "8f4729b7",
					"renounceOwnership()": "715018a6",
					"setDifficulty(uint256,uint256,uint256)": "c9ea62c1",
					"stake(uint96,uint256)": "d93c04a0",
					"stop()": "07da68f5",
					"stopped()": "75f12b21",
					"total_staked()": "af7568dd",
					"transferOwnership(address)": "f2fde38b",
					"withdrawCREDI(uint256,uint256)": "ac00500f",
					"withdrawRewards(address,uint256)": "d6ef7af0",
					"xCREDI()": "b109beec"
				}
			},
			"storageLayout": {
				"storage": [
					{
						"astId": 8,
						"contract": "contracts/ModuleX.sol:ModuleX",
						"label": "_owner",
						"offset": 0,
						"slot": "0",
						"type": "t_address"
					},
					{
						"astId": 847,
						"contract": "contracts/ModuleX.sol:ModuleX",
						"label": "stopped",
						"offset": 20,
						"slot": "0",
						"type": "t_bool"
					},
					{
						"astId": 853,
						"contract": "contracts/ModuleX.sol:ModuleX",
						"label": "total_staked",
						"offset": 0,
						"slot": "1",
						"type": "t_uint256"
					},
					{
						"astId": 855,
						"contract": "contracts/ModuleX.sol:ModuleX",
						"label": "DIFFICULTY",
						"offset": 0,
						"slot": "2",
						"type": "t_uint256"
					},
					{
						"astId": 857,
						"contract": "contracts/ModuleX.sol:ModuleX",
						"label": "DIFFICULTY_INTERVAL",
						"offset": 0,
						"slot": "3",
						"type": "t_uint256"
					},
					{
						"astId": 868,
						"contract": "contracts/ModuleX.sol:ModuleX",
						"label": "stakes",
						"offset": 0,
						"slot": "4",
						"type": "t_mapping(t_uint256,t_struct(StakeDetails)844_storage)"
					},
					{
						"astId": 871,
						"contract": "contracts/ModuleX.sol:ModuleX",
						"label": "stakes_count",
						"offset": 0,
						"slot": "5",
						"type": "t_uint256"
					},
					{
						"astId": 874,
						"contract": "contracts/ModuleX.sol:ModuleX",
						"label": "pending_payments",
						"offset": 0,
						"slot": "6",
						"type": "t_uint256"
					}
				],
				"types": {
					"t_address": {
						"encoding": "inplace",
						"label": "address",
						"numberOfBytes": "20"
					},
					"t_bool": {
						"encoding": "inplace",
						"label": "bool",
						"numberOfBytes": "1"
					},
					"t_mapping(t_uint256,t_struct(StakeDetails)844_storage)": {
						"encoding": "mapping",
						"key": "t_uint256",
						"label": "mapping(uint256 => struct ModuleX.StakeDetails)",
						"numberOfBytes": "32",
						"value": "t_struct(StakeDetails)844_storage"
					},
					"t_struct(StakeDetails)844_storage": {
						"encoding": "inplace",
						"label": "struct ModuleX.StakeDetails",
						"members": [
							{
								"astId": 837,
								"contract": "contracts/ModuleX.sol:ModuleX",
								"label": "owner",
								"offset": 0,
								"slot": "0",
								"type": "t_address"
							},
							{
								"astId": 839,
								"contract": "contracts/ModuleX.sol:ModuleX",
								"label": "maturity",
								"offset": 20,
								"slot": "0",
								"type": "t_uint96"
							},
							{
								"astId": 841,
								"contract": "contracts/ModuleX.sol:ModuleX",
								"label": "stake_amount",
								"offset": 0,
								"slot": "1",
								"type": "t_uint256"
							},
							{
								"astId": 843,
								"contract": "contracts/ModuleX.sol:ModuleX",
								"label": "reward_amount",
								"offset": 0,
								"slot": "2",
								"type": "t_uint256"
							}
						],
						"numberOfBytes": "96"
					},
					"t_uint256": {
						"encoding": "inplace",
						"label": "uint256",
						"numberOfBytes": "32"
					},
					"t_uint96": {
						"encoding": "inplace",
						"label": "uint96",
						"numberOfBytes": "12"
					}
				}
			},
			"userdoc": {
				"kind": "user",
				"methods": {},
				"version": 1
			}
		}
	}
}