{
	"contracts/LPStaking.sol": {
		"LPStaking": {
			"abi": [
				{
					"inputs": [
						{
							"internalType": "address",
							"name": "_whale_oracle_addr",
							"type": "address"
						}
					],
					"stateMutability": "nonpayable",
					"type": "constructor"
				},
				{
					"inputs": [
						{
							"internalType": "address",
							"name": "owner",
							"type": "address"
						}
					],
					"name": "OwnableInvalidOwner",
					"type": "error"
				},
				{
					"inputs": [
						{
							"internalType": "address",
							"name": "account",
							"type": "address"
						}
					],
					"name": "OwnableUnauthorizedAccount",
					"type": "error"
				},
				{
					"inputs": [],
					"name": "ReentrancyGuardReentrantCall",
					"type": "error"
				},
				{
					"inputs": [
						{
							"internalType": "address",
							"name": "token",
							"type": "address"
						}
					],
					"name": "SafeERC20FailedOperation",
					"type": "error"
				},
				{
					"anonymous": false,
					"inputs": [
						{
							"indexed": true,
							"internalType": "uint256",
							"name": "pool_id",
							"type": "uint256"
						},
						{
							"indexed": false,
							"internalType": "uint96",
							"name": "apy",
							"type": "uint96"
						}
					],
					"name": "APYChanged",
					"type": "event"
				},
				{
					"anonymous": false,
					"inputs": [
						{
							"indexed": true,
							"internalType": "uint256",
							"name": "pool_id",
							"type": "uint256"
						},
						{
							"indexed": false,
							"internalType": "uint96",
							"name": "whales_bonus_apy",
							"type": "uint96"
						}
					],
					"name": "BonusAPYChanged",
					"type": "event"
				},
				{
					"anonymous": false,
					"inputs": [
						{
							"indexed": true,
							"internalType": "address",
							"name": "previousOwner",
							"type": "address"
						},
						{
							"indexed": true,
							"internalType": "address",
							"name": "newOwner",
							"type": "address"
						}
					],
					"name": "OwnershipTransferred",
					"type": "event"
				},
				{
					"anonymous": false,
					"inputs": [
						{
							"indexed": true,
							"internalType": "uint256",
							"name": "pool_id",
							"type": "uint256"
						},
						{
							"indexed": true,
							"internalType": "address",
							"name": "staking_token",
							"type": "address"
						},
						{
							"indexed": true,
							"internalType": "address",
							"name": "rewards_token",
							"type": "address"
						},
						{
							"indexed": false,
							"internalType": "address",
							"name": "price_oracle",
							"type": "address"
						},
						{
							"indexed": false,
							"internalType": "uint96",
							"name": "maturity",
							"type": "uint96"
						},
						{
							"indexed": false,
							"internalType": "uint96",
							"name": "apy",
							"type": "uint96"
						},
						{
							"indexed": false,
							"internalType": "uint96",
							"name": "whales_bonus_apy",
							"type": "uint96"
						}
					],
					"name": "PoolCreated",
					"type": "event"
				},
				{
					"anonymous": false,
					"inputs": [
						{
							"indexed": true,
							"internalType": "address",
							"name": "token",
							"type": "address"
						},
						{
							"indexed": false,
							"internalType": "uint256",
							"name": "amount",
							"type": "uint256"
						}
					],
					"name": "RewardAdded",
					"type": "event"
				},
				{
					"anonymous": false,
					"inputs": [
						{
							"indexed": true,
							"internalType": "uint256",
							"name": "pool_id",
							"type": "uint256"
						},
						{
							"indexed": false,
							"internalType": "uint256",
							"name": "stake_id",
							"type": "uint256"
						}
					],
					"name": "RewardPaid",
					"type": "event"
				},
				{
					"anonymous": false,
					"inputs": [
						{
							"indexed": true,
							"internalType": "uint256",
							"name": "pool_id",
							"type": "uint256"
						},
						{
							"indexed": false,
							"internalType": "uint256",
							"name": "stake_id",
							"type": "uint256"
						}
					],
					"name": "RewardVoided",
					"type": "event"
				},
				{
					"anonymous": false,
					"inputs": [
						{
							"indexed": true,
							"internalType": "address",
							"name": "token",
							"type": "address"
						},
						{
							"indexed": true,
							"internalType": "address",
							"name": "to",
							"type": "address"
						},
						{
							"indexed": false,
							"internalType": "uint256",
							"name": "amount",
							"type": "uint256"
						}
					],
					"name": "RewardWithdrawn",
					"type": "event"
				},
				{
					"anonymous": false,
					"inputs": [
						{
							"indexed": true,
							"internalType": "uint256",
							"name": "pool_id",
							"type": "uint256"
						},
						{
							"indexed": false,
							"internalType": "uint256",
							"name": "stake_id",
							"type": "uint256"
						}
					],
					"name": "StakeWithdrawn",
					"type": "event"
				},
				{
					"anonymous": false,
					"inputs": [
						{
							"indexed": true,
							"internalType": "address",
							"name": "owner",
							"type": "address"
						},
						{
							"indexed": false,
							"internalType": "uint256",
							"name": "stake_id",
							"type": "uint256"
						},
						{
							"indexed": true,
							"internalType": "uint256",
							"name": "pool_id",
							"type": "uint256"
						},
						{
							"indexed": false,
							"internalType": "uint96",
							"name": "maturity",
							"type": "uint96"
						},
						{
							"indexed": false,
							"internalType": "uint256",
							"name": "stake_amount",
							"type": "uint256"
						},
						{
							"indexed": false,
							"internalType": "uint256",
							"name": "rewards_amount",
							"type": "uint256"
						},
						{
							"indexed": false,
							"internalType": "uint256",
							"name": "required_CREDI",
							"type": "uint256"
						}
					],
					"name": "Staked",
					"type": "event"
				},
				{
					"inputs": [],
					"name": "CLAIM_PERIOD",
					"outputs": [
						{
							"internalType": "uint96",
							"name": "",
							"type": "uint96"
						}
					],
					"stateMutability": "view",
					"type": "function"
				},
				{
					"inputs": [],
					"name": "CREDI_WHALE_ORACLE",
					"outputs": [
						{
							"internalType": "contract ICREDIWhale",
							"name": "",
							"type": "address"
						}
					],
					"stateMutability": "view",
					"type": "function"
				},
				{
					"inputs": [
						{
							"internalType": "address",
							"name": "rewards_token",
							"type": "address"
						},
						{
							"internalType": "uint256",
							"name": "amount",
							"type": "uint256"
						}
					],
					"name": "addRewards",
					"outputs": [],
					"stateMutability": "nonpayable",
					"type": "function"
				},
				{
					"inputs": [
						{
							"internalType": "uint256",
							"name": "stake_id",
							"type": "uint256"
						}
					],
					"name": "claim",
					"outputs": [],
					"stateMutability": "nonpayable",
					"type": "function"
				},
				{
					"inputs": [
						{
							"internalType": "address",
							"name": "staking_token",
							"type": "address"
						},
						{
							"internalType": "address",
							"name": "rewards_token",
							"type": "address"
						},
						{
							"internalType": "address",
							"name": "price_oracle",
							"type": "address"
						},
						{
							"internalType": "uint256",
							"name": "reward_amount",
							"type": "uint256"
						},
						{
							"internalType": "uint96",
							"name": "maturity",
							"type": "uint96"
						},
						{
							"internalType": "uint96",
							"name": "apy",
							"type": "uint96"
						},
						{
							"internalType": "uint96",
							"name": "whales_bonus_apy",
							"type": "uint96"
						}
					],
					"name": "createPool",
					"outputs": [
						{
							"internalType": "uint256",
							"name": "",
							"type": "uint256"
						}
					],
					"stateMutability": "nonpayable",
					"type": "function"
				},
				{
					"inputs": [
						{
							"internalType": "uint256",
							"name": "pool_id",
							"type": "uint256"
						}
					],
					"name": "getPool",
					"outputs": [
						{
							"internalType": "address",
							"name": "staking_token",
							"type": "address"
						},
						{
							"internalType": "address",
							"name": "rewards_token",
							"type": "address"
						},
						{
							"internalType": "address",
							"name": "price_oracle",
							"type": "address"
						},
						{
							"internalType": "uint96",
							"name": "maturity",
							"type": "uint96"
						},
						{
							"internalType": "uint96",
							"name": "apy",
							"type": "uint96"
						},
						{
							"internalType": "uint96",
							"name": "whales_bonus_apy",
							"type": "uint96"
						}
					],
					"stateMutability": "view",
					"type": "function"
				},
				{
					"inputs": [],
					"name": "getPoolsCount",
					"outputs": [
						{
							"internalType": "uint256",
							"name": "",
							"type": "uint256"
						}
					],
					"stateMutability": "view",
					"type": "function"
				},
				{
					"inputs": [
						{
							"internalType": "uint256",
							"name": "stake_id",
							"type": "uint256"
						}
					],
					"name": "getStake",
					"outputs": [
						{
							"internalType": "address",
							"name": "owner",
							"type": "address"
						},
						{
							"internalType": "uint256",
							"name": "pool_id",
							"type": "uint256"
						},
						{
							"internalType": "uint96",
							"name": "maturity",
							"type": "uint96"
						},
						{
							"internalType": "uint256",
							"name": "stake_amount",
							"type": "uint256"
						},
						{
							"internalType": "uint256",
							"name": "reward_amount",
							"type": "uint256"
						},
						{
							"internalType": "uint256",
							"name": "required_CREDI",
							"type": "uint256"
						}
					],
					"stateMutability": "view",
					"type": "function"
				},
				{
					"inputs": [],
					"name": "owner",
					"outputs": [
						{
							"internalType": "address",
							"name": "",
							"type": "address"
						}
					],
					"stateMutability": "view",
					"type": "function"
				},
				{
					"inputs": [
						{
							"internalType": "address",
							"name": "",
							"type": "address"
						}
					],
					"name": "pending_payments",
					"outputs": [
						{
							"internalType": "uint256",
							"name": "",
							"type": "uint256"
						}
					],
					"stateMutability": "view",
					"type": "function"
				},
				{
					"inputs": [],
					"name": "renounceOwnership",
					"outputs": [],
					"stateMutability": "nonpayable",
					"type": "function"
				},
				{
					"inputs": [
						{
							"internalType": "uint256",
							"name": "pool_id",
							"type": "uint256"
						},
						{
							"internalType": "uint96",
							"name": "apy",
							"type": "uint96"
						}
					],
					"name": "setAPY",
					"outputs": [],
					"stateMutability": "nonpayable",
					"type": "function"
				},
				{
					"inputs": [
						{
							"internalType": "uint256",
							"name": "pool_id",
							"type": "uint256"
						},
						{
							"internalType": "uint96",
							"name": "whales_bonus_apy",
							"type": "uint96"
						}
					],
					"name": "setBonusAPY",
					"outputs": [],
					"stateMutability": "nonpayable",
					"type": "function"
				},
				{
					"inputs": [
						{
							"internalType": "uint256",
							"name": "pool_id",
							"type": "uint256"
						},
						{
							"internalType": "uint256",
							"name": "stake_amount",
							"type": "uint256"
						},
						{
							"internalType": "bytes",
							"name": "token0_price_data",
							"type": "bytes"
						},
						{
							"internalType": "bytes",
							"name": "token1_price_data",
							"type": "bytes"
						}
					],
					"name": "stake",
					"outputs": [],
					"stateMutability": "nonpayable",
					"type": "function"
				},
				{
					"inputs": [
						{
							"internalType": "address",
							"name": "newOwner",
							"type": "address"
						}
					],
					"name": "transferOwnership",
					"outputs": [],
					"stateMutability": "nonpayable",
					"type": "function"
				},
				{
					"inputs": [
						{
							"internalType": "uint256",
							"name": "stake_id",
							"type": "uint256"
						}
					],
					"name": "voidReward",
					"outputs": [],
					"stateMutability": "nonpayable",
					"type": "function"
				},
				{
					"inputs": [
						{
							"internalType": "address",
							"name": "rewards_token",
							"type": "address"
						},
						{
							"internalType": "address",
							"name": "to",
							"type": "address"
						},
						{
							"internalType": "uint256",
							"name": "amount",
							"type": "uint256"
						}
					],
					"name": "withdrawRewards",
					"outputs": [],
					"stateMutability": "nonpayable",
					"type": "function"
				},
				{
					"inputs": [
						{
							"internalType": "uint256",
							"name": "stake_id",
							"type": "uint256"
						}
					],
					"name": "withdrawStake",
					"outputs": [],
					"stateMutability": "nonpayable",
					"type": "function"
				}
			],
			"devdoc": {
				"errors": {
					"OwnableInvalidOwner(address)": [
						{
							"details": "The owner is not a valid owner account. (eg. `address(0)`)"
						}
					],
					"OwnableUnauthorizedAccount(address)": [
						{
							"details": "The caller account is not authorized to perform an operation."
						}
					],
					"ReentrancyGuardReentrantCall()": [
						{
							"details": "Unauthorized reentrant call."
						}
					],
					"SafeERC20FailedOperation(address)": [
						{
							"details": "An operation with an ERC-20 token failed."
						}
					]
				},
				"kind": "dev",
				"methods": {
					"owner()": {
						"details": "Returns the address of the current owner."
					},
					"renounceOwnership()": {
						"details": "Leaves the contract without owner. It will not be possible to call `onlyOwner` functions. Can only be called by the current owner. NOTE: Renouncing ownership will leave the contract without an owner, thereby disabling any functionality that is only available to the owner."
					},
					"transferOwnership(address)": {
						"details": "Transfers ownership of the contract to a new account (`newOwner`). Can only be called by the current owner."
					}
				},
				"version": 1
			},
			"evm": {
				"assembly": "    /* \"contracts/LPStaking.sol\":418:9760  contract LPStaking is Ownable, LPValue, ReentrancyGuard... */\n  mstore(0x40, 0xa0)\n    /* \"contracts/LPStaking.sol\":1175:1176  1 */\n  0x01\n    /* \"contracts/LPStaking.sol\":1147:1176  uint private stakes_count = 1 */\n  0x04\n  sstore\n    /* \"contracts/LPStaking.sol\":2368:2750  constructor(address _whale_oracle_addr) Ownable(_msgSender())... */\n  callvalue\n  dup1\n  iszero\n  tag_1\n  jumpi\n  revert(0x00, 0x00)\ntag_1:\n  pop\n  mload(0x40)\n  sub(codesize, bytecodeSize)\n  dup1\n  bytecodeSize\n  dup4\n  codecopy\n  dup2\n  add\n  0x40\n  dup2\n  swap1\n  mstore\n  tag_2\n  swap2\n  tag_3\n  jump\t// in\ntag_2:\n    /* \"@openzeppelin/contracts/utils/Context.sol\":735:745  msg.sender */\n  caller\n  dup1\n    /* \"@openzeppelin/contracts/access/Ownable.sol\":1269:1364  if (initialOwner == address(0)) {... */\n  tag_10\n  jumpi\n    /* \"@openzeppelin/contracts/access/Ownable.sol\":1322:1353  OwnableInvalidOwner(address(0)) */\n  mload(0x40)\n  shl(0xe0, 0x1e4fbdf7)\n  dup2\n  mstore\n    /* \"@openzeppelin/contracts/access/Ownable.sol\":1350:1351  0 */\n  0x00\n    /* \"@openzeppelin/contracts/access/Ownable.sol\":1322:1353  OwnableInvalidOwner(address(0)) */\n  0x04\n  dup3\n  add\n    /* \"#utility.yul\":455:506   */\n  mstore\n    /* \"#utility.yul\":428:446   */\n  0x24\n  add\n    /* \"@openzeppelin/contracts/access/Ownable.sol\":1322:1353  OwnableInvalidOwner(address(0)) */\n  mload(0x40)\n  dup1\n  swap2\n  sub\n  swap1\n  revert\n    /* \"@openzeppelin/contracts/access/Ownable.sol\":1269:1364  if (initialOwner == address(0)) {... */\ntag_10:\n    /* \"@openzeppelin/contracts/access/Ownable.sol\":1373:1405  _transferOwnership(initialOwner) */\n  tag_13\n    /* \"@openzeppelin/contracts/access/Ownable.sol\":1392:1404  initialOwner */\n  dup2\n    /* \"@openzeppelin/contracts/access/Ownable.sol\":1373:1391  _transferOwnership */\n  tag_14\n    /* \"@openzeppelin/contracts/access/Ownable.sol\":1373:1405  _transferOwnership(initialOwner) */\n  jump\t// in\ntag_13:\n  pop\n    /* \"@openzeppelin/contracts/utils/ReentrancyGuard.sol\":1857:1858  1 */\n  0x01\n    /* \"@openzeppelin/contracts/utils/ReentrancyGuard.sol\":2061:2082  _status = NOT_ENTERED */\n  dup1\n  dup1\n  sstore\n  sub(shl(0xa0, 0x01), 0x01)\n    /* \"contracts/LPStaking.sol\":2446:2498  CREDI_WHALE_ORACLE = ICREDIWhale(_whale_oracle_addr) */\n  swap2\n  dup3\n  and\n  0x80\n  swap1\n  dup2\n  mstore\n    /* \"contracts/LPStaking.sol\":2520:2741  PoolInfo({... */\n  0x40\n  dup1\n  mload\n  0xc0\n  dup2\n  add\n  dup3\n  mstore\n  0x00\n  dup1\n  dup3\n  mstore\n  0x20\n  dup3\n  add\n  dup2\n  dup2\n  mstore\n  swap3\n  dup3\n  add\n  dup2\n  dup2\n  mstore\n  0x60\n  dup4\n  add\n  dup3\n  dup2\n  mstore\n  swap5\n  dup4\n  add\n  dup3\n  dup2\n  mstore\n  0xa0\n  dup5\n  add\n  dup4\n  dup2\n  mstore\n    /* \"contracts/LPStaking.sol\":2509:2514  pools */\n  0x02\n    /* \"contracts/LPStaking.sol\":2509:2742  pools.push(PoolInfo({... */\n  dup1\n  sload\n  swap9\n  dup10\n  add\n  dup2\n  sstore\n  swap1\n  swap4\n  mstore\n  swap3\n  mload\n  swap4\n  mload\n  swap4\n  dup8\n  and\n  shl(0xa0, 0x01)\n  sub(shl(0x60, 0x01), 0x01)\n  swap6\n  dup7\n  and\n  dup2\n  mul\n  swap2\n  swap1\n  swap2\n  or\n  0x405787fa12a823e0f2b7631cc41b3ba8828b3321ca811111fa75cd3aa3bb5ace\n  0x03\n  swap1\n  swap9\n  mul\n  swap8\n  dup9\n  add\n  sstore\n  swap1\n  mload\n  swap5\n  mload\n  swap5\n  dup8\n  and\n  swap5\n  dup5\n  and\n  dup2\n  mul\n  swap5\n  swap1\n  swap5\n  or\n  0x405787fa12a823e0f2b7631cc41b3ba8828b3321ca811111fa75cd3aa3bb5acf\n  dup7\n  add\n  sstore\n  swap1\n  mload\n  swap1\n  mload\n  swap5\n  and\n  swap4\n  and\n  mul\n  swap2\n  swap1\n  swap2\n  or\n  0x405787fa12a823e0f2b7631cc41b3ba8828b3321ca811111fa75cd3aa3bb5ad0\n  swap1\n  swap2\n  add\n  sstore\n    /* \"contracts/LPStaking.sol\":418:9760  contract LPStaking is Ownable, LPValue, ReentrancyGuard... */\n  jump(tag_21)\n    /* \"@openzeppelin/contracts/access/Ownable.sol\":2912:3099  function _transferOwnership(address newOwner) internal virtual {... */\ntag_14:\n    /* \"@openzeppelin/contracts/access/Ownable.sol\":2985:3001  address oldOwner */\n  0x00\n    /* \"@openzeppelin/contracts/access/Ownable.sol\":3004:3010  _owner */\n  dup1\n  sload\n  sub(shl(0xa0, 0x01), 0x01)\n    /* \"@openzeppelin/contracts/access/Ownable.sol\":3020:3037  _owner = newOwner */\n  dup4\n  dup2\n  and\n  not(sub(shl(0xa0, 0x01), 0x01))\n  dup4\n  and\n  dup2\n  or\n  dup5\n  sstore\n    /* \"@openzeppelin/contracts/access/Ownable.sol\":3052:3092  OwnershipTransferred(oldOwner, newOwner) */\n  mload(0x40)\n    /* \"@openzeppelin/contracts/access/Ownable.sol\":3004:3010  _owner */\n  swap2\n  swap1\n  swap3\n  and\n  swap3\n  dup4\n  swap2\n    /* \"@openzeppelin/contracts/access/Ownable.sol\":3052:3092  OwnershipTransferred(oldOwner, newOwner) */\n  0x8be0079c531659141344cd1fd0a4f28419497f9722a3daafe3b4186f6b6457e0\n  swap2\n    /* \"@openzeppelin/contracts/access/Ownable.sol\":2985:3001  address oldOwner */\n  swap1\n    /* \"@openzeppelin/contracts/access/Ownable.sol\":3052:3092  OwnershipTransferred(oldOwner, newOwner) */\n  log3\n    /* \"@openzeppelin/contracts/access/Ownable.sol\":2975:3099  {... */\n  pop\n    /* \"@openzeppelin/contracts/access/Ownable.sol\":2912:3099  function _transferOwnership(address newOwner) internal virtual {... */\n  pop\n  jump\t// out\n    /* \"#utility.yul\":14:304   */\ntag_3:\n    /* \"#utility.yul\":84:90   */\n  0x00\n    /* \"#utility.yul\":137:139   */\n  0x20\n    /* \"#utility.yul\":125:134   */\n  dup3\n    /* \"#utility.yul\":116:123   */\n  dup5\n    /* \"#utility.yul\":112:135   */\n  sub\n    /* \"#utility.yul\":108:140   */\n  slt\n    /* \"#utility.yul\":105:157   */\n  iszero\n  tag_23\n  jumpi\n    /* \"#utility.yul\":153:154   */\n  0x00\n    /* \"#utility.yul\":150:151   */\n  0x00\n    /* \"#utility.yul\":143:155   */\n  revert\n    /* \"#utility.yul\":105:157   */\ntag_23:\n    /* \"#utility.yul\":179:195   */\n  dup2\n  mload\n  sub(shl(0xa0, 0x01), 0x01)\n    /* \"#utility.yul\":224:255   */\n  dup2\n  and\n    /* \"#utility.yul\":214:256   */\n  dup2\n  eq\n    /* \"#utility.yul\":204:274   */\n  tag_24\n  jumpi\n    /* \"#utility.yul\":270:271   */\n  0x00\n    /* \"#utility.yul\":267:268   */\n  0x00\n    /* \"#utility.yul\":260:272   */\n  revert\n    /* \"#utility.yul\":204:274   */\ntag_24:\n    /* \"#utility.yul\":293:298   */\n  swap4\n    /* \"#utility.yul\":14:304   */\n  swap3\n  pop\n  pop\n  pop\n  jump\t// out\n    /* \"#utility.yul\":309:512   */\ntag_21:\n    /* \"contracts/LPStaking.sol\":418:9760  contract LPStaking is Ownable, LPValue, ReentrancyGuard... */\n  mload(0x80)\n  codecopy(0x00, dataOffset(sub_0), dataSize(sub_0))\n  0x00\n  assignImmutable(\"0x1be098a259116bb01f030c85677666e5a5cc1ac00ee0d8dd61762f3f467db074\")\n  return(0x00, dataSize(sub_0))\nstop\n\nsub_0: assembly {\n        /* \"contracts/LPStaking.sol\":418:9760  contract LPStaking is Ownable, LPValue, ReentrancyGuard... */\n      mstore(0x40, 0x80)\n      callvalue\n      dup1\n      iszero\n      tag_1\n      jumpi\n      revert(0x00, 0x00)\n    tag_1:\n      pop\n      jumpi(tag_2, lt(calldatasize, 0x04))\n      shr(0xe0, calldataload(0x00))\n      dup1\n      0x715018a6\n      gt\n      tag_21\n      jumpi\n      dup1\n      0xa9fc507b\n      gt\n      tag_22\n      jumpi\n      dup1\n      0xa9fc507b\n      eq\n      tag_16\n      jumpi\n      dup1\n      0xb4ac6860\n      eq\n      tag_17\n      jumpi\n      dup1\n      0xcc5c56dc\n      eq\n      tag_18\n      jumpi\n      dup1\n      0xce325bf8\n      eq\n      tag_19\n      jumpi\n      dup1\n      0xf2fde38b\n      eq\n      tag_20\n      jumpi\n      revert(0x00, 0x00)\n    tag_22:\n      dup1\n      0x715018a6\n      eq\n      tag_12\n      jumpi\n      dup1\n      0x74ee6b62\n      eq\n      tag_13\n      jumpi\n      dup1\n      0x8da5cb5b\n      eq\n      tag_14\n      jumpi\n      dup1\n      0x954821b6\n      eq\n      tag_15\n      jumpi\n      revert(0x00, 0x00)\n    tag_21:\n      dup1\n      0x25d5971f\n      gt\n      tag_23\n      jumpi\n      dup1\n      0x25d5971f\n      eq\n      tag_7\n      jumpi\n      dup1\n      0x379607f5\n      eq\n      tag_8\n      jumpi\n      dup1\n      0x3b5dd047\n      eq\n      tag_9\n      jumpi\n      dup1\n      0x4f44daa9\n      eq\n      tag_10\n      jumpi\n      dup1\n      0x69ca431b\n      eq\n      tag_11\n      jumpi\n      revert(0x00, 0x00)\n    tag_23:\n      dup1\n      0x215784\n      eq\n      tag_3\n      jumpi\n      dup1\n      0x039ba6b7\n      eq\n      tag_4\n      jumpi\n      dup1\n      0x068bcd8d\n      eq\n      tag_5\n      jumpi\n      dup1\n      0x21241dfe\n      eq\n      tag_6\n      jumpi\n    tag_2:\n      revert(0x00, 0x00)\n        /* \"contracts/LPStaking.sol\":7423:7859  function voidReward(uint stake_id) external onlyOwner validate_stake(stake_id)... */\n    tag_3:\n      tag_24\n      tag_25\n      calldatasize\n      0x04\n      tag_26\n      jump\t// in\n    tag_25:\n      tag_27\n      jump\t// in\n    tag_24:\n      stop\n        /* \"contracts/LPStaking.sol\":9196:9431  function setAPY(uint pool_id, uint96 apy) external onlyOwner validate_pool(pool_id)... */\n    tag_4:\n      tag_24\n      tag_29\n      calldatasize\n      0x04\n      tag_30\n      jump\t// in\n    tag_29:\n      tag_31\n      jump\t// in\n        /* \"contracts/LPStaking.sol\":2758:3295  function getPool(uint pool_id) external validate_pool(pool_id) view ... */\n    tag_5:\n      tag_32\n      tag_33\n      calldatasize\n      0x04\n      tag_26\n      jump\t// in\n    tag_33:\n      tag_34\n      jump\t// in\n    tag_32:\n      0x40\n      dup1\n      mload\n      sub(shl(0xa0, 0x01), 0x01)\n        /* \"#utility.yul\":1031:1063   */\n      swap8\n      dup9\n      and\n        /* \"#utility.yul\":1013:1064   */\n      dup2\n      mstore\n        /* \"#utility.yul\":1100:1132   */\n      swap6\n      dup8\n      and\n        /* \"#utility.yul\":1095:1097   */\n      0x20\n        /* \"#utility.yul\":1080:1098   */\n      dup8\n      add\n        /* \"#utility.yul\":1073:1133   */\n      mstore\n        /* \"#utility.yul\":1169:1201   */\n      swap4\n      swap1\n      swap6\n      and\n        /* \"#utility.yul\":1149:1167   */\n      swap3\n      dup5\n      add\n        /* \"#utility.yul\":1142:1202   */\n      swap3\n      swap1\n      swap3\n      mstore\n      sub(shl(0x60, 0x01), 0x01)\n        /* \"#utility.yul\":1238:1277   */\n      swap1\n      dup2\n      and\n        /* \"#utility.yul\":1233:1235   */\n      0x60\n        /* \"#utility.yul\":1218:1236   */\n      dup5\n      add\n        /* \"#utility.yul\":1211:1278   */\n      mstore\n        /* \"#utility.yul\":1315:1354   */\n      swap1\n      dup2\n      and\n        /* \"#utility.yul\":1309:1312   */\n      0x80\n        /* \"#utility.yul\":1294:1313   */\n      dup4\n      add\n        /* \"#utility.yul\":1287:1355   */\n      mstore\n        /* \"#utility.yul\":1392:1431   */\n      swap1\n      swap2\n      and\n        /* \"#utility.yul\":1051:1054   */\n      0xa0\n        /* \"#utility.yul\":1371:1390   */\n      dup3\n      add\n        /* \"#utility.yul\":1364:1432   */\n      mstore\n        /* \"#utility.yul\":1000:1003   */\n      0xc0\n        /* \"#utility.yul\":985:1004   */\n      add\n        /* \"contracts/LPStaking.sol\":2758:3295  function getPool(uint pool_id) external validate_pool(pool_id) view ... */\n    tag_35:\n      mload(0x40)\n      dup1\n      swap2\n      sub\n      swap1\n      return\n        /* \"contracts/LPStaking.sol\":956:1001  uint96 constant public CLAIM_PERIOD = 40 days */\n    tag_6:\n      tag_37\n        /* \"contracts/LPStaking.sol\":994:1001  40 days */\n      0x34bc00\n        /* \"contracts/LPStaking.sol\":956:1001  uint96 constant public CLAIM_PERIOD = 40 days */\n      dup2\n      jump\n    tag_37:\n      mload(0x40)\n      sub(shl(0x60, 0x01), 0x01)\n        /* \"#utility.yul\":1605:1644   */\n      swap1\n      swap2\n      and\n        /* \"#utility.yul\":1587:1645   */\n      dup2\n      mstore\n        /* \"#utility.yul\":1575:1577   */\n      0x20\n        /* \"#utility.yul\":1560:1578   */\n      add\n        /* \"contracts/LPStaking.sol\":956:1001  uint96 constant public CLAIM_PERIOD = 40 days */\n      tag_35\n        /* \"#utility.yul\":1443:1651   */\n      jump\n        /* \"contracts/LPStaking.sol\":7867:8526  function withdrawStake(uint stake_id) external nonReentrant validate_stake(stake_id)... */\n    tag_7:\n      tag_24\n      tag_42\n      calldatasize\n      0x04\n      tag_26\n      jump\t// in\n    tag_42:\n      tag_43\n      jump\t// in\n        /* \"contracts/LPStaking.sol\":6446:7415  function claim(uint stake_id) external nonReentrant validate_stake(stake_id)... */\n    tag_8:\n      tag_24\n      tag_45\n      calldatasize\n      0x04\n      tag_26\n      jump\t// in\n    tag_45:\n      tag_46\n      jump\t// in\n        /* \"contracts/LPStaking.sol\":5024:6438  function stake(uint pool_id, uint stake_amount, bytes calldata token0_price_data, bytes calldata token1_price_data) external nonReentrant validate_pool(pool_id)... */\n    tag_9:\n      tag_24\n      tag_48\n      calldatasize\n      0x04\n      tag_49\n      jump\t// in\n    tag_48:\n      tag_50\n      jump\t// in\n        /* \"contracts/LPStaking.sol\":9439:9755  function setBonusAPY(uint pool_id, uint96 whales_bonus_apy) external onlyOwner validate_pool(pool_id)... */\n    tag_10:\n      tag_24\n      tag_52\n      calldatasize\n      0x04\n      tag_30\n      jump\t// in\n    tag_52:\n      tag_53\n      jump\t// in\n        /* \"contracts/LPStaking.sol\":4046:5016  function createPool(address staking_token, address rewards_token, address price_oracle, uint reward_amount, uint96 maturity, uint96 apy, uint96 whales_bonus_apy) external onlyOwner returns(uint)... */\n    tag_11:\n      tag_54\n      tag_55\n      calldatasize\n      0x04\n      tag_56\n      jump\t// in\n    tag_55:\n      tag_57\n      jump\t// in\n    tag_54:\n      mload(0x40)\n        /* \"#utility.yul\":4116:4141   */\n      swap1\n      dup2\n      mstore\n        /* \"#utility.yul\":4104:4106   */\n      0x20\n        /* \"#utility.yul\":4089:4107   */\n      add\n        /* \"contracts/LPStaking.sol\":4046:5016  function createPool(address staking_token, address rewards_token, address price_oracle, uint reward_amount, uint96 maturity, uint96 apy, uint96 whales_bonus_apy) external onlyOwner returns(uint)... */\n      tag_35\n        /* \"#utility.yul\":3970:4147   */\n      jump\n        /* \"@openzeppelin/contracts/access/Ownable.sol\":2293:2394  function renounceOwnership() public virtual onlyOwner {... */\n    tag_12:\n      tag_24\n      tag_61\n      jump\t// in\n        /* \"contracts/LPStaking.sol\":8833:9188  function withdrawRewards(address rewards_token, address to, uint amount) external onlyOwner... */\n    tag_13:\n      tag_24\n      tag_63\n      calldatasize\n      0x04\n      tag_64\n      jump\t// in\n    tag_63:\n      tag_65\n      jump\t// in\n        /* \"@openzeppelin/contracts/access/Ownable.sol\":1638:1723  function owner() public view virtual returns (address) {... */\n    tag_14:\n        /* \"@openzeppelin/contracts/access/Ownable.sol\":1684:1691  address */\n      0x00\n        /* \"@openzeppelin/contracts/access/Ownable.sol\":1710:1716  _owner */\n      sload\n      sub(shl(0xa0, 0x01), 0x01)\n      and\n        /* \"@openzeppelin/contracts/access/Ownable.sol\":1638:1723  function owner() public view virtual returns (address) {... */\n    tag_66:\n      mload(0x40)\n      sub(shl(0xa0, 0x01), 0x01)\n        /* \"#utility.yul\":4829:4861   */\n      swap1\n      swap2\n      and\n        /* \"#utility.yul\":4811:4862   */\n      dup2\n      mstore\n        /* \"#utility.yul\":4799:4801   */\n      0x20\n        /* \"#utility.yul\":4784:4802   */\n      add\n        /* \"@openzeppelin/contracts/access/Ownable.sol\":1638:1723  function owner() public view virtual returns (address) {... */\n      tag_35\n        /* \"#utility.yul\":4665:4868   */\n      jump\n        /* \"contracts/LPStaking.sol\":1183:1232  mapping (address => uint) public pending_payments */\n    tag_15:\n      tag_54\n      tag_71\n      calldatasize\n      0x04\n      tag_72\n      jump\t// in\n    tag_71:\n      mstore(0x20, 0x05)\n      0x00\n      swap1\n      dup2\n      mstore\n      0x40\n      swap1\n      keccak256\n      sload\n      dup2\n      jump\n        /* \"contracts/LPStaking.sol\":8534:8825  function addRewards(address rewards_token, uint amount) public ... */\n    tag_16:\n      tag_24\n      tag_76\n      calldatasize\n      0x04\n      tag_77\n      jump\t// in\n    tag_76:\n      tag_78\n      jump\t// in\n        /* \"contracts/LPStaking.sol\":3825:3927  function getPoolsCount() external view returns (uint) ... */\n    tag_17:\n      tag_54\n      tag_80\n      jump\t// in\n        /* \"contracts/LPStaking.sol\":1008:1055  ICREDIWhale immutable public CREDI_WHALE_ORACLE */\n    tag_18:\n      tag_66\n      immutable(\"0x1be098a259116bb01f030c85677666e5a5cc1ac00ee0d8dd61762f3f467db074\")\n      dup2\n      jump\n        /* \"contracts/LPStaking.sol\":3306:3817  function getStake(uint stake_id) external validate_stake(stake_id) view ... */\n    tag_19:\n      tag_86\n      tag_87\n      calldatasize\n      0x04\n      tag_26\n      jump\t// in\n    tag_87:\n      tag_88\n      jump\t// in\n    tag_86:\n      0x40\n      dup1\n      mload\n      sub(shl(0xa0, 0x01), 0x01)\n        /* \"#utility.yul\":6028:6060   */\n      swap1\n      swap8\n      and\n        /* \"#utility.yul\":6010:6061   */\n      dup8\n      mstore\n        /* \"#utility.yul\":6092:6094   */\n      0x20\n        /* \"#utility.yul\":6077:6095   */\n      dup8\n      add\n        /* \"#utility.yul\":6070:6104   */\n      swap6\n      swap1\n      swap6\n      mstore\n      sub(shl(0x60, 0x01), 0x01)\n        /* \"#utility.yul\":6140:6179   */\n      swap1\n      swap4\n      and\n        /* \"#utility.yul\":6120:6138   */\n      swap4\n      dup6\n      add\n        /* \"#utility.yul\":6113:6180   */\n      swap4\n      swap1\n      swap4\n      mstore\n        /* \"#utility.yul\":6211:6213   */\n      0x60\n        /* \"#utility.yul\":6196:6214   */\n      dup5\n      add\n        /* \"#utility.yul\":6189:6223   */\n      mstore\n        /* \"#utility.yul\":6254:6257   */\n      0x80\n        /* \"#utility.yul\":6239:6258   */\n      dup4\n      add\n        /* \"#utility.yul\":6232:6267   */\n      swap2\n      swap1\n      swap2\n      mstore\n        /* \"#utility.yul\":6048:6051   */\n      0xa0\n        /* \"#utility.yul\":6283:6302   */\n      dup3\n      add\n        /* \"#utility.yul\":6276:6311   */\n      mstore\n        /* \"#utility.yul\":5997:6000   */\n      0xc0\n        /* \"#utility.yul\":5982:6001   */\n      add\n        /* \"contracts/LPStaking.sol\":3306:3817  function getStake(uint stake_id) external validate_stake(stake_id) view ... */\n      tag_35\n        /* \"#utility.yul\":5725:6317   */\n      jump\n        /* \"@openzeppelin/contracts/access/Ownable.sol\":2543:2758  function transferOwnership(address newOwner) public virtual onlyOwner {... */\n    tag_20:\n      tag_24\n      tag_92\n      calldatasize\n      0x04\n      tag_72\n      jump\t// in\n    tag_92:\n      tag_93\n      jump\t// in\n        /* \"contracts/LPStaking.sol\":7423:7859  function voidReward(uint stake_id) external onlyOwner validate_stake(stake_id)... */\n    tag_27:\n        /* \"@openzeppelin/contracts/access/Ownable.sol\":1531:1544  _checkOwner() */\n      tag_95\n        /* \"@openzeppelin/contracts/access/Ownable.sol\":1531:1542  _checkOwner */\n      tag_96\n        /* \"@openzeppelin/contracts/access/Ownable.sol\":1531:1544  _checkOwner() */\n      jump\t// in\n    tag_95:\n        /* \"contracts/LPStaking.sol\":7492:7500  stake_id */\n      dup1\n        /* \"contracts/LPStaking.sol\":2280:2281  0 */\n      0x00\n        /* \"contracts/LPStaking.sol\":2269:2277  stake_id */\n      dup2\n        /* \"contracts/LPStaking.sol\":2269:2281  stake_id > 0 */\n      gt\n        /* \"contracts/LPStaking.sol\":2269:2308  stake_id > 0 && stake_id < stakes_count */\n      dup1\n      iszero\n      tag_98\n      jumpi\n      pop\n        /* \"contracts/LPStaking.sol\":2296:2308  stakes_count */\n      sload(0x04)\n        /* \"contracts/LPStaking.sol\":2285:2293  stake_id */\n      dup2\n        /* \"contracts/LPStaking.sol\":2285:2308  stake_id < stakes_count */\n      lt\n        /* \"contracts/LPStaking.sol\":2269:2308  stake_id > 0 && stake_id < stakes_count */\n    tag_98:\n        /* \"contracts/LPStaking.sol\":2261:2340  require(stake_id > 0 && stake_id < stakes_count, \"LPStaking:Invalid Stake ID!\") */\n      tag_99\n      jumpi\n      mload(0x40)\n      shl(0xe5, 0x461bcd)\n      dup2\n      mstore\n      0x04\n      add\n      tag_100\n      swap1\n      tag_101\n      jump\t// in\n    tag_100:\n      mload(0x40)\n      dup1\n      swap2\n      sub\n      swap1\n      revert\n    tag_99:\n        /* \"contracts/LPStaking.sol\":7518:7546  StakeDetails storage details */\n      0x00\n        /* \"contracts/LPStaking.sol\":7549:7565  stakes[stake_id] */\n      dup3\n      dup2\n      mstore\n        /* \"contracts/LPStaking.sol\":7549:7555  stakes */\n      0x03\n        /* \"contracts/LPStaking.sol\":7549:7565  stakes[stake_id] */\n      0x20\n      mstore\n      0x40\n      swap1\n      keccak256\n        /* \"contracts/LPStaking.sol\":7598:7614  details.maturity */\n      0x01\n      dup2\n      add\n      sload\n        /* \"contracts/LPStaking.sol\":7598:7629  details.maturity + CLAIM_PERIOD */\n      tag_103\n      swap1\n        /* \"contracts/LPStaking.sol\":994:1001  40 days */\n      0x34bc00\n      swap1\n      shl(0xa0, 0x01)\n        /* \"contracts/LPStaking.sol\":7598:7614  details.maturity */\n      swap1\n      div\n      sub(shl(0x60, 0x01), 0x01)\n      and\n        /* \"contracts/LPStaking.sol\":7598:7629  details.maturity + CLAIM_PERIOD */\n      tag_104\n      jump\t// in\n    tag_103:\n      sub(shl(0x60, 0x01), 0x01)\n        /* \"contracts/LPStaking.sol\":7584:7629  time_now() >= details.maturity + CLAIM_PERIOD */\n      and\n        /* \"contracts/LPStaking.sol\":4014:4029  block.timestamp */\n      timestamp\n      sub(shl(0x60, 0x01), 0x01)\n        /* \"contracts/LPStaking.sol\":7584:7629  time_now() >= details.maturity + CLAIM_PERIOD */\n      and\n      lt\n      iszero\n        /* \"contracts/LPStaking.sol\":7576:7630  require(time_now() >= details.maturity + CLAIM_PERIOD) */\n      tag_107\n      jumpi\n      revert(0x00, 0x00)\n    tag_107:\n        /* \"contracts/LPStaking.sol\":7642:7663  PoolInfo storage pool */\n      0x00\n        /* \"contracts/LPStaking.sol\":7666:7671  pools */\n      0x02\n        /* \"contracts/LPStaking.sol\":7672:7679  details */\n      dup3\n        /* \"contracts/LPStaking.sol\":7672:7687  details.pool_id */\n      0x00\n      add\n      sload\n        /* \"contracts/LPStaking.sol\":7666:7688  pools[details.pool_id] */\n      dup2\n      sload\n      dup2\n      lt\n      tag_109\n      jumpi\n      tag_109\n      tag_110\n      jump\t// in\n    tag_109:\n      0x00\n      swap2\n      dup3\n      mstore\n      0x20\n      dup1\n      dup4\n      keccak256\n      0x03\n        /* \"contracts/LPStaking.sol\":7739:7760  details.reward_amount */\n      dup7\n      dup2\n      add\n      sload\n        /* \"contracts/LPStaking.sol\":7666:7688  pools[details.pool_id] */\n      swap4\n      mul\n      add\n        /* \"contracts/LPStaking.sol\":7716:7734  pool.rewards_token */\n      0x01\n      dup2\n      add\n      sload\n      sub(shl(0xa0, 0x01), 0x01)\n      and\n        /* \"contracts/LPStaking.sol\":7699:7735  pending_payments[pool.rewards_token] */\n      dup5\n      mstore\n        /* \"contracts/LPStaking.sol\":7699:7715  pending_payments */\n      0x05\n        /* \"contracts/LPStaking.sol\":7699:7735  pending_payments[pool.rewards_token] */\n      swap1\n      swap2\n      mstore\n      0x40\n      dup4\n      keccak256\n        /* \"contracts/LPStaking.sol\":7699:7760  pending_payments[pool.rewards_token] -= details.reward_amount */\n      dup1\n      sload\n        /* \"contracts/LPStaking.sol\":7666:7688  pools[details.pool_id] */\n      swap2\n      swap5\n      pop\n        /* \"contracts/LPStaking.sol\":7739:7760  details.reward_amount */\n      swap2\n      swap3\n        /* \"contracts/LPStaking.sol\":7666:7688  pools[details.pool_id] */\n      swap1\n        /* \"contracts/LPStaking.sol\":7699:7760  pending_payments[pool.rewards_token] -= details.reward_amount */\n      tag_112\n      swap1\n        /* \"contracts/LPStaking.sol\":7739:7760  details.reward_amount */\n      dup5\n      swap1\n        /* \"contracts/LPStaking.sol\":7699:7760  pending_payments[pool.rewards_token] -= details.reward_amount */\n      tag_113\n      jump\t// in\n    tag_112:\n      swap1\n      swap2\n      sstore\n      pop\n      pop\n        /* \"contracts/LPStaking.sol\":7795:7796  0 */\n      0x00\n        /* \"contracts/LPStaking.sol\":7771:7792  details.reward_amount */\n      0x03\n      dup4\n      add\n        /* \"contracts/LPStaking.sol\":7771:7796  details.reward_amount = 0 */\n      sstore\n        /* \"contracts/LPStaking.sol\":7825:7840  details.pool_id */\n      dup2\n      sload\n        /* \"contracts/LPStaking.sol\":7812:7851  RewardVoided(details.pool_id, stake_id) */\n      mload(0x40)\n        /* \"#utility.yul\":4116:4141   */\n      dup6\n      dup2\n      mstore\n        /* \"contracts/LPStaking.sol\":7812:7851  RewardVoided(details.pool_id, stake_id) */\n      0x085cf309fcbacaf1ee2b300f62e8586a0661e41c7f318003e9aab792be89980b\n      swap1\n        /* \"#utility.yul\":4104:4106   */\n      0x20\n        /* \"#utility.yul\":4089:4107   */\n      add\n        /* \"contracts/LPStaking.sol\":7812:7851  RewardVoided(details.pool_id, stake_id) */\n      mload(0x40)\n      dup1\n      swap2\n      sub\n      swap1\n      log2\n        /* \"contracts/LPStaking.sol\":7507:7859  {... */\n      pop\n      pop\n        /* \"@openzeppelin/contracts/access/Ownable.sol\":1554:1555  _ */\n      pop\n        /* \"contracts/LPStaking.sol\":7423:7859  function voidReward(uint stake_id) external onlyOwner validate_stake(stake_id)... */\n      pop\n      jump\t// out\n        /* \"contracts/LPStaking.sol\":9196:9431  function setAPY(uint pool_id, uint96 apy) external onlyOwner validate_pool(pool_id)... */\n    tag_31:\n        /* \"@openzeppelin/contracts/access/Ownable.sol\":1531:1544  _checkOwner() */\n      tag_116\n        /* \"@openzeppelin/contracts/access/Ownable.sol\":1531:1542  _checkOwner */\n      tag_96\n        /* \"@openzeppelin/contracts/access/Ownable.sol\":1531:1544  _checkOwner() */\n      jump\t// in\n    tag_116:\n        /* \"contracts/LPStaking.sol\":9271:9278  pool_id */\n      dup2\n        /* \"contracts/LPStaking.sol\":2119:2120  0 */\n      0x00\n        /* \"contracts/LPStaking.sol\":2109:2116  pool_id */\n      dup2\n        /* \"contracts/LPStaking.sol\":2109:2120  pool_id > 0 */\n      gt\n        /* \"contracts/LPStaking.sol\":2109:2146  pool_id > 0 && pool_id < pools.length */\n      dup1\n      iszero\n      tag_118\n      jumpi\n      pop\n        /* \"contracts/LPStaking.sol\":2134:2139  pools */\n      0x02\n        /* \"contracts/LPStaking.sol\":2134:2146  pools.length */\n      sload\n        /* \"contracts/LPStaking.sol\":2124:2146  pool_id < pools.length */\n      dup2\n      lt\n        /* \"contracts/LPStaking.sol\":2109:2146  pool_id > 0 && pool_id < pools.length */\n    tag_118:\n        /* \"contracts/LPStaking.sol\":2101:2177  require(pool_id > 0 && pool_id < pools.length, \"LPStaking:Invalid Pool ID!\") */\n      tag_119\n      jumpi\n      mload(0x40)\n      shl(0xe5, 0x461bcd)\n      dup2\n      mstore\n      0x04\n      add\n      tag_100\n      swap1\n      tag_121\n      jump\t// in\n    tag_119:\n        /* \"contracts/LPStaking.sol\":9311:9317  100000 */\n      0x0186a0\n        /* \"contracts/LPStaking.sol\":9304:9307  apy */\n      dup3\n      sub(shl(0x60, 0x01), 0x01)\n        /* \"contracts/LPStaking.sol\":9304:9317  apy <= 100000 */\n      and\n      gt\n      iszero\n        /* \"contracts/LPStaking.sol\":9296:9348  require(apy <= 100000, \"LPStaking:max apy is 1000%\") */\n      tag_123\n      jumpi\n      mload(0x40)\n      shl(0xe5, 0x461bcd)\n      dup2\n      mstore\n        /* \"#utility.yul\":7852:7854   */\n      0x20\n        /* \"contracts/LPStaking.sol\":9296:9348  require(apy <= 100000, \"LPStaking:max apy is 1000%\") */\n      0x04\n      dup3\n      add\n        /* \"#utility.yul\":7834:7855   */\n      mstore\n        /* \"#utility.yul\":7891:7893   */\n      0x1a\n        /* \"#utility.yul\":7871:7889   */\n      0x24\n      dup3\n      add\n        /* \"#utility.yul\":7864:7894   */\n      mstore\n        /* \"#utility.yul\":7930:7958   */\n      0x4c505374616b696e673a6d617820617079206973203130303025000000000000\n        /* \"#utility.yul\":7910:7928   */\n      0x44\n      dup3\n      add\n        /* \"#utility.yul\":7903:7959   */\n      mstore\n        /* \"#utility.yul\":7976:7994   */\n      0x64\n      add\n        /* \"contracts/LPStaking.sol\":9296:9348  require(apy <= 100000, \"LPStaking:max apy is 1000%\") */\n      tag_100\n        /* \"#utility.yul\":7650:8000   */\n      jump\n        /* \"contracts/LPStaking.sol\":9296:9348  require(apy <= 100000, \"LPStaking:max apy is 1000%\") */\n    tag_123:\n        /* \"contracts/LPStaking.sol\":9380:9383  apy */\n      dup2\n        /* \"contracts/LPStaking.sol\":9359:9364  pools */\n      0x02\n        /* \"contracts/LPStaking.sol\":9365:9372  pool_id */\n      dup5\n        /* \"contracts/LPStaking.sol\":9359:9373  pools[pool_id] */\n      dup2\n      sload\n      dup2\n      lt\n      tag_127\n      jumpi\n      tag_127\n      tag_110\n      jump\t// in\n    tag_127:\n      0x00\n      swap2\n      dup3\n      mstore\n      0x20\n      swap2\n      dup3\n      swap1\n      keccak256\n      0x03\n      swap2\n      swap1\n      swap2\n      mul\n      add\n        /* \"contracts/LPStaking.sol\":9359:9377  pools[pool_id].apy */\n      0x01\n      add\n        /* \"contracts/LPStaking.sol\":9359:9383  pools[pool_id].apy = apy */\n      dup1\n      sload\n      sub(shl(0xa0, 0x01), 0x01)\n      and\n      shl(0xa0, 0x01)\n      sub(shl(0x60, 0x01), 0x01)\n      swap5\n      dup6\n      and\n      mul\n      or\n      swap1\n      sstore\n        /* \"contracts/LPStaking.sol\":9399:9423  APYChanged(pool_id, apy) */\n      mload(0x40)\n        /* \"#utility.yul\":1605:1644   */\n      swap2\n      dup5\n      and\n        /* \"#utility.yul\":1587:1645   */\n      dup3\n      mstore\n        /* \"contracts/LPStaking.sol\":9410:9417  pool_id */\n      dup5\n      swap2\n        /* \"contracts/LPStaking.sol\":9399:9423  APYChanged(pool_id, apy) */\n      0x09a2c3c653a42f5c64bbfdf07224d8e0d6526460f44e520ac49bae23804e18e8\n      swap2\n        /* \"#utility.yul\":1560:1578   */\n      add\n        /* \"contracts/LPStaking.sol\":9399:9423  APYChanged(pool_id, apy) */\n    tag_129:\n      mload(0x40)\n      dup1\n      swap2\n      sub\n      swap1\n      log2\n        /* \"@openzeppelin/contracts/access/Ownable.sol\":1554:1555  _ */\n      pop\n        /* \"contracts/LPStaking.sol\":9196:9431  function setAPY(uint pool_id, uint96 apy) external onlyOwner validate_pool(pool_id)... */\n      pop\n      pop\n      jump\t// out\n        /* \"contracts/LPStaking.sol\":2758:3295  function getPool(uint pool_id) external validate_pool(pool_id) view ... */\n    tag_34:\n        /* \"contracts/LPStaking.sol\":2845:2866  address staking_token */\n      0x00\n        /* \"contracts/LPStaking.sol\":2881:2902  address rewards_token */\n      0x00\n        /* \"contracts/LPStaking.sol\":2917:2937  address price_oracle */\n      0x00\n        /* \"contracts/LPStaking.sol\":2952:2967  uint96 maturity */\n      0x00\n        /* \"contracts/LPStaking.sol\":2982:2992  uint96 apy */\n      0x00\n        /* \"contracts/LPStaking.sol\":3007:3030  uint96 whales_bonus_apy */\n      0x00\n        /* \"contracts/LPStaking.sol\":2812:2819  pool_id */\n      dup7\n        /* \"contracts/LPStaking.sol\":2119:2120  0 */\n      0x00\n        /* \"contracts/LPStaking.sol\":2109:2116  pool_id */\n      dup2\n        /* \"contracts/LPStaking.sol\":2109:2120  pool_id > 0 */\n      gt\n        /* \"contracts/LPStaking.sol\":2109:2146  pool_id > 0 && pool_id < pools.length */\n      dup1\n      iszero\n      tag_131\n      jumpi\n      pop\n        /* \"contracts/LPStaking.sol\":2134:2139  pools */\n      0x02\n        /* \"contracts/LPStaking.sol\":2134:2146  pools.length */\n      sload\n        /* \"contracts/LPStaking.sol\":2124:2146  pool_id < pools.length */\n      dup2\n      lt\n        /* \"contracts/LPStaking.sol\":2109:2146  pool_id > 0 && pool_id < pools.length */\n    tag_131:\n        /* \"contracts/LPStaking.sol\":2101:2177  require(pool_id > 0 && pool_id < pools.length, \"LPStaking:Invalid Pool ID!\") */\n      tag_132\n      jumpi\n      mload(0x40)\n      shl(0xe5, 0x461bcd)\n      dup2\n      mstore\n      0x04\n      add\n      tag_100\n      swap1\n      tag_121\n      jump\t// in\n    tag_132:\n        /* \"contracts/LPStaking.sol\":3056:3061  pools */\n      0x02\n        /* \"contracts/LPStaking.sol\":3062:3069  pool_id */\n      dup9\n        /* \"contracts/LPStaking.sol\":3056:3070  pools[pool_id] */\n      dup2\n      sload\n      dup2\n      lt\n      tag_136\n      jumpi\n      tag_136\n      tag_110\n      jump\t// in\n    tag_136:\n      0x00\n      swap2\n      dup3\n      mstore\n      0x20\n      swap1\n      swap2\n      keccak256\n      0x03\n      swap1\n      swap2\n      mul\n      add\n        /* \"contracts/LPStaking.sol\":3056:3084  pools[pool_id].staking_token */\n      sload\n        /* \"contracts/LPStaking.sol\":3099:3104  pools */\n      0x02\n        /* \"contracts/LPStaking.sol\":3099:3113  pools[pool_id] */\n      dup1\n      sload\n      sub(shl(0xa0, 0x01), 0x01)\n        /* \"contracts/LPStaking.sol\":3056:3084  pools[pool_id].staking_token */\n      swap1\n      swap3\n      and\n      swap2\n        /* \"contracts/LPStaking.sol\":3105:3112  pool_id */\n      dup11\n      swap1\n        /* \"contracts/LPStaking.sol\":3099:3113  pools[pool_id] */\n      dup2\n      lt\n      tag_139\n      jumpi\n      tag_139\n      tag_110\n      jump\t// in\n    tag_139:\n      swap1\n      0x00\n      mstore\n      keccak256(0x00, 0x20)\n      swap1\n      0x03\n      mul\n      add\n        /* \"contracts/LPStaking.sol\":3099:3127  pools[pool_id].rewards_token */\n      0x01\n      add\n      0x00\n      swap1\n      sload\n      swap1\n      0x0100\n      exp\n      swap1\n      div\n      sub(shl(0xa0, 0x01), 0x01)\n      and\n        /* \"contracts/LPStaking.sol\":3142:3147  pools */\n      0x02\n        /* \"contracts/LPStaking.sol\":3148:3155  pool_id */\n      dup11\n        /* \"contracts/LPStaking.sol\":3142:3156  pools[pool_id] */\n      dup2\n      sload\n      dup2\n      lt\n      tag_142\n      jumpi\n      tag_142\n      tag_110\n      jump\t// in\n    tag_142:\n      swap1\n      0x00\n      mstore\n      keccak256(0x00, 0x20)\n      swap1\n      0x03\n      mul\n      add\n        /* \"contracts/LPStaking.sol\":3142:3169  pools[pool_id].price_oracle */\n      0x02\n      add\n      0x00\n      swap1\n      sload\n      swap1\n      0x0100\n      exp\n      swap1\n      div\n      sub(shl(0xa0, 0x01), 0x01)\n      and\n        /* \"contracts/LPStaking.sol\":3184:3189  pools */\n      0x02\n        /* \"contracts/LPStaking.sol\":3190:3197  pool_id */\n      dup12\n        /* \"contracts/LPStaking.sol\":3184:3198  pools[pool_id] */\n      dup2\n      sload\n      dup2\n      lt\n      tag_145\n      jumpi\n      tag_145\n      tag_110\n      jump\t// in\n    tag_145:\n      swap1\n      0x00\n      mstore\n      keccak256(0x00, 0x20)\n      swap1\n      0x03\n      mul\n      add\n        /* \"contracts/LPStaking.sol\":3184:3207  pools[pool_id].maturity */\n      0x00\n      add\n      0x14\n      swap1\n      sload\n      swap1\n      0x0100\n      exp\n      swap1\n      div\n      sub(shl(0x60, 0x01), 0x01)\n      and\n        /* \"contracts/LPStaking.sol\":3222:3227  pools */\n      0x02\n        /* \"contracts/LPStaking.sol\":3228:3235  pool_id */\n      dup13\n        /* \"contracts/LPStaking.sol\":3222:3236  pools[pool_id] */\n      dup2\n      sload\n      dup2\n      lt\n      tag_148\n      jumpi\n      tag_148\n      tag_110\n      jump\t// in\n    tag_148:\n      swap1\n      0x00\n      mstore\n      keccak256(0x00, 0x20)\n      swap1\n      0x03\n      mul\n      add\n        /* \"contracts/LPStaking.sol\":3222:3240  pools[pool_id].apy */\n      0x01\n      add\n      0x14\n      swap1\n      sload\n      swap1\n      0x0100\n      exp\n      swap1\n      div\n      sub(shl(0x60, 0x01), 0x01)\n      and\n        /* \"contracts/LPStaking.sol\":3255:3260  pools */\n      0x02\n        /* \"contracts/LPStaking.sol\":3261:3268  pool_id */\n      dup14\n        /* \"contracts/LPStaking.sol\":3255:3269  pools[pool_id] */\n      dup2\n      sload\n      dup2\n      lt\n      tag_151\n      jumpi\n      tag_151\n      tag_110\n      jump\t// in\n    tag_151:\n      swap1\n      0x00\n      mstore\n      keccak256(0x00, 0x20)\n      swap1\n      0x03\n      mul\n      add\n        /* \"contracts/LPStaking.sol\":3255:3286  pools[pool_id].whales_bonus_apy */\n      0x02\n      add\n      0x14\n      swap1\n      sload\n      swap1\n      0x0100\n      exp\n      swap1\n      div\n      sub(shl(0x60, 0x01), 0x01)\n      and\n        /* \"contracts/LPStaking.sol\":3048:3287  return (pools[pool_id].staking_token,... */\n      swap7\n      pop\n      swap7\n      pop\n      swap7\n      pop\n      swap7\n      pop\n      swap7\n      pop\n      swap7\n      pop\n        /* \"contracts/LPStaking.sol\":2758:3295  function getPool(uint pool_id) external validate_pool(pool_id) view ... */\n      pop\n      swap2\n      swap4\n      swap6\n      pop\n      swap2\n      swap4\n      swap6\n      jump\t// out\n        /* \"contracts/LPStaking.sol\":7867:8526  function withdrawStake(uint stake_id) external nonReentrant validate_stake(stake_id)... */\n    tag_43:\n        /* \"@openzeppelin/contracts/utils/ReentrancyGuard.sol\":2500:2521  _nonReentrantBefore() */\n      tag_154\n        /* \"@openzeppelin/contracts/utils/ReentrancyGuard.sol\":2500:2519  _nonReentrantBefore */\n      tag_155\n        /* \"@openzeppelin/contracts/utils/ReentrancyGuard.sol\":2500:2521  _nonReentrantBefore() */\n      jump\t// in\n    tag_154:\n        /* \"contracts/LPStaking.sol\":7942:7950  stake_id */\n      dup1\n        /* \"contracts/LPStaking.sol\":2280:2281  0 */\n      0x00\n        /* \"contracts/LPStaking.sol\":2269:2277  stake_id */\n      dup2\n        /* \"contracts/LPStaking.sol\":2269:2281  stake_id > 0 */\n      gt\n        /* \"contracts/LPStaking.sol\":2269:2308  stake_id > 0 && stake_id < stakes_count */\n      dup1\n      iszero\n      tag_157\n      jumpi\n      pop\n        /* \"contracts/LPStaking.sol\":2296:2308  stakes_count */\n      sload(0x04)\n        /* \"contracts/LPStaking.sol\":2285:2293  stake_id */\n      dup2\n        /* \"contracts/LPStaking.sol\":2285:2308  stake_id < stakes_count */\n      lt\n        /* \"contracts/LPStaking.sol\":2269:2308  stake_id > 0 && stake_id < stakes_count */\n    tag_157:\n        /* \"contracts/LPStaking.sol\":2261:2340  require(stake_id > 0 && stake_id < stakes_count, \"LPStaking:Invalid Stake ID!\") */\n      tag_158\n      jumpi\n      mload(0x40)\n      shl(0xe5, 0x461bcd)\n      dup2\n      mstore\n      0x04\n      add\n      tag_100\n      swap1\n      tag_101\n      jump\t// in\n    tag_158:\n        /* \"contracts/LPStaking.sol\":7968:7996  StakeDetails storage details */\n      0x00\n        /* \"contracts/LPStaking.sol\":7999:8015  stakes[stake_id] */\n      dup3\n      dup2\n      mstore\n        /* \"contracts/LPStaking.sol\":7999:8005  stakes */\n      0x03\n        /* \"contracts/LPStaking.sol\":7999:8015  stakes[stake_id] */\n      0x20\n      mstore\n      0x40\n      swap1\n      keccak256\n        /* \"contracts/LPStaking.sol\":8034:8047  details.owner */\n      0x01\n      dup2\n      add\n      sload\n      sub(shl(0xa0, 0x01), 0x01)\n      and\n        /* \"@openzeppelin/contracts/utils/Context.sol\":735:745  msg.sender */\n      caller\n        /* \"contracts/LPStaking.sol\":8034:8063  details.owner == _msgSender() */\n      eq\n        /* \"contracts/LPStaking.sol\":8026:8101  require(details.owner == _msgSender(), \"LPStaking:Caller is not the owner\") */\n      tag_163\n      jumpi\n      mload(0x40)\n      shl(0xe5, 0x461bcd)\n      dup2\n      mstore\n      0x04\n      add\n      tag_100\n      swap1\n      tag_165\n      jump\t// in\n    tag_163:\n        /* \"contracts/LPStaking.sol\":8112:8132  PoolInfo memory pool */\n      0x00\n        /* \"contracts/LPStaking.sol\":8135:8140  pools */\n      0x02\n        /* \"contracts/LPStaking.sol\":8141:8148  details */\n      dup3\n        /* \"contracts/LPStaking.sol\":8141:8156  details.pool_id */\n      0x00\n      add\n      sload\n        /* \"contracts/LPStaking.sol\":8135:8157  pools[details.pool_id] */\n      dup2\n      sload\n      dup2\n      lt\n      tag_167\n      jumpi\n      tag_167\n      tag_110\n      jump\t// in\n    tag_167:\n      0x00\n      swap2\n      dup3\n      mstore\n      0x20\n      swap2\n      dup3\n      swap1\n      keccak256\n        /* \"contracts/LPStaking.sol\":8112:8157  PoolInfo memory pool = pools[details.pool_id] */\n      0x40\n      dup1\n      mload\n      0xc0\n      dup2\n      add\n      dup3\n      mstore\n        /* \"contracts/LPStaking.sol\":8135:8157  pools[details.pool_id] */\n      0x03\n      swap1\n      swap4\n      mul\n      swap1\n      swap2\n      add\n        /* \"contracts/LPStaking.sol\":8112:8157  PoolInfo memory pool = pools[details.pool_id] */\n      dup1\n      sload\n      sub(shl(0xa0, 0x01), 0x01)\n      dup1\n      dup3\n      and\n      dup6\n      mstore\n      sub(shl(0x60, 0x01), 0x01)\n      shl(0xa0, 0x01)\n      swap3\n      dup4\n      swap1\n      div\n      dup2\n      and\n      swap7\n      dup7\n      add\n      swap7\n      swap1\n      swap7\n      mstore\n      0x01\n      dup1\n      dup5\n      add\n      sload\n      dup1\n      dup4\n      and\n      swap6\n      dup8\n      add\n      swap6\n      swap1\n      swap6\n      mstore\n      swap4\n      dup3\n      swap1\n      div\n      dup7\n      and\n      0x60\n      dup7\n      add\n      mstore\n      0x02\n      swap1\n      swap3\n      add\n      sload\n      swap2\n      dup3\n      and\n      0x80\n      dup6\n      add\n      mstore\n      swap1\n      dup2\n      swap1\n      div\n      dup5\n      and\n      0xa0\n      dup5\n      add\n      mstore\n        /* \"contracts/LPStaking.sol\":8190:8206  details.maturity */\n      swap1\n      dup6\n      add\n      sload\n        /* \"contracts/LPStaking.sol\":8112:8157  PoolInfo memory pool = pools[details.pool_id] */\n      swap2\n      swap4\n      pop\n        /* \"contracts/LPStaking.sol\":8190:8206  details.maturity */\n      swap1\n      div\n      and\n        /* \"contracts/LPStaking.sol\":8176:8186  time_now() */\n      tag_169\n        /* \"contracts/LPStaking.sol\":4014:4029  block.timestamp */\n      timestamp\n      swap1\n        /* \"contracts/LPStaking.sol\":3935:4038  function time_now() private view returns(uint96)... */\n      jump\n        /* \"contracts/LPStaking.sol\":8176:8186  time_now() */\n    tag_169:\n      sub(shl(0x60, 0x01), 0x01)\n        /* \"contracts/LPStaking.sol\":8176:8206  time_now() >= details.maturity */\n      and\n      lt\n      iszero\n        /* \"contracts/LPStaking.sol\":8168:8255  require(time_now() >= details.maturity, \"LPStaking:Early Withdrawal is not permitted!\") */\n      tag_170\n      jumpi\n      mload(0x40)\n      shl(0xe5, 0x461bcd)\n      dup2\n      mstore\n      0x04\n      add\n      tag_100\n      swap1\n      tag_172\n      jump\t// in\n    tag_170:\n        /* \"contracts/LPStaking.sol\":8280:8300  details.stake_amount */\n      0x02\n      dup3\n      add\n      sload\n        /* \"contracts/LPStaking.sol\":8280:8304  details.stake_amount > 0 */\n      iszero\n        /* \"contracts/LPStaking.sol\":8277:8517  if(details.stake_amount > 0)... */\n      tag_173\n      jumpi\n        /* \"contracts/LPStaking.sol\":8330:8405  IERC20(pool.staking_token).safeTransfer(_msgSender(), details.stake_amount) */\n      tag_174\n        /* \"@openzeppelin/contracts/utils/Context.sol\":735:745  msg.sender */\n      caller\n        /* \"contracts/LPStaking.sol\":8384:8404  details.stake_amount */\n      0x02\n      dup5\n      add\n      sload\n        /* \"contracts/LPStaking.sol\":8337:8355  pool.staking_token */\n      dup4\n      mload\n      sub(shl(0xa0, 0x01), 0x01)\n        /* \"contracts/LPStaking.sol\":8330:8369  IERC20(pool.staking_token).safeTransfer */\n      and\n      swap2\n        /* \"contracts/LPStaking.sol\":8330:8405  IERC20(pool.staking_token).safeTransfer(_msgSender(), details.stake_amount) */\n      swap1\n        /* \"contracts/LPStaking.sol\":8330:8369  IERC20(pool.staking_token).safeTransfer */\n      tag_176\n        /* \"contracts/LPStaking.sol\":8330:8405  IERC20(pool.staking_token).safeTransfer(_msgSender(), details.stake_amount) */\n      jump\t// in\n    tag_174:\n        /* \"contracts/LPStaking.sol\":8443:8444  0 */\n      0x00\n        /* \"contracts/LPStaking.sol\":8420:8440  details.stake_amount */\n      0x02\n      dup4\n      add\n        /* \"contracts/LPStaking.sol\":8420:8444  details.stake_amount = 0 */\n      sstore\n        /* \"contracts/LPStaking.sol\":8479:8494  details.pool_id */\n      dup2\n      sload\n        /* \"contracts/LPStaking.sol\":8464:8505  StakeWithdrawn(details.pool_id, stake_id) */\n      mload(0x40)\n        /* \"#utility.yul\":4116:4141   */\n      dup6\n      dup2\n      mstore\n        /* \"contracts/LPStaking.sol\":8464:8505  StakeWithdrawn(details.pool_id, stake_id) */\n      0x3db0ca701d7c1106534c6003e5d65dae65a9cb891ad5bbb9be39c091df79d87e\n      swap1\n        /* \"#utility.yul\":4104:4106   */\n      0x20\n        /* \"#utility.yul\":4089:4107   */\n      add\n        /* \"contracts/LPStaking.sol\":8464:8505  StakeWithdrawn(details.pool_id, stake_id) */\n    tag_177:\n      mload(0x40)\n      dup1\n      swap2\n      sub\n      swap1\n      log2\n        /* \"contracts/LPStaking.sol\":8277:8517  if(details.stake_amount > 0)... */\n    tag_173:\n        /* \"contracts/LPStaking.sol\":7957:8526  {... */\n      pop\n      pop\n        /* \"@openzeppelin/contracts/utils/ReentrancyGuard.sol\":2531:2532  _ */\n      pop\n        /* \"@openzeppelin/contracts/utils/ReentrancyGuard.sol\":2542:2562  _nonReentrantAfter() */\n      tag_178\n        /* \"@openzeppelin/contracts/utils/ReentrancyGuard.sol\":1857:1858  1 */\n      0x01\n        /* \"@openzeppelin/contracts/utils/ReentrancyGuard.sol\":3068:3089  _status = NOT_ENTERED */\n      dup1\n      sstore\n        /* \"@openzeppelin/contracts/utils/ReentrancyGuard.sol\":2888:3096  function _nonReentrantAfter() private {... */\n      jump\n        /* \"@openzeppelin/contracts/utils/ReentrancyGuard.sol\":2542:2562  _nonReentrantAfter() */\n    tag_178:\n        /* \"contracts/LPStaking.sol\":7867:8526  function withdrawStake(uint stake_id) external nonReentrant validate_stake(stake_id)... */\n      pop\n      jump\t// out\n        /* \"contracts/LPStaking.sol\":6446:7415  function claim(uint stake_id) external nonReentrant validate_stake(stake_id)... */\n    tag_46:\n        /* \"@openzeppelin/contracts/utils/ReentrancyGuard.sol\":2500:2521  _nonReentrantBefore() */\n      tag_181\n        /* \"@openzeppelin/contracts/utils/ReentrancyGuard.sol\":2500:2519  _nonReentrantBefore */\n      tag_155\n        /* \"@openzeppelin/contracts/utils/ReentrancyGuard.sol\":2500:2521  _nonReentrantBefore() */\n      jump\t// in\n    tag_181:\n        /* \"contracts/LPStaking.sol\":6513:6521  stake_id */\n      dup1\n        /* \"contracts/LPStaking.sol\":2280:2281  0 */\n      0x00\n        /* \"contracts/LPStaking.sol\":2269:2277  stake_id */\n      dup2\n        /* \"contracts/LPStaking.sol\":2269:2281  stake_id > 0 */\n      gt\n        /* \"contracts/LPStaking.sol\":2269:2308  stake_id > 0 && stake_id < stakes_count */\n      dup1\n      iszero\n      tag_183\n      jumpi\n      pop\n        /* \"contracts/LPStaking.sol\":2296:2308  stakes_count */\n      sload(0x04)\n        /* \"contracts/LPStaking.sol\":2285:2293  stake_id */\n      dup2\n        /* \"contracts/LPStaking.sol\":2285:2308  stake_id < stakes_count */\n      lt\n        /* \"contracts/LPStaking.sol\":2269:2308  stake_id > 0 && stake_id < stakes_count */\n    tag_183:\n        /* \"contracts/LPStaking.sol\":2261:2340  require(stake_id > 0 && stake_id < stakes_count, \"LPStaking:Invalid Stake ID!\") */\n      tag_184\n      jumpi\n      mload(0x40)\n      shl(0xe5, 0x461bcd)\n      dup2\n      mstore\n      0x04\n      add\n      tag_100\n      swap1\n      tag_101\n      jump\t// in\n    tag_184:\n        /* \"contracts/LPStaking.sol\":6545:6573  StakeDetails storage details */\n      0x00\n        /* \"contracts/LPStaking.sol\":6576:6592  stakes[stake_id] */\n      dup3\n      dup2\n      mstore\n        /* \"contracts/LPStaking.sol\":6576:6582  stakes */\n      0x03\n        /* \"contracts/LPStaking.sol\":6576:6592  stakes[stake_id] */\n      0x20\n      mstore\n      0x40\n      swap1\n      keccak256\n        /* \"contracts/LPStaking.sol\":6611:6624  details.owner */\n      0x01\n      dup2\n      add\n      sload\n      sub(shl(0xa0, 0x01), 0x01)\n      and\n        /* \"@openzeppelin/contracts/utils/Context.sol\":735:745  msg.sender */\n      caller\n        /* \"contracts/LPStaking.sol\":6611:6640  details.owner == _msgSender() */\n      eq\n        /* \"contracts/LPStaking.sol\":6603:6678  require(details.owner == _msgSender(), \"LPStaking:Caller is not the owner\") */\n      tag_188\n      jumpi\n      mload(0x40)\n      shl(0xe5, 0x461bcd)\n      dup2\n      mstore\n      0x04\n      add\n      tag_100\n      swap1\n      tag_165\n      jump\t// in\n    tag_188:\n        /* \"contracts/LPStaking.sol\":6689:6710  PoolInfo storage pool */\n      0x00\n        /* \"contracts/LPStaking.sol\":6713:6718  pools */\n      0x02\n        /* \"contracts/LPStaking.sol\":6719:6726  details */\n      dup3\n        /* \"contracts/LPStaking.sol\":6719:6734  details.pool_id */\n      0x00\n      add\n      sload\n        /* \"contracts/LPStaking.sol\":6713:6735  pools[details.pool_id] */\n      dup2\n      sload\n      dup2\n      lt\n      tag_191\n      jumpi\n      tag_191\n      tag_110\n      jump\t// in\n    tag_191:\n      0x00\n      swap2\n      dup3\n      mstore\n      0x20\n      swap1\n      swap2\n      keccak256\n        /* \"contracts/LPStaking.sol\":6768:6784  details.maturity */\n      0x01\n      dup5\n      add\n      sload\n        /* \"contracts/LPStaking.sol\":6713:6735  pools[details.pool_id] */\n      0x03\n      swap1\n      swap3\n      mul\n      add\n      swap2\n      pop\n      shl(0xa0, 0x01)\n        /* \"contracts/LPStaking.sol\":6768:6784  details.maturity */\n      swap1\n      div\n      sub(shl(0x60, 0x01), 0x01)\n      and\n        /* \"contracts/LPStaking.sol\":4014:4029  block.timestamp */\n      timestamp\n      sub(shl(0x60, 0x01), 0x01)\n        /* \"contracts/LPStaking.sol\":6754:6784  time_now() >= details.maturity */\n      and\n      lt\n      iszero\n        /* \"contracts/LPStaking.sol\":6746:6833  require(time_now() >= details.maturity, \"LPStaking:Early Withdrawal is not permitted!\") */\n      tag_194\n      jumpi\n      mload(0x40)\n      shl(0xe5, 0x461bcd)\n      dup2\n      mstore\n      0x04\n      add\n      tag_100\n      swap1\n      tag_172\n      jump\t// in\n    tag_194:\n        /* \"contracts/LPStaking.sol\":6877:6878  0 */\n      0x00\n        /* \"contracts/LPStaking.sol\":6853:6860  details */\n      dup3\n        /* \"contracts/LPStaking.sol\":6853:6874  details.reward_amount */\n      0x03\n      add\n      sload\n        /* \"contracts/LPStaking.sol\":6853:6878  details.reward_amount > 0 */\n      gt\n        /* \"contracts/LPStaking.sol\":6845:6909  require(details.reward_amount > 0, \"LPStaking:Nothing to claim\") */\n      tag_196\n      jumpi\n      mload(0x40)\n      shl(0xe5, 0x461bcd)\n      dup2\n      mstore\n        /* \"#utility.yul\":9022:9024   */\n      0x20\n        /* \"contracts/LPStaking.sol\":6845:6909  require(details.reward_amount > 0, \"LPStaking:Nothing to claim\") */\n      0x04\n      dup3\n      add\n        /* \"#utility.yul\":9004:9025   */\n      mstore\n        /* \"#utility.yul\":9061:9063   */\n      0x1a\n        /* \"#utility.yul\":9041:9059   */\n      0x24\n      dup3\n      add\n        /* \"#utility.yul\":9034:9064   */\n      mstore\n        /* \"#utility.yul\":9100:9128   */\n      0x4c505374616b696e673a4e6f7468696e6720746f20636c61696d000000000000\n        /* \"#utility.yul\":9080:9098   */\n      0x44\n      dup3\n      add\n        /* \"#utility.yul\":9073:9129   */\n      mstore\n        /* \"#utility.yul\":9146:9164   */\n      0x64\n      add\n        /* \"contracts/LPStaking.sol\":6845:6909  require(details.reward_amount > 0, \"LPStaking:Nothing to claim\") */\n      tag_100\n        /* \"#utility.yul\":8820:9170   */\n      jump\n        /* \"contracts/LPStaking.sol\":6845:6909  require(details.reward_amount > 0, \"LPStaking:Nothing to claim\") */\n    tag_196:\n        /* \"contracts/LPStaking.sol\":6923:6943  details.stake_amount */\n      0x02\n      dup3\n      add\n      sload\n        /* \"contracts/LPStaking.sol\":6923:6947  details.stake_amount > 0 */\n      iszero\n        /* \"contracts/LPStaking.sol\":6920:7099  if(details.stake_amount > 0)... */\n      tag_199\n      jumpi\n        /* \"contracts/LPStaking.sol\":6973:7048  IERC20(pool.staking_token).safeTransfer(_msgSender(), details.stake_amount) */\n      tag_200\n        /* \"@openzeppelin/contracts/utils/Context.sol\":735:745  msg.sender */\n      caller\n        /* \"contracts/LPStaking.sol\":7027:7047  details.stake_amount */\n      0x02\n      dup5\n      add\n      sload\n        /* \"contracts/LPStaking.sol\":6980:6998  pool.staking_token */\n      dup4\n      sload\n      sub(shl(0xa0, 0x01), 0x01)\n      and\n      swap2\n        /* \"contracts/LPStaking.sol\":6973:7048  IERC20(pool.staking_token).safeTransfer(_msgSender(), details.stake_amount) */\n      swap1\n        /* \"contracts/LPStaking.sol\":6973:7012  IERC20(pool.staking_token).safeTransfer */\n      tag_176\n        /* \"contracts/LPStaking.sol\":6973:7048  IERC20(pool.staking_token).safeTransfer(_msgSender(), details.stake_amount) */\n      jump\t// in\n    tag_200:\n        /* \"contracts/LPStaking.sol\":7086:7087  0 */\n      0x00\n        /* \"contracts/LPStaking.sol\":7063:7083  details.stake_amount */\n      0x02\n      dup4\n      add\n        /* \"contracts/LPStaking.sol\":7063:7087  details.stake_amount = 0 */\n      sstore\n        /* \"contracts/LPStaking.sol\":6920:7099  if(details.stake_amount > 0)... */\n    tag_199:\n        /* \"contracts/LPStaking.sol\":7111:7187  IERC20(pool.rewards_token).safeTransfer(_msgSender(), details.reward_amount) */\n      tag_202\n        /* \"@openzeppelin/contracts/utils/Context.sol\":735:745  msg.sender */\n      caller\n        /* \"contracts/LPStaking.sol\":7165:7186  details.reward_amount */\n      0x03\n      dup5\n      add\n      sload\n        /* \"contracts/LPStaking.sol\":7118:7136  pool.rewards_token */\n      0x01\n      dup5\n      add\n      sload\n      sub(shl(0xa0, 0x01), 0x01)\n      and\n      swap2\n        /* \"contracts/LPStaking.sol\":7111:7187  IERC20(pool.rewards_token).safeTransfer(_msgSender(), details.reward_amount) */\n      swap1\n        /* \"contracts/LPStaking.sol\":7111:7150  IERC20(pool.rewards_token).safeTransfer */\n      tag_176\n        /* \"contracts/LPStaking.sol\":7111:7187  IERC20(pool.rewards_token).safeTransfer(_msgSender(), details.reward_amount) */\n      jump\t// in\n    tag_202:\n        /* \"contracts/LPStaking.sol\":7238:7259  details.reward_amount */\n      0x03\n      dup3\n      add\n      sload\n        /* \"contracts/LPStaking.sol\":7215:7233  pool.rewards_token */\n      0x01\n      dup3\n      add\n      sload\n      sub(shl(0xa0, 0x01), 0x01)\n      and\n        /* \"contracts/LPStaking.sol\":7198:7234  pending_payments[pool.rewards_token] */\n      0x00\n      swap1\n      dup2\n      mstore\n        /* \"contracts/LPStaking.sol\":7198:7214  pending_payments */\n      0x05\n        /* \"contracts/LPStaking.sol\":7198:7234  pending_payments[pool.rewards_token] */\n      0x20\n      mstore\n      0x40\n      dup2\n      keccak256\n        /* \"contracts/LPStaking.sol\":7198:7259  pending_payments[pool.rewards_token] -= details.reward_amount */\n      dup1\n      sload\n        /* \"contracts/LPStaking.sol\":7198:7234  pending_payments[pool.rewards_token] */\n      swap1\n      swap2\n      swap1\n        /* \"contracts/LPStaking.sol\":7198:7259  pending_payments[pool.rewards_token] -= details.reward_amount */\n      tag_204\n      swap1\n        /* \"contracts/LPStaking.sol\":7238:7259  details.reward_amount */\n      dup5\n      swap1\n        /* \"contracts/LPStaking.sol\":7198:7259  pending_payments[pool.rewards_token] -= details.reward_amount */\n      tag_113\n      jump\t// in\n    tag_204:\n      swap1\n      swap2\n      sstore\n      pop\n      pop\n        /* \"contracts/LPStaking.sol\":7294:7295  0 */\n      0x00\n        /* \"contracts/LPStaking.sol\":7270:7291  details.reward_amount */\n      0x03\n      dup4\n      add\n        /* \"contracts/LPStaking.sol\":7270:7295  details.reward_amount = 0 */\n      sstore\n        /* \"contracts/LPStaking.sol\":7327:7342  details.pool_id */\n      dup2\n      sload\n        /* \"contracts/LPStaking.sol\":7312:7353  StakeWithdrawn(details.pool_id, stake_id) */\n      mload(0x40)\n        /* \"#utility.yul\":4116:4141   */\n      dup6\n      dup2\n      mstore\n        /* \"contracts/LPStaking.sol\":7312:7353  StakeWithdrawn(details.pool_id, stake_id) */\n      0x3db0ca701d7c1106534c6003e5d65dae65a9cb891ad5bbb9be39c091df79d87e\n      swap1\n        /* \"#utility.yul\":4104:4106   */\n      0x20\n        /* \"#utility.yul\":4089:4107   */\n      add\n        /* \"contracts/LPStaking.sol\":7312:7353  StakeWithdrawn(details.pool_id, stake_id) */\n      mload(0x40)\n      dup1\n      swap2\n      sub\n      swap1\n      log2\n        /* \"contracts/LPStaking.sol\":7380:7395  details.pool_id */\n      dup2\n      sload\n        /* \"contracts/LPStaking.sol\":7369:7406  RewardPaid(details.pool_id, stake_id) */\n      mload(0x40)\n        /* \"#utility.yul\":4116:4141   */\n      dup6\n      dup2\n      mstore\n        /* \"contracts/LPStaking.sol\":7369:7406  RewardPaid(details.pool_id, stake_id) */\n      0x4d7828f2aa36030cc63cdea79ec646099aa121d019f1a90edb55078939fb84ea\n      swap1\n        /* \"#utility.yul\":4104:4106   */\n      0x20\n        /* \"#utility.yul\":4089:4107   */\n      add\n        /* \"contracts/LPStaking.sol\":7369:7406  RewardPaid(details.pool_id, stake_id) */\n      tag_177\n        /* \"#utility.yul\":3970:4147   */\n      jump\n        /* \"contracts/LPStaking.sol\":5024:6438  function stake(uint pool_id, uint stake_amount, bytes calldata token0_price_data, bytes calldata token1_price_data) external nonReentrant validate_pool(pool_id)... */\n    tag_50:\n        /* \"@openzeppelin/contracts/utils/ReentrancyGuard.sol\":2500:2521  _nonReentrantBefore() */\n      tag_209\n        /* \"@openzeppelin/contracts/utils/ReentrancyGuard.sol\":2500:2519  _nonReentrantBefore */\n      tag_155\n        /* \"@openzeppelin/contracts/utils/ReentrancyGuard.sol\":2500:2521  _nonReentrantBefore() */\n      jump\t// in\n    tag_209:\n        /* \"contracts/LPStaking.sol\":5176:5183  pool_id */\n      dup6\n        /* \"contracts/LPStaking.sol\":2119:2120  0 */\n      0x00\n        /* \"contracts/LPStaking.sol\":2109:2116  pool_id */\n      dup2\n        /* \"contracts/LPStaking.sol\":2109:2120  pool_id > 0 */\n      gt\n        /* \"contracts/LPStaking.sol\":2109:2146  pool_id > 0 && pool_id < pools.length */\n      dup1\n      iszero\n      tag_211\n      jumpi\n      pop\n        /* \"contracts/LPStaking.sol\":2134:2139  pools */\n      0x02\n        /* \"contracts/LPStaking.sol\":2134:2146  pools.length */\n      sload\n        /* \"contracts/LPStaking.sol\":2124:2146  pool_id < pools.length */\n      dup2\n      lt\n        /* \"contracts/LPStaking.sol\":2109:2146  pool_id > 0 && pool_id < pools.length */\n    tag_211:\n        /* \"contracts/LPStaking.sol\":2101:2177  require(pool_id > 0 && pool_id < pools.length, \"LPStaking:Invalid Pool ID!\") */\n      tag_212\n      jumpi\n      mload(0x40)\n      shl(0xe5, 0x461bcd)\n      dup2\n      mstore\n      0x04\n      add\n      tag_100\n      swap1\n      tag_121\n      jump\t// in\n    tag_212:\n        /* \"contracts/LPStaking.sol\":5201:5222  PoolInfo storage pool */\n      0x00\n        /* \"contracts/LPStaking.sol\":5225:5230  pools */\n      0x02\n        /* \"contracts/LPStaking.sol\":5231:5238  pool_id */\n      dup9\n        /* \"contracts/LPStaking.sol\":5225:5239  pools[pool_id] */\n      dup2\n      sload\n      dup2\n      lt\n      tag_216\n      jumpi\n      tag_216\n      tag_110\n      jump\t// in\n    tag_216:\n      swap1\n      0x00\n      mstore\n      keccak256(0x00, 0x20)\n      swap1\n      0x03\n      mul\n      add\n        /* \"contracts/LPStaking.sol\":5201:5239  PoolInfo storage pool = pools[pool_id] */\n      swap1\n      pop\n        /* \"contracts/LPStaking.sol\":5269:5270  0 */\n      0x00\n        /* \"contracts/LPStaking.sol\":5258:5262  pool */\n      dup2\n        /* \"contracts/LPStaking.sol\":5258:5266  pool.apy */\n      0x01\n      add\n      0x14\n      swap1\n      sload\n      swap1\n      0x0100\n      exp\n      swap1\n      div\n      sub(shl(0x60, 0x01), 0x01)\n      and\n      sub(shl(0x60, 0x01), 0x01)\n        /* \"contracts/LPStaking.sol\":5258:5270  pool.apy > 0 */\n      and\n      gt\n        /* \"contracts/LPStaking.sol\":5250:5300  require(pool.apy > 0, \"LPStaking:Pool is paused!\") */\n      tag_218\n      jumpi\n      mload(0x40)\n      shl(0xe5, 0x461bcd)\n      dup2\n      mstore\n        /* \"#utility.yul\":9377:9379   */\n      0x20\n        /* \"contracts/LPStaking.sol\":5250:5300  require(pool.apy > 0, \"LPStaking:Pool is paused!\") */\n      0x04\n      dup3\n      add\n        /* \"#utility.yul\":9359:9380   */\n      mstore\n        /* \"#utility.yul\":9416:9418   */\n      0x19\n        /* \"#utility.yul\":9396:9414   */\n      0x24\n      dup3\n      add\n        /* \"#utility.yul\":9389:9419   */\n      mstore\n        /* \"#utility.yul\":9455:9482   */\n      0x4c505374616b696e673a506f6f6c206973207061757365642100000000000000\n        /* \"#utility.yul\":9435:9453   */\n      0x44\n      dup3\n      add\n        /* \"#utility.yul\":9428:9483   */\n      mstore\n        /* \"#utility.yul\":9500:9518   */\n      0x64\n      add\n        /* \"contracts/LPStaking.sol\":5250:5300  require(pool.apy > 0, \"LPStaking:Pool is paused!\") */\n      tag_100\n        /* \"#utility.yul\":9175:9524   */\n      jump\n        /* \"contracts/LPStaking.sol\":5250:5300  require(pool.apy > 0, \"LPStaking:Pool is paused!\") */\n    tag_218:\n        /* \"contracts/LPStaking.sol\":5311:5397  IERC20(pool.staking_token).safeTransferFrom(_msgSender(), address(this), stake_amount) */\n      tag_221\n        /* \"@openzeppelin/contracts/utils/Context.sol\":735:745  msg.sender */\n      caller\n        /* \"contracts/LPStaking.sol\":5318:5336  pool.staking_token */\n      dup3\n      sload\n      sub(shl(0xa0, 0x01), 0x01)\n      and\n      swap1\n        /* \"contracts/LPStaking.sol\":5377:5381  this */\n      address\n        /* \"contracts/LPStaking.sol\":5384:5396  stake_amount */\n      dup11\n        /* \"contracts/LPStaking.sol\":5311:5354  IERC20(pool.staking_token).safeTransferFrom */\n      tag_223\n        /* \"contracts/LPStaking.sol\":5311:5397  IERC20(pool.staking_token).safeTransferFrom(_msgSender(), address(this), stake_amount) */\n      jump\t// in\n    tag_221:\n        /* \"contracts/LPStaking.sol\":5437:5455  pool.staking_token */\n      dup1\n      sload\n        /* \"contracts/LPStaking.sol\":5471:5488  pool.price_oracle */\n      0x02\n      dup3\n      add\n      sload\n        /* \"contracts/LPStaking.sol\":5409:5425  uint stake_value */\n      0x00\n      swap2\n        /* \"contracts/LPStaking.sol\":5428:5527  lp_value(pool.staking_token, stake_amount, pool.price_oracle, token0_price_data, token1_price_data) */\n      tag_224\n      swap2\n      sub(shl(0xa0, 0x01), 0x01)\n        /* \"contracts/LPStaking.sol\":5437:5455  pool.staking_token */\n      swap2\n      dup3\n      and\n      swap2\n        /* \"contracts/LPStaking.sol\":5457:5469  stake_amount */\n      dup12\n      swap2\n        /* \"contracts/LPStaking.sol\":5471:5488  pool.price_oracle */\n      and\n        /* \"contracts/LPStaking.sol\":5490:5507  token0_price_data */\n      dup11\n      dup11\n        /* \"contracts/LPStaking.sol\":5509:5526  token1_price_data */\n      dup11\n      dup11\n        /* \"contracts/LPStaking.sol\":5428:5436  lp_value */\n      tag_225\n        /* \"contracts/LPStaking.sol\":5428:5527  lp_value(pool.staking_token, stake_amount, pool.price_oracle, token0_price_data, token1_price_data) */\n      jump\t// in\n    tag_224:\n        /* \"contracts/LPStaking.sol\":5586:5599  pool.maturity */\n      dup3\n      sload\n        /* \"contracts/LPStaking.sol\":5571:5579  pool.apy */\n      0x01\n      dup5\n      add\n      sload\n        /* \"contracts/LPStaking.sol\":5409:5527  uint stake_value = lp_value(pool.staking_token, stake_amount, pool.price_oracle, token0_price_data, token1_price_data) */\n      swap2\n      swap3\n      pop\n        /* \"contracts/LPStaking.sol\":5538:5556  uint reward_amount */\n      0x00\n      swap2\n        /* \"contracts/LPStaking.sol\":5601:5609  365 days */\n      0x01e13380\n      swap2\n      sub(shl(0x60, 0x01), 0x01)\n      shl(0xa0, 0x01)\n        /* \"contracts/LPStaking.sol\":5586:5599  pool.maturity */\n      swap2\n      dup3\n      swap1\n      div\n      dup2\n      and\n      swap3\n        /* \"contracts/LPStaking.sol\":5580:5585  10000 */\n      0x2710\n      swap3\n        /* \"contracts/LPStaking.sol\":5559:5579  stake_value*pool.apy */\n      tag_226\n      swap3\n        /* \"contracts/LPStaking.sol\":5571:5579  pool.apy */\n      swap2\n      div\n      and\n        /* \"contracts/LPStaking.sol\":5409:5527  uint stake_value = lp_value(pool.staking_token, stake_amount, pool.price_oracle, token0_price_data, token1_price_data) */\n      dup7\n        /* \"contracts/LPStaking.sol\":5559:5579  stake_value*pool.apy */\n      tag_227\n      jump\t// in\n    tag_226:\n        /* \"contracts/LPStaking.sol\":5559:5585  stake_value*pool.apy/10000 */\n      tag_228\n      swap2\n      swap1\n      tag_229\n      jump\t// in\n    tag_228:\n        /* \"contracts/LPStaking.sol\":5559:5599  stake_value*pool.apy/10000*pool.maturity */\n      tag_230\n      swap2\n      swap1\n      tag_227\n      jump\t// in\n    tag_230:\n        /* \"contracts/LPStaking.sol\":5559:5610  stake_value*pool.apy/10000*pool.maturity/(365 days) */\n      tag_231\n      swap2\n      swap1\n      tag_229\n      jump\t// in\n    tag_231:\n        /* \"contracts/LPStaking.sol\":5538:5610  uint reward_amount = stake_value*pool.apy/10000*pool.maturity/(365 days) */\n      swap1\n      pop\n        /* \"contracts/LPStaking.sol\":5621:5640  uint required_CREDI */\n      0x00\n        /* \"contracts/LPStaking.sol\":5658:5676  CREDI_WHALE_ORACLE */\n      immutable(\"0x1be098a259116bb01f030c85677666e5a5cc1ac00ee0d8dd61762f3f467db074\")\n      sub(shl(0xa0, 0x01), 0x01)\n        /* \"contracts/LPStaking.sol\":5658:5684  CREDI_WHALE_ORACLE.isWhale */\n      and\n      0x8ef1e259\n        /* \"@openzeppelin/contracts/utils/Context.sol\":735:745  msg.sender */\n      caller\n        /* \"contracts/LPStaking.sol\":5658:5698  CREDI_WHALE_ORACLE.isWhale(_msgSender()) */\n      mload(0x40)\n      not(sub(shl(0xe0, 0x01), 0x01))\n      0xe0\n      dup5\n      swap1\n      shl\n      and\n      dup2\n      mstore\n      sub(shl(0xa0, 0x01), 0x01)\n        /* \"#utility.yul\":4829:4861   */\n      swap1\n      swap2\n      and\n        /* \"contracts/LPStaking.sol\":5658:5698  CREDI_WHALE_ORACLE.isWhale(_msgSender()) */\n      0x04\n      dup3\n      add\n        /* \"#utility.yul\":4811:4862   */\n      mstore\n        /* \"#utility.yul\":4784:4802   */\n      0x24\n      add\n        /* \"contracts/LPStaking.sol\":5658:5698  CREDI_WHALE_ORACLE.isWhale(_msgSender()) */\n      0x20\n      mload(0x40)\n      dup1\n      dup4\n      sub\n      dup2\n      dup7\n      gas\n      staticcall\n      iszero\n      dup1\n      iszero\n      tag_235\n      jumpi\n      returndatacopy(0x00, 0x00, returndatasize)\n      revert(0x00, returndatasize)\n    tag_235:\n      pop\n      pop\n      pop\n      pop\n      mload(0x40)\n      returndatasize\n      not(0x1f)\n      0x1f\n      dup3\n      add\n      and\n      dup3\n      add\n      dup1\n      0x40\n      mstore\n      pop\n      dup2\n      add\n      swap1\n      tag_236\n      swap2\n      swap1\n      tag_237\n      jump\t// in\n    tag_236:\n        /* \"contracts/LPStaking.sol\":5655:5884  if(CREDI_WHALE_ORACLE.isWhale(_msgSender()))... */\n      iszero\n      tag_238\n      jumpi\n        /* \"contracts/LPStaking.sol\":5741:5759  CREDI_WHALE_ORACLE */\n      immutable(\"0x1be098a259116bb01f030c85677666e5a5cc1ac00ee0d8dd61762f3f467db074\")\n      sub(shl(0xa0, 0x01), 0x01)\n        /* \"contracts/LPStaking.sol\":5741:5774  CREDI_WHALE_ORACLE.whaleThreshold */\n      and\n      0x9a3bfdf5\n        /* \"contracts/LPStaking.sol\":5741:5776  CREDI_WHALE_ORACLE.whaleThreshold() */\n      mload(0x40)\n      dup2\n      0xffffffff\n      and\n      0xe0\n      shl\n      dup2\n      mstore\n      0x04\n      add\n      0x20\n      mload(0x40)\n      dup1\n      dup4\n      sub\n      dup2\n      dup7\n      gas\n      staticcall\n      iszero\n      dup1\n      iszero\n      tag_240\n      jumpi\n      returndatacopy(0x00, 0x00, returndatasize)\n      revert(0x00, returndatasize)\n    tag_240:\n      pop\n      pop\n      pop\n      pop\n      mload(0x40)\n      returndatasize\n      not(0x1f)\n      0x1f\n      dup3\n      add\n      and\n      dup3\n      add\n      dup1\n      0x40\n      mstore\n      pop\n      dup2\n      add\n      swap1\n      tag_241\n      swap2\n      swap1\n      tag_242\n      jump\t// in\n    tag_241:\n        /* \"contracts/LPStaking.sol\":5848:5861  pool.maturity */\n      dup5\n      sload\n        /* \"contracts/LPStaking.sol\":5820:5841  pool.whales_bonus_apy */\n      0x02\n      dup7\n      add\n      sload\n        /* \"contracts/LPStaking.sol\":5724:5776  required_CREDI = CREDI_WHALE_ORACLE.whaleThreshold() */\n      swap2\n      swap3\n      pop\n        /* \"contracts/LPStaking.sol\":5863:5871  365 days */\n      0x01e13380\n      swap2\n      sub(shl(0x60, 0x01), 0x01)\n      shl(0xa0, 0x01)\n        /* \"contracts/LPStaking.sol\":5848:5861  pool.maturity */\n      swap3\n      dup4\n      swap1\n      div\n      dup2\n      and\n      swap3\n        /* \"contracts/LPStaking.sol\":5842:5847  10000 */\n      0x2710\n      swap3\n        /* \"contracts/LPStaking.sol\":5808:5841  stake_value*pool.whales_bonus_apy */\n      tag_243\n      swap3\n        /* \"contracts/LPStaking.sol\":5820:5841  pool.whales_bonus_apy */\n      swap2\n      swap1\n      div\n      and\n        /* \"contracts/LPStaking.sol\":5808:5819  stake_value */\n      dup8\n        /* \"contracts/LPStaking.sol\":5808:5841  stake_value*pool.whales_bonus_apy */\n      tag_227\n      jump\t// in\n    tag_243:\n        /* \"contracts/LPStaking.sol\":5808:5847  stake_value*pool.whales_bonus_apy/10000 */\n      tag_244\n      swap2\n      swap1\n      tag_229\n      jump\t// in\n    tag_244:\n        /* \"contracts/LPStaking.sol\":5808:5861  stake_value*pool.whales_bonus_apy/10000*pool.maturity */\n      tag_245\n      swap2\n      swap1\n      tag_227\n      jump\t// in\n    tag_245:\n        /* \"contracts/LPStaking.sol\":5808:5872  stake_value*pool.whales_bonus_apy/10000*pool.maturity/(365 days) */\n      tag_246\n      swap2\n      swap1\n      tag_229\n      jump\t// in\n    tag_246:\n        /* \"contracts/LPStaking.sol\":5791:5872  reward_amount += stake_value*pool.whales_bonus_apy/10000*pool.maturity/(365 days) */\n      tag_247\n      swap1\n      dup4\n      tag_248\n      jump\t// in\n    tag_247:\n      swap2\n      pop\n        /* \"contracts/LPStaking.sol\":5655:5884  if(CREDI_WHALE_ORACLE.isWhale(_msgSender()))... */\n    tag_238:\n        /* \"contracts/LPStaking.sol\":5927:5940  pool.maturity */\n      dup4\n      sload\n        /* \"contracts/LPStaking.sol\":5896:5911  uint96 maturity */\n      0x00\n      swap1\n      shl(0xa0, 0x01)\n        /* \"contracts/LPStaking.sol\":5927:5940  pool.maturity */\n      swap1\n      div\n      sub(shl(0x60, 0x01), 0x01)\n      and\n        /* \"contracts/LPStaking.sol\":4014:4029  block.timestamp */\n      timestamp\n        /* \"contracts/LPStaking.sol\":5914:5940  time_now() + pool.maturity */\n      tag_250\n      swap2\n      swap1\n      tag_104\n      jump\t// in\n    tag_250:\n        /* \"contracts/LPStaking.sol\":5896:5940  uint96 maturity = time_now() + pool.maturity */\n      swap1\n      pop\n        /* \"contracts/LPStaking.sol\":5974:6226  StakeDetails({... */\n      mload(0x40)\n      dup1\n      0xc0\n      add\n      0x40\n      mstore\n      dup1\n        /* \"contracts/LPStaking.sol\":6045:6052  pool_id */\n      dup14\n        /* \"contracts/LPStaking.sol\":5974:6226  StakeDetails({... */\n      dup2\n      mstore\n      0x20\n      add\n        /* \"contracts/LPStaking.sol\":6009:6021  _msgSender() */\n      tag_251\n        /* \"@openzeppelin/contracts/utils/Context.sol\":735:745  msg.sender */\n      caller\n      swap1\n        /* \"@openzeppelin/contracts/utils/Context.sol\":656:752  function _msgSender() internal view virtual returns (address) {... */\n      jump\n        /* \"contracts/LPStaking.sol\":6009:6021  _msgSender() */\n    tag_251:\n      sub(shl(0xa0, 0x01), 0x01)\n        /* \"contracts/LPStaking.sol\":5974:6226  StakeDetails({... */\n      and\n      dup2\n      mstore\n      0x20\n      add\n        /* \"contracts/LPStaking.sol\":6077:6085  maturity */\n      dup3\n      sub(shl(0x60, 0x01), 0x01)\n        /* \"contracts/LPStaking.sol\":5974:6226  StakeDetails({... */\n      and\n      dup2\n      mstore\n      0x20\n      add\n        /* \"contracts/LPStaking.sol\":6114:6126  stake_amount */\n      dup13\n        /* \"contracts/LPStaking.sol\":5974:6226  StakeDetails({... */\n      dup2\n      mstore\n      0x20\n      add\n        /* \"contracts/LPStaking.sol\":6156:6169  reward_amount */\n      dup5\n        /* \"contracts/LPStaking.sol\":5974:6226  StakeDetails({... */\n      dup2\n      mstore\n      0x20\n      add\n        /* \"contracts/LPStaking.sol\":6200:6214  required_CREDI */\n      dup4\n        /* \"contracts/LPStaking.sol\":5974:6226  StakeDetails({... */\n      dup2\n      mstore\n      pop\n        /* \"contracts/LPStaking.sol\":5951:5957  stakes */\n      0x03\n        /* \"contracts/LPStaking.sol\":5951:5971  stakes[stakes_count] */\n      0x00\n        /* \"contracts/LPStaking.sol\":5958:5970  stakes_count */\n      sload(0x04)\n        /* \"contracts/LPStaking.sol\":5951:5971  stakes[stakes_count] */\n      dup2\n      mstore\n      0x20\n      add\n      swap1\n      dup2\n      mstore\n      0x20\n      add\n      0x00\n      keccak256\n        /* \"contracts/LPStaking.sol\":5951:6226  stakes[stakes_count] = StakeDetails({... */\n      0x00\n      dup3\n      add\n      mload\n      dup2\n      0x00\n      add\n      sstore\n      0x20\n      dup3\n      add\n      mload\n      dup2\n      0x01\n      add\n      exp(0x0100, 0x00)\n      dup2\n      sload\n      dup2\n      sub(shl(0xa0, 0x01), 0x01)\n      mul\n      not\n      and\n      swap1\n      dup4\n      sub(shl(0xa0, 0x01), 0x01)\n      and\n      mul\n      or\n      swap1\n      sstore\n      pop\n      0x40\n      dup3\n      add\n      mload\n      dup2\n      0x01\n      add\n      exp(0x0100, 0x14)\n      dup2\n      sload\n      dup2\n      sub(shl(0x60, 0x01), 0x01)\n      mul\n      not\n      and\n      swap1\n      dup4\n      sub(shl(0x60, 0x01), 0x01)\n      and\n      mul\n      or\n      swap1\n      sstore\n      pop\n      0x60\n      dup3\n      add\n      mload\n      dup2\n      0x02\n      add\n      sstore\n      0x80\n      dup3\n      add\n      mload\n      dup2\n      0x03\n      add\n      sstore\n      0xa0\n      dup3\n      add\n      mload\n      dup2\n      0x04\n      add\n      sstore\n      swap1\n      pop\n      pop\n        /* \"contracts/LPStaking.sol\":6277:6290  reward_amount */\n      dup3\n        /* \"contracts/LPStaking.sol\":6237:6253  pending_payments */\n      0x05\n        /* \"contracts/LPStaking.sol\":6237:6273  pending_payments[pool.rewards_token] */\n      0x00\n        /* \"contracts/LPStaking.sol\":6254:6258  pool */\n      dup8\n        /* \"contracts/LPStaking.sol\":6254:6272  pool.rewards_token */\n      0x01\n      add\n      0x00\n      swap1\n      sload\n      swap1\n      0x0100\n      exp\n      swap1\n      div\n      sub(shl(0xa0, 0x01), 0x01)\n      and\n      sub(shl(0xa0, 0x01), 0x01)\n        /* \"contracts/LPStaking.sol\":6237:6273  pending_payments[pool.rewards_token] */\n      and\n      sub(shl(0xa0, 0x01), 0x01)\n      and\n      dup2\n      mstore\n      0x20\n      add\n      swap1\n      dup2\n      mstore\n      0x20\n      add\n      0x00\n      keccak256\n      0x00\n        /* \"contracts/LPStaking.sol\":6237:6290  pending_payments[pool.rewards_token] += reward_amount */\n      dup3\n      dup3\n      sload\n      tag_252\n      swap2\n      swap1\n      tag_248\n      jump\t// in\n    tag_252:\n      swap1\n      swap2\n      sstore\n      pop\n      pop\n        /* \"contracts/LPStaking.sol\":6327:6339  stakes_count */\n      sload(0x04)\n        /* \"contracts/LPStaking.sol\":6306:6404  Staked(_msgSender(), stakes_count, pool_id, maturity, stake_amount, reward_amount, required_CREDI) */\n      0x40\n      dup1\n      mload\n        /* \"#utility.yul\":10782:10807   */\n      swap2\n      dup3\n      mstore\n      sub(shl(0x60, 0x01), 0x01)\n        /* \"#utility.yul\":10843:10882   */\n      dup4\n      and\n        /* \"#utility.yul\":10838:10840   */\n      0x20\n        /* \"#utility.yul\":10823:10841   */\n      dup4\n      add\n        /* \"#utility.yul\":10816:10883   */\n      mstore\n        /* \"#utility.yul\":10899:10917   */\n      dup2\n      dup2\n      add\n        /* \"#utility.yul\":10892:10926   */\n      dup14\n      swap1\n      mstore\n        /* \"#utility.yul\":10957:10959   */\n      0x60\n        /* \"#utility.yul\":10942:10960   */\n      dup3\n      add\n        /* \"#utility.yul\":10935:10969   */\n      dup6\n      swap1\n      mstore\n        /* \"#utility.yul\":11000:11003   */\n      0x80\n        /* \"#utility.yul\":10985:11004   */\n      dup3\n      add\n        /* \"#utility.yul\":10978:11013   */\n      dup5\n      swap1\n      mstore\n        /* \"contracts/LPStaking.sol\":6306:6404  Staked(_msgSender(), stakes_count, pool_id, maturity, stake_amount, reward_amount, required_CREDI) */\n      mload\n        /* \"contracts/LPStaking.sol\":6341:6348  pool_id */\n      dup14\n      swap2\n        /* \"@openzeppelin/contracts/utils/Context.sol\":735:745  msg.sender */\n      caller\n      swap2\n        /* \"contracts/LPStaking.sol\":6306:6404  Staked(_msgSender(), stakes_count, pool_id, maturity, stake_amount, reward_amount, required_CREDI) */\n      0xc48192cf3609b4932a8b10a6f09fe1cac38610fdef14eacc15b35c454da0b4c5\n      swap2\n      dup2\n      swap1\n      sub\n        /* \"#utility.yul\":10769:10772   */\n      0xa0\n        /* \"contracts/LPStaking.sol\":6306:6404  Staked(_msgSender(), stakes_count, pool_id, maturity, stake_amount, reward_amount, required_CREDI) */\n      add\n      swap1\n      log3\n        /* \"contracts/LPStaking.sol\":6415:6427  stakes_count */\n      0x04\n        /* \"contracts/LPStaking.sol\":6415:6429  stakes_count++ */\n      dup1\n      sload\n      swap1\n        /* \"contracts/LPStaking.sol\":6415:6427  stakes_count */\n      0x00\n        /* \"contracts/LPStaking.sol\":6415:6429  stakes_count++ */\n      tag_256\n      dup4\n      tag_257\n      jump\t// in\n    tag_256:\n      swap2\n      swap1\n      pop\n      sstore\n      pop\n        /* \"contracts/LPStaking.sol\":5190:6438  {... */\n      pop\n      pop\n      pop\n      pop\n      pop\n        /* \"@openzeppelin/contracts/utils/ReentrancyGuard.sol\":2531:2532  _ */\n      pop\n        /* \"@openzeppelin/contracts/utils/ReentrancyGuard.sol\":2542:2562  _nonReentrantAfter() */\n      tag_258\n        /* \"@openzeppelin/contracts/utils/ReentrancyGuard.sol\":1857:1858  1 */\n      0x01\n        /* \"@openzeppelin/contracts/utils/ReentrancyGuard.sol\":3068:3089  _status = NOT_ENTERED */\n      dup1\n      sstore\n        /* \"@openzeppelin/contracts/utils/ReentrancyGuard.sol\":2888:3096  function _nonReentrantAfter() private {... */\n      jump\n        /* \"@openzeppelin/contracts/utils/ReentrancyGuard.sol\":2542:2562  _nonReentrantAfter() */\n    tag_258:\n        /* \"contracts/LPStaking.sol\":5024:6438  function stake(uint pool_id, uint stake_amount, bytes calldata token0_price_data, bytes calldata token1_price_data) external nonReentrant validate_pool(pool_id)... */\n      pop\n      pop\n      pop\n      pop\n      pop\n      pop\n      jump\t// out\n        /* \"contracts/LPStaking.sol\":9439:9755  function setBonusAPY(uint pool_id, uint96 whales_bonus_apy) external onlyOwner validate_pool(pool_id)... */\n    tag_53:\n        /* \"@openzeppelin/contracts/access/Ownable.sol\":1531:1544  _checkOwner() */\n      tag_260\n        /* \"@openzeppelin/contracts/access/Ownable.sol\":1531:1542  _checkOwner */\n      tag_96\n        /* \"@openzeppelin/contracts/access/Ownable.sol\":1531:1544  _checkOwner() */\n      jump\t// in\n    tag_260:\n        /* \"contracts/LPStaking.sol\":9532:9539  pool_id */\n      dup2\n        /* \"contracts/LPStaking.sol\":2119:2120  0 */\n      0x00\n        /* \"contracts/LPStaking.sol\":2109:2116  pool_id */\n      dup2\n        /* \"contracts/LPStaking.sol\":2109:2120  pool_id > 0 */\n      gt\n        /* \"contracts/LPStaking.sol\":2109:2146  pool_id > 0 && pool_id < pools.length */\n      dup1\n      iszero\n      tag_262\n      jumpi\n      pop\n        /* \"contracts/LPStaking.sol\":2134:2139  pools */\n      0x02\n        /* \"contracts/LPStaking.sol\":2134:2146  pools.length */\n      sload\n        /* \"contracts/LPStaking.sol\":2124:2146  pool_id < pools.length */\n      dup2\n      lt\n        /* \"contracts/LPStaking.sol\":2109:2146  pool_id > 0 && pool_id < pools.length */\n    tag_262:\n        /* \"contracts/LPStaking.sol\":2101:2177  require(pool_id > 0 && pool_id < pools.length, \"LPStaking:Invalid Pool ID!\") */\n      tag_263\n      jumpi\n      mload(0x40)\n      shl(0xe5, 0x461bcd)\n      dup2\n      mstore\n      0x04\n      add\n      tag_100\n      swap1\n      tag_121\n      jump\t// in\n    tag_263:\n        /* \"contracts/LPStaking.sol\":9585:9591  100000 */\n      0x0186a0\n        /* \"contracts/LPStaking.sol\":9565:9581  whales_bonus_apy */\n      dup3\n      sub(shl(0x60, 0x01), 0x01)\n        /* \"contracts/LPStaking.sol\":9565:9591  whales_bonus_apy <= 100000 */\n      and\n      gt\n      iszero\n        /* \"contracts/LPStaking.sol\":9557:9628  require(whales_bonus_apy <= 100000, \"LPStaking:max bonus apy is 1000%\") */\n      tag_266\n      jumpi\n      mload(0x40)\n      shl(0xe5, 0x461bcd)\n      dup2\n      mstore\n        /* \"#utility.yul\":11366:11368   */\n      0x20\n        /* \"contracts/LPStaking.sol\":9557:9628  require(whales_bonus_apy <= 100000, \"LPStaking:max bonus apy is 1000%\") */\n      0x04\n      dup3\n      add\n        /* \"#utility.yul\":11348:11369   */\n      dup2\n      swap1\n      mstore\n        /* \"#utility.yul\":11385:11403   */\n      0x24\n      dup3\n      add\n        /* \"#utility.yul\":11378:11408   */\n      mstore\n        /* \"#utility.yul\":11444:11478   */\n      0x4c505374616b696e673a6d617820626f6e757320617079206973203130303025\n        /* \"#utility.yul\":11424:11442   */\n      0x44\n      dup3\n      add\n        /* \"#utility.yul\":11417:11479   */\n      mstore\n        /* \"#utility.yul\":11496:11514   */\n      0x64\n      add\n        /* \"contracts/LPStaking.sol\":9557:9628  require(whales_bonus_apy <= 100000, \"LPStaking:max bonus apy is 1000%\") */\n      tag_100\n        /* \"#utility.yul\":11164:11520   */\n      jump\n        /* \"contracts/LPStaking.sol\":9557:9628  require(whales_bonus_apy <= 100000, \"LPStaking:max bonus apy is 1000%\") */\n    tag_266:\n        /* \"contracts/LPStaking.sol\":9673:9689  whales_bonus_apy */\n      dup2\n        /* \"contracts/LPStaking.sol\":9639:9644  pools */\n      0x02\n        /* \"contracts/LPStaking.sol\":9645:9652  pool_id */\n      dup5\n        /* \"contracts/LPStaking.sol\":9639:9653  pools[pool_id] */\n      dup2\n      sload\n      dup2\n      lt\n      tag_270\n      jumpi\n      tag_270\n      tag_110\n      jump\t// in\n    tag_270:\n      0x00\n      swap2\n      dup3\n      mstore\n      0x20\n      swap2\n      dup3\n      swap1\n      keccak256\n      0x03\n      swap2\n      swap1\n      swap2\n      mul\n      add\n        /* \"contracts/LPStaking.sol\":9639:9670  pools[pool_id].whales_bonus_apy */\n      0x02\n      add\n        /* \"contracts/LPStaking.sol\":9639:9689  pools[pool_id].whales_bonus_apy = whales_bonus_apy */\n      dup1\n      sload\n      sub(shl(0xa0, 0x01), 0x01)\n      and\n      shl(0xa0, 0x01)\n      sub(shl(0x60, 0x01), 0x01)\n      swap5\n      dup6\n      and\n      mul\n      or\n      swap1\n      sstore\n        /* \"contracts/LPStaking.sol\":9705:9747  BonusAPYChanged(pool_id, whales_bonus_apy) */\n      mload(0x40)\n        /* \"#utility.yul\":1605:1644   */\n      swap2\n      dup5\n      and\n        /* \"#utility.yul\":1587:1645   */\n      dup3\n      mstore\n        /* \"contracts/LPStaking.sol\":9721:9728  pool_id */\n      dup5\n      swap2\n        /* \"contracts/LPStaking.sol\":9705:9747  BonusAPYChanged(pool_id, whales_bonus_apy) */\n      0xd3cd184b56b5b95016981fc55484ff8fdf06eb587430055c7ab828a0edc0dc9d\n      swap2\n        /* \"#utility.yul\":1560:1578   */\n      add\n        /* \"contracts/LPStaking.sol\":9705:9747  BonusAPYChanged(pool_id, whales_bonus_apy) */\n      tag_129\n        /* \"#utility.yul\":1443:1651   */\n      jump\n        /* \"contracts/LPStaking.sol\":4046:5016  function createPool(address staking_token, address rewards_token, address price_oracle, uint reward_amount, uint96 maturity, uint96 apy, uint96 whales_bonus_apy) external onlyOwner returns(uint)... */\n    tag_57:\n        /* \"contracts/LPStaking.sol\":4235:4239  uint */\n      0x00\n        /* \"@openzeppelin/contracts/access/Ownable.sol\":1531:1544  _checkOwner() */\n      tag_274\n        /* \"@openzeppelin/contracts/access/Ownable.sol\":1531:1542  _checkOwner */\n      tag_96\n        /* \"@openzeppelin/contracts/access/Ownable.sol\":1531:1544  _checkOwner() */\n      jump\t// in\n    tag_274:\n        /* \"contracts/LPStaking.sol\":4276:4277  0 */\n      0x00\n        /* \"contracts/LPStaking.sol\":4265:4273  maturity */\n      dup5\n      sub(shl(0x60, 0x01), 0x01)\n        /* \"contracts/LPStaking.sol\":4265:4277  maturity > 0 */\n      and\n      gt\n        /* \"contracts/LPStaking.sol\":4257:4323  require(maturity > 0, \"LPStaking:maturity must be greater than 0\") */\n      tag_276\n      jumpi\n      mload(0x40)\n      shl(0xe5, 0x461bcd)\n      dup2\n      mstore\n        /* \"#utility.yul\":11727:11729   */\n      0x20\n        /* \"contracts/LPStaking.sol\":4257:4323  require(maturity > 0, \"LPStaking:maturity must be greater than 0\") */\n      0x04\n      dup3\n      add\n        /* \"#utility.yul\":11709:11730   */\n      mstore\n        /* \"#utility.yul\":11766:11768   */\n      0x29\n        /* \"#utility.yul\":11746:11764   */\n      0x24\n      dup3\n      add\n        /* \"#utility.yul\":11739:11769   */\n      mstore\n        /* \"#utility.yul\":11805:11839   */\n      0x4c505374616b696e673a6d61747572697479206d757374206265206772656174\n        /* \"#utility.yul\":11785:11803   */\n      0x44\n      dup3\n      add\n        /* \"#utility.yul\":11778:11840   */\n      mstore\n      shl(0xbc, 0x06572207468616e203)\n        /* \"#utility.yul\":11856:11874   */\n      0x64\n      dup3\n      add\n        /* \"#utility.yul\":11849:11888   */\n      mstore\n        /* \"#utility.yul\":11905:11924   */\n      0x84\n      add\n        /* \"contracts/LPStaking.sol\":4257:4323  require(maturity > 0, \"LPStaking:maturity must be greater than 0\") */\n      tag_100\n        /* \"#utility.yul\":11525:11930   */\n      jump\n        /* \"contracts/LPStaking.sol\":4257:4323  require(maturity > 0, \"LPStaking:maturity must be greater than 0\") */\n    tag_276:\n        /* \"contracts/LPStaking.sol\":4383:4396  rewards_token */\n      dup7\n      sub(shl(0xa0, 0x01), 0x01)\n        /* \"contracts/LPStaking.sol\":4342:4396  IPriceData(price_oracle).quoteToken() == rewards_token */\n      and\n        /* \"contracts/LPStaking.sol\":4353:4365  price_oracle */\n      dup7\n      sub(shl(0xa0, 0x01), 0x01)\n        /* \"contracts/LPStaking.sol\":4342:4377  IPriceData(price_oracle).quoteToken */\n      and\n      0x217a4b70\n        /* \"contracts/LPStaking.sol\":4342:4379  IPriceData(price_oracle).quoteToken() */\n      mload(0x40)\n      dup2\n      0xffffffff\n      and\n      0xe0\n      shl\n      dup2\n      mstore\n      0x04\n      add\n      0x20\n      mload(0x40)\n      dup1\n      dup4\n      sub\n      dup2\n      dup7\n      gas\n      staticcall\n      iszero\n      dup1\n      iszero\n      tag_280\n      jumpi\n      returndatacopy(0x00, 0x00, returndatasize)\n      revert(0x00, returndatasize)\n    tag_280:\n      pop\n      pop\n      pop\n      pop\n      mload(0x40)\n      returndatasize\n      not(0x1f)\n      0x1f\n      dup3\n      add\n      and\n      dup3\n      add\n      dup1\n      0x40\n      mstore\n      pop\n      dup2\n      add\n      swap1\n      tag_281\n      swap2\n      swap1\n      tag_282\n      jump\t// in\n    tag_281:\n      sub(shl(0xa0, 0x01), 0x01)\n        /* \"contracts/LPStaking.sol\":4342:4396  IPriceData(price_oracle).quoteToken() == rewards_token */\n      and\n      eq\n        /* \"contracts/LPStaking.sol\":4334:4466  require(IPriceData(price_oracle).quoteToken() == rewards_token, \"LPStaking:rewards_token must be equal to price_oracle quote token\") */\n      tag_283\n      jumpi\n      mload(0x40)\n      shl(0xe5, 0x461bcd)\n      dup2\n      mstore\n        /* \"#utility.yul\":12393:12395   */\n      0x20\n        /* \"contracts/LPStaking.sol\":4334:4466  require(IPriceData(price_oracle).quoteToken() == rewards_token, \"LPStaking:rewards_token must be equal to price_oracle quote token\") */\n      0x04\n      dup3\n      add\n        /* \"#utility.yul\":12375:12396   */\n      mstore\n        /* \"#utility.yul\":12432:12434   */\n      0x41\n        /* \"#utility.yul\":12412:12430   */\n      0x24\n      dup3\n      add\n        /* \"#utility.yul\":12405:12435   */\n      mstore\n        /* \"#utility.yul\":12471:12505   */\n      0x4c505374616b696e673a726577617264735f746f6b656e206d75737420626520\n        /* \"#utility.yul\":12451:12469   */\n      0x44\n      dup3\n      add\n        /* \"#utility.yul\":12444:12506   */\n      mstore\n        /* \"#utility.yul\":12542:12576   */\n      0x657175616c20746f2070726963655f6f7261636c652071756f746520746f6b65\n        /* \"#utility.yul\":12522:12540   */\n      0x64\n      dup3\n      add\n        /* \"#utility.yul\":12515:12577   */\n      mstore\n      shl(0xf9, 0x37)\n        /* \"#utility.yul\":12593:12612   */\n      0x84\n      dup3\n      add\n        /* \"#utility.yul\":12586:12618   */\n      mstore\n        /* \"#utility.yul\":12635:12654   */\n      0xa4\n      add\n        /* \"contracts/LPStaking.sol\":4334:4466  require(IPriceData(price_oracle).quoteToken() == rewards_token, \"LPStaking:rewards_token must be equal to price_oracle quote token\") */\n      tag_100\n        /* \"#utility.yul\":12191:12660   */\n      jump\n        /* \"contracts/LPStaking.sol\":4334:4466  require(IPriceData(price_oracle).quoteToken() == rewards_token, \"LPStaking:rewards_token must be equal to price_oracle quote token\") */\n    tag_283:\n        /* \"contracts/LPStaking.sol\":4488:4741  PoolInfo({... */\n      0x40\n      dup1\n      mload\n      0xc0\n      dup2\n      add\n      dup3\n      mstore\n      sub(shl(0xa0, 0x01), 0x01)\n      dup11\n      dup2\n      and\n      dup3\n      mstore\n      sub(shl(0x60, 0x01), 0x01)\n      dup8\n      dup2\n      and\n      0x20\n      dup5\n      add\n      swap1\n      dup2\n      mstore\n      dup12\n      dup4\n      and\n      swap5\n      dup5\n      add\n      swap5\n      dup6\n      mstore\n      dup8\n      dup3\n      and\n      0x60\n      dup6\n      add\n      swap1\n      dup2\n      mstore\n      dup12\n      dup5\n      and\n      0x80\n      dup7\n      add\n      swap1\n      dup2\n      mstore\n      dup9\n      dup5\n      and\n      0xa0\n      dup8\n      add\n      swap1\n      dup2\n      mstore\n        /* \"contracts/LPStaking.sol\":4477:4482  pools */\n      0x02\n        /* \"contracts/LPStaking.sol\":4477:4742  pools.push(PoolInfo({... */\n      dup1\n      sload\n      0x01\n      dup1\n      dup3\n      add\n      dup4\n      sstore\n      0x00\n      dup4\n      dup2\n      mstore\n      swap10\n      mload\n      swap7\n      mload\n      swap7\n      dup10\n      and\n      shl(0xa0, 0x01)\n      swap8\n      dup10\n      and\n      dup9\n      mul\n      or\n      0x405787fa12a823e0f2b7631cc41b3ba8828b3321ca811111fa75cd3aa3bb5ace\n      0x03\n      swap1\n      swap4\n      mul\n      swap3\n      dup4\n      add\n      sstore\n      swap10\n      mload\n      swap5\n      mload\n      swap5\n      dup9\n      and\n      swap5\n      dup8\n      and\n      dup7\n      mul\n      swap5\n      swap1\n      swap5\n      or\n      0x405787fa12a823e0f2b7631cc41b3ba8828b3321ca811111fa75cd3aa3bb5acf\n      dup6\n      add\n      sstore\n      swap2\n      mload\n      swap1\n      mload\n      swap6\n      and\n      swap5\n      swap1\n      swap4\n      and\n      swap1\n      swap2\n      mul\n      swap3\n      swap1\n      swap3\n      or\n      0x405787fa12a823e0f2b7631cc41b3ba8828b3321ca811111fa75cd3aa3bb5ad0\n      swap1\n      swap3\n      add\n      swap2\n      swap1\n      swap2\n      sstore\n        /* \"contracts/LPStaking.sol\":4768:4780  pools.length */\n      sload\n      swap1\n      swap2\n        /* \"contracts/LPStaking.sol\":4768:4784  pools.length - 1 */\n      tag_287\n      swap2\n      tag_113\n      jump\t// in\n    tag_287:\n        /* \"contracts/LPStaking.sol\":4753:4784  uint pool_id = pools.length - 1 */\n      swap1\n      pop\n        /* \"contracts/LPStaking.sol\":4836:4849  rewards_token */\n      dup8\n      sub(shl(0xa0, 0x01), 0x01)\n        /* \"contracts/LPStaking.sol\":4800:4897  PoolCreated(pool_id, staking_token, rewards_token, price_oracle, maturity, apy, whales_bonus_apy) */\n      and\n        /* \"contracts/LPStaking.sol\":4821:4834  staking_token */\n      dup10\n      sub(shl(0xa0, 0x01), 0x01)\n        /* \"contracts/LPStaking.sol\":4800:4897  PoolCreated(pool_id, staking_token, rewards_token, price_oracle, maturity, apy, whales_bonus_apy) */\n      and\n        /* \"contracts/LPStaking.sol\":4812:4819  pool_id */\n      dup3\n        /* \"contracts/LPStaking.sol\":4800:4897  PoolCreated(pool_id, staking_token, rewards_token, price_oracle, maturity, apy, whales_bonus_apy) */\n      0x6b64b7e8b6f4656658efb1c74b7d1bbff6e84d3d7b1cd5ae89fd6cd91de6ef96\n        /* \"contracts/LPStaking.sol\":4851:4863  price_oracle */\n      dup11\n        /* \"contracts/LPStaking.sol\":4865:4873  maturity */\n      dup10\n        /* \"contracts/LPStaking.sol\":4875:4878  apy */\n      dup10\n        /* \"contracts/LPStaking.sol\":4880:4896  whales_bonus_apy */\n      dup10\n        /* \"contracts/LPStaking.sol\":4800:4897  PoolCreated(pool_id, staking_token, rewards_token, price_oracle, maturity, apy, whales_bonus_apy) */\n      mload(0x40)\n      tag_288\n      swap5\n      swap4\n      swap3\n      swap2\n      swap1\n      sub(shl(0xa0, 0x01), 0x01)\n        /* \"#utility.yul\":12908:12940   */\n      swap5\n      swap1\n      swap5\n      and\n        /* \"#utility.yul\":12890:12941   */\n      dup5\n      mstore\n      sub(shl(0x60, 0x01), 0x01)\n        /* \"#utility.yul\":12977:13016   */\n      swap3\n      dup4\n      and\n        /* \"#utility.yul\":12972:12974   */\n      0x20\n        /* \"#utility.yul\":12957:12975   */\n      dup6\n      add\n        /* \"#utility.yul\":12950:13017   */\n      mstore\n        /* \"#utility.yul\":13053:13092   */\n      swap1\n      dup3\n      and\n        /* \"#utility.yul\":13048:13050   */\n      0x40\n        /* \"#utility.yul\":13033:13051   */\n      dup5\n      add\n        /* \"#utility.yul\":13026:13093   */\n      mstore\n        /* \"#utility.yul\":13129:13168   */\n      and\n        /* \"#utility.yul\":13124:13126   */\n      0x60\n        /* \"#utility.yul\":13109:13127   */\n      dup3\n      add\n        /* \"#utility.yul\":13102:13169   */\n      mstore\n        /* \"#utility.yul\":12877:12880   */\n      0x80\n        /* \"#utility.yul\":12862:12881   */\n      add\n      swap1\n        /* \"#utility.yul\":12665:13175   */\n      jump\n        /* \"contracts/LPStaking.sol\":4800:4897  PoolCreated(pool_id, staking_token, rewards_token, price_oracle, maturity, apy, whales_bonus_apy) */\n    tag_288:\n      mload(0x40)\n      dup1\n      swap2\n      sub\n      swap1\n      log4\n        /* \"contracts/LPStaking.sol\":4911:4928  reward_amount > 0 */\n      dup6\n      iszero\n        /* \"contracts/LPStaking.sol\":4908:4983  if(reward_amount > 0)... */\n      tag_291\n      jumpi\n        /* \"contracts/LPStaking.sol\":4943:4983  addRewards(rewards_token, reward_amount) */\n      tag_291\n        /* \"contracts/LPStaking.sol\":4954:4967  rewards_token */\n      dup9\n        /* \"contracts/LPStaking.sol\":4969:4982  reward_amount */\n      dup8\n        /* \"contracts/LPStaking.sol\":4943:4953  addRewards */\n      tag_78\n        /* \"contracts/LPStaking.sol\":4943:4983  addRewards(rewards_token, reward_amount) */\n      jump\t// in\n    tag_291:\n        /* \"contracts/LPStaking.sol\":5001:5008  pool_id */\n      swap9\n        /* \"contracts/LPStaking.sol\":4046:5016  function createPool(address staking_token, address rewards_token, address price_oracle, uint reward_amount, uint96 maturity, uint96 apy, uint96 whales_bonus_apy) external onlyOwner returns(uint)... */\n      swap8\n      pop\n      pop\n      pop\n      pop\n      pop\n      pop\n      pop\n      pop\n      jump\t// out\n        /* \"@openzeppelin/contracts/access/Ownable.sol\":2293:2394  function renounceOwnership() public virtual onlyOwner {... */\n    tag_61:\n        /* \"@openzeppelin/contracts/access/Ownable.sol\":1531:1544  _checkOwner() */\n      tag_293\n        /* \"@openzeppelin/contracts/access/Ownable.sol\":1531:1542  _checkOwner */\n      tag_96\n        /* \"@openzeppelin/contracts/access/Ownable.sol\":1531:1544  _checkOwner() */\n      jump\t// in\n    tag_293:\n        /* \"@openzeppelin/contracts/access/Ownable.sol\":2357:2387  _transferOwnership(address(0)) */\n      tag_295\n        /* \"@openzeppelin/contracts/access/Ownable.sol\":2384:2385  0 */\n      0x00\n        /* \"@openzeppelin/contracts/access/Ownable.sol\":2357:2375  _transferOwnership */\n      tag_296\n        /* \"@openzeppelin/contracts/access/Ownable.sol\":2357:2387  _transferOwnership(address(0)) */\n      jump\t// in\n    tag_295:\n        /* \"@openzeppelin/contracts/access/Ownable.sol\":2293:2394  function renounceOwnership() public virtual onlyOwner {... */\n      jump\t// out\n        /* \"contracts/LPStaking.sol\":8833:9188  function withdrawRewards(address rewards_token, address to, uint amount) external onlyOwner... */\n    tag_65:\n        /* \"@openzeppelin/contracts/access/Ownable.sol\":1531:1544  _checkOwner() */\n      tag_298\n        /* \"@openzeppelin/contracts/access/Ownable.sol\":1531:1542  _checkOwner */\n      tag_96\n        /* \"@openzeppelin/contracts/access/Ownable.sol\":1531:1544  _checkOwner() */\n      jump\t// in\n    tag_298:\n      sub(shl(0xa0, 0x01), 0x01)\n        /* \"contracts/LPStaking.sol\":9008:9039  pending_payments[rewards_token] */\n      dup4\n      and\n      0x00\n      swap1\n      dup2\n      mstore\n        /* \"contracts/LPStaking.sol\":9008:9024  pending_payments */\n      0x05\n        /* \"contracts/LPStaking.sol\":9008:9039  pending_payments[rewards_token] */\n      0x20\n      mstore\n      0x40\n      swap1\n      keccak256\n      sload\n        /* \"contracts/LPStaking.sol\":8999:9039  amount + pending_payments[rewards_token] */\n      tag_300\n      swap1\n        /* \"contracts/LPStaking.sol\":8999:9005  amount */\n      dup3\n        /* \"contracts/LPStaking.sol\":8999:9039  amount + pending_payments[rewards_token] */\n      tag_248\n      jump\t// in\n    tag_300:\n        /* \"contracts/LPStaking.sol\":8949:8995  IERC20(rewards_token).balanceOf(address(this)) */\n      mload(0x40)\n      shl(0xe0, 0x70a08231)\n      dup2\n      mstore\n        /* \"contracts/LPStaking.sol\":8989:8993  this */\n      address\n        /* \"contracts/LPStaking.sol\":8949:8995  IERC20(rewards_token).balanceOf(address(this)) */\n      0x04\n      dup3\n      add\n        /* \"#utility.yul\":4811:4862   */\n      mstore\n      sub(shl(0xa0, 0x01), 0x01)\n        /* \"contracts/LPStaking.sol\":8949:8980  IERC20(rewards_token).balanceOf */\n      dup6\n      and\n      swap1\n      0x70a08231\n      swap1\n        /* \"#utility.yul\":4784:4802   */\n      0x24\n      add\n        /* \"contracts/LPStaking.sol\":8949:8995  IERC20(rewards_token).balanceOf(address(this)) */\n      0x20\n      mload(0x40)\n      dup1\n      dup4\n      sub\n      dup2\n      dup7\n      gas\n      staticcall\n      iszero\n      dup1\n      iszero\n      tag_303\n      jumpi\n      returndatacopy(0x00, 0x00, returndatasize)\n      revert(0x00, returndatasize)\n    tag_303:\n      pop\n      pop\n      pop\n      pop\n      mload(0x40)\n      returndatasize\n      not(0x1f)\n      0x1f\n      dup3\n      add\n      and\n      dup3\n      add\n      dup1\n      0x40\n      mstore\n      pop\n      dup2\n      add\n      swap1\n      tag_304\n      swap2\n      swap1\n      tag_242\n      jump\t// in\n    tag_304:\n        /* \"contracts/LPStaking.sol\":8949:9039  IERC20(rewards_token).balanceOf(address(this)) >= amount + pending_payments[rewards_token] */\n      lt\n      iszero\n        /* \"contracts/LPStaking.sol\":8941:9065  require(IERC20(rewards_token).balanceOf(address(this)) >= amount + pending_payments[rewards_token], \"Insufficient balance!\") */\n      tag_305\n      jumpi\n      mload(0x40)\n      shl(0xe5, 0x461bcd)\n      dup2\n      mstore\n        /* \"#utility.yul\":13382:13384   */\n      0x20\n        /* \"contracts/LPStaking.sol\":8941:9065  require(IERC20(rewards_token).balanceOf(address(this)) >= amount + pending_payments[rewards_token], \"Insufficient balance!\") */\n      0x04\n      dup3\n      add\n        /* \"#utility.yul\":13364:13385   */\n      mstore\n        /* \"#utility.yul\":13421:13423   */\n      0x15\n        /* \"#utility.yul\":13401:13419   */\n      0x24\n      dup3\n      add\n        /* \"#utility.yul\":13394:13424   */\n      mstore\n      shl(0x58, 0x496e73756666696369656e742062616c616e636521)\n        /* \"#utility.yul\":13440:13458   */\n      0x44\n      dup3\n      add\n        /* \"#utility.yul\":13433:13484   */\n      mstore\n        /* \"#utility.yul\":13501:13519   */\n      0x64\n      add\n        /* \"contracts/LPStaking.sol\":8941:9065  require(IERC20(rewards_token).balanceOf(address(this)) >= amount + pending_payments[rewards_token], \"Insufficient balance!\") */\n      tag_100\n        /* \"#utility.yul\":13180:13525   */\n      jump\n        /* \"contracts/LPStaking.sol\":8941:9065  require(IERC20(rewards_token).balanceOf(address(this)) >= amount + pending_payments[rewards_token], \"Insufficient balance!\") */\n    tag_305:\n        /* \"contracts/LPStaking.sol\":9076:9122  IERC20(rewards_token).safeTransfer(to, amount) */\n      tag_308\n      sub(shl(0xa0, 0x01), 0x01)\n        /* \"contracts/LPStaking.sol\":9076:9110  IERC20(rewards_token).safeTransfer */\n      dup5\n      and\n        /* \"contracts/LPStaking.sol\":9111:9113  to */\n      dup4\n        /* \"contracts/LPStaking.sol\":9115:9121  amount */\n      dup4\n        /* \"contracts/LPStaking.sol\":9076:9110  IERC20(rewards_token).safeTransfer */\n      tag_176\n        /* \"contracts/LPStaking.sol\":9076:9122  IERC20(rewards_token).safeTransfer(to, amount) */\n      jump\t// in\n    tag_308:\n        /* \"contracts/LPStaking.sol\":9169:9171  to */\n      dup2\n      sub(shl(0xa0, 0x01), 0x01)\n        /* \"contracts/LPStaking.sol\":9138:9180  RewardWithdrawn(rewards_token, to, amount) */\n      and\n        /* \"contracts/LPStaking.sol\":9154:9167  rewards_token */\n      dup4\n      sub(shl(0xa0, 0x01), 0x01)\n        /* \"contracts/LPStaking.sol\":9138:9180  RewardWithdrawn(rewards_token, to, amount) */\n      and\n      0xe06fab35f3c220725c11d544884aff93ebf67222c8310c487c71f27c844593e8\n        /* \"contracts/LPStaking.sol\":9173:9179  amount */\n      dup4\n        /* \"contracts/LPStaking.sol\":9138:9180  RewardWithdrawn(rewards_token, to, amount) */\n      mload(0x40)\n      tag_309\n      swap2\n        /* \"#utility.yul\":4116:4141   */\n      dup2\n      mstore\n        /* \"#utility.yul\":4104:4106   */\n      0x20\n        /* \"#utility.yul\":4089:4107   */\n      add\n      swap1\n        /* \"#utility.yul\":3970:4147   */\n      jump\n        /* \"contracts/LPStaking.sol\":9138:9180  RewardWithdrawn(rewards_token, to, amount) */\n    tag_309:\n      mload(0x40)\n      dup1\n      swap2\n      sub\n      swap1\n      log3\n        /* \"contracts/LPStaking.sol\":8833:9188  function withdrawRewards(address rewards_token, address to, uint amount) external onlyOwner... */\n      pop\n      pop\n      pop\n      jump\t// out\n        /* \"contracts/LPStaking.sol\":8534:8825  function addRewards(address rewards_token, uint amount) public ... */\n    tag_78:\n        /* \"contracts/LPStaking.sol\":8632:8633  0 */\n      0x00\n        /* \"contracts/LPStaking.sol\":8623:8629  amount */\n      dup2\n        /* \"contracts/LPStaking.sol\":8623:8633  amount > 0 */\n      gt\n        /* \"contracts/LPStaking.sol\":8614:8681  require (amount > 0, \"LPStaking:amount must be greater than zero!\") */\n      tag_312\n      jumpi\n      mload(0x40)\n      shl(0xe5, 0x461bcd)\n      dup2\n      mstore\n        /* \"#utility.yul\":13732:13734   */\n      0x20\n        /* \"contracts/LPStaking.sol\":8614:8681  require (amount > 0, \"LPStaking:amount must be greater than zero!\") */\n      0x04\n      dup3\n      add\n        /* \"#utility.yul\":13714:13735   */\n      mstore\n        /* \"#utility.yul\":13771:13773   */\n      0x2b\n        /* \"#utility.yul\":13751:13769   */\n      0x24\n      dup3\n      add\n        /* \"#utility.yul\":13744:13774   */\n      mstore\n        /* \"#utility.yul\":13810:13844   */\n      0x4c505374616b696e673a616d6f756e74206d7573742062652067726561746572\n        /* \"#utility.yul\":13790:13808   */\n      0x44\n      dup3\n      add\n        /* \"#utility.yul\":13783:13845   */\n      mstore\n      shl(0xa8, 0x207468616e207a65726f21)\n        /* \"#utility.yul\":13861:13879   */\n      0x64\n      dup3\n      add\n        /* \"#utility.yul\":13854:13895   */\n      mstore\n        /* \"#utility.yul\":13912:13931   */\n      0x84\n      add\n        /* \"contracts/LPStaking.sol\":8614:8681  require (amount > 0, \"LPStaking:amount must be greater than zero!\") */\n      tag_100\n        /* \"#utility.yul\":13530:13937   */\n      jump\n        /* \"contracts/LPStaking.sol\":8614:8681  require (amount > 0, \"LPStaking:amount must be greater than zero!\") */\n    tag_312:\n        /* \"contracts/LPStaking.sol\":8692:8767  IERC20(rewards_token).safeTransferFrom(_msgSender(), address(this), amount) */\n      tag_315\n      sub(shl(0xa0, 0x01), 0x01)\n        /* \"contracts/LPStaking.sol\":8692:8730  IERC20(rewards_token).safeTransferFrom */\n      dup4\n      and\n        /* \"@openzeppelin/contracts/utils/Context.sol\":735:745  msg.sender */\n      caller\n        /* \"contracts/LPStaking.sol\":8753:8757  this */\n      address\n        /* \"contracts/LPStaking.sol\":8760:8766  amount */\n      dup5\n        /* \"contracts/LPStaking.sol\":8692:8730  IERC20(rewards_token).safeTransferFrom */\n      tag_223\n        /* \"contracts/LPStaking.sol\":8692:8767  IERC20(rewards_token).safeTransferFrom(_msgSender(), address(this), amount) */\n      jump\t// in\n    tag_315:\n        /* \"contracts/LPStaking.sol\":8795:8808  rewards_token */\n      dup2\n      sub(shl(0xa0, 0x01), 0x01)\n        /* \"contracts/LPStaking.sol\":8783:8817  RewardAdded(rewards_token, amount) */\n      and\n      0xac24935fd910bc682b5ccb1a07b718cadf8cf2f6d1404c4f3ddc3662dae40e29\n        /* \"contracts/LPStaking.sol\":8810:8816  amount */\n      dup3\n        /* \"contracts/LPStaking.sol\":8783:8817  RewardAdded(rewards_token, amount) */\n      mload(0x40)\n      tag_317\n      swap2\n        /* \"#utility.yul\":4116:4141   */\n      dup2\n      mstore\n        /* \"#utility.yul\":4104:4106   */\n      0x20\n        /* \"#utility.yul\":4089:4107   */\n      add\n      swap1\n        /* \"#utility.yul\":3970:4147   */\n      jump\n        /* \"contracts/LPStaking.sol\":8783:8817  RewardAdded(rewards_token, amount) */\n    tag_317:\n      mload(0x40)\n      dup1\n      swap2\n      sub\n      swap1\n      log2\n        /* \"contracts/LPStaking.sol\":8534:8825  function addRewards(address rewards_token, uint amount) public ... */\n      pop\n      pop\n      jump\t// out\n        /* \"contracts/LPStaking.sol\":3825:3927  function getPoolsCount() external view returns (uint) ... */\n    tag_80:\n        /* \"contracts/LPStaking.sol\":3903:3908  pools */\n      0x02\n        /* \"contracts/LPStaking.sol\":3903:3915  pools.length */\n      sload\n        /* \"contracts/LPStaking.sol\":3873:3877  uint */\n      0x00\n      swap1\n        /* \"contracts/LPStaking.sol\":3903:3919  pools.length - 1 */\n      tag_319\n      swap1\n        /* \"contracts/LPStaking.sol\":3918:3919  1 */\n      0x01\n      swap1\n        /* \"contracts/LPStaking.sol\":3903:3919  pools.length - 1 */\n      tag_113\n      jump\t// in\n    tag_319:\n        /* \"contracts/LPStaking.sol\":3896:3919  return pools.length - 1 */\n      swap1\n      pop\n        /* \"contracts/LPStaking.sol\":3825:3927  function getPoolsCount() external view returns (uint) ... */\n      swap1\n      jump\t// out\n        /* \"contracts/LPStaking.sol\":3306:3817  function getStake(uint stake_id) external validate_stake(stake_id) view ... */\n    tag_88:\n        /* \"contracts/LPStaking.sol\":3397:3410  address owner */\n      0x00\n        /* \"contracts/LPStaking.sol\":3421:3433  uint pool_id */\n      0x00\n        /* \"contracts/LPStaking.sol\":3444:3459  uint96 maturity */\n      0x00\n        /* \"contracts/LPStaking.sol\":3470:3487  uint stake_amount */\n      0x00\n        /* \"contracts/LPStaking.sol\":3498:3516  uint reward_amount */\n      0x00\n        /* \"contracts/LPStaking.sol\":3527:3546  uint required_CREDI */\n      0x00\n        /* \"contracts/LPStaking.sol\":3363:3371  stake_id */\n      dup7\n        /* \"contracts/LPStaking.sol\":2280:2281  0 */\n      0x00\n        /* \"contracts/LPStaking.sol\":2269:2277  stake_id */\n      dup2\n        /* \"contracts/LPStaking.sol\":2269:2281  stake_id > 0 */\n      gt\n        /* \"contracts/LPStaking.sol\":2269:2308  stake_id > 0 && stake_id < stakes_count */\n      dup1\n      iszero\n      tag_321\n      jumpi\n      pop\n        /* \"contracts/LPStaking.sol\":2296:2308  stakes_count */\n      sload(0x04)\n        /* \"contracts/LPStaking.sol\":2285:2293  stake_id */\n      dup2\n        /* \"contracts/LPStaking.sol\":2285:2308  stake_id < stakes_count */\n      lt\n        /* \"contracts/LPStaking.sol\":2269:2308  stake_id > 0 && stake_id < stakes_count */\n    tag_321:\n        /* \"contracts/LPStaking.sol\":2261:2340  require(stake_id > 0 && stake_id < stakes_count, \"LPStaking:Invalid Stake ID!\") */\n      tag_322\n      jumpi\n      mload(0x40)\n      shl(0xe5, 0x461bcd)\n      dup2\n      mstore\n      0x04\n      add\n      tag_100\n      swap1\n      tag_101\n      jump\t// in\n    tag_322:\n      pop\n      pop\n      pop\n        /* \"contracts/LPStaking.sol\":3572:3588  stakes[stake_id] */\n      0x00\n      swap5\n      dup6\n      mstore\n      pop\n      pop\n        /* \"contracts/LPStaking.sol\":3572:3578  stakes */\n      0x03\n        /* \"contracts/LPStaking.sol\":3572:3588  stakes[stake_id] */\n      0x20\n      dup2\n      swap1\n      mstore\n      0x40\n      swap1\n      swap4\n      keccak256\n        /* \"contracts/LPStaking.sol\":3572:3594  stakes[stake_id].owner */\n      0x01\n      dup2\n      add\n      sload\n        /* \"contracts/LPStaking.sol\":3609:3633  stakes[stake_id].pool_id */\n      dup2\n      sload\n        /* \"contracts/LPStaking.sol\":3688:3717  stakes[stake_id].stake_amount */\n      0x02\n      dup4\n      add\n      sload\n        /* \"contracts/LPStaking.sol\":3732:3762  stakes[stake_id].reward_amount */\n      swap6\n      dup4\n      add\n      sload\n        /* \"contracts/LPStaking.sol\":3777:3808  stakes[stake_id].required_CREDI */\n      0x04\n      swap1\n      swap4\n      add\n      sload\n      sub(shl(0xa0, 0x01), 0x01)\n        /* \"contracts/LPStaking.sol\":3572:3594  stakes[stake_id].owner */\n      dup4\n      and\n      swap8\n        /* \"contracts/LPStaking.sol\":3609:3633  stakes[stake_id].pool_id */\n      swap2\n      swap7\n      shl(0xa0, 0x01)\n        /* \"contracts/LPStaking.sol\":3648:3673  stakes[stake_id].maturity */\n      swap1\n      swap4\n      div\n      sub(shl(0x60, 0x01), 0x01)\n      and\n      swap6\n      pop\n        /* \"contracts/LPStaking.sol\":3688:3717  stakes[stake_id].stake_amount */\n      swap2\n      swap4\n      pop\n        /* \"contracts/LPStaking.sol\":3306:3817  function getStake(uint stake_id) external validate_stake(stake_id) view ... */\n      jump\t// out\n        /* \"@openzeppelin/contracts/access/Ownable.sol\":2543:2758  function transferOwnership(address newOwner) public virtual onlyOwner {... */\n    tag_93:\n        /* \"@openzeppelin/contracts/access/Ownable.sol\":1531:1544  _checkOwner() */\n      tag_326\n        /* \"@openzeppelin/contracts/access/Ownable.sol\":1531:1542  _checkOwner */\n      tag_96\n        /* \"@openzeppelin/contracts/access/Ownable.sol\":1531:1544  _checkOwner() */\n      jump\t// in\n    tag_326:\n      sub(shl(0xa0, 0x01), 0x01)\n        /* \"@openzeppelin/contracts/access/Ownable.sol\":2627:2649  newOwner == address(0) */\n      dup2\n      and\n        /* \"@openzeppelin/contracts/access/Ownable.sol\":2623:2714  if (newOwner == address(0)) {... */\n      tag_328\n      jumpi\n        /* \"@openzeppelin/contracts/access/Ownable.sol\":2672:2703  OwnableInvalidOwner(address(0)) */\n      mload(0x40)\n      shl(0xe0, 0x1e4fbdf7)\n      dup2\n      mstore\n        /* \"@openzeppelin/contracts/access/Ownable.sol\":2700:2701  0 */\n      0x00\n        /* \"@openzeppelin/contracts/access/Ownable.sol\":2672:2703  OwnableInvalidOwner(address(0)) */\n      0x04\n      dup3\n      add\n        /* \"#utility.yul\":4811:4862   */\n      mstore\n        /* \"#utility.yul\":4784:4802   */\n      0x24\n      add\n        /* \"@openzeppelin/contracts/access/Ownable.sol\":2672:2703  OwnableInvalidOwner(address(0)) */\n      tag_100\n        /* \"#utility.yul\":4665:4868   */\n      jump\n        /* \"@openzeppelin/contracts/access/Ownable.sol\":2623:2714  if (newOwner == address(0)) {... */\n    tag_328:\n        /* \"@openzeppelin/contracts/access/Ownable.sol\":2723:2751  _transferOwnership(newOwner) */\n      tag_178\n        /* \"@openzeppelin/contracts/access/Ownable.sol\":2742:2750  newOwner */\n      dup2\n        /* \"@openzeppelin/contracts/access/Ownable.sol\":2723:2741  _transferOwnership */\n      tag_296\n        /* \"@openzeppelin/contracts/access/Ownable.sol\":2723:2751  _transferOwnership(newOwner) */\n      jump\t// in\n        /* \"@openzeppelin/contracts/access/Ownable.sol\":1796:1958  function _checkOwner() internal view virtual {... */\n    tag_96:\n        /* \"@openzeppelin/contracts/access/Ownable.sol\":1684:1691  address */\n      0x00\n        /* \"@openzeppelin/contracts/access/Ownable.sol\":1710:1716  _owner */\n      sload\n      sub(shl(0xa0, 0x01), 0x01)\n      and\n        /* \"@openzeppelin/contracts/utils/Context.sol\":735:745  msg.sender */\n      caller\n        /* \"@openzeppelin/contracts/access/Ownable.sol\":1855:1878  owner() != _msgSender() */\n      eq\n        /* \"@openzeppelin/contracts/access/Ownable.sol\":1851:1952  if (owner() != _msgSender()) {... */\n      tag_295\n      jumpi\n        /* \"@openzeppelin/contracts/access/Ownable.sol\":1901:1941  OwnableUnauthorizedAccount(_msgSender()) */\n      mload(0x40)\n      shl(0xe0, 0x118cdaa7)\n      dup2\n      mstore\n        /* \"@openzeppelin/contracts/utils/Context.sol\":735:745  msg.sender */\n      caller\n        /* \"@openzeppelin/contracts/access/Ownable.sol\":1901:1941  OwnableUnauthorizedAccount(_msgSender()) */\n      0x04\n      dup3\n      add\n        /* \"#utility.yul\":4811:4862   */\n      mstore\n        /* \"#utility.yul\":4784:4802   */\n      0x24\n      add\n        /* \"@openzeppelin/contracts/access/Ownable.sol\":1901:1941  OwnableUnauthorizedAccount(_msgSender()) */\n      tag_100\n        /* \"#utility.yul\":4665:4868   */\n      jump\n        /* \"@openzeppelin/contracts/utils/ReentrancyGuard.sol\":2575:2882  function _nonReentrantBefore() private {... */\n    tag_155:\n        /* \"@openzeppelin/contracts/utils/ReentrancyGuard.sol\":1899:1900  2 */\n      0x02\n        /* \"@openzeppelin/contracts/utils/ReentrancyGuard.sol\":2702:2709  _status */\n      sload(0x01)\n        /* \"@openzeppelin/contracts/utils/ReentrancyGuard.sol\":2702:2720  _status == ENTERED */\n      sub\n        /* \"@openzeppelin/contracts/utils/ReentrancyGuard.sol\":2698:2784  if (_status == ENTERED) {... */\n      tag_339\n      jumpi\n        /* \"@openzeppelin/contracts/utils/ReentrancyGuard.sol\":2743:2773  ReentrancyGuardReentrantCall() */\n      mload(0x40)\n      shl(0xe0, 0x3ee5aeb5)\n      dup2\n      mstore\n      0x04\n      add\n      mload(0x40)\n      dup1\n      swap2\n      sub\n      swap1\n      revert\n        /* \"@openzeppelin/contracts/utils/ReentrancyGuard.sol\":2698:2784  if (_status == ENTERED) {... */\n    tag_339:\n        /* \"@openzeppelin/contracts/utils/ReentrancyGuard.sol\":1899:1900  2 */\n      0x02\n        /* \"@openzeppelin/contracts/utils/ReentrancyGuard.sol\":2858:2865  _status */\n      0x01\n        /* \"@openzeppelin/contracts/utils/ReentrancyGuard.sol\":2858:2875  _status = ENTERED */\n      sstore\n        /* \"@openzeppelin/contracts/utils/ReentrancyGuard.sol\":2575:2882  function _nonReentrantBefore() private {... */\n      jump\t// out\n        /* \"@openzeppelin/contracts/token/ERC20/utils/SafeERC20.sol\":1219:1379  function safeTransfer(IERC20 token, address to, uint256 value) internal {... */\n    tag_176:\n        /* \"@openzeppelin/contracts/token/ERC20/utils/SafeERC20.sol\":1328:1371  abi.encodeCall(token.transfer, (to, value)) */\n      mload(0x40)\n      sub(shl(0xa0, 0x01), 0x01)\n        /* \"#utility.yul\":14134:14166   */\n      dup4\n      dup2\n      and\n        /* \"@openzeppelin/contracts/token/ERC20/utils/SafeERC20.sol\":1328:1371  abi.encodeCall(token.transfer, (to, value)) */\n      0x24\n      dup4\n      add\n        /* \"#utility.yul\":14116:14167   */\n      mstore\n        /* \"#utility.yul\":14183:14201   */\n      0x44\n      dup3\n      add\n        /* \"#utility.yul\":14176:14210   */\n      dup4\n      swap1\n      mstore\n        /* \"@openzeppelin/contracts/token/ERC20/utils/SafeERC20.sol\":1301:1372  _callOptionalReturn(token, abi.encodeCall(token.transfer, (to, value))) */\n      tag_342\n      swap2\n        /* \"@openzeppelin/contracts/token/ERC20/utils/SafeERC20.sol\":1321:1326  token */\n      dup6\n      swap2\n        /* \"@openzeppelin/contracts/token/ERC20/utils/SafeERC20.sol\":1343:1357  token.transfer */\n      dup3\n      and\n      swap1\n      0xa9059cbb\n      swap1\n        /* \"#utility.yul\":14089:14107   */\n      0x64\n      add\n        /* \"@openzeppelin/contracts/token/ERC20/utils/SafeERC20.sol\":1328:1371  abi.encodeCall(token.transfer, (to, value)) */\n    tag_343:\n      mload(0x40)\n      0x20\n      dup2\n      dup4\n      sub\n      sub\n      dup2\n      mstore\n      swap1\n      0x40\n      mstore\n      swap2\n      pop\n      0xe0\n      shl\n      0x20\n      dup3\n      add\n      dup1\n      mload\n      sub(shl(0xe0, 0x01), 0x01)\n      dup4\n      dup2\n      dup4\n      and\n      or\n      dup4\n      mstore\n      pop\n      pop\n      pop\n      pop\n        /* \"@openzeppelin/contracts/token/ERC20/utils/SafeERC20.sol\":1301:1320  _callOptionalReturn */\n      tag_345\n        /* \"@openzeppelin/contracts/token/ERC20/utils/SafeERC20.sol\":1301:1372  _callOptionalReturn(token, abi.encodeCall(token.transfer, (to, value))) */\n      jump\t// in\n    tag_342:\n        /* \"@openzeppelin/contracts/token/ERC20/utils/SafeERC20.sol\":1219:1379  function safeTransfer(IERC20 token, address to, uint256 value) internal {... */\n      pop\n      pop\n      pop\n      jump\t// out\n        /* \"@openzeppelin/contracts/token/ERC20/utils/SafeERC20.sol\":1618:1806  function safeTransferFrom(IERC20 token, address from, address to, uint256 value) internal {... */\n    tag_223:\n        /* \"@openzeppelin/contracts/token/ERC20/utils/SafeERC20.sol\":1745:1798  abi.encodeCall(token.transferFrom, (from, to, value)) */\n      mload(0x40)\n      sub(shl(0xa0, 0x01), 0x01)\n        /* \"#utility.yul\":14441:14473   */\n      dup5\n      dup2\n      and\n        /* \"@openzeppelin/contracts/token/ERC20/utils/SafeERC20.sol\":1745:1798  abi.encodeCall(token.transferFrom, (from, to, value)) */\n      0x24\n      dup4\n      add\n        /* \"#utility.yul\":14423:14474   */\n      mstore\n        /* \"#utility.yul\":14510:14542   */\n      dup4\n      dup2\n      and\n        /* \"#utility.yul\":14490:14508   */\n      0x44\n      dup4\n      add\n        /* \"#utility.yul\":14483:14543   */\n      mstore\n        /* \"#utility.yul\":14559:14577   */\n      0x64\n      dup3\n      add\n        /* \"#utility.yul\":14552:14586   */\n      dup4\n      swap1\n      mstore\n        /* \"@openzeppelin/contracts/token/ERC20/utils/SafeERC20.sol\":1718:1799  _callOptionalReturn(token, abi.encodeCall(token.transferFrom, (from, to, value))) */\n      tag_348\n      swap2\n        /* \"@openzeppelin/contracts/token/ERC20/utils/SafeERC20.sol\":1738:1743  token */\n      dup7\n      swap2\n        /* \"@openzeppelin/contracts/token/ERC20/utils/SafeERC20.sol\":1760:1778  token.transferFrom */\n      dup3\n      and\n      swap1\n      0x23b872dd\n      swap1\n        /* \"#utility.yul\":14396:14414   */\n      0x84\n      add\n        /* \"@openzeppelin/contracts/token/ERC20/utils/SafeERC20.sol\":1745:1798  abi.encodeCall(token.transferFrom, (from, to, value)) */\n      tag_343\n        /* \"#utility.yul\":14221:14592   */\n      jump\n        /* \"@openzeppelin/contracts/token/ERC20/utils/SafeERC20.sol\":1718:1799  _callOptionalReturn(token, abi.encodeCall(token.transferFrom, (from, to, value))) */\n    tag_348:\n        /* \"@openzeppelin/contracts/token/ERC20/utils/SafeERC20.sol\":1618:1806  function safeTransferFrom(IERC20 token, address from, address to, uint256 value) internal {... */\n      pop\n      pop\n      pop\n      pop\n      jump\t// out\n        /* \"contracts/oracle_utils/LPValue.sol\":855:1466  function lp_value(address lp_addr, uint lp_amount, address oracle_addr, bytes calldata token0_price_data, bytes calldata token1_price_data) internal returns (uint)... */\n    tag_225:\n        /* \"contracts/oracle_utils/LPValue.sol\":1013:1017  uint */\n      0x00\n        /* \"contracts/oracle_utils/LPValue.sol\":1035:1054  IUniswapV2Pair pair */\n      0x00\n        /* \"contracts/oracle_utils/LPValue.sol\":1072:1079  lp_addr */\n      dup9\n        /* \"contracts/oracle_utils/LPValue.sol\":1035:1080  IUniswapV2Pair pair = IUniswapV2Pair(lp_addr) */\n      swap1\n      pop\n        /* \"contracts/oracle_utils/LPValue.sol\":1092:1108  uint112 reserve0 */\n      0x00\n        /* \"contracts/oracle_utils/LPValue.sol\":1110:1126  uint112 reserve1 */\n      0x00\n        /* \"contracts/oracle_utils/LPValue.sol\":1132:1136  pair */\n      dup3\n      sub(shl(0xa0, 0x01), 0x01)\n        /* \"contracts/oracle_utils/LPValue.sol\":1132:1148  pair.getReserves */\n      and\n      0x0902f1ac\n        /* \"contracts/oracle_utils/LPValue.sol\":1132:1150  pair.getReserves() */\n      mload(0x40)\n      dup2\n      0xffffffff\n      and\n      0xe0\n      shl\n      dup2\n      mstore\n      0x04\n      add\n      0x60\n      mload(0x40)\n      dup1\n      dup4\n      sub\n      dup2\n      dup7\n      gas\n      staticcall\n      iszero\n      dup1\n      iszero\n      tag_353\n      jumpi\n      returndatacopy(0x00, 0x00, returndatasize)\n      revert(0x00, returndatasize)\n    tag_353:\n      pop\n      pop\n      pop\n      pop\n      mload(0x40)\n      returndatasize\n      not(0x1f)\n      0x1f\n      dup3\n      add\n      and\n      dup3\n      add\n      dup1\n      0x40\n      mstore\n      pop\n      dup2\n      add\n      swap1\n      tag_354\n      swap2\n      swap1\n      tag_355\n      jump\t// in\n    tag_354:\n        /* \"contracts/oracle_utils/LPValue.sol\":1091:1150  (uint112 reserve0, uint112 reserve1, ) = pair.getReserves() */\n      pop\n      swap2\n      pop\n      swap2\n      pop\n        /* \"contracts/oracle_utils/LPValue.sol\":1162:1181  uint token0_balance */\n      0x00\n        /* \"contracts/oracle_utils/LPValue.sol\":1183:1202  uint token1_balance */\n      0x00\n        /* \"contracts/oracle_utils/LPValue.sol\":1206:1271  token_balances(lp_amount, pair.totalSupply(), reserve0, reserve1) */\n      tag_356\n        /* \"contracts/oracle_utils/LPValue.sol\":1221:1230  lp_amount */\n      dup13\n        /* \"contracts/oracle_utils/LPValue.sol\":1232:1236  pair */\n      dup7\n      sub(shl(0xa0, 0x01), 0x01)\n        /* \"contracts/oracle_utils/LPValue.sol\":1232:1248  pair.totalSupply */\n      and\n      0x18160ddd\n        /* \"contracts/oracle_utils/LPValue.sol\":1232:1250  pair.totalSupply() */\n      mload(0x40)\n      dup2\n      0xffffffff\n      and\n      0xe0\n      shl\n      dup2\n      mstore\n      0x04\n      add\n      0x20\n      mload(0x40)\n      dup1\n      dup4\n      sub\n      dup2\n      dup7\n      gas\n      staticcall\n      iszero\n      dup1\n      iszero\n      tag_358\n      jumpi\n      returndatacopy(0x00, 0x00, returndatasize)\n      revert(0x00, returndatasize)\n    tag_358:\n      pop\n      pop\n      pop\n      pop\n      mload(0x40)\n      returndatasize\n      not(0x1f)\n      0x1f\n      dup3\n      add\n      and\n      dup3\n      add\n      dup1\n      0x40\n      mstore\n      pop\n      dup2\n      add\n      swap1\n      tag_359\n      swap2\n      swap1\n      tag_242\n      jump\t// in\n    tag_359:\n        /* \"contracts/oracle_utils/LPValue.sol\":1252:1260  reserve0 */\n      dup7\n        /* \"contracts/oracle_utils/LPValue.sol\":1262:1270  reserve1 */\n      dup7\n        /* \"contracts/oracle_utils/LPValue.sol\":1206:1220  token_balances */\n      tag_360\n        /* \"contracts/oracle_utils/LPValue.sol\":1206:1271  token_balances(lp_amount, pair.totalSupply(), reserve0, reserve1) */\n      jump\t// in\n    tag_356:\n        /* \"contracts/oracle_utils/LPValue.sol\":1161:1271  (uint token0_balance, uint token1_balance) = token_balances(lp_amount, pair.totalSupply(), reserve0, reserve1) */\n      swap2\n      pop\n      swap2\n      pop\n        /* \"contracts/oracle_utils/LPValue.sol\":1384:1458  token_value(pair.token1(), token1_balance, oracle_addr, token1_price_data) */\n      tag_361\n        /* \"contracts/oracle_utils/LPValue.sol\":1396:1400  pair */\n      dup6\n      sub(shl(0xa0, 0x01), 0x01)\n        /* \"contracts/oracle_utils/LPValue.sol\":1396:1407  pair.token1 */\n      and\n      0xd21220a7\n        /* \"contracts/oracle_utils/LPValue.sol\":1396:1409  pair.token1() */\n      mload(0x40)\n      dup2\n      0xffffffff\n      and\n      0xe0\n      shl\n      dup2\n      mstore\n      0x04\n      add\n      0x20\n      mload(0x40)\n      dup1\n      dup4\n      sub\n      dup2\n      dup7\n      gas\n      staticcall\n      iszero\n      dup1\n      iszero\n      tag_363\n      jumpi\n      returndatacopy(0x00, 0x00, returndatasize)\n      revert(0x00, returndatasize)\n    tag_363:\n      pop\n      pop\n      pop\n      pop\n      mload(0x40)\n      returndatasize\n      not(0x1f)\n      0x1f\n      dup3\n      add\n      and\n      dup3\n      add\n      dup1\n      0x40\n      mstore\n      pop\n      dup2\n      add\n      swap1\n      tag_364\n      swap2\n      swap1\n      tag_282\n      jump\t// in\n    tag_364:\n        /* \"contracts/oracle_utils/LPValue.sol\":1411:1425  token1_balance */\n      dup3\n        /* \"contracts/oracle_utils/LPValue.sol\":1427:1438  oracle_addr */\n      dup14\n        /* \"contracts/oracle_utils/LPValue.sol\":1440:1457  token1_price_data */\n      dup12\n      dup12\n        /* \"contracts/oracle_utils/LPValue.sol\":1384:1395  token_value */\n      tag_365\n        /* \"contracts/oracle_utils/LPValue.sol\":1384:1458  token_value(pair.token1(), token1_balance, oracle_addr, token1_price_data) */\n      jump\t// in\n    tag_361:\n        /* \"contracts/oracle_utils/LPValue.sol\":1290:1364  token_value(pair.token0(), token0_balance, oracle_addr, token0_price_data) */\n      tag_366\n        /* \"contracts/oracle_utils/LPValue.sol\":1302:1306  pair */\n      dup7\n      sub(shl(0xa0, 0x01), 0x01)\n        /* \"contracts/oracle_utils/LPValue.sol\":1302:1313  pair.token0 */\n      and\n      0x0dfe1681\n        /* \"contracts/oracle_utils/LPValue.sol\":1302:1315  pair.token0() */\n      mload(0x40)\n      dup2\n      0xffffffff\n      and\n      0xe0\n      shl\n      dup2\n      mstore\n      0x04\n      add\n      0x20\n      mload(0x40)\n      dup1\n      dup4\n      sub\n      dup2\n      dup7\n      gas\n      staticcall\n      iszero\n      dup1\n      iszero\n      tag_368\n      jumpi\n      returndatacopy(0x00, 0x00, returndatasize)\n      revert(0x00, returndatasize)\n    tag_368:\n      pop\n      pop\n      pop\n      pop\n      mload(0x40)\n      returndatasize\n      not(0x1f)\n      0x1f\n      dup3\n      add\n      and\n      dup3\n      add\n      dup1\n      0x40\n      mstore\n      pop\n      dup2\n      add\n      swap1\n      tag_369\n      swap2\n      swap1\n      tag_282\n      jump\t// in\n    tag_369:\n        /* \"contracts/oracle_utils/LPValue.sol\":1317:1331  token0_balance */\n      dup5\n        /* \"contracts/oracle_utils/LPValue.sol\":1333:1344  oracle_addr */\n      dup15\n        /* \"contracts/oracle_utils/LPValue.sol\":1346:1363  token0_price_data */\n      dup15\n      dup15\n        /* \"contracts/oracle_utils/LPValue.sol\":1290:1301  token_value */\n      tag_365\n        /* \"contracts/oracle_utils/LPValue.sol\":1290:1364  token_value(pair.token0(), token0_balance, oracle_addr, token0_price_data) */\n      jump\t// in\n    tag_366:\n        /* \"contracts/oracle_utils/LPValue.sol\":1290:1458  token_value(pair.token0(), token0_balance, oracle_addr, token0_price_data) ... */\n      tag_370\n      swap2\n      swap1\n      tag_248\n      jump\t// in\n    tag_370:\n        /* \"contracts/oracle_utils/LPValue.sol\":1282:1458  return  token_value(pair.token0(), token0_balance, oracle_addr, token0_price_data) ... */\n      swap14\n        /* \"contracts/oracle_utils/LPValue.sol\":855:1466  function lp_value(address lp_addr, uint lp_amount, address oracle_addr, bytes calldata token0_price_data, bytes calldata token1_price_data) internal returns (uint)... */\n      swap13\n      pop\n      pop\n      pop\n      pop\n      pop\n      pop\n      pop\n      pop\n      pop\n      pop\n      pop\n      pop\n      pop\n      jump\t// out\n        /* \"@openzeppelin/contracts/access/Ownable.sol\":2912:3099  function _transferOwnership(address newOwner) internal virtual {... */\n    tag_296:\n        /* \"@openzeppelin/contracts/access/Ownable.sol\":2985:3001  address oldOwner */\n      0x00\n        /* \"@openzeppelin/contracts/access/Ownable.sol\":3004:3010  _owner */\n      dup1\n      sload\n      sub(shl(0xa0, 0x01), 0x01)\n        /* \"@openzeppelin/contracts/access/Ownable.sol\":3020:3037  _owner = newOwner */\n      dup4\n      dup2\n      and\n      not(sub(shl(0xa0, 0x01), 0x01))\n      dup4\n      and\n      dup2\n      or\n      dup5\n      sstore\n        /* \"@openzeppelin/contracts/access/Ownable.sol\":3052:3092  OwnershipTransferred(oldOwner, newOwner) */\n      mload(0x40)\n        /* \"@openzeppelin/contracts/access/Ownable.sol\":3004:3010  _owner */\n      swap2\n      swap1\n      swap3\n      and\n      swap3\n      dup4\n      swap2\n        /* \"@openzeppelin/contracts/access/Ownable.sol\":3052:3092  OwnershipTransferred(oldOwner, newOwner) */\n      0x8be0079c531659141344cd1fd0a4f28419497f9722a3daafe3b4186f6b6457e0\n      swap2\n        /* \"@openzeppelin/contracts/access/Ownable.sol\":2985:3001  address oldOwner */\n      swap1\n        /* \"@openzeppelin/contracts/access/Ownable.sol\":3052:3092  OwnershipTransferred(oldOwner, newOwner) */\n      log3\n        /* \"@openzeppelin/contracts/access/Ownable.sol\":2975:3099  {... */\n      pop\n        /* \"@openzeppelin/contracts/access/Ownable.sol\":2912:3099  function _transferOwnership(address newOwner) internal virtual {... */\n      pop\n      jump\t// out\n        /* \"@openzeppelin/contracts/token/ERC20/utils/SafeERC20.sol\":8370:9090  function _callOptionalReturn(IERC20 token, bytes memory data) private {... */\n    tag_345:\n        /* \"@openzeppelin/contracts/token/ERC20/utils/SafeERC20.sol\":8450:8468  uint256 returnSize */\n      0x00\n        /* \"@openzeppelin/contracts/token/ERC20/utils/SafeERC20.sol\":8478:8497  uint256 returnValue */\n      0x00\n        /* \"@openzeppelin/contracts/token/ERC20/utils/SafeERC20.sol\":8616:8620  0x20 */\n      0x20\n        /* \"@openzeppelin/contracts/token/ERC20/utils/SafeERC20.sol\":8613:8614  0 */\n      0x00\n        /* \"@openzeppelin/contracts/token/ERC20/utils/SafeERC20.sol\":8606:8610  data */\n      dup5\n        /* \"@openzeppelin/contracts/token/ERC20/utils/SafeERC20.sol\":8600:8611  mload(data) */\n      mload\n        /* \"@openzeppelin/contracts/token/ERC20/utils/SafeERC20.sol\":8593:8597  0x20 */\n      0x20\n        /* \"@openzeppelin/contracts/token/ERC20/utils/SafeERC20.sol\":8587:8591  data */\n      dup7\n        /* \"@openzeppelin/contracts/token/ERC20/utils/SafeERC20.sol\":8583:8598  add(data, 0x20) */\n      add\n        /* \"@openzeppelin/contracts/token/ERC20/utils/SafeERC20.sol\":8580:8581  0 */\n      0x00\n        /* \"@openzeppelin/contracts/token/ERC20/utils/SafeERC20.sol\":8573:8578  token */\n      dup9\n        /* \"@openzeppelin/contracts/token/ERC20/utils/SafeERC20.sol\":8566:8571  gas() */\n      gas\n        /* \"@openzeppelin/contracts/token/ERC20/utils/SafeERC20.sol\":8561:8621  call(gas(), token, 0, add(data, 0x20), mload(data), 0, 0x20) */\n      call\n        /* \"@openzeppelin/contracts/token/ERC20/utils/SafeERC20.sol\":8673:8680  success */\n      dup1\n        /* \"@openzeppelin/contracts/token/ERC20/utils/SafeERC20.sol\":8663:8839  if iszero(success) {... */\n      tag_373\n      jumpi\n        /* \"@openzeppelin/contracts/token/ERC20/utils/SafeERC20.sol\":8717:8721  0x40 */\n      0x40\n        /* \"@openzeppelin/contracts/token/ERC20/utils/SafeERC20.sol\":8711:8722  mload(0x40) */\n      mload\n        /* \"@openzeppelin/contracts/token/ERC20/utils/SafeERC20.sol\":8762:8778  returndatasize() */\n      returndatasize\n        /* \"@openzeppelin/contracts/token/ERC20/utils/SafeERC20.sol\":8759:8760  0 */\n      0x00\n        /* \"@openzeppelin/contracts/token/ERC20/utils/SafeERC20.sol\":8754:8757  ptr */\n      dup3\n        /* \"@openzeppelin/contracts/token/ERC20/utils/SafeERC20.sol\":8739:8779  returndatacopy(ptr, 0, returndatasize()) */\n      returndatacopy\n        /* \"@openzeppelin/contracts/token/ERC20/utils/SafeERC20.sol\":8808:8824  returndatasize() */\n      returndatasize\n        /* \"@openzeppelin/contracts/token/ERC20/utils/SafeERC20.sol\":8803:8806  ptr */\n      dup2\n        /* \"@openzeppelin/contracts/token/ERC20/utils/SafeERC20.sol\":8796:8825  revert(ptr, returndatasize()) */\n      revert\n        /* \"@openzeppelin/contracts/token/ERC20/utils/SafeERC20.sol\":8663:8839  if iszero(success) {... */\n    tag_373:\n      pop\n      pop\n        /* \"@openzeppelin/contracts/token/ERC20/utils/SafeERC20.sol\":8916:8917  0 */\n      0x00\n        /* \"@openzeppelin/contracts/token/ERC20/utils/SafeERC20.sol\":8910:8918  mload(0) */\n      mload\n        /* \"@openzeppelin/contracts/token/ERC20/utils/SafeERC20.sol\":8866:8882  returndatasize() */\n      returndatasize\n      swap2\n      pop\n        /* \"@openzeppelin/contracts/token/ERC20/utils/SafeERC20.sol\":8942:8957  returnSize == 0 */\n      dup2\n      iszero\n        /* \"@openzeppelin/contracts/token/ERC20/utils/SafeERC20.sol\":8942:9010  returnSize == 0 ? address(token).code.length == 0 : returnValue != 1 */\n      tag_374\n      jumpi\n        /* \"@openzeppelin/contracts/token/ERC20/utils/SafeERC20.sol\":8994:9005  returnValue */\n      dup1\n        /* \"@openzeppelin/contracts/token/ERC20/utils/SafeERC20.sol\":9009:9010  1 */\n      0x01\n        /* \"@openzeppelin/contracts/token/ERC20/utils/SafeERC20.sol\":8994:9010  returnValue != 1 */\n      eq\n      iszero\n        /* \"@openzeppelin/contracts/token/ERC20/utils/SafeERC20.sol\":8942:9010  returnSize == 0 ? address(token).code.length == 0 : returnValue != 1 */\n      jump(tag_375)\n    tag_374:\n      sub(shl(0xa0, 0x01), 0x01)\n        /* \"@openzeppelin/contracts/token/ERC20/utils/SafeERC20.sol\":8960:8986  address(token).code.length */\n      dup5\n      and\n      extcodesize\n        /* \"@openzeppelin/contracts/token/ERC20/utils/SafeERC20.sol\":8960:8991  address(token).code.length == 0 */\n      iszero\n        /* \"@openzeppelin/contracts/token/ERC20/utils/SafeERC20.sol\":8942:9010  returnSize == 0 ? address(token).code.length == 0 : returnValue != 1 */\n    tag_375:\n        /* \"@openzeppelin/contracts/token/ERC20/utils/SafeERC20.sol\":8938:9084  if (returnSize == 0 ? address(token).code.length == 0 : returnValue != 1) {... */\n      iszero\n      tag_348\n      jumpi\n        /* \"@openzeppelin/contracts/token/ERC20/utils/SafeERC20.sol\":9033:9073  SafeERC20FailedOperation(address(token)) */\n      mload(0x40)\n      shl(0xe0, 0x5274afe7)\n      dup2\n      mstore\n      sub(shl(0xa0, 0x01), 0x01)\n        /* \"#utility.yul\":4829:4861   */\n      dup6\n      and\n        /* \"@openzeppelin/contracts/token/ERC20/utils/SafeERC20.sol\":9033:9073  SafeERC20FailedOperation(address(token)) */\n      0x04\n      dup3\n      add\n        /* \"#utility.yul\":4811:4862   */\n      mstore\n        /* \"#utility.yul\":4784:4802   */\n      0x24\n      add\n        /* \"@openzeppelin/contracts/token/ERC20/utils/SafeERC20.sol\":9033:9073  SafeERC20FailedOperation(address(token)) */\n      tag_100\n        /* \"#utility.yul\":4665:4868   */\n      jump\n        /* \"contracts/oracle_utils/LPValue.sol\":533:847  function token_balances(uint lp_balance, uint lp_supply, uint112 reserve0, uint112 reserve1) private pure returns (uint, uint)... */\n    tag_360:\n        /* \"contracts/oracle_utils/LPValue.sol\":648:652  uint */\n      0x00\n      dup1\n      dup1\n        /* \"contracts/oracle_utils/LPValue.sol\":718:727  lp_supply */\n      dup6\n        /* \"contracts/oracle_utils/LPValue.sol\":698:717  reserve0*lp_balance */\n      tag_379\n        /* \"contracts/oracle_utils/LPValue.sol\":707:717  lp_balance */\n      dup9\n      sub(shl(0x70, 0x01), 0x01)\n        /* \"contracts/oracle_utils/LPValue.sol\":698:717  reserve0*lp_balance */\n      dup9\n      and\n      tag_227\n      jump\t// in\n    tag_379:\n        /* \"contracts/oracle_utils/LPValue.sol\":698:727  reserve0*lp_balance/lp_supply */\n      tag_380\n      swap2\n      swap1\n      tag_229\n      jump\t// in\n    tag_380:\n        /* \"contracts/oracle_utils/LPValue.sol\":676:727  uint token0_balance = reserve0*lp_balance/lp_supply */\n      swap1\n      pop\n        /* \"contracts/oracle_utils/LPValue.sol\":738:757  uint token1_balance */\n      0x00\n        /* \"contracts/oracle_utils/LPValue.sol\":780:789  lp_supply */\n      dup7\n        /* \"contracts/oracle_utils/LPValue.sol\":760:779  reserve1*lp_balance */\n      tag_381\n        /* \"contracts/oracle_utils/LPValue.sol\":769:779  lp_balance */\n      dup10\n      sub(shl(0x70, 0x01), 0x01)\n        /* \"contracts/oracle_utils/LPValue.sol\":760:779  reserve1*lp_balance */\n      dup9\n      and\n      tag_227\n      jump\t// in\n    tag_381:\n        /* \"contracts/oracle_utils/LPValue.sol\":760:789  reserve1*lp_balance/lp_supply */\n      tag_382\n      swap2\n      swap1\n      tag_229\n      jump\t// in\n    tag_382:\n        /* \"contracts/oracle_utils/LPValue.sol\":808:822  token0_balance */\n      swap2\n      swap9\n      swap2\n      swap8\n      pop\n        /* \"contracts/oracle_utils/LPValue.sol\":533:847  function token_balances(uint lp_balance, uint lp_supply, uint112 reserve0, uint112 reserve1) private pure returns (uint, uint)... */\n      swap1\n      swap6\n      pop\n      pop\n      pop\n      pop\n      pop\n      pop\n      jump\t// out\n        /* \"contracts/oracle_utils/LPValue.sol\":248:525  function token_value(address token_addr, uint amount, address oracle_addr, bytes calldata price_data) private returns(uint)... */\n    tag_365:\n        /* \"contracts/oracle_utils/LPValue.sol\":366:370  uint */\n      0x00\n        /* \"contracts/oracle_utils/LPValue.sol\":406:417  oracle_addr */\n      dup4\n      sub(shl(0xa0, 0x01), 0x01)\n        /* \"contracts/oracle_utils/LPValue.sol\":395:445  IPriceData(oracle_addr).useAbsoluteCollateralValue */\n      and\n      0x6a089215\n        /* \"contracts/oracle_utils/LPValue.sol\":446:456  token_addr */\n      dup8\n        /* \"contracts/oracle_utils/LPValue.sol\":458:464  amount */\n      dup8\n        /* \"contracts/oracle_utils/LPValue.sol\":482:492  token_addr */\n      dup10\n      sub(shl(0xa0, 0x01), 0x01)\n        /* \"contracts/oracle_utils/LPValue.sol\":466:502  IERC20_Decimals(token_addr).decimals */\n      and\n      0x313ce567\n        /* \"contracts/oracle_utils/LPValue.sol\":466:504  IERC20_Decimals(token_addr).decimals() */\n      mload(0x40)\n      dup2\n      0xffffffff\n      and\n      0xe0\n      shl\n      dup2\n      mstore\n      0x04\n      add\n      0x20\n      mload(0x40)\n      dup1\n      dup4\n      sub\n      dup2\n      dup7\n      gas\n      staticcall\n      iszero\n      dup1\n      iszero\n      tag_385\n      jumpi\n      returndatacopy(0x00, 0x00, returndatasize)\n      revert(0x00, returndatasize)\n    tag_385:\n      pop\n      pop\n      pop\n      pop\n      mload(0x40)\n      returndatasize\n      not(0x1f)\n      0x1f\n      dup3\n      add\n      and\n      dup3\n      add\n      dup1\n      0x40\n      mstore\n      pop\n      dup2\n      add\n      swap1\n      tag_386\n      swap2\n      swap1\n      tag_387\n      jump\t// in\n    tag_386:\n        /* \"contracts/oracle_utils/LPValue.sol\":506:516  price_data */\n      dup8\n      dup8\n        /* \"contracts/oracle_utils/LPValue.sol\":395:517  IPriceData(oracle_addr).useAbsoluteCollateralValue(token_addr, amount, IERC20_Decimals(token_addr).decimals(), price_data) */\n      mload(0x40)\n      dup7\n      0xffffffff\n      and\n      0xe0\n      shl\n      dup2\n      mstore\n      0x04\n      add\n      tag_388\n      swap6\n      swap5\n      swap4\n      swap3\n      swap2\n      swap1\n      tag_389\n      jump\t// in\n    tag_388:\n      0x20\n      mload(0x40)\n      dup1\n      dup4\n      sub\n      dup2\n      0x00\n      dup8\n      gas\n      call\n      iszero\n      dup1\n      iszero\n      tag_391\n      jumpi\n      returndatacopy(0x00, 0x00, returndatasize)\n      revert(0x00, returndatasize)\n    tag_391:\n      pop\n      pop\n      pop\n      pop\n      mload(0x40)\n      returndatasize\n      not(0x1f)\n      0x1f\n      dup3\n      add\n      and\n      dup3\n      add\n      dup1\n      0x40\n      mstore\n      pop\n      dup2\n      add\n      swap1\n      tag_392\n      swap2\n      swap1\n      tag_242\n      jump\t// in\n    tag_392:\n        /* \"contracts/oracle_utils/LPValue.sol\":388:517  return IPriceData(oracle_addr).useAbsoluteCollateralValue(token_addr, amount, IERC20_Decimals(token_addr).decimals(), price_data) */\n      swap7\n        /* \"contracts/oracle_utils/LPValue.sol\":248:525  function token_value(address token_addr, uint amount, address oracle_addr, bytes calldata price_data) private returns(uint)... */\n      swap6\n      pop\n      pop\n      pop\n      pop\n      pop\n      pop\n      jump\t// out\n        /* \"#utility.yul\":14:240   */\n    tag_26:\n        /* \"#utility.yul\":73:79   */\n      0x00\n        /* \"#utility.yul\":126:128   */\n      0x20\n        /* \"#utility.yul\":114:123   */\n      dup3\n        /* \"#utility.yul\":105:112   */\n      dup5\n        /* \"#utility.yul\":101:124   */\n      sub\n        /* \"#utility.yul\":97:129   */\n      slt\n        /* \"#utility.yul\":94:146   */\n      iszero\n      tag_400\n      jumpi\n        /* \"#utility.yul\":142:143   */\n      0x00\n        /* \"#utility.yul\":139:140   */\n      0x00\n        /* \"#utility.yul\":132:144   */\n      revert\n        /* \"#utility.yul\":94:146   */\n    tag_400:\n      pop\n        /* \"#utility.yul\":187:210   */\n      calldataload\n      swap2\n        /* \"#utility.yul\":14:240   */\n      swap1\n      pop\n      jump\t// out\n        /* \"#utility.yul\":245:424   */\n    tag_393:\n        /* \"#utility.yul\":312:332   */\n      dup1\n      calldataload\n      sub(shl(0x60, 0x01), 0x01)\n        /* \"#utility.yul\":361:399   */\n      dup2\n      and\n        /* \"#utility.yul\":351:400   */\n      dup2\n      eq\n        /* \"#utility.yul\":341:418   */\n      tag_402\n      jumpi\n        /* \"#utility.yul\":414:415   */\n      0x00\n        /* \"#utility.yul\":411:412   */\n      0x00\n        /* \"#utility.yul\":404:416   */\n      revert\n        /* \"#utility.yul\":341:418   */\n    tag_402:\n        /* \"#utility.yul\":245:424   */\n      swap2\n      swap1\n      pop\n      jump\t// out\n        /* \"#utility.yul\":429:727   */\n    tag_30:\n        /* \"#utility.yul\":496:502   */\n      0x00\n        /* \"#utility.yul\":504:510   */\n      0x00\n        /* \"#utility.yul\":557:559   */\n      0x40\n        /* \"#utility.yul\":545:554   */\n      dup4\n        /* \"#utility.yul\":536:543   */\n      dup6\n        /* \"#utility.yul\":532:555   */\n      sub\n        /* \"#utility.yul\":528:560   */\n      slt\n        /* \"#utility.yul\":525:577   */\n      iszero\n      tag_404\n      jumpi\n        /* \"#utility.yul\":573:574   */\n      0x00\n        /* \"#utility.yul\":570:571   */\n      0x00\n        /* \"#utility.yul\":563:575   */\n      revert\n        /* \"#utility.yul\":525:577   */\n    tag_404:\n        /* \"#utility.yul\":618:641   */\n      dup3\n      calldataload\n      swap2\n      pop\n        /* \"#utility.yul\":684:721   */\n      tag_405\n        /* \"#utility.yul\":717:719   */\n      0x20\n        /* \"#utility.yul\":702:720   */\n      dup5\n      add\n        /* \"#utility.yul\":684:721   */\n      tag_393\n      jump\t// in\n    tag_405:\n        /* \"#utility.yul\":674:721   */\n      swap1\n      pop\n        /* \"#utility.yul\":429:727   */\n      swap3\n      pop\n      swap3\n      swap1\n      pop\n      jump\t// out\n        /* \"#utility.yul\":1656:2003   */\n    tag_394:\n        /* \"#utility.yul\":1707:1715   */\n      0x00\n        /* \"#utility.yul\":1717:1723   */\n      0x00\n        /* \"#utility.yul\":1771:1774   */\n      dup4\n        /* \"#utility.yul\":1764:1768   */\n      0x1f\n        /* \"#utility.yul\":1756:1762   */\n      dup5\n        /* \"#utility.yul\":1752:1769   */\n      add\n        /* \"#utility.yul\":1748:1775   */\n      slt\n        /* \"#utility.yul\":1738:1793   */\n      tag_409\n      jumpi\n        /* \"#utility.yul\":1789:1790   */\n      0x00\n        /* \"#utility.yul\":1786:1787   */\n      0x00\n        /* \"#utility.yul\":1779:1791   */\n      revert\n        /* \"#utility.yul\":1738:1793   */\n    tag_409:\n      pop\n        /* \"#utility.yul\":1812:1832   */\n      dup2\n      calldataload\n        /* \"#utility.yul\":1855:1873   */\n      0xffffffffffffffff\n        /* \"#utility.yul\":1844:1874   */\n      dup2\n      gt\n        /* \"#utility.yul\":1841:1891   */\n      iszero\n      tag_410\n      jumpi\n        /* \"#utility.yul\":1887:1888   */\n      0x00\n        /* \"#utility.yul\":1884:1885   */\n      0x00\n        /* \"#utility.yul\":1877:1889   */\n      revert\n        /* \"#utility.yul\":1841:1891   */\n    tag_410:\n        /* \"#utility.yul\":1924:1928   */\n      0x20\n        /* \"#utility.yul\":1916:1922   */\n      dup4\n        /* \"#utility.yul\":1912:1929   */\n      add\n        /* \"#utility.yul\":1900:1929   */\n      swap2\n      pop\n        /* \"#utility.yul\":1976:1979   */\n      dup4\n        /* \"#utility.yul\":1969:1973   */\n      0x20\n        /* \"#utility.yul\":1960:1966   */\n      dup3\n        /* \"#utility.yul\":1952:1958   */\n      dup6\n        /* \"#utility.yul\":1948:1967   */\n      add\n        /* \"#utility.yul\":1944:1974   */\n      add\n        /* \"#utility.yul\":1941:1980   */\n      gt\n        /* \"#utility.yul\":1938:1997   */\n      iszero\n      tag_411\n      jumpi\n        /* \"#utility.yul\":1993:1994   */\n      0x00\n        /* \"#utility.yul\":1990:1991   */\n      0x00\n        /* \"#utility.yul\":1983:1995   */\n      revert\n        /* \"#utility.yul\":1938:1997   */\n    tag_411:\n        /* \"#utility.yul\":1656:2003   */\n      swap3\n      pop\n      swap3\n      swap1\n      pop\n      jump\t// out\n        /* \"#utility.yul\":2008:2955   */\n    tag_49:\n        /* \"#utility.yul\":2116:2122   */\n      0x00\n        /* \"#utility.yul\":2124:2130   */\n      0x00\n        /* \"#utility.yul\":2132:2138   */\n      0x00\n        /* \"#utility.yul\":2140:2146   */\n      0x00\n        /* \"#utility.yul\":2148:2154   */\n      0x00\n        /* \"#utility.yul\":2156:2162   */\n      0x00\n        /* \"#utility.yul\":2209:2212   */\n      0x80\n        /* \"#utility.yul\":2197:2206   */\n      dup8\n        /* \"#utility.yul\":2188:2195   */\n      dup10\n        /* \"#utility.yul\":2184:2207   */\n      sub\n        /* \"#utility.yul\":2180:2213   */\n      slt\n        /* \"#utility.yul\":2177:2230   */\n      iszero\n      tag_413\n      jumpi\n        /* \"#utility.yul\":2226:2227   */\n      0x00\n        /* \"#utility.yul\":2223:2224   */\n      0x00\n        /* \"#utility.yul\":2216:2228   */\n      revert\n        /* \"#utility.yul\":2177:2230   */\n    tag_413:\n        /* \"#utility.yul\":2271:2294   */\n      dup7\n      calldataload\n      swap6\n      pop\n        /* \"#utility.yul\":2391:2393   */\n      0x20\n        /* \"#utility.yul\":2376:2394   */\n      dup8\n      add\n        /* \"#utility.yul\":2363:2395   */\n      calldataload\n      swap5\n      pop\n        /* \"#utility.yul\":2472:2474   */\n      0x40\n        /* \"#utility.yul\":2457:2475   */\n      dup8\n      add\n        /* \"#utility.yul\":2444:2476   */\n      calldataload\n        /* \"#utility.yul\":2499:2517   */\n      0xffffffffffffffff\n        /* \"#utility.yul\":2488:2518   */\n      dup2\n      gt\n        /* \"#utility.yul\":2485:2535   */\n      iszero\n      tag_414\n      jumpi\n        /* \"#utility.yul\":2531:2532   */\n      0x00\n        /* \"#utility.yul\":2528:2529   */\n      0x00\n        /* \"#utility.yul\":2521:2533   */\n      revert\n        /* \"#utility.yul\":2485:2535   */\n    tag_414:\n        /* \"#utility.yul\":2570:2628   */\n      tag_415\n        /* \"#utility.yul\":2620:2627   */\n      dup10\n        /* \"#utility.yul\":2611:2617   */\n      dup3\n        /* \"#utility.yul\":2600:2609   */\n      dup11\n        /* \"#utility.yul\":2596:2618   */\n      add\n        /* \"#utility.yul\":2570:2628   */\n      tag_394\n      jump\t// in\n    tag_415:\n        /* \"#utility.yul\":2647:2655   */\n      swap1\n      swap6\n      pop\n        /* \"#utility.yul\":2544:2628   */\n      swap4\n      pop\n      pop\n        /* \"#utility.yul\":2735:2737   */\n      0x60\n        /* \"#utility.yul\":2720:2738   */\n      dup8\n      add\n        /* \"#utility.yul\":2707:2739   */\n      calldataload\n        /* \"#utility.yul\":2764:2782   */\n      0xffffffffffffffff\n        /* \"#utility.yul\":2751:2783   */\n      dup2\n      gt\n        /* \"#utility.yul\":2748:2800   */\n      iszero\n      tag_416\n      jumpi\n        /* \"#utility.yul\":2796:2797   */\n      0x00\n        /* \"#utility.yul\":2793:2794   */\n      0x00\n        /* \"#utility.yul\":2786:2798   */\n      revert\n        /* \"#utility.yul\":2748:2800   */\n    tag_416:\n        /* \"#utility.yul\":2835:2895   */\n      tag_417\n        /* \"#utility.yul\":2887:2894   */\n      dup10\n        /* \"#utility.yul\":2876:2884   */\n      dup3\n        /* \"#utility.yul\":2865:2874   */\n      dup11\n        /* \"#utility.yul\":2861:2885   */\n      add\n        /* \"#utility.yul\":2835:2895   */\n      tag_394\n      jump\t// in\n    tag_417:\n        /* \"#utility.yul\":2008:2955   */\n      swap8\n      swap11\n      swap7\n      swap10\n      pop\n      swap5\n      swap8\n      pop\n      swap3\n      swap6\n        /* \"#utility.yul\":2914:2922   */\n      swap4\n      swap5\n        /* \"#utility.yul\":2008:2955   */\n      swap3\n      pop\n      pop\n      pop\n      jump\t// out\n        /* \"#utility.yul\":2960:3091   */\n    tag_395:\n      sub(shl(0xa0, 0x01), 0x01)\n        /* \"#utility.yul\":3035:3066   */\n      dup2\n      and\n        /* \"#utility.yul\":3025:3067   */\n      dup2\n      eq\n        /* \"#utility.yul\":3015:3085   */\n      tag_178\n      jumpi\n        /* \"#utility.yul\":3081:3082   */\n      0x00\n        /* \"#utility.yul\":3078:3079   */\n      0x00\n        /* \"#utility.yul\":3071:3083   */\n      revert\n        /* \"#utility.yul\":3096:3965   */\n    tag_56:\n        /* \"#utility.yul\":3206:3212   */\n      0x00\n        /* \"#utility.yul\":3214:3220   */\n      0x00\n        /* \"#utility.yul\":3222:3228   */\n      0x00\n        /* \"#utility.yul\":3230:3236   */\n      0x00\n        /* \"#utility.yul\":3238:3244   */\n      0x00\n        /* \"#utility.yul\":3246:3252   */\n      0x00\n        /* \"#utility.yul\":3254:3260   */\n      0x00\n        /* \"#utility.yul\":3307:3310   */\n      0xe0\n        /* \"#utility.yul\":3295:3304   */\n      dup9\n        /* \"#utility.yul\":3286:3293   */\n      dup11\n        /* \"#utility.yul\":3282:3305   */\n      sub\n        /* \"#utility.yul\":3278:3311   */\n      slt\n        /* \"#utility.yul\":3275:3328   */\n      iszero\n      tag_421\n      jumpi\n        /* \"#utility.yul\":3324:3325   */\n      0x00\n        /* \"#utility.yul\":3321:3322   */\n      0x00\n        /* \"#utility.yul\":3314:3326   */\n      revert\n        /* \"#utility.yul\":3275:3328   */\n    tag_421:\n        /* \"#utility.yul\":3363:3372   */\n      dup8\n        /* \"#utility.yul\":3350:3373   */\n      calldataload\n        /* \"#utility.yul\":3382:3413   */\n      tag_422\n        /* \"#utility.yul\":3407:3412   */\n      dup2\n        /* \"#utility.yul\":3382:3413   */\n      tag_395\n      jump\t// in\n    tag_422:\n        /* \"#utility.yul\":3432:3437   */\n      swap7\n      pop\n        /* \"#utility.yul\":3489:3491   */\n      0x20\n        /* \"#utility.yul\":3474:3492   */\n      dup9\n      add\n        /* \"#utility.yul\":3461:3493   */\n      calldataload\n        /* \"#utility.yul\":3502:3535   */\n      tag_423\n        /* \"#utility.yul\":3461:3493   */\n      dup2\n        /* \"#utility.yul\":3502:3535   */\n      tag_395\n      jump\t// in\n    tag_423:\n        /* \"#utility.yul\":3554:3561   */\n      swap6\n      pop\n        /* \"#utility.yul\":3613:3615   */\n      0x40\n        /* \"#utility.yul\":3598:3616   */\n      dup9\n      add\n        /* \"#utility.yul\":3585:3617   */\n      calldataload\n        /* \"#utility.yul\":3626:3659   */\n      tag_424\n        /* \"#utility.yul\":3585:3617   */\n      dup2\n        /* \"#utility.yul\":3626:3659   */\n      tag_395\n      jump\t// in\n    tag_424:\n        /* \"#utility.yul\":3678:3685   */\n      swap5\n      pop\n        /* \"#utility.yul\":3758:3760   */\n      0x60\n        /* \"#utility.yul\":3743:3761   */\n      dup9\n      add\n        /* \"#utility.yul\":3730:3762   */\n      calldataload\n      swap4\n      pop\n        /* \"#utility.yul\":3807:3845   */\n      tag_425\n        /* \"#utility.yul\":3840:3843   */\n      0x80\n        /* \"#utility.yul\":3825:3844   */\n      dup10\n      add\n        /* \"#utility.yul\":3807:3845   */\n      tag_393\n      jump\t// in\n    tag_425:\n        /* \"#utility.yul\":3797:3845   */\n      swap3\n      pop\n        /* \"#utility.yul\":3864:3902   */\n      tag_426\n        /* \"#utility.yul\":3897:3900   */\n      0xa0\n        /* \"#utility.yul\":3886:3895   */\n      dup10\n        /* \"#utility.yul\":3882:3901   */\n      add\n        /* \"#utility.yul\":3864:3902   */\n      tag_393\n      jump\t// in\n    tag_426:\n        /* \"#utility.yul\":3854:3902   */\n      swap2\n      pop\n        /* \"#utility.yul\":3921:3959   */\n      tag_427\n        /* \"#utility.yul\":3954:3957   */\n      0xc0\n        /* \"#utility.yul\":3943:3952   */\n      dup10\n        /* \"#utility.yul\":3939:3958   */\n      add\n        /* \"#utility.yul\":3921:3959   */\n      tag_393\n      jump\t// in\n    tag_427:\n        /* \"#utility.yul\":3911:3959   */\n      swap1\n      pop\n        /* \"#utility.yul\":3096:3965   */\n      swap3\n      swap6\n      swap9\n      swap2\n      swap5\n      swap8\n      pop\n      swap3\n      swap6\n      pop\n      jump\t// out\n        /* \"#utility.yul\":4152:4660   */\n    tag_64:\n        /* \"#utility.yul\":4229:4235   */\n      0x00\n        /* \"#utility.yul\":4237:4243   */\n      0x00\n        /* \"#utility.yul\":4245:4251   */\n      0x00\n        /* \"#utility.yul\":4298:4300   */\n      0x60\n        /* \"#utility.yul\":4286:4295   */\n      dup5\n        /* \"#utility.yul\":4277:4284   */\n      dup7\n        /* \"#utility.yul\":4273:4296   */\n      sub\n        /* \"#utility.yul\":4269:4301   */\n      slt\n        /* \"#utility.yul\":4266:4318   */\n      iszero\n      tag_430\n      jumpi\n        /* \"#utility.yul\":4314:4315   */\n      0x00\n        /* \"#utility.yul\":4311:4312   */\n      0x00\n        /* \"#utility.yul\":4304:4316   */\n      revert\n        /* \"#utility.yul\":4266:4318   */\n    tag_430:\n        /* \"#utility.yul\":4353:4362   */\n      dup4\n        /* \"#utility.yul\":4340:4363   */\n      calldataload\n        /* \"#utility.yul\":4372:4403   */\n      tag_431\n        /* \"#utility.yul\":4397:4402   */\n      dup2\n        /* \"#utility.yul\":4372:4403   */\n      tag_395\n      jump\t// in\n    tag_431:\n        /* \"#utility.yul\":4422:4427   */\n      swap3\n      pop\n        /* \"#utility.yul\":4479:4481   */\n      0x20\n        /* \"#utility.yul\":4464:4482   */\n      dup5\n      add\n        /* \"#utility.yul\":4451:4483   */\n      calldataload\n        /* \"#utility.yul\":4492:4525   */\n      tag_432\n        /* \"#utility.yul\":4451:4483   */\n      dup2\n        /* \"#utility.yul\":4492:4525   */\n      tag_395\n      jump\t// in\n    tag_432:\n        /* \"#utility.yul\":4152:4660   */\n      swap3\n      swap6\n        /* \"#utility.yul\":4544:4551   */\n      swap3\n      swap5\n      pop\n      pop\n      pop\n        /* \"#utility.yul\":4624:4626   */\n      0x40\n        /* \"#utility.yul\":4609:4627   */\n      swap2\n      swap1\n      swap2\n      add\n        /* \"#utility.yul\":4596:4628   */\n      calldataload\n      swap1\n        /* \"#utility.yul\":4152:4660   */\n      jump\t// out\n        /* \"#utility.yul\":4873:5120   */\n    tag_72:\n        /* \"#utility.yul\":4932:4938   */\n      0x00\n        /* \"#utility.yul\":4985:4987   */\n      0x20\n        /* \"#utility.yul\":4973:4982   */\n      dup3\n        /* \"#utility.yul\":4964:4971   */\n      dup5\n        /* \"#utility.yul\":4960:4983   */\n      sub\n        /* \"#utility.yul\":4956:4988   */\n      slt\n        /* \"#utility.yul\":4953:5005   */\n      iszero\n      tag_435\n      jumpi\n        /* \"#utility.yul\":5001:5002   */\n      0x00\n        /* \"#utility.yul\":4998:4999   */\n      0x00\n        /* \"#utility.yul\":4991:5003   */\n      revert\n        /* \"#utility.yul\":4953:5005   */\n    tag_435:\n        /* \"#utility.yul\":5040:5049   */\n      dup2\n        /* \"#utility.yul\":5027:5050   */\n      calldataload\n        /* \"#utility.yul\":5059:5090   */\n      tag_436\n        /* \"#utility.yul\":5084:5089   */\n      dup2\n        /* \"#utility.yul\":5059:5090   */\n      tag_395\n      jump\t// in\n    tag_436:\n        /* \"#utility.yul\":5109:5114   */\n      swap4\n        /* \"#utility.yul\":4873:5120   */\n      swap3\n      pop\n      pop\n      pop\n      jump\t// out\n        /* \"#utility.yul\":5125:5492   */\n    tag_77:\n        /* \"#utility.yul\":5193:5199   */\n      0x00\n        /* \"#utility.yul\":5201:5207   */\n      0x00\n        /* \"#utility.yul\":5254:5256   */\n      0x40\n        /* \"#utility.yul\":5242:5251   */\n      dup4\n        /* \"#utility.yul\":5233:5240   */\n      dup6\n        /* \"#utility.yul\":5229:5252   */\n      sub\n        /* \"#utility.yul\":5225:5257   */\n      slt\n        /* \"#utility.yul\":5222:5274   */\n      iszero\n      tag_438\n      jumpi\n        /* \"#utility.yul\":5270:5271   */\n      0x00\n        /* \"#utility.yul\":5267:5268   */\n      0x00\n        /* \"#utility.yul\":5260:5272   */\n      revert\n        /* \"#utility.yul\":5222:5274   */\n    tag_438:\n        /* \"#utility.yul\":5309:5318   */\n      dup3\n        /* \"#utility.yul\":5296:5319   */\n      calldataload\n        /* \"#utility.yul\":5328:5359   */\n      tag_439\n        /* \"#utility.yul\":5353:5358   */\n      dup2\n        /* \"#utility.yul\":5328:5359   */\n      tag_395\n      jump\t// in\n    tag_439:\n        /* \"#utility.yul\":5378:5383   */\n      swap5\n        /* \"#utility.yul\":5456:5458   */\n      0x20\n        /* \"#utility.yul\":5441:5459   */\n      swap4\n      swap1\n      swap4\n      add\n        /* \"#utility.yul\":5428:5460   */\n      calldataload\n      swap4\n      pop\n      pop\n      pop\n        /* \"#utility.yul\":5125:5492   */\n      jump\t// out\n        /* \"#utility.yul\":6322:6673   */\n    tag_101:\n        /* \"#utility.yul\":6524:6526   */\n      0x20\n        /* \"#utility.yul\":6506:6527   */\n      dup1\n      dup3\n      mstore\n        /* \"#utility.yul\":6563:6565   */\n      0x1b\n        /* \"#utility.yul\":6543:6561   */\n      swap1\n      dup3\n      add\n        /* \"#utility.yul\":6536:6566   */\n      mstore\n        /* \"#utility.yul\":6602:6631   */\n      0x4c505374616b696e673a496e76616c6964205374616b65204944210000000000\n        /* \"#utility.yul\":6597:6599   */\n      0x40\n        /* \"#utility.yul\":6582:6600   */\n      dup3\n      add\n        /* \"#utility.yul\":6575:6632   */\n      mstore\n        /* \"#utility.yul\":6664:6666   */\n      0x60\n        /* \"#utility.yul\":6649:6667   */\n      add\n      swap1\n        /* \"#utility.yul\":6322:6673   */\n      jump\t// out\n        /* \"#utility.yul\":6678:6805   */\n    tag_396:\n        /* \"#utility.yul\":6739:6749   */\n      0x4e487b71\n        /* \"#utility.yul\":6734:6737   */\n      0xe0\n        /* \"#utility.yul\":6730:6750   */\n      shl\n        /* \"#utility.yul\":6727:6728   */\n      0x00\n        /* \"#utility.yul\":6720:6751   */\n      mstore\n        /* \"#utility.yul\":6770:6774   */\n      0x11\n        /* \"#utility.yul\":6767:6768   */\n      0x04\n        /* \"#utility.yul\":6760:6775   */\n      mstore\n        /* \"#utility.yul\":6794:6798   */\n      0x24\n        /* \"#utility.yul\":6791:6792   */\n      0x00\n        /* \"#utility.yul\":6784:6799   */\n      revert\n        /* \"#utility.yul\":6810:7025   */\n    tag_104:\n      sub(shl(0x60, 0x01), 0x01)\n        /* \"#utility.yul\":6878:6912   */\n      dup2\n      dup2\n      and\n        /* \"#utility.yul\":6914:6948   */\n      dup4\n      dup3\n      and\n        /* \"#utility.yul\":6874:6949   */\n      add\n      swap1\n        /* \"#utility.yul\":6961:6996   */\n      dup2\n      gt\n        /* \"#utility.yul\":6958:7019   */\n      iszero\n      tag_446\n      jumpi\n        /* \"#utility.yul\":6999:7017   */\n      tag_446\n      tag_396\n      jump\t// in\n    tag_446:\n        /* \"#utility.yul\":6810:7025   */\n      swap3\n      swap2\n      pop\n      pop\n      jump\t// out\n        /* \"#utility.yul\":7030:7157   */\n    tag_110:\n        /* \"#utility.yul\":7091:7101   */\n      0x4e487b71\n        /* \"#utility.yul\":7086:7089   */\n      0xe0\n        /* \"#utility.yul\":7082:7102   */\n      shl\n        /* \"#utility.yul\":7079:7080   */\n      0x00\n        /* \"#utility.yul\":7072:7103   */\n      mstore\n        /* \"#utility.yul\":7122:7126   */\n      0x32\n        /* \"#utility.yul\":7119:7120   */\n      0x04\n        /* \"#utility.yul\":7112:7127   */\n      mstore\n        /* \"#utility.yul\":7146:7150   */\n      0x24\n        /* \"#utility.yul\":7143:7144   */\n      0x00\n        /* \"#utility.yul\":7136:7151   */\n      revert\n        /* \"#utility.yul\":7162:7290   */\n    tag_113:\n        /* \"#utility.yul\":7229:7238   */\n      dup2\n      dup2\n      sub\n        /* \"#utility.yul\":7250:7261   */\n      dup2\n      dup2\n      gt\n        /* \"#utility.yul\":7247:7284   */\n      iszero\n      tag_446\n      jumpi\n        /* \"#utility.yul\":7264:7282   */\n      tag_446\n      tag_396\n      jump\t// in\n        /* \"#utility.yul\":7295:7645   */\n    tag_121:\n        /* \"#utility.yul\":7497:7499   */\n      0x20\n        /* \"#utility.yul\":7479:7500   */\n      dup1\n      dup3\n      mstore\n        /* \"#utility.yul\":7536:7538   */\n      0x1a\n        /* \"#utility.yul\":7516:7534   */\n      swap1\n      dup3\n      add\n        /* \"#utility.yul\":7509:7539   */\n      mstore\n        /* \"#utility.yul\":7575:7603   */\n      0x4c505374616b696e673a496e76616c696420506f6f6c20494421000000000000\n        /* \"#utility.yul\":7570:7572   */\n      0x40\n        /* \"#utility.yul\":7555:7573   */\n      dup3\n      add\n        /* \"#utility.yul\":7548:7604   */\n      mstore\n        /* \"#utility.yul\":7636:7638   */\n      0x60\n        /* \"#utility.yul\":7621:7639   */\n      add\n      swap1\n        /* \"#utility.yul\":7295:7645   */\n      jump\t// out\n        /* \"#utility.yul\":8005:8402   */\n    tag_165:\n        /* \"#utility.yul\":8207:8209   */\n      0x20\n        /* \"#utility.yul\":8189:8210   */\n      dup1\n      dup3\n      mstore\n        /* \"#utility.yul\":8246:8248   */\n      0x21\n        /* \"#utility.yul\":8226:8244   */\n      swap1\n      dup3\n      add\n        /* \"#utility.yul\":8219:8249   */\n      mstore\n        /* \"#utility.yul\":8285:8319   */\n      0x4c505374616b696e673a43616c6c6572206973206e6f7420746865206f776e65\n        /* \"#utility.yul\":8280:8282   */\n      0x40\n        /* \"#utility.yul\":8265:8283   */\n      dup3\n      add\n        /* \"#utility.yul\":8258:8320   */\n      mstore\n      shl(0xf9, 0x39)\n        /* \"#utility.yul\":8351:8353   */\n      0x60\n        /* \"#utility.yul\":8336:8354   */\n      dup3\n      add\n        /* \"#utility.yul\":8329:8360   */\n      mstore\n        /* \"#utility.yul\":8392:8395   */\n      0x80\n        /* \"#utility.yul\":8377:8396   */\n      add\n      swap1\n        /* \"#utility.yul\":8005:8402   */\n      jump\t// out\n        /* \"#utility.yul\":8407:8815   */\n    tag_172:\n        /* \"#utility.yul\":8609:8611   */\n      0x20\n        /* \"#utility.yul\":8591:8612   */\n      dup1\n      dup3\n      mstore\n        /* \"#utility.yul\":8648:8650   */\n      0x2c\n        /* \"#utility.yul\":8628:8646   */\n      swap1\n      dup3\n      add\n        /* \"#utility.yul\":8621:8651   */\n      mstore\n        /* \"#utility.yul\":8687:8721   */\n      0x4c505374616b696e673a4561726c79205769746864726177616c206973206e6f\n        /* \"#utility.yul\":8682:8684   */\n      0x40\n        /* \"#utility.yul\":8667:8685   */\n      dup3\n      add\n        /* \"#utility.yul\":8660:8722   */\n      mstore\n      shl(0xa0, 0x74207065726d697474656421)\n        /* \"#utility.yul\":8753:8755   */\n      0x60\n        /* \"#utility.yul\":8738:8756   */\n      dup3\n      add\n        /* \"#utility.yul\":8731:8773   */\n      mstore\n        /* \"#utility.yul\":8805:8808   */\n      0x80\n        /* \"#utility.yul\":8790:8809   */\n      add\n      swap1\n        /* \"#utility.yul\":8407:8815   */\n      jump\t// out\n        /* \"#utility.yul\":9529:9697   */\n    tag_227:\n        /* \"#utility.yul\":9602:9611   */\n      dup1\n      dup3\n      mul\n        /* \"#utility.yul\":9633:9642   */\n      dup2\n      iszero\n        /* \"#utility.yul\":9650:9665   */\n      dup3\n      dup3\n      div\n        /* \"#utility.yul\":9644:9666   */\n      dup5\n      eq\n        /* \"#utility.yul\":9630:9667   */\n      or\n        /* \"#utility.yul\":9620:9691   */\n      tag_446\n      jumpi\n        /* \"#utility.yul\":9671:9689   */\n      tag_446\n      tag_396\n      jump\t// in\n        /* \"#utility.yul\":9702:9919   */\n    tag_229:\n        /* \"#utility.yul\":9742:9743   */\n      0x00\n        /* \"#utility.yul\":9768:9769   */\n      dup3\n        /* \"#utility.yul\":9758:9890   */\n      tag_461\n      jumpi\n        /* \"#utility.yul\":9812:9822   */\n      0x4e487b71\n        /* \"#utility.yul\":9807:9810   */\n      0xe0\n        /* \"#utility.yul\":9803:9823   */\n      shl\n        /* \"#utility.yul\":9800:9801   */\n      0x00\n        /* \"#utility.yul\":9793:9824   */\n      mstore\n        /* \"#utility.yul\":9847:9851   */\n      0x12\n        /* \"#utility.yul\":9844:9845   */\n      0x04\n        /* \"#utility.yul\":9837:9852   */\n      mstore\n        /* \"#utility.yul\":9875:9879   */\n      0x24\n        /* \"#utility.yul\":9872:9873   */\n      0x00\n        /* \"#utility.yul\":9865:9880   */\n      revert\n        /* \"#utility.yul\":9758:9890   */\n    tag_461:\n      pop\n        /* \"#utility.yul\":9904:9913   */\n      div\n      swap1\n        /* \"#utility.yul\":9702:9919   */\n      jump\t// out\n        /* \"#utility.yul\":9924:10201   */\n    tag_237:\n        /* \"#utility.yul\":9991:9997   */\n      0x00\n        /* \"#utility.yul\":10044:10046   */\n      0x20\n        /* \"#utility.yul\":10032:10041   */\n      dup3\n        /* \"#utility.yul\":10023:10030   */\n      dup5\n        /* \"#utility.yul\":10019:10042   */\n      sub\n        /* \"#utility.yul\":10015:10047   */\n      slt\n        /* \"#utility.yul\":10012:10064   */\n      iszero\n      tag_463\n      jumpi\n        /* \"#utility.yul\":10060:10061   */\n      0x00\n        /* \"#utility.yul\":10057:10058   */\n      0x00\n        /* \"#utility.yul\":10050:10062   */\n      revert\n        /* \"#utility.yul\":10012:10064   */\n    tag_463:\n        /* \"#utility.yul\":10092:10101   */\n      dup2\n        /* \"#utility.yul\":10086:10102   */\n      mload\n        /* \"#utility.yul\":10145:10150   */\n      dup1\n        /* \"#utility.yul\":10138:10151   */\n      iszero\n        /* \"#utility.yul\":10131:10152   */\n      iszero\n        /* \"#utility.yul\":10124:10129   */\n      dup2\n        /* \"#utility.yul\":10121:10153   */\n      eq\n        /* \"#utility.yul\":10111:10171   */\n      tag_436\n      jumpi\n        /* \"#utility.yul\":10167:10168   */\n      0x00\n        /* \"#utility.yul\":10164:10165   */\n      0x00\n        /* \"#utility.yul\":10157:10169   */\n      revert\n        /* \"#utility.yul\":10206:10390   */\n    tag_242:\n        /* \"#utility.yul\":10276:10282   */\n      0x00\n        /* \"#utility.yul\":10329:10331   */\n      0x20\n        /* \"#utility.yul\":10317:10326   */\n      dup3\n        /* \"#utility.yul\":10308:10315   */\n      dup5\n        /* \"#utility.yul\":10304:10327   */\n      sub\n        /* \"#utility.yul\":10300:10332   */\n      slt\n        /* \"#utility.yul\":10297:10349   */\n      iszero\n      tag_466\n      jumpi\n        /* \"#utility.yul\":10345:10346   */\n      0x00\n        /* \"#utility.yul\":10342:10343   */\n      0x00\n        /* \"#utility.yul\":10335:10347   */\n      revert\n        /* \"#utility.yul\":10297:10349   */\n    tag_466:\n      pop\n        /* \"#utility.yul\":10368:10384   */\n      mload\n      swap2\n        /* \"#utility.yul\":10206:10390   */\n      swap1\n      pop\n      jump\t// out\n        /* \"#utility.yul\":10395:10520   */\n    tag_248:\n        /* \"#utility.yul\":10460:10469   */\n      dup1\n      dup3\n      add\n        /* \"#utility.yul\":10481:10491   */\n      dup1\n      dup3\n      gt\n        /* \"#utility.yul\":10478:10514   */\n      iszero\n      tag_446\n      jumpi\n        /* \"#utility.yul\":10494:10512   */\n      tag_446\n      tag_396\n      jump\t// in\n        /* \"#utility.yul\":11024:11159   */\n    tag_257:\n        /* \"#utility.yul\":11063:11066   */\n      0x00\n        /* \"#utility.yul\":11084:11101   */\n      0x01\n      dup3\n      add\n        /* \"#utility.yul\":11081:11124   */\n      tag_473\n      jumpi\n        /* \"#utility.yul\":11104:11122   */\n      tag_473\n      tag_396\n      jump\t// in\n    tag_473:\n      pop\n        /* \"#utility.yul\":11151:11152   */\n      0x01\n        /* \"#utility.yul\":11140:11153   */\n      add\n      swap1\n        /* \"#utility.yul\":11024:11159   */\n      jump\t// out\n        /* \"#utility.yul\":11935:12186   */\n    tag_282:\n        /* \"#utility.yul\":12005:12011   */\n      0x00\n        /* \"#utility.yul\":12058:12060   */\n      0x20\n        /* \"#utility.yul\":12046:12055   */\n      dup3\n        /* \"#utility.yul\":12037:12044   */\n      dup5\n        /* \"#utility.yul\":12033:12056   */\n      sub\n        /* \"#utility.yul\":12029:12061   */\n      slt\n        /* \"#utility.yul\":12026:12078   */\n      iszero\n      tag_477\n      jumpi\n        /* \"#utility.yul\":12074:12075   */\n      0x00\n        /* \"#utility.yul\":12071:12072   */\n      0x00\n        /* \"#utility.yul\":12064:12076   */\n      revert\n        /* \"#utility.yul\":12026:12078   */\n    tag_477:\n        /* \"#utility.yul\":12106:12115   */\n      dup2\n        /* \"#utility.yul\":12100:12116   */\n      mload\n        /* \"#utility.yul\":12125:12156   */\n      tag_436\n        /* \"#utility.yul\":12150:12155   */\n      dup2\n        /* \"#utility.yul\":12125:12156   */\n      tag_395\n      jump\t// in\n        /* \"#utility.yul\":14597:14785   */\n    tag_397:\n        /* \"#utility.yul\":14676:14689   */\n      dup1\n      mload\n      sub(shl(0x70, 0x01), 0x01)\n        /* \"#utility.yul\":14718:14760   */\n      dup2\n      and\n        /* \"#utility.yul\":14708:14761   */\n      dup2\n      eq\n        /* \"#utility.yul\":14698:14779   */\n      tag_402\n      jumpi\n        /* \"#utility.yul\":14775:14776   */\n      0x00\n        /* \"#utility.yul\":14772:14773   */\n      0x00\n        /* \"#utility.yul\":14765:14777   */\n      revert\n        /* \"#utility.yul\":14790:15240   */\n    tag_355:\n        /* \"#utility.yul\":14877:14883   */\n      0x00\n        /* \"#utility.yul\":14885:14891   */\n      0x00\n        /* \"#utility.yul\":14893:14899   */\n      0x00\n        /* \"#utility.yul\":14946:14948   */\n      0x60\n        /* \"#utility.yul\":14934:14943   */\n      dup5\n        /* \"#utility.yul\":14925:14932   */\n      dup7\n        /* \"#utility.yul\":14921:14944   */\n      sub\n        /* \"#utility.yul\":14917:14949   */\n      slt\n        /* \"#utility.yul\":14914:14966   */\n      iszero\n      tag_488\n      jumpi\n        /* \"#utility.yul\":14962:14963   */\n      0x00\n        /* \"#utility.yul\":14959:14960   */\n      0x00\n        /* \"#utility.yul\":14952:14964   */\n      revert\n        /* \"#utility.yul\":14914:14966   */\n    tag_488:\n        /* \"#utility.yul\":14985:15025   */\n      tag_489\n        /* \"#utility.yul\":15015:15024   */\n      dup5\n        /* \"#utility.yul\":14985:15025   */\n      tag_397\n      jump\t// in\n    tag_489:\n        /* \"#utility.yul\":14975:15025   */\n      swap3\n      pop\n        /* \"#utility.yul\":15044:15093   */\n      tag_490\n        /* \"#utility.yul\":15089:15091   */\n      0x20\n        /* \"#utility.yul\":15078:15087   */\n      dup6\n        /* \"#utility.yul\":15074:15092   */\n      add\n        /* \"#utility.yul\":15044:15093   */\n      tag_397\n      jump\t// in\n    tag_490:\n        /* \"#utility.yul\":15034:15093   */\n      swap2\n      pop\n        /* \"#utility.yul\":15136:15138   */\n      0x40\n        /* \"#utility.yul\":15125:15134   */\n      dup5\n        /* \"#utility.yul\":15121:15139   */\n      add\n        /* \"#utility.yul\":15115:15140   */\n      mload\n        /* \"#utility.yul\":15180:15190   */\n      0xffffffff\n        /* \"#utility.yul\":15173:15178   */\n      dup2\n        /* \"#utility.yul\":15169:15191   */\n      and\n        /* \"#utility.yul\":15162:15167   */\n      dup2\n        /* \"#utility.yul\":15159:15192   */\n      eq\n        /* \"#utility.yul\":15149:15210   */\n      tag_491\n      jumpi\n        /* \"#utility.yul\":15206:15207   */\n      0x00\n        /* \"#utility.yul\":15203:15204   */\n      0x00\n        /* \"#utility.yul\":15196:15208   */\n      revert\n        /* \"#utility.yul\":15149:15210   */\n    tag_491:\n        /* \"#utility.yul\":15229:15234   */\n      dup1\n        /* \"#utility.yul\":15219:15234   */\n      swap2\n      pop\n      pop\n        /* \"#utility.yul\":14790:15240   */\n      swap3\n      pop\n      swap3\n      pop\n      swap3\n      jump\t// out\n        /* \"#utility.yul\":15245:15518   */\n    tag_387:\n        /* \"#utility.yul\":15313:15319   */\n      0x00\n        /* \"#utility.yul\":15366:15368   */\n      0x20\n        /* \"#utility.yul\":15354:15363   */\n      dup3\n        /* \"#utility.yul\":15345:15352   */\n      dup5\n        /* \"#utility.yul\":15341:15364   */\n      sub\n        /* \"#utility.yul\":15337:15369   */\n      slt\n        /* \"#utility.yul\":15334:15386   */\n      iszero\n      tag_493\n      jumpi\n        /* \"#utility.yul\":15382:15383   */\n      0x00\n        /* \"#utility.yul\":15379:15380   */\n      0x00\n        /* \"#utility.yul\":15372:15384   */\n      revert\n        /* \"#utility.yul\":15334:15386   */\n    tag_493:\n        /* \"#utility.yul\":15414:15423   */\n      dup2\n        /* \"#utility.yul\":15408:15424   */\n      mload\n        /* \"#utility.yul\":15464:15468   */\n      0xff\n        /* \"#utility.yul\":15457:15462   */\n      dup2\n        /* \"#utility.yul\":15453:15469   */\n      and\n        /* \"#utility.yul\":15446:15451   */\n      dup2\n        /* \"#utility.yul\":15443:15470   */\n      eq\n        /* \"#utility.yul\":15433:15488   */\n      tag_436\n      jumpi\n        /* \"#utility.yul\":15484:15485   */\n      0x00\n        /* \"#utility.yul\":15481:15482   */\n      0x00\n        /* \"#utility.yul\":15474:15486   */\n      revert\n        /* \"#utility.yul\":15523:16162   */\n    tag_389:\n      sub(shl(0xa0, 0x01), 0x01)\n        /* \"#utility.yul\":15760:15792   */\n      dup7\n      and\n        /* \"#utility.yul\":15742:15793   */\n      dup2\n      mstore\n        /* \"#utility.yul\":15824:15826   */\n      0x20\n        /* \"#utility.yul\":15809:15827   */\n      dup2\n      add\n        /* \"#utility.yul\":15802:15836   */\n      dup6\n      swap1\n      mstore\n        /* \"#utility.yul\":15884:15888   */\n      0xff\n        /* \"#utility.yul\":15872:15889   */\n      dup5\n      and\n        /* \"#utility.yul\":15867:15869   */\n      0x40\n        /* \"#utility.yul\":15852:15870   */\n      dup3\n      add\n        /* \"#utility.yul\":15845:15890   */\n      mstore\n        /* \"#utility.yul\":15926:15929   */\n      0x80\n        /* \"#utility.yul\":15921:15923   */\n      0x60\n        /* \"#utility.yul\":15906:15924   */\n      dup3\n      add\n        /* \"#utility.yul\":15899:15930   */\n      dup2\n      swap1\n      mstore\n        /* \"#utility.yul\":15946:15965   */\n      dup2\n      add\n        /* \"#utility.yul\":15939:15974   */\n      dup3\n      swap1\n      mstore\n        /* \"#utility.yul\":15967:15973   */\n      dup2\n        /* \"#utility.yul\":16017:16023   */\n      dup4\n        /* \"#utility.yul\":15780:15783   */\n      0xa0\n        /* \"#utility.yul\":15996:16015   */\n      dup4\n      add\n        /* \"#utility.yul\":15983:16032   */\n      calldatacopy\n        /* \"#utility.yul\":16082:16083   */\n      0x00\n        /* \"#utility.yul\":16052:16074   */\n      dup2\n      dup4\n      add\n        /* \"#utility.yul\":16076:16079   */\n      0xa0\n        /* \"#utility.yul\":16048:16080   */\n      swap1\n      dup2\n      add\n        /* \"#utility.yul\":16041:16084   */\n      swap2\n      swap1\n      swap2\n      mstore\n        /* \"#utility.yul\":16145:16147   */\n      0x1f\n        /* \"#utility.yul\":16124:16139   */\n      swap1\n      swap3\n      add\n      not(0x1f)\n        /* \"#utility.yul\":16120:16149   */\n      and\n        /* \"#utility.yul\":16105:16150   */\n      add\n        /* \"#utility.yul\":16101:16156   */\n      add\n      swap5\n        /* \"#utility.yul\":15523:16162   */\n      swap4\n      pop\n      pop\n      pop\n      pop\n      jump\t// out\n\n    auxdata: 0xa26469706673582212208ceed32faac318be5ad34e413597a7a4c3a56fdb997326ee0affb187024896b064736f6c634300081e0033\n}\n",
				"bytecode": {
					"linkReferences": {},
					"object": "60a06040526001600455348015610014575f5ffd5b50604051612264380380612264833981016040819052610033916101b3565b338061005857604051631e4fbdf760e01b81525f600482015260240160405180910390fd5b61006181610164565b5060018080556001600160a01b0391821660809081526040805160c0810182525f808252602082018181529282018181526060830182815294830182815260a0840183815260028054988901815590935292519351938716600160a01b6001600160601b039586168102919091177f405787fa12a823e0f2b7631cc41b3ba8828b3321ca811111fa75cd3aa3bb5ace600390980297880155905194519487169484168102949094177f405787fa12a823e0f2b7631cc41b3ba8828b3321ca811111fa75cd3aa3bb5acf860155905190519416931602919091177f405787fa12a823e0f2b7631cc41b3ba8828b3321ca811111fa75cd3aa3bb5ad0909101556101e0565b5f80546001600160a01b038381166001600160a01b0319831681178455604051919092169283917f8be0079c531659141344cd1fd0a4f28419497f9722a3daafe3b4186f6b6457e09190a35050565b5f602082840312156101c3575f5ffd5b81516001600160a01b03811681146101d9575f5ffd5b9392505050565b60805161205e6102065f395f81816102ad01528181610c0c0152610ca7015261205e5ff3fe608060405234801561000f575f5ffd5b5060043610610110575f3560e01c8063715018a61161009e578063a9fc507b1161006e578063a9fc507b1461028d578063b4ac6860146102a0578063cc5c56dc146102a8578063ce325bf8146102cf578063f2fde38b14610327575f5ffd5b8063715018a61461022f57806374ee6b62146102375780638da5cb5b1461024a578063954821b61461026e575f5ffd5b806325d5971f116100e457806325d5971f146101c2578063379607f5146101d55780633b5dd047146101e85780634f44daa9146101fb57806369ca431b1461020e575f5ffd5b806221578414610114578063039ba6b714610129578063068bcd8d1461013c57806321241dfe146101a0575b5f5ffd5b610127610122366004611b07565b61033a565b005b610127610137366004611b39565b610460565b61014f61014a366004611b07565b610573565b604080516001600160a01b039788168152958716602087015293909516928401929092526001600160601b039081166060840152908116608083015290911660a082015260c0015b60405180910390f35b6101aa6234bc0081565b6040516001600160601b039091168152602001610197565b6101276101d0366004611b07565b6106f7565b6101276101e3366004611b07565b61089e565b6101276101f6366004611ba8565b610ab0565b610127610209366004611b39565b610f55565b61022161021c366004611c3e565b61105f565b604051908152602001610197565b610127611373565b610127610245366004611cbe565b611386565b5f546001600160a01b03165b6040516001600160a01b039091168152602001610197565b61022161027c366004611cfc565b60056020525f908152604090205481565b61012761029b366004611d1e565b6114c2565b610221611581565b6102567f000000000000000000000000000000000000000000000000000000000000000081565b6102e26102dd366004611b07565b611597565b604080516001600160a01b03909716875260208701959095526001600160601b03909316938501939093526060840152608083019190915260a082015260c001610197565b610127610335366004611cfc565b61161a565b610342611654565b805f81118015610353575060045481105b6103785760405162461bcd60e51b815260040161036f90611d48565b60405180910390fd5b5f82815260036020526040902060018101546103a8906234bc0090600160a01b90046001600160601b0316611d93565b6001600160601b0316426001600160601b031610156103c5575f5ffd5b5f6002825f0154815481106103dc576103dc611db8565b5f918252602080832060038681015493020160018101546001600160a01b03168452600590915260408320805491945091929061041a908490611dcc565b90915550505f600383015581546040518581527f085cf309fcbacaf1ee2b300f62e8586a0661e41c7f318003e9aab792be89980b9060200160405180910390a250505050565b610468611654565b815f81118015610479575060025481105b6104955760405162461bcd60e51b815260040161036f90611ddf565b620186a0826001600160601b031611156104f15760405162461bcd60e51b815260206004820152601a60248201527f4c505374616b696e673a6d617820617079206973203130303025000000000000604482015260640161036f565b816002848154811061050557610505611db8565b5f9182526020918290206003919091020160010180546001600160a01b0316600160a01b6001600160601b0394851602179055604051918416825284917f09a2c3c653a42f5c64bbfdf07224d8e0d6526460f44e520ac49bae23804e18e891015b60405180910390a2505050565b5f5f5f5f5f5f865f8111801561058a575060025481105b6105a65760405162461bcd60e51b815260040161036f90611ddf565b600288815481106105b9576105b9611db8565b5f918252602090912060039091020154600280546001600160a01b03909216918a9081106105e9576105e9611db8565b905f5260205f2090600302016001015f9054906101000a90046001600160a01b031660028a8154811061061e5761061e611db8565b905f5260205f2090600302016002015f9054906101000a90046001600160a01b031660028b8154811061065357610653611db8565b905f5260205f2090600302015f0160149054906101000a90046001600160601b031660028c8154811061068857610688611db8565b905f5260205f20906003020160010160149054906101000a90046001600160601b031660028d815481106106be576106be611db8565b905f5260205f20906003020160020160149054906101000a90046001600160601b03169650965096509650965096505091939550919395565b6106ff611680565b805f81118015610710575060045481105b61072c5760405162461bcd60e51b815260040161036f90611d48565b5f82815260036020526040902060018101546001600160a01b031633146107655760405162461bcd60e51b815260040161036f90611e16565b5f6002825f01548154811061077c5761077c611db8565b5f9182526020918290206040805160c081018252600390930290910180546001600160a01b0380821685526001600160601b03600160a01b92839004811696860196909652600180840154808316958701959095529382900486166060860152600290920154918216608085015290819004841660a0840152908501549193509004166108064290565b6001600160601b0316101561082d5760405162461bcd60e51b815260040161036f90611e57565b60028201541561088f5761085233600284015483516001600160a01b031691906116aa565b5f600283015581546040518581527f3db0ca701d7c1106534c6003e5d65dae65a9cb891ad5bbb9be39c091df79d87e906020015b60405180910390a25b50505061089b60018055565b50565b6108a6611680565b805f811180156108b7575060045481105b6108d35760405162461bcd60e51b815260040161036f90611d48565b5f82815260036020526040902060018101546001600160a01b0316331461090c5760405162461bcd60e51b815260040161036f90611e16565b5f6002825f01548154811061092357610923611db8565b5f918252602090912060018401546003909202019150600160a01b90046001600160601b0316426001600160601b031610156109715760405162461bcd60e51b815260040161036f90611e57565b5f8260030154116109c45760405162461bcd60e51b815260206004820152601a60248201527f4c505374616b696e673a4e6f7468696e6720746f20636c61696d000000000000604482015260640161036f565b6002820154156109f0576109e933600284015483546001600160a01b031691906116aa565b5f60028301555b610a0e33600384015460018401546001600160a01b031691906116aa565b600382015460018201546001600160a01b03165f9081526005602052604081208054909190610a3e908490611dcc565b90915550505f600383015581546040518581527f3db0ca701d7c1106534c6003e5d65dae65a9cb891ad5bbb9be39c091df79d87e9060200160405180910390a281546040518581527f4d7828f2aa36030cc63cdea79ec646099aa121d019f1a90edb55078939fb84ea90602001610886565b610ab8611680565b855f81118015610ac9575060025481105b610ae55760405162461bcd60e51b815260040161036f90611ddf565b5f60028881548110610af957610af9611db8565b905f5260205f20906003020190505f8160010160149054906101000a90046001600160601b03166001600160601b031611610b765760405162461bcd60e51b815260206004820152601960248201527f4c505374616b696e673a506f6f6c206973207061757365642100000000000000604482015260640161036f565b610b8d3382546001600160a01b031690308a61170e565b805460028201545f91610bb2916001600160a01b03918216918b91168a8a8a8a61174d565b825460018401549192505f916301e13380916001600160601b03600160a01b9182900481169261271092610be99291041686611ea3565b610bf39190611eba565b610bfd9190611ea3565b610c079190611eba565b90505f7f00000000000000000000000000000000000000000000000000000000000000006001600160a01b0316638ef1e259336040516001600160e01b031960e084901b1681526001600160a01b039091166004820152602401602060405180830381865afa158015610c7c573d5f5f3e3d5ffd5b505050506040513d601f19601f82011682018060405250810190610ca09190611ed9565b15610d86577f00000000000000000000000000000000000000000000000000000000000000006001600160a01b0316639a3bfdf56040518163ffffffff1660e01b8152600401602060405180830381865afa158015610d01573d5f5f3e3d5ffd5b505050506040513d601f19601f82011682018060405250810190610d259190611ef8565b845460028601549192506301e13380916001600160601b03600160a01b9283900481169261271092610d5b929190041687611ea3565b610d659190611eba565b610d6f9190611ea3565b610d799190611eba565b610d839083611f0f565b91505b83545f90600160a01b90046001600160601b031642610da59190611d93565b90506040518060c001604052808d8152602001610dbf3390565b6001600160a01b03168152602001826001600160601b031681526020018c81526020018481526020018381525060035f60045481526020019081526020015f205f820151815f01556020820151816001015f6101000a8154816001600160a01b0302191690836001600160a01b0316021790555060408201518160010160146101000a8154816001600160601b0302191690836001600160601b03160217905550606082015181600201556080820151816003015560a082015181600401559050508260055f876001015f9054906101000a90046001600160a01b03166001600160a01b03166001600160a01b031681526020019081526020015f205f828254610ec99190611f0f565b9091555050600454604080519182526001600160601b03831660208301528181018d90526060820185905260808201849052518d9133917fc48192cf3609b4932a8b10a6f09fe1cac38610fdef14eacc15b35c454da0b4c59181900360a00190a360048054905f610f3983611f22565b9190505550505050505050610f4d60018055565b505050505050565b610f5d611654565b815f81118015610f6e575060025481105b610f8a5760405162461bcd60e51b815260040161036f90611ddf565b620186a0826001600160601b03161115610fe65760405162461bcd60e51b815260206004820181905260248201527f4c505374616b696e673a6d617820626f6e757320617079206973203130303025604482015260640161036f565b8160028481548110610ffa57610ffa611db8565b5f9182526020918290206003919091020160020180546001600160a01b0316600160a01b6001600160601b0394851602179055604051918416825284917fd3cd184b56b5b95016981fc55484ff8fdf06eb587430055c7ab828a0edc0dc9d9101610566565b5f611068611654565b5f846001600160601b0316116110d25760405162461bcd60e51b815260206004820152602960248201527f4c505374616b696e673a6d61747572697479206d75737420626520677265617460448201526806572207468616e20360bc1b606482015260840161036f565b866001600160a01b0316866001600160a01b031663217a4b706040518163ffffffff1660e01b8152600401602060405180830381865afa158015611118573d5f5f3e3d5ffd5b505050506040513d601f19601f8201168201806040525081019061113c9190611f3a565b6001600160a01b0316146111c25760405162461bcd60e51b815260206004820152604160248201527f4c505374616b696e673a726577617264735f746f6b656e206d7573742062652060448201527f657175616c20746f2070726963655f6f7261636c652071756f746520746f6b656064820152603760f91b608482015260a40161036f565b6040805160c0810182526001600160a01b038a811682526001600160601b03878116602084019081528b8316948401948552878216606085019081528b84166080860190815288841660a0870190815260028054600180820183555f83815299519651968916600160a01b9789168802177f405787fa12a823e0f2b7631cc41b3ba8828b3321ca811111fa75cd3aa3bb5ace600390930292830155995194519488169487168602949094177f405787fa12a823e0f2b7631cc41b3ba8828b3321ca811111fa75cd3aa3bb5acf85015591519051951694909316909102929092177f405787fa12a823e0f2b7631cc41b3ba8828b3321ca811111fa75cd3aa3bb5ad0909201919091555490916112d691611dcc565b9050876001600160a01b0316896001600160a01b0316827f6b64b7e8b6f4656658efb1c74b7d1bbff6e84d3d7b1cd5ae89fd6cd91de6ef968a89898960405161134f94939291906001600160a01b039490941684526001600160601b039283166020850152908216604084015216606082015260800190565b60405180910390a485156113675761136788876114c2565b98975050505050505050565b61137b611654565b6113845f61191d565b565b61138e611654565b6001600160a01b0383165f908152600560205260409020546113b09082611f0f565b6040516370a0823160e01b81523060048201526001600160a01b038516906370a0823190602401602060405180830381865afa1580156113f2573d5f5f3e3d5ffd5b505050506040513d601f19601f820116820180604052508101906114169190611ef8565b101561145c5760405162461bcd60e51b8152602060048201526015602482015274496e73756666696369656e742062616c616e63652160581b604482015260640161036f565b6114706001600160a01b03841683836116aa565b816001600160a01b0316836001600160a01b03167fe06fab35f3c220725c11d544884aff93ebf67222c8310c487c71f27c844593e8836040516114b591815260200190565b60405180910390a3505050565b5f81116115255760405162461bcd60e51b815260206004820152602b60248201527f4c505374616b696e673a616d6f756e74206d757374206265206772656174657260448201526a207468616e207a65726f2160a81b606482015260840161036f565b61153a6001600160a01b03831633308461170e565b816001600160a01b03167fac24935fd910bc682b5ccb1a07b718cadf8cf2f6d1404c4f3ddc3662dae40e298260405161157591815260200190565b60405180910390a25050565b6002545f9061159290600190611dcc565b905090565b5f5f5f5f5f5f865f811180156115ae575060045481105b6115ca5760405162461bcd60e51b815260040161036f90611d48565b5050505f9485525050600360208190526040909320600181015481546002830154958301546004909301546001600160a01b038316979196600160a01b9093046001600160601b03169550919350565b611622611654565b6001600160a01b03811661164b57604051631e4fbdf760e01b81525f600482015260240161036f565b61089b8161191d565b5f546001600160a01b031633146113845760405163118cdaa760e01b815233600482015260240161036f565b6002600154036116a357604051633ee5aeb560e01b815260040160405180910390fd5b6002600155565b6040516001600160a01b0383811660248301526044820183905261170991859182169063a9059cbb906064015b604051602081830303815290604052915060e01b6020820180516001600160e01b03838183161783525050505061196c565b505050565b6040516001600160a01b0384811660248301528381166044830152606482018390526117479186918216906323b872dd906084016116d7565b50505050565b5f5f8890505f5f826001600160a01b0316630902f1ac6040518163ffffffff1660e01b8152600401606060405180830381865afa158015611790573d5f5f3e3d5ffd5b505050506040513d601f19601f820116820180604052508101906117b49190611f6b565b50915091505f5f6118268c866001600160a01b03166318160ddd6040518163ffffffff1660e01b8152600401602060405180830381865afa1580156117fb573d5f5f3e3d5ffd5b505050506040513d601f19601f8201168201806040525081019061181f9190611ef8565b86866119d8565b91509150611896856001600160a01b031663d21220a76040518163ffffffff1660e01b8152600401602060405180830381865afa158015611869573d5f5f3e3d5ffd5b505050506040513d601f19601f8201168201806040525081019061188d9190611f3a565b828d8b8b611a29565b611902866001600160a01b0316630dfe16816040518163ffffffff1660e01b8152600401602060405180830381865afa1580156118d5573d5f5f3e3d5ffd5b505050506040513d601f19601f820116820180604052508101906118f99190611f3a565b848e8e8e611a29565b61190c9190611f0f565b9d9c50505050505050505050505050565b5f80546001600160a01b038381166001600160a01b0319831681178455604051919092169283917f8be0079c531659141344cd1fd0a4f28419497f9722a3daafe3b4186f6b6457e09190a35050565b5f5f60205f8451602086015f885af18061198b576040513d5f823e3d81fd5b50505f513d915081156119a25780600114156119af565b6001600160a01b0384163b155b1561174757604051635274afe760e01b81526001600160a01b038516600482015260240161036f565b5f8080856119ef886001600160701b038816611ea3565b6119f99190611eba565b90505f86611a10896001600160701b038816611ea3565b611a1a9190611eba565b91989197509095505050505050565b5f836001600160a01b0316636a0892158787896001600160a01b031663313ce5676040518163ffffffff1660e01b8152600401602060405180830381865afa158015611a77573d5f5f3e3d5ffd5b505050506040513d601f19601f82011682018060405250810190611a9b9190611fb7565b87876040518663ffffffff1660e01b8152600401611abd959493929190611fd7565b6020604051808303815f875af1158015611ad9573d5f5f3e3d5ffd5b505050506040513d601f19601f82011682018060405250810190611afd9190611ef8565b9695505050505050565b5f60208284031215611b17575f5ffd5b5035919050565b80356001600160601b0381168114611b34575f5ffd5b919050565b5f5f60408385031215611b4a575f5ffd5b82359150611b5a60208401611b1e565b90509250929050565b5f5f83601f840112611b73575f5ffd5b50813567ffffffffffffffff811115611b8a575f5ffd5b602083019150836020828501011115611ba1575f5ffd5b9250929050565b5f5f5f5f5f5f60808789031215611bbd575f5ffd5b8635955060208701359450604087013567ffffffffffffffff811115611be1575f5ffd5b611bed89828a01611b63565b909550935050606087013567ffffffffffffffff811115611c0c575f5ffd5b611c1889828a01611b63565b979a9699509497509295939492505050565b6001600160a01b038116811461089b575f5ffd5b5f5f5f5f5f5f5f60e0888a031215611c54575f5ffd5b8735611c5f81611c2a565b96506020880135611c6f81611c2a565b95506040880135611c7f81611c2a565b945060608801359350611c9460808901611b1e565b9250611ca260a08901611b1e565b9150611cb060c08901611b1e565b905092959891949750929550565b5f5f5f60608486031215611cd0575f5ffd5b8335611cdb81611c2a565b92506020840135611ceb81611c2a565b929592945050506040919091013590565b5f60208284031215611d0c575f5ffd5b8135611d1781611c2a565b9392505050565b5f5f60408385031215611d2f575f5ffd5b8235611d3a81611c2a565b946020939093013593505050565b6020808252601b908201527f4c505374616b696e673a496e76616c6964205374616b65204944210000000000604082015260600190565b634e487b7160e01b5f52601160045260245ffd5b6001600160601b038181168382160190811115611db257611db2611d7f565b92915050565b634e487b7160e01b5f52603260045260245ffd5b81810381811115611db257611db2611d7f565b6020808252601a908201527f4c505374616b696e673a496e76616c696420506f6f6c20494421000000000000604082015260600190565b60208082526021908201527f4c505374616b696e673a43616c6c6572206973206e6f7420746865206f776e656040820152603960f91b606082015260800190565b6020808252602c908201527f4c505374616b696e673a4561726c79205769746864726177616c206973206e6f60408201526b74207065726d69747465642160a01b606082015260800190565b8082028115828204841417611db257611db2611d7f565b5f82611ed457634e487b7160e01b5f52601260045260245ffd5b500490565b5f60208284031215611ee9575f5ffd5b81518015158114611d17575f5ffd5b5f60208284031215611f08575f5ffd5b5051919050565b80820180821115611db257611db2611d7f565b5f60018201611f3357611f33611d7f565b5060010190565b5f60208284031215611f4a575f5ffd5b8151611d1781611c2a565b80516001600160701b0381168114611b34575f5ffd5b5f5f5f60608486031215611f7d575f5ffd5b611f8684611f55565b9250611f9460208501611f55565b9150604084015163ffffffff81168114611fac575f5ffd5b809150509250925092565b5f60208284031215611fc7575f5ffd5b815160ff81168114611d17575f5ffd5b6001600160a01b03861681526020810185905260ff841660408201526080606082018190528101829052818360a08301375f81830160a090810191909152601f909201601f1916010194935050505056fea26469706673582212208ceed32faac318be5ad34e413597a7a4c3a56fdb997326ee0affb187024896b064736f6c634300081e0033",
					"opcodes": "PUSH1 0xA0 PUSH1 0x40 MSTORE PUSH1 0x1 PUSH1 0x4 SSTORE CALLVALUE DUP1 ISZERO PUSH2 0x14 JUMPI PUSH0 PUSH0 REVERT JUMPDEST POP PUSH1 0x40 MLOAD PUSH2 0x2264 CODESIZE SUB DUP1 PUSH2 0x2264 DUP4 CODECOPY DUP2 ADD PUSH1 0x40 DUP2 SWAP1 MSTORE PUSH2 0x33 SWAP2 PUSH2 0x1B3 JUMP JUMPDEST CALLER DUP1 PUSH2 0x58 JUMPI PUSH1 0x40 MLOAD PUSH4 0x1E4FBDF7 PUSH1 0xE0 SHL DUP2 MSTORE PUSH0 PUSH1 0x4 DUP3 ADD MSTORE PUSH1 0x24 ADD PUSH1 0x40 MLOAD DUP1 SWAP2 SUB SWAP1 REVERT JUMPDEST PUSH2 0x61 DUP2 PUSH2 0x164 JUMP JUMPDEST POP PUSH1 0x1 DUP1 DUP1 SSTORE PUSH1 0x1 PUSH1 0x1 PUSH1 0xA0 SHL SUB SWAP2 DUP3 AND PUSH1 0x80 SWAP1 DUP2 MSTORE PUSH1 0x40 DUP1 MLOAD PUSH1 0xC0 DUP2 ADD DUP3 MSTORE PUSH0 DUP1 DUP3 MSTORE PUSH1 0x20 DUP3 ADD DUP2 DUP2 MSTORE SWAP3 DUP3 ADD DUP2 DUP2 MSTORE PUSH1 0x60 DUP4 ADD DUP3 DUP2 MSTORE SWAP5 DUP4 ADD DUP3 DUP2 MSTORE PUSH1 0xA0 DUP5 ADD DUP4 DUP2 MSTORE PUSH1 0x2 DUP1 SLOAD SWAP9 DUP10 ADD DUP2 SSTORE SWAP1 SWAP4 MSTORE SWAP3 MLOAD SWAP4 MLOAD SWAP4 DUP8 AND PUSH1 0x1 PUSH1 0xA0 SHL PUSH1 0x1 PUSH1 0x1 PUSH1 0x60 SHL SUB SWAP6 DUP7 AND DUP2 MUL SWAP2 SWAP1 SWAP2 OR PUSH32 0x405787FA12A823E0F2B7631CC41B3BA8828B3321CA811111FA75CD3AA3BB5ACE PUSH1 0x3 SWAP1 SWAP9 MUL SWAP8 DUP9 ADD SSTORE SWAP1 MLOAD SWAP5 MLOAD SWAP5 DUP8 AND SWAP5 DUP5 AND DUP2 MUL SWAP5 SWAP1 SWAP5 OR PUSH32 0x405787FA12A823E0F2B7631CC41B3BA8828B3321CA811111FA75CD3AA3BB5ACF DUP7 ADD SSTORE SWAP1 MLOAD SWAP1 MLOAD SWAP5 AND SWAP4 AND MUL SWAP2 SWAP1 SWAP2 OR PUSH32 0x405787FA12A823E0F2B7631CC41B3BA8828B3321CA811111FA75CD3AA3BB5AD0 SWAP1 SWAP2 ADD SSTORE PUSH2 0x1E0 JUMP JUMPDEST PUSH0 DUP1 SLOAD PUSH1 0x1 PUSH1 0x1 PUSH1 0xA0 SHL SUB DUP4 DUP2 AND PUSH1 0x1 PUSH1 0x1 PUSH1 0xA0 SHL SUB NOT DUP4 AND DUP2 OR DUP5 SSTORE PUSH1 0x40 MLOAD SWAP2 SWAP1 SWAP3 AND SWAP3 DUP4 SWAP2 PUSH32 0x8BE0079C531659141344CD1FD0A4F28419497F9722A3DAAFE3B4186F6B6457E0 SWAP2 SWAP1 LOG3 POP POP JUMP JUMPDEST PUSH0 PUSH1 0x20 DUP3 DUP5 SUB SLT ISZERO PUSH2 0x1C3 JUMPI PUSH0 PUSH0 REVERT JUMPDEST DUP2 MLOAD PUSH1 0x1 PUSH1 0x1 PUSH1 0xA0 SHL SUB DUP2 AND DUP2 EQ PUSH2 0x1D9 JUMPI PUSH0 PUSH0 REVERT JUMPDEST SWAP4 SWAP3 POP POP POP JUMP JUMPDEST PUSH1 0x80 MLOAD PUSH2 0x205E PUSH2 0x206 PUSH0 CODECOPY PUSH0 DUP2 DUP2 PUSH2 0x2AD ADD MSTORE DUP2 DUP2 PUSH2 0xC0C ADD MSTORE PUSH2 0xCA7 ADD MSTORE PUSH2 0x205E PUSH0 RETURN INVALID PUSH1 0x80 PUSH1 0x40 MSTORE CALLVALUE DUP1 ISZERO PUSH2 0xF JUMPI PUSH0 PUSH0 REVERT JUMPDEST POP PUSH1 0x4 CALLDATASIZE LT PUSH2 0x110 JUMPI PUSH0 CALLDATALOAD PUSH1 0xE0 SHR DUP1 PUSH4 0x715018A6 GT PUSH2 0x9E JUMPI DUP1 PUSH4 0xA9FC507B GT PUSH2 0x6E JUMPI DUP1 PUSH4 0xA9FC507B EQ PUSH2 0x28D JUMPI DUP1 PUSH4 0xB4AC6860 EQ PUSH2 0x2A0 JUMPI DUP1 PUSH4 0xCC5C56DC EQ PUSH2 0x2A8 JUMPI DUP1 PUSH4 0xCE325BF8 EQ PUSH2 0x2CF JUMPI DUP1 PUSH4 0xF2FDE38B EQ PUSH2 0x327 JUMPI PUSH0 PUSH0 REVERT JUMPDEST DUP1 PUSH4 0x715018A6 EQ PUSH2 0x22F JUMPI DUP1 PUSH4 0x74EE6B62 EQ PUSH2 0x237 JUMPI DUP1 PUSH4 0x8DA5CB5B EQ PUSH2 0x24A JUMPI DUP1 PUSH4 0x954821B6 EQ PUSH2 0x26E JUMPI PUSH0 PUSH0 REVERT JUMPDEST DUP1 PUSH4 0x25D5971F GT PUSH2 0xE4 JUMPI DUP1 PUSH4 0x25D5971F EQ PUSH2 0x1C2 JUMPI DUP1 PUSH4 0x379607F5 EQ PUSH2 0x1D5 JUMPI DUP1 PUSH4 0x3B5DD047 EQ PUSH2 0x1E8 JUMPI DUP1 PUSH4 0x4F44DAA9 EQ PUSH2 0x1FB JUMPI DUP1 PUSH4 0x69CA431B EQ PUSH2 0x20E JUMPI PUSH0 PUSH0 REVERT JUMPDEST DUP1 PUSH3 0x215784 EQ PUSH2 0x114 JUMPI DUP1 PUSH4 0x39BA6B7 EQ PUSH2 0x129 JUMPI DUP1 PUSH4 0x68BCD8D EQ PUSH2 0x13C JUMPI DUP1 PUSH4 0x21241DFE EQ PUSH2 0x1A0 JUMPI JUMPDEST PUSH0 PUSH0 REVERT JUMPDEST PUSH2 0x127 PUSH2 0x122 CALLDATASIZE PUSH1 0x4 PUSH2 0x1B07 JUMP JUMPDEST PUSH2 0x33A JUMP JUMPDEST STOP JUMPDEST PUSH2 0x127 PUSH2 0x137 CALLDATASIZE PUSH1 0x4 PUSH2 0x1B39 JUMP JUMPDEST PUSH2 0x460 JUMP JUMPDEST PUSH2 0x14F PUSH2 0x14A CALLDATASIZE PUSH1 0x4 PUSH2 0x1B07 JUMP JUMPDEST PUSH2 0x573 JUMP JUMPDEST PUSH1 0x40 DUP1 MLOAD PUSH1 0x1 PUSH1 0x1 PUSH1 0xA0 SHL SUB SWAP8 DUP9 AND DUP2 MSTORE SWAP6 DUP8 AND PUSH1 0x20 DUP8 ADD MSTORE SWAP4 SWAP1 SWAP6 AND SWAP3 DUP5 ADD SWAP3 SWAP1 SWAP3 MSTORE PUSH1 0x1 PUSH1 0x1 PUSH1 0x60 SHL SUB SWAP1 DUP2 AND PUSH1 0x60 DUP5 ADD MSTORE SWAP1 DUP2 AND PUSH1 0x80 DUP4 ADD MSTORE SWAP1 SWAP2 AND PUSH1 0xA0 DUP3 ADD MSTORE PUSH1 0xC0 ADD JUMPDEST PUSH1 0x40 MLOAD DUP1 SWAP2 SUB SWAP1 RETURN JUMPDEST PUSH2 0x1AA PUSH3 0x34BC00 DUP2 JUMP JUMPDEST PUSH1 0x40 MLOAD PUSH1 0x1 PUSH1 0x1 PUSH1 0x60 SHL SUB SWAP1 SWAP2 AND DUP2 MSTORE PUSH1 0x20 ADD PUSH2 0x197 JUMP JUMPDEST PUSH2 0x127 PUSH2 0x1D0 CALLDATASIZE PUSH1 0x4 PUSH2 0x1B07 JUMP JUMPDEST PUSH2 0x6F7 JUMP JUMPDEST PUSH2 0x127 PUSH2 0x1E3 CALLDATASIZE PUSH1 0x4 PUSH2 0x1B07 JUMP JUMPDEST PUSH2 0x89E JUMP JUMPDEST PUSH2 0x127 PUSH2 0x1F6 CALLDATASIZE PUSH1 0x4 PUSH2 0x1BA8 JUMP JUMPDEST PUSH2 0xAB0 JUMP JUMPDEST PUSH2 0x127 PUSH2 0x209 CALLDATASIZE PUSH1 0x4 PUSH2 0x1B39 JUMP JUMPDEST PUSH2 0xF55 JUMP JUMPDEST PUSH2 0x221 PUSH2 0x21C CALLDATASIZE PUSH1 0x4 PUSH2 0x1C3E JUMP JUMPDEST PUSH2 0x105F JUMP JUMPDEST PUSH1 0x40 MLOAD SWAP1 DUP2 MSTORE PUSH1 0x20 ADD PUSH2 0x197 JUMP JUMPDEST PUSH2 0x127 PUSH2 0x1373 JUMP JUMPDEST PUSH2 0x127 PUSH2 0x245 CALLDATASIZE PUSH1 0x4 PUSH2 0x1CBE JUMP JUMPDEST PUSH2 0x1386 JUMP JUMPDEST PUSH0 SLOAD PUSH1 0x1 PUSH1 0x1 PUSH1 0xA0 SHL SUB AND JUMPDEST PUSH1 0x40 MLOAD PUSH1 0x1 PUSH1 0x1 PUSH1 0xA0 SHL SUB SWAP1 SWAP2 AND DUP2 MSTORE PUSH1 0x20 ADD PUSH2 0x197 JUMP JUMPDEST PUSH2 0x221 PUSH2 0x27C CALLDATASIZE PUSH1 0x4 PUSH2 0x1CFC JUMP JUMPDEST PUSH1 0x5 PUSH1 0x20 MSTORE PUSH0 SWAP1 DUP2 MSTORE PUSH1 0x40 SWAP1 KECCAK256 SLOAD DUP2 JUMP JUMPDEST PUSH2 0x127 PUSH2 0x29B CALLDATASIZE PUSH1 0x4 PUSH2 0x1D1E JUMP JUMPDEST PUSH2 0x14C2 JUMP JUMPDEST PUSH2 0x221 PUSH2 0x1581 JUMP JUMPDEST PUSH2 0x256 PUSH32 0x0 DUP2 JUMP JUMPDEST PUSH2 0x2E2 PUSH2 0x2DD CALLDATASIZE PUSH1 0x4 PUSH2 0x1B07 JUMP JUMPDEST PUSH2 0x1597 JUMP JUMPDEST PUSH1 0x40 DUP1 MLOAD PUSH1 0x1 PUSH1 0x1 PUSH1 0xA0 SHL SUB SWAP1 SWAP8 AND DUP8 MSTORE PUSH1 0x20 DUP8 ADD SWAP6 SWAP1 SWAP6 MSTORE PUSH1 0x1 PUSH1 0x1 PUSH1 0x60 SHL SUB SWAP1 SWAP4 AND SWAP4 DUP6 ADD SWAP4 SWAP1 SWAP4 MSTORE PUSH1 0x60 DUP5 ADD MSTORE PUSH1 0x80 DUP4 ADD SWAP2 SWAP1 SWAP2 MSTORE PUSH1 0xA0 DUP3 ADD MSTORE PUSH1 0xC0 ADD PUSH2 0x197 JUMP JUMPDEST PUSH2 0x127 PUSH2 0x335 CALLDATASIZE PUSH1 0x4 PUSH2 0x1CFC JUMP JUMPDEST PUSH2 0x161A JUMP JUMPDEST PUSH2 0x342 PUSH2 0x1654 JUMP JUMPDEST DUP1 PUSH0 DUP2 GT DUP1 ISZERO PUSH2 0x353 JUMPI POP PUSH1 0x4 SLOAD DUP2 LT JUMPDEST PUSH2 0x378 JUMPI PUSH1 0x40 MLOAD PUSH3 0x461BCD PUSH1 0xE5 SHL DUP2 MSTORE PUSH1 0x4 ADD PUSH2 0x36F SWAP1 PUSH2 0x1D48 JUMP JUMPDEST PUSH1 0x40 MLOAD DUP1 SWAP2 SUB SWAP1 REVERT JUMPDEST PUSH0 DUP3 DUP2 MSTORE PUSH1 0x3 PUSH1 0x20 MSTORE PUSH1 0x40 SWAP1 KECCAK256 PUSH1 0x1 DUP2 ADD SLOAD PUSH2 0x3A8 SWAP1 PUSH3 0x34BC00 SWAP1 PUSH1 0x1 PUSH1 0xA0 SHL SWAP1 DIV PUSH1 0x1 PUSH1 0x1 PUSH1 0x60 SHL SUB AND PUSH2 0x1D93 JUMP JUMPDEST PUSH1 0x1 PUSH1 0x1 PUSH1 0x60 SHL SUB AND TIMESTAMP PUSH1 0x1 PUSH1 0x1 PUSH1 0x60 SHL SUB AND LT ISZERO PUSH2 0x3C5 JUMPI PUSH0 PUSH0 REVERT JUMPDEST PUSH0 PUSH1 0x2 DUP3 PUSH0 ADD SLOAD DUP2 SLOAD DUP2 LT PUSH2 0x3DC JUMPI PUSH2 0x3DC PUSH2 0x1DB8 JUMP JUMPDEST PUSH0 SWAP2 DUP3 MSTORE PUSH1 0x20 DUP1 DUP4 KECCAK256 PUSH1 0x3 DUP7 DUP2 ADD SLOAD SWAP4 MUL ADD PUSH1 0x1 DUP2 ADD SLOAD PUSH1 0x1 PUSH1 0x1 PUSH1 0xA0 SHL SUB AND DUP5 MSTORE PUSH1 0x5 SWAP1 SWAP2 MSTORE PUSH1 0x40 DUP4 KECCAK256 DUP1 SLOAD SWAP2 SWAP5 POP SWAP2 SWAP3 SWAP1 PUSH2 0x41A SWAP1 DUP5 SWAP1 PUSH2 0x1DCC JUMP JUMPDEST SWAP1 SWAP2 SSTORE POP POP PUSH0 PUSH1 0x3 DUP4 ADD SSTORE DUP2 SLOAD PUSH1 0x40 MLOAD DUP6 DUP2 MSTORE PUSH32 0x85CF309FCBACAF1EE2B300F62E8586A0661E41C7F318003E9AAB792BE89980B SWAP1 PUSH1 0x20 ADD PUSH1 0x40 MLOAD DUP1 SWAP2 SUB SWAP1 LOG2 POP POP POP POP JUMP JUMPDEST PUSH2 0x468 PUSH2 0x1654 JUMP JUMPDEST DUP2 PUSH0 DUP2 GT DUP1 ISZERO PUSH2 0x479 JUMPI POP PUSH1 0x2 SLOAD DUP2 LT JUMPDEST PUSH2 0x495 JUMPI PUSH1 0x40 MLOAD PUSH3 0x461BCD PUSH1 0xE5 SHL DUP2 MSTORE PUSH1 0x4 ADD PUSH2 0x36F SWAP1 PUSH2 0x1DDF JUMP JUMPDEST PUSH3 0x186A0 DUP3 PUSH1 0x1 PUSH1 0x1 PUSH1 0x60 SHL SUB AND GT ISZERO PUSH2 0x4F1 JUMPI PUSH1 0x40 MLOAD PUSH3 0x461BCD PUSH1 0xE5 SHL DUP2 MSTORE PUSH1 0x20 PUSH1 0x4 DUP3 ADD MSTORE PUSH1 0x1A PUSH1 0x24 DUP3 ADD MSTORE PUSH32 0x4C505374616B696E673A6D617820617079206973203130303025000000000000 PUSH1 0x44 DUP3 ADD MSTORE PUSH1 0x64 ADD PUSH2 0x36F JUMP JUMPDEST DUP2 PUSH1 0x2 DUP5 DUP2 SLOAD DUP2 LT PUSH2 0x505 JUMPI PUSH2 0x505 PUSH2 0x1DB8 JUMP JUMPDEST PUSH0 SWAP2 DUP3 MSTORE PUSH1 0x20 SWAP2 DUP3 SWAP1 KECCAK256 PUSH1 0x3 SWAP2 SWAP1 SWAP2 MUL ADD PUSH1 0x1 ADD DUP1 SLOAD PUSH1 0x1 PUSH1 0x1 PUSH1 0xA0 SHL SUB AND PUSH1 0x1 PUSH1 0xA0 SHL PUSH1 0x1 PUSH1 0x1 PUSH1 0x60 SHL SUB SWAP5 DUP6 AND MUL OR SWAP1 SSTORE PUSH1 0x40 MLOAD SWAP2 DUP5 AND DUP3 MSTORE DUP5 SWAP2 PUSH32 0x9A2C3C653A42F5C64BBFDF07224D8E0D6526460F44E520AC49BAE23804E18E8 SWAP2 ADD JUMPDEST PUSH1 0x40 MLOAD DUP1 SWAP2 SUB SWAP1 LOG2 POP POP POP JUMP JUMPDEST PUSH0 PUSH0 PUSH0 PUSH0 PUSH0 PUSH0 DUP7 PUSH0 DUP2 GT DUP1 ISZERO PUSH2 0x58A JUMPI POP PUSH1 0x2 SLOAD DUP2 LT JUMPDEST PUSH2 0x5A6 JUMPI PUSH1 0x40 MLOAD PUSH3 0x461BCD PUSH1 0xE5 SHL DUP2 MSTORE PUSH1 0x4 ADD PUSH2 0x36F SWAP1 PUSH2 0x1DDF JUMP JUMPDEST PUSH1 0x2 DUP9 DUP2 SLOAD DUP2 LT PUSH2 0x5B9 JUMPI PUSH2 0x5B9 PUSH2 0x1DB8 JUMP JUMPDEST PUSH0 SWAP2 DUP3 MSTORE PUSH1 0x20 SWAP1 SWAP2 KECCAK256 PUSH1 0x3 SWAP1 SWAP2 MUL ADD SLOAD PUSH1 0x2 DUP1 SLOAD PUSH1 0x1 PUSH1 0x1 PUSH1 0xA0 SHL SUB SWAP1 SWAP3 AND SWAP2 DUP11 SWAP1 DUP2 LT PUSH2 0x5E9 JUMPI PUSH2 0x5E9 PUSH2 0x1DB8 JUMP JUMPDEST SWAP1 PUSH0 MSTORE PUSH1 0x20 PUSH0 KECCAK256 SWAP1 PUSH1 0x3 MUL ADD PUSH1 0x1 ADD PUSH0 SWAP1 SLOAD SWAP1 PUSH2 0x100 EXP SWAP1 DIV PUSH1 0x1 PUSH1 0x1 PUSH1 0xA0 SHL SUB AND PUSH1 0x2 DUP11 DUP2 SLOAD DUP2 LT PUSH2 0x61E JUMPI PUSH2 0x61E PUSH2 0x1DB8 JUMP JUMPDEST SWAP1 PUSH0 MSTORE PUSH1 0x20 PUSH0 KECCAK256 SWAP1 PUSH1 0x3 MUL ADD PUSH1 0x2 ADD PUSH0 SWAP1 SLOAD SWAP1 PUSH2 0x100 EXP SWAP1 DIV PUSH1 0x1 PUSH1 0x1 PUSH1 0xA0 SHL SUB AND PUSH1 0x2 DUP12 DUP2 SLOAD DUP2 LT PUSH2 0x653 JUMPI PUSH2 0x653 PUSH2 0x1DB8 JUMP JUMPDEST SWAP1 PUSH0 MSTORE PUSH1 0x20 PUSH0 KECCAK256 SWAP1 PUSH1 0x3 MUL ADD PUSH0 ADD PUSH1 0x14 SWAP1 SLOAD SWAP1 PUSH2 0x100 EXP SWAP1 DIV PUSH1 0x1 PUSH1 0x1 PUSH1 0x60 SHL SUB AND PUSH1 0x2 DUP13 DUP2 SLOAD DUP2 LT PUSH2 0x688 JUMPI PUSH2 0x688 PUSH2 0x1DB8 JUMP JUMPDEST SWAP1 PUSH0 MSTORE PUSH1 0x20 PUSH0 KECCAK256 SWAP1 PUSH1 0x3 MUL ADD PUSH1 0x1 ADD PUSH1 0x14 SWAP1 SLOAD SWAP1 PUSH2 0x100 EXP SWAP1 DIV PUSH1 0x1 PUSH1 0x1 PUSH1 0x60 SHL SUB AND PUSH1 0x2 DUP14 DUP2 SLOAD DUP2 LT PUSH2 0x6BE JUMPI PUSH2 0x6BE PUSH2 0x1DB8 JUMP JUMPDEST SWAP1 PUSH0 MSTORE PUSH1 0x20 PUSH0 KECCAK256 SWAP1 PUSH1 0x3 MUL ADD PUSH1 0x2 ADD PUSH1 0x14 SWAP1 SLOAD SWAP1 PUSH2 0x100 EXP SWAP1 DIV PUSH1 0x1 PUSH1 0x1 PUSH1 0x60 SHL SUB AND SWAP7 POP SWAP7 POP SWAP7 POP SWAP7 POP SWAP7 POP SWAP7 POP POP SWAP2 SWAP4 SWAP6 POP SWAP2 SWAP4 SWAP6 JUMP JUMPDEST PUSH2 0x6FF PUSH2 0x1680 JUMP JUMPDEST DUP1 PUSH0 DUP2 GT DUP1 ISZERO PUSH2 0x710 JUMPI POP PUSH1 0x4 SLOAD DUP2 LT JUMPDEST PUSH2 0x72C JUMPI PUSH1 0x40 MLOAD PUSH3 0x461BCD PUSH1 0xE5 SHL DUP2 MSTORE PUSH1 0x4 ADD PUSH2 0x36F SWAP1 PUSH2 0x1D48 JUMP JUMPDEST PUSH0 DUP3 DUP2 MSTORE PUSH1 0x3 PUSH1 0x20 MSTORE PUSH1 0x40 SWAP1 KECCAK256 PUSH1 0x1 DUP2 ADD SLOAD PUSH1 0x1 PUSH1 0x1 PUSH1 0xA0 SHL SUB AND CALLER EQ PUSH2 0x765 JUMPI PUSH1 0x40 MLOAD PUSH3 0x461BCD PUSH1 0xE5 SHL DUP2 MSTORE PUSH1 0x4 ADD PUSH2 0x36F SWAP1 PUSH2 0x1E16 JUMP JUMPDEST PUSH0 PUSH1 0x2 DUP3 PUSH0 ADD SLOAD DUP2 SLOAD DUP2 LT PUSH2 0x77C JUMPI PUSH2 0x77C PUSH2 0x1DB8 JUMP JUMPDEST PUSH0 SWAP2 DUP3 MSTORE PUSH1 0x20 SWAP2 DUP3 SWAP1 KECCAK256 PUSH1 0x40 DUP1 MLOAD PUSH1 0xC0 DUP2 ADD DUP3 MSTORE PUSH1 0x3 SWAP1 SWAP4 MUL SWAP1 SWAP2 ADD DUP1 SLOAD PUSH1 0x1 PUSH1 0x1 PUSH1 0xA0 SHL SUB DUP1 DUP3 AND DUP6 MSTORE PUSH1 0x1 PUSH1 0x1 PUSH1 0x60 SHL SUB PUSH1 0x1 PUSH1 0xA0 SHL SWAP3 DUP4 SWAP1 DIV DUP2 AND SWAP7 DUP7 ADD SWAP7 SWAP1 SWAP7 MSTORE PUSH1 0x1 DUP1 DUP5 ADD SLOAD DUP1 DUP4 AND SWAP6 DUP8 ADD SWAP6 SWAP1 SWAP6 MSTORE SWAP4 DUP3 SWAP1 DIV DUP7 AND PUSH1 0x60 DUP7 ADD MSTORE PUSH1 0x2 SWAP1 SWAP3 ADD SLOAD SWAP2 DUP3 AND PUSH1 0x80 DUP6 ADD MSTORE SWAP1 DUP2 SWAP1 DIV DUP5 AND PUSH1 0xA0 DUP5 ADD MSTORE SWAP1 DUP6 ADD SLOAD SWAP2 SWAP4 POP SWAP1 DIV AND PUSH2 0x806 TIMESTAMP SWAP1 JUMP JUMPDEST PUSH1 0x1 PUSH1 0x1 PUSH1 0x60 SHL SUB AND LT ISZERO PUSH2 0x82D JUMPI PUSH1 0x40 MLOAD PUSH3 0x461BCD PUSH1 0xE5 SHL DUP2 MSTORE PUSH1 0x4 ADD PUSH2 0x36F SWAP1 PUSH2 0x1E57 JUMP JUMPDEST PUSH1 0x2 DUP3 ADD SLOAD ISZERO PUSH2 0x88F JUMPI PUSH2 0x852 CALLER PUSH1 0x2 DUP5 ADD SLOAD DUP4 MLOAD PUSH1 0x1 PUSH1 0x1 PUSH1 0xA0 SHL SUB AND SWAP2 SWAP1 PUSH2 0x16AA JUMP JUMPDEST PUSH0 PUSH1 0x2 DUP4 ADD SSTORE DUP2 SLOAD PUSH1 0x40 MLOAD DUP6 DUP2 MSTORE PUSH32 0x3DB0CA701D7C1106534C6003E5D65DAE65A9CB891AD5BBB9BE39C091DF79D87E SWAP1 PUSH1 0x20 ADD JUMPDEST PUSH1 0x40 MLOAD DUP1 SWAP2 SUB SWAP1 LOG2 JUMPDEST POP POP POP PUSH2 0x89B PUSH1 0x1 DUP1 SSTORE JUMP JUMPDEST POP JUMP JUMPDEST PUSH2 0x8A6 PUSH2 0x1680 JUMP JUMPDEST DUP1 PUSH0 DUP2 GT DUP1 ISZERO PUSH2 0x8B7 JUMPI POP PUSH1 0x4 SLOAD DUP2 LT JUMPDEST PUSH2 0x8D3 JUMPI PUSH1 0x40 MLOAD PUSH3 0x461BCD PUSH1 0xE5 SHL DUP2 MSTORE PUSH1 0x4 ADD PUSH2 0x36F SWAP1 PUSH2 0x1D48 JUMP JUMPDEST PUSH0 DUP3 DUP2 MSTORE PUSH1 0x3 PUSH1 0x20 MSTORE PUSH1 0x40 SWAP1 KECCAK256 PUSH1 0x1 DUP2 ADD SLOAD PUSH1 0x1 PUSH1 0x1 PUSH1 0xA0 SHL SUB AND CALLER EQ PUSH2 0x90C JUMPI PUSH1 0x40 MLOAD PUSH3 0x461BCD PUSH1 0xE5 SHL DUP2 MSTORE PUSH1 0x4 ADD PUSH2 0x36F SWAP1 PUSH2 0x1E16 JUMP JUMPDEST PUSH0 PUSH1 0x2 DUP3 PUSH0 ADD SLOAD DUP2 SLOAD DUP2 LT PUSH2 0x923 JUMPI PUSH2 0x923 PUSH2 0x1DB8 JUMP JUMPDEST PUSH0 SWAP2 DUP3 MSTORE PUSH1 0x20 SWAP1 SWAP2 KECCAK256 PUSH1 0x1 DUP5 ADD SLOAD PUSH1 0x3 SWAP1 SWAP3 MUL ADD SWAP2 POP PUSH1 0x1 PUSH1 0xA0 SHL SWAP1 DIV PUSH1 0x1 PUSH1 0x1 PUSH1 0x60 SHL SUB AND TIMESTAMP PUSH1 0x1 PUSH1 0x1 PUSH1 0x60 SHL SUB AND LT ISZERO PUSH2 0x971 JUMPI PUSH1 0x40 MLOAD PUSH3 0x461BCD PUSH1 0xE5 SHL DUP2 MSTORE PUSH1 0x4 ADD PUSH2 0x36F SWAP1 PUSH2 0x1E57 JUMP JUMPDEST PUSH0 DUP3 PUSH1 0x3 ADD SLOAD GT PUSH2 0x9C4 JUMPI PUSH1 0x40 MLOAD PUSH3 0x461BCD PUSH1 0xE5 SHL DUP2 MSTORE PUSH1 0x20 PUSH1 0x4 DUP3 ADD MSTORE PUSH1 0x1A PUSH1 0x24 DUP3 ADD MSTORE PUSH32 0x4C505374616B696E673A4E6F7468696E6720746F20636C61696D000000000000 PUSH1 0x44 DUP3 ADD MSTORE PUSH1 0x64 ADD PUSH2 0x36F JUMP JUMPDEST PUSH1 0x2 DUP3 ADD SLOAD ISZERO PUSH2 0x9F0 JUMPI PUSH2 0x9E9 CALLER PUSH1 0x2 DUP5 ADD SLOAD DUP4 SLOAD PUSH1 0x1 PUSH1 0x1 PUSH1 0xA0 SHL SUB AND SWAP2 SWAP1 PUSH2 0x16AA JUMP JUMPDEST PUSH0 PUSH1 0x2 DUP4 ADD SSTORE JUMPDEST PUSH2 0xA0E CALLER PUSH1 0x3 DUP5 ADD SLOAD PUSH1 0x1 DUP5 ADD SLOAD PUSH1 0x1 PUSH1 0x1 PUSH1 0xA0 SHL SUB AND SWAP2 SWAP1 PUSH2 0x16AA JUMP JUMPDEST PUSH1 0x3 DUP3 ADD SLOAD PUSH1 0x1 DUP3 ADD SLOAD PUSH1 0x1 PUSH1 0x1 PUSH1 0xA0 SHL SUB AND PUSH0 SWAP1 DUP2 MSTORE PUSH1 0x5 PUSH1 0x20 MSTORE PUSH1 0x40 DUP2 KECCAK256 DUP1 SLOAD SWAP1 SWAP2 SWAP1 PUSH2 0xA3E SWAP1 DUP5 SWAP1 PUSH2 0x1DCC JUMP JUMPDEST SWAP1 SWAP2 SSTORE POP POP PUSH0 PUSH1 0x3 DUP4 ADD SSTORE DUP2 SLOAD PUSH1 0x40 MLOAD DUP6 DUP2 MSTORE PUSH32 0x3DB0CA701D7C1106534C6003E5D65DAE65A9CB891AD5BBB9BE39C091DF79D87E SWAP1 PUSH1 0x20 ADD PUSH1 0x40 MLOAD DUP1 SWAP2 SUB SWAP1 LOG2 DUP2 SLOAD PUSH1 0x40 MLOAD DUP6 DUP2 MSTORE PUSH32 0x4D7828F2AA36030CC63CDEA79EC646099AA121D019F1A90EDB55078939FB84EA SWAP1 PUSH1 0x20 ADD PUSH2 0x886 JUMP JUMPDEST PUSH2 0xAB8 PUSH2 0x1680 JUMP JUMPDEST DUP6 PUSH0 DUP2 GT DUP1 ISZERO PUSH2 0xAC9 JUMPI POP PUSH1 0x2 SLOAD DUP2 LT JUMPDEST PUSH2 0xAE5 JUMPI PUSH1 0x40 MLOAD PUSH3 0x461BCD PUSH1 0xE5 SHL DUP2 MSTORE PUSH1 0x4 ADD PUSH2 0x36F SWAP1 PUSH2 0x1DDF JUMP JUMPDEST PUSH0 PUSH1 0x2 DUP9 DUP2 SLOAD DUP2 LT PUSH2 0xAF9 JUMPI PUSH2 0xAF9 PUSH2 0x1DB8 JUMP JUMPDEST SWAP1 PUSH0 MSTORE PUSH1 0x20 PUSH0 KECCAK256 SWAP1 PUSH1 0x3 MUL ADD SWAP1 POP PUSH0 DUP2 PUSH1 0x1 ADD PUSH1 0x14 SWAP1 SLOAD SWAP1 PUSH2 0x100 EXP SWAP1 DIV PUSH1 0x1 PUSH1 0x1 PUSH1 0x60 SHL SUB AND PUSH1 0x1 PUSH1 0x1 PUSH1 0x60 SHL SUB AND GT PUSH2 0xB76 JUMPI PUSH1 0x40 MLOAD PUSH3 0x461BCD PUSH1 0xE5 SHL DUP2 MSTORE PUSH1 0x20 PUSH1 0x4 DUP3 ADD MSTORE PUSH1 0x19 PUSH1 0x24 DUP3 ADD MSTORE PUSH32 0x4C505374616B696E673A506F6F6C206973207061757365642100000000000000 PUSH1 0x44 DUP3 ADD MSTORE PUSH1 0x64 ADD PUSH2 0x36F JUMP JUMPDEST PUSH2 0xB8D CALLER DUP3 SLOAD PUSH1 0x1 PUSH1 0x1 PUSH1 0xA0 SHL SUB AND SWAP1 ADDRESS DUP11 PUSH2 0x170E JUMP JUMPDEST DUP1 SLOAD PUSH1 0x2 DUP3 ADD SLOAD PUSH0 SWAP2 PUSH2 0xBB2 SWAP2 PUSH1 0x1 PUSH1 0x1 PUSH1 0xA0 SHL SUB SWAP2 DUP3 AND SWAP2 DUP12 SWAP2 AND DUP11 DUP11 DUP11 DUP11 PUSH2 0x174D JUMP JUMPDEST DUP3 SLOAD PUSH1 0x1 DUP5 ADD SLOAD SWAP2 SWAP3 POP PUSH0 SWAP2 PUSH4 0x1E13380 SWAP2 PUSH1 0x1 PUSH1 0x1 PUSH1 0x60 SHL SUB PUSH1 0x1 PUSH1 0xA0 SHL SWAP2 DUP3 SWAP1 DIV DUP2 AND SWAP3 PUSH2 0x2710 SWAP3 PUSH2 0xBE9 SWAP3 SWAP2 DIV AND DUP7 PUSH2 0x1EA3 JUMP JUMPDEST PUSH2 0xBF3 SWAP2 SWAP1 PUSH2 0x1EBA JUMP JUMPDEST PUSH2 0xBFD SWAP2 SWAP1 PUSH2 0x1EA3 JUMP JUMPDEST PUSH2 0xC07 SWAP2 SWAP1 PUSH2 0x1EBA JUMP JUMPDEST SWAP1 POP PUSH0 PUSH32 0x0 PUSH1 0x1 PUSH1 0x1 PUSH1 0xA0 SHL SUB AND PUSH4 0x8EF1E259 CALLER PUSH1 0x40 MLOAD PUSH1 0x1 PUSH1 0x1 PUSH1 0xE0 SHL SUB NOT PUSH1 0xE0 DUP5 SWAP1 SHL AND DUP2 MSTORE PUSH1 0x1 PUSH1 0x1 PUSH1 0xA0 SHL SUB SWAP1 SWAP2 AND PUSH1 0x4 DUP3 ADD MSTORE PUSH1 0x24 ADD PUSH1 0x20 PUSH1 0x40 MLOAD DUP1 DUP4 SUB DUP2 DUP7 GAS STATICCALL ISZERO DUP1 ISZERO PUSH2 0xC7C JUMPI RETURNDATASIZE PUSH0 PUSH0 RETURNDATACOPY RETURNDATASIZE PUSH0 REVERT JUMPDEST POP POP POP POP PUSH1 0x40 MLOAD RETURNDATASIZE PUSH1 0x1F NOT PUSH1 0x1F DUP3 ADD AND DUP3 ADD DUP1 PUSH1 0x40 MSTORE POP DUP2 ADD SWAP1 PUSH2 0xCA0 SWAP2 SWAP1 PUSH2 0x1ED9 JUMP JUMPDEST ISZERO PUSH2 0xD86 JUMPI PUSH32 0x0 PUSH1 0x1 PUSH1 0x1 PUSH1 0xA0 SHL SUB AND PUSH4 0x9A3BFDF5 PUSH1 0x40 MLOAD DUP2 PUSH4 0xFFFFFFFF AND PUSH1 0xE0 SHL DUP2 MSTORE PUSH1 0x4 ADD PUSH1 0x20 PUSH1 0x40 MLOAD DUP1 DUP4 SUB DUP2 DUP7 GAS STATICCALL ISZERO DUP1 ISZERO PUSH2 0xD01 JUMPI RETURNDATASIZE PUSH0 PUSH0 RETURNDATACOPY RETURNDATASIZE PUSH0 REVERT JUMPDEST POP POP POP POP PUSH1 0x40 MLOAD RETURNDATASIZE PUSH1 0x1F NOT PUSH1 0x1F DUP3 ADD AND DUP3 ADD DUP1 PUSH1 0x40 MSTORE POP DUP2 ADD SWAP1 PUSH2 0xD25 SWAP2 SWAP1 PUSH2 0x1EF8 JUMP JUMPDEST DUP5 SLOAD PUSH1 0x2 DUP7 ADD SLOAD SWAP2 SWAP3 POP PUSH4 0x1E13380 SWAP2 PUSH1 0x1 PUSH1 0x1 PUSH1 0x60 SHL SUB PUSH1 0x1 PUSH1 0xA0 SHL SWAP3 DUP4 SWAP1 DIV DUP2 AND SWAP3 PUSH2 0x2710 SWAP3 PUSH2 0xD5B SWAP3 SWAP2 SWAP1 DIV AND DUP8 PUSH2 0x1EA3 JUMP JUMPDEST PUSH2 0xD65 SWAP2 SWAP1 PUSH2 0x1EBA JUMP JUMPDEST PUSH2 0xD6F SWAP2 SWAP1 PUSH2 0x1EA3 JUMP JUMPDEST PUSH2 0xD79 SWAP2 SWAP1 PUSH2 0x1EBA JUMP JUMPDEST PUSH2 0xD83 SWAP1 DUP4 PUSH2 0x1F0F JUMP JUMPDEST SWAP2 POP JUMPDEST DUP4 SLOAD PUSH0 SWAP1 PUSH1 0x1 PUSH1 0xA0 SHL SWAP1 DIV PUSH1 0x1 PUSH1 0x1 PUSH1 0x60 SHL SUB AND TIMESTAMP PUSH2 0xDA5 SWAP2 SWAP1 PUSH2 0x1D93 JUMP JUMPDEST SWAP1 POP PUSH1 0x40 MLOAD DUP1 PUSH1 0xC0 ADD PUSH1 0x40 MSTORE DUP1 DUP14 DUP2 MSTORE PUSH1 0x20 ADD PUSH2 0xDBF CALLER SWAP1 JUMP JUMPDEST PUSH1 0x1 PUSH1 0x1 PUSH1 0xA0 SHL SUB AND DUP2 MSTORE PUSH1 0x20 ADD DUP3 PUSH1 0x1 PUSH1 0x1 PUSH1 0x60 SHL SUB AND DUP2 MSTORE PUSH1 0x20 ADD DUP13 DUP2 MSTORE PUSH1 0x20 ADD DUP5 DUP2 MSTORE PUSH1 0x20 ADD DUP4 DUP2 MSTORE POP PUSH1 0x3 PUSH0 PUSH1 0x4 SLOAD DUP2 MSTORE PUSH1 0x20 ADD SWAP1 DUP2 MSTORE PUSH1 0x20 ADD PUSH0 KECCAK256 PUSH0 DUP3 ADD MLOAD DUP2 PUSH0 ADD SSTORE PUSH1 0x20 DUP3 ADD MLOAD DUP2 PUSH1 0x1 ADD PUSH0 PUSH2 0x100 EXP DUP2 SLOAD DUP2 PUSH1 0x1 PUSH1 0x1 PUSH1 0xA0 SHL SUB MUL NOT AND SWAP1 DUP4 PUSH1 0x1 PUSH1 0x1 PUSH1 0xA0 SHL SUB AND MUL OR SWAP1 SSTORE POP PUSH1 0x40 DUP3 ADD MLOAD DUP2 PUSH1 0x1 ADD PUSH1 0x14 PUSH2 0x100 EXP DUP2 SLOAD DUP2 PUSH1 0x1 PUSH1 0x1 PUSH1 0x60 SHL SUB MUL NOT AND SWAP1 DUP4 PUSH1 0x1 PUSH1 0x1 PUSH1 0x60 SHL SUB AND MUL OR SWAP1 SSTORE POP PUSH1 0x60 DUP3 ADD MLOAD DUP2 PUSH1 0x2 ADD SSTORE PUSH1 0x80 DUP3 ADD MLOAD DUP2 PUSH1 0x3 ADD SSTORE PUSH1 0xA0 DUP3 ADD MLOAD DUP2 PUSH1 0x4 ADD SSTORE SWAP1 POP POP DUP3 PUSH1 0x5 PUSH0 DUP8 PUSH1 0x1 ADD PUSH0 SWAP1 SLOAD SWAP1 PUSH2 0x100 EXP SWAP1 DIV PUSH1 0x1 PUSH1 0x1 PUSH1 0xA0 SHL SUB AND PUSH1 0x1 PUSH1 0x1 PUSH1 0xA0 SHL SUB AND PUSH1 0x1 PUSH1 0x1 PUSH1 0xA0 SHL SUB AND DUP2 MSTORE PUSH1 0x20 ADD SWAP1 DUP2 MSTORE PUSH1 0x20 ADD PUSH0 KECCAK256 PUSH0 DUP3 DUP3 SLOAD PUSH2 0xEC9 SWAP2 SWAP1 PUSH2 0x1F0F JUMP JUMPDEST SWAP1 SWAP2 SSTORE POP POP PUSH1 0x4 SLOAD PUSH1 0x40 DUP1 MLOAD SWAP2 DUP3 MSTORE PUSH1 0x1 PUSH1 0x1 PUSH1 0x60 SHL SUB DUP4 AND PUSH1 0x20 DUP4 ADD MSTORE DUP2 DUP2 ADD DUP14 SWAP1 MSTORE PUSH1 0x60 DUP3 ADD DUP6 SWAP1 MSTORE PUSH1 0x80 DUP3 ADD DUP5 SWAP1 MSTORE MLOAD DUP14 SWAP2 CALLER SWAP2 PUSH32 0xC48192CF3609B4932A8B10A6F09FE1CAC38610FDEF14EACC15B35C454DA0B4C5 SWAP2 DUP2 SWAP1 SUB PUSH1 0xA0 ADD SWAP1 LOG3 PUSH1 0x4 DUP1 SLOAD SWAP1 PUSH0 PUSH2 0xF39 DUP4 PUSH2 0x1F22 JUMP JUMPDEST SWAP2 SWAP1 POP SSTORE POP POP POP POP POP POP POP PUSH2 0xF4D PUSH1 0x1 DUP1 SSTORE JUMP JUMPDEST POP POP POP POP POP POP JUMP JUMPDEST PUSH2 0xF5D PUSH2 0x1654 JUMP JUMPDEST DUP2 PUSH0 DUP2 GT DUP1 ISZERO PUSH2 0xF6E JUMPI POP PUSH1 0x2 SLOAD DUP2 LT JUMPDEST PUSH2 0xF8A JUMPI PUSH1 0x40 MLOAD PUSH3 0x461BCD PUSH1 0xE5 SHL DUP2 MSTORE PUSH1 0x4 ADD PUSH2 0x36F SWAP1 PUSH2 0x1DDF JUMP JUMPDEST PUSH3 0x186A0 DUP3 PUSH1 0x1 PUSH1 0x1 PUSH1 0x60 SHL SUB AND GT ISZERO PUSH2 0xFE6 JUMPI PUSH1 0x40 MLOAD PUSH3 0x461BCD PUSH1 0xE5 SHL DUP2 MSTORE PUSH1 0x20 PUSH1 0x4 DUP3 ADD DUP2 SWAP1 MSTORE PUSH1 0x24 DUP3 ADD MSTORE PUSH32 0x4C505374616B696E673A6D617820626F6E757320617079206973203130303025 PUSH1 0x44 DUP3 ADD MSTORE PUSH1 0x64 ADD PUSH2 0x36F JUMP JUMPDEST DUP2 PUSH1 0x2 DUP5 DUP2 SLOAD DUP2 LT PUSH2 0xFFA JUMPI PUSH2 0xFFA PUSH2 0x1DB8 JUMP JUMPDEST PUSH0 SWAP2 DUP3 MSTORE PUSH1 0x20 SWAP2 DUP3 SWAP1 KECCAK256 PUSH1 0x3 SWAP2 SWAP1 SWAP2 MUL ADD PUSH1 0x2 ADD DUP1 SLOAD PUSH1 0x1 PUSH1 0x1 PUSH1 0xA0 SHL SUB AND PUSH1 0x1 PUSH1 0xA0 SHL PUSH1 0x1 PUSH1 0x1 PUSH1 0x60 SHL SUB SWAP5 DUP6 AND MUL OR SWAP1 SSTORE PUSH1 0x40 MLOAD SWAP2 DUP5 AND DUP3 MSTORE DUP5 SWAP2 PUSH32 0xD3CD184B56B5B95016981FC55484FF8FDF06EB587430055C7AB828A0EDC0DC9D SWAP2 ADD PUSH2 0x566 JUMP JUMPDEST PUSH0 PUSH2 0x1068 PUSH2 0x1654 JUMP JUMPDEST PUSH0 DUP5 PUSH1 0x1 PUSH1 0x1 PUSH1 0x60 SHL SUB AND GT PUSH2 0x10D2 JUMPI PUSH1 0x40 MLOAD PUSH3 0x461BCD PUSH1 0xE5 SHL DUP2 MSTORE PUSH1 0x20 PUSH1 0x4 DUP3 ADD MSTORE PUSH1 0x29 PUSH1 0x24 DUP3 ADD MSTORE PUSH32 0x4C505374616B696E673A6D61747572697479206D757374206265206772656174 PUSH1 0x44 DUP3 ADD MSTORE PUSH9 0x6572207468616E203 PUSH1 0xBC SHL PUSH1 0x64 DUP3 ADD MSTORE PUSH1 0x84 ADD PUSH2 0x36F JUMP JUMPDEST DUP7 PUSH1 0x1 PUSH1 0x1 PUSH1 0xA0 SHL SUB AND DUP7 PUSH1 0x1 PUSH1 0x1 PUSH1 0xA0 SHL SUB AND PUSH4 0x217A4B70 PUSH1 0x40 MLOAD DUP2 PUSH4 0xFFFFFFFF AND PUSH1 0xE0 SHL DUP2 MSTORE PUSH1 0x4 ADD PUSH1 0x20 PUSH1 0x40 MLOAD DUP1 DUP4 SUB DUP2 DUP7 GAS STATICCALL ISZERO DUP1 ISZERO PUSH2 0x1118 JUMPI RETURNDATASIZE PUSH0 PUSH0 RETURNDATACOPY RETURNDATASIZE PUSH0 REVERT JUMPDEST POP POP POP POP PUSH1 0x40 MLOAD RETURNDATASIZE PUSH1 0x1F NOT PUSH1 0x1F DUP3 ADD AND DUP3 ADD DUP1 PUSH1 0x40 MSTORE POP DUP2 ADD SWAP1 PUSH2 0x113C SWAP2 SWAP1 PUSH2 0x1F3A JUMP JUMPDEST PUSH1 0x1 PUSH1 0x1 PUSH1 0xA0 SHL SUB AND EQ PUSH2 0x11C2 JUMPI PUSH1 0x40 MLOAD PUSH3 0x461BCD PUSH1 0xE5 SHL DUP2 MSTORE PUSH1 0x20 PUSH1 0x4 DUP3 ADD MSTORE PUSH1 0x41 PUSH1 0x24 DUP3 ADD MSTORE PUSH32 0x4C505374616B696E673A726577617264735F746F6B656E206D75737420626520 PUSH1 0x44 DUP3 ADD MSTORE PUSH32 0x657175616C20746F2070726963655F6F7261636C652071756F746520746F6B65 PUSH1 0x64 DUP3 ADD MSTORE PUSH1 0x37 PUSH1 0xF9 SHL PUSH1 0x84 DUP3 ADD MSTORE PUSH1 0xA4 ADD PUSH2 0x36F JUMP JUMPDEST PUSH1 0x40 DUP1 MLOAD PUSH1 0xC0 DUP2 ADD DUP3 MSTORE PUSH1 0x1 PUSH1 0x1 PUSH1 0xA0 SHL SUB DUP11 DUP2 AND DUP3 MSTORE PUSH1 0x1 PUSH1 0x1 PUSH1 0x60 SHL SUB DUP8 DUP2 AND PUSH1 0x20 DUP5 ADD SWAP1 DUP2 MSTORE DUP12 DUP4 AND SWAP5 DUP5 ADD SWAP5 DUP6 MSTORE DUP8 DUP3 AND PUSH1 0x60 DUP6 ADD SWAP1 DUP2 MSTORE DUP12 DUP5 AND PUSH1 0x80 DUP7 ADD SWAP1 DUP2 MSTORE DUP9 DUP5 AND PUSH1 0xA0 DUP8 ADD SWAP1 DUP2 MSTORE PUSH1 0x2 DUP1 SLOAD PUSH1 0x1 DUP1 DUP3 ADD DUP4 SSTORE PUSH0 DUP4 DUP2 MSTORE SWAP10 MLOAD SWAP7 MLOAD SWAP7 DUP10 AND PUSH1 0x1 PUSH1 0xA0 SHL SWAP8 DUP10 AND DUP9 MUL OR PUSH32 0x405787FA12A823E0F2B7631CC41B3BA8828B3321CA811111FA75CD3AA3BB5ACE PUSH1 0x3 SWAP1 SWAP4 MUL SWAP3 DUP4 ADD SSTORE SWAP10 MLOAD SWAP5 MLOAD SWAP5 DUP9 AND SWAP5 DUP8 AND DUP7 MUL SWAP5 SWAP1 SWAP5 OR PUSH32 0x405787FA12A823E0F2B7631CC41B3BA8828B3321CA811111FA75CD3AA3BB5ACF DUP6 ADD SSTORE SWAP2 MLOAD SWAP1 MLOAD SWAP6 AND SWAP5 SWAP1 SWAP4 AND SWAP1 SWAP2 MUL SWAP3 SWAP1 SWAP3 OR PUSH32 0x405787FA12A823E0F2B7631CC41B3BA8828B3321CA811111FA75CD3AA3BB5AD0 SWAP1 SWAP3 ADD SWAP2 SWAP1 SWAP2 SSTORE SLOAD SWAP1 SWAP2 PUSH2 0x12D6 SWAP2 PUSH2 0x1DCC JUMP JUMPDEST SWAP1 POP DUP8 PUSH1 0x1 PUSH1 0x1 PUSH1 0xA0 SHL SUB AND DUP10 PUSH1 0x1 PUSH1 0x1 PUSH1 0xA0 SHL SUB AND DUP3 PUSH32 0x6B64B7E8B6F4656658EFB1C74B7D1BBFF6E84D3D7B1CD5AE89FD6CD91DE6EF96 DUP11 DUP10 DUP10 DUP10 PUSH1 0x40 MLOAD PUSH2 0x134F SWAP5 SWAP4 SWAP3 SWAP2 SWAP1 PUSH1 0x1 PUSH1 0x1 PUSH1 0xA0 SHL SUB SWAP5 SWAP1 SWAP5 AND DUP5 MSTORE PUSH1 0x1 PUSH1 0x1 PUSH1 0x60 SHL SUB SWAP3 DUP4 AND PUSH1 0x20 DUP6 ADD MSTORE SWAP1 DUP3 AND PUSH1 0x40 DUP5 ADD MSTORE AND PUSH1 0x60 DUP3 ADD MSTORE PUSH1 0x80 ADD SWAP1 JUMP JUMPDEST PUSH1 0x40 MLOAD DUP1 SWAP2 SUB SWAP1 LOG4 DUP6 ISZERO PUSH2 0x1367 JUMPI PUSH2 0x1367 DUP9 DUP8 PUSH2 0x14C2 JUMP JUMPDEST SWAP9 SWAP8 POP POP POP POP POP POP POP POP JUMP JUMPDEST PUSH2 0x137B PUSH2 0x1654 JUMP JUMPDEST PUSH2 0x1384 PUSH0 PUSH2 0x191D JUMP JUMPDEST JUMP JUMPDEST PUSH2 0x138E PUSH2 0x1654 JUMP JUMPDEST PUSH1 0x1 PUSH1 0x1 PUSH1 0xA0 SHL SUB DUP4 AND PUSH0 SWAP1 DUP2 MSTORE PUSH1 0x5 PUSH1 0x20 MSTORE PUSH1 0x40 SWAP1 KECCAK256 SLOAD PUSH2 0x13B0 SWAP1 DUP3 PUSH2 0x1F0F JUMP JUMPDEST PUSH1 0x40 MLOAD PUSH4 0x70A08231 PUSH1 0xE0 SHL DUP2 MSTORE ADDRESS PUSH1 0x4 DUP3 ADD MSTORE PUSH1 0x1 PUSH1 0x1 PUSH1 0xA0 SHL SUB DUP6 AND SWAP1 PUSH4 0x70A08231 SWAP1 PUSH1 0x24 ADD PUSH1 0x20 PUSH1 0x40 MLOAD DUP1 DUP4 SUB DUP2 DUP7 GAS STATICCALL ISZERO DUP1 ISZERO PUSH2 0x13F2 JUMPI RETURNDATASIZE PUSH0 PUSH0 RETURNDATACOPY RETURNDATASIZE PUSH0 REVERT JUMPDEST POP POP POP POP PUSH1 0x40 MLOAD RETURNDATASIZE PUSH1 0x1F NOT PUSH1 0x1F DUP3 ADD AND DUP3 ADD DUP1 PUSH1 0x40 MSTORE POP DUP2 ADD SWAP1 PUSH2 0x1416 SWAP2 SWAP1 PUSH2 0x1EF8 JUMP JUMPDEST LT ISZERO PUSH2 0x145C JUMPI PUSH1 0x40 MLOAD PUSH3 0x461BCD PUSH1 0xE5 SHL DUP2 MSTORE PUSH1 0x20 PUSH1 0x4 DUP3 ADD MSTORE PUSH1 0x15 PUSH1 0x24 DUP3 ADD MSTORE PUSH21 0x496E73756666696369656E742062616C616E636521 PUSH1 0x58 SHL PUSH1 0x44 DUP3 ADD MSTORE PUSH1 0x64 ADD PUSH2 0x36F JUMP JUMPDEST PUSH2 0x1470 PUSH1 0x1 PUSH1 0x1 PUSH1 0xA0 SHL SUB DUP5 AND DUP4 DUP4 PUSH2 0x16AA JUMP JUMPDEST DUP2 PUSH1 0x1 PUSH1 0x1 PUSH1 0xA0 SHL SUB AND DUP4 PUSH1 0x1 PUSH1 0x1 PUSH1 0xA0 SHL SUB AND PUSH32 0xE06FAB35F3C220725C11D544884AFF93EBF67222C8310C487C71F27C844593E8 DUP4 PUSH1 0x40 MLOAD PUSH2 0x14B5 SWAP2 DUP2 MSTORE PUSH1 0x20 ADD SWAP1 JUMP JUMPDEST PUSH1 0x40 MLOAD DUP1 SWAP2 SUB SWAP1 LOG3 POP POP POP JUMP JUMPDEST PUSH0 DUP2 GT PUSH2 0x1525 JUMPI PUSH1 0x40 MLOAD PUSH3 0x461BCD PUSH1 0xE5 SHL DUP2 MSTORE PUSH1 0x20 PUSH1 0x4 DUP3 ADD MSTORE PUSH1 0x2B PUSH1 0x24 DUP3 ADD MSTORE PUSH32 0x4C505374616B696E673A616D6F756E74206D7573742062652067726561746572 PUSH1 0x44 DUP3 ADD MSTORE PUSH11 0x207468616E207A65726F21 PUSH1 0xA8 SHL PUSH1 0x64 DUP3 ADD MSTORE PUSH1 0x84 ADD PUSH2 0x36F JUMP JUMPDEST PUSH2 0x153A PUSH1 0x1 PUSH1 0x1 PUSH1 0xA0 SHL SUB DUP4 AND CALLER ADDRESS DUP5 PUSH2 0x170E JUMP JUMPDEST DUP2 PUSH1 0x1 PUSH1 0x1 PUSH1 0xA0 SHL SUB AND PUSH32 0xAC24935FD910BC682B5CCB1A07B718CADF8CF2F6D1404C4F3DDC3662DAE40E29 DUP3 PUSH1 0x40 MLOAD PUSH2 0x1575 SWAP2 DUP2 MSTORE PUSH1 0x20 ADD SWAP1 JUMP JUMPDEST PUSH1 0x40 MLOAD DUP1 SWAP2 SUB SWAP1 LOG2 POP POP JUMP JUMPDEST PUSH1 0x2 SLOAD PUSH0 SWAP1 PUSH2 0x1592 SWAP1 PUSH1 0x1 SWAP1 PUSH2 0x1DCC JUMP JUMPDEST SWAP1 POP SWAP1 JUMP JUMPDEST PUSH0 PUSH0 PUSH0 PUSH0 PUSH0 PUSH0 DUP7 PUSH0 DUP2 GT DUP1 ISZERO PUSH2 0x15AE JUMPI POP PUSH1 0x4 SLOAD DUP2 LT JUMPDEST PUSH2 0x15CA JUMPI PUSH1 0x40 MLOAD PUSH3 0x461BCD PUSH1 0xE5 SHL DUP2 MSTORE PUSH1 0x4 ADD PUSH2 0x36F SWAP1 PUSH2 0x1D48 JUMP JUMPDEST POP POP POP PUSH0 SWAP5 DUP6 MSTORE POP POP PUSH1 0x3 PUSH1 0x20 DUP2 SWAP1 MSTORE PUSH1 0x40 SWAP1 SWAP4 KECCAK256 PUSH1 0x1 DUP2 ADD SLOAD DUP2 SLOAD PUSH1 0x2 DUP4 ADD SLOAD SWAP6 DUP4 ADD SLOAD PUSH1 0x4 SWAP1 SWAP4 ADD SLOAD PUSH1 0x1 PUSH1 0x1 PUSH1 0xA0 SHL SUB DUP4 AND SWAP8 SWAP2 SWAP7 PUSH1 0x1 PUSH1 0xA0 SHL SWAP1 SWAP4 DIV PUSH1 0x1 PUSH1 0x1 PUSH1 0x60 SHL SUB AND SWAP6 POP SWAP2 SWAP4 POP JUMP JUMPDEST PUSH2 0x1622 PUSH2 0x1654 JUMP JUMPDEST PUSH1 0x1 PUSH1 0x1 PUSH1 0xA0 SHL SUB DUP2 AND PUSH2 0x164B JUMPI PUSH1 0x40 MLOAD PUSH4 0x1E4FBDF7 PUSH1 0xE0 SHL DUP2 MSTORE PUSH0 PUSH1 0x4 DUP3 ADD MSTORE PUSH1 0x24 ADD PUSH2 0x36F JUMP JUMPDEST PUSH2 0x89B DUP2 PUSH2 0x191D JUMP JUMPDEST PUSH0 SLOAD PUSH1 0x1 PUSH1 0x1 PUSH1 0xA0 SHL SUB AND CALLER EQ PUSH2 0x1384 JUMPI PUSH1 0x40 MLOAD PUSH4 0x118CDAA7 PUSH1 0xE0 SHL DUP2 MSTORE CALLER PUSH1 0x4 DUP3 ADD MSTORE PUSH1 0x24 ADD PUSH2 0x36F JUMP JUMPDEST PUSH1 0x2 PUSH1 0x1 SLOAD SUB PUSH2 0x16A3 JUMPI PUSH1 0x40 MLOAD PUSH4 0x3EE5AEB5 PUSH1 0xE0 SHL DUP2 MSTORE PUSH1 0x4 ADD PUSH1 0x40 MLOAD DUP1 SWAP2 SUB SWAP1 REVERT JUMPDEST PUSH1 0x2 PUSH1 0x1 SSTORE JUMP JUMPDEST PUSH1 0x40 MLOAD PUSH1 0x1 PUSH1 0x1 PUSH1 0xA0 SHL SUB DUP4 DUP2 AND PUSH1 0x24 DUP4 ADD MSTORE PUSH1 0x44 DUP3 ADD DUP4 SWAP1 MSTORE PUSH2 0x1709 SWAP2 DUP6 SWAP2 DUP3 AND SWAP1 PUSH4 0xA9059CBB SWAP1 PUSH1 0x64 ADD JUMPDEST PUSH1 0x40 MLOAD PUSH1 0x20 DUP2 DUP4 SUB SUB DUP2 MSTORE SWAP1 PUSH1 0x40 MSTORE SWAP2 POP PUSH1 0xE0 SHL PUSH1 0x20 DUP3 ADD DUP1 MLOAD PUSH1 0x1 PUSH1 0x1 PUSH1 0xE0 SHL SUB DUP4 DUP2 DUP4 AND OR DUP4 MSTORE POP POP POP POP PUSH2 0x196C JUMP JUMPDEST POP POP POP JUMP JUMPDEST PUSH1 0x40 MLOAD PUSH1 0x1 PUSH1 0x1 PUSH1 0xA0 SHL SUB DUP5 DUP2 AND PUSH1 0x24 DUP4 ADD MSTORE DUP4 DUP2 AND PUSH1 0x44 DUP4 ADD MSTORE PUSH1 0x64 DUP3 ADD DUP4 SWAP1 MSTORE PUSH2 0x1747 SWAP2 DUP7 SWAP2 DUP3 AND SWAP1 PUSH4 0x23B872DD SWAP1 PUSH1 0x84 ADD PUSH2 0x16D7 JUMP JUMPDEST POP POP POP POP JUMP JUMPDEST PUSH0 PUSH0 DUP9 SWAP1 POP PUSH0 PUSH0 DUP3 PUSH1 0x1 PUSH1 0x1 PUSH1 0xA0 SHL SUB AND PUSH4 0x902F1AC PUSH1 0x40 MLOAD DUP2 PUSH4 0xFFFFFFFF AND PUSH1 0xE0 SHL DUP2 MSTORE PUSH1 0x4 ADD PUSH1 0x60 PUSH1 0x40 MLOAD DUP1 DUP4 SUB DUP2 DUP7 GAS STATICCALL ISZERO DUP1 ISZERO PUSH2 0x1790 JUMPI RETURNDATASIZE PUSH0 PUSH0 RETURNDATACOPY RETURNDATASIZE PUSH0 REVERT JUMPDEST POP POP POP POP PUSH1 0x40 MLOAD RETURNDATASIZE PUSH1 0x1F NOT PUSH1 0x1F DUP3 ADD AND DUP3 ADD DUP1 PUSH1 0x40 MSTORE POP DUP2 ADD SWAP1 PUSH2 0x17B4 SWAP2 SWAP1 PUSH2 0x1F6B JUMP JUMPDEST POP SWAP2 POP SWAP2 POP PUSH0 PUSH0 PUSH2 0x1826 DUP13 DUP7 PUSH1 0x1 PUSH1 0x1 PUSH1 0xA0 SHL SUB AND PUSH4 0x18160DDD PUSH1 0x40 MLOAD DUP2 PUSH4 0xFFFFFFFF AND PUSH1 0xE0 SHL DUP2 MSTORE PUSH1 0x4 ADD PUSH1 0x20 PUSH1 0x40 MLOAD DUP1 DUP4 SUB DUP2 DUP7 GAS STATICCALL ISZERO DUP1 ISZERO PUSH2 0x17FB JUMPI RETURNDATASIZE PUSH0 PUSH0 RETURNDATACOPY RETURNDATASIZE PUSH0 REVERT JUMPDEST POP POP POP POP PUSH1 0x40 MLOAD RETURNDATASIZE PUSH1 0x1F NOT PUSH1 0x1F DUP3 ADD AND DUP3 ADD DUP1 PUSH1 0x40 MSTORE POP DUP2 ADD SWAP1 PUSH2 0x181F SWAP2 SWAP1 PUSH2 0x1EF8 JUMP JUMPDEST DUP7 DUP7 PUSH2 0x19D8 JUMP JUMPDEST SWAP2 POP SWAP2 POP PUSH2 0x1896 DUP6 PUSH1 0x1 PUSH1 0x1 PUSH1 0xA0 SHL SUB AND PUSH4 0xD21220A7 PUSH1 0x40 MLOAD DUP2 PUSH4 0xFFFFFFFF AND PUSH1 0xE0 SHL DUP2 MSTORE PUSH1 0x4 ADD PUSH1 0x20 PUSH1 0x40 MLOAD DUP1 DUP4 SUB DUP2 DUP7 GAS STATICCALL ISZERO DUP1 ISZERO PUSH2 0x1869 JUMPI RETURNDATASIZE PUSH0 PUSH0 RETURNDATACOPY RETURNDATASIZE PUSH0 REVERT JUMPDEST POP POP POP POP PUSH1 0x40 MLOAD RETURNDATASIZE PUSH1 0x1F NOT PUSH1 0x1F DUP3 ADD AND DUP3 ADD DUP1 PUSH1 0x40 MSTORE POP DUP2 ADD SWAP1 PUSH2 0x188D SWAP2 SWAP1 PUSH2 0x1F3A JUMP JUMPDEST DUP3 DUP14 DUP12 DUP12 PUSH2 0x1A29 JUMP JUMPDEST PUSH2 0x1902 DUP7 PUSH1 0x1 PUSH1 0x1 PUSH1 0xA0 SHL SUB AND PUSH4 0xDFE1681 PUSH1 0x40 MLOAD DUP2 PUSH4 0xFFFFFFFF AND PUSH1 0xE0 SHL DUP2 MSTORE PUSH1 0x4 ADD PUSH1 0x20 PUSH1 0x40 MLOAD DUP1 DUP4 SUB DUP2 DUP7 GAS STATICCALL ISZERO DUP1 ISZERO PUSH2 0x18D5 JUMPI RETURNDATASIZE PUSH0 PUSH0 RETURNDATACOPY RETURNDATASIZE PUSH0 REVERT JUMPDEST POP POP POP POP PUSH1 0x40 MLOAD RETURNDATASIZE PUSH1 0x1F NOT PUSH1 0x1F DUP3 ADD AND DUP3 ADD DUP1 PUSH1 0x40 MSTORE POP DUP2 ADD SWAP1 PUSH2 0x18F9 SWAP2 SWAP1 PUSH2 0x1F3A JUMP JUMPDEST DUP5 DUP15 DUP15 DUP15 PUSH2 0x1A29 JUMP JUMPDEST PUSH2 0x190C SWAP2 SWAP1 PUSH2 0x1F0F JUMP JUMPDEST SWAP14 SWAP13 POP POP POP POP POP POP POP POP POP POP POP POP POP JUMP JUMPDEST PUSH0 DUP1 SLOAD PUSH1 0x1 PUSH1 0x1 PUSH1 0xA0 SHL SUB DUP4 DUP2 AND PUSH1 0x1 PUSH1 0x1 PUSH1 0xA0 SHL SUB NOT DUP4 AND DUP2 OR DUP5 SSTORE PUSH1 0x40 MLOAD SWAP2 SWAP1 SWAP3 AND SWAP3 DUP4 SWAP2 PUSH32 0x8BE0079C531659141344CD1FD0A4F28419497F9722A3DAAFE3B4186F6B6457E0 SWAP2 SWAP1 LOG3 POP POP JUMP JUMPDEST PUSH0 PUSH0 PUSH1 0x20 PUSH0 DUP5 MLOAD PUSH1 0x20 DUP7 ADD PUSH0 DUP9 GAS CALL DUP1 PUSH2 0x198B JUMPI PUSH1 0x40 MLOAD RETURNDATASIZE PUSH0 DUP3 RETURNDATACOPY RETURNDATASIZE DUP2 REVERT JUMPDEST POP POP PUSH0 MLOAD RETURNDATASIZE SWAP2 POP DUP2 ISZERO PUSH2 0x19A2 JUMPI DUP1 PUSH1 0x1 EQ ISZERO PUSH2 0x19AF JUMP JUMPDEST PUSH1 0x1 PUSH1 0x1 PUSH1 0xA0 SHL SUB DUP5 AND EXTCODESIZE ISZERO JUMPDEST ISZERO PUSH2 0x1747 JUMPI PUSH1 0x40 MLOAD PUSH4 0x5274AFE7 PUSH1 0xE0 SHL DUP2 MSTORE PUSH1 0x1 PUSH1 0x1 PUSH1 0xA0 SHL SUB DUP6 AND PUSH1 0x4 DUP3 ADD MSTORE PUSH1 0x24 ADD PUSH2 0x36F JUMP JUMPDEST PUSH0 DUP1 DUP1 DUP6 PUSH2 0x19EF DUP9 PUSH1 0x1 PUSH1 0x1 PUSH1 0x70 SHL SUB DUP9 AND PUSH2 0x1EA3 JUMP JUMPDEST PUSH2 0x19F9 SWAP2 SWAP1 PUSH2 0x1EBA JUMP JUMPDEST SWAP1 POP PUSH0 DUP7 PUSH2 0x1A10 DUP10 PUSH1 0x1 PUSH1 0x1 PUSH1 0x70 SHL SUB DUP9 AND PUSH2 0x1EA3 JUMP JUMPDEST PUSH2 0x1A1A SWAP2 SWAP1 PUSH2 0x1EBA JUMP JUMPDEST SWAP2 SWAP9 SWAP2 SWAP8 POP SWAP1 SWAP6 POP POP POP POP POP POP JUMP JUMPDEST PUSH0 DUP4 PUSH1 0x1 PUSH1 0x1 PUSH1 0xA0 SHL SUB AND PUSH4 0x6A089215 DUP8 DUP8 DUP10 PUSH1 0x1 PUSH1 0x1 PUSH1 0xA0 SHL SUB AND PUSH4 0x313CE567 PUSH1 0x40 MLOAD DUP2 PUSH4 0xFFFFFFFF AND PUSH1 0xE0 SHL DUP2 MSTORE PUSH1 0x4 ADD PUSH1 0x20 PUSH1 0x40 MLOAD DUP1 DUP4 SUB DUP2 DUP7 GAS STATICCALL ISZERO DUP1 ISZERO PUSH2 0x1A77 JUMPI RETURNDATASIZE PUSH0 PUSH0 RETURNDATACOPY RETURNDATASIZE PUSH0 REVERT JUMPDEST POP POP POP POP PUSH1 0x40 MLOAD RETURNDATASIZE PUSH1 0x1F NOT PUSH1 0x1F DUP3 ADD AND DUP3 ADD DUP1 PUSH1 0x40 MSTORE POP DUP2 ADD SWAP1 PUSH2 0x1A9B SWAP2 SWAP1 PUSH2 0x1FB7 JUMP JUMPDEST DUP8 DUP8 PUSH1 0x40 MLOAD DUP7 PUSH4 0xFFFFFFFF AND PUSH1 0xE0 SHL DUP2 MSTORE PUSH1 0x4 ADD PUSH2 0x1ABD SWAP6 SWAP5 SWAP4 SWAP3 SWAP2 SWAP1 PUSH2 0x1FD7 JUMP JUMPDEST PUSH1 0x20 PUSH1 0x40 MLOAD DUP1 DUP4 SUB DUP2 PUSH0 DUP8 GAS CALL ISZERO DUP1 ISZERO PUSH2 0x1AD9 JUMPI RETURNDATASIZE PUSH0 PUSH0 RETURNDATACOPY RETURNDATASIZE PUSH0 REVERT JUMPDEST POP POP POP POP PUSH1 0x40 MLOAD RETURNDATASIZE PUSH1 0x1F NOT PUSH1 0x1F DUP3 ADD AND DUP3 ADD DUP1 PUSH1 0x40 MSTORE POP DUP2 ADD SWAP1 PUSH2 0x1AFD SWAP2 SWAP1 PUSH2 0x1EF8 JUMP JUMPDEST SWAP7 SWAP6 POP POP POP POP POP POP JUMP JUMPDEST PUSH0 PUSH1 0x20 DUP3 DUP5 SUB SLT ISZERO PUSH2 0x1B17 JUMPI PUSH0 PUSH0 REVERT JUMPDEST POP CALLDATALOAD SWAP2 SWAP1 POP JUMP JUMPDEST DUP1 CALLDATALOAD PUSH1 0x1 PUSH1 0x1 PUSH1 0x60 SHL SUB DUP2 AND DUP2 EQ PUSH2 0x1B34 JUMPI PUSH0 PUSH0 REVERT JUMPDEST SWAP2 SWAP1 POP JUMP JUMPDEST PUSH0 PUSH0 PUSH1 0x40 DUP4 DUP6 SUB SLT ISZERO PUSH2 0x1B4A JUMPI PUSH0 PUSH0 REVERT JUMPDEST DUP3 CALLDATALOAD SWAP2 POP PUSH2 0x1B5A PUSH1 0x20 DUP5 ADD PUSH2 0x1B1E JUMP JUMPDEST SWAP1 POP SWAP3 POP SWAP3 SWAP1 POP JUMP JUMPDEST PUSH0 PUSH0 DUP4 PUSH1 0x1F DUP5 ADD SLT PUSH2 0x1B73 JUMPI PUSH0 PUSH0 REVERT JUMPDEST POP DUP2 CALLDATALOAD PUSH8 0xFFFFFFFFFFFFFFFF DUP2 GT ISZERO PUSH2 0x1B8A JUMPI PUSH0 PUSH0 REVERT JUMPDEST PUSH1 0x20 DUP4 ADD SWAP2 POP DUP4 PUSH1 0x20 DUP3 DUP6 ADD ADD GT ISZERO PUSH2 0x1BA1 JUMPI PUSH0 PUSH0 REVERT JUMPDEST SWAP3 POP SWAP3 SWAP1 POP JUMP JUMPDEST PUSH0 PUSH0 PUSH0 PUSH0 PUSH0 PUSH0 PUSH1 0x80 DUP8 DUP10 SUB SLT ISZERO PUSH2 0x1BBD JUMPI PUSH0 PUSH0 REVERT JUMPDEST DUP7 CALLDATALOAD SWAP6 POP PUSH1 0x20 DUP8 ADD CALLDATALOAD SWAP5 POP PUSH1 0x40 DUP8 ADD CALLDATALOAD PUSH8 0xFFFFFFFFFFFFFFFF DUP2 GT ISZERO PUSH2 0x1BE1 JUMPI PUSH0 PUSH0 REVERT JUMPDEST PUSH2 0x1BED DUP10 DUP3 DUP11 ADD PUSH2 0x1B63 JUMP JUMPDEST SWAP1 SWAP6 POP SWAP4 POP POP PUSH1 0x60 DUP8 ADD CALLDATALOAD PUSH8 0xFFFFFFFFFFFFFFFF DUP2 GT ISZERO PUSH2 0x1C0C JUMPI PUSH0 PUSH0 REVERT JUMPDEST PUSH2 0x1C18 DUP10 DUP3 DUP11 ADD PUSH2 0x1B63 JUMP JUMPDEST SWAP8 SWAP11 SWAP7 SWAP10 POP SWAP5 SWAP8 POP SWAP3 SWAP6 SWAP4 SWAP5 SWAP3 POP POP POP JUMP JUMPDEST PUSH1 0x1 PUSH1 0x1 PUSH1 0xA0 SHL SUB DUP2 AND DUP2 EQ PUSH2 0x89B JUMPI PUSH0 PUSH0 REVERT JUMPDEST PUSH0 PUSH0 PUSH0 PUSH0 PUSH0 PUSH0 PUSH0 PUSH1 0xE0 DUP9 DUP11 SUB SLT ISZERO PUSH2 0x1C54 JUMPI PUSH0 PUSH0 REVERT JUMPDEST DUP8 CALLDATALOAD PUSH2 0x1C5F DUP2 PUSH2 0x1C2A JUMP JUMPDEST SWAP7 POP PUSH1 0x20 DUP9 ADD CALLDATALOAD PUSH2 0x1C6F DUP2 PUSH2 0x1C2A JUMP JUMPDEST SWAP6 POP PUSH1 0x40 DUP9 ADD CALLDATALOAD PUSH2 0x1C7F DUP2 PUSH2 0x1C2A JUMP JUMPDEST SWAP5 POP PUSH1 0x60 DUP9 ADD CALLDATALOAD SWAP4 POP PUSH2 0x1C94 PUSH1 0x80 DUP10 ADD PUSH2 0x1B1E JUMP JUMPDEST SWAP3 POP PUSH2 0x1CA2 PUSH1 0xA0 DUP10 ADD PUSH2 0x1B1E JUMP JUMPDEST SWAP2 POP PUSH2 0x1CB0 PUSH1 0xC0 DUP10 ADD PUSH2 0x1B1E JUMP JUMPDEST SWAP1 POP SWAP3 SWAP6 SWAP9 SWAP2 SWAP5 SWAP8 POP SWAP3 SWAP6 POP JUMP JUMPDEST PUSH0 PUSH0 PUSH0 PUSH1 0x60 DUP5 DUP7 SUB SLT ISZERO PUSH2 0x1CD0 JUMPI PUSH0 PUSH0 REVERT JUMPDEST DUP4 CALLDATALOAD PUSH2 0x1CDB DUP2 PUSH2 0x1C2A JUMP JUMPDEST SWAP3 POP PUSH1 0x20 DUP5 ADD CALLDATALOAD PUSH2 0x1CEB DUP2 PUSH2 0x1C2A JUMP JUMPDEST SWAP3 SWAP6 SWAP3 SWAP5 POP POP POP PUSH1 0x40 SWAP2 SWAP1 SWAP2 ADD CALLDATALOAD SWAP1 JUMP JUMPDEST PUSH0 PUSH1 0x20 DUP3 DUP5 SUB SLT ISZERO PUSH2 0x1D0C JUMPI PUSH0 PUSH0 REVERT JUMPDEST DUP2 CALLDATALOAD PUSH2 0x1D17 DUP2 PUSH2 0x1C2A JUMP JUMPDEST SWAP4 SWAP3 POP POP POP JUMP JUMPDEST PUSH0 PUSH0 PUSH1 0x40 DUP4 DUP6 SUB SLT ISZERO PUSH2 0x1D2F JUMPI PUSH0 PUSH0 REVERT JUMPDEST DUP3 CALLDATALOAD PUSH2 0x1D3A DUP2 PUSH2 0x1C2A JUMP JUMPDEST SWAP5 PUSH1 0x20 SWAP4 SWAP1 SWAP4 ADD CALLDATALOAD SWAP4 POP POP POP JUMP JUMPDEST PUSH1 0x20 DUP1 DUP3 MSTORE PUSH1 0x1B SWAP1 DUP3 ADD MSTORE PUSH32 0x4C505374616B696E673A496E76616C6964205374616B65204944210000000000 PUSH1 0x40 DUP3 ADD MSTORE PUSH1 0x60 ADD SWAP1 JUMP JUMPDEST PUSH4 0x4E487B71 PUSH1 0xE0 SHL PUSH0 MSTORE PUSH1 0x11 PUSH1 0x4 MSTORE PUSH1 0x24 PUSH0 REVERT JUMPDEST PUSH1 0x1 PUSH1 0x1 PUSH1 0x60 SHL SUB DUP2 DUP2 AND DUP4 DUP3 AND ADD SWAP1 DUP2 GT ISZERO PUSH2 0x1DB2 JUMPI PUSH2 0x1DB2 PUSH2 0x1D7F JUMP JUMPDEST SWAP3 SWAP2 POP POP JUMP JUMPDEST PUSH4 0x4E487B71 PUSH1 0xE0 SHL PUSH0 MSTORE PUSH1 0x32 PUSH1 0x4 MSTORE PUSH1 0x24 PUSH0 REVERT JUMPDEST DUP2 DUP2 SUB DUP2 DUP2 GT ISZERO PUSH2 0x1DB2 JUMPI PUSH2 0x1DB2 PUSH2 0x1D7F JUMP JUMPDEST PUSH1 0x20 DUP1 DUP3 MSTORE PUSH1 0x1A SWAP1 DUP3 ADD MSTORE PUSH32 0x4C505374616B696E673A496E76616C696420506F6F6C20494421000000000000 PUSH1 0x40 DUP3 ADD MSTORE PUSH1 0x60 ADD SWAP1 JUMP JUMPDEST PUSH1 0x20 DUP1 DUP3 MSTORE PUSH1 0x21 SWAP1 DUP3 ADD MSTORE PUSH32 0x4C505374616B696E673A43616C6C6572206973206E6F7420746865206F776E65 PUSH1 0x40 DUP3 ADD MSTORE PUSH1 0x39 PUSH1 0xF9 SHL PUSH1 0x60 DUP3 ADD MSTORE PUSH1 0x80 ADD SWAP1 JUMP JUMPDEST PUSH1 0x20 DUP1 DUP3 MSTORE PUSH1 0x2C SWAP1 DUP3 ADD MSTORE PUSH32 0x4C505374616B696E673A4561726C79205769746864726177616C206973206E6F PUSH1 0x40 DUP3 ADD MSTORE PUSH12 0x74207065726D697474656421 PUSH1 0xA0 SHL PUSH1 0x60 DUP3 ADD MSTORE PUSH1 0x80 ADD SWAP1 JUMP JUMPDEST DUP1 DUP3 MUL DUP2 ISZERO DUP3 DUP3 DIV DUP5 EQ OR PUSH2 0x1DB2 JUMPI PUSH2 0x1DB2 PUSH2 0x1D7F JUMP JUMPDEST PUSH0 DUP3 PUSH2 0x1ED4 JUMPI PUSH4 0x4E487B71 PUSH1 0xE0 SHL PUSH0 MSTORE PUSH1 0x12 PUSH1 0x4 MSTORE PUSH1 0x24 PUSH0 REVERT JUMPDEST POP DIV SWAP1 JUMP JUMPDEST PUSH0 PUSH1 0x20 DUP3 DUP5 SUB SLT ISZERO PUSH2 0x1EE9 JUMPI PUSH0 PUSH0 REVERT JUMPDEST DUP2 MLOAD DUP1 ISZERO ISZERO DUP2 EQ PUSH2 0x1D17 JUMPI PUSH0 PUSH0 REVERT JUMPDEST PUSH0 PUSH1 0x20 DUP3 DUP5 SUB SLT ISZERO PUSH2 0x1F08 JUMPI PUSH0 PUSH0 REVERT JUMPDEST POP MLOAD SWAP2 SWAP1 POP JUMP JUMPDEST DUP1 DUP3 ADD DUP1 DUP3 GT ISZERO PUSH2 0x1DB2 JUMPI PUSH2 0x1DB2 PUSH2 0x1D7F JUMP JUMPDEST PUSH0 PUSH1 0x1 DUP3 ADD PUSH2 0x1F33 JUMPI PUSH2 0x1F33 PUSH2 0x1D7F JUMP JUMPDEST POP PUSH1 0x1 ADD SWAP1 JUMP JUMPDEST PUSH0 PUSH1 0x20 DUP3 DUP5 SUB SLT ISZERO PUSH2 0x1F4A JUMPI PUSH0 PUSH0 REVERT JUMPDEST DUP2 MLOAD PUSH2 0x1D17 DUP2 PUSH2 0x1C2A JUMP JUMPDEST DUP1 MLOAD PUSH1 0x1 PUSH1 0x1 PUSH1 0x70 SHL SUB DUP2 AND DUP2 EQ PUSH2 0x1B34 JUMPI PUSH0 PUSH0 REVERT JUMPDEST PUSH0 PUSH0 PUSH0 PUSH1 0x60 DUP5 DUP7 SUB SLT ISZERO PUSH2 0x1F7D JUMPI PUSH0 PUSH0 REVERT JUMPDEST PUSH2 0x1F86 DUP5 PUSH2 0x1F55 JUMP JUMPDEST SWAP3 POP PUSH2 0x1F94 PUSH1 0x20 DUP6 ADD PUSH2 0x1F55 JUMP JUMPDEST SWAP2 POP PUSH1 0x40 DUP5 ADD MLOAD PUSH4 0xFFFFFFFF DUP2 AND DUP2 EQ PUSH2 0x1FAC JUMPI PUSH0 PUSH0 REVERT JUMPDEST DUP1 SWAP2 POP POP SWAP3 POP SWAP3 POP SWAP3 JUMP JUMPDEST PUSH0 PUSH1 0x20 DUP3 DUP5 SUB SLT ISZERO PUSH2 0x1FC7 JUMPI PUSH0 PUSH0 REVERT JUMPDEST DUP2 MLOAD PUSH1 0xFF DUP2 AND DUP2 EQ PUSH2 0x1D17 JUMPI PUSH0 PUSH0 REVERT JUMPDEST PUSH1 0x1 PUSH1 0x1 PUSH1 0xA0 SHL SUB DUP7 AND DUP2 MSTORE PUSH1 0x20 DUP2 ADD DUP6 SWAP1 MSTORE PUSH1 0xFF DUP5 AND PUSH1 0x40 DUP3 ADD MSTORE PUSH1 0x80 PUSH1 0x60 DUP3 ADD DUP2 SWAP1 MSTORE DUP2 ADD DUP3 SWAP1 MSTORE DUP2 DUP4 PUSH1 0xA0 DUP4 ADD CALLDATACOPY PUSH0 DUP2 DUP4 ADD PUSH1 0xA0 SWAP1 DUP2 ADD SWAP2 SWAP1 SWAP2 MSTORE PUSH1 0x1F SWAP1 SWAP3 ADD PUSH1 0x1F NOT AND ADD ADD SWAP5 SWAP4 POP POP POP POP JUMP INVALID LOG2 PUSH5 0x6970667358 0x22 SLT KECCAK256 DUP13 RETURNCONTRACT 0xD3 0x2F 0xAA 0xC3 XOR 0xBE GAS 0xD3 0x4E COINBASE CALLDATALOAD SWAP8 0xA7 LOG4 0xC3 0xA5 PUSH16 0xDB997326EE0AFFB187024896B064736F PUSH13 0x634300081E0033000000000000 "
				},
				"gasEstimates": {
					"creation": {
						"codeDepositCost": "1657200",
						"executionCost": "infinite",
						"totalCost": "infinite"
					},
					"external": {
						"CLAIM_PERIOD()": "305",
						"CREDI_WHALE_ORACLE()": "infinite",
						"addRewards(address,uint256)": "infinite",
						"claim(uint256)": "infinite",
						"createPool(address,address,address,uint256,uint96,uint96,uint96)": "infinite",
						"getPool(uint256)": "28933",
						"getPoolsCount()": "2438",
						"getStake(uint256)": "13392",
						"owner()": "2385",
						"pending_payments(address)": "2599",
						"renounceOwnership()": "infinite",
						"setAPY(uint256,uint96)": "32664",
						"setBonusAPY(uint256,uint96)": "32718",
						"stake(uint256,uint256,bytes,bytes)": "infinite",
						"transferOwnership(address)": "infinite",
						"voidReward(uint256)": "infinite",
						"withdrawRewards(address,address,uint256)": "infinite",
						"withdrawStake(uint256)": "infinite"
					},
					"internal": {
						"time_now()": "infinite"
					}
				},
				"methodIdentifiers": {
					"CLAIM_PERIOD()": "21241dfe",
					"CREDI_WHALE_ORACLE()": "cc5c56dc",
					"addRewards(address,uint256)": "a9fc507b",
					"claim(uint256)": "379607f5",
					"createPool(address,address,address,uint256,uint96,uint96,uint96)": "69ca431b",
					"getPool(uint256)": "068bcd8d",
					"getPoolsCount()": "b4ac6860",
					"getStake(uint256)": "ce325bf8",
					"owner()": "8da5cb5b",
					"pending_payments(address)": "954821b6",
					"renounceOwnership()": "715018a6",
					"setAPY(uint256,uint96)": "039ba6b7",
					"setBonusAPY(uint256,uint96)": "4f44daa9",
					"stake(uint256,uint256,bytes,bytes)": "3b5dd047",
					"transferOwnership(address)": "f2fde38b",
					"voidReward(uint256)": "00215784",
					"withdrawRewards(address,address,uint256)": "74ee6b62",
					"withdrawStake(uint256)": "25d5971f"
				}
			},
			"storageLayout": {
				"storage": [
					{
						"astId": 8,
						"contract": "contracts/LPStaking.sol:LPStaking",
						"label": "_owner",
						"offset": 0,
						"slot": "0",
						"type": "t_address"
					},
					{
						"astId": 820,
						"contract": "contracts/LPStaking.sol:LPStaking",
						"label": "_status",
						"offset": 0,
						"slot": "1",
						"type": "t_uint256"
					},
					{
						"astId": 1187,
						"contract": "contracts/LPStaking.sol:LPStaking",
						"label": "pools",
						"offset": 0,
						"slot": "2",
						"type": "t_array(t_struct(PoolInfo)1164_storage)dyn_storage"
					},
					{
						"astId": 1192,
						"contract": "contracts/LPStaking.sol:LPStaking",
						"label": "stakes",
						"offset": 0,
						"slot": "3",
						"type": "t_mapping(t_uint256,t_struct(StakeDetails)1177_storage)"
					},
					{
						"astId": 1195,
						"contract": "contracts/LPStaking.sol:LPStaking",
						"label": "stakes_count",
						"offset": 0,
						"slot": "4",
						"type": "t_uint256"
					},
					{
						"astId": 1199,
						"contract": "contracts/LPStaking.sol:LPStaking",
						"label": "pending_payments",
						"offset": 0,
						"slot": "5",
						"type": "t_mapping(t_address,t_uint256)"
					}
				],
				"types": {
					"t_address": {
						"encoding": "inplace",
						"label": "address",
						"numberOfBytes": "20"
					},
					"t_array(t_struct(PoolInfo)1164_storage)dyn_storage": {
						"base": "t_struct(PoolInfo)1164_storage",
						"encoding": "dynamic_array",
						"label": "struct LPStaking.PoolInfo[]",
						"numberOfBytes": "32"
					},
					"t_mapping(t_address,t_uint256)": {
						"encoding": "mapping",
						"key": "t_address",
						"label": "mapping(address => uint256)",
						"numberOfBytes": "32",
						"value": "t_uint256"
					},
					"t_mapping(t_uint256,t_struct(StakeDetails)1177_storage)": {
						"encoding": "mapping",
						"key": "t_uint256",
						"label": "mapping(uint256 => struct LPStaking.StakeDetails)",
						"numberOfBytes": "32",
						"value": "t_struct(StakeDetails)1177_storage"
					},
					"t_struct(PoolInfo)1164_storage": {
						"encoding": "inplace",
						"label": "struct LPStaking.PoolInfo",
						"members": [
							{
								"astId": 1153,
								"contract": "contracts/LPStaking.sol:LPStaking",
								"label": "staking_token",
								"offset": 0,
								"slot": "0",
								"type": "t_address"
							},
							{
								"astId": 1155,
								"contract": "contracts/LPStaking.sol:LPStaking",
								"label": "maturity",
								"offset": 20,
								"slot": "0",
								"type": "t_uint96"
							},
							{
								"astId": 1157,
								"contract": "contracts/LPStaking.sol:LPStaking",
								"label": "rewards_token",
								"offset": 0,
								"slot": "1",
								"type": "t_address"
							},
							{
								"astId": 1159,
								"contract": "contracts/LPStaking.sol:LPStaking",
								"label": "apy",
								"offset": 20,
								"slot": "1",
								"type": "t_uint96"
							},
							{
								"astId": 1161,
								"contract": "contracts/LPStaking.sol:LPStaking",
								"label": "price_oracle",
								"offset": 0,
								"slot": "2",
								"type": "t_address"
							},
							{
								"astId": 1163,
								"contract": "contracts/LPStaking.sol:LPStaking",
								"label": "whales_bonus_apy",
								"offset": 20,
								"slot": "2",
								"type": "t_uint96"
							}
						],
						"numberOfBytes": "96"
					},
					"t_struct(StakeDetails)1177_storage": {
						"encoding": "inplace",
						"label": "struct LPStaking.StakeDetails",
						"members": [
							{
								"astId": 1166,
								"contract": "contracts/LPStaking.sol:LPStaking",
								"label": "pool_id",
								"offset": 0,
								"slot": "0",
								"type": "t_uint256"
							},
							{
								"astId": 1168,
								"contract": "contracts/LPStaking.sol:LPStaking",
								"label": "owner",
								"offset": 0,
								"slot": "1",
								"type": "t_address"
							},
							{
								"astId": 1170,
								"contract": "contracts/LPStaking.sol:LPStaking",
								"label": "maturity",
								"offset": 20,
								"slot": "1",
								"type": "t_uint96"
							},
							{
								"astId": 1172,
								"contract": "contracts/LPStaking.sol:LPStaking",
								"label": "stake_amount",
								"offset": 0,
								"slot": "2",
								"type": "t_uint256"
							},
							{
								"astId": 1174,
								"contract": "contracts/LPStaking.sol:LPStaking",
								"label": "reward_amount",
								"offset": 0,
								"slot": "3",
								"type": "t_uint256"
							},
							{
								"astId": 1176,
								"contract": "contracts/LPStaking.sol:LPStaking",
								"label": "required_CREDI",
								"offset": 0,
								"slot": "4",
								"type": "t_uint256"
							}
						],
						"numberOfBytes": "160"
					},
					"t_uint256": {
						"encoding": "inplace",
						"label": "uint256",
						"numberOfBytes": "32"
					},
					"t_uint96": {
						"encoding": "inplace",
						"label": "uint96",
						"numberOfBytes": "12"
					}
				}
			},
			"userdoc": {
				"kind": "user",
				"methods": {},
				"version": 1
			}
		}
	}
}