{
	"contracts/ModuleX.sol": {
		"ModuleX": {
			"abi": [
				{
					"inputs": [
						{
							"internalType": "address",
							"name": "_credi_addr",
							"type": "address"
						},
						{
							"internalType": "address",
							"name": "_xcredi_addr",
							"type": "address"
						}
					],
					"stateMutability": "nonpayable",
					"type": "constructor"
				},
				{
					"inputs": [
						{
							"internalType": "address",
							"name": "owner",
							"type": "address"
						}
					],
					"name": "OwnableInvalidOwner",
					"type": "error"
				},
				{
					"inputs": [
						{
							"internalType": "address",
							"name": "account",
							"type": "address"
						}
					],
					"name": "OwnableUnauthorizedAccount",
					"type": "error"
				},
				{
					"inputs": [
						{
							"internalType": "address",
							"name": "token",
							"type": "address"
						}
					],
					"name": "SafeERC20FailedOperation",
					"type": "error"
				},
				{
					"anonymous": false,
					"inputs": [
						{
							"indexed": false,
							"internalType": "uint256",
							"name": "stake_id",
							"type": "uint256"
						},
						{
							"indexed": false,
							"internalType": "uint256",
							"name": "amount",
							"type": "uint256"
						}
					],
					"name": "CREDIWithdrawn",
					"type": "event"
				},
				{
					"anonymous": false,
					"inputs": [
						{
							"indexed": true,
							"internalType": "address",
							"name": "previousOwner",
							"type": "address"
						},
						{
							"indexed": true,
							"internalType": "address",
							"name": "newOwner",
							"type": "address"
						}
					],
					"name": "OwnershipTransferred",
					"type": "event"
				},
				{
					"anonymous": false,
					"inputs": [
						{
							"indexed": false,
							"internalType": "uint256",
							"name": "amount",
							"type": "uint256"
						}
					],
					"name": "RewardAdded",
					"type": "event"
				},
				{
					"anonymous": false,
					"inputs": [
						{
							"indexed": false,
							"internalType": "uint256",
							"name": "stake_id",
							"type": "uint256"
						}
					],
					"name": "RewardPaid",
					"type": "event"
				},
				{
					"anonymous": false,
					"inputs": [
						{
							"indexed": true,
							"internalType": "address",
							"name": "to",
							"type": "address"
						},
						{
							"indexed": false,
							"internalType": "uint256",
							"name": "amount",
							"type": "uint256"
						}
					],
					"name": "RewardWithdrawn",
					"type": "event"
				},
				{
					"anonymous": false,
					"inputs": [
						{
							"indexed": true,
							"internalType": "address",
							"name": "user",
							"type": "address"
						},
						{
							"indexed": false,
							"internalType": "uint256",
							"name": "stake_id",
							"type": "uint256"
						},
						{
							"indexed": false,
							"internalType": "uint96",
							"name": "maturity",
							"type": "uint96"
						},
						{
							"indexed": false,
							"internalType": "uint256",
							"name": "stake_amount",
							"type": "uint256"
						},
						{
							"indexed": false,
							"internalType": "uint256",
							"name": "rewards_amount",
							"type": "uint256"
						}
					],
					"name": "Staked",
					"type": "event"
				},
				{
					"inputs": [],
					"name": "CREDI",
					"outputs": [
						{
							"internalType": "contract IERC20",
							"name": "",
							"type": "address"
						}
					],
					"stateMutability": "view",
					"type": "function"
				},
				{
					"inputs": [],
					"name": "DIFFICULTY_INTERVAL",
					"outputs": [
						{
							"internalType": "uint256",
							"name": "",
							"type": "uint256"
						}
					],
					"stateMutability": "view",
					"type": "function"
				},
				{
					"inputs": [],
					"name": "MATURITY",
					"outputs": [
						{
							"internalType": "uint96",
							"name": "",
							"type": "uint96"
						}
					],
					"stateMutability": "view",
					"type": "function"
				},
				{
					"inputs": [
						{
							"internalType": "uint256",
							"name": "amount",
							"type": "uint256"
						}
					],
					"name": "addRewards",
					"outputs": [],
					"stateMutability": "nonpayable",
					"type": "function"
				},
				{
					"inputs": [
						{
							"internalType": "uint256[]",
							"name": "stake_ids",
							"type": "uint256[]"
						}
					],
					"name": "batchWithdrawCREDI",
					"outputs": [],
					"stateMutability": "nonpayable",
					"type": "function"
				},
				{
					"inputs": [
						{
							"internalType": "uint256",
							"name": "stake_amount",
							"type": "uint256"
						}
					],
					"name": "calculateReward",
					"outputs": [
						{
							"internalType": "uint256",
							"name": "",
							"type": "uint256"
						}
					],
					"stateMutability": "view",
					"type": "function"
				},
				{
					"inputs": [
						{
							"internalType": "uint256",
							"name": "stake_id",
							"type": "uint256"
						}
					],
					"name": "claim",
					"outputs": [
						{
							"internalType": "uint256",
							"name": "",
							"type": "uint256"
						}
					],
					"stateMutability": "nonpayable",
					"type": "function"
				},
				{
					"inputs": [],
					"name": "getCREDIAddress",
					"outputs": [
						{
							"internalType": "address",
							"name": "",
							"type": "address"
						}
					],
					"stateMutability": "view",
					"type": "function"
				},
				{
					"inputs": [],
					"name": "getDifficulty",
					"outputs": [
						{
							"internalType": "uint256",
							"name": "",
							"type": "uint256"
						}
					],
					"stateMutability": "view",
					"type": "function"
				},
				{
					"inputs": [
						{
							"internalType": "uint256",
							"name": "stake_id",
							"type": "uint256"
						}
					],
					"name": "getStake",
					"outputs": [
						{
							"internalType": "address",
							"name": "owner",
							"type": "address"
						},
						{
							"internalType": "uint256",
							"name": "maturity",
							"type": "uint256"
						},
						{
							"internalType": "uint256",
							"name": "stake_amount",
							"type": "uint256"
						},
						{
							"internalType": "uint256",
							"name": "reward_amount",
							"type": "uint256"
						}
					],
					"stateMutability": "view",
					"type": "function"
				},
				{
					"inputs": [],
					"name": "getStakesCount",
					"outputs": [
						{
							"internalType": "uint256",
							"name": "",
							"type": "uint256"
						}
					],
					"stateMutability": "view",
					"type": "function"
				},
				{
					"inputs": [],
					"name": "getxCREDIAddress",
					"outputs": [
						{
							"internalType": "address",
							"name": "",
							"type": "address"
						}
					],
					"stateMutability": "view",
					"type": "function"
				},
				{
					"inputs": [],
					"name": "owner",
					"outputs": [
						{
							"internalType": "address",
							"name": "",
							"type": "address"
						}
					],
					"stateMutability": "view",
					"type": "function"
				},
				{
					"inputs": [],
					"name": "pending_payments",
					"outputs": [
						{
							"internalType": "uint256",
							"name": "",
							"type": "uint256"
						}
					],
					"stateMutability": "view",
					"type": "function"
				},
				{
					"inputs": [],
					"name": "renounceOwnership",
					"outputs": [],
					"stateMutability": "nonpayable",
					"type": "function"
				},
				{
					"inputs": [
						{
							"internalType": "uint96",
							"name": "lock_period",
							"type": "uint96"
						},
						{
							"internalType": "uint256",
							"name": "stake_amount",
							"type": "uint256"
						}
					],
					"name": "stake",
					"outputs": [
						{
							"internalType": "uint256",
							"name": "",
							"type": "uint256"
						},
						{
							"internalType": "uint256",
							"name": "",
							"type": "uint256"
						}
					],
					"stateMutability": "nonpayable",
					"type": "function"
				},
				{
					"inputs": [],
					"name": "total_staked",
					"outputs": [
						{
							"internalType": "uint256",
							"name": "",
							"type": "uint256"
						}
					],
					"stateMutability": "view",
					"type": "function"
				},
				{
					"inputs": [
						{
							"internalType": "address",
							"name": "newOwner",
							"type": "address"
						}
					],
					"name": "transferOwnership",
					"outputs": [],
					"stateMutability": "nonpayable",
					"type": "function"
				},
				{
					"inputs": [
						{
							"internalType": "uint256",
							"name": "stake_id",
							"type": "uint256"
						},
						{
							"internalType": "uint256",
							"name": "amount",
							"type": "uint256"
						}
					],
					"name": "withdrawCREDI",
					"outputs": [],
					"stateMutability": "nonpayable",
					"type": "function"
				},
				{
					"inputs": [
						{
							"internalType": "address",
							"name": "to",
							"type": "address"
						},
						{
							"internalType": "uint256",
							"name": "amount",
							"type": "uint256"
						}
					],
					"name": "withdrawRewards",
					"outputs": [],
					"stateMutability": "nonpayable",
					"type": "function"
				},
				{
					"inputs": [],
					"name": "xCREDI",
					"outputs": [
						{
							"internalType": "contract IERC20",
							"name": "",
							"type": "address"
						}
					],
					"stateMutability": "view",
					"type": "function"
				}
			],
			"devdoc": {
				"errors": {
					"OwnableInvalidOwner(address)": [
						{
							"details": "The owner is not a valid owner account. (eg. `address(0)`)"
						}
					],
					"OwnableUnauthorizedAccount(address)": [
						{
							"details": "The caller account is not authorized to perform an operation."
						}
					],
					"SafeERC20FailedOperation(address)": [
						{
							"details": "An operation with an ERC-20 token failed."
						}
					]
				},
				"kind": "dev",
				"methods": {
					"owner()": {
						"details": "Returns the address of the current owner."
					},
					"renounceOwnership()": {
						"details": "Leaves the contract without owner. It will not be possible to call `onlyOwner` functions. Can only be called by the current owner. NOTE: Renouncing ownership will leave the contract without an owner, thereby disabling any functionality that is only available to the owner."
					},
					"transferOwnership(address)": {
						"details": "Transfers ownership of the contract to a new account (`newOwner`). Can only be called by the current owner."
					}
				},
				"version": 1
			},
			"evm": {
				"assembly": "    /* \"contracts/ModuleX.sol\":278:7062  contract ModuleX is IModuleX, Ownable ... */\n  mstore(0x40, 0xc0)\n    /* \"contracts/ModuleX.sol\":998:999  1 */\n  0x01\n    /* \"contracts/ModuleX.sol\":970:999  uint private stakes_count = 1 */\n  0x02\n  sstore\n    /* \"contracts/ModuleX.sol\":1033:1034  0 */\n  0x00\n    /* \"contracts/ModuleX.sol\":1006:1034  uint public total_staked = 0 */\n  0x03\n  sstore\n    /* \"contracts/ModuleX.sol\":1072:1073  0 */\n  0x00\n    /* \"contracts/ModuleX.sol\":1041:1073  uint public pending_payments = 0 */\n  0x04\n  sstore\n    /* \"contracts/ModuleX.sol\":1549:1718  constructor(address _credi_addr, address _xcredi_addr) Ownable(_msgSender())... */\n  callvalue\n  dup1\n  iszero\n  tag_1\n  jumpi\n  revert(0x00, 0x00)\ntag_1:\n  pop\n  mload(0x40)\n  sub(codesize, bytecodeSize)\n  dup1\n  bytecodeSize\n  dup4\n  codecopy\n  dup2\n  add\n  0x40\n  dup2\n  swap1\n  mstore\n  tag_2\n  swap2\n  tag_3\n  jump\t// in\ntag_2:\n    /* \"@openzeppelin/contracts/utils/Context.sol\":735:745  msg.sender */\n  caller\n  dup1\n    /* \"@openzeppelin/contracts/access/Ownable.sol\":1269:1364  if (initialOwner == address(0)) {... */\n  tag_9\n  jumpi\n    /* \"@openzeppelin/contracts/access/Ownable.sol\":1322:1353  OwnableInvalidOwner(address(0)) */\n  mload(0x40)\n  shl(0xe0, 0x1e4fbdf7)\n  dup2\n  mstore\n    /* \"@openzeppelin/contracts/access/Ownable.sol\":1350:1351  0 */\n  0x00\n    /* \"@openzeppelin/contracts/access/Ownable.sol\":1322:1353  OwnableInvalidOwner(address(0)) */\n  0x04\n  dup3\n  add\n    /* \"#utility.yul\":640:691   */\n  mstore\n    /* \"#utility.yul\":613:631   */\n  0x24\n  add\n    /* \"@openzeppelin/contracts/access/Ownable.sol\":1322:1353  OwnableInvalidOwner(address(0)) */\n  mload(0x40)\n  dup1\n  swap2\n  sub\n  swap1\n  revert\n    /* \"@openzeppelin/contracts/access/Ownable.sol\":1269:1364  if (initialOwner == address(0)) {... */\ntag_9:\n    /* \"@openzeppelin/contracts/access/Ownable.sol\":1373:1405  _transferOwnership(initialOwner) */\n  tag_12\n    /* \"@openzeppelin/contracts/access/Ownable.sol\":1392:1404  initialOwner */\n  dup2\n    /* \"@openzeppelin/contracts/access/Ownable.sol\":1373:1391  _transferOwnership */\n  tag_13\n    /* \"@openzeppelin/contracts/access/Ownable.sol\":1373:1405  _transferOwnership(initialOwner) */\n  jump\t// in\ntag_12:\n  pop\n  sub(shl(0xa0, 0x01), 0x01)\n    /* \"contracts/ModuleX.sol\":1643:1670  CREDI = IERC20(_credi_addr) */\n  swap2\n  dup3\n  and\n  0x80\n  mstore\n    /* \"contracts/ModuleX.sol\":1681:1710  xCREDI = IERC20(_xcredi_addr) */\n  and\n  0xa0\n  mstore\n    /* \"contracts/ModuleX.sol\":278:7062  contract ModuleX is IModuleX, Ownable ... */\n  jump(tag_19)\n    /* \"@openzeppelin/contracts/access/Ownable.sol\":2912:3099  function _transferOwnership(address newOwner) internal virtual {... */\ntag_13:\n    /* \"@openzeppelin/contracts/access/Ownable.sol\":2985:3001  address oldOwner */\n  0x00\n    /* \"@openzeppelin/contracts/access/Ownable.sol\":3004:3010  _owner */\n  dup1\n  sload\n  sub(shl(0xa0, 0x01), 0x01)\n    /* \"@openzeppelin/contracts/access/Ownable.sol\":3020:3037  _owner = newOwner */\n  dup4\n  dup2\n  and\n  not(sub(shl(0xa0, 0x01), 0x01))\n  dup4\n  and\n  dup2\n  or\n  dup5\n  sstore\n    /* \"@openzeppelin/contracts/access/Ownable.sol\":3052:3092  OwnershipTransferred(oldOwner, newOwner) */\n  mload(0x40)\n    /* \"@openzeppelin/contracts/access/Ownable.sol\":3004:3010  _owner */\n  swap2\n  swap1\n  swap3\n  and\n  swap3\n  dup4\n  swap2\n    /* \"@openzeppelin/contracts/access/Ownable.sol\":3052:3092  OwnershipTransferred(oldOwner, newOwner) */\n  0x8be0079c531659141344cd1fd0a4f28419497f9722a3daafe3b4186f6b6457e0\n  swap2\n    /* \"@openzeppelin/contracts/access/Ownable.sol\":2985:3001  address oldOwner */\n  swap1\n    /* \"@openzeppelin/contracts/access/Ownable.sol\":3052:3092  OwnershipTransferred(oldOwner, newOwner) */\n  log3\n    /* \"@openzeppelin/contracts/access/Ownable.sol\":2975:3099  {... */\n  pop\n    /* \"@openzeppelin/contracts/access/Ownable.sol\":2912:3099  function _transferOwnership(address newOwner) internal virtual {... */\n  pop\n  jump\t// out\n    /* \"#utility.yul\":14:191   */\ntag_18:\n    /* \"#utility.yul\":93:106   */\n  dup1\n  mload\n  sub(shl(0xa0, 0x01), 0x01)\n    /* \"#utility.yul\":135:166   */\n  dup2\n  and\n    /* \"#utility.yul\":125:167   */\n  dup2\n  eq\n    /* \"#utility.yul\":115:185   */\n  tag_21\n  jumpi\n    /* \"#utility.yul\":181:182   */\n  0x00\n    /* \"#utility.yul\":178:179   */\n  0x00\n    /* \"#utility.yul\":171:183   */\n  revert\n    /* \"#utility.yul\":115:185   */\ntag_21:\n    /* \"#utility.yul\":14:191   */\n  swap2\n  swap1\n  pop\n  jump\t// out\n    /* \"#utility.yul\":196:489   */\ntag_3:\n    /* \"#utility.yul\":275:281   */\n  0x00\n    /* \"#utility.yul\":283:289   */\n  0x00\n    /* \"#utility.yul\":336:338   */\n  0x40\n    /* \"#utility.yul\":324:333   */\n  dup4\n    /* \"#utility.yul\":315:322   */\n  dup6\n    /* \"#utility.yul\":311:334   */\n  sub\n    /* \"#utility.yul\":307:339   */\n  slt\n    /* \"#utility.yul\":304:356   */\n  iszero\n  tag_23\n  jumpi\n    /* \"#utility.yul\":352:353   */\n  0x00\n    /* \"#utility.yul\":349:350   */\n  0x00\n    /* \"#utility.yul\":342:354   */\n  revert\n    /* \"#utility.yul\":304:356   */\ntag_23:\n    /* \"#utility.yul\":375:415   */\n  tag_24\n    /* \"#utility.yul\":405:414   */\n  dup4\n    /* \"#utility.yul\":375:415   */\n  tag_18\n  jump\t// in\ntag_24:\n    /* \"#utility.yul\":365:415   */\n  swap2\n  pop\n    /* \"#utility.yul\":434:483   */\n  tag_25\n    /* \"#utility.yul\":479:481   */\n  0x20\n    /* \"#utility.yul\":468:477   */\n  dup5\n    /* \"#utility.yul\":464:482   */\n  add\n    /* \"#utility.yul\":434:483   */\n  tag_18\n  jump\t// in\ntag_25:\n    /* \"#utility.yul\":424:483   */\n  swap1\n  pop\n    /* \"#utility.yul\":196:489   */\n  swap3\n  pop\n  swap3\n  swap1\n  pop\n  jump\t// out\n    /* \"#utility.yul\":494:697   */\ntag_19:\n    /* \"contracts/ModuleX.sol\":278:7062  contract ModuleX is IModuleX, Ownable ... */\n  mload(0x80)\n  mload(0xa0)\n  codecopy(0x00, dataOffset(sub_0), dataSize(sub_0))\n  0x00\n  assignImmutable(\"0x0d39e801c12a1db7a049a11375544bfecda5660c1466262d86703950d5bcb07f\")\n  0x00\n  assignImmutable(\"0xad444e1082e5d5bbfca385a9a566a2d71dbd349bb06a97871f0be4657884f8e0\")\n  return(0x00, dataSize(sub_0))\nstop\n\nsub_0: assembly {\n        /* \"contracts/ModuleX.sol\":278:7062  contract ModuleX is IModuleX, Ownable ... */\n      mstore(0x40, 0x80)\n      callvalue\n      dup1\n      iszero\n      tag_1\n      jumpi\n      revert(0x00, 0x00)\n    tag_1:\n      pop\n      jumpi(tag_2, lt(calldatasize, 0x04))\n      shr(0xe0, calldataload(0x00))\n      dup1\n      0xb109beec\n      gt\n      tag_24\n      jumpi\n      dup1\n      0xce325bf8\n      gt\n      tag_25\n      jumpi\n      dup1\n      0xd6ef7af0\n      gt\n      tag_26\n      jumpi\n      dup1\n      0xd6ef7af0\n      eq\n      tag_21\n      jumpi\n      dup1\n      0xd93c04a0\n      eq\n      tag_22\n      jumpi\n      dup1\n      0xf2fde38b\n      eq\n      tag_23\n      jumpi\n      revert(0x00, 0x00)\n    tag_26:\n      dup1\n      0xce325bf8\n      eq\n      tag_18\n      jumpi\n      dup1\n      0xd2d7231f\n      eq\n      tag_19\n      jumpi\n      dup1\n      0xd46149a2\n      eq\n      tag_20\n      jumpi\n      revert(0x00, 0x00)\n    tag_25:\n      dup1\n      0xb109beec\n      eq\n      tag_13\n      jumpi\n      dup1\n      0xb5fa91fe\n      eq\n      tag_14\n      jumpi\n      dup1\n      0xb6baffe3\n      eq\n      tag_15\n      jumpi\n      dup1\n      0xbc854352\n      eq\n      tag_16\n      jumpi\n      dup1\n      0xbeceed39\n      eq\n      tag_17\n      jumpi\n      revert(0x00, 0x00)\n    tag_24:\n      dup1\n      0x8da5cb5b\n      gt\n      tag_27\n      jumpi\n      dup1\n      0x8da5cb5b\n      eq\n      tag_8\n      jumpi\n      dup1\n      0x8e12c0cd\n      eq\n      tag_9\n      jumpi\n      dup1\n      0x8f4729b7\n      eq\n      tag_10\n      jumpi\n      dup1\n      0xac00500f\n      eq\n      tag_11\n      jumpi\n      dup1\n      0xaf7568dd\n      eq\n      tag_12\n      jumpi\n      revert(0x00, 0x00)\n    tag_27:\n      dup1\n      0x109cf399\n      eq\n      tag_3\n      jumpi\n      dup1\n      0x379607f5\n      eq\n      tag_4\n      jumpi\n      dup1\n      0x6db08f25\n      eq\n      tag_5\n      jumpi\n      dup1\n      0x715018a6\n      eq\n      tag_6\n      jumpi\n      dup1\n      0x7c2fdeb5\n      eq\n      tag_7\n      jumpi\n    tag_2:\n      revert(0x00, 0x00)\n        /* \"contracts/ModuleX.sol\":639:697  uint constant public DIFFICULTY_INTERVAL = 500000 * 10**18 */\n    tag_3:\n      tag_28\n        /* \"contracts/ModuleX.sol\":682:697  500000 * 10**18 */\n      0x69e10de76676d0800000\n        /* \"contracts/ModuleX.sol\":639:697  uint constant public DIFFICULTY_INTERVAL = 500000 * 10**18 */\n      dup2\n      jump\n    tag_28:\n      mload(0x40)\n        /* \"#utility.yul\":160:185   */\n      swap1\n      dup2\n      mstore\n        /* \"#utility.yul\":148:150   */\n      0x20\n        /* \"#utility.yul\":133:151   */\n      add\n        /* \"contracts/ModuleX.sol\":639:697  uint constant public DIFFICULTY_INTERVAL = 500000 * 10**18 */\n    tag_30:\n      mload(0x40)\n      dup1\n      swap2\n      sub\n      swap1\n      return\n        /* \"contracts/ModuleX.sol\":4570:5239  function claim(uint stake_id) external validate_stake(stake_id) returns(uint)... */\n    tag_4:\n      tag_28\n      tag_33\n      calldatasize\n      0x04\n      tag_34\n      jump\t// in\n    tag_33:\n      tag_35\n      jump\t// in\n        /* \"contracts/ModuleX.sol\":727:756  IERC20 immutable public CREDI */\n    tag_5:\n      tag_37\n      immutable(\"0xad444e1082e5d5bbfca385a9a566a2d71dbd349bb06a97871f0be4657884f8e0\")\n      dup2\n      jump\n    tag_37:\n      mload(0x40)\n      sub(shl(0xa0, 0x01), 0x01)\n        /* \"#utility.yul\":605:660   */\n      swap1\n      swap2\n      and\n        /* \"#utility.yul\":587:661   */\n      dup2\n      mstore\n        /* \"#utility.yul\":575:577   */\n      0x20\n        /* \"#utility.yul\":560:578   */\n      add\n        /* \"contracts/ModuleX.sol\":727:756  IERC20 immutable public CREDI */\n      tag_30\n        /* \"#utility.yul\":427:667   */\n      jump\n        /* \"@openzeppelin/contracts/access/Ownable.sol\":2293:2394  function renounceOwnership() public virtual onlyOwner {... */\n    tag_6:\n      tag_41\n      tag_42\n      jump\t// in\n    tag_41:\n      stop\n        /* \"contracts/ModuleX.sol\":1841:1946  function getxCREDIAddress() external view returns(address)... */\n    tag_7:\n        /* \"contracts/ModuleX.sol\":1931:1937  xCREDI */\n      immutable(\"0x0d39e801c12a1db7a049a11375544bfecda5660c1466262d86703950d5bcb07f\")\n        /* \"contracts/ModuleX.sol\":1841:1946  function getxCREDIAddress() external view returns(address)... */\n      jump(tag_37)\n        /* \"@openzeppelin/contracts/access/Ownable.sol\":1638:1723  function owner() public view virtual returns (address) {... */\n    tag_8:\n        /* \"@openzeppelin/contracts/access/Ownable.sol\":1684:1691  address */\n      0x00\n        /* \"@openzeppelin/contracts/access/Ownable.sol\":1710:1716  _owner */\n      sload\n      sub(shl(0xa0, 0x01), 0x01)\n      and\n        /* \"@openzeppelin/contracts/access/Ownable.sol\":1638:1723  function owner() public view virtual returns (address) {... */\n      jump(tag_37)\n        /* \"contracts/ModuleX.sol\":508:553  uint96 constant public MATURITY = 180 minutes */\n    tag_9:\n      tag_50\n        /* \"contracts/ModuleX.sol\":542:553  180 minutes */\n      0x2a30\n        /* \"contracts/ModuleX.sol\":508:553  uint96 constant public MATURITY = 180 minutes */\n      dup2\n      jump\n    tag_50:\n      mload(0x40)\n      sub(shl(0x60, 0x01), 0x01)\n        /* \"#utility.yul\":1065:1104   */\n      swap1\n      swap2\n      and\n        /* \"#utility.yul\":1047:1105   */\n      dup2\n      mstore\n        /* \"#utility.yul\":1035:1037   */\n      0x20\n        /* \"#utility.yul\":1020:1038   */\n      add\n        /* \"contracts/ModuleX.sol\":508:553  uint96 constant public MATURITY = 180 minutes */\n      tag_30\n        /* \"#utility.yul\":903:1111   */\n      jump\n        /* \"contracts/ModuleX.sol\":1041:1073  uint public pending_payments = 0 */\n    tag_10:\n      tag_28\n      sload(0x04)\n      dup2\n      jump\n        /* \"contracts/ModuleX.sol\":5247:5803  function withdrawCREDI(uint stake_id, uint amount) external onlyOwner validate_stake(stake_id)... */\n    tag_11:\n      tag_41\n      tag_58\n      calldatasize\n      0x04\n      tag_59\n      jump\t// in\n    tag_58:\n      tag_60\n      jump\t// in\n        /* \"contracts/ModuleX.sol\":1006:1034  uint public total_staked = 0 */\n    tag_12:\n      tag_28\n      sload(0x03)\n      dup2\n      jump\n        /* \"contracts/ModuleX.sol\":819:849  IERC20 immutable public xCREDI */\n    tag_13:\n      tag_37\n      immutable(\"0x0d39e801c12a1db7a049a11375544bfecda5660c1466262d86703950d5bcb07f\")\n      dup2\n      jump\n        /* \"contracts/ModuleX.sol\":1954:2055  function getStakesCount() external view returns(uint)... */\n    tag_14:\n      tag_28\n      tag_68\n      jump\t// in\n        /* \"contracts/ModuleX.sol\":3485:3614  function getDifficulty() external view returns(uint)... */\n    tag_15:\n      tag_28\n      tag_71\n      jump\t// in\n        /* \"contracts/ModuleX.sol\":5811:6523  function batchWithdrawCREDI(uint[] calldata stake_ids) external onlyOwner... */\n    tag_16:\n      tag_41\n      tag_74\n      calldatasize\n      0x04\n      tag_75\n      jump\t// in\n    tag_74:\n      tag_76\n      jump\t// in\n        /* \"contracts/ModuleX.sol\":6531:6769  function addRewards(uint amount) external ... */\n    tag_17:\n      tag_41\n      tag_78\n      calldatasize\n      0x04\n      tag_34\n      jump\t// in\n    tag_78:\n      tag_79\n      jump\t// in\n        /* \"contracts/ModuleX.sol\":2063:2458  function getStake(uint stake_id) external validate_stake(stake_id) view ... */\n    tag_18:\n      tag_80\n      tag_81\n      calldatasize\n      0x04\n      tag_34\n      jump\t// in\n    tag_81:\n      tag_82\n      jump\t// in\n    tag_80:\n      0x40\n      dup1\n      mload\n      sub(shl(0xa0, 0x01), 0x01)\n        /* \"#utility.yul\":2331:2386   */\n      swap1\n      swap6\n      and\n        /* \"#utility.yul\":2313:2387   */\n      dup6\n      mstore\n        /* \"#utility.yul\":2418:2420   */\n      0x20\n        /* \"#utility.yul\":2403:2421   */\n      dup6\n      add\n        /* \"#utility.yul\":2396:2430   */\n      swap4\n      swap1\n      swap4\n      mstore\n        /* \"#utility.yul\":2446:2464   */\n      swap2\n      dup4\n      add\n        /* \"#utility.yul\":2439:2473   */\n      mstore\n        /* \"#utility.yul\":2504:2506   */\n      0x60\n        /* \"#utility.yul\":2489:2507   */\n      dup3\n      add\n        /* \"#utility.yul\":2482:2516   */\n      mstore\n        /* \"#utility.yul\":2300:2303   */\n      0x80\n        /* \"#utility.yul\":2285:2304   */\n      add\n        /* \"contracts/ModuleX.sol\":2063:2458  function getStake(uint stake_id) external validate_stake(stake_id) view ... */\n      tag_30\n        /* \"#utility.yul\":2082:2522   */\n      jump\n        /* \"contracts/ModuleX.sol\":2577:3477  function calculateReward(uint stake_amount) public view returns(uint)... */\n    tag_19:\n      tag_28\n      tag_86\n      calldatasize\n      0x04\n      tag_34\n      jump\t// in\n    tag_86:\n      tag_87\n      jump\t// in\n        /* \"contracts/ModuleX.sol\":1730:1833  function getCREDIAddress() external view returns(address)... */\n    tag_20:\n        /* \"contracts/ModuleX.sol\":1819:1824  CREDI */\n      immutable(\"0xad444e1082e5d5bbfca385a9a566a2d71dbd349bb06a97871f0be4657884f8e0\")\n        /* \"contracts/ModuleX.sol\":1730:1833  function getCREDIAddress() external view returns(address)... */\n      jump(tag_37)\n        /* \"contracts/ModuleX.sol\":6777:7057  function withdrawRewards(address to, uint amount) external onlyOwner... */\n    tag_21:\n      tag_41\n      tag_93\n      calldatasize\n      0x04\n      tag_94\n      jump\t// in\n    tag_93:\n      tag_95\n      jump\t// in\n        /* \"contracts/ModuleX.sol\":3622:4562  function stake(uint96 lock_period, uint stake_amount) external returns(uint, uint)... */\n    tag_22:\n      tag_96\n      tag_97\n      calldatasize\n      0x04\n      tag_98\n      jump\t// in\n    tag_97:\n      tag_99\n      jump\t// in\n    tag_96:\n      0x40\n      dup1\n      mload\n        /* \"#utility.yul\":3624:3649   */\n      swap3\n      dup4\n      mstore\n        /* \"#utility.yul\":3680:3682   */\n      0x20\n        /* \"#utility.yul\":3665:3683   */\n      dup4\n      add\n        /* \"#utility.yul\":3658:3692   */\n      swap2\n      swap1\n      swap2\n      mstore\n        /* \"#utility.yul\":3597:3615   */\n      add\n        /* \"contracts/ModuleX.sol\":3622:4562  function stake(uint96 lock_period, uint stake_amount) external returns(uint, uint)... */\n      tag_30\n        /* \"#utility.yul\":3450:3698   */\n      jump\n        /* \"@openzeppelin/contracts/access/Ownable.sol\":2543:2758  function transferOwnership(address newOwner) public virtual onlyOwner {... */\n    tag_23:\n      tag_41\n      tag_103\n      calldatasize\n      0x04\n      tag_104\n      jump\t// in\n    tag_103:\n      tag_105\n      jump\t// in\n        /* \"contracts/ModuleX.sol\":4570:5239  function claim(uint stake_id) external validate_stake(stake_id) returns(uint)... */\n    tag_35:\n        /* \"contracts/ModuleX.sol\":4642:4646  uint */\n      0x00\n        /* \"contracts/ModuleX.sol\":4624:4632  stake_id */\n      dup2\n        /* \"contracts/ModuleX.sol\":1463:1464  0 */\n      0x00\n        /* \"contracts/ModuleX.sol\":1452:1460  stake_id */\n      dup2\n        /* \"contracts/ModuleX.sol\":1452:1464  stake_id > 0 */\n      gt\n        /* \"contracts/ModuleX.sol\":1452:1491  stake_id > 0 && stake_id < stakes_count */\n      dup1\n      iszero\n      tag_107\n      jumpi\n      pop\n        /* \"contracts/ModuleX.sol\":1479:1491  stakes_count */\n      sload(0x02)\n        /* \"contracts/ModuleX.sol\":1468:1476  stake_id */\n      dup2\n        /* \"contracts/ModuleX.sol\":1468:1491  stake_id < stakes_count */\n      lt\n        /* \"contracts/ModuleX.sol\":1452:1491  stake_id > 0 && stake_id < stakes_count */\n    tag_107:\n        /* \"contracts/ModuleX.sol\":1444:1521  require(stake_id > 0 && stake_id < stakes_count, \"ModuleX:Invalid Stake ID!\") */\n      tag_108\n      jumpi\n      mload(0x40)\n      shl(0xe5, 0x461bcd)\n      dup2\n      mstore\n        /* \"#utility.yul\":4096:4098   */\n      0x20\n        /* \"contracts/ModuleX.sol\":1444:1521  require(stake_id > 0 && stake_id < stakes_count, \"ModuleX:Invalid Stake ID!\") */\n      0x04\n      dup3\n      add\n        /* \"#utility.yul\":4078:4099   */\n      mstore\n        /* \"#utility.yul\":4135:4137   */\n      0x19\n        /* \"#utility.yul\":4115:4133   */\n      0x24\n      dup3\n      add\n        /* \"#utility.yul\":4108:4138   */\n      mstore\n      shl(0x38, 0x4d6f64756c65583a496e76616c6964205374616b6520494421)\n        /* \"#utility.yul\":4154:4172   */\n      0x44\n      dup3\n      add\n        /* \"#utility.yul\":4147:4202   */\n      mstore\n        /* \"#utility.yul\":4219:4237   */\n      0x64\n      add\n        /* \"contracts/ModuleX.sol\":1444:1521  require(stake_id > 0 && stake_id < stakes_count, \"ModuleX:Invalid Stake ID!\") */\n    tag_109:\n      mload(0x40)\n      dup1\n      swap2\n      sub\n      swap1\n      revert\n    tag_108:\n        /* \"contracts/ModuleX.sol\":4664:4692  StakeDetails storage details */\n      0x00\n        /* \"contracts/ModuleX.sol\":4695:4711  stakes[stake_id] */\n      dup4\n      dup2\n      mstore\n        /* \"contracts/ModuleX.sol\":4695:4701  stakes */\n      0x01\n        /* \"contracts/ModuleX.sol\":4695:4711  stakes[stake_id] */\n      0x20\n      mstore\n      0x40\n      swap1\n      keccak256\n        /* \"contracts/ModuleX.sol\":4730:4743  details.owner */\n      dup1\n      sload\n      sub(shl(0xa0, 0x01), 0x01)\n      and\n        /* \"@openzeppelin/contracts/utils/Context.sol\":735:745  msg.sender */\n      caller\n        /* \"contracts/ModuleX.sol\":4730:4759  details.owner == _msgSender() */\n      eq\n        /* \"contracts/ModuleX.sol\":4722:4795  require(details.owner == _msgSender(), \"ModuleX:Caller is not the owner\") */\n      tag_114\n      jumpi\n      mload(0x40)\n      shl(0xe5, 0x461bcd)\n      dup2\n      mstore\n        /* \"#utility.yul\":4450:4452   */\n      0x20\n        /* \"contracts/ModuleX.sol\":4722:4795  require(details.owner == _msgSender(), \"ModuleX:Caller is not the owner\") */\n      0x04\n      dup3\n      add\n        /* \"#utility.yul\":4432:4453   */\n      mstore\n        /* \"#utility.yul\":4489:4491   */\n      0x1f\n        /* \"#utility.yul\":4469:4487   */\n      0x24\n      dup3\n      add\n        /* \"#utility.yul\":4462:4492   */\n      mstore\n        /* \"#utility.yul\":4528:4561   */\n      0x4d6f64756c65583a43616c6c6572206973206e6f7420746865206f776e657200\n        /* \"#utility.yul\":4508:4526   */\n      0x44\n      dup3\n      add\n        /* \"#utility.yul\":4501:4562   */\n      mstore\n        /* \"#utility.yul\":4579:4597   */\n      0x64\n      add\n        /* \"contracts/ModuleX.sol\":4722:4795  require(details.owner == _msgSender(), \"ModuleX:Caller is not the owner\") */\n      tag_109\n        /* \"#utility.yul\":4248:4603   */\n      jump\n        /* \"contracts/ModuleX.sol\":4722:4795  require(details.owner == _msgSender(), \"ModuleX:Caller is not the owner\") */\n    tag_114:\n        /* \"contracts/ModuleX.sol\":4828:4844  details.maturity */\n      dup1\n      sload\n      shl(0xa0, 0x01)\n      swap1\n      div\n      sub(shl(0x60, 0x01), 0x01)\n      and\n        /* \"contracts/ModuleX.sol\":2545:2560  block.timestamp */\n      timestamp\n      sub(shl(0x60, 0x01), 0x01)\n        /* \"contracts/ModuleX.sol\":4814:4844  time_now() >= details.maturity */\n      and\n      lt\n      iszero\n        /* \"contracts/ModuleX.sol\":4806:4891  require(time_now() >= details.maturity, \"ModuleX:Early Withdrawal is not permitted!\") */\n      tag_119\n      jumpi\n      mload(0x40)\n      shl(0xe5, 0x461bcd)\n      dup2\n      mstore\n        /* \"#utility.yul\":4810:4812   */\n      0x20\n        /* \"contracts/ModuleX.sol\":4806:4891  require(time_now() >= details.maturity, \"ModuleX:Early Withdrawal is not permitted!\") */\n      0x04\n      dup3\n      add\n        /* \"#utility.yul\":4792:4813   */\n      mstore\n        /* \"#utility.yul\":4849:4851   */\n      0x2a\n        /* \"#utility.yul\":4829:4847   */\n      0x24\n      dup3\n      add\n        /* \"#utility.yul\":4822:4852   */\n      mstore\n        /* \"#utility.yul\":4888:4922   */\n      0x4d6f64756c65583a4561726c79205769746864726177616c206973206e6f7420\n        /* \"#utility.yul\":4868:4886   */\n      0x44\n      dup3\n      add\n        /* \"#utility.yul\":4861:4923   */\n      mstore\n      shl(0xb0, 0x7065726d697474656421)\n        /* \"#utility.yul\":4939:4957   */\n      0x64\n      dup3\n      add\n        /* \"#utility.yul\":4932:4972   */\n      mstore\n        /* \"#utility.yul\":4989:5008   */\n      0x84\n      add\n        /* \"contracts/ModuleX.sol\":4806:4891  require(time_now() >= details.maturity, \"ModuleX:Early Withdrawal is not permitted!\") */\n      tag_109\n        /* \"#utility.yul\":4608:5014   */\n      jump\n        /* \"contracts/ModuleX.sol\":4806:4891  require(time_now() >= details.maturity, \"ModuleX:Early Withdrawal is not permitted!\") */\n    tag_119:\n        /* \"contracts/ModuleX.sol\":4935:4936  0 */\n      0x00\n        /* \"contracts/ModuleX.sol\":4911:4918  details */\n      dup2\n        /* \"contracts/ModuleX.sol\":4911:4932  details.reward_amount */\n      0x02\n      add\n      sload\n        /* \"contracts/ModuleX.sol\":4911:4936  details.reward_amount > 0 */\n      gt\n        /* \"contracts/ModuleX.sol\":4903:4965  require(details.reward_amount > 0, \"ModuleX:Nothing to claim\") */\n      tag_122\n      jumpi\n      mload(0x40)\n      shl(0xe5, 0x461bcd)\n      dup2\n      mstore\n        /* \"#utility.yul\":5221:5223   */\n      0x20\n        /* \"contracts/ModuleX.sol\":4903:4965  require(details.reward_amount > 0, \"ModuleX:Nothing to claim\") */\n      0x04\n      dup3\n      add\n        /* \"#utility.yul\":5203:5224   */\n      mstore\n        /* \"#utility.yul\":5260:5262   */\n      0x18\n        /* \"#utility.yul\":5240:5258   */\n      0x24\n      dup3\n      add\n        /* \"#utility.yul\":5233:5263   */\n      mstore\n        /* \"#utility.yul\":5299:5325   */\n      0x4d6f64756c65583a4e6f7468696e6720746f20636c61696d0000000000000000\n        /* \"#utility.yul\":5279:5297   */\n      0x44\n      dup3\n      add\n        /* \"#utility.yul\":5272:5326   */\n      mstore\n        /* \"#utility.yul\":5343:5361   */\n      0x64\n      add\n        /* \"contracts/ModuleX.sol\":4903:4965  require(details.reward_amount > 0, \"ModuleX:Nothing to claim\") */\n      tag_109\n        /* \"#utility.yul\":5019:5367   */\n      jump\n        /* \"contracts/ModuleX.sol\":4903:4965  require(details.reward_amount > 0, \"ModuleX:Nothing to claim\") */\n    tag_122:\n        /* \"contracts/ModuleX.sol\":4997:5018  details.reward_amount */\n      0x02\n      dup2\n      add\n      sload\n        /* \"contracts/ModuleX.sol\":5029:5077  xCREDI.safeTransfer(_msgSender(), reward_amount) */\n      tag_125\n        /* \"contracts/ModuleX.sol\":5029:5035  xCREDI */\n      immutable(\"0x0d39e801c12a1db7a049a11375544bfecda5660c1466262d86703950d5bcb07f\")\n      sub(shl(0xa0, 0x01), 0x01)\n        /* \"contracts/ModuleX.sol\":5029:5048  xCREDI.safeTransfer */\n      and\n        /* \"@openzeppelin/contracts/utils/Context.sol\":735:745  msg.sender */\n      caller\n        /* \"contracts/ModuleX.sol\":4997:5018  details.reward_amount */\n      dup4\n        /* \"contracts/ModuleX.sol\":5029:5048  xCREDI.safeTransfer */\n      tag_127\n        /* \"contracts/ModuleX.sol\":5029:5077  xCREDI.safeTransfer(_msgSender(), reward_amount) */\n      jump\t// in\n    tag_125:\n        /* \"contracts/ModuleX.sol\":5113:5126  reward_amount */\n      dup1\n        /* \"contracts/ModuleX.sol\":5093:5109  pending_payments */\n      0x04\n      0x00\n        /* \"contracts/ModuleX.sol\":5093:5126  pending_payments -= reward_amount */\n      dup3\n      dup3\n      sload\n      tag_128\n      swap2\n      swap1\n      tag_129\n      jump\t// in\n    tag_128:\n      swap1\n      swap2\n      sstore\n      pop\n      pop\n        /* \"contracts/ModuleX.sol\":5161:5162  0 */\n      0x00\n        /* \"contracts/ModuleX.sol\":5137:5158  details.reward_amount */\n      0x02\n      dup4\n      add\n        /* \"contracts/ModuleX.sol\":5137:5162  details.reward_amount = 0 */\n      sstore\n        /* \"contracts/ModuleX.sol\":5179:5199  RewardPaid(stake_id) */\n      mload(0x40)\n        /* \"#utility.yul\":160:185   */\n      dup6\n      dup2\n      mstore\n        /* \"contracts/ModuleX.sol\":5179:5199  RewardPaid(stake_id) */\n      0x67bb155fcabb99400c32b640dc7704c8f18aae4c817704c7267c5a8cd26dfc19\n      swap1\n        /* \"#utility.yul\":148:150   */\n      0x20\n        /* \"#utility.yul\":133:151   */\n      add\n        /* \"contracts/ModuleX.sol\":5179:5199  RewardPaid(stake_id) */\n      mload(0x40)\n      dup1\n      swap2\n      sub\n      swap1\n      log1\n        /* \"contracts/ModuleX.sol\":5218:5231  reward_amount */\n      swap5\n        /* \"contracts/ModuleX.sol\":4570:5239  function claim(uint stake_id) external validate_stake(stake_id) returns(uint)... */\n      swap4\n      pop\n      pop\n      pop\n      pop\n      jump\t// out\n        /* \"@openzeppelin/contracts/access/Ownable.sol\":2293:2394  function renounceOwnership() public virtual onlyOwner {... */\n    tag_42:\n        /* \"@openzeppelin/contracts/access/Ownable.sol\":1531:1544  _checkOwner() */\n      tag_132\n        /* \"@openzeppelin/contracts/access/Ownable.sol\":1531:1542  _checkOwner */\n      tag_133\n        /* \"@openzeppelin/contracts/access/Ownable.sol\":1531:1544  _checkOwner() */\n      jump\t// in\n    tag_132:\n        /* \"@openzeppelin/contracts/access/Ownable.sol\":2357:2387  _transferOwnership(address(0)) */\n      tag_135\n        /* \"@openzeppelin/contracts/access/Ownable.sol\":2384:2385  0 */\n      0x00\n        /* \"@openzeppelin/contracts/access/Ownable.sol\":2357:2375  _transferOwnership */\n      tag_136\n        /* \"@openzeppelin/contracts/access/Ownable.sol\":2357:2387  _transferOwnership(address(0)) */\n      jump\t// in\n    tag_135:\n        /* \"@openzeppelin/contracts/access/Ownable.sol\":2293:2394  function renounceOwnership() public virtual onlyOwner {... */\n      jump\t// out\n        /* \"contracts/ModuleX.sol\":5247:5803  function withdrawCREDI(uint stake_id, uint amount) external onlyOwner validate_stake(stake_id)... */\n    tag_60:\n        /* \"@openzeppelin/contracts/access/Ownable.sol\":1531:1544  _checkOwner() */\n      tag_140\n        /* \"@openzeppelin/contracts/access/Ownable.sol\":1531:1542  _checkOwner */\n      tag_133\n        /* \"@openzeppelin/contracts/access/Ownable.sol\":1531:1544  _checkOwner() */\n      jump\t// in\n    tag_140:\n        /* \"contracts/ModuleX.sol\":5332:5340  stake_id */\n      dup2\n        /* \"contracts/ModuleX.sol\":1463:1464  0 */\n      0x00\n        /* \"contracts/ModuleX.sol\":1452:1460  stake_id */\n      dup2\n        /* \"contracts/ModuleX.sol\":1452:1464  stake_id > 0 */\n      gt\n        /* \"contracts/ModuleX.sol\":1452:1491  stake_id > 0 && stake_id < stakes_count */\n      dup1\n      iszero\n      tag_142\n      jumpi\n      pop\n        /* \"contracts/ModuleX.sol\":1479:1491  stakes_count */\n      sload(0x02)\n        /* \"contracts/ModuleX.sol\":1468:1476  stake_id */\n      dup2\n        /* \"contracts/ModuleX.sol\":1468:1491  stake_id < stakes_count */\n      lt\n        /* \"contracts/ModuleX.sol\":1452:1491  stake_id > 0 && stake_id < stakes_count */\n    tag_142:\n        /* \"contracts/ModuleX.sol\":1444:1521  require(stake_id > 0 && stake_id < stakes_count, \"ModuleX:Invalid Stake ID!\") */\n      tag_143\n      jumpi\n      mload(0x40)\n      shl(0xe5, 0x461bcd)\n      dup2\n      mstore\n        /* \"#utility.yul\":4096:4098   */\n      0x20\n        /* \"contracts/ModuleX.sol\":1444:1521  require(stake_id > 0 && stake_id < stakes_count, \"ModuleX:Invalid Stake ID!\") */\n      0x04\n      dup3\n      add\n        /* \"#utility.yul\":4078:4099   */\n      mstore\n        /* \"#utility.yul\":4135:4137   */\n      0x19\n        /* \"#utility.yul\":4115:4133   */\n      0x24\n      dup3\n      add\n        /* \"#utility.yul\":4108:4138   */\n      mstore\n      shl(0x38, 0x4d6f64756c65583a496e76616c6964205374616b6520494421)\n        /* \"#utility.yul\":4154:4172   */\n      0x44\n      dup3\n      add\n        /* \"#utility.yul\":4147:4202   */\n      mstore\n        /* \"#utility.yul\":4219:4237   */\n      0x64\n      add\n        /* \"contracts/ModuleX.sol\":1444:1521  require(stake_id > 0 && stake_id < stakes_count, \"ModuleX:Invalid Stake ID!\") */\n      tag_109\n        /* \"#utility.yul\":3894:4243   */\n      jump\n        /* \"contracts/ModuleX.sol\":1444:1521  require(stake_id > 0 && stake_id < stakes_count, \"ModuleX:Invalid Stake ID!\") */\n    tag_143:\n        /* \"contracts/ModuleX.sol\":5376:5377  0 */\n      0x00\n        /* \"contracts/ModuleX.sol\":5367:5373  amount */\n      dup3\n        /* \"contracts/ModuleX.sol\":5367:5377  amount > 0 */\n      gt\n        /* \"contracts/ModuleX.sol\":5358:5423  require (amount > 0, \"ModuleX:amount must be greater than zero!\") */\n      tag_146\n      jumpi\n      mload(0x40)\n      shl(0xe5, 0x461bcd)\n      dup2\n      mstore\n        /* \"#utility.yul\":5839:5841   */\n      0x20\n        /* \"contracts/ModuleX.sol\":5358:5423  require (amount > 0, \"ModuleX:amount must be greater than zero!\") */\n      0x04\n      dup3\n      add\n        /* \"#utility.yul\":5821:5842   */\n      mstore\n        /* \"#utility.yul\":5878:5880   */\n      0x29\n        /* \"#utility.yul\":5858:5876   */\n      0x24\n      dup3\n      add\n        /* \"#utility.yul\":5851:5881   */\n      mstore\n        /* \"#utility.yul\":5917:5951   */\n      0x4d6f64756c65583a616d6f756e74206d75737420626520677265617465722074\n        /* \"#utility.yul\":5897:5915   */\n      0x44\n      dup3\n      add\n        /* \"#utility.yul\":5890:5952   */\n      mstore\n      shl(0xb8, 0x68616e207a65726f21)\n        /* \"#utility.yul\":5968:5986   */\n      0x64\n      dup3\n      add\n        /* \"#utility.yul\":5961:6000   */\n      mstore\n        /* \"#utility.yul\":6017:6036   */\n      0x84\n      add\n        /* \"contracts/ModuleX.sol\":5358:5423  require (amount > 0, \"ModuleX:amount must be greater than zero!\") */\n      tag_109\n        /* \"#utility.yul\":5637:6042   */\n      jump\n        /* \"contracts/ModuleX.sol\":5358:5423  require (amount > 0, \"ModuleX:amount must be greater than zero!\") */\n    tag_146:\n        /* \"contracts/ModuleX.sol\":5434:5462  StakeDetails storage details */\n      0x00\n        /* \"contracts/ModuleX.sol\":5465:5481  stakes[stake_id] */\n      dup4\n      dup2\n      mstore\n        /* \"contracts/ModuleX.sol\":5465:5471  stakes */\n      0x01\n        /* \"contracts/ModuleX.sol\":5465:5481  stakes[stake_id] */\n      0x20\n      mstore\n      0x40\n      swap1\n      keccak256\n        /* \"contracts/ModuleX.sol\":5514:5530  details.maturity */\n      dup1\n      sload\n      shl(0xa0, 0x01)\n      swap1\n      div\n      sub(shl(0x60, 0x01), 0x01)\n      and\n        /* \"contracts/ModuleX.sol\":2545:2560  block.timestamp */\n      timestamp\n      sub(shl(0x60, 0x01), 0x01)\n        /* \"contracts/ModuleX.sol\":5500:5530  time_now() <= details.maturity */\n      and\n      gt\n      iszero\n        /* \"contracts/ModuleX.sol\":5492:5556  require(time_now() <= details.maturity, \"ModuleX:Burnt tokens!\") */\n      tag_150\n      jumpi\n      mload(0x40)\n      shl(0xe5, 0x461bcd)\n      dup2\n      mstore\n        /* \"#utility.yul\":6249:6251   */\n      0x20\n        /* \"contracts/ModuleX.sol\":5492:5556  require(time_now() <= details.maturity, \"ModuleX:Burnt tokens!\") */\n      0x04\n      dup3\n      add\n        /* \"#utility.yul\":6231:6252   */\n      mstore\n        /* \"#utility.yul\":6288:6290   */\n      0x15\n        /* \"#utility.yul\":6268:6286   */\n      0x24\n      dup3\n      add\n        /* \"#utility.yul\":6261:6291   */\n      mstore\n      shl(0x58, 0x4d6f64756c65583a4275726e7420746f6b656e7321)\n        /* \"#utility.yul\":6307:6325   */\n      0x44\n      dup3\n      add\n        /* \"#utility.yul\":6300:6351   */\n      mstore\n        /* \"#utility.yul\":6368:6386   */\n      0x64\n      add\n        /* \"contracts/ModuleX.sol\":5492:5556  require(time_now() <= details.maturity, \"ModuleX:Burnt tokens!\") */\n      tag_109\n        /* \"#utility.yul\":6047:6392   */\n      jump\n        /* \"contracts/ModuleX.sol\":5492:5556  require(time_now() <= details.maturity, \"ModuleX:Burnt tokens!\") */\n    tag_150:\n        /* \"contracts/ModuleX.sol\":5586:5593  details */\n      dup1\n        /* \"contracts/ModuleX.sol\":5586:5606  details.stake_amount */\n      0x01\n      add\n      sload\n        /* \"contracts/ModuleX.sol\":5576:5582  amount */\n      dup4\n        /* \"contracts/ModuleX.sol\":5576:5606  amount <= details.stake_amount */\n      gt\n      iszero\n        /* \"contracts/ModuleX.sol\":5568:5640  require(amount <= details.stake_amount, \"ModuleX:Insufficient balance!\") */\n      tag_153\n      jumpi\n      mload(0x40)\n      shl(0xe5, 0x461bcd)\n      dup2\n      mstore\n        /* \"#utility.yul\":6599:6601   */\n      0x20\n        /* \"contracts/ModuleX.sol\":5568:5640  require(amount <= details.stake_amount, \"ModuleX:Insufficient balance!\") */\n      0x04\n      dup3\n      add\n        /* \"#utility.yul\":6581:6602   */\n      mstore\n        /* \"#utility.yul\":6638:6640   */\n      0x1d\n        /* \"#utility.yul\":6618:6636   */\n      0x24\n      dup3\n      add\n        /* \"#utility.yul\":6611:6641   */\n      mstore\n        /* \"#utility.yul\":6677:6708   */\n      0x4d6f64756c65583a496e73756666696369656e742062616c616e636521000000\n        /* \"#utility.yul\":6657:6675   */\n      0x44\n      dup3\n      add\n        /* \"#utility.yul\":6650:6709   */\n      mstore\n        /* \"#utility.yul\":6726:6744   */\n      0x64\n      add\n        /* \"contracts/ModuleX.sol\":5568:5640  require(amount <= details.stake_amount, \"ModuleX:Insufficient balance!\") */\n      tag_109\n        /* \"#utility.yul\":6397:6750   */\n      jump\n        /* \"contracts/ModuleX.sol\":5568:5640  require(amount <= details.stake_amount, \"ModuleX:Insufficient balance!\") */\n    tag_153:\n        /* \"contracts/ModuleX.sol\":5652:5706  CREDI.safeTransfer(_msgSender(), details.stake_amount) */\n      tag_156\n        /* \"@openzeppelin/contracts/utils/Context.sol\":735:745  msg.sender */\n      caller\n        /* \"contracts/ModuleX.sol\":5685:5705  details.stake_amount */\n      0x01\n      dup4\n      add\n      sload\n      sub(shl(0xa0, 0x01), 0x01)\n        /* \"contracts/ModuleX.sol\":5652:5657  CREDI */\n      immutable(\"0xad444e1082e5d5bbfca385a9a566a2d71dbd349bb06a97871f0be4657884f8e0\")\n        /* \"contracts/ModuleX.sol\":5652:5670  CREDI.safeTransfer */\n      and\n      swap2\n        /* \"contracts/ModuleX.sol\":5652:5706  CREDI.safeTransfer(_msgSender(), details.stake_amount) */\n      swap1\n        /* \"contracts/ModuleX.sol\":5652:5670  CREDI.safeTransfer */\n      tag_127\n        /* \"contracts/ModuleX.sol\":5652:5706  CREDI.safeTransfer(_msgSender(), details.stake_amount) */\n      jump\t// in\n    tag_156:\n        /* \"contracts/ModuleX.sol\":5741:5747  amount */\n      dup3\n        /* \"contracts/ModuleX.sol\":5717:5724  details */\n      dup2\n        /* \"contracts/ModuleX.sol\":5717:5737  details.stake_amount */\n      0x01\n      add\n      0x00\n        /* \"contracts/ModuleX.sol\":5717:5747  details.stake_amount -= amount */\n      dup3\n      dup3\n      sload\n      tag_158\n      swap2\n      swap1\n      tag_129\n      jump\t// in\n    tag_158:\n      swap1\n      swap2\n      sstore\n      pop\n      pop\n        /* \"contracts/ModuleX.sol\":5763:5795  CREDIWithdrawn(stake_id, amount) */\n      0x40\n      dup1\n      mload\n        /* \"#utility.yul\":3624:3649   */\n      dup6\n      dup2\n      mstore\n        /* \"#utility.yul\":3680:3682   */\n      0x20\n        /* \"#utility.yul\":3665:3683   */\n      dup2\n      add\n        /* \"#utility.yul\":3658:3692   */\n      dup6\n      swap1\n      mstore\n        /* \"contracts/ModuleX.sol\":5763:5795  CREDIWithdrawn(stake_id, amount) */\n      0x03a00e6132085cbc9ea18899cd135ef9cad5d305d58506e08e7b1a9b96199a9c\n      swap2\n        /* \"#utility.yul\":3597:3615   */\n      add\n        /* \"contracts/ModuleX.sol\":5763:5795  CREDIWithdrawn(stake_id, amount) */\n      mload(0x40)\n      dup1\n      swap2\n      sub\n      swap1\n      log1\n        /* \"contracts/ModuleX.sol\":5347:5803  {... */\n      pop\n        /* \"@openzeppelin/contracts/access/Ownable.sol\":1554:1555  _ */\n      pop\n        /* \"contracts/ModuleX.sol\":5247:5803  function withdrawCREDI(uint stake_id, uint amount) external onlyOwner validate_stake(stake_id)... */\n      pop\n      pop\n      jump\t// out\n        /* \"contracts/ModuleX.sol\":1954:2055  function getStakesCount() external view returns(uint)... */\n    tag_68:\n        /* \"contracts/ModuleX.sol\":2002:2006  uint */\n      0x00\n        /* \"contracts/ModuleX.sol\":2046:2047  1 */\n      0x01\n        /* \"contracts/ModuleX.sol\":2031:2043  stakes_count */\n      sload(0x02)\n        /* \"contracts/ModuleX.sol\":2031:2047  stakes_count - 1 */\n      tag_161\n      swap2\n      swap1\n      tag_129\n      jump\t// in\n    tag_161:\n        /* \"contracts/ModuleX.sol\":2024:2047  return stakes_count - 1 */\n      swap1\n      pop\n        /* \"contracts/ModuleX.sol\":1954:2055  function getStakesCount() external view returns(uint)... */\n      swap1\n      jump\t// out\n        /* \"contracts/ModuleX.sol\":3485:3614  function getDifficulty() external view returns(uint)... */\n    tag_71:\n        /* \"contracts/ModuleX.sol\":3532:3536  uint */\n      0x00\n        /* \"contracts/ModuleX.sol\":608:610  11 */\n      0x0b\n        /* \"contracts/ModuleX.sol\":682:697  500000 * 10**18 */\n      0x69e10de76676d0800000\n        /* \"contracts/ModuleX.sol\":3561:3573  total_staked */\n      sload(0x03)\n        /* \"contracts/ModuleX.sol\":3561:3593  total_staked/DIFFICULTY_INTERVAL */\n      tag_163\n      swap2\n      swap1\n      tag_164\n      jump\t// in\n    tag_163:\n        /* \"contracts/ModuleX.sol\":3561:3606  total_staked/DIFFICULTY_INTERVAL + DIFFICULTY */\n      tag_161\n      swap2\n      swap1\n      tag_166\n      jump\t// in\n        /* \"contracts/ModuleX.sol\":5811:6523  function batchWithdrawCREDI(uint[] calldata stake_ids) external onlyOwner... */\n    tag_76:\n        /* \"@openzeppelin/contracts/access/Ownable.sol\":1531:1544  _checkOwner() */\n      tag_168\n        /* \"@openzeppelin/contracts/access/Ownable.sol\":1531:1542  _checkOwner */\n      tag_133\n        /* \"@openzeppelin/contracts/access/Ownable.sol\":1531:1544  _checkOwner() */\n      jump\t// in\n    tag_168:\n        /* \"contracts/ModuleX.sol\":5901:5918  uint total_amount */\n      0x00\n      dup1\n        /* \"contracts/ModuleX.sol\":5933:6392  for(uint i = 0; i < stake_ids.length; i++)... */\n    tag_170:\n        /* \"contracts/ModuleX.sol\":5949:5969  i < stake_ids.length */\n      dup3\n      dup2\n      lt\n        /* \"contracts/ModuleX.sol\":5933:6392  for(uint i = 0; i < stake_ids.length; i++)... */\n      iszero\n      tag_171\n      jumpi\n        /* \"contracts/ModuleX.sol\":6023:6035  stakes_count */\n      sload(0x02)\n        /* \"contracts/ModuleX.sol\":6008:6017  stake_ids */\n      dup5\n      dup5\n        /* \"contracts/ModuleX.sol\":6018:6019  i */\n      dup4\n        /* \"contracts/ModuleX.sol\":6008:6020  stake_ids[i] */\n      dup2\n      dup2\n      lt\n      tag_174\n      jumpi\n      tag_174\n      tag_175\n      jump\t// in\n    tag_174:\n      swap1\n      pop\n      0x20\n      mul\n      add\n      calldataload\n        /* \"contracts/ModuleX.sol\":6008:6035  stake_ids[i] < stakes_count */\n      lt\n        /* \"contracts/ModuleX.sol\":6000:6065  require(stake_ids[i] < stakes_count, \"ModuleX:Invalid Stake ID!\") */\n      tag_176\n      jumpi\n      mload(0x40)\n      shl(0xe5, 0x461bcd)\n      dup2\n      mstore\n        /* \"#utility.yul\":4096:4098   */\n      0x20\n        /* \"contracts/ModuleX.sol\":6000:6065  require(stake_ids[i] < stakes_count, \"ModuleX:Invalid Stake ID!\") */\n      0x04\n      dup3\n      add\n        /* \"#utility.yul\":4078:4099   */\n      mstore\n        /* \"#utility.yul\":4135:4137   */\n      0x19\n        /* \"#utility.yul\":4115:4133   */\n      0x24\n      dup3\n      add\n        /* \"#utility.yul\":4108:4138   */\n      mstore\n      shl(0x38, 0x4d6f64756c65583a496e76616c6964205374616b6520494421)\n        /* \"#utility.yul\":4154:4172   */\n      0x44\n      dup3\n      add\n        /* \"#utility.yul\":4147:4202   */\n      mstore\n        /* \"#utility.yul\":4219:4237   */\n      0x64\n      add\n        /* \"contracts/ModuleX.sol\":6000:6065  require(stake_ids[i] < stakes_count, \"ModuleX:Invalid Stake ID!\") */\n      tag_109\n        /* \"#utility.yul\":3894:4243   */\n      jump\n        /* \"contracts/ModuleX.sol\":6000:6065  require(stake_ids[i] < stakes_count, \"ModuleX:Invalid Stake ID!\") */\n    tag_176:\n        /* \"contracts/ModuleX.sol\":6080:6108  StakeDetails storage details */\n      0x00\n        /* \"contracts/ModuleX.sol\":6111:6117  stakes */\n      0x01\n        /* \"contracts/ModuleX.sol\":6111:6131  stakes[stake_ids[i]] */\n      0x00\n        /* \"contracts/ModuleX.sol\":6118:6127  stake_ids */\n      dup7\n      dup7\n        /* \"contracts/ModuleX.sol\":6128:6129  i */\n      dup6\n        /* \"contracts/ModuleX.sol\":6118:6130  stake_ids[i] */\n      dup2\n      dup2\n      lt\n      tag_179\n      jumpi\n      tag_179\n      tag_175\n      jump\t// in\n    tag_179:\n      0x20\n      swap1\n      dup2\n      mul\n      swap3\n      swap1\n      swap3\n      add\n      calldataload\n        /* \"contracts/ModuleX.sol\":6111:6131  stakes[stake_ids[i]] */\n      dup4\n      mstore\n      pop\n      dup2\n      add\n      swap2\n      swap1\n      swap2\n      mstore\n      0x40\n      add\n      0x00\n      keccak256\n        /* \"contracts/ModuleX.sol\":6168:6184  details.maturity */\n      dup1\n      sload\n        /* \"contracts/ModuleX.sol\":6111:6131  stakes[stake_ids[i]] */\n      swap1\n      swap2\n      pop\n      shl(0xa0, 0x01)\n        /* \"contracts/ModuleX.sol\":6168:6184  details.maturity */\n      swap1\n      div\n      sub(shl(0x60, 0x01), 0x01)\n      and\n        /* \"contracts/ModuleX.sol\":2545:2560  block.timestamp */\n      timestamp\n      sub(shl(0x60, 0x01), 0x01)\n        /* \"contracts/ModuleX.sol\":6154:6184  time_now() <= details.maturity */\n      and\n      gt\n      iszero\n        /* \"contracts/ModuleX.sol\":6146:6210  require(time_now() <= details.maturity, \"ModuleX:Burnt tokens!\") */\n      tag_181\n      jumpi\n      mload(0x40)\n      shl(0xe5, 0x461bcd)\n      dup2\n      mstore\n        /* \"#utility.yul\":6249:6251   */\n      0x20\n        /* \"contracts/ModuleX.sol\":6146:6210  require(time_now() <= details.maturity, \"ModuleX:Burnt tokens!\") */\n      0x04\n      dup3\n      add\n        /* \"#utility.yul\":6231:6252   */\n      mstore\n        /* \"#utility.yul\":6288:6290   */\n      0x15\n        /* \"#utility.yul\":6268:6286   */\n      0x24\n      dup3\n      add\n        /* \"#utility.yul\":6261:6291   */\n      mstore\n      shl(0x58, 0x4d6f64756c65583a4275726e7420746f6b656e7321)\n        /* \"#utility.yul\":6307:6325   */\n      0x44\n      dup3\n      add\n        /* \"#utility.yul\":6300:6351   */\n      mstore\n        /* \"#utility.yul\":6368:6386   */\n      0x64\n      add\n        /* \"contracts/ModuleX.sol\":6146:6210  require(time_now() <= details.maturity, \"ModuleX:Burnt tokens!\") */\n      tag_109\n        /* \"#utility.yul\":6047:6392   */\n      jump\n        /* \"contracts/ModuleX.sol\":6146:6210  require(time_now() <= details.maturity, \"ModuleX:Burnt tokens!\") */\n    tag_181:\n        /* \"contracts/ModuleX.sol\":6241:6261  details.stake_amount */\n      0x01\n      dup2\n      add\n      sload\n        /* \"contracts/ModuleX.sol\":6225:6261  total_amount += details.stake_amount */\n      tag_183\n      swap1\n      dup5\n      tag_166\n      jump\t// in\n    tag_183:\n        /* \"contracts/ModuleX.sol\":6299:6300  0 */\n      0x00\n        /* \"contracts/ModuleX.sol\":6276:6296  details.stake_amount */\n      0x01\n      dup4\n      add\n        /* \"contracts/ModuleX.sol\":6276:6300  details.stake_amount = 0 */\n      sstore\n        /* \"contracts/ModuleX.sol\":6225:6261  total_amount += details.stake_amount */\n      swap3\n      pop\n        /* \"contracts/ModuleX.sol\":6330:6380  CREDIWithdrawn(stake_ids[i], details.stake_amount) */\n      0x03a00e6132085cbc9ea18899cd135ef9cad5d305d58506e08e7b1a9b96199a9c\n        /* \"contracts/ModuleX.sol\":6345:6354  stake_ids */\n      dup6\n      dup6\n        /* \"contracts/ModuleX.sol\":6355:6356  i */\n      dup5\n        /* \"contracts/ModuleX.sol\":6345:6357  stake_ids[i] */\n      dup2\n      dup2\n      lt\n      tag_185\n      jumpi\n      tag_185\n      tag_175\n      jump\t// in\n    tag_185:\n      swap1\n      pop\n      0x20\n      mul\n      add\n      calldataload\n        /* \"contracts/ModuleX.sol\":6359:6366  details */\n      dup3\n        /* \"contracts/ModuleX.sol\":6359:6379  details.stake_amount */\n      0x01\n      add\n      sload\n        /* \"contracts/ModuleX.sol\":6330:6380  CREDIWithdrawn(stake_ids[i], details.stake_amount) */\n      mload(0x40)\n      tag_186\n      swap3\n      swap2\n      swap1\n        /* \"#utility.yul\":3624:3649   */\n      swap2\n      dup3\n      mstore\n        /* \"#utility.yul\":3680:3682   */\n      0x20\n        /* \"#utility.yul\":3665:3683   */\n      dup3\n      add\n        /* \"#utility.yul\":3658:3692   */\n      mstore\n        /* \"#utility.yul\":3612:3614   */\n      0x40\n        /* \"#utility.yul\":3597:3615   */\n      add\n      swap1\n        /* \"#utility.yul\":3450:3698   */\n      jump\n        /* \"contracts/ModuleX.sol\":6330:6380  CREDIWithdrawn(stake_ids[i], details.stake_amount) */\n    tag_186:\n      mload(0x40)\n      dup1\n      swap2\n      sub\n      swap1\n      log1\n      pop\n        /* \"contracts/ModuleX.sol\":5971:5974  i++ */\n      0x01\n      add\n        /* \"contracts/ModuleX.sol\":5933:6392  for(uint i = 0; i < stake_ids.length; i++)... */\n      jump(tag_170)\n    tag_171:\n      pop\n        /* \"contracts/ModuleX.sol\":6425:6426  0 */\n      0x00\n        /* \"contracts/ModuleX.sol\":6410:6422  total_amount */\n      dup2\n        /* \"contracts/ModuleX.sol\":6410:6426  total_amount > 0 */\n      gt\n        /* \"contracts/ModuleX.sol\":6402:6457  require(total_amount > 0, \"ModuleX:Total amount is 0!\") */\n      tag_187\n      jumpi\n      mload(0x40)\n      shl(0xe5, 0x461bcd)\n      dup2\n      mstore\n        /* \"#utility.yul\":7441:7443   */\n      0x20\n        /* \"contracts/ModuleX.sol\":6402:6457  require(total_amount > 0, \"ModuleX:Total amount is 0!\") */\n      0x04\n      dup3\n      add\n        /* \"#utility.yul\":7423:7444   */\n      mstore\n        /* \"#utility.yul\":7480:7482   */\n      0x1a\n        /* \"#utility.yul\":7460:7478   */\n      0x24\n      dup3\n      add\n        /* \"#utility.yul\":7453:7483   */\n      mstore\n        /* \"#utility.yul\":7519:7547   */\n      0x4d6f64756c65583a546f74616c20616d6f756e74206973203021000000000000\n        /* \"#utility.yul\":7499:7517   */\n      0x44\n      dup3\n      add\n        /* \"#utility.yul\":7492:7548   */\n      mstore\n        /* \"#utility.yul\":7565:7583   */\n      0x64\n      add\n        /* \"contracts/ModuleX.sol\":6402:6457  require(total_amount > 0, \"ModuleX:Total amount is 0!\") */\n      tag_109\n        /* \"#utility.yul\":7239:7589   */\n      jump\n        /* \"contracts/ModuleX.sol\":6402:6457  require(total_amount > 0, \"ModuleX:Total amount is 0!\") */\n    tag_187:\n        /* \"contracts/ModuleX.sol\":6469:6515  CREDI.safeTransfer(_msgSender(), total_amount) */\n      tag_190\n        /* \"contracts/ModuleX.sol\":6469:6474  CREDI */\n      immutable(\"0xad444e1082e5d5bbfca385a9a566a2d71dbd349bb06a97871f0be4657884f8e0\")\n      sub(shl(0xa0, 0x01), 0x01)\n        /* \"contracts/ModuleX.sol\":6469:6487  CREDI.safeTransfer */\n      and\n        /* \"@openzeppelin/contracts/utils/Context.sol\":735:745  msg.sender */\n      caller\n        /* \"contracts/ModuleX.sol\":6502:6514  total_amount */\n      dup4\n        /* \"contracts/ModuleX.sol\":6469:6487  CREDI.safeTransfer */\n      tag_127\n        /* \"contracts/ModuleX.sol\":6469:6515  CREDI.safeTransfer(_msgSender(), total_amount) */\n      jump\t// in\n    tag_190:\n        /* \"contracts/ModuleX.sol\":5890:6523  {... */\n      pop\n        /* \"contracts/ModuleX.sol\":5811:6523  function batchWithdrawCREDI(uint[] calldata stake_ids) external onlyOwner... */\n      pop\n      pop\n      jump\t// out\n        /* \"contracts/ModuleX.sol\":6531:6769  function addRewards(uint amount) external ... */\n    tag_79:\n        /* \"contracts/ModuleX.sol\":6608:6609  0 */\n      0x00\n        /* \"contracts/ModuleX.sol\":6599:6605  amount */\n      dup2\n        /* \"contracts/ModuleX.sol\":6599:6609  amount > 0 */\n      gt\n        /* \"contracts/ModuleX.sol\":6590:6655  require (amount > 0, \"ModuleX:amount must be greater than zero!\") */\n      tag_193\n      jumpi\n      mload(0x40)\n      shl(0xe5, 0x461bcd)\n      dup2\n      mstore\n        /* \"#utility.yul\":5839:5841   */\n      0x20\n        /* \"contracts/ModuleX.sol\":6590:6655  require (amount > 0, \"ModuleX:amount must be greater than zero!\") */\n      0x04\n      dup3\n      add\n        /* \"#utility.yul\":5821:5842   */\n      mstore\n        /* \"#utility.yul\":5878:5880   */\n      0x29\n        /* \"#utility.yul\":5858:5876   */\n      0x24\n      dup3\n      add\n        /* \"#utility.yul\":5851:5881   */\n      mstore\n        /* \"#utility.yul\":5917:5951   */\n      0x4d6f64756c65583a616d6f756e74206d75737420626520677265617465722074\n        /* \"#utility.yul\":5897:5915   */\n      0x44\n      dup3\n      add\n        /* \"#utility.yul\":5890:5952   */\n      mstore\n      shl(0xb8, 0x68616e207a65726f21)\n        /* \"#utility.yul\":5968:5986   */\n      0x64\n      dup3\n      add\n        /* \"#utility.yul\":5961:6000   */\n      mstore\n        /* \"#utility.yul\":6017:6036   */\n      0x84\n      add\n        /* \"contracts/ModuleX.sol\":6590:6655  require (amount > 0, \"ModuleX:amount must be greater than zero!\") */\n      tag_109\n        /* \"#utility.yul\":5637:6042   */\n      jump\n        /* \"contracts/ModuleX.sol\":6590:6655  require (amount > 0, \"ModuleX:amount must be greater than zero!\") */\n    tag_193:\n        /* \"contracts/ModuleX.sol\":6666:6726  xCREDI.safeTransferFrom(_msgSender(), address(this), amount) */\n      tag_195\n        /* \"contracts/ModuleX.sol\":6666:6672  xCREDI */\n      immutable(\"0x0d39e801c12a1db7a049a11375544bfecda5660c1466262d86703950d5bcb07f\")\n      sub(shl(0xa0, 0x01), 0x01)\n        /* \"contracts/ModuleX.sol\":6666:6689  xCREDI.safeTransferFrom */\n      and\n        /* \"@openzeppelin/contracts/utils/Context.sol\":735:745  msg.sender */\n      caller\n        /* \"contracts/ModuleX.sol\":6712:6716  this */\n      address\n        /* \"contracts/ModuleX.sol\":6719:6725  amount */\n      dup5\n        /* \"contracts/ModuleX.sol\":6666:6689  xCREDI.safeTransferFrom */\n      tag_197\n        /* \"contracts/ModuleX.sol\":6666:6726  xCREDI.safeTransferFrom(_msgSender(), address(this), amount) */\n      jump\t// in\n    tag_195:\n        /* \"contracts/ModuleX.sol\":6742:6761  RewardAdded(amount) */\n      mload(0x40)\n        /* \"#utility.yul\":160:185   */\n      dup2\n      dup2\n      mstore\n        /* \"contracts/ModuleX.sol\":6742:6761  RewardAdded(amount) */\n      0xde88a922e0d3b88b24e9623efeb464919c6bf9f66857a65e2bfcf2ce87a9433d\n      swap1\n        /* \"#utility.yul\":148:150   */\n      0x20\n        /* \"#utility.yul\":133:151   */\n      add\n        /* \"contracts/ModuleX.sol\":6742:6761  RewardAdded(amount) */\n      mload(0x40)\n      dup1\n      swap2\n      sub\n      swap1\n      log1\n        /* \"contracts/ModuleX.sol\":6531:6769  function addRewards(uint amount) external ... */\n      pop\n      jump\t// out\n        /* \"contracts/ModuleX.sol\":2063:2458  function getStake(uint stake_id) external validate_stake(stake_id) view ... */\n    tag_82:\n        /* \"contracts/ModuleX.sol\":2164:2177  address owner */\n      0x00\n        /* \"contracts/ModuleX.sol\":2188:2201  uint maturity */\n      0x00\n        /* \"contracts/ModuleX.sol\":2212:2229  uint stake_amount */\n      0x00\n        /* \"contracts/ModuleX.sol\":2240:2258  uint reward_amount */\n      0x00\n        /* \"contracts/ModuleX.sol\":2120:2128  stake_id */\n      dup5\n        /* \"contracts/ModuleX.sol\":1463:1464  0 */\n      0x00\n        /* \"contracts/ModuleX.sol\":1452:1460  stake_id */\n      dup2\n        /* \"contracts/ModuleX.sol\":1452:1464  stake_id > 0 */\n      gt\n        /* \"contracts/ModuleX.sol\":1452:1491  stake_id > 0 && stake_id < stakes_count */\n      dup1\n      iszero\n      tag_200\n      jumpi\n      pop\n        /* \"contracts/ModuleX.sol\":1479:1491  stakes_count */\n      sload(0x02)\n        /* \"contracts/ModuleX.sol\":1468:1476  stake_id */\n      dup2\n        /* \"contracts/ModuleX.sol\":1468:1491  stake_id < stakes_count */\n      lt\n        /* \"contracts/ModuleX.sol\":1452:1491  stake_id > 0 && stake_id < stakes_count */\n    tag_200:\n        /* \"contracts/ModuleX.sol\":1444:1521  require(stake_id > 0 && stake_id < stakes_count, \"ModuleX:Invalid Stake ID!\") */\n      tag_201\n      jumpi\n      mload(0x40)\n      shl(0xe5, 0x461bcd)\n      dup2\n      mstore\n        /* \"#utility.yul\":4096:4098   */\n      0x20\n        /* \"contracts/ModuleX.sol\":1444:1521  require(stake_id > 0 && stake_id < stakes_count, \"ModuleX:Invalid Stake ID!\") */\n      0x04\n      dup3\n      add\n        /* \"#utility.yul\":4078:4099   */\n      mstore\n        /* \"#utility.yul\":4135:4137   */\n      0x19\n        /* \"#utility.yul\":4115:4133   */\n      0x24\n      dup3\n      add\n        /* \"#utility.yul\":4108:4138   */\n      mstore\n      shl(0x38, 0x4d6f64756c65583a496e76616c6964205374616b6520494421)\n        /* \"#utility.yul\":4154:4172   */\n      0x44\n      dup3\n      add\n        /* \"#utility.yul\":4147:4202   */\n      mstore\n        /* \"#utility.yul\":4219:4237   */\n      0x64\n      add\n        /* \"contracts/ModuleX.sol\":1444:1521  require(stake_id > 0 && stake_id < stakes_count, \"ModuleX:Invalid Stake ID!\") */\n      tag_109\n        /* \"#utility.yul\":3894:4243   */\n      jump\n        /* \"contracts/ModuleX.sol\":1444:1521  require(stake_id > 0 && stake_id < stakes_count, \"ModuleX:Invalid Stake ID!\") */\n    tag_201:\n      pop\n      pop\n      pop\n        /* \"contracts/ModuleX.sol\":2298:2314  stakes[stake_id] */\n      0x00\n      swap3\n      dup4\n      mstore\n      pop\n      pop\n        /* \"contracts/ModuleX.sol\":2298:2304  stakes */\n      0x01\n        /* \"contracts/ModuleX.sol\":2298:2314  stakes[stake_id] */\n      0x20\n      dup2\n      swap1\n      mstore\n      0x40\n      swap1\n      swap2\n      keccak256\n        /* \"contracts/ModuleX.sol\":2298:2320  stakes[stake_id].owner */\n      dup1\n      sload\n        /* \"contracts/ModuleX.sol\":2375:2404  stakes[stake_id].stake_amount */\n      swap2\n      dup2\n      add\n      sload\n        /* \"contracts/ModuleX.sol\":2419:2449  stakes[stake_id].reward_amount */\n      0x02\n      swap1\n      swap2\n      add\n      sload\n      sub(shl(0xa0, 0x01), 0x01)\n        /* \"contracts/ModuleX.sol\":2298:2320  stakes[stake_id].owner */\n      dup4\n      and\n      swap4\n      shl(0xa0, 0x01)\n        /* \"contracts/ModuleX.sol\":2335:2360  stakes[stake_id].maturity */\n      swap1\n      swap4\n      div\n      sub(shl(0x60, 0x01), 0x01)\n      and\n      swap3\n        /* \"contracts/ModuleX.sol\":2063:2458  function getStake(uint stake_id) external validate_stake(stake_id) view ... */\n      jump\t// out\n        /* \"contracts/ModuleX.sol\":2577:3477  function calculateReward(uint stake_amount) public view returns(uint)... */\n    tag_87:\n        /* \"contracts/ModuleX.sol\":2641:2645  uint */\n      0x00\n        /* \"contracts/ModuleX.sol\":2664:2681  uint SCALE_FACTOR */\n      0x00\n        /* \"contracts/ModuleX.sol\":2684:2688  1e18 */\n      0x0de0b6b3a7640000\n        /* \"contracts/ModuleX.sol\":2664:2688  uint SCALE_FACTOR = 1e18 */\n      swap1\n      pop\n        /* \"contracts/ModuleX.sol\":2699:2714  uint curr_total */\n      0x00\n        /* \"contracts/ModuleX.sol\":2732:2744  stake_amount */\n      dup4\n        /* \"contracts/ModuleX.sol\":2717:2729  total_staked */\n      sload(0x03)\n        /* \"contracts/ModuleX.sol\":2717:2744  total_staked + stake_amount */\n      tag_205\n      swap2\n      swap1\n      tag_166\n      jump\t// in\n    tag_205:\n        /* \"contracts/ModuleX.sol\":2699:2744  uint curr_total = total_staked + stake_amount */\n      swap1\n      pop\n        /* \"contracts/ModuleX.sol\":2755:2765  uint low_d */\n      0x00\n        /* \"contracts/ModuleX.sol\":682:697  500000 * 10**18 */\n      0x69e10de76676d0800000\n        /* \"contracts/ModuleX.sol\":2768:2780  total_staked */\n      sload(0x03)\n        /* \"contracts/ModuleX.sol\":2768:2800  total_staked/DIFFICULTY_INTERVAL */\n      tag_206\n      swap2\n      swap1\n      tag_164\n      jump\t// in\n    tag_206:\n        /* \"contracts/ModuleX.sol\":2755:2800  uint low_d = total_staked/DIFFICULTY_INTERVAL */\n      swap1\n      pop\n        /* \"contracts/ModuleX.sol\":2811:2822  uint high_d */\n      0x00\n        /* \"contracts/ModuleX.sol\":2825:2855  curr_total/DIFFICULTY_INTERVAL */\n      tag_207\n        /* \"contracts/ModuleX.sol\":682:697  500000 * 10**18 */\n      0x69e10de76676d0800000\n        /* \"contracts/ModuleX.sol\":2825:2835  curr_total */\n      dup5\n        /* \"contracts/ModuleX.sol\":2825:2855  curr_total/DIFFICULTY_INTERVAL */\n      tag_164\n      jump\t// in\n    tag_207:\n        /* \"contracts/ModuleX.sol\":2811:2855  uint high_d = curr_total/DIFFICULTY_INTERVAL */\n      swap1\n      pop\n        /* \"contracts/ModuleX.sol\":2878:2884  high_d */\n      dup1\n        /* \"contracts/ModuleX.sol\":2869:2874  low_d */\n      dup3\n        /* \"contracts/ModuleX.sol\":2869:2884  low_d == high_d */\n      sub\n        /* \"contracts/ModuleX.sol\":2866:3470  if(low_d == high_d)... */\n      tag_208\n      jumpi\n        /* \"contracts/ModuleX.sol\":2931:2949  low_d + DIFFICULTY */\n      tag_209\n        /* \"contracts/ModuleX.sol\":608:610  11 */\n      0x0b\n        /* \"contracts/ModuleX.sol\":2931:2936  low_d */\n      dup4\n        /* \"contracts/ModuleX.sol\":2931:2949  low_d + DIFFICULTY */\n      tag_166\n      jump\t// in\n    tag_209:\n        /* \"contracts/ModuleX.sol\":2917:2950  stake_amount/(low_d + DIFFICULTY) */\n      tag_210\n      swap1\n        /* \"contracts/ModuleX.sol\":2917:2929  stake_amount */\n      dup8\n        /* \"contracts/ModuleX.sol\":2917:2950  stake_amount/(low_d + DIFFICULTY) */\n      tag_164\n      jump\t// in\n    tag_210:\n        /* \"contracts/ModuleX.sol\":2910:2950  return stake_amount/(low_d + DIFFICULTY) */\n      swap7\n        /* \"contracts/ModuleX.sol\":2577:3477  function calculateReward(uint stake_amount) public view returns(uint)... */\n      swap6\n      pop\n      pop\n      pop\n      pop\n      pop\n      pop\n      jump\t// out\n        /* \"contracts/ModuleX.sol\":2866:3470  if(low_d == high_d)... */\n    tag_208:\n        /* \"contracts/ModuleX.sol\":3002:3012  uint low_r */\n      0x00\n        /* \"contracts/ModuleX.sol\":3078:3096  low_d + DIFFICULTY */\n      tag_212\n        /* \"contracts/ModuleX.sol\":608:610  11 */\n      0x0b\n        /* \"contracts/ModuleX.sol\":3078:3083  low_d */\n      dup5\n        /* \"contracts/ModuleX.sol\":3078:3096  low_d + DIFFICULTY */\n      tag_166\n      jump\t// in\n    tag_212:\n        /* \"contracts/ModuleX.sol\":3063:3075  total_staked */\n      sload(0x03)\n        /* \"contracts/ModuleX.sol\":682:697  500000 * 10**18 */\n      0x69e10de76676d0800000\n        /* \"contracts/ModuleX.sol\":3030:3039  low_d + 1 */\n      tag_213\n        /* \"contracts/ModuleX.sol\":3030:3035  low_d */\n      dup7\n        /* \"contracts/ModuleX.sol\":3038:3039  1 */\n      0x01\n        /* \"contracts/ModuleX.sol\":3030:3039  low_d + 1 */\n      tag_166\n      jump\t// in\n    tag_213:\n        /* \"contracts/ModuleX.sol\":3029:3060  (low_d + 1)*DIFFICULTY_INTERVAL */\n      tag_214\n      swap2\n      swap1\n      tag_215\n      jump\t// in\n    tag_214:\n        /* \"contracts/ModuleX.sol\":3029:3075  (low_d + 1)*DIFFICULTY_INTERVAL - total_staked */\n      tag_216\n      swap2\n      swap1\n      tag_129\n      jump\t// in\n    tag_216:\n        /* \"contracts/ModuleX.sol\":3015:3076  SCALE_FACTOR*((low_d + 1)*DIFFICULTY_INTERVAL - total_staked) */\n      tag_217\n      swap1\n        /* \"contracts/ModuleX.sol\":3015:3027  SCALE_FACTOR */\n      dup8\n        /* \"contracts/ModuleX.sol\":3015:3076  SCALE_FACTOR*((low_d + 1)*DIFFICULTY_INTERVAL - total_staked) */\n      tag_215\n      jump\t// in\n    tag_217:\n        /* \"contracts/ModuleX.sol\":3015:3097  SCALE_FACTOR*((low_d + 1)*DIFFICULTY_INTERVAL - total_staked)/(low_d + DIFFICULTY) */\n      tag_218\n      swap2\n      swap1\n      tag_164\n      jump\t// in\n    tag_218:\n        /* \"contracts/ModuleX.sol\":3002:3097  uint low_r = SCALE_FACTOR*((low_d + 1)*DIFFICULTY_INTERVAL - total_staked)/(low_d + DIFFICULTY) */\n      swap1\n      pop\n        /* \"contracts/ModuleX.sol\":3112:3123  uint high_r */\n      0x00\n        /* \"contracts/ModuleX.sol\":3182:3201  high_d + DIFFICULTY */\n      tag_219\n        /* \"contracts/ModuleX.sol\":608:610  11 */\n      0x0b\n        /* \"contracts/ModuleX.sol\":3182:3188  high_d */\n      dup5\n        /* \"contracts/ModuleX.sol\":3182:3201  high_d + DIFFICULTY */\n      tag_166\n      jump\t// in\n    tag_219:\n        /* \"contracts/ModuleX.sol\":3153:3179  high_d*DIFFICULTY_INTERVAL */\n      tag_220\n        /* \"contracts/ModuleX.sol\":682:697  500000 * 10**18 */\n      0x69e10de76676d0800000\n        /* \"contracts/ModuleX.sol\":3153:3159  high_d */\n      dup6\n        /* \"contracts/ModuleX.sol\":3153:3179  high_d*DIFFICULTY_INTERVAL */\n      tag_215\n      jump\t// in\n    tag_220:\n        /* \"contracts/ModuleX.sol\":3140:3179  curr_total - high_d*DIFFICULTY_INTERVAL */\n      tag_221\n      swap1\n        /* \"contracts/ModuleX.sol\":3140:3150  curr_total */\n      dup8\n        /* \"contracts/ModuleX.sol\":3140:3179  curr_total - high_d*DIFFICULTY_INTERVAL */\n      tag_129\n      jump\t// in\n    tag_221:\n        /* \"contracts/ModuleX.sol\":3126:3180  SCALE_FACTOR*(curr_total - high_d*DIFFICULTY_INTERVAL) */\n      tag_222\n      swap1\n        /* \"contracts/ModuleX.sol\":3126:3138  SCALE_FACTOR */\n      dup9\n        /* \"contracts/ModuleX.sol\":3126:3180  SCALE_FACTOR*(curr_total - high_d*DIFFICULTY_INTERVAL) */\n      tag_215\n      jump\t// in\n    tag_222:\n        /* \"contracts/ModuleX.sol\":3126:3202  SCALE_FACTOR*(curr_total - high_d*DIFFICULTY_INTERVAL)/(high_d + DIFFICULTY) */\n      tag_223\n      swap2\n      swap1\n      tag_164\n      jump\t// in\n    tag_223:\n        /* \"contracts/ModuleX.sol\":3112:3202  uint high_r = SCALE_FACTOR*(curr_total - high_d*DIFFICULTY_INTERVAL)/(high_d + DIFFICULTY) */\n      swap1\n      pop\n        /* \"contracts/ModuleX.sol\":3217:3230  uint middle_r */\n      0x00\n      dup1\n        /* \"contracts/ModuleX.sol\":3260:3269  low_d + 1 */\n      tag_227\n        /* \"contracts/ModuleX.sol\":3260:3265  low_d */\n      dup7\n        /* \"contracts/ModuleX.sol\":3268:3269  1 */\n      0x01\n        /* \"contracts/ModuleX.sol\":3260:3269  low_d + 1 */\n      tag_166\n      jump\t// in\n    tag_227:\n        /* \"contracts/ModuleX.sol\":3253:3269  uint i=low_d + 1 */\n      swap1\n      pop\n        /* \"contracts/ModuleX.sol\":3249:3397  for(uint i=low_d + 1; i < high_d; i++)... */\n    tag_224:\n        /* \"contracts/ModuleX.sol\":3275:3281  high_d */\n      dup5\n        /* \"contracts/ModuleX.sol\":3271:3272  i */\n      dup2\n        /* \"contracts/ModuleX.sol\":3271:3281  i < high_d */\n      lt\n        /* \"contracts/ModuleX.sol\":3249:3397  for(uint i=low_d + 1; i < high_d; i++)... */\n      iszero\n      tag_225\n      jumpi\n        /* \"contracts/ModuleX.sol\":3366:3380  i + DIFFICULTY */\n      tag_228\n        /* \"contracts/ModuleX.sol\":608:610  11 */\n      0x0b\n        /* \"contracts/ModuleX.sol\":3366:3367  i */\n      dup3\n        /* \"contracts/ModuleX.sol\":3366:3380  i + DIFFICULTY */\n      tag_166\n      jump\t// in\n    tag_228:\n        /* \"contracts/ModuleX.sol\":3332:3364  SCALE_FACTOR*DIFFICULTY_INTERVAL */\n      tag_229\n        /* \"contracts/ModuleX.sol\":682:697  500000 * 10**18 */\n      0x69e10de76676d0800000\n        /* \"contracts/ModuleX.sol\":3332:3344  SCALE_FACTOR */\n      dup11\n        /* \"contracts/ModuleX.sol\":3332:3364  SCALE_FACTOR*DIFFICULTY_INTERVAL */\n      tag_215\n      jump\t// in\n    tag_229:\n        /* \"contracts/ModuleX.sol\":3332:3381  SCALE_FACTOR*DIFFICULTY_INTERVAL/(i + DIFFICULTY) */\n      tag_230\n      swap2\n      swap1\n      tag_164\n      jump\t// in\n    tag_230:\n        /* \"contracts/ModuleX.sol\":3320:3381  middle_r += SCALE_FACTOR*DIFFICULTY_INTERVAL/(i + DIFFICULTY) */\n      tag_231\n      swap1\n      dup4\n      tag_166\n      jump\t// in\n    tag_231:\n      swap2\n      pop\n        /* \"contracts/ModuleX.sol\":3283:3286  i++ */\n      0x01\n      add\n        /* \"contracts/ModuleX.sol\":3249:3397  for(uint i=low_d + 1; i < high_d; i++)... */\n      jump(tag_224)\n    tag_225:\n      pop\n        /* \"contracts/ModuleX.sol\":3446:3458  SCALE_FACTOR */\n      dup7\n        /* \"contracts/ModuleX.sol\":3438:3444  high_r */\n      dup3\n        /* \"contracts/ModuleX.sol\":3419:3435  low_r + middle_r */\n      tag_232\n        /* \"contracts/ModuleX.sol\":3427:3435  middle_r */\n      dup4\n        /* \"contracts/ModuleX.sol\":3419:3424  low_r */\n      dup7\n        /* \"contracts/ModuleX.sol\":3419:3435  low_r + middle_r */\n      tag_166\n      jump\t// in\n    tag_232:\n        /* \"contracts/ModuleX.sol\":3419:3444  low_r + middle_r + high_r */\n      tag_233\n      swap2\n      swap1\n      tag_166\n      jump\t// in\n    tag_233:\n        /* \"contracts/ModuleX.sol\":3418:3458  (low_r + middle_r + high_r)/SCALE_FACTOR */\n      tag_234\n      swap2\n      swap1\n      tag_164\n      jump\t// in\n    tag_234:\n        /* \"contracts/ModuleX.sol\":3411:3458  return (low_r + middle_r + high_r)/SCALE_FACTOR */\n      swap10\n        /* \"contracts/ModuleX.sol\":2577:3477  function calculateReward(uint stake_amount) public view returns(uint)... */\n      swap9\n      pop\n      pop\n      pop\n      pop\n      pop\n      pop\n      pop\n      pop\n      pop\n      jump\t// out\n        /* \"contracts/ModuleX.sol\":6777:7057  function withdrawRewards(address to, uint amount) external onlyOwner... */\n    tag_95:\n        /* \"@openzeppelin/contracts/access/Ownable.sol\":1531:1544  _checkOwner() */\n      tag_237\n        /* \"@openzeppelin/contracts/access/Ownable.sol\":1531:1542  _checkOwner */\n      tag_133\n        /* \"@openzeppelin/contracts/access/Ownable.sol\":1531:1544  _checkOwner() */\n      jump\t// in\n    tag_237:\n        /* \"contracts/ModuleX.sol\":6914:6930  pending_payments */\n      sload(0x04)\n        /* \"contracts/ModuleX.sol\":6905:6930  amount + pending_payments */\n      tag_239\n      swap1\n        /* \"contracts/ModuleX.sol\":6905:6911  amount */\n      dup3\n        /* \"contracts/ModuleX.sol\":6905:6930  amount + pending_payments */\n      tag_166\n      jump\t// in\n    tag_239:\n        /* \"contracts/ModuleX.sol\":6870:6901  xCREDI.balanceOf(address(this)) */\n      mload(0x40)\n      shl(0xe0, 0x70a08231)\n      dup2\n      mstore\n        /* \"contracts/ModuleX.sol\":6895:6899  this */\n      address\n        /* \"contracts/ModuleX.sol\":6870:6901  xCREDI.balanceOf(address(this)) */\n      0x04\n      dup3\n      add\n        /* \"#utility.yul\":587:661   */\n      mstore\n        /* \"contracts/ModuleX.sol\":6870:6876  xCREDI */\n      immutable(\"0x0d39e801c12a1db7a049a11375544bfecda5660c1466262d86703950d5bcb07f\")\n      sub(shl(0xa0, 0x01), 0x01)\n        /* \"contracts/ModuleX.sol\":6870:6886  xCREDI.balanceOf */\n      and\n      swap1\n      0x70a08231\n      swap1\n        /* \"#utility.yul\":560:578   */\n      0x24\n      add\n        /* \"contracts/ModuleX.sol\":6870:6901  xCREDI.balanceOf(address(this)) */\n      0x20\n      mload(0x40)\n      dup1\n      dup4\n      sub\n      dup2\n      dup7\n      gas\n      staticcall\n      iszero\n      dup1\n      iszero\n      tag_242\n      jumpi\n      returndatacopy(0x00, 0x00, returndatasize)\n      revert(0x00, returndatasize)\n    tag_242:\n      pop\n      pop\n      pop\n      pop\n      mload(0x40)\n      returndatasize\n      not(0x1f)\n      0x1f\n      dup3\n      add\n      and\n      dup3\n      add\n      dup1\n      0x40\n      mstore\n      pop\n      dup2\n      add\n      swap1\n      tag_243\n      swap2\n      swap1\n      tag_244\n      jump\t// in\n    tag_243:\n        /* \"contracts/ModuleX.sol\":6870:6930  xCREDI.balanceOf(address(this)) >= amount + pending_payments */\n      lt\n      iszero\n        /* \"contracts/ModuleX.sol\":6862:6964  require(xCREDI.balanceOf(address(this)) >= amount + pending_payments, \"ModuleX:Insufficient balance!\") */\n      tag_245\n      jumpi\n      mload(0x40)\n      shl(0xe5, 0x461bcd)\n      dup2\n      mstore\n        /* \"#utility.yul\":6599:6601   */\n      0x20\n        /* \"contracts/ModuleX.sol\":6862:6964  require(xCREDI.balanceOf(address(this)) >= amount + pending_payments, \"ModuleX:Insufficient balance!\") */\n      0x04\n      dup3\n      add\n        /* \"#utility.yul\":6581:6602   */\n      mstore\n        /* \"#utility.yul\":6638:6640   */\n      0x1d\n        /* \"#utility.yul\":6618:6636   */\n      0x24\n      dup3\n      add\n        /* \"#utility.yul\":6611:6641   */\n      mstore\n        /* \"#utility.yul\":6677:6708   */\n      0x4d6f64756c65583a496e73756666696369656e742062616c616e636521000000\n        /* \"#utility.yul\":6657:6675   */\n      0x44\n      dup3\n      add\n        /* \"#utility.yul\":6650:6709   */\n      mstore\n        /* \"#utility.yul\":6726:6744   */\n      0x64\n      add\n        /* \"contracts/ModuleX.sol\":6862:6964  require(xCREDI.balanceOf(address(this)) >= amount + pending_payments, \"ModuleX:Insufficient balance!\") */\n      tag_109\n        /* \"#utility.yul\":6397:6750   */\n      jump\n        /* \"contracts/ModuleX.sol\":6862:6964  require(xCREDI.balanceOf(address(this)) >= amount + pending_payments, \"ModuleX:Insufficient balance!\") */\n    tag_245:\n        /* \"contracts/ModuleX.sol\":6975:7006  xCREDI.safeTransfer(to, amount) */\n      tag_247\n      sub(shl(0xa0, 0x01), 0x01)\n        /* \"contracts/ModuleX.sol\":6975:6981  xCREDI */\n      immutable(\"0x0d39e801c12a1db7a049a11375544bfecda5660c1466262d86703950d5bcb07f\")\n        /* \"contracts/ModuleX.sol\":6975:6994  xCREDI.safeTransfer */\n      and\n        /* \"contracts/ModuleX.sol\":6995:6997  to */\n      dup4\n        /* \"contracts/ModuleX.sol\":6999:7005  amount */\n      dup4\n        /* \"contracts/ModuleX.sol\":6975:6994  xCREDI.safeTransfer */\n      tag_127\n        /* \"contracts/ModuleX.sol\":6975:7006  xCREDI.safeTransfer(to, amount) */\n      jump\t// in\n    tag_247:\n        /* \"contracts/ModuleX.sol\":7038:7040  to */\n      dup2\n      sub(shl(0xa0, 0x01), 0x01)\n        /* \"contracts/ModuleX.sol\":7022:7049  RewardWithdrawn(to, amount) */\n      and\n      0x1d3eee4ca001cff39eec6ec7615aacf2f2bd61791273830728ba00ccbd6e1337\n        /* \"contracts/ModuleX.sol\":7042:7048  amount */\n      dup3\n        /* \"contracts/ModuleX.sol\":7022:7049  RewardWithdrawn(to, amount) */\n      mload(0x40)\n      tag_248\n      swap2\n        /* \"#utility.yul\":160:185   */\n      dup2\n      mstore\n        /* \"#utility.yul\":148:150   */\n      0x20\n        /* \"#utility.yul\":133:151   */\n      add\n      swap1\n        /* \"#utility.yul\":14:191   */\n      jump\n        /* \"contracts/ModuleX.sol\":7022:7049  RewardWithdrawn(to, amount) */\n    tag_248:\n      mload(0x40)\n      dup1\n      swap2\n      sub\n      swap1\n      log2\n        /* \"contracts/ModuleX.sol\":6777:7057  function withdrawRewards(address to, uint amount) external onlyOwner... */\n      pop\n      pop\n      jump\t// out\n        /* \"contracts/ModuleX.sol\":3622:4562  function stake(uint96 lock_period, uint stake_amount) external returns(uint, uint)... */\n    tag_99:\n        /* \"contracts/ModuleX.sol\":3693:3697  uint */\n      0x00\n        /* \"contracts/ModuleX.sol\":3699:3703  uint */\n      0x00\n        /* \"contracts/ModuleX.sol\":3744:3745  0 */\n      0x00\n        /* \"contracts/ModuleX.sol\":3729:3741  stake_amount */\n      dup4\n        /* \"contracts/ModuleX.sol\":3729:3745  stake_amount > 0 */\n      gt\n        /* \"contracts/ModuleX.sol\":3721:3794  require(stake_amount > 0, \"ModuleX:Stake amount must be greater than 0!\") */\n      tag_250\n      jumpi\n      mload(0x40)\n      shl(0xe5, 0x461bcd)\n      dup2\n      mstore\n        /* \"#utility.yul\":8158:8160   */\n      0x20\n        /* \"contracts/ModuleX.sol\":3721:3794  require(stake_amount > 0, \"ModuleX:Stake amount must be greater than 0!\") */\n      0x04\n      dup3\n      add\n        /* \"#utility.yul\":8140:8161   */\n      mstore\n        /* \"#utility.yul\":8197:8199   */\n      0x2c\n        /* \"#utility.yul\":8177:8195   */\n      0x24\n      dup3\n      add\n        /* \"#utility.yul\":8170:8200   */\n      mstore\n        /* \"#utility.yul\":8236:8270   */\n      0x4d6f64756c65583a5374616b6520616d6f756e74206d75737420626520677265\n        /* \"#utility.yul\":8216:8234   */\n      0x44\n      dup3\n      add\n        /* \"#utility.yul\":8209:8271   */\n      mstore\n      shl(0xa0, 0x61746572207468616e203021)\n        /* \"#utility.yul\":8287:8305   */\n      0x64\n      dup3\n      add\n        /* \"#utility.yul\":8280:8322   */\n      mstore\n        /* \"#utility.yul\":8339:8358   */\n      0x84\n      add\n        /* \"contracts/ModuleX.sol\":3721:3794  require(stake_amount > 0, \"ModuleX:Stake amount must be greater than 0!\") */\n      tag_109\n        /* \"#utility.yul\":7956:8364   */\n      jump\n        /* \"contracts/ModuleX.sol\":3721:3794  require(stake_amount > 0, \"ModuleX:Stake amount must be greater than 0!\") */\n    tag_250:\n        /* \"contracts/ModuleX.sol\":542:553  180 minutes */\n      0x2a30\n      sub(shl(0x60, 0x01), 0x01)\n        /* \"contracts/ModuleX.sol\":3813:3836  lock_period >= MATURITY */\n      dup6\n      and\n      lt\n      iszero\n        /* \"contracts/ModuleX.sol\":3805:3872  require(lock_period >= MATURITY, \"ModuleX:Use longer lock_period!\") */\n      tag_253\n      jumpi\n      mload(0x40)\n      shl(0xe5, 0x461bcd)\n      dup2\n      mstore\n        /* \"#utility.yul\":8571:8573   */\n      0x20\n        /* \"contracts/ModuleX.sol\":3805:3872  require(lock_period >= MATURITY, \"ModuleX:Use longer lock_period!\") */\n      0x04\n      dup3\n      add\n        /* \"#utility.yul\":8553:8574   */\n      mstore\n        /* \"#utility.yul\":8610:8612   */\n      0x1f\n        /* \"#utility.yul\":8590:8608   */\n      0x24\n      dup3\n      add\n        /* \"#utility.yul\":8583:8613   */\n      mstore\n        /* \"#utility.yul\":8649:8682   */\n      0x4d6f64756c65583a557365206c6f6e676572206c6f636b5f706572696f642100\n        /* \"#utility.yul\":8629:8647   */\n      0x44\n      dup3\n      add\n        /* \"#utility.yul\":8622:8683   */\n      mstore\n        /* \"#utility.yul\":8700:8718   */\n      0x64\n      add\n        /* \"contracts/ModuleX.sol\":3805:3872  require(lock_period >= MATURITY, \"ModuleX:Use longer lock_period!\") */\n      tag_109\n        /* \"#utility.yul\":8369:8724   */\n      jump\n        /* \"contracts/ModuleX.sol\":3805:3872  require(lock_period >= MATURITY, \"ModuleX:Use longer lock_period!\") */\n    tag_253:\n        /* \"contracts/ModuleX.sol\":3883:3948  CREDI.safeTransferFrom(_msgSender(), address(this), stake_amount) */\n      tag_256\n        /* \"contracts/ModuleX.sol\":3883:3888  CREDI */\n      immutable(\"0xad444e1082e5d5bbfca385a9a566a2d71dbd349bb06a97871f0be4657884f8e0\")\n      sub(shl(0xa0, 0x01), 0x01)\n        /* \"contracts/ModuleX.sol\":3883:3905  CREDI.safeTransferFrom */\n      and\n        /* \"@openzeppelin/contracts/utils/Context.sol\":735:745  msg.sender */\n      caller\n        /* \"contracts/ModuleX.sol\":3928:3932  this */\n      address\n        /* \"contracts/ModuleX.sol\":3935:3947  stake_amount */\n      dup7\n        /* \"contracts/ModuleX.sol\":3883:3905  CREDI.safeTransferFrom */\n      tag_197\n        /* \"contracts/ModuleX.sol\":3883:3948  CREDI.safeTransferFrom(_msgSender(), address(this), stake_amount) */\n      jump\t// in\n    tag_256:\n        /* \"contracts/ModuleX.sol\":3960:3975  uint96 maturity */\n      0x00\n        /* \"contracts/ModuleX.sol\":3978:4002  time_now() + lock_period */\n      tag_259\n        /* \"contracts/ModuleX.sol\":3991:4002  lock_period */\n      dup6\n        /* \"contracts/ModuleX.sol\":2545:2560  block.timestamp */\n      timestamp\n        /* \"contracts/ModuleX.sol\":3978:4002  time_now() + lock_period */\n      tag_260\n      jump\t// in\n    tag_259:\n        /* \"contracts/ModuleX.sol\":3960:4002  uint96 maturity = time_now() + lock_period */\n      swap1\n      pop\n        /* \"contracts/ModuleX.sol\":4013:4031  uint reward_amount */\n      0x00\n        /* \"contracts/ModuleX.sol\":4034:4063  calculateReward(stake_amount) */\n      tag_261\n        /* \"contracts/ModuleX.sol\":4050:4062  stake_amount */\n      dup6\n        /* \"contracts/ModuleX.sol\":4034:4049  calculateReward */\n      tag_87\n        /* \"contracts/ModuleX.sol\":4034:4063  calculateReward(stake_amount) */\n      jump\t// in\n    tag_261:\n        /* \"contracts/ModuleX.sol\":4013:4063  uint reward_amount = calculateReward(stake_amount) */\n      swap1\n      pop\n        /* \"contracts/ModuleX.sol\":4074:4087  uint stake_id */\n      0x00\n        /* \"contracts/ModuleX.sol\":4090:4102  stakes_count */\n      sload(0x02)\n        /* \"contracts/ModuleX.sol\":4074:4102  uint stake_id = stakes_count */\n      swap1\n      pop\n        /* \"contracts/ModuleX.sol\":4132:4308  StakeDetails({... */\n      mload(0x40)\n      dup1\n      0x80\n      add\n      0x40\n      mstore\n      dup1\n        /* \"contracts/ModuleX.sol\":4167:4179  _msgSender() */\n      tag_262\n        /* \"@openzeppelin/contracts/utils/Context.sol\":735:745  msg.sender */\n      caller\n      swap1\n        /* \"@openzeppelin/contracts/utils/Context.sol\":656:752  function _msgSender() internal view virtual returns (address) {... */\n      jump\n        /* \"contracts/ModuleX.sol\":4167:4179  _msgSender() */\n    tag_262:\n      sub(shl(0xa0, 0x01), 0x01)\n        /* \"contracts/ModuleX.sol\":4132:4308  StakeDetails({... */\n      swap1\n      dup2\n      and\n      dup3\n      mstore\n      sub(shl(0x60, 0x01), 0x01)\n      dup7\n      dup2\n      and\n      0x20\n      dup1\n      dup6\n      add\n      swap2\n      swap1\n      swap2\n      mstore\n      0x40\n      dup1\n      dup6\n      add\n      dup13\n      swap1\n      mstore\n      0x60\n      swap5\n      dup6\n      add\n      dup9\n      swap1\n      mstore\n      0x00\n        /* \"contracts/ModuleX.sol\":4113:4129  stakes[stake_id] */\n      dup8\n      dup2\n      mstore\n        /* \"contracts/ModuleX.sol\":4113:4119  stakes */\n      0x01\n        /* \"contracts/ModuleX.sol\":4113:4129  stakes[stake_id] */\n      dup1\n      dup5\n      mstore\n      dup3\n      dup3\n      keccak256\n        /* \"contracts/ModuleX.sol\":4113:4308  stakes[stake_id] = StakeDetails({... */\n      dup9\n      mload\n      swap5\n      dup10\n      add\n      mload\n      swap5\n      swap1\n      swap7\n      and\n      shl(0xa0, 0x01)\n      swap5\n      swap1\n      swap6\n      and\n      swap4\n      swap1\n      swap4\n      mul\n      swap4\n      swap1\n      swap4\n      or\n      dup5\n      sstore\n      dup6\n      add\n      mload\n      swap1\n      dup4\n      add\n      sstore\n      swap3\n      swap1\n      swap2\n      add\n      mload\n      0x02\n      swap1\n      swap2\n      add\n      sstore\n        /* \"contracts/ModuleX.sol\":4329:4341  total_staked */\n      0x03\n        /* \"contracts/ModuleX.sol\":4329:4357  total_staked += stake_amount */\n      dup1\n      sload\n        /* \"contracts/ModuleX.sol\":4132:4308  StakeDetails({... */\n      dup9\n      swap3\n      swap1\n        /* \"contracts/ModuleX.sol\":4329:4357  total_staked += stake_amount */\n      tag_263\n      swap1\n        /* \"contracts/ModuleX.sol\":4132:4308  StakeDetails({... */\n      dup5\n      swap1\n        /* \"contracts/ModuleX.sol\":4329:4357  total_staked += stake_amount */\n      tag_166\n      jump\t// in\n    tag_263:\n      swap3\n      pop\n      pop\n      dup2\n      swap1\n      sstore\n      pop\n        /* \"contracts/ModuleX.sol\":4389:4402  reward_amount */\n      dup2\n        /* \"contracts/ModuleX.sol\":4369:4385  pending_payments */\n      0x04\n      0x00\n        /* \"contracts/ModuleX.sol\":4369:4402  pending_payments += reward_amount */\n      dup3\n      dup3\n      sload\n      tag_264\n      swap2\n      swap1\n      tag_166\n      jump\t// in\n    tag_264:\n      swap1\n      swap2\n      sstore\n      pop\n      pop\n        /* \"contracts/ModuleX.sol\":4418:4487  Staked(_msgSender(), stake_id, maturity, stake_amount, reward_amount) */\n      0x40\n      dup1\n      mload\n        /* \"#utility.yul\":9178:9203   */\n      dup3\n      dup2\n      mstore\n      sub(shl(0x60, 0x01), 0x01)\n        /* \"#utility.yul\":9239:9278   */\n      dup6\n      and\n        /* \"#utility.yul\":9234:9236   */\n      0x20\n        /* \"#utility.yul\":9219:9237   */\n      dup3\n      add\n        /* \"#utility.yul\":9212:9279   */\n      mstore\n        /* \"#utility.yul\":9295:9313   */\n      dup1\n      dup3\n      add\n        /* \"#utility.yul\":9288:9322   */\n      dup9\n      swap1\n      mstore\n        /* \"#utility.yul\":9353:9355   */\n      0x60\n        /* \"#utility.yul\":9338:9356   */\n      dup2\n      add\n        /* \"#utility.yul\":9331:9365   */\n      dup5\n      swap1\n      mstore\n        /* \"contracts/ModuleX.sol\":4418:4487  Staked(_msgSender(), stake_id, maturity, stake_amount, reward_amount) */\n      swap1\n      mload\n        /* \"@openzeppelin/contracts/utils/Context.sol\":735:745  msg.sender */\n      caller\n      swap2\n        /* \"contracts/ModuleX.sol\":4418:4487  Staked(_msgSender(), stake_id, maturity, stake_amount, reward_amount) */\n      0x24fe2d25c10eb2c67b5ac1e3edbcadc94191e154ed388ad667a9480c44f47146\n      swap2\n      swap1\n      dup2\n      swap1\n      sub\n        /* \"#utility.yul\":9165:9168   */\n      0x80\n        /* \"contracts/ModuleX.sol\":4418:4487  Staked(_msgSender(), stake_id, maturity, stake_amount, reward_amount) */\n      add\n      swap1\n      log2\n        /* \"contracts/ModuleX.sol\":4498:4510  stakes_count */\n      0x02\n        /* \"contracts/ModuleX.sol\":4498:4512  stakes_count++ */\n      dup1\n      sload\n      swap1\n        /* \"contracts/ModuleX.sol\":4498:4510  stakes_count */\n      0x00\n        /* \"contracts/ModuleX.sol\":4498:4512  stakes_count++ */\n      tag_268\n      dup4\n      tag_269\n      jump\t// in\n    tag_268:\n      swap1\n      swap2\n      sstore\n      pop\n        /* \"contracts/ModuleX.sol\":4530:4538  stake_id */\n      swap1\n      swap8\n        /* \"contracts/ModuleX.sol\":4540:4553  reward_amount */\n      swap2\n      swap7\n      pop\n        /* \"contracts/ModuleX.sol\":3622:4562  function stake(uint96 lock_period, uint stake_amount) external returns(uint, uint)... */\n      swap1\n      swap5\n      pop\n      pop\n      pop\n      pop\n      pop\n      jump\t// out\n        /* \"@openzeppelin/contracts/access/Ownable.sol\":2543:2758  function transferOwnership(address newOwner) public virtual onlyOwner {... */\n    tag_105:\n        /* \"@openzeppelin/contracts/access/Ownable.sol\":1531:1544  _checkOwner() */\n      tag_271\n        /* \"@openzeppelin/contracts/access/Ownable.sol\":1531:1542  _checkOwner */\n      tag_133\n        /* \"@openzeppelin/contracts/access/Ownable.sol\":1531:1544  _checkOwner() */\n      jump\t// in\n    tag_271:\n      sub(shl(0xa0, 0x01), 0x01)\n        /* \"@openzeppelin/contracts/access/Ownable.sol\":2627:2649  newOwner == address(0) */\n      dup2\n      and\n        /* \"@openzeppelin/contracts/access/Ownable.sol\":2623:2714  if (newOwner == address(0)) {... */\n      tag_273\n      jumpi\n        /* \"@openzeppelin/contracts/access/Ownable.sol\":2672:2703  OwnableInvalidOwner(address(0)) */\n      mload(0x40)\n      shl(0xe0, 0x1e4fbdf7)\n      dup2\n      mstore\n        /* \"@openzeppelin/contracts/access/Ownable.sol\":2700:2701  0 */\n      0x00\n        /* \"@openzeppelin/contracts/access/Ownable.sol\":2672:2703  OwnableInvalidOwner(address(0)) */\n      0x04\n      dup3\n      add\n        /* \"#utility.yul\":587:661   */\n      mstore\n        /* \"#utility.yul\":560:578   */\n      0x24\n      add\n        /* \"@openzeppelin/contracts/access/Ownable.sol\":2672:2703  OwnableInvalidOwner(address(0)) */\n      tag_109\n        /* \"#utility.yul\":427:667   */\n      jump\n        /* \"@openzeppelin/contracts/access/Ownable.sol\":2623:2714  if (newOwner == address(0)) {... */\n    tag_273:\n        /* \"@openzeppelin/contracts/access/Ownable.sol\":2723:2751  _transferOwnership(newOwner) */\n      tag_275\n        /* \"@openzeppelin/contracts/access/Ownable.sol\":2742:2750  newOwner */\n      dup2\n        /* \"@openzeppelin/contracts/access/Ownable.sol\":2723:2741  _transferOwnership */\n      tag_136\n        /* \"@openzeppelin/contracts/access/Ownable.sol\":2723:2751  _transferOwnership(newOwner) */\n      jump\t// in\n    tag_275:\n        /* \"@openzeppelin/contracts/access/Ownable.sol\":2543:2758  function transferOwnership(address newOwner) public virtual onlyOwner {... */\n      pop\n      jump\t// out\n        /* \"@openzeppelin/contracts/token/ERC20/utils/SafeERC20.sol\":1219:1379  function safeTransfer(IERC20 token, address to, uint256 value) internal {... */\n    tag_127:\n        /* \"@openzeppelin/contracts/token/ERC20/utils/SafeERC20.sol\":1328:1371  abi.encodeCall(token.transfer, (to, value)) */\n      mload(0x40)\n      sub(shl(0xa0, 0x01), 0x01)\n        /* \"#utility.yul\":9708:9763   */\n      dup4\n      dup2\n      and\n        /* \"@openzeppelin/contracts/token/ERC20/utils/SafeERC20.sol\":1328:1371  abi.encodeCall(token.transfer, (to, value)) */\n      0x24\n      dup4\n      add\n        /* \"#utility.yul\":9690:9764   */\n      mstore\n        /* \"#utility.yul\":9780:9798   */\n      0x44\n      dup3\n      add\n        /* \"#utility.yul\":9773:9807   */\n      dup4\n      swap1\n      mstore\n        /* \"@openzeppelin/contracts/token/ERC20/utils/SafeERC20.sol\":1301:1372  _callOptionalReturn(token, abi.encodeCall(token.transfer, (to, value))) */\n      tag_190\n      swap2\n        /* \"@openzeppelin/contracts/token/ERC20/utils/SafeERC20.sol\":1321:1326  token */\n      dup6\n      swap2\n        /* \"@openzeppelin/contracts/token/ERC20/utils/SafeERC20.sol\":1343:1357  token.transfer */\n      dup3\n      and\n      swap1\n      0xa9059cbb\n      swap1\n        /* \"#utility.yul\":9663:9681   */\n      0x64\n      add\n        /* \"@openzeppelin/contracts/token/ERC20/utils/SafeERC20.sol\":1328:1371  abi.encodeCall(token.transfer, (to, value)) */\n    tag_280:\n      mload(0x40)\n      0x20\n      dup2\n      dup4\n      sub\n      sub\n      dup2\n      mstore\n      swap1\n      0x40\n      mstore\n      swap2\n      pop\n      0xe0\n      shl\n      0x20\n      dup3\n      add\n      dup1\n      mload\n      0xffffffffffffffffffffffffffffffffffffffffffffffffffffffff\n      dup4\n      dup2\n      dup4\n      and\n      or\n      dup4\n      mstore\n      pop\n      pop\n      pop\n      pop\n        /* \"@openzeppelin/contracts/token/ERC20/utils/SafeERC20.sol\":1301:1320  _callOptionalReturn */\n      tag_282\n        /* \"@openzeppelin/contracts/token/ERC20/utils/SafeERC20.sol\":1301:1372  _callOptionalReturn(token, abi.encodeCall(token.transfer, (to, value))) */\n      jump\t// in\n        /* \"@openzeppelin/contracts/access/Ownable.sol\":1796:1958  function _checkOwner() internal view virtual {... */\n    tag_133:\n        /* \"@openzeppelin/contracts/access/Ownable.sol\":1684:1691  address */\n      0x00\n        /* \"@openzeppelin/contracts/access/Ownable.sol\":1710:1716  _owner */\n      sload\n      sub(shl(0xa0, 0x01), 0x01)\n      and\n        /* \"@openzeppelin/contracts/utils/Context.sol\":735:745  msg.sender */\n      caller\n        /* \"@openzeppelin/contracts/access/Ownable.sol\":1855:1878  owner() != _msgSender() */\n      eq\n        /* \"@openzeppelin/contracts/access/Ownable.sol\":1851:1952  if (owner() != _msgSender()) {... */\n      tag_135\n      jumpi\n        /* \"@openzeppelin/contracts/access/Ownable.sol\":1901:1941  OwnableUnauthorizedAccount(_msgSender()) */\n      mload(0x40)\n      shl(0xe0, 0x118cdaa7)\n      dup2\n      mstore\n        /* \"@openzeppelin/contracts/utils/Context.sol\":735:745  msg.sender */\n      caller\n        /* \"@openzeppelin/contracts/access/Ownable.sol\":1901:1941  OwnableUnauthorizedAccount(_msgSender()) */\n      0x04\n      dup3\n      add\n        /* \"#utility.yul\":587:661   */\n      mstore\n        /* \"#utility.yul\":560:578   */\n      0x24\n      add\n        /* \"@openzeppelin/contracts/access/Ownable.sol\":1901:1941  OwnableUnauthorizedAccount(_msgSender()) */\n      tag_109\n        /* \"#utility.yul\":427:667   */\n      jump\n        /* \"@openzeppelin/contracts/access/Ownable.sol\":2912:3099  function _transferOwnership(address newOwner) internal virtual {... */\n    tag_136:\n        /* \"@openzeppelin/contracts/access/Ownable.sol\":2985:3001  address oldOwner */\n      0x00\n        /* \"@openzeppelin/contracts/access/Ownable.sol\":3004:3010  _owner */\n      dup1\n      sload\n      sub(shl(0xa0, 0x01), 0x01)\n        /* \"@openzeppelin/contracts/access/Ownable.sol\":3020:3037  _owner = newOwner */\n      dup4\n      dup2\n      and\n      not(0xffffffffffffffffffffffffffffffffffffffff)\n      dup4\n      and\n      dup2\n      or\n      dup5\n      sstore\n        /* \"@openzeppelin/contracts/access/Ownable.sol\":3052:3092  OwnershipTransferred(oldOwner, newOwner) */\n      mload(0x40)\n        /* \"@openzeppelin/contracts/access/Ownable.sol\":3004:3010  _owner */\n      swap2\n      swap1\n      swap3\n      and\n      swap3\n      dup4\n      swap2\n        /* \"@openzeppelin/contracts/access/Ownable.sol\":3052:3092  OwnershipTransferred(oldOwner, newOwner) */\n      0x8be0079c531659141344cd1fd0a4f28419497f9722a3daafe3b4186f6b6457e0\n      swap2\n        /* \"@openzeppelin/contracts/access/Ownable.sol\":2985:3001  address oldOwner */\n      swap1\n        /* \"@openzeppelin/contracts/access/Ownable.sol\":3052:3092  OwnershipTransferred(oldOwner, newOwner) */\n      log3\n        /* \"@openzeppelin/contracts/access/Ownable.sol\":2975:3099  {... */\n      pop\n        /* \"@openzeppelin/contracts/access/Ownable.sol\":2912:3099  function _transferOwnership(address newOwner) internal virtual {... */\n      pop\n      jump\t// out\n        /* \"@openzeppelin/contracts/token/ERC20/utils/SafeERC20.sol\":1618:1806  function safeTransferFrom(IERC20 token, address from, address to, uint256 value) internal {... */\n    tag_197:\n        /* \"@openzeppelin/contracts/token/ERC20/utils/SafeERC20.sol\":1745:1798  abi.encodeCall(token.transferFrom, (from, to, value)) */\n      mload(0x40)\n      sub(shl(0xa0, 0x01), 0x01)\n        /* \"#utility.yul\":10038:10093   */\n      dup5\n      dup2\n      and\n        /* \"@openzeppelin/contracts/token/ERC20/utils/SafeERC20.sol\":1745:1798  abi.encodeCall(token.transferFrom, (from, to, value)) */\n      0x24\n      dup4\n      add\n        /* \"#utility.yul\":10020:10094   */\n      mstore\n        /* \"#utility.yul\":10130:10185   */\n      dup4\n      dup2\n      and\n        /* \"#utility.yul\":10110:10128   */\n      0x44\n      dup4\n      add\n        /* \"#utility.yul\":10103:10186   */\n      mstore\n        /* \"#utility.yul\":10202:10220   */\n      0x64\n      dup3\n      add\n        /* \"#utility.yul\":10195:10229   */\n      dup4\n      swap1\n      mstore\n        /* \"@openzeppelin/contracts/token/ERC20/utils/SafeERC20.sol\":1718:1799  _callOptionalReturn(token, abi.encodeCall(token.transferFrom, (from, to, value))) */\n      tag_291\n      swap2\n        /* \"@openzeppelin/contracts/token/ERC20/utils/SafeERC20.sol\":1738:1743  token */\n      dup7\n      swap2\n        /* \"@openzeppelin/contracts/token/ERC20/utils/SafeERC20.sol\":1760:1778  token.transferFrom */\n      dup3\n      and\n      swap1\n      0x23b872dd\n      swap1\n        /* \"#utility.yul\":9993:10011   */\n      0x84\n      add\n        /* \"@openzeppelin/contracts/token/ERC20/utils/SafeERC20.sol\":1745:1798  abi.encodeCall(token.transferFrom, (from, to, value)) */\n      tag_280\n        /* \"#utility.yul\":9818:10235   */\n      jump\n        /* \"@openzeppelin/contracts/token/ERC20/utils/SafeERC20.sol\":1718:1799  _callOptionalReturn(token, abi.encodeCall(token.transferFrom, (from, to, value))) */\n    tag_291:\n        /* \"@openzeppelin/contracts/token/ERC20/utils/SafeERC20.sol\":1618:1806  function safeTransferFrom(IERC20 token, address from, address to, uint256 value) internal {... */\n      pop\n      pop\n      pop\n      pop\n      jump\t// out\n        /* \"@openzeppelin/contracts/token/ERC20/utils/SafeERC20.sol\":8370:9090  function _callOptionalReturn(IERC20 token, bytes memory data) private {... */\n    tag_282:\n        /* \"@openzeppelin/contracts/token/ERC20/utils/SafeERC20.sol\":8450:8468  uint256 returnSize */\n      0x00\n        /* \"@openzeppelin/contracts/token/ERC20/utils/SafeERC20.sol\":8478:8497  uint256 returnValue */\n      0x00\n        /* \"@openzeppelin/contracts/token/ERC20/utils/SafeERC20.sol\":8616:8620  0x20 */\n      0x20\n        /* \"@openzeppelin/contracts/token/ERC20/utils/SafeERC20.sol\":8613:8614  0 */\n      0x00\n        /* \"@openzeppelin/contracts/token/ERC20/utils/SafeERC20.sol\":8606:8610  data */\n      dup5\n        /* \"@openzeppelin/contracts/token/ERC20/utils/SafeERC20.sol\":8600:8611  mload(data) */\n      mload\n        /* \"@openzeppelin/contracts/token/ERC20/utils/SafeERC20.sol\":8593:8597  0x20 */\n      0x20\n        /* \"@openzeppelin/contracts/token/ERC20/utils/SafeERC20.sol\":8587:8591  data */\n      dup7\n        /* \"@openzeppelin/contracts/token/ERC20/utils/SafeERC20.sol\":8583:8598  add(data, 0x20) */\n      add\n        /* \"@openzeppelin/contracts/token/ERC20/utils/SafeERC20.sol\":8580:8581  0 */\n      0x00\n        /* \"@openzeppelin/contracts/token/ERC20/utils/SafeERC20.sol\":8573:8578  token */\n      dup9\n        /* \"@openzeppelin/contracts/token/ERC20/utils/SafeERC20.sol\":8566:8571  gas() */\n      gas\n        /* \"@openzeppelin/contracts/token/ERC20/utils/SafeERC20.sol\":8561:8621  call(gas(), token, 0, add(data, 0x20), mload(data), 0, 0x20) */\n      call\n        /* \"@openzeppelin/contracts/token/ERC20/utils/SafeERC20.sol\":8673:8680  success */\n      dup1\n        /* \"@openzeppelin/contracts/token/ERC20/utils/SafeERC20.sol\":8663:8839  if iszero(success) {... */\n      tag_295\n      jumpi\n        /* \"@openzeppelin/contracts/token/ERC20/utils/SafeERC20.sol\":8717:8721  0x40 */\n      0x40\n        /* \"@openzeppelin/contracts/token/ERC20/utils/SafeERC20.sol\":8711:8722  mload(0x40) */\n      mload\n        /* \"@openzeppelin/contracts/token/ERC20/utils/SafeERC20.sol\":8762:8778  returndatasize() */\n      returndatasize\n        /* \"@openzeppelin/contracts/token/ERC20/utils/SafeERC20.sol\":8759:8760  0 */\n      0x00\n        /* \"@openzeppelin/contracts/token/ERC20/utils/SafeERC20.sol\":8754:8757  ptr */\n      dup3\n        /* \"@openzeppelin/contracts/token/ERC20/utils/SafeERC20.sol\":8739:8779  returndatacopy(ptr, 0, returndatasize()) */\n      returndatacopy\n        /* \"@openzeppelin/contracts/token/ERC20/utils/SafeERC20.sol\":8808:8824  returndatasize() */\n      returndatasize\n        /* \"@openzeppelin/contracts/token/ERC20/utils/SafeERC20.sol\":8803:8806  ptr */\n      dup2\n        /* \"@openzeppelin/contracts/token/ERC20/utils/SafeERC20.sol\":8796:8825  revert(ptr, returndatasize()) */\n      revert\n        /* \"@openzeppelin/contracts/token/ERC20/utils/SafeERC20.sol\":8663:8839  if iszero(success) {... */\n    tag_295:\n      pop\n      pop\n        /* \"@openzeppelin/contracts/token/ERC20/utils/SafeERC20.sol\":8916:8917  0 */\n      0x00\n        /* \"@openzeppelin/contracts/token/ERC20/utils/SafeERC20.sol\":8910:8918  mload(0) */\n      mload\n        /* \"@openzeppelin/contracts/token/ERC20/utils/SafeERC20.sol\":8866:8882  returndatasize() */\n      returndatasize\n      swap2\n      pop\n        /* \"@openzeppelin/contracts/token/ERC20/utils/SafeERC20.sol\":8942:8957  returnSize == 0 */\n      dup2\n      iszero\n        /* \"@openzeppelin/contracts/token/ERC20/utils/SafeERC20.sol\":8942:9010  returnSize == 0 ? address(token).code.length == 0 : returnValue != 1 */\n      tag_296\n      jumpi\n        /* \"@openzeppelin/contracts/token/ERC20/utils/SafeERC20.sol\":8994:9005  returnValue */\n      dup1\n        /* \"@openzeppelin/contracts/token/ERC20/utils/SafeERC20.sol\":9009:9010  1 */\n      0x01\n        /* \"@openzeppelin/contracts/token/ERC20/utils/SafeERC20.sol\":8994:9010  returnValue != 1 */\n      eq\n      iszero\n        /* \"@openzeppelin/contracts/token/ERC20/utils/SafeERC20.sol\":8942:9010  returnSize == 0 ? address(token).code.length == 0 : returnValue != 1 */\n      jump(tag_297)\n    tag_296:\n      sub(shl(0xa0, 0x01), 0x01)\n        /* \"@openzeppelin/contracts/token/ERC20/utils/SafeERC20.sol\":8960:8986  address(token).code.length */\n      dup5\n      and\n      extcodesize\n        /* \"@openzeppelin/contracts/token/ERC20/utils/SafeERC20.sol\":8960:8991  address(token).code.length == 0 */\n      iszero\n        /* \"@openzeppelin/contracts/token/ERC20/utils/SafeERC20.sol\":8942:9010  returnSize == 0 ? address(token).code.length == 0 : returnValue != 1 */\n    tag_297:\n        /* \"@openzeppelin/contracts/token/ERC20/utils/SafeERC20.sol\":8938:9084  if (returnSize == 0 ? address(token).code.length == 0 : returnValue != 1) {... */\n      iszero\n      tag_291\n      jumpi\n        /* \"@openzeppelin/contracts/token/ERC20/utils/SafeERC20.sol\":9033:9073  SafeERC20FailedOperation(address(token)) */\n      mload(0x40)\n      shl(0xe0, 0x5274afe7)\n      dup2\n      mstore\n      sub(shl(0xa0, 0x01), 0x01)\n        /* \"#utility.yul\":605:660   */\n      dup6\n      and\n        /* \"@openzeppelin/contracts/token/ERC20/utils/SafeERC20.sol\":9033:9073  SafeERC20FailedOperation(address(token)) */\n      0x04\n      dup3\n      add\n        /* \"#utility.yul\":587:661   */\n      mstore\n        /* \"#utility.yul\":560:578   */\n      0x24\n      add\n        /* \"@openzeppelin/contracts/token/ERC20/utils/SafeERC20.sol\":9033:9073  SafeERC20FailedOperation(address(token)) */\n      tag_109\n        /* \"#utility.yul\":427:667   */\n      jump\n        /* \"#utility.yul\":196:422   */\n    tag_34:\n        /* \"#utility.yul\":255:261   */\n      0x00\n        /* \"#utility.yul\":308:310   */\n      0x20\n        /* \"#utility.yul\":296:305   */\n      dup3\n        /* \"#utility.yul\":287:294   */\n      dup5\n        /* \"#utility.yul\":283:306   */\n      sub\n        /* \"#utility.yul\":279:311   */\n      slt\n        /* \"#utility.yul\":276:328   */\n      iszero\n      tag_305\n      jumpi\n        /* \"#utility.yul\":324:325   */\n      0x00\n        /* \"#utility.yul\":321:322   */\n      0x00\n        /* \"#utility.yul\":314:326   */\n      revert\n        /* \"#utility.yul\":276:328   */\n    tag_305:\n      pop\n        /* \"#utility.yul\":369:392   */\n      calldataload\n      swap2\n        /* \"#utility.yul\":196:422   */\n      swap1\n      pop\n      jump\t// out\n        /* \"#utility.yul\":1116:1462   */\n    tag_59:\n        /* \"#utility.yul\":1184:1190   */\n      0x00\n        /* \"#utility.yul\":1192:1198   */\n      0x00\n        /* \"#utility.yul\":1245:1247   */\n      0x40\n        /* \"#utility.yul\":1233:1242   */\n      dup4\n        /* \"#utility.yul\":1224:1231   */\n      dup6\n        /* \"#utility.yul\":1220:1243   */\n      sub\n        /* \"#utility.yul\":1216:1248   */\n      slt\n        /* \"#utility.yul\":1213:1265   */\n      iszero\n      tag_310\n      jumpi\n        /* \"#utility.yul\":1261:1262   */\n      0x00\n        /* \"#utility.yul\":1258:1259   */\n      0x00\n        /* \"#utility.yul\":1251:1263   */\n      revert\n        /* \"#utility.yul\":1213:1265   */\n    tag_310:\n      pop\n      pop\n        /* \"#utility.yul\":1306:1329   */\n      dup1\n      calldataload\n      swap3\n        /* \"#utility.yul\":1426:1428   */\n      0x20\n        /* \"#utility.yul\":1411:1429   */\n      swap1\n      swap2\n      add\n        /* \"#utility.yul\":1398:1430   */\n      calldataload\n      swap2\n      pop\n        /* \"#utility.yul\":1116:1462   */\n      jump\t// out\n        /* \"#utility.yul\":1467:2077   */\n    tag_75:\n        /* \"#utility.yul\":1553:1559   */\n      0x00\n        /* \"#utility.yul\":1561:1567   */\n      0x00\n        /* \"#utility.yul\":1614:1616   */\n      0x20\n        /* \"#utility.yul\":1602:1611   */\n      dup4\n        /* \"#utility.yul\":1593:1600   */\n      dup6\n        /* \"#utility.yul\":1589:1612   */\n      sub\n        /* \"#utility.yul\":1585:1617   */\n      slt\n        /* \"#utility.yul\":1582:1634   */\n      iszero\n      tag_312\n      jumpi\n        /* \"#utility.yul\":1630:1631   */\n      0x00\n        /* \"#utility.yul\":1627:1628   */\n      0x00\n        /* \"#utility.yul\":1620:1632   */\n      revert\n        /* \"#utility.yul\":1582:1634   */\n    tag_312:\n        /* \"#utility.yul\":1670:1679   */\n      dup3\n        /* \"#utility.yul\":1657:1680   */\n      calldataload\n        /* \"#utility.yul\":1703:1721   */\n      0xffffffffffffffff\n        /* \"#utility.yul\":1695:1701   */\n      dup2\n        /* \"#utility.yul\":1692:1722   */\n      gt\n        /* \"#utility.yul\":1689:1739   */\n      iszero\n      tag_313\n      jumpi\n        /* \"#utility.yul\":1735:1736   */\n      0x00\n        /* \"#utility.yul\":1732:1733   */\n      0x00\n        /* \"#utility.yul\":1725:1737   */\n      revert\n        /* \"#utility.yul\":1689:1739   */\n    tag_313:\n        /* \"#utility.yul\":1758:1780   */\n      dup4\n      add\n        /* \"#utility.yul\":1811:1815   */\n      0x1f\n        /* \"#utility.yul\":1803:1816   */\n      dup2\n      add\n        /* \"#utility.yul\":1799:1826   */\n      dup6\n      sgt\n        /* \"#utility.yul\":1789:1844   */\n      tag_314\n      jumpi\n        /* \"#utility.yul\":1840:1841   */\n      0x00\n        /* \"#utility.yul\":1837:1838   */\n      0x00\n        /* \"#utility.yul\":1830:1842   */\n      revert\n        /* \"#utility.yul\":1789:1844   */\n    tag_314:\n        /* \"#utility.yul\":1880:1882   */\n      dup1\n        /* \"#utility.yul\":1867:1883   */\n      calldataload\n        /* \"#utility.yul\":1906:1924   */\n      0xffffffffffffffff\n        /* \"#utility.yul\":1898:1904   */\n      dup2\n        /* \"#utility.yul\":1895:1925   */\n      gt\n        /* \"#utility.yul\":1892:1942   */\n      iszero\n      tag_315\n      jumpi\n        /* \"#utility.yul\":1938:1939   */\n      0x00\n        /* \"#utility.yul\":1935:1936   */\n      0x00\n        /* \"#utility.yul\":1928:1940   */\n      revert\n        /* \"#utility.yul\":1892:1942   */\n    tag_315:\n        /* \"#utility.yul\":1991:1998   */\n      dup6\n        /* \"#utility.yul\":1986:1988   */\n      0x20\n        /* \"#utility.yul\":1976:1982   */\n      dup3\n        /* \"#utility.yul\":1973:1974   */\n      0x05\n        /* \"#utility.yul\":1969:1983   */\n      shl\n        /* \"#utility.yul\":1965:1967   */\n      dup5\n        /* \"#utility.yul\":1961:1984   */\n      add\n        /* \"#utility.yul\":1957:1989   */\n      add\n        /* \"#utility.yul\":1954:1999   */\n      gt\n        /* \"#utility.yul\":1951:2016   */\n      iszero\n      tag_316\n      jumpi\n        /* \"#utility.yul\":2012:2013   */\n      0x00\n        /* \"#utility.yul\":2009:2010   */\n      0x00\n        /* \"#utility.yul\":2002:2014   */\n      revert\n        /* \"#utility.yul\":1951:2016   */\n    tag_316:\n        /* \"#utility.yul\":2043:2045   */\n      0x20\n        /* \"#utility.yul\":2035:2046   */\n      swap2\n      swap1\n      swap2\n      add\n      swap6\n        /* \"#utility.yul\":2065:2071   */\n      swap1\n      swap5\n      pop\n        /* \"#utility.yul\":1467:2077   */\n      swap3\n      pop\n      pop\n      pop\n      jump\t// out\n        /* \"#utility.yul\":2527:2723   */\n    tag_300:\n        /* \"#utility.yul\":2595:2615   */\n      dup1\n      calldataload\n      sub(shl(0xa0, 0x01), 0x01)\n        /* \"#utility.yul\":2644:2698   */\n      dup2\n      and\n        /* \"#utility.yul\":2634:2699   */\n      dup2\n      eq\n        /* \"#utility.yul\":2624:2717   */\n      tag_319\n      jumpi\n        /* \"#utility.yul\":2713:2714   */\n      0x00\n        /* \"#utility.yul\":2710:2711   */\n      0x00\n        /* \"#utility.yul\":2703:2715   */\n      revert\n        /* \"#utility.yul\":2624:2717   */\n    tag_319:\n        /* \"#utility.yul\":2527:2723   */\n      swap2\n      swap1\n      pop\n      jump\t// out\n        /* \"#utility.yul\":2728:3028   */\n    tag_94:\n        /* \"#utility.yul\":2796:2802   */\n      0x00\n        /* \"#utility.yul\":2804:2810   */\n      0x00\n        /* \"#utility.yul\":2857:2859   */\n      0x40\n        /* \"#utility.yul\":2845:2854   */\n      dup4\n        /* \"#utility.yul\":2836:2843   */\n      dup6\n        /* \"#utility.yul\":2832:2855   */\n      sub\n        /* \"#utility.yul\":2828:2860   */\n      slt\n        /* \"#utility.yul\":2825:2877   */\n      iszero\n      tag_321\n      jumpi\n        /* \"#utility.yul\":2873:2874   */\n      0x00\n        /* \"#utility.yul\":2870:2871   */\n      0x00\n        /* \"#utility.yul\":2863:2875   */\n      revert\n        /* \"#utility.yul\":2825:2877   */\n    tag_321:\n        /* \"#utility.yul\":2896:2925   */\n      tag_322\n        /* \"#utility.yul\":2915:2924   */\n      dup4\n        /* \"#utility.yul\":2896:2925   */\n      tag_300\n      jump\t// in\n    tag_322:\n        /* \"#utility.yul\":2886:2925   */\n      swap5\n        /* \"#utility.yul\":2994:2996   */\n      0x20\n        /* \"#utility.yul\":2979:2997   */\n      swap4\n      swap1\n      swap4\n      add\n        /* \"#utility.yul\":2966:2998   */\n      calldataload\n      swap4\n      pop\n      pop\n      pop\n        /* \"#utility.yul\":2728:3028   */\n      jump\t// out\n        /* \"#utility.yul\":3033:3445   */\n    tag_98:\n        /* \"#utility.yul\":3100:3106   */\n      0x00\n        /* \"#utility.yul\":3108:3114   */\n      0x00\n        /* \"#utility.yul\":3161:3163   */\n      0x40\n        /* \"#utility.yul\":3149:3158   */\n      dup4\n        /* \"#utility.yul\":3140:3147   */\n      dup6\n        /* \"#utility.yul\":3136:3159   */\n      sub\n        /* \"#utility.yul\":3132:3164   */\n      slt\n        /* \"#utility.yul\":3129:3181   */\n      iszero\n      tag_324\n      jumpi\n        /* \"#utility.yul\":3177:3178   */\n      0x00\n        /* \"#utility.yul\":3174:3175   */\n      0x00\n        /* \"#utility.yul\":3167:3179   */\n      revert\n        /* \"#utility.yul\":3129:3181   */\n    tag_324:\n        /* \"#utility.yul\":3216:3225   */\n      dup3\n        /* \"#utility.yul\":3203:3226   */\n      calldataload\n      sub(shl(0x60, 0x01), 0x01)\n        /* \"#utility.yul\":3259:3264   */\n      dup2\n        /* \"#utility.yul\":3255:3293   */\n      and\n        /* \"#utility.yul\":3248:3253   */\n      dup2\n        /* \"#utility.yul\":3245:3294   */\n      eq\n        /* \"#utility.yul\":3235:3312   */\n      tag_322\n      jumpi\n        /* \"#utility.yul\":3308:3309   */\n      0x00\n        /* \"#utility.yul\":3305:3306   */\n      0x00\n        /* \"#utility.yul\":3298:3310   */\n      revert\n        /* \"#utility.yul\":3703:3889   */\n    tag_104:\n        /* \"#utility.yul\":3762:3768   */\n      0x00\n        /* \"#utility.yul\":3815:3817   */\n      0x20\n        /* \"#utility.yul\":3803:3812   */\n      dup3\n        /* \"#utility.yul\":3794:3801   */\n      dup5\n        /* \"#utility.yul\":3790:3813   */\n      sub\n        /* \"#utility.yul\":3786:3818   */\n      slt\n        /* \"#utility.yul\":3783:3835   */\n      iszero\n      tag_328\n      jumpi\n        /* \"#utility.yul\":3831:3832   */\n      0x00\n        /* \"#utility.yul\":3828:3829   */\n      0x00\n        /* \"#utility.yul\":3821:3833   */\n      revert\n        /* \"#utility.yul\":3783:3835   */\n    tag_328:\n        /* \"#utility.yul\":3854:3883   */\n      tag_329\n        /* \"#utility.yul\":3873:3882   */\n      dup3\n        /* \"#utility.yul\":3854:3883   */\n      tag_300\n      jump\t// in\n    tag_329:\n        /* \"#utility.yul\":3844:3883   */\n      swap4\n        /* \"#utility.yul\":3703:3889   */\n      swap3\n      pop\n      pop\n      pop\n      jump\t// out\n        /* \"#utility.yul\":5372:5499   */\n    tag_301:\n        /* \"#utility.yul\":5433:5443   */\n      0x4e487b71\n        /* \"#utility.yul\":5428:5431   */\n      0xe0\n        /* \"#utility.yul\":5424:5444   */\n      shl\n        /* \"#utility.yul\":5421:5422   */\n      0x00\n        /* \"#utility.yul\":5414:5445   */\n      mstore\n        /* \"#utility.yul\":5464:5468   */\n      0x11\n        /* \"#utility.yul\":5461:5462   */\n      0x04\n        /* \"#utility.yul\":5454:5469   */\n      mstore\n        /* \"#utility.yul\":5488:5492   */\n      0x24\n        /* \"#utility.yul\":5485:5486   */\n      0x00\n        /* \"#utility.yul\":5478:5493   */\n      revert\n        /* \"#utility.yul\":5504:5632   */\n    tag_129:\n        /* \"#utility.yul\":5571:5580   */\n      dup2\n      dup2\n      sub\n        /* \"#utility.yul\":5592:5603   */\n      dup2\n      dup2\n      gt\n        /* \"#utility.yul\":5589:5626   */\n      iszero\n      tag_337\n      jumpi\n        /* \"#utility.yul\":5606:5624   */\n      tag_337\n      tag_301\n      jump\t// in\n    tag_337:\n        /* \"#utility.yul\":5504:5632   */\n      swap3\n      swap2\n      pop\n      pop\n      jump\t// out\n        /* \"#utility.yul\":6755:6972   */\n    tag_164:\n        /* \"#utility.yul\":6795:6796   */\n      0x00\n        /* \"#utility.yul\":6821:6822   */\n      dup3\n        /* \"#utility.yul\":6811:6943   */\n      tag_342\n      jumpi\n        /* \"#utility.yul\":6865:6875   */\n      0x4e487b71\n        /* \"#utility.yul\":6860:6863   */\n      0xe0\n        /* \"#utility.yul\":6856:6876   */\n      shl\n        /* \"#utility.yul\":6853:6854   */\n      0x00\n        /* \"#utility.yul\":6846:6877   */\n      mstore\n        /* \"#utility.yul\":6900:6904   */\n      0x12\n        /* \"#utility.yul\":6897:6898   */\n      0x04\n        /* \"#utility.yul\":6890:6905   */\n      mstore\n        /* \"#utility.yul\":6928:6932   */\n      0x24\n        /* \"#utility.yul\":6925:6926   */\n      0x00\n        /* \"#utility.yul\":6918:6933   */\n      revert\n        /* \"#utility.yul\":6811:6943   */\n    tag_342:\n      pop\n        /* \"#utility.yul\":6957:6966   */\n      div\n      swap1\n        /* \"#utility.yul\":6755:6972   */\n      jump\t// out\n        /* \"#utility.yul\":6977:7102   */\n    tag_166:\n        /* \"#utility.yul\":7042:7051   */\n      dup1\n      dup3\n      add\n        /* \"#utility.yul\":7063:7073   */\n      dup1\n      dup3\n      gt\n        /* \"#utility.yul\":7060:7096   */\n      iszero\n      tag_337\n      jumpi\n        /* \"#utility.yul\":7076:7094   */\n      tag_337\n      tag_301\n      jump\t// in\n        /* \"#utility.yul\":7107:7234   */\n    tag_175:\n        /* \"#utility.yul\":7168:7178   */\n      0x4e487b71\n        /* \"#utility.yul\":7163:7166   */\n      0xe0\n        /* \"#utility.yul\":7159:7179   */\n      shl\n        /* \"#utility.yul\":7156:7157   */\n      0x00\n        /* \"#utility.yul\":7149:7180   */\n      mstore\n        /* \"#utility.yul\":7199:7203   */\n      0x32\n        /* \"#utility.yul\":7196:7197   */\n      0x04\n        /* \"#utility.yul\":7189:7204   */\n      mstore\n        /* \"#utility.yul\":7223:7227   */\n      0x24\n        /* \"#utility.yul\":7220:7221   */\n      0x00\n        /* \"#utility.yul\":7213:7228   */\n      revert\n        /* \"#utility.yul\":7594:7762   */\n    tag_215:\n        /* \"#utility.yul\":7667:7676   */\n      dup1\n      dup3\n      mul\n        /* \"#utility.yul\":7698:7707   */\n      dup2\n      iszero\n        /* \"#utility.yul\":7715:7730   */\n      dup3\n      dup3\n      div\n        /* \"#utility.yul\":7709:7731   */\n      dup5\n      eq\n        /* \"#utility.yul\":7695:7732   */\n      or\n        /* \"#utility.yul\":7685:7756   */\n      tag_337\n      jumpi\n        /* \"#utility.yul\":7736:7754   */\n      tag_337\n      tag_301\n      jump\t// in\n        /* \"#utility.yul\":7767:7951   */\n    tag_244:\n        /* \"#utility.yul\":7837:7843   */\n      0x00\n        /* \"#utility.yul\":7890:7892   */\n      0x20\n        /* \"#utility.yul\":7878:7887   */\n      dup3\n        /* \"#utility.yul\":7869:7876   */\n      dup5\n        /* \"#utility.yul\":7865:7888   */\n      sub\n        /* \"#utility.yul\":7861:7893   */\n      slt\n        /* \"#utility.yul\":7858:7910   */\n      iszero\n      tag_352\n      jumpi\n        /* \"#utility.yul\":7906:7907   */\n      0x00\n        /* \"#utility.yul\":7903:7904   */\n      0x00\n        /* \"#utility.yul\":7896:7908   */\n      revert\n        /* \"#utility.yul\":7858:7910   */\n    tag_352:\n      pop\n        /* \"#utility.yul\":7929:7945   */\n      mload\n      swap2\n        /* \"#utility.yul\":7767:7951   */\n      swap1\n      pop\n      jump\t// out\n        /* \"#utility.yul\":8729:8944   */\n    tag_260:\n      sub(shl(0x60, 0x01), 0x01)\n        /* \"#utility.yul\":8797:8831   */\n      dup2\n      dup2\n      and\n        /* \"#utility.yul\":8833:8867   */\n      dup4\n      dup3\n      and\n        /* \"#utility.yul\":8793:8868   */\n      add\n      swap1\n        /* \"#utility.yul\":8880:8915   */\n      dup2\n      gt\n        /* \"#utility.yul\":8877:8938   */\n      iszero\n      tag_337\n      jumpi\n        /* \"#utility.yul\":8918:8936   */\n      tag_337\n      tag_301\n      jump\t// in\n        /* \"#utility.yul\":9376:9511   */\n    tag_269:\n        /* \"#utility.yul\":9415:9418   */\n      0x00\n        /* \"#utility.yul\":9436:9453   */\n      0x01\n      dup3\n      add\n        /* \"#utility.yul\":9433:9476   */\n      tag_361\n      jumpi\n        /* \"#utility.yul\":9456:9474   */\n      tag_361\n      tag_301\n      jump\t// in\n    tag_361:\n      pop\n        /* \"#utility.yul\":9503:9504   */\n      0x01\n        /* \"#utility.yul\":9492:9505   */\n      add\n      swap1\n        /* \"#utility.yul\":9376:9511   */\n      jump\t// out\n\n    auxdata: 0xa2646970667358221220907688c842296beb3d759f6b8aabca99f354693326ae041ced431c379c74726f64736f6c634300081e0033\n}\n",
				"bytecode": {
					"linkReferences": {},
					"object": "60c060405260016002555f6003555f60045534801561001c575f5ffd5b5060405161162638038061162683398101604081905261003b916100eb565b338061006057604051631e4fbdf760e01b81525f600482015260240160405180910390fd5b61006981610081565b506001600160a01b039182166080521660a05261011c565b5f80546001600160a01b038381166001600160a01b0319831681178455604051919092169283917f8be0079c531659141344cd1fd0a4f28419497f9722a3daafe3b4186f6b6457e09190a35050565b80516001600160a01b03811681146100e6575f5ffd5b919050565b5f5f604083850312156100fc575f5ffd5b610105836100d0565b9150610113602084016100d0565b90509250929050565b60805160a0516114aa61017c5f395f81816101c7015281816102460152818161050101528181610a6201528181610d170152610de301525f8181610181015281816102f001528181610732015281816109c80152610f1701526114aa5ff3fe608060405234801561000f575f5ffd5b5060043610610141575f3560e01c8063b109beec116100c3578063ce325bf811610088578063d6ef7af011610063578063d6ef7af014610314578063d93c04a014610327578063f2fde38b1461034f575f5ffd5b8063ce325bf81461029e578063d2d7231f146102db578063d46149a2146102ee575f5ffd5b8063b109beec14610241578063b5fa91fe14610268578063b6baffe314610270578063bc85435214610278578063beceed391461028b575f5ffd5b80638da5cb5b116101095780638da5cb5b146101eb5780638e12c0cd146101fb5780638f4729b71461021c578063ac00500f14610225578063af7568dd14610238575f5ffd5b8063109cf39914610145578063379607f5146101695780636db08f251461017c578063715018a6146101bb5780637c2fdeb5146101c5575b5f5ffd5b6101566969e10de76676d080000081565b6040519081526020015b60405180910390f35b61015661017736600461126a565b610362565b6101a37f000000000000000000000000000000000000000000000000000000000000000081565b6040516001600160a01b039091168152602001610160565b6101c3610587565b005b7f00000000000000000000000000000000000000000000000000000000000000006101a3565b5f546001600160a01b03166101a3565b610204612a3081565b6040516001600160601b039091168152602001610160565b61015660045481565b6101c3610233366004611281565b61059a565b61015660035481565b6101a37f000000000000000000000000000000000000000000000000000000000000000081565b6101566107b0565b6101566107c5565b6101c36102863660046112a1565b6107ea565b6101c361029936600461126a565b6109fc565b6102b16102ac36600461126a565b610ac8565b604080516001600160a01b0390951685526020850193909352918301526060820152608001610160565b6101566102e936600461126a565b610b65565b7f00000000000000000000000000000000000000000000000000000000000000006101a3565b6101c361032236600461132d565b610ced565b61033a610335366004611355565b610e51565b60408051928352602083019190915201610160565b6101c361035d36600461137c565b611086565b5f815f81118015610374575060025481105b6103c15760405162461bcd60e51b81526020600482015260196024820152784d6f64756c65583a496e76616c6964205374616b652049442160381b60448201526064015b60405180910390fd5b5f83815260016020526040902080546001600160a01b031633146104275760405162461bcd60e51b815260206004820152601f60248201527f4d6f64756c65583a43616c6c6572206973206e6f7420746865206f776e65720060448201526064016103b8565b8054600160a01b90046001600160601b0316426001600160601b031610156104a45760405162461bcd60e51b815260206004820152602a60248201527f4d6f64756c65583a4561726c79205769746864726177616c206973206e6f74206044820152697065726d69747465642160b01b60648201526084016103b8565b5f8160020154116104f75760405162461bcd60e51b815260206004820152601860248201527f4d6f64756c65583a4e6f7468696e6720746f20636c61696d000000000000000060448201526064016103b8565b60028101546105307f00000000000000000000000000000000000000000000000000000000000000006001600160a01b031633836110c3565b8060045f82825461054191906113b0565b90915550505f60028301556040518581527f67bb155fcabb99400c32b640dc7704c8f18aae4c817704c7267c5a8cd26dfc199060200160405180910390a1949350505050565b61058f611137565b6105985f611163565b565b6105a2611137565b815f811180156105b3575060025481105b6105fb5760405162461bcd60e51b81526020600482015260196024820152784d6f64756c65583a496e76616c6964205374616b652049442160381b60448201526064016103b8565b5f821161065c5760405162461bcd60e51b815260206004820152602960248201527f4d6f64756c65583a616d6f756e74206d7573742062652067726561746572207460448201526868616e207a65726f2160b81b60648201526084016103b8565b5f8381526001602052604090208054600160a01b90046001600160601b0316426001600160601b031611156106cb5760405162461bcd60e51b81526020600482015260156024820152744d6f64756c65583a4275726e7420746f6b656e732160581b60448201526064016103b8565b806001015483111561071f5760405162461bcd60e51b815260206004820152601d60248201527f4d6f64756c65583a496e73756666696369656e742062616c616e63652100000060448201526064016103b8565b6107593360018301546001600160a01b037f00000000000000000000000000000000000000000000000000000000000000001691906110c3565b82816001015f82825461076c91906113b0565b909155505060408051858152602081018590527f03a00e6132085cbc9ea18899cd135ef9cad5d305d58506e08e7b1a9b96199a9c910160405180910390a150505050565b5f60016002546107c091906113b0565b905090565b5f600b6969e10de76676d08000006003546107e091906113c9565b6107c091906113e8565b6107f2611137565b5f805b8281101561097357600254848483818110610812576108126113fb565b90506020020135106108625760405162461bcd60e51b81526020600482015260196024820152784d6f64756c65583a496e76616c6964205374616b652049442160381b60448201526064016103b8565b5f60015f868685818110610878576108786113fb565b602090810292909201358352508101919091526040015f208054909150600160a01b90046001600160601b0316426001600160601b031611156108f55760405162461bcd60e51b81526020600482015260156024820152744d6f64756c65583a4275726e7420746f6b656e732160581b60448201526064016103b8565b600181015461090490846113e8565b5f600183015592507f03a00e6132085cbc9ea18899cd135ef9cad5d305d58506e08e7b1a9b96199a9c85858481811061093f5761093f6113fb565b905060200201358260010154604051610962929190918252602082015260400190565b60405180910390a1506001016107f5565b505f81116109c35760405162461bcd60e51b815260206004820152601a60248201527f4d6f64756c65583a546f74616c20616d6f756e7420697320302100000000000060448201526064016103b8565b6109f77f00000000000000000000000000000000000000000000000000000000000000006001600160a01b031633836110c3565b505050565b5f8111610a5d5760405162461bcd60e51b815260206004820152602960248201527f4d6f64756c65583a616d6f756e74206d7573742062652067726561746572207460448201526868616e207a65726f2160b81b60648201526084016103b8565b610a927f00000000000000000000000000000000000000000000000000000000000000006001600160a01b03163330846111bf565b6040518181527fde88a922e0d3b88b24e9623efeb464919c6bf9f66857a65e2bfcf2ce87a9433d9060200160405180910390a150565b5f5f5f5f845f81118015610add575060025481105b610b255760405162461bcd60e51b81526020600482015260196024820152784d6f64756c65583a496e76616c6964205374616b652049442160381b60448201526064016103b8565b5050505f92835250506001602081905260409091208054918101546002909101546001600160a01b03831693600160a01b9093046001600160601b031692565b5f5f670de0b6b3a764000090505f83600354610b8191906113e8565b90505f6969e10de76676d0800000600354610b9c91906113c9565b90505f610bb36969e10de76676d0800000846113c9565b9050808203610bdb57610bc7600b836113e8565b610bd190876113c9565b9695505050505050565b5f610be7600b846113e8565b6003546969e10de76676d0800000610c008660016113e8565b610c0a919061140f565b610c1491906113b0565b610c1e908761140f565b610c2891906113c9565b90505f610c36600b846113e8565b610c4a6969e10de76676d08000008561140f565b610c5490876113b0565b610c5e908861140f565b610c6891906113c9565b90505f80610c778660016113e8565b90505b84811015610cbf57610c8d600b826113e8565b610ca16969e10de76676d08000008a61140f565b610cab91906113c9565b610cb590836113e8565b9150600101610c7a565b508682610ccc83866113e8565b610cd691906113e8565b610ce091906113c9565b9998505050505050505050565b610cf5611137565b600454610d0290826113e8565b6040516370a0823160e01b81523060048201527f00000000000000000000000000000000000000000000000000000000000000006001600160a01b0316906370a0823190602401602060405180830381865afa158015610d64573d5f5f3e3d5ffd5b505050506040513d601f19601f82011682018060405250810190610d889190611426565b1015610dd65760405162461bcd60e51b815260206004820152601d60248201527f4d6f64756c65583a496e73756666696369656e742062616c616e63652100000060448201526064016103b8565b610e0a6001600160a01b037f00000000000000000000000000000000000000000000000000000000000000001683836110c3565b816001600160a01b03167f1d3eee4ca001cff39eec6ec7615aacf2f2bd61791273830728ba00ccbd6e133782604051610e4591815260200190565b60405180910390a25050565b5f5f5f8311610eb75760405162461bcd60e51b815260206004820152602c60248201527f4d6f64756c65583a5374616b6520616d6f756e74206d7573742062652067726560448201526b61746572207468616e20302160a01b60648201526084016103b8565b612a306001600160601b0385161015610f125760405162461bcd60e51b815260206004820152601f60248201527f4d6f64756c65583a557365206c6f6e676572206c6f636b5f706572696f64210060448201526064016103b8565b610f477f00000000000000000000000000000000000000000000000000000000000000006001600160a01b03163330866111bf565b5f610f52854261143d565b90505f610f5e85610b65565b90505f60025490506040518060800160405280610f783390565b6001600160a01b0390811682526001600160601b0386811660208085019190915260408085018c905260609485018890525f878152600180845282822088519489015194909616600160a01b949095169390930293909317845585015190830155929091015160029091015560038054889290610ff69084906113e8565b925050819055508160045f82825461100e91906113e8565b9091555050604080518281526001600160601b038516602082015280820188905260608101849052905133917f24fe2d25c10eb2c67b5ac1e3edbcadc94191e154ed388ad667a9480c44f47146919081900360800190a260028054905f6110748361145c565b90915550909791965090945050505050565b61108e611137565b6001600160a01b0381166110b757604051631e4fbdf760e01b81525f60048201526024016103b8565b6110c081611163565b50565b6040516001600160a01b038381166024830152604482018390526109f791859182169063a9059cbb906064015b604051602081830303815290604052915060e01b6020820180517bffffffffffffffffffffffffffffffffffffffffffffffffffffffff83818316178352505050506111fe565b5f546001600160a01b031633146105985760405163118cdaa760e01b81523360048201526024016103b8565b5f80546001600160a01b0383811673ffffffffffffffffffffffffffffffffffffffff19831681178455604051919092169283917f8be0079c531659141344cd1fd0a4f28419497f9722a3daafe3b4186f6b6457e09190a35050565b6040516001600160a01b0384811660248301528381166044830152606482018390526111f89186918216906323b872dd906084016110f0565b50505050565b5f5f60205f8451602086015f885af18061121d576040513d5f823e3d81fd5b50505f513d91508115611234578060011415611241565b6001600160a01b0384163b155b156111f857604051635274afe760e01b81526001600160a01b03851660048201526024016103b8565b5f6020828403121561127a575f5ffd5b5035919050565b5f5f60408385031215611292575f5ffd5b50508035926020909101359150565b5f5f602083850312156112b2575f5ffd5b823567ffffffffffffffff8111156112c8575f5ffd5b8301601f810185136112d8575f5ffd5b803567ffffffffffffffff8111156112ee575f5ffd5b8560208260051b8401011115611302575f5ffd5b6020919091019590945092505050565b80356001600160a01b0381168114611328575f5ffd5b919050565b5f5f6040838503121561133e575f5ffd5b61134783611312565b946020939093013593505050565b5f5f60408385031215611366575f5ffd5b82356001600160601b0381168114611347575f5ffd5b5f6020828403121561138c575f5ffd5b61139582611312565b9392505050565b634e487b7160e01b5f52601160045260245ffd5b818103818111156113c3576113c361139c565b92915050565b5f826113e357634e487b7160e01b5f52601260045260245ffd5b500490565b808201808211156113c3576113c361139c565b634e487b7160e01b5f52603260045260245ffd5b80820281158282048414176113c3576113c361139c565b5f60208284031215611436575f5ffd5b5051919050565b6001600160601b0381811683821601908111156113c3576113c361139c565b5f6001820161146d5761146d61139c565b506001019056fea2646970667358221220907688c842296beb3d759f6b8aabca99f354693326ae041ced431c379c74726f64736f6c634300081e0033",
					"opcodes": "PUSH1 0xC0 PUSH1 0x40 MSTORE PUSH1 0x1 PUSH1 0x2 SSTORE PUSH0 PUSH1 0x3 SSTORE PUSH0 PUSH1 0x4 SSTORE CALLVALUE DUP1 ISZERO PUSH2 0x1C JUMPI PUSH0 PUSH0 REVERT JUMPDEST POP PUSH1 0x40 MLOAD PUSH2 0x1626 CODESIZE SUB DUP1 PUSH2 0x1626 DUP4 CODECOPY DUP2 ADD PUSH1 0x40 DUP2 SWAP1 MSTORE PUSH2 0x3B SWAP2 PUSH2 0xEB JUMP JUMPDEST CALLER DUP1 PUSH2 0x60 JUMPI PUSH1 0x40 MLOAD PUSH4 0x1E4FBDF7 PUSH1 0xE0 SHL DUP2 MSTORE PUSH0 PUSH1 0x4 DUP3 ADD MSTORE PUSH1 0x24 ADD PUSH1 0x40 MLOAD DUP1 SWAP2 SUB SWAP1 REVERT JUMPDEST PUSH2 0x69 DUP2 PUSH2 0x81 JUMP JUMPDEST POP PUSH1 0x1 PUSH1 0x1 PUSH1 0xA0 SHL SUB SWAP2 DUP3 AND PUSH1 0x80 MSTORE AND PUSH1 0xA0 MSTORE PUSH2 0x11C JUMP JUMPDEST PUSH0 DUP1 SLOAD PUSH1 0x1 PUSH1 0x1 PUSH1 0xA0 SHL SUB DUP4 DUP2 AND PUSH1 0x1 PUSH1 0x1 PUSH1 0xA0 SHL SUB NOT DUP4 AND DUP2 OR DUP5 SSTORE PUSH1 0x40 MLOAD SWAP2 SWAP1 SWAP3 AND SWAP3 DUP4 SWAP2 PUSH32 0x8BE0079C531659141344CD1FD0A4F28419497F9722A3DAAFE3B4186F6B6457E0 SWAP2 SWAP1 LOG3 POP POP JUMP JUMPDEST DUP1 MLOAD PUSH1 0x1 PUSH1 0x1 PUSH1 0xA0 SHL SUB DUP2 AND DUP2 EQ PUSH2 0xE6 JUMPI PUSH0 PUSH0 REVERT JUMPDEST SWAP2 SWAP1 POP JUMP JUMPDEST PUSH0 PUSH0 PUSH1 0x40 DUP4 DUP6 SUB SLT ISZERO PUSH2 0xFC JUMPI PUSH0 PUSH0 REVERT JUMPDEST PUSH2 0x105 DUP4 PUSH2 0xD0 JUMP JUMPDEST SWAP2 POP PUSH2 0x113 PUSH1 0x20 DUP5 ADD PUSH2 0xD0 JUMP JUMPDEST SWAP1 POP SWAP3 POP SWAP3 SWAP1 POP JUMP JUMPDEST PUSH1 0x80 MLOAD PUSH1 0xA0 MLOAD PUSH2 0x14AA PUSH2 0x17C PUSH0 CODECOPY PUSH0 DUP2 DUP2 PUSH2 0x1C7 ADD MSTORE DUP2 DUP2 PUSH2 0x246 ADD MSTORE DUP2 DUP2 PUSH2 0x501 ADD MSTORE DUP2 DUP2 PUSH2 0xA62 ADD MSTORE DUP2 DUP2 PUSH2 0xD17 ADD MSTORE PUSH2 0xDE3 ADD MSTORE PUSH0 DUP2 DUP2 PUSH2 0x181 ADD MSTORE DUP2 DUP2 PUSH2 0x2F0 ADD MSTORE DUP2 DUP2 PUSH2 0x732 ADD MSTORE DUP2 DUP2 PUSH2 0x9C8 ADD MSTORE PUSH2 0xF17 ADD MSTORE PUSH2 0x14AA PUSH0 RETURN INVALID PUSH1 0x80 PUSH1 0x40 MSTORE CALLVALUE DUP1 ISZERO PUSH2 0xF JUMPI PUSH0 PUSH0 REVERT JUMPDEST POP PUSH1 0x4 CALLDATASIZE LT PUSH2 0x141 JUMPI PUSH0 CALLDATALOAD PUSH1 0xE0 SHR DUP1 PUSH4 0xB109BEEC GT PUSH2 0xC3 JUMPI DUP1 PUSH4 0xCE325BF8 GT PUSH2 0x88 JUMPI DUP1 PUSH4 0xD6EF7AF0 GT PUSH2 0x63 JUMPI DUP1 PUSH4 0xD6EF7AF0 EQ PUSH2 0x314 JUMPI DUP1 PUSH4 0xD93C04A0 EQ PUSH2 0x327 JUMPI DUP1 PUSH4 0xF2FDE38B EQ PUSH2 0x34F JUMPI PUSH0 PUSH0 REVERT JUMPDEST DUP1 PUSH4 0xCE325BF8 EQ PUSH2 0x29E JUMPI DUP1 PUSH4 0xD2D7231F EQ PUSH2 0x2DB JUMPI DUP1 PUSH4 0xD46149A2 EQ PUSH2 0x2EE JUMPI PUSH0 PUSH0 REVERT JUMPDEST DUP1 PUSH4 0xB109BEEC EQ PUSH2 0x241 JUMPI DUP1 PUSH4 0xB5FA91FE EQ PUSH2 0x268 JUMPI DUP1 PUSH4 0xB6BAFFE3 EQ PUSH2 0x270 JUMPI DUP1 PUSH4 0xBC854352 EQ PUSH2 0x278 JUMPI DUP1 PUSH4 0xBECEED39 EQ PUSH2 0x28B JUMPI PUSH0 PUSH0 REVERT JUMPDEST DUP1 PUSH4 0x8DA5CB5B GT PUSH2 0x109 JUMPI DUP1 PUSH4 0x8DA5CB5B EQ PUSH2 0x1EB JUMPI DUP1 PUSH4 0x8E12C0CD EQ PUSH2 0x1FB JUMPI DUP1 PUSH4 0x8F4729B7 EQ PUSH2 0x21C JUMPI DUP1 PUSH4 0xAC00500F EQ PUSH2 0x225 JUMPI DUP1 PUSH4 0xAF7568DD EQ PUSH2 0x238 JUMPI PUSH0 PUSH0 REVERT JUMPDEST DUP1 PUSH4 0x109CF399 EQ PUSH2 0x145 JUMPI DUP1 PUSH4 0x379607F5 EQ PUSH2 0x169 JUMPI DUP1 PUSH4 0x6DB08F25 EQ PUSH2 0x17C JUMPI DUP1 PUSH4 0x715018A6 EQ PUSH2 0x1BB JUMPI DUP1 PUSH4 0x7C2FDEB5 EQ PUSH2 0x1C5 JUMPI JUMPDEST PUSH0 PUSH0 REVERT JUMPDEST PUSH2 0x156 PUSH10 0x69E10DE76676D0800000 DUP2 JUMP JUMPDEST PUSH1 0x40 MLOAD SWAP1 DUP2 MSTORE PUSH1 0x20 ADD JUMPDEST PUSH1 0x40 MLOAD DUP1 SWAP2 SUB SWAP1 RETURN JUMPDEST PUSH2 0x156 PUSH2 0x177 CALLDATASIZE PUSH1 0x4 PUSH2 0x126A JUMP JUMPDEST PUSH2 0x362 JUMP JUMPDEST PUSH2 0x1A3 PUSH32 0x0 DUP2 JUMP JUMPDEST PUSH1 0x40 MLOAD PUSH1 0x1 PUSH1 0x1 PUSH1 0xA0 SHL SUB SWAP1 SWAP2 AND DUP2 MSTORE PUSH1 0x20 ADD PUSH2 0x160 JUMP JUMPDEST PUSH2 0x1C3 PUSH2 0x587 JUMP JUMPDEST STOP JUMPDEST PUSH32 0x0 PUSH2 0x1A3 JUMP JUMPDEST PUSH0 SLOAD PUSH1 0x1 PUSH1 0x1 PUSH1 0xA0 SHL SUB AND PUSH2 0x1A3 JUMP JUMPDEST PUSH2 0x204 PUSH2 0x2A30 DUP2 JUMP JUMPDEST PUSH1 0x40 MLOAD PUSH1 0x1 PUSH1 0x1 PUSH1 0x60 SHL SUB SWAP1 SWAP2 AND DUP2 MSTORE PUSH1 0x20 ADD PUSH2 0x160 JUMP JUMPDEST PUSH2 0x156 PUSH1 0x4 SLOAD DUP2 JUMP JUMPDEST PUSH2 0x1C3 PUSH2 0x233 CALLDATASIZE PUSH1 0x4 PUSH2 0x1281 JUMP JUMPDEST PUSH2 0x59A JUMP JUMPDEST PUSH2 0x156 PUSH1 0x3 SLOAD DUP2 JUMP JUMPDEST PUSH2 0x1A3 PUSH32 0x0 DUP2 JUMP JUMPDEST PUSH2 0x156 PUSH2 0x7B0 JUMP JUMPDEST PUSH2 0x156 PUSH2 0x7C5 JUMP JUMPDEST PUSH2 0x1C3 PUSH2 0x286 CALLDATASIZE PUSH1 0x4 PUSH2 0x12A1 JUMP JUMPDEST PUSH2 0x7EA JUMP JUMPDEST PUSH2 0x1C3 PUSH2 0x299 CALLDATASIZE PUSH1 0x4 PUSH2 0x126A JUMP JUMPDEST PUSH2 0x9FC JUMP JUMPDEST PUSH2 0x2B1 PUSH2 0x2AC CALLDATASIZE PUSH1 0x4 PUSH2 0x126A JUMP JUMPDEST PUSH2 0xAC8 JUMP JUMPDEST PUSH1 0x40 DUP1 MLOAD PUSH1 0x1 PUSH1 0x1 PUSH1 0xA0 SHL SUB SWAP1 SWAP6 AND DUP6 MSTORE PUSH1 0x20 DUP6 ADD SWAP4 SWAP1 SWAP4 MSTORE SWAP2 DUP4 ADD MSTORE PUSH1 0x60 DUP3 ADD MSTORE PUSH1 0x80 ADD PUSH2 0x160 JUMP JUMPDEST PUSH2 0x156 PUSH2 0x2E9 CALLDATASIZE PUSH1 0x4 PUSH2 0x126A JUMP JUMPDEST PUSH2 0xB65 JUMP JUMPDEST PUSH32 0x0 PUSH2 0x1A3 JUMP JUMPDEST PUSH2 0x1C3 PUSH2 0x322 CALLDATASIZE PUSH1 0x4 PUSH2 0x132D JUMP JUMPDEST PUSH2 0xCED JUMP JUMPDEST PUSH2 0x33A PUSH2 0x335 CALLDATASIZE PUSH1 0x4 PUSH2 0x1355 JUMP JUMPDEST PUSH2 0xE51 JUMP JUMPDEST PUSH1 0x40 DUP1 MLOAD SWAP3 DUP4 MSTORE PUSH1 0x20 DUP4 ADD SWAP2 SWAP1 SWAP2 MSTORE ADD PUSH2 0x160 JUMP JUMPDEST PUSH2 0x1C3 PUSH2 0x35D CALLDATASIZE PUSH1 0x4 PUSH2 0x137C JUMP JUMPDEST PUSH2 0x1086 JUMP JUMPDEST PUSH0 DUP2 PUSH0 DUP2 GT DUP1 ISZERO PUSH2 0x374 JUMPI POP PUSH1 0x2 SLOAD DUP2 LT JUMPDEST PUSH2 0x3C1 JUMPI PUSH1 0x40 MLOAD PUSH3 0x461BCD PUSH1 0xE5 SHL DUP2 MSTORE PUSH1 0x20 PUSH1 0x4 DUP3 ADD MSTORE PUSH1 0x19 PUSH1 0x24 DUP3 ADD MSTORE PUSH25 0x4D6F64756C65583A496E76616C6964205374616B6520494421 PUSH1 0x38 SHL PUSH1 0x44 DUP3 ADD MSTORE PUSH1 0x64 ADD JUMPDEST PUSH1 0x40 MLOAD DUP1 SWAP2 SUB SWAP1 REVERT JUMPDEST PUSH0 DUP4 DUP2 MSTORE PUSH1 0x1 PUSH1 0x20 MSTORE PUSH1 0x40 SWAP1 KECCAK256 DUP1 SLOAD PUSH1 0x1 PUSH1 0x1 PUSH1 0xA0 SHL SUB AND CALLER EQ PUSH2 0x427 JUMPI PUSH1 0x40 MLOAD PUSH3 0x461BCD PUSH1 0xE5 SHL DUP2 MSTORE PUSH1 0x20 PUSH1 0x4 DUP3 ADD MSTORE PUSH1 0x1F PUSH1 0x24 DUP3 ADD MSTORE PUSH32 0x4D6F64756C65583A43616C6C6572206973206E6F7420746865206F776E657200 PUSH1 0x44 DUP3 ADD MSTORE PUSH1 0x64 ADD PUSH2 0x3B8 JUMP JUMPDEST DUP1 SLOAD PUSH1 0x1 PUSH1 0xA0 SHL SWAP1 DIV PUSH1 0x1 PUSH1 0x1 PUSH1 0x60 SHL SUB AND TIMESTAMP PUSH1 0x1 PUSH1 0x1 PUSH1 0x60 SHL SUB AND LT ISZERO PUSH2 0x4A4 JUMPI PUSH1 0x40 MLOAD PUSH3 0x461BCD PUSH1 0xE5 SHL DUP2 MSTORE PUSH1 0x20 PUSH1 0x4 DUP3 ADD MSTORE PUSH1 0x2A PUSH1 0x24 DUP3 ADD MSTORE PUSH32 0x4D6F64756C65583A4561726C79205769746864726177616C206973206E6F7420 PUSH1 0x44 DUP3 ADD MSTORE PUSH10 0x7065726D697474656421 PUSH1 0xB0 SHL PUSH1 0x64 DUP3 ADD MSTORE PUSH1 0x84 ADD PUSH2 0x3B8 JUMP JUMPDEST PUSH0 DUP2 PUSH1 0x2 ADD SLOAD GT PUSH2 0x4F7 JUMPI PUSH1 0x40 MLOAD PUSH3 0x461BCD PUSH1 0xE5 SHL DUP2 MSTORE PUSH1 0x20 PUSH1 0x4 DUP3 ADD MSTORE PUSH1 0x18 PUSH1 0x24 DUP3 ADD MSTORE PUSH32 0x4D6F64756C65583A4E6F7468696E6720746F20636C61696D0000000000000000 PUSH1 0x44 DUP3 ADD MSTORE PUSH1 0x64 ADD PUSH2 0x3B8 JUMP JUMPDEST PUSH1 0x2 DUP2 ADD SLOAD PUSH2 0x530 PUSH32 0x0 PUSH1 0x1 PUSH1 0x1 PUSH1 0xA0 SHL SUB AND CALLER DUP4 PUSH2 0x10C3 JUMP JUMPDEST DUP1 PUSH1 0x4 PUSH0 DUP3 DUP3 SLOAD PUSH2 0x541 SWAP2 SWAP1 PUSH2 0x13B0 JUMP JUMPDEST SWAP1 SWAP2 SSTORE POP POP PUSH0 PUSH1 0x2 DUP4 ADD SSTORE PUSH1 0x40 MLOAD DUP6 DUP2 MSTORE PUSH32 0x67BB155FCABB99400C32B640DC7704C8F18AAE4C817704C7267C5A8CD26DFC19 SWAP1 PUSH1 0x20 ADD PUSH1 0x40 MLOAD DUP1 SWAP2 SUB SWAP1 LOG1 SWAP5 SWAP4 POP POP POP POP JUMP JUMPDEST PUSH2 0x58F PUSH2 0x1137 JUMP JUMPDEST PUSH2 0x598 PUSH0 PUSH2 0x1163 JUMP JUMPDEST JUMP JUMPDEST PUSH2 0x5A2 PUSH2 0x1137 JUMP JUMPDEST DUP2 PUSH0 DUP2 GT DUP1 ISZERO PUSH2 0x5B3 JUMPI POP PUSH1 0x2 SLOAD DUP2 LT JUMPDEST PUSH2 0x5FB JUMPI PUSH1 0x40 MLOAD PUSH3 0x461BCD PUSH1 0xE5 SHL DUP2 MSTORE PUSH1 0x20 PUSH1 0x4 DUP3 ADD MSTORE PUSH1 0x19 PUSH1 0x24 DUP3 ADD MSTORE PUSH25 0x4D6F64756C65583A496E76616C6964205374616B6520494421 PUSH1 0x38 SHL PUSH1 0x44 DUP3 ADD MSTORE PUSH1 0x64 ADD PUSH2 0x3B8 JUMP JUMPDEST PUSH0 DUP3 GT PUSH2 0x65C JUMPI PUSH1 0x40 MLOAD PUSH3 0x461BCD PUSH1 0xE5 SHL DUP2 MSTORE PUSH1 0x20 PUSH1 0x4 DUP3 ADD MSTORE PUSH1 0x29 PUSH1 0x24 DUP3 ADD MSTORE PUSH32 0x4D6F64756C65583A616D6F756E74206D75737420626520677265617465722074 PUSH1 0x44 DUP3 ADD MSTORE PUSH9 0x68616E207A65726F21 PUSH1 0xB8 SHL PUSH1 0x64 DUP3 ADD MSTORE PUSH1 0x84 ADD PUSH2 0x3B8 JUMP JUMPDEST PUSH0 DUP4 DUP2 MSTORE PUSH1 0x1 PUSH1 0x20 MSTORE PUSH1 0x40 SWAP1 KECCAK256 DUP1 SLOAD PUSH1 0x1 PUSH1 0xA0 SHL SWAP1 DIV PUSH1 0x1 PUSH1 0x1 PUSH1 0x60 SHL SUB AND TIMESTAMP PUSH1 0x1 PUSH1 0x1 PUSH1 0x60 SHL SUB AND GT ISZERO PUSH2 0x6CB JUMPI PUSH1 0x40 MLOAD PUSH3 0x461BCD PUSH1 0xE5 SHL DUP2 MSTORE PUSH1 0x20 PUSH1 0x4 DUP3 ADD MSTORE PUSH1 0x15 PUSH1 0x24 DUP3 ADD MSTORE PUSH21 0x4D6F64756C65583A4275726E7420746F6B656E7321 PUSH1 0x58 SHL PUSH1 0x44 DUP3 ADD MSTORE PUSH1 0x64 ADD PUSH2 0x3B8 JUMP JUMPDEST DUP1 PUSH1 0x1 ADD SLOAD DUP4 GT ISZERO PUSH2 0x71F JUMPI PUSH1 0x40 MLOAD PUSH3 0x461BCD PUSH1 0xE5 SHL DUP2 MSTORE PUSH1 0x20 PUSH1 0x4 DUP3 ADD MSTORE PUSH1 0x1D PUSH1 0x24 DUP3 ADD MSTORE PUSH32 0x4D6F64756C65583A496E73756666696369656E742062616C616E636521000000 PUSH1 0x44 DUP3 ADD MSTORE PUSH1 0x64 ADD PUSH2 0x3B8 JUMP JUMPDEST PUSH2 0x759 CALLER PUSH1 0x1 DUP4 ADD SLOAD PUSH1 0x1 PUSH1 0x1 PUSH1 0xA0 SHL SUB PUSH32 0x0 AND SWAP2 SWAP1 PUSH2 0x10C3 JUMP JUMPDEST DUP3 DUP2 PUSH1 0x1 ADD PUSH0 DUP3 DUP3 SLOAD PUSH2 0x76C SWAP2 SWAP1 PUSH2 0x13B0 JUMP JUMPDEST SWAP1 SWAP2 SSTORE POP POP PUSH1 0x40 DUP1 MLOAD DUP6 DUP2 MSTORE PUSH1 0x20 DUP2 ADD DUP6 SWAP1 MSTORE PUSH32 0x3A00E6132085CBC9EA18899CD135EF9CAD5D305D58506E08E7B1A9B96199A9C SWAP2 ADD PUSH1 0x40 MLOAD DUP1 SWAP2 SUB SWAP1 LOG1 POP POP POP POP JUMP JUMPDEST PUSH0 PUSH1 0x1 PUSH1 0x2 SLOAD PUSH2 0x7C0 SWAP2 SWAP1 PUSH2 0x13B0 JUMP JUMPDEST SWAP1 POP SWAP1 JUMP JUMPDEST PUSH0 PUSH1 0xB PUSH10 0x69E10DE76676D0800000 PUSH1 0x3 SLOAD PUSH2 0x7E0 SWAP2 SWAP1 PUSH2 0x13C9 JUMP JUMPDEST PUSH2 0x7C0 SWAP2 SWAP1 PUSH2 0x13E8 JUMP JUMPDEST PUSH2 0x7F2 PUSH2 0x1137 JUMP JUMPDEST PUSH0 DUP1 JUMPDEST DUP3 DUP2 LT ISZERO PUSH2 0x973 JUMPI PUSH1 0x2 SLOAD DUP5 DUP5 DUP4 DUP2 DUP2 LT PUSH2 0x812 JUMPI PUSH2 0x812 PUSH2 0x13FB JUMP JUMPDEST SWAP1 POP PUSH1 0x20 MUL ADD CALLDATALOAD LT PUSH2 0x862 JUMPI PUSH1 0x40 MLOAD PUSH3 0x461BCD PUSH1 0xE5 SHL DUP2 MSTORE PUSH1 0x20 PUSH1 0x4 DUP3 ADD MSTORE PUSH1 0x19 PUSH1 0x24 DUP3 ADD MSTORE PUSH25 0x4D6F64756C65583A496E76616C6964205374616B6520494421 PUSH1 0x38 SHL PUSH1 0x44 DUP3 ADD MSTORE PUSH1 0x64 ADD PUSH2 0x3B8 JUMP JUMPDEST PUSH0 PUSH1 0x1 PUSH0 DUP7 DUP7 DUP6 DUP2 DUP2 LT PUSH2 0x878 JUMPI PUSH2 0x878 PUSH2 0x13FB JUMP JUMPDEST PUSH1 0x20 SWAP1 DUP2 MUL SWAP3 SWAP1 SWAP3 ADD CALLDATALOAD DUP4 MSTORE POP DUP2 ADD SWAP2 SWAP1 SWAP2 MSTORE PUSH1 0x40 ADD PUSH0 KECCAK256 DUP1 SLOAD SWAP1 SWAP2 POP PUSH1 0x1 PUSH1 0xA0 SHL SWAP1 DIV PUSH1 0x1 PUSH1 0x1 PUSH1 0x60 SHL SUB AND TIMESTAMP PUSH1 0x1 PUSH1 0x1 PUSH1 0x60 SHL SUB AND GT ISZERO PUSH2 0x8F5 JUMPI PUSH1 0x40 MLOAD PUSH3 0x461BCD PUSH1 0xE5 SHL DUP2 MSTORE PUSH1 0x20 PUSH1 0x4 DUP3 ADD MSTORE PUSH1 0x15 PUSH1 0x24 DUP3 ADD MSTORE PUSH21 0x4D6F64756C65583A4275726E7420746F6B656E7321 PUSH1 0x58 SHL PUSH1 0x44 DUP3 ADD MSTORE PUSH1 0x64 ADD PUSH2 0x3B8 JUMP JUMPDEST PUSH1 0x1 DUP2 ADD SLOAD PUSH2 0x904 SWAP1 DUP5 PUSH2 0x13E8 JUMP JUMPDEST PUSH0 PUSH1 0x1 DUP4 ADD SSTORE SWAP3 POP PUSH32 0x3A00E6132085CBC9EA18899CD135EF9CAD5D305D58506E08E7B1A9B96199A9C DUP6 DUP6 DUP5 DUP2 DUP2 LT PUSH2 0x93F JUMPI PUSH2 0x93F PUSH2 0x13FB JUMP JUMPDEST SWAP1 POP PUSH1 0x20 MUL ADD CALLDATALOAD DUP3 PUSH1 0x1 ADD SLOAD PUSH1 0x40 MLOAD PUSH2 0x962 SWAP3 SWAP2 SWAP1 SWAP2 DUP3 MSTORE PUSH1 0x20 DUP3 ADD MSTORE PUSH1 0x40 ADD SWAP1 JUMP JUMPDEST PUSH1 0x40 MLOAD DUP1 SWAP2 SUB SWAP1 LOG1 POP PUSH1 0x1 ADD PUSH2 0x7F5 JUMP JUMPDEST POP PUSH0 DUP2 GT PUSH2 0x9C3 JUMPI PUSH1 0x40 MLOAD PUSH3 0x461BCD PUSH1 0xE5 SHL DUP2 MSTORE PUSH1 0x20 PUSH1 0x4 DUP3 ADD MSTORE PUSH1 0x1A PUSH1 0x24 DUP3 ADD MSTORE PUSH32 0x4D6F64756C65583A546F74616C20616D6F756E74206973203021000000000000 PUSH1 0x44 DUP3 ADD MSTORE PUSH1 0x64 ADD PUSH2 0x3B8 JUMP JUMPDEST PUSH2 0x9F7 PUSH32 0x0 PUSH1 0x1 PUSH1 0x1 PUSH1 0xA0 SHL SUB AND CALLER DUP4 PUSH2 0x10C3 JUMP JUMPDEST POP POP POP JUMP JUMPDEST PUSH0 DUP2 GT PUSH2 0xA5D JUMPI PUSH1 0x40 MLOAD PUSH3 0x461BCD PUSH1 0xE5 SHL DUP2 MSTORE PUSH1 0x20 PUSH1 0x4 DUP3 ADD MSTORE PUSH1 0x29 PUSH1 0x24 DUP3 ADD MSTORE PUSH32 0x4D6F64756C65583A616D6F756E74206D75737420626520677265617465722074 PUSH1 0x44 DUP3 ADD MSTORE PUSH9 0x68616E207A65726F21 PUSH1 0xB8 SHL PUSH1 0x64 DUP3 ADD MSTORE PUSH1 0x84 ADD PUSH2 0x3B8 JUMP JUMPDEST PUSH2 0xA92 PUSH32 0x0 PUSH1 0x1 PUSH1 0x1 PUSH1 0xA0 SHL SUB AND CALLER ADDRESS DUP5 PUSH2 0x11BF JUMP JUMPDEST PUSH1 0x40 MLOAD DUP2 DUP2 MSTORE PUSH32 0xDE88A922E0D3B88B24E9623EFEB464919C6BF9F66857A65E2BFCF2CE87A9433D SWAP1 PUSH1 0x20 ADD PUSH1 0x40 MLOAD DUP1 SWAP2 SUB SWAP1 LOG1 POP JUMP JUMPDEST PUSH0 PUSH0 PUSH0 PUSH0 DUP5 PUSH0 DUP2 GT DUP1 ISZERO PUSH2 0xADD JUMPI POP PUSH1 0x2 SLOAD DUP2 LT JUMPDEST PUSH2 0xB25 JUMPI PUSH1 0x40 MLOAD PUSH3 0x461BCD PUSH1 0xE5 SHL DUP2 MSTORE PUSH1 0x20 PUSH1 0x4 DUP3 ADD MSTORE PUSH1 0x19 PUSH1 0x24 DUP3 ADD MSTORE PUSH25 0x4D6F64756C65583A496E76616C6964205374616B6520494421 PUSH1 0x38 SHL PUSH1 0x44 DUP3 ADD MSTORE PUSH1 0x64 ADD PUSH2 0x3B8 JUMP JUMPDEST POP POP POP PUSH0 SWAP3 DUP4 MSTORE POP POP PUSH1 0x1 PUSH1 0x20 DUP2 SWAP1 MSTORE PUSH1 0x40 SWAP1 SWAP2 KECCAK256 DUP1 SLOAD SWAP2 DUP2 ADD SLOAD PUSH1 0x2 SWAP1 SWAP2 ADD SLOAD PUSH1 0x1 PUSH1 0x1 PUSH1 0xA0 SHL SUB DUP4 AND SWAP4 PUSH1 0x1 PUSH1 0xA0 SHL SWAP1 SWAP4 DIV PUSH1 0x1 PUSH1 0x1 PUSH1 0x60 SHL SUB AND SWAP3 JUMP JUMPDEST PUSH0 PUSH0 PUSH8 0xDE0B6B3A7640000 SWAP1 POP PUSH0 DUP4 PUSH1 0x3 SLOAD PUSH2 0xB81 SWAP2 SWAP1 PUSH2 0x13E8 JUMP JUMPDEST SWAP1 POP PUSH0 PUSH10 0x69E10DE76676D0800000 PUSH1 0x3 SLOAD PUSH2 0xB9C SWAP2 SWAP1 PUSH2 0x13C9 JUMP JUMPDEST SWAP1 POP PUSH0 PUSH2 0xBB3 PUSH10 0x69E10DE76676D0800000 DUP5 PUSH2 0x13C9 JUMP JUMPDEST SWAP1 POP DUP1 DUP3 SUB PUSH2 0xBDB JUMPI PUSH2 0xBC7 PUSH1 0xB DUP4 PUSH2 0x13E8 JUMP JUMPDEST PUSH2 0xBD1 SWAP1 DUP8 PUSH2 0x13C9 JUMP JUMPDEST SWAP7 SWAP6 POP POP POP POP POP POP JUMP JUMPDEST PUSH0 PUSH2 0xBE7 PUSH1 0xB DUP5 PUSH2 0x13E8 JUMP JUMPDEST PUSH1 0x3 SLOAD PUSH10 0x69E10DE76676D0800000 PUSH2 0xC00 DUP7 PUSH1 0x1 PUSH2 0x13E8 JUMP JUMPDEST PUSH2 0xC0A SWAP2 SWAP1 PUSH2 0x140F JUMP JUMPDEST PUSH2 0xC14 SWAP2 SWAP1 PUSH2 0x13B0 JUMP JUMPDEST PUSH2 0xC1E SWAP1 DUP8 PUSH2 0x140F JUMP JUMPDEST PUSH2 0xC28 SWAP2 SWAP1 PUSH2 0x13C9 JUMP JUMPDEST SWAP1 POP PUSH0 PUSH2 0xC36 PUSH1 0xB DUP5 PUSH2 0x13E8 JUMP JUMPDEST PUSH2 0xC4A PUSH10 0x69E10DE76676D0800000 DUP6 PUSH2 0x140F JUMP JUMPDEST PUSH2 0xC54 SWAP1 DUP8 PUSH2 0x13B0 JUMP JUMPDEST PUSH2 0xC5E SWAP1 DUP9 PUSH2 0x140F JUMP JUMPDEST PUSH2 0xC68 SWAP2 SWAP1 PUSH2 0x13C9 JUMP JUMPDEST SWAP1 POP PUSH0 DUP1 PUSH2 0xC77 DUP7 PUSH1 0x1 PUSH2 0x13E8 JUMP JUMPDEST SWAP1 POP JUMPDEST DUP5 DUP2 LT ISZERO PUSH2 0xCBF JUMPI PUSH2 0xC8D PUSH1 0xB DUP3 PUSH2 0x13E8 JUMP JUMPDEST PUSH2 0xCA1 PUSH10 0x69E10DE76676D0800000 DUP11 PUSH2 0x140F JUMP JUMPDEST PUSH2 0xCAB SWAP2 SWAP1 PUSH2 0x13C9 JUMP JUMPDEST PUSH2 0xCB5 SWAP1 DUP4 PUSH2 0x13E8 JUMP JUMPDEST SWAP2 POP PUSH1 0x1 ADD PUSH2 0xC7A JUMP JUMPDEST POP DUP7 DUP3 PUSH2 0xCCC DUP4 DUP7 PUSH2 0x13E8 JUMP JUMPDEST PUSH2 0xCD6 SWAP2 SWAP1 PUSH2 0x13E8 JUMP JUMPDEST PUSH2 0xCE0 SWAP2 SWAP1 PUSH2 0x13C9 JUMP JUMPDEST SWAP10 SWAP9 POP POP POP POP POP POP POP POP POP JUMP JUMPDEST PUSH2 0xCF5 PUSH2 0x1137 JUMP JUMPDEST PUSH1 0x4 SLOAD PUSH2 0xD02 SWAP1 DUP3 PUSH2 0x13E8 JUMP JUMPDEST PUSH1 0x40 MLOAD PUSH4 0x70A08231 PUSH1 0xE0 SHL DUP2 MSTORE ADDRESS PUSH1 0x4 DUP3 ADD MSTORE PUSH32 0x0 PUSH1 0x1 PUSH1 0x1 PUSH1 0xA0 SHL SUB AND SWAP1 PUSH4 0x70A08231 SWAP1 PUSH1 0x24 ADD PUSH1 0x20 PUSH1 0x40 MLOAD DUP1 DUP4 SUB DUP2 DUP7 GAS STATICCALL ISZERO DUP1 ISZERO PUSH2 0xD64 JUMPI RETURNDATASIZE PUSH0 PUSH0 RETURNDATACOPY RETURNDATASIZE PUSH0 REVERT JUMPDEST POP POP POP POP PUSH1 0x40 MLOAD RETURNDATASIZE PUSH1 0x1F NOT PUSH1 0x1F DUP3 ADD AND DUP3 ADD DUP1 PUSH1 0x40 MSTORE POP DUP2 ADD SWAP1 PUSH2 0xD88 SWAP2 SWAP1 PUSH2 0x1426 JUMP JUMPDEST LT ISZERO PUSH2 0xDD6 JUMPI PUSH1 0x40 MLOAD PUSH3 0x461BCD PUSH1 0xE5 SHL DUP2 MSTORE PUSH1 0x20 PUSH1 0x4 DUP3 ADD MSTORE PUSH1 0x1D PUSH1 0x24 DUP3 ADD MSTORE PUSH32 0x4D6F64756C65583A496E73756666696369656E742062616C616E636521000000 PUSH1 0x44 DUP3 ADD MSTORE PUSH1 0x64 ADD PUSH2 0x3B8 JUMP JUMPDEST PUSH2 0xE0A PUSH1 0x1 PUSH1 0x1 PUSH1 0xA0 SHL SUB PUSH32 0x0 AND DUP4 DUP4 PUSH2 0x10C3 JUMP JUMPDEST DUP2 PUSH1 0x1 PUSH1 0x1 PUSH1 0xA0 SHL SUB AND PUSH32 0x1D3EEE4CA001CFF39EEC6EC7615AACF2F2BD61791273830728BA00CCBD6E1337 DUP3 PUSH1 0x40 MLOAD PUSH2 0xE45 SWAP2 DUP2 MSTORE PUSH1 0x20 ADD SWAP1 JUMP JUMPDEST PUSH1 0x40 MLOAD DUP1 SWAP2 SUB SWAP1 LOG2 POP POP JUMP JUMPDEST PUSH0 PUSH0 PUSH0 DUP4 GT PUSH2 0xEB7 JUMPI PUSH1 0x40 MLOAD PUSH3 0x461BCD PUSH1 0xE5 SHL DUP2 MSTORE PUSH1 0x20 PUSH1 0x4 DUP3 ADD MSTORE PUSH1 0x2C PUSH1 0x24 DUP3 ADD MSTORE PUSH32 0x4D6F64756C65583A5374616B6520616D6F756E74206D75737420626520677265 PUSH1 0x44 DUP3 ADD MSTORE PUSH12 0x61746572207468616E203021 PUSH1 0xA0 SHL PUSH1 0x64 DUP3 ADD MSTORE PUSH1 0x84 ADD PUSH2 0x3B8 JUMP JUMPDEST PUSH2 0x2A30 PUSH1 0x1 PUSH1 0x1 PUSH1 0x60 SHL SUB DUP6 AND LT ISZERO PUSH2 0xF12 JUMPI PUSH1 0x40 MLOAD PUSH3 0x461BCD PUSH1 0xE5 SHL DUP2 MSTORE PUSH1 0x20 PUSH1 0x4 DUP3 ADD MSTORE PUSH1 0x1F PUSH1 0x24 DUP3 ADD MSTORE PUSH32 0x4D6F64756C65583A557365206C6F6E676572206C6F636B5F706572696F642100 PUSH1 0x44 DUP3 ADD MSTORE PUSH1 0x64 ADD PUSH2 0x3B8 JUMP JUMPDEST PUSH2 0xF47 PUSH32 0x0 PUSH1 0x1 PUSH1 0x1 PUSH1 0xA0 SHL SUB AND CALLER ADDRESS DUP7 PUSH2 0x11BF JUMP JUMPDEST PUSH0 PUSH2 0xF52 DUP6 TIMESTAMP PUSH2 0x143D JUMP JUMPDEST SWAP1 POP PUSH0 PUSH2 0xF5E DUP6 PUSH2 0xB65 JUMP JUMPDEST SWAP1 POP PUSH0 PUSH1 0x2 SLOAD SWAP1 POP PUSH1 0x40 MLOAD DUP1 PUSH1 0x80 ADD PUSH1 0x40 MSTORE DUP1 PUSH2 0xF78 CALLER SWAP1 JUMP JUMPDEST PUSH1 0x1 PUSH1 0x1 PUSH1 0xA0 SHL SUB SWAP1 DUP2 AND DUP3 MSTORE PUSH1 0x1 PUSH1 0x1 PUSH1 0x60 SHL SUB DUP7 DUP2 AND PUSH1 0x20 DUP1 DUP6 ADD SWAP2 SWAP1 SWAP2 MSTORE PUSH1 0x40 DUP1 DUP6 ADD DUP13 SWAP1 MSTORE PUSH1 0x60 SWAP5 DUP6 ADD DUP9 SWAP1 MSTORE PUSH0 DUP8 DUP2 MSTORE PUSH1 0x1 DUP1 DUP5 MSTORE DUP3 DUP3 KECCAK256 DUP9 MLOAD SWAP5 DUP10 ADD MLOAD SWAP5 SWAP1 SWAP7 AND PUSH1 0x1 PUSH1 0xA0 SHL SWAP5 SWAP1 SWAP6 AND SWAP4 SWAP1 SWAP4 MUL SWAP4 SWAP1 SWAP4 OR DUP5 SSTORE DUP6 ADD MLOAD SWAP1 DUP4 ADD SSTORE SWAP3 SWAP1 SWAP2 ADD MLOAD PUSH1 0x2 SWAP1 SWAP2 ADD SSTORE PUSH1 0x3 DUP1 SLOAD DUP9 SWAP3 SWAP1 PUSH2 0xFF6 SWAP1 DUP5 SWAP1 PUSH2 0x13E8 JUMP JUMPDEST SWAP3 POP POP DUP2 SWAP1 SSTORE POP DUP2 PUSH1 0x4 PUSH0 DUP3 DUP3 SLOAD PUSH2 0x100E SWAP2 SWAP1 PUSH2 0x13E8 JUMP JUMPDEST SWAP1 SWAP2 SSTORE POP POP PUSH1 0x40 DUP1 MLOAD DUP3 DUP2 MSTORE PUSH1 0x1 PUSH1 0x1 PUSH1 0x60 SHL SUB DUP6 AND PUSH1 0x20 DUP3 ADD MSTORE DUP1 DUP3 ADD DUP9 SWAP1 MSTORE PUSH1 0x60 DUP2 ADD DUP5 SWAP1 MSTORE SWAP1 MLOAD CALLER SWAP2 PUSH32 0x24FE2D25C10EB2C67B5AC1E3EDBCADC94191E154ED388AD667A9480C44F47146 SWAP2 SWAP1 DUP2 SWAP1 SUB PUSH1 0x80 ADD SWAP1 LOG2 PUSH1 0x2 DUP1 SLOAD SWAP1 PUSH0 PUSH2 0x1074 DUP4 PUSH2 0x145C JUMP JUMPDEST SWAP1 SWAP2 SSTORE POP SWAP1 SWAP8 SWAP2 SWAP7 POP SWAP1 SWAP5 POP POP POP POP POP JUMP JUMPDEST PUSH2 0x108E PUSH2 0x1137 JUMP JUMPDEST PUSH1 0x1 PUSH1 0x1 PUSH1 0xA0 SHL SUB DUP2 AND PUSH2 0x10B7 JUMPI PUSH1 0x40 MLOAD PUSH4 0x1E4FBDF7 PUSH1 0xE0 SHL DUP2 MSTORE PUSH0 PUSH1 0x4 DUP3 ADD MSTORE PUSH1 0x24 ADD PUSH2 0x3B8 JUMP JUMPDEST PUSH2 0x10C0 DUP2 PUSH2 0x1163 JUMP JUMPDEST POP JUMP JUMPDEST PUSH1 0x40 MLOAD PUSH1 0x1 PUSH1 0x1 PUSH1 0xA0 SHL SUB DUP4 DUP2 AND PUSH1 0x24 DUP4 ADD MSTORE PUSH1 0x44 DUP3 ADD DUP4 SWAP1 MSTORE PUSH2 0x9F7 SWAP2 DUP6 SWAP2 DUP3 AND SWAP1 PUSH4 0xA9059CBB SWAP1 PUSH1 0x64 ADD JUMPDEST PUSH1 0x40 MLOAD PUSH1 0x20 DUP2 DUP4 SUB SUB DUP2 MSTORE SWAP1 PUSH1 0x40 MSTORE SWAP2 POP PUSH1 0xE0 SHL PUSH1 0x20 DUP3 ADD DUP1 MLOAD PUSH28 0xFFFFFFFFFFFFFFFFFFFFFFFFFFFFFFFFFFFFFFFFFFFFFFFFFFFFFFFF DUP4 DUP2 DUP4 AND OR DUP4 MSTORE POP POP POP POP PUSH2 0x11FE JUMP JUMPDEST PUSH0 SLOAD PUSH1 0x1 PUSH1 0x1 PUSH1 0xA0 SHL SUB AND CALLER EQ PUSH2 0x598 JUMPI PUSH1 0x40 MLOAD PUSH4 0x118CDAA7 PUSH1 0xE0 SHL DUP2 MSTORE CALLER PUSH1 0x4 DUP3 ADD MSTORE PUSH1 0x24 ADD PUSH2 0x3B8 JUMP JUMPDEST PUSH0 DUP1 SLOAD PUSH1 0x1 PUSH1 0x1 PUSH1 0xA0 SHL SUB DUP4 DUP2 AND PUSH20 0xFFFFFFFFFFFFFFFFFFFFFFFFFFFFFFFFFFFFFFFF NOT DUP4 AND DUP2 OR DUP5 SSTORE PUSH1 0x40 MLOAD SWAP2 SWAP1 SWAP3 AND SWAP3 DUP4 SWAP2 PUSH32 0x8BE0079C531659141344CD1FD0A4F28419497F9722A3DAAFE3B4186F6B6457E0 SWAP2 SWAP1 LOG3 POP POP JUMP JUMPDEST PUSH1 0x40 MLOAD PUSH1 0x1 PUSH1 0x1 PUSH1 0xA0 SHL SUB DUP5 DUP2 AND PUSH1 0x24 DUP4 ADD MSTORE DUP4 DUP2 AND PUSH1 0x44 DUP4 ADD MSTORE PUSH1 0x64 DUP3 ADD DUP4 SWAP1 MSTORE PUSH2 0x11F8 SWAP2 DUP7 SWAP2 DUP3 AND SWAP1 PUSH4 0x23B872DD SWAP1 PUSH1 0x84 ADD PUSH2 0x10F0 JUMP JUMPDEST POP POP POP POP JUMP JUMPDEST PUSH0 PUSH0 PUSH1 0x20 PUSH0 DUP5 MLOAD PUSH1 0x20 DUP7 ADD PUSH0 DUP9 GAS CALL DUP1 PUSH2 0x121D JUMPI PUSH1 0x40 MLOAD RETURNDATASIZE PUSH0 DUP3 RETURNDATACOPY RETURNDATASIZE DUP2 REVERT JUMPDEST POP POP PUSH0 MLOAD RETURNDATASIZE SWAP2 POP DUP2 ISZERO PUSH2 0x1234 JUMPI DUP1 PUSH1 0x1 EQ ISZERO PUSH2 0x1241 JUMP JUMPDEST PUSH1 0x1 PUSH1 0x1 PUSH1 0xA0 SHL SUB DUP5 AND EXTCODESIZE ISZERO JUMPDEST ISZERO PUSH2 0x11F8 JUMPI PUSH1 0x40 MLOAD PUSH4 0x5274AFE7 PUSH1 0xE0 SHL DUP2 MSTORE PUSH1 0x1 PUSH1 0x1 PUSH1 0xA0 SHL SUB DUP6 AND PUSH1 0x4 DUP3 ADD MSTORE PUSH1 0x24 ADD PUSH2 0x3B8 JUMP JUMPDEST PUSH0 PUSH1 0x20 DUP3 DUP5 SUB SLT ISZERO PUSH2 0x127A JUMPI PUSH0 PUSH0 REVERT JUMPDEST POP CALLDATALOAD SWAP2 SWAP1 POP JUMP JUMPDEST PUSH0 PUSH0 PUSH1 0x40 DUP4 DUP6 SUB SLT ISZERO PUSH2 0x1292 JUMPI PUSH0 PUSH0 REVERT JUMPDEST POP POP DUP1 CALLDATALOAD SWAP3 PUSH1 0x20 SWAP1 SWAP2 ADD CALLDATALOAD SWAP2 POP JUMP JUMPDEST PUSH0 PUSH0 PUSH1 0x20 DUP4 DUP6 SUB SLT ISZERO PUSH2 0x12B2 JUMPI PUSH0 PUSH0 REVERT JUMPDEST DUP3 CALLDATALOAD PUSH8 0xFFFFFFFFFFFFFFFF DUP2 GT ISZERO PUSH2 0x12C8 JUMPI PUSH0 PUSH0 REVERT JUMPDEST DUP4 ADD PUSH1 0x1F DUP2 ADD DUP6 SGT PUSH2 0x12D8 JUMPI PUSH0 PUSH0 REVERT JUMPDEST DUP1 CALLDATALOAD PUSH8 0xFFFFFFFFFFFFFFFF DUP2 GT ISZERO PUSH2 0x12EE JUMPI PUSH0 PUSH0 REVERT JUMPDEST DUP6 PUSH1 0x20 DUP3 PUSH1 0x5 SHL DUP5 ADD ADD GT ISZERO PUSH2 0x1302 JUMPI PUSH0 PUSH0 REVERT JUMPDEST PUSH1 0x20 SWAP2 SWAP1 SWAP2 ADD SWAP6 SWAP1 SWAP5 POP SWAP3 POP POP POP JUMP JUMPDEST DUP1 CALLDATALOAD PUSH1 0x1 PUSH1 0x1 PUSH1 0xA0 SHL SUB DUP2 AND DUP2 EQ PUSH2 0x1328 JUMPI PUSH0 PUSH0 REVERT JUMPDEST SWAP2 SWAP1 POP JUMP JUMPDEST PUSH0 PUSH0 PUSH1 0x40 DUP4 DUP6 SUB SLT ISZERO PUSH2 0x133E JUMPI PUSH0 PUSH0 REVERT JUMPDEST PUSH2 0x1347 DUP4 PUSH2 0x1312 JUMP JUMPDEST SWAP5 PUSH1 0x20 SWAP4 SWAP1 SWAP4 ADD CALLDATALOAD SWAP4 POP POP POP JUMP JUMPDEST PUSH0 PUSH0 PUSH1 0x40 DUP4 DUP6 SUB SLT ISZERO PUSH2 0x1366 JUMPI PUSH0 PUSH0 REVERT JUMPDEST DUP3 CALLDATALOAD PUSH1 0x1 PUSH1 0x1 PUSH1 0x60 SHL SUB DUP2 AND DUP2 EQ PUSH2 0x1347 JUMPI PUSH0 PUSH0 REVERT JUMPDEST PUSH0 PUSH1 0x20 DUP3 DUP5 SUB SLT ISZERO PUSH2 0x138C JUMPI PUSH0 PUSH0 REVERT JUMPDEST PUSH2 0x1395 DUP3 PUSH2 0x1312 JUMP JUMPDEST SWAP4 SWAP3 POP POP POP JUMP JUMPDEST PUSH4 0x4E487B71 PUSH1 0xE0 SHL PUSH0 MSTORE PUSH1 0x11 PUSH1 0x4 MSTORE PUSH1 0x24 PUSH0 REVERT JUMPDEST DUP2 DUP2 SUB DUP2 DUP2 GT ISZERO PUSH2 0x13C3 JUMPI PUSH2 0x13C3 PUSH2 0x139C JUMP JUMPDEST SWAP3 SWAP2 POP POP JUMP JUMPDEST PUSH0 DUP3 PUSH2 0x13E3 JUMPI PUSH4 0x4E487B71 PUSH1 0xE0 SHL PUSH0 MSTORE PUSH1 0x12 PUSH1 0x4 MSTORE PUSH1 0x24 PUSH0 REVERT JUMPDEST POP DIV SWAP1 JUMP JUMPDEST DUP1 DUP3 ADD DUP1 DUP3 GT ISZERO PUSH2 0x13C3 JUMPI PUSH2 0x13C3 PUSH2 0x139C JUMP JUMPDEST PUSH4 0x4E487B71 PUSH1 0xE0 SHL PUSH0 MSTORE PUSH1 0x32 PUSH1 0x4 MSTORE PUSH1 0x24 PUSH0 REVERT JUMPDEST DUP1 DUP3 MUL DUP2 ISZERO DUP3 DUP3 DIV DUP5 EQ OR PUSH2 0x13C3 JUMPI PUSH2 0x13C3 PUSH2 0x139C JUMP JUMPDEST PUSH0 PUSH1 0x20 DUP3 DUP5 SUB SLT ISZERO PUSH2 0x1436 JUMPI PUSH0 PUSH0 REVERT JUMPDEST POP MLOAD SWAP2 SWAP1 POP JUMP JUMPDEST PUSH1 0x1 PUSH1 0x1 PUSH1 0x60 SHL SUB DUP2 DUP2 AND DUP4 DUP3 AND ADD SWAP1 DUP2 GT ISZERO PUSH2 0x13C3 JUMPI PUSH2 0x13C3 PUSH2 0x139C JUMP JUMPDEST PUSH0 PUSH1 0x1 DUP3 ADD PUSH2 0x146D JUMPI PUSH2 0x146D PUSH2 0x139C JUMP JUMPDEST POP PUSH1 0x1 ADD SWAP1 JUMP INVALID LOG2 PUSH5 0x6970667358 0x22 SLT KECCAK256 SWAP1 PUSH23 0x88C842296BEB3D759F6B8AABCA99F354693326AE041CED NUMBER SHR CALLDATACOPY SWAP13 PUSH21 0x726F64736F6C634300081E00330000000000000000 "
				},
				"gasEstimates": {
					"creation": {
						"codeDepositCost": "1058000",
						"executionCost": "infinite",
						"totalCost": "infinite"
					},
					"external": {
						"CREDI()": "infinite",
						"DIFFICULTY_INTERVAL()": "207",
						"MATURITY()": "260",
						"addRewards(uint256)": "infinite",
						"batchWithdrawCREDI(uint256[])": "infinite",
						"calculateReward(uint256)": "infinite",
						"claim(uint256)": "infinite",
						"getCREDIAddress()": "infinite",
						"getDifficulty()": "2509",
						"getStake(uint256)": "9039",
						"getStakesCount()": "2425",
						"getxCREDIAddress()": "infinite",
						"owner()": "2352",
						"pending_payments()": "2350",
						"renounceOwnership()": "infinite",
						"stake(uint96,uint256)": "infinite",
						"total_staked()": "2394",
						"transferOwnership(address)": "28405",
						"withdrawCREDI(uint256,uint256)": "infinite",
						"withdrawRewards(address,uint256)": "infinite",
						"xCREDI()": "infinite"
					},
					"internal": {
						"time_now()": "infinite"
					}
				},
				"methodIdentifiers": {
					"CREDI()": "6db08f25",
					"DIFFICULTY_INTERVAL()": "109cf399",
					"MATURITY()": "8e12c0cd",
					"addRewards(uint256)": "beceed39",
					"batchWithdrawCREDI(uint256[])": "bc854352",
					"calculateReward(uint256)": "d2d7231f",
					"claim(uint256)": "379607f5",
					"getCREDIAddress()": "d46149a2",
					"getDifficulty()": "b6baffe3",
					"getStake(uint256)": "ce325bf8",
					"getStakesCount()": "b5fa91fe",
					"getxCREDIAddress()": "7c2fdeb5",
					"owner()": "8da5cb5b",
					"pending_payments()": "8f4729b7",
					"renounceOwnership()": "715018a6",
					"stake(uint96,uint256)": "d93c04a0",
					"total_staked()": "af7568dd",
					"transferOwnership(address)": "f2fde38b",
					"withdrawCREDI(uint256,uint256)": "ac00500f",
					"withdrawRewards(address,uint256)": "d6ef7af0",
					"xCREDI()": "b109beec"
				}
			},
			"storageLayout": {
				"storage": [
					{
						"astId": 8,
						"contract": "contracts/ModuleX.sol:ModuleX",
						"label": "_owner",
						"offset": 0,
						"slot": "0",
						"type": "t_address"
					},
					{
						"astId": 868,
						"contract": "contracts/ModuleX.sol:ModuleX",
						"label": "stakes",
						"offset": 0,
						"slot": "1",
						"type": "t_mapping(t_uint256,t_struct(StakeDetails)844_storage)"
					},
					{
						"astId": 871,
						"contract": "contracts/ModuleX.sol:ModuleX",
						"label": "stakes_count",
						"offset": 0,
						"slot": "2",
						"type": "t_uint256"
					},
					{
						"astId": 874,
						"contract": "contracts/ModuleX.sol:ModuleX",
						"label": "total_staked",
						"offset": 0,
						"slot": "3",
						"type": "t_uint256"
					},
					{
						"astId": 877,
						"contract": "contracts/ModuleX.sol:ModuleX",
						"label": "pending_payments",
						"offset": 0,
						"slot": "4",
						"type": "t_uint256"
					}
				],
				"types": {
					"t_address": {
						"encoding": "inplace",
						"label": "address",
						"numberOfBytes": "20"
					},
					"t_mapping(t_uint256,t_struct(StakeDetails)844_storage)": {
						"encoding": "mapping",
						"key": "t_uint256",
						"label": "mapping(uint256 => struct ModuleX.StakeDetails)",
						"numberOfBytes": "32",
						"value": "t_struct(StakeDetails)844_storage"
					},
					"t_struct(StakeDetails)844_storage": {
						"encoding": "inplace",
						"label": "struct ModuleX.StakeDetails",
						"members": [
							{
								"astId": 837,
								"contract": "contracts/ModuleX.sol:ModuleX",
								"label": "owner",
								"offset": 0,
								"slot": "0",
								"type": "t_address"
							},
							{
								"astId": 839,
								"contract": "contracts/ModuleX.sol:ModuleX",
								"label": "maturity",
								"offset": 20,
								"slot": "0",
								"type": "t_uint96"
							},
							{
								"astId": 841,
								"contract": "contracts/ModuleX.sol:ModuleX",
								"label": "stake_amount",
								"offset": 0,
								"slot": "1",
								"type": "t_uint256"
							},
							{
								"astId": 843,
								"contract": "contracts/ModuleX.sol:ModuleX",
								"label": "reward_amount",
								"offset": 0,
								"slot": "2",
								"type": "t_uint256"
							}
						],
						"numberOfBytes": "96"
					},
					"t_uint256": {
						"encoding": "inplace",
						"label": "uint256",
						"numberOfBytes": "32"
					},
					"t_uint96": {
						"encoding": "inplace",
						"label": "uint96",
						"numberOfBytes": "12"
					}
				}
			},
			"userdoc": {
				"kind": "user",
				"methods": {},
				"version": 1
			}
		}
	}
}