{
	"contracts/ModuleX.sol": {
		"ModuleX": {
			"abi": [
				{
					"inputs": [
						{
							"internalType": "address",
							"name": "_credi_addr",
							"type": "address"
						},
						{
							"internalType": "address",
							"name": "_xcredi_addr",
							"type": "address"
						}
					],
					"stateMutability": "nonpayable",
					"type": "constructor"
				},
				{
					"inputs": [
						{
							"internalType": "address",
							"name": "owner",
							"type": "address"
						}
					],
					"name": "OwnableInvalidOwner",
					"type": "error"
				},
				{
					"inputs": [
						{
							"internalType": "address",
							"name": "account",
							"type": "address"
						}
					],
					"name": "OwnableUnauthorizedAccount",
					"type": "error"
				},
				{
					"inputs": [
						{
							"internalType": "address",
							"name": "token",
							"type": "address"
						}
					],
					"name": "SafeERC20FailedOperation",
					"type": "error"
				},
				{
					"anonymous": false,
					"inputs": [
						{
							"indexed": false,
							"internalType": "uint256",
							"name": "stake_id",
							"type": "uint256"
						},
						{
							"indexed": false,
							"internalType": "uint256",
							"name": "amount",
							"type": "uint256"
						}
					],
					"name": "CREDIWithdrawn",
					"type": "event"
				},
				{
					"anonymous": false,
					"inputs": [
						{
							"indexed": true,
							"internalType": "address",
							"name": "previousOwner",
							"type": "address"
						},
						{
							"indexed": true,
							"internalType": "address",
							"name": "newOwner",
							"type": "address"
						}
					],
					"name": "OwnershipTransferred",
					"type": "event"
				},
				{
					"anonymous": false,
					"inputs": [
						{
							"indexed": false,
							"internalType": "uint256",
							"name": "amount",
							"type": "uint256"
						}
					],
					"name": "RewardAdded",
					"type": "event"
				},
				{
					"anonymous": false,
					"inputs": [
						{
							"indexed": false,
							"internalType": "uint256",
							"name": "stake_id",
							"type": "uint256"
						}
					],
					"name": "RewardPaid",
					"type": "event"
				},
				{
					"anonymous": false,
					"inputs": [
						{
							"indexed": true,
							"internalType": "address",
							"name": "to",
							"type": "address"
						},
						{
							"indexed": false,
							"internalType": "uint256",
							"name": "amount",
							"type": "uint256"
						}
					],
					"name": "RewardWithdrawn",
					"type": "event"
				},
				{
					"anonymous": false,
					"inputs": [
						{
							"indexed": true,
							"internalType": "address",
							"name": "user",
							"type": "address"
						},
						{
							"indexed": false,
							"internalType": "uint256",
							"name": "stake_id",
							"type": "uint256"
						},
						{
							"indexed": false,
							"internalType": "uint96",
							"name": "maturity",
							"type": "uint96"
						},
						{
							"indexed": false,
							"internalType": "uint256",
							"name": "stake_amount",
							"type": "uint256"
						},
						{
							"indexed": false,
							"internalType": "uint256",
							"name": "rewards_amount",
							"type": "uint256"
						}
					],
					"name": "Staked",
					"type": "event"
				},
				{
					"inputs": [],
					"name": "CREDI",
					"outputs": [
						{
							"internalType": "contract IERC20",
							"name": "",
							"type": "address"
						}
					],
					"stateMutability": "view",
					"type": "function"
				},
				{
					"inputs": [],
					"name": "DIFFICULTY",
					"outputs": [
						{
							"internalType": "uint256",
							"name": "",
							"type": "uint256"
						}
					],
					"stateMutability": "view",
					"type": "function"
				},
				{
					"inputs": [],
					"name": "DIFFICULTY_INTERVAL",
					"outputs": [
						{
							"internalType": "uint256",
							"name": "",
							"type": "uint256"
						}
					],
					"stateMutability": "view",
					"type": "function"
				},
				{
					"inputs": [],
					"name": "MATURITY",
					"outputs": [
						{
							"internalType": "uint96",
							"name": "",
							"type": "uint96"
						}
					],
					"stateMutability": "view",
					"type": "function"
				},
				{
					"inputs": [
						{
							"internalType": "uint256",
							"name": "amount",
							"type": "uint256"
						}
					],
					"name": "addRewards",
					"outputs": [],
					"stateMutability": "nonpayable",
					"type": "function"
				},
				{
					"inputs": [
						{
							"internalType": "uint256[]",
							"name": "stake_ids",
							"type": "uint256[]"
						}
					],
					"name": "batchWithdrawCREDI",
					"outputs": [],
					"stateMutability": "nonpayable",
					"type": "function"
				},
				{
					"inputs": [
						{
							"internalType": "uint256",
							"name": "stake_amount",
							"type": "uint256"
						}
					],
					"name": "calculateReward",
					"outputs": [
						{
							"internalType": "uint256",
							"name": "",
							"type": "uint256"
						}
					],
					"stateMutability": "view",
					"type": "function"
				},
				{
					"inputs": [
						{
							"internalType": "uint256",
							"name": "stake_id",
							"type": "uint256"
						}
					],
					"name": "claim",
					"outputs": [
						{
							"internalType": "uint256",
							"name": "",
							"type": "uint256"
						}
					],
					"stateMutability": "nonpayable",
					"type": "function"
				},
				{
					"inputs": [],
					"name": "getCREDIAddress",
					"outputs": [
						{
							"internalType": "address",
							"name": "",
							"type": "address"
						}
					],
					"stateMutability": "view",
					"type": "function"
				},
				{
					"inputs": [
						{
							"internalType": "uint256",
							"name": "stake_id",
							"type": "uint256"
						}
					],
					"name": "getStake",
					"outputs": [
						{
							"internalType": "address",
							"name": "owner",
							"type": "address"
						},
						{
							"internalType": "uint256",
							"name": "maturity",
							"type": "uint256"
						},
						{
							"internalType": "uint256",
							"name": "stake_amount",
							"type": "uint256"
						},
						{
							"internalType": "uint256",
							"name": "reward_amount",
							"type": "uint256"
						}
					],
					"stateMutability": "view",
					"type": "function"
				},
				{
					"inputs": [],
					"name": "getStakesCount",
					"outputs": [
						{
							"internalType": "uint256",
							"name": "",
							"type": "uint256"
						}
					],
					"stateMutability": "view",
					"type": "function"
				},
				{
					"inputs": [],
					"name": "getxCREDIAddress",
					"outputs": [
						{
							"internalType": "address",
							"name": "",
							"type": "address"
						}
					],
					"stateMutability": "view",
					"type": "function"
				},
				{
					"inputs": [],
					"name": "owner",
					"outputs": [
						{
							"internalType": "address",
							"name": "",
							"type": "address"
						}
					],
					"stateMutability": "view",
					"type": "function"
				},
				{
					"inputs": [],
					"name": "pending_payments",
					"outputs": [
						{
							"internalType": "uint256",
							"name": "",
							"type": "uint256"
						}
					],
					"stateMutability": "view",
					"type": "function"
				},
				{
					"inputs": [],
					"name": "renounceOwnership",
					"outputs": [],
					"stateMutability": "nonpayable",
					"type": "function"
				},
				{
					"inputs": [
						{
							"internalType": "uint96",
							"name": "lock_period",
							"type": "uint96"
						},
						{
							"internalType": "uint256",
							"name": "stake_amount",
							"type": "uint256"
						}
					],
					"name": "stake",
					"outputs": [
						{
							"internalType": "uint256",
							"name": "",
							"type": "uint256"
						},
						{
							"internalType": "uint256",
							"name": "",
							"type": "uint256"
						}
					],
					"stateMutability": "nonpayable",
					"type": "function"
				},
				{
					"inputs": [],
					"name": "total_staked",
					"outputs": [
						{
							"internalType": "uint256",
							"name": "",
							"type": "uint256"
						}
					],
					"stateMutability": "view",
					"type": "function"
				},
				{
					"inputs": [
						{
							"internalType": "address",
							"name": "newOwner",
							"type": "address"
						}
					],
					"name": "transferOwnership",
					"outputs": [],
					"stateMutability": "nonpayable",
					"type": "function"
				},
				{
					"inputs": [
						{
							"internalType": "uint256",
							"name": "stake_id",
							"type": "uint256"
						},
						{
							"internalType": "uint256",
							"name": "amount",
							"type": "uint256"
						}
					],
					"name": "withdrawCREDI",
					"outputs": [],
					"stateMutability": "nonpayable",
					"type": "function"
				},
				{
					"inputs": [
						{
							"internalType": "address",
							"name": "to",
							"type": "address"
						},
						{
							"internalType": "uint256",
							"name": "amount",
							"type": "uint256"
						}
					],
					"name": "withdrawRewards",
					"outputs": [],
					"stateMutability": "nonpayable",
					"type": "function"
				},
				{
					"inputs": [],
					"name": "xCREDI",
					"outputs": [
						{
							"internalType": "contract IERC20",
							"name": "",
							"type": "address"
						}
					],
					"stateMutability": "view",
					"type": "function"
				}
			],
			"devdoc": {
				"errors": {
					"OwnableInvalidOwner(address)": [
						{
							"details": "The owner is not a valid owner account. (eg. `address(0)`)"
						}
					],
					"OwnableUnauthorizedAccount(address)": [
						{
							"details": "The caller account is not authorized to perform an operation."
						}
					],
					"SafeERC20FailedOperation(address)": [
						{
							"details": "An operation with an ERC-20 token failed."
						}
					]
				},
				"kind": "dev",
				"methods": {
					"owner()": {
						"details": "Returns the address of the current owner."
					},
					"renounceOwnership()": {
						"details": "Leaves the contract without owner. It will not be possible to call `onlyOwner` functions. Can only be called by the current owner. NOTE: Renouncing ownership will leave the contract without an owner, thereby disabling any functionality that is only available to the owner."
					},
					"transferOwnership(address)": {
						"details": "Transfers ownership of the contract to a new account (`newOwner`). Can only be called by the current owner."
					}
				},
				"version": 1
			},
			"evm": {
				"assembly": "    /* \"contracts/ModuleX.sol\":278:6902  contract ModuleX is IModuleX, Ownable ... */\n  mstore(0x40, 0xc0)\n    /* \"contracts/ModuleX.sol\":975:976  1 */\n  0x01\n    /* \"contracts/ModuleX.sol\":947:976  uint private stakes_count = 1 */\n  0x02\n  sstore\n    /* \"contracts/ModuleX.sol\":1010:1011  0 */\n  0x00\n    /* \"contracts/ModuleX.sol\":983:1011  uint public total_staked = 0 */\n  0x03\n  sstore\n    /* \"contracts/ModuleX.sol\":1049:1050  0 */\n  0x00\n    /* \"contracts/ModuleX.sol\":1018:1050  uint public pending_payments = 0 */\n  0x04\n  sstore\n    /* \"contracts/ModuleX.sol\":1526:1695  constructor(address _credi_addr, address _xcredi_addr) Ownable(_msgSender())... */\n  callvalue\n  dup1\n  iszero\n  tag_1\n  jumpi\n  revert(0x00, 0x00)\ntag_1:\n  pop\n  mload(0x40)\n  sub(codesize, bytecodeSize)\n  dup1\n  bytecodeSize\n  dup4\n  codecopy\n  dup2\n  dup2\n  add\n  0x40\n  mstore\n  dup2\n  add\n  swap1\n  tag_2\n  swap2\n  swap1\n  tag_3\n  jump\t// in\ntag_2:\n    /* \"contracts/ModuleX.sol\":1589:1601  _msgSender() */\n  tag_5\n    /* \"contracts/ModuleX.sol\":1589:1599  _msgSender */\n  shl(0x20, tag_6)\n    /* \"contracts/ModuleX.sol\":1589:1601  _msgSender() */\n  0x20\n  shr\n  jump\t// in\ntag_5:\n    /* \"@openzeppelin/contracts/access/Ownable.sol\":1297:1298  0 */\n  0x00\n    /* \"@openzeppelin/contracts/access/Ownable.sol\":1273:1299  initialOwner == address(0) */\n  0xffffffffffffffffffffffffffffffffffffffff\n  and\n    /* \"@openzeppelin/contracts/access/Ownable.sol\":1273:1285  initialOwner */\n  dup2\n    /* \"@openzeppelin/contracts/access/Ownable.sol\":1273:1299  initialOwner == address(0) */\n  0xffffffffffffffffffffffffffffffffffffffff\n  and\n  sub\n    /* \"@openzeppelin/contracts/access/Ownable.sol\":1269:1364  if (initialOwner == address(0)) {... */\n  tag_9\n  jumpi\n    /* \"@openzeppelin/contracts/access/Ownable.sol\":1350:1351  0 */\n  0x00\n    /* \"@openzeppelin/contracts/access/Ownable.sol\":1322:1353  OwnableInvalidOwner(address(0)) */\n  mload(0x40)\n  0x1e4fbdf700000000000000000000000000000000000000000000000000000000\n  dup2\n  mstore\n  0x04\n  add\n  tag_10\n  swap2\n  swap1\n  tag_11\n  jump\t// in\ntag_10:\n  mload(0x40)\n  dup1\n  swap2\n  sub\n  swap1\n  revert\n    /* \"@openzeppelin/contracts/access/Ownable.sol\":1269:1364  if (initialOwner == address(0)) {... */\ntag_9:\n    /* \"@openzeppelin/contracts/access/Ownable.sol\":1373:1405  _transferOwnership(initialOwner) */\n  tag_12\n    /* \"@openzeppelin/contracts/access/Ownable.sol\":1392:1404  initialOwner */\n  dup2\n    /* \"@openzeppelin/contracts/access/Ownable.sol\":1373:1391  _transferOwnership */\n  shl(0x20, tag_13)\n    /* \"@openzeppelin/contracts/access/Ownable.sol\":1373:1405  _transferOwnership(initialOwner) */\n  0x20\n  shr\n  jump\t// in\ntag_12:\n    /* \"@openzeppelin/contracts/access/Ownable.sol\":1225:1412  constructor(address initialOwner) {... */\n  pop\n    /* \"contracts/ModuleX.sol\":1635:1646  _credi_addr */\n  dup2\n    /* \"contracts/ModuleX.sol\":1620:1647  CREDI = IERC20(_credi_addr) */\n  0xffffffffffffffffffffffffffffffffffffffff\n  and\n  0x80\n  dup2\n  0xffffffffffffffffffffffffffffffffffffffff\n  and\n  dup2\n  mstore\n  pop\n  pop\n    /* \"contracts/ModuleX.sol\":1674:1686  _xcredi_addr */\n  dup1\n    /* \"contracts/ModuleX.sol\":1658:1687  xCREDI = IERC20(_xcredi_addr) */\n  0xffffffffffffffffffffffffffffffffffffffff\n  and\n  0xa0\n  dup2\n  0xffffffffffffffffffffffffffffffffffffffff\n  and\n  dup2\n  mstore\n  pop\n  pop\n    /* \"contracts/ModuleX.sol\":1526:1695  constructor(address _credi_addr, address _xcredi_addr) Ownable(_msgSender())... */\n  pop\n  pop\n    /* \"contracts/ModuleX.sol\":278:6902  contract ModuleX is IModuleX, Ownable ... */\n  jump(tag_15)\n    /* \"@openzeppelin/contracts/utils/Context.sol\":656:752  function _msgSender() internal view virtual returns (address) {... */\ntag_6:\n    /* \"@openzeppelin/contracts/utils/Context.sol\":709:716  address */\n  0x00\n    /* \"@openzeppelin/contracts/utils/Context.sol\":735:745  msg.sender */\n  caller\n    /* \"@openzeppelin/contracts/utils/Context.sol\":728:745  return msg.sender */\n  swap1\n  pop\n    /* \"@openzeppelin/contracts/utils/Context.sol\":656:752  function _msgSender() internal view virtual returns (address) {... */\n  swap1\n  jump\t// out\n    /* \"@openzeppelin/contracts/access/Ownable.sol\":2912:3099  function _transferOwnership(address newOwner) internal virtual {... */\ntag_13:\n    /* \"@openzeppelin/contracts/access/Ownable.sol\":2985:3001  address oldOwner */\n  0x00\n    /* \"@openzeppelin/contracts/access/Ownable.sol\":3004:3010  _owner */\n  0x00\n  0x00\n  swap1\n  sload\n  swap1\n  0x0100\n  exp\n  swap1\n  div\n  0xffffffffffffffffffffffffffffffffffffffff\n  and\n    /* \"@openzeppelin/contracts/access/Ownable.sol\":2985:3010  address oldOwner = _owner */\n  swap1\n  pop\n    /* \"@openzeppelin/contracts/access/Ownable.sol\":3029:3037  newOwner */\n  dup2\n    /* \"@openzeppelin/contracts/access/Ownable.sol\":3020:3026  _owner */\n  0x00\n  0x00\n    /* \"@openzeppelin/contracts/access/Ownable.sol\":3020:3037  _owner = newOwner */\n  0x0100\n  exp\n  dup2\n  sload\n  dup2\n  0xffffffffffffffffffffffffffffffffffffffff\n  mul\n  not\n  and\n  swap1\n  dup4\n  0xffffffffffffffffffffffffffffffffffffffff\n  and\n  mul\n  or\n  swap1\n  sstore\n  pop\n    /* \"@openzeppelin/contracts/access/Ownable.sol\":3083:3091  newOwner */\n  dup2\n    /* \"@openzeppelin/contracts/access/Ownable.sol\":3052:3092  OwnershipTransferred(oldOwner, newOwner) */\n  0xffffffffffffffffffffffffffffffffffffffff\n  and\n    /* \"@openzeppelin/contracts/access/Ownable.sol\":3073:3081  oldOwner */\n  dup2\n    /* \"@openzeppelin/contracts/access/Ownable.sol\":3052:3092  OwnershipTransferred(oldOwner, newOwner) */\n  0xffffffffffffffffffffffffffffffffffffffff\n  and\n  0x8be0079c531659141344cd1fd0a4f28419497f9722a3daafe3b4186f6b6457e0\n  mload(0x40)\n  mload(0x40)\n  dup1\n  swap2\n  sub\n  swap1\n  log3\n    /* \"@openzeppelin/contracts/access/Ownable.sol\":2975:3099  {... */\n  pop\n    /* \"@openzeppelin/contracts/access/Ownable.sol\":2912:3099  function _transferOwnership(address newOwner) internal virtual {... */\n  pop\n  jump\t// out\n    /* \"#utility.yul\":88:205   */\ntag_19:\n    /* \"#utility.yul\":197:198   */\n  0x00\n    /* \"#utility.yul\":194:195   */\n  0x00\n    /* \"#utility.yul\":187:199   */\n  revert\n    /* \"#utility.yul\":334:460   */\ntag_21:\n    /* \"#utility.yul\":371:378   */\n  0x00\n    /* \"#utility.yul\":411:453   */\n  0xffffffffffffffffffffffffffffffffffffffff\n    /* \"#utility.yul\":404:409   */\n  dup3\n    /* \"#utility.yul\":400:454   */\n  and\n    /* \"#utility.yul\":389:454   */\n  swap1\n  pop\n    /* \"#utility.yul\":334:460   */\n  swap2\n  swap1\n  pop\n  jump\t// out\n    /* \"#utility.yul\":466:562   */\ntag_22:\n    /* \"#utility.yul\":503:510   */\n  0x00\n    /* \"#utility.yul\":532:556   */\n  tag_32\n    /* \"#utility.yul\":550:555   */\n  dup3\n    /* \"#utility.yul\":532:556   */\n  tag_21\n  jump\t// in\ntag_32:\n    /* \"#utility.yul\":521:556   */\n  swap1\n  pop\n    /* \"#utility.yul\":466:562   */\n  swap2\n  swap1\n  pop\n  jump\t// out\n    /* \"#utility.yul\":568:690   */\ntag_23:\n    /* \"#utility.yul\":641:665   */\n  tag_34\n    /* \"#utility.yul\":659:664   */\n  dup2\n    /* \"#utility.yul\":641:665   */\n  tag_22\n  jump\t// in\ntag_34:\n    /* \"#utility.yul\":634:639   */\n  dup2\n    /* \"#utility.yul\":631:666   */\n  eq\n    /* \"#utility.yul\":621:684   */\n  tag_35\n  jumpi\n    /* \"#utility.yul\":680:681   */\n  0x00\n    /* \"#utility.yul\":677:678   */\n  0x00\n    /* \"#utility.yul\":670:682   */\n  revert\n    /* \"#utility.yul\":621:684   */\ntag_35:\n    /* \"#utility.yul\":568:690   */\n  pop\n  jump\t// out\n    /* \"#utility.yul\":696:839   */\ntag_24:\n    /* \"#utility.yul\":753:758   */\n  0x00\n    /* \"#utility.yul\":784:790   */\n  dup2\n    /* \"#utility.yul\":778:791   */\n  mload\n    /* \"#utility.yul\":769:791   */\n  swap1\n  pop\n    /* \"#utility.yul\":800:833   */\n  tag_37\n    /* \"#utility.yul\":827:832   */\n  dup2\n    /* \"#utility.yul\":800:833   */\n  tag_23\n  jump\t// in\ntag_37:\n    /* \"#utility.yul\":696:839   */\n  swap3\n  swap2\n  pop\n  pop\n  jump\t// out\n    /* \"#utility.yul\":845:1352   */\ntag_3:\n    /* \"#utility.yul\":924:930   */\n  0x00\n    /* \"#utility.yul\":932:938   */\n  0x00\n    /* \"#utility.yul\":981:983   */\n  0x40\n    /* \"#utility.yul\":969:978   */\n  dup4\n    /* \"#utility.yul\":960:967   */\n  dup6\n    /* \"#utility.yul\":956:979   */\n  sub\n    /* \"#utility.yul\":952:984   */\n  slt\n    /* \"#utility.yul\":949:1068   */\n  iszero\n  tag_39\n  jumpi\n    /* \"#utility.yul\":987:1066   */\n  tag_40\n  tag_19\n  jump\t// in\ntag_40:\n    /* \"#utility.yul\":949:1068   */\ntag_39:\n    /* \"#utility.yul\":1107:1108   */\n  0x00\n    /* \"#utility.yul\":1132:1196   */\n  tag_41\n    /* \"#utility.yul\":1188:1195   */\n  dup6\n    /* \"#utility.yul\":1179:1185   */\n  dup3\n    /* \"#utility.yul\":1168:1177   */\n  dup7\n    /* \"#utility.yul\":1164:1186   */\n  add\n    /* \"#utility.yul\":1132:1196   */\n  tag_24\n  jump\t// in\ntag_41:\n    /* \"#utility.yul\":1122:1196   */\n  swap3\n  pop\n    /* \"#utility.yul\":1078:1206   */\n  pop\n    /* \"#utility.yul\":1245:1247   */\n  0x20\n    /* \"#utility.yul\":1271:1335   */\n  tag_42\n    /* \"#utility.yul\":1327:1334   */\n  dup6\n    /* \"#utility.yul\":1318:1324   */\n  dup3\n    /* \"#utility.yul\":1307:1316   */\n  dup7\n    /* \"#utility.yul\":1303:1325   */\n  add\n    /* \"#utility.yul\":1271:1335   */\n  tag_24\n  jump\t// in\ntag_42:\n    /* \"#utility.yul\":1261:1335   */\n  swap2\n  pop\n    /* \"#utility.yul\":1216:1345   */\n  pop\n    /* \"#utility.yul\":845:1352   */\n  swap3\n  pop\n  swap3\n  swap1\n  pop\n  jump\t// out\n    /* \"#utility.yul\":1358:1476   */\ntag_25:\n    /* \"#utility.yul\":1445:1469   */\n  tag_44\n    /* \"#utility.yul\":1463:1468   */\n  dup2\n    /* \"#utility.yul\":1445:1469   */\n  tag_22\n  jump\t// in\ntag_44:\n    /* \"#utility.yul\":1440:1443   */\n  dup3\n    /* \"#utility.yul\":1433:1470   */\n  mstore\n    /* \"#utility.yul\":1358:1476   */\n  pop\n  pop\n  jump\t// out\n    /* \"#utility.yul\":1482:1704   */\ntag_11:\n    /* \"#utility.yul\":1575:1579   */\n  0x00\n    /* \"#utility.yul\":1613:1615   */\n  0x20\n    /* \"#utility.yul\":1602:1611   */\n  dup3\n    /* \"#utility.yul\":1598:1616   */\n  add\n    /* \"#utility.yul\":1590:1616   */\n  swap1\n  pop\n    /* \"#utility.yul\":1626:1697   */\n  tag_46\n    /* \"#utility.yul\":1694:1695   */\n  0x00\n    /* \"#utility.yul\":1683:1692   */\n  dup4\n    /* \"#utility.yul\":1679:1696   */\n  add\n    /* \"#utility.yul\":1670:1676   */\n  dup5\n    /* \"#utility.yul\":1626:1697   */\n  tag_25\n  jump\t// in\ntag_46:\n    /* \"#utility.yul\":1482:1704   */\n  swap3\n  swap2\n  pop\n  pop\n  jump\t// out\n    /* \"contracts/ModuleX.sol\":278:6902  contract ModuleX is IModuleX, Ownable ... */\ntag_15:\n  mload(0x80)\n  mload(0xa0)\n  codecopy(0x00, dataOffset(sub_0), dataSize(sub_0))\n  0x00\n  assignImmutable(\"0x0d39e801c12a1db7a049a11375544bfecda5660c1466262d86703950d5bcb07f\")\n  0x00\n  assignImmutable(\"0xad444e1082e5d5bbfca385a9a566a2d71dbd349bb06a97871f0be4657884f8e0\")\n  return(0x00, dataSize(sub_0))\nstop\n\nsub_0: assembly {\n        /* \"contracts/ModuleX.sol\":278:6902  contract ModuleX is IModuleX, Ownable ... */\n      mstore(0x40, 0x80)\n      callvalue\n      dup1\n      iszero\n      tag_1\n      jumpi\n      revert(0x00, 0x00)\n    tag_1:\n      pop\n      jumpi(tag_2, lt(calldatasize, 0x04))\n      shr(0xe0, calldataload(0x00))\n      dup1\n      0xaf7568dd\n      gt\n      tag_24\n      jumpi\n      dup1\n      0xce325bf8\n      gt\n      tag_25\n      jumpi\n      dup1\n      0xce325bf8\n      eq\n      tag_18\n      jumpi\n      dup1\n      0xd2d7231f\n      eq\n      tag_19\n      jumpi\n      dup1\n      0xd46149a2\n      eq\n      tag_20\n      jumpi\n      dup1\n      0xd6ef7af0\n      eq\n      tag_21\n      jumpi\n      dup1\n      0xd93c04a0\n      eq\n      tag_22\n      jumpi\n      dup1\n      0xf2fde38b\n      eq\n      tag_23\n      jumpi\n      jump(tag_2)\n    tag_25:\n      dup1\n      0xaf7568dd\n      eq\n      tag_13\n      jumpi\n      dup1\n      0xb109beec\n      eq\n      tag_14\n      jumpi\n      dup1\n      0xb5fa91fe\n      eq\n      tag_15\n      jumpi\n      dup1\n      0xbc854352\n      eq\n      tag_16\n      jumpi\n      dup1\n      0xbeceed39\n      eq\n      tag_17\n      jumpi\n      jump(tag_2)\n    tag_24:\n      dup1\n      0x7c2fdeb5\n      gt\n      tag_26\n      jumpi\n      dup1\n      0x7c2fdeb5\n      eq\n      tag_8\n      jumpi\n      dup1\n      0x8da5cb5b\n      eq\n      tag_9\n      jumpi\n      dup1\n      0x8e12c0cd\n      eq\n      tag_10\n      jumpi\n      dup1\n      0x8f4729b7\n      eq\n      tag_11\n      jumpi\n      dup1\n      0xac00500f\n      eq\n      tag_12\n      jumpi\n      jump(tag_2)\n    tag_26:\n      dup1\n      0x109cf399\n      eq\n      tag_3\n      jumpi\n      dup1\n      0x379607f5\n      eq\n      tag_4\n      jumpi\n      dup1\n      0x3fa352f5\n      eq\n      tag_5\n      jumpi\n      dup1\n      0x6db08f25\n      eq\n      tag_6\n      jumpi\n      dup1\n      0x715018a6\n      eq\n      tag_7\n      jumpi\n    tag_2:\n      revert(0x00, 0x00)\n        /* \"contracts/ModuleX.sol\":616:674  uint constant public DIFFICULTY_INTERVAL = 500000 * 10**18 */\n    tag_3:\n      tag_27\n      tag_28\n      jump\t// in\n    tag_27:\n      mload(0x40)\n      tag_29\n      swap2\n      swap1\n      tag_30\n      jump\t// in\n    tag_29:\n      mload(0x40)\n      dup1\n      swap2\n      sub\n      swap1\n      return\n        /* \"contracts/ModuleX.sol\":4410:5079  function claim(uint stake_id) external validate_stake(stake_id) returns(uint)... */\n    tag_4:\n      tag_31\n      0x04\n      dup1\n      calldatasize\n      sub\n      dup2\n      add\n      swap1\n      tag_32\n      swap2\n      swap1\n      tag_33\n      jump\t// in\n    tag_32:\n      tag_34\n      jump\t// in\n    tag_31:\n      mload(0x40)\n      tag_35\n      swap2\n      swap1\n      tag_30\n      jump\t// in\n    tag_35:\n      mload(0x40)\n      dup1\n      swap2\n      sub\n      swap1\n      return\n        /* \"contracts/ModuleX.sol\":573:609  uint constant public DIFFICULTY = 11 */\n    tag_5:\n      tag_36\n      tag_37\n      jump\t// in\n    tag_36:\n      mload(0x40)\n      tag_38\n      swap2\n      swap1\n      tag_30\n      jump\t// in\n    tag_38:\n      mload(0x40)\n      dup1\n      swap2\n      sub\n      swap1\n      return\n        /* \"contracts/ModuleX.sol\":704:733  IERC20 immutable public CREDI */\n    tag_6:\n      tag_39\n      tag_40\n      jump\t// in\n    tag_39:\n      mload(0x40)\n      tag_41\n      swap2\n      swap1\n      tag_42\n      jump\t// in\n    tag_41:\n      mload(0x40)\n      dup1\n      swap2\n      sub\n      swap1\n      return\n        /* \"@openzeppelin/contracts/access/Ownable.sol\":2293:2394  function renounceOwnership() public virtual onlyOwner {... */\n    tag_7:\n      tag_43\n      tag_44\n      jump\t// in\n    tag_43:\n      stop\n        /* \"contracts/ModuleX.sol\":1818:1923  function getxCREDIAddress() external view returns(address)... */\n    tag_8:\n      tag_45\n      tag_46\n      jump\t// in\n    tag_45:\n      mload(0x40)\n      tag_47\n      swap2\n      swap1\n      tag_48\n      jump\t// in\n    tag_47:\n      mload(0x40)\n      dup1\n      swap2\n      sub\n      swap1\n      return\n        /* \"@openzeppelin/contracts/access/Ownable.sol\":1638:1723  function owner() public view virtual returns (address) {... */\n    tag_9:\n      tag_49\n      tag_50\n      jump\t// in\n    tag_49:\n      mload(0x40)\n      tag_51\n      swap2\n      swap1\n      tag_48\n      jump\t// in\n    tag_51:\n      mload(0x40)\n      dup1\n      swap2\n      sub\n      swap1\n      return\n        /* \"contracts/ModuleX.sol\":508:553  uint96 constant public MATURITY = 180 minutes */\n    tag_10:\n      tag_52\n      tag_53\n      jump\t// in\n    tag_52:\n      mload(0x40)\n      tag_54\n      swap2\n      swap1\n      tag_55\n      jump\t// in\n    tag_54:\n      mload(0x40)\n      dup1\n      swap2\n      sub\n      swap1\n      return\n        /* \"contracts/ModuleX.sol\":1018:1050  uint public pending_payments = 0 */\n    tag_11:\n      tag_56\n      tag_57\n      jump\t// in\n    tag_56:\n      mload(0x40)\n      tag_58\n      swap2\n      swap1\n      tag_30\n      jump\t// in\n    tag_58:\n      mload(0x40)\n      dup1\n      swap2\n      sub\n      swap1\n      return\n        /* \"contracts/ModuleX.sol\":5087:5643  function withdrawCREDI(uint stake_id, uint amount) external onlyOwner validate_stake(stake_id)... */\n    tag_12:\n      tag_59\n      0x04\n      dup1\n      calldatasize\n      sub\n      dup2\n      add\n      swap1\n      tag_60\n      swap2\n      swap1\n      tag_61\n      jump\t// in\n    tag_60:\n      tag_62\n      jump\t// in\n    tag_59:\n      stop\n        /* \"contracts/ModuleX.sol\":983:1011  uint public total_staked = 0 */\n    tag_13:\n      tag_63\n      tag_64\n      jump\t// in\n    tag_63:\n      mload(0x40)\n      tag_65\n      swap2\n      swap1\n      tag_30\n      jump\t// in\n    tag_65:\n      mload(0x40)\n      dup1\n      swap2\n      sub\n      swap1\n      return\n        /* \"contracts/ModuleX.sol\":796:826  IERC20 immutable public xCREDI */\n    tag_14:\n      tag_66\n      tag_67\n      jump\t// in\n    tag_66:\n      mload(0x40)\n      tag_68\n      swap2\n      swap1\n      tag_42\n      jump\t// in\n    tag_68:\n      mload(0x40)\n      dup1\n      swap2\n      sub\n      swap1\n      return\n        /* \"contracts/ModuleX.sol\":1931:2032  function getStakesCount() external view returns(uint)... */\n    tag_15:\n      tag_69\n      tag_70\n      jump\t// in\n    tag_69:\n      mload(0x40)\n      tag_71\n      swap2\n      swap1\n      tag_30\n      jump\t// in\n    tag_71:\n      mload(0x40)\n      dup1\n      swap2\n      sub\n      swap1\n      return\n        /* \"contracts/ModuleX.sol\":5651:6363  function batchWithdrawCREDI(uint[] calldata stake_ids) external onlyOwner... */\n    tag_16:\n      tag_72\n      0x04\n      dup1\n      calldatasize\n      sub\n      dup2\n      add\n      swap1\n      tag_73\n      swap2\n      swap1\n      tag_74\n      jump\t// in\n    tag_73:\n      tag_75\n      jump\t// in\n    tag_72:\n      stop\n        /* \"contracts/ModuleX.sol\":6371:6609  function addRewards(uint amount) external ... */\n    tag_17:\n      tag_76\n      0x04\n      dup1\n      calldatasize\n      sub\n      dup2\n      add\n      swap1\n      tag_77\n      swap2\n      swap1\n      tag_33\n      jump\t// in\n    tag_77:\n      tag_78\n      jump\t// in\n    tag_76:\n      stop\n        /* \"contracts/ModuleX.sol\":2040:2435  function getStake(uint stake_id) external validate_stake(stake_id) view ... */\n    tag_18:\n      tag_79\n      0x04\n      dup1\n      calldatasize\n      sub\n      dup2\n      add\n      swap1\n      tag_80\n      swap2\n      swap1\n      tag_33\n      jump\t// in\n    tag_80:\n      tag_81\n      jump\t// in\n    tag_79:\n      mload(0x40)\n      tag_82\n      swap5\n      swap4\n      swap3\n      swap2\n      swap1\n      tag_83\n      jump\t// in\n    tag_82:\n      mload(0x40)\n      dup1\n      swap2\n      sub\n      swap1\n      return\n        /* \"contracts/ModuleX.sol\":2554:3454  function calculateReward(uint stake_amount) public view returns(uint)... */\n    tag_19:\n      tag_84\n      0x04\n      dup1\n      calldatasize\n      sub\n      dup2\n      add\n      swap1\n      tag_85\n      swap2\n      swap1\n      tag_33\n      jump\t// in\n    tag_85:\n      tag_86\n      jump\t// in\n    tag_84:\n      mload(0x40)\n      tag_87\n      swap2\n      swap1\n      tag_30\n      jump\t// in\n    tag_87:\n      mload(0x40)\n      dup1\n      swap2\n      sub\n      swap1\n      return\n        /* \"contracts/ModuleX.sol\":1707:1810  function getCREDIAddress() external view returns(address)... */\n    tag_20:\n      tag_88\n      tag_89\n      jump\t// in\n    tag_88:\n      mload(0x40)\n      tag_90\n      swap2\n      swap1\n      tag_48\n      jump\t// in\n    tag_90:\n      mload(0x40)\n      dup1\n      swap2\n      sub\n      swap1\n      return\n        /* \"contracts/ModuleX.sol\":6617:6897  function withdrawRewards(address to, uint amount) external onlyOwner... */\n    tag_21:\n      tag_91\n      0x04\n      dup1\n      calldatasize\n      sub\n      dup2\n      add\n      swap1\n      tag_92\n      swap2\n      swap1\n      tag_93\n      jump\t// in\n    tag_92:\n      tag_94\n      jump\t// in\n    tag_91:\n      stop\n        /* \"contracts/ModuleX.sol\":3462:4402  function stake(uint96 lock_period, uint stake_amount) external returns(uint, uint)... */\n    tag_22:\n      tag_95\n      0x04\n      dup1\n      calldatasize\n      sub\n      dup2\n      add\n      swap1\n      tag_96\n      swap2\n      swap1\n      tag_97\n      jump\t// in\n    tag_96:\n      tag_98\n      jump\t// in\n    tag_95:\n      mload(0x40)\n      tag_99\n      swap3\n      swap2\n      swap1\n      tag_100\n      jump\t// in\n    tag_99:\n      mload(0x40)\n      dup1\n      swap2\n      sub\n      swap1\n      return\n        /* \"@openzeppelin/contracts/access/Ownable.sol\":2543:2758  function transferOwnership(address newOwner) public virtual onlyOwner {... */\n    tag_23:\n      tag_101\n      0x04\n      dup1\n      calldatasize\n      sub\n      dup2\n      add\n      swap1\n      tag_102\n      swap2\n      swap1\n      tag_103\n      jump\t// in\n    tag_102:\n      tag_104\n      jump\t// in\n    tag_101:\n      stop\n        /* \"contracts/ModuleX.sol\":616:674  uint constant public DIFFICULTY_INTERVAL = 500000 * 10**18 */\n    tag_28:\n        /* \"contracts/ModuleX.sol\":659:674  500000 * 10**18 */\n      0x69e10de76676d0800000\n        /* \"contracts/ModuleX.sol\":616:674  uint constant public DIFFICULTY_INTERVAL = 500000 * 10**18 */\n      dup2\n      jump\t// out\n        /* \"contracts/ModuleX.sol\":4410:5079  function claim(uint stake_id) external validate_stake(stake_id) returns(uint)... */\n    tag_34:\n        /* \"contracts/ModuleX.sol\":4482:4486  uint */\n      0x00\n        /* \"contracts/ModuleX.sol\":4464:4472  stake_id */\n      dup2\n        /* \"contracts/ModuleX.sol\":1440:1441  0 */\n      0x00\n        /* \"contracts/ModuleX.sol\":1429:1437  stake_id */\n      dup2\n        /* \"contracts/ModuleX.sol\":1429:1441  stake_id > 0 */\n      gt\n        /* \"contracts/ModuleX.sol\":1429:1468  stake_id > 0 && stake_id < stakes_count */\n      dup1\n      iszero\n      tag_106\n      jumpi\n      pop\n        /* \"contracts/ModuleX.sol\":1456:1468  stakes_count */\n      sload(0x02)\n        /* \"contracts/ModuleX.sol\":1445:1453  stake_id */\n      dup2\n        /* \"contracts/ModuleX.sol\":1445:1468  stake_id < stakes_count */\n      lt\n        /* \"contracts/ModuleX.sol\":1429:1468  stake_id > 0 && stake_id < stakes_count */\n    tag_106:\n        /* \"contracts/ModuleX.sol\":1421:1498  require(stake_id > 0 && stake_id < stakes_count, \"ModuleX:Invalid Stake ID!\") */\n      tag_107\n      jumpi\n      mload(0x40)\n      0x08c379a000000000000000000000000000000000000000000000000000000000\n      dup2\n      mstore\n      0x04\n      add\n      tag_108\n      swap1\n      tag_109\n      jump\t// in\n    tag_108:\n      mload(0x40)\n      dup1\n      swap2\n      sub\n      swap1\n      revert\n    tag_107:\n        /* \"contracts/ModuleX.sol\":4504:4532  StakeDetails storage details */\n      0x00\n        /* \"contracts/ModuleX.sol\":4535:4541  stakes */\n      0x01\n        /* \"contracts/ModuleX.sol\":4535:4551  stakes[stake_id] */\n      0x00\n        /* \"contracts/ModuleX.sol\":4542:4550  stake_id */\n      dup6\n        /* \"contracts/ModuleX.sol\":4535:4551  stakes[stake_id] */\n      dup2\n      mstore\n      0x20\n      add\n      swap1\n      dup2\n      mstore\n      0x20\n      add\n      0x00\n      keccak256\n        /* \"contracts/ModuleX.sol\":4504:4551  StakeDetails storage details = stakes[stake_id] */\n      swap1\n      pop\n        /* \"contracts/ModuleX.sol\":4587:4599  _msgSender() */\n      tag_111\n        /* \"contracts/ModuleX.sol\":4587:4597  _msgSender */\n      tag_112\n        /* \"contracts/ModuleX.sol\":4587:4599  _msgSender() */\n      jump\t// in\n    tag_111:\n        /* \"contracts/ModuleX.sol\":4570:4599  details.owner == _msgSender() */\n      0xffffffffffffffffffffffffffffffffffffffff\n      and\n        /* \"contracts/ModuleX.sol\":4570:4577  details */\n      dup2\n        /* \"contracts/ModuleX.sol\":4570:4583  details.owner */\n      0x00\n      add\n      0x00\n      swap1\n      sload\n      swap1\n      0x0100\n      exp\n      swap1\n      div\n      0xffffffffffffffffffffffffffffffffffffffff\n      and\n        /* \"contracts/ModuleX.sol\":4570:4599  details.owner == _msgSender() */\n      0xffffffffffffffffffffffffffffffffffffffff\n      and\n      eq\n        /* \"contracts/ModuleX.sol\":4562:4635  require(details.owner == _msgSender(), \"ModuleX:Caller is not the owner\") */\n      tag_113\n      jumpi\n      mload(0x40)\n      0x08c379a000000000000000000000000000000000000000000000000000000000\n      dup2\n      mstore\n      0x04\n      add\n      tag_114\n      swap1\n      tag_115\n      jump\t// in\n    tag_114:\n      mload(0x40)\n      dup1\n      swap2\n      sub\n      swap1\n      revert\n    tag_113:\n        /* \"contracts/ModuleX.sol\":4668:4675  details */\n      dup1\n        /* \"contracts/ModuleX.sol\":4668:4684  details.maturity */\n      0x00\n      add\n      0x14\n      swap1\n      sload\n      swap1\n      0x0100\n      exp\n      swap1\n      div\n      0xffffffffffffffffffffffff\n      and\n        /* \"contracts/ModuleX.sol\":4654:4684  time_now() >= details.maturity */\n      0xffffffffffffffffffffffff\n      and\n        /* \"contracts/ModuleX.sol\":4654:4664  time_now() */\n      tag_116\n        /* \"contracts/ModuleX.sol\":4654:4662  time_now */\n      tag_117\n        /* \"contracts/ModuleX.sol\":4654:4664  time_now() */\n      jump\t// in\n    tag_116:\n        /* \"contracts/ModuleX.sol\":4654:4684  time_now() >= details.maturity */\n      0xffffffffffffffffffffffff\n      and\n      lt\n      iszero\n        /* \"contracts/ModuleX.sol\":4646:4731  require(time_now() >= details.maturity, \"ModuleX:Early Withdrawal is not permitted!\") */\n      tag_118\n      jumpi\n      mload(0x40)\n      0x08c379a000000000000000000000000000000000000000000000000000000000\n      dup2\n      mstore\n      0x04\n      add\n      tag_119\n      swap1\n      tag_120\n      jump\t// in\n    tag_119:\n      mload(0x40)\n      dup1\n      swap2\n      sub\n      swap1\n      revert\n    tag_118:\n        /* \"contracts/ModuleX.sol\":4775:4776  0 */\n      0x00\n        /* \"contracts/ModuleX.sol\":4751:4758  details */\n      dup2\n        /* \"contracts/ModuleX.sol\":4751:4772  details.reward_amount */\n      0x02\n      add\n      sload\n        /* \"contracts/ModuleX.sol\":4751:4776  details.reward_amount > 0 */\n      gt\n        /* \"contracts/ModuleX.sol\":4743:4805  require(details.reward_amount > 0, \"ModuleX:Nothing to claim\") */\n      tag_121\n      jumpi\n      mload(0x40)\n      0x08c379a000000000000000000000000000000000000000000000000000000000\n      dup2\n      mstore\n      0x04\n      add\n      tag_122\n      swap1\n      tag_123\n      jump\t// in\n    tag_122:\n      mload(0x40)\n      dup1\n      swap2\n      sub\n      swap1\n      revert\n    tag_121:\n        /* \"contracts/ModuleX.sol\":4816:4834  uint reward_amount */\n      0x00\n        /* \"contracts/ModuleX.sol\":4837:4844  details */\n      dup2\n        /* \"contracts/ModuleX.sol\":4837:4858  details.reward_amount */\n      0x02\n      add\n      sload\n        /* \"contracts/ModuleX.sol\":4816:4858  uint reward_amount = details.reward_amount */\n      swap1\n      pop\n        /* \"contracts/ModuleX.sol\":4869:4917  xCREDI.safeTransfer(_msgSender(), reward_amount) */\n      tag_124\n        /* \"contracts/ModuleX.sol\":4889:4901  _msgSender() */\n      tag_125\n        /* \"contracts/ModuleX.sol\":4889:4899  _msgSender */\n      tag_112\n        /* \"contracts/ModuleX.sol\":4889:4901  _msgSender() */\n      jump\t// in\n    tag_125:\n        /* \"contracts/ModuleX.sol\":4903:4916  reward_amount */\n      dup3\n        /* \"contracts/ModuleX.sol\":4869:4875  xCREDI */\n      immutable(\"0x0d39e801c12a1db7a049a11375544bfecda5660c1466262d86703950d5bcb07f\")\n        /* \"contracts/ModuleX.sol\":4869:4888  xCREDI.safeTransfer */\n      0xffffffffffffffffffffffffffffffffffffffff\n      and\n      tag_126\n      swap1\n        /* \"contracts/ModuleX.sol\":4869:4917  xCREDI.safeTransfer(_msgSender(), reward_amount) */\n      swap3\n      swap2\n      swap1\n      0xffffffff\n      and\n      jump\t// in\n    tag_124:\n        /* \"contracts/ModuleX.sol\":4953:4966  reward_amount */\n      dup1\n        /* \"contracts/ModuleX.sol\":4933:4949  pending_payments */\n      0x04\n      0x00\n        /* \"contracts/ModuleX.sol\":4933:4966  pending_payments -= reward_amount */\n      dup3\n      dup3\n      sload\n      tag_127\n      swap2\n      swap1\n      tag_128\n      jump\t// in\n    tag_127:\n      swap3\n      pop\n      pop\n      dup2\n      swap1\n      sstore\n      pop\n        /* \"contracts/ModuleX.sol\":5001:5002  0 */\n      0x00\n        /* \"contracts/ModuleX.sol\":4977:4984  details */\n      dup3\n        /* \"contracts/ModuleX.sol\":4977:4998  details.reward_amount */\n      0x02\n      add\n        /* \"contracts/ModuleX.sol\":4977:5002  details.reward_amount = 0 */\n      dup2\n      swap1\n      sstore\n      pop\n        /* \"contracts/ModuleX.sol\":5019:5039  RewardPaid(stake_id) */\n      0x67bb155fcabb99400c32b640dc7704c8f18aae4c817704c7267c5a8cd26dfc19\n        /* \"contracts/ModuleX.sol\":5030:5038  stake_id */\n      dup6\n        /* \"contracts/ModuleX.sol\":5019:5039  RewardPaid(stake_id) */\n      mload(0x40)\n      tag_129\n      swap2\n      swap1\n      tag_30\n      jump\t// in\n    tag_129:\n      mload(0x40)\n      dup1\n      swap2\n      sub\n      swap1\n      log1\n        /* \"contracts/ModuleX.sol\":5058:5071  reward_amount */\n      dup1\n        /* \"contracts/ModuleX.sol\":5051:5071  return reward_amount */\n      swap4\n      pop\n      pop\n      pop\n        /* \"contracts/ModuleX.sol\":4410:5079  function claim(uint stake_id) external validate_stake(stake_id) returns(uint)... */\n      pop\n      swap2\n      swap1\n      pop\n      jump\t// out\n        /* \"contracts/ModuleX.sol\":573:609  uint constant public DIFFICULTY = 11 */\n    tag_37:\n        /* \"contracts/ModuleX.sol\":607:609  11 */\n      0x0b\n        /* \"contracts/ModuleX.sol\":573:609  uint constant public DIFFICULTY = 11 */\n      dup2\n      jump\t// out\n        /* \"contracts/ModuleX.sol\":704:733  IERC20 immutable public CREDI */\n    tag_40:\n      immutable(\"0xad444e1082e5d5bbfca385a9a566a2d71dbd349bb06a97871f0be4657884f8e0\")\n      dup2\n      jump\t// out\n        /* \"@openzeppelin/contracts/access/Ownable.sol\":2293:2394  function renounceOwnership() public virtual onlyOwner {... */\n    tag_44:\n        /* \"@openzeppelin/contracts/access/Ownable.sol\":1531:1544  _checkOwner() */\n      tag_131\n        /* \"@openzeppelin/contracts/access/Ownable.sol\":1531:1542  _checkOwner */\n      tag_132\n        /* \"@openzeppelin/contracts/access/Ownable.sol\":1531:1544  _checkOwner() */\n      jump\t// in\n    tag_131:\n        /* \"@openzeppelin/contracts/access/Ownable.sol\":2357:2387  _transferOwnership(address(0)) */\n      tag_134\n        /* \"@openzeppelin/contracts/access/Ownable.sol\":2384:2385  0 */\n      0x00\n        /* \"@openzeppelin/contracts/access/Ownable.sol\":2357:2375  _transferOwnership */\n      tag_135\n        /* \"@openzeppelin/contracts/access/Ownable.sol\":2357:2387  _transferOwnership(address(0)) */\n      jump\t// in\n    tag_134:\n        /* \"@openzeppelin/contracts/access/Ownable.sol\":2293:2394  function renounceOwnership() public virtual onlyOwner {... */\n      jump\t// out\n        /* \"contracts/ModuleX.sol\":1818:1923  function getxCREDIAddress() external view returns(address)... */\n    tag_46:\n        /* \"contracts/ModuleX.sol\":1868:1875  address */\n      0x00\n        /* \"contracts/ModuleX.sol\":1908:1914  xCREDI */\n      immutable(\"0x0d39e801c12a1db7a049a11375544bfecda5660c1466262d86703950d5bcb07f\")\n        /* \"contracts/ModuleX.sol\":1893:1915  return address(xCREDI) */\n      swap1\n      pop\n        /* \"contracts/ModuleX.sol\":1818:1923  function getxCREDIAddress() external view returns(address)... */\n      swap1\n      jump\t// out\n        /* \"@openzeppelin/contracts/access/Ownable.sol\":1638:1723  function owner() public view virtual returns (address) {... */\n    tag_50:\n        /* \"@openzeppelin/contracts/access/Ownable.sol\":1684:1691  address */\n      0x00\n        /* \"@openzeppelin/contracts/access/Ownable.sol\":1710:1716  _owner */\n      0x00\n      0x00\n      swap1\n      sload\n      swap1\n      0x0100\n      exp\n      swap1\n      div\n      0xffffffffffffffffffffffffffffffffffffffff\n      and\n        /* \"@openzeppelin/contracts/access/Ownable.sol\":1703:1716  return _owner */\n      swap1\n      pop\n        /* \"@openzeppelin/contracts/access/Ownable.sol\":1638:1723  function owner() public view virtual returns (address) {... */\n      swap1\n      jump\t// out\n        /* \"contracts/ModuleX.sol\":508:553  uint96 constant public MATURITY = 180 minutes */\n    tag_53:\n        /* \"contracts/ModuleX.sol\":542:553  180 minutes */\n      0x2a30\n        /* \"contracts/ModuleX.sol\":508:553  uint96 constant public MATURITY = 180 minutes */\n      dup2\n      jump\t// out\n        /* \"contracts/ModuleX.sol\":1018:1050  uint public pending_payments = 0 */\n    tag_57:\n      sload(0x04)\n      dup2\n      jump\t// out\n        /* \"contracts/ModuleX.sol\":5087:5643  function withdrawCREDI(uint stake_id, uint amount) external onlyOwner validate_stake(stake_id)... */\n    tag_62:\n        /* \"@openzeppelin/contracts/access/Ownable.sol\":1531:1544  _checkOwner() */\n      tag_139\n        /* \"@openzeppelin/contracts/access/Ownable.sol\":1531:1542  _checkOwner */\n      tag_132\n        /* \"@openzeppelin/contracts/access/Ownable.sol\":1531:1544  _checkOwner() */\n      jump\t// in\n    tag_139:\n        /* \"contracts/ModuleX.sol\":5172:5180  stake_id */\n      dup2\n        /* \"contracts/ModuleX.sol\":1440:1441  0 */\n      0x00\n        /* \"contracts/ModuleX.sol\":1429:1437  stake_id */\n      dup2\n        /* \"contracts/ModuleX.sol\":1429:1441  stake_id > 0 */\n      gt\n        /* \"contracts/ModuleX.sol\":1429:1468  stake_id > 0 && stake_id < stakes_count */\n      dup1\n      iszero\n      tag_141\n      jumpi\n      pop\n        /* \"contracts/ModuleX.sol\":1456:1468  stakes_count */\n      sload(0x02)\n        /* \"contracts/ModuleX.sol\":1445:1453  stake_id */\n      dup2\n        /* \"contracts/ModuleX.sol\":1445:1468  stake_id < stakes_count */\n      lt\n        /* \"contracts/ModuleX.sol\":1429:1468  stake_id > 0 && stake_id < stakes_count */\n    tag_141:\n        /* \"contracts/ModuleX.sol\":1421:1498  require(stake_id > 0 && stake_id < stakes_count, \"ModuleX:Invalid Stake ID!\") */\n      tag_142\n      jumpi\n      mload(0x40)\n      0x08c379a000000000000000000000000000000000000000000000000000000000\n      dup2\n      mstore\n      0x04\n      add\n      tag_143\n      swap1\n      tag_109\n      jump\t// in\n    tag_143:\n      mload(0x40)\n      dup1\n      swap2\n      sub\n      swap1\n      revert\n    tag_142:\n        /* \"contracts/ModuleX.sol\":5216:5217  0 */\n      0x00\n        /* \"contracts/ModuleX.sol\":5207:5213  amount */\n      dup3\n        /* \"contracts/ModuleX.sol\":5207:5217  amount > 0 */\n      gt\n        /* \"contracts/ModuleX.sol\":5198:5263  require (amount > 0, \"ModuleX:amount must be greater than zero!\") */\n      tag_145\n      jumpi\n      mload(0x40)\n      0x08c379a000000000000000000000000000000000000000000000000000000000\n      dup2\n      mstore\n      0x04\n      add\n      tag_146\n      swap1\n      tag_147\n      jump\t// in\n    tag_146:\n      mload(0x40)\n      dup1\n      swap2\n      sub\n      swap1\n      revert\n    tag_145:\n        /* \"contracts/ModuleX.sol\":5274:5302  StakeDetails storage details */\n      0x00\n        /* \"contracts/ModuleX.sol\":5305:5311  stakes */\n      0x01\n        /* \"contracts/ModuleX.sol\":5305:5321  stakes[stake_id] */\n      0x00\n        /* \"contracts/ModuleX.sol\":5312:5320  stake_id */\n      dup6\n        /* \"contracts/ModuleX.sol\":5305:5321  stakes[stake_id] */\n      dup2\n      mstore\n      0x20\n      add\n      swap1\n      dup2\n      mstore\n      0x20\n      add\n      0x00\n      keccak256\n        /* \"contracts/ModuleX.sol\":5274:5321  StakeDetails storage details = stakes[stake_id] */\n      swap1\n      pop\n        /* \"contracts/ModuleX.sol\":5354:5361  details */\n      dup1\n        /* \"contracts/ModuleX.sol\":5354:5370  details.maturity */\n      0x00\n      add\n      0x14\n      swap1\n      sload\n      swap1\n      0x0100\n      exp\n      swap1\n      div\n      0xffffffffffffffffffffffff\n      and\n        /* \"contracts/ModuleX.sol\":5340:5370  time_now() <= details.maturity */\n      0xffffffffffffffffffffffff\n      and\n        /* \"contracts/ModuleX.sol\":5340:5350  time_now() */\n      tag_148\n        /* \"contracts/ModuleX.sol\":5340:5348  time_now */\n      tag_117\n        /* \"contracts/ModuleX.sol\":5340:5350  time_now() */\n      jump\t// in\n    tag_148:\n        /* \"contracts/ModuleX.sol\":5340:5370  time_now() <= details.maturity */\n      0xffffffffffffffffffffffff\n      and\n      gt\n      iszero\n        /* \"contracts/ModuleX.sol\":5332:5396  require(time_now() <= details.maturity, \"ModuleX:Burnt tokens!\") */\n      tag_149\n      jumpi\n      mload(0x40)\n      0x08c379a000000000000000000000000000000000000000000000000000000000\n      dup2\n      mstore\n      0x04\n      add\n      tag_150\n      swap1\n      tag_151\n      jump\t// in\n    tag_150:\n      mload(0x40)\n      dup1\n      swap2\n      sub\n      swap1\n      revert\n    tag_149:\n        /* \"contracts/ModuleX.sol\":5426:5433  details */\n      dup1\n        /* \"contracts/ModuleX.sol\":5426:5446  details.stake_amount */\n      0x01\n      add\n      sload\n        /* \"contracts/ModuleX.sol\":5416:5422  amount */\n      dup4\n        /* \"contracts/ModuleX.sol\":5416:5446  amount <= details.stake_amount */\n      gt\n      iszero\n        /* \"contracts/ModuleX.sol\":5408:5480  require(amount <= details.stake_amount, \"ModuleX:Insufficient balance!\") */\n      tag_152\n      jumpi\n      mload(0x40)\n      0x08c379a000000000000000000000000000000000000000000000000000000000\n      dup2\n      mstore\n      0x04\n      add\n      tag_153\n      swap1\n      tag_154\n      jump\t// in\n    tag_153:\n      mload(0x40)\n      dup1\n      swap2\n      sub\n      swap1\n      revert\n    tag_152:\n        /* \"contracts/ModuleX.sol\":5492:5546  CREDI.safeTransfer(_msgSender(), details.stake_amount) */\n      tag_155\n        /* \"contracts/ModuleX.sol\":5511:5523  _msgSender() */\n      tag_156\n        /* \"contracts/ModuleX.sol\":5511:5521  _msgSender */\n      tag_112\n        /* \"contracts/ModuleX.sol\":5511:5523  _msgSender() */\n      jump\t// in\n    tag_156:\n        /* \"contracts/ModuleX.sol\":5525:5532  details */\n      dup3\n        /* \"contracts/ModuleX.sol\":5525:5545  details.stake_amount */\n      0x01\n      add\n      sload\n        /* \"contracts/ModuleX.sol\":5492:5497  CREDI */\n      immutable(\"0xad444e1082e5d5bbfca385a9a566a2d71dbd349bb06a97871f0be4657884f8e0\")\n        /* \"contracts/ModuleX.sol\":5492:5510  CREDI.safeTransfer */\n      0xffffffffffffffffffffffffffffffffffffffff\n      and\n      tag_126\n      swap1\n        /* \"contracts/ModuleX.sol\":5492:5546  CREDI.safeTransfer(_msgSender(), details.stake_amount) */\n      swap3\n      swap2\n      swap1\n      0xffffffff\n      and\n      jump\t// in\n    tag_155:\n        /* \"contracts/ModuleX.sol\":5581:5587  amount */\n      dup3\n        /* \"contracts/ModuleX.sol\":5557:5564  details */\n      dup2\n        /* \"contracts/ModuleX.sol\":5557:5577  details.stake_amount */\n      0x01\n      add\n      0x00\n        /* \"contracts/ModuleX.sol\":5557:5587  details.stake_amount -= amount */\n      dup3\n      dup3\n      sload\n      tag_157\n      swap2\n      swap1\n      tag_128\n      jump\t// in\n    tag_157:\n      swap3\n      pop\n      pop\n      dup2\n      swap1\n      sstore\n      pop\n        /* \"contracts/ModuleX.sol\":5603:5635  CREDIWithdrawn(stake_id, amount) */\n      0x03a00e6132085cbc9ea18899cd135ef9cad5d305d58506e08e7b1a9b96199a9c\n        /* \"contracts/ModuleX.sol\":5618:5626  stake_id */\n      dup5\n        /* \"contracts/ModuleX.sol\":5628:5634  amount */\n      dup5\n        /* \"contracts/ModuleX.sol\":5603:5635  CREDIWithdrawn(stake_id, amount) */\n      mload(0x40)\n      tag_158\n      swap3\n      swap2\n      swap1\n      tag_100\n      jump\t// in\n    tag_158:\n      mload(0x40)\n      dup1\n      swap2\n      sub\n      swap1\n      log1\n        /* \"contracts/ModuleX.sol\":5187:5643  {... */\n      pop\n        /* \"@openzeppelin/contracts/access/Ownable.sol\":1554:1555  _ */\n      pop\n        /* \"contracts/ModuleX.sol\":5087:5643  function withdrawCREDI(uint stake_id, uint amount) external onlyOwner validate_stake(stake_id)... */\n      pop\n      pop\n      jump\t// out\n        /* \"contracts/ModuleX.sol\":983:1011  uint public total_staked = 0 */\n    tag_64:\n      sload(0x03)\n      dup2\n      jump\t// out\n        /* \"contracts/ModuleX.sol\":796:826  IERC20 immutable public xCREDI */\n    tag_67:\n      immutable(\"0x0d39e801c12a1db7a049a11375544bfecda5660c1466262d86703950d5bcb07f\")\n      dup2\n      jump\t// out\n        /* \"contracts/ModuleX.sol\":1931:2032  function getStakesCount() external view returns(uint)... */\n    tag_70:\n        /* \"contracts/ModuleX.sol\":1979:1983  uint */\n      0x00\n        /* \"contracts/ModuleX.sol\":2023:2024  1 */\n      0x01\n        /* \"contracts/ModuleX.sol\":2008:2020  stakes_count */\n      sload(0x02)\n        /* \"contracts/ModuleX.sol\":2008:2024  stakes_count - 1 */\n      tag_160\n      swap2\n      swap1\n      tag_128\n      jump\t// in\n    tag_160:\n        /* \"contracts/ModuleX.sol\":2001:2024  return stakes_count - 1 */\n      swap1\n      pop\n        /* \"contracts/ModuleX.sol\":1931:2032  function getStakesCount() external view returns(uint)... */\n      swap1\n      jump\t// out\n        /* \"contracts/ModuleX.sol\":5651:6363  function batchWithdrawCREDI(uint[] calldata stake_ids) external onlyOwner... */\n    tag_75:\n        /* \"@openzeppelin/contracts/access/Ownable.sol\":1531:1544  _checkOwner() */\n      tag_162\n        /* \"@openzeppelin/contracts/access/Ownable.sol\":1531:1542  _checkOwner */\n      tag_132\n        /* \"@openzeppelin/contracts/access/Ownable.sol\":1531:1544  _checkOwner() */\n      jump\t// in\n    tag_162:\n        /* \"contracts/ModuleX.sol\":5741:5758  uint total_amount */\n      0x00\n        /* \"contracts/ModuleX.sol\":5761:5762  0 */\n      0x00\n        /* \"contracts/ModuleX.sol\":5741:5762  uint total_amount = 0 */\n      swap1\n      pop\n        /* \"contracts/ModuleX.sol\":5777:5783  uint i */\n      0x00\n        /* \"contracts/ModuleX.sol\":5786:5787  0 */\n      0x00\n        /* \"contracts/ModuleX.sol\":5777:5787  uint i = 0 */\n      swap1\n      pop\n        /* \"contracts/ModuleX.sol\":5773:6232  for(uint i = 0; i < stake_ids.length; i++)... */\n    tag_164:\n        /* \"contracts/ModuleX.sol\":5793:5802  stake_ids */\n      dup4\n      dup4\n        /* \"contracts/ModuleX.sol\":5793:5809  stake_ids.length */\n      swap1\n      pop\n        /* \"contracts/ModuleX.sol\":5789:5790  i */\n      dup2\n        /* \"contracts/ModuleX.sol\":5789:5809  i < stake_ids.length */\n      lt\n        /* \"contracts/ModuleX.sol\":5773:6232  for(uint i = 0; i < stake_ids.length; i++)... */\n      iszero\n      tag_165\n      jumpi\n        /* \"contracts/ModuleX.sol\":5863:5875  stakes_count */\n      sload(0x02)\n        /* \"contracts/ModuleX.sol\":5848:5857  stake_ids */\n      dup5\n      dup5\n        /* \"contracts/ModuleX.sol\":5858:5859  i */\n      dup4\n        /* \"contracts/ModuleX.sol\":5848:5860  stake_ids[i] */\n      dup2\n      dup2\n      lt\n      tag_167\n      jumpi\n      tag_168\n      tag_169\n      jump\t// in\n    tag_168:\n    tag_167:\n      swap1\n      pop\n      0x20\n      mul\n      add\n      calldataload\n        /* \"contracts/ModuleX.sol\":5848:5875  stake_ids[i] < stakes_count */\n      lt\n        /* \"contracts/ModuleX.sol\":5840:5905  require(stake_ids[i] < stakes_count, \"ModuleX:Invalid Stake ID!\") */\n      tag_170\n      jumpi\n      mload(0x40)\n      0x08c379a000000000000000000000000000000000000000000000000000000000\n      dup2\n      mstore\n      0x04\n      add\n      tag_171\n      swap1\n      tag_109\n      jump\t// in\n    tag_171:\n      mload(0x40)\n      dup1\n      swap2\n      sub\n      swap1\n      revert\n    tag_170:\n        /* \"contracts/ModuleX.sol\":5920:5948  StakeDetails storage details */\n      0x00\n        /* \"contracts/ModuleX.sol\":5951:5957  stakes */\n      0x01\n        /* \"contracts/ModuleX.sol\":5951:5971  stakes[stake_ids[i]] */\n      0x00\n        /* \"contracts/ModuleX.sol\":5958:5967  stake_ids */\n      dup7\n      dup7\n        /* \"contracts/ModuleX.sol\":5968:5969  i */\n      dup6\n        /* \"contracts/ModuleX.sol\":5958:5970  stake_ids[i] */\n      dup2\n      dup2\n      lt\n      tag_172\n      jumpi\n      tag_173\n      tag_169\n      jump\t// in\n    tag_173:\n    tag_172:\n      swap1\n      pop\n      0x20\n      mul\n      add\n      calldataload\n        /* \"contracts/ModuleX.sol\":5951:5971  stakes[stake_ids[i]] */\n      dup2\n      mstore\n      0x20\n      add\n      swap1\n      dup2\n      mstore\n      0x20\n      add\n      0x00\n      keccak256\n        /* \"contracts/ModuleX.sol\":5920:5971  StakeDetails storage details = stakes[stake_ids[i]] */\n      swap1\n      pop\n        /* \"contracts/ModuleX.sol\":6008:6015  details */\n      dup1\n        /* \"contracts/ModuleX.sol\":6008:6024  details.maturity */\n      0x00\n      add\n      0x14\n      swap1\n      sload\n      swap1\n      0x0100\n      exp\n      swap1\n      div\n      0xffffffffffffffffffffffff\n      and\n        /* \"contracts/ModuleX.sol\":5994:6024  time_now() <= details.maturity */\n      0xffffffffffffffffffffffff\n      and\n        /* \"contracts/ModuleX.sol\":5994:6004  time_now() */\n      tag_174\n        /* \"contracts/ModuleX.sol\":5994:6002  time_now */\n      tag_117\n        /* \"contracts/ModuleX.sol\":5994:6004  time_now() */\n      jump\t// in\n    tag_174:\n        /* \"contracts/ModuleX.sol\":5994:6024  time_now() <= details.maturity */\n      0xffffffffffffffffffffffff\n      and\n      gt\n      iszero\n        /* \"contracts/ModuleX.sol\":5986:6050  require(time_now() <= details.maturity, \"ModuleX:Burnt tokens!\") */\n      tag_175\n      jumpi\n      mload(0x40)\n      0x08c379a000000000000000000000000000000000000000000000000000000000\n      dup2\n      mstore\n      0x04\n      add\n      tag_176\n      swap1\n      tag_151\n      jump\t// in\n    tag_176:\n      mload(0x40)\n      dup1\n      swap2\n      sub\n      swap1\n      revert\n    tag_175:\n        /* \"contracts/ModuleX.sol\":6081:6088  details */\n      dup1\n        /* \"contracts/ModuleX.sol\":6081:6101  details.stake_amount */\n      0x01\n      add\n      sload\n        /* \"contracts/ModuleX.sol\":6065:6101  total_amount += details.stake_amount */\n      dup4\n      tag_177\n      swap2\n      swap1\n      tag_178\n      jump\t// in\n    tag_177:\n      swap3\n      pop\n        /* \"contracts/ModuleX.sol\":6139:6140  0 */\n      0x00\n        /* \"contracts/ModuleX.sol\":6116:6123  details */\n      dup2\n        /* \"contracts/ModuleX.sol\":6116:6136  details.stake_amount */\n      0x01\n      add\n        /* \"contracts/ModuleX.sol\":6116:6140  details.stake_amount = 0 */\n      dup2\n      swap1\n      sstore\n      pop\n        /* \"contracts/ModuleX.sol\":6170:6220  CREDIWithdrawn(stake_ids[i], details.stake_amount) */\n      0x03a00e6132085cbc9ea18899cd135ef9cad5d305d58506e08e7b1a9b96199a9c\n        /* \"contracts/ModuleX.sol\":6185:6194  stake_ids */\n      dup6\n      dup6\n        /* \"contracts/ModuleX.sol\":6195:6196  i */\n      dup5\n        /* \"contracts/ModuleX.sol\":6185:6197  stake_ids[i] */\n      dup2\n      dup2\n      lt\n      tag_179\n      jumpi\n      tag_180\n      tag_169\n      jump\t// in\n    tag_180:\n    tag_179:\n      swap1\n      pop\n      0x20\n      mul\n      add\n      calldataload\n        /* \"contracts/ModuleX.sol\":6199:6206  details */\n      dup3\n        /* \"contracts/ModuleX.sol\":6199:6219  details.stake_amount */\n      0x01\n      add\n      sload\n        /* \"contracts/ModuleX.sol\":6170:6220  CREDIWithdrawn(stake_ids[i], details.stake_amount) */\n      mload(0x40)\n      tag_181\n      swap3\n      swap2\n      swap1\n      tag_100\n      jump\t// in\n    tag_181:\n      mload(0x40)\n      dup1\n      swap2\n      sub\n      swap1\n      log1\n        /* \"contracts/ModuleX.sol\":5825:6232  {... */\n      pop\n        /* \"contracts/ModuleX.sol\":5811:5814  i++ */\n      dup1\n      dup1\n      0x01\n      add\n      swap2\n      pop\n      pop\n        /* \"contracts/ModuleX.sol\":5773:6232  for(uint i = 0; i < stake_ids.length; i++)... */\n      jump(tag_164)\n    tag_165:\n      pop\n        /* \"contracts/ModuleX.sol\":6265:6266  0 */\n      0x00\n        /* \"contracts/ModuleX.sol\":6250:6262  total_amount */\n      dup2\n        /* \"contracts/ModuleX.sol\":6250:6266  total_amount > 0 */\n      gt\n        /* \"contracts/ModuleX.sol\":6242:6297  require(total_amount > 0, \"ModuleX:Total amount is 0!\") */\n      tag_182\n      jumpi\n      mload(0x40)\n      0x08c379a000000000000000000000000000000000000000000000000000000000\n      dup2\n      mstore\n      0x04\n      add\n      tag_183\n      swap1\n      tag_184\n      jump\t// in\n    tag_183:\n      mload(0x40)\n      dup1\n      swap2\n      sub\n      swap1\n      revert\n    tag_182:\n        /* \"contracts/ModuleX.sol\":6309:6355  CREDI.safeTransfer(_msgSender(), total_amount) */\n      tag_185\n        /* \"contracts/ModuleX.sol\":6328:6340  _msgSender() */\n      tag_186\n        /* \"contracts/ModuleX.sol\":6328:6338  _msgSender */\n      tag_112\n        /* \"contracts/ModuleX.sol\":6328:6340  _msgSender() */\n      jump\t// in\n    tag_186:\n        /* \"contracts/ModuleX.sol\":6342:6354  total_amount */\n      dup3\n        /* \"contracts/ModuleX.sol\":6309:6314  CREDI */\n      immutable(\"0xad444e1082e5d5bbfca385a9a566a2d71dbd349bb06a97871f0be4657884f8e0\")\n        /* \"contracts/ModuleX.sol\":6309:6327  CREDI.safeTransfer */\n      0xffffffffffffffffffffffffffffffffffffffff\n      and\n      tag_126\n      swap1\n        /* \"contracts/ModuleX.sol\":6309:6355  CREDI.safeTransfer(_msgSender(), total_amount) */\n      swap3\n      swap2\n      swap1\n      0xffffffff\n      and\n      jump\t// in\n    tag_185:\n        /* \"contracts/ModuleX.sol\":5730:6363  {... */\n      pop\n        /* \"contracts/ModuleX.sol\":5651:6363  function batchWithdrawCREDI(uint[] calldata stake_ids) external onlyOwner... */\n      pop\n      pop\n      jump\t// out\n        /* \"contracts/ModuleX.sol\":6371:6609  function addRewards(uint amount) external ... */\n    tag_78:\n        /* \"contracts/ModuleX.sol\":6448:6449  0 */\n      0x00\n        /* \"contracts/ModuleX.sol\":6439:6445  amount */\n      dup2\n        /* \"contracts/ModuleX.sol\":6439:6449  amount > 0 */\n      gt\n        /* \"contracts/ModuleX.sol\":6430:6495  require (amount > 0, \"ModuleX:amount must be greater than zero!\") */\n      tag_188\n      jumpi\n      mload(0x40)\n      0x08c379a000000000000000000000000000000000000000000000000000000000\n      dup2\n      mstore\n      0x04\n      add\n      tag_189\n      swap1\n      tag_147\n      jump\t// in\n    tag_189:\n      mload(0x40)\n      dup1\n      swap2\n      sub\n      swap1\n      revert\n    tag_188:\n        /* \"contracts/ModuleX.sol\":6506:6566  xCREDI.safeTransferFrom(_msgSender(), address(this), amount) */\n      tag_190\n        /* \"contracts/ModuleX.sol\":6530:6542  _msgSender() */\n      tag_191\n        /* \"contracts/ModuleX.sol\":6530:6540  _msgSender */\n      tag_112\n        /* \"contracts/ModuleX.sol\":6530:6542  _msgSender() */\n      jump\t// in\n    tag_191:\n        /* \"contracts/ModuleX.sol\":6552:6556  this */\n      address\n        /* \"contracts/ModuleX.sol\":6559:6565  amount */\n      dup4\n        /* \"contracts/ModuleX.sol\":6506:6512  xCREDI */\n      immutable(\"0x0d39e801c12a1db7a049a11375544bfecda5660c1466262d86703950d5bcb07f\")\n        /* \"contracts/ModuleX.sol\":6506:6529  xCREDI.safeTransferFrom */\n      0xffffffffffffffffffffffffffffffffffffffff\n      and\n      tag_192\n      swap1\n        /* \"contracts/ModuleX.sol\":6506:6566  xCREDI.safeTransferFrom(_msgSender(), address(this), amount) */\n      swap4\n      swap3\n      swap2\n      swap1\n      0xffffffff\n      and\n      jump\t// in\n    tag_190:\n        /* \"contracts/ModuleX.sol\":6582:6601  RewardAdded(amount) */\n      0xde88a922e0d3b88b24e9623efeb464919c6bf9f66857a65e2bfcf2ce87a9433d\n        /* \"contracts/ModuleX.sol\":6594:6600  amount */\n      dup2\n        /* \"contracts/ModuleX.sol\":6582:6601  RewardAdded(amount) */\n      mload(0x40)\n      tag_193\n      swap2\n      swap1\n      tag_30\n      jump\t// in\n    tag_193:\n      mload(0x40)\n      dup1\n      swap2\n      sub\n      swap1\n      log1\n        /* \"contracts/ModuleX.sol\":6371:6609  function addRewards(uint amount) external ... */\n      pop\n      jump\t// out\n        /* \"contracts/ModuleX.sol\":2040:2435  function getStake(uint stake_id) external validate_stake(stake_id) view ... */\n    tag_81:\n        /* \"contracts/ModuleX.sol\":2141:2154  address owner */\n      0x00\n        /* \"contracts/ModuleX.sol\":2165:2178  uint maturity */\n      0x00\n        /* \"contracts/ModuleX.sol\":2189:2206  uint stake_amount */\n      0x00\n        /* \"contracts/ModuleX.sol\":2217:2235  uint reward_amount */\n      0x00\n        /* \"contracts/ModuleX.sol\":2097:2105  stake_id */\n      dup5\n        /* \"contracts/ModuleX.sol\":1440:1441  0 */\n      0x00\n        /* \"contracts/ModuleX.sol\":1429:1437  stake_id */\n      dup2\n        /* \"contracts/ModuleX.sol\":1429:1441  stake_id > 0 */\n      gt\n        /* \"contracts/ModuleX.sol\":1429:1468  stake_id > 0 && stake_id < stakes_count */\n      dup1\n      iszero\n      tag_195\n      jumpi\n      pop\n        /* \"contracts/ModuleX.sol\":1456:1468  stakes_count */\n      sload(0x02)\n        /* \"contracts/ModuleX.sol\":1445:1453  stake_id */\n      dup2\n        /* \"contracts/ModuleX.sol\":1445:1468  stake_id < stakes_count */\n      lt\n        /* \"contracts/ModuleX.sol\":1429:1468  stake_id > 0 && stake_id < stakes_count */\n    tag_195:\n        /* \"contracts/ModuleX.sol\":1421:1498  require(stake_id > 0 && stake_id < stakes_count, \"ModuleX:Invalid Stake ID!\") */\n      tag_196\n      jumpi\n      mload(0x40)\n      0x08c379a000000000000000000000000000000000000000000000000000000000\n      dup2\n      mstore\n      0x04\n      add\n      tag_197\n      swap1\n      tag_109\n      jump\t// in\n    tag_197:\n      mload(0x40)\n      dup1\n      swap2\n      sub\n      swap1\n      revert\n    tag_196:\n        /* \"contracts/ModuleX.sol\":2275:2281  stakes */\n      0x01\n        /* \"contracts/ModuleX.sol\":2275:2291  stakes[stake_id] */\n      0x00\n        /* \"contracts/ModuleX.sol\":2282:2290  stake_id */\n      dup8\n        /* \"contracts/ModuleX.sol\":2275:2291  stakes[stake_id] */\n      dup2\n      mstore\n      0x20\n      add\n      swap1\n      dup2\n      mstore\n      0x20\n      add\n      0x00\n      keccak256\n        /* \"contracts/ModuleX.sol\":2275:2297  stakes[stake_id].owner */\n      0x00\n      add\n      0x00\n      swap1\n      sload\n      swap1\n      0x0100\n      exp\n      swap1\n      div\n      0xffffffffffffffffffffffffffffffffffffffff\n      and\n        /* \"contracts/ModuleX.sol\":2312:2318  stakes */\n      0x01\n        /* \"contracts/ModuleX.sol\":2312:2328  stakes[stake_id] */\n      0x00\n        /* \"contracts/ModuleX.sol\":2319:2327  stake_id */\n      dup9\n        /* \"contracts/ModuleX.sol\":2312:2328  stakes[stake_id] */\n      dup2\n      mstore\n      0x20\n      add\n      swap1\n      dup2\n      mstore\n      0x20\n      add\n      0x00\n      keccak256\n        /* \"contracts/ModuleX.sol\":2312:2337  stakes[stake_id].maturity */\n      0x00\n      add\n      0x14\n      swap1\n      sload\n      swap1\n      0x0100\n      exp\n      swap1\n      div\n      0xffffffffffffffffffffffff\n      and\n        /* \"contracts/ModuleX.sol\":2352:2358  stakes */\n      0x01\n        /* \"contracts/ModuleX.sol\":2352:2368  stakes[stake_id] */\n      0x00\n        /* \"contracts/ModuleX.sol\":2359:2367  stake_id */\n      dup10\n        /* \"contracts/ModuleX.sol\":2352:2368  stakes[stake_id] */\n      dup2\n      mstore\n      0x20\n      add\n      swap1\n      dup2\n      mstore\n      0x20\n      add\n      0x00\n      keccak256\n        /* \"contracts/ModuleX.sol\":2352:2381  stakes[stake_id].stake_amount */\n      0x01\n      add\n      sload\n        /* \"contracts/ModuleX.sol\":2396:2402  stakes */\n      0x01\n        /* \"contracts/ModuleX.sol\":2396:2412  stakes[stake_id] */\n      0x00\n        /* \"contracts/ModuleX.sol\":2403:2411  stake_id */\n      dup11\n        /* \"contracts/ModuleX.sol\":2396:2412  stakes[stake_id] */\n      dup2\n      mstore\n      0x20\n      add\n      swap1\n      dup2\n      mstore\n      0x20\n      add\n      0x00\n      keccak256\n        /* \"contracts/ModuleX.sol\":2396:2426  stakes[stake_id].reward_amount */\n      0x02\n      add\n      sload\n        /* \"contracts/ModuleX.sol\":2253:2427  return (... */\n      dup3\n      0xffffffffffffffffffffffff\n      and\n      swap3\n      pop\n      swap5\n      pop\n      swap5\n      pop\n      swap5\n      pop\n      swap5\n      pop\n        /* \"contracts/ModuleX.sol\":2040:2435  function getStake(uint stake_id) external validate_stake(stake_id) view ... */\n      pop\n      swap2\n      swap4\n      pop\n      swap2\n      swap4\n      jump\t// out\n        /* \"contracts/ModuleX.sol\":2554:3454  function calculateReward(uint stake_amount) public view returns(uint)... */\n    tag_86:\n        /* \"contracts/ModuleX.sol\":2618:2622  uint */\n      0x00\n        /* \"contracts/ModuleX.sol\":2641:2658  uint SCALE_FACTOR */\n      0x00\n        /* \"contracts/ModuleX.sol\":2661:2665  1e18 */\n      0x0de0b6b3a7640000\n        /* \"contracts/ModuleX.sol\":2641:2665  uint SCALE_FACTOR = 1e18 */\n      swap1\n      pop\n        /* \"contracts/ModuleX.sol\":2676:2691  uint curr_total */\n      0x00\n        /* \"contracts/ModuleX.sol\":2709:2721  stake_amount */\n      dup4\n        /* \"contracts/ModuleX.sol\":2694:2706  total_staked */\n      sload(0x03)\n        /* \"contracts/ModuleX.sol\":2694:2721  total_staked + stake_amount */\n      tag_200\n      swap2\n      swap1\n      tag_178\n      jump\t// in\n    tag_200:\n        /* \"contracts/ModuleX.sol\":2676:2721  uint curr_total = total_staked + stake_amount */\n      swap1\n      pop\n        /* \"contracts/ModuleX.sol\":2732:2742  uint low_d */\n      0x00\n        /* \"contracts/ModuleX.sol\":659:674  500000 * 10**18 */\n      0x69e10de76676d0800000\n        /* \"contracts/ModuleX.sol\":2745:2757  total_staked */\n      sload(0x03)\n        /* \"contracts/ModuleX.sol\":2745:2777  total_staked/DIFFICULTY_INTERVAL */\n      tag_201\n      swap2\n      swap1\n      tag_202\n      jump\t// in\n    tag_201:\n        /* \"contracts/ModuleX.sol\":2732:2777  uint low_d = total_staked/DIFFICULTY_INTERVAL */\n      swap1\n      pop\n        /* \"contracts/ModuleX.sol\":2788:2799  uint high_d */\n      0x00\n        /* \"contracts/ModuleX.sol\":659:674  500000 * 10**18 */\n      0x69e10de76676d0800000\n        /* \"contracts/ModuleX.sol\":2802:2812  curr_total */\n      dup4\n        /* \"contracts/ModuleX.sol\":2802:2832  curr_total/DIFFICULTY_INTERVAL */\n      tag_203\n      swap2\n      swap1\n      tag_202\n      jump\t// in\n    tag_203:\n        /* \"contracts/ModuleX.sol\":2788:2832  uint high_d = curr_total/DIFFICULTY_INTERVAL */\n      swap1\n      pop\n        /* \"contracts/ModuleX.sol\":2855:2861  high_d */\n      dup1\n        /* \"contracts/ModuleX.sol\":2846:2851  low_d */\n      dup3\n        /* \"contracts/ModuleX.sol\":2846:2861  low_d == high_d */\n      sub\n        /* \"contracts/ModuleX.sol\":2843:3447  if(low_d == high_d)... */\n      tag_204\n      jumpi\n        /* \"contracts/ModuleX.sol\":607:609  11 */\n      0x0b\n        /* \"contracts/ModuleX.sol\":2908:2913  low_d */\n      dup3\n        /* \"contracts/ModuleX.sol\":2908:2926  low_d + DIFFICULTY */\n      tag_205\n      swap2\n      swap1\n      tag_178\n      jump\t// in\n    tag_205:\n        /* \"contracts/ModuleX.sol\":2894:2906  stake_amount */\n      dup7\n        /* \"contracts/ModuleX.sol\":2894:2927  stake_amount/(low_d + DIFFICULTY) */\n      tag_206\n      swap2\n      swap1\n      tag_202\n      jump\t// in\n    tag_206:\n        /* \"contracts/ModuleX.sol\":2887:2927  return stake_amount/(low_d + DIFFICULTY) */\n      swap5\n      pop\n      pop\n      pop\n      pop\n      pop\n      jump(tag_199)\n        /* \"contracts/ModuleX.sol\":2843:3447  if(low_d == high_d)... */\n    tag_204:\n        /* \"contracts/ModuleX.sol\":2979:2989  uint low_r */\n      0x00\n        /* \"contracts/ModuleX.sol\":607:609  11 */\n      0x0b\n        /* \"contracts/ModuleX.sol\":3055:3060  low_d */\n      dup4\n        /* \"contracts/ModuleX.sol\":3055:3073  low_d + DIFFICULTY */\n      tag_208\n      swap2\n      swap1\n      tag_178\n      jump\t// in\n    tag_208:\n        /* \"contracts/ModuleX.sol\":3040:3052  total_staked */\n      sload(0x03)\n        /* \"contracts/ModuleX.sol\":659:674  500000 * 10**18 */\n      0x69e10de76676d0800000\n        /* \"contracts/ModuleX.sol\":3015:3016  1 */\n      0x01\n        /* \"contracts/ModuleX.sol\":3007:3012  low_d */\n      dup7\n        /* \"contracts/ModuleX.sol\":3007:3016  low_d + 1 */\n      tag_209\n      swap2\n      swap1\n      tag_178\n      jump\t// in\n    tag_209:\n        /* \"contracts/ModuleX.sol\":3006:3037  (low_d + 1)*DIFFICULTY_INTERVAL */\n      tag_210\n      swap2\n      swap1\n      tag_211\n      jump\t// in\n    tag_210:\n        /* \"contracts/ModuleX.sol\":3006:3052  (low_d + 1)*DIFFICULTY_INTERVAL - total_staked */\n      tag_212\n      swap2\n      swap1\n      tag_128\n      jump\t// in\n    tag_212:\n        /* \"contracts/ModuleX.sol\":2992:3004  SCALE_FACTOR */\n      dup7\n        /* \"contracts/ModuleX.sol\":2992:3053  SCALE_FACTOR*((low_d + 1)*DIFFICULTY_INTERVAL - total_staked) */\n      tag_213\n      swap2\n      swap1\n      tag_211\n      jump\t// in\n    tag_213:\n        /* \"contracts/ModuleX.sol\":2992:3074  SCALE_FACTOR*((low_d + 1)*DIFFICULTY_INTERVAL - total_staked)/(low_d + DIFFICULTY) */\n      tag_214\n      swap2\n      swap1\n      tag_202\n      jump\t// in\n    tag_214:\n        /* \"contracts/ModuleX.sol\":2979:3074  uint low_r = SCALE_FACTOR*((low_d + 1)*DIFFICULTY_INTERVAL - total_staked)/(low_d + DIFFICULTY) */\n      swap1\n      pop\n        /* \"contracts/ModuleX.sol\":3089:3100  uint high_r */\n      0x00\n        /* \"contracts/ModuleX.sol\":607:609  11 */\n      0x0b\n        /* \"contracts/ModuleX.sol\":3159:3165  high_d */\n      dup4\n        /* \"contracts/ModuleX.sol\":3159:3178  high_d + DIFFICULTY */\n      tag_215\n      swap2\n      swap1\n      tag_178\n      jump\t// in\n    tag_215:\n        /* \"contracts/ModuleX.sol\":659:674  500000 * 10**18 */\n      0x69e10de76676d0800000\n        /* \"contracts/ModuleX.sol\":3130:3136  high_d */\n      dup5\n        /* \"contracts/ModuleX.sol\":3130:3156  high_d*DIFFICULTY_INTERVAL */\n      tag_216\n      swap2\n      swap1\n      tag_211\n      jump\t// in\n    tag_216:\n        /* \"contracts/ModuleX.sol\":3117:3127  curr_total */\n      dup7\n        /* \"contracts/ModuleX.sol\":3117:3156  curr_total - high_d*DIFFICULTY_INTERVAL */\n      tag_217\n      swap2\n      swap1\n      tag_128\n      jump\t// in\n    tag_217:\n        /* \"contracts/ModuleX.sol\":3103:3115  SCALE_FACTOR */\n      dup8\n        /* \"contracts/ModuleX.sol\":3103:3157  SCALE_FACTOR*(curr_total - high_d*DIFFICULTY_INTERVAL) */\n      tag_218\n      swap2\n      swap1\n      tag_211\n      jump\t// in\n    tag_218:\n        /* \"contracts/ModuleX.sol\":3103:3179  SCALE_FACTOR*(curr_total - high_d*DIFFICULTY_INTERVAL)/(high_d + DIFFICULTY) */\n      tag_219\n      swap2\n      swap1\n      tag_202\n      jump\t// in\n    tag_219:\n        /* \"contracts/ModuleX.sol\":3089:3179  uint high_r = SCALE_FACTOR*(curr_total - high_d*DIFFICULTY_INTERVAL)/(high_d + DIFFICULTY) */\n      swap1\n      pop\n        /* \"contracts/ModuleX.sol\":3194:3207  uint middle_r */\n      0x00\n        /* \"contracts/ModuleX.sol\":3210:3211  0 */\n      0x00\n        /* \"contracts/ModuleX.sol\":3194:3211  uint middle_r = 0 */\n      swap1\n      pop\n        /* \"contracts/ModuleX.sol\":3230:3236  uint i */\n      0x00\n        /* \"contracts/ModuleX.sol\":3245:3246  1 */\n      0x01\n        /* \"contracts/ModuleX.sol\":3237:3242  low_d */\n      dup7\n        /* \"contracts/ModuleX.sol\":3237:3246  low_d + 1 */\n      tag_223\n      swap2\n      swap1\n      tag_178\n      jump\t// in\n    tag_223:\n        /* \"contracts/ModuleX.sol\":3230:3246  uint i=low_d + 1 */\n      swap1\n      pop\n        /* \"contracts/ModuleX.sol\":3226:3374  for(uint i=low_d + 1; i < high_d; i++)... */\n    tag_220:\n        /* \"contracts/ModuleX.sol\":3252:3258  high_d */\n      dup5\n        /* \"contracts/ModuleX.sol\":3248:3249  i */\n      dup2\n        /* \"contracts/ModuleX.sol\":3248:3258  i < high_d */\n      lt\n        /* \"contracts/ModuleX.sol\":3226:3374  for(uint i=low_d + 1; i < high_d; i++)... */\n      iszero\n      tag_221\n      jumpi\n        /* \"contracts/ModuleX.sol\":607:609  11 */\n      0x0b\n        /* \"contracts/ModuleX.sol\":3343:3344  i */\n      dup2\n        /* \"contracts/ModuleX.sol\":3343:3357  i + DIFFICULTY */\n      tag_224\n      swap2\n      swap1\n      tag_178\n      jump\t// in\n    tag_224:\n        /* \"contracts/ModuleX.sol\":659:674  500000 * 10**18 */\n      0x69e10de76676d0800000\n        /* \"contracts/ModuleX.sol\":3309:3321  SCALE_FACTOR */\n      dup10\n        /* \"contracts/ModuleX.sol\":3309:3341  SCALE_FACTOR*DIFFICULTY_INTERVAL */\n      tag_225\n      swap2\n      swap1\n      tag_211\n      jump\t// in\n    tag_225:\n        /* \"contracts/ModuleX.sol\":3309:3358  SCALE_FACTOR*DIFFICULTY_INTERVAL/(i + DIFFICULTY) */\n      tag_226\n      swap2\n      swap1\n      tag_202\n      jump\t// in\n    tag_226:\n        /* \"contracts/ModuleX.sol\":3297:3358  middle_r += SCALE_FACTOR*DIFFICULTY_INTERVAL/(i + DIFFICULTY) */\n      dup3\n      tag_227\n      swap2\n      swap1\n      tag_178\n      jump\t// in\n    tag_227:\n      swap2\n      pop\n        /* \"contracts/ModuleX.sol\":3260:3263  i++ */\n      dup1\n      dup1\n      0x01\n      add\n      swap2\n      pop\n      pop\n        /* \"contracts/ModuleX.sol\":3226:3374  for(uint i=low_d + 1; i < high_d; i++)... */\n      jump(tag_220)\n    tag_221:\n      pop\n        /* \"contracts/ModuleX.sol\":3423:3435  SCALE_FACTOR */\n      dup7\n        /* \"contracts/ModuleX.sol\":3415:3421  high_r */\n      dup3\n        /* \"contracts/ModuleX.sol\":3404:3412  middle_r */\n      dup3\n        /* \"contracts/ModuleX.sol\":3396:3401  low_r */\n      dup6\n        /* \"contracts/ModuleX.sol\":3396:3412  low_r + middle_r */\n      tag_228\n      swap2\n      swap1\n      tag_178\n      jump\t// in\n    tag_228:\n        /* \"contracts/ModuleX.sol\":3396:3421  low_r + middle_r + high_r */\n      tag_229\n      swap2\n      swap1\n      tag_178\n      jump\t// in\n    tag_229:\n        /* \"contracts/ModuleX.sol\":3395:3435  (low_r + middle_r + high_r)/SCALE_FACTOR */\n      tag_230\n      swap2\n      swap1\n      tag_202\n      jump\t// in\n    tag_230:\n        /* \"contracts/ModuleX.sol\":3388:3435  return (low_r + middle_r + high_r)/SCALE_FACTOR */\n      swap8\n      pop\n      pop\n      pop\n      pop\n      pop\n      pop\n      pop\n      pop\n        /* \"contracts/ModuleX.sol\":2554:3454  function calculateReward(uint stake_amount) public view returns(uint)... */\n    tag_199:\n      swap2\n      swap1\n      pop\n      jump\t// out\n        /* \"contracts/ModuleX.sol\":1707:1810  function getCREDIAddress() external view returns(address)... */\n    tag_89:\n        /* \"contracts/ModuleX.sol\":1756:1763  address */\n      0x00\n        /* \"contracts/ModuleX.sol\":1796:1801  CREDI */\n      immutable(\"0xad444e1082e5d5bbfca385a9a566a2d71dbd349bb06a97871f0be4657884f8e0\")\n        /* \"contracts/ModuleX.sol\":1781:1802  return address(CREDI) */\n      swap1\n      pop\n        /* \"contracts/ModuleX.sol\":1707:1810  function getCREDIAddress() external view returns(address)... */\n      swap1\n      jump\t// out\n        /* \"contracts/ModuleX.sol\":6617:6897  function withdrawRewards(address to, uint amount) external onlyOwner... */\n    tag_94:\n        /* \"@openzeppelin/contracts/access/Ownable.sol\":1531:1544  _checkOwner() */\n      tag_233\n        /* \"@openzeppelin/contracts/access/Ownable.sol\":1531:1542  _checkOwner */\n      tag_132\n        /* \"@openzeppelin/contracts/access/Ownable.sol\":1531:1544  _checkOwner() */\n      jump\t// in\n    tag_233:\n        /* \"contracts/ModuleX.sol\":6754:6770  pending_payments */\n      sload(0x04)\n        /* \"contracts/ModuleX.sol\":6745:6751  amount */\n      dup2\n        /* \"contracts/ModuleX.sol\":6745:6770  amount + pending_payments */\n      tag_235\n      swap2\n      swap1\n      tag_178\n      jump\t// in\n    tag_235:\n        /* \"contracts/ModuleX.sol\":6710:6716  xCREDI */\n      immutable(\"0x0d39e801c12a1db7a049a11375544bfecda5660c1466262d86703950d5bcb07f\")\n        /* \"contracts/ModuleX.sol\":6710:6726  xCREDI.balanceOf */\n      0xffffffffffffffffffffffffffffffffffffffff\n      and\n      0x70a08231\n        /* \"contracts/ModuleX.sol\":6735:6739  this */\n      address\n        /* \"contracts/ModuleX.sol\":6710:6741  xCREDI.balanceOf(address(this)) */\n      mload(0x40)\n      dup3\n      0xffffffff\n      and\n      0xe0\n      shl\n      dup2\n      mstore\n      0x04\n      add\n      tag_236\n      swap2\n      swap1\n      tag_48\n      jump\t// in\n    tag_236:\n      0x20\n      mload(0x40)\n      dup1\n      dup4\n      sub\n      dup2\n      dup7\n      gas\n      staticcall\n      iszero\n      dup1\n      iszero\n      tag_238\n      jumpi\n      returndatacopy(0x00, 0x00, returndatasize)\n      revert(0x00, returndatasize)\n    tag_238:\n      pop\n      pop\n      pop\n      pop\n      mload(0x40)\n      returndatasize\n      not(0x1f)\n      0x1f\n      dup3\n      add\n      and\n      dup3\n      add\n      dup1\n      0x40\n      mstore\n      pop\n      dup2\n      add\n      swap1\n      tag_239\n      swap2\n      swap1\n      tag_240\n      jump\t// in\n    tag_239:\n        /* \"contracts/ModuleX.sol\":6710:6770  xCREDI.balanceOf(address(this)) >= amount + pending_payments */\n      lt\n      iszero\n        /* \"contracts/ModuleX.sol\":6702:6804  require(xCREDI.balanceOf(address(this)) >= amount + pending_payments, \"ModuleX:Insufficient balance!\") */\n      tag_241\n      jumpi\n      mload(0x40)\n      0x08c379a000000000000000000000000000000000000000000000000000000000\n      dup2\n      mstore\n      0x04\n      add\n      tag_242\n      swap1\n      tag_154\n      jump\t// in\n    tag_242:\n      mload(0x40)\n      dup1\n      swap2\n      sub\n      swap1\n      revert\n    tag_241:\n        /* \"contracts/ModuleX.sol\":6815:6846  xCREDI.safeTransfer(to, amount) */\n      tag_243\n        /* \"contracts/ModuleX.sol\":6835:6837  to */\n      dup3\n        /* \"contracts/ModuleX.sol\":6839:6845  amount */\n      dup3\n        /* \"contracts/ModuleX.sol\":6815:6821  xCREDI */\n      immutable(\"0x0d39e801c12a1db7a049a11375544bfecda5660c1466262d86703950d5bcb07f\")\n        /* \"contracts/ModuleX.sol\":6815:6834  xCREDI.safeTransfer */\n      0xffffffffffffffffffffffffffffffffffffffff\n      and\n      tag_126\n      swap1\n        /* \"contracts/ModuleX.sol\":6815:6846  xCREDI.safeTransfer(to, amount) */\n      swap3\n      swap2\n      swap1\n      0xffffffff\n      and\n      jump\t// in\n    tag_243:\n        /* \"contracts/ModuleX.sol\":6878:6880  to */\n      dup2\n        /* \"contracts/ModuleX.sol\":6862:6889  RewardWithdrawn(to, amount) */\n      0xffffffffffffffffffffffffffffffffffffffff\n      and\n      0x1d3eee4ca001cff39eec6ec7615aacf2f2bd61791273830728ba00ccbd6e1337\n        /* \"contracts/ModuleX.sol\":6882:6888  amount */\n      dup3\n        /* \"contracts/ModuleX.sol\":6862:6889  RewardWithdrawn(to, amount) */\n      mload(0x40)\n      tag_244\n      swap2\n      swap1\n      tag_30\n      jump\t// in\n    tag_244:\n      mload(0x40)\n      dup1\n      swap2\n      sub\n      swap1\n      log2\n        /* \"contracts/ModuleX.sol\":6617:6897  function withdrawRewards(address to, uint amount) external onlyOwner... */\n      pop\n      pop\n      jump\t// out\n        /* \"contracts/ModuleX.sol\":3462:4402  function stake(uint96 lock_period, uint stake_amount) external returns(uint, uint)... */\n    tag_98:\n        /* \"contracts/ModuleX.sol\":3533:3537  uint */\n      0x00\n        /* \"contracts/ModuleX.sol\":3539:3543  uint */\n      0x00\n        /* \"contracts/ModuleX.sol\":3584:3585  0 */\n      0x00\n        /* \"contracts/ModuleX.sol\":3569:3581  stake_amount */\n      dup4\n        /* \"contracts/ModuleX.sol\":3569:3585  stake_amount > 0 */\n      gt\n        /* \"contracts/ModuleX.sol\":3561:3634  require(stake_amount > 0, \"ModuleX:Stake amount must be greater than 0!\") */\n      tag_246\n      jumpi\n      mload(0x40)\n      0x08c379a000000000000000000000000000000000000000000000000000000000\n      dup2\n      mstore\n      0x04\n      add\n      tag_247\n      swap1\n      tag_248\n      jump\t// in\n    tag_247:\n      mload(0x40)\n      dup1\n      swap2\n      sub\n      swap1\n      revert\n    tag_246:\n        /* \"contracts/ModuleX.sol\":542:553  180 minutes */\n      0x2a30\n        /* \"contracts/ModuleX.sol\":3653:3676  lock_period >= MATURITY */\n      0xffffffffffffffffffffffff\n      and\n        /* \"contracts/ModuleX.sol\":3653:3664  lock_period */\n      dup5\n        /* \"contracts/ModuleX.sol\":3653:3676  lock_period >= MATURITY */\n      0xffffffffffffffffffffffff\n      and\n      lt\n      iszero\n        /* \"contracts/ModuleX.sol\":3645:3712  require(lock_period >= MATURITY, \"ModuleX:Use longer lock_period!\") */\n      tag_249\n      jumpi\n      mload(0x40)\n      0x08c379a000000000000000000000000000000000000000000000000000000000\n      dup2\n      mstore\n      0x04\n      add\n      tag_250\n      swap1\n      tag_251\n      jump\t// in\n    tag_250:\n      mload(0x40)\n      dup1\n      swap2\n      sub\n      swap1\n      revert\n    tag_249:\n        /* \"contracts/ModuleX.sol\":3723:3788  CREDI.safeTransferFrom(_msgSender(), address(this), stake_amount) */\n      tag_252\n        /* \"contracts/ModuleX.sol\":3746:3758  _msgSender() */\n      tag_253\n        /* \"contracts/ModuleX.sol\":3746:3756  _msgSender */\n      tag_112\n        /* \"contracts/ModuleX.sol\":3746:3758  _msgSender() */\n      jump\t// in\n    tag_253:\n        /* \"contracts/ModuleX.sol\":3768:3772  this */\n      address\n        /* \"contracts/ModuleX.sol\":3775:3787  stake_amount */\n      dup6\n        /* \"contracts/ModuleX.sol\":3723:3728  CREDI */\n      immutable(\"0xad444e1082e5d5bbfca385a9a566a2d71dbd349bb06a97871f0be4657884f8e0\")\n        /* \"contracts/ModuleX.sol\":3723:3745  CREDI.safeTransferFrom */\n      0xffffffffffffffffffffffffffffffffffffffff\n      and\n      tag_192\n      swap1\n        /* \"contracts/ModuleX.sol\":3723:3788  CREDI.safeTransferFrom(_msgSender(), address(this), stake_amount) */\n      swap4\n      swap3\n      swap2\n      swap1\n      0xffffffff\n      and\n      jump\t// in\n    tag_252:\n        /* \"contracts/ModuleX.sol\":3800:3815  uint96 maturity */\n      0x00\n        /* \"contracts/ModuleX.sol\":3831:3842  lock_period */\n      dup5\n        /* \"contracts/ModuleX.sol\":3818:3828  time_now() */\n      tag_254\n        /* \"contracts/ModuleX.sol\":3818:3826  time_now */\n      tag_117\n        /* \"contracts/ModuleX.sol\":3818:3828  time_now() */\n      jump\t// in\n    tag_254:\n        /* \"contracts/ModuleX.sol\":3818:3842  time_now() + lock_period */\n      tag_255\n      swap2\n      swap1\n      tag_256\n      jump\t// in\n    tag_255:\n        /* \"contracts/ModuleX.sol\":3800:3842  uint96 maturity = time_now() + lock_period */\n      swap1\n      pop\n        /* \"contracts/ModuleX.sol\":3853:3871  uint reward_amount */\n      0x00\n        /* \"contracts/ModuleX.sol\":3874:3903  calculateReward(stake_amount) */\n      tag_257\n        /* \"contracts/ModuleX.sol\":3890:3902  stake_amount */\n      dup6\n        /* \"contracts/ModuleX.sol\":3874:3889  calculateReward */\n      tag_86\n        /* \"contracts/ModuleX.sol\":3874:3903  calculateReward(stake_amount) */\n      jump\t// in\n    tag_257:\n        /* \"contracts/ModuleX.sol\":3853:3903  uint reward_amount = calculateReward(stake_amount) */\n      swap1\n      pop\n        /* \"contracts/ModuleX.sol\":3914:3927  uint stake_id */\n      0x00\n        /* \"contracts/ModuleX.sol\":3930:3942  stakes_count */\n      sload(0x02)\n        /* \"contracts/ModuleX.sol\":3914:3942  uint stake_id = stakes_count */\n      swap1\n      pop\n        /* \"contracts/ModuleX.sol\":3972:4148  StakeDetails({... */\n      mload(0x40)\n      dup1\n      0x80\n      add\n      0x40\n      mstore\n      dup1\n        /* \"contracts/ModuleX.sol\":4007:4019  _msgSender() */\n      tag_258\n        /* \"contracts/ModuleX.sol\":4007:4017  _msgSender */\n      tag_112\n        /* \"contracts/ModuleX.sol\":4007:4019  _msgSender() */\n      jump\t// in\n    tag_258:\n        /* \"contracts/ModuleX.sol\":3972:4148  StakeDetails({... */\n      0xffffffffffffffffffffffffffffffffffffffff\n      and\n      dup2\n      mstore\n      0x20\n      add\n        /* \"contracts/ModuleX.sol\":4044:4052  maturity */\n      dup5\n        /* \"contracts/ModuleX.sol\":3972:4148  StakeDetails({... */\n      0xffffffffffffffffffffffff\n      and\n      dup2\n      mstore\n      0x20\n      add\n        /* \"contracts/ModuleX.sol\":4081:4093  stake_amount */\n      dup8\n        /* \"contracts/ModuleX.sol\":3972:4148  StakeDetails({... */\n      dup2\n      mstore\n      0x20\n      add\n        /* \"contracts/ModuleX.sol\":4123:4136  reward_amount */\n      dup4\n        /* \"contracts/ModuleX.sol\":3972:4148  StakeDetails({... */\n      dup2\n      mstore\n      pop\n        /* \"contracts/ModuleX.sol\":3953:3959  stakes */\n      0x01\n        /* \"contracts/ModuleX.sol\":3953:3969  stakes[stake_id] */\n      0x00\n        /* \"contracts/ModuleX.sol\":3960:3968  stake_id */\n      dup4\n        /* \"contracts/ModuleX.sol\":3953:3969  stakes[stake_id] */\n      dup2\n      mstore\n      0x20\n      add\n      swap1\n      dup2\n      mstore\n      0x20\n      add\n      0x00\n      keccak256\n        /* \"contracts/ModuleX.sol\":3953:4148  stakes[stake_id] = StakeDetails({... */\n      0x00\n      dup3\n      add\n      mload\n      dup2\n      0x00\n      add\n      exp(0x0100, 0x00)\n      dup2\n      sload\n      dup2\n      0xffffffffffffffffffffffffffffffffffffffff\n      mul\n      not\n      and\n      swap1\n      dup4\n      0xffffffffffffffffffffffffffffffffffffffff\n      and\n      mul\n      or\n      swap1\n      sstore\n      pop\n      0x20\n      dup3\n      add\n      mload\n      dup2\n      0x00\n      add\n      exp(0x0100, 0x14)\n      dup2\n      sload\n      dup2\n      0xffffffffffffffffffffffff\n      mul\n      not\n      and\n      swap1\n      dup4\n      0xffffffffffffffffffffffff\n      and\n      mul\n      or\n      swap1\n      sstore\n      pop\n      0x40\n      dup3\n      add\n      mload\n      dup2\n      0x01\n      add\n      sstore\n      0x60\n      dup3\n      add\n      mload\n      dup2\n      0x02\n      add\n      sstore\n      swap1\n      pop\n      pop\n        /* \"contracts/ModuleX.sol\":4185:4197  stake_amount */\n      dup6\n        /* \"contracts/ModuleX.sol\":4169:4181  total_staked */\n      0x03\n      0x00\n        /* \"contracts/ModuleX.sol\":4169:4197  total_staked += stake_amount */\n      dup3\n      dup3\n      sload\n      tag_259\n      swap2\n      swap1\n      tag_178\n      jump\t// in\n    tag_259:\n      swap3\n      pop\n      pop\n      dup2\n      swap1\n      sstore\n      pop\n        /* \"contracts/ModuleX.sol\":4229:4242  reward_amount */\n      dup2\n        /* \"contracts/ModuleX.sol\":4209:4225  pending_payments */\n      0x04\n      0x00\n        /* \"contracts/ModuleX.sol\":4209:4242  pending_payments += reward_amount */\n      dup3\n      dup3\n      sload\n      tag_260\n      swap2\n      swap1\n      tag_178\n      jump\t// in\n    tag_260:\n      swap3\n      pop\n      pop\n      dup2\n      swap1\n      sstore\n      pop\n        /* \"contracts/ModuleX.sol\":4265:4277  _msgSender() */\n      tag_261\n        /* \"contracts/ModuleX.sol\":4265:4275  _msgSender */\n      tag_112\n        /* \"contracts/ModuleX.sol\":4265:4277  _msgSender() */\n      jump\t// in\n    tag_261:\n        /* \"contracts/ModuleX.sol\":4258:4327  Staked(_msgSender(), stake_id, maturity, stake_amount, reward_amount) */\n      0xffffffffffffffffffffffffffffffffffffffff\n      and\n      0x24fe2d25c10eb2c67b5ac1e3edbcadc94191e154ed388ad667a9480c44f47146\n        /* \"contracts/ModuleX.sol\":4279:4287  stake_id */\n      dup3\n        /* \"contracts/ModuleX.sol\":4289:4297  maturity */\n      dup6\n        /* \"contracts/ModuleX.sol\":4299:4311  stake_amount */\n      dup10\n        /* \"contracts/ModuleX.sol\":4313:4326  reward_amount */\n      dup7\n        /* \"contracts/ModuleX.sol\":4258:4327  Staked(_msgSender(), stake_id, maturity, stake_amount, reward_amount) */\n      mload(0x40)\n      tag_262\n      swap5\n      swap4\n      swap3\n      swap2\n      swap1\n      tag_263\n      jump\t// in\n    tag_262:\n      mload(0x40)\n      dup1\n      swap2\n      sub\n      swap1\n      log2\n        /* \"contracts/ModuleX.sol\":4338:4350  stakes_count */\n      0x02\n      0x00\n        /* \"contracts/ModuleX.sol\":4338:4352  stakes_count++ */\n      dup2\n      sload\n      dup1\n      swap3\n      swap2\n      swap1\n      tag_264\n      swap1\n      tag_265\n      jump\t// in\n    tag_264:\n      swap2\n      swap1\n      pop\n      sstore\n      pop\n        /* \"contracts/ModuleX.sol\":4370:4378  stake_id */\n      dup1\n        /* \"contracts/ModuleX.sol\":4380:4393  reward_amount */\n      dup3\n        /* \"contracts/ModuleX.sol\":4363:4394  return(stake_id, reward_amount) */\n      swap5\n      pop\n      swap5\n      pop\n      pop\n      pop\n      pop\n        /* \"contracts/ModuleX.sol\":3462:4402  function stake(uint96 lock_period, uint stake_amount) external returns(uint, uint)... */\n      swap3\n      pop\n      swap3\n      swap1\n      pop\n      jump\t// out\n        /* \"@openzeppelin/contracts/access/Ownable.sol\":2543:2758  function transferOwnership(address newOwner) public virtual onlyOwner {... */\n    tag_104:\n        /* \"@openzeppelin/contracts/access/Ownable.sol\":1531:1544  _checkOwner() */\n      tag_267\n        /* \"@openzeppelin/contracts/access/Ownable.sol\":1531:1542  _checkOwner */\n      tag_132\n        /* \"@openzeppelin/contracts/access/Ownable.sol\":1531:1544  _checkOwner() */\n      jump\t// in\n    tag_267:\n        /* \"@openzeppelin/contracts/access/Ownable.sol\":2647:2648  0 */\n      0x00\n        /* \"@openzeppelin/contracts/access/Ownable.sol\":2627:2649  newOwner == address(0) */\n      0xffffffffffffffffffffffffffffffffffffffff\n      and\n        /* \"@openzeppelin/contracts/access/Ownable.sol\":2627:2635  newOwner */\n      dup2\n        /* \"@openzeppelin/contracts/access/Ownable.sol\":2627:2649  newOwner == address(0) */\n      0xffffffffffffffffffffffffffffffffffffffff\n      and\n      sub\n        /* \"@openzeppelin/contracts/access/Ownable.sol\":2623:2714  if (newOwner == address(0)) {... */\n      tag_269\n      jumpi\n        /* \"@openzeppelin/contracts/access/Ownable.sol\":2700:2701  0 */\n      0x00\n        /* \"@openzeppelin/contracts/access/Ownable.sol\":2672:2703  OwnableInvalidOwner(address(0)) */\n      mload(0x40)\n      0x1e4fbdf700000000000000000000000000000000000000000000000000000000\n      dup2\n      mstore\n      0x04\n      add\n      tag_270\n      swap2\n      swap1\n      tag_48\n      jump\t// in\n    tag_270:\n      mload(0x40)\n      dup1\n      swap2\n      sub\n      swap1\n      revert\n        /* \"@openzeppelin/contracts/access/Ownable.sol\":2623:2714  if (newOwner == address(0)) {... */\n    tag_269:\n        /* \"@openzeppelin/contracts/access/Ownable.sol\":2723:2751  _transferOwnership(newOwner) */\n      tag_271\n        /* \"@openzeppelin/contracts/access/Ownable.sol\":2742:2750  newOwner */\n      dup2\n        /* \"@openzeppelin/contracts/access/Ownable.sol\":2723:2741  _transferOwnership */\n      tag_135\n        /* \"@openzeppelin/contracts/access/Ownable.sol\":2723:2751  _transferOwnership(newOwner) */\n      jump\t// in\n    tag_271:\n        /* \"@openzeppelin/contracts/access/Ownable.sol\":2543:2758  function transferOwnership(address newOwner) public virtual onlyOwner {... */\n      pop\n      jump\t// out\n        /* \"@openzeppelin/contracts/utils/Context.sol\":656:752  function _msgSender() internal view virtual returns (address) {... */\n    tag_112:\n        /* \"@openzeppelin/contracts/utils/Context.sol\":709:716  address */\n      0x00\n        /* \"@openzeppelin/contracts/utils/Context.sol\":735:745  msg.sender */\n      caller\n        /* \"@openzeppelin/contracts/utils/Context.sol\":728:745  return msg.sender */\n      swap1\n      pop\n        /* \"@openzeppelin/contracts/utils/Context.sol\":656:752  function _msgSender() internal view virtual returns (address) {... */\n      swap1\n      jump\t// out\n        /* \"contracts/ModuleX.sol\":2443:2546  function time_now() private view returns(uint96)... */\n    tag_117:\n        /* \"contracts/ModuleX.sol\":2484:2490  uint96 */\n      0x00\n        /* \"contracts/ModuleX.sol\":2522:2537  block.timestamp */\n      timestamp\n        /* \"contracts/ModuleX.sol\":2508:2538  return uint96(block.timestamp) */\n      swap1\n      pop\n        /* \"contracts/ModuleX.sol\":2443:2546  function time_now() private view returns(uint96)... */\n      swap1\n      jump\t// out\n        /* \"@openzeppelin/contracts/token/ERC20/utils/SafeERC20.sol\":1219:1379  function safeTransfer(IERC20 token, address to, uint256 value) internal {... */\n    tag_126:\n        /* \"@openzeppelin/contracts/token/ERC20/utils/SafeERC20.sol\":1301:1372  _callOptionalReturn(token, abi.encodeCall(token.transfer, (to, value))) */\n      tag_275\n        /* \"@openzeppelin/contracts/token/ERC20/utils/SafeERC20.sol\":1321:1326  token */\n      dup4\n        /* \"@openzeppelin/contracts/token/ERC20/utils/SafeERC20.sol\":1343:1348  token */\n      dup5\n        /* \"@openzeppelin/contracts/token/ERC20/utils/SafeERC20.sol\":1343:1357  token.transfer */\n      0xffffffffffffffffffffffffffffffffffffffff\n      and\n      0xa9059cbb\n        /* \"@openzeppelin/contracts/token/ERC20/utils/SafeERC20.sol\":1360:1362  to */\n      dup6\n        /* \"@openzeppelin/contracts/token/ERC20/utils/SafeERC20.sol\":1364:1369  value */\n      dup6\n        /* \"@openzeppelin/contracts/token/ERC20/utils/SafeERC20.sol\":1328:1371  abi.encodeCall(token.transfer, (to, value)) */\n      add(0x24, mload(0x40))\n      tag_276\n      swap3\n      swap2\n      swap1\n      tag_277\n      jump\t// in\n    tag_276:\n      mload(0x40)\n      0x20\n      dup2\n      dup4\n      sub\n      sub\n      dup2\n      mstore\n      swap1\n      0x40\n      mstore\n      swap2\n      pop\n      0xe0\n      shl\n      0x20\n      dup3\n      add\n      dup1\n      mload\n      0xffffffffffffffffffffffffffffffffffffffffffffffffffffffff\n      dup4\n      dup2\n      dup4\n      and\n      or\n      dup4\n      mstore\n      pop\n      pop\n      pop\n      pop\n        /* \"@openzeppelin/contracts/token/ERC20/utils/SafeERC20.sol\":1301:1320  _callOptionalReturn */\n      tag_278\n        /* \"@openzeppelin/contracts/token/ERC20/utils/SafeERC20.sol\":1301:1372  _callOptionalReturn(token, abi.encodeCall(token.transfer, (to, value))) */\n      jump\t// in\n    tag_275:\n        /* \"@openzeppelin/contracts/token/ERC20/utils/SafeERC20.sol\":1219:1379  function safeTransfer(IERC20 token, address to, uint256 value) internal {... */\n      pop\n      pop\n      pop\n      jump\t// out\n        /* \"@openzeppelin/contracts/access/Ownable.sol\":1796:1958  function _checkOwner() internal view virtual {... */\n    tag_132:\n        /* \"@openzeppelin/contracts/access/Ownable.sol\":1866:1878  _msgSender() */\n      tag_280\n        /* \"@openzeppelin/contracts/access/Ownable.sol\":1866:1876  _msgSender */\n      tag_112\n        /* \"@openzeppelin/contracts/access/Ownable.sol\":1866:1878  _msgSender() */\n      jump\t// in\n    tag_280:\n        /* \"@openzeppelin/contracts/access/Ownable.sol\":1855:1878  owner() != _msgSender() */\n      0xffffffffffffffffffffffffffffffffffffffff\n      and\n        /* \"@openzeppelin/contracts/access/Ownable.sol\":1855:1862  owner() */\n      tag_281\n        /* \"@openzeppelin/contracts/access/Ownable.sol\":1855:1860  owner */\n      tag_50\n        /* \"@openzeppelin/contracts/access/Ownable.sol\":1855:1862  owner() */\n      jump\t// in\n    tag_281:\n        /* \"@openzeppelin/contracts/access/Ownable.sol\":1855:1878  owner() != _msgSender() */\n      0xffffffffffffffffffffffffffffffffffffffff\n      and\n      eq\n        /* \"@openzeppelin/contracts/access/Ownable.sol\":1851:1952  if (owner() != _msgSender()) {... */\n      tag_282\n      jumpi\n        /* \"@openzeppelin/contracts/access/Ownable.sol\":1928:1940  _msgSender() */\n      tag_283\n        /* \"@openzeppelin/contracts/access/Ownable.sol\":1928:1938  _msgSender */\n      tag_112\n        /* \"@openzeppelin/contracts/access/Ownable.sol\":1928:1940  _msgSender() */\n      jump\t// in\n    tag_283:\n        /* \"@openzeppelin/contracts/access/Ownable.sol\":1901:1941  OwnableUnauthorizedAccount(_msgSender()) */\n      mload(0x40)\n      0x118cdaa700000000000000000000000000000000000000000000000000000000\n      dup2\n      mstore\n      0x04\n      add\n      tag_284\n      swap2\n      swap1\n      tag_48\n      jump\t// in\n    tag_284:\n      mload(0x40)\n      dup1\n      swap2\n      sub\n      swap1\n      revert\n        /* \"@openzeppelin/contracts/access/Ownable.sol\":1851:1952  if (owner() != _msgSender()) {... */\n    tag_282:\n        /* \"@openzeppelin/contracts/access/Ownable.sol\":1796:1958  function _checkOwner() internal view virtual {... */\n      jump\t// out\n        /* \"@openzeppelin/contracts/access/Ownable.sol\":2912:3099  function _transferOwnership(address newOwner) internal virtual {... */\n    tag_135:\n        /* \"@openzeppelin/contracts/access/Ownable.sol\":2985:3001  address oldOwner */\n      0x00\n        /* \"@openzeppelin/contracts/access/Ownable.sol\":3004:3010  _owner */\n      0x00\n      0x00\n      swap1\n      sload\n      swap1\n      0x0100\n      exp\n      swap1\n      div\n      0xffffffffffffffffffffffffffffffffffffffff\n      and\n        /* \"@openzeppelin/contracts/access/Ownable.sol\":2985:3010  address oldOwner = _owner */\n      swap1\n      pop\n        /* \"@openzeppelin/contracts/access/Ownable.sol\":3029:3037  newOwner */\n      dup2\n        /* \"@openzeppelin/contracts/access/Ownable.sol\":3020:3026  _owner */\n      0x00\n      0x00\n        /* \"@openzeppelin/contracts/access/Ownable.sol\":3020:3037  _owner = newOwner */\n      0x0100\n      exp\n      dup2\n      sload\n      dup2\n      0xffffffffffffffffffffffffffffffffffffffff\n      mul\n      not\n      and\n      swap1\n      dup4\n      0xffffffffffffffffffffffffffffffffffffffff\n      and\n      mul\n      or\n      swap1\n      sstore\n      pop\n        /* \"@openzeppelin/contracts/access/Ownable.sol\":3083:3091  newOwner */\n      dup2\n        /* \"@openzeppelin/contracts/access/Ownable.sol\":3052:3092  OwnershipTransferred(oldOwner, newOwner) */\n      0xffffffffffffffffffffffffffffffffffffffff\n      and\n        /* \"@openzeppelin/contracts/access/Ownable.sol\":3073:3081  oldOwner */\n      dup2\n        /* \"@openzeppelin/contracts/access/Ownable.sol\":3052:3092  OwnershipTransferred(oldOwner, newOwner) */\n      0xffffffffffffffffffffffffffffffffffffffff\n      and\n      0x8be0079c531659141344cd1fd0a4f28419497f9722a3daafe3b4186f6b6457e0\n      mload(0x40)\n      mload(0x40)\n      dup1\n      swap2\n      sub\n      swap1\n      log3\n        /* \"@openzeppelin/contracts/access/Ownable.sol\":2975:3099  {... */\n      pop\n        /* \"@openzeppelin/contracts/access/Ownable.sol\":2912:3099  function _transferOwnership(address newOwner) internal virtual {... */\n      pop\n      jump\t// out\n        /* \"@openzeppelin/contracts/token/ERC20/utils/SafeERC20.sol\":1618:1806  function safeTransferFrom(IERC20 token, address from, address to, uint256 value) internal {... */\n    tag_192:\n        /* \"@openzeppelin/contracts/token/ERC20/utils/SafeERC20.sol\":1718:1799  _callOptionalReturn(token, abi.encodeCall(token.transferFrom, (from, to, value))) */\n      tag_287\n        /* \"@openzeppelin/contracts/token/ERC20/utils/SafeERC20.sol\":1738:1743  token */\n      dup5\n        /* \"@openzeppelin/contracts/token/ERC20/utils/SafeERC20.sol\":1760:1765  token */\n      dup6\n        /* \"@openzeppelin/contracts/token/ERC20/utils/SafeERC20.sol\":1760:1778  token.transferFrom */\n      0xffffffffffffffffffffffffffffffffffffffff\n      and\n      0x23b872dd\n        /* \"@openzeppelin/contracts/token/ERC20/utils/SafeERC20.sol\":1781:1785  from */\n      dup7\n        /* \"@openzeppelin/contracts/token/ERC20/utils/SafeERC20.sol\":1787:1789  to */\n      dup7\n        /* \"@openzeppelin/contracts/token/ERC20/utils/SafeERC20.sol\":1791:1796  value */\n      dup7\n        /* \"@openzeppelin/contracts/token/ERC20/utils/SafeERC20.sol\":1745:1798  abi.encodeCall(token.transferFrom, (from, to, value)) */\n      add(0x24, mload(0x40))\n      tag_288\n      swap4\n      swap3\n      swap2\n      swap1\n      tag_289\n      jump\t// in\n    tag_288:\n      mload(0x40)\n      0x20\n      dup2\n      dup4\n      sub\n      sub\n      dup2\n      mstore\n      swap1\n      0x40\n      mstore\n      swap2\n      pop\n      0xe0\n      shl\n      0x20\n      dup3\n      add\n      dup1\n      mload\n      0xffffffffffffffffffffffffffffffffffffffffffffffffffffffff\n      dup4\n      dup2\n      dup4\n      and\n      or\n      dup4\n      mstore\n      pop\n      pop\n      pop\n      pop\n        /* \"@openzeppelin/contracts/token/ERC20/utils/SafeERC20.sol\":1718:1737  _callOptionalReturn */\n      tag_278\n        /* \"@openzeppelin/contracts/token/ERC20/utils/SafeERC20.sol\":1718:1799  _callOptionalReturn(token, abi.encodeCall(token.transferFrom, (from, to, value))) */\n      jump\t// in\n    tag_287:\n        /* \"@openzeppelin/contracts/token/ERC20/utils/SafeERC20.sol\":1618:1806  function safeTransferFrom(IERC20 token, address from, address to, uint256 value) internal {... */\n      pop\n      pop\n      pop\n      pop\n      jump\t// out\n        /* \"@openzeppelin/contracts/token/ERC20/utils/SafeERC20.sol\":8370:9090  function _callOptionalReturn(IERC20 token, bytes memory data) private {... */\n    tag_278:\n        /* \"@openzeppelin/contracts/token/ERC20/utils/SafeERC20.sol\":8450:8468  uint256 returnSize */\n      0x00\n        /* \"@openzeppelin/contracts/token/ERC20/utils/SafeERC20.sol\":8478:8497  uint256 returnValue */\n      0x00\n        /* \"@openzeppelin/contracts/token/ERC20/utils/SafeERC20.sol\":8616:8620  0x20 */\n      0x20\n        /* \"@openzeppelin/contracts/token/ERC20/utils/SafeERC20.sol\":8613:8614  0 */\n      0x00\n        /* \"@openzeppelin/contracts/token/ERC20/utils/SafeERC20.sol\":8606:8610  data */\n      dup5\n        /* \"@openzeppelin/contracts/token/ERC20/utils/SafeERC20.sol\":8600:8611  mload(data) */\n      mload\n        /* \"@openzeppelin/contracts/token/ERC20/utils/SafeERC20.sol\":8593:8597  0x20 */\n      0x20\n        /* \"@openzeppelin/contracts/token/ERC20/utils/SafeERC20.sol\":8587:8591  data */\n      dup7\n        /* \"@openzeppelin/contracts/token/ERC20/utils/SafeERC20.sol\":8583:8598  add(data, 0x20) */\n      add\n        /* \"@openzeppelin/contracts/token/ERC20/utils/SafeERC20.sol\":8580:8581  0 */\n      0x00\n        /* \"@openzeppelin/contracts/token/ERC20/utils/SafeERC20.sol\":8573:8578  token */\n      dup9\n        /* \"@openzeppelin/contracts/token/ERC20/utils/SafeERC20.sol\":8566:8571  gas() */\n      gas\n        /* \"@openzeppelin/contracts/token/ERC20/utils/SafeERC20.sol\":8561:8621  call(gas(), token, 0, add(data, 0x20), mload(data), 0, 0x20) */\n      call\n        /* \"@openzeppelin/contracts/token/ERC20/utils/SafeERC20.sol\":8673:8680  success */\n      dup1\n        /* \"@openzeppelin/contracts/token/ERC20/utils/SafeERC20.sol\":8663:8839  if iszero(success) {... */\n      tag_291\n      jumpi\n        /* \"@openzeppelin/contracts/token/ERC20/utils/SafeERC20.sol\":8717:8721  0x40 */\n      0x40\n        /* \"@openzeppelin/contracts/token/ERC20/utils/SafeERC20.sol\":8711:8722  mload(0x40) */\n      mload\n        /* \"@openzeppelin/contracts/token/ERC20/utils/SafeERC20.sol\":8762:8778  returndatasize() */\n      returndatasize\n        /* \"@openzeppelin/contracts/token/ERC20/utils/SafeERC20.sol\":8759:8760  0 */\n      0x00\n        /* \"@openzeppelin/contracts/token/ERC20/utils/SafeERC20.sol\":8754:8757  ptr */\n      dup3\n        /* \"@openzeppelin/contracts/token/ERC20/utils/SafeERC20.sol\":8739:8779  returndatacopy(ptr, 0, returndatasize()) */\n      returndatacopy\n        /* \"@openzeppelin/contracts/token/ERC20/utils/SafeERC20.sol\":8808:8824  returndatasize() */\n      returndatasize\n        /* \"@openzeppelin/contracts/token/ERC20/utils/SafeERC20.sol\":8803:8806  ptr */\n      dup2\n        /* \"@openzeppelin/contracts/token/ERC20/utils/SafeERC20.sol\":8796:8825  revert(ptr, returndatasize()) */\n      revert\n        /* \"@openzeppelin/contracts/token/ERC20/utils/SafeERC20.sol\":8663:8839  if iszero(success) {... */\n    tag_291:\n        /* \"@openzeppelin/contracts/token/ERC20/utils/SafeERC20.sol\":8866:8882  returndatasize() */\n      returndatasize\n        /* \"@openzeppelin/contracts/token/ERC20/utils/SafeERC20.sol\":8852:8882  returnSize := returndatasize() */\n      swap3\n      pop\n        /* \"@openzeppelin/contracts/token/ERC20/utils/SafeERC20.sol\":8916:8917  0 */\n      0x00\n        /* \"@openzeppelin/contracts/token/ERC20/utils/SafeERC20.sol\":8910:8918  mload(0) */\n      mload\n        /* \"@openzeppelin/contracts/token/ERC20/utils/SafeERC20.sol\":8895:8918  returnValue := mload(0) */\n      swap2\n      pop\n        /* \"@openzeppelin/contracts/token/ERC20/utils/SafeERC20.sol\":8532:8928  {... */\n      pop\n        /* \"@openzeppelin/contracts/token/ERC20/utils/SafeERC20.sol\":8956:8957  0 */\n      0x00\n        /* \"@openzeppelin/contracts/token/ERC20/utils/SafeERC20.sol\":8942:8952  returnSize */\n      dup3\n        /* \"@openzeppelin/contracts/token/ERC20/utils/SafeERC20.sol\":8942:8957  returnSize == 0 */\n      eq\n        /* \"@openzeppelin/contracts/token/ERC20/utils/SafeERC20.sol\":8942:9010  returnSize == 0 ? address(token).code.length == 0 : returnValue != 1 */\n      tag_292\n      jumpi\n        /* \"@openzeppelin/contracts/token/ERC20/utils/SafeERC20.sol\":9009:9010  1 */\n      0x01\n        /* \"@openzeppelin/contracts/token/ERC20/utils/SafeERC20.sol\":8994:9005  returnValue */\n      dup2\n        /* \"@openzeppelin/contracts/token/ERC20/utils/SafeERC20.sol\":8994:9010  returnValue != 1 */\n      eq\n      iszero\n        /* \"@openzeppelin/contracts/token/ERC20/utils/SafeERC20.sol\":8942:9010  returnSize == 0 ? address(token).code.length == 0 : returnValue != 1 */\n      jump(tag_293)\n    tag_292:\n        /* \"@openzeppelin/contracts/token/ERC20/utils/SafeERC20.sol\":8990:8991  0 */\n      0x00\n        /* \"@openzeppelin/contracts/token/ERC20/utils/SafeERC20.sol\":8968:8973  token */\n      dup5\n        /* \"@openzeppelin/contracts/token/ERC20/utils/SafeERC20.sol\":8960:8986  address(token).code.length */\n      0xffffffffffffffffffffffffffffffffffffffff\n      and\n      extcodesize\n        /* \"@openzeppelin/contracts/token/ERC20/utils/SafeERC20.sol\":8960:8991  address(token).code.length == 0 */\n      eq\n        /* \"@openzeppelin/contracts/token/ERC20/utils/SafeERC20.sol\":8942:9010  returnSize == 0 ? address(token).code.length == 0 : returnValue != 1 */\n    tag_293:\n        /* \"@openzeppelin/contracts/token/ERC20/utils/SafeERC20.sol\":8938:9084  if (returnSize == 0 ? address(token).code.length == 0 : returnValue != 1) {... */\n      iszero\n      tag_294\n      jumpi\n        /* \"@openzeppelin/contracts/token/ERC20/utils/SafeERC20.sol\":9066:9071  token */\n      dup4\n        /* \"@openzeppelin/contracts/token/ERC20/utils/SafeERC20.sol\":9033:9073  SafeERC20FailedOperation(address(token)) */\n      mload(0x40)\n      0x5274afe700000000000000000000000000000000000000000000000000000000\n      dup2\n      mstore\n      0x04\n      add\n      tag_295\n      swap2\n      swap1\n      tag_48\n      jump\t// in\n    tag_295:\n      mload(0x40)\n      dup1\n      swap2\n      sub\n      swap1\n      revert\n        /* \"@openzeppelin/contracts/token/ERC20/utils/SafeERC20.sol\":8938:9084  if (returnSize == 0 ? address(token).code.length == 0 : returnValue != 1) {... */\n    tag_294:\n        /* \"@openzeppelin/contracts/token/ERC20/utils/SafeERC20.sol\":8440:9090  {... */\n      pop\n      pop\n        /* \"@openzeppelin/contracts/token/ERC20/utils/SafeERC20.sol\":8370:9090  function _callOptionalReturn(IERC20 token, bytes memory data) private {... */\n      pop\n      pop\n      jump\t// out\n        /* \"#utility.yul\":7:84   */\n    tag_296:\n        /* \"#utility.yul\":44:51   */\n      0x00\n        /* \"#utility.yul\":73:78   */\n      dup2\n        /* \"#utility.yul\":62:78   */\n      swap1\n      pop\n        /* \"#utility.yul\":7:84   */\n      swap2\n      swap1\n      pop\n      jump\t// out\n        /* \"#utility.yul\":90:208   */\n    tag_297:\n        /* \"#utility.yul\":177:201   */\n      tag_348\n        /* \"#utility.yul\":195:200   */\n      dup2\n        /* \"#utility.yul\":177:201   */\n      tag_296\n      jump\t// in\n    tag_348:\n        /* \"#utility.yul\":172:175   */\n      dup3\n        /* \"#utility.yul\":165:202   */\n      mstore\n        /* \"#utility.yul\":90:208   */\n      pop\n      pop\n      jump\t// out\n        /* \"#utility.yul\":214:436   */\n    tag_30:\n        /* \"#utility.yul\":307:311   */\n      0x00\n        /* \"#utility.yul\":345:347   */\n      0x20\n        /* \"#utility.yul\":334:343   */\n      dup3\n        /* \"#utility.yul\":330:348   */\n      add\n        /* \"#utility.yul\":322:348   */\n      swap1\n      pop\n        /* \"#utility.yul\":358:429   */\n      tag_350\n        /* \"#utility.yul\":426:427   */\n      0x00\n        /* \"#utility.yul\":415:424   */\n      dup4\n        /* \"#utility.yul\":411:428   */\n      add\n        /* \"#utility.yul\":402:408   */\n      dup5\n        /* \"#utility.yul\":358:429   */\n      tag_297\n      jump\t// in\n    tag_350:\n        /* \"#utility.yul\":214:436   */\n      swap3\n      swap2\n      pop\n      pop\n      jump\t// out\n        /* \"#utility.yul\":523:640   */\n    tag_299:\n        /* \"#utility.yul\":632:633   */\n      0x00\n        /* \"#utility.yul\":629:630   */\n      0x00\n        /* \"#utility.yul\":622:634   */\n      revert\n        /* \"#utility.yul\":646:763   */\n    tag_300:\n        /* \"#utility.yul\":755:756   */\n      0x00\n        /* \"#utility.yul\":752:753   */\n      0x00\n        /* \"#utility.yul\":745:757   */\n      revert\n        /* \"#utility.yul\":769:891   */\n    tag_301:\n        /* \"#utility.yul\":842:866   */\n      tag_355\n        /* \"#utility.yul\":860:865   */\n      dup2\n        /* \"#utility.yul\":842:866   */\n      tag_296\n      jump\t// in\n    tag_355:\n        /* \"#utility.yul\":835:840   */\n      dup2\n        /* \"#utility.yul\":832:867   */\n      eq\n        /* \"#utility.yul\":822:885   */\n      tag_356\n      jumpi\n        /* \"#utility.yul\":881:882   */\n      0x00\n        /* \"#utility.yul\":878:879   */\n      0x00\n        /* \"#utility.yul\":871:883   */\n      revert\n        /* \"#utility.yul\":822:885   */\n    tag_356:\n        /* \"#utility.yul\":769:891   */\n      pop\n      jump\t// out\n        /* \"#utility.yul\":897:1036   */\n    tag_302:\n        /* \"#utility.yul\":943:948   */\n      0x00\n        /* \"#utility.yul\":981:987   */\n      dup2\n        /* \"#utility.yul\":968:988   */\n      calldataload\n        /* \"#utility.yul\":959:988   */\n      swap1\n      pop\n        /* \"#utility.yul\":997:1030   */\n      tag_358\n        /* \"#utility.yul\":1024:1029   */\n      dup2\n        /* \"#utility.yul\":997:1030   */\n      tag_301\n      jump\t// in\n    tag_358:\n        /* \"#utility.yul\":897:1036   */\n      swap3\n      swap2\n      pop\n      pop\n      jump\t// out\n        /* \"#utility.yul\":1042:1371   */\n    tag_33:\n        /* \"#utility.yul\":1101:1107   */\n      0x00\n        /* \"#utility.yul\":1150:1152   */\n      0x20\n        /* \"#utility.yul\":1138:1147   */\n      dup3\n        /* \"#utility.yul\":1129:1136   */\n      dup5\n        /* \"#utility.yul\":1125:1148   */\n      sub\n        /* \"#utility.yul\":1121:1153   */\n      slt\n        /* \"#utility.yul\":1118:1237   */\n      iszero\n      tag_360\n      jumpi\n        /* \"#utility.yul\":1156:1235   */\n      tag_361\n      tag_299\n      jump\t// in\n    tag_361:\n        /* \"#utility.yul\":1118:1237   */\n    tag_360:\n        /* \"#utility.yul\":1276:1277   */\n      0x00\n        /* \"#utility.yul\":1301:1354   */\n      tag_362\n        /* \"#utility.yul\":1346:1353   */\n      dup5\n        /* \"#utility.yul\":1337:1343   */\n      dup3\n        /* \"#utility.yul\":1326:1335   */\n      dup6\n        /* \"#utility.yul\":1322:1344   */\n      add\n        /* \"#utility.yul\":1301:1354   */\n      tag_302\n      jump\t// in\n    tag_362:\n        /* \"#utility.yul\":1291:1354   */\n      swap2\n      pop\n        /* \"#utility.yul\":1247:1364   */\n      pop\n        /* \"#utility.yul\":1042:1371   */\n      swap3\n      swap2\n      pop\n      pop\n      jump\t// out\n        /* \"#utility.yul\":1377:1503   */\n    tag_303:\n        /* \"#utility.yul\":1414:1421   */\n      0x00\n        /* \"#utility.yul\":1454:1496   */\n      0xffffffffffffffffffffffffffffffffffffffff\n        /* \"#utility.yul\":1447:1452   */\n      dup3\n        /* \"#utility.yul\":1443:1497   */\n      and\n        /* \"#utility.yul\":1432:1497   */\n      swap1\n      pop\n        /* \"#utility.yul\":1377:1503   */\n      swap2\n      swap1\n      pop\n      jump\t// out\n        /* \"#utility.yul\":1509:1569   */\n    tag_304:\n        /* \"#utility.yul\":1537:1540   */\n      0x00\n        /* \"#utility.yul\":1558:1563   */\n      dup2\n        /* \"#utility.yul\":1551:1563   */\n      swap1\n      pop\n        /* \"#utility.yul\":1509:1569   */\n      swap2\n      swap1\n      pop\n      jump\t// out\n        /* \"#utility.yul\":1575:1717   */\n    tag_305:\n        /* \"#utility.yul\":1625:1634   */\n      0x00\n        /* \"#utility.yul\":1658:1711   */\n      tag_366\n        /* \"#utility.yul\":1676:1710   */\n      tag_367\n        /* \"#utility.yul\":1685:1709   */\n      tag_368\n        /* \"#utility.yul\":1703:1708   */\n      dup5\n        /* \"#utility.yul\":1685:1709   */\n      tag_303\n      jump\t// in\n    tag_368:\n        /* \"#utility.yul\":1676:1710   */\n      tag_304\n      jump\t// in\n    tag_367:\n        /* \"#utility.yul\":1658:1711   */\n      tag_303\n      jump\t// in\n    tag_366:\n        /* \"#utility.yul\":1645:1711   */\n      swap1\n      pop\n        /* \"#utility.yul\":1575:1717   */\n      swap2\n      swap1\n      pop\n      jump\t// out\n        /* \"#utility.yul\":1723:1849   */\n    tag_306:\n        /* \"#utility.yul\":1773:1782   */\n      0x00\n        /* \"#utility.yul\":1806:1843   */\n      tag_370\n        /* \"#utility.yul\":1837:1842   */\n      dup3\n        /* \"#utility.yul\":1806:1843   */\n      tag_305\n      jump\t// in\n    tag_370:\n        /* \"#utility.yul\":1793:1843   */\n      swap1\n      pop\n        /* \"#utility.yul\":1723:1849   */\n      swap2\n      swap1\n      pop\n      jump\t// out\n        /* \"#utility.yul\":1855:1995   */\n    tag_307:\n        /* \"#utility.yul\":1919:1928   */\n      0x00\n        /* \"#utility.yul\":1952:1989   */\n      tag_372\n        /* \"#utility.yul\":1983:1988   */\n      dup3\n        /* \"#utility.yul\":1952:1989   */\n      tag_306\n      jump\t// in\n    tag_372:\n        /* \"#utility.yul\":1939:1989   */\n      swap1\n      pop\n        /* \"#utility.yul\":1855:1995   */\n      swap2\n      swap1\n      pop\n      jump\t// out\n        /* \"#utility.yul\":2001:2160   */\n    tag_308:\n        /* \"#utility.yul\":2102:2153   */\n      tag_374\n        /* \"#utility.yul\":2147:2152   */\n      dup2\n        /* \"#utility.yul\":2102:2153   */\n      tag_307\n      jump\t// in\n    tag_374:\n        /* \"#utility.yul\":2097:2100   */\n      dup3\n        /* \"#utility.yul\":2090:2154   */\n      mstore\n        /* \"#utility.yul\":2001:2160   */\n      pop\n      pop\n      jump\t// out\n        /* \"#utility.yul\":2166:2416   */\n    tag_42:\n        /* \"#utility.yul\":2273:2277   */\n      0x00\n        /* \"#utility.yul\":2311:2313   */\n      0x20\n        /* \"#utility.yul\":2300:2309   */\n      dup3\n        /* \"#utility.yul\":2296:2314   */\n      add\n        /* \"#utility.yul\":2288:2314   */\n      swap1\n      pop\n        /* \"#utility.yul\":2324:2409   */\n      tag_376\n        /* \"#utility.yul\":2406:2407   */\n      0x00\n        /* \"#utility.yul\":2395:2404   */\n      dup4\n        /* \"#utility.yul\":2391:2408   */\n      add\n        /* \"#utility.yul\":2382:2388   */\n      dup5\n        /* \"#utility.yul\":2324:2409   */\n      tag_308\n      jump\t// in\n    tag_376:\n        /* \"#utility.yul\":2166:2416   */\n      swap3\n      swap2\n      pop\n      pop\n      jump\t// out\n        /* \"#utility.yul\":2422:2518   */\n    tag_309:\n        /* \"#utility.yul\":2459:2466   */\n      0x00\n        /* \"#utility.yul\":2488:2512   */\n      tag_378\n        /* \"#utility.yul\":2506:2511   */\n      dup3\n        /* \"#utility.yul\":2488:2512   */\n      tag_303\n      jump\t// in\n    tag_378:\n        /* \"#utility.yul\":2477:2512   */\n      swap1\n      pop\n        /* \"#utility.yul\":2422:2518   */\n      swap2\n      swap1\n      pop\n      jump\t// out\n        /* \"#utility.yul\":2524:2642   */\n    tag_310:\n        /* \"#utility.yul\":2611:2635   */\n      tag_380\n        /* \"#utility.yul\":2629:2634   */\n      dup2\n        /* \"#utility.yul\":2611:2635   */\n      tag_309\n      jump\t// in\n    tag_380:\n        /* \"#utility.yul\":2606:2609   */\n      dup3\n        /* \"#utility.yul\":2599:2636   */\n      mstore\n        /* \"#utility.yul\":2524:2642   */\n      pop\n      pop\n      jump\t// out\n        /* \"#utility.yul\":2648:2870   */\n    tag_48:\n        /* \"#utility.yul\":2741:2745   */\n      0x00\n        /* \"#utility.yul\":2779:2781   */\n      0x20\n        /* \"#utility.yul\":2768:2777   */\n      dup3\n        /* \"#utility.yul\":2764:2782   */\n      add\n        /* \"#utility.yul\":2756:2782   */\n      swap1\n      pop\n        /* \"#utility.yul\":2792:2863   */\n      tag_382\n        /* \"#utility.yul\":2860:2861   */\n      0x00\n        /* \"#utility.yul\":2849:2858   */\n      dup4\n        /* \"#utility.yul\":2845:2862   */\n      add\n        /* \"#utility.yul\":2836:2842   */\n      dup5\n        /* \"#utility.yul\":2792:2863   */\n      tag_310\n      jump\t// in\n    tag_382:\n        /* \"#utility.yul\":2648:2870   */\n      swap3\n      swap2\n      pop\n      pop\n      jump\t// out\n        /* \"#utility.yul\":2876:2985   */\n    tag_311:\n        /* \"#utility.yul\":2912:2919   */\n      0x00\n        /* \"#utility.yul\":2952:2978   */\n      0xffffffffffffffffffffffff\n        /* \"#utility.yul\":2945:2950   */\n      dup3\n        /* \"#utility.yul\":2941:2979   */\n      and\n        /* \"#utility.yul\":2930:2979   */\n      swap1\n      pop\n        /* \"#utility.yul\":2876:2985   */\n      swap2\n      swap1\n      pop\n      jump\t// out\n        /* \"#utility.yul\":2991:3106   */\n    tag_312:\n        /* \"#utility.yul\":3076:3099   */\n      tag_385\n        /* \"#utility.yul\":3093:3098   */\n      dup2\n        /* \"#utility.yul\":3076:3099   */\n      tag_311\n      jump\t// in\n    tag_385:\n        /* \"#utility.yul\":3071:3074   */\n      dup3\n        /* \"#utility.yul\":3064:3100   */\n      mstore\n        /* \"#utility.yul\":2991:3106   */\n      pop\n      pop\n      jump\t// out\n        /* \"#utility.yul\":3112:3330   */\n    tag_55:\n        /* \"#utility.yul\":3203:3207   */\n      0x00\n        /* \"#utility.yul\":3241:3243   */\n      0x20\n        /* \"#utility.yul\":3230:3239   */\n      dup3\n        /* \"#utility.yul\":3226:3244   */\n      add\n        /* \"#utility.yul\":3218:3244   */\n      swap1\n      pop\n        /* \"#utility.yul\":3254:3323   */\n      tag_387\n        /* \"#utility.yul\":3320:3321   */\n      0x00\n        /* \"#utility.yul\":3309:3318   */\n      dup4\n        /* \"#utility.yul\":3305:3322   */\n      add\n        /* \"#utility.yul\":3296:3302   */\n      dup5\n        /* \"#utility.yul\":3254:3323   */\n      tag_312\n      jump\t// in\n    tag_387:\n        /* \"#utility.yul\":3112:3330   */\n      swap3\n      swap2\n      pop\n      pop\n      jump\t// out\n        /* \"#utility.yul\":3336:3810   */\n    tag_61:\n        /* \"#utility.yul\":3404:3410   */\n      0x00\n        /* \"#utility.yul\":3412:3418   */\n      0x00\n        /* \"#utility.yul\":3461:3463   */\n      0x40\n        /* \"#utility.yul\":3449:3458   */\n      dup4\n        /* \"#utility.yul\":3440:3447   */\n      dup6\n        /* \"#utility.yul\":3436:3459   */\n      sub\n        /* \"#utility.yul\":3432:3464   */\n      slt\n        /* \"#utility.yul\":3429:3548   */\n      iszero\n      tag_389\n      jumpi\n        /* \"#utility.yul\":3467:3546   */\n      tag_390\n      tag_299\n      jump\t// in\n    tag_390:\n        /* \"#utility.yul\":3429:3548   */\n    tag_389:\n        /* \"#utility.yul\":3587:3588   */\n      0x00\n        /* \"#utility.yul\":3612:3665   */\n      tag_391\n        /* \"#utility.yul\":3657:3664   */\n      dup6\n        /* \"#utility.yul\":3648:3654   */\n      dup3\n        /* \"#utility.yul\":3637:3646   */\n      dup7\n        /* \"#utility.yul\":3633:3655   */\n      add\n        /* \"#utility.yul\":3612:3665   */\n      tag_302\n      jump\t// in\n    tag_391:\n        /* \"#utility.yul\":3602:3665   */\n      swap3\n      pop\n        /* \"#utility.yul\":3558:3675   */\n      pop\n        /* \"#utility.yul\":3714:3716   */\n      0x20\n        /* \"#utility.yul\":3740:3793   */\n      tag_392\n        /* \"#utility.yul\":3785:3792   */\n      dup6\n        /* \"#utility.yul\":3776:3782   */\n      dup3\n        /* \"#utility.yul\":3765:3774   */\n      dup7\n        /* \"#utility.yul\":3761:3783   */\n      add\n        /* \"#utility.yul\":3740:3793   */\n      tag_302\n      jump\t// in\n    tag_392:\n        /* \"#utility.yul\":3730:3793   */\n      swap2\n      pop\n        /* \"#utility.yul\":3685:3803   */\n      pop\n        /* \"#utility.yul\":3336:3810   */\n      swap3\n      pop\n      swap3\n      swap1\n      pop\n      jump\t// out\n        /* \"#utility.yul\":3816:3933   */\n    tag_313:\n        /* \"#utility.yul\":3925:3926   */\n      0x00\n        /* \"#utility.yul\":3922:3923   */\n      0x00\n        /* \"#utility.yul\":3915:3927   */\n      revert\n        /* \"#utility.yul\":3939:4056   */\n    tag_314:\n        /* \"#utility.yul\":4048:4049   */\n      0x00\n        /* \"#utility.yul\":4045:4046   */\n      0x00\n        /* \"#utility.yul\":4038:4050   */\n      revert\n        /* \"#utility.yul\":4062:4179   */\n    tag_315:\n        /* \"#utility.yul\":4171:4172   */\n      0x00\n        /* \"#utility.yul\":4168:4169   */\n      0x00\n        /* \"#utility.yul\":4161:4173   */\n      revert\n        /* \"#utility.yul\":4202:4770   */\n    tag_316:\n        /* \"#utility.yul\":4275:4283   */\n      0x00\n        /* \"#utility.yul\":4285:4291   */\n      0x00\n        /* \"#utility.yul\":4335:4338   */\n      dup4\n        /* \"#utility.yul\":4328:4332   */\n      0x1f\n        /* \"#utility.yul\":4320:4326   */\n      dup5\n        /* \"#utility.yul\":4316:4333   */\n      add\n        /* \"#utility.yul\":4312:4339   */\n      slt\n        /* \"#utility.yul\":4302:4424   */\n      tag_397\n      jumpi\n        /* \"#utility.yul\":4343:4422   */\n      tag_398\n      tag_313\n      jump\t// in\n    tag_398:\n        /* \"#utility.yul\":4302:4424   */\n    tag_397:\n        /* \"#utility.yul\":4456:4462   */\n      dup3\n        /* \"#utility.yul\":4443:4463   */\n      calldataload\n        /* \"#utility.yul\":4433:4463   */\n      swap1\n      pop\n        /* \"#utility.yul\":4486:4504   */\n      0xffffffffffffffff\n        /* \"#utility.yul\":4478:4484   */\n      dup2\n        /* \"#utility.yul\":4475:4505   */\n      gt\n        /* \"#utility.yul\":4472:4589   */\n      iszero\n      tag_399\n      jumpi\n        /* \"#utility.yul\":4508:4587   */\n      tag_400\n      tag_314\n      jump\t// in\n    tag_400:\n        /* \"#utility.yul\":4472:4589   */\n    tag_399:\n        /* \"#utility.yul\":4622:4626   */\n      0x20\n        /* \"#utility.yul\":4614:4620   */\n      dup4\n        /* \"#utility.yul\":4610:4627   */\n      add\n        /* \"#utility.yul\":4598:4627   */\n      swap2\n      pop\n        /* \"#utility.yul\":4676:4679   */\n      dup4\n        /* \"#utility.yul\":4668:4672   */\n      0x20\n        /* \"#utility.yul\":4660:4666   */\n      dup3\n        /* \"#utility.yul\":4656:4673   */\n      mul\n        /* \"#utility.yul\":4646:4654   */\n      dup4\n        /* \"#utility.yul\":4642:4674   */\n      add\n        /* \"#utility.yul\":4639:4680   */\n      gt\n        /* \"#utility.yul\":4636:4764   */\n      iszero\n      tag_401\n      jumpi\n        /* \"#utility.yul\":4683:4762   */\n      tag_402\n      tag_315\n      jump\t// in\n    tag_402:\n        /* \"#utility.yul\":4636:4764   */\n    tag_401:\n        /* \"#utility.yul\":4202:4770   */\n      swap3\n      pop\n      swap3\n      swap1\n      pop\n      jump\t// out\n        /* \"#utility.yul\":4776:5335   */\n    tag_74:\n        /* \"#utility.yul\":4862:4868   */\n      0x00\n        /* \"#utility.yul\":4870:4876   */\n      0x00\n        /* \"#utility.yul\":4919:4921   */\n      0x20\n        /* \"#utility.yul\":4907:4916   */\n      dup4\n        /* \"#utility.yul\":4898:4905   */\n      dup6\n        /* \"#utility.yul\":4894:4917   */\n      sub\n        /* \"#utility.yul\":4890:4922   */\n      slt\n        /* \"#utility.yul\":4887:5006   */\n      iszero\n      tag_404\n      jumpi\n        /* \"#utility.yul\":4925:5004   */\n      tag_405\n      tag_299\n      jump\t// in\n    tag_405:\n        /* \"#utility.yul\":4887:5006   */\n    tag_404:\n        /* \"#utility.yul\":5073:5074   */\n      0x00\n        /* \"#utility.yul\":5062:5071   */\n      dup4\n        /* \"#utility.yul\":5058:5075   */\n      add\n        /* \"#utility.yul\":5045:5076   */\n      calldataload\n        /* \"#utility.yul\":5103:5121   */\n      0xffffffffffffffff\n        /* \"#utility.yul\":5095:5101   */\n      dup2\n        /* \"#utility.yul\":5092:5122   */\n      gt\n        /* \"#utility.yul\":5089:5206   */\n      iszero\n      tag_406\n      jumpi\n        /* \"#utility.yul\":5125:5204   */\n      tag_407\n      tag_300\n      jump\t// in\n    tag_407:\n        /* \"#utility.yul\":5089:5206   */\n    tag_406:\n        /* \"#utility.yul\":5238:5318   */\n      tag_408\n        /* \"#utility.yul\":5310:5317   */\n      dup6\n        /* \"#utility.yul\":5301:5307   */\n      dup3\n        /* \"#utility.yul\":5290:5299   */\n      dup7\n        /* \"#utility.yul\":5286:5308   */\n      add\n        /* \"#utility.yul\":5238:5318   */\n      tag_316\n      jump\t// in\n    tag_408:\n        /* \"#utility.yul\":5220:5318   */\n      swap3\n      pop\n      swap3\n      pop\n        /* \"#utility.yul\":5016:5328   */\n      pop\n        /* \"#utility.yul\":4776:5335   */\n      swap3\n      pop\n      swap3\n      swap1\n      pop\n      jump\t// out\n        /* \"#utility.yul\":5341:5894   */\n    tag_83:\n        /* \"#utility.yul\":5518:5522   */\n      0x00\n        /* \"#utility.yul\":5556:5559   */\n      0x80\n        /* \"#utility.yul\":5545:5554   */\n      dup3\n        /* \"#utility.yul\":5541:5560   */\n      add\n        /* \"#utility.yul\":5533:5560   */\n      swap1\n      pop\n        /* \"#utility.yul\":5570:5641   */\n      tag_410\n        /* \"#utility.yul\":5638:5639   */\n      0x00\n        /* \"#utility.yul\":5627:5636   */\n      dup4\n        /* \"#utility.yul\":5623:5640   */\n      add\n        /* \"#utility.yul\":5614:5620   */\n      dup8\n        /* \"#utility.yul\":5570:5641   */\n      tag_310\n      jump\t// in\n    tag_410:\n        /* \"#utility.yul\":5651:5723   */\n      tag_411\n        /* \"#utility.yul\":5719:5721   */\n      0x20\n        /* \"#utility.yul\":5708:5717   */\n      dup4\n        /* \"#utility.yul\":5704:5722   */\n      add\n        /* \"#utility.yul\":5695:5701   */\n      dup7\n        /* \"#utility.yul\":5651:5723   */\n      tag_297\n      jump\t// in\n    tag_411:\n        /* \"#utility.yul\":5733:5805   */\n      tag_412\n        /* \"#utility.yul\":5801:5803   */\n      0x40\n        /* \"#utility.yul\":5790:5799   */\n      dup4\n        /* \"#utility.yul\":5786:5804   */\n      add\n        /* \"#utility.yul\":5777:5783   */\n      dup6\n        /* \"#utility.yul\":5733:5805   */\n      tag_297\n      jump\t// in\n    tag_412:\n        /* \"#utility.yul\":5815:5887   */\n      tag_413\n        /* \"#utility.yul\":5883:5885   */\n      0x60\n        /* \"#utility.yul\":5872:5881   */\n      dup4\n        /* \"#utility.yul\":5868:5886   */\n      add\n        /* \"#utility.yul\":5859:5865   */\n      dup5\n        /* \"#utility.yul\":5815:5887   */\n      tag_297\n      jump\t// in\n    tag_413:\n        /* \"#utility.yul\":5341:5894   */\n      swap6\n      swap5\n      pop\n      pop\n      pop\n      pop\n      pop\n      jump\t// out\n        /* \"#utility.yul\":5900:6022   */\n    tag_317:\n        /* \"#utility.yul\":5973:5997   */\n      tag_415\n        /* \"#utility.yul\":5991:5996   */\n      dup2\n        /* \"#utility.yul\":5973:5997   */\n      tag_309\n      jump\t// in\n    tag_415:\n        /* \"#utility.yul\":5966:5971   */\n      dup2\n        /* \"#utility.yul\":5963:5998   */\n      eq\n        /* \"#utility.yul\":5953:6016   */\n      tag_416\n      jumpi\n        /* \"#utility.yul\":6012:6013   */\n      0x00\n        /* \"#utility.yul\":6009:6010   */\n      0x00\n        /* \"#utility.yul\":6002:6014   */\n      revert\n        /* \"#utility.yul\":5953:6016   */\n    tag_416:\n        /* \"#utility.yul\":5900:6022   */\n      pop\n      jump\t// out\n        /* \"#utility.yul\":6028:6167   */\n    tag_318:\n        /* \"#utility.yul\":6074:6079   */\n      0x00\n        /* \"#utility.yul\":6112:6118   */\n      dup2\n        /* \"#utility.yul\":6099:6119   */\n      calldataload\n        /* \"#utility.yul\":6090:6119   */\n      swap1\n      pop\n        /* \"#utility.yul\":6128:6161   */\n      tag_418\n        /* \"#utility.yul\":6155:6160   */\n      dup2\n        /* \"#utility.yul\":6128:6161   */\n      tag_317\n      jump\t// in\n    tag_418:\n        /* \"#utility.yul\":6028:6167   */\n      swap3\n      swap2\n      pop\n      pop\n      jump\t// out\n        /* \"#utility.yul\":6173:6647   */\n    tag_93:\n        /* \"#utility.yul\":6241:6247   */\n      0x00\n        /* \"#utility.yul\":6249:6255   */\n      0x00\n        /* \"#utility.yul\":6298:6300   */\n      0x40\n        /* \"#utility.yul\":6286:6295   */\n      dup4\n        /* \"#utility.yul\":6277:6284   */\n      dup6\n        /* \"#utility.yul\":6273:6296   */\n      sub\n        /* \"#utility.yul\":6269:6301   */\n      slt\n        /* \"#utility.yul\":6266:6385   */\n      iszero\n      tag_420\n      jumpi\n        /* \"#utility.yul\":6304:6383   */\n      tag_421\n      tag_299\n      jump\t// in\n    tag_421:\n        /* \"#utility.yul\":6266:6385   */\n    tag_420:\n        /* \"#utility.yul\":6424:6425   */\n      0x00\n        /* \"#utility.yul\":6449:6502   */\n      tag_422\n        /* \"#utility.yul\":6494:6501   */\n      dup6\n        /* \"#utility.yul\":6485:6491   */\n      dup3\n        /* \"#utility.yul\":6474:6483   */\n      dup7\n        /* \"#utility.yul\":6470:6492   */\n      add\n        /* \"#utility.yul\":6449:6502   */\n      tag_318\n      jump\t// in\n    tag_422:\n        /* \"#utility.yul\":6439:6502   */\n      swap3\n      pop\n        /* \"#utility.yul\":6395:6512   */\n      pop\n        /* \"#utility.yul\":6551:6553   */\n      0x20\n        /* \"#utility.yul\":6577:6630   */\n      tag_423\n        /* \"#utility.yul\":6622:6629   */\n      dup6\n        /* \"#utility.yul\":6613:6619   */\n      dup3\n        /* \"#utility.yul\":6602:6611   */\n      dup7\n        /* \"#utility.yul\":6598:6620   */\n      add\n        /* \"#utility.yul\":6577:6630   */\n      tag_302\n      jump\t// in\n    tag_423:\n        /* \"#utility.yul\":6567:6630   */\n      swap2\n      pop\n        /* \"#utility.yul\":6522:6640   */\n      pop\n        /* \"#utility.yul\":6173:6647   */\n      swap3\n      pop\n      swap3\n      swap1\n      pop\n      jump\t// out\n        /* \"#utility.yul\":6653:6773   */\n    tag_319:\n        /* \"#utility.yul\":6725:6748   */\n      tag_425\n        /* \"#utility.yul\":6742:6747   */\n      dup2\n        /* \"#utility.yul\":6725:6748   */\n      tag_311\n      jump\t// in\n    tag_425:\n        /* \"#utility.yul\":6718:6723   */\n      dup2\n        /* \"#utility.yul\":6715:6749   */\n      eq\n        /* \"#utility.yul\":6705:6767   */\n      tag_426\n      jumpi\n        /* \"#utility.yul\":6763:6764   */\n      0x00\n        /* \"#utility.yul\":6760:6761   */\n      0x00\n        /* \"#utility.yul\":6753:6765   */\n      revert\n        /* \"#utility.yul\":6705:6767   */\n    tag_426:\n        /* \"#utility.yul\":6653:6773   */\n      pop\n      jump\t// out\n        /* \"#utility.yul\":6779:6916   */\n    tag_320:\n        /* \"#utility.yul\":6824:6829   */\n      0x00\n        /* \"#utility.yul\":6862:6868   */\n      dup2\n        /* \"#utility.yul\":6849:6869   */\n      calldataload\n        /* \"#utility.yul\":6840:6869   */\n      swap1\n      pop\n        /* \"#utility.yul\":6878:6910   */\n      tag_428\n        /* \"#utility.yul\":6904:6909   */\n      dup2\n        /* \"#utility.yul\":6878:6910   */\n      tag_319\n      jump\t// in\n    tag_428:\n        /* \"#utility.yul\":6779:6916   */\n      swap3\n      swap2\n      pop\n      pop\n      jump\t// out\n        /* \"#utility.yul\":6922:7394   */\n    tag_97:\n        /* \"#utility.yul\":6989:6995   */\n      0x00\n        /* \"#utility.yul\":6997:7003   */\n      0x00\n        /* \"#utility.yul\":7046:7048   */\n      0x40\n        /* \"#utility.yul\":7034:7043   */\n      dup4\n        /* \"#utility.yul\":7025:7032   */\n      dup6\n        /* \"#utility.yul\":7021:7044   */\n      sub\n        /* \"#utility.yul\":7017:7049   */\n      slt\n        /* \"#utility.yul\":7014:7133   */\n      iszero\n      tag_430\n      jumpi\n        /* \"#utility.yul\":7052:7131   */\n      tag_431\n      tag_299\n      jump\t// in\n    tag_431:\n        /* \"#utility.yul\":7014:7133   */\n    tag_430:\n        /* \"#utility.yul\":7172:7173   */\n      0x00\n        /* \"#utility.yul\":7197:7249   */\n      tag_432\n        /* \"#utility.yul\":7241:7248   */\n      dup6\n        /* \"#utility.yul\":7232:7238   */\n      dup3\n        /* \"#utility.yul\":7221:7230   */\n      dup7\n        /* \"#utility.yul\":7217:7239   */\n      add\n        /* \"#utility.yul\":7197:7249   */\n      tag_320\n      jump\t// in\n    tag_432:\n        /* \"#utility.yul\":7187:7249   */\n      swap3\n      pop\n        /* \"#utility.yul\":7143:7259   */\n      pop\n        /* \"#utility.yul\":7298:7300   */\n      0x20\n        /* \"#utility.yul\":7324:7377   */\n      tag_433\n        /* \"#utility.yul\":7369:7376   */\n      dup6\n        /* \"#utility.yul\":7360:7366   */\n      dup3\n        /* \"#utility.yul\":7349:7358   */\n      dup7\n        /* \"#utility.yul\":7345:7367   */\n      add\n        /* \"#utility.yul\":7324:7377   */\n      tag_302\n      jump\t// in\n    tag_433:\n        /* \"#utility.yul\":7314:7377   */\n      swap2\n      pop\n        /* \"#utility.yul\":7269:7387   */\n      pop\n        /* \"#utility.yul\":6922:7394   */\n      swap3\n      pop\n      swap3\n      swap1\n      pop\n      jump\t// out\n        /* \"#utility.yul\":7400:7732   */\n    tag_100:\n        /* \"#utility.yul\":7521:7525   */\n      0x00\n        /* \"#utility.yul\":7559:7561   */\n      0x40\n        /* \"#utility.yul\":7548:7557   */\n      dup3\n        /* \"#utility.yul\":7544:7562   */\n      add\n        /* \"#utility.yul\":7536:7562   */\n      swap1\n      pop\n        /* \"#utility.yul\":7572:7643   */\n      tag_435\n        /* \"#utility.yul\":7640:7641   */\n      0x00\n        /* \"#utility.yul\":7629:7638   */\n      dup4\n        /* \"#utility.yul\":7625:7642   */\n      add\n        /* \"#utility.yul\":7616:7622   */\n      dup6\n        /* \"#utility.yul\":7572:7643   */\n      tag_297\n      jump\t// in\n    tag_435:\n        /* \"#utility.yul\":7653:7725   */\n      tag_436\n        /* \"#utility.yul\":7721:7723   */\n      0x20\n        /* \"#utility.yul\":7710:7719   */\n      dup4\n        /* \"#utility.yul\":7706:7724   */\n      add\n        /* \"#utility.yul\":7697:7703   */\n      dup5\n        /* \"#utility.yul\":7653:7725   */\n      tag_297\n      jump\t// in\n    tag_436:\n        /* \"#utility.yul\":7400:7732   */\n      swap4\n      swap3\n      pop\n      pop\n      pop\n      jump\t// out\n        /* \"#utility.yul\":7738:8067   */\n    tag_103:\n        /* \"#utility.yul\":7797:7803   */\n      0x00\n        /* \"#utility.yul\":7846:7848   */\n      0x20\n        /* \"#utility.yul\":7834:7843   */\n      dup3\n        /* \"#utility.yul\":7825:7832   */\n      dup5\n        /* \"#utility.yul\":7821:7844   */\n      sub\n        /* \"#utility.yul\":7817:7849   */\n      slt\n        /* \"#utility.yul\":7814:7933   */\n      iszero\n      tag_438\n      jumpi\n        /* \"#utility.yul\":7852:7931   */\n      tag_439\n      tag_299\n      jump\t// in\n    tag_439:\n        /* \"#utility.yul\":7814:7933   */\n    tag_438:\n        /* \"#utility.yul\":7972:7973   */\n      0x00\n        /* \"#utility.yul\":7997:8050   */\n      tag_440\n        /* \"#utility.yul\":8042:8049   */\n      dup5\n        /* \"#utility.yul\":8033:8039   */\n      dup3\n        /* \"#utility.yul\":8022:8031   */\n      dup6\n        /* \"#utility.yul\":8018:8040   */\n      add\n        /* \"#utility.yul\":7997:8050   */\n      tag_318\n      jump\t// in\n    tag_440:\n        /* \"#utility.yul\":7987:8050   */\n      swap2\n      pop\n        /* \"#utility.yul\":7943:8060   */\n      pop\n        /* \"#utility.yul\":7738:8067   */\n      swap3\n      swap2\n      pop\n      pop\n      jump\t// out\n        /* \"#utility.yul\":8073:8242   */\n    tag_321:\n        /* \"#utility.yul\":8157:8168   */\n      0x00\n        /* \"#utility.yul\":8191:8197   */\n      dup3\n        /* \"#utility.yul\":8186:8189   */\n      dup3\n        /* \"#utility.yul\":8179:8198   */\n      mstore\n        /* \"#utility.yul\":8231:8235   */\n      0x20\n        /* \"#utility.yul\":8226:8229   */\n      dup3\n        /* \"#utility.yul\":8222:8236   */\n      add\n        /* \"#utility.yul\":8207:8236   */\n      swap1\n      pop\n        /* \"#utility.yul\":8073:8242   */\n      swap3\n      swap2\n      pop\n      pop\n      jump\t// out\n        /* \"#utility.yul\":8248:8423   */\n    tag_322:\n        /* \"#utility.yul\":8388:8415   */\n      0x4d6f64756c65583a496e76616c6964205374616b652049442100000000000000\n        /* \"#utility.yul\":8384:8385   */\n      0x00\n        /* \"#utility.yul\":8376:8382   */\n      dup3\n        /* \"#utility.yul\":8372:8386   */\n      add\n        /* \"#utility.yul\":8365:8416   */\n      mstore\n        /* \"#utility.yul\":8248:8423   */\n      pop\n      jump\t// out\n        /* \"#utility.yul\":8429:8795   */\n    tag_323:\n        /* \"#utility.yul\":8571:8574   */\n      0x00\n        /* \"#utility.yul\":8592:8659   */\n      tag_444\n        /* \"#utility.yul\":8656:8658   */\n      0x19\n        /* \"#utility.yul\":8651:8654   */\n      dup4\n        /* \"#utility.yul\":8592:8659   */\n      tag_321\n      jump\t// in\n    tag_444:\n        /* \"#utility.yul\":8585:8659   */\n      swap2\n      pop\n        /* \"#utility.yul\":8668:8761   */\n      tag_445\n        /* \"#utility.yul\":8757:8760   */\n      dup3\n        /* \"#utility.yul\":8668:8761   */\n      tag_322\n      jump\t// in\n    tag_445:\n        /* \"#utility.yul\":8786:8788   */\n      0x20\n        /* \"#utility.yul\":8781:8784   */\n      dup3\n        /* \"#utility.yul\":8777:8789   */\n      add\n        /* \"#utility.yul\":8770:8789   */\n      swap1\n      pop\n        /* \"#utility.yul\":8429:8795   */\n      swap2\n      swap1\n      pop\n      jump\t// out\n        /* \"#utility.yul\":8801:9220   */\n    tag_109:\n        /* \"#utility.yul\":8967:8971   */\n      0x00\n        /* \"#utility.yul\":9005:9007   */\n      0x20\n        /* \"#utility.yul\":8994:9003   */\n      dup3\n        /* \"#utility.yul\":8990:9008   */\n      add\n        /* \"#utility.yul\":8982:9008   */\n      swap1\n      pop\n        /* \"#utility.yul\":9054:9063   */\n      dup2\n        /* \"#utility.yul\":9048:9052   */\n      dup2\n        /* \"#utility.yul\":9044:9064   */\n      sub\n        /* \"#utility.yul\":9040:9041   */\n      0x00\n        /* \"#utility.yul\":9029:9038   */\n      dup4\n        /* \"#utility.yul\":9025:9042   */\n      add\n        /* \"#utility.yul\":9018:9065   */\n      mstore\n        /* \"#utility.yul\":9082:9213   */\n      tag_447\n        /* \"#utility.yul\":9208:9212   */\n      dup2\n        /* \"#utility.yul\":9082:9213   */\n      tag_323\n      jump\t// in\n    tag_447:\n        /* \"#utility.yul\":9074:9213   */\n      swap1\n      pop\n        /* \"#utility.yul\":8801:9220   */\n      swap2\n      swap1\n      pop\n      jump\t// out\n        /* \"#utility.yul\":9226:9407   */\n    tag_324:\n        /* \"#utility.yul\":9366:9399   */\n      0x4d6f64756c65583a43616c6c6572206973206e6f7420746865206f776e657200\n        /* \"#utility.yul\":9362:9363   */\n      0x00\n        /* \"#utility.yul\":9354:9360   */\n      dup3\n        /* \"#utility.yul\":9350:9364   */\n      add\n        /* \"#utility.yul\":9343:9400   */\n      mstore\n        /* \"#utility.yul\":9226:9407   */\n      pop\n      jump\t// out\n        /* \"#utility.yul\":9413:9779   */\n    tag_325:\n        /* \"#utility.yul\":9555:9558   */\n      0x00\n        /* \"#utility.yul\":9576:9643   */\n      tag_450\n        /* \"#utility.yul\":9640:9642   */\n      0x1f\n        /* \"#utility.yul\":9635:9638   */\n      dup4\n        /* \"#utility.yul\":9576:9643   */\n      tag_321\n      jump\t// in\n    tag_450:\n        /* \"#utility.yul\":9569:9643   */\n      swap2\n      pop\n        /* \"#utility.yul\":9652:9745   */\n      tag_451\n        /* \"#utility.yul\":9741:9744   */\n      dup3\n        /* \"#utility.yul\":9652:9745   */\n      tag_324\n      jump\t// in\n    tag_451:\n        /* \"#utility.yul\":9770:9772   */\n      0x20\n        /* \"#utility.yul\":9765:9768   */\n      dup3\n        /* \"#utility.yul\":9761:9773   */\n      add\n        /* \"#utility.yul\":9754:9773   */\n      swap1\n      pop\n        /* \"#utility.yul\":9413:9779   */\n      swap2\n      swap1\n      pop\n      jump\t// out\n        /* \"#utility.yul\":9785:10204   */\n    tag_115:\n        /* \"#utility.yul\":9951:9955   */\n      0x00\n        /* \"#utility.yul\":9989:9991   */\n      0x20\n        /* \"#utility.yul\":9978:9987   */\n      dup3\n        /* \"#utility.yul\":9974:9992   */\n      add\n        /* \"#utility.yul\":9966:9992   */\n      swap1\n      pop\n        /* \"#utility.yul\":10038:10047   */\n      dup2\n        /* \"#utility.yul\":10032:10036   */\n      dup2\n        /* \"#utility.yul\":10028:10048   */\n      sub\n        /* \"#utility.yul\":10024:10025   */\n      0x00\n        /* \"#utility.yul\":10013:10022   */\n      dup4\n        /* \"#utility.yul\":10009:10026   */\n      add\n        /* \"#utility.yul\":10002:10049   */\n      mstore\n        /* \"#utility.yul\":10066:10197   */\n      tag_453\n        /* \"#utility.yul\":10192:10196   */\n      dup2\n        /* \"#utility.yul\":10066:10197   */\n      tag_325\n      jump\t// in\n    tag_453:\n        /* \"#utility.yul\":10058:10197   */\n      swap1\n      pop\n        /* \"#utility.yul\":9785:10204   */\n      swap2\n      swap1\n      pop\n      jump\t// out\n        /* \"#utility.yul\":10210:10439   */\n    tag_326:\n        /* \"#utility.yul\":10350:10384   */\n      0x4d6f64756c65583a4561726c79205769746864726177616c206973206e6f7420\n        /* \"#utility.yul\":10346:10347   */\n      0x00\n        /* \"#utility.yul\":10338:10344   */\n      dup3\n        /* \"#utility.yul\":10334:10348   */\n      add\n        /* \"#utility.yul\":10327:10385   */\n      mstore\n        /* \"#utility.yul\":10419:10431   */\n      0x7065726d69747465642100000000000000000000000000000000000000000000\n        /* \"#utility.yul\":10414:10416   */\n      0x20\n        /* \"#utility.yul\":10406:10412   */\n      dup3\n        /* \"#utility.yul\":10402:10417   */\n      add\n        /* \"#utility.yul\":10395:10432   */\n      mstore\n        /* \"#utility.yul\":10210:10439   */\n      pop\n      jump\t// out\n        /* \"#utility.yul\":10445:10811   */\n    tag_327:\n        /* \"#utility.yul\":10587:10590   */\n      0x00\n        /* \"#utility.yul\":10608:10675   */\n      tag_456\n        /* \"#utility.yul\":10672:10674   */\n      0x2a\n        /* \"#utility.yul\":10667:10670   */\n      dup4\n        /* \"#utility.yul\":10608:10675   */\n      tag_321\n      jump\t// in\n    tag_456:\n        /* \"#utility.yul\":10601:10675   */\n      swap2\n      pop\n        /* \"#utility.yul\":10684:10777   */\n      tag_457\n        /* \"#utility.yul\":10773:10776   */\n      dup3\n        /* \"#utility.yul\":10684:10777   */\n      tag_326\n      jump\t// in\n    tag_457:\n        /* \"#utility.yul\":10802:10804   */\n      0x40\n        /* \"#utility.yul\":10797:10800   */\n      dup3\n        /* \"#utility.yul\":10793:10805   */\n      add\n        /* \"#utility.yul\":10786:10805   */\n      swap1\n      pop\n        /* \"#utility.yul\":10445:10811   */\n      swap2\n      swap1\n      pop\n      jump\t// out\n        /* \"#utility.yul\":10817:11236   */\n    tag_120:\n        /* \"#utility.yul\":10983:10987   */\n      0x00\n        /* \"#utility.yul\":11021:11023   */\n      0x20\n        /* \"#utility.yul\":11010:11019   */\n      dup3\n        /* \"#utility.yul\":11006:11024   */\n      add\n        /* \"#utility.yul\":10998:11024   */\n      swap1\n      pop\n        /* \"#utility.yul\":11070:11079   */\n      dup2\n        /* \"#utility.yul\":11064:11068   */\n      dup2\n        /* \"#utility.yul\":11060:11080   */\n      sub\n        /* \"#utility.yul\":11056:11057   */\n      0x00\n        /* \"#utility.yul\":11045:11054   */\n      dup4\n        /* \"#utility.yul\":11041:11058   */\n      add\n        /* \"#utility.yul\":11034:11081   */\n      mstore\n        /* \"#utility.yul\":11098:11229   */\n      tag_459\n        /* \"#utility.yul\":11224:11228   */\n      dup2\n        /* \"#utility.yul\":11098:11229   */\n      tag_327\n      jump\t// in\n    tag_459:\n        /* \"#utility.yul\":11090:11229   */\n      swap1\n      pop\n        /* \"#utility.yul\":10817:11236   */\n      swap2\n      swap1\n      pop\n      jump\t// out\n        /* \"#utility.yul\":11242:11416   */\n    tag_328:\n        /* \"#utility.yul\":11382:11408   */\n      0x4d6f64756c65583a4e6f7468696e6720746f20636c61696d0000000000000000\n        /* \"#utility.yul\":11378:11379   */\n      0x00\n        /* \"#utility.yul\":11370:11376   */\n      dup3\n        /* \"#utility.yul\":11366:11380   */\n      add\n        /* \"#utility.yul\":11359:11409   */\n      mstore\n        /* \"#utility.yul\":11242:11416   */\n      pop\n      jump\t// out\n        /* \"#utility.yul\":11422:11788   */\n    tag_329:\n        /* \"#utility.yul\":11564:11567   */\n      0x00\n        /* \"#utility.yul\":11585:11652   */\n      tag_462\n        /* \"#utility.yul\":11649:11651   */\n      0x18\n        /* \"#utility.yul\":11644:11647   */\n      dup4\n        /* \"#utility.yul\":11585:11652   */\n      tag_321\n      jump\t// in\n    tag_462:\n        /* \"#utility.yul\":11578:11652   */\n      swap2\n      pop\n        /* \"#utility.yul\":11661:11754   */\n      tag_463\n        /* \"#utility.yul\":11750:11753   */\n      dup3\n        /* \"#utility.yul\":11661:11754   */\n      tag_328\n      jump\t// in\n    tag_463:\n        /* \"#utility.yul\":11779:11781   */\n      0x20\n        /* \"#utility.yul\":11774:11777   */\n      dup3\n        /* \"#utility.yul\":11770:11782   */\n      add\n        /* \"#utility.yul\":11763:11782   */\n      swap1\n      pop\n        /* \"#utility.yul\":11422:11788   */\n      swap2\n      swap1\n      pop\n      jump\t// out\n        /* \"#utility.yul\":11794:12213   */\n    tag_123:\n        /* \"#utility.yul\":11960:11964   */\n      0x00\n        /* \"#utility.yul\":11998:12000   */\n      0x20\n        /* \"#utility.yul\":11987:11996   */\n      dup3\n        /* \"#utility.yul\":11983:12001   */\n      add\n        /* \"#utility.yul\":11975:12001   */\n      swap1\n      pop\n        /* \"#utility.yul\":12047:12056   */\n      dup2\n        /* \"#utility.yul\":12041:12045   */\n      dup2\n        /* \"#utility.yul\":12037:12057   */\n      sub\n        /* \"#utility.yul\":12033:12034   */\n      0x00\n        /* \"#utility.yul\":12022:12031   */\n      dup4\n        /* \"#utility.yul\":12018:12035   */\n      add\n        /* \"#utility.yul\":12011:12058   */\n      mstore\n        /* \"#utility.yul\":12075:12206   */\n      tag_465\n        /* \"#utility.yul\":12201:12205   */\n      dup2\n        /* \"#utility.yul\":12075:12206   */\n      tag_329\n      jump\t// in\n    tag_465:\n        /* \"#utility.yul\":12067:12206   */\n      swap1\n      pop\n        /* \"#utility.yul\":11794:12213   */\n      swap2\n      swap1\n      pop\n      jump\t// out\n        /* \"#utility.yul\":12219:12399   */\n    tag_330:\n        /* \"#utility.yul\":12267:12344   */\n      0x4e487b7100000000000000000000000000000000000000000000000000000000\n        /* \"#utility.yul\":12264:12265   */\n      0x00\n        /* \"#utility.yul\":12257:12345   */\n      mstore\n        /* \"#utility.yul\":12364:12368   */\n      0x11\n        /* \"#utility.yul\":12361:12362   */\n      0x04\n        /* \"#utility.yul\":12354:12369   */\n      mstore\n        /* \"#utility.yul\":12388:12392   */\n      0x24\n        /* \"#utility.yul\":12385:12386   */\n      0x00\n        /* \"#utility.yul\":12378:12393   */\n      revert\n        /* \"#utility.yul\":12405:12599   */\n    tag_128:\n        /* \"#utility.yul\":12445:12449   */\n      0x00\n        /* \"#utility.yul\":12465:12485   */\n      tag_468\n        /* \"#utility.yul\":12483:12484   */\n      dup3\n        /* \"#utility.yul\":12465:12485   */\n      tag_296\n      jump\t// in\n    tag_468:\n        /* \"#utility.yul\":12460:12485   */\n      swap2\n      pop\n        /* \"#utility.yul\":12499:12519   */\n      tag_469\n        /* \"#utility.yul\":12517:12518   */\n      dup4\n        /* \"#utility.yul\":12499:12519   */\n      tag_296\n      jump\t// in\n    tag_469:\n        /* \"#utility.yul\":12494:12519   */\n      swap3\n      pop\n        /* \"#utility.yul\":12543:12544   */\n      dup3\n        /* \"#utility.yul\":12540:12541   */\n      dup3\n        /* \"#utility.yul\":12536:12545   */\n      sub\n        /* \"#utility.yul\":12528:12545   */\n      swap1\n      pop\n        /* \"#utility.yul\":12567:12568   */\n      dup2\n        /* \"#utility.yul\":12561:12565   */\n      dup2\n        /* \"#utility.yul\":12558:12569   */\n      gt\n        /* \"#utility.yul\":12555:12592   */\n      iszero\n      tag_470\n      jumpi\n        /* \"#utility.yul\":12572:12590   */\n      tag_471\n      tag_330\n      jump\t// in\n    tag_471:\n        /* \"#utility.yul\":12555:12592   */\n    tag_470:\n        /* \"#utility.yul\":12405:12599   */\n      swap3\n      swap2\n      pop\n      pop\n      jump\t// out\n        /* \"#utility.yul\":12605:12833   */\n    tag_331:\n        /* \"#utility.yul\":12745:12779   */\n      0x4d6f64756c65583a616d6f756e74206d75737420626520677265617465722074\n        /* \"#utility.yul\":12741:12742   */\n      0x00\n        /* \"#utility.yul\":12733:12739   */\n      dup3\n        /* \"#utility.yul\":12729:12743   */\n      add\n        /* \"#utility.yul\":12722:12780   */\n      mstore\n        /* \"#utility.yul\":12814:12825   */\n      0x68616e207a65726f210000000000000000000000000000000000000000000000\n        /* \"#utility.yul\":12809:12811   */\n      0x20\n        /* \"#utility.yul\":12801:12807   */\n      dup3\n        /* \"#utility.yul\":12797:12812   */\n      add\n        /* \"#utility.yul\":12790:12826   */\n      mstore\n        /* \"#utility.yul\":12605:12833   */\n      pop\n      jump\t// out\n        /* \"#utility.yul\":12839:13205   */\n    tag_332:\n        /* \"#utility.yul\":12981:12984   */\n      0x00\n        /* \"#utility.yul\":13002:13069   */\n      tag_474\n        /* \"#utility.yul\":13066:13068   */\n      0x29\n        /* \"#utility.yul\":13061:13064   */\n      dup4\n        /* \"#utility.yul\":13002:13069   */\n      tag_321\n      jump\t// in\n    tag_474:\n        /* \"#utility.yul\":12995:13069   */\n      swap2\n      pop\n        /* \"#utility.yul\":13078:13171   */\n      tag_475\n        /* \"#utility.yul\":13167:13170   */\n      dup3\n        /* \"#utility.yul\":13078:13171   */\n      tag_331\n      jump\t// in\n    tag_475:\n        /* \"#utility.yul\":13196:13198   */\n      0x40\n        /* \"#utility.yul\":13191:13194   */\n      dup3\n        /* \"#utility.yul\":13187:13199   */\n      add\n        /* \"#utility.yul\":13180:13199   */\n      swap1\n      pop\n        /* \"#utility.yul\":12839:13205   */\n      swap2\n      swap1\n      pop\n      jump\t// out\n        /* \"#utility.yul\":13211:13630   */\n    tag_147:\n        /* \"#utility.yul\":13377:13381   */\n      0x00\n        /* \"#utility.yul\":13415:13417   */\n      0x20\n        /* \"#utility.yul\":13404:13413   */\n      dup3\n        /* \"#utility.yul\":13400:13418   */\n      add\n        /* \"#utility.yul\":13392:13418   */\n      swap1\n      pop\n        /* \"#utility.yul\":13464:13473   */\n      dup2\n        /* \"#utility.yul\":13458:13462   */\n      dup2\n        /* \"#utility.yul\":13454:13474   */\n      sub\n        /* \"#utility.yul\":13450:13451   */\n      0x00\n        /* \"#utility.yul\":13439:13448   */\n      dup4\n        /* \"#utility.yul\":13435:13452   */\n      add\n        /* \"#utility.yul\":13428:13475   */\n      mstore\n        /* \"#utility.yul\":13492:13623   */\n      tag_477\n        /* \"#utility.yul\":13618:13622   */\n      dup2\n        /* \"#utility.yul\":13492:13623   */\n      tag_332\n      jump\t// in\n    tag_477:\n        /* \"#utility.yul\":13484:13623   */\n      swap1\n      pop\n        /* \"#utility.yul\":13211:13630   */\n      swap2\n      swap1\n      pop\n      jump\t// out\n        /* \"#utility.yul\":13636:13807   */\n    tag_333:\n        /* \"#utility.yul\":13776:13799   */\n      0x4d6f64756c65583a4275726e7420746f6b656e73210000000000000000000000\n        /* \"#utility.yul\":13772:13773   */\n      0x00\n        /* \"#utility.yul\":13764:13770   */\n      dup3\n        /* \"#utility.yul\":13760:13774   */\n      add\n        /* \"#utility.yul\":13753:13800   */\n      mstore\n        /* \"#utility.yul\":13636:13807   */\n      pop\n      jump\t// out\n        /* \"#utility.yul\":13813:14179   */\n    tag_334:\n        /* \"#utility.yul\":13955:13958   */\n      0x00\n        /* \"#utility.yul\":13976:14043   */\n      tag_480\n        /* \"#utility.yul\":14040:14042   */\n      0x15\n        /* \"#utility.yul\":14035:14038   */\n      dup4\n        /* \"#utility.yul\":13976:14043   */\n      tag_321\n      jump\t// in\n    tag_480:\n        /* \"#utility.yul\":13969:14043   */\n      swap2\n      pop\n        /* \"#utility.yul\":14052:14145   */\n      tag_481\n        /* \"#utility.yul\":14141:14144   */\n      dup3\n        /* \"#utility.yul\":14052:14145   */\n      tag_333\n      jump\t// in\n    tag_481:\n        /* \"#utility.yul\":14170:14172   */\n      0x20\n        /* \"#utility.yul\":14165:14168   */\n      dup3\n        /* \"#utility.yul\":14161:14173   */\n      add\n        /* \"#utility.yul\":14154:14173   */\n      swap1\n      pop\n        /* \"#utility.yul\":13813:14179   */\n      swap2\n      swap1\n      pop\n      jump\t// out\n        /* \"#utility.yul\":14185:14604   */\n    tag_151:\n        /* \"#utility.yul\":14351:14355   */\n      0x00\n        /* \"#utility.yul\":14389:14391   */\n      0x20\n        /* \"#utility.yul\":14378:14387   */\n      dup3\n        /* \"#utility.yul\":14374:14392   */\n      add\n        /* \"#utility.yul\":14366:14392   */\n      swap1\n      pop\n        /* \"#utility.yul\":14438:14447   */\n      dup2\n        /* \"#utility.yul\":14432:14436   */\n      dup2\n        /* \"#utility.yul\":14428:14448   */\n      sub\n        /* \"#utility.yul\":14424:14425   */\n      0x00\n        /* \"#utility.yul\":14413:14422   */\n      dup4\n        /* \"#utility.yul\":14409:14426   */\n      add\n        /* \"#utility.yul\":14402:14449   */\n      mstore\n        /* \"#utility.yul\":14466:14597   */\n      tag_483\n        /* \"#utility.yul\":14592:14596   */\n      dup2\n        /* \"#utility.yul\":14466:14597   */\n      tag_334\n      jump\t// in\n    tag_483:\n        /* \"#utility.yul\":14458:14597   */\n      swap1\n      pop\n        /* \"#utility.yul\":14185:14604   */\n      swap2\n      swap1\n      pop\n      jump\t// out\n        /* \"#utility.yul\":14610:14789   */\n    tag_335:\n        /* \"#utility.yul\":14750:14781   */\n      0x4d6f64756c65583a496e73756666696369656e742062616c616e636521000000\n        /* \"#utility.yul\":14746:14747   */\n      0x00\n        /* \"#utility.yul\":14738:14744   */\n      dup3\n        /* \"#utility.yul\":14734:14748   */\n      add\n        /* \"#utility.yul\":14727:14782   */\n      mstore\n        /* \"#utility.yul\":14610:14789   */\n      pop\n      jump\t// out\n        /* \"#utility.yul\":14795:15161   */\n    tag_336:\n        /* \"#utility.yul\":14937:14940   */\n      0x00\n        /* \"#utility.yul\":14958:15025   */\n      tag_486\n        /* \"#utility.yul\":15022:15024   */\n      0x1d\n        /* \"#utility.yul\":15017:15020   */\n      dup4\n        /* \"#utility.yul\":14958:15025   */\n      tag_321\n      jump\t// in\n    tag_486:\n        /* \"#utility.yul\":14951:15025   */\n      swap2\n      pop\n        /* \"#utility.yul\":15034:15127   */\n      tag_487\n        /* \"#utility.yul\":15123:15126   */\n      dup3\n        /* \"#utility.yul\":15034:15127   */\n      tag_335\n      jump\t// in\n    tag_487:\n        /* \"#utility.yul\":15152:15154   */\n      0x20\n        /* \"#utility.yul\":15147:15150   */\n      dup3\n        /* \"#utility.yul\":15143:15155   */\n      add\n        /* \"#utility.yul\":15136:15155   */\n      swap1\n      pop\n        /* \"#utility.yul\":14795:15161   */\n      swap2\n      swap1\n      pop\n      jump\t// out\n        /* \"#utility.yul\":15167:15586   */\n    tag_154:\n        /* \"#utility.yul\":15333:15337   */\n      0x00\n        /* \"#utility.yul\":15371:15373   */\n      0x20\n        /* \"#utility.yul\":15360:15369   */\n      dup3\n        /* \"#utility.yul\":15356:15374   */\n      add\n        /* \"#utility.yul\":15348:15374   */\n      swap1\n      pop\n        /* \"#utility.yul\":15420:15429   */\n      dup2\n        /* \"#utility.yul\":15414:15418   */\n      dup2\n        /* \"#utility.yul\":15410:15430   */\n      sub\n        /* \"#utility.yul\":15406:15407   */\n      0x00\n        /* \"#utility.yul\":15395:15404   */\n      dup4\n        /* \"#utility.yul\":15391:15408   */\n      add\n        /* \"#utility.yul\":15384:15431   */\n      mstore\n        /* \"#utility.yul\":15448:15579   */\n      tag_489\n        /* \"#utility.yul\":15574:15578   */\n      dup2\n        /* \"#utility.yul\":15448:15579   */\n      tag_336\n      jump\t// in\n    tag_489:\n        /* \"#utility.yul\":15440:15579   */\n      swap1\n      pop\n        /* \"#utility.yul\":15167:15586   */\n      swap2\n      swap1\n      pop\n      jump\t// out\n        /* \"#utility.yul\":15592:15772   */\n    tag_169:\n        /* \"#utility.yul\":15640:15717   */\n      0x4e487b7100000000000000000000000000000000000000000000000000000000\n        /* \"#utility.yul\":15637:15638   */\n      0x00\n        /* \"#utility.yul\":15630:15718   */\n      mstore\n        /* \"#utility.yul\":15737:15741   */\n      0x32\n        /* \"#utility.yul\":15734:15735   */\n      0x04\n        /* \"#utility.yul\":15727:15742   */\n      mstore\n        /* \"#utility.yul\":15761:15765   */\n      0x24\n        /* \"#utility.yul\":15758:15759   */\n      0x00\n        /* \"#utility.yul\":15751:15766   */\n      revert\n        /* \"#utility.yul\":15778:15969   */\n    tag_178:\n        /* \"#utility.yul\":15818:15821   */\n      0x00\n        /* \"#utility.yul\":15837:15857   */\n      tag_492\n        /* \"#utility.yul\":15855:15856   */\n      dup3\n        /* \"#utility.yul\":15837:15857   */\n      tag_296\n      jump\t// in\n    tag_492:\n        /* \"#utility.yul\":15832:15857   */\n      swap2\n      pop\n        /* \"#utility.yul\":15871:15891   */\n      tag_493\n        /* \"#utility.yul\":15889:15890   */\n      dup4\n        /* \"#utility.yul\":15871:15891   */\n      tag_296\n      jump\t// in\n    tag_493:\n        /* \"#utility.yul\":15866:15891   */\n      swap3\n      pop\n        /* \"#utility.yul\":15914:15915   */\n      dup3\n        /* \"#utility.yul\":15911:15912   */\n      dup3\n        /* \"#utility.yul\":15907:15916   */\n      add\n        /* \"#utility.yul\":15900:15916   */\n      swap1\n      pop\n        /* \"#utility.yul\":15935:15938   */\n      dup1\n        /* \"#utility.yul\":15932:15933   */\n      dup3\n        /* \"#utility.yul\":15929:15939   */\n      gt\n        /* \"#utility.yul\":15926:15962   */\n      iszero\n      tag_494\n      jumpi\n        /* \"#utility.yul\":15942:15960   */\n      tag_495\n      tag_330\n      jump\t// in\n    tag_495:\n        /* \"#utility.yul\":15926:15962   */\n    tag_494:\n        /* \"#utility.yul\":15778:15969   */\n      swap3\n      swap2\n      pop\n      pop\n      jump\t// out\n        /* \"#utility.yul\":15975:16151   */\n    tag_337:\n        /* \"#utility.yul\":16115:16143   */\n      0x4d6f64756c65583a546f74616c20616d6f756e74206973203021000000000000\n        /* \"#utility.yul\":16111:16112   */\n      0x00\n        /* \"#utility.yul\":16103:16109   */\n      dup3\n        /* \"#utility.yul\":16099:16113   */\n      add\n        /* \"#utility.yul\":16092:16144   */\n      mstore\n        /* \"#utility.yul\":15975:16151   */\n      pop\n      jump\t// out\n        /* \"#utility.yul\":16157:16523   */\n    tag_338:\n        /* \"#utility.yul\":16299:16302   */\n      0x00\n        /* \"#utility.yul\":16320:16387   */\n      tag_498\n        /* \"#utility.yul\":16384:16386   */\n      0x1a\n        /* \"#utility.yul\":16379:16382   */\n      dup4\n        /* \"#utility.yul\":16320:16387   */\n      tag_321\n      jump\t// in\n    tag_498:\n        /* \"#utility.yul\":16313:16387   */\n      swap2\n      pop\n        /* \"#utility.yul\":16396:16489   */\n      tag_499\n        /* \"#utility.yul\":16485:16488   */\n      dup3\n        /* \"#utility.yul\":16396:16489   */\n      tag_337\n      jump\t// in\n    tag_499:\n        /* \"#utility.yul\":16514:16516   */\n      0x20\n        /* \"#utility.yul\":16509:16512   */\n      dup3\n        /* \"#utility.yul\":16505:16517   */\n      add\n        /* \"#utility.yul\":16498:16517   */\n      swap1\n      pop\n        /* \"#utility.yul\":16157:16523   */\n      swap2\n      swap1\n      pop\n      jump\t// out\n        /* \"#utility.yul\":16529:16948   */\n    tag_184:\n        /* \"#utility.yul\":16695:16699   */\n      0x00\n        /* \"#utility.yul\":16733:16735   */\n      0x20\n        /* \"#utility.yul\":16722:16731   */\n      dup3\n        /* \"#utility.yul\":16718:16736   */\n      add\n        /* \"#utility.yul\":16710:16736   */\n      swap1\n      pop\n        /* \"#utility.yul\":16782:16791   */\n      dup2\n        /* \"#utility.yul\":16776:16780   */\n      dup2\n        /* \"#utility.yul\":16772:16792   */\n      sub\n        /* \"#utility.yul\":16768:16769   */\n      0x00\n        /* \"#utility.yul\":16757:16766   */\n      dup4\n        /* \"#utility.yul\":16753:16770   */\n      add\n        /* \"#utility.yul\":16746:16793   */\n      mstore\n        /* \"#utility.yul\":16810:16941   */\n      tag_501\n        /* \"#utility.yul\":16936:16940   */\n      dup2\n        /* \"#utility.yul\":16810:16941   */\n      tag_338\n      jump\t// in\n    tag_501:\n        /* \"#utility.yul\":16802:16941   */\n      swap1\n      pop\n        /* \"#utility.yul\":16529:16948   */\n      swap2\n      swap1\n      pop\n      jump\t// out\n        /* \"#utility.yul\":16954:17134   */\n    tag_339:\n        /* \"#utility.yul\":17002:17079   */\n      0x4e487b7100000000000000000000000000000000000000000000000000000000\n        /* \"#utility.yul\":16999:17000   */\n      0x00\n        /* \"#utility.yul\":16992:17080   */\n      mstore\n        /* \"#utility.yul\":17099:17103   */\n      0x12\n        /* \"#utility.yul\":17096:17097   */\n      0x04\n        /* \"#utility.yul\":17089:17104   */\n      mstore\n        /* \"#utility.yul\":17123:17127   */\n      0x24\n        /* \"#utility.yul\":17120:17121   */\n      0x00\n        /* \"#utility.yul\":17113:17128   */\n      revert\n        /* \"#utility.yul\":17140:17325   */\n    tag_202:\n        /* \"#utility.yul\":17180:17181   */\n      0x00\n        /* \"#utility.yul\":17197:17217   */\n      tag_504\n        /* \"#utility.yul\":17215:17216   */\n      dup3\n        /* \"#utility.yul\":17197:17217   */\n      tag_296\n      jump\t// in\n    tag_504:\n        /* \"#utility.yul\":17192:17217   */\n      swap2\n      pop\n        /* \"#utility.yul\":17231:17251   */\n      tag_505\n        /* \"#utility.yul\":17249:17250   */\n      dup4\n        /* \"#utility.yul\":17231:17251   */\n      tag_296\n      jump\t// in\n    tag_505:\n        /* \"#utility.yul\":17226:17251   */\n      swap3\n      pop\n        /* \"#utility.yul\":17270:17271   */\n      dup3\n        /* \"#utility.yul\":17260:17295   */\n      tag_506\n      jumpi\n        /* \"#utility.yul\":17275:17293   */\n      tag_507\n      tag_339\n      jump\t// in\n    tag_507:\n        /* \"#utility.yul\":17260:17295   */\n    tag_506:\n        /* \"#utility.yul\":17317:17318   */\n      dup3\n        /* \"#utility.yul\":17314:17315   */\n      dup3\n        /* \"#utility.yul\":17310:17319   */\n      div\n        /* \"#utility.yul\":17305:17319   */\n      swap1\n      pop\n        /* \"#utility.yul\":17140:17325   */\n      swap3\n      swap2\n      pop\n      pop\n      jump\t// out\n        /* \"#utility.yul\":17331:17741   */\n    tag_211:\n        /* \"#utility.yul\":17371:17378   */\n      0x00\n        /* \"#utility.yul\":17394:17414   */\n      tag_509\n        /* \"#utility.yul\":17412:17413   */\n      dup3\n        /* \"#utility.yul\":17394:17414   */\n      tag_296\n      jump\t// in\n    tag_509:\n        /* \"#utility.yul\":17389:17414   */\n      swap2\n      pop\n        /* \"#utility.yul\":17428:17448   */\n      tag_510\n        /* \"#utility.yul\":17446:17447   */\n      dup4\n        /* \"#utility.yul\":17428:17448   */\n      tag_296\n      jump\t// in\n    tag_510:\n        /* \"#utility.yul\":17423:17448   */\n      swap3\n      pop\n        /* \"#utility.yul\":17483:17484   */\n      dup3\n        /* \"#utility.yul\":17480:17481   */\n      dup3\n        /* \"#utility.yul\":17476:17485   */\n      mul\n        /* \"#utility.yul\":17505:17535   */\n      tag_511\n        /* \"#utility.yul\":17523:17534   */\n      dup2\n        /* \"#utility.yul\":17505:17535   */\n      tag_296\n      jump\t// in\n    tag_511:\n        /* \"#utility.yul\":17494:17535   */\n      swap2\n      pop\n        /* \"#utility.yul\":17684:17685   */\n      dup3\n        /* \"#utility.yul\":17675:17682   */\n      dup3\n        /* \"#utility.yul\":17671:17686   */\n      div\n        /* \"#utility.yul\":17668:17669   */\n      dup5\n        /* \"#utility.yul\":17665:17687   */\n      eq\n        /* \"#utility.yul\":17645:17646   */\n      dup4\n        /* \"#utility.yul\":17638:17647   */\n      iszero\n        /* \"#utility.yul\":17618:17701   */\n      or\n        /* \"#utility.yul\":17595:17734   */\n      tag_512\n      jumpi\n        /* \"#utility.yul\":17714:17732   */\n      tag_513\n      tag_330\n      jump\t// in\n    tag_513:\n        /* \"#utility.yul\":17595:17734   */\n    tag_512:\n        /* \"#utility.yul\":17379:17741   */\n      pop\n        /* \"#utility.yul\":17331:17741   */\n      swap3\n      swap2\n      pop\n      pop\n      jump\t// out\n        /* \"#utility.yul\":17747:17890   */\n    tag_340:\n        /* \"#utility.yul\":17804:17809   */\n      0x00\n        /* \"#utility.yul\":17835:17841   */\n      dup2\n        /* \"#utility.yul\":17829:17842   */\n      mload\n        /* \"#utility.yul\":17820:17842   */\n      swap1\n      pop\n        /* \"#utility.yul\":17851:17884   */\n      tag_515\n        /* \"#utility.yul\":17878:17883   */\n      dup2\n        /* \"#utility.yul\":17851:17884   */\n      tag_301\n      jump\t// in\n    tag_515:\n        /* \"#utility.yul\":17747:17890   */\n      swap3\n      swap2\n      pop\n      pop\n      jump\t// out\n        /* \"#utility.yul\":17896:18247   */\n    tag_240:\n        /* \"#utility.yul\":17966:17972   */\n      0x00\n        /* \"#utility.yul\":18015:18017   */\n      0x20\n        /* \"#utility.yul\":18003:18012   */\n      dup3\n        /* \"#utility.yul\":17994:18001   */\n      dup5\n        /* \"#utility.yul\":17990:18013   */\n      sub\n        /* \"#utility.yul\":17986:18018   */\n      slt\n        /* \"#utility.yul\":17983:18102   */\n      iszero\n      tag_517\n      jumpi\n        /* \"#utility.yul\":18021:18100   */\n      tag_518\n      tag_299\n      jump\t// in\n    tag_518:\n        /* \"#utility.yul\":17983:18102   */\n    tag_517:\n        /* \"#utility.yul\":18141:18142   */\n      0x00\n        /* \"#utility.yul\":18166:18230   */\n      tag_519\n        /* \"#utility.yul\":18222:18229   */\n      dup5\n        /* \"#utility.yul\":18213:18219   */\n      dup3\n        /* \"#utility.yul\":18202:18211   */\n      dup6\n        /* \"#utility.yul\":18198:18220   */\n      add\n        /* \"#utility.yul\":18166:18230   */\n      tag_340\n      jump\t// in\n    tag_519:\n        /* \"#utility.yul\":18156:18230   */\n      swap2\n      pop\n        /* \"#utility.yul\":18112:18240   */\n      pop\n        /* \"#utility.yul\":17896:18247   */\n      swap3\n      swap2\n      pop\n      pop\n      jump\t// out\n        /* \"#utility.yul\":18253:18484   */\n    tag_341:\n        /* \"#utility.yul\":18393:18427   */\n      0x4d6f64756c65583a5374616b6520616d6f756e74206d75737420626520677265\n        /* \"#utility.yul\":18389:18390   */\n      0x00\n        /* \"#utility.yul\":18381:18387   */\n      dup3\n        /* \"#utility.yul\":18377:18391   */\n      add\n        /* \"#utility.yul\":18370:18428   */\n      mstore\n        /* \"#utility.yul\":18462:18476   */\n      0x61746572207468616e2030210000000000000000000000000000000000000000\n        /* \"#utility.yul\":18457:18459   */\n      0x20\n        /* \"#utility.yul\":18449:18455   */\n      dup3\n        /* \"#utility.yul\":18445:18460   */\n      add\n        /* \"#utility.yul\":18438:18477   */\n      mstore\n        /* \"#utility.yul\":18253:18484   */\n      pop\n      jump\t// out\n        /* \"#utility.yul\":18490:18856   */\n    tag_342:\n        /* \"#utility.yul\":18632:18635   */\n      0x00\n        /* \"#utility.yul\":18653:18720   */\n      tag_522\n        /* \"#utility.yul\":18717:18719   */\n      0x2c\n        /* \"#utility.yul\":18712:18715   */\n      dup4\n        /* \"#utility.yul\":18653:18720   */\n      tag_321\n      jump\t// in\n    tag_522:\n        /* \"#utility.yul\":18646:18720   */\n      swap2\n      pop\n        /* \"#utility.yul\":18729:18822   */\n      tag_523\n        /* \"#utility.yul\":18818:18821   */\n      dup3\n        /* \"#utility.yul\":18729:18822   */\n      tag_341\n      jump\t// in\n    tag_523:\n        /* \"#utility.yul\":18847:18849   */\n      0x40\n        /* \"#utility.yul\":18842:18845   */\n      dup3\n        /* \"#utility.yul\":18838:18850   */\n      add\n        /* \"#utility.yul\":18831:18850   */\n      swap1\n      pop\n        /* \"#utility.yul\":18490:18856   */\n      swap2\n      swap1\n      pop\n      jump\t// out\n        /* \"#utility.yul\":18862:19281   */\n    tag_248:\n        /* \"#utility.yul\":19028:19032   */\n      0x00\n        /* \"#utility.yul\":19066:19068   */\n      0x20\n        /* \"#utility.yul\":19055:19064   */\n      dup3\n        /* \"#utility.yul\":19051:19069   */\n      add\n        /* \"#utility.yul\":19043:19069   */\n      swap1\n      pop\n        /* \"#utility.yul\":19115:19124   */\n      dup2\n        /* \"#utility.yul\":19109:19113   */\n      dup2\n        /* \"#utility.yul\":19105:19125   */\n      sub\n        /* \"#utility.yul\":19101:19102   */\n      0x00\n        /* \"#utility.yul\":19090:19099   */\n      dup4\n        /* \"#utility.yul\":19086:19103   */\n      add\n        /* \"#utility.yul\":19079:19126   */\n      mstore\n        /* \"#utility.yul\":19143:19274   */\n      tag_525\n        /* \"#utility.yul\":19269:19273   */\n      dup2\n        /* \"#utility.yul\":19143:19274   */\n      tag_342\n      jump\t// in\n    tag_525:\n        /* \"#utility.yul\":19135:19274   */\n      swap1\n      pop\n        /* \"#utility.yul\":18862:19281   */\n      swap2\n      swap1\n      pop\n      jump\t// out\n        /* \"#utility.yul\":19287:19468   */\n    tag_343:\n        /* \"#utility.yul\":19427:19460   */\n      0x4d6f64756c65583a557365206c6f6e676572206c6f636b5f706572696f642100\n        /* \"#utility.yul\":19423:19424   */\n      0x00\n        /* \"#utility.yul\":19415:19421   */\n      dup3\n        /* \"#utility.yul\":19411:19425   */\n      add\n        /* \"#utility.yul\":19404:19461   */\n      mstore\n        /* \"#utility.yul\":19287:19468   */\n      pop\n      jump\t// out\n        /* \"#utility.yul\":19474:19840   */\n    tag_344:\n        /* \"#utility.yul\":19616:19619   */\n      0x00\n        /* \"#utility.yul\":19637:19704   */\n      tag_528\n        /* \"#utility.yul\":19701:19703   */\n      0x1f\n        /* \"#utility.yul\":19696:19699   */\n      dup4\n        /* \"#utility.yul\":19637:19704   */\n      tag_321\n      jump\t// in\n    tag_528:\n        /* \"#utility.yul\":19630:19704   */\n      swap2\n      pop\n        /* \"#utility.yul\":19713:19806   */\n      tag_529\n        /* \"#utility.yul\":19802:19805   */\n      dup3\n        /* \"#utility.yul\":19713:19806   */\n      tag_343\n      jump\t// in\n    tag_529:\n        /* \"#utility.yul\":19831:19833   */\n      0x20\n        /* \"#utility.yul\":19826:19829   */\n      dup3\n        /* \"#utility.yul\":19822:19834   */\n      add\n        /* \"#utility.yul\":19815:19834   */\n      swap1\n      pop\n        /* \"#utility.yul\":19474:19840   */\n      swap2\n      swap1\n      pop\n      jump\t// out\n        /* \"#utility.yul\":19846:20265   */\n    tag_251:\n        /* \"#utility.yul\":20012:20016   */\n      0x00\n        /* \"#utility.yul\":20050:20052   */\n      0x20\n        /* \"#utility.yul\":20039:20048   */\n      dup3\n        /* \"#utility.yul\":20035:20053   */\n      add\n        /* \"#utility.yul\":20027:20053   */\n      swap1\n      pop\n        /* \"#utility.yul\":20099:20108   */\n      dup2\n        /* \"#utility.yul\":20093:20097   */\n      dup2\n        /* \"#utility.yul\":20089:20109   */\n      sub\n        /* \"#utility.yul\":20085:20086   */\n      0x00\n        /* \"#utility.yul\":20074:20083   */\n      dup4\n        /* \"#utility.yul\":20070:20087   */\n      add\n        /* \"#utility.yul\":20063:20110   */\n      mstore\n        /* \"#utility.yul\":20127:20258   */\n      tag_531\n        /* \"#utility.yul\":20253:20257   */\n      dup2\n        /* \"#utility.yul\":20127:20258   */\n      tag_344\n      jump\t// in\n    tag_531:\n        /* \"#utility.yul\":20119:20258   */\n      swap1\n      pop\n        /* \"#utility.yul\":19846:20265   */\n      swap2\n      swap1\n      pop\n      jump\t// out\n        /* \"#utility.yul\":20271:20484   */\n    tag_256:\n        /* \"#utility.yul\":20310:20313   */\n      0x00\n        /* \"#utility.yul\":20329:20348   */\n      tag_533\n        /* \"#utility.yul\":20346:20347   */\n      dup3\n        /* \"#utility.yul\":20329:20348   */\n      tag_311\n      jump\t// in\n    tag_533:\n        /* \"#utility.yul\":20324:20348   */\n      swap2\n      pop\n        /* \"#utility.yul\":20362:20381   */\n      tag_534\n        /* \"#utility.yul\":20379:20380   */\n      dup4\n        /* \"#utility.yul\":20362:20381   */\n      tag_311\n      jump\t// in\n    tag_534:\n        /* \"#utility.yul\":20357:20381   */\n      swap3\n      pop\n        /* \"#utility.yul\":20404:20405   */\n      dup3\n        /* \"#utility.yul\":20401:20402   */\n      dup3\n        /* \"#utility.yul\":20397:20406   */\n      add\n        /* \"#utility.yul\":20390:20406   */\n      swap1\n      pop\n        /* \"#utility.yul\":20427:20453   */\n      0xffffffffffffffffffffffff\n        /* \"#utility.yul\":20422:20425   */\n      dup2\n        /* \"#utility.yul\":20419:20454   */\n      gt\n        /* \"#utility.yul\":20416:20477   */\n      iszero\n      tag_535\n      jumpi\n        /* \"#utility.yul\":20457:20475   */\n      tag_536\n      tag_330\n      jump\t// in\n    tag_536:\n        /* \"#utility.yul\":20416:20477   */\n    tag_535:\n        /* \"#utility.yul\":20271:20484   */\n      swap3\n      swap2\n      pop\n      pop\n      jump\t// out\n        /* \"#utility.yul\":20490:21039   */\n    tag_263:\n        /* \"#utility.yul\":20665:20669   */\n      0x00\n        /* \"#utility.yul\":20703:20706   */\n      0x80\n        /* \"#utility.yul\":20692:20701   */\n      dup3\n        /* \"#utility.yul\":20688:20707   */\n      add\n        /* \"#utility.yul\":20680:20707   */\n      swap1\n      pop\n        /* \"#utility.yul\":20717:20788   */\n      tag_538\n        /* \"#utility.yul\":20785:20786   */\n      0x00\n        /* \"#utility.yul\":20774:20783   */\n      dup4\n        /* \"#utility.yul\":20770:20787   */\n      add\n        /* \"#utility.yul\":20761:20767   */\n      dup8\n        /* \"#utility.yul\":20717:20788   */\n      tag_297\n      jump\t// in\n    tag_538:\n        /* \"#utility.yul\":20798:20868   */\n      tag_539\n        /* \"#utility.yul\":20864:20866   */\n      0x20\n        /* \"#utility.yul\":20853:20862   */\n      dup4\n        /* \"#utility.yul\":20849:20867   */\n      add\n        /* \"#utility.yul\":20840:20846   */\n      dup7\n        /* \"#utility.yul\":20798:20868   */\n      tag_312\n      jump\t// in\n    tag_539:\n        /* \"#utility.yul\":20878:20950   */\n      tag_540\n        /* \"#utility.yul\":20946:20948   */\n      0x40\n        /* \"#utility.yul\":20935:20944   */\n      dup4\n        /* \"#utility.yul\":20931:20949   */\n      add\n        /* \"#utility.yul\":20922:20928   */\n      dup6\n        /* \"#utility.yul\":20878:20950   */\n      tag_297\n      jump\t// in\n    tag_540:\n        /* \"#utility.yul\":20960:21032   */\n      tag_541\n        /* \"#utility.yul\":21028:21030   */\n      0x60\n        /* \"#utility.yul\":21017:21026   */\n      dup4\n        /* \"#utility.yul\":21013:21031   */\n      add\n        /* \"#utility.yul\":21004:21010   */\n      dup5\n        /* \"#utility.yul\":20960:21032   */\n      tag_297\n      jump\t// in\n    tag_541:\n        /* \"#utility.yul\":20490:21039   */\n      swap6\n      swap5\n      pop\n      pop\n      pop\n      pop\n      pop\n      jump\t// out\n        /* \"#utility.yul\":21045:21278   */\n    tag_265:\n        /* \"#utility.yul\":21084:21087   */\n      0x00\n        /* \"#utility.yul\":21107:21131   */\n      tag_543\n        /* \"#utility.yul\":21125:21130   */\n      dup3\n        /* \"#utility.yul\":21107:21131   */\n      tag_296\n      jump\t// in\n    tag_543:\n        /* \"#utility.yul\":21098:21131   */\n      swap2\n      pop\n        /* \"#utility.yul\":21153:21219   */\n      0xffffffffffffffffffffffffffffffffffffffffffffffffffffffffffffffff\n        /* \"#utility.yul\":21146:21151   */\n      dup3\n        /* \"#utility.yul\":21143:21220   */\n      sub\n        /* \"#utility.yul\":21140:21243   */\n      tag_544\n      jumpi\n        /* \"#utility.yul\":21223:21241   */\n      tag_545\n      tag_330\n      jump\t// in\n    tag_545:\n        /* \"#utility.yul\":21140:21243   */\n    tag_544:\n        /* \"#utility.yul\":21270:21271   */\n      0x01\n        /* \"#utility.yul\":21263:21268   */\n      dup3\n        /* \"#utility.yul\":21259:21272   */\n      add\n        /* \"#utility.yul\":21252:21272   */\n      swap1\n      pop\n        /* \"#utility.yul\":21045:21278   */\n      swap2\n      swap1\n      pop\n      jump\t// out\n        /* \"#utility.yul\":21284:21616   */\n    tag_277:\n        /* \"#utility.yul\":21405:21409   */\n      0x00\n        /* \"#utility.yul\":21443:21445   */\n      0x40\n        /* \"#utility.yul\":21432:21441   */\n      dup3\n        /* \"#utility.yul\":21428:21446   */\n      add\n        /* \"#utility.yul\":21420:21446   */\n      swap1\n      pop\n        /* \"#utility.yul\":21456:21527   */\n      tag_547\n        /* \"#utility.yul\":21524:21525   */\n      0x00\n        /* \"#utility.yul\":21513:21522   */\n      dup4\n        /* \"#utility.yul\":21509:21526   */\n      add\n        /* \"#utility.yul\":21500:21506   */\n      dup6\n        /* \"#utility.yul\":21456:21527   */\n      tag_310\n      jump\t// in\n    tag_547:\n        /* \"#utility.yul\":21537:21609   */\n      tag_548\n        /* \"#utility.yul\":21605:21607   */\n      0x20\n        /* \"#utility.yul\":21594:21603   */\n      dup4\n        /* \"#utility.yul\":21590:21608   */\n      add\n        /* \"#utility.yul\":21581:21587   */\n      dup5\n        /* \"#utility.yul\":21537:21609   */\n      tag_297\n      jump\t// in\n    tag_548:\n        /* \"#utility.yul\":21284:21616   */\n      swap4\n      swap3\n      pop\n      pop\n      pop\n      jump\t// out\n        /* \"#utility.yul\":21622:22064   */\n    tag_289:\n        /* \"#utility.yul\":21771:21775   */\n      0x00\n        /* \"#utility.yul\":21809:21811   */\n      0x60\n        /* \"#utility.yul\":21798:21807   */\n      dup3\n        /* \"#utility.yul\":21794:21812   */\n      add\n        /* \"#utility.yul\":21786:21812   */\n      swap1\n      pop\n        /* \"#utility.yul\":21822:21893   */\n      tag_550\n        /* \"#utility.yul\":21890:21891   */\n      0x00\n        /* \"#utility.yul\":21879:21888   */\n      dup4\n        /* \"#utility.yul\":21875:21892   */\n      add\n        /* \"#utility.yul\":21866:21872   */\n      dup7\n        /* \"#utility.yul\":21822:21893   */\n      tag_310\n      jump\t// in\n    tag_550:\n        /* \"#utility.yul\":21903:21975   */\n      tag_551\n        /* \"#utility.yul\":21971:21973   */\n      0x20\n        /* \"#utility.yul\":21960:21969   */\n      dup4\n        /* \"#utility.yul\":21956:21974   */\n      add\n        /* \"#utility.yul\":21947:21953   */\n      dup6\n        /* \"#utility.yul\":21903:21975   */\n      tag_310\n      jump\t// in\n    tag_551:\n        /* \"#utility.yul\":21985:22057   */\n      tag_552\n        /* \"#utility.yul\":22053:22055   */\n      0x40\n        /* \"#utility.yul\":22042:22051   */\n      dup4\n        /* \"#utility.yul\":22038:22056   */\n      add\n        /* \"#utility.yul\":22029:22035   */\n      dup5\n        /* \"#utility.yul\":21985:22057   */\n      tag_297\n      jump\t// in\n    tag_552:\n        /* \"#utility.yul\":21622:22064   */\n      swap5\n      swap4\n      pop\n      pop\n      pop\n      pop\n      jump\t// out\n\n    auxdata: 0xa2646970667358221220db767b669f7098c30ca8f7e063cf626ddb2c456dac7743f8d6e611af584578aa64736f6c634300081d0033\n}\n",
				"bytecode": {
					"linkReferences": {},
					"object": "60c060405260016002555f6003555f60045534801561001c575f5ffd5b506040516125a23803806125a2833981810160405281019061003e9190610261565b61004c61013b60201b60201c565b5f73ffffffffffffffffffffffffffffffffffffffff168173ffffffffffffffffffffffffffffffffffffffff16036100bc575f6040517f1e4fbdf70000000000000000000000000000000000000000000000000000000081526004016100b391906102ae565b60405180910390fd5b6100cb8161014260201b60201c565b508173ffffffffffffffffffffffffffffffffffffffff1660808173ffffffffffffffffffffffffffffffffffffffff16815250508073ffffffffffffffffffffffffffffffffffffffff1660a08173ffffffffffffffffffffffffffffffffffffffff168152505050506102c7565b5f33905090565b5f5f5f9054906101000a900473ffffffffffffffffffffffffffffffffffffffff169050815f5f6101000a81548173ffffffffffffffffffffffffffffffffffffffff021916908373ffffffffffffffffffffffffffffffffffffffff1602179055508173ffffffffffffffffffffffffffffffffffffffff168173ffffffffffffffffffffffffffffffffffffffff167f8be0079c531659141344cd1fd0a4f28419497f9722a3daafe3b4186f6b6457e060405160405180910390a35050565b5f5ffd5b5f73ffffffffffffffffffffffffffffffffffffffff82169050919050565b5f61023082610207565b9050919050565b61024081610226565b811461024a575f5ffd5b50565b5f8151905061025b81610237565b92915050565b5f5f6040838503121561027757610276610203565b5b5f6102848582860161024d565b92505060206102958582860161024d565b9150509250929050565b6102a881610226565b82525050565b5f6020820190506102c15f83018461029f565b92915050565b60805160a05161227b6103275f395f81816105c4015281816106aa0152818161092e01528181610bf601528181610f5e015261103c01525f81816106720152818161088901528181610b5c01528181610f220152611186015261227b5ff3fe608060405234801561000f575f5ffd5b5060043610610135575f3560e01c8063af7568dd116100b6578063ce325bf81161007a578063ce325bf8146102f3578063d2d7231f14610326578063d46149a214610356578063d6ef7af014610374578063d93c04a014610390578063f2fde38b146103c157610135565b8063af7568dd14610261578063b109beec1461027f578063b5fa91fe1461029d578063bc854352146102bb578063beceed39146102d757610135565b80637c2fdeb5116100fd5780637c2fdeb5146101cd5780638da5cb5b146101eb5780638e12c0cd146102095780638f4729b714610227578063ac00500f1461024557610135565b8063109cf39914610139578063379607f5146101575780633fa352f5146101875780636db08f25146101a5578063715018a6146101c3575b5f5ffd5b6101416103dd565b60405161014e9190611721565b60405180910390f35b610171600480360381019061016c919061176c565b6103eb565b60405161017e9190611721565b60405180910390f35b61018f61066b565b60405161019c9190611721565b60405180910390f35b6101ad610670565b6040516101ba9190611811565b60405180910390f35b6101cb610694565b005b6101d56106a7565b6040516101e2919061184a565b60405180910390f35b6101f36106ce565b604051610200919061184a565b60405180910390f35b6102116106f5565b60405161021e9190611889565b60405180910390f35b61022f6106fb565b60405161023c9190611721565b60405180910390f35b61025f600480360381019061025a91906118a2565b610701565b005b610269610926565b6040516102769190611721565b60405180910390f35b61028761092c565b6040516102949190611811565b60405180910390f35b6102a5610950565b6040516102b29190611721565b60405180910390f35b6102d560048036038101906102d09190611941565b610965565b005b6102f160048036038101906102ec919061176c565b610ba5565b005b61030d6004803603810190610308919061176c565b610c75565b60405161031d949392919061198c565b60405180910390f35b610340600480360381019061033b919061176c565b610d73565b60405161034d9190611721565b60405180910390f35b61035e610f1f565b60405161036b919061184a565b60405180910390f35b61038e600480360381019061038991906119f9565b610f46565b005b6103aa60048036038101906103a59190611a61565b6110d2565b6040516103b8929190611a9f565b60405180910390f35b6103db60048036038101906103d69190611ac6565b611393565b005b6969e10de76676d080000081565b5f815f811180156103fd575060025481105b61043c576040517f08c379a000000000000000000000000000000000000000000000000000000000815260040161043390611b4b565b60405180910390fd5b5f60015f8581526020019081526020015f209050610458611417565b73ffffffffffffffffffffffffffffffffffffffff16815f015f9054906101000a900473ffffffffffffffffffffffffffffffffffffffff1673ffffffffffffffffffffffffffffffffffffffff16146104e7576040517f08c379a00000000000000000000000000000000000000000000000000000000081526004016104de90611bb3565b60405180910390fd5b805f0160149054906101000a90046bffffffffffffffffffffffff166bffffffffffffffffffffffff1661051961141e565b6bffffffffffffffffffffffff161015610568576040517f08c379a000000000000000000000000000000000000000000000000000000000815260040161055f90611c41565b60405180910390fd5b5f8160020154116105ae576040517f08c379a00000000000000000000000000000000000000000000000000000000081526004016105a590611ca9565b60405180910390fd5b5f816002015490506106086105c1611417565b827f000000000000000000000000000000000000000000000000000000000000000073ffffffffffffffffffffffffffffffffffffffff166114259092919063ffffffff16565b8060045f8282546106199190611cf4565b925050819055505f82600201819055507f67bb155fcabb99400c32b640dc7704c8f18aae4c817704c7267c5a8cd26dfc19856040516106589190611721565b60405180910390a1809350505050919050565b600b81565b7f000000000000000000000000000000000000000000000000000000000000000081565b61069c6114a4565b6106a55f61152b565b565b5f7f0000000000000000000000000000000000000000000000000000000000000000905090565b5f5f5f9054906101000a900473ffffffffffffffffffffffffffffffffffffffff16905090565b612a3081565b60045481565b6107096114a4565b815f8111801561071a575060025481105b610759576040517f08c379a000000000000000000000000000000000000000000000000000000000815260040161075090611b4b565b60405180910390fd5b5f821161079b576040517f08c379a000000000000000000000000000000000000000000000000000000000815260040161079290611d97565b60405180910390fd5b5f60015f8581526020019081526020015f209050805f0160149054906101000a90046bffffffffffffffffffffffff166bffffffffffffffffffffffff166107e161141e565b6bffffffffffffffffffffffff161115610830576040517f08c379a000000000000000000000000000000000000000000000000000000000815260040161082790611dff565b60405180910390fd5b8060010154831115610877576040517f08c379a000000000000000000000000000000000000000000000000000000000815260040161086e90611e67565b60405180910390fd5b6108cd610882611417565b82600101547f000000000000000000000000000000000000000000000000000000000000000073ffffffffffffffffffffffffffffffffffffffff166114259092919063ffffffff16565b82816001015f8282546108e09190611cf4565b925050819055507f03a00e6132085cbc9ea18899cd135ef9cad5d305d58506e08e7b1a9b96199a9c8484604051610918929190611a9f565b60405180910390a150505050565b60035481565b7f000000000000000000000000000000000000000000000000000000000000000081565b5f60016002546109609190611cf4565b905090565b61096d6114a4565b5f5f90505f5f90505b83839050811015610b0b5760025484848381811061099757610996611e85565b5b90506020020135106109de576040517f08c379a00000000000000000000000000000000000000000000000000000000081526004016109d590611b4b565b60405180910390fd5b5f60015f8686858181106109f5576109f4611e85565b5b9050602002013581526020019081526020015f209050805f0160149054906101000a90046bffffffffffffffffffffffff166bffffffffffffffffffffffff16610a3d61141e565b6bffffffffffffffffffffffff161115610a8c576040517f08c379a0000000000000000000000000000000000000000000000000000000008152600401610a8390611dff565b60405180910390fd5b806001015483610a9c9190611eb2565b92505f81600101819055507f03a00e6132085cbc9ea18899cd135ef9cad5d305d58506e08e7b1a9b96199a9c858584818110610adb57610ada611e85565b5b905060200201358260010154604051610af5929190611a9f565b60405180910390a1508080600101915050610976565b505f8111610b4e576040517f08c379a0000000000000000000000000000000000000000000000000000000008152600401610b4590611f2f565b60405180910390fd5b610ba0610b59611417565b827f000000000000000000000000000000000000000000000000000000000000000073ffffffffffffffffffffffffffffffffffffffff166114259092919063ffffffff16565b505050565b5f8111610be7576040517f08c379a0000000000000000000000000000000000000000000000000000000008152600401610bde90611d97565b60405180910390fd5b610c3b610bf2611417565b30837f000000000000000000000000000000000000000000000000000000000000000073ffffffffffffffffffffffffffffffffffffffff166115ec909392919063ffffffff16565b7fde88a922e0d3b88b24e9623efeb464919c6bf9f66857a65e2bfcf2ce87a9433d81604051610c6a9190611721565b60405180910390a150565b5f5f5f5f845f81118015610c8a575060025481105b610cc9576040517f08c379a0000000000000000000000000000000000000000000000000000000008152600401610cc090611b4b565b60405180910390fd5b60015f8781526020019081526020015f205f015f9054906101000a900473ffffffffffffffffffffffffffffffffffffffff1660015f8881526020019081526020015f205f0160149054906101000a90046bffffffffffffffffffffffff1660015f8981526020019081526020015f206001015460015f8a81526020019081526020015f2060020154826bffffffffffffffffffffffff1692509450945094509450509193509193565b5f5f670de0b6b3a764000090505f83600354610d8f9190611eb2565b90505f6969e10de76676d0800000600354610daa9190611f7a565b90505f6969e10de76676d080000083610dc39190611f7a565b9050808203610def57600b82610dd99190611eb2565b86610de49190611f7a565b945050505050610f1a565b5f600b83610dfd9190611eb2565b6003546969e10de76676d0800000600186610e189190611eb2565b610e229190611faa565b610e2c9190611cf4565b86610e379190611faa565b610e419190611f7a565b90505f600b83610e519190611eb2565b6969e10de76676d080000084610e679190611faa565b86610e729190611cf4565b87610e7d9190611faa565b610e879190611f7a565b90505f5f90505f600186610e9b9190611eb2565b90505b84811015610eed57600b81610eb39190611eb2565b6969e10de76676d080000089610ec99190611faa565b610ed39190611f7a565b82610ede9190611eb2565b91508080600101915050610e9e565b5086828285610efc9190611eb2565b610f069190611eb2565b610f109190611f7a565b9750505050505050505b919050565b5f7f0000000000000000000000000000000000000000000000000000000000000000905090565b610f4e6114a4565b60045481610f5c9190611eb2565b7f000000000000000000000000000000000000000000000000000000000000000073ffffffffffffffffffffffffffffffffffffffff166370a08231306040518263ffffffff1660e01b8152600401610fb5919061184a565b602060405180830381865afa158015610fd0573d5f5f3e3d5ffd5b505050506040513d601f19601f82011682018060405250810190610ff49190611fff565b1015611035576040517f08c379a000000000000000000000000000000000000000000000000000000000815260040161102c90611e67565b60405180910390fd5b61108082827f000000000000000000000000000000000000000000000000000000000000000073ffffffffffffffffffffffffffffffffffffffff166114259092919063ffffffff16565b8173ffffffffffffffffffffffffffffffffffffffff167f1d3eee4ca001cff39eec6ec7615aacf2f2bd61791273830728ba00ccbd6e1337826040516110c69190611721565b60405180910390a25050565b5f5f5f8311611116576040517f08c379a000000000000000000000000000000000000000000000000000000000815260040161110d9061209a565b60405180910390fd5b612a306bffffffffffffffffffffffff16846bffffffffffffffffffffffff161015611177576040517f08c379a000000000000000000000000000000000000000000000000000000000815260040161116e90612102565b60405180910390fd5b6111cb611182611417565b30857f000000000000000000000000000000000000000000000000000000000000000073ffffffffffffffffffffffffffffffffffffffff166115ec909392919063ffffffff16565b5f846111d561141e565b6111df9190612120565b90505f6111eb85610d73565b90505f60025490506040518060800160405280611206611417565b73ffffffffffffffffffffffffffffffffffffffff168152602001846bffffffffffffffffffffffff1681526020018781526020018381525060015f8381526020019081526020015f205f820151815f015f6101000a81548173ffffffffffffffffffffffffffffffffffffffff021916908373ffffffffffffffffffffffffffffffffffffffff1602179055506020820151815f0160146101000a8154816bffffffffffffffffffffffff02191690836bffffffffffffffffffffffff16021790555060408201518160010155606082015181600201559050508560035f8282546112f29190611eb2565b925050819055508160045f82825461130a9190611eb2565b92505081905550611319611417565b73ffffffffffffffffffffffffffffffffffffffff167f24fe2d25c10eb2c67b5ac1e3edbcadc94191e154ed388ad667a9480c44f4714682858986604051611364949392919061215f565b60405180910390a260025f81548092919061137e906121a2565b91905055508082945094505050509250929050565b61139b6114a4565b5f73ffffffffffffffffffffffffffffffffffffffff168173ffffffffffffffffffffffffffffffffffffffff160361140b575f6040517f1e4fbdf7000000000000000000000000000000000000000000000000000000008152600401611402919061184a565b60405180910390fd5b6114148161152b565b50565b5f33905090565b5f42905090565b61149f838473ffffffffffffffffffffffffffffffffffffffff1663a9059cbb85856040516024016114589291906121e9565b604051602081830303815290604052915060e01b6020820180517bffffffffffffffffffffffffffffffffffffffffffffffffffffffff838183161783525050505061166e565b505050565b6114ac611417565b73ffffffffffffffffffffffffffffffffffffffff166114ca6106ce565b73ffffffffffffffffffffffffffffffffffffffff1614611529576114ed611417565b6040517f118cdaa7000000000000000000000000000000000000000000000000000000008152600401611520919061184a565b60405180910390fd5b565b5f5f5f9054906101000a900473ffffffffffffffffffffffffffffffffffffffff169050815f5f6101000a81548173ffffffffffffffffffffffffffffffffffffffff021916908373ffffffffffffffffffffffffffffffffffffffff1602179055508173ffffffffffffffffffffffffffffffffffffffff168173ffffffffffffffffffffffffffffffffffffffff167f8be0079c531659141344cd1fd0a4f28419497f9722a3daafe3b4186f6b6457e060405160405180910390a35050565b611668848573ffffffffffffffffffffffffffffffffffffffff166323b872dd86868660405160240161162193929190612210565b604051602081830303815290604052915060e01b6020820180517bffffffffffffffffffffffffffffffffffffffffffffffffffffffff838183161783525050505061166e565b50505050565b5f5f60205f8451602086015f885af18061168d576040513d5f823e3d81fd5b3d92505f519150505f82146116a65760018114156116c1565b5f8473ffffffffffffffffffffffffffffffffffffffff163b145b1561170357836040517f5274afe70000000000000000000000000000000000000000000000000000000081526004016116fa919061184a565b60405180910390fd5b50505050565b5f819050919050565b61171b81611709565b82525050565b5f6020820190506117345f830184611712565b92915050565b5f5ffd5b5f5ffd5b61174b81611709565b8114611755575f5ffd5b50565b5f8135905061176681611742565b92915050565b5f602082840312156117815761178061173a565b5b5f61178e84828501611758565b91505092915050565b5f73ffffffffffffffffffffffffffffffffffffffff82169050919050565b5f819050919050565b5f6117d96117d46117cf84611797565b6117b6565b611797565b9050919050565b5f6117ea826117bf565b9050919050565b5f6117fb826117e0565b9050919050565b61180b816117f1565b82525050565b5f6020820190506118245f830184611802565b92915050565b5f61183482611797565b9050919050565b6118448161182a565b82525050565b5f60208201905061185d5f83018461183b565b92915050565b5f6bffffffffffffffffffffffff82169050919050565b61188381611863565b82525050565b5f60208201905061189c5f83018461187a565b92915050565b5f5f604083850312156118b8576118b761173a565b5b5f6118c585828601611758565b92505060206118d685828601611758565b9150509250929050565b5f5ffd5b5f5ffd5b5f5ffd5b5f5f83601f840112611901576119006118e0565b5b8235905067ffffffffffffffff81111561191e5761191d6118e4565b5b60208301915083602082028301111561193a576119396118e8565b5b9250929050565b5f5f602083850312156119575761195661173a565b5b5f83013567ffffffffffffffff8111156119745761197361173e565b5b611980858286016118ec565b92509250509250929050565b5f60808201905061199f5f83018761183b565b6119ac6020830186611712565b6119b96040830185611712565b6119c66060830184611712565b95945050505050565b6119d88161182a565b81146119e2575f5ffd5b50565b5f813590506119f3816119cf565b92915050565b5f5f60408385031215611a0f57611a0e61173a565b5b5f611a1c858286016119e5565b9250506020611a2d85828601611758565b9150509250929050565b611a4081611863565b8114611a4a575f5ffd5b50565b5f81359050611a5b81611a37565b92915050565b5f5f60408385031215611a7757611a7661173a565b5b5f611a8485828601611a4d565b9250506020611a9585828601611758565b9150509250929050565b5f604082019050611ab25f830185611712565b611abf6020830184611712565b9392505050565b5f60208284031215611adb57611ada61173a565b5b5f611ae8848285016119e5565b91505092915050565b5f82825260208201905092915050565b7f4d6f64756c65583a496e76616c6964205374616b6520494421000000000000005f82015250565b5f611b35601983611af1565b9150611b4082611b01565b602082019050919050565b5f6020820190508181035f830152611b6281611b29565b9050919050565b7f4d6f64756c65583a43616c6c6572206973206e6f7420746865206f776e6572005f82015250565b5f611b9d601f83611af1565b9150611ba882611b69565b602082019050919050565b5f6020820190508181035f830152611bca81611b91565b9050919050565b7f4d6f64756c65583a4561726c79205769746864726177616c206973206e6f74205f8201527f7065726d69747465642100000000000000000000000000000000000000000000602082015250565b5f611c2b602a83611af1565b9150611c3682611bd1565b604082019050919050565b5f6020820190508181035f830152611c5881611c1f565b9050919050565b7f4d6f64756c65583a4e6f7468696e6720746f20636c61696d00000000000000005f82015250565b5f611c93601883611af1565b9150611c9e82611c5f565b602082019050919050565b5f6020820190508181035f830152611cc081611c87565b9050919050565b7f4e487b71000000000000000000000000000000000000000000000000000000005f52601160045260245ffd5b5f611cfe82611709565b9150611d0983611709565b9250828203905081811115611d2157611d20611cc7565b5b92915050565b7f4d6f64756c65583a616d6f756e74206d757374206265206772656174657220745f8201527f68616e207a65726f210000000000000000000000000000000000000000000000602082015250565b5f611d81602983611af1565b9150611d8c82611d27565b604082019050919050565b5f6020820190508181035f830152611dae81611d75565b9050919050565b7f4d6f64756c65583a4275726e7420746f6b656e732100000000000000000000005f82015250565b5f611de9601583611af1565b9150611df482611db5565b602082019050919050565b5f6020820190508181035f830152611e1681611ddd565b9050919050565b7f4d6f64756c65583a496e73756666696369656e742062616c616e6365210000005f82015250565b5f611e51601d83611af1565b9150611e5c82611e1d565b602082019050919050565b5f6020820190508181035f830152611e7e81611e45565b9050919050565b7f4e487b71000000000000000000000000000000000000000000000000000000005f52603260045260245ffd5b5f611ebc82611709565b9150611ec783611709565b9250828201905080821115611edf57611ede611cc7565b5b92915050565b7f4d6f64756c65583a546f74616c20616d6f756e742069732030210000000000005f82015250565b5f611f19601a83611af1565b9150611f2482611ee5565b602082019050919050565b5f6020820190508181035f830152611f4681611f0d565b9050919050565b7f4e487b71000000000000000000000000000000000000000000000000000000005f52601260045260245ffd5b5f611f8482611709565b9150611f8f83611709565b925082611f9f57611f9e611f4d565b5b828204905092915050565b5f611fb482611709565b9150611fbf83611709565b9250828202611fcd81611709565b91508282048414831517611fe457611fe3611cc7565b5b5092915050565b5f81519050611ff981611742565b92915050565b5f602082840312156120145761201361173a565b5b5f61202184828501611feb565b91505092915050565b7f4d6f64756c65583a5374616b6520616d6f756e74206d757374206265206772655f8201527f61746572207468616e2030210000000000000000000000000000000000000000602082015250565b5f612084602c83611af1565b915061208f8261202a565b604082019050919050565b5f6020820190508181035f8301526120b181612078565b9050919050565b7f4d6f64756c65583a557365206c6f6e676572206c6f636b5f706572696f6421005f82015250565b5f6120ec601f83611af1565b91506120f7826120b8565b602082019050919050565b5f6020820190508181035f830152612119816120e0565b9050919050565b5f61212a82611863565b915061213583611863565b925082820190506bffffffffffffffffffffffff81111561215957612158611cc7565b5b92915050565b5f6080820190506121725f830187611712565b61217f602083018661187a565b61218c6040830185611712565b6121996060830184611712565b95945050505050565b5f6121ac82611709565b91507fffffffffffffffffffffffffffffffffffffffffffffffffffffffffffffffff82036121de576121dd611cc7565b5b600182019050919050565b5f6040820190506121fc5f83018561183b565b6122096020830184611712565b9392505050565b5f6060820190506122235f83018661183b565b612230602083018561183b565b61223d6040830184611712565b94935050505056fea2646970667358221220db767b669f7098c30ca8f7e063cf626ddb2c456dac7743f8d6e611af584578aa64736f6c634300081d0033",
					"opcodes": "PUSH1 0xC0 PUSH1 0x40 MSTORE PUSH1 0x1 PUSH1 0x2 SSTORE PUSH0 PUSH1 0x3 SSTORE PUSH0 PUSH1 0x4 SSTORE CALLVALUE DUP1 ISZERO PUSH2 0x1C JUMPI PUSH0 PUSH0 REVERT JUMPDEST POP PUSH1 0x40 MLOAD PUSH2 0x25A2 CODESIZE SUB DUP1 PUSH2 0x25A2 DUP4 CODECOPY DUP2 DUP2 ADD PUSH1 0x40 MSTORE DUP2 ADD SWAP1 PUSH2 0x3E SWAP2 SWAP1 PUSH2 0x261 JUMP JUMPDEST PUSH2 0x4C PUSH2 0x13B PUSH1 0x20 SHL PUSH1 0x20 SHR JUMP JUMPDEST PUSH0 PUSH20 0xFFFFFFFFFFFFFFFFFFFFFFFFFFFFFFFFFFFFFFFF AND DUP2 PUSH20 0xFFFFFFFFFFFFFFFFFFFFFFFFFFFFFFFFFFFFFFFF AND SUB PUSH2 0xBC JUMPI PUSH0 PUSH1 0x40 MLOAD PUSH32 0x1E4FBDF700000000000000000000000000000000000000000000000000000000 DUP2 MSTORE PUSH1 0x4 ADD PUSH2 0xB3 SWAP2 SWAP1 PUSH2 0x2AE JUMP JUMPDEST PUSH1 0x40 MLOAD DUP1 SWAP2 SUB SWAP1 REVERT JUMPDEST PUSH2 0xCB DUP2 PUSH2 0x142 PUSH1 0x20 SHL PUSH1 0x20 SHR JUMP JUMPDEST POP DUP2 PUSH20 0xFFFFFFFFFFFFFFFFFFFFFFFFFFFFFFFFFFFFFFFF AND PUSH1 0x80 DUP2 PUSH20 0xFFFFFFFFFFFFFFFFFFFFFFFFFFFFFFFFFFFFFFFF AND DUP2 MSTORE POP POP DUP1 PUSH20 0xFFFFFFFFFFFFFFFFFFFFFFFFFFFFFFFFFFFFFFFF AND PUSH1 0xA0 DUP2 PUSH20 0xFFFFFFFFFFFFFFFFFFFFFFFFFFFFFFFFFFFFFFFF AND DUP2 MSTORE POP POP POP POP PUSH2 0x2C7 JUMP JUMPDEST PUSH0 CALLER SWAP1 POP SWAP1 JUMP JUMPDEST PUSH0 PUSH0 PUSH0 SWAP1 SLOAD SWAP1 PUSH2 0x100 EXP SWAP1 DIV PUSH20 0xFFFFFFFFFFFFFFFFFFFFFFFFFFFFFFFFFFFFFFFF AND SWAP1 POP DUP2 PUSH0 PUSH0 PUSH2 0x100 EXP DUP2 SLOAD DUP2 PUSH20 0xFFFFFFFFFFFFFFFFFFFFFFFFFFFFFFFFFFFFFFFF MUL NOT AND SWAP1 DUP4 PUSH20 0xFFFFFFFFFFFFFFFFFFFFFFFFFFFFFFFFFFFFFFFF AND MUL OR SWAP1 SSTORE POP DUP2 PUSH20 0xFFFFFFFFFFFFFFFFFFFFFFFFFFFFFFFFFFFFFFFF AND DUP2 PUSH20 0xFFFFFFFFFFFFFFFFFFFFFFFFFFFFFFFFFFFFFFFF AND PUSH32 0x8BE0079C531659141344CD1FD0A4F28419497F9722A3DAAFE3B4186F6B6457E0 PUSH1 0x40 MLOAD PUSH1 0x40 MLOAD DUP1 SWAP2 SUB SWAP1 LOG3 POP POP JUMP JUMPDEST PUSH0 PUSH0 REVERT JUMPDEST PUSH0 PUSH20 0xFFFFFFFFFFFFFFFFFFFFFFFFFFFFFFFFFFFFFFFF DUP3 AND SWAP1 POP SWAP2 SWAP1 POP JUMP JUMPDEST PUSH0 PUSH2 0x230 DUP3 PUSH2 0x207 JUMP JUMPDEST SWAP1 POP SWAP2 SWAP1 POP JUMP JUMPDEST PUSH2 0x240 DUP2 PUSH2 0x226 JUMP JUMPDEST DUP2 EQ PUSH2 0x24A JUMPI PUSH0 PUSH0 REVERT JUMPDEST POP JUMP JUMPDEST PUSH0 DUP2 MLOAD SWAP1 POP PUSH2 0x25B DUP2 PUSH2 0x237 JUMP JUMPDEST SWAP3 SWAP2 POP POP JUMP JUMPDEST PUSH0 PUSH0 PUSH1 0x40 DUP4 DUP6 SUB SLT ISZERO PUSH2 0x277 JUMPI PUSH2 0x276 PUSH2 0x203 JUMP JUMPDEST JUMPDEST PUSH0 PUSH2 0x284 DUP6 DUP3 DUP7 ADD PUSH2 0x24D JUMP JUMPDEST SWAP3 POP POP PUSH1 0x20 PUSH2 0x295 DUP6 DUP3 DUP7 ADD PUSH2 0x24D JUMP JUMPDEST SWAP2 POP POP SWAP3 POP SWAP3 SWAP1 POP JUMP JUMPDEST PUSH2 0x2A8 DUP2 PUSH2 0x226 JUMP JUMPDEST DUP3 MSTORE POP POP JUMP JUMPDEST PUSH0 PUSH1 0x20 DUP3 ADD SWAP1 POP PUSH2 0x2C1 PUSH0 DUP4 ADD DUP5 PUSH2 0x29F JUMP JUMPDEST SWAP3 SWAP2 POP POP JUMP JUMPDEST PUSH1 0x80 MLOAD PUSH1 0xA0 MLOAD PUSH2 0x227B PUSH2 0x327 PUSH0 CODECOPY PUSH0 DUP2 DUP2 PUSH2 0x5C4 ADD MSTORE DUP2 DUP2 PUSH2 0x6AA ADD MSTORE DUP2 DUP2 PUSH2 0x92E ADD MSTORE DUP2 DUP2 PUSH2 0xBF6 ADD MSTORE DUP2 DUP2 PUSH2 0xF5E ADD MSTORE PUSH2 0x103C ADD MSTORE PUSH0 DUP2 DUP2 PUSH2 0x672 ADD MSTORE DUP2 DUP2 PUSH2 0x889 ADD MSTORE DUP2 DUP2 PUSH2 0xB5C ADD MSTORE DUP2 DUP2 PUSH2 0xF22 ADD MSTORE PUSH2 0x1186 ADD MSTORE PUSH2 0x227B PUSH0 RETURN INVALID PUSH1 0x80 PUSH1 0x40 MSTORE CALLVALUE DUP1 ISZERO PUSH2 0xF JUMPI PUSH0 PUSH0 REVERT JUMPDEST POP PUSH1 0x4 CALLDATASIZE LT PUSH2 0x135 JUMPI PUSH0 CALLDATALOAD PUSH1 0xE0 SHR DUP1 PUSH4 0xAF7568DD GT PUSH2 0xB6 JUMPI DUP1 PUSH4 0xCE325BF8 GT PUSH2 0x7A JUMPI DUP1 PUSH4 0xCE325BF8 EQ PUSH2 0x2F3 JUMPI DUP1 PUSH4 0xD2D7231F EQ PUSH2 0x326 JUMPI DUP1 PUSH4 0xD46149A2 EQ PUSH2 0x356 JUMPI DUP1 PUSH4 0xD6EF7AF0 EQ PUSH2 0x374 JUMPI DUP1 PUSH4 0xD93C04A0 EQ PUSH2 0x390 JUMPI DUP1 PUSH4 0xF2FDE38B EQ PUSH2 0x3C1 JUMPI PUSH2 0x135 JUMP JUMPDEST DUP1 PUSH4 0xAF7568DD EQ PUSH2 0x261 JUMPI DUP1 PUSH4 0xB109BEEC EQ PUSH2 0x27F JUMPI DUP1 PUSH4 0xB5FA91FE EQ PUSH2 0x29D JUMPI DUP1 PUSH4 0xBC854352 EQ PUSH2 0x2BB JUMPI DUP1 PUSH4 0xBECEED39 EQ PUSH2 0x2D7 JUMPI PUSH2 0x135 JUMP JUMPDEST DUP1 PUSH4 0x7C2FDEB5 GT PUSH2 0xFD JUMPI DUP1 PUSH4 0x7C2FDEB5 EQ PUSH2 0x1CD JUMPI DUP1 PUSH4 0x8DA5CB5B EQ PUSH2 0x1EB JUMPI DUP1 PUSH4 0x8E12C0CD EQ PUSH2 0x209 JUMPI DUP1 PUSH4 0x8F4729B7 EQ PUSH2 0x227 JUMPI DUP1 PUSH4 0xAC00500F EQ PUSH2 0x245 JUMPI PUSH2 0x135 JUMP JUMPDEST DUP1 PUSH4 0x109CF399 EQ PUSH2 0x139 JUMPI DUP1 PUSH4 0x379607F5 EQ PUSH2 0x157 JUMPI DUP1 PUSH4 0x3FA352F5 EQ PUSH2 0x187 JUMPI DUP1 PUSH4 0x6DB08F25 EQ PUSH2 0x1A5 JUMPI DUP1 PUSH4 0x715018A6 EQ PUSH2 0x1C3 JUMPI JUMPDEST PUSH0 PUSH0 REVERT JUMPDEST PUSH2 0x141 PUSH2 0x3DD JUMP JUMPDEST PUSH1 0x40 MLOAD PUSH2 0x14E SWAP2 SWAP1 PUSH2 0x1721 JUMP JUMPDEST PUSH1 0x40 MLOAD DUP1 SWAP2 SUB SWAP1 RETURN JUMPDEST PUSH2 0x171 PUSH1 0x4 DUP1 CALLDATASIZE SUB DUP2 ADD SWAP1 PUSH2 0x16C SWAP2 SWAP1 PUSH2 0x176C JUMP JUMPDEST PUSH2 0x3EB JUMP JUMPDEST PUSH1 0x40 MLOAD PUSH2 0x17E SWAP2 SWAP1 PUSH2 0x1721 JUMP JUMPDEST PUSH1 0x40 MLOAD DUP1 SWAP2 SUB SWAP1 RETURN JUMPDEST PUSH2 0x18F PUSH2 0x66B JUMP JUMPDEST PUSH1 0x40 MLOAD PUSH2 0x19C SWAP2 SWAP1 PUSH2 0x1721 JUMP JUMPDEST PUSH1 0x40 MLOAD DUP1 SWAP2 SUB SWAP1 RETURN JUMPDEST PUSH2 0x1AD PUSH2 0x670 JUMP JUMPDEST PUSH1 0x40 MLOAD PUSH2 0x1BA SWAP2 SWAP1 PUSH2 0x1811 JUMP JUMPDEST PUSH1 0x40 MLOAD DUP1 SWAP2 SUB SWAP1 RETURN JUMPDEST PUSH2 0x1CB PUSH2 0x694 JUMP JUMPDEST STOP JUMPDEST PUSH2 0x1D5 PUSH2 0x6A7 JUMP JUMPDEST PUSH1 0x40 MLOAD PUSH2 0x1E2 SWAP2 SWAP1 PUSH2 0x184A JUMP JUMPDEST PUSH1 0x40 MLOAD DUP1 SWAP2 SUB SWAP1 RETURN JUMPDEST PUSH2 0x1F3 PUSH2 0x6CE JUMP JUMPDEST PUSH1 0x40 MLOAD PUSH2 0x200 SWAP2 SWAP1 PUSH2 0x184A JUMP JUMPDEST PUSH1 0x40 MLOAD DUP1 SWAP2 SUB SWAP1 RETURN JUMPDEST PUSH2 0x211 PUSH2 0x6F5 JUMP JUMPDEST PUSH1 0x40 MLOAD PUSH2 0x21E SWAP2 SWAP1 PUSH2 0x1889 JUMP JUMPDEST PUSH1 0x40 MLOAD DUP1 SWAP2 SUB SWAP1 RETURN JUMPDEST PUSH2 0x22F PUSH2 0x6FB JUMP JUMPDEST PUSH1 0x40 MLOAD PUSH2 0x23C SWAP2 SWAP1 PUSH2 0x1721 JUMP JUMPDEST PUSH1 0x40 MLOAD DUP1 SWAP2 SUB SWAP1 RETURN JUMPDEST PUSH2 0x25F PUSH1 0x4 DUP1 CALLDATASIZE SUB DUP2 ADD SWAP1 PUSH2 0x25A SWAP2 SWAP1 PUSH2 0x18A2 JUMP JUMPDEST PUSH2 0x701 JUMP JUMPDEST STOP JUMPDEST PUSH2 0x269 PUSH2 0x926 JUMP JUMPDEST PUSH1 0x40 MLOAD PUSH2 0x276 SWAP2 SWAP1 PUSH2 0x1721 JUMP JUMPDEST PUSH1 0x40 MLOAD DUP1 SWAP2 SUB SWAP1 RETURN JUMPDEST PUSH2 0x287 PUSH2 0x92C JUMP JUMPDEST PUSH1 0x40 MLOAD PUSH2 0x294 SWAP2 SWAP1 PUSH2 0x1811 JUMP JUMPDEST PUSH1 0x40 MLOAD DUP1 SWAP2 SUB SWAP1 RETURN JUMPDEST PUSH2 0x2A5 PUSH2 0x950 JUMP JUMPDEST PUSH1 0x40 MLOAD PUSH2 0x2B2 SWAP2 SWAP1 PUSH2 0x1721 JUMP JUMPDEST PUSH1 0x40 MLOAD DUP1 SWAP2 SUB SWAP1 RETURN JUMPDEST PUSH2 0x2D5 PUSH1 0x4 DUP1 CALLDATASIZE SUB DUP2 ADD SWAP1 PUSH2 0x2D0 SWAP2 SWAP1 PUSH2 0x1941 JUMP JUMPDEST PUSH2 0x965 JUMP JUMPDEST STOP JUMPDEST PUSH2 0x2F1 PUSH1 0x4 DUP1 CALLDATASIZE SUB DUP2 ADD SWAP1 PUSH2 0x2EC SWAP2 SWAP1 PUSH2 0x176C JUMP JUMPDEST PUSH2 0xBA5 JUMP JUMPDEST STOP JUMPDEST PUSH2 0x30D PUSH1 0x4 DUP1 CALLDATASIZE SUB DUP2 ADD SWAP1 PUSH2 0x308 SWAP2 SWAP1 PUSH2 0x176C JUMP JUMPDEST PUSH2 0xC75 JUMP JUMPDEST PUSH1 0x40 MLOAD PUSH2 0x31D SWAP5 SWAP4 SWAP3 SWAP2 SWAP1 PUSH2 0x198C JUMP JUMPDEST PUSH1 0x40 MLOAD DUP1 SWAP2 SUB SWAP1 RETURN JUMPDEST PUSH2 0x340 PUSH1 0x4 DUP1 CALLDATASIZE SUB DUP2 ADD SWAP1 PUSH2 0x33B SWAP2 SWAP1 PUSH2 0x176C JUMP JUMPDEST PUSH2 0xD73 JUMP JUMPDEST PUSH1 0x40 MLOAD PUSH2 0x34D SWAP2 SWAP1 PUSH2 0x1721 JUMP JUMPDEST PUSH1 0x40 MLOAD DUP1 SWAP2 SUB SWAP1 RETURN JUMPDEST PUSH2 0x35E PUSH2 0xF1F JUMP JUMPDEST PUSH1 0x40 MLOAD PUSH2 0x36B SWAP2 SWAP1 PUSH2 0x184A JUMP JUMPDEST PUSH1 0x40 MLOAD DUP1 SWAP2 SUB SWAP1 RETURN JUMPDEST PUSH2 0x38E PUSH1 0x4 DUP1 CALLDATASIZE SUB DUP2 ADD SWAP1 PUSH2 0x389 SWAP2 SWAP1 PUSH2 0x19F9 JUMP JUMPDEST PUSH2 0xF46 JUMP JUMPDEST STOP JUMPDEST PUSH2 0x3AA PUSH1 0x4 DUP1 CALLDATASIZE SUB DUP2 ADD SWAP1 PUSH2 0x3A5 SWAP2 SWAP1 PUSH2 0x1A61 JUMP JUMPDEST PUSH2 0x10D2 JUMP JUMPDEST PUSH1 0x40 MLOAD PUSH2 0x3B8 SWAP3 SWAP2 SWAP1 PUSH2 0x1A9F JUMP JUMPDEST PUSH1 0x40 MLOAD DUP1 SWAP2 SUB SWAP1 RETURN JUMPDEST PUSH2 0x3DB PUSH1 0x4 DUP1 CALLDATASIZE SUB DUP2 ADD SWAP1 PUSH2 0x3D6 SWAP2 SWAP1 PUSH2 0x1AC6 JUMP JUMPDEST PUSH2 0x1393 JUMP JUMPDEST STOP JUMPDEST PUSH10 0x69E10DE76676D0800000 DUP2 JUMP JUMPDEST PUSH0 DUP2 PUSH0 DUP2 GT DUP1 ISZERO PUSH2 0x3FD JUMPI POP PUSH1 0x2 SLOAD DUP2 LT JUMPDEST PUSH2 0x43C JUMPI PUSH1 0x40 MLOAD PUSH32 0x8C379A000000000000000000000000000000000000000000000000000000000 DUP2 MSTORE PUSH1 0x4 ADD PUSH2 0x433 SWAP1 PUSH2 0x1B4B JUMP JUMPDEST PUSH1 0x40 MLOAD DUP1 SWAP2 SUB SWAP1 REVERT JUMPDEST PUSH0 PUSH1 0x1 PUSH0 DUP6 DUP2 MSTORE PUSH1 0x20 ADD SWAP1 DUP2 MSTORE PUSH1 0x20 ADD PUSH0 KECCAK256 SWAP1 POP PUSH2 0x458 PUSH2 0x1417 JUMP JUMPDEST PUSH20 0xFFFFFFFFFFFFFFFFFFFFFFFFFFFFFFFFFFFFFFFF AND DUP2 PUSH0 ADD PUSH0 SWAP1 SLOAD SWAP1 PUSH2 0x100 EXP SWAP1 DIV PUSH20 0xFFFFFFFFFFFFFFFFFFFFFFFFFFFFFFFFFFFFFFFF AND PUSH20 0xFFFFFFFFFFFFFFFFFFFFFFFFFFFFFFFFFFFFFFFF AND EQ PUSH2 0x4E7 JUMPI PUSH1 0x40 MLOAD PUSH32 0x8C379A000000000000000000000000000000000000000000000000000000000 DUP2 MSTORE PUSH1 0x4 ADD PUSH2 0x4DE SWAP1 PUSH2 0x1BB3 JUMP JUMPDEST PUSH1 0x40 MLOAD DUP1 SWAP2 SUB SWAP1 REVERT JUMPDEST DUP1 PUSH0 ADD PUSH1 0x14 SWAP1 SLOAD SWAP1 PUSH2 0x100 EXP SWAP1 DIV PUSH12 0xFFFFFFFFFFFFFFFFFFFFFFFF AND PUSH12 0xFFFFFFFFFFFFFFFFFFFFFFFF AND PUSH2 0x519 PUSH2 0x141E JUMP JUMPDEST PUSH12 0xFFFFFFFFFFFFFFFFFFFFFFFF AND LT ISZERO PUSH2 0x568 JUMPI PUSH1 0x40 MLOAD PUSH32 0x8C379A000000000000000000000000000000000000000000000000000000000 DUP2 MSTORE PUSH1 0x4 ADD PUSH2 0x55F SWAP1 PUSH2 0x1C41 JUMP JUMPDEST PUSH1 0x40 MLOAD DUP1 SWAP2 SUB SWAP1 REVERT JUMPDEST PUSH0 DUP2 PUSH1 0x2 ADD SLOAD GT PUSH2 0x5AE JUMPI PUSH1 0x40 MLOAD PUSH32 0x8C379A000000000000000000000000000000000000000000000000000000000 DUP2 MSTORE PUSH1 0x4 ADD PUSH2 0x5A5 SWAP1 PUSH2 0x1CA9 JUMP JUMPDEST PUSH1 0x40 MLOAD DUP1 SWAP2 SUB SWAP1 REVERT JUMPDEST PUSH0 DUP2 PUSH1 0x2 ADD SLOAD SWAP1 POP PUSH2 0x608 PUSH2 0x5C1 PUSH2 0x1417 JUMP JUMPDEST DUP3 PUSH32 0x0 PUSH20 0xFFFFFFFFFFFFFFFFFFFFFFFFFFFFFFFFFFFFFFFF AND PUSH2 0x1425 SWAP1 SWAP3 SWAP2 SWAP1 PUSH4 0xFFFFFFFF AND JUMP JUMPDEST DUP1 PUSH1 0x4 PUSH0 DUP3 DUP3 SLOAD PUSH2 0x619 SWAP2 SWAP1 PUSH2 0x1CF4 JUMP JUMPDEST SWAP3 POP POP DUP2 SWAP1 SSTORE POP PUSH0 DUP3 PUSH1 0x2 ADD DUP2 SWAP1 SSTORE POP PUSH32 0x67BB155FCABB99400C32B640DC7704C8F18AAE4C817704C7267C5A8CD26DFC19 DUP6 PUSH1 0x40 MLOAD PUSH2 0x658 SWAP2 SWAP1 PUSH2 0x1721 JUMP JUMPDEST PUSH1 0x40 MLOAD DUP1 SWAP2 SUB SWAP1 LOG1 DUP1 SWAP4 POP POP POP POP SWAP2 SWAP1 POP JUMP JUMPDEST PUSH1 0xB DUP2 JUMP JUMPDEST PUSH32 0x0 DUP2 JUMP JUMPDEST PUSH2 0x69C PUSH2 0x14A4 JUMP JUMPDEST PUSH2 0x6A5 PUSH0 PUSH2 0x152B JUMP JUMPDEST JUMP JUMPDEST PUSH0 PUSH32 0x0 SWAP1 POP SWAP1 JUMP JUMPDEST PUSH0 PUSH0 PUSH0 SWAP1 SLOAD SWAP1 PUSH2 0x100 EXP SWAP1 DIV PUSH20 0xFFFFFFFFFFFFFFFFFFFFFFFFFFFFFFFFFFFFFFFF AND SWAP1 POP SWAP1 JUMP JUMPDEST PUSH2 0x2A30 DUP2 JUMP JUMPDEST PUSH1 0x4 SLOAD DUP2 JUMP JUMPDEST PUSH2 0x709 PUSH2 0x14A4 JUMP JUMPDEST DUP2 PUSH0 DUP2 GT DUP1 ISZERO PUSH2 0x71A JUMPI POP PUSH1 0x2 SLOAD DUP2 LT JUMPDEST PUSH2 0x759 JUMPI PUSH1 0x40 MLOAD PUSH32 0x8C379A000000000000000000000000000000000000000000000000000000000 DUP2 MSTORE PUSH1 0x4 ADD PUSH2 0x750 SWAP1 PUSH2 0x1B4B JUMP JUMPDEST PUSH1 0x40 MLOAD DUP1 SWAP2 SUB SWAP1 REVERT JUMPDEST PUSH0 DUP3 GT PUSH2 0x79B JUMPI PUSH1 0x40 MLOAD PUSH32 0x8C379A000000000000000000000000000000000000000000000000000000000 DUP2 MSTORE PUSH1 0x4 ADD PUSH2 0x792 SWAP1 PUSH2 0x1D97 JUMP JUMPDEST PUSH1 0x40 MLOAD DUP1 SWAP2 SUB SWAP1 REVERT JUMPDEST PUSH0 PUSH1 0x1 PUSH0 DUP6 DUP2 MSTORE PUSH1 0x20 ADD SWAP1 DUP2 MSTORE PUSH1 0x20 ADD PUSH0 KECCAK256 SWAP1 POP DUP1 PUSH0 ADD PUSH1 0x14 SWAP1 SLOAD SWAP1 PUSH2 0x100 EXP SWAP1 DIV PUSH12 0xFFFFFFFFFFFFFFFFFFFFFFFF AND PUSH12 0xFFFFFFFFFFFFFFFFFFFFFFFF AND PUSH2 0x7E1 PUSH2 0x141E JUMP JUMPDEST PUSH12 0xFFFFFFFFFFFFFFFFFFFFFFFF AND GT ISZERO PUSH2 0x830 JUMPI PUSH1 0x40 MLOAD PUSH32 0x8C379A000000000000000000000000000000000000000000000000000000000 DUP2 MSTORE PUSH1 0x4 ADD PUSH2 0x827 SWAP1 PUSH2 0x1DFF JUMP JUMPDEST PUSH1 0x40 MLOAD DUP1 SWAP2 SUB SWAP1 REVERT JUMPDEST DUP1 PUSH1 0x1 ADD SLOAD DUP4 GT ISZERO PUSH2 0x877 JUMPI PUSH1 0x40 MLOAD PUSH32 0x8C379A000000000000000000000000000000000000000000000000000000000 DUP2 MSTORE PUSH1 0x4 ADD PUSH2 0x86E SWAP1 PUSH2 0x1E67 JUMP JUMPDEST PUSH1 0x40 MLOAD DUP1 SWAP2 SUB SWAP1 REVERT JUMPDEST PUSH2 0x8CD PUSH2 0x882 PUSH2 0x1417 JUMP JUMPDEST DUP3 PUSH1 0x1 ADD SLOAD PUSH32 0x0 PUSH20 0xFFFFFFFFFFFFFFFFFFFFFFFFFFFFFFFFFFFFFFFF AND PUSH2 0x1425 SWAP1 SWAP3 SWAP2 SWAP1 PUSH4 0xFFFFFFFF AND JUMP JUMPDEST DUP3 DUP2 PUSH1 0x1 ADD PUSH0 DUP3 DUP3 SLOAD PUSH2 0x8E0 SWAP2 SWAP1 PUSH2 0x1CF4 JUMP JUMPDEST SWAP3 POP POP DUP2 SWAP1 SSTORE POP PUSH32 0x3A00E6132085CBC9EA18899CD135EF9CAD5D305D58506E08E7B1A9B96199A9C DUP5 DUP5 PUSH1 0x40 MLOAD PUSH2 0x918 SWAP3 SWAP2 SWAP1 PUSH2 0x1A9F JUMP JUMPDEST PUSH1 0x40 MLOAD DUP1 SWAP2 SUB SWAP1 LOG1 POP POP POP POP JUMP JUMPDEST PUSH1 0x3 SLOAD DUP2 JUMP JUMPDEST PUSH32 0x0 DUP2 JUMP JUMPDEST PUSH0 PUSH1 0x1 PUSH1 0x2 SLOAD PUSH2 0x960 SWAP2 SWAP1 PUSH2 0x1CF4 JUMP JUMPDEST SWAP1 POP SWAP1 JUMP JUMPDEST PUSH2 0x96D PUSH2 0x14A4 JUMP JUMPDEST PUSH0 PUSH0 SWAP1 POP PUSH0 PUSH0 SWAP1 POP JUMPDEST DUP4 DUP4 SWAP1 POP DUP2 LT ISZERO PUSH2 0xB0B JUMPI PUSH1 0x2 SLOAD DUP5 DUP5 DUP4 DUP2 DUP2 LT PUSH2 0x997 JUMPI PUSH2 0x996 PUSH2 0x1E85 JUMP JUMPDEST JUMPDEST SWAP1 POP PUSH1 0x20 MUL ADD CALLDATALOAD LT PUSH2 0x9DE JUMPI PUSH1 0x40 MLOAD PUSH32 0x8C379A000000000000000000000000000000000000000000000000000000000 DUP2 MSTORE PUSH1 0x4 ADD PUSH2 0x9D5 SWAP1 PUSH2 0x1B4B JUMP JUMPDEST PUSH1 0x40 MLOAD DUP1 SWAP2 SUB SWAP1 REVERT JUMPDEST PUSH0 PUSH1 0x1 PUSH0 DUP7 DUP7 DUP6 DUP2 DUP2 LT PUSH2 0x9F5 JUMPI PUSH2 0x9F4 PUSH2 0x1E85 JUMP JUMPDEST JUMPDEST SWAP1 POP PUSH1 0x20 MUL ADD CALLDATALOAD DUP2 MSTORE PUSH1 0x20 ADD SWAP1 DUP2 MSTORE PUSH1 0x20 ADD PUSH0 KECCAK256 SWAP1 POP DUP1 PUSH0 ADD PUSH1 0x14 SWAP1 SLOAD SWAP1 PUSH2 0x100 EXP SWAP1 DIV PUSH12 0xFFFFFFFFFFFFFFFFFFFFFFFF AND PUSH12 0xFFFFFFFFFFFFFFFFFFFFFFFF AND PUSH2 0xA3D PUSH2 0x141E JUMP JUMPDEST PUSH12 0xFFFFFFFFFFFFFFFFFFFFFFFF AND GT ISZERO PUSH2 0xA8C JUMPI PUSH1 0x40 MLOAD PUSH32 0x8C379A000000000000000000000000000000000000000000000000000000000 DUP2 MSTORE PUSH1 0x4 ADD PUSH2 0xA83 SWAP1 PUSH2 0x1DFF JUMP JUMPDEST PUSH1 0x40 MLOAD DUP1 SWAP2 SUB SWAP1 REVERT JUMPDEST DUP1 PUSH1 0x1 ADD SLOAD DUP4 PUSH2 0xA9C SWAP2 SWAP1 PUSH2 0x1EB2 JUMP JUMPDEST SWAP3 POP PUSH0 DUP2 PUSH1 0x1 ADD DUP2 SWAP1 SSTORE POP PUSH32 0x3A00E6132085CBC9EA18899CD135EF9CAD5D305D58506E08E7B1A9B96199A9C DUP6 DUP6 DUP5 DUP2 DUP2 LT PUSH2 0xADB JUMPI PUSH2 0xADA PUSH2 0x1E85 JUMP JUMPDEST JUMPDEST SWAP1 POP PUSH1 0x20 MUL ADD CALLDATALOAD DUP3 PUSH1 0x1 ADD SLOAD PUSH1 0x40 MLOAD PUSH2 0xAF5 SWAP3 SWAP2 SWAP1 PUSH2 0x1A9F JUMP JUMPDEST PUSH1 0x40 MLOAD DUP1 SWAP2 SUB SWAP1 LOG1 POP DUP1 DUP1 PUSH1 0x1 ADD SWAP2 POP POP PUSH2 0x976 JUMP JUMPDEST POP PUSH0 DUP2 GT PUSH2 0xB4E JUMPI PUSH1 0x40 MLOAD PUSH32 0x8C379A000000000000000000000000000000000000000000000000000000000 DUP2 MSTORE PUSH1 0x4 ADD PUSH2 0xB45 SWAP1 PUSH2 0x1F2F JUMP JUMPDEST PUSH1 0x40 MLOAD DUP1 SWAP2 SUB SWAP1 REVERT JUMPDEST PUSH2 0xBA0 PUSH2 0xB59 PUSH2 0x1417 JUMP JUMPDEST DUP3 PUSH32 0x0 PUSH20 0xFFFFFFFFFFFFFFFFFFFFFFFFFFFFFFFFFFFFFFFF AND PUSH2 0x1425 SWAP1 SWAP3 SWAP2 SWAP1 PUSH4 0xFFFFFFFF AND JUMP JUMPDEST POP POP POP JUMP JUMPDEST PUSH0 DUP2 GT PUSH2 0xBE7 JUMPI PUSH1 0x40 MLOAD PUSH32 0x8C379A000000000000000000000000000000000000000000000000000000000 DUP2 MSTORE PUSH1 0x4 ADD PUSH2 0xBDE SWAP1 PUSH2 0x1D97 JUMP JUMPDEST PUSH1 0x40 MLOAD DUP1 SWAP2 SUB SWAP1 REVERT JUMPDEST PUSH2 0xC3B PUSH2 0xBF2 PUSH2 0x1417 JUMP JUMPDEST ADDRESS DUP4 PUSH32 0x0 PUSH20 0xFFFFFFFFFFFFFFFFFFFFFFFFFFFFFFFFFFFFFFFF AND PUSH2 0x15EC SWAP1 SWAP4 SWAP3 SWAP2 SWAP1 PUSH4 0xFFFFFFFF AND JUMP JUMPDEST PUSH32 0xDE88A922E0D3B88B24E9623EFEB464919C6BF9F66857A65E2BFCF2CE87A9433D DUP2 PUSH1 0x40 MLOAD PUSH2 0xC6A SWAP2 SWAP1 PUSH2 0x1721 JUMP JUMPDEST PUSH1 0x40 MLOAD DUP1 SWAP2 SUB SWAP1 LOG1 POP JUMP JUMPDEST PUSH0 PUSH0 PUSH0 PUSH0 DUP5 PUSH0 DUP2 GT DUP1 ISZERO PUSH2 0xC8A JUMPI POP PUSH1 0x2 SLOAD DUP2 LT JUMPDEST PUSH2 0xCC9 JUMPI PUSH1 0x40 MLOAD PUSH32 0x8C379A000000000000000000000000000000000000000000000000000000000 DUP2 MSTORE PUSH1 0x4 ADD PUSH2 0xCC0 SWAP1 PUSH2 0x1B4B JUMP JUMPDEST PUSH1 0x40 MLOAD DUP1 SWAP2 SUB SWAP1 REVERT JUMPDEST PUSH1 0x1 PUSH0 DUP8 DUP2 MSTORE PUSH1 0x20 ADD SWAP1 DUP2 MSTORE PUSH1 0x20 ADD PUSH0 KECCAK256 PUSH0 ADD PUSH0 SWAP1 SLOAD SWAP1 PUSH2 0x100 EXP SWAP1 DIV PUSH20 0xFFFFFFFFFFFFFFFFFFFFFFFFFFFFFFFFFFFFFFFF AND PUSH1 0x1 PUSH0 DUP9 DUP2 MSTORE PUSH1 0x20 ADD SWAP1 DUP2 MSTORE PUSH1 0x20 ADD PUSH0 KECCAK256 PUSH0 ADD PUSH1 0x14 SWAP1 SLOAD SWAP1 PUSH2 0x100 EXP SWAP1 DIV PUSH12 0xFFFFFFFFFFFFFFFFFFFFFFFF AND PUSH1 0x1 PUSH0 DUP10 DUP2 MSTORE PUSH1 0x20 ADD SWAP1 DUP2 MSTORE PUSH1 0x20 ADD PUSH0 KECCAK256 PUSH1 0x1 ADD SLOAD PUSH1 0x1 PUSH0 DUP11 DUP2 MSTORE PUSH1 0x20 ADD SWAP1 DUP2 MSTORE PUSH1 0x20 ADD PUSH0 KECCAK256 PUSH1 0x2 ADD SLOAD DUP3 PUSH12 0xFFFFFFFFFFFFFFFFFFFFFFFF AND SWAP3 POP SWAP5 POP SWAP5 POP SWAP5 POP SWAP5 POP POP SWAP2 SWAP4 POP SWAP2 SWAP4 JUMP JUMPDEST PUSH0 PUSH0 PUSH8 0xDE0B6B3A7640000 SWAP1 POP PUSH0 DUP4 PUSH1 0x3 SLOAD PUSH2 0xD8F SWAP2 SWAP1 PUSH2 0x1EB2 JUMP JUMPDEST SWAP1 POP PUSH0 PUSH10 0x69E10DE76676D0800000 PUSH1 0x3 SLOAD PUSH2 0xDAA SWAP2 SWAP1 PUSH2 0x1F7A JUMP JUMPDEST SWAP1 POP PUSH0 PUSH10 0x69E10DE76676D0800000 DUP4 PUSH2 0xDC3 SWAP2 SWAP1 PUSH2 0x1F7A JUMP JUMPDEST SWAP1 POP DUP1 DUP3 SUB PUSH2 0xDEF JUMPI PUSH1 0xB DUP3 PUSH2 0xDD9 SWAP2 SWAP1 PUSH2 0x1EB2 JUMP JUMPDEST DUP7 PUSH2 0xDE4 SWAP2 SWAP1 PUSH2 0x1F7A JUMP JUMPDEST SWAP5 POP POP POP POP POP PUSH2 0xF1A JUMP JUMPDEST PUSH0 PUSH1 0xB DUP4 PUSH2 0xDFD SWAP2 SWAP1 PUSH2 0x1EB2 JUMP JUMPDEST PUSH1 0x3 SLOAD PUSH10 0x69E10DE76676D0800000 PUSH1 0x1 DUP7 PUSH2 0xE18 SWAP2 SWAP1 PUSH2 0x1EB2 JUMP JUMPDEST PUSH2 0xE22 SWAP2 SWAP1 PUSH2 0x1FAA JUMP JUMPDEST PUSH2 0xE2C SWAP2 SWAP1 PUSH2 0x1CF4 JUMP JUMPDEST DUP7 PUSH2 0xE37 SWAP2 SWAP1 PUSH2 0x1FAA JUMP JUMPDEST PUSH2 0xE41 SWAP2 SWAP1 PUSH2 0x1F7A JUMP JUMPDEST SWAP1 POP PUSH0 PUSH1 0xB DUP4 PUSH2 0xE51 SWAP2 SWAP1 PUSH2 0x1EB2 JUMP JUMPDEST PUSH10 0x69E10DE76676D0800000 DUP5 PUSH2 0xE67 SWAP2 SWAP1 PUSH2 0x1FAA JUMP JUMPDEST DUP7 PUSH2 0xE72 SWAP2 SWAP1 PUSH2 0x1CF4 JUMP JUMPDEST DUP8 PUSH2 0xE7D SWAP2 SWAP1 PUSH2 0x1FAA JUMP JUMPDEST PUSH2 0xE87 SWAP2 SWAP1 PUSH2 0x1F7A JUMP JUMPDEST SWAP1 POP PUSH0 PUSH0 SWAP1 POP PUSH0 PUSH1 0x1 DUP7 PUSH2 0xE9B SWAP2 SWAP1 PUSH2 0x1EB2 JUMP JUMPDEST SWAP1 POP JUMPDEST DUP5 DUP2 LT ISZERO PUSH2 0xEED JUMPI PUSH1 0xB DUP2 PUSH2 0xEB3 SWAP2 SWAP1 PUSH2 0x1EB2 JUMP JUMPDEST PUSH10 0x69E10DE76676D0800000 DUP10 PUSH2 0xEC9 SWAP2 SWAP1 PUSH2 0x1FAA JUMP JUMPDEST PUSH2 0xED3 SWAP2 SWAP1 PUSH2 0x1F7A JUMP JUMPDEST DUP3 PUSH2 0xEDE SWAP2 SWAP1 PUSH2 0x1EB2 JUMP JUMPDEST SWAP2 POP DUP1 DUP1 PUSH1 0x1 ADD SWAP2 POP POP PUSH2 0xE9E JUMP JUMPDEST POP DUP7 DUP3 DUP3 DUP6 PUSH2 0xEFC SWAP2 SWAP1 PUSH2 0x1EB2 JUMP JUMPDEST PUSH2 0xF06 SWAP2 SWAP1 PUSH2 0x1EB2 JUMP JUMPDEST PUSH2 0xF10 SWAP2 SWAP1 PUSH2 0x1F7A JUMP JUMPDEST SWAP8 POP POP POP POP POP POP POP POP JUMPDEST SWAP2 SWAP1 POP JUMP JUMPDEST PUSH0 PUSH32 0x0 SWAP1 POP SWAP1 JUMP JUMPDEST PUSH2 0xF4E PUSH2 0x14A4 JUMP JUMPDEST PUSH1 0x4 SLOAD DUP2 PUSH2 0xF5C SWAP2 SWAP1 PUSH2 0x1EB2 JUMP JUMPDEST PUSH32 0x0 PUSH20 0xFFFFFFFFFFFFFFFFFFFFFFFFFFFFFFFFFFFFFFFF AND PUSH4 0x70A08231 ADDRESS PUSH1 0x40 MLOAD DUP3 PUSH4 0xFFFFFFFF AND PUSH1 0xE0 SHL DUP2 MSTORE PUSH1 0x4 ADD PUSH2 0xFB5 SWAP2 SWAP1 PUSH2 0x184A JUMP JUMPDEST PUSH1 0x20 PUSH1 0x40 MLOAD DUP1 DUP4 SUB DUP2 DUP7 GAS STATICCALL ISZERO DUP1 ISZERO PUSH2 0xFD0 JUMPI RETURNDATASIZE PUSH0 PUSH0 RETURNDATACOPY RETURNDATASIZE PUSH0 REVERT JUMPDEST POP POP POP POP PUSH1 0x40 MLOAD RETURNDATASIZE PUSH1 0x1F NOT PUSH1 0x1F DUP3 ADD AND DUP3 ADD DUP1 PUSH1 0x40 MSTORE POP DUP2 ADD SWAP1 PUSH2 0xFF4 SWAP2 SWAP1 PUSH2 0x1FFF JUMP JUMPDEST LT ISZERO PUSH2 0x1035 JUMPI PUSH1 0x40 MLOAD PUSH32 0x8C379A000000000000000000000000000000000000000000000000000000000 DUP2 MSTORE PUSH1 0x4 ADD PUSH2 0x102C SWAP1 PUSH2 0x1E67 JUMP JUMPDEST PUSH1 0x40 MLOAD DUP1 SWAP2 SUB SWAP1 REVERT JUMPDEST PUSH2 0x1080 DUP3 DUP3 PUSH32 0x0 PUSH20 0xFFFFFFFFFFFFFFFFFFFFFFFFFFFFFFFFFFFFFFFF AND PUSH2 0x1425 SWAP1 SWAP3 SWAP2 SWAP1 PUSH4 0xFFFFFFFF AND JUMP JUMPDEST DUP2 PUSH20 0xFFFFFFFFFFFFFFFFFFFFFFFFFFFFFFFFFFFFFFFF AND PUSH32 0x1D3EEE4CA001CFF39EEC6EC7615AACF2F2BD61791273830728BA00CCBD6E1337 DUP3 PUSH1 0x40 MLOAD PUSH2 0x10C6 SWAP2 SWAP1 PUSH2 0x1721 JUMP JUMPDEST PUSH1 0x40 MLOAD DUP1 SWAP2 SUB SWAP1 LOG2 POP POP JUMP JUMPDEST PUSH0 PUSH0 PUSH0 DUP4 GT PUSH2 0x1116 JUMPI PUSH1 0x40 MLOAD PUSH32 0x8C379A000000000000000000000000000000000000000000000000000000000 DUP2 MSTORE PUSH1 0x4 ADD PUSH2 0x110D SWAP1 PUSH2 0x209A JUMP JUMPDEST PUSH1 0x40 MLOAD DUP1 SWAP2 SUB SWAP1 REVERT JUMPDEST PUSH2 0x2A30 PUSH12 0xFFFFFFFFFFFFFFFFFFFFFFFF AND DUP5 PUSH12 0xFFFFFFFFFFFFFFFFFFFFFFFF AND LT ISZERO PUSH2 0x1177 JUMPI PUSH1 0x40 MLOAD PUSH32 0x8C379A000000000000000000000000000000000000000000000000000000000 DUP2 MSTORE PUSH1 0x4 ADD PUSH2 0x116E SWAP1 PUSH2 0x2102 JUMP JUMPDEST PUSH1 0x40 MLOAD DUP1 SWAP2 SUB SWAP1 REVERT JUMPDEST PUSH2 0x11CB PUSH2 0x1182 PUSH2 0x1417 JUMP JUMPDEST ADDRESS DUP6 PUSH32 0x0 PUSH20 0xFFFFFFFFFFFFFFFFFFFFFFFFFFFFFFFFFFFFFFFF AND PUSH2 0x15EC SWAP1 SWAP4 SWAP3 SWAP2 SWAP1 PUSH4 0xFFFFFFFF AND JUMP JUMPDEST PUSH0 DUP5 PUSH2 0x11D5 PUSH2 0x141E JUMP JUMPDEST PUSH2 0x11DF SWAP2 SWAP1 PUSH2 0x2120 JUMP JUMPDEST SWAP1 POP PUSH0 PUSH2 0x11EB DUP6 PUSH2 0xD73 JUMP JUMPDEST SWAP1 POP PUSH0 PUSH1 0x2 SLOAD SWAP1 POP PUSH1 0x40 MLOAD DUP1 PUSH1 0x80 ADD PUSH1 0x40 MSTORE DUP1 PUSH2 0x1206 PUSH2 0x1417 JUMP JUMPDEST PUSH20 0xFFFFFFFFFFFFFFFFFFFFFFFFFFFFFFFFFFFFFFFF AND DUP2 MSTORE PUSH1 0x20 ADD DUP5 PUSH12 0xFFFFFFFFFFFFFFFFFFFFFFFF AND DUP2 MSTORE PUSH1 0x20 ADD DUP8 DUP2 MSTORE PUSH1 0x20 ADD DUP4 DUP2 MSTORE POP PUSH1 0x1 PUSH0 DUP4 DUP2 MSTORE PUSH1 0x20 ADD SWAP1 DUP2 MSTORE PUSH1 0x20 ADD PUSH0 KECCAK256 PUSH0 DUP3 ADD MLOAD DUP2 PUSH0 ADD PUSH0 PUSH2 0x100 EXP DUP2 SLOAD DUP2 PUSH20 0xFFFFFFFFFFFFFFFFFFFFFFFFFFFFFFFFFFFFFFFF MUL NOT AND SWAP1 DUP4 PUSH20 0xFFFFFFFFFFFFFFFFFFFFFFFFFFFFFFFFFFFFFFFF AND MUL OR SWAP1 SSTORE POP PUSH1 0x20 DUP3 ADD MLOAD DUP2 PUSH0 ADD PUSH1 0x14 PUSH2 0x100 EXP DUP2 SLOAD DUP2 PUSH12 0xFFFFFFFFFFFFFFFFFFFFFFFF MUL NOT AND SWAP1 DUP4 PUSH12 0xFFFFFFFFFFFFFFFFFFFFFFFF AND MUL OR SWAP1 SSTORE POP PUSH1 0x40 DUP3 ADD MLOAD DUP2 PUSH1 0x1 ADD SSTORE PUSH1 0x60 DUP3 ADD MLOAD DUP2 PUSH1 0x2 ADD SSTORE SWAP1 POP POP DUP6 PUSH1 0x3 PUSH0 DUP3 DUP3 SLOAD PUSH2 0x12F2 SWAP2 SWAP1 PUSH2 0x1EB2 JUMP JUMPDEST SWAP3 POP POP DUP2 SWAP1 SSTORE POP DUP2 PUSH1 0x4 PUSH0 DUP3 DUP3 SLOAD PUSH2 0x130A SWAP2 SWAP1 PUSH2 0x1EB2 JUMP JUMPDEST SWAP3 POP POP DUP2 SWAP1 SSTORE POP PUSH2 0x1319 PUSH2 0x1417 JUMP JUMPDEST PUSH20 0xFFFFFFFFFFFFFFFFFFFFFFFFFFFFFFFFFFFFFFFF AND PUSH32 0x24FE2D25C10EB2C67B5AC1E3EDBCADC94191E154ED388AD667A9480C44F47146 DUP3 DUP6 DUP10 DUP7 PUSH1 0x40 MLOAD PUSH2 0x1364 SWAP5 SWAP4 SWAP3 SWAP2 SWAP1 PUSH2 0x215F JUMP JUMPDEST PUSH1 0x40 MLOAD DUP1 SWAP2 SUB SWAP1 LOG2 PUSH1 0x2 PUSH0 DUP2 SLOAD DUP1 SWAP3 SWAP2 SWAP1 PUSH2 0x137E SWAP1 PUSH2 0x21A2 JUMP JUMPDEST SWAP2 SWAP1 POP SSTORE POP DUP1 DUP3 SWAP5 POP SWAP5 POP POP POP POP SWAP3 POP SWAP3 SWAP1 POP JUMP JUMPDEST PUSH2 0x139B PUSH2 0x14A4 JUMP JUMPDEST PUSH0 PUSH20 0xFFFFFFFFFFFFFFFFFFFFFFFFFFFFFFFFFFFFFFFF AND DUP2 PUSH20 0xFFFFFFFFFFFFFFFFFFFFFFFFFFFFFFFFFFFFFFFF AND SUB PUSH2 0x140B JUMPI PUSH0 PUSH1 0x40 MLOAD PUSH32 0x1E4FBDF700000000000000000000000000000000000000000000000000000000 DUP2 MSTORE PUSH1 0x4 ADD PUSH2 0x1402 SWAP2 SWAP1 PUSH2 0x184A JUMP JUMPDEST PUSH1 0x40 MLOAD DUP1 SWAP2 SUB SWAP1 REVERT JUMPDEST PUSH2 0x1414 DUP2 PUSH2 0x152B JUMP JUMPDEST POP JUMP JUMPDEST PUSH0 CALLER SWAP1 POP SWAP1 JUMP JUMPDEST PUSH0 TIMESTAMP SWAP1 POP SWAP1 JUMP JUMPDEST PUSH2 0x149F DUP4 DUP5 PUSH20 0xFFFFFFFFFFFFFFFFFFFFFFFFFFFFFFFFFFFFFFFF AND PUSH4 0xA9059CBB DUP6 DUP6 PUSH1 0x40 MLOAD PUSH1 0x24 ADD PUSH2 0x1458 SWAP3 SWAP2 SWAP1 PUSH2 0x21E9 JUMP JUMPDEST PUSH1 0x40 MLOAD PUSH1 0x20 DUP2 DUP4 SUB SUB DUP2 MSTORE SWAP1 PUSH1 0x40 MSTORE SWAP2 POP PUSH1 0xE0 SHL PUSH1 0x20 DUP3 ADD DUP1 MLOAD PUSH28 0xFFFFFFFFFFFFFFFFFFFFFFFFFFFFFFFFFFFFFFFFFFFFFFFFFFFFFFFF DUP4 DUP2 DUP4 AND OR DUP4 MSTORE POP POP POP POP PUSH2 0x166E JUMP JUMPDEST POP POP POP JUMP JUMPDEST PUSH2 0x14AC PUSH2 0x1417 JUMP JUMPDEST PUSH20 0xFFFFFFFFFFFFFFFFFFFFFFFFFFFFFFFFFFFFFFFF AND PUSH2 0x14CA PUSH2 0x6CE JUMP JUMPDEST PUSH20 0xFFFFFFFFFFFFFFFFFFFFFFFFFFFFFFFFFFFFFFFF AND EQ PUSH2 0x1529 JUMPI PUSH2 0x14ED PUSH2 0x1417 JUMP JUMPDEST PUSH1 0x40 MLOAD PUSH32 0x118CDAA700000000000000000000000000000000000000000000000000000000 DUP2 MSTORE PUSH1 0x4 ADD PUSH2 0x1520 SWAP2 SWAP1 PUSH2 0x184A JUMP JUMPDEST PUSH1 0x40 MLOAD DUP1 SWAP2 SUB SWAP1 REVERT JUMPDEST JUMP JUMPDEST PUSH0 PUSH0 PUSH0 SWAP1 SLOAD SWAP1 PUSH2 0x100 EXP SWAP1 DIV PUSH20 0xFFFFFFFFFFFFFFFFFFFFFFFFFFFFFFFFFFFFFFFF AND SWAP1 POP DUP2 PUSH0 PUSH0 PUSH2 0x100 EXP DUP2 SLOAD DUP2 PUSH20 0xFFFFFFFFFFFFFFFFFFFFFFFFFFFFFFFFFFFFFFFF MUL NOT AND SWAP1 DUP4 PUSH20 0xFFFFFFFFFFFFFFFFFFFFFFFFFFFFFFFFFFFFFFFF AND MUL OR SWAP1 SSTORE POP DUP2 PUSH20 0xFFFFFFFFFFFFFFFFFFFFFFFFFFFFFFFFFFFFFFFF AND DUP2 PUSH20 0xFFFFFFFFFFFFFFFFFFFFFFFFFFFFFFFFFFFFFFFF AND PUSH32 0x8BE0079C531659141344CD1FD0A4F28419497F9722A3DAAFE3B4186F6B6457E0 PUSH1 0x40 MLOAD PUSH1 0x40 MLOAD DUP1 SWAP2 SUB SWAP1 LOG3 POP POP JUMP JUMPDEST PUSH2 0x1668 DUP5 DUP6 PUSH20 0xFFFFFFFFFFFFFFFFFFFFFFFFFFFFFFFFFFFFFFFF AND PUSH4 0x23B872DD DUP7 DUP7 DUP7 PUSH1 0x40 MLOAD PUSH1 0x24 ADD PUSH2 0x1621 SWAP4 SWAP3 SWAP2 SWAP1 PUSH2 0x2210 JUMP JUMPDEST PUSH1 0x40 MLOAD PUSH1 0x20 DUP2 DUP4 SUB SUB DUP2 MSTORE SWAP1 PUSH1 0x40 MSTORE SWAP2 POP PUSH1 0xE0 SHL PUSH1 0x20 DUP3 ADD DUP1 MLOAD PUSH28 0xFFFFFFFFFFFFFFFFFFFFFFFFFFFFFFFFFFFFFFFFFFFFFFFFFFFFFFFF DUP4 DUP2 DUP4 AND OR DUP4 MSTORE POP POP POP POP PUSH2 0x166E JUMP JUMPDEST POP POP POP POP JUMP JUMPDEST PUSH0 PUSH0 PUSH1 0x20 PUSH0 DUP5 MLOAD PUSH1 0x20 DUP7 ADD PUSH0 DUP9 GAS CALL DUP1 PUSH2 0x168D JUMPI PUSH1 0x40 MLOAD RETURNDATASIZE PUSH0 DUP3 RETURNDATACOPY RETURNDATASIZE DUP2 REVERT JUMPDEST RETURNDATASIZE SWAP3 POP PUSH0 MLOAD SWAP2 POP POP PUSH0 DUP3 EQ PUSH2 0x16A6 JUMPI PUSH1 0x1 DUP2 EQ ISZERO PUSH2 0x16C1 JUMP JUMPDEST PUSH0 DUP5 PUSH20 0xFFFFFFFFFFFFFFFFFFFFFFFFFFFFFFFFFFFFFFFF AND EXTCODESIZE EQ JUMPDEST ISZERO PUSH2 0x1703 JUMPI DUP4 PUSH1 0x40 MLOAD PUSH32 0x5274AFE700000000000000000000000000000000000000000000000000000000 DUP2 MSTORE PUSH1 0x4 ADD PUSH2 0x16FA SWAP2 SWAP1 PUSH2 0x184A JUMP JUMPDEST PUSH1 0x40 MLOAD DUP1 SWAP2 SUB SWAP1 REVERT JUMPDEST POP POP POP POP JUMP JUMPDEST PUSH0 DUP2 SWAP1 POP SWAP2 SWAP1 POP JUMP JUMPDEST PUSH2 0x171B DUP2 PUSH2 0x1709 JUMP JUMPDEST DUP3 MSTORE POP POP JUMP JUMPDEST PUSH0 PUSH1 0x20 DUP3 ADD SWAP1 POP PUSH2 0x1734 PUSH0 DUP4 ADD DUP5 PUSH2 0x1712 JUMP JUMPDEST SWAP3 SWAP2 POP POP JUMP JUMPDEST PUSH0 PUSH0 REVERT JUMPDEST PUSH0 PUSH0 REVERT JUMPDEST PUSH2 0x174B DUP2 PUSH2 0x1709 JUMP JUMPDEST DUP2 EQ PUSH2 0x1755 JUMPI PUSH0 PUSH0 REVERT JUMPDEST POP JUMP JUMPDEST PUSH0 DUP2 CALLDATALOAD SWAP1 POP PUSH2 0x1766 DUP2 PUSH2 0x1742 JUMP JUMPDEST SWAP3 SWAP2 POP POP JUMP JUMPDEST PUSH0 PUSH1 0x20 DUP3 DUP5 SUB SLT ISZERO PUSH2 0x1781 JUMPI PUSH2 0x1780 PUSH2 0x173A JUMP JUMPDEST JUMPDEST PUSH0 PUSH2 0x178E DUP5 DUP3 DUP6 ADD PUSH2 0x1758 JUMP JUMPDEST SWAP2 POP POP SWAP3 SWAP2 POP POP JUMP JUMPDEST PUSH0 PUSH20 0xFFFFFFFFFFFFFFFFFFFFFFFFFFFFFFFFFFFFFFFF DUP3 AND SWAP1 POP SWAP2 SWAP1 POP JUMP JUMPDEST PUSH0 DUP2 SWAP1 POP SWAP2 SWAP1 POP JUMP JUMPDEST PUSH0 PUSH2 0x17D9 PUSH2 0x17D4 PUSH2 0x17CF DUP5 PUSH2 0x1797 JUMP JUMPDEST PUSH2 0x17B6 JUMP JUMPDEST PUSH2 0x1797 JUMP JUMPDEST SWAP1 POP SWAP2 SWAP1 POP JUMP JUMPDEST PUSH0 PUSH2 0x17EA DUP3 PUSH2 0x17BF JUMP JUMPDEST SWAP1 POP SWAP2 SWAP1 POP JUMP JUMPDEST PUSH0 PUSH2 0x17FB DUP3 PUSH2 0x17E0 JUMP JUMPDEST SWAP1 POP SWAP2 SWAP1 POP JUMP JUMPDEST PUSH2 0x180B DUP2 PUSH2 0x17F1 JUMP JUMPDEST DUP3 MSTORE POP POP JUMP JUMPDEST PUSH0 PUSH1 0x20 DUP3 ADD SWAP1 POP PUSH2 0x1824 PUSH0 DUP4 ADD DUP5 PUSH2 0x1802 JUMP JUMPDEST SWAP3 SWAP2 POP POP JUMP JUMPDEST PUSH0 PUSH2 0x1834 DUP3 PUSH2 0x1797 JUMP JUMPDEST SWAP1 POP SWAP2 SWAP1 POP JUMP JUMPDEST PUSH2 0x1844 DUP2 PUSH2 0x182A JUMP JUMPDEST DUP3 MSTORE POP POP JUMP JUMPDEST PUSH0 PUSH1 0x20 DUP3 ADD SWAP1 POP PUSH2 0x185D PUSH0 DUP4 ADD DUP5 PUSH2 0x183B JUMP JUMPDEST SWAP3 SWAP2 POP POP JUMP JUMPDEST PUSH0 PUSH12 0xFFFFFFFFFFFFFFFFFFFFFFFF DUP3 AND SWAP1 POP SWAP2 SWAP1 POP JUMP JUMPDEST PUSH2 0x1883 DUP2 PUSH2 0x1863 JUMP JUMPDEST DUP3 MSTORE POP POP JUMP JUMPDEST PUSH0 PUSH1 0x20 DUP3 ADD SWAP1 POP PUSH2 0x189C PUSH0 DUP4 ADD DUP5 PUSH2 0x187A JUMP JUMPDEST SWAP3 SWAP2 POP POP JUMP JUMPDEST PUSH0 PUSH0 PUSH1 0x40 DUP4 DUP6 SUB SLT ISZERO PUSH2 0x18B8 JUMPI PUSH2 0x18B7 PUSH2 0x173A JUMP JUMPDEST JUMPDEST PUSH0 PUSH2 0x18C5 DUP6 DUP3 DUP7 ADD PUSH2 0x1758 JUMP JUMPDEST SWAP3 POP POP PUSH1 0x20 PUSH2 0x18D6 DUP6 DUP3 DUP7 ADD PUSH2 0x1758 JUMP JUMPDEST SWAP2 POP POP SWAP3 POP SWAP3 SWAP1 POP JUMP JUMPDEST PUSH0 PUSH0 REVERT JUMPDEST PUSH0 PUSH0 REVERT JUMPDEST PUSH0 PUSH0 REVERT JUMPDEST PUSH0 PUSH0 DUP4 PUSH1 0x1F DUP5 ADD SLT PUSH2 0x1901 JUMPI PUSH2 0x1900 PUSH2 0x18E0 JUMP JUMPDEST JUMPDEST DUP3 CALLDATALOAD SWAP1 POP PUSH8 0xFFFFFFFFFFFFFFFF DUP2 GT ISZERO PUSH2 0x191E JUMPI PUSH2 0x191D PUSH2 0x18E4 JUMP JUMPDEST JUMPDEST PUSH1 0x20 DUP4 ADD SWAP2 POP DUP4 PUSH1 0x20 DUP3 MUL DUP4 ADD GT ISZERO PUSH2 0x193A JUMPI PUSH2 0x1939 PUSH2 0x18E8 JUMP JUMPDEST JUMPDEST SWAP3 POP SWAP3 SWAP1 POP JUMP JUMPDEST PUSH0 PUSH0 PUSH1 0x20 DUP4 DUP6 SUB SLT ISZERO PUSH2 0x1957 JUMPI PUSH2 0x1956 PUSH2 0x173A JUMP JUMPDEST JUMPDEST PUSH0 DUP4 ADD CALLDATALOAD PUSH8 0xFFFFFFFFFFFFFFFF DUP2 GT ISZERO PUSH2 0x1974 JUMPI PUSH2 0x1973 PUSH2 0x173E JUMP JUMPDEST JUMPDEST PUSH2 0x1980 DUP6 DUP3 DUP7 ADD PUSH2 0x18EC JUMP JUMPDEST SWAP3 POP SWAP3 POP POP SWAP3 POP SWAP3 SWAP1 POP JUMP JUMPDEST PUSH0 PUSH1 0x80 DUP3 ADD SWAP1 POP PUSH2 0x199F PUSH0 DUP4 ADD DUP8 PUSH2 0x183B JUMP JUMPDEST PUSH2 0x19AC PUSH1 0x20 DUP4 ADD DUP7 PUSH2 0x1712 JUMP JUMPDEST PUSH2 0x19B9 PUSH1 0x40 DUP4 ADD DUP6 PUSH2 0x1712 JUMP JUMPDEST PUSH2 0x19C6 PUSH1 0x60 DUP4 ADD DUP5 PUSH2 0x1712 JUMP JUMPDEST SWAP6 SWAP5 POP POP POP POP POP JUMP JUMPDEST PUSH2 0x19D8 DUP2 PUSH2 0x182A JUMP JUMPDEST DUP2 EQ PUSH2 0x19E2 JUMPI PUSH0 PUSH0 REVERT JUMPDEST POP JUMP JUMPDEST PUSH0 DUP2 CALLDATALOAD SWAP1 POP PUSH2 0x19F3 DUP2 PUSH2 0x19CF JUMP JUMPDEST SWAP3 SWAP2 POP POP JUMP JUMPDEST PUSH0 PUSH0 PUSH1 0x40 DUP4 DUP6 SUB SLT ISZERO PUSH2 0x1A0F JUMPI PUSH2 0x1A0E PUSH2 0x173A JUMP JUMPDEST JUMPDEST PUSH0 PUSH2 0x1A1C DUP6 DUP3 DUP7 ADD PUSH2 0x19E5 JUMP JUMPDEST SWAP3 POP POP PUSH1 0x20 PUSH2 0x1A2D DUP6 DUP3 DUP7 ADD PUSH2 0x1758 JUMP JUMPDEST SWAP2 POP POP SWAP3 POP SWAP3 SWAP1 POP JUMP JUMPDEST PUSH2 0x1A40 DUP2 PUSH2 0x1863 JUMP JUMPDEST DUP2 EQ PUSH2 0x1A4A JUMPI PUSH0 PUSH0 REVERT JUMPDEST POP JUMP JUMPDEST PUSH0 DUP2 CALLDATALOAD SWAP1 POP PUSH2 0x1A5B DUP2 PUSH2 0x1A37 JUMP JUMPDEST SWAP3 SWAP2 POP POP JUMP JUMPDEST PUSH0 PUSH0 PUSH1 0x40 DUP4 DUP6 SUB SLT ISZERO PUSH2 0x1A77 JUMPI PUSH2 0x1A76 PUSH2 0x173A JUMP JUMPDEST JUMPDEST PUSH0 PUSH2 0x1A84 DUP6 DUP3 DUP7 ADD PUSH2 0x1A4D JUMP JUMPDEST SWAP3 POP POP PUSH1 0x20 PUSH2 0x1A95 DUP6 DUP3 DUP7 ADD PUSH2 0x1758 JUMP JUMPDEST SWAP2 POP POP SWAP3 POP SWAP3 SWAP1 POP JUMP JUMPDEST PUSH0 PUSH1 0x40 DUP3 ADD SWAP1 POP PUSH2 0x1AB2 PUSH0 DUP4 ADD DUP6 PUSH2 0x1712 JUMP JUMPDEST PUSH2 0x1ABF PUSH1 0x20 DUP4 ADD DUP5 PUSH2 0x1712 JUMP JUMPDEST SWAP4 SWAP3 POP POP POP JUMP JUMPDEST PUSH0 PUSH1 0x20 DUP3 DUP5 SUB SLT ISZERO PUSH2 0x1ADB JUMPI PUSH2 0x1ADA PUSH2 0x173A JUMP JUMPDEST JUMPDEST PUSH0 PUSH2 0x1AE8 DUP5 DUP3 DUP6 ADD PUSH2 0x19E5 JUMP JUMPDEST SWAP2 POP POP SWAP3 SWAP2 POP POP JUMP JUMPDEST PUSH0 DUP3 DUP3 MSTORE PUSH1 0x20 DUP3 ADD SWAP1 POP SWAP3 SWAP2 POP POP JUMP JUMPDEST PUSH32 0x4D6F64756C65583A496E76616C6964205374616B652049442100000000000000 PUSH0 DUP3 ADD MSTORE POP JUMP JUMPDEST PUSH0 PUSH2 0x1B35 PUSH1 0x19 DUP4 PUSH2 0x1AF1 JUMP JUMPDEST SWAP2 POP PUSH2 0x1B40 DUP3 PUSH2 0x1B01 JUMP JUMPDEST PUSH1 0x20 DUP3 ADD SWAP1 POP SWAP2 SWAP1 POP JUMP JUMPDEST PUSH0 PUSH1 0x20 DUP3 ADD SWAP1 POP DUP2 DUP2 SUB PUSH0 DUP4 ADD MSTORE PUSH2 0x1B62 DUP2 PUSH2 0x1B29 JUMP JUMPDEST SWAP1 POP SWAP2 SWAP1 POP JUMP JUMPDEST PUSH32 0x4D6F64756C65583A43616C6C6572206973206E6F7420746865206F776E657200 PUSH0 DUP3 ADD MSTORE POP JUMP JUMPDEST PUSH0 PUSH2 0x1B9D PUSH1 0x1F DUP4 PUSH2 0x1AF1 JUMP JUMPDEST SWAP2 POP PUSH2 0x1BA8 DUP3 PUSH2 0x1B69 JUMP JUMPDEST PUSH1 0x20 DUP3 ADD SWAP1 POP SWAP2 SWAP1 POP JUMP JUMPDEST PUSH0 PUSH1 0x20 DUP3 ADD SWAP1 POP DUP2 DUP2 SUB PUSH0 DUP4 ADD MSTORE PUSH2 0x1BCA DUP2 PUSH2 0x1B91 JUMP JUMPDEST SWAP1 POP SWAP2 SWAP1 POP JUMP JUMPDEST PUSH32 0x4D6F64756C65583A4561726C79205769746864726177616C206973206E6F7420 PUSH0 DUP3 ADD MSTORE PUSH32 0x7065726D69747465642100000000000000000000000000000000000000000000 PUSH1 0x20 DUP3 ADD MSTORE POP JUMP JUMPDEST PUSH0 PUSH2 0x1C2B PUSH1 0x2A DUP4 PUSH2 0x1AF1 JUMP JUMPDEST SWAP2 POP PUSH2 0x1C36 DUP3 PUSH2 0x1BD1 JUMP JUMPDEST PUSH1 0x40 DUP3 ADD SWAP1 POP SWAP2 SWAP1 POP JUMP JUMPDEST PUSH0 PUSH1 0x20 DUP3 ADD SWAP1 POP DUP2 DUP2 SUB PUSH0 DUP4 ADD MSTORE PUSH2 0x1C58 DUP2 PUSH2 0x1C1F JUMP JUMPDEST SWAP1 POP SWAP2 SWAP1 POP JUMP JUMPDEST PUSH32 0x4D6F64756C65583A4E6F7468696E6720746F20636C61696D0000000000000000 PUSH0 DUP3 ADD MSTORE POP JUMP JUMPDEST PUSH0 PUSH2 0x1C93 PUSH1 0x18 DUP4 PUSH2 0x1AF1 JUMP JUMPDEST SWAP2 POP PUSH2 0x1C9E DUP3 PUSH2 0x1C5F JUMP JUMPDEST PUSH1 0x20 DUP3 ADD SWAP1 POP SWAP2 SWAP1 POP JUMP JUMPDEST PUSH0 PUSH1 0x20 DUP3 ADD SWAP1 POP DUP2 DUP2 SUB PUSH0 DUP4 ADD MSTORE PUSH2 0x1CC0 DUP2 PUSH2 0x1C87 JUMP JUMPDEST SWAP1 POP SWAP2 SWAP1 POP JUMP JUMPDEST PUSH32 0x4E487B7100000000000000000000000000000000000000000000000000000000 PUSH0 MSTORE PUSH1 0x11 PUSH1 0x4 MSTORE PUSH1 0x24 PUSH0 REVERT JUMPDEST PUSH0 PUSH2 0x1CFE DUP3 PUSH2 0x1709 JUMP JUMPDEST SWAP2 POP PUSH2 0x1D09 DUP4 PUSH2 0x1709 JUMP JUMPDEST SWAP3 POP DUP3 DUP3 SUB SWAP1 POP DUP2 DUP2 GT ISZERO PUSH2 0x1D21 JUMPI PUSH2 0x1D20 PUSH2 0x1CC7 JUMP JUMPDEST JUMPDEST SWAP3 SWAP2 POP POP JUMP JUMPDEST PUSH32 0x4D6F64756C65583A616D6F756E74206D75737420626520677265617465722074 PUSH0 DUP3 ADD MSTORE PUSH32 0x68616E207A65726F210000000000000000000000000000000000000000000000 PUSH1 0x20 DUP3 ADD MSTORE POP JUMP JUMPDEST PUSH0 PUSH2 0x1D81 PUSH1 0x29 DUP4 PUSH2 0x1AF1 JUMP JUMPDEST SWAP2 POP PUSH2 0x1D8C DUP3 PUSH2 0x1D27 JUMP JUMPDEST PUSH1 0x40 DUP3 ADD SWAP1 POP SWAP2 SWAP1 POP JUMP JUMPDEST PUSH0 PUSH1 0x20 DUP3 ADD SWAP1 POP DUP2 DUP2 SUB PUSH0 DUP4 ADD MSTORE PUSH2 0x1DAE DUP2 PUSH2 0x1D75 JUMP JUMPDEST SWAP1 POP SWAP2 SWAP1 POP JUMP JUMPDEST PUSH32 0x4D6F64756C65583A4275726E7420746F6B656E73210000000000000000000000 PUSH0 DUP3 ADD MSTORE POP JUMP JUMPDEST PUSH0 PUSH2 0x1DE9 PUSH1 0x15 DUP4 PUSH2 0x1AF1 JUMP JUMPDEST SWAP2 POP PUSH2 0x1DF4 DUP3 PUSH2 0x1DB5 JUMP JUMPDEST PUSH1 0x20 DUP3 ADD SWAP1 POP SWAP2 SWAP1 POP JUMP JUMPDEST PUSH0 PUSH1 0x20 DUP3 ADD SWAP1 POP DUP2 DUP2 SUB PUSH0 DUP4 ADD MSTORE PUSH2 0x1E16 DUP2 PUSH2 0x1DDD JUMP JUMPDEST SWAP1 POP SWAP2 SWAP1 POP JUMP JUMPDEST PUSH32 0x4D6F64756C65583A496E73756666696369656E742062616C616E636521000000 PUSH0 DUP3 ADD MSTORE POP JUMP JUMPDEST PUSH0 PUSH2 0x1E51 PUSH1 0x1D DUP4 PUSH2 0x1AF1 JUMP JUMPDEST SWAP2 POP PUSH2 0x1E5C DUP3 PUSH2 0x1E1D JUMP JUMPDEST PUSH1 0x20 DUP3 ADD SWAP1 POP SWAP2 SWAP1 POP JUMP JUMPDEST PUSH0 PUSH1 0x20 DUP3 ADD SWAP1 POP DUP2 DUP2 SUB PUSH0 DUP4 ADD MSTORE PUSH2 0x1E7E DUP2 PUSH2 0x1E45 JUMP JUMPDEST SWAP1 POP SWAP2 SWAP1 POP JUMP JUMPDEST PUSH32 0x4E487B7100000000000000000000000000000000000000000000000000000000 PUSH0 MSTORE PUSH1 0x32 PUSH1 0x4 MSTORE PUSH1 0x24 PUSH0 REVERT JUMPDEST PUSH0 PUSH2 0x1EBC DUP3 PUSH2 0x1709 JUMP JUMPDEST SWAP2 POP PUSH2 0x1EC7 DUP4 PUSH2 0x1709 JUMP JUMPDEST SWAP3 POP DUP3 DUP3 ADD SWAP1 POP DUP1 DUP3 GT ISZERO PUSH2 0x1EDF JUMPI PUSH2 0x1EDE PUSH2 0x1CC7 JUMP JUMPDEST JUMPDEST SWAP3 SWAP2 POP POP JUMP JUMPDEST PUSH32 0x4D6F64756C65583A546F74616C20616D6F756E74206973203021000000000000 PUSH0 DUP3 ADD MSTORE POP JUMP JUMPDEST PUSH0 PUSH2 0x1F19 PUSH1 0x1A DUP4 PUSH2 0x1AF1 JUMP JUMPDEST SWAP2 POP PUSH2 0x1F24 DUP3 PUSH2 0x1EE5 JUMP JUMPDEST PUSH1 0x20 DUP3 ADD SWAP1 POP SWAP2 SWAP1 POP JUMP JUMPDEST PUSH0 PUSH1 0x20 DUP3 ADD SWAP1 POP DUP2 DUP2 SUB PUSH0 DUP4 ADD MSTORE PUSH2 0x1F46 DUP2 PUSH2 0x1F0D JUMP JUMPDEST SWAP1 POP SWAP2 SWAP1 POP JUMP JUMPDEST PUSH32 0x4E487B7100000000000000000000000000000000000000000000000000000000 PUSH0 MSTORE PUSH1 0x12 PUSH1 0x4 MSTORE PUSH1 0x24 PUSH0 REVERT JUMPDEST PUSH0 PUSH2 0x1F84 DUP3 PUSH2 0x1709 JUMP JUMPDEST SWAP2 POP PUSH2 0x1F8F DUP4 PUSH2 0x1709 JUMP JUMPDEST SWAP3 POP DUP3 PUSH2 0x1F9F JUMPI PUSH2 0x1F9E PUSH2 0x1F4D JUMP JUMPDEST JUMPDEST DUP3 DUP3 DIV SWAP1 POP SWAP3 SWAP2 POP POP JUMP JUMPDEST PUSH0 PUSH2 0x1FB4 DUP3 PUSH2 0x1709 JUMP JUMPDEST SWAP2 POP PUSH2 0x1FBF DUP4 PUSH2 0x1709 JUMP JUMPDEST SWAP3 POP DUP3 DUP3 MUL PUSH2 0x1FCD DUP2 PUSH2 0x1709 JUMP JUMPDEST SWAP2 POP DUP3 DUP3 DIV DUP5 EQ DUP4 ISZERO OR PUSH2 0x1FE4 JUMPI PUSH2 0x1FE3 PUSH2 0x1CC7 JUMP JUMPDEST JUMPDEST POP SWAP3 SWAP2 POP POP JUMP JUMPDEST PUSH0 DUP2 MLOAD SWAP1 POP PUSH2 0x1FF9 DUP2 PUSH2 0x1742 JUMP JUMPDEST SWAP3 SWAP2 POP POP JUMP JUMPDEST PUSH0 PUSH1 0x20 DUP3 DUP5 SUB SLT ISZERO PUSH2 0x2014 JUMPI PUSH2 0x2013 PUSH2 0x173A JUMP JUMPDEST JUMPDEST PUSH0 PUSH2 0x2021 DUP5 DUP3 DUP6 ADD PUSH2 0x1FEB JUMP JUMPDEST SWAP2 POP POP SWAP3 SWAP2 POP POP JUMP JUMPDEST PUSH32 0x4D6F64756C65583A5374616B6520616D6F756E74206D75737420626520677265 PUSH0 DUP3 ADD MSTORE PUSH32 0x61746572207468616E2030210000000000000000000000000000000000000000 PUSH1 0x20 DUP3 ADD MSTORE POP JUMP JUMPDEST PUSH0 PUSH2 0x2084 PUSH1 0x2C DUP4 PUSH2 0x1AF1 JUMP JUMPDEST SWAP2 POP PUSH2 0x208F DUP3 PUSH2 0x202A JUMP JUMPDEST PUSH1 0x40 DUP3 ADD SWAP1 POP SWAP2 SWAP1 POP JUMP JUMPDEST PUSH0 PUSH1 0x20 DUP3 ADD SWAP1 POP DUP2 DUP2 SUB PUSH0 DUP4 ADD MSTORE PUSH2 0x20B1 DUP2 PUSH2 0x2078 JUMP JUMPDEST SWAP1 POP SWAP2 SWAP1 POP JUMP JUMPDEST PUSH32 0x4D6F64756C65583A557365206C6F6E676572206C6F636B5F706572696F642100 PUSH0 DUP3 ADD MSTORE POP JUMP JUMPDEST PUSH0 PUSH2 0x20EC PUSH1 0x1F DUP4 PUSH2 0x1AF1 JUMP JUMPDEST SWAP2 POP PUSH2 0x20F7 DUP3 PUSH2 0x20B8 JUMP JUMPDEST PUSH1 0x20 DUP3 ADD SWAP1 POP SWAP2 SWAP1 POP JUMP JUMPDEST PUSH0 PUSH1 0x20 DUP3 ADD SWAP1 POP DUP2 DUP2 SUB PUSH0 DUP4 ADD MSTORE PUSH2 0x2119 DUP2 PUSH2 0x20E0 JUMP JUMPDEST SWAP1 POP SWAP2 SWAP1 POP JUMP JUMPDEST PUSH0 PUSH2 0x212A DUP3 PUSH2 0x1863 JUMP JUMPDEST SWAP2 POP PUSH2 0x2135 DUP4 PUSH2 0x1863 JUMP JUMPDEST SWAP3 POP DUP3 DUP3 ADD SWAP1 POP PUSH12 0xFFFFFFFFFFFFFFFFFFFFFFFF DUP2 GT ISZERO PUSH2 0x2159 JUMPI PUSH2 0x2158 PUSH2 0x1CC7 JUMP JUMPDEST JUMPDEST SWAP3 SWAP2 POP POP JUMP JUMPDEST PUSH0 PUSH1 0x80 DUP3 ADD SWAP1 POP PUSH2 0x2172 PUSH0 DUP4 ADD DUP8 PUSH2 0x1712 JUMP JUMPDEST PUSH2 0x217F PUSH1 0x20 DUP4 ADD DUP7 PUSH2 0x187A JUMP JUMPDEST PUSH2 0x218C PUSH1 0x40 DUP4 ADD DUP6 PUSH2 0x1712 JUMP JUMPDEST PUSH2 0x2199 PUSH1 0x60 DUP4 ADD DUP5 PUSH2 0x1712 JUMP JUMPDEST SWAP6 SWAP5 POP POP POP POP POP JUMP JUMPDEST PUSH0 PUSH2 0x21AC DUP3 PUSH2 0x1709 JUMP JUMPDEST SWAP2 POP PUSH32 0xFFFFFFFFFFFFFFFFFFFFFFFFFFFFFFFFFFFFFFFFFFFFFFFFFFFFFFFFFFFFFFFF DUP3 SUB PUSH2 0x21DE JUMPI PUSH2 0x21DD PUSH2 0x1CC7 JUMP JUMPDEST JUMPDEST PUSH1 0x1 DUP3 ADD SWAP1 POP SWAP2 SWAP1 POP JUMP JUMPDEST PUSH0 PUSH1 0x40 DUP3 ADD SWAP1 POP PUSH2 0x21FC PUSH0 DUP4 ADD DUP6 PUSH2 0x183B JUMP JUMPDEST PUSH2 0x2209 PUSH1 0x20 DUP4 ADD DUP5 PUSH2 0x1712 JUMP JUMPDEST SWAP4 SWAP3 POP POP POP JUMP JUMPDEST PUSH0 PUSH1 0x60 DUP3 ADD SWAP1 POP PUSH2 0x2223 PUSH0 DUP4 ADD DUP7 PUSH2 0x183B JUMP JUMPDEST PUSH2 0x2230 PUSH1 0x20 DUP4 ADD DUP6 PUSH2 0x183B JUMP JUMPDEST PUSH2 0x223D PUSH1 0x40 DUP4 ADD DUP5 PUSH2 0x1712 JUMP JUMPDEST SWAP5 SWAP4 POP POP POP POP JUMP INVALID LOG2 PUSH5 0x6970667358 0x22 SLT KECCAK256 0xDB PUSH23 0x7B669F7098C30CA8F7E063CF626DDB2C456DAC7743F8D6 DUPN 0x11 0xAF PC GASLIMIT PUSH25 0xAA64736F6C634300081D003300000000000000000000000000 "
				},
				"gasEstimates": {
					"creation": {
						"codeDepositCost": "1765400",
						"executionCost": "infinite",
						"totalCost": "infinite"
					},
					"external": {
						"CREDI()": "infinite",
						"DIFFICULTY()": "393",
						"DIFFICULTY_INTERVAL()": "349",
						"MATURITY()": "398",
						"addRewards(uint256)": "infinite",
						"batchWithdrawCREDI(uint256[])": "infinite",
						"calculateReward(uint256)": "infinite",
						"claim(uint256)": "infinite",
						"getCREDIAddress()": "infinite",
						"getStake(uint256)": "infinite",
						"getStakesCount()": "infinite",
						"getxCREDIAddress()": "infinite",
						"owner()": "2559",
						"pending_payments()": "2514",
						"renounceOwnership()": "infinite",
						"stake(uint96,uint256)": "infinite",
						"total_staked()": "2448",
						"transferOwnership(address)": "infinite",
						"withdrawCREDI(uint256,uint256)": "infinite",
						"withdrawRewards(address,uint256)": "infinite",
						"xCREDI()": "infinite"
					},
					"internal": {
						"time_now()": "21"
					}
				},
				"methodIdentifiers": {
					"CREDI()": "6db08f25",
					"DIFFICULTY()": "3fa352f5",
					"DIFFICULTY_INTERVAL()": "109cf399",
					"MATURITY()": "8e12c0cd",
					"addRewards(uint256)": "beceed39",
					"batchWithdrawCREDI(uint256[])": "bc854352",
					"calculateReward(uint256)": "d2d7231f",
					"claim(uint256)": "379607f5",
					"getCREDIAddress()": "d46149a2",
					"getStake(uint256)": "ce325bf8",
					"getStakesCount()": "b5fa91fe",
					"getxCREDIAddress()": "7c2fdeb5",
					"owner()": "8da5cb5b",
					"pending_payments()": "8f4729b7",
					"renounceOwnership()": "715018a6",
					"stake(uint96,uint256)": "d93c04a0",
					"total_staked()": "af7568dd",
					"transferOwnership(address)": "f2fde38b",
					"withdrawCREDI(uint256,uint256)": "ac00500f",
					"withdrawRewards(address,uint256)": "d6ef7af0",
					"xCREDI()": "b109beec"
				}
			},
			"storageLayout": {
				"storage": [
					{
						"astId": 8,
						"contract": "contracts/ModuleX.sol:ModuleX",
						"label": "_owner",
						"offset": 0,
						"slot": "0",
						"type": "t_address"
					},
					{
						"astId": 868,
						"contract": "contracts/ModuleX.sol:ModuleX",
						"label": "stakes",
						"offset": 0,
						"slot": "1",
						"type": "t_mapping(t_uint256,t_struct(StakeDetails)844_storage)"
					},
					{
						"astId": 871,
						"contract": "contracts/ModuleX.sol:ModuleX",
						"label": "stakes_count",
						"offset": 0,
						"slot": "2",
						"type": "t_uint256"
					},
					{
						"astId": 874,
						"contract": "contracts/ModuleX.sol:ModuleX",
						"label": "total_staked",
						"offset": 0,
						"slot": "3",
						"type": "t_uint256"
					},
					{
						"astId": 877,
						"contract": "contracts/ModuleX.sol:ModuleX",
						"label": "pending_payments",
						"offset": 0,
						"slot": "4",
						"type": "t_uint256"
					}
				],
				"types": {
					"t_address": {
						"encoding": "inplace",
						"label": "address",
						"numberOfBytes": "20"
					},
					"t_mapping(t_uint256,t_struct(StakeDetails)844_storage)": {
						"encoding": "mapping",
						"key": "t_uint256",
						"label": "mapping(uint256 => struct ModuleX.StakeDetails)",
						"numberOfBytes": "32",
						"value": "t_struct(StakeDetails)844_storage"
					},
					"t_struct(StakeDetails)844_storage": {
						"encoding": "inplace",
						"label": "struct ModuleX.StakeDetails",
						"members": [
							{
								"astId": 837,
								"contract": "contracts/ModuleX.sol:ModuleX",
								"label": "owner",
								"offset": 0,
								"slot": "0",
								"type": "t_address"
							},
							{
								"astId": 839,
								"contract": "contracts/ModuleX.sol:ModuleX",
								"label": "maturity",
								"offset": 20,
								"slot": "0",
								"type": "t_uint96"
							},
							{
								"astId": 841,
								"contract": "contracts/ModuleX.sol:ModuleX",
								"label": "stake_amount",
								"offset": 0,
								"slot": "1",
								"type": "t_uint256"
							},
							{
								"astId": 843,
								"contract": "contracts/ModuleX.sol:ModuleX",
								"label": "reward_amount",
								"offset": 0,
								"slot": "2",
								"type": "t_uint256"
							}
						],
						"numberOfBytes": "96"
					},
					"t_uint256": {
						"encoding": "inplace",
						"label": "uint256",
						"numberOfBytes": "32"
					},
					"t_uint96": {
						"encoding": "inplace",
						"label": "uint96",
						"numberOfBytes": "12"
					}
				}
			},
			"userdoc": {
				"kind": "user",
				"methods": {},
				"version": 1
			}
		}
	}
}