{
	"contracts/CREDIWhale.sol": {
		"CREDIWhale": {
			"abi": [
				{
					"inputs": [
						{
							"internalType": "address",
							"name": "_CREDI",
							"type": "address"
						}
					],
					"stateMutability": "nonpayable",
					"type": "constructor"
				},
				{
					"inputs": [
						{
							"internalType": "address",
							"name": "owner",
							"type": "address"
						}
					],
					"name": "OwnableInvalidOwner",
					"type": "error"
				},
				{
					"inputs": [
						{
							"internalType": "address",
							"name": "account",
							"type": "address"
						}
					],
					"name": "OwnableUnauthorizedAccount",
					"type": "error"
				},
				{
					"anonymous": false,
					"inputs": [
						{
							"indexed": true,
							"internalType": "address",
							"name": "previousOwner",
							"type": "address"
						},
						{
							"indexed": true,
							"internalType": "address",
							"name": "newOwner",
							"type": "address"
						}
					],
					"name": "OwnershipTransferred",
					"type": "event"
				},
				{
					"inputs": [],
					"name": "CREDI",
					"outputs": [
						{
							"internalType": "address",
							"name": "",
							"type": "address"
						}
					],
					"stateMutability": "view",
					"type": "function"
				},
				{
					"inputs": [
						{
							"internalType": "address",
							"name": "user_address",
							"type": "address"
						}
					],
					"name": "isWhale",
					"outputs": [
						{
							"internalType": "bool",
							"name": "",
							"type": "bool"
						}
					],
					"stateMutability": "view",
					"type": "function"
				},
				{
					"inputs": [],
					"name": "owner",
					"outputs": [
						{
							"internalType": "address",
							"name": "",
							"type": "address"
						}
					],
					"stateMutability": "view",
					"type": "function"
				},
				{
					"inputs": [],
					"name": "renounceOwnership",
					"outputs": [],
					"stateMutability": "nonpayable",
					"type": "function"
				},
				{
					"inputs": [
						{
							"internalType": "uint256",
							"name": "new_threshold",
							"type": "uint256"
						}
					],
					"name": "setWhaleThreshold",
					"outputs": [],
					"stateMutability": "nonpayable",
					"type": "function"
				},
				{
					"inputs": [
						{
							"internalType": "address",
							"name": "newOwner",
							"type": "address"
						}
					],
					"name": "transferOwnership",
					"outputs": [],
					"stateMutability": "nonpayable",
					"type": "function"
				},
				{
					"inputs": [],
					"name": "whaleThreshold",
					"outputs": [
						{
							"internalType": "uint256",
							"name": "",
							"type": "uint256"
						}
					],
					"stateMutability": "view",
					"type": "function"
				}
			],
			"devdoc": {
				"errors": {
					"OwnableInvalidOwner(address)": [
						{
							"details": "The owner is not a valid owner account. (eg. `address(0)`)"
						}
					],
					"OwnableUnauthorizedAccount(address)": [
						{
							"details": "The caller account is not authorized to perform an operation."
						}
					]
				},
				"kind": "dev",
				"methods": {
					"owner()": {
						"details": "Returns the address of the current owner."
					},
					"renounceOwnership()": {
						"details": "Leaves the contract without owner. It will not be possible to call `onlyOwner` functions. Can only be called by the current owner. NOTE: Renouncing ownership will leave the contract without an owner, thereby disabling any functionality that is only available to the owner."
					},
					"transferOwnership(address)": {
						"details": "Transfers ownership of the contract to a new account (`newOwner`). Can only be called by the current owner."
					}
				},
				"version": 1
			},
			"evm": {
				"assembly": "    /* \"contracts/CREDIWhale.sol\":256:1008  contract CREDIWhale is Ownable, ICREDIWhale  ... */\n  mstore(0x40, 0xa0)\n    /* \"contracts/CREDIWhale.sol\":378:384  500000 */\n  0x07a120\n    /* \"contracts/CREDIWhale.sol\":347:384  uint private _whaleThreshold = 500000 */\n  0x01\n  sstore\n    /* \"contracts/CREDIWhale.sol\":393:564  constructor(address _CREDI) Ownable(_msgSender())... */\n  callvalue\n  dup1\n  iszero\n  tag_1\n  jumpi\n  revert(0x00, 0x00)\ntag_1:\n  pop\n  mload(0x40)\n  sub(codesize, bytecodeSize)\n  dup1\n  bytecodeSize\n  dup4\n  codecopy\n  dup2\n  add\n  0x40\n  dup2\n  swap1\n  mstore\n  tag_2\n  swap2\n  tag_3\n  jump\t// in\ntag_2:\n    /* \"@openzeppelin/contracts/utils/Context.sol\":735:745  msg.sender */\n  caller\n  dup1\n    /* \"@openzeppelin/contracts/access/Ownable.sol\":1269:1364  if (initialOwner == address(0)) {... */\n  tag_9\n  jumpi\n    /* \"@openzeppelin/contracts/access/Ownable.sol\":1322:1353  OwnableInvalidOwner(address(0)) */\n  mload(0x40)\n  shl(0xe0, 0x1e4fbdf7)\n  dup2\n  mstore\n    /* \"@openzeppelin/contracts/access/Ownable.sol\":1350:1351  0 */\n  0x00\n    /* \"@openzeppelin/contracts/access/Ownable.sol\":1322:1353  OwnableInvalidOwner(address(0)) */\n  0x04\n  dup3\n  add\n    /* \"#utility.yul\":455:506   */\n  mstore\n    /* \"#utility.yul\":428:446   */\n  0x24\n  add\n    /* \"@openzeppelin/contracts/access/Ownable.sol\":1322:1353  OwnableInvalidOwner(address(0)) */\n  mload(0x40)\n  dup1\n  swap2\n  sub\n  swap1\n  revert\n    /* \"@openzeppelin/contracts/access/Ownable.sol\":1269:1364  if (initialOwner == address(0)) {... */\ntag_9:\n    /* \"@openzeppelin/contracts/access/Ownable.sol\":1373:1405  _transferOwnership(initialOwner) */\n  tag_12\n    /* \"@openzeppelin/contracts/access/Ownable.sol\":1392:1404  initialOwner */\n  dup2\n    /* \"@openzeppelin/contracts/access/Ownable.sol\":1373:1391  _transferOwnership */\n  tag_13\n    /* \"@openzeppelin/contracts/access/Ownable.sol\":1373:1405  _transferOwnership(initialOwner) */\n  jump\t// in\ntag_12:\n  pop\n  sub(shl(0xa0, 0x01), 0x01)\n    /* \"contracts/CREDIWhale.sol\":460:474  CREDI = _CREDI */\n  dup2\n  and\n  0x80\n  dup2\n  swap1\n  mstore\n    /* \"contracts/CREDIWhale.sol\":523:556  IERC20_Decimals(CREDI).decimals() */\n  0x40\n  dup1\n  mload\n  shl(0xe0, 0x313ce567)\n  dup2\n  mstore\n  swap1\n  mload\n    /* \"contracts/CREDIWhale.sol\":523:554  IERC20_Decimals(CREDI).decimals */\n  0x313ce567\n  swap2\n    /* \"contracts/CREDIWhale.sol\":523:556  IERC20_Decimals(CREDI).decimals() */\n  0x04\n  dup1\n  dup3\n  add\n  swap3\n  0x20\n  swap3\n  swap1\n  swap2\n  swap1\n  dup3\n  swap1\n  sub\n  add\n  dup2\n    /* \"contracts/CREDIWhale.sol\":460:474  CREDI = _CREDI */\n  dup7\n    /* \"contracts/CREDIWhale.sol\":523:556  IERC20_Decimals(CREDI).decimals() */\n  gas\n  staticcall\n  iszero\n  dup1\n  iszero\n  tag_16\n  jumpi\n  returndatacopy(0x00, 0x00, returndatasize)\n  revert(0x00, returndatasize)\ntag_16:\n  pop\n  pop\n  pop\n  pop\n  mload(0x40)\n  returndatasize\n  not(0x1f)\n  0x1f\n  dup3\n  add\n  and\n  dup3\n  add\n  dup1\n  0x40\n  mstore\n  pop\n  dup2\n  add\n  swap1\n  tag_17\n  swap2\n  swap1\n  tag_18\n  jump\t// in\ntag_17:\n    /* \"contracts/CREDIWhale.sol\":519:556  10**IERC20_Decimals(CREDI).decimals() */\n  tag_19\n  swap1\n    /* \"contracts/CREDIWhale.sol\":519:521  10 */\n  0x0a\n    /* \"contracts/CREDIWhale.sol\":519:556  10**IERC20_Decimals(CREDI).decimals() */\n  tag_20\n  jump\t// in\ntag_19:\n    /* \"contracts/CREDIWhale.sol\":503:518  _whaleThreshold */\n  sload(0x01)\n    /* \"contracts/CREDIWhale.sol\":503:556  _whaleThreshold*10**IERC20_Decimals(CREDI).decimals() */\n  tag_21\n  swap2\n  swap1\n  tag_22\n  jump\t// in\ntag_21:\n    /* \"contracts/CREDIWhale.sol\":485:500  _whaleThreshold */\n  0x01\n    /* \"contracts/CREDIWhale.sol\":485:556  _whaleThreshold = _whaleThreshold*10**IERC20_Decimals(CREDI).decimals() */\n  sstore\n  pop\n    /* \"contracts/CREDIWhale.sol\":256:1008  contract CREDIWhale is Ownable, ICREDIWhale  ... */\n  jump(tag_29)\n    /* \"@openzeppelin/contracts/access/Ownable.sol\":2912:3099  function _transferOwnership(address newOwner) internal virtual {... */\ntag_13:\n    /* \"@openzeppelin/contracts/access/Ownable.sol\":2985:3001  address oldOwner */\n  0x00\n    /* \"@openzeppelin/contracts/access/Ownable.sol\":3004:3010  _owner */\n  dup1\n  sload\n  sub(shl(0xa0, 0x01), 0x01)\n    /* \"@openzeppelin/contracts/access/Ownable.sol\":3020:3037  _owner = newOwner */\n  dup4\n  dup2\n  and\n  not(sub(shl(0xa0, 0x01), 0x01))\n  dup4\n  and\n  dup2\n  or\n  dup5\n  sstore\n    /* \"@openzeppelin/contracts/access/Ownable.sol\":3052:3092  OwnershipTransferred(oldOwner, newOwner) */\n  mload(0x40)\n    /* \"@openzeppelin/contracts/access/Ownable.sol\":3004:3010  _owner */\n  swap2\n  swap1\n  swap3\n  and\n  swap3\n  dup4\n  swap2\n    /* \"@openzeppelin/contracts/access/Ownable.sol\":3052:3092  OwnershipTransferred(oldOwner, newOwner) */\n  0x8be0079c531659141344cd1fd0a4f28419497f9722a3daafe3b4186f6b6457e0\n  swap2\n    /* \"@openzeppelin/contracts/access/Ownable.sol\":2985:3001  address oldOwner */\n  swap1\n    /* \"@openzeppelin/contracts/access/Ownable.sol\":3052:3092  OwnershipTransferred(oldOwner, newOwner) */\n  log3\n    /* \"@openzeppelin/contracts/access/Ownable.sol\":2975:3099  {... */\n  pop\n    /* \"@openzeppelin/contracts/access/Ownable.sol\":2912:3099  function _transferOwnership(address newOwner) internal virtual {... */\n  pop\n  jump\t// out\n    /* \"#utility.yul\":14:304   */\ntag_3:\n    /* \"#utility.yul\":84:90   */\n  0x00\n    /* \"#utility.yul\":137:139   */\n  0x20\n    /* \"#utility.yul\":125:134   */\n  dup3\n    /* \"#utility.yul\":116:123   */\n  dup5\n    /* \"#utility.yul\":112:135   */\n  sub\n    /* \"#utility.yul\":108:140   */\n  slt\n    /* \"#utility.yul\":105:157   */\n  iszero\n  tag_31\n  jumpi\n    /* \"#utility.yul\":153:154   */\n  0x00\n    /* \"#utility.yul\":150:151   */\n  0x00\n    /* \"#utility.yul\":143:155   */\n  revert\n    /* \"#utility.yul\":105:157   */\ntag_31:\n    /* \"#utility.yul\":179:195   */\n  dup2\n  mload\n  sub(shl(0xa0, 0x01), 0x01)\n    /* \"#utility.yul\":224:255   */\n  dup2\n  and\n    /* \"#utility.yul\":214:256   */\n  dup2\n  eq\n    /* \"#utility.yul\":204:274   */\n  tag_32\n  jumpi\n    /* \"#utility.yul\":270:271   */\n  0x00\n    /* \"#utility.yul\":267:268   */\n  0x00\n    /* \"#utility.yul\":260:272   */\n  revert\n    /* \"#utility.yul\":204:274   */\ntag_32:\n    /* \"#utility.yul\":293:298   */\n  swap4\n    /* \"#utility.yul\":14:304   */\n  swap3\n  pop\n  pop\n  pop\n  jump\t// out\n    /* \"#utility.yul\":517:790   */\ntag_18:\n    /* \"#utility.yul\":585:591   */\n  0x00\n    /* \"#utility.yul\":638:640   */\n  0x20\n    /* \"#utility.yul\":626:635   */\n  dup3\n    /* \"#utility.yul\":617:624   */\n  dup5\n    /* \"#utility.yul\":613:636   */\n  sub\n    /* \"#utility.yul\":609:641   */\n  slt\n    /* \"#utility.yul\":606:658   */\n  iszero\n  tag_35\n  jumpi\n    /* \"#utility.yul\":654:655   */\n  0x00\n    /* \"#utility.yul\":651:652   */\n  0x00\n    /* \"#utility.yul\":644:656   */\n  revert\n    /* \"#utility.yul\":606:658   */\ntag_35:\n    /* \"#utility.yul\":686:695   */\n  dup2\n    /* \"#utility.yul\":680:696   */\n  mload\n    /* \"#utility.yul\":736:740   */\n  0xff\n    /* \"#utility.yul\":729:734   */\n  dup2\n    /* \"#utility.yul\":725:741   */\n  and\n    /* \"#utility.yul\":718:723   */\n  dup2\n    /* \"#utility.yul\":715:742   */\n  eq\n    /* \"#utility.yul\":705:760   */\n  tag_32\n  jumpi\n    /* \"#utility.yul\":756:757   */\n  0x00\n    /* \"#utility.yul\":753:754   */\n  0x00\n    /* \"#utility.yul\":746:758   */\n  revert\n    /* \"#utility.yul\":795:922   */\ntag_26:\n    /* \"#utility.yul\":856:866   */\n  0x4e487b71\n    /* \"#utility.yul\":851:854   */\n  0xe0\n    /* \"#utility.yul\":847:867   */\n  shl\n    /* \"#utility.yul\":844:845   */\n  0x00\n    /* \"#utility.yul\":837:868   */\n  mstore\n    /* \"#utility.yul\":887:891   */\n  0x11\n    /* \"#utility.yul\":884:885   */\n  0x04\n    /* \"#utility.yul\":877:892   */\n  mstore\n    /* \"#utility.yul\":911:915   */\n  0x24\n    /* \"#utility.yul\":908:909   */\n  0x00\n    /* \"#utility.yul\":901:916   */\n  revert\n    /* \"#utility.yul\":927:1302   */\ntag_27:\n    /* \"#utility.yul\":1015:1016   */\n  0x01\n    /* \"#utility.yul\":1033:1038   */\n  dup2\n    /* \"#utility.yul\":1047:1296   */\ntag_39:\n    /* \"#utility.yul\":1068:1069   */\n  0x01\n    /* \"#utility.yul\":1058:1066   */\n  dup5\n    /* \"#utility.yul\":1055:1070   */\n  gt\n    /* \"#utility.yul\":1047:1296   */\n  iszero\n  tag_41\n  jumpi\n    /* \"#utility.yul\":1118:1122   */\n  dup1\n    /* \"#utility.yul\":1113:1116   */\n  dup6\n    /* \"#utility.yul\":1109:1123   */\n  div\n    /* \"#utility.yul\":1103:1107   */\n  dup2\n    /* \"#utility.yul\":1100:1124   */\n  gt\n    /* \"#utility.yul\":1097:1147   */\n  iszero\n  tag_43\n  jumpi\n    /* \"#utility.yul\":1127:1145   */\n  tag_43\n  tag_26\n  jump\t// in\ntag_43:\n    /* \"#utility.yul\":1177:1178   */\n  0x01\n    /* \"#utility.yul\":1167:1175   */\n  dup5\n    /* \"#utility.yul\":1163:1179   */\n  and\n    /* \"#utility.yul\":1160:1209   */\n  iszero\n  tag_44\n  jumpi\n    /* \"#utility.yul\":1191:1207   */\n  swap1\n  dup2\n  mul\n  swap1\n    /* \"#utility.yul\":1160:1209   */\ntag_44:\n    /* \"#utility.yul\":1274:1275   */\n  0x01\n    /* \"#utility.yul\":1270:1286   */\n  swap4\n  swap1\n  swap4\n  shr\n  swap3\n    /* \"#utility.yul\":1230:1245   */\n  dup1\n  mul\n    /* \"#utility.yul\":1047:1296   */\n  jump(tag_39)\ntag_41:\n    /* \"#utility.yul\":927:1302   */\n  swap4\n  pop\n  swap4\n  swap2\n  pop\n  pop\n  jump\t// out\n    /* \"#utility.yul\":1307:2209   */\ntag_28:\n    /* \"#utility.yul\":1356:1361   */\n  0x00\n    /* \"#utility.yul\":1386:1394   */\n  dup3\n    /* \"#utility.yul\":1376:1456   */\n  tag_46\n  jumpi\n  pop\n    /* \"#utility.yul\":1427:1428   */\n  0x01\n    /* \"#utility.yul\":1441:1446   */\n  jump(tag_45)\n    /* \"#utility.yul\":1376:1456   */\ntag_46:\n    /* \"#utility.yul\":1475:1479   */\n  dup2\n    /* \"#utility.yul\":1465:1541   */\n  tag_47\n  jumpi\n  pop\n    /* \"#utility.yul\":1512:1513   */\n  0x00\n    /* \"#utility.yul\":1526:1531   */\n  jump(tag_45)\n    /* \"#utility.yul\":1465:1541   */\ntag_47:\n    /* \"#utility.yul\":1557:1561   */\n  dup2\n    /* \"#utility.yul\":1575:1576   */\n  0x01\n    /* \"#utility.yul\":1570:1629   */\n  dup2\n  eq\n  tag_49\n  jumpi\n    /* \"#utility.yul\":1643:1644   */\n  0x02\n    /* \"#utility.yul\":1638:1812   */\n  dup2\n  eq\n  tag_50\n  jumpi\n    /* \"#utility.yul\":1550:1812   */\n  jump(tag_48)\n    /* \"#utility.yul\":1570:1629   */\ntag_49:\n    /* \"#utility.yul\":1600:1601   */\n  0x01\n    /* \"#utility.yul\":1591:1601   */\n  swap2\n  pop\n    /* \"#utility.yul\":1614:1619   */\n  pop\n  jump(tag_45)\n    /* \"#utility.yul\":1638:1812   */\ntag_50:\n    /* \"#utility.yul\":1675:1678   */\n  0xff\n    /* \"#utility.yul\":1665:1673   */\n  dup5\n    /* \"#utility.yul\":1662:1679   */\n  gt\n    /* \"#utility.yul\":1659:1702   */\n  iszero\n  tag_52\n  jumpi\n    /* \"#utility.yul\":1682:1700   */\n  tag_52\n  tag_26\n  jump\t// in\ntag_52:\n  pop\n  pop\n    /* \"#utility.yul\":1738:1739   */\n  0x01\n    /* \"#utility.yul\":1724:1740   */\n  dup3\n  shl\n    /* \"#utility.yul\":1797:1802   */\n  jump(tag_45)\n    /* \"#utility.yul\":1550:1812   */\ntag_48:\n  pop\n    /* \"#utility.yul\":1896:1898   */\n  0x20\n    /* \"#utility.yul\":1886:1894   */\n  dup4\n    /* \"#utility.yul\":1883:1899   */\n  lt\n    /* \"#utility.yul\":1877:1880   */\n  0x0133\n    /* \"#utility.yul\":1871:1875   */\n  dup4\n    /* \"#utility.yul\":1868:1881   */\n  lt\n    /* \"#utility.yul\":1864:1900   */\n  and\n    /* \"#utility.yul\":1858:1860   */\n  0x4e\n    /* \"#utility.yul\":1848:1856   */\n  dup5\n    /* \"#utility.yul\":1845:1861   */\n  lt\n    /* \"#utility.yul\":1840:1842   */\n  0x0b\n    /* \"#utility.yul\":1834:1838   */\n  dup5\n    /* \"#utility.yul\":1831:1843   */\n  lt\n    /* \"#utility.yul\":1827:1862   */\n  and\n    /* \"#utility.yul\":1824:1901   */\n  or\n    /* \"#utility.yul\":1821:2024   */\n  iszero\n  tag_53\n  jumpi\n  pop\n    /* \"#utility.yul\":1933:1952   */\n  dup2\n  dup2\n  exp\n    /* \"#utility.yul\":2009:2014   */\n  jump(tag_45)\n    /* \"#utility.yul\":1821:2024   */\ntag_53:\n    /* \"#utility.yul\":2056:2098   */\n  tag_54\n  not(0x00)\n    /* \"#utility.yul\":2081:2089   */\n  dup5\n    /* \"#utility.yul\":2075:2079   */\n  dup5\n    /* \"#utility.yul\":2056:2098   */\n  tag_27\n  jump\t// in\ntag_54:\n    /* \"#utility.yul\":2134:2140   */\n  dup1\n    /* \"#utility.yul\":2130:2131   */\n  0x00\n    /* \"#utility.yul\":2126:2132   */\n  not\n    /* \"#utility.yul\":2122:2141   */\n  div\n    /* \"#utility.yul\":2113:2120   */\n  dup3\n    /* \"#utility.yul\":2110:2142   */\n  gt\n    /* \"#utility.yul\":2107:2165   */\n  iszero\n  tag_56\n  jumpi\n    /* \"#utility.yul\":2145:2163   */\n  tag_56\n  tag_26\n  jump\t// in\ntag_56:\n    /* \"#utility.yul\":2183:2203   */\n  mul\n  swap1\n  pop\n    /* \"#utility.yul\":1307:2209   */\ntag_45:\n  swap3\n  swap2\n  pop\n  pop\n  jump\t// out\n    /* \"#utility.yul\":2214:2354   */\ntag_20:\n    /* \"#utility.yul\":2272:2277   */\n  0x00\n    /* \"#utility.yul\":2301:2348   */\n  tag_32\n    /* \"#utility.yul\":2342:2346   */\n  0xff\n    /* \"#utility.yul\":2332:2340   */\n  dup5\n    /* \"#utility.yul\":2328:2347   */\n  and\n    /* \"#utility.yul\":2322:2326   */\n  dup4\n    /* \"#utility.yul\":2301:2348   */\n  tag_28\n  jump\t// in\n    /* \"#utility.yul\":2359:2527   */\ntag_22:\n    /* \"#utility.yul\":2432:2441   */\n  dup1\n  dup3\n  mul\n    /* \"#utility.yul\":2463:2472   */\n  dup2\n  iszero\n    /* \"#utility.yul\":2480:2495   */\n  dup3\n  dup3\n  div\n    /* \"#utility.yul\":2474:2496   */\n  dup5\n  eq\n    /* \"#utility.yul\":2460:2497   */\n  or\n    /* \"#utility.yul\":2450:2521   */\n  tag_45\n  jumpi\n    /* \"#utility.yul\":2501:2519   */\n  tag_45\n  tag_26\n  jump\t// in\n    /* \"#utility.yul\":2359:2527   */\ntag_29:\n    /* \"contracts/CREDIWhale.sol\":256:1008  contract CREDIWhale is Ownable, ICREDIWhale  ... */\n  mload(0x80)\n  codecopy(0x00, dataOffset(sub_0), dataSize(sub_0))\n  0x00\n  assignImmutable(\"0x7d94b1fd5befe75fac04677148728067a5c7750c4535d59cf8d692301dae078c\")\n  return(0x00, dataSize(sub_0))\nstop\n\nsub_0: assembly {\n        /* \"contracts/CREDIWhale.sol\":256:1008  contract CREDIWhale is Ownable, ICREDIWhale  ... */\n      mstore(0x40, 0x80)\n      callvalue\n      dup1\n      iszero\n      tag_1\n      jumpi\n      revert(0x00, 0x00)\n    tag_1:\n      pop\n      jumpi(tag_2, lt(calldatasize, 0x04))\n      shr(0xe0, calldataload(0x00))\n      dup1\n      0x8ef1e259\n      gt\n      tag_10\n      jumpi\n      dup1\n      0x8ef1e259\n      eq\n      tag_6\n      jumpi\n      dup1\n      0x9a3bfdf5\n      eq\n      tag_7\n      jumpi\n      dup1\n      0xf2fde38b\n      eq\n      tag_8\n      jumpi\n      dup1\n      0xffdd60f9\n      eq\n      tag_9\n      jumpi\n      revert(0x00, 0x00)\n    tag_10:\n      dup1\n      0x6db08f25\n      eq\n      tag_3\n      jumpi\n      dup1\n      0x715018a6\n      eq\n      tag_4\n      jumpi\n      dup1\n      0x8da5cb5b\n      eq\n      tag_5\n      jumpi\n    tag_2:\n      revert(0x00, 0x00)\n        /* \"contracts/CREDIWhale.sol\":310:340  address immutable public CREDI */\n    tag_3:\n      tag_11\n      immutable(\"0x7d94b1fd5befe75fac04677148728067a5c7750c4535d59cf8d692301dae078c\")\n      dup2\n      jump\n    tag_11:\n      mload(0x40)\n      sub(shl(0xa0, 0x01), 0x01)\n        /* \"#utility.yul\":178:233   */\n      swap1\n      swap2\n      and\n        /* \"#utility.yul\":160:234   */\n      dup2\n      mstore\n        /* \"#utility.yul\":148:150   */\n      0x20\n        /* \"#utility.yul\":133:151   */\n      add\n        /* \"contracts/CREDIWhale.sol\":310:340  address immutable public CREDI */\n    tag_13:\n      mload(0x40)\n      dup1\n      swap2\n      sub\n      swap1\n      return\n        /* \"@openzeppelin/contracts/access/Ownable.sol\":2293:2394  function renounceOwnership() public virtual onlyOwner {... */\n    tag_4:\n      tag_15\n      tag_16\n      jump\t// in\n    tag_15:\n      stop\n        /* \"@openzeppelin/contracts/access/Ownable.sol\":1638:1723  function owner() public view virtual returns (address) {... */\n    tag_5:\n        /* \"@openzeppelin/contracts/access/Ownable.sol\":1684:1691  address */\n      0x00\n        /* \"@openzeppelin/contracts/access/Ownable.sol\":1710:1716  _owner */\n      sload\n      sub(shl(0xa0, 0x01), 0x01)\n      and\n        /* \"@openzeppelin/contracts/access/Ownable.sol\":1638:1723  function owner() public view virtual returns (address) {... */\n      jump(tag_11)\n        /* \"contracts/CREDIWhale.sol\":572:727  function isWhale(address user_address) external view returns (bool)... */\n    tag_6:\n      tag_20\n      tag_21\n      calldatasize\n      0x04\n      tag_22\n      jump\t// in\n    tag_21:\n      tag_23\n      jump\t// in\n    tag_20:\n      mload(0x40)\n        /* \"#utility.yul\":724:738   */\n      swap1\n      iszero\n        /* \"#utility.yul\":717:739   */\n      iszero\n        /* \"#utility.yul\":699:740   */\n      dup2\n      mstore\n        /* \"#utility.yul\":687:689   */\n      0x20\n        /* \"#utility.yul\":672:690   */\n      add\n        /* \"contracts/CREDIWhale.sol\":572:727  function isWhale(address user_address) external view returns (bool)... */\n      tag_13\n        /* \"#utility.yul\":559:746   */\n      jump\n        /* \"contracts/CREDIWhale.sol\":902:1003  function whaleThreshold() external view returns (uint)... */\n    tag_7:\n        /* \"contracts/CREDIWhale.sol\":980:995  _whaleThreshold */\n      sload(0x01)\n        /* \"contracts/CREDIWhale.sol\":902:1003  function whaleThreshold() external view returns (uint)... */\n      mload(0x40)\n        /* \"#utility.yul\":897:922   */\n      swap1\n      dup2\n      mstore\n        /* \"#utility.yul\":885:887   */\n      0x20\n        /* \"#utility.yul\":870:888   */\n      add\n        /* \"contracts/CREDIWhale.sol\":902:1003  function whaleThreshold() external view returns (uint)... */\n      tag_13\n        /* \"#utility.yul\":751:928   */\n      jump\n        /* \"@openzeppelin/contracts/access/Ownable.sol\":2543:2758  function transferOwnership(address newOwner) public virtual onlyOwner {... */\n    tag_8:\n      tag_15\n      tag_31\n      calldatasize\n      0x04\n      tag_22\n      jump\t// in\n    tag_31:\n      tag_32\n      jump\t// in\n        /* \"contracts/CREDIWhale.sol\":735:894  function setWhaleThreshold(uint new_threshold) external onlyOwner... */\n    tag_9:\n      tag_15\n      tag_34\n      calldatasize\n      0x04\n      tag_35\n      jump\t// in\n    tag_34:\n      tag_36\n      jump\t// in\n        /* \"@openzeppelin/contracts/access/Ownable.sol\":2293:2394  function renounceOwnership() public virtual onlyOwner {... */\n    tag_16:\n        /* \"@openzeppelin/contracts/access/Ownable.sol\":1531:1544  _checkOwner() */\n      tag_38\n        /* \"@openzeppelin/contracts/access/Ownable.sol\":1531:1542  _checkOwner */\n      tag_39\n        /* \"@openzeppelin/contracts/access/Ownable.sol\":1531:1544  _checkOwner() */\n      jump\t// in\n    tag_38:\n        /* \"@openzeppelin/contracts/access/Ownable.sol\":2357:2387  _transferOwnership(address(0)) */\n      tag_41\n        /* \"@openzeppelin/contracts/access/Ownable.sol\":2384:2385  0 */\n      0x00\n        /* \"@openzeppelin/contracts/access/Ownable.sol\":2357:2375  _transferOwnership */\n      tag_42\n        /* \"@openzeppelin/contracts/access/Ownable.sol\":2357:2387  _transferOwnership(address(0)) */\n      jump\t// in\n    tag_41:\n        /* \"@openzeppelin/contracts/access/Ownable.sol\":2293:2394  function renounceOwnership() public virtual onlyOwner {... */\n      jump\t// out\n        /* \"contracts/CREDIWhale.sol\":572:727  function isWhale(address user_address) external view returns (bool)... */\n    tag_23:\n        /* \"contracts/CREDIWhale.sol\":704:719  _whaleThreshold */\n      sload(0x01)\n        /* \"contracts/CREDIWhale.sol\":663:700  IERC20(CREDI).balanceOf(user_address) */\n      mload(0x40)\n      0x70a0823100000000000000000000000000000000000000000000000000000000\n      dup2\n      mstore\n      sub(shl(0xa0, 0x01), 0x01)\n        /* \"#utility.yul\":178:233   */\n      dup4\n      dup2\n      and\n        /* \"contracts/CREDIWhale.sol\":663:700  IERC20(CREDI).balanceOf(user_address) */\n      0x04\n      dup4\n      add\n        /* \"#utility.yul\":160:234   */\n      mstore\n      0x00\n      swap3\n        /* \"contracts/CREDIWhale.sol\":704:719  _whaleThreshold */\n      swap2\n        /* \"contracts/CREDIWhale.sol\":670:675  CREDI */\n      immutable(\"0x7d94b1fd5befe75fac04677148728067a5c7750c4535d59cf8d692301dae078c\")\n        /* \"contracts/CREDIWhale.sol\":663:686  IERC20(CREDI).balanceOf */\n      swap1\n      swap2\n      and\n      swap1\n      0x70a08231\n      swap1\n        /* \"#utility.yul\":133:151   */\n      0x24\n      add\n        /* \"contracts/CREDIWhale.sol\":663:700  IERC20(CREDI).balanceOf(user_address) */\n      0x20\n      mload(0x40)\n      dup1\n      dup4\n      sub\n      dup2\n      dup7\n      gas\n      staticcall\n      iszero\n      dup1\n      iszero\n      tag_47\n      jumpi\n      returndatacopy(0x00, 0x00, returndatasize)\n      revert(0x00, returndatasize)\n    tag_47:\n      pop\n      pop\n      pop\n      pop\n      mload(0x40)\n      returndatasize\n      not(0x1f)\n      0x1f\n      dup3\n      add\n      and\n      dup3\n      add\n      dup1\n      0x40\n      mstore\n      pop\n      dup2\n      add\n      swap1\n      tag_48\n      swap2\n      swap1\n      tag_49\n      jump\t// in\n    tag_48:\n        /* \"contracts/CREDIWhale.sol\":663:719  IERC20(CREDI).balanceOf(user_address) >= _whaleThreshold */\n      lt\n      iszero\n      swap3\n        /* \"contracts/CREDIWhale.sol\":572:727  function isWhale(address user_address) external view returns (bool)... */\n      swap2\n      pop\n      pop\n      jump\t// out\n        /* \"@openzeppelin/contracts/access/Ownable.sol\":2543:2758  function transferOwnership(address newOwner) public virtual onlyOwner {... */\n    tag_32:\n        /* \"@openzeppelin/contracts/access/Ownable.sol\":1531:1544  _checkOwner() */\n      tag_52\n        /* \"@openzeppelin/contracts/access/Ownable.sol\":1531:1542  _checkOwner */\n      tag_39\n        /* \"@openzeppelin/contracts/access/Ownable.sol\":1531:1544  _checkOwner() */\n      jump\t// in\n    tag_52:\n      sub(shl(0xa0, 0x01), 0x01)\n        /* \"@openzeppelin/contracts/access/Ownable.sol\":2627:2649  newOwner == address(0) */\n      dup2\n      and\n        /* \"@openzeppelin/contracts/access/Ownable.sol\":2623:2714  if (newOwner == address(0)) {... */\n      tag_54\n      jumpi\n        /* \"@openzeppelin/contracts/access/Ownable.sol\":2672:2703  OwnableInvalidOwner(address(0)) */\n      mload(0x40)\n      0x1e4fbdf700000000000000000000000000000000000000000000000000000000\n      dup2\n      mstore\n        /* \"@openzeppelin/contracts/access/Ownable.sol\":2700:2701  0 */\n      0x00\n        /* \"@openzeppelin/contracts/access/Ownable.sol\":2672:2703  OwnableInvalidOwner(address(0)) */\n      0x04\n      dup3\n      add\n        /* \"#utility.yul\":160:234   */\n      mstore\n        /* \"#utility.yul\":133:151   */\n      0x24\n      add\n        /* \"@openzeppelin/contracts/access/Ownable.sol\":2672:2703  OwnableInvalidOwner(address(0)) */\n    tag_55:\n      mload(0x40)\n      dup1\n      swap2\n      sub\n      swap1\n      revert\n        /* \"@openzeppelin/contracts/access/Ownable.sol\":2623:2714  if (newOwner == address(0)) {... */\n    tag_54:\n        /* \"@openzeppelin/contracts/access/Ownable.sol\":2723:2751  _transferOwnership(newOwner) */\n      tag_56\n        /* \"@openzeppelin/contracts/access/Ownable.sol\":2742:2750  newOwner */\n      dup2\n        /* \"@openzeppelin/contracts/access/Ownable.sol\":2723:2741  _transferOwnership */\n      tag_42\n        /* \"@openzeppelin/contracts/access/Ownable.sol\":2723:2751  _transferOwnership(newOwner) */\n      jump\t// in\n    tag_56:\n        /* \"@openzeppelin/contracts/access/Ownable.sol\":2543:2758  function transferOwnership(address newOwner) public virtual onlyOwner {... */\n      pop\n      jump\t// out\n        /* \"contracts/CREDIWhale.sol\":735:894  function setWhaleThreshold(uint new_threshold) external onlyOwner... */\n    tag_36:\n        /* \"@openzeppelin/contracts/access/Ownable.sol\":1531:1544  _checkOwner() */\n      tag_58\n        /* \"@openzeppelin/contracts/access/Ownable.sol\":1531:1542  _checkOwner */\n      tag_39\n        /* \"@openzeppelin/contracts/access/Ownable.sol\":1531:1544  _checkOwner() */\n      jump\t// in\n    tag_58:\n        /* \"contracts/CREDIWhale.sol\":869:874  CREDI */\n      immutable(\"0x7d94b1fd5befe75fac04677148728067a5c7750c4535d59cf8d692301dae078c\")\n      sub(shl(0xa0, 0x01), 0x01)\n        /* \"contracts/CREDIWhale.sol\":853:884  IERC20_Decimals(CREDI).decimals */\n      and\n      0x313ce567\n        /* \"contracts/CREDIWhale.sol\":853:886  IERC20_Decimals(CREDI).decimals() */\n      mload(0x40)\n      dup2\n      0xffffffff\n      and\n      0xe0\n      shl\n      dup2\n      mstore\n      0x04\n      add\n      0x20\n      mload(0x40)\n      dup1\n      dup4\n      sub\n      dup2\n      dup7\n      gas\n      staticcall\n      iszero\n      dup1\n      iszero\n      tag_61\n      jumpi\n      returndatacopy(0x00, 0x00, returndatasize)\n      revert(0x00, returndatasize)\n    tag_61:\n      pop\n      pop\n      pop\n      pop\n      mload(0x40)\n      returndatasize\n      not(0x1f)\n      0x1f\n      dup3\n      add\n      and\n      dup3\n      add\n      dup1\n      0x40\n      mstore\n      pop\n      dup2\n      add\n      swap1\n      tag_62\n      swap2\n      swap1\n      tag_63\n      jump\t// in\n    tag_62:\n        /* \"contracts/CREDIWhale.sol\":849:886  10**IERC20_Decimals(CREDI).decimals() */\n      tag_64\n      swap1\n        /* \"contracts/CREDIWhale.sol\":849:851  10 */\n      0x0a\n        /* \"contracts/CREDIWhale.sol\":849:886  10**IERC20_Decimals(CREDI).decimals() */\n      tag_65\n      jump\t// in\n    tag_64:\n        /* \"contracts/CREDIWhale.sol\":835:886  new_threshold*10**IERC20_Decimals(CREDI).decimals() */\n      tag_66\n      swap1\n        /* \"contracts/CREDIWhale.sol\":835:848  new_threshold */\n      dup3\n        /* \"contracts/CREDIWhale.sol\":835:886  new_threshold*10**IERC20_Decimals(CREDI).decimals() */\n      tag_67\n      jump\t// in\n    tag_66:\n        /* \"contracts/CREDIWhale.sol\":817:832  _whaleThreshold */\n      0x01\n        /* \"contracts/CREDIWhale.sol\":817:886  _whaleThreshold = new_threshold*10**IERC20_Decimals(CREDI).decimals() */\n      sstore\n      pop\n        /* \"contracts/CREDIWhale.sol\":735:894  function setWhaleThreshold(uint new_threshold) external onlyOwner... */\n      jump\t// out\n        /* \"@openzeppelin/contracts/access/Ownable.sol\":1796:1958  function _checkOwner() internal view virtual {... */\n    tag_39:\n        /* \"@openzeppelin/contracts/access/Ownable.sol\":1684:1691  address */\n      0x00\n        /* \"@openzeppelin/contracts/access/Ownable.sol\":1710:1716  _owner */\n      sload\n      sub(shl(0xa0, 0x01), 0x01)\n      and\n        /* \"@openzeppelin/contracts/utils/Context.sol\":735:745  msg.sender */\n      caller\n        /* \"@openzeppelin/contracts/access/Ownable.sol\":1855:1878  owner() != _msgSender() */\n      eq\n        /* \"@openzeppelin/contracts/access/Ownable.sol\":1851:1952  if (owner() != _msgSender()) {... */\n      tag_41\n      jumpi\n        /* \"@openzeppelin/contracts/access/Ownable.sol\":1901:1941  OwnableUnauthorizedAccount(_msgSender()) */\n      mload(0x40)\n      0x118cdaa700000000000000000000000000000000000000000000000000000000\n      dup2\n      mstore\n        /* \"@openzeppelin/contracts/utils/Context.sol\":735:745  msg.sender */\n      caller\n        /* \"@openzeppelin/contracts/access/Ownable.sol\":1901:1941  OwnableUnauthorizedAccount(_msgSender()) */\n      0x04\n      dup3\n      add\n        /* \"#utility.yul\":160:234   */\n      mstore\n        /* \"#utility.yul\":133:151   */\n      0x24\n      add\n        /* \"@openzeppelin/contracts/access/Ownable.sol\":1901:1941  OwnableUnauthorizedAccount(_msgSender()) */\n      tag_55\n        /* \"#utility.yul\":14:240   */\n      jump\n        /* \"@openzeppelin/contracts/access/Ownable.sol\":2912:3099  function _transferOwnership(address newOwner) internal virtual {... */\n    tag_42:\n        /* \"@openzeppelin/contracts/access/Ownable.sol\":2985:3001  address oldOwner */\n      0x00\n        /* \"@openzeppelin/contracts/access/Ownable.sol\":3004:3010  _owner */\n      dup1\n      sload\n      sub(shl(0xa0, 0x01), 0x01)\n        /* \"@openzeppelin/contracts/access/Ownable.sol\":3020:3037  _owner = newOwner */\n      dup4\n      dup2\n      and\n      0xffffffffffffffffffffffff0000000000000000000000000000000000000000\n      dup4\n      and\n      dup2\n      or\n      dup5\n      sstore\n        /* \"@openzeppelin/contracts/access/Ownable.sol\":3052:3092  OwnershipTransferred(oldOwner, newOwner) */\n      mload(0x40)\n        /* \"@openzeppelin/contracts/access/Ownable.sol\":3004:3010  _owner */\n      swap2\n      swap1\n      swap3\n      and\n      swap3\n      dup4\n      swap2\n        /* \"@openzeppelin/contracts/access/Ownable.sol\":3052:3092  OwnershipTransferred(oldOwner, newOwner) */\n      0x8be0079c531659141344cd1fd0a4f28419497f9722a3daafe3b4186f6b6457e0\n      swap2\n        /* \"@openzeppelin/contracts/access/Ownable.sol\":2985:3001  address oldOwner */\n      swap1\n        /* \"@openzeppelin/contracts/access/Ownable.sol\":3052:3092  OwnershipTransferred(oldOwner, newOwner) */\n      log3\n        /* \"@openzeppelin/contracts/access/Ownable.sol\":2975:3099  {... */\n      pop\n        /* \"@openzeppelin/contracts/access/Ownable.sol\":2912:3099  function _transferOwnership(address newOwner) internal virtual {... */\n      pop\n      jump\t// out\n        /* \"#utility.yul\":245:554   */\n    tag_22:\n        /* \"#utility.yul\":304:310   */\n      0x00\n        /* \"#utility.yul\":357:359   */\n      0x20\n        /* \"#utility.yul\":345:354   */\n      dup3\n        /* \"#utility.yul\":336:343   */\n      dup5\n        /* \"#utility.yul\":332:355   */\n      sub\n        /* \"#utility.yul\":328:360   */\n      slt\n        /* \"#utility.yul\":325:377   */\n      iszero\n      tag_83\n      jumpi\n        /* \"#utility.yul\":373:374   */\n      0x00\n        /* \"#utility.yul\":370:371   */\n      0x00\n        /* \"#utility.yul\":363:375   */\n      revert\n        /* \"#utility.yul\":325:377   */\n    tag_83:\n        /* \"#utility.yul\":412:421   */\n      dup2\n        /* \"#utility.yul\":399:422   */\n      calldataload\n      sub(shl(0xa0, 0x01), 0x01)\n        /* \"#utility.yul\":455:460   */\n      dup2\n        /* \"#utility.yul\":451:505   */\n      and\n        /* \"#utility.yul\":444:449   */\n      dup2\n        /* \"#utility.yul\":441:506   */\n      eq\n        /* \"#utility.yul\":431:524   */\n      tag_84\n      jumpi\n        /* \"#utility.yul\":520:521   */\n      0x00\n        /* \"#utility.yul\":517:518   */\n      0x00\n        /* \"#utility.yul\":510:522   */\n      revert\n        /* \"#utility.yul\":431:524   */\n    tag_84:\n        /* \"#utility.yul\":543:548   */\n      swap4\n        /* \"#utility.yul\":245:554   */\n      swap3\n      pop\n      pop\n      pop\n      jump\t// out\n        /* \"#utility.yul\":933:1113   */\n    tag_35:\n        /* \"#utility.yul\":992:998   */\n      0x00\n        /* \"#utility.yul\":1045:1047   */\n      0x20\n        /* \"#utility.yul\":1033:1042   */\n      dup3\n        /* \"#utility.yul\":1024:1031   */\n      dup5\n        /* \"#utility.yul\":1020:1043   */\n      sub\n        /* \"#utility.yul\":1016:1048   */\n      slt\n        /* \"#utility.yul\":1013:1065   */\n      iszero\n      tag_88\n      jumpi\n        /* \"#utility.yul\":1061:1062   */\n      0x00\n        /* \"#utility.yul\":1058:1059   */\n      0x00\n        /* \"#utility.yul\":1051:1063   */\n      revert\n        /* \"#utility.yul\":1013:1065   */\n    tag_88:\n      pop\n        /* \"#utility.yul\":1084:1107   */\n      calldataload\n      swap2\n        /* \"#utility.yul\":933:1113   */\n      swap1\n      pop\n      jump\t// out\n        /* \"#utility.yul\":1118:1302   */\n    tag_49:\n        /* \"#utility.yul\":1188:1194   */\n      0x00\n        /* \"#utility.yul\":1241:1243   */\n      0x20\n        /* \"#utility.yul\":1229:1238   */\n      dup3\n        /* \"#utility.yul\":1220:1227   */\n      dup5\n        /* \"#utility.yul\":1216:1239   */\n      sub\n        /* \"#utility.yul\":1212:1244   */\n      slt\n        /* \"#utility.yul\":1209:1261   */\n      iszero\n      tag_90\n      jumpi\n        /* \"#utility.yul\":1257:1258   */\n      0x00\n        /* \"#utility.yul\":1254:1255   */\n      0x00\n        /* \"#utility.yul\":1247:1259   */\n      revert\n        /* \"#utility.yul\":1209:1261   */\n    tag_90:\n      pop\n        /* \"#utility.yul\":1280:1296   */\n      mload\n      swap2\n        /* \"#utility.yul\":1118:1302   */\n      swap1\n      pop\n      jump\t// out\n        /* \"#utility.yul\":1307:1580   */\n    tag_63:\n        /* \"#utility.yul\":1375:1381   */\n      0x00\n        /* \"#utility.yul\":1428:1430   */\n      0x20\n        /* \"#utility.yul\":1416:1425   */\n      dup3\n        /* \"#utility.yul\":1407:1414   */\n      dup5\n        /* \"#utility.yul\":1403:1426   */\n      sub\n        /* \"#utility.yul\":1399:1431   */\n      slt\n        /* \"#utility.yul\":1396:1448   */\n      iszero\n      tag_92\n      jumpi\n        /* \"#utility.yul\":1444:1445   */\n      0x00\n        /* \"#utility.yul\":1441:1442   */\n      0x00\n        /* \"#utility.yul\":1434:1446   */\n      revert\n        /* \"#utility.yul\":1396:1448   */\n    tag_92:\n        /* \"#utility.yul\":1476:1485   */\n      dup2\n        /* \"#utility.yul\":1470:1486   */\n      mload\n        /* \"#utility.yul\":1526:1530   */\n      0xff\n        /* \"#utility.yul\":1519:1524   */\n      dup2\n        /* \"#utility.yul\":1515:1531   */\n      and\n        /* \"#utility.yul\":1508:1513   */\n      dup2\n        /* \"#utility.yul\":1505:1532   */\n      eq\n        /* \"#utility.yul\":1495:1550   */\n      tag_84\n      jumpi\n        /* \"#utility.yul\":1546:1547   */\n      0x00\n        /* \"#utility.yul\":1543:1544   */\n      0x00\n        /* \"#utility.yul\":1536:1548   */\n      revert\n        /* \"#utility.yul\":1585:1769   */\n    tag_77:\n        /* \"#utility.yul\":1637:1714   */\n      0x4e487b7100000000000000000000000000000000000000000000000000000000\n        /* \"#utility.yul\":1634:1635   */\n      0x00\n        /* \"#utility.yul\":1627:1715   */\n      mstore\n        /* \"#utility.yul\":1734:1738   */\n      0x11\n        /* \"#utility.yul\":1731:1732   */\n      0x04\n        /* \"#utility.yul\":1724:1739   */\n      mstore\n        /* \"#utility.yul\":1758:1762   */\n      0x24\n        /* \"#utility.yul\":1755:1756   */\n      0x00\n        /* \"#utility.yul\":1748:1763   */\n      revert\n        /* \"#utility.yul\":1774:2149   */\n    tag_78:\n        /* \"#utility.yul\":1862:1863   */\n      0x01\n        /* \"#utility.yul\":1880:1885   */\n      dup2\n        /* \"#utility.yul\":1894:2143   */\n    tag_96:\n        /* \"#utility.yul\":1915:1916   */\n      0x01\n        /* \"#utility.yul\":1905:1913   */\n      dup5\n        /* \"#utility.yul\":1902:1917   */\n      gt\n        /* \"#utility.yul\":1894:2143   */\n      iszero\n      tag_98\n      jumpi\n        /* \"#utility.yul\":1965:1969   */\n      dup1\n        /* \"#utility.yul\":1960:1963   */\n      dup6\n        /* \"#utility.yul\":1956:1970   */\n      div\n        /* \"#utility.yul\":1950:1954   */\n      dup2\n        /* \"#utility.yul\":1947:1971   */\n      gt\n        /* \"#utility.yul\":1944:1994   */\n      iszero\n      tag_100\n      jumpi\n        /* \"#utility.yul\":1974:1992   */\n      tag_100\n      tag_77\n      jump\t// in\n    tag_100:\n        /* \"#utility.yul\":2024:2025   */\n      0x01\n        /* \"#utility.yul\":2014:2022   */\n      dup5\n        /* \"#utility.yul\":2010:2026   */\n      and\n        /* \"#utility.yul\":2007:2056   */\n      iszero\n      tag_101\n      jumpi\n        /* \"#utility.yul\":2038:2054   */\n      swap1\n      dup2\n      mul\n      swap1\n        /* \"#utility.yul\":2007:2056   */\n    tag_101:\n        /* \"#utility.yul\":2121:2122   */\n      0x01\n        /* \"#utility.yul\":2117:2133   */\n      swap4\n      swap1\n      swap4\n      shr\n      swap3\n        /* \"#utility.yul\":2077:2092   */\n      dup1\n      mul\n        /* \"#utility.yul\":1894:2143   */\n      jump(tag_96)\n    tag_98:\n        /* \"#utility.yul\":1774:2149   */\n      swap4\n      pop\n      swap4\n      swap2\n      pop\n      pop\n      jump\t// out\n        /* \"#utility.yul\":2154:3056   */\n    tag_79:\n        /* \"#utility.yul\":2203:2208   */\n      0x00\n        /* \"#utility.yul\":2233:2241   */\n      dup3\n        /* \"#utility.yul\":2223:2303   */\n      tag_103\n      jumpi\n      pop\n        /* \"#utility.yul\":2274:2275   */\n      0x01\n        /* \"#utility.yul\":2288:2293   */\n      jump(tag_102)\n        /* \"#utility.yul\":2223:2303   */\n    tag_103:\n        /* \"#utility.yul\":2322:2326   */\n      dup2\n        /* \"#utility.yul\":2312:2388   */\n      tag_104\n      jumpi\n      pop\n        /* \"#utility.yul\":2359:2360   */\n      0x00\n        /* \"#utility.yul\":2373:2378   */\n      jump(tag_102)\n        /* \"#utility.yul\":2312:2388   */\n    tag_104:\n        /* \"#utility.yul\":2404:2408   */\n      dup2\n        /* \"#utility.yul\":2422:2423   */\n      0x01\n        /* \"#utility.yul\":2417:2476   */\n      dup2\n      eq\n      tag_106\n      jumpi\n        /* \"#utility.yul\":2490:2491   */\n      0x02\n        /* \"#utility.yul\":2485:2659   */\n      dup2\n      eq\n      tag_107\n      jumpi\n        /* \"#utility.yul\":2397:2659   */\n      jump(tag_105)\n        /* \"#utility.yul\":2417:2476   */\n    tag_106:\n        /* \"#utility.yul\":2447:2448   */\n      0x01\n        /* \"#utility.yul\":2438:2448   */\n      swap2\n      pop\n        /* \"#utility.yul\":2461:2466   */\n      pop\n      jump(tag_102)\n        /* \"#utility.yul\":2485:2659   */\n    tag_107:\n        /* \"#utility.yul\":2522:2525   */\n      0xff\n        /* \"#utility.yul\":2512:2520   */\n      dup5\n        /* \"#utility.yul\":2509:2526   */\n      gt\n        /* \"#utility.yul\":2506:2549   */\n      iszero\n      tag_109\n      jumpi\n        /* \"#utility.yul\":2529:2547   */\n      tag_109\n      tag_77\n      jump\t// in\n    tag_109:\n      pop\n      pop\n        /* \"#utility.yul\":2585:2586   */\n      0x01\n        /* \"#utility.yul\":2571:2587   */\n      dup3\n      shl\n        /* \"#utility.yul\":2644:2649   */\n      jump(tag_102)\n        /* \"#utility.yul\":2397:2659   */\n    tag_105:\n      pop\n        /* \"#utility.yul\":2743:2745   */\n      0x20\n        /* \"#utility.yul\":2733:2741   */\n      dup4\n        /* \"#utility.yul\":2730:2746   */\n      lt\n        /* \"#utility.yul\":2724:2727   */\n      0x0133\n        /* \"#utility.yul\":2718:2722   */\n      dup4\n        /* \"#utility.yul\":2715:2728   */\n      lt\n        /* \"#utility.yul\":2711:2747   */\n      and\n        /* \"#utility.yul\":2705:2707   */\n      0x4e\n        /* \"#utility.yul\":2695:2703   */\n      dup5\n        /* \"#utility.yul\":2692:2708   */\n      lt\n        /* \"#utility.yul\":2687:2689   */\n      0x0b\n        /* \"#utility.yul\":2681:2685   */\n      dup5\n        /* \"#utility.yul\":2678:2690   */\n      lt\n        /* \"#utility.yul\":2674:2709   */\n      and\n        /* \"#utility.yul\":2671:2748   */\n      or\n        /* \"#utility.yul\":2668:2871   */\n      iszero\n      tag_110\n      jumpi\n      pop\n        /* \"#utility.yul\":2780:2799   */\n      dup2\n      dup2\n      exp\n        /* \"#utility.yul\":2856:2861   */\n      jump(tag_102)\n        /* \"#utility.yul\":2668:2871   */\n    tag_110:\n        /* \"#utility.yul\":2903:2945   */\n      tag_111\n      not(0x00)\n        /* \"#utility.yul\":2928:2936   */\n      dup5\n        /* \"#utility.yul\":2922:2926   */\n      dup5\n        /* \"#utility.yul\":2903:2945   */\n      tag_78\n      jump\t// in\n    tag_111:\n        /* \"#utility.yul\":2981:2987   */\n      dup1\n        /* \"#utility.yul\":2977:2978   */\n      0x00\n        /* \"#utility.yul\":2973:2979   */\n      not\n        /* \"#utility.yul\":2969:2988   */\n      div\n        /* \"#utility.yul\":2960:2967   */\n      dup3\n        /* \"#utility.yul\":2957:2989   */\n      gt\n        /* \"#utility.yul\":2954:3012   */\n      iszero\n      tag_113\n      jumpi\n        /* \"#utility.yul\":2992:3010   */\n      tag_113\n      tag_77\n      jump\t// in\n    tag_113:\n        /* \"#utility.yul\":3030:3050   */\n      mul\n      swap1\n      pop\n        /* \"#utility.yul\":2154:3056   */\n    tag_102:\n      swap3\n      swap2\n      pop\n      pop\n      jump\t// out\n        /* \"#utility.yul\":3061:3201   */\n    tag_65:\n        /* \"#utility.yul\":3119:3124   */\n      0x00\n        /* \"#utility.yul\":3148:3195   */\n      tag_84\n        /* \"#utility.yul\":3189:3193   */\n      0xff\n        /* \"#utility.yul\":3179:3187   */\n      dup5\n        /* \"#utility.yul\":3175:3194   */\n      and\n        /* \"#utility.yul\":3169:3173   */\n      dup4\n        /* \"#utility.yul\":3148:3195   */\n      tag_79\n      jump\t// in\n        /* \"#utility.yul\":3206:3374   */\n    tag_67:\n        /* \"#utility.yul\":3279:3288   */\n      dup1\n      dup3\n      mul\n        /* \"#utility.yul\":3310:3319   */\n      dup2\n      iszero\n        /* \"#utility.yul\":3327:3342   */\n      dup3\n      dup3\n      div\n        /* \"#utility.yul\":3321:3343   */\n      dup5\n      eq\n        /* \"#utility.yul\":3307:3344   */\n      or\n        /* \"#utility.yul\":3297:3368   */\n      tag_102\n      jumpi\n        /* \"#utility.yul\":3348:3366   */\n      tag_102\n      tag_77\n      jump\t// in\n\n    auxdata: 0xa2646970667358221220104cd8d7463f4e369b2652d471e657f8530854ac779ef9d0d47c48ecb47753b764736f6c634300081e0033\n}\n",
				"bytecode": {
					"linkReferences": {},
					"object": "60a06040526207a120600155348015610016575f5ffd5b5060405161085c38038061085c83398101604081905261003591610140565b338061005a57604051631e4fbdf760e01b81525f600482015260240160405180910390fd5b610063816100f1565b506001600160a01b03811660808190526040805163313ce56760e01b8152905163313ce567916004808201926020929091908290030181865afa1580156100ac573d5f5f3e3d5ffd5b505050506040513d601f19601f820116820180604052508101906100d0919061016d565b6100db90600a610286565b6001546100e89190610294565b600155506102ab565b5f80546001600160a01b038381166001600160a01b0319831681178455604051919092169283917f8be0079c531659141344cd1fd0a4f28419497f9722a3daafe3b4186f6b6457e09190a35050565b5f60208284031215610150575f5ffd5b81516001600160a01b0381168114610166575f5ffd5b9392505050565b5f6020828403121561017d575f5ffd5b815160ff81168114610166575f5ffd5b634e487b7160e01b5f52601160045260245ffd5b6001815b60018411156101dc578085048111156101c0576101c061018d565b60018416156101ce57908102905b60019390931c9280026101a5565b935093915050565b5f826101f257506001610280565b816101fe57505f610280565b8160018114610214576002811461021e5761023a565b6001915050610280565b60ff84111561022f5761022f61018d565b50506001821b610280565b5060208310610133831016604e8410600b841016171561025d575081810a610280565b6102695f1984846101a1565b805f190482111561027c5761027c61018d565b0290505b92915050565b5f61016660ff8416836101e4565b80820281158282048414176102805761028061018d565b60805161058c6102d05f395f8181608301528181610187015261025f015261058c5ff3fe608060405234801561000f575f5ffd5b506004361061007a575f3560e01c80638ef1e259116100585780638ef1e259146100dc5780639a3bfdf5146100ff578063f2fde38b14610110578063ffdd60f914610123575f5ffd5b80636db08f251461007e578063715018a6146100c25780638da5cb5b146100cc575b5f5ffd5b6100a57f000000000000000000000000000000000000000000000000000000000000000081565b6040516001600160a01b0390911681526020015b60405180910390f35b6100ca610136565b005b5f546001600160a01b03166100a5565b6100ef6100ea3660046103a4565b610149565b60405190151581526020016100b9565b6001546040519081526020016100b9565b6100ca61011e3660046103a4565b6101fa565b6100ca6101313660046103d1565b610255565b61013e6102f8565b6101475f61033d565b565b6001546040517f70a082310000000000000000000000000000000000000000000000000000000081526001600160a01b0383811660048301525f92917f0000000000000000000000000000000000000000000000000000000000000000909116906370a0823190602401602060405180830381865afa1580156101ce573d5f5f3e3d5ffd5b505050506040513d601f19601f820116820180604052508101906101f291906103e8565b101592915050565b6102026102f8565b6001600160a01b038116610249576040517f1e4fbdf70000000000000000000000000000000000000000000000000000000081525f60048201526024015b60405180910390fd5b6102528161033d565b50565b61025d6102f8565b7f00000000000000000000000000000000000000000000000000000000000000006001600160a01b031663313ce5676040518163ffffffff1660e01b8152600401602060405180830381865afa1580156102b9573d5f5f3e3d5ffd5b505050506040513d601f19601f820116820180604052508101906102dd91906103ff565b6102e890600a610531565b6102f2908261053f565b60015550565b5f546001600160a01b03163314610147576040517f118cdaa7000000000000000000000000000000000000000000000000000000008152336004820152602401610240565b5f80546001600160a01b038381167fffffffffffffffffffffffff0000000000000000000000000000000000000000831681178455604051919092169283917f8be0079c531659141344cd1fd0a4f28419497f9722a3daafe3b4186f6b6457e09190a35050565b5f602082840312156103b4575f5ffd5b81356001600160a01b03811681146103ca575f5ffd5b9392505050565b5f602082840312156103e1575f5ffd5b5035919050565b5f602082840312156103f8575f5ffd5b5051919050565b5f6020828403121561040f575f5ffd5b815160ff811681146103ca575f5ffd5b7f4e487b71000000000000000000000000000000000000000000000000000000005f52601160045260245ffd5b6001815b60018411156104875780850481111561046b5761046b61041f565b600184161561047957908102905b60019390931c928002610450565b935093915050565b5f8261049d5750600161052b565b816104a957505f61052b565b81600181146104bf57600281146104c9576104e5565b600191505061052b565b60ff8411156104da576104da61041f565b50506001821b61052b565b5060208310610133831016604e8410600b8410161715610508575081810a61052b565b6105145f19848461044c565b805f19048211156105275761052761041f565b0290505b92915050565b5f6103ca60ff84168361048f565b808202811582820484141761052b5761052b61041f56fea2646970667358221220104cd8d7463f4e369b2652d471e657f8530854ac779ef9d0d47c48ecb47753b764736f6c634300081e0033",
					"opcodes": "PUSH1 0xA0 PUSH1 0x40 MSTORE PUSH3 0x7A120 PUSH1 0x1 SSTORE CALLVALUE DUP1 ISZERO PUSH2 0x16 JUMPI PUSH0 PUSH0 REVERT JUMPDEST POP PUSH1 0x40 MLOAD PUSH2 0x85C CODESIZE SUB DUP1 PUSH2 0x85C DUP4 CODECOPY DUP2 ADD PUSH1 0x40 DUP2 SWAP1 MSTORE PUSH2 0x35 SWAP2 PUSH2 0x140 JUMP JUMPDEST CALLER DUP1 PUSH2 0x5A JUMPI PUSH1 0x40 MLOAD PUSH4 0x1E4FBDF7 PUSH1 0xE0 SHL DUP2 MSTORE PUSH0 PUSH1 0x4 DUP3 ADD MSTORE PUSH1 0x24 ADD PUSH1 0x40 MLOAD DUP1 SWAP2 SUB SWAP1 REVERT JUMPDEST PUSH2 0x63 DUP2 PUSH2 0xF1 JUMP JUMPDEST POP PUSH1 0x1 PUSH1 0x1 PUSH1 0xA0 SHL SUB DUP2 AND PUSH1 0x80 DUP2 SWAP1 MSTORE PUSH1 0x40 DUP1 MLOAD PUSH4 0x313CE567 PUSH1 0xE0 SHL DUP2 MSTORE SWAP1 MLOAD PUSH4 0x313CE567 SWAP2 PUSH1 0x4 DUP1 DUP3 ADD SWAP3 PUSH1 0x20 SWAP3 SWAP1 SWAP2 SWAP1 DUP3 SWAP1 SUB ADD DUP2 DUP7 GAS STATICCALL ISZERO DUP1 ISZERO PUSH2 0xAC JUMPI RETURNDATASIZE PUSH0 PUSH0 RETURNDATACOPY RETURNDATASIZE PUSH0 REVERT JUMPDEST POP POP POP POP PUSH1 0x40 MLOAD RETURNDATASIZE PUSH1 0x1F NOT PUSH1 0x1F DUP3 ADD AND DUP3 ADD DUP1 PUSH1 0x40 MSTORE POP DUP2 ADD SWAP1 PUSH2 0xD0 SWAP2 SWAP1 PUSH2 0x16D JUMP JUMPDEST PUSH2 0xDB SWAP1 PUSH1 0xA PUSH2 0x286 JUMP JUMPDEST PUSH1 0x1 SLOAD PUSH2 0xE8 SWAP2 SWAP1 PUSH2 0x294 JUMP JUMPDEST PUSH1 0x1 SSTORE POP PUSH2 0x2AB JUMP JUMPDEST PUSH0 DUP1 SLOAD PUSH1 0x1 PUSH1 0x1 PUSH1 0xA0 SHL SUB DUP4 DUP2 AND PUSH1 0x1 PUSH1 0x1 PUSH1 0xA0 SHL SUB NOT DUP4 AND DUP2 OR DUP5 SSTORE PUSH1 0x40 MLOAD SWAP2 SWAP1 SWAP3 AND SWAP3 DUP4 SWAP2 PUSH32 0x8BE0079C531659141344CD1FD0A4F28419497F9722A3DAAFE3B4186F6B6457E0 SWAP2 SWAP1 LOG3 POP POP JUMP JUMPDEST PUSH0 PUSH1 0x20 DUP3 DUP5 SUB SLT ISZERO PUSH2 0x150 JUMPI PUSH0 PUSH0 REVERT JUMPDEST DUP2 MLOAD PUSH1 0x1 PUSH1 0x1 PUSH1 0xA0 SHL SUB DUP2 AND DUP2 EQ PUSH2 0x166 JUMPI PUSH0 PUSH0 REVERT JUMPDEST SWAP4 SWAP3 POP POP POP JUMP JUMPDEST PUSH0 PUSH1 0x20 DUP3 DUP5 SUB SLT ISZERO PUSH2 0x17D JUMPI PUSH0 PUSH0 REVERT JUMPDEST DUP2 MLOAD PUSH1 0xFF DUP2 AND DUP2 EQ PUSH2 0x166 JUMPI PUSH0 PUSH0 REVERT JUMPDEST PUSH4 0x4E487B71 PUSH1 0xE0 SHL PUSH0 MSTORE PUSH1 0x11 PUSH1 0x4 MSTORE PUSH1 0x24 PUSH0 REVERT JUMPDEST PUSH1 0x1 DUP2 JUMPDEST PUSH1 0x1 DUP5 GT ISZERO PUSH2 0x1DC JUMPI DUP1 DUP6 DIV DUP2 GT ISZERO PUSH2 0x1C0 JUMPI PUSH2 0x1C0 PUSH2 0x18D JUMP JUMPDEST PUSH1 0x1 DUP5 AND ISZERO PUSH2 0x1CE JUMPI SWAP1 DUP2 MUL SWAP1 JUMPDEST PUSH1 0x1 SWAP4 SWAP1 SWAP4 SHR SWAP3 DUP1 MUL PUSH2 0x1A5 JUMP JUMPDEST SWAP4 POP SWAP4 SWAP2 POP POP JUMP JUMPDEST PUSH0 DUP3 PUSH2 0x1F2 JUMPI POP PUSH1 0x1 PUSH2 0x280 JUMP JUMPDEST DUP2 PUSH2 0x1FE JUMPI POP PUSH0 PUSH2 0x280 JUMP JUMPDEST DUP2 PUSH1 0x1 DUP2 EQ PUSH2 0x214 JUMPI PUSH1 0x2 DUP2 EQ PUSH2 0x21E JUMPI PUSH2 0x23A JUMP JUMPDEST PUSH1 0x1 SWAP2 POP POP PUSH2 0x280 JUMP JUMPDEST PUSH1 0xFF DUP5 GT ISZERO PUSH2 0x22F JUMPI PUSH2 0x22F PUSH2 0x18D JUMP JUMPDEST POP POP PUSH1 0x1 DUP3 SHL PUSH2 0x280 JUMP JUMPDEST POP PUSH1 0x20 DUP4 LT PUSH2 0x133 DUP4 LT AND PUSH1 0x4E DUP5 LT PUSH1 0xB DUP5 LT AND OR ISZERO PUSH2 0x25D JUMPI POP DUP2 DUP2 EXP PUSH2 0x280 JUMP JUMPDEST PUSH2 0x269 PUSH0 NOT DUP5 DUP5 PUSH2 0x1A1 JUMP JUMPDEST DUP1 PUSH0 NOT DIV DUP3 GT ISZERO PUSH2 0x27C JUMPI PUSH2 0x27C PUSH2 0x18D JUMP JUMPDEST MUL SWAP1 POP JUMPDEST SWAP3 SWAP2 POP POP JUMP JUMPDEST PUSH0 PUSH2 0x166 PUSH1 0xFF DUP5 AND DUP4 PUSH2 0x1E4 JUMP JUMPDEST DUP1 DUP3 MUL DUP2 ISZERO DUP3 DUP3 DIV DUP5 EQ OR PUSH2 0x280 JUMPI PUSH2 0x280 PUSH2 0x18D JUMP JUMPDEST PUSH1 0x80 MLOAD PUSH2 0x58C PUSH2 0x2D0 PUSH0 CODECOPY PUSH0 DUP2 DUP2 PUSH1 0x83 ADD MSTORE DUP2 DUP2 PUSH2 0x187 ADD MSTORE PUSH2 0x25F ADD MSTORE PUSH2 0x58C PUSH0 RETURN INVALID PUSH1 0x80 PUSH1 0x40 MSTORE CALLVALUE DUP1 ISZERO PUSH2 0xF JUMPI PUSH0 PUSH0 REVERT JUMPDEST POP PUSH1 0x4 CALLDATASIZE LT PUSH2 0x7A JUMPI PUSH0 CALLDATALOAD PUSH1 0xE0 SHR DUP1 PUSH4 0x8EF1E259 GT PUSH2 0x58 JUMPI DUP1 PUSH4 0x8EF1E259 EQ PUSH2 0xDC JUMPI DUP1 PUSH4 0x9A3BFDF5 EQ PUSH2 0xFF JUMPI DUP1 PUSH4 0xF2FDE38B EQ PUSH2 0x110 JUMPI DUP1 PUSH4 0xFFDD60F9 EQ PUSH2 0x123 JUMPI PUSH0 PUSH0 REVERT JUMPDEST DUP1 PUSH4 0x6DB08F25 EQ PUSH2 0x7E JUMPI DUP1 PUSH4 0x715018A6 EQ PUSH2 0xC2 JUMPI DUP1 PUSH4 0x8DA5CB5B EQ PUSH2 0xCC JUMPI JUMPDEST PUSH0 PUSH0 REVERT JUMPDEST PUSH2 0xA5 PUSH32 0x0 DUP2 JUMP JUMPDEST PUSH1 0x40 MLOAD PUSH1 0x1 PUSH1 0x1 PUSH1 0xA0 SHL SUB SWAP1 SWAP2 AND DUP2 MSTORE PUSH1 0x20 ADD JUMPDEST PUSH1 0x40 MLOAD DUP1 SWAP2 SUB SWAP1 RETURN JUMPDEST PUSH2 0xCA PUSH2 0x136 JUMP JUMPDEST STOP JUMPDEST PUSH0 SLOAD PUSH1 0x1 PUSH1 0x1 PUSH1 0xA0 SHL SUB AND PUSH2 0xA5 JUMP JUMPDEST PUSH2 0xEF PUSH2 0xEA CALLDATASIZE PUSH1 0x4 PUSH2 0x3A4 JUMP JUMPDEST PUSH2 0x149 JUMP JUMPDEST PUSH1 0x40 MLOAD SWAP1 ISZERO ISZERO DUP2 MSTORE PUSH1 0x20 ADD PUSH2 0xB9 JUMP JUMPDEST PUSH1 0x1 SLOAD PUSH1 0x40 MLOAD SWAP1 DUP2 MSTORE PUSH1 0x20 ADD PUSH2 0xB9 JUMP JUMPDEST PUSH2 0xCA PUSH2 0x11E CALLDATASIZE PUSH1 0x4 PUSH2 0x3A4 JUMP JUMPDEST PUSH2 0x1FA JUMP JUMPDEST PUSH2 0xCA PUSH2 0x131 CALLDATASIZE PUSH1 0x4 PUSH2 0x3D1 JUMP JUMPDEST PUSH2 0x255 JUMP JUMPDEST PUSH2 0x13E PUSH2 0x2F8 JUMP JUMPDEST PUSH2 0x147 PUSH0 PUSH2 0x33D JUMP JUMPDEST JUMP JUMPDEST PUSH1 0x1 SLOAD PUSH1 0x40 MLOAD PUSH32 0x70A0823100000000000000000000000000000000000000000000000000000000 DUP2 MSTORE PUSH1 0x1 PUSH1 0x1 PUSH1 0xA0 SHL SUB DUP4 DUP2 AND PUSH1 0x4 DUP4 ADD MSTORE PUSH0 SWAP3 SWAP2 PUSH32 0x0 SWAP1 SWAP2 AND SWAP1 PUSH4 0x70A08231 SWAP1 PUSH1 0x24 ADD PUSH1 0x20 PUSH1 0x40 MLOAD DUP1 DUP4 SUB DUP2 DUP7 GAS STATICCALL ISZERO DUP1 ISZERO PUSH2 0x1CE JUMPI RETURNDATASIZE PUSH0 PUSH0 RETURNDATACOPY RETURNDATASIZE PUSH0 REVERT JUMPDEST POP POP POP POP PUSH1 0x40 MLOAD RETURNDATASIZE PUSH1 0x1F NOT PUSH1 0x1F DUP3 ADD AND DUP3 ADD DUP1 PUSH1 0x40 MSTORE POP DUP2 ADD SWAP1 PUSH2 0x1F2 SWAP2 SWAP1 PUSH2 0x3E8 JUMP JUMPDEST LT ISZERO SWAP3 SWAP2 POP POP JUMP JUMPDEST PUSH2 0x202 PUSH2 0x2F8 JUMP JUMPDEST PUSH1 0x1 PUSH1 0x1 PUSH1 0xA0 SHL SUB DUP2 AND PUSH2 0x249 JUMPI PUSH1 0x40 MLOAD PUSH32 0x1E4FBDF700000000000000000000000000000000000000000000000000000000 DUP2 MSTORE PUSH0 PUSH1 0x4 DUP3 ADD MSTORE PUSH1 0x24 ADD JUMPDEST PUSH1 0x40 MLOAD DUP1 SWAP2 SUB SWAP1 REVERT JUMPDEST PUSH2 0x252 DUP2 PUSH2 0x33D JUMP JUMPDEST POP JUMP JUMPDEST PUSH2 0x25D PUSH2 0x2F8 JUMP JUMPDEST PUSH32 0x0 PUSH1 0x1 PUSH1 0x1 PUSH1 0xA0 SHL SUB AND PUSH4 0x313CE567 PUSH1 0x40 MLOAD DUP2 PUSH4 0xFFFFFFFF AND PUSH1 0xE0 SHL DUP2 MSTORE PUSH1 0x4 ADD PUSH1 0x20 PUSH1 0x40 MLOAD DUP1 DUP4 SUB DUP2 DUP7 GAS STATICCALL ISZERO DUP1 ISZERO PUSH2 0x2B9 JUMPI RETURNDATASIZE PUSH0 PUSH0 RETURNDATACOPY RETURNDATASIZE PUSH0 REVERT JUMPDEST POP POP POP POP PUSH1 0x40 MLOAD RETURNDATASIZE PUSH1 0x1F NOT PUSH1 0x1F DUP3 ADD AND DUP3 ADD DUP1 PUSH1 0x40 MSTORE POP DUP2 ADD SWAP1 PUSH2 0x2DD SWAP2 SWAP1 PUSH2 0x3FF JUMP JUMPDEST PUSH2 0x2E8 SWAP1 PUSH1 0xA PUSH2 0x531 JUMP JUMPDEST PUSH2 0x2F2 SWAP1 DUP3 PUSH2 0x53F JUMP JUMPDEST PUSH1 0x1 SSTORE POP JUMP JUMPDEST PUSH0 SLOAD PUSH1 0x1 PUSH1 0x1 PUSH1 0xA0 SHL SUB AND CALLER EQ PUSH2 0x147 JUMPI PUSH1 0x40 MLOAD PUSH32 0x118CDAA700000000000000000000000000000000000000000000000000000000 DUP2 MSTORE CALLER PUSH1 0x4 DUP3 ADD MSTORE PUSH1 0x24 ADD PUSH2 0x240 JUMP JUMPDEST PUSH0 DUP1 SLOAD PUSH1 0x1 PUSH1 0x1 PUSH1 0xA0 SHL SUB DUP4 DUP2 AND PUSH32 0xFFFFFFFFFFFFFFFFFFFFFFFF0000000000000000000000000000000000000000 DUP4 AND DUP2 OR DUP5 SSTORE PUSH1 0x40 MLOAD SWAP2 SWAP1 SWAP3 AND SWAP3 DUP4 SWAP2 PUSH32 0x8BE0079C531659141344CD1FD0A4F28419497F9722A3DAAFE3B4186F6B6457E0 SWAP2 SWAP1 LOG3 POP POP JUMP JUMPDEST PUSH0 PUSH1 0x20 DUP3 DUP5 SUB SLT ISZERO PUSH2 0x3B4 JUMPI PUSH0 PUSH0 REVERT JUMPDEST DUP2 CALLDATALOAD PUSH1 0x1 PUSH1 0x1 PUSH1 0xA0 SHL SUB DUP2 AND DUP2 EQ PUSH2 0x3CA JUMPI PUSH0 PUSH0 REVERT JUMPDEST SWAP4 SWAP3 POP POP POP JUMP JUMPDEST PUSH0 PUSH1 0x20 DUP3 DUP5 SUB SLT ISZERO PUSH2 0x3E1 JUMPI PUSH0 PUSH0 REVERT JUMPDEST POP CALLDATALOAD SWAP2 SWAP1 POP JUMP JUMPDEST PUSH0 PUSH1 0x20 DUP3 DUP5 SUB SLT ISZERO PUSH2 0x3F8 JUMPI PUSH0 PUSH0 REVERT JUMPDEST POP MLOAD SWAP2 SWAP1 POP JUMP JUMPDEST PUSH0 PUSH1 0x20 DUP3 DUP5 SUB SLT ISZERO PUSH2 0x40F JUMPI PUSH0 PUSH0 REVERT JUMPDEST DUP2 MLOAD PUSH1 0xFF DUP2 AND DUP2 EQ PUSH2 0x3CA JUMPI PUSH0 PUSH0 REVERT JUMPDEST PUSH32 0x4E487B7100000000000000000000000000000000000000000000000000000000 PUSH0 MSTORE PUSH1 0x11 PUSH1 0x4 MSTORE PUSH1 0x24 PUSH0 REVERT JUMPDEST PUSH1 0x1 DUP2 JUMPDEST PUSH1 0x1 DUP5 GT ISZERO PUSH2 0x487 JUMPI DUP1 DUP6 DIV DUP2 GT ISZERO PUSH2 0x46B JUMPI PUSH2 0x46B PUSH2 0x41F JUMP JUMPDEST PUSH1 0x1 DUP5 AND ISZERO PUSH2 0x479 JUMPI SWAP1 DUP2 MUL SWAP1 JUMPDEST PUSH1 0x1 SWAP4 SWAP1 SWAP4 SHR SWAP3 DUP1 MUL PUSH2 0x450 JUMP JUMPDEST SWAP4 POP SWAP4 SWAP2 POP POP JUMP JUMPDEST PUSH0 DUP3 PUSH2 0x49D JUMPI POP PUSH1 0x1 PUSH2 0x52B JUMP JUMPDEST DUP2 PUSH2 0x4A9 JUMPI POP PUSH0 PUSH2 0x52B JUMP JUMPDEST DUP2 PUSH1 0x1 DUP2 EQ PUSH2 0x4BF JUMPI PUSH1 0x2 DUP2 EQ PUSH2 0x4C9 JUMPI PUSH2 0x4E5 JUMP JUMPDEST PUSH1 0x1 SWAP2 POP POP PUSH2 0x52B JUMP JUMPDEST PUSH1 0xFF DUP5 GT ISZERO PUSH2 0x4DA JUMPI PUSH2 0x4DA PUSH2 0x41F JUMP JUMPDEST POP POP PUSH1 0x1 DUP3 SHL PUSH2 0x52B JUMP JUMPDEST POP PUSH1 0x20 DUP4 LT PUSH2 0x133 DUP4 LT AND PUSH1 0x4E DUP5 LT PUSH1 0xB DUP5 LT AND OR ISZERO PUSH2 0x508 JUMPI POP DUP2 DUP2 EXP PUSH2 0x52B JUMP JUMPDEST PUSH2 0x514 PUSH0 NOT DUP5 DUP5 PUSH2 0x44C JUMP JUMPDEST DUP1 PUSH0 NOT DIV DUP3 GT ISZERO PUSH2 0x527 JUMPI PUSH2 0x527 PUSH2 0x41F JUMP JUMPDEST MUL SWAP1 POP JUMPDEST SWAP3 SWAP2 POP POP JUMP JUMPDEST PUSH0 PUSH2 0x3CA PUSH1 0xFF DUP5 AND DUP4 PUSH2 0x48F JUMP JUMPDEST DUP1 DUP3 MUL DUP2 ISZERO DUP3 DUP3 DIV DUP5 EQ OR PUSH2 0x52B JUMPI PUSH2 0x52B PUSH2 0x41F JUMP INVALID LOG2 PUSH5 0x6970667358 0x22 SLT KECCAK256 LT 0x4C 0xD8 0xD7 CHAINID EXTCODEHASH 0x4E CALLDATASIZE SWAP12 0x26 MSTORE 0xD4 PUSH18 0xE657F8530854AC779EF9D0D47C48ECB47753 0xB7 PUSH5 0x736F6C6343 STOP ADDMOD 0x1E STOP CALLER "
				},
				"gasEstimates": {
					"creation": {
						"codeDepositCost": "284000",
						"executionCost": "infinite",
						"totalCost": "infinite"
					},
					"external": {
						"CREDI()": "infinite",
						"isWhale(address)": "infinite",
						"owner()": "2363",
						"renounceOwnership()": "infinite",
						"setWhaleThreshold(uint256)": "infinite",
						"transferOwnership(address)": "28323",
						"whaleThreshold()": "2301"
					}
				},
				"methodIdentifiers": {
					"CREDI()": "6db08f25",
					"isWhale(address)": "8ef1e259",
					"owner()": "8da5cb5b",
					"renounceOwnership()": "715018a6",
					"setWhaleThreshold(uint256)": "ffdd60f9",
					"transferOwnership(address)": "f2fde38b",
					"whaleThreshold()": "9a3bfdf5"
				}
			},
			"storageLayout": {
				"storage": [
					{
						"astId": 8,
						"contract": "contracts/CREDIWhale.sol:CREDIWhale",
						"label": "_owner",
						"offset": 0,
						"slot": "0",
						"type": "t_address"
					},
					{
						"astId": 270,
						"contract": "contracts/CREDIWhale.sol:CREDIWhale",
						"label": "_whaleThreshold",
						"offset": 0,
						"slot": "1",
						"type": "t_uint256"
					}
				],
				"types": {
					"t_address": {
						"encoding": "inplace",
						"label": "address",
						"numberOfBytes": "20"
					},
					"t_uint256": {
						"encoding": "inplace",
						"label": "uint256",
						"numberOfBytes": "32"
					}
				}
			},
			"userdoc": {
				"kind": "user",
				"methods": {},
				"version": 1
			}
		}
	}
}