{
	"contracts/ModuleX_immutable.sol": {
		"ModuleX": {
			"abi": [
				{
					"inputs": [
						{
							"internalType": "address",
							"name": "_credi_addr",
							"type": "address"
						},
						{
							"internalType": "address",
							"name": "_xcredi_addr",
							"type": "address"
						},
						{
							"internalType": "uint256",
							"name": "_DIFFICULTY",
							"type": "uint256"
						},
						{
							"internalType": "uint256",
							"name": "_DIFFICULTY_INTERVAL",
							"type": "uint256"
						}
					],
					"stateMutability": "nonpayable",
					"type": "constructor"
				},
				{
					"inputs": [
						{
							"internalType": "address",
							"name": "owner",
							"type": "address"
						}
					],
					"name": "OwnableInvalidOwner",
					"type": "error"
				},
				{
					"inputs": [
						{
							"internalType": "address",
							"name": "account",
							"type": "address"
						}
					],
					"name": "OwnableUnauthorizedAccount",
					"type": "error"
				},
				{
					"inputs": [
						{
							"internalType": "address",
							"name": "token",
							"type": "address"
						}
					],
					"name": "SafeERC20FailedOperation",
					"type": "error"
				},
				{
					"anonymous": false,
					"inputs": [
						{
							"indexed": false,
							"internalType": "uint256",
							"name": "stake_id",
							"type": "uint256"
						},
						{
							"indexed": false,
							"internalType": "uint256",
							"name": "amount",
							"type": "uint256"
						}
					],
					"name": "CREDIWithdrawn",
					"type": "event"
				},
				{
					"anonymous": false,
					"inputs": [
						{
							"indexed": true,
							"internalType": "address",
							"name": "previousOwner",
							"type": "address"
						},
						{
							"indexed": true,
							"internalType": "address",
							"name": "newOwner",
							"type": "address"
						}
					],
					"name": "OwnershipTransferred",
					"type": "event"
				},
				{
					"anonymous": false,
					"inputs": [
						{
							"indexed": false,
							"internalType": "uint256",
							"name": "amount",
							"type": "uint256"
						}
					],
					"name": "RewardAdded",
					"type": "event"
				},
				{
					"anonymous": false,
					"inputs": [
						{
							"indexed": false,
							"internalType": "uint256",
							"name": "stake_id",
							"type": "uint256"
						}
					],
					"name": "RewardPaid",
					"type": "event"
				},
				{
					"anonymous": false,
					"inputs": [
						{
							"indexed": true,
							"internalType": "address",
							"name": "to",
							"type": "address"
						},
						{
							"indexed": false,
							"internalType": "uint256",
							"name": "amount",
							"type": "uint256"
						}
					],
					"name": "RewardWithdrawn",
					"type": "event"
				},
				{
					"anonymous": false,
					"inputs": [
						{
							"indexed": true,
							"internalType": "address",
							"name": "user",
							"type": "address"
						},
						{
							"indexed": false,
							"internalType": "uint256",
							"name": "stake_id",
							"type": "uint256"
						},
						{
							"indexed": false,
							"internalType": "uint96",
							"name": "maturity",
							"type": "uint96"
						},
						{
							"indexed": false,
							"internalType": "uint256",
							"name": "stake_amount",
							"type": "uint256"
						},
						{
							"indexed": false,
							"internalType": "uint256",
							"name": "rewards_amount",
							"type": "uint256"
						}
					],
					"name": "Staked",
					"type": "event"
				},
				{
					"anonymous": false,
					"inputs": [],
					"name": "Stopped",
					"type": "event"
				},
				{
					"inputs": [],
					"name": "CREDI",
					"outputs": [
						{
							"internalType": "contract IERC20",
							"name": "",
							"type": "address"
						}
					],
					"stateMutability": "view",
					"type": "function"
				},
				{
					"inputs": [],
					"name": "DIFFICULTY_INTERVAL",
					"outputs": [
						{
							"internalType": "uint256",
							"name": "",
							"type": "uint256"
						}
					],
					"stateMutability": "view",
					"type": "function"
				},
				{
					"inputs": [],
					"name": "MATURITY",
					"outputs": [
						{
							"internalType": "uint96",
							"name": "",
							"type": "uint96"
						}
					],
					"stateMutability": "view",
					"type": "function"
				},
				{
					"inputs": [
						{
							"internalType": "uint256",
							"name": "amount",
							"type": "uint256"
						}
					],
					"name": "addRewards",
					"outputs": [],
					"stateMutability": "nonpayable",
					"type": "function"
				},
				{
					"inputs": [
						{
							"internalType": "uint256[]",
							"name": "stake_ids",
							"type": "uint256[]"
						}
					],
					"name": "batchWithdrawCREDI",
					"outputs": [],
					"stateMutability": "nonpayable",
					"type": "function"
				},
				{
					"inputs": [
						{
							"internalType": "uint256",
							"name": "stake_amount",
							"type": "uint256"
						}
					],
					"name": "calculateReward",
					"outputs": [
						{
							"internalType": "uint256",
							"name": "",
							"type": "uint256"
						}
					],
					"stateMutability": "view",
					"type": "function"
				},
				{
					"inputs": [
						{
							"internalType": "uint256",
							"name": "stake_id",
							"type": "uint256"
						}
					],
					"name": "claim",
					"outputs": [
						{
							"internalType": "uint256",
							"name": "",
							"type": "uint256"
						}
					],
					"stateMutability": "nonpayable",
					"type": "function"
				},
				{
					"inputs": [],
					"name": "getCREDIAddress",
					"outputs": [
						{
							"internalType": "address",
							"name": "",
							"type": "address"
						}
					],
					"stateMutability": "view",
					"type": "function"
				},
				{
					"inputs": [],
					"name": "getDifficulty",
					"outputs": [
						{
							"internalType": "uint256",
							"name": "",
							"type": "uint256"
						}
					],
					"stateMutability": "view",
					"type": "function"
				},
				{
					"inputs": [
						{
							"internalType": "uint256",
							"name": "stake_id",
							"type": "uint256"
						}
					],
					"name": "getStake",
					"outputs": [
						{
							"internalType": "address",
							"name": "owner",
							"type": "address"
						},
						{
							"internalType": "uint256",
							"name": "maturity",
							"type": "uint256"
						},
						{
							"internalType": "uint256",
							"name": "stake_amount",
							"type": "uint256"
						},
						{
							"internalType": "uint256",
							"name": "reward_amount",
							"type": "uint256"
						}
					],
					"stateMutability": "view",
					"type": "function"
				},
				{
					"inputs": [],
					"name": "getStakesCount",
					"outputs": [
						{
							"internalType": "uint256",
							"name": "",
							"type": "uint256"
						}
					],
					"stateMutability": "view",
					"type": "function"
				},
				{
					"inputs": [],
					"name": "getxCREDIAddress",
					"outputs": [
						{
							"internalType": "address",
							"name": "",
							"type": "address"
						}
					],
					"stateMutability": "view",
					"type": "function"
				},
				{
					"inputs": [],
					"name": "owner",
					"outputs": [
						{
							"internalType": "address",
							"name": "",
							"type": "address"
						}
					],
					"stateMutability": "view",
					"type": "function"
				},
				{
					"inputs": [],
					"name": "pending_payments",
					"outputs": [
						{
							"internalType": "uint256",
							"name": "",
							"type": "uint256"
						}
					],
					"stateMutability": "view",
					"type": "function"
				},
				{
					"inputs": [],
					"name": "renounceOwnership",
					"outputs": [],
					"stateMutability": "nonpayable",
					"type": "function"
				},
				{
					"inputs": [
						{
							"internalType": "uint96",
							"name": "lock_period",
							"type": "uint96"
						},
						{
							"internalType": "uint256",
							"name": "stake_amount",
							"type": "uint256"
						}
					],
					"name": "stake",
					"outputs": [
						{
							"internalType": "uint256",
							"name": "",
							"type": "uint256"
						},
						{
							"internalType": "uint256",
							"name": "",
							"type": "uint256"
						}
					],
					"stateMutability": "nonpayable",
					"type": "function"
				},
				{
					"inputs": [],
					"name": "stop",
					"outputs": [],
					"stateMutability": "nonpayable",
					"type": "function"
				},
				{
					"inputs": [],
					"name": "stopped",
					"outputs": [
						{
							"internalType": "bool",
							"name": "",
							"type": "bool"
						}
					],
					"stateMutability": "view",
					"type": "function"
				},
				{
					"inputs": [],
					"name": "total_staked",
					"outputs": [
						{
							"internalType": "uint256",
							"name": "",
							"type": "uint256"
						}
					],
					"stateMutability": "view",
					"type": "function"
				},
				{
					"inputs": [
						{
							"internalType": "address",
							"name": "newOwner",
							"type": "address"
						}
					],
					"name": "transferOwnership",
					"outputs": [],
					"stateMutability": "nonpayable",
					"type": "function"
				},
				{
					"inputs": [
						{
							"internalType": "uint256",
							"name": "stake_id",
							"type": "uint256"
						},
						{
							"internalType": "uint256",
							"name": "amount",
							"type": "uint256"
						}
					],
					"name": "withdrawCREDI",
					"outputs": [],
					"stateMutability": "nonpayable",
					"type": "function"
				},
				{
					"inputs": [
						{
							"internalType": "address",
							"name": "to",
							"type": "address"
						},
						{
							"internalType": "uint256",
							"name": "amount",
							"type": "uint256"
						}
					],
					"name": "withdrawRewards",
					"outputs": [],
					"stateMutability": "nonpayable",
					"type": "function"
				},
				{
					"inputs": [],
					"name": "xCREDI",
					"outputs": [
						{
							"internalType": "contract IERC20",
							"name": "",
							"type": "address"
						}
					],
					"stateMutability": "view",
					"type": "function"
				}
			],
			"devdoc": {
				"errors": {
					"OwnableInvalidOwner(address)": [
						{
							"details": "The owner is not a valid owner account. (eg. `address(0)`)"
						}
					],
					"OwnableUnauthorizedAccount(address)": [
						{
							"details": "The caller account is not authorized to perform an operation."
						}
					],
					"SafeERC20FailedOperation(address)": [
						{
							"details": "An operation with an ERC-20 token failed."
						}
					]
				},
				"kind": "dev",
				"methods": {
					"owner()": {
						"details": "Returns the address of the current owner."
					},
					"renounceOwnership()": {
						"details": "Leaves the contract without owner. It will not be possible to call `onlyOwner` functions. Can only be called by the current owner. NOTE: Renouncing ownership will leave the contract without an owner, thereby disabling any functionality that is only available to the owner."
					},
					"transferOwnership(address)": {
						"details": "Transfers ownership of the contract to a new account (`newOwner`). Can only be called by the current owner."
					}
				},
				"version": 1
			},
			"evm": {
				"assembly": "    /* \"contracts/ModuleX_immutable.sol\":278:7234  contract ModuleX is IModuleX, Ownable ... */\n  mstore(0x40, 0x0100)\n    /* \"contracts/ModuleX_immutable.sol\":530:535  false */\n  0x00\n    /* \"contracts/ModuleX_immutable.sol\":508:535  bool public stopped = false */\n  dup1\n  sload\n  not(shl(0xa0, 0xff))\n  and\n  dup2\n  sstore\n  0x01\n    /* \"contracts/ModuleX_immutable.sol\":833:862  uint private stakes_count = 1 */\n  0x02\n  sstore\n    /* \"contracts/ModuleX_immutable.sol\":869:897  uint public total_staked = 0 */\n  0x03\n  dup2\n  swap1\n  sstore\n    /* \"contracts/ModuleX_immutable.sol\":904:936  uint public pending_payments = 0 */\n  0x04\n  sstore\n    /* \"contracts/ModuleX_immutable.sol\":1434:1736  constructor(address _credi_addr, address _xcredi_addr, uint _DIFFICULTY, uint _DIFFICULTY_INTERVAL) Ownable(_msgSender())... */\n  callvalue\n  dup1\n  iszero\n  tag_1\n  jumpi\n  revert(0x00, 0x00)\ntag_1:\n  pop\n  mload(0x40)\n  sub(codesize, bytecodeSize)\n  dup1\n  bytecodeSize\n  dup4\n  codecopy\n  dup2\n  add\n  0x40\n  dup2\n  swap1\n  mstore\n  tag_2\n  swap2\n  tag_3\n  jump\t// in\ntag_2:\n    /* \"@openzeppelin/contracts/utils/Context.sol\":735:745  msg.sender */\n  caller\n  dup1\n    /* \"@openzeppelin/contracts/access/Ownable.sol\":1269:1364  if (initialOwner == address(0)) {... */\n  tag_9\n  jumpi\n    /* \"@openzeppelin/contracts/access/Ownable.sol\":1322:1353  OwnableInvalidOwner(address(0)) */\n  mload(0x40)\n  shl(0xe0, 0x1e4fbdf7)\n  dup2\n  mstore\n    /* \"@openzeppelin/contracts/access/Ownable.sol\":1350:1351  0 */\n  0x00\n    /* \"@openzeppelin/contracts/access/Ownable.sol\":1322:1353  OwnableInvalidOwner(address(0)) */\n  0x04\n  dup3\n  add\n    /* \"#utility.yul\":861:912   */\n  mstore\n    /* \"#utility.yul\":834:852   */\n  0x24\n  add\n    /* \"@openzeppelin/contracts/access/Ownable.sol\":1322:1353  OwnableInvalidOwner(address(0)) */\n  mload(0x40)\n  dup1\n  swap2\n  sub\n  swap1\n  revert\n    /* \"@openzeppelin/contracts/access/Ownable.sol\":1269:1364  if (initialOwner == address(0)) {... */\ntag_9:\n    /* \"@openzeppelin/contracts/access/Ownable.sol\":1373:1405  _transferOwnership(initialOwner) */\n  tag_12\n    /* \"@openzeppelin/contracts/access/Ownable.sol\":1392:1404  initialOwner */\n  dup2\n    /* \"@openzeppelin/contracts/access/Ownable.sol\":1373:1391  _transferOwnership */\n  tag_13\n    /* \"@openzeppelin/contracts/access/Ownable.sol\":1373:1405  _transferOwnership(initialOwner) */\n  jump\t// in\ntag_12:\n  pop\n  sub(shl(0xa0, 0x01), 0x01)\n    /* \"contracts/ModuleX_immutable.sol\":1573:1600  CREDI = IERC20(_credi_addr) */\n  swap4\n  dup5\n  and\n  0xc0\n  mstore\n    /* \"contracts/ModuleX_immutable.sol\":1611:1640  xCREDI = IERC20(_xcredi_addr) */\n  swap2\n  swap1\n  swap3\n  and\n  0xe0\n  mstore\n    /* \"contracts/ModuleX_immutable.sol\":1651:1693  DIFFICULTY_INTERVAL = _DIFFICULTY_INTERVAL */\n  0xa0\n  mstore\n    /* \"contracts/ModuleX_immutable.sol\":1704:1728  DIFFICULTY = _DIFFICULTY */\n  0x80\n  mstore\n    /* \"contracts/ModuleX_immutable.sol\":278:7234  contract ModuleX is IModuleX, Ownable ... */\n  jump(tag_19)\n    /* \"@openzeppelin/contracts/access/Ownable.sol\":2912:3099  function _transferOwnership(address newOwner) internal virtual {... */\ntag_13:\n    /* \"@openzeppelin/contracts/access/Ownable.sol\":2985:3001  address oldOwner */\n  0x00\n    /* \"@openzeppelin/contracts/access/Ownable.sol\":3004:3010  _owner */\n  dup1\n  sload\n  sub(shl(0xa0, 0x01), 0x01)\n    /* \"@openzeppelin/contracts/access/Ownable.sol\":3020:3037  _owner = newOwner */\n  dup4\n  dup2\n  and\n  not(sub(shl(0xa0, 0x01), 0x01))\n  dup4\n  and\n  dup2\n  or\n  dup5\n  sstore\n    /* \"@openzeppelin/contracts/access/Ownable.sol\":3052:3092  OwnershipTransferred(oldOwner, newOwner) */\n  mload(0x40)\n    /* \"@openzeppelin/contracts/access/Ownable.sol\":3004:3010  _owner */\n  swap2\n  swap1\n  swap3\n  and\n  swap3\n  dup4\n  swap2\n    /* \"@openzeppelin/contracts/access/Ownable.sol\":3052:3092  OwnershipTransferred(oldOwner, newOwner) */\n  0x8be0079c531659141344cd1fd0a4f28419497f9722a3daafe3b4186f6b6457e0\n  swap2\n    /* \"@openzeppelin/contracts/access/Ownable.sol\":2985:3001  address oldOwner */\n  swap1\n    /* \"@openzeppelin/contracts/access/Ownable.sol\":3052:3092  OwnershipTransferred(oldOwner, newOwner) */\n  log3\n    /* \"@openzeppelin/contracts/access/Ownable.sol\":2975:3099  {... */\n  pop\n    /* \"@openzeppelin/contracts/access/Ownable.sol\":2912:3099  function _transferOwnership(address newOwner) internal virtual {... */\n  pop\n  jump\t// out\n    /* \"#utility.yul\":14:191   */\ntag_18:\n    /* \"#utility.yul\":93:106   */\n  dup1\n  mload\n  sub(shl(0xa0, 0x01), 0x01)\n    /* \"#utility.yul\":135:166   */\n  dup2\n  and\n    /* \"#utility.yul\":125:167   */\n  dup2\n  eq\n    /* \"#utility.yul\":115:185   */\n  tag_21\n  jumpi\n    /* \"#utility.yul\":181:182   */\n  0x00\n    /* \"#utility.yul\":178:179   */\n  0x00\n    /* \"#utility.yul\":171:183   */\n  revert\n    /* \"#utility.yul\":115:185   */\ntag_21:\n    /* \"#utility.yul\":14:191   */\n  swap2\n  swap1\n  pop\n  jump\t// out\n    /* \"#utility.yul\":196:710   */\ntag_3:\n    /* \"#utility.yul\":293:299   */\n  0x00\n    /* \"#utility.yul\":301:307   */\n  0x00\n    /* \"#utility.yul\":309:315   */\n  0x00\n    /* \"#utility.yul\":317:323   */\n  0x00\n    /* \"#utility.yul\":370:373   */\n  0x80\n    /* \"#utility.yul\":358:367   */\n  dup6\n    /* \"#utility.yul\":349:356   */\n  dup8\n    /* \"#utility.yul\":345:368   */\n  sub\n    /* \"#utility.yul\":341:374   */\n  slt\n    /* \"#utility.yul\":338:391   */\n  iszero\n  tag_23\n  jumpi\n    /* \"#utility.yul\":387:388   */\n  0x00\n    /* \"#utility.yul\":384:385   */\n  0x00\n    /* \"#utility.yul\":377:389   */\n  revert\n    /* \"#utility.yul\":338:391   */\ntag_23:\n    /* \"#utility.yul\":410:450   */\n  tag_24\n    /* \"#utility.yul\":440:449   */\n  dup6\n    /* \"#utility.yul\":410:450   */\n  tag_18\n  jump\t// in\ntag_24:\n    /* \"#utility.yul\":400:450   */\n  swap4\n  pop\n    /* \"#utility.yul\":469:518   */\n  tag_25\n    /* \"#utility.yul\":514:516   */\n  0x20\n    /* \"#utility.yul\":503:512   */\n  dup7\n    /* \"#utility.yul\":499:517   */\n  add\n    /* \"#utility.yul\":469:518   */\n  tag_18\n  jump\t// in\ntag_25:\n    /* \"#utility.yul\":580:582   */\n  0x40\n    /* \"#utility.yul\":565:583   */\n  dup7\n  add\n    /* \"#utility.yul\":559:584   */\n  mload\n    /* \"#utility.yul\":674:676   */\n  0x60\n    /* \"#utility.yul\":659:677   */\n  swap1\n  swap7\n  add\n    /* \"#utility.yul\":653:678   */\n  mload\n    /* \"#utility.yul\":196:710   */\n  swap5\n  swap8\n    /* \"#utility.yul\":459:518   */\n  swap1\n  swap7\n  pop\n    /* \"#utility.yul\":196:710   */\n  swap3\n  pop\n  pop\n  pop\n  jump\t// out\n    /* \"#utility.yul\":715:918   */\ntag_19:\n    /* \"contracts/ModuleX_immutable.sol\":278:7234  contract ModuleX is IModuleX, Ownable ... */\n  mload(0x80)\n  mload(0xa0)\n  mload(0xc0)\n  mload(0xe0)\n  codecopy(0x00, dataOffset(sub_0), dataSize(sub_0))\n  0x00\n  assignImmutable(\"0xad444e1082e5d5bbfca385a9a566a2d71dbd349bb06a97871f0be4657884f8e0\")\n  0x00\n  assignImmutable(\"0xdff167ddfa3189a3e9389ac75b945e17c7959b64870603a7f04a55d1519d28e2\")\n  0x00\n  assignImmutable(\"0x1953a27a405e8582cf1be8a2db4a8d6898082fbed25ec72fb4b95dbd76ab849b\")\n  0x00\n  assignImmutable(\"0xeb29b49011c9cf62c1f2455e9e4472fdc1b37c8f4e32969c812d39bb921154f4\")\n  return(0x00, dataSize(sub_0))\nstop\n\nsub_0: assembly {\n        /* \"contracts/ModuleX_immutable.sol\":278:7234  contract ModuleX is IModuleX, Ownable ... */\n      mstore(0x40, 0x80)\n      callvalue\n      dup1\n      iszero\n      tag_1\n      jumpi\n      revert(0x00, 0x00)\n    tag_1:\n      pop\n      jumpi(tag_2, lt(calldatasize, 0x04))\n      shr(0xe0, calldataload(0x00))\n      dup1\n      0xaf7568dd\n      gt\n      tag_26\n      jumpi\n      dup1\n      0xce325bf8\n      gt\n      tag_27\n      jumpi\n      dup1\n      0xd6ef7af0\n      gt\n      tag_28\n      jumpi\n      dup1\n      0xd6ef7af0\n      eq\n      tag_23\n      jumpi\n      dup1\n      0xd93c04a0\n      eq\n      tag_24\n      jumpi\n      dup1\n      0xf2fde38b\n      eq\n      tag_25\n      jumpi\n      revert(0x00, 0x00)\n    tag_28:\n      dup1\n      0xce325bf8\n      eq\n      tag_20\n      jumpi\n      dup1\n      0xd2d7231f\n      eq\n      tag_21\n      jumpi\n      dup1\n      0xd46149a2\n      eq\n      tag_22\n      jumpi\n      revert(0x00, 0x00)\n    tag_27:\n      dup1\n      0xb6baffe3\n      gt\n      tag_29\n      jumpi\n      dup1\n      0xb6baffe3\n      eq\n      tag_17\n      jumpi\n      dup1\n      0xbc854352\n      eq\n      tag_18\n      jumpi\n      dup1\n      0xbeceed39\n      eq\n      tag_19\n      jumpi\n      revert(0x00, 0x00)\n    tag_29:\n      dup1\n      0xaf7568dd\n      eq\n      tag_14\n      jumpi\n      dup1\n      0xb109beec\n      eq\n      tag_15\n      jumpi\n      dup1\n      0xb5fa91fe\n      eq\n      tag_16\n      jumpi\n      revert(0x00, 0x00)\n    tag_26:\n      dup1\n      0x75f12b21\n      gt\n      tag_30\n      jumpi\n      dup1\n      0x8e12c0cd\n      gt\n      tag_31\n      jumpi\n      dup1\n      0x8e12c0cd\n      eq\n      tag_11\n      jumpi\n      dup1\n      0x8f4729b7\n      eq\n      tag_12\n      jumpi\n      dup1\n      0xac00500f\n      eq\n      tag_13\n      jumpi\n      revert(0x00, 0x00)\n    tag_31:\n      dup1\n      0x75f12b21\n      eq\n      tag_8\n      jumpi\n      dup1\n      0x7c2fdeb5\n      eq\n      tag_9\n      jumpi\n      dup1\n      0x8da5cb5b\n      eq\n      tag_10\n      jumpi\n      revert(0x00, 0x00)\n    tag_30:\n      dup1\n      0x379607f5\n      gt\n      tag_32\n      jumpi\n      dup1\n      0x379607f5\n      eq\n      tag_5\n      jumpi\n      dup1\n      0x6db08f25\n      eq\n      tag_6\n      jumpi\n      dup1\n      0x715018a6\n      eq\n      tag_7\n      jumpi\n      revert(0x00, 0x00)\n    tag_32:\n      dup1\n      0x07da68f5\n      eq\n      tag_3\n      jumpi\n      dup1\n      0x109cf399\n      eq\n      tag_4\n      jumpi\n    tag_2:\n      revert(0x00, 0x00)\n        /* \"contracts/ModuleX_immutable.sol\":7131:7229  function stop() external onlyOwner... */\n    tag_3:\n      tag_33\n      tag_34\n      jump\t// in\n    tag_33:\n      stop\n        /* \"contracts/ModuleX_immutable.sol\":654:695  uint immutable public DIFFICULTY_INTERVAL */\n    tag_4:\n      tag_35\n      immutable(\"0x1953a27a405e8582cf1be8a2db4a8d6898082fbed25ec72fb4b95dbd76ab849b\")\n      dup2\n      jump\n    tag_35:\n      mload(0x40)\n        /* \"#utility.yul\":160:185   */\n      swap1\n      dup2\n      mstore\n        /* \"#utility.yul\":148:150   */\n      0x20\n        /* \"#utility.yul\":133:151   */\n      add\n        /* \"contracts/ModuleX_immutable.sol\":654:695  uint immutable public DIFFICULTY_INTERVAL */\n    tag_37:\n      mload(0x40)\n      dup1\n      swap2\n      sub\n      swap1\n      return\n        /* \"contracts/ModuleX_immutable.sol\":4636:5305  function claim(uint stake_id) external validate_stake(stake_id) returns(uint)... */\n    tag_5:\n      tag_35\n      tag_40\n      calldatasize\n      0x04\n      tag_41\n      jump\t// in\n    tag_40:\n      tag_42\n      jump\t// in\n        /* \"contracts/ModuleX_immutable.sol\":702:731  IERC20 immutable public CREDI */\n    tag_6:\n      tag_44\n      immutable(\"0xdff167ddfa3189a3e9389ac75b945e17c7959b64870603a7f04a55d1519d28e2\")\n      dup2\n      jump\n    tag_44:\n      mload(0x40)\n      sub(shl(0xa0, 0x01), 0x01)\n        /* \"#utility.yul\":605:660   */\n      swap1\n      swap2\n      and\n        /* \"#utility.yul\":587:661   */\n      dup2\n      mstore\n        /* \"#utility.yul\":575:577   */\n      0x20\n        /* \"#utility.yul\":560:578   */\n      add\n        /* \"contracts/ModuleX_immutable.sol\":702:731  IERC20 immutable public CREDI */\n      tag_37\n        /* \"#utility.yul\":427:667   */\n      jump\n        /* \"@openzeppelin/contracts/access/Ownable.sol\":2293:2394  function renounceOwnership() public virtual onlyOwner {... */\n    tag_7:\n      tag_33\n      tag_49\n      jump\t// in\n        /* \"contracts/ModuleX_immutable.sol\":508:535  bool public stopped = false */\n    tag_8:\n      sload(0x00)\n      tag_50\n      swap1\n      shl(0xa0, 0x01)\n      swap1\n      div\n      0xff\n      and\n      dup2\n      jump\n    tag_50:\n      mload(0x40)\n        /* \"#utility.yul\":837:851   */\n      swap1\n      iszero\n        /* \"#utility.yul\":830:852   */\n      iszero\n        /* \"#utility.yul\":812:853   */\n      dup2\n      mstore\n        /* \"#utility.yul\":800:802   */\n      0x20\n        /* \"#utility.yul\":785:803   */\n      add\n        /* \"contracts/ModuleX_immutable.sol\":508:535  bool public stopped = false */\n      tag_37\n        /* \"#utility.yul\":672:859   */\n      jump\n        /* \"contracts/ModuleX_immutable.sol\":1859:1964  function getxCREDIAddress() external view returns(address)... */\n    tag_9:\n        /* \"contracts/ModuleX_immutable.sol\":1949:1955  xCREDI */\n      immutable(\"0xad444e1082e5d5bbfca385a9a566a2d71dbd349bb06a97871f0be4657884f8e0\")\n        /* \"contracts/ModuleX_immutable.sol\":1859:1964  function getxCREDIAddress() external view returns(address)... */\n      jump(tag_44)\n        /* \"@openzeppelin/contracts/access/Ownable.sol\":1638:1723  function owner() public view virtual returns (address) {... */\n    tag_10:\n        /* \"@openzeppelin/contracts/access/Ownable.sol\":1684:1691  address */\n      0x00\n        /* \"@openzeppelin/contracts/access/Ownable.sol\":1710:1716  _owner */\n      sload\n      sub(shl(0xa0, 0x01), 0x01)\n      and\n        /* \"@openzeppelin/contracts/access/Ownable.sol\":1638:1723  function owner() public view virtual returns (address) {... */\n      jump(tag_44)\n        /* \"contracts/ModuleX_immutable.sol\":543:585  uint96 constant public MATURITY = 180 days */\n    tag_11:\n      tag_61\n        /* \"contracts/ModuleX_immutable.sol\":577:585  180 days */\n      0xed4e00\n        /* \"contracts/ModuleX_immutable.sol\":543:585  uint96 constant public MATURITY = 180 days */\n      dup2\n      jump\n    tag_61:\n      mload(0x40)\n      sub(shl(0x60, 0x01), 0x01)\n        /* \"#utility.yul\":1257:1296   */\n      swap1\n      swap2\n      and\n        /* \"#utility.yul\":1239:1297   */\n      dup2\n      mstore\n        /* \"#utility.yul\":1227:1229   */\n      0x20\n        /* \"#utility.yul\":1212:1230   */\n      add\n        /* \"contracts/ModuleX_immutable.sol\":543:585  uint96 constant public MATURITY = 180 days */\n      tag_37\n        /* \"#utility.yul\":1095:1303   */\n      jump\n        /* \"contracts/ModuleX_immutable.sol\":904:936  uint public pending_payments = 0 */\n    tag_12:\n      tag_35\n      sload(0x04)\n      dup2\n      jump\n        /* \"contracts/ModuleX_immutable.sol\":5313:5869  function withdrawCREDI(uint stake_id, uint amount) external onlyOwner validate_stake(stake_id)... */\n    tag_13:\n      tag_33\n      tag_69\n      calldatasize\n      0x04\n      tag_70\n      jump\t// in\n    tag_69:\n      tag_71\n      jump\t// in\n        /* \"contracts/ModuleX_immutable.sol\":869:897  uint public total_staked = 0 */\n    tag_14:\n      tag_35\n      sload(0x03)\n      dup2\n      jump\n        /* \"contracts/ModuleX_immutable.sol\":738:768  IERC20 immutable public xCREDI */\n    tag_15:\n      tag_44\n      immutable(\"0xad444e1082e5d5bbfca385a9a566a2d71dbd349bb06a97871f0be4657884f8e0\")\n      dup2\n      jump\n        /* \"contracts/ModuleX_immutable.sol\":1972:2073  function getStakesCount() external view returns(uint)... */\n    tag_16:\n      tag_35\n      tag_79\n      jump\t// in\n        /* \"contracts/ModuleX_immutable.sol\":3503:3632  function getDifficulty() external view returns(uint)... */\n    tag_17:\n      tag_35\n      tag_82\n      jump\t// in\n        /* \"contracts/ModuleX_immutable.sol\":5877:6589  function batchWithdrawCREDI(uint[] calldata stake_ids) external onlyOwner... */\n    tag_18:\n      tag_33\n      tag_85\n      calldatasize\n      0x04\n      tag_86\n      jump\t// in\n    tag_85:\n      tag_87\n      jump\t// in\n        /* \"contracts/ModuleX_immutable.sol\":6597:6835  function addRewards(uint amount) external ... */\n    tag_19:\n      tag_33\n      tag_89\n      calldatasize\n      0x04\n      tag_41\n      jump\t// in\n    tag_89:\n      tag_90\n      jump\t// in\n        /* \"contracts/ModuleX_immutable.sol\":2081:2476  function getStake(uint stake_id) external validate_stake(stake_id) view ... */\n    tag_20:\n      tag_91\n      tag_92\n      calldatasize\n      0x04\n      tag_41\n      jump\t// in\n    tag_92:\n      tag_93\n      jump\t// in\n    tag_91:\n      0x40\n      dup1\n      mload\n      sub(shl(0xa0, 0x01), 0x01)\n        /* \"#utility.yul\":2523:2578   */\n      swap1\n      swap6\n      and\n        /* \"#utility.yul\":2505:2579   */\n      dup6\n      mstore\n        /* \"#utility.yul\":2610:2612   */\n      0x20\n        /* \"#utility.yul\":2595:2613   */\n      dup6\n      add\n        /* \"#utility.yul\":2588:2622   */\n      swap4\n      swap1\n      swap4\n      mstore\n        /* \"#utility.yul\":2638:2656   */\n      swap2\n      dup4\n      add\n        /* \"#utility.yul\":2631:2665   */\n      mstore\n        /* \"#utility.yul\":2696:2698   */\n      0x60\n        /* \"#utility.yul\":2681:2699   */\n      dup3\n      add\n        /* \"#utility.yul\":2674:2708   */\n      mstore\n        /* \"#utility.yul\":2492:2495   */\n      0x80\n        /* \"#utility.yul\":2477:2496   */\n      add\n        /* \"contracts/ModuleX_immutable.sol\":2081:2476  function getStake(uint stake_id) external validate_stake(stake_id) view ... */\n      tag_37\n        /* \"#utility.yul\":2274:2714   */\n      jump\n        /* \"contracts/ModuleX_immutable.sol\":2595:3495  function calculateReward(uint stake_amount) public view returns(uint)... */\n    tag_21:\n      tag_35\n      tag_97\n      calldatasize\n      0x04\n      tag_41\n      jump\t// in\n    tag_97:\n      tag_98\n      jump\t// in\n        /* \"contracts/ModuleX_immutable.sol\":1748:1851  function getCREDIAddress() external view returns(address)... */\n    tag_22:\n        /* \"contracts/ModuleX_immutable.sol\":1837:1842  CREDI */\n      immutable(\"0xdff167ddfa3189a3e9389ac75b945e17c7959b64870603a7f04a55d1519d28e2\")\n        /* \"contracts/ModuleX_immutable.sol\":1748:1851  function getCREDIAddress() external view returns(address)... */\n      jump(tag_44)\n        /* \"contracts/ModuleX_immutable.sol\":6843:7123  function withdrawRewards(address to, uint amount) external onlyOwner... */\n    tag_23:\n      tag_33\n      tag_104\n      calldatasize\n      0x04\n      tag_105\n      jump\t// in\n    tag_104:\n      tag_106\n      jump\t// in\n        /* \"contracts/ModuleX_immutable.sol\":3640:4628  function stake(uint96 lock_period, uint stake_amount) external returns(uint, uint)... */\n    tag_24:\n      tag_107\n      tag_108\n      calldatasize\n      0x04\n      tag_109\n      jump\t// in\n    tag_108:\n      tag_110\n      jump\t// in\n    tag_107:\n      0x40\n      dup1\n      mload\n        /* \"#utility.yul\":3816:3841   */\n      swap3\n      dup4\n      mstore\n        /* \"#utility.yul\":3872:3874   */\n      0x20\n        /* \"#utility.yul\":3857:3875   */\n      dup4\n      add\n        /* \"#utility.yul\":3850:3884   */\n      swap2\n      swap1\n      swap2\n      mstore\n        /* \"#utility.yul\":3789:3807   */\n      add\n        /* \"contracts/ModuleX_immutable.sol\":3640:4628  function stake(uint96 lock_period, uint stake_amount) external returns(uint, uint)... */\n      tag_37\n        /* \"#utility.yul\":3642:3890   */\n      jump\n        /* \"@openzeppelin/contracts/access/Ownable.sol\":2543:2758  function transferOwnership(address newOwner) public virtual onlyOwner {... */\n    tag_25:\n      tag_33\n      tag_114\n      calldatasize\n      0x04\n      tag_115\n      jump\t// in\n    tag_114:\n      tag_116\n      jump\t// in\n        /* \"contracts/ModuleX_immutable.sol\":7131:7229  function stop() external onlyOwner... */\n    tag_34:\n        /* \"@openzeppelin/contracts/access/Ownable.sol\":1531:1544  _checkOwner() */\n      tag_118\n        /* \"@openzeppelin/contracts/access/Ownable.sol\":1531:1542  _checkOwner */\n      tag_119\n        /* \"@openzeppelin/contracts/access/Ownable.sol\":1531:1544  _checkOwner() */\n      jump\t// in\n    tag_118:\n        /* \"contracts/ModuleX_immutable.sol\":7182:7189  stopped */\n      0x00\n        /* \"contracts/ModuleX_immutable.sol\":7182:7196  stopped = true */\n      dup1\n      sload\n      0xffffffffffffffffffffff00ffffffffffffffffffffffffffffffffffffffff\n      and\n      shl(0xa0, 0x01)\n      or\n      dup2\n      sstore\n        /* \"contracts/ModuleX_immutable.sol\":7212:7221  Stopped() */\n      mload(0x40)\n      0x7acc84e34091ae817647a4c49116f5cc07f319078ba80f8f5fde37ea7e25cbd6\n      swap2\n        /* \"contracts/ModuleX_immutable.sol\":7182:7189  stopped */\n      swap1\n        /* \"contracts/ModuleX_immutable.sol\":7212:7221  Stopped() */\n      log1\n        /* \"contracts/ModuleX_immutable.sol\":7131:7229  function stop() external onlyOwner... */\n      jump\t// out\n        /* \"contracts/ModuleX_immutable.sol\":4636:5305  function claim(uint stake_id) external validate_stake(stake_id) returns(uint)... */\n    tag_42:\n        /* \"contracts/ModuleX_immutable.sol\":4708:4712  uint */\n      0x00\n        /* \"contracts/ModuleX_immutable.sol\":4690:4698  stake_id */\n      dup2\n        /* \"contracts/ModuleX_immutable.sol\":1348:1349  0 */\n      0x00\n        /* \"contracts/ModuleX_immutable.sol\":1337:1345  stake_id */\n      dup2\n        /* \"contracts/ModuleX_immutable.sol\":1337:1349  stake_id > 0 */\n      gt\n        /* \"contracts/ModuleX_immutable.sol\":1337:1376  stake_id > 0 && stake_id < stakes_count */\n      dup1\n      iszero\n      tag_122\n      jumpi\n      pop\n        /* \"contracts/ModuleX_immutable.sol\":1364:1376  stakes_count */\n      sload(0x02)\n        /* \"contracts/ModuleX_immutable.sol\":1353:1361  stake_id */\n      dup2\n        /* \"contracts/ModuleX_immutable.sol\":1353:1376  stake_id < stakes_count */\n      lt\n        /* \"contracts/ModuleX_immutable.sol\":1337:1376  stake_id > 0 && stake_id < stakes_count */\n    tag_122:\n        /* \"contracts/ModuleX_immutable.sol\":1329:1406  require(stake_id > 0 && stake_id < stakes_count, \"ModuleX:Invalid Stake ID!\") */\n      tag_123\n      jumpi\n      mload(0x40)\n      shl(0xe5, 0x461bcd)\n      dup2\n      mstore\n        /* \"#utility.yul\":4288:4290   */\n      0x20\n        /* \"contracts/ModuleX_immutable.sol\":1329:1406  require(stake_id > 0 && stake_id < stakes_count, \"ModuleX:Invalid Stake ID!\") */\n      0x04\n      dup3\n      add\n        /* \"#utility.yul\":4270:4291   */\n      mstore\n        /* \"#utility.yul\":4327:4329   */\n      0x19\n        /* \"#utility.yul\":4307:4325   */\n      0x24\n      dup3\n      add\n        /* \"#utility.yul\":4300:4330   */\n      mstore\n        /* \"#utility.yul\":4366:4393   */\n      0x4d6f64756c65583a496e76616c6964205374616b652049442100000000000000\n        /* \"#utility.yul\":4346:4364   */\n      0x44\n      dup3\n      add\n        /* \"#utility.yul\":4339:4394   */\n      mstore\n        /* \"#utility.yul\":4411:4429   */\n      0x64\n      add\n        /* \"contracts/ModuleX_immutable.sol\":1329:1406  require(stake_id > 0 && stake_id < stakes_count, \"ModuleX:Invalid Stake ID!\") */\n    tag_124:\n      mload(0x40)\n      dup1\n      swap2\n      sub\n      swap1\n      revert\n    tag_123:\n        /* \"contracts/ModuleX_immutable.sol\":4730:4758  StakeDetails storage details */\n      0x00\n        /* \"contracts/ModuleX_immutable.sol\":4761:4777  stakes[stake_id] */\n      dup4\n      dup2\n      mstore\n        /* \"contracts/ModuleX_immutable.sol\":4761:4767  stakes */\n      0x01\n        /* \"contracts/ModuleX_immutable.sol\":4761:4777  stakes[stake_id] */\n      0x20\n      mstore\n      0x40\n      swap1\n      keccak256\n        /* \"contracts/ModuleX_immutable.sol\":4796:4809  details.owner */\n      dup1\n      sload\n      sub(shl(0xa0, 0x01), 0x01)\n      and\n        /* \"@openzeppelin/contracts/utils/Context.sol\":735:745  msg.sender */\n      caller\n        /* \"contracts/ModuleX_immutable.sol\":4796:4825  details.owner == _msgSender() */\n      eq\n        /* \"contracts/ModuleX_immutable.sol\":4788:4861  require(details.owner == _msgSender(), \"ModuleX:Caller is not the owner\") */\n      tag_129\n      jumpi\n      mload(0x40)\n      shl(0xe5, 0x461bcd)\n      dup2\n      mstore\n        /* \"#utility.yul\":4642:4644   */\n      0x20\n        /* \"contracts/ModuleX_immutable.sol\":4788:4861  require(details.owner == _msgSender(), \"ModuleX:Caller is not the owner\") */\n      0x04\n      dup3\n      add\n        /* \"#utility.yul\":4624:4645   */\n      mstore\n        /* \"#utility.yul\":4681:4683   */\n      0x1f\n        /* \"#utility.yul\":4661:4679   */\n      0x24\n      dup3\n      add\n        /* \"#utility.yul\":4654:4684   */\n      mstore\n        /* \"#utility.yul\":4720:4753   */\n      0x4d6f64756c65583a43616c6c6572206973206e6f7420746865206f776e657200\n        /* \"#utility.yul\":4700:4718   */\n      0x44\n      dup3\n      add\n        /* \"#utility.yul\":4693:4754   */\n      mstore\n        /* \"#utility.yul\":4771:4789   */\n      0x64\n      add\n        /* \"contracts/ModuleX_immutable.sol\":4788:4861  require(details.owner == _msgSender(), \"ModuleX:Caller is not the owner\") */\n      tag_124\n        /* \"#utility.yul\":4440:4795   */\n      jump\n        /* \"contracts/ModuleX_immutable.sol\":4788:4861  require(details.owner == _msgSender(), \"ModuleX:Caller is not the owner\") */\n    tag_129:\n        /* \"contracts/ModuleX_immutable.sol\":4894:4910  details.maturity */\n      dup1\n      sload\n      shl(0xa0, 0x01)\n      swap1\n      div\n      sub(shl(0x60, 0x01), 0x01)\n      and\n        /* \"contracts/ModuleX_immutable.sol\":2563:2578  block.timestamp */\n      timestamp\n      sub(shl(0x60, 0x01), 0x01)\n        /* \"contracts/ModuleX_immutable.sol\":4880:4910  time_now() >= details.maturity */\n      and\n      lt\n      iszero\n        /* \"contracts/ModuleX_immutable.sol\":4872:4957  require(time_now() >= details.maturity, \"ModuleX:Early Withdrawal is not permitted!\") */\n      tag_134\n      jumpi\n      mload(0x40)\n      shl(0xe5, 0x461bcd)\n      dup2\n      mstore\n        /* \"#utility.yul\":5002:5004   */\n      0x20\n        /* \"contracts/ModuleX_immutable.sol\":4872:4957  require(time_now() >= details.maturity, \"ModuleX:Early Withdrawal is not permitted!\") */\n      0x04\n      dup3\n      add\n        /* \"#utility.yul\":4984:5005   */\n      mstore\n        /* \"#utility.yul\":5041:5043   */\n      0x2a\n        /* \"#utility.yul\":5021:5039   */\n      0x24\n      dup3\n      add\n        /* \"#utility.yul\":5014:5044   */\n      mstore\n        /* \"#utility.yul\":5080:5114   */\n      0x4d6f64756c65583a4561726c79205769746864726177616c206973206e6f7420\n        /* \"#utility.yul\":5060:5078   */\n      0x44\n      dup3\n      add\n        /* \"#utility.yul\":5053:5115   */\n      mstore\n        /* \"#utility.yul\":5151:5163   */\n      0x7065726d69747465642100000000000000000000000000000000000000000000\n        /* \"#utility.yul\":5131:5149   */\n      0x64\n      dup3\n      add\n        /* \"#utility.yul\":5124:5164   */\n      mstore\n        /* \"#utility.yul\":5181:5200   */\n      0x84\n      add\n        /* \"contracts/ModuleX_immutable.sol\":4872:4957  require(time_now() >= details.maturity, \"ModuleX:Early Withdrawal is not permitted!\") */\n      tag_124\n        /* \"#utility.yul\":4800:5206   */\n      jump\n        /* \"contracts/ModuleX_immutable.sol\":4872:4957  require(time_now() >= details.maturity, \"ModuleX:Early Withdrawal is not permitted!\") */\n    tag_134:\n        /* \"contracts/ModuleX_immutable.sol\":5001:5002  0 */\n      0x00\n        /* \"contracts/ModuleX_immutable.sol\":4977:4984  details */\n      dup2\n        /* \"contracts/ModuleX_immutable.sol\":4977:4998  details.reward_amount */\n      0x02\n      add\n      sload\n        /* \"contracts/ModuleX_immutable.sol\":4977:5002  details.reward_amount > 0 */\n      gt\n        /* \"contracts/ModuleX_immutable.sol\":4969:5031  require(details.reward_amount > 0, \"ModuleX:Nothing to claim\") */\n      tag_137\n      jumpi\n      mload(0x40)\n      shl(0xe5, 0x461bcd)\n      dup2\n      mstore\n        /* \"#utility.yul\":5413:5415   */\n      0x20\n        /* \"contracts/ModuleX_immutable.sol\":4969:5031  require(details.reward_amount > 0, \"ModuleX:Nothing to claim\") */\n      0x04\n      dup3\n      add\n        /* \"#utility.yul\":5395:5416   */\n      mstore\n        /* \"#utility.yul\":5452:5454   */\n      0x18\n        /* \"#utility.yul\":5432:5450   */\n      0x24\n      dup3\n      add\n        /* \"#utility.yul\":5425:5455   */\n      mstore\n        /* \"#utility.yul\":5491:5517   */\n      0x4d6f64756c65583a4e6f7468696e6720746f20636c61696d0000000000000000\n        /* \"#utility.yul\":5471:5489   */\n      0x44\n      dup3\n      add\n        /* \"#utility.yul\":5464:5518   */\n      mstore\n        /* \"#utility.yul\":5535:5553   */\n      0x64\n      add\n        /* \"contracts/ModuleX_immutable.sol\":4969:5031  require(details.reward_amount > 0, \"ModuleX:Nothing to claim\") */\n      tag_124\n        /* \"#utility.yul\":5211:5559   */\n      jump\n        /* \"contracts/ModuleX_immutable.sol\":4969:5031  require(details.reward_amount > 0, \"ModuleX:Nothing to claim\") */\n    tag_137:\n        /* \"contracts/ModuleX_immutable.sol\":5063:5084  details.reward_amount */\n      0x02\n      dup2\n      add\n      sload\n        /* \"contracts/ModuleX_immutable.sol\":5095:5143  xCREDI.safeTransfer(_msgSender(), reward_amount) */\n      tag_140\n        /* \"contracts/ModuleX_immutable.sol\":5095:5101  xCREDI */\n      immutable(\"0xad444e1082e5d5bbfca385a9a566a2d71dbd349bb06a97871f0be4657884f8e0\")\n      sub(shl(0xa0, 0x01), 0x01)\n        /* \"contracts/ModuleX_immutable.sol\":5095:5114  xCREDI.safeTransfer */\n      and\n        /* \"@openzeppelin/contracts/utils/Context.sol\":735:745  msg.sender */\n      caller\n        /* \"contracts/ModuleX_immutable.sol\":5063:5084  details.reward_amount */\n      dup4\n        /* \"contracts/ModuleX_immutable.sol\":5095:5114  xCREDI.safeTransfer */\n      tag_142\n        /* \"contracts/ModuleX_immutable.sol\":5095:5143  xCREDI.safeTransfer(_msgSender(), reward_amount) */\n      jump\t// in\n    tag_140:\n        /* \"contracts/ModuleX_immutable.sol\":5179:5192  reward_amount */\n      dup1\n        /* \"contracts/ModuleX_immutable.sol\":5159:5175  pending_payments */\n      0x04\n      0x00\n        /* \"contracts/ModuleX_immutable.sol\":5159:5192  pending_payments -= reward_amount */\n      dup3\n      dup3\n      sload\n      tag_143\n      swap2\n      swap1\n      tag_144\n      jump\t// in\n    tag_143:\n      swap1\n      swap2\n      sstore\n      pop\n      pop\n        /* \"contracts/ModuleX_immutable.sol\":5227:5228  0 */\n      0x00\n        /* \"contracts/ModuleX_immutable.sol\":5203:5224  details.reward_amount */\n      0x02\n      dup4\n      add\n        /* \"contracts/ModuleX_immutable.sol\":5203:5228  details.reward_amount = 0 */\n      sstore\n        /* \"contracts/ModuleX_immutable.sol\":5245:5265  RewardPaid(stake_id) */\n      mload(0x40)\n        /* \"#utility.yul\":160:185   */\n      dup6\n      dup2\n      mstore\n        /* \"contracts/ModuleX_immutable.sol\":5245:5265  RewardPaid(stake_id) */\n      0x67bb155fcabb99400c32b640dc7704c8f18aae4c817704c7267c5a8cd26dfc19\n      swap1\n        /* \"#utility.yul\":148:150   */\n      0x20\n        /* \"#utility.yul\":133:151   */\n      add\n        /* \"contracts/ModuleX_immutable.sol\":5245:5265  RewardPaid(stake_id) */\n      mload(0x40)\n      dup1\n      swap2\n      sub\n      swap1\n      log1\n        /* \"contracts/ModuleX_immutable.sol\":5284:5297  reward_amount */\n      swap5\n        /* \"contracts/ModuleX_immutable.sol\":4636:5305  function claim(uint stake_id) external validate_stake(stake_id) returns(uint)... */\n      swap4\n      pop\n      pop\n      pop\n      pop\n      jump\t// out\n        /* \"@openzeppelin/contracts/access/Ownable.sol\":2293:2394  function renounceOwnership() public virtual onlyOwner {... */\n    tag_49:\n        /* \"@openzeppelin/contracts/access/Ownable.sol\":1531:1544  _checkOwner() */\n      tag_147\n        /* \"@openzeppelin/contracts/access/Ownable.sol\":1531:1542  _checkOwner */\n      tag_119\n        /* \"@openzeppelin/contracts/access/Ownable.sol\":1531:1544  _checkOwner() */\n      jump\t// in\n    tag_147:\n        /* \"@openzeppelin/contracts/access/Ownable.sol\":2357:2387  _transferOwnership(address(0)) */\n      tag_149\n        /* \"@openzeppelin/contracts/access/Ownable.sol\":2384:2385  0 */\n      0x00\n        /* \"@openzeppelin/contracts/access/Ownable.sol\":2357:2375  _transferOwnership */\n      tag_150\n        /* \"@openzeppelin/contracts/access/Ownable.sol\":2357:2387  _transferOwnership(address(0)) */\n      jump\t// in\n    tag_149:\n        /* \"@openzeppelin/contracts/access/Ownable.sol\":2293:2394  function renounceOwnership() public virtual onlyOwner {... */\n      jump\t// out\n        /* \"contracts/ModuleX_immutable.sol\":5313:5869  function withdrawCREDI(uint stake_id, uint amount) external onlyOwner validate_stake(stake_id)... */\n    tag_71:\n        /* \"@openzeppelin/contracts/access/Ownable.sol\":1531:1544  _checkOwner() */\n      tag_154\n        /* \"@openzeppelin/contracts/access/Ownable.sol\":1531:1542  _checkOwner */\n      tag_119\n        /* \"@openzeppelin/contracts/access/Ownable.sol\":1531:1544  _checkOwner() */\n      jump\t// in\n    tag_154:\n        /* \"contracts/ModuleX_immutable.sol\":5398:5406  stake_id */\n      dup2\n        /* \"contracts/ModuleX_immutable.sol\":1348:1349  0 */\n      0x00\n        /* \"contracts/ModuleX_immutable.sol\":1337:1345  stake_id */\n      dup2\n        /* \"contracts/ModuleX_immutable.sol\":1337:1349  stake_id > 0 */\n      gt\n        /* \"contracts/ModuleX_immutable.sol\":1337:1376  stake_id > 0 && stake_id < stakes_count */\n      dup1\n      iszero\n      tag_156\n      jumpi\n      pop\n        /* \"contracts/ModuleX_immutable.sol\":1364:1376  stakes_count */\n      sload(0x02)\n        /* \"contracts/ModuleX_immutable.sol\":1353:1361  stake_id */\n      dup2\n        /* \"contracts/ModuleX_immutable.sol\":1353:1376  stake_id < stakes_count */\n      lt\n        /* \"contracts/ModuleX_immutable.sol\":1337:1376  stake_id > 0 && stake_id < stakes_count */\n    tag_156:\n        /* \"contracts/ModuleX_immutable.sol\":1329:1406  require(stake_id > 0 && stake_id < stakes_count, \"ModuleX:Invalid Stake ID!\") */\n      tag_157\n      jumpi\n      mload(0x40)\n      shl(0xe5, 0x461bcd)\n      dup2\n      mstore\n        /* \"#utility.yul\":4288:4290   */\n      0x20\n        /* \"contracts/ModuleX_immutable.sol\":1329:1406  require(stake_id > 0 && stake_id < stakes_count, \"ModuleX:Invalid Stake ID!\") */\n      0x04\n      dup3\n      add\n        /* \"#utility.yul\":4270:4291   */\n      mstore\n        /* \"#utility.yul\":4327:4329   */\n      0x19\n        /* \"#utility.yul\":4307:4325   */\n      0x24\n      dup3\n      add\n        /* \"#utility.yul\":4300:4330   */\n      mstore\n        /* \"#utility.yul\":4366:4393   */\n      0x4d6f64756c65583a496e76616c6964205374616b652049442100000000000000\n        /* \"#utility.yul\":4346:4364   */\n      0x44\n      dup3\n      add\n        /* \"#utility.yul\":4339:4394   */\n      mstore\n        /* \"#utility.yul\":4411:4429   */\n      0x64\n      add\n        /* \"contracts/ModuleX_immutable.sol\":1329:1406  require(stake_id > 0 && stake_id < stakes_count, \"ModuleX:Invalid Stake ID!\") */\n      tag_124\n        /* \"#utility.yul\":4086:4435   */\n      jump\n        /* \"contracts/ModuleX_immutable.sol\":1329:1406  require(stake_id > 0 && stake_id < stakes_count, \"ModuleX:Invalid Stake ID!\") */\n    tag_157:\n        /* \"contracts/ModuleX_immutable.sol\":5442:5443  0 */\n      0x00\n        /* \"contracts/ModuleX_immutable.sol\":5433:5439  amount */\n      dup3\n        /* \"contracts/ModuleX_immutable.sol\":5433:5443  amount > 0 */\n      gt\n        /* \"contracts/ModuleX_immutable.sol\":5424:5489  require (amount > 0, \"ModuleX:amount must be greater than zero!\") */\n      tag_160\n      jumpi\n      mload(0x40)\n      shl(0xe5, 0x461bcd)\n      dup2\n      mstore\n        /* \"#utility.yul\":6088:6090   */\n      0x20\n        /* \"contracts/ModuleX_immutable.sol\":5424:5489  require (amount > 0, \"ModuleX:amount must be greater than zero!\") */\n      0x04\n      dup3\n      add\n        /* \"#utility.yul\":6070:6091   */\n      mstore\n        /* \"#utility.yul\":6127:6129   */\n      0x29\n        /* \"#utility.yul\":6107:6125   */\n      0x24\n      dup3\n      add\n        /* \"#utility.yul\":6100:6130   */\n      mstore\n        /* \"#utility.yul\":6166:6200   */\n      0x4d6f64756c65583a616d6f756e74206d75737420626520677265617465722074\n        /* \"#utility.yul\":6146:6164   */\n      0x44\n      dup3\n      add\n        /* \"#utility.yul\":6139:6201   */\n      mstore\n      shl(0xb8, 0x68616e207a65726f21)\n        /* \"#utility.yul\":6217:6235   */\n      0x64\n      dup3\n      add\n        /* \"#utility.yul\":6210:6249   */\n      mstore\n        /* \"#utility.yul\":6266:6285   */\n      0x84\n      add\n        /* \"contracts/ModuleX_immutable.sol\":5424:5489  require (amount > 0, \"ModuleX:amount must be greater than zero!\") */\n      tag_124\n        /* \"#utility.yul\":5886:6291   */\n      jump\n        /* \"contracts/ModuleX_immutable.sol\":5424:5489  require (amount > 0, \"ModuleX:amount must be greater than zero!\") */\n    tag_160:\n        /* \"contracts/ModuleX_immutable.sol\":5500:5528  StakeDetails storage details */\n      0x00\n        /* \"contracts/ModuleX_immutable.sol\":5531:5547  stakes[stake_id] */\n      dup4\n      dup2\n      mstore\n        /* \"contracts/ModuleX_immutable.sol\":5531:5537  stakes */\n      0x01\n        /* \"contracts/ModuleX_immutable.sol\":5531:5547  stakes[stake_id] */\n      0x20\n      mstore\n      0x40\n      swap1\n      keccak256\n        /* \"contracts/ModuleX_immutable.sol\":5580:5596  details.maturity */\n      dup1\n      sload\n      shl(0xa0, 0x01)\n      swap1\n      div\n      sub(shl(0x60, 0x01), 0x01)\n      and\n        /* \"contracts/ModuleX_immutable.sol\":2563:2578  block.timestamp */\n      timestamp\n      sub(shl(0x60, 0x01), 0x01)\n        /* \"contracts/ModuleX_immutable.sol\":5566:5596  time_now() <= details.maturity */\n      and\n      gt\n      iszero\n        /* \"contracts/ModuleX_immutable.sol\":5558:5622  require(time_now() <= details.maturity, \"ModuleX:Burnt tokens!\") */\n      tag_164\n      jumpi\n      mload(0x40)\n      shl(0xe5, 0x461bcd)\n      dup2\n      mstore\n        /* \"#utility.yul\":6498:6500   */\n      0x20\n        /* \"contracts/ModuleX_immutable.sol\":5558:5622  require(time_now() <= details.maturity, \"ModuleX:Burnt tokens!\") */\n      0x04\n      dup3\n      add\n        /* \"#utility.yul\":6480:6501   */\n      mstore\n        /* \"#utility.yul\":6537:6539   */\n      0x15\n        /* \"#utility.yul\":6517:6535   */\n      0x24\n      dup3\n      add\n        /* \"#utility.yul\":6510:6540   */\n      mstore\n        /* \"#utility.yul\":6576:6599   */\n      0x4d6f64756c65583a4275726e7420746f6b656e73210000000000000000000000\n        /* \"#utility.yul\":6556:6574   */\n      0x44\n      dup3\n      add\n        /* \"#utility.yul\":6549:6600   */\n      mstore\n        /* \"#utility.yul\":6617:6635   */\n      0x64\n      add\n        /* \"contracts/ModuleX_immutable.sol\":5558:5622  require(time_now() <= details.maturity, \"ModuleX:Burnt tokens!\") */\n      tag_124\n        /* \"#utility.yul\":6296:6641   */\n      jump\n        /* \"contracts/ModuleX_immutable.sol\":5558:5622  require(time_now() <= details.maturity, \"ModuleX:Burnt tokens!\") */\n    tag_164:\n        /* \"contracts/ModuleX_immutable.sol\":5652:5659  details */\n      dup1\n        /* \"contracts/ModuleX_immutable.sol\":5652:5672  details.stake_amount */\n      0x01\n      add\n      sload\n        /* \"contracts/ModuleX_immutable.sol\":5642:5648  amount */\n      dup4\n        /* \"contracts/ModuleX_immutable.sol\":5642:5672  amount <= details.stake_amount */\n      gt\n      iszero\n        /* \"contracts/ModuleX_immutable.sol\":5634:5706  require(amount <= details.stake_amount, \"ModuleX:Insufficient balance!\") */\n      tag_167\n      jumpi\n      mload(0x40)\n      shl(0xe5, 0x461bcd)\n      dup2\n      mstore\n        /* \"#utility.yul\":6848:6850   */\n      0x20\n        /* \"contracts/ModuleX_immutable.sol\":5634:5706  require(amount <= details.stake_amount, \"ModuleX:Insufficient balance!\") */\n      0x04\n      dup3\n      add\n        /* \"#utility.yul\":6830:6851   */\n      mstore\n        /* \"#utility.yul\":6887:6889   */\n      0x1d\n        /* \"#utility.yul\":6867:6885   */\n      0x24\n      dup3\n      add\n        /* \"#utility.yul\":6860:6890   */\n      mstore\n        /* \"#utility.yul\":6926:6957   */\n      0x4d6f64756c65583a496e73756666696369656e742062616c616e636521000000\n        /* \"#utility.yul\":6906:6924   */\n      0x44\n      dup3\n      add\n        /* \"#utility.yul\":6899:6958   */\n      mstore\n        /* \"#utility.yul\":6975:6993   */\n      0x64\n      add\n        /* \"contracts/ModuleX_immutable.sol\":5634:5706  require(amount <= details.stake_amount, \"ModuleX:Insufficient balance!\") */\n      tag_124\n        /* \"#utility.yul\":6646:6999   */\n      jump\n        /* \"contracts/ModuleX_immutable.sol\":5634:5706  require(amount <= details.stake_amount, \"ModuleX:Insufficient balance!\") */\n    tag_167:\n        /* \"contracts/ModuleX_immutable.sol\":5718:5772  CREDI.safeTransfer(_msgSender(), details.stake_amount) */\n      tag_170\n        /* \"@openzeppelin/contracts/utils/Context.sol\":735:745  msg.sender */\n      caller\n        /* \"contracts/ModuleX_immutable.sol\":5751:5771  details.stake_amount */\n      0x01\n      dup4\n      add\n      sload\n      sub(shl(0xa0, 0x01), 0x01)\n        /* \"contracts/ModuleX_immutable.sol\":5718:5723  CREDI */\n      immutable(\"0xdff167ddfa3189a3e9389ac75b945e17c7959b64870603a7f04a55d1519d28e2\")\n        /* \"contracts/ModuleX_immutable.sol\":5718:5736  CREDI.safeTransfer */\n      and\n      swap2\n        /* \"contracts/ModuleX_immutable.sol\":5718:5772  CREDI.safeTransfer(_msgSender(), details.stake_amount) */\n      swap1\n        /* \"contracts/ModuleX_immutable.sol\":5718:5736  CREDI.safeTransfer */\n      tag_142\n        /* \"contracts/ModuleX_immutable.sol\":5718:5772  CREDI.safeTransfer(_msgSender(), details.stake_amount) */\n      jump\t// in\n    tag_170:\n        /* \"contracts/ModuleX_immutable.sol\":5807:5813  amount */\n      dup3\n        /* \"contracts/ModuleX_immutable.sol\":5783:5790  details */\n      dup2\n        /* \"contracts/ModuleX_immutable.sol\":5783:5803  details.stake_amount */\n      0x01\n      add\n      0x00\n        /* \"contracts/ModuleX_immutable.sol\":5783:5813  details.stake_amount -= amount */\n      dup3\n      dup3\n      sload\n      tag_172\n      swap2\n      swap1\n      tag_144\n      jump\t// in\n    tag_172:\n      swap1\n      swap2\n      sstore\n      pop\n      pop\n        /* \"contracts/ModuleX_immutable.sol\":5829:5861  CREDIWithdrawn(stake_id, amount) */\n      0x40\n      dup1\n      mload\n        /* \"#utility.yul\":3816:3841   */\n      dup6\n      dup2\n      mstore\n        /* \"#utility.yul\":3872:3874   */\n      0x20\n        /* \"#utility.yul\":3857:3875   */\n      dup2\n      add\n        /* \"#utility.yul\":3850:3884   */\n      dup6\n      swap1\n      mstore\n        /* \"contracts/ModuleX_immutable.sol\":5829:5861  CREDIWithdrawn(stake_id, amount) */\n      0x03a00e6132085cbc9ea18899cd135ef9cad5d305d58506e08e7b1a9b96199a9c\n      swap2\n        /* \"#utility.yul\":3789:3807   */\n      add\n        /* \"contracts/ModuleX_immutable.sol\":5829:5861  CREDIWithdrawn(stake_id, amount) */\n      mload(0x40)\n      dup1\n      swap2\n      sub\n      swap1\n      log1\n        /* \"contracts/ModuleX_immutable.sol\":5413:5869  {... */\n      pop\n        /* \"@openzeppelin/contracts/access/Ownable.sol\":1554:1555  _ */\n      pop\n        /* \"contracts/ModuleX_immutable.sol\":5313:5869  function withdrawCREDI(uint stake_id, uint amount) external onlyOwner validate_stake(stake_id)... */\n      pop\n      pop\n      jump\t// out\n        /* \"contracts/ModuleX_immutable.sol\":1972:2073  function getStakesCount() external view returns(uint)... */\n    tag_79:\n        /* \"contracts/ModuleX_immutable.sol\":2020:2024  uint */\n      0x00\n        /* \"contracts/ModuleX_immutable.sol\":2064:2065  1 */\n      0x01\n        /* \"contracts/ModuleX_immutable.sol\":2049:2061  stakes_count */\n      sload(0x02)\n        /* \"contracts/ModuleX_immutable.sol\":2049:2065  stakes_count - 1 */\n      tag_175\n      swap2\n      swap1\n      tag_144\n      jump\t// in\n    tag_175:\n        /* \"contracts/ModuleX_immutable.sol\":2042:2065  return stakes_count - 1 */\n      swap1\n      pop\n        /* \"contracts/ModuleX_immutable.sol\":1972:2073  function getStakesCount() external view returns(uint)... */\n      swap1\n      jump\t// out\n        /* \"contracts/ModuleX_immutable.sol\":3503:3632  function getDifficulty() external view returns(uint)... */\n    tag_82:\n        /* \"contracts/ModuleX_immutable.sol\":3550:3554  uint */\n      0x00\n        /* \"contracts/ModuleX_immutable.sol\":3614:3624  DIFFICULTY */\n      immutable(\"0xeb29b49011c9cf62c1f2455e9e4472fdc1b37c8f4e32969c812d39bb921154f4\")\n        /* \"contracts/ModuleX_immutable.sol\":3592:3611  DIFFICULTY_INTERVAL */\n      immutable(\"0x1953a27a405e8582cf1be8a2db4a8d6898082fbed25ec72fb4b95dbd76ab849b\")\n        /* \"contracts/ModuleX_immutable.sol\":3579:3591  total_staked */\n      sload(0x03)\n        /* \"contracts/ModuleX_immutable.sol\":3579:3611  total_staked/DIFFICULTY_INTERVAL */\n      tag_177\n      swap2\n      swap1\n      tag_178\n      jump\t// in\n    tag_177:\n        /* \"contracts/ModuleX_immutable.sol\":3579:3624  total_staked/DIFFICULTY_INTERVAL + DIFFICULTY */\n      tag_175\n      swap2\n      swap1\n      tag_180\n      jump\t// in\n        /* \"contracts/ModuleX_immutable.sol\":5877:6589  function batchWithdrawCREDI(uint[] calldata stake_ids) external onlyOwner... */\n    tag_87:\n        /* \"@openzeppelin/contracts/access/Ownable.sol\":1531:1544  _checkOwner() */\n      tag_182\n        /* \"@openzeppelin/contracts/access/Ownable.sol\":1531:1542  _checkOwner */\n      tag_119\n        /* \"@openzeppelin/contracts/access/Ownable.sol\":1531:1544  _checkOwner() */\n      jump\t// in\n    tag_182:\n        /* \"contracts/ModuleX_immutable.sol\":5967:5984  uint total_amount */\n      0x00\n      dup1\n        /* \"contracts/ModuleX_immutable.sol\":5999:6458  for(uint i = 0; i < stake_ids.length; i++)... */\n    tag_184:\n        /* \"contracts/ModuleX_immutable.sol\":6015:6035  i < stake_ids.length */\n      dup3\n      dup2\n      lt\n        /* \"contracts/ModuleX_immutable.sol\":5999:6458  for(uint i = 0; i < stake_ids.length; i++)... */\n      iszero\n      tag_185\n      jumpi\n        /* \"contracts/ModuleX_immutable.sol\":6089:6101  stakes_count */\n      sload(0x02)\n        /* \"contracts/ModuleX_immutable.sol\":6074:6083  stake_ids */\n      dup5\n      dup5\n        /* \"contracts/ModuleX_immutable.sol\":6084:6085  i */\n      dup4\n        /* \"contracts/ModuleX_immutable.sol\":6074:6086  stake_ids[i] */\n      dup2\n      dup2\n      lt\n      tag_188\n      jumpi\n      tag_188\n      tag_189\n      jump\t// in\n    tag_188:\n      swap1\n      pop\n      0x20\n      mul\n      add\n      calldataload\n        /* \"contracts/ModuleX_immutable.sol\":6074:6101  stake_ids[i] < stakes_count */\n      lt\n        /* \"contracts/ModuleX_immutable.sol\":6066:6131  require(stake_ids[i] < stakes_count, \"ModuleX:Invalid Stake ID!\") */\n      tag_190\n      jumpi\n      mload(0x40)\n      shl(0xe5, 0x461bcd)\n      dup2\n      mstore\n        /* \"#utility.yul\":4288:4290   */\n      0x20\n        /* \"contracts/ModuleX_immutable.sol\":6066:6131  require(stake_ids[i] < stakes_count, \"ModuleX:Invalid Stake ID!\") */\n      0x04\n      dup3\n      add\n        /* \"#utility.yul\":4270:4291   */\n      mstore\n        /* \"#utility.yul\":4327:4329   */\n      0x19\n        /* \"#utility.yul\":4307:4325   */\n      0x24\n      dup3\n      add\n        /* \"#utility.yul\":4300:4330   */\n      mstore\n        /* \"#utility.yul\":4366:4393   */\n      0x4d6f64756c65583a496e76616c6964205374616b652049442100000000000000\n        /* \"#utility.yul\":4346:4364   */\n      0x44\n      dup3\n      add\n        /* \"#utility.yul\":4339:4394   */\n      mstore\n        /* \"#utility.yul\":4411:4429   */\n      0x64\n      add\n        /* \"contracts/ModuleX_immutable.sol\":6066:6131  require(stake_ids[i] < stakes_count, \"ModuleX:Invalid Stake ID!\") */\n      tag_124\n        /* \"#utility.yul\":4086:4435   */\n      jump\n        /* \"contracts/ModuleX_immutable.sol\":6066:6131  require(stake_ids[i] < stakes_count, \"ModuleX:Invalid Stake ID!\") */\n    tag_190:\n        /* \"contracts/ModuleX_immutable.sol\":6146:6174  StakeDetails storage details */\n      0x00\n        /* \"contracts/ModuleX_immutable.sol\":6177:6183  stakes */\n      0x01\n        /* \"contracts/ModuleX_immutable.sol\":6177:6197  stakes[stake_ids[i]] */\n      0x00\n        /* \"contracts/ModuleX_immutable.sol\":6184:6193  stake_ids */\n      dup7\n      dup7\n        /* \"contracts/ModuleX_immutable.sol\":6194:6195  i */\n      dup6\n        /* \"contracts/ModuleX_immutable.sol\":6184:6196  stake_ids[i] */\n      dup2\n      dup2\n      lt\n      tag_193\n      jumpi\n      tag_193\n      tag_189\n      jump\t// in\n    tag_193:\n      0x20\n      swap1\n      dup2\n      mul\n      swap3\n      swap1\n      swap3\n      add\n      calldataload\n        /* \"contracts/ModuleX_immutable.sol\":6177:6197  stakes[stake_ids[i]] */\n      dup4\n      mstore\n      pop\n      dup2\n      add\n      swap2\n      swap1\n      swap2\n      mstore\n      0x40\n      add\n      0x00\n      keccak256\n        /* \"contracts/ModuleX_immutable.sol\":6234:6250  details.maturity */\n      dup1\n      sload\n        /* \"contracts/ModuleX_immutable.sol\":6177:6197  stakes[stake_ids[i]] */\n      swap1\n      swap2\n      pop\n      shl(0xa0, 0x01)\n        /* \"contracts/ModuleX_immutable.sol\":6234:6250  details.maturity */\n      swap1\n      div\n      sub(shl(0x60, 0x01), 0x01)\n      and\n        /* \"contracts/ModuleX_immutable.sol\":2563:2578  block.timestamp */\n      timestamp\n      sub(shl(0x60, 0x01), 0x01)\n        /* \"contracts/ModuleX_immutable.sol\":6220:6250  time_now() <= details.maturity */\n      and\n      gt\n      iszero\n        /* \"contracts/ModuleX_immutable.sol\":6212:6276  require(time_now() <= details.maturity, \"ModuleX:Burnt tokens!\") */\n      tag_195\n      jumpi\n      mload(0x40)\n      shl(0xe5, 0x461bcd)\n      dup2\n      mstore\n        /* \"#utility.yul\":6498:6500   */\n      0x20\n        /* \"contracts/ModuleX_immutable.sol\":6212:6276  require(time_now() <= details.maturity, \"ModuleX:Burnt tokens!\") */\n      0x04\n      dup3\n      add\n        /* \"#utility.yul\":6480:6501   */\n      mstore\n        /* \"#utility.yul\":6537:6539   */\n      0x15\n        /* \"#utility.yul\":6517:6535   */\n      0x24\n      dup3\n      add\n        /* \"#utility.yul\":6510:6540   */\n      mstore\n        /* \"#utility.yul\":6576:6599   */\n      0x4d6f64756c65583a4275726e7420746f6b656e73210000000000000000000000\n        /* \"#utility.yul\":6556:6574   */\n      0x44\n      dup3\n      add\n        /* \"#utility.yul\":6549:6600   */\n      mstore\n        /* \"#utility.yul\":6617:6635   */\n      0x64\n      add\n        /* \"contracts/ModuleX_immutable.sol\":6212:6276  require(time_now() <= details.maturity, \"ModuleX:Burnt tokens!\") */\n      tag_124\n        /* \"#utility.yul\":6296:6641   */\n      jump\n        /* \"contracts/ModuleX_immutable.sol\":6212:6276  require(time_now() <= details.maturity, \"ModuleX:Burnt tokens!\") */\n    tag_195:\n        /* \"contracts/ModuleX_immutable.sol\":6307:6327  details.stake_amount */\n      0x01\n      dup2\n      add\n      sload\n        /* \"contracts/ModuleX_immutable.sol\":6291:6327  total_amount += details.stake_amount */\n      tag_197\n      swap1\n      dup5\n      tag_180\n      jump\t// in\n    tag_197:\n        /* \"contracts/ModuleX_immutable.sol\":6365:6366  0 */\n      0x00\n        /* \"contracts/ModuleX_immutable.sol\":6342:6362  details.stake_amount */\n      0x01\n      dup4\n      add\n        /* \"contracts/ModuleX_immutable.sol\":6342:6366  details.stake_amount = 0 */\n      sstore\n        /* \"contracts/ModuleX_immutable.sol\":6291:6327  total_amount += details.stake_amount */\n      swap3\n      pop\n        /* \"contracts/ModuleX_immutable.sol\":6396:6446  CREDIWithdrawn(stake_ids[i], details.stake_amount) */\n      0x03a00e6132085cbc9ea18899cd135ef9cad5d305d58506e08e7b1a9b96199a9c\n        /* \"contracts/ModuleX_immutable.sol\":6411:6420  stake_ids */\n      dup6\n      dup6\n        /* \"contracts/ModuleX_immutable.sol\":6421:6422  i */\n      dup5\n        /* \"contracts/ModuleX_immutable.sol\":6411:6423  stake_ids[i] */\n      dup2\n      dup2\n      lt\n      tag_199\n      jumpi\n      tag_199\n      tag_189\n      jump\t// in\n    tag_199:\n      swap1\n      pop\n      0x20\n      mul\n      add\n      calldataload\n        /* \"contracts/ModuleX_immutable.sol\":6425:6432  details */\n      dup3\n        /* \"contracts/ModuleX_immutable.sol\":6425:6445  details.stake_amount */\n      0x01\n      add\n      sload\n        /* \"contracts/ModuleX_immutable.sol\":6396:6446  CREDIWithdrawn(stake_ids[i], details.stake_amount) */\n      mload(0x40)\n      tag_200\n      swap3\n      swap2\n      swap1\n        /* \"#utility.yul\":3816:3841   */\n      swap2\n      dup3\n      mstore\n        /* \"#utility.yul\":3872:3874   */\n      0x20\n        /* \"#utility.yul\":3857:3875   */\n      dup3\n      add\n        /* \"#utility.yul\":3850:3884   */\n      mstore\n        /* \"#utility.yul\":3804:3806   */\n      0x40\n        /* \"#utility.yul\":3789:3807   */\n      add\n      swap1\n        /* \"#utility.yul\":3642:3890   */\n      jump\n        /* \"contracts/ModuleX_immutable.sol\":6396:6446  CREDIWithdrawn(stake_ids[i], details.stake_amount) */\n    tag_200:\n      mload(0x40)\n      dup1\n      swap2\n      sub\n      swap1\n      log1\n      pop\n        /* \"contracts/ModuleX_immutable.sol\":6037:6040  i++ */\n      0x01\n      add\n        /* \"contracts/ModuleX_immutable.sol\":5999:6458  for(uint i = 0; i < stake_ids.length; i++)... */\n      jump(tag_184)\n    tag_185:\n      pop\n        /* \"contracts/ModuleX_immutable.sol\":6491:6492  0 */\n      0x00\n        /* \"contracts/ModuleX_immutable.sol\":6476:6488  total_amount */\n      dup2\n        /* \"contracts/ModuleX_immutable.sol\":6476:6492  total_amount > 0 */\n      gt\n        /* \"contracts/ModuleX_immutable.sol\":6468:6523  require(total_amount > 0, \"ModuleX:Total amount is 0!\") */\n      tag_201\n      jumpi\n      mload(0x40)\n      shl(0xe5, 0x461bcd)\n      dup2\n      mstore\n        /* \"#utility.yul\":7804:7806   */\n      0x20\n        /* \"contracts/ModuleX_immutable.sol\":6468:6523  require(total_amount > 0, \"ModuleX:Total amount is 0!\") */\n      0x04\n      dup3\n      add\n        /* \"#utility.yul\":7786:7807   */\n      mstore\n        /* \"#utility.yul\":7843:7845   */\n      0x1a\n        /* \"#utility.yul\":7823:7841   */\n      0x24\n      dup3\n      add\n        /* \"#utility.yul\":7816:7846   */\n      mstore\n        /* \"#utility.yul\":7882:7910   */\n      0x4d6f64756c65583a546f74616c20616d6f756e74206973203021000000000000\n        /* \"#utility.yul\":7862:7880   */\n      0x44\n      dup3\n      add\n        /* \"#utility.yul\":7855:7911   */\n      mstore\n        /* \"#utility.yul\":7928:7946   */\n      0x64\n      add\n        /* \"contracts/ModuleX_immutable.sol\":6468:6523  require(total_amount > 0, \"ModuleX:Total amount is 0!\") */\n      tag_124\n        /* \"#utility.yul\":7602:7952   */\n      jump\n        /* \"contracts/ModuleX_immutable.sol\":6468:6523  require(total_amount > 0, \"ModuleX:Total amount is 0!\") */\n    tag_201:\n        /* \"contracts/ModuleX_immutable.sol\":6535:6581  CREDI.safeTransfer(_msgSender(), total_amount) */\n      tag_204\n        /* \"contracts/ModuleX_immutable.sol\":6535:6540  CREDI */\n      immutable(\"0xdff167ddfa3189a3e9389ac75b945e17c7959b64870603a7f04a55d1519d28e2\")\n      sub(shl(0xa0, 0x01), 0x01)\n        /* \"contracts/ModuleX_immutable.sol\":6535:6553  CREDI.safeTransfer */\n      and\n        /* \"@openzeppelin/contracts/utils/Context.sol\":735:745  msg.sender */\n      caller\n        /* \"contracts/ModuleX_immutable.sol\":6568:6580  total_amount */\n      dup4\n        /* \"contracts/ModuleX_immutable.sol\":6535:6553  CREDI.safeTransfer */\n      tag_142\n        /* \"contracts/ModuleX_immutable.sol\":6535:6581  CREDI.safeTransfer(_msgSender(), total_amount) */\n      jump\t// in\n    tag_204:\n        /* \"contracts/ModuleX_immutable.sol\":5956:6589  {... */\n      pop\n        /* \"contracts/ModuleX_immutable.sol\":5877:6589  function batchWithdrawCREDI(uint[] calldata stake_ids) external onlyOwner... */\n      pop\n      pop\n      jump\t// out\n        /* \"contracts/ModuleX_immutable.sol\":6597:6835  function addRewards(uint amount) external ... */\n    tag_90:\n        /* \"contracts/ModuleX_immutable.sol\":6674:6675  0 */\n      0x00\n        /* \"contracts/ModuleX_immutable.sol\":6665:6671  amount */\n      dup2\n        /* \"contracts/ModuleX_immutable.sol\":6665:6675  amount > 0 */\n      gt\n        /* \"contracts/ModuleX_immutable.sol\":6656:6721  require (amount > 0, \"ModuleX:amount must be greater than zero!\") */\n      tag_207\n      jumpi\n      mload(0x40)\n      shl(0xe5, 0x461bcd)\n      dup2\n      mstore\n        /* \"#utility.yul\":6088:6090   */\n      0x20\n        /* \"contracts/ModuleX_immutable.sol\":6656:6721  require (amount > 0, \"ModuleX:amount must be greater than zero!\") */\n      0x04\n      dup3\n      add\n        /* \"#utility.yul\":6070:6091   */\n      mstore\n        /* \"#utility.yul\":6127:6129   */\n      0x29\n        /* \"#utility.yul\":6107:6125   */\n      0x24\n      dup3\n      add\n        /* \"#utility.yul\":6100:6130   */\n      mstore\n        /* \"#utility.yul\":6166:6200   */\n      0x4d6f64756c65583a616d6f756e74206d75737420626520677265617465722074\n        /* \"#utility.yul\":6146:6164   */\n      0x44\n      dup3\n      add\n        /* \"#utility.yul\":6139:6201   */\n      mstore\n      shl(0xb8, 0x68616e207a65726f21)\n        /* \"#utility.yul\":6217:6235   */\n      0x64\n      dup3\n      add\n        /* \"#utility.yul\":6210:6249   */\n      mstore\n        /* \"#utility.yul\":6266:6285   */\n      0x84\n      add\n        /* \"contracts/ModuleX_immutable.sol\":6656:6721  require (amount > 0, \"ModuleX:amount must be greater than zero!\") */\n      tag_124\n        /* \"#utility.yul\":5886:6291   */\n      jump\n        /* \"contracts/ModuleX_immutable.sol\":6656:6721  require (amount > 0, \"ModuleX:amount must be greater than zero!\") */\n    tag_207:\n        /* \"contracts/ModuleX_immutable.sol\":6732:6792  xCREDI.safeTransferFrom(_msgSender(), address(this), amount) */\n      tag_209\n        /* \"contracts/ModuleX_immutable.sol\":6732:6738  xCREDI */\n      immutable(\"0xad444e1082e5d5bbfca385a9a566a2d71dbd349bb06a97871f0be4657884f8e0\")\n      sub(shl(0xa0, 0x01), 0x01)\n        /* \"contracts/ModuleX_immutable.sol\":6732:6755  xCREDI.safeTransferFrom */\n      and\n        /* \"@openzeppelin/contracts/utils/Context.sol\":735:745  msg.sender */\n      caller\n        /* \"contracts/ModuleX_immutable.sol\":6778:6782  this */\n      address\n        /* \"contracts/ModuleX_immutable.sol\":6785:6791  amount */\n      dup5\n        /* \"contracts/ModuleX_immutable.sol\":6732:6755  xCREDI.safeTransferFrom */\n      tag_211\n        /* \"contracts/ModuleX_immutable.sol\":6732:6792  xCREDI.safeTransferFrom(_msgSender(), address(this), amount) */\n      jump\t// in\n    tag_209:\n        /* \"contracts/ModuleX_immutable.sol\":6808:6827  RewardAdded(amount) */\n      mload(0x40)\n        /* \"#utility.yul\":160:185   */\n      dup2\n      dup2\n      mstore\n        /* \"contracts/ModuleX_immutable.sol\":6808:6827  RewardAdded(amount) */\n      0xde88a922e0d3b88b24e9623efeb464919c6bf9f66857a65e2bfcf2ce87a9433d\n      swap1\n        /* \"#utility.yul\":148:150   */\n      0x20\n        /* \"#utility.yul\":133:151   */\n      add\n        /* \"contracts/ModuleX_immutable.sol\":6808:6827  RewardAdded(amount) */\n      mload(0x40)\n      dup1\n      swap2\n      sub\n      swap1\n      log1\n        /* \"contracts/ModuleX_immutable.sol\":6597:6835  function addRewards(uint amount) external ... */\n      pop\n      jump\t// out\n        /* \"contracts/ModuleX_immutable.sol\":2081:2476  function getStake(uint stake_id) external validate_stake(stake_id) view ... */\n    tag_93:\n        /* \"contracts/ModuleX_immutable.sol\":2182:2195  address owner */\n      0x00\n        /* \"contracts/ModuleX_immutable.sol\":2206:2219  uint maturity */\n      0x00\n        /* \"contracts/ModuleX_immutable.sol\":2230:2247  uint stake_amount */\n      0x00\n        /* \"contracts/ModuleX_immutable.sol\":2258:2276  uint reward_amount */\n      0x00\n        /* \"contracts/ModuleX_immutable.sol\":2138:2146  stake_id */\n      dup5\n        /* \"contracts/ModuleX_immutable.sol\":1348:1349  0 */\n      0x00\n        /* \"contracts/ModuleX_immutable.sol\":1337:1345  stake_id */\n      dup2\n        /* \"contracts/ModuleX_immutable.sol\":1337:1349  stake_id > 0 */\n      gt\n        /* \"contracts/ModuleX_immutable.sol\":1337:1376  stake_id > 0 && stake_id < stakes_count */\n      dup1\n      iszero\n      tag_214\n      jumpi\n      pop\n        /* \"contracts/ModuleX_immutable.sol\":1364:1376  stakes_count */\n      sload(0x02)\n        /* \"contracts/ModuleX_immutable.sol\":1353:1361  stake_id */\n      dup2\n        /* \"contracts/ModuleX_immutable.sol\":1353:1376  stake_id < stakes_count */\n      lt\n        /* \"contracts/ModuleX_immutable.sol\":1337:1376  stake_id > 0 && stake_id < stakes_count */\n    tag_214:\n        /* \"contracts/ModuleX_immutable.sol\":1329:1406  require(stake_id > 0 && stake_id < stakes_count, \"ModuleX:Invalid Stake ID!\") */\n      tag_215\n      jumpi\n      mload(0x40)\n      shl(0xe5, 0x461bcd)\n      dup2\n      mstore\n        /* \"#utility.yul\":4288:4290   */\n      0x20\n        /* \"contracts/ModuleX_immutable.sol\":1329:1406  require(stake_id > 0 && stake_id < stakes_count, \"ModuleX:Invalid Stake ID!\") */\n      0x04\n      dup3\n      add\n        /* \"#utility.yul\":4270:4291   */\n      mstore\n        /* \"#utility.yul\":4327:4329   */\n      0x19\n        /* \"#utility.yul\":4307:4325   */\n      0x24\n      dup3\n      add\n        /* \"#utility.yul\":4300:4330   */\n      mstore\n        /* \"#utility.yul\":4366:4393   */\n      0x4d6f64756c65583a496e76616c6964205374616b652049442100000000000000\n        /* \"#utility.yul\":4346:4364   */\n      0x44\n      dup3\n      add\n        /* \"#utility.yul\":4339:4394   */\n      mstore\n        /* \"#utility.yul\":4411:4429   */\n      0x64\n      add\n        /* \"contracts/ModuleX_immutable.sol\":1329:1406  require(stake_id > 0 && stake_id < stakes_count, \"ModuleX:Invalid Stake ID!\") */\n      tag_124\n        /* \"#utility.yul\":4086:4435   */\n      jump\n        /* \"contracts/ModuleX_immutable.sol\":1329:1406  require(stake_id > 0 && stake_id < stakes_count, \"ModuleX:Invalid Stake ID!\") */\n    tag_215:\n      pop\n      pop\n      pop\n        /* \"contracts/ModuleX_immutable.sol\":2316:2332  stakes[stake_id] */\n      0x00\n      swap3\n      dup4\n      mstore\n      pop\n      pop\n        /* \"contracts/ModuleX_immutable.sol\":2316:2322  stakes */\n      0x01\n        /* \"contracts/ModuleX_immutable.sol\":2316:2332  stakes[stake_id] */\n      0x20\n      dup2\n      swap1\n      mstore\n      0x40\n      swap1\n      swap2\n      keccak256\n        /* \"contracts/ModuleX_immutable.sol\":2316:2338  stakes[stake_id].owner */\n      dup1\n      sload\n        /* \"contracts/ModuleX_immutable.sol\":2393:2422  stakes[stake_id].stake_amount */\n      swap2\n      dup2\n      add\n      sload\n        /* \"contracts/ModuleX_immutable.sol\":2437:2467  stakes[stake_id].reward_amount */\n      0x02\n      swap1\n      swap2\n      add\n      sload\n      sub(shl(0xa0, 0x01), 0x01)\n        /* \"contracts/ModuleX_immutable.sol\":2316:2338  stakes[stake_id].owner */\n      dup4\n      and\n      swap4\n      shl(0xa0, 0x01)\n        /* \"contracts/ModuleX_immutable.sol\":2353:2378  stakes[stake_id].maturity */\n      swap1\n      swap4\n      div\n      sub(shl(0x60, 0x01), 0x01)\n      and\n      swap3\n        /* \"contracts/ModuleX_immutable.sol\":2081:2476  function getStake(uint stake_id) external validate_stake(stake_id) view ... */\n      jump\t// out\n        /* \"contracts/ModuleX_immutable.sol\":2595:3495  function calculateReward(uint stake_amount) public view returns(uint)... */\n    tag_98:\n        /* \"contracts/ModuleX_immutable.sol\":2659:2663  uint */\n      0x00\n        /* \"contracts/ModuleX_immutable.sol\":2682:2699  uint SCALE_FACTOR */\n      0x00\n        /* \"contracts/ModuleX_immutable.sol\":2702:2706  1e18 */\n      0x0de0b6b3a7640000\n        /* \"contracts/ModuleX_immutable.sol\":2682:2706  uint SCALE_FACTOR = 1e18 */\n      swap1\n      pop\n        /* \"contracts/ModuleX_immutable.sol\":2717:2732  uint curr_total */\n      0x00\n        /* \"contracts/ModuleX_immutable.sol\":2750:2762  stake_amount */\n      dup4\n        /* \"contracts/ModuleX_immutable.sol\":2735:2747  total_staked */\n      sload(0x03)\n        /* \"contracts/ModuleX_immutable.sol\":2735:2762  total_staked + stake_amount */\n      tag_219\n      swap2\n      swap1\n      tag_180\n      jump\t// in\n    tag_219:\n        /* \"contracts/ModuleX_immutable.sol\":2717:2762  uint curr_total = total_staked + stake_amount */\n      swap1\n      pop\n        /* \"contracts/ModuleX_immutable.sol\":2773:2783  uint low_d */\n      0x00\n        /* \"contracts/ModuleX_immutable.sol\":2799:2818  DIFFICULTY_INTERVAL */\n      immutable(\"0x1953a27a405e8582cf1be8a2db4a8d6898082fbed25ec72fb4b95dbd76ab849b\")\n        /* \"contracts/ModuleX_immutable.sol\":2786:2798  total_staked */\n      sload(0x03)\n        /* \"contracts/ModuleX_immutable.sol\":2786:2818  total_staked/DIFFICULTY_INTERVAL */\n      tag_220\n      swap2\n      swap1\n      tag_178\n      jump\t// in\n    tag_220:\n        /* \"contracts/ModuleX_immutable.sol\":2773:2818  uint low_d = total_staked/DIFFICULTY_INTERVAL */\n      swap1\n      pop\n        /* \"contracts/ModuleX_immutable.sol\":2829:2840  uint high_d */\n      0x00\n        /* \"contracts/ModuleX_immutable.sol\":2843:2873  curr_total/DIFFICULTY_INTERVAL */\n      tag_221\n        /* \"contracts/ModuleX_immutable.sol\":2854:2873  DIFFICULTY_INTERVAL */\n      immutable(\"0x1953a27a405e8582cf1be8a2db4a8d6898082fbed25ec72fb4b95dbd76ab849b\")\n        /* \"contracts/ModuleX_immutable.sol\":2843:2853  curr_total */\n      dup5\n        /* \"contracts/ModuleX_immutable.sol\":2843:2873  curr_total/DIFFICULTY_INTERVAL */\n      tag_178\n      jump\t// in\n    tag_221:\n        /* \"contracts/ModuleX_immutable.sol\":2829:2873  uint high_d = curr_total/DIFFICULTY_INTERVAL */\n      swap1\n      pop\n        /* \"contracts/ModuleX_immutable.sol\":2896:2902  high_d */\n      dup1\n        /* \"contracts/ModuleX_immutable.sol\":2887:2892  low_d */\n      dup3\n        /* \"contracts/ModuleX_immutable.sol\":2887:2902  low_d == high_d */\n      sub\n        /* \"contracts/ModuleX_immutable.sol\":2884:3488  if(low_d == high_d)... */\n      tag_222\n      jumpi\n        /* \"contracts/ModuleX_immutable.sol\":2949:2967  low_d + DIFFICULTY */\n      tag_223\n        /* \"contracts/ModuleX_immutable.sol\":2957:2967  DIFFICULTY */\n      immutable(\"0xeb29b49011c9cf62c1f2455e9e4472fdc1b37c8f4e32969c812d39bb921154f4\")\n        /* \"contracts/ModuleX_immutable.sol\":2949:2954  low_d */\n      dup4\n        /* \"contracts/ModuleX_immutable.sol\":2949:2967  low_d + DIFFICULTY */\n      tag_180\n      jump\t// in\n    tag_223:\n        /* \"contracts/ModuleX_immutable.sol\":2935:2968  stake_amount/(low_d + DIFFICULTY) */\n      tag_224\n      swap1\n        /* \"contracts/ModuleX_immutable.sol\":2935:2947  stake_amount */\n      dup8\n        /* \"contracts/ModuleX_immutable.sol\":2935:2968  stake_amount/(low_d + DIFFICULTY) */\n      tag_178\n      jump\t// in\n    tag_224:\n        /* \"contracts/ModuleX_immutable.sol\":2928:2968  return stake_amount/(low_d + DIFFICULTY) */\n      swap7\n        /* \"contracts/ModuleX_immutable.sol\":2595:3495  function calculateReward(uint stake_amount) public view returns(uint)... */\n      swap6\n      pop\n      pop\n      pop\n      pop\n      pop\n      pop\n      jump\t// out\n        /* \"contracts/ModuleX_immutable.sol\":2884:3488  if(low_d == high_d)... */\n    tag_222:\n        /* \"contracts/ModuleX_immutable.sol\":3020:3030  uint low_r */\n      0x00\n        /* \"contracts/ModuleX_immutable.sol\":3096:3114  low_d + DIFFICULTY */\n      tag_226\n        /* \"contracts/ModuleX_immutable.sol\":3104:3114  DIFFICULTY */\n      immutable(\"0xeb29b49011c9cf62c1f2455e9e4472fdc1b37c8f4e32969c812d39bb921154f4\")\n        /* \"contracts/ModuleX_immutable.sol\":3096:3101  low_d */\n      dup5\n        /* \"contracts/ModuleX_immutable.sol\":3096:3114  low_d + DIFFICULTY */\n      tag_180\n      jump\t// in\n    tag_226:\n        /* \"contracts/ModuleX_immutable.sol\":3081:3093  total_staked */\n      sload(0x03)\n        /* \"contracts/ModuleX_immutable.sol\":3059:3078  DIFFICULTY_INTERVAL */\n      immutable(\"0x1953a27a405e8582cf1be8a2db4a8d6898082fbed25ec72fb4b95dbd76ab849b\")\n        /* \"contracts/ModuleX_immutable.sol\":3048:3057  low_d + 1 */\n      tag_227\n        /* \"contracts/ModuleX_immutable.sol\":3048:3053  low_d */\n      dup7\n        /* \"contracts/ModuleX_immutable.sol\":3056:3057  1 */\n      0x01\n        /* \"contracts/ModuleX_immutable.sol\":3048:3057  low_d + 1 */\n      tag_180\n      jump\t// in\n    tag_227:\n        /* \"contracts/ModuleX_immutable.sol\":3047:3078  (low_d + 1)*DIFFICULTY_INTERVAL */\n      tag_228\n      swap2\n      swap1\n      tag_229\n      jump\t// in\n    tag_228:\n        /* \"contracts/ModuleX_immutable.sol\":3047:3093  (low_d + 1)*DIFFICULTY_INTERVAL - total_staked */\n      tag_230\n      swap2\n      swap1\n      tag_144\n      jump\t// in\n    tag_230:\n        /* \"contracts/ModuleX_immutable.sol\":3033:3094  SCALE_FACTOR*((low_d + 1)*DIFFICULTY_INTERVAL - total_staked) */\n      tag_231\n      swap1\n        /* \"contracts/ModuleX_immutable.sol\":3033:3045  SCALE_FACTOR */\n      dup8\n        /* \"contracts/ModuleX_immutable.sol\":3033:3094  SCALE_FACTOR*((low_d + 1)*DIFFICULTY_INTERVAL - total_staked) */\n      tag_229\n      jump\t// in\n    tag_231:\n        /* \"contracts/ModuleX_immutable.sol\":3033:3115  SCALE_FACTOR*((low_d + 1)*DIFFICULTY_INTERVAL - total_staked)/(low_d + DIFFICULTY) */\n      tag_232\n      swap2\n      swap1\n      tag_178\n      jump\t// in\n    tag_232:\n        /* \"contracts/ModuleX_immutable.sol\":3020:3115  uint low_r = SCALE_FACTOR*((low_d + 1)*DIFFICULTY_INTERVAL - total_staked)/(low_d + DIFFICULTY) */\n      swap1\n      pop\n        /* \"contracts/ModuleX_immutable.sol\":3130:3141  uint high_r */\n      0x00\n        /* \"contracts/ModuleX_immutable.sol\":3200:3219  high_d + DIFFICULTY */\n      tag_233\n        /* \"contracts/ModuleX_immutable.sol\":3209:3219  DIFFICULTY */\n      immutable(\"0xeb29b49011c9cf62c1f2455e9e4472fdc1b37c8f4e32969c812d39bb921154f4\")\n        /* \"contracts/ModuleX_immutable.sol\":3200:3206  high_d */\n      dup5\n        /* \"contracts/ModuleX_immutable.sol\":3200:3219  high_d + DIFFICULTY */\n      tag_180\n      jump\t// in\n    tag_233:\n        /* \"contracts/ModuleX_immutable.sol\":3171:3197  high_d*DIFFICULTY_INTERVAL */\n      tag_234\n        /* \"contracts/ModuleX_immutable.sol\":3178:3197  DIFFICULTY_INTERVAL */\n      immutable(\"0x1953a27a405e8582cf1be8a2db4a8d6898082fbed25ec72fb4b95dbd76ab849b\")\n        /* \"contracts/ModuleX_immutable.sol\":3171:3177  high_d */\n      dup6\n        /* \"contracts/ModuleX_immutable.sol\":3171:3197  high_d*DIFFICULTY_INTERVAL */\n      tag_229\n      jump\t// in\n    tag_234:\n        /* \"contracts/ModuleX_immutable.sol\":3158:3197  curr_total - high_d*DIFFICULTY_INTERVAL */\n      tag_235\n      swap1\n        /* \"contracts/ModuleX_immutable.sol\":3158:3168  curr_total */\n      dup8\n        /* \"contracts/ModuleX_immutable.sol\":3158:3197  curr_total - high_d*DIFFICULTY_INTERVAL */\n      tag_144\n      jump\t// in\n    tag_235:\n        /* \"contracts/ModuleX_immutable.sol\":3144:3198  SCALE_FACTOR*(curr_total - high_d*DIFFICULTY_INTERVAL) */\n      tag_236\n      swap1\n        /* \"contracts/ModuleX_immutable.sol\":3144:3156  SCALE_FACTOR */\n      dup9\n        /* \"contracts/ModuleX_immutable.sol\":3144:3198  SCALE_FACTOR*(curr_total - high_d*DIFFICULTY_INTERVAL) */\n      tag_229\n      jump\t// in\n    tag_236:\n        /* \"contracts/ModuleX_immutable.sol\":3144:3220  SCALE_FACTOR*(curr_total - high_d*DIFFICULTY_INTERVAL)/(high_d + DIFFICULTY) */\n      tag_237\n      swap2\n      swap1\n      tag_178\n      jump\t// in\n    tag_237:\n        /* \"contracts/ModuleX_immutable.sol\":3130:3220  uint high_r = SCALE_FACTOR*(curr_total - high_d*DIFFICULTY_INTERVAL)/(high_d + DIFFICULTY) */\n      swap1\n      pop\n        /* \"contracts/ModuleX_immutable.sol\":3235:3248  uint middle_r */\n      0x00\n      dup1\n        /* \"contracts/ModuleX_immutable.sol\":3278:3287  low_d + 1 */\n      tag_241\n        /* \"contracts/ModuleX_immutable.sol\":3278:3283  low_d */\n      dup7\n        /* \"contracts/ModuleX_immutable.sol\":3286:3287  1 */\n      0x01\n        /* \"contracts/ModuleX_immutable.sol\":3278:3287  low_d + 1 */\n      tag_180\n      jump\t// in\n    tag_241:\n        /* \"contracts/ModuleX_immutable.sol\":3271:3287  uint i=low_d + 1 */\n      swap1\n      pop\n        /* \"contracts/ModuleX_immutable.sol\":3267:3415  for(uint i=low_d + 1; i < high_d; i++)... */\n    tag_238:\n        /* \"contracts/ModuleX_immutable.sol\":3293:3299  high_d */\n      dup5\n        /* \"contracts/ModuleX_immutable.sol\":3289:3290  i */\n      dup2\n        /* \"contracts/ModuleX_immutable.sol\":3289:3299  i < high_d */\n      lt\n        /* \"contracts/ModuleX_immutable.sol\":3267:3415  for(uint i=low_d + 1; i < high_d; i++)... */\n      iszero\n      tag_239\n      jumpi\n        /* \"contracts/ModuleX_immutable.sol\":3384:3398  i + DIFFICULTY */\n      tag_242\n        /* \"contracts/ModuleX_immutable.sol\":3388:3398  DIFFICULTY */\n      immutable(\"0xeb29b49011c9cf62c1f2455e9e4472fdc1b37c8f4e32969c812d39bb921154f4\")\n        /* \"contracts/ModuleX_immutable.sol\":3384:3385  i */\n      dup3\n        /* \"contracts/ModuleX_immutable.sol\":3384:3398  i + DIFFICULTY */\n      tag_180\n      jump\t// in\n    tag_242:\n        /* \"contracts/ModuleX_immutable.sol\":3350:3382  SCALE_FACTOR*DIFFICULTY_INTERVAL */\n      tag_243\n        /* \"contracts/ModuleX_immutable.sol\":3363:3382  DIFFICULTY_INTERVAL */\n      immutable(\"0x1953a27a405e8582cf1be8a2db4a8d6898082fbed25ec72fb4b95dbd76ab849b\")\n        /* \"contracts/ModuleX_immutable.sol\":3350:3362  SCALE_FACTOR */\n      dup11\n        /* \"contracts/ModuleX_immutable.sol\":3350:3382  SCALE_FACTOR*DIFFICULTY_INTERVAL */\n      tag_229\n      jump\t// in\n    tag_243:\n        /* \"contracts/ModuleX_immutable.sol\":3350:3399  SCALE_FACTOR*DIFFICULTY_INTERVAL/(i + DIFFICULTY) */\n      tag_244\n      swap2\n      swap1\n      tag_178\n      jump\t// in\n    tag_244:\n        /* \"contracts/ModuleX_immutable.sol\":3338:3399  middle_r += SCALE_FACTOR*DIFFICULTY_INTERVAL/(i + DIFFICULTY) */\n      tag_245\n      swap1\n      dup4\n      tag_180\n      jump\t// in\n    tag_245:\n      swap2\n      pop\n        /* \"contracts/ModuleX_immutable.sol\":3301:3304  i++ */\n      0x01\n      add\n        /* \"contracts/ModuleX_immutable.sol\":3267:3415  for(uint i=low_d + 1; i < high_d; i++)... */\n      jump(tag_238)\n    tag_239:\n      pop\n        /* \"contracts/ModuleX_immutable.sol\":3464:3476  SCALE_FACTOR */\n      dup7\n        /* \"contracts/ModuleX_immutable.sol\":3456:3462  high_r */\n      dup3\n        /* \"contracts/ModuleX_immutable.sol\":3437:3453  low_r + middle_r */\n      tag_246\n        /* \"contracts/ModuleX_immutable.sol\":3445:3453  middle_r */\n      dup4\n        /* \"contracts/ModuleX_immutable.sol\":3437:3442  low_r */\n      dup7\n        /* \"contracts/ModuleX_immutable.sol\":3437:3453  low_r + middle_r */\n      tag_180\n      jump\t// in\n    tag_246:\n        /* \"contracts/ModuleX_immutable.sol\":3437:3462  low_r + middle_r + high_r */\n      tag_247\n      swap2\n      swap1\n      tag_180\n      jump\t// in\n    tag_247:\n        /* \"contracts/ModuleX_immutable.sol\":3436:3476  (low_r + middle_r + high_r)/SCALE_FACTOR */\n      tag_248\n      swap2\n      swap1\n      tag_178\n      jump\t// in\n    tag_248:\n        /* \"contracts/ModuleX_immutable.sol\":3429:3476  return (low_r + middle_r + high_r)/SCALE_FACTOR */\n      swap10\n        /* \"contracts/ModuleX_immutable.sol\":2595:3495  function calculateReward(uint stake_amount) public view returns(uint)... */\n      swap9\n      pop\n      pop\n      pop\n      pop\n      pop\n      pop\n      pop\n      pop\n      pop\n      jump\t// out\n        /* \"contracts/ModuleX_immutable.sol\":6843:7123  function withdrawRewards(address to, uint amount) external onlyOwner... */\n    tag_106:\n        /* \"@openzeppelin/contracts/access/Ownable.sol\":1531:1544  _checkOwner() */\n      tag_251\n        /* \"@openzeppelin/contracts/access/Ownable.sol\":1531:1542  _checkOwner */\n      tag_119\n        /* \"@openzeppelin/contracts/access/Ownable.sol\":1531:1544  _checkOwner() */\n      jump\t// in\n    tag_251:\n        /* \"contracts/ModuleX_immutable.sol\":6980:6996  pending_payments */\n      sload(0x04)\n        /* \"contracts/ModuleX_immutable.sol\":6971:6996  amount + pending_payments */\n      tag_253\n      swap1\n        /* \"contracts/ModuleX_immutable.sol\":6971:6977  amount */\n      dup3\n        /* \"contracts/ModuleX_immutable.sol\":6971:6996  amount + pending_payments */\n      tag_180\n      jump\t// in\n    tag_253:\n        /* \"contracts/ModuleX_immutable.sol\":6936:6967  xCREDI.balanceOf(address(this)) */\n      mload(0x40)\n      0x70a0823100000000000000000000000000000000000000000000000000000000\n      dup2\n      mstore\n        /* \"contracts/ModuleX_immutable.sol\":6961:6965  this */\n      address\n        /* \"contracts/ModuleX_immutable.sol\":6936:6967  xCREDI.balanceOf(address(this)) */\n      0x04\n      dup3\n      add\n        /* \"#utility.yul\":587:661   */\n      mstore\n        /* \"contracts/ModuleX_immutable.sol\":6936:6942  xCREDI */\n      immutable(\"0xad444e1082e5d5bbfca385a9a566a2d71dbd349bb06a97871f0be4657884f8e0\")\n      sub(shl(0xa0, 0x01), 0x01)\n        /* \"contracts/ModuleX_immutable.sol\":6936:6952  xCREDI.balanceOf */\n      and\n      swap1\n      0x70a08231\n      swap1\n        /* \"#utility.yul\":560:578   */\n      0x24\n      add\n        /* \"contracts/ModuleX_immutable.sol\":6936:6967  xCREDI.balanceOf(address(this)) */\n      0x20\n      mload(0x40)\n      dup1\n      dup4\n      sub\n      dup2\n      dup7\n      gas\n      staticcall\n      iszero\n      dup1\n      iszero\n      tag_256\n      jumpi\n      returndatacopy(0x00, 0x00, returndatasize)\n      revert(0x00, returndatasize)\n    tag_256:\n      pop\n      pop\n      pop\n      pop\n      mload(0x40)\n      returndatasize\n      not(0x1f)\n      0x1f\n      dup3\n      add\n      and\n      dup3\n      add\n      dup1\n      0x40\n      mstore\n      pop\n      dup2\n      add\n      swap1\n      tag_257\n      swap2\n      swap1\n      tag_258\n      jump\t// in\n    tag_257:\n        /* \"contracts/ModuleX_immutable.sol\":6936:6996  xCREDI.balanceOf(address(this)) >= amount + pending_payments */\n      lt\n      iszero\n        /* \"contracts/ModuleX_immutable.sol\":6928:7030  require(xCREDI.balanceOf(address(this)) >= amount + pending_payments, \"ModuleX:Insufficient balance!\") */\n      tag_259\n      jumpi\n      mload(0x40)\n      shl(0xe5, 0x461bcd)\n      dup2\n      mstore\n        /* \"#utility.yul\":6848:6850   */\n      0x20\n        /* \"contracts/ModuleX_immutable.sol\":6928:7030  require(xCREDI.balanceOf(address(this)) >= amount + pending_payments, \"ModuleX:Insufficient balance!\") */\n      0x04\n      dup3\n      add\n        /* \"#utility.yul\":6830:6851   */\n      mstore\n        /* \"#utility.yul\":6887:6889   */\n      0x1d\n        /* \"#utility.yul\":6867:6885   */\n      0x24\n      dup3\n      add\n        /* \"#utility.yul\":6860:6890   */\n      mstore\n        /* \"#utility.yul\":6926:6957   */\n      0x4d6f64756c65583a496e73756666696369656e742062616c616e636521000000\n        /* \"#utility.yul\":6906:6924   */\n      0x44\n      dup3\n      add\n        /* \"#utility.yul\":6899:6958   */\n      mstore\n        /* \"#utility.yul\":6975:6993   */\n      0x64\n      add\n        /* \"contracts/ModuleX_immutable.sol\":6928:7030  require(xCREDI.balanceOf(address(this)) >= amount + pending_payments, \"ModuleX:Insufficient balance!\") */\n      tag_124\n        /* \"#utility.yul\":6646:6999   */\n      jump\n        /* \"contracts/ModuleX_immutable.sol\":6928:7030  require(xCREDI.balanceOf(address(this)) >= amount + pending_payments, \"ModuleX:Insufficient balance!\") */\n    tag_259:\n        /* \"contracts/ModuleX_immutable.sol\":7041:7072  xCREDI.safeTransfer(to, amount) */\n      tag_261\n      sub(shl(0xa0, 0x01), 0x01)\n        /* \"contracts/ModuleX_immutable.sol\":7041:7047  xCREDI */\n      immutable(\"0xad444e1082e5d5bbfca385a9a566a2d71dbd349bb06a97871f0be4657884f8e0\")\n        /* \"contracts/ModuleX_immutable.sol\":7041:7060  xCREDI.safeTransfer */\n      and\n        /* \"contracts/ModuleX_immutable.sol\":7061:7063  to */\n      dup4\n        /* \"contracts/ModuleX_immutable.sol\":7065:7071  amount */\n      dup4\n        /* \"contracts/ModuleX_immutable.sol\":7041:7060  xCREDI.safeTransfer */\n      tag_142\n        /* \"contracts/ModuleX_immutable.sol\":7041:7072  xCREDI.safeTransfer(to, amount) */\n      jump\t// in\n    tag_261:\n        /* \"contracts/ModuleX_immutable.sol\":7104:7106  to */\n      dup2\n      sub(shl(0xa0, 0x01), 0x01)\n        /* \"contracts/ModuleX_immutable.sol\":7088:7115  RewardWithdrawn(to, amount) */\n      and\n      0x1d3eee4ca001cff39eec6ec7615aacf2f2bd61791273830728ba00ccbd6e1337\n        /* \"contracts/ModuleX_immutable.sol\":7108:7114  amount */\n      dup3\n        /* \"contracts/ModuleX_immutable.sol\":7088:7115  RewardWithdrawn(to, amount) */\n      mload(0x40)\n      tag_262\n      swap2\n        /* \"#utility.yul\":160:185   */\n      dup2\n      mstore\n        /* \"#utility.yul\":148:150   */\n      0x20\n        /* \"#utility.yul\":133:151   */\n      add\n      swap1\n        /* \"#utility.yul\":14:191   */\n      jump\n        /* \"contracts/ModuleX_immutable.sol\":7088:7115  RewardWithdrawn(to, amount) */\n    tag_262:\n      mload(0x40)\n      dup1\n      swap2\n      sub\n      swap1\n      log2\n        /* \"contracts/ModuleX_immutable.sol\":6843:7123  function withdrawRewards(address to, uint amount) external onlyOwner... */\n      pop\n      pop\n      jump\t// out\n        /* \"contracts/ModuleX_immutable.sol\":3640:4628  function stake(uint96 lock_period, uint stake_amount) external returns(uint, uint)... */\n    tag_110:\n        /* \"contracts/ModuleX_immutable.sol\":3711:3715  uint */\n      0x00\n        /* \"contracts/ModuleX_immutable.sol\":3748:3755  stopped */\n      dup1\n      sload\n        /* \"contracts/ModuleX_immutable.sol\":3711:3715  uint */\n      dup2\n      swap1\n      shl(0xa0, 0x01)\n        /* \"contracts/ModuleX_immutable.sol\":3748:3755  stopped */\n      swap1\n      div\n      0xff\n      and\n        /* \"contracts/ModuleX_immutable.sol\":3747:3755  !stopped */\n      iszero\n        /* \"contracts/ModuleX_immutable.sol\":3739:3776  require(!stopped, \"ModuleX:STOPPED!\") */\n      tag_264\n      jumpi\n      mload(0x40)\n      shl(0xe5, 0x461bcd)\n      dup2\n      mstore\n        /* \"#utility.yul\":8521:8523   */\n      0x20\n        /* \"contracts/ModuleX_immutable.sol\":3739:3776  require(!stopped, \"ModuleX:STOPPED!\") */\n      0x04\n      dup3\n      add\n        /* \"#utility.yul\":8503:8524   */\n      mstore\n        /* \"#utility.yul\":8560:8562   */\n      0x10\n        /* \"#utility.yul\":8540:8558   */\n      0x24\n      dup3\n      add\n        /* \"#utility.yul\":8533:8563   */\n      mstore\n        /* \"#utility.yul\":8599:8617   */\n      0x4d6f64756c65583a53544f505045442100000000000000000000000000000000\n        /* \"#utility.yul\":8579:8597   */\n      0x44\n      dup3\n      add\n        /* \"#utility.yul\":8572:8618   */\n      mstore\n        /* \"#utility.yul\":8635:8653   */\n      0x64\n      add\n        /* \"contracts/ModuleX_immutable.sol\":3739:3776  require(!stopped, \"ModuleX:STOPPED!\") */\n      tag_124\n        /* \"#utility.yul\":8319:8659   */\n      jump\n        /* \"contracts/ModuleX_immutable.sol\":3739:3776  require(!stopped, \"ModuleX:STOPPED!\") */\n    tag_264:\n        /* \"contracts/ModuleX_immutable.sol\":3810:3811  0 */\n      0x00\n        /* \"contracts/ModuleX_immutable.sol\":3795:3807  stake_amount */\n      dup4\n        /* \"contracts/ModuleX_immutable.sol\":3795:3811  stake_amount > 0 */\n      gt\n        /* \"contracts/ModuleX_immutable.sol\":3787:3860  require(stake_amount > 0, \"ModuleX:Stake amount must be greater than 0!\") */\n      tag_267\n      jumpi\n      mload(0x40)\n      shl(0xe5, 0x461bcd)\n      dup2\n      mstore\n        /* \"#utility.yul\":8866:8868   */\n      0x20\n        /* \"contracts/ModuleX_immutable.sol\":3787:3860  require(stake_amount > 0, \"ModuleX:Stake amount must be greater than 0!\") */\n      0x04\n      dup3\n      add\n        /* \"#utility.yul\":8848:8869   */\n      mstore\n        /* \"#utility.yul\":8905:8907   */\n      0x2c\n        /* \"#utility.yul\":8885:8903   */\n      0x24\n      dup3\n      add\n        /* \"#utility.yul\":8878:8908   */\n      mstore\n        /* \"#utility.yul\":8944:8978   */\n      0x4d6f64756c65583a5374616b6520616d6f756e74206d75737420626520677265\n        /* \"#utility.yul\":8924:8942   */\n      0x44\n      dup3\n      add\n        /* \"#utility.yul\":8917:8979   */\n      mstore\n        /* \"#utility.yul\":9015:9029   */\n      0x61746572207468616e2030210000000000000000000000000000000000000000\n        /* \"#utility.yul\":8995:9013   */\n      0x64\n      dup3\n      add\n        /* \"#utility.yul\":8988:9030   */\n      mstore\n        /* \"#utility.yul\":9047:9066   */\n      0x84\n      add\n        /* \"contracts/ModuleX_immutable.sol\":3787:3860  require(stake_amount > 0, \"ModuleX:Stake amount must be greater than 0!\") */\n      tag_124\n        /* \"#utility.yul\":8664:9072   */\n      jump\n        /* \"contracts/ModuleX_immutable.sol\":3787:3860  require(stake_amount > 0, \"ModuleX:Stake amount must be greater than 0!\") */\n    tag_267:\n        /* \"contracts/ModuleX_immutable.sol\":577:585  180 days */\n      0xed4e00\n      sub(shl(0x60, 0x01), 0x01)\n        /* \"contracts/ModuleX_immutable.sol\":3879:3902  lock_period >= MATURITY */\n      dup6\n      and\n      lt\n      iszero\n        /* \"contracts/ModuleX_immutable.sol\":3871:3938  require(lock_period >= MATURITY, \"ModuleX:Use longer lock_period!\") */\n      tag_270\n      jumpi\n      mload(0x40)\n      shl(0xe5, 0x461bcd)\n      dup2\n      mstore\n        /* \"#utility.yul\":9279:9281   */\n      0x20\n        /* \"contracts/ModuleX_immutable.sol\":3871:3938  require(lock_period >= MATURITY, \"ModuleX:Use longer lock_period!\") */\n      0x04\n      dup3\n      add\n        /* \"#utility.yul\":9261:9282   */\n      mstore\n        /* \"#utility.yul\":9318:9320   */\n      0x1f\n        /* \"#utility.yul\":9298:9316   */\n      0x24\n      dup3\n      add\n        /* \"#utility.yul\":9291:9321   */\n      mstore\n        /* \"#utility.yul\":9357:9390   */\n      0x4d6f64756c65583a557365206c6f6e676572206c6f636b5f706572696f642100\n        /* \"#utility.yul\":9337:9355   */\n      0x44\n      dup3\n      add\n        /* \"#utility.yul\":9330:9391   */\n      mstore\n        /* \"#utility.yul\":9408:9426   */\n      0x64\n      add\n        /* \"contracts/ModuleX_immutable.sol\":3871:3938  require(lock_period >= MATURITY, \"ModuleX:Use longer lock_period!\") */\n      tag_124\n        /* \"#utility.yul\":9077:9432   */\n      jump\n        /* \"contracts/ModuleX_immutable.sol\":3871:3938  require(lock_period >= MATURITY, \"ModuleX:Use longer lock_period!\") */\n    tag_270:\n        /* \"contracts/ModuleX_immutable.sol\":3949:4014  CREDI.safeTransferFrom(_msgSender(), address(this), stake_amount) */\n      tag_273\n        /* \"contracts/ModuleX_immutable.sol\":3949:3954  CREDI */\n      immutable(\"0xdff167ddfa3189a3e9389ac75b945e17c7959b64870603a7f04a55d1519d28e2\")\n      sub(shl(0xa0, 0x01), 0x01)\n        /* \"contracts/ModuleX_immutable.sol\":3949:3971  CREDI.safeTransferFrom */\n      and\n        /* \"@openzeppelin/contracts/utils/Context.sol\":735:745  msg.sender */\n      caller\n        /* \"contracts/ModuleX_immutable.sol\":3994:3998  this */\n      address\n        /* \"contracts/ModuleX_immutable.sol\":4001:4013  stake_amount */\n      dup7\n        /* \"contracts/ModuleX_immutable.sol\":3949:3971  CREDI.safeTransferFrom */\n      tag_211\n        /* \"contracts/ModuleX_immutable.sol\":3949:4014  CREDI.safeTransferFrom(_msgSender(), address(this), stake_amount) */\n      jump\t// in\n    tag_273:\n        /* \"contracts/ModuleX_immutable.sol\":4026:4041  uint96 maturity */\n      0x00\n        /* \"contracts/ModuleX_immutable.sol\":4044:4068  time_now() + lock_period */\n      tag_276\n        /* \"contracts/ModuleX_immutable.sol\":4057:4068  lock_period */\n      dup6\n        /* \"contracts/ModuleX_immutable.sol\":2563:2578  block.timestamp */\n      timestamp\n        /* \"contracts/ModuleX_immutable.sol\":4044:4068  time_now() + lock_period */\n      tag_277\n      jump\t// in\n    tag_276:\n        /* \"contracts/ModuleX_immutable.sol\":4026:4068  uint96 maturity = time_now() + lock_period */\n      swap1\n      pop\n        /* \"contracts/ModuleX_immutable.sol\":4079:4097  uint reward_amount */\n      0x00\n        /* \"contracts/ModuleX_immutable.sol\":4100:4129  calculateReward(stake_amount) */\n      tag_278\n        /* \"contracts/ModuleX_immutable.sol\":4116:4128  stake_amount */\n      dup6\n        /* \"contracts/ModuleX_immutable.sol\":4100:4115  calculateReward */\n      tag_98\n        /* \"contracts/ModuleX_immutable.sol\":4100:4129  calculateReward(stake_amount) */\n      jump\t// in\n    tag_278:\n        /* \"contracts/ModuleX_immutable.sol\":4079:4129  uint reward_amount = calculateReward(stake_amount) */\n      swap1\n      pop\n        /* \"contracts/ModuleX_immutable.sol\":4140:4153  uint stake_id */\n      0x00\n        /* \"contracts/ModuleX_immutable.sol\":4156:4168  stakes_count */\n      sload(0x02)\n        /* \"contracts/ModuleX_immutable.sol\":4140:4168  uint stake_id = stakes_count */\n      swap1\n      pop\n        /* \"contracts/ModuleX_immutable.sol\":4198:4374  StakeDetails({... */\n      mload(0x40)\n      dup1\n      0x80\n      add\n      0x40\n      mstore\n      dup1\n        /* \"contracts/ModuleX_immutable.sol\":4233:4245  _msgSender() */\n      tag_279\n        /* \"@openzeppelin/contracts/utils/Context.sol\":735:745  msg.sender */\n      caller\n      swap1\n        /* \"@openzeppelin/contracts/utils/Context.sol\":656:752  function _msgSender() internal view virtual returns (address) {... */\n      jump\n        /* \"contracts/ModuleX_immutable.sol\":4233:4245  _msgSender() */\n    tag_279:\n      sub(shl(0xa0, 0x01), 0x01)\n        /* \"contracts/ModuleX_immutable.sol\":4198:4374  StakeDetails({... */\n      swap1\n      dup2\n      and\n      dup3\n      mstore\n      sub(shl(0x60, 0x01), 0x01)\n      dup7\n      dup2\n      and\n      0x20\n      dup1\n      dup6\n      add\n      swap2\n      swap1\n      swap2\n      mstore\n      0x40\n      dup1\n      dup6\n      add\n      dup13\n      swap1\n      mstore\n      0x60\n      swap5\n      dup6\n      add\n      dup9\n      swap1\n      mstore\n      0x00\n        /* \"contracts/ModuleX_immutable.sol\":4179:4195  stakes[stake_id] */\n      dup8\n      dup2\n      mstore\n        /* \"contracts/ModuleX_immutable.sol\":4179:4185  stakes */\n      0x01\n        /* \"contracts/ModuleX_immutable.sol\":4179:4195  stakes[stake_id] */\n      dup1\n      dup5\n      mstore\n      dup3\n      dup3\n      keccak256\n        /* \"contracts/ModuleX_immutable.sol\":4179:4374  stakes[stake_id] = StakeDetails({... */\n      dup9\n      mload\n      swap5\n      dup10\n      add\n      mload\n      swap5\n      swap1\n      swap7\n      and\n      shl(0xa0, 0x01)\n      swap5\n      swap1\n      swap6\n      and\n      swap4\n      swap1\n      swap4\n      mul\n      swap4\n      swap1\n      swap4\n      or\n      dup5\n      sstore\n      dup6\n      add\n      mload\n      swap1\n      dup4\n      add\n      sstore\n      swap3\n      swap1\n      swap2\n      add\n      mload\n      0x02\n      swap1\n      swap2\n      add\n      sstore\n        /* \"contracts/ModuleX_immutable.sol\":4395:4407  total_staked */\n      0x03\n        /* \"contracts/ModuleX_immutable.sol\":4395:4423  total_staked += stake_amount */\n      dup1\n      sload\n        /* \"contracts/ModuleX_immutable.sol\":4198:4374  StakeDetails({... */\n      dup9\n      swap3\n      swap1\n        /* \"contracts/ModuleX_immutable.sol\":4395:4423  total_staked += stake_amount */\n      tag_280\n      swap1\n        /* \"contracts/ModuleX_immutable.sol\":4198:4374  StakeDetails({... */\n      dup5\n      swap1\n        /* \"contracts/ModuleX_immutable.sol\":4395:4423  total_staked += stake_amount */\n      tag_180\n      jump\t// in\n    tag_280:\n      swap3\n      pop\n      pop\n      dup2\n      swap1\n      sstore\n      pop\n        /* \"contracts/ModuleX_immutable.sol\":4455:4468  reward_amount */\n      dup2\n        /* \"contracts/ModuleX_immutable.sol\":4435:4451  pending_payments */\n      0x04\n      0x00\n        /* \"contracts/ModuleX_immutable.sol\":4435:4468  pending_payments += reward_amount */\n      dup3\n      dup3\n      sload\n      tag_281\n      swap2\n      swap1\n      tag_180\n      jump\t// in\n    tag_281:\n      swap1\n      swap2\n      sstore\n      pop\n      pop\n        /* \"contracts/ModuleX_immutable.sol\":4484:4553  Staked(_msgSender(), stake_id, maturity, stake_amount, reward_amount) */\n      0x40\n      dup1\n      mload\n        /* \"#utility.yul\":9886:9911   */\n      dup3\n      dup2\n      mstore\n      sub(shl(0x60, 0x01), 0x01)\n        /* \"#utility.yul\":9947:9986   */\n      dup6\n      and\n        /* \"#utility.yul\":9942:9944   */\n      0x20\n        /* \"#utility.yul\":9927:9945   */\n      dup3\n      add\n        /* \"#utility.yul\":9920:9987   */\n      mstore\n        /* \"#utility.yul\":10003:10021   */\n      dup1\n      dup3\n      add\n        /* \"#utility.yul\":9996:10030   */\n      dup9\n      swap1\n      mstore\n        /* \"#utility.yul\":10061:10063   */\n      0x60\n        /* \"#utility.yul\":10046:10064   */\n      dup2\n      add\n        /* \"#utility.yul\":10039:10073   */\n      dup5\n      swap1\n      mstore\n        /* \"contracts/ModuleX_immutable.sol\":4484:4553  Staked(_msgSender(), stake_id, maturity, stake_amount, reward_amount) */\n      swap1\n      mload\n        /* \"@openzeppelin/contracts/utils/Context.sol\":735:745  msg.sender */\n      caller\n      swap2\n        /* \"contracts/ModuleX_immutable.sol\":4484:4553  Staked(_msgSender(), stake_id, maturity, stake_amount, reward_amount) */\n      0x24fe2d25c10eb2c67b5ac1e3edbcadc94191e154ed388ad667a9480c44f47146\n      swap2\n      swap1\n      dup2\n      swap1\n      sub\n        /* \"#utility.yul\":9873:9876   */\n      0x80\n        /* \"contracts/ModuleX_immutable.sol\":4484:4553  Staked(_msgSender(), stake_id, maturity, stake_amount, reward_amount) */\n      add\n      swap1\n      log2\n        /* \"contracts/ModuleX_immutable.sol\":4564:4576  stakes_count */\n      0x02\n        /* \"contracts/ModuleX_immutable.sol\":4564:4578  stakes_count++ */\n      dup1\n      sload\n      swap1\n        /* \"contracts/ModuleX_immutable.sol\":4564:4576  stakes_count */\n      0x00\n        /* \"contracts/ModuleX_immutable.sol\":4564:4578  stakes_count++ */\n      tag_285\n      dup4\n      tag_286\n      jump\t// in\n    tag_285:\n      swap1\n      swap2\n      sstore\n      pop\n        /* \"contracts/ModuleX_immutable.sol\":4596:4604  stake_id */\n      swap1\n      swap8\n        /* \"contracts/ModuleX_immutable.sol\":4606:4619  reward_amount */\n      swap2\n      swap7\n      pop\n        /* \"contracts/ModuleX_immutable.sol\":3640:4628  function stake(uint96 lock_period, uint stake_amount) external returns(uint, uint)... */\n      swap1\n      swap5\n      pop\n      pop\n      pop\n      pop\n      pop\n      jump\t// out\n        /* \"@openzeppelin/contracts/access/Ownable.sol\":2543:2758  function transferOwnership(address newOwner) public virtual onlyOwner {... */\n    tag_116:\n        /* \"@openzeppelin/contracts/access/Ownable.sol\":1531:1544  _checkOwner() */\n      tag_288\n        /* \"@openzeppelin/contracts/access/Ownable.sol\":1531:1542  _checkOwner */\n      tag_119\n        /* \"@openzeppelin/contracts/access/Ownable.sol\":1531:1544  _checkOwner() */\n      jump\t// in\n    tag_288:\n      sub(shl(0xa0, 0x01), 0x01)\n        /* \"@openzeppelin/contracts/access/Ownable.sol\":2627:2649  newOwner == address(0) */\n      dup2\n      and\n        /* \"@openzeppelin/contracts/access/Ownable.sol\":2623:2714  if (newOwner == address(0)) {... */\n      tag_290\n      jumpi\n        /* \"@openzeppelin/contracts/access/Ownable.sol\":2672:2703  OwnableInvalidOwner(address(0)) */\n      mload(0x40)\n      0x1e4fbdf700000000000000000000000000000000000000000000000000000000\n      dup2\n      mstore\n        /* \"@openzeppelin/contracts/access/Ownable.sol\":2700:2701  0 */\n      0x00\n        /* \"@openzeppelin/contracts/access/Ownable.sol\":2672:2703  OwnableInvalidOwner(address(0)) */\n      0x04\n      dup3\n      add\n        /* \"#utility.yul\":587:661   */\n      mstore\n        /* \"#utility.yul\":560:578   */\n      0x24\n      add\n        /* \"@openzeppelin/contracts/access/Ownable.sol\":2672:2703  OwnableInvalidOwner(address(0)) */\n      tag_124\n        /* \"#utility.yul\":427:667   */\n      jump\n        /* \"@openzeppelin/contracts/access/Ownable.sol\":2623:2714  if (newOwner == address(0)) {... */\n    tag_290:\n        /* \"@openzeppelin/contracts/access/Ownable.sol\":2723:2751  _transferOwnership(newOwner) */\n      tag_292\n        /* \"@openzeppelin/contracts/access/Ownable.sol\":2742:2750  newOwner */\n      dup2\n        /* \"@openzeppelin/contracts/access/Ownable.sol\":2723:2741  _transferOwnership */\n      tag_150\n        /* \"@openzeppelin/contracts/access/Ownable.sol\":2723:2751  _transferOwnership(newOwner) */\n      jump\t// in\n    tag_292:\n        /* \"@openzeppelin/contracts/access/Ownable.sol\":2543:2758  function transferOwnership(address newOwner) public virtual onlyOwner {... */\n      pop\n      jump\t// out\n        /* \"@openzeppelin/contracts/access/Ownable.sol\":1796:1958  function _checkOwner() internal view virtual {... */\n    tag_119:\n        /* \"@openzeppelin/contracts/access/Ownable.sol\":1684:1691  address */\n      0x00\n        /* \"@openzeppelin/contracts/access/Ownable.sol\":1710:1716  _owner */\n      sload\n      sub(shl(0xa0, 0x01), 0x01)\n      and\n        /* \"@openzeppelin/contracts/utils/Context.sol\":735:745  msg.sender */\n      caller\n        /* \"@openzeppelin/contracts/access/Ownable.sol\":1855:1878  owner() != _msgSender() */\n      eq\n        /* \"@openzeppelin/contracts/access/Ownable.sol\":1851:1952  if (owner() != _msgSender()) {... */\n      tag_149\n      jumpi\n        /* \"@openzeppelin/contracts/access/Ownable.sol\":1901:1941  OwnableUnauthorizedAccount(_msgSender()) */\n      mload(0x40)\n      0x118cdaa700000000000000000000000000000000000000000000000000000000\n      dup2\n      mstore\n        /* \"@openzeppelin/contracts/utils/Context.sol\":735:745  msg.sender */\n      caller\n        /* \"@openzeppelin/contracts/access/Ownable.sol\":1901:1941  OwnableUnauthorizedAccount(_msgSender()) */\n      0x04\n      dup3\n      add\n        /* \"#utility.yul\":587:661   */\n      mstore\n        /* \"#utility.yul\":560:578   */\n      0x24\n      add\n        /* \"@openzeppelin/contracts/access/Ownable.sol\":1901:1941  OwnableUnauthorizedAccount(_msgSender()) */\n      tag_124\n        /* \"#utility.yul\":427:667   */\n      jump\n        /* \"@openzeppelin/contracts/token/ERC20/utils/SafeERC20.sol\":1219:1379  function safeTransfer(IERC20 token, address to, uint256 value) internal {... */\n    tag_142:\n        /* \"@openzeppelin/contracts/token/ERC20/utils/SafeERC20.sol\":1328:1371  abi.encodeCall(token.transfer, (to, value)) */\n      mload(0x40)\n      sub(shl(0xa0, 0x01), 0x01)\n        /* \"#utility.yul\":10416:10471   */\n      dup4\n      dup2\n      and\n        /* \"@openzeppelin/contracts/token/ERC20/utils/SafeERC20.sol\":1328:1371  abi.encodeCall(token.transfer, (to, value)) */\n      0x24\n      dup4\n      add\n        /* \"#utility.yul\":10398:10472   */\n      mstore\n        /* \"#utility.yul\":10488:10506   */\n      0x44\n      dup3\n      add\n        /* \"#utility.yul\":10481:10515   */\n      dup4\n      swap1\n      mstore\n        /* \"@openzeppelin/contracts/token/ERC20/utils/SafeERC20.sol\":1301:1372  _callOptionalReturn(token, abi.encodeCall(token.transfer, (to, value))) */\n      tag_204\n      swap2\n        /* \"@openzeppelin/contracts/token/ERC20/utils/SafeERC20.sol\":1321:1326  token */\n      dup6\n      swap2\n        /* \"@openzeppelin/contracts/token/ERC20/utils/SafeERC20.sol\":1343:1357  token.transfer */\n      dup3\n      and\n      swap1\n      0xa9059cbb\n      swap1\n        /* \"#utility.yul\":10371:10389   */\n      0x64\n      add\n        /* \"@openzeppelin/contracts/token/ERC20/utils/SafeERC20.sol\":1328:1371  abi.encodeCall(token.transfer, (to, value)) */\n    tag_303:\n      mload(0x40)\n      0x20\n      dup2\n      dup4\n      sub\n      sub\n      dup2\n      mstore\n      swap1\n      0x40\n      mstore\n      swap2\n      pop\n      0xe0\n      shl\n      0x20\n      dup3\n      add\n      dup1\n      mload\n      0xffffffffffffffffffffffffffffffffffffffffffffffffffffffff\n      dup4\n      dup2\n      dup4\n      and\n      or\n      dup4\n      mstore\n      pop\n      pop\n      pop\n      pop\n        /* \"@openzeppelin/contracts/token/ERC20/utils/SafeERC20.sol\":1301:1320  _callOptionalReturn */\n      tag_305\n        /* \"@openzeppelin/contracts/token/ERC20/utils/SafeERC20.sol\":1301:1372  _callOptionalReturn(token, abi.encodeCall(token.transfer, (to, value))) */\n      jump\t// in\n        /* \"@openzeppelin/contracts/access/Ownable.sol\":2912:3099  function _transferOwnership(address newOwner) internal virtual {... */\n    tag_150:\n        /* \"@openzeppelin/contracts/access/Ownable.sol\":2985:3001  address oldOwner */\n      0x00\n        /* \"@openzeppelin/contracts/access/Ownable.sol\":3004:3010  _owner */\n      dup1\n      sload\n      sub(shl(0xa0, 0x01), 0x01)\n        /* \"@openzeppelin/contracts/access/Ownable.sol\":3020:3037  _owner = newOwner */\n      dup4\n      dup2\n      and\n      0xffffffffffffffffffffffff0000000000000000000000000000000000000000\n      dup4\n      and\n      dup2\n      or\n      dup5\n      sstore\n        /* \"@openzeppelin/contracts/access/Ownable.sol\":3052:3092  OwnershipTransferred(oldOwner, newOwner) */\n      mload(0x40)\n        /* \"@openzeppelin/contracts/access/Ownable.sol\":3004:3010  _owner */\n      swap2\n      swap1\n      swap3\n      and\n      swap3\n      dup4\n      swap2\n        /* \"@openzeppelin/contracts/access/Ownable.sol\":3052:3092  OwnershipTransferred(oldOwner, newOwner) */\n      0x8be0079c531659141344cd1fd0a4f28419497f9722a3daafe3b4186f6b6457e0\n      swap2\n        /* \"@openzeppelin/contracts/access/Ownable.sol\":2985:3001  address oldOwner */\n      swap1\n        /* \"@openzeppelin/contracts/access/Ownable.sol\":3052:3092  OwnershipTransferred(oldOwner, newOwner) */\n      log3\n        /* \"@openzeppelin/contracts/access/Ownable.sol\":2975:3099  {... */\n      pop\n        /* \"@openzeppelin/contracts/access/Ownable.sol\":2912:3099  function _transferOwnership(address newOwner) internal virtual {... */\n      pop\n      jump\t// out\n        /* \"@openzeppelin/contracts/token/ERC20/utils/SafeERC20.sol\":1618:1806  function safeTransferFrom(IERC20 token, address from, address to, uint256 value) internal {... */\n    tag_211:\n        /* \"@openzeppelin/contracts/token/ERC20/utils/SafeERC20.sol\":1745:1798  abi.encodeCall(token.transferFrom, (from, to, value)) */\n      mload(0x40)\n      sub(shl(0xa0, 0x01), 0x01)\n        /* \"#utility.yul\":10746:10801   */\n      dup5\n      dup2\n      and\n        /* \"@openzeppelin/contracts/token/ERC20/utils/SafeERC20.sol\":1745:1798  abi.encodeCall(token.transferFrom, (from, to, value)) */\n      0x24\n      dup4\n      add\n        /* \"#utility.yul\":10728:10802   */\n      mstore\n        /* \"#utility.yul\":10838:10893   */\n      dup4\n      dup2\n      and\n        /* \"#utility.yul\":10818:10836   */\n      0x44\n      dup4\n      add\n        /* \"#utility.yul\":10811:10894   */\n      mstore\n        /* \"#utility.yul\":10910:10928   */\n      0x64\n      dup3\n      add\n        /* \"#utility.yul\":10903:10937   */\n      dup4\n      swap1\n      mstore\n        /* \"@openzeppelin/contracts/token/ERC20/utils/SafeERC20.sol\":1718:1799  _callOptionalReturn(token, abi.encodeCall(token.transferFrom, (from, to, value))) */\n      tag_308\n      swap2\n        /* \"@openzeppelin/contracts/token/ERC20/utils/SafeERC20.sol\":1738:1743  token */\n      dup7\n      swap2\n        /* \"@openzeppelin/contracts/token/ERC20/utils/SafeERC20.sol\":1760:1778  token.transferFrom */\n      dup3\n      and\n      swap1\n      0x23b872dd\n      swap1\n        /* \"#utility.yul\":10701:10719   */\n      0x84\n      add\n        /* \"@openzeppelin/contracts/token/ERC20/utils/SafeERC20.sol\":1745:1798  abi.encodeCall(token.transferFrom, (from, to, value)) */\n      tag_303\n        /* \"#utility.yul\":10526:10943   */\n      jump\n        /* \"@openzeppelin/contracts/token/ERC20/utils/SafeERC20.sol\":1718:1799  _callOptionalReturn(token, abi.encodeCall(token.transferFrom, (from, to, value))) */\n    tag_308:\n        /* \"@openzeppelin/contracts/token/ERC20/utils/SafeERC20.sol\":1618:1806  function safeTransferFrom(IERC20 token, address from, address to, uint256 value) internal {... */\n      pop\n      pop\n      pop\n      pop\n      jump\t// out\n        /* \"@openzeppelin/contracts/token/ERC20/utils/SafeERC20.sol\":8370:9090  function _callOptionalReturn(IERC20 token, bytes memory data) private {... */\n    tag_305:\n        /* \"@openzeppelin/contracts/token/ERC20/utils/SafeERC20.sol\":8450:8468  uint256 returnSize */\n      0x00\n        /* \"@openzeppelin/contracts/token/ERC20/utils/SafeERC20.sol\":8478:8497  uint256 returnValue */\n      0x00\n        /* \"@openzeppelin/contracts/token/ERC20/utils/SafeERC20.sol\":8616:8620  0x20 */\n      0x20\n        /* \"@openzeppelin/contracts/token/ERC20/utils/SafeERC20.sol\":8613:8614  0 */\n      0x00\n        /* \"@openzeppelin/contracts/token/ERC20/utils/SafeERC20.sol\":8606:8610  data */\n      dup5\n        /* \"@openzeppelin/contracts/token/ERC20/utils/SafeERC20.sol\":8600:8611  mload(data) */\n      mload\n        /* \"@openzeppelin/contracts/token/ERC20/utils/SafeERC20.sol\":8593:8597  0x20 */\n      0x20\n        /* \"@openzeppelin/contracts/token/ERC20/utils/SafeERC20.sol\":8587:8591  data */\n      dup7\n        /* \"@openzeppelin/contracts/token/ERC20/utils/SafeERC20.sol\":8583:8598  add(data, 0x20) */\n      add\n        /* \"@openzeppelin/contracts/token/ERC20/utils/SafeERC20.sol\":8580:8581  0 */\n      0x00\n        /* \"@openzeppelin/contracts/token/ERC20/utils/SafeERC20.sol\":8573:8578  token */\n      dup9\n        /* \"@openzeppelin/contracts/token/ERC20/utils/SafeERC20.sol\":8566:8571  gas() */\n      gas\n        /* \"@openzeppelin/contracts/token/ERC20/utils/SafeERC20.sol\":8561:8621  call(gas(), token, 0, add(data, 0x20), mload(data), 0, 0x20) */\n      call\n        /* \"@openzeppelin/contracts/token/ERC20/utils/SafeERC20.sol\":8673:8680  success */\n      dup1\n        /* \"@openzeppelin/contracts/token/ERC20/utils/SafeERC20.sol\":8663:8839  if iszero(success) {... */\n      tag_312\n      jumpi\n        /* \"@openzeppelin/contracts/token/ERC20/utils/SafeERC20.sol\":8717:8721  0x40 */\n      0x40\n        /* \"@openzeppelin/contracts/token/ERC20/utils/SafeERC20.sol\":8711:8722  mload(0x40) */\n      mload\n        /* \"@openzeppelin/contracts/token/ERC20/utils/SafeERC20.sol\":8762:8778  returndatasize() */\n      returndatasize\n        /* \"@openzeppelin/contracts/token/ERC20/utils/SafeERC20.sol\":8759:8760  0 */\n      0x00\n        /* \"@openzeppelin/contracts/token/ERC20/utils/SafeERC20.sol\":8754:8757  ptr */\n      dup3\n        /* \"@openzeppelin/contracts/token/ERC20/utils/SafeERC20.sol\":8739:8779  returndatacopy(ptr, 0, returndatasize()) */\n      returndatacopy\n        /* \"@openzeppelin/contracts/token/ERC20/utils/SafeERC20.sol\":8808:8824  returndatasize() */\n      returndatasize\n        /* \"@openzeppelin/contracts/token/ERC20/utils/SafeERC20.sol\":8803:8806  ptr */\n      dup2\n        /* \"@openzeppelin/contracts/token/ERC20/utils/SafeERC20.sol\":8796:8825  revert(ptr, returndatasize()) */\n      revert\n        /* \"@openzeppelin/contracts/token/ERC20/utils/SafeERC20.sol\":8663:8839  if iszero(success) {... */\n    tag_312:\n      pop\n      pop\n        /* \"@openzeppelin/contracts/token/ERC20/utils/SafeERC20.sol\":8916:8917  0 */\n      0x00\n        /* \"@openzeppelin/contracts/token/ERC20/utils/SafeERC20.sol\":8910:8918  mload(0) */\n      mload\n        /* \"@openzeppelin/contracts/token/ERC20/utils/SafeERC20.sol\":8866:8882  returndatasize() */\n      returndatasize\n      swap2\n      pop\n        /* \"@openzeppelin/contracts/token/ERC20/utils/SafeERC20.sol\":8942:8957  returnSize == 0 */\n      dup2\n      iszero\n        /* \"@openzeppelin/contracts/token/ERC20/utils/SafeERC20.sol\":8942:9010  returnSize == 0 ? address(token).code.length == 0 : returnValue != 1 */\n      tag_313\n      jumpi\n        /* \"@openzeppelin/contracts/token/ERC20/utils/SafeERC20.sol\":8994:9005  returnValue */\n      dup1\n        /* \"@openzeppelin/contracts/token/ERC20/utils/SafeERC20.sol\":9009:9010  1 */\n      0x01\n        /* \"@openzeppelin/contracts/token/ERC20/utils/SafeERC20.sol\":8994:9010  returnValue != 1 */\n      eq\n      iszero\n        /* \"@openzeppelin/contracts/token/ERC20/utils/SafeERC20.sol\":8942:9010  returnSize == 0 ? address(token).code.length == 0 : returnValue != 1 */\n      jump(tag_314)\n    tag_313:\n      sub(shl(0xa0, 0x01), 0x01)\n        /* \"@openzeppelin/contracts/token/ERC20/utils/SafeERC20.sol\":8960:8986  address(token).code.length */\n      dup5\n      and\n      extcodesize\n        /* \"@openzeppelin/contracts/token/ERC20/utils/SafeERC20.sol\":8960:8991  address(token).code.length == 0 */\n      iszero\n        /* \"@openzeppelin/contracts/token/ERC20/utils/SafeERC20.sol\":8942:9010  returnSize == 0 ? address(token).code.length == 0 : returnValue != 1 */\n    tag_314:\n        /* \"@openzeppelin/contracts/token/ERC20/utils/SafeERC20.sol\":8938:9084  if (returnSize == 0 ? address(token).code.length == 0 : returnValue != 1) {... */\n      iszero\n      tag_308\n      jumpi\n        /* \"@openzeppelin/contracts/token/ERC20/utils/SafeERC20.sol\":9033:9073  SafeERC20FailedOperation(address(token)) */\n      mload(0x40)\n      0x5274afe700000000000000000000000000000000000000000000000000000000\n      dup2\n      mstore\n      sub(shl(0xa0, 0x01), 0x01)\n        /* \"#utility.yul\":605:660   */\n      dup6\n      and\n        /* \"@openzeppelin/contracts/token/ERC20/utils/SafeERC20.sol\":9033:9073  SafeERC20FailedOperation(address(token)) */\n      0x04\n      dup3\n      add\n        /* \"#utility.yul\":587:661   */\n      mstore\n        /* \"#utility.yul\":560:578   */\n      0x24\n      add\n        /* \"@openzeppelin/contracts/token/ERC20/utils/SafeERC20.sol\":9033:9073  SafeERC20FailedOperation(address(token)) */\n      tag_124\n        /* \"#utility.yul\":427:667   */\n      jump\n        /* \"#utility.yul\":196:422   */\n    tag_41:\n        /* \"#utility.yul\":255:261   */\n      0x00\n        /* \"#utility.yul\":308:310   */\n      0x20\n        /* \"#utility.yul\":296:305   */\n      dup3\n        /* \"#utility.yul\":287:294   */\n      dup5\n        /* \"#utility.yul\":283:306   */\n      sub\n        /* \"#utility.yul\":279:311   */\n      slt\n        /* \"#utility.yul\":276:328   */\n      iszero\n      tag_322\n      jumpi\n        /* \"#utility.yul\":324:325   */\n      0x00\n        /* \"#utility.yul\":321:322   */\n      0x00\n        /* \"#utility.yul\":314:326   */\n      revert\n        /* \"#utility.yul\":276:328   */\n    tag_322:\n      pop\n        /* \"#utility.yul\":369:392   */\n      calldataload\n      swap2\n        /* \"#utility.yul\":196:422   */\n      swap1\n      pop\n      jump\t// out\n        /* \"#utility.yul\":1308:1654   */\n    tag_70:\n        /* \"#utility.yul\":1376:1382   */\n      0x00\n        /* \"#utility.yul\":1384:1390   */\n      0x00\n        /* \"#utility.yul\":1437:1439   */\n      0x40\n        /* \"#utility.yul\":1425:1434   */\n      dup4\n        /* \"#utility.yul\":1416:1423   */\n      dup6\n        /* \"#utility.yul\":1412:1435   */\n      sub\n        /* \"#utility.yul\":1408:1440   */\n      slt\n        /* \"#utility.yul\":1405:1457   */\n      iszero\n      tag_328\n      jumpi\n        /* \"#utility.yul\":1453:1454   */\n      0x00\n        /* \"#utility.yul\":1450:1451   */\n      0x00\n        /* \"#utility.yul\":1443:1455   */\n      revert\n        /* \"#utility.yul\":1405:1457   */\n    tag_328:\n      pop\n      pop\n        /* \"#utility.yul\":1498:1521   */\n      dup1\n      calldataload\n      swap3\n        /* \"#utility.yul\":1618:1620   */\n      0x20\n        /* \"#utility.yul\":1603:1621   */\n      swap1\n      swap2\n      add\n        /* \"#utility.yul\":1590:1622   */\n      calldataload\n      swap2\n      pop\n        /* \"#utility.yul\":1308:1654   */\n      jump\t// out\n        /* \"#utility.yul\":1659:2269   */\n    tag_86:\n        /* \"#utility.yul\":1745:1751   */\n      0x00\n        /* \"#utility.yul\":1753:1759   */\n      0x00\n        /* \"#utility.yul\":1806:1808   */\n      0x20\n        /* \"#utility.yul\":1794:1803   */\n      dup4\n        /* \"#utility.yul\":1785:1792   */\n      dup6\n        /* \"#utility.yul\":1781:1804   */\n      sub\n        /* \"#utility.yul\":1777:1809   */\n      slt\n        /* \"#utility.yul\":1774:1826   */\n      iszero\n      tag_330\n      jumpi\n        /* \"#utility.yul\":1822:1823   */\n      0x00\n        /* \"#utility.yul\":1819:1820   */\n      0x00\n        /* \"#utility.yul\":1812:1824   */\n      revert\n        /* \"#utility.yul\":1774:1826   */\n    tag_330:\n        /* \"#utility.yul\":1862:1871   */\n      dup3\n        /* \"#utility.yul\":1849:1872   */\n      calldataload\n        /* \"#utility.yul\":1895:1913   */\n      0xffffffffffffffff\n        /* \"#utility.yul\":1887:1893   */\n      dup2\n        /* \"#utility.yul\":1884:1914   */\n      gt\n        /* \"#utility.yul\":1881:1931   */\n      iszero\n      tag_331\n      jumpi\n        /* \"#utility.yul\":1927:1928   */\n      0x00\n        /* \"#utility.yul\":1924:1925   */\n      0x00\n        /* \"#utility.yul\":1917:1929   */\n      revert\n        /* \"#utility.yul\":1881:1931   */\n    tag_331:\n        /* \"#utility.yul\":1950:1972   */\n      dup4\n      add\n        /* \"#utility.yul\":2003:2007   */\n      0x1f\n        /* \"#utility.yul\":1995:2008   */\n      dup2\n      add\n        /* \"#utility.yul\":1991:2018   */\n      dup6\n      sgt\n        /* \"#utility.yul\":1981:2036   */\n      tag_332\n      jumpi\n        /* \"#utility.yul\":2032:2033   */\n      0x00\n        /* \"#utility.yul\":2029:2030   */\n      0x00\n        /* \"#utility.yul\":2022:2034   */\n      revert\n        /* \"#utility.yul\":1981:2036   */\n    tag_332:\n        /* \"#utility.yul\":2072:2074   */\n      dup1\n        /* \"#utility.yul\":2059:2075   */\n      calldataload\n        /* \"#utility.yul\":2098:2116   */\n      0xffffffffffffffff\n        /* \"#utility.yul\":2090:2096   */\n      dup2\n        /* \"#utility.yul\":2087:2117   */\n      gt\n        /* \"#utility.yul\":2084:2134   */\n      iszero\n      tag_333\n      jumpi\n        /* \"#utility.yul\":2130:2131   */\n      0x00\n        /* \"#utility.yul\":2127:2128   */\n      0x00\n        /* \"#utility.yul\":2120:2132   */\n      revert\n        /* \"#utility.yul\":2084:2134   */\n    tag_333:\n        /* \"#utility.yul\":2183:2190   */\n      dup6\n        /* \"#utility.yul\":2178:2180   */\n      0x20\n        /* \"#utility.yul\":2168:2174   */\n      dup3\n        /* \"#utility.yul\":2165:2166   */\n      0x05\n        /* \"#utility.yul\":2161:2175   */\n      shl\n        /* \"#utility.yul\":2157:2159   */\n      dup5\n        /* \"#utility.yul\":2153:2176   */\n      add\n        /* \"#utility.yul\":2149:2181   */\n      add\n        /* \"#utility.yul\":2146:2191   */\n      gt\n        /* \"#utility.yul\":2143:2208   */\n      iszero\n      tag_334\n      jumpi\n        /* \"#utility.yul\":2204:2205   */\n      0x00\n        /* \"#utility.yul\":2201:2202   */\n      0x00\n        /* \"#utility.yul\":2194:2206   */\n      revert\n        /* \"#utility.yul\":2143:2208   */\n    tag_334:\n        /* \"#utility.yul\":2235:2237   */\n      0x20\n        /* \"#utility.yul\":2227:2238   */\n      swap2\n      swap1\n      swap2\n      add\n      swap6\n        /* \"#utility.yul\":2257:2263   */\n      swap1\n      swap5\n      pop\n        /* \"#utility.yul\":1659:2269   */\n      swap3\n      pop\n      pop\n      pop\n      jump\t// out\n        /* \"#utility.yul\":2719:2915   */\n    tag_317:\n        /* \"#utility.yul\":2787:2807   */\n      dup1\n      calldataload\n      sub(shl(0xa0, 0x01), 0x01)\n        /* \"#utility.yul\":2836:2890   */\n      dup2\n      and\n        /* \"#utility.yul\":2826:2891   */\n      dup2\n      eq\n        /* \"#utility.yul\":2816:2909   */\n      tag_337\n      jumpi\n        /* \"#utility.yul\":2905:2906   */\n      0x00\n        /* \"#utility.yul\":2902:2903   */\n      0x00\n        /* \"#utility.yul\":2895:2907   */\n      revert\n        /* \"#utility.yul\":2816:2909   */\n    tag_337:\n        /* \"#utility.yul\":2719:2915   */\n      swap2\n      swap1\n      pop\n      jump\t// out\n        /* \"#utility.yul\":2920:3220   */\n    tag_105:\n        /* \"#utility.yul\":2988:2994   */\n      0x00\n        /* \"#utility.yul\":2996:3002   */\n      0x00\n        /* \"#utility.yul\":3049:3051   */\n      0x40\n        /* \"#utility.yul\":3037:3046   */\n      dup4\n        /* \"#utility.yul\":3028:3035   */\n      dup6\n        /* \"#utility.yul\":3024:3047   */\n      sub\n        /* \"#utility.yul\":3020:3052   */\n      slt\n        /* \"#utility.yul\":3017:3069   */\n      iszero\n      tag_339\n      jumpi\n        /* \"#utility.yul\":3065:3066   */\n      0x00\n        /* \"#utility.yul\":3062:3063   */\n      0x00\n        /* \"#utility.yul\":3055:3067   */\n      revert\n        /* \"#utility.yul\":3017:3069   */\n    tag_339:\n        /* \"#utility.yul\":3088:3117   */\n      tag_340\n        /* \"#utility.yul\":3107:3116   */\n      dup4\n        /* \"#utility.yul\":3088:3117   */\n      tag_317\n      jump\t// in\n    tag_340:\n        /* \"#utility.yul\":3078:3117   */\n      swap5\n        /* \"#utility.yul\":3186:3188   */\n      0x20\n        /* \"#utility.yul\":3171:3189   */\n      swap4\n      swap1\n      swap4\n      add\n        /* \"#utility.yul\":3158:3190   */\n      calldataload\n      swap4\n      pop\n      pop\n      pop\n        /* \"#utility.yul\":2920:3220   */\n      jump\t// out\n        /* \"#utility.yul\":3225:3637   */\n    tag_109:\n        /* \"#utility.yul\":3292:3298   */\n      0x00\n        /* \"#utility.yul\":3300:3306   */\n      0x00\n        /* \"#utility.yul\":3353:3355   */\n      0x40\n        /* \"#utility.yul\":3341:3350   */\n      dup4\n        /* \"#utility.yul\":3332:3339   */\n      dup6\n        /* \"#utility.yul\":3328:3351   */\n      sub\n        /* \"#utility.yul\":3324:3356   */\n      slt\n        /* \"#utility.yul\":3321:3373   */\n      iszero\n      tag_342\n      jumpi\n        /* \"#utility.yul\":3369:3370   */\n      0x00\n        /* \"#utility.yul\":3366:3367   */\n      0x00\n        /* \"#utility.yul\":3359:3371   */\n      revert\n        /* \"#utility.yul\":3321:3373   */\n    tag_342:\n        /* \"#utility.yul\":3408:3417   */\n      dup3\n        /* \"#utility.yul\":3395:3418   */\n      calldataload\n      sub(shl(0x60, 0x01), 0x01)\n        /* \"#utility.yul\":3451:3456   */\n      dup2\n        /* \"#utility.yul\":3447:3485   */\n      and\n        /* \"#utility.yul\":3440:3445   */\n      dup2\n        /* \"#utility.yul\":3437:3486   */\n      eq\n        /* \"#utility.yul\":3427:3504   */\n      tag_340\n      jumpi\n        /* \"#utility.yul\":3500:3501   */\n      0x00\n        /* \"#utility.yul\":3497:3498   */\n      0x00\n        /* \"#utility.yul\":3490:3502   */\n      revert\n        /* \"#utility.yul\":3895:4081   */\n    tag_115:\n        /* \"#utility.yul\":3954:3960   */\n      0x00\n        /* \"#utility.yul\":4007:4009   */\n      0x20\n        /* \"#utility.yul\":3995:4004   */\n      dup3\n        /* \"#utility.yul\":3986:3993   */\n      dup5\n        /* \"#utility.yul\":3982:4005   */\n      sub\n        /* \"#utility.yul\":3978:4010   */\n      slt\n        /* \"#utility.yul\":3975:4027   */\n      iszero\n      tag_346\n      jumpi\n        /* \"#utility.yul\":4023:4024   */\n      0x00\n        /* \"#utility.yul\":4020:4021   */\n      0x00\n        /* \"#utility.yul\":4013:4025   */\n      revert\n        /* \"#utility.yul\":3975:4027   */\n    tag_346:\n        /* \"#utility.yul\":4046:4075   */\n      tag_347\n        /* \"#utility.yul\":4065:4074   */\n      dup3\n        /* \"#utility.yul\":4046:4075   */\n      tag_317\n      jump\t// in\n    tag_347:\n        /* \"#utility.yul\":4036:4075   */\n      swap4\n        /* \"#utility.yul\":3895:4081   */\n      swap3\n      pop\n      pop\n      pop\n      jump\t// out\n        /* \"#utility.yul\":5564:5748   */\n    tag_318:\n      shl(0xe0, 0x4e487b71)\n        /* \"#utility.yul\":5613:5614   */\n      0x00\n        /* \"#utility.yul\":5606:5694   */\n      mstore\n        /* \"#utility.yul\":5713:5717   */\n      0x11\n        /* \"#utility.yul\":5710:5711   */\n      0x04\n        /* \"#utility.yul\":5703:5718   */\n      mstore\n        /* \"#utility.yul\":5737:5741   */\n      0x24\n        /* \"#utility.yul\":5734:5735   */\n      0x00\n        /* \"#utility.yul\":5727:5742   */\n      revert\n        /* \"#utility.yul\":5753:5881   */\n    tag_144:\n        /* \"#utility.yul\":5820:5829   */\n      dup2\n      dup2\n      sub\n        /* \"#utility.yul\":5841:5852   */\n      dup2\n      dup2\n      gt\n        /* \"#utility.yul\":5838:5875   */\n      iszero\n      tag_355\n      jumpi\n        /* \"#utility.yul\":5855:5873   */\n      tag_355\n      tag_318\n      jump\t// in\n    tag_355:\n        /* \"#utility.yul\":5753:5881   */\n      swap3\n      swap2\n      pop\n      pop\n      jump\t// out\n        /* \"#utility.yul\":7004:7278   */\n    tag_178:\n        /* \"#utility.yul\":7044:7045   */\n      0x00\n        /* \"#utility.yul\":7070:7071   */\n      dup3\n        /* \"#utility.yul\":7060:7249   */\n      tag_360\n      jumpi\n      shl(0xe0, 0x4e487b71)\n        /* \"#utility.yul\":7102:7103   */\n      0x00\n        /* \"#utility.yul\":7095:7183   */\n      mstore\n        /* \"#utility.yul\":7206:7210   */\n      0x12\n        /* \"#utility.yul\":7203:7204   */\n      0x04\n        /* \"#utility.yul\":7196:7211   */\n      mstore\n        /* \"#utility.yul\":7234:7238   */\n      0x24\n        /* \"#utility.yul\":7231:7232   */\n      0x00\n        /* \"#utility.yul\":7224:7239   */\n      revert\n        /* \"#utility.yul\":7060:7249   */\n    tag_360:\n      pop\n        /* \"#utility.yul\":7263:7272   */\n      div\n      swap1\n        /* \"#utility.yul\":7004:7278   */\n      jump\t// out\n        /* \"#utility.yul\":7283:7408   */\n    tag_180:\n        /* \"#utility.yul\":7348:7357   */\n      dup1\n      dup3\n      add\n        /* \"#utility.yul\":7369:7379   */\n      dup1\n      dup3\n      gt\n        /* \"#utility.yul\":7366:7402   */\n      iszero\n      tag_355\n      jumpi\n        /* \"#utility.yul\":7382:7400   */\n      tag_355\n      tag_318\n      jump\t// in\n        /* \"#utility.yul\":7413:7597   */\n    tag_189:\n      shl(0xe0, 0x4e487b71)\n        /* \"#utility.yul\":7462:7463   */\n      0x00\n        /* \"#utility.yul\":7455:7543   */\n      mstore\n        /* \"#utility.yul\":7562:7566   */\n      0x32\n        /* \"#utility.yul\":7559:7560   */\n      0x04\n        /* \"#utility.yul\":7552:7567   */\n      mstore\n        /* \"#utility.yul\":7586:7590   */\n      0x24\n        /* \"#utility.yul\":7583:7584   */\n      0x00\n        /* \"#utility.yul\":7576:7591   */\n      revert\n        /* \"#utility.yul\":7957:8125   */\n    tag_229:\n        /* \"#utility.yul\":8030:8039   */\n      dup1\n      dup3\n      mul\n        /* \"#utility.yul\":8061:8070   */\n      dup2\n      iszero\n        /* \"#utility.yul\":8078:8093   */\n      dup3\n      dup3\n      div\n        /* \"#utility.yul\":8072:8094   */\n      dup5\n      eq\n        /* \"#utility.yul\":8058:8095   */\n      or\n        /* \"#utility.yul\":8048:8119   */\n      tag_355\n      jumpi\n        /* \"#utility.yul\":8099:8117   */\n      tag_355\n      tag_318\n      jump\t// in\n        /* \"#utility.yul\":8130:8314   */\n    tag_258:\n        /* \"#utility.yul\":8200:8206   */\n      0x00\n        /* \"#utility.yul\":8253:8255   */\n      0x20\n        /* \"#utility.yul\":8241:8250   */\n      dup3\n        /* \"#utility.yul\":8232:8239   */\n      dup5\n        /* \"#utility.yul\":8228:8251   */\n      sub\n        /* \"#utility.yul\":8224:8256   */\n      slt\n        /* \"#utility.yul\":8221:8273   */\n      iszero\n      tag_370\n      jumpi\n        /* \"#utility.yul\":8269:8270   */\n      0x00\n        /* \"#utility.yul\":8266:8267   */\n      0x00\n        /* \"#utility.yul\":8259:8271   */\n      revert\n        /* \"#utility.yul\":8221:8273   */\n    tag_370:\n      pop\n        /* \"#utility.yul\":8292:8308   */\n      mload\n      swap2\n        /* \"#utility.yul\":8130:8314   */\n      swap1\n      pop\n      jump\t// out\n        /* \"#utility.yul\":9437:9652   */\n    tag_277:\n      sub(shl(0x60, 0x01), 0x01)\n        /* \"#utility.yul\":9505:9539   */\n      dup2\n      dup2\n      and\n        /* \"#utility.yul\":9541:9575   */\n      dup4\n      dup3\n      and\n        /* \"#utility.yul\":9501:9576   */\n      add\n      swap1\n        /* \"#utility.yul\":9588:9623   */\n      dup2\n      gt\n        /* \"#utility.yul\":9585:9646   */\n      iszero\n      tag_355\n      jumpi\n        /* \"#utility.yul\":9626:9644   */\n      tag_355\n      tag_318\n      jump\t// in\n        /* \"#utility.yul\":10084:10219   */\n    tag_286:\n        /* \"#utility.yul\":10123:10126   */\n      0x00\n        /* \"#utility.yul\":10144:10161   */\n      0x01\n      dup3\n      add\n        /* \"#utility.yul\":10141:10184   */\n      tag_380\n      jumpi\n        /* \"#utility.yul\":10164:10182   */\n      tag_380\n      tag_318\n      jump\t// in\n    tag_380:\n      pop\n        /* \"#utility.yul\":10211:10212   */\n      0x01\n        /* \"#utility.yul\":10200:10213   */\n      add\n      swap1\n        /* \"#utility.yul\":10084:10219   */\n      jump\t// out\n\n    auxdata: 0xa264697066735822122091bc69a6575ed327f6f7caba51903e66c7cb77b90249b3315e8c5fa69a83164764736f6c634300081e0033\n}\n",
				"bytecode": {
					"linkReferences": {},
					"object": "6101006040525f805460ff60a01b1916815560016002556003819055600455348015610029575f5ffd5b506040516119b33803806119b383398101604081905261004891610101565b338061006d57604051631e4fbdf760e01b81525f600482015260240160405180910390fd5b61007681610097565b506001600160a01b0393841660c0529190921660e05260a052608052610141565b5f80546001600160a01b038381166001600160a01b0319831681178455604051919092169283917f8be0079c531659141344cd1fd0a4f28419497f9722a3daafe3b4186f6b6457e09190a35050565b80516001600160a01b03811681146100fc575f5ffd5b919050565b5f5f5f5f60808587031215610114575f5ffd5b61011d856100e6565b935061012b602086016100e6565b6040860151606090960151949790965092505050565b60805160a05160c05160e0516117ba6101f95f395f818161024b015281816102cb015281816105fb01528181610ba901528181610f65015261103101525f81816101e4015281816103750152818161083801528181610b0f01526111d101525f8181610197015281816108ef01528181610cd101528181610d0501528181610da101528181610e250152610eb101525f81816108ce01528181610d3801528181610d7701528181610dfb0152610e8701526117ba5ff3fe608060405234801561000f575f5ffd5b5060043610610184575f3560e01c8063af7568dd116100dd578063ce325bf811610088578063d6ef7af011610063578063d6ef7af014610399578063d93c04a0146103ac578063f2fde38b146103d4575f5ffd5b8063ce325bf814610323578063d2d7231f14610360578063d46149a214610373575f5ffd5b8063b6baffe3116100b8578063b6baffe3146102f5578063bc854352146102fd578063beceed3914610310575f5ffd5b8063af7568dd146102bd578063b109beec146102c6578063b5fa91fe146102ed575f5ffd5b806375f12b211161013d5780638e12c0cd116101185780638e12c0cd1461027f5780638f4729b7146102a1578063ac00500f146102aa575f5ffd5b806375f12b21146102265780637c2fdeb5146102495780638da5cb5b1461026f575f5ffd5b8063379607f51161016d578063379607f5146101cc5780636db08f25146101df578063715018a61461021e575f5ffd5b806307da68f514610188578063109cf39914610192575b5f5ffd5b6101906103e7565b005b6101b97f000000000000000000000000000000000000000000000000000000000000000081565b6040519081526020015b60405180910390f35b6101b96101da36600461157a565b610445565b6102067f000000000000000000000000000000000000000000000000000000000000000081565b6040516001600160a01b0390911681526020016101c3565b610190610681565b5f5461023990600160a01b900460ff1681565b60405190151581526020016101c3565b7f0000000000000000000000000000000000000000000000000000000000000000610206565b5f546001600160a01b0316610206565b61028962ed4e0081565b6040516001600160601b0390911681526020016101c3565b6101b960045481565b6101906102b8366004611591565b610694565b6101b960035481565b6102067f000000000000000000000000000000000000000000000000000000000000000081565b6101b96108b6565b6101b96108cb565b61019061030b3660046115b1565b610925565b61019061031e36600461157a565b610b43565b61033661033136600461157a565b610c0f565b604080516001600160a01b03909516855260208501939093529183015260608201526080016101c3565b6101b961036e36600461157a565b610cb0565b7f0000000000000000000000000000000000000000000000000000000000000000610206565b6101906103a736600461163d565b610f22565b6103bf6103ba366004611665565b61109f565b604080519283526020830191909152016101c3565b6101906103e236600461168c565b611340565b6103ef611396565b5f80547fffffffffffffffffffffff00ffffffffffffffffffffffffffffffffffffffff16600160a01b1781556040517f7acc84e34091ae817647a4c49116f5cc07f319078ba80f8f5fde37ea7e25cbd69190a1565b5f815f81118015610457575060025481105b6104a85760405162461bcd60e51b815260206004820152601960248201527f4d6f64756c65583a496e76616c6964205374616b65204944210000000000000060448201526064015b60405180910390fd5b5f83815260016020526040902080546001600160a01b0316331461050e5760405162461bcd60e51b815260206004820152601f60248201527f4d6f64756c65583a43616c6c6572206973206e6f7420746865206f776e657200604482015260640161049f565b8054600160a01b90046001600160601b0316426001600160601b0316101561059e5760405162461bcd60e51b815260206004820152602a60248201527f4d6f64756c65583a4561726c79205769746864726177616c206973206e6f742060448201527f7065726d69747465642100000000000000000000000000000000000000000000606482015260840161049f565b5f8160020154116105f15760405162461bcd60e51b815260206004820152601860248201527f4d6f64756c65583a4e6f7468696e6720746f20636c61696d0000000000000000604482015260640161049f565b600281015461062a7f00000000000000000000000000000000000000000000000000000000000000006001600160a01b031633836113db565b8060045f82825461063b91906116c0565b90915550505f60028301556040518581527f67bb155fcabb99400c32b640dc7704c8f18aae4c817704c7267c5a8cd26dfc199060200160405180910390a1949350505050565b610689611396565b6106925f61144f565b565b61069c611396565b815f811180156106ad575060025481105b6106f95760405162461bcd60e51b815260206004820152601960248201527f4d6f64756c65583a496e76616c6964205374616b652049442100000000000000604482015260640161049f565b5f821161075a5760405162461bcd60e51b815260206004820152602960248201527f4d6f64756c65583a616d6f756e74206d7573742062652067726561746572207460448201526868616e207a65726f2160b81b606482015260840161049f565b5f8381526001602052604090208054600160a01b90046001600160601b0316426001600160601b031611156107d15760405162461bcd60e51b815260206004820152601560248201527f4d6f64756c65583a4275726e7420746f6b656e73210000000000000000000000604482015260640161049f565b80600101548311156108255760405162461bcd60e51b815260206004820152601d60248201527f4d6f64756c65583a496e73756666696369656e742062616c616e636521000000604482015260640161049f565b61085f3360018301546001600160a01b037f00000000000000000000000000000000000000000000000000000000000000001691906113db565b82816001015f82825461087291906116c0565b909155505060408051858152602081018590527f03a00e6132085cbc9ea18899cd135ef9cad5d305d58506e08e7b1a9b96199a9c910160405180910390a150505050565b5f60016002546108c691906116c0565b905090565b5f7f00000000000000000000000000000000000000000000000000000000000000007f000000000000000000000000000000000000000000000000000000000000000060035461091b91906116d9565b6108c691906116f8565b61092d611396565b5f805b82811015610aba5760025484848381811061094d5761094d61170b565b90506020020135106109a15760405162461bcd60e51b815260206004820152601960248201527f4d6f64756c65583a496e76616c6964205374616b652049442100000000000000604482015260640161049f565b5f60015f8686858181106109b7576109b761170b565b602090810292909201358352508101919091526040015f208054909150600160a01b90046001600160601b0316426001600160601b03161115610a3c5760405162461bcd60e51b815260206004820152601560248201527f4d6f64756c65583a4275726e7420746f6b656e73210000000000000000000000604482015260640161049f565b6001810154610a4b90846116f8565b5f600183015592507f03a00e6132085cbc9ea18899cd135ef9cad5d305d58506e08e7b1a9b96199a9c858584818110610a8657610a8661170b565b905060200201358260010154604051610aa9929190918252602082015260400190565b60405180910390a150600101610930565b505f8111610b0a5760405162461bcd60e51b815260206004820152601a60248201527f4d6f64756c65583a546f74616c20616d6f756e74206973203021000000000000604482015260640161049f565b610b3e7f00000000000000000000000000000000000000000000000000000000000000006001600160a01b031633836113db565b505050565b5f8111610ba45760405162461bcd60e51b815260206004820152602960248201527f4d6f64756c65583a616d6f756e74206d7573742062652067726561746572207460448201526868616e207a65726f2160b81b606482015260840161049f565b610bd97f00000000000000000000000000000000000000000000000000000000000000006001600160a01b03163330846114b6565b6040518181527fde88a922e0d3b88b24e9623efeb464919c6bf9f66857a65e2bfcf2ce87a9433d9060200160405180910390a150565b5f5f5f5f845f81118015610c24575060025481105b610c705760405162461bcd60e51b815260206004820152601960248201527f4d6f64756c65583a496e76616c6964205374616b652049442100000000000000604482015260640161049f565b5050505f92835250506001602081905260409091208054918101546002909101546001600160a01b03831693600160a01b9093046001600160601b031692565b5f5f670de0b6b3a764000090505f83600354610ccc91906116f8565b90505f7f0000000000000000000000000000000000000000000000000000000000000000600354610cfd91906116d9565b90505f610d2a7f0000000000000000000000000000000000000000000000000000000000000000846116d9565b9050808203610d7157610d5d7f0000000000000000000000000000000000000000000000000000000000000000836116f8565b610d6790876116d9565b9695505050505050565b5f610d9c7f0000000000000000000000000000000000000000000000000000000000000000846116f8565b6003547f0000000000000000000000000000000000000000000000000000000000000000610dcb8660016116f8565b610dd5919061171f565b610ddf91906116c0565b610de9908761171f565b610df391906116d9565b90505f610e207f0000000000000000000000000000000000000000000000000000000000000000846116f8565b610e4a7f00000000000000000000000000000000000000000000000000000000000000008561171f565b610e5490876116c0565b610e5e908861171f565b610e6891906116d9565b90505f80610e778660016116f8565b90505b84811015610ef457610eac7f0000000000000000000000000000000000000000000000000000000000000000826116f8565b610ed67f00000000000000000000000000000000000000000000000000000000000000008a61171f565b610ee091906116d9565b610eea90836116f8565b9150600101610e7a565b508682610f0183866116f8565b610f0b91906116f8565b610f1591906116d9565b9998505050505050505050565b610f2a611396565b600454610f3790826116f8565b6040517f70a082310000000000000000000000000000000000000000000000000000000081523060048201527f00000000000000000000000000000000000000000000000000000000000000006001600160a01b0316906370a0823190602401602060405180830381865afa158015610fb2573d5f5f3e3d5ffd5b505050506040513d601f19601f82011682018060405250810190610fd69190611736565b10156110245760405162461bcd60e51b815260206004820152601d60248201527f4d6f64756c65583a496e73756666696369656e742062616c616e636521000000604482015260640161049f565b6110586001600160a01b037f00000000000000000000000000000000000000000000000000000000000000001683836113db565b816001600160a01b03167f1d3eee4ca001cff39eec6ec7615aacf2f2bd61791273830728ba00ccbd6e13378260405161109391815260200190565b60405180910390a25050565b5f80548190600160a01b900460ff16156110fb5760405162461bcd60e51b815260206004820152601060248201527f4d6f64756c65583a53544f505045442100000000000000000000000000000000604482015260640161049f565b5f83116111705760405162461bcd60e51b815260206004820152602c60248201527f4d6f64756c65583a5374616b6520616d6f756e74206d7573742062652067726560448201527f61746572207468616e2030210000000000000000000000000000000000000000606482015260840161049f565b62ed4e006001600160601b03851610156111cc5760405162461bcd60e51b815260206004820152601f60248201527f4d6f64756c65583a557365206c6f6e676572206c6f636b5f706572696f642100604482015260640161049f565b6112017f00000000000000000000000000000000000000000000000000000000000000006001600160a01b03163330866114b6565b5f61120c854261174d565b90505f61121885610cb0565b90505f600254905060405180608001604052806112323390565b6001600160a01b0390811682526001600160601b0386811660208085019190915260408085018c905260609485018890525f878152600180845282822088519489015194909616600160a01b9490951693909302939093178455850151908301559290910151600290910155600380548892906112b09084906116f8565b925050819055508160045f8282546112c891906116f8565b9091555050604080518281526001600160601b038516602082015280820188905260608101849052905133917f24fe2d25c10eb2c67b5ac1e3edbcadc94191e154ed388ad667a9480c44f47146919081900360800190a260028054905f61132e8361176c565b90915550909791965090945050505050565b611348611396565b6001600160a01b03811661138a576040517f1e4fbdf70000000000000000000000000000000000000000000000000000000081525f600482015260240161049f565b6113938161144f565b50565b5f546001600160a01b03163314610692576040517f118cdaa700000000000000000000000000000000000000000000000000000000815233600482015260240161049f565b6040516001600160a01b03838116602483015260448201839052610b3e91859182169063a9059cbb906064015b604051602081830303815290604052915060e01b6020820180517bffffffffffffffffffffffffffffffffffffffffffffffffffffffff83818316178352505050506114f5565b5f80546001600160a01b038381167fffffffffffffffffffffffff0000000000000000000000000000000000000000831681178455604051919092169283917f8be0079c531659141344cd1fd0a4f28419497f9722a3daafe3b4186f6b6457e09190a35050565b6040516001600160a01b0384811660248301528381166044830152606482018390526114ef9186918216906323b872dd90608401611408565b50505050565b5f5f60205f8451602086015f885af180611514576040513d5f823e3d81fd5b50505f513d9150811561152b578060011415611538565b6001600160a01b0384163b155b156114ef576040517f5274afe70000000000000000000000000000000000000000000000000000000081526001600160a01b038516600482015260240161049f565b5f6020828403121561158a575f5ffd5b5035919050565b5f5f604083850312156115a2575f5ffd5b50508035926020909101359150565b5f5f602083850312156115c2575f5ffd5b823567ffffffffffffffff8111156115d8575f5ffd5b8301601f810185136115e8575f5ffd5b803567ffffffffffffffff8111156115fe575f5ffd5b8560208260051b8401011115611612575f5ffd5b6020919091019590945092505050565b80356001600160a01b0381168114611638575f5ffd5b919050565b5f5f6040838503121561164e575f5ffd5b61165783611622565b946020939093013593505050565b5f5f60408385031215611676575f5ffd5b82356001600160601b0381168114611657575f5ffd5b5f6020828403121561169c575f5ffd5b6116a582611622565b9392505050565b634e487b7160e01b5f52601160045260245ffd5b818103818111156116d3576116d36116ac565b92915050565b5f826116f357634e487b7160e01b5f52601260045260245ffd5b500490565b808201808211156116d3576116d36116ac565b634e487b7160e01b5f52603260045260245ffd5b80820281158282048414176116d3576116d36116ac565b5f60208284031215611746575f5ffd5b5051919050565b6001600160601b0381811683821601908111156116d3576116d36116ac565b5f6001820161177d5761177d6116ac565b506001019056fea264697066735822122091bc69a6575ed327f6f7caba51903e66c7cb77b90249b3315e8c5fa69a83164764736f6c634300081e0033",
					"opcodes": "PUSH2 0x100 PUSH1 0x40 MSTORE PUSH0 DUP1 SLOAD PUSH1 0xFF PUSH1 0xA0 SHL NOT AND DUP2 SSTORE PUSH1 0x1 PUSH1 0x2 SSTORE PUSH1 0x3 DUP2 SWAP1 SSTORE PUSH1 0x4 SSTORE CALLVALUE DUP1 ISZERO PUSH2 0x29 JUMPI PUSH0 PUSH0 REVERT JUMPDEST POP PUSH1 0x40 MLOAD PUSH2 0x19B3 CODESIZE SUB DUP1 PUSH2 0x19B3 DUP4 CODECOPY DUP2 ADD PUSH1 0x40 DUP2 SWAP1 MSTORE PUSH2 0x48 SWAP2 PUSH2 0x101 JUMP JUMPDEST CALLER DUP1 PUSH2 0x6D JUMPI PUSH1 0x40 MLOAD PUSH4 0x1E4FBDF7 PUSH1 0xE0 SHL DUP2 MSTORE PUSH0 PUSH1 0x4 DUP3 ADD MSTORE PUSH1 0x24 ADD PUSH1 0x40 MLOAD DUP1 SWAP2 SUB SWAP1 REVERT JUMPDEST PUSH2 0x76 DUP2 PUSH2 0x97 JUMP JUMPDEST POP PUSH1 0x1 PUSH1 0x1 PUSH1 0xA0 SHL SUB SWAP4 DUP5 AND PUSH1 0xC0 MSTORE SWAP2 SWAP1 SWAP3 AND PUSH1 0xE0 MSTORE PUSH1 0xA0 MSTORE PUSH1 0x80 MSTORE PUSH2 0x141 JUMP JUMPDEST PUSH0 DUP1 SLOAD PUSH1 0x1 PUSH1 0x1 PUSH1 0xA0 SHL SUB DUP4 DUP2 AND PUSH1 0x1 PUSH1 0x1 PUSH1 0xA0 SHL SUB NOT DUP4 AND DUP2 OR DUP5 SSTORE PUSH1 0x40 MLOAD SWAP2 SWAP1 SWAP3 AND SWAP3 DUP4 SWAP2 PUSH32 0x8BE0079C531659141344CD1FD0A4F28419497F9722A3DAAFE3B4186F6B6457E0 SWAP2 SWAP1 LOG3 POP POP JUMP JUMPDEST DUP1 MLOAD PUSH1 0x1 PUSH1 0x1 PUSH1 0xA0 SHL SUB DUP2 AND DUP2 EQ PUSH2 0xFC JUMPI PUSH0 PUSH0 REVERT JUMPDEST SWAP2 SWAP1 POP JUMP JUMPDEST PUSH0 PUSH0 PUSH0 PUSH0 PUSH1 0x80 DUP6 DUP8 SUB SLT ISZERO PUSH2 0x114 JUMPI PUSH0 PUSH0 REVERT JUMPDEST PUSH2 0x11D DUP6 PUSH2 0xE6 JUMP JUMPDEST SWAP4 POP PUSH2 0x12B PUSH1 0x20 DUP7 ADD PUSH2 0xE6 JUMP JUMPDEST PUSH1 0x40 DUP7 ADD MLOAD PUSH1 0x60 SWAP1 SWAP7 ADD MLOAD SWAP5 SWAP8 SWAP1 SWAP7 POP SWAP3 POP POP POP JUMP JUMPDEST PUSH1 0x80 MLOAD PUSH1 0xA0 MLOAD PUSH1 0xC0 MLOAD PUSH1 0xE0 MLOAD PUSH2 0x17BA PUSH2 0x1F9 PUSH0 CODECOPY PUSH0 DUP2 DUP2 PUSH2 0x24B ADD MSTORE DUP2 DUP2 PUSH2 0x2CB ADD MSTORE DUP2 DUP2 PUSH2 0x5FB ADD MSTORE DUP2 DUP2 PUSH2 0xBA9 ADD MSTORE DUP2 DUP2 PUSH2 0xF65 ADD MSTORE PUSH2 0x1031 ADD MSTORE PUSH0 DUP2 DUP2 PUSH2 0x1E4 ADD MSTORE DUP2 DUP2 PUSH2 0x375 ADD MSTORE DUP2 DUP2 PUSH2 0x838 ADD MSTORE DUP2 DUP2 PUSH2 0xB0F ADD MSTORE PUSH2 0x11D1 ADD MSTORE PUSH0 DUP2 DUP2 PUSH2 0x197 ADD MSTORE DUP2 DUP2 PUSH2 0x8EF ADD MSTORE DUP2 DUP2 PUSH2 0xCD1 ADD MSTORE DUP2 DUP2 PUSH2 0xD05 ADD MSTORE DUP2 DUP2 PUSH2 0xDA1 ADD MSTORE DUP2 DUP2 PUSH2 0xE25 ADD MSTORE PUSH2 0xEB1 ADD MSTORE PUSH0 DUP2 DUP2 PUSH2 0x8CE ADD MSTORE DUP2 DUP2 PUSH2 0xD38 ADD MSTORE DUP2 DUP2 PUSH2 0xD77 ADD MSTORE DUP2 DUP2 PUSH2 0xDFB ADD MSTORE PUSH2 0xE87 ADD MSTORE PUSH2 0x17BA PUSH0 RETURN INVALID PUSH1 0x80 PUSH1 0x40 MSTORE CALLVALUE DUP1 ISZERO PUSH2 0xF JUMPI PUSH0 PUSH0 REVERT JUMPDEST POP PUSH1 0x4 CALLDATASIZE LT PUSH2 0x184 JUMPI PUSH0 CALLDATALOAD PUSH1 0xE0 SHR DUP1 PUSH4 0xAF7568DD GT PUSH2 0xDD JUMPI DUP1 PUSH4 0xCE325BF8 GT PUSH2 0x88 JUMPI DUP1 PUSH4 0xD6EF7AF0 GT PUSH2 0x63 JUMPI DUP1 PUSH4 0xD6EF7AF0 EQ PUSH2 0x399 JUMPI DUP1 PUSH4 0xD93C04A0 EQ PUSH2 0x3AC JUMPI DUP1 PUSH4 0xF2FDE38B EQ PUSH2 0x3D4 JUMPI PUSH0 PUSH0 REVERT JUMPDEST DUP1 PUSH4 0xCE325BF8 EQ PUSH2 0x323 JUMPI DUP1 PUSH4 0xD2D7231F EQ PUSH2 0x360 JUMPI DUP1 PUSH4 0xD46149A2 EQ PUSH2 0x373 JUMPI PUSH0 PUSH0 REVERT JUMPDEST DUP1 PUSH4 0xB6BAFFE3 GT PUSH2 0xB8 JUMPI DUP1 PUSH4 0xB6BAFFE3 EQ PUSH2 0x2F5 JUMPI DUP1 PUSH4 0xBC854352 EQ PUSH2 0x2FD JUMPI DUP1 PUSH4 0xBECEED39 EQ PUSH2 0x310 JUMPI PUSH0 PUSH0 REVERT JUMPDEST DUP1 PUSH4 0xAF7568DD EQ PUSH2 0x2BD JUMPI DUP1 PUSH4 0xB109BEEC EQ PUSH2 0x2C6 JUMPI DUP1 PUSH4 0xB5FA91FE EQ PUSH2 0x2ED JUMPI PUSH0 PUSH0 REVERT JUMPDEST DUP1 PUSH4 0x75F12B21 GT PUSH2 0x13D JUMPI DUP1 PUSH4 0x8E12C0CD GT PUSH2 0x118 JUMPI DUP1 PUSH4 0x8E12C0CD EQ PUSH2 0x27F JUMPI DUP1 PUSH4 0x8F4729B7 EQ PUSH2 0x2A1 JUMPI DUP1 PUSH4 0xAC00500F EQ PUSH2 0x2AA JUMPI PUSH0 PUSH0 REVERT JUMPDEST DUP1 PUSH4 0x75F12B21 EQ PUSH2 0x226 JUMPI DUP1 PUSH4 0x7C2FDEB5 EQ PUSH2 0x249 JUMPI DUP1 PUSH4 0x8DA5CB5B EQ PUSH2 0x26F JUMPI PUSH0 PUSH0 REVERT JUMPDEST DUP1 PUSH4 0x379607F5 GT PUSH2 0x16D JUMPI DUP1 PUSH4 0x379607F5 EQ PUSH2 0x1CC JUMPI DUP1 PUSH4 0x6DB08F25 EQ PUSH2 0x1DF JUMPI DUP1 PUSH4 0x715018A6 EQ PUSH2 0x21E JUMPI PUSH0 PUSH0 REVERT JUMPDEST DUP1 PUSH4 0x7DA68F5 EQ PUSH2 0x188 JUMPI DUP1 PUSH4 0x109CF399 EQ PUSH2 0x192 JUMPI JUMPDEST PUSH0 PUSH0 REVERT JUMPDEST PUSH2 0x190 PUSH2 0x3E7 JUMP JUMPDEST STOP JUMPDEST PUSH2 0x1B9 PUSH32 0x0 DUP2 JUMP JUMPDEST PUSH1 0x40 MLOAD SWAP1 DUP2 MSTORE PUSH1 0x20 ADD JUMPDEST PUSH1 0x40 MLOAD DUP1 SWAP2 SUB SWAP1 RETURN JUMPDEST PUSH2 0x1B9 PUSH2 0x1DA CALLDATASIZE PUSH1 0x4 PUSH2 0x157A JUMP JUMPDEST PUSH2 0x445 JUMP JUMPDEST PUSH2 0x206 PUSH32 0x0 DUP2 JUMP JUMPDEST PUSH1 0x40 MLOAD PUSH1 0x1 PUSH1 0x1 PUSH1 0xA0 SHL SUB SWAP1 SWAP2 AND DUP2 MSTORE PUSH1 0x20 ADD PUSH2 0x1C3 JUMP JUMPDEST PUSH2 0x190 PUSH2 0x681 JUMP JUMPDEST PUSH0 SLOAD PUSH2 0x239 SWAP1 PUSH1 0x1 PUSH1 0xA0 SHL SWAP1 DIV PUSH1 0xFF AND DUP2 JUMP JUMPDEST PUSH1 0x40 MLOAD SWAP1 ISZERO ISZERO DUP2 MSTORE PUSH1 0x20 ADD PUSH2 0x1C3 JUMP JUMPDEST PUSH32 0x0 PUSH2 0x206 JUMP JUMPDEST PUSH0 SLOAD PUSH1 0x1 PUSH1 0x1 PUSH1 0xA0 SHL SUB AND PUSH2 0x206 JUMP JUMPDEST PUSH2 0x289 PUSH3 0xED4E00 DUP2 JUMP JUMPDEST PUSH1 0x40 MLOAD PUSH1 0x1 PUSH1 0x1 PUSH1 0x60 SHL SUB SWAP1 SWAP2 AND DUP2 MSTORE PUSH1 0x20 ADD PUSH2 0x1C3 JUMP JUMPDEST PUSH2 0x1B9 PUSH1 0x4 SLOAD DUP2 JUMP JUMPDEST PUSH2 0x190 PUSH2 0x2B8 CALLDATASIZE PUSH1 0x4 PUSH2 0x1591 JUMP JUMPDEST PUSH2 0x694 JUMP JUMPDEST PUSH2 0x1B9 PUSH1 0x3 SLOAD DUP2 JUMP JUMPDEST PUSH2 0x206 PUSH32 0x0 DUP2 JUMP JUMPDEST PUSH2 0x1B9 PUSH2 0x8B6 JUMP JUMPDEST PUSH2 0x1B9 PUSH2 0x8CB JUMP JUMPDEST PUSH2 0x190 PUSH2 0x30B CALLDATASIZE PUSH1 0x4 PUSH2 0x15B1 JUMP JUMPDEST PUSH2 0x925 JUMP JUMPDEST PUSH2 0x190 PUSH2 0x31E CALLDATASIZE PUSH1 0x4 PUSH2 0x157A JUMP JUMPDEST PUSH2 0xB43 JUMP JUMPDEST PUSH2 0x336 PUSH2 0x331 CALLDATASIZE PUSH1 0x4 PUSH2 0x157A JUMP JUMPDEST PUSH2 0xC0F JUMP JUMPDEST PUSH1 0x40 DUP1 MLOAD PUSH1 0x1 PUSH1 0x1 PUSH1 0xA0 SHL SUB SWAP1 SWAP6 AND DUP6 MSTORE PUSH1 0x20 DUP6 ADD SWAP4 SWAP1 SWAP4 MSTORE SWAP2 DUP4 ADD MSTORE PUSH1 0x60 DUP3 ADD MSTORE PUSH1 0x80 ADD PUSH2 0x1C3 JUMP JUMPDEST PUSH2 0x1B9 PUSH2 0x36E CALLDATASIZE PUSH1 0x4 PUSH2 0x157A JUMP JUMPDEST PUSH2 0xCB0 JUMP JUMPDEST PUSH32 0x0 PUSH2 0x206 JUMP JUMPDEST PUSH2 0x190 PUSH2 0x3A7 CALLDATASIZE PUSH1 0x4 PUSH2 0x163D JUMP JUMPDEST PUSH2 0xF22 JUMP JUMPDEST PUSH2 0x3BF PUSH2 0x3BA CALLDATASIZE PUSH1 0x4 PUSH2 0x1665 JUMP JUMPDEST PUSH2 0x109F JUMP JUMPDEST PUSH1 0x40 DUP1 MLOAD SWAP3 DUP4 MSTORE PUSH1 0x20 DUP4 ADD SWAP2 SWAP1 SWAP2 MSTORE ADD PUSH2 0x1C3 JUMP JUMPDEST PUSH2 0x190 PUSH2 0x3E2 CALLDATASIZE PUSH1 0x4 PUSH2 0x168C JUMP JUMPDEST PUSH2 0x1340 JUMP JUMPDEST PUSH2 0x3EF PUSH2 0x1396 JUMP JUMPDEST PUSH0 DUP1 SLOAD PUSH32 0xFFFFFFFFFFFFFFFFFFFFFF00FFFFFFFFFFFFFFFFFFFFFFFFFFFFFFFFFFFFFFFF AND PUSH1 0x1 PUSH1 0xA0 SHL OR DUP2 SSTORE PUSH1 0x40 MLOAD PUSH32 0x7ACC84E34091AE817647A4C49116F5CC07F319078BA80F8F5FDE37EA7E25CBD6 SWAP2 SWAP1 LOG1 JUMP JUMPDEST PUSH0 DUP2 PUSH0 DUP2 GT DUP1 ISZERO PUSH2 0x457 JUMPI POP PUSH1 0x2 SLOAD DUP2 LT JUMPDEST PUSH2 0x4A8 JUMPI PUSH1 0x40 MLOAD PUSH3 0x461BCD PUSH1 0xE5 SHL DUP2 MSTORE PUSH1 0x20 PUSH1 0x4 DUP3 ADD MSTORE PUSH1 0x19 PUSH1 0x24 DUP3 ADD MSTORE PUSH32 0x4D6F64756C65583A496E76616C6964205374616B652049442100000000000000 PUSH1 0x44 DUP3 ADD MSTORE PUSH1 0x64 ADD JUMPDEST PUSH1 0x40 MLOAD DUP1 SWAP2 SUB SWAP1 REVERT JUMPDEST PUSH0 DUP4 DUP2 MSTORE PUSH1 0x1 PUSH1 0x20 MSTORE PUSH1 0x40 SWAP1 KECCAK256 DUP1 SLOAD PUSH1 0x1 PUSH1 0x1 PUSH1 0xA0 SHL SUB AND CALLER EQ PUSH2 0x50E JUMPI PUSH1 0x40 MLOAD PUSH3 0x461BCD PUSH1 0xE5 SHL DUP2 MSTORE PUSH1 0x20 PUSH1 0x4 DUP3 ADD MSTORE PUSH1 0x1F PUSH1 0x24 DUP3 ADD MSTORE PUSH32 0x4D6F64756C65583A43616C6C6572206973206E6F7420746865206F776E657200 PUSH1 0x44 DUP3 ADD MSTORE PUSH1 0x64 ADD PUSH2 0x49F JUMP JUMPDEST DUP1 SLOAD PUSH1 0x1 PUSH1 0xA0 SHL SWAP1 DIV PUSH1 0x1 PUSH1 0x1 PUSH1 0x60 SHL SUB AND TIMESTAMP PUSH1 0x1 PUSH1 0x1 PUSH1 0x60 SHL SUB AND LT ISZERO PUSH2 0x59E JUMPI PUSH1 0x40 MLOAD PUSH3 0x461BCD PUSH1 0xE5 SHL DUP2 MSTORE PUSH1 0x20 PUSH1 0x4 DUP3 ADD MSTORE PUSH1 0x2A PUSH1 0x24 DUP3 ADD MSTORE PUSH32 0x4D6F64756C65583A4561726C79205769746864726177616C206973206E6F7420 PUSH1 0x44 DUP3 ADD MSTORE PUSH32 0x7065726D69747465642100000000000000000000000000000000000000000000 PUSH1 0x64 DUP3 ADD MSTORE PUSH1 0x84 ADD PUSH2 0x49F JUMP JUMPDEST PUSH0 DUP2 PUSH1 0x2 ADD SLOAD GT PUSH2 0x5F1 JUMPI PUSH1 0x40 MLOAD PUSH3 0x461BCD PUSH1 0xE5 SHL DUP2 MSTORE PUSH1 0x20 PUSH1 0x4 DUP3 ADD MSTORE PUSH1 0x18 PUSH1 0x24 DUP3 ADD MSTORE PUSH32 0x4D6F64756C65583A4E6F7468696E6720746F20636C61696D0000000000000000 PUSH1 0x44 DUP3 ADD MSTORE PUSH1 0x64 ADD PUSH2 0x49F JUMP JUMPDEST PUSH1 0x2 DUP2 ADD SLOAD PUSH2 0x62A PUSH32 0x0 PUSH1 0x1 PUSH1 0x1 PUSH1 0xA0 SHL SUB AND CALLER DUP4 PUSH2 0x13DB JUMP JUMPDEST DUP1 PUSH1 0x4 PUSH0 DUP3 DUP3 SLOAD PUSH2 0x63B SWAP2 SWAP1 PUSH2 0x16C0 JUMP JUMPDEST SWAP1 SWAP2 SSTORE POP POP PUSH0 PUSH1 0x2 DUP4 ADD SSTORE PUSH1 0x40 MLOAD DUP6 DUP2 MSTORE PUSH32 0x67BB155FCABB99400C32B640DC7704C8F18AAE4C817704C7267C5A8CD26DFC19 SWAP1 PUSH1 0x20 ADD PUSH1 0x40 MLOAD DUP1 SWAP2 SUB SWAP1 LOG1 SWAP5 SWAP4 POP POP POP POP JUMP JUMPDEST PUSH2 0x689 PUSH2 0x1396 JUMP JUMPDEST PUSH2 0x692 PUSH0 PUSH2 0x144F JUMP JUMPDEST JUMP JUMPDEST PUSH2 0x69C PUSH2 0x1396 JUMP JUMPDEST DUP2 PUSH0 DUP2 GT DUP1 ISZERO PUSH2 0x6AD JUMPI POP PUSH1 0x2 SLOAD DUP2 LT JUMPDEST PUSH2 0x6F9 JUMPI PUSH1 0x40 MLOAD PUSH3 0x461BCD PUSH1 0xE5 SHL DUP2 MSTORE PUSH1 0x20 PUSH1 0x4 DUP3 ADD MSTORE PUSH1 0x19 PUSH1 0x24 DUP3 ADD MSTORE PUSH32 0x4D6F64756C65583A496E76616C6964205374616B652049442100000000000000 PUSH1 0x44 DUP3 ADD MSTORE PUSH1 0x64 ADD PUSH2 0x49F JUMP JUMPDEST PUSH0 DUP3 GT PUSH2 0x75A JUMPI PUSH1 0x40 MLOAD PUSH3 0x461BCD PUSH1 0xE5 SHL DUP2 MSTORE PUSH1 0x20 PUSH1 0x4 DUP3 ADD MSTORE PUSH1 0x29 PUSH1 0x24 DUP3 ADD MSTORE PUSH32 0x4D6F64756C65583A616D6F756E74206D75737420626520677265617465722074 PUSH1 0x44 DUP3 ADD MSTORE PUSH9 0x68616E207A65726F21 PUSH1 0xB8 SHL PUSH1 0x64 DUP3 ADD MSTORE PUSH1 0x84 ADD PUSH2 0x49F JUMP JUMPDEST PUSH0 DUP4 DUP2 MSTORE PUSH1 0x1 PUSH1 0x20 MSTORE PUSH1 0x40 SWAP1 KECCAK256 DUP1 SLOAD PUSH1 0x1 PUSH1 0xA0 SHL SWAP1 DIV PUSH1 0x1 PUSH1 0x1 PUSH1 0x60 SHL SUB AND TIMESTAMP PUSH1 0x1 PUSH1 0x1 PUSH1 0x60 SHL SUB AND GT ISZERO PUSH2 0x7D1 JUMPI PUSH1 0x40 MLOAD PUSH3 0x461BCD PUSH1 0xE5 SHL DUP2 MSTORE PUSH1 0x20 PUSH1 0x4 DUP3 ADD MSTORE PUSH1 0x15 PUSH1 0x24 DUP3 ADD MSTORE PUSH32 0x4D6F64756C65583A4275726E7420746F6B656E73210000000000000000000000 PUSH1 0x44 DUP3 ADD MSTORE PUSH1 0x64 ADD PUSH2 0x49F JUMP JUMPDEST DUP1 PUSH1 0x1 ADD SLOAD DUP4 GT ISZERO PUSH2 0x825 JUMPI PUSH1 0x40 MLOAD PUSH3 0x461BCD PUSH1 0xE5 SHL DUP2 MSTORE PUSH1 0x20 PUSH1 0x4 DUP3 ADD MSTORE PUSH1 0x1D PUSH1 0x24 DUP3 ADD MSTORE PUSH32 0x4D6F64756C65583A496E73756666696369656E742062616C616E636521000000 PUSH1 0x44 DUP3 ADD MSTORE PUSH1 0x64 ADD PUSH2 0x49F JUMP JUMPDEST PUSH2 0x85F CALLER PUSH1 0x1 DUP4 ADD SLOAD PUSH1 0x1 PUSH1 0x1 PUSH1 0xA0 SHL SUB PUSH32 0x0 AND SWAP2 SWAP1 PUSH2 0x13DB JUMP JUMPDEST DUP3 DUP2 PUSH1 0x1 ADD PUSH0 DUP3 DUP3 SLOAD PUSH2 0x872 SWAP2 SWAP1 PUSH2 0x16C0 JUMP JUMPDEST SWAP1 SWAP2 SSTORE POP POP PUSH1 0x40 DUP1 MLOAD DUP6 DUP2 MSTORE PUSH1 0x20 DUP2 ADD DUP6 SWAP1 MSTORE PUSH32 0x3A00E6132085CBC9EA18899CD135EF9CAD5D305D58506E08E7B1A9B96199A9C SWAP2 ADD PUSH1 0x40 MLOAD DUP1 SWAP2 SUB SWAP1 LOG1 POP POP POP POP JUMP JUMPDEST PUSH0 PUSH1 0x1 PUSH1 0x2 SLOAD PUSH2 0x8C6 SWAP2 SWAP1 PUSH2 0x16C0 JUMP JUMPDEST SWAP1 POP SWAP1 JUMP JUMPDEST PUSH0 PUSH32 0x0 PUSH32 0x0 PUSH1 0x3 SLOAD PUSH2 0x91B SWAP2 SWAP1 PUSH2 0x16D9 JUMP JUMPDEST PUSH2 0x8C6 SWAP2 SWAP1 PUSH2 0x16F8 JUMP JUMPDEST PUSH2 0x92D PUSH2 0x1396 JUMP JUMPDEST PUSH0 DUP1 JUMPDEST DUP3 DUP2 LT ISZERO PUSH2 0xABA JUMPI PUSH1 0x2 SLOAD DUP5 DUP5 DUP4 DUP2 DUP2 LT PUSH2 0x94D JUMPI PUSH2 0x94D PUSH2 0x170B JUMP JUMPDEST SWAP1 POP PUSH1 0x20 MUL ADD CALLDATALOAD LT PUSH2 0x9A1 JUMPI PUSH1 0x40 MLOAD PUSH3 0x461BCD PUSH1 0xE5 SHL DUP2 MSTORE PUSH1 0x20 PUSH1 0x4 DUP3 ADD MSTORE PUSH1 0x19 PUSH1 0x24 DUP3 ADD MSTORE PUSH32 0x4D6F64756C65583A496E76616C6964205374616B652049442100000000000000 PUSH1 0x44 DUP3 ADD MSTORE PUSH1 0x64 ADD PUSH2 0x49F JUMP JUMPDEST PUSH0 PUSH1 0x1 PUSH0 DUP7 DUP7 DUP6 DUP2 DUP2 LT PUSH2 0x9B7 JUMPI PUSH2 0x9B7 PUSH2 0x170B JUMP JUMPDEST PUSH1 0x20 SWAP1 DUP2 MUL SWAP3 SWAP1 SWAP3 ADD CALLDATALOAD DUP4 MSTORE POP DUP2 ADD SWAP2 SWAP1 SWAP2 MSTORE PUSH1 0x40 ADD PUSH0 KECCAK256 DUP1 SLOAD SWAP1 SWAP2 POP PUSH1 0x1 PUSH1 0xA0 SHL SWAP1 DIV PUSH1 0x1 PUSH1 0x1 PUSH1 0x60 SHL SUB AND TIMESTAMP PUSH1 0x1 PUSH1 0x1 PUSH1 0x60 SHL SUB AND GT ISZERO PUSH2 0xA3C JUMPI PUSH1 0x40 MLOAD PUSH3 0x461BCD PUSH1 0xE5 SHL DUP2 MSTORE PUSH1 0x20 PUSH1 0x4 DUP3 ADD MSTORE PUSH1 0x15 PUSH1 0x24 DUP3 ADD MSTORE PUSH32 0x4D6F64756C65583A4275726E7420746F6B656E73210000000000000000000000 PUSH1 0x44 DUP3 ADD MSTORE PUSH1 0x64 ADD PUSH2 0x49F JUMP JUMPDEST PUSH1 0x1 DUP2 ADD SLOAD PUSH2 0xA4B SWAP1 DUP5 PUSH2 0x16F8 JUMP JUMPDEST PUSH0 PUSH1 0x1 DUP4 ADD SSTORE SWAP3 POP PUSH32 0x3A00E6132085CBC9EA18899CD135EF9CAD5D305D58506E08E7B1A9B96199A9C DUP6 DUP6 DUP5 DUP2 DUP2 LT PUSH2 0xA86 JUMPI PUSH2 0xA86 PUSH2 0x170B JUMP JUMPDEST SWAP1 POP PUSH1 0x20 MUL ADD CALLDATALOAD DUP3 PUSH1 0x1 ADD SLOAD PUSH1 0x40 MLOAD PUSH2 0xAA9 SWAP3 SWAP2 SWAP1 SWAP2 DUP3 MSTORE PUSH1 0x20 DUP3 ADD MSTORE PUSH1 0x40 ADD SWAP1 JUMP JUMPDEST PUSH1 0x40 MLOAD DUP1 SWAP2 SUB SWAP1 LOG1 POP PUSH1 0x1 ADD PUSH2 0x930 JUMP JUMPDEST POP PUSH0 DUP2 GT PUSH2 0xB0A JUMPI PUSH1 0x40 MLOAD PUSH3 0x461BCD PUSH1 0xE5 SHL DUP2 MSTORE PUSH1 0x20 PUSH1 0x4 DUP3 ADD MSTORE PUSH1 0x1A PUSH1 0x24 DUP3 ADD MSTORE PUSH32 0x4D6F64756C65583A546F74616C20616D6F756E74206973203021000000000000 PUSH1 0x44 DUP3 ADD MSTORE PUSH1 0x64 ADD PUSH2 0x49F JUMP JUMPDEST PUSH2 0xB3E PUSH32 0x0 PUSH1 0x1 PUSH1 0x1 PUSH1 0xA0 SHL SUB AND CALLER DUP4 PUSH2 0x13DB JUMP JUMPDEST POP POP POP JUMP JUMPDEST PUSH0 DUP2 GT PUSH2 0xBA4 JUMPI PUSH1 0x40 MLOAD PUSH3 0x461BCD PUSH1 0xE5 SHL DUP2 MSTORE PUSH1 0x20 PUSH1 0x4 DUP3 ADD MSTORE PUSH1 0x29 PUSH1 0x24 DUP3 ADD MSTORE PUSH32 0x4D6F64756C65583A616D6F756E74206D75737420626520677265617465722074 PUSH1 0x44 DUP3 ADD MSTORE PUSH9 0x68616E207A65726F21 PUSH1 0xB8 SHL PUSH1 0x64 DUP3 ADD MSTORE PUSH1 0x84 ADD PUSH2 0x49F JUMP JUMPDEST PUSH2 0xBD9 PUSH32 0x0 PUSH1 0x1 PUSH1 0x1 PUSH1 0xA0 SHL SUB AND CALLER ADDRESS DUP5 PUSH2 0x14B6 JUMP JUMPDEST PUSH1 0x40 MLOAD DUP2 DUP2 MSTORE PUSH32 0xDE88A922E0D3B88B24E9623EFEB464919C6BF9F66857A65E2BFCF2CE87A9433D SWAP1 PUSH1 0x20 ADD PUSH1 0x40 MLOAD DUP1 SWAP2 SUB SWAP1 LOG1 POP JUMP JUMPDEST PUSH0 PUSH0 PUSH0 PUSH0 DUP5 PUSH0 DUP2 GT DUP1 ISZERO PUSH2 0xC24 JUMPI POP PUSH1 0x2 SLOAD DUP2 LT JUMPDEST PUSH2 0xC70 JUMPI PUSH1 0x40 MLOAD PUSH3 0x461BCD PUSH1 0xE5 SHL DUP2 MSTORE PUSH1 0x20 PUSH1 0x4 DUP3 ADD MSTORE PUSH1 0x19 PUSH1 0x24 DUP3 ADD MSTORE PUSH32 0x4D6F64756C65583A496E76616C6964205374616B652049442100000000000000 PUSH1 0x44 DUP3 ADD MSTORE PUSH1 0x64 ADD PUSH2 0x49F JUMP JUMPDEST POP POP POP PUSH0 SWAP3 DUP4 MSTORE POP POP PUSH1 0x1 PUSH1 0x20 DUP2 SWAP1 MSTORE PUSH1 0x40 SWAP1 SWAP2 KECCAK256 DUP1 SLOAD SWAP2 DUP2 ADD SLOAD PUSH1 0x2 SWAP1 SWAP2 ADD SLOAD PUSH1 0x1 PUSH1 0x1 PUSH1 0xA0 SHL SUB DUP4 AND SWAP4 PUSH1 0x1 PUSH1 0xA0 SHL SWAP1 SWAP4 DIV PUSH1 0x1 PUSH1 0x1 PUSH1 0x60 SHL SUB AND SWAP3 JUMP JUMPDEST PUSH0 PUSH0 PUSH8 0xDE0B6B3A7640000 SWAP1 POP PUSH0 DUP4 PUSH1 0x3 SLOAD PUSH2 0xCCC SWAP2 SWAP1 PUSH2 0x16F8 JUMP JUMPDEST SWAP1 POP PUSH0 PUSH32 0x0 PUSH1 0x3 SLOAD PUSH2 0xCFD SWAP2 SWAP1 PUSH2 0x16D9 JUMP JUMPDEST SWAP1 POP PUSH0 PUSH2 0xD2A PUSH32 0x0 DUP5 PUSH2 0x16D9 JUMP JUMPDEST SWAP1 POP DUP1 DUP3 SUB PUSH2 0xD71 JUMPI PUSH2 0xD5D PUSH32 0x0 DUP4 PUSH2 0x16F8 JUMP JUMPDEST PUSH2 0xD67 SWAP1 DUP8 PUSH2 0x16D9 JUMP JUMPDEST SWAP7 SWAP6 POP POP POP POP POP POP JUMP JUMPDEST PUSH0 PUSH2 0xD9C PUSH32 0x0 DUP5 PUSH2 0x16F8 JUMP JUMPDEST PUSH1 0x3 SLOAD PUSH32 0x0 PUSH2 0xDCB DUP7 PUSH1 0x1 PUSH2 0x16F8 JUMP JUMPDEST PUSH2 0xDD5 SWAP2 SWAP1 PUSH2 0x171F JUMP JUMPDEST PUSH2 0xDDF SWAP2 SWAP1 PUSH2 0x16C0 JUMP JUMPDEST PUSH2 0xDE9 SWAP1 DUP8 PUSH2 0x171F JUMP JUMPDEST PUSH2 0xDF3 SWAP2 SWAP1 PUSH2 0x16D9 JUMP JUMPDEST SWAP1 POP PUSH0 PUSH2 0xE20 PUSH32 0x0 DUP5 PUSH2 0x16F8 JUMP JUMPDEST PUSH2 0xE4A PUSH32 0x0 DUP6 PUSH2 0x171F JUMP JUMPDEST PUSH2 0xE54 SWAP1 DUP8 PUSH2 0x16C0 JUMP JUMPDEST PUSH2 0xE5E SWAP1 DUP9 PUSH2 0x171F JUMP JUMPDEST PUSH2 0xE68 SWAP2 SWAP1 PUSH2 0x16D9 JUMP JUMPDEST SWAP1 POP PUSH0 DUP1 PUSH2 0xE77 DUP7 PUSH1 0x1 PUSH2 0x16F8 JUMP JUMPDEST SWAP1 POP JUMPDEST DUP5 DUP2 LT ISZERO PUSH2 0xEF4 JUMPI PUSH2 0xEAC PUSH32 0x0 DUP3 PUSH2 0x16F8 JUMP JUMPDEST PUSH2 0xED6 PUSH32 0x0 DUP11 PUSH2 0x171F JUMP JUMPDEST PUSH2 0xEE0 SWAP2 SWAP1 PUSH2 0x16D9 JUMP JUMPDEST PUSH2 0xEEA SWAP1 DUP4 PUSH2 0x16F8 JUMP JUMPDEST SWAP2 POP PUSH1 0x1 ADD PUSH2 0xE7A JUMP JUMPDEST POP DUP7 DUP3 PUSH2 0xF01 DUP4 DUP7 PUSH2 0x16F8 JUMP JUMPDEST PUSH2 0xF0B SWAP2 SWAP1 PUSH2 0x16F8 JUMP JUMPDEST PUSH2 0xF15 SWAP2 SWAP1 PUSH2 0x16D9 JUMP JUMPDEST SWAP10 SWAP9 POP POP POP POP POP POP POP POP POP JUMP JUMPDEST PUSH2 0xF2A PUSH2 0x1396 JUMP JUMPDEST PUSH1 0x4 SLOAD PUSH2 0xF37 SWAP1 DUP3 PUSH2 0x16F8 JUMP JUMPDEST PUSH1 0x40 MLOAD PUSH32 0x70A0823100000000000000000000000000000000000000000000000000000000 DUP2 MSTORE ADDRESS PUSH1 0x4 DUP3 ADD MSTORE PUSH32 0x0 PUSH1 0x1 PUSH1 0x1 PUSH1 0xA0 SHL SUB AND SWAP1 PUSH4 0x70A08231 SWAP1 PUSH1 0x24 ADD PUSH1 0x20 PUSH1 0x40 MLOAD DUP1 DUP4 SUB DUP2 DUP7 GAS STATICCALL ISZERO DUP1 ISZERO PUSH2 0xFB2 JUMPI RETURNDATASIZE PUSH0 PUSH0 RETURNDATACOPY RETURNDATASIZE PUSH0 REVERT JUMPDEST POP POP POP POP PUSH1 0x40 MLOAD RETURNDATASIZE PUSH1 0x1F NOT PUSH1 0x1F DUP3 ADD AND DUP3 ADD DUP1 PUSH1 0x40 MSTORE POP DUP2 ADD SWAP1 PUSH2 0xFD6 SWAP2 SWAP1 PUSH2 0x1736 JUMP JUMPDEST LT ISZERO PUSH2 0x1024 JUMPI PUSH1 0x40 MLOAD PUSH3 0x461BCD PUSH1 0xE5 SHL DUP2 MSTORE PUSH1 0x20 PUSH1 0x4 DUP3 ADD MSTORE PUSH1 0x1D PUSH1 0x24 DUP3 ADD MSTORE PUSH32 0x4D6F64756C65583A496E73756666696369656E742062616C616E636521000000 PUSH1 0x44 DUP3 ADD MSTORE PUSH1 0x64 ADD PUSH2 0x49F JUMP JUMPDEST PUSH2 0x1058 PUSH1 0x1 PUSH1 0x1 PUSH1 0xA0 SHL SUB PUSH32 0x0 AND DUP4 DUP4 PUSH2 0x13DB JUMP JUMPDEST DUP2 PUSH1 0x1 PUSH1 0x1 PUSH1 0xA0 SHL SUB AND PUSH32 0x1D3EEE4CA001CFF39EEC6EC7615AACF2F2BD61791273830728BA00CCBD6E1337 DUP3 PUSH1 0x40 MLOAD PUSH2 0x1093 SWAP2 DUP2 MSTORE PUSH1 0x20 ADD SWAP1 JUMP JUMPDEST PUSH1 0x40 MLOAD DUP1 SWAP2 SUB SWAP1 LOG2 POP POP JUMP JUMPDEST PUSH0 DUP1 SLOAD DUP2 SWAP1 PUSH1 0x1 PUSH1 0xA0 SHL SWAP1 DIV PUSH1 0xFF AND ISZERO PUSH2 0x10FB JUMPI PUSH1 0x40 MLOAD PUSH3 0x461BCD PUSH1 0xE5 SHL DUP2 MSTORE PUSH1 0x20 PUSH1 0x4 DUP3 ADD MSTORE PUSH1 0x10 PUSH1 0x24 DUP3 ADD MSTORE PUSH32 0x4D6F64756C65583A53544F505045442100000000000000000000000000000000 PUSH1 0x44 DUP3 ADD MSTORE PUSH1 0x64 ADD PUSH2 0x49F JUMP JUMPDEST PUSH0 DUP4 GT PUSH2 0x1170 JUMPI PUSH1 0x40 MLOAD PUSH3 0x461BCD PUSH1 0xE5 SHL DUP2 MSTORE PUSH1 0x20 PUSH1 0x4 DUP3 ADD MSTORE PUSH1 0x2C PUSH1 0x24 DUP3 ADD MSTORE PUSH32 0x4D6F64756C65583A5374616B6520616D6F756E74206D75737420626520677265 PUSH1 0x44 DUP3 ADD MSTORE PUSH32 0x61746572207468616E2030210000000000000000000000000000000000000000 PUSH1 0x64 DUP3 ADD MSTORE PUSH1 0x84 ADD PUSH2 0x49F JUMP JUMPDEST PUSH3 0xED4E00 PUSH1 0x1 PUSH1 0x1 PUSH1 0x60 SHL SUB DUP6 AND LT ISZERO PUSH2 0x11CC JUMPI PUSH1 0x40 MLOAD PUSH3 0x461BCD PUSH1 0xE5 SHL DUP2 MSTORE PUSH1 0x20 PUSH1 0x4 DUP3 ADD MSTORE PUSH1 0x1F PUSH1 0x24 DUP3 ADD MSTORE PUSH32 0x4D6F64756C65583A557365206C6F6E676572206C6F636B5F706572696F642100 PUSH1 0x44 DUP3 ADD MSTORE PUSH1 0x64 ADD PUSH2 0x49F JUMP JUMPDEST PUSH2 0x1201 PUSH32 0x0 PUSH1 0x1 PUSH1 0x1 PUSH1 0xA0 SHL SUB AND CALLER ADDRESS DUP7 PUSH2 0x14B6 JUMP JUMPDEST PUSH0 PUSH2 0x120C DUP6 TIMESTAMP PUSH2 0x174D JUMP JUMPDEST SWAP1 POP PUSH0 PUSH2 0x1218 DUP6 PUSH2 0xCB0 JUMP JUMPDEST SWAP1 POP PUSH0 PUSH1 0x2 SLOAD SWAP1 POP PUSH1 0x40 MLOAD DUP1 PUSH1 0x80 ADD PUSH1 0x40 MSTORE DUP1 PUSH2 0x1232 CALLER SWAP1 JUMP JUMPDEST PUSH1 0x1 PUSH1 0x1 PUSH1 0xA0 SHL SUB SWAP1 DUP2 AND DUP3 MSTORE PUSH1 0x1 PUSH1 0x1 PUSH1 0x60 SHL SUB DUP7 DUP2 AND PUSH1 0x20 DUP1 DUP6 ADD SWAP2 SWAP1 SWAP2 MSTORE PUSH1 0x40 DUP1 DUP6 ADD DUP13 SWAP1 MSTORE PUSH1 0x60 SWAP5 DUP6 ADD DUP9 SWAP1 MSTORE PUSH0 DUP8 DUP2 MSTORE PUSH1 0x1 DUP1 DUP5 MSTORE DUP3 DUP3 KECCAK256 DUP9 MLOAD SWAP5 DUP10 ADD MLOAD SWAP5 SWAP1 SWAP7 AND PUSH1 0x1 PUSH1 0xA0 SHL SWAP5 SWAP1 SWAP6 AND SWAP4 SWAP1 SWAP4 MUL SWAP4 SWAP1 SWAP4 OR DUP5 SSTORE DUP6 ADD MLOAD SWAP1 DUP4 ADD SSTORE SWAP3 SWAP1 SWAP2 ADD MLOAD PUSH1 0x2 SWAP1 SWAP2 ADD SSTORE PUSH1 0x3 DUP1 SLOAD DUP9 SWAP3 SWAP1 PUSH2 0x12B0 SWAP1 DUP5 SWAP1 PUSH2 0x16F8 JUMP JUMPDEST SWAP3 POP POP DUP2 SWAP1 SSTORE POP DUP2 PUSH1 0x4 PUSH0 DUP3 DUP3 SLOAD PUSH2 0x12C8 SWAP2 SWAP1 PUSH2 0x16F8 JUMP JUMPDEST SWAP1 SWAP2 SSTORE POP POP PUSH1 0x40 DUP1 MLOAD DUP3 DUP2 MSTORE PUSH1 0x1 PUSH1 0x1 PUSH1 0x60 SHL SUB DUP6 AND PUSH1 0x20 DUP3 ADD MSTORE DUP1 DUP3 ADD DUP9 SWAP1 MSTORE PUSH1 0x60 DUP2 ADD DUP5 SWAP1 MSTORE SWAP1 MLOAD CALLER SWAP2 PUSH32 0x24FE2D25C10EB2C67B5AC1E3EDBCADC94191E154ED388AD667A9480C44F47146 SWAP2 SWAP1 DUP2 SWAP1 SUB PUSH1 0x80 ADD SWAP1 LOG2 PUSH1 0x2 DUP1 SLOAD SWAP1 PUSH0 PUSH2 0x132E DUP4 PUSH2 0x176C JUMP JUMPDEST SWAP1 SWAP2 SSTORE POP SWAP1 SWAP8 SWAP2 SWAP7 POP SWAP1 SWAP5 POP POP POP POP POP JUMP JUMPDEST PUSH2 0x1348 PUSH2 0x1396 JUMP JUMPDEST PUSH1 0x1 PUSH1 0x1 PUSH1 0xA0 SHL SUB DUP2 AND PUSH2 0x138A JUMPI PUSH1 0x40 MLOAD PUSH32 0x1E4FBDF700000000000000000000000000000000000000000000000000000000 DUP2 MSTORE PUSH0 PUSH1 0x4 DUP3 ADD MSTORE PUSH1 0x24 ADD PUSH2 0x49F JUMP JUMPDEST PUSH2 0x1393 DUP2 PUSH2 0x144F JUMP JUMPDEST POP JUMP JUMPDEST PUSH0 SLOAD PUSH1 0x1 PUSH1 0x1 PUSH1 0xA0 SHL SUB AND CALLER EQ PUSH2 0x692 JUMPI PUSH1 0x40 MLOAD PUSH32 0x118CDAA700000000000000000000000000000000000000000000000000000000 DUP2 MSTORE CALLER PUSH1 0x4 DUP3 ADD MSTORE PUSH1 0x24 ADD PUSH2 0x49F JUMP JUMPDEST PUSH1 0x40 MLOAD PUSH1 0x1 PUSH1 0x1 PUSH1 0xA0 SHL SUB DUP4 DUP2 AND PUSH1 0x24 DUP4 ADD MSTORE PUSH1 0x44 DUP3 ADD DUP4 SWAP1 MSTORE PUSH2 0xB3E SWAP2 DUP6 SWAP2 DUP3 AND SWAP1 PUSH4 0xA9059CBB SWAP1 PUSH1 0x64 ADD JUMPDEST PUSH1 0x40 MLOAD PUSH1 0x20 DUP2 DUP4 SUB SUB DUP2 MSTORE SWAP1 PUSH1 0x40 MSTORE SWAP2 POP PUSH1 0xE0 SHL PUSH1 0x20 DUP3 ADD DUP1 MLOAD PUSH28 0xFFFFFFFFFFFFFFFFFFFFFFFFFFFFFFFFFFFFFFFFFFFFFFFFFFFFFFFF DUP4 DUP2 DUP4 AND OR DUP4 MSTORE POP POP POP POP PUSH2 0x14F5 JUMP JUMPDEST PUSH0 DUP1 SLOAD PUSH1 0x1 PUSH1 0x1 PUSH1 0xA0 SHL SUB DUP4 DUP2 AND PUSH32 0xFFFFFFFFFFFFFFFFFFFFFFFF0000000000000000000000000000000000000000 DUP4 AND DUP2 OR DUP5 SSTORE PUSH1 0x40 MLOAD SWAP2 SWAP1 SWAP3 AND SWAP3 DUP4 SWAP2 PUSH32 0x8BE0079C531659141344CD1FD0A4F28419497F9722A3DAAFE3B4186F6B6457E0 SWAP2 SWAP1 LOG3 POP POP JUMP JUMPDEST PUSH1 0x40 MLOAD PUSH1 0x1 PUSH1 0x1 PUSH1 0xA0 SHL SUB DUP5 DUP2 AND PUSH1 0x24 DUP4 ADD MSTORE DUP4 DUP2 AND PUSH1 0x44 DUP4 ADD MSTORE PUSH1 0x64 DUP3 ADD DUP4 SWAP1 MSTORE PUSH2 0x14EF SWAP2 DUP7 SWAP2 DUP3 AND SWAP1 PUSH4 0x23B872DD SWAP1 PUSH1 0x84 ADD PUSH2 0x1408 JUMP JUMPDEST POP POP POP POP JUMP JUMPDEST PUSH0 PUSH0 PUSH1 0x20 PUSH0 DUP5 MLOAD PUSH1 0x20 DUP7 ADD PUSH0 DUP9 GAS CALL DUP1 PUSH2 0x1514 JUMPI PUSH1 0x40 MLOAD RETURNDATASIZE PUSH0 DUP3 RETURNDATACOPY RETURNDATASIZE DUP2 REVERT JUMPDEST POP POP PUSH0 MLOAD RETURNDATASIZE SWAP2 POP DUP2 ISZERO PUSH2 0x152B JUMPI DUP1 PUSH1 0x1 EQ ISZERO PUSH2 0x1538 JUMP JUMPDEST PUSH1 0x1 PUSH1 0x1 PUSH1 0xA0 SHL SUB DUP5 AND EXTCODESIZE ISZERO JUMPDEST ISZERO PUSH2 0x14EF JUMPI PUSH1 0x40 MLOAD PUSH32 0x5274AFE700000000000000000000000000000000000000000000000000000000 DUP2 MSTORE PUSH1 0x1 PUSH1 0x1 PUSH1 0xA0 SHL SUB DUP6 AND PUSH1 0x4 DUP3 ADD MSTORE PUSH1 0x24 ADD PUSH2 0x49F JUMP JUMPDEST PUSH0 PUSH1 0x20 DUP3 DUP5 SUB SLT ISZERO PUSH2 0x158A JUMPI PUSH0 PUSH0 REVERT JUMPDEST POP CALLDATALOAD SWAP2 SWAP1 POP JUMP JUMPDEST PUSH0 PUSH0 PUSH1 0x40 DUP4 DUP6 SUB SLT ISZERO PUSH2 0x15A2 JUMPI PUSH0 PUSH0 REVERT JUMPDEST POP POP DUP1 CALLDATALOAD SWAP3 PUSH1 0x20 SWAP1 SWAP2 ADD CALLDATALOAD SWAP2 POP JUMP JUMPDEST PUSH0 PUSH0 PUSH1 0x20 DUP4 DUP6 SUB SLT ISZERO PUSH2 0x15C2 JUMPI PUSH0 PUSH0 REVERT JUMPDEST DUP3 CALLDATALOAD PUSH8 0xFFFFFFFFFFFFFFFF DUP2 GT ISZERO PUSH2 0x15D8 JUMPI PUSH0 PUSH0 REVERT JUMPDEST DUP4 ADD PUSH1 0x1F DUP2 ADD DUP6 SGT PUSH2 0x15E8 JUMPI PUSH0 PUSH0 REVERT JUMPDEST DUP1 CALLDATALOAD PUSH8 0xFFFFFFFFFFFFFFFF DUP2 GT ISZERO PUSH2 0x15FE JUMPI PUSH0 PUSH0 REVERT JUMPDEST DUP6 PUSH1 0x20 DUP3 PUSH1 0x5 SHL DUP5 ADD ADD GT ISZERO PUSH2 0x1612 JUMPI PUSH0 PUSH0 REVERT JUMPDEST PUSH1 0x20 SWAP2 SWAP1 SWAP2 ADD SWAP6 SWAP1 SWAP5 POP SWAP3 POP POP POP JUMP JUMPDEST DUP1 CALLDATALOAD PUSH1 0x1 PUSH1 0x1 PUSH1 0xA0 SHL SUB DUP2 AND DUP2 EQ PUSH2 0x1638 JUMPI PUSH0 PUSH0 REVERT JUMPDEST SWAP2 SWAP1 POP JUMP JUMPDEST PUSH0 PUSH0 PUSH1 0x40 DUP4 DUP6 SUB SLT ISZERO PUSH2 0x164E JUMPI PUSH0 PUSH0 REVERT JUMPDEST PUSH2 0x1657 DUP4 PUSH2 0x1622 JUMP JUMPDEST SWAP5 PUSH1 0x20 SWAP4 SWAP1 SWAP4 ADD CALLDATALOAD SWAP4 POP POP POP JUMP JUMPDEST PUSH0 PUSH0 PUSH1 0x40 DUP4 DUP6 SUB SLT ISZERO PUSH2 0x1676 JUMPI PUSH0 PUSH0 REVERT JUMPDEST DUP3 CALLDATALOAD PUSH1 0x1 PUSH1 0x1 PUSH1 0x60 SHL SUB DUP2 AND DUP2 EQ PUSH2 0x1657 JUMPI PUSH0 PUSH0 REVERT JUMPDEST PUSH0 PUSH1 0x20 DUP3 DUP5 SUB SLT ISZERO PUSH2 0x169C JUMPI PUSH0 PUSH0 REVERT JUMPDEST PUSH2 0x16A5 DUP3 PUSH2 0x1622 JUMP JUMPDEST SWAP4 SWAP3 POP POP POP JUMP JUMPDEST PUSH4 0x4E487B71 PUSH1 0xE0 SHL PUSH0 MSTORE PUSH1 0x11 PUSH1 0x4 MSTORE PUSH1 0x24 PUSH0 REVERT JUMPDEST DUP2 DUP2 SUB DUP2 DUP2 GT ISZERO PUSH2 0x16D3 JUMPI PUSH2 0x16D3 PUSH2 0x16AC JUMP JUMPDEST SWAP3 SWAP2 POP POP JUMP JUMPDEST PUSH0 DUP3 PUSH2 0x16F3 JUMPI PUSH4 0x4E487B71 PUSH1 0xE0 SHL PUSH0 MSTORE PUSH1 0x12 PUSH1 0x4 MSTORE PUSH1 0x24 PUSH0 REVERT JUMPDEST POP DIV SWAP1 JUMP JUMPDEST DUP1 DUP3 ADD DUP1 DUP3 GT ISZERO PUSH2 0x16D3 JUMPI PUSH2 0x16D3 PUSH2 0x16AC JUMP JUMPDEST PUSH4 0x4E487B71 PUSH1 0xE0 SHL PUSH0 MSTORE PUSH1 0x32 PUSH1 0x4 MSTORE PUSH1 0x24 PUSH0 REVERT JUMPDEST DUP1 DUP3 MUL DUP2 ISZERO DUP3 DUP3 DIV DUP5 EQ OR PUSH2 0x16D3 JUMPI PUSH2 0x16D3 PUSH2 0x16AC JUMP JUMPDEST PUSH0 PUSH1 0x20 DUP3 DUP5 SUB SLT ISZERO PUSH2 0x1746 JUMPI PUSH0 PUSH0 REVERT JUMPDEST POP MLOAD SWAP2 SWAP1 POP JUMP JUMPDEST PUSH1 0x1 PUSH1 0x1 PUSH1 0x60 SHL SUB DUP2 DUP2 AND DUP4 DUP3 AND ADD SWAP1 DUP2 GT ISZERO PUSH2 0x16D3 JUMPI PUSH2 0x16D3 PUSH2 0x16AC JUMP JUMPDEST PUSH0 PUSH1 0x1 DUP3 ADD PUSH2 0x177D JUMPI PUSH2 0x177D PUSH2 0x16AC JUMP JUMPDEST POP PUSH1 0x1 ADD SWAP1 JUMP INVALID LOG2 PUSH5 0x6970667358 0x22 SLT KECCAK256 SWAP2 0xBC PUSH10 0xA6575ED327F6F7CABA51 SWAP1 RETURNDATACOPY PUSH7 0xC7CB77B90249B3 BALANCE MCOPY DUP13 PUSH0 0xA6 SWAP11 DUP4 AND SELFBALANCE PUSH5 0x736F6C6343 STOP ADDMOD 0x1E STOP CALLER "
				},
				"gasEstimates": {
					"creation": {
						"codeDepositCost": "1214800",
						"executionCost": "infinite",
						"totalCost": "infinite"
					},
					"external": {
						"CREDI()": "infinite",
						"DIFFICULTY_INTERVAL()": "infinite",
						"MATURITY()": "260",
						"addRewards(uint256)": "infinite",
						"batchWithdrawCREDI(uint256[])": "infinite",
						"calculateReward(uint256)": "infinite",
						"claim(uint256)": "infinite",
						"getCREDIAddress()": "infinite",
						"getDifficulty()": "infinite",
						"getStake(uint256)": "9039",
						"getStakesCount()": "2470",
						"getxCREDIAddress()": "infinite",
						"owner()": "2419",
						"pending_payments()": "2350",
						"renounceOwnership()": "infinite",
						"stake(uint96,uint256)": "infinite",
						"stop()": "27344",
						"stopped()": "2371",
						"total_staked()": "2329",
						"transferOwnership(address)": "28402",
						"withdrawCREDI(uint256,uint256)": "infinite",
						"withdrawRewards(address,uint256)": "infinite",
						"xCREDI()": "infinite"
					},
					"internal": {
						"time_now()": "infinite"
					}
				},
				"methodIdentifiers": {
					"CREDI()": "6db08f25",
					"DIFFICULTY_INTERVAL()": "109cf399",
					"MATURITY()": "8e12c0cd",
					"addRewards(uint256)": "beceed39",
					"batchWithdrawCREDI(uint256[])": "bc854352",
					"calculateReward(uint256)": "d2d7231f",
					"claim(uint256)": "379607f5",
					"getCREDIAddress()": "d46149a2",
					"getDifficulty()": "b6baffe3",
					"getStake(uint256)": "ce325bf8",
					"getStakesCount()": "b5fa91fe",
					"getxCREDIAddress()": "7c2fdeb5",
					"owner()": "8da5cb5b",
					"pending_payments()": "8f4729b7",
					"renounceOwnership()": "715018a6",
					"stake(uint96,uint256)": "d93c04a0",
					"stop()": "07da68f5",
					"stopped()": "75f12b21",
					"total_staked()": "af7568dd",
					"transferOwnership(address)": "f2fde38b",
					"withdrawCREDI(uint256,uint256)": "ac00500f",
					"withdrawRewards(address,uint256)": "d6ef7af0",
					"xCREDI()": "b109beec"
				}
			},
			"storageLayout": {
				"storage": [
					{
						"astId": 8,
						"contract": "contracts/ModuleX_immutable.sol:ModuleX",
						"label": "_owner",
						"offset": 0,
						"slot": "0",
						"type": "t_address"
					},
					{
						"astId": 847,
						"contract": "contracts/ModuleX_immutable.sol:ModuleX",
						"label": "stopped",
						"offset": 20,
						"slot": "0",
						"type": "t_bool"
					},
					{
						"astId": 865,
						"contract": "contracts/ModuleX_immutable.sol:ModuleX",
						"label": "stakes",
						"offset": 0,
						"slot": "1",
						"type": "t_mapping(t_uint256,t_struct(StakeDetails)844_storage)"
					},
					{
						"astId": 868,
						"contract": "contracts/ModuleX_immutable.sol:ModuleX",
						"label": "stakes_count",
						"offset": 0,
						"slot": "2",
						"type": "t_uint256"
					},
					{
						"astId": 871,
						"contract": "contracts/ModuleX_immutable.sol:ModuleX",
						"label": "total_staked",
						"offset": 0,
						"slot": "3",
						"type": "t_uint256"
					},
					{
						"astId": 874,
						"contract": "contracts/ModuleX_immutable.sol:ModuleX",
						"label": "pending_payments",
						"offset": 0,
						"slot": "4",
						"type": "t_uint256"
					}
				],
				"types": {
					"t_address": {
						"encoding": "inplace",
						"label": "address",
						"numberOfBytes": "20"
					},
					"t_bool": {
						"encoding": "inplace",
						"label": "bool",
						"numberOfBytes": "1"
					},
					"t_mapping(t_uint256,t_struct(StakeDetails)844_storage)": {
						"encoding": "mapping",
						"key": "t_uint256",
						"label": "mapping(uint256 => struct ModuleX.StakeDetails)",
						"numberOfBytes": "32",
						"value": "t_struct(StakeDetails)844_storage"
					},
					"t_struct(StakeDetails)844_storage": {
						"encoding": "inplace",
						"label": "struct ModuleX.StakeDetails",
						"members": [
							{
								"astId": 837,
								"contract": "contracts/ModuleX_immutable.sol:ModuleX",
								"label": "owner",
								"offset": 0,
								"slot": "0",
								"type": "t_address"
							},
							{
								"astId": 839,
								"contract": "contracts/ModuleX_immutable.sol:ModuleX",
								"label": "maturity",
								"offset": 20,
								"slot": "0",
								"type": "t_uint96"
							},
							{
								"astId": 841,
								"contract": "contracts/ModuleX_immutable.sol:ModuleX",
								"label": "stake_amount",
								"offset": 0,
								"slot": "1",
								"type": "t_uint256"
							},
							{
								"astId": 843,
								"contract": "contracts/ModuleX_immutable.sol:ModuleX",
								"label": "reward_amount",
								"offset": 0,
								"slot": "2",
								"type": "t_uint256"
							}
						],
						"numberOfBytes": "96"
					},
					"t_uint256": {
						"encoding": "inplace",
						"label": "uint256",
						"numberOfBytes": "32"
					},
					"t_uint96": {
						"encoding": "inplace",
						"label": "uint96",
						"numberOfBytes": "12"
					}
				}
			},
			"userdoc": {
				"kind": "user",
				"methods": {},
				"version": 1
			}
		}
	}
}