{
	"data": {
		"bytecode": {
			"linkReferences": {},
			"object": "60a06040526001600455348015610014575f5ffd5b50604051612264380380612264833981016040819052610033916101b3565b338061005857604051631e4fbdf760e01b81525f600482015260240160405180910390fd5b61006181610164565b5060018080556001600160a01b0391821660809081526040805160c0810182525f808252602082018181529282018181526060830182815294830182815260a0840183815260028054988901815590935292519351938716600160a01b6001600160601b039586168102919091177f405787fa12a823e0f2b7631cc41b3ba8828b3321ca811111fa75cd3aa3bb5ace600390980297880155905194519487169484168102949094177f405787fa12a823e0f2b7631cc41b3ba8828b3321ca811111fa75cd3aa3bb5acf860155905190519416931602919091177f405787fa12a823e0f2b7631cc41b3ba8828b3321ca811111fa75cd3aa3bb5ad0909101556101e0565b5f80546001600160a01b038381166001600160a01b0319831681178455604051919092169283917f8be0079c531659141344cd1fd0a4f28419497f9722a3daafe3b4186f6b6457e09190a35050565b5f602082840312156101c3575f5ffd5b81516001600160a01b03811681146101d9575f5ffd5b9392505050565b60805161205e6102065f395f81816102ad01528181610c0c0152610ca7015261205e5ff3fe608060405234801561000f575f5ffd5b5060043610610110575f3560e01c8063715018a61161009e578063a9fc507b1161006e578063a9fc507b1461028d578063b4ac6860146102a0578063cc5c56dc146102a8578063ce325bf8146102cf578063f2fde38b14610327575f5ffd5b8063715018a61461022f57806374ee6b62146102375780638da5cb5b1461024a578063954821b61461026e575f5ffd5b806325d5971f116100e457806325d5971f146101c2578063379607f5146101d55780633b5dd047146101e85780634f44daa9146101fb57806369ca431b1461020e575f5ffd5b806221578414610114578063039ba6b714610129578063068bcd8d1461013c57806321241dfe146101a0575b5f5ffd5b610127610122366004611b07565b61033a565b005b610127610137366004611b39565b610460565b61014f61014a366004611b07565b610573565b604080516001600160a01b039788168152958716602087015293909516928401929092526001600160601b039081166060840152908116608083015290911660a082015260c0015b60405180910390f35b6101aa6234bc0081565b6040516001600160601b039091168152602001610197565b6101276101d0366004611b07565b6106f7565b6101276101e3366004611b07565b61089e565b6101276101f6366004611ba8565b610ab0565b610127610209366004611b39565b610f55565b61022161021c366004611c3e565b61105f565b604051908152602001610197565b610127611373565b610127610245366004611cbe565b611386565b5f546001600160a01b03165b6040516001600160a01b039091168152602001610197565b61022161027c366004611cfc565b60056020525f908152604090205481565b61012761029b366004611d1e565b6114c2565b610221611581565b6102567f000000000000000000000000000000000000000000000000000000000000000081565b6102e26102dd366004611b07565b611597565b604080516001600160a01b03909716875260208701959095526001600160601b03909316938501939093526060840152608083019190915260a082015260c001610197565b610127610335366004611cfc565b61161a565b610342611654565b805f81118015610353575060045481105b6103785760405162461bcd60e51b815260040161036f90611d48565b60405180910390fd5b5f82815260036020526040902060018101546103a8906234bc0090600160a01b90046001600160601b0316611d93565b6001600160601b0316426001600160601b031610156103c5575f5ffd5b5f6002825f0154815481106103dc576103dc611db8565b5f918252602080832060038681015493020160018101546001600160a01b03168452600590915260408320805491945091929061041a908490611dcc565b90915550505f600383015581546040518581527f085cf309fcbacaf1ee2b300f62e8586a0661e41c7f318003e9aab792be89980b9060200160405180910390a250505050565b610468611654565b815f81118015610479575060025481105b6104955760405162461bcd60e51b815260040161036f90611ddf565b620186a0826001600160601b031611156104f15760405162461bcd60e51b815260206004820152601a60248201527f4c505374616b696e673a6d617820617079206973203130303025000000000000604482015260640161036f565b816002848154811061050557610505611db8565b5f9182526020918290206003919091020160010180546001600160a01b0316600160a01b6001600160601b0394851602179055604051918416825284917f09a2c3c653a42f5c64bbfdf07224d8e0d6526460f44e520ac49bae23804e18e891015b60405180910390a2505050565b5f5f5f5f5f5f865f8111801561058a575060025481105b6105a65760405162461bcd60e51b815260040161036f90611ddf565b600288815481106105b9576105b9611db8565b5f918252602090912060039091020154600280546001600160a01b03909216918a9081106105e9576105e9611db8565b905f5260205f2090600302016001015f9054906101000a90046001600160a01b031660028a8154811061061e5761061e611db8565b905f5260205f2090600302016002015f9054906101000a90046001600160a01b031660028b8154811061065357610653611db8565b905f5260205f2090600302015f0160149054906101000a90046001600160601b031660028c8154811061068857610688611db8565b905f5260205f20906003020160010160149054906101000a90046001600160601b031660028d815481106106be576106be611db8565b905f5260205f20906003020160020160149054906101000a90046001600160601b03169650965096509650965096505091939550919395565b6106ff611680565b805f81118015610710575060045481105b61072c5760405162461bcd60e51b815260040161036f90611d48565b5f82815260036020526040902060018101546001600160a01b031633146107655760405162461bcd60e51b815260040161036f90611e16565b5f6002825f01548154811061077c5761077c611db8565b5f9182526020918290206040805160c081018252600390930290910180546001600160a01b0380821685526001600160601b03600160a01b92839004811696860196909652600180840154808316958701959095529382900486166060860152600290920154918216608085015290819004841660a0840152908501549193509004166108064290565b6001600160601b0316101561082d5760405162461bcd60e51b815260040161036f90611e57565b60028201541561088f5761085233600284015483516001600160a01b031691906116aa565b5f600283015581546040518581527f3db0ca701d7c1106534c6003e5d65dae65a9cb891ad5bbb9be39c091df79d87e906020015b60405180910390a25b50505061089b60018055565b50565b6108a6611680565b805f811180156108b7575060045481105b6108d35760405162461bcd60e51b815260040161036f90611d48565b5f82815260036020526040902060018101546001600160a01b0316331461090c5760405162461bcd60e51b815260040161036f90611e16565b5f6002825f01548154811061092357610923611db8565b5f918252602090912060018401546003909202019150600160a01b90046001600160601b0316426001600160601b031610156109715760405162461bcd60e51b815260040161036f90611e57565b5f8260030154116109c45760405162461bcd60e51b815260206004820152601a60248201527f4c505374616b696e673a4e6f7468696e6720746f20636c61696d000000000000604482015260640161036f565b6002820154156109f0576109e933600284015483546001600160a01b031691906116aa565b5f60028301555b610a0e33600384015460018401546001600160a01b031691906116aa565b600382015460018201546001600160a01b03165f9081526005602052604081208054909190610a3e908490611dcc565b90915550505f600383015581546040518581527f3db0ca701d7c1106534c6003e5d65dae65a9cb891ad5bbb9be39c091df79d87e9060200160405180910390a281546040518581527f4d7828f2aa36030cc63cdea79ec646099aa121d019f1a90edb55078939fb84ea90602001610886565b610ab8611680565b855f81118015610ac9575060025481105b610ae55760405162461bcd60e51b815260040161036f90611ddf565b5f60028881548110610af957610af9611db8565b905f5260205f20906003020190505f8160010160149054906101000a90046001600160601b03166001600160601b031611610b765760405162461bcd60e51b815260206004820152601960248201527f4c505374616b696e673a506f6f6c206973207061757365642100000000000000604482015260640161036f565b610b8d3382546001600160a01b031690308a61170e565b805460028201545f91610bb2916001600160a01b03918216918b91168a8a8a8a61174d565b825460018401549192505f916301e13380916001600160601b03600160a01b9182900481169261271092610be99291041686611ea3565b610bf39190611eba565b610bfd9190611ea3565b610c079190611eba565b90505f7f00000000000000000000000000000000000000000000000000000000000000006001600160a01b0316638ef1e259336040516001600160e01b031960e084901b1681526001600160a01b039091166004820152602401602060405180830381865afa158015610c7c573d5f5f3e3d5ffd5b505050506040513d601f19601f82011682018060405250810190610ca09190611ed9565b15610d86577f00000000000000000000000000000000000000000000000000000000000000006001600160a01b0316639a3bfdf56040518163ffffffff1660e01b8152600401602060405180830381865afa158015610d01573d5f5f3e3d5ffd5b505050506040513d601f19601f82011682018060405250810190610d259190611ef8565b845460028601549192506301e13380916001600160601b03600160a01b9283900481169261271092610d5b929190041687611ea3565b610d659190611eba565b610d6f9190611ea3565b610d799190611eba565b610d839083611f0f565b91505b83545f90600160a01b90046001600160601b031642610da59190611d93565b90506040518060c001604052808d8152602001610dbf3390565b6001600160a01b03168152602001826001600160601b031681526020018c81526020018481526020018381525060035f60045481526020019081526020015f205f820151815f01556020820151816001015f6101000a8154816001600160a01b0302191690836001600160a01b0316021790555060408201518160010160146101000a8154816001600160601b0302191690836001600160601b03160217905550606082015181600201556080820151816003015560a082015181600401559050508260055f876001015f9054906101000a90046001600160a01b03166001600160a01b03166001600160a01b031681526020019081526020015f205f828254610ec99190611f0f565b9091555050600454604080519182526001600160601b03831660208301528181018d90526060820185905260808201849052518d9133917fc48192cf3609b4932a8b10a6f09fe1cac38610fdef14eacc15b35c454da0b4c59181900360a00190a360048054905f610f3983611f22565b9190505550505050505050610f4d60018055565b505050505050565b610f5d611654565b815f81118015610f6e575060025481105b610f8a5760405162461bcd60e51b815260040161036f90611ddf565b620186a0826001600160601b03161115610fe65760405162461bcd60e51b815260206004820181905260248201527f4c505374616b696e673a6d617820626f6e757320617079206973203130303025604482015260640161036f565b8160028481548110610ffa57610ffa611db8565b5f9182526020918290206003919091020160020180546001600160a01b0316600160a01b6001600160601b0394851602179055604051918416825284917fd3cd184b56b5b95016981fc55484ff8fdf06eb587430055c7ab828a0edc0dc9d9101610566565b5f611068611654565b5f846001600160601b0316116110d25760405162461bcd60e51b815260206004820152602960248201527f4c505374616b696e673a6d61747572697479206d75737420626520677265617460448201526806572207468616e20360bc1b606482015260840161036f565b866001600160a01b0316866001600160a01b031663217a4b706040518163ffffffff1660e01b8152600401602060405180830381865afa158015611118573d5f5f3e3d5ffd5b505050506040513d601f19601f8201168201806040525081019061113c9190611f3a565b6001600160a01b0316146111c25760405162461bcd60e51b815260206004820152604160248201527f4c505374616b696e673a726577617264735f746f6b656e206d7573742062652060448201527f657175616c20746f2070726963655f6f7261636c652071756f746520746f6b656064820152603760f91b608482015260a40161036f565b6040805160c0810182526001600160a01b038a811682526001600160601b03878116602084019081528b8316948401948552878216606085019081528b84166080860190815288841660a0870190815260028054600180820183555f83815299519651968916600160a01b9789168802177f405787fa12a823e0f2b7631cc41b3ba8828b3321ca811111fa75cd3aa3bb5ace600390930292830155995194519488169487168602949094177f405787fa12a823e0f2b7631cc41b3ba8828b3321ca811111fa75cd3aa3bb5acf85015591519051951694909316909102929092177f405787fa12a823e0f2b7631cc41b3ba8828b3321ca811111fa75cd3aa3bb5ad0909201919091555490916112d691611dcc565b9050876001600160a01b0316896001600160a01b0316827f6b64b7e8b6f4656658efb1c74b7d1bbff6e84d3d7b1cd5ae89fd6cd91de6ef968a89898960405161134f94939291906001600160a01b039490941684526001600160601b039283166020850152908216604084015216606082015260800190565b60405180910390a485156113675761136788876114c2565b98975050505050505050565b61137b611654565b6113845f61191d565b565b61138e611654565b6001600160a01b0383165f908152600560205260409020546113b09082611f0f565b6040516370a0823160e01b81523060048201526001600160a01b038516906370a0823190602401602060405180830381865afa1580156113f2573d5f5f3e3d5ffd5b505050506040513d601f19601f820116820180604052508101906114169190611ef8565b101561145c5760405162461bcd60e51b8152602060048201526015602482015274496e73756666696369656e742062616c616e63652160581b604482015260640161036f565b6114706001600160a01b03841683836116aa565b816001600160a01b0316836001600160a01b03167fe06fab35f3c220725c11d544884aff93ebf67222c8310c487c71f27c844593e8836040516114b591815260200190565b60405180910390a3505050565b5f81116115255760405162461bcd60e51b815260206004820152602b60248201527f4c505374616b696e673a616d6f756e74206d757374206265206772656174657260448201526a207468616e207a65726f2160a81b606482015260840161036f565b61153a6001600160a01b03831633308461170e565b816001600160a01b03167fac24935fd910bc682b5ccb1a07b718cadf8cf2f6d1404c4f3ddc3662dae40e298260405161157591815260200190565b60405180910390a25050565b6002545f9061159290600190611dcc565b905090565b5f5f5f5f5f5f865f811180156115ae575060045481105b6115ca5760405162461bcd60e51b815260040161036f90611d48565b5050505f9485525050600360208190526040909320600181015481546002830154958301546004909301546001600160a01b038316979196600160a01b9093046001600160601b03169550919350565b611622611654565b6001600160a01b03811661164b57604051631e4fbdf760e01b81525f600482015260240161036f565b61089b8161191d565b5f546001600160a01b031633146113845760405163118cdaa760e01b815233600482015260240161036f565b6002600154036116a357604051633ee5aeb560e01b815260040160405180910390fd5b6002600155565b6040516001600160a01b0383811660248301526044820183905261170991859182169063a9059cbb906064015b604051602081830303815290604052915060e01b6020820180516001600160e01b03838183161783525050505061196c565b505050565b6040516001600160a01b0384811660248301528381166044830152606482018390526117479186918216906323b872dd906084016116d7565b50505050565b5f5f8890505f5f826001600160a01b0316630902f1ac6040518163ffffffff1660e01b8152600401606060405180830381865afa158015611790573d5f5f3e3d5ffd5b505050506040513d601f19601f820116820180604052508101906117b49190611f6b565b50915091505f5f6118268c866001600160a01b03166318160ddd6040518163ffffffff1660e01b8152600401602060405180830381865afa1580156117fb573d5f5f3e3d5ffd5b505050506040513d601f19601f8201168201806040525081019061181f9190611ef8565b86866119d8565b91509150611896856001600160a01b031663d21220a76040518163ffffffff1660e01b8152600401602060405180830381865afa158015611869573d5f5f3e3d5ffd5b505050506040513d601f19601f8201168201806040525081019061188d9190611f3a565b828d8b8b611a29565b611902866001600160a01b0316630dfe16816040518163ffffffff1660e01b8152600401602060405180830381865afa1580156118d5573d5f5f3e3d5ffd5b505050506040513d601f19601f820116820180604052508101906118f99190611f3a565b848e8e8e611a29565b61190c9190611f0f565b9d9c50505050505050505050505050565b5f80546001600160a01b038381166001600160a01b0319831681178455604051919092169283917f8be0079c531659141344cd1fd0a4f28419497f9722a3daafe3b4186f6b6457e09190a35050565b5f5f60205f8451602086015f885af18061198b576040513d5f823e3d81fd5b50505f513d915081156119a25780600114156119af565b6001600160a01b0384163b155b1561174757604051635274afe760e01b81526001600160a01b038516600482015260240161036f565b5f8080856119ef886001600160701b038816611ea3565b6119f99190611eba565b90505f86611a10896001600160701b038816611ea3565b611a1a9190611eba565b91989197509095505050505050565b5f836001600160a01b0316636a0892158787896001600160a01b031663313ce5676040518163ffffffff1660e01b8152600401602060405180830381865afa158015611a77573d5f5f3e3d5ffd5b505050506040513d601f19601f82011682018060405250810190611a9b9190611fb7565b87876040518663ffffffff1660e01b8152600401611abd959493929190611fd7565b6020604051808303815f875af1158015611ad9573d5f5f3e3d5ffd5b505050506040513d601f19601f82011682018060405250810190611afd9190611ef8565b9695505050505050565b5f60208284031215611b17575f5ffd5b5035919050565b80356001600160601b0381168114611b34575f5ffd5b919050565b5f5f60408385031215611b4a575f5ffd5b82359150611b5a60208401611b1e565b90509250929050565b5f5f83601f840112611b73575f5ffd5b50813567ffffffffffffffff811115611b8a575f5ffd5b602083019150836020828501011115611ba1575f5ffd5b9250929050565b5f5f5f5f5f5f60808789031215611bbd575f5ffd5b8635955060208701359450604087013567ffffffffffffffff811115611be1575f5ffd5b611bed89828a01611b63565b909550935050606087013567ffffffffffffffff811115611c0c575f5ffd5b611c1889828a01611b63565b979a9699509497509295939492505050565b6001600160a01b038116811461089b575f5ffd5b5f5f5f5f5f5f5f60e0888a031215611c54575f5ffd5b8735611c5f81611c2a565b96506020880135611c6f81611c2a565b95506040880135611c7f81611c2a565b945060608801359350611c9460808901611b1e565b9250611ca260a08901611b1e565b9150611cb060c08901611b1e565b905092959891949750929550565b5f5f5f60608486031215611cd0575f5ffd5b8335611cdb81611c2a565b92506020840135611ceb81611c2a565b929592945050506040919091013590565b5f60208284031215611d0c575f5ffd5b8135611d1781611c2a565b9392505050565b5f5f60408385031215611d2f575f5ffd5b8235611d3a81611c2a565b946020939093013593505050565b6020808252601b908201527f4c505374616b696e673a496e76616c6964205374616b65204944210000000000604082015260600190565b634e487b7160e01b5f52601160045260245ffd5b6001600160601b038181168382160190811115611db257611db2611d7f565b92915050565b634e487b7160e01b5f52603260045260245ffd5b81810381811115611db257611db2611d7f565b6020808252601a908201527f4c505374616b696e673a496e76616c696420506f6f6c20494421000000000000604082015260600190565b60208082526021908201527f4c505374616b696e673a43616c6c6572206973206e6f7420746865206f776e656040820152603960f91b606082015260800190565b6020808252602c908201527f4c505374616b696e673a4561726c79205769746864726177616c206973206e6f60408201526b74207065726d69747465642160a01b606082015260800190565b8082028115828204841417611db257611db2611d7f565b5f82611ed457634e487b7160e01b5f52601260045260245ffd5b500490565b5f60208284031215611ee9575f5ffd5b81518015158114611d17575f5ffd5b5f60208284031215611f08575f5ffd5b5051919050565b80820180821115611db257611db2611d7f565b5f60018201611f3357611f33611d7f565b5060010190565b5f60208284031215611f4a575f5ffd5b8151611d1781611c2a565b80516001600160701b0381168114611b34575f5ffd5b5f5f5f60608486031215611f7d575f5ffd5b611f8684611f55565b9250611f9460208501611f55565b9150604084015163ffffffff81168114611fac575f5ffd5b809150509250925092565b5f60208284031215611fc7575f5ffd5b815160ff81168114611d17575f5ffd5b6001600160a01b03861681526020810185905260ff841660408201526080606082018190528101829052818360a08301375f81830160a090810191909152601f909201601f1916010194935050505056fea26469706673582212208ceed32faac318be5ad34e413597a7a4c3a56fdb997326ee0affb187024896b064736f6c634300081e0033",
			"opcodes": "PUSH1 0xA0 PUSH1 0x40 MSTORE PUSH1 0x1 PUSH1 0x4 SSTORE CALLVALUE DUP1 ISZERO PUSH2 0x14 JUMPI PUSH0 PUSH0 REVERT JUMPDEST POP PUSH1 0x40 MLOAD PUSH2 0x2264 CODESIZE SUB DUP1 PUSH2 0x2264 DUP4 CODECOPY DUP2 ADD PUSH1 0x40 DUP2 SWAP1 MSTORE PUSH2 0x33 SWAP2 PUSH2 0x1B3 JUMP JUMPDEST CALLER DUP1 PUSH2 0x58 JUMPI PUSH1 0x40 MLOAD PUSH4 0x1E4FBDF7 PUSH1 0xE0 SHL DUP2 MSTORE PUSH0 PUSH1 0x4 DUP3 ADD MSTORE PUSH1 0x24 ADD PUSH1 0x40 MLOAD DUP1 SWAP2 SUB SWAP1 REVERT JUMPDEST PUSH2 0x61 DUP2 PUSH2 0x164 JUMP JUMPDEST POP PUSH1 0x1 DUP1 DUP1 SSTORE PUSH1 0x1 PUSH1 0x1 PUSH1 0xA0 SHL SUB SWAP2 DUP3 AND PUSH1 0x80 SWAP1 DUP2 MSTORE PUSH1 0x40 DUP1 MLOAD PUSH1 0xC0 DUP2 ADD DUP3 MSTORE PUSH0 DUP1 DUP3 MSTORE PUSH1 0x20 DUP3 ADD DUP2 DUP2 MSTORE SWAP3 DUP3 ADD DUP2 DUP2 MSTORE PUSH1 0x60 DUP4 ADD DUP3 DUP2 MSTORE SWAP5 DUP4 ADD DUP3 DUP2 MSTORE PUSH1 0xA0 DUP5 ADD DUP4 DUP2 MSTORE PUSH1 0x2 DUP1 SLOAD SWAP9 DUP10 ADD DUP2 SSTORE SWAP1 SWAP4 MSTORE SWAP3 MLOAD SWAP4 MLOAD SWAP4 DUP8 AND PUSH1 0x1 PUSH1 0xA0 SHL PUSH1 0x1 PUSH1 0x1 PUSH1 0x60 SHL SUB SWAP6 DUP7 AND DUP2 MUL SWAP2 SWAP1 SWAP2 OR PUSH32 0x405787FA12A823E0F2B7631CC41B3BA8828B3321CA811111FA75CD3AA3BB5ACE PUSH1 0x3 SWAP1 SWAP9 MUL SWAP8 DUP9 ADD SSTORE SWAP1 MLOAD SWAP5 MLOAD SWAP5 DUP8 AND SWAP5 DUP5 AND DUP2 MUL SWAP5 SWAP1 SWAP5 OR PUSH32 0x405787FA12A823E0F2B7631CC41B3BA8828B3321CA811111FA75CD3AA3BB5ACF DUP7 ADD SSTORE SWAP1 MLOAD SWAP1 MLOAD SWAP5 AND SWAP4 AND MUL SWAP2 SWAP1 SWAP2 OR PUSH32 0x405787FA12A823E0F2B7631CC41B3BA8828B3321CA811111FA75CD3AA3BB5AD0 SWAP1 SWAP2 ADD SSTORE PUSH2 0x1E0 JUMP JUMPDEST PUSH0 DUP1 SLOAD PUSH1 0x1 PUSH1 0x1 PUSH1 0xA0 SHL SUB DUP4 DUP2 AND PUSH1 0x1 PUSH1 0x1 PUSH1 0xA0 SHL SUB NOT DUP4 AND DUP2 OR DUP5 SSTORE PUSH1 0x40 MLOAD SWAP2 SWAP1 SWAP3 AND SWAP3 DUP4 SWAP2 PUSH32 0x8BE0079C531659141344CD1FD0A4F28419497F9722A3DAAFE3B4186F6B6457E0 SWAP2 SWAP1 LOG3 POP POP JUMP JUMPDEST PUSH0 PUSH1 0x20 DUP3 DUP5 SUB SLT ISZERO PUSH2 0x1C3 JUMPI PUSH0 PUSH0 REVERT JUMPDEST DUP2 MLOAD PUSH1 0x1 PUSH1 0x1 PUSH1 0xA0 SHL SUB DUP2 AND DUP2 EQ PUSH2 0x1D9 JUMPI PUSH0 PUSH0 REVERT JUMPDEST SWAP4 SWAP3 POP POP POP JUMP JUMPDEST PUSH1 0x80 MLOAD PUSH2 0x205E PUSH2 0x206 PUSH0 CODECOPY PUSH0 DUP2 DUP2 PUSH2 0x2AD ADD MSTORE DUP2 DUP2 PUSH2 0xC0C ADD MSTORE PUSH2 0xCA7 ADD MSTORE PUSH2 0x205E PUSH0 RETURN INVALID PUSH1 0x80 PUSH1 0x40 MSTORE CALLVALUE DUP1 ISZERO PUSH2 0xF JUMPI PUSH0 PUSH0 REVERT JUMPDEST POP PUSH1 0x4 CALLDATASIZE LT PUSH2 0x110 JUMPI PUSH0 CALLDATALOAD PUSH1 0xE0 SHR DUP1 PUSH4 0x715018A6 GT PUSH2 0x9E JUMPI DUP1 PUSH4 0xA9FC507B GT PUSH2 0x6E JUMPI DUP1 PUSH4 0xA9FC507B EQ PUSH2 0x28D JUMPI DUP1 PUSH4 0xB4AC6860 EQ PUSH2 0x2A0 JUMPI DUP1 PUSH4 0xCC5C56DC EQ PUSH2 0x2A8 JUMPI DUP1 PUSH4 0xCE325BF8 EQ PUSH2 0x2CF JUMPI DUP1 PUSH4 0xF2FDE38B EQ PUSH2 0x327 JUMPI PUSH0 PUSH0 REVERT JUMPDEST DUP1 PUSH4 0x715018A6 EQ PUSH2 0x22F JUMPI DUP1 PUSH4 0x74EE6B62 EQ PUSH2 0x237 JUMPI DUP1 PUSH4 0x8DA5CB5B EQ PUSH2 0x24A JUMPI DUP1 PUSH4 0x954821B6 EQ PUSH2 0x26E JUMPI PUSH0 PUSH0 REVERT JUMPDEST DUP1 PUSH4 0x25D5971F GT PUSH2 0xE4 JUMPI DUP1 PUSH4 0x25D5971F EQ PUSH2 0x1C2 JUMPI DUP1 PUSH4 0x379607F5 EQ PUSH2 0x1D5 JUMPI DUP1 PUSH4 0x3B5DD047 EQ PUSH2 0x1E8 JUMPI DUP1 PUSH4 0x4F44DAA9 EQ PUSH2 0x1FB JUMPI DUP1 PUSH4 0x69CA431B EQ PUSH2 0x20E JUMPI PUSH0 PUSH0 REVERT JUMPDEST DUP1 PUSH3 0x215784 EQ PUSH2 0x114 JUMPI DUP1 PUSH4 0x39BA6B7 EQ PUSH2 0x129 JUMPI DUP1 PUSH4 0x68BCD8D EQ PUSH2 0x13C JUMPI DUP1 PUSH4 0x21241DFE EQ PUSH2 0x1A0 JUMPI JUMPDEST PUSH0 PUSH0 REVERT JUMPDEST PUSH2 0x127 PUSH2 0x122 CALLDATASIZE PUSH1 0x4 PUSH2 0x1B07 JUMP JUMPDEST PUSH2 0x33A JUMP JUMPDEST STOP JUMPDEST PUSH2 0x127 PUSH2 0x137 CALLDATASIZE PUSH1 0x4 PUSH2 0x1B39 JUMP JUMPDEST PUSH2 0x460 JUMP JUMPDEST PUSH2 0x14F PUSH2 0x14A CALLDATASIZE PUSH1 0x4 PUSH2 0x1B07 JUMP JUMPDEST PUSH2 0x573 JUMP JUMPDEST PUSH1 0x40 DUP1 MLOAD PUSH1 0x1 PUSH1 0x1 PUSH1 0xA0 SHL SUB SWAP8 DUP9 AND DUP2 MSTORE SWAP6 DUP8 AND PUSH1 0x20 DUP8 ADD MSTORE SWAP4 SWAP1 SWAP6 AND SWAP3 DUP5 ADD SWAP3 SWAP1 SWAP3 MSTORE PUSH1 0x1 PUSH1 0x1 PUSH1 0x60 SHL SUB SWAP1 DUP2 AND PUSH1 0x60 DUP5 ADD MSTORE SWAP1 DUP2 AND PUSH1 0x80 DUP4 ADD MSTORE SWAP1 SWAP2 AND PUSH1 0xA0 DUP3 ADD MSTORE PUSH1 0xC0 ADD JUMPDEST PUSH1 0x40 MLOAD DUP1 SWAP2 SUB SWAP1 RETURN JUMPDEST PUSH2 0x1AA PUSH3 0x34BC00 DUP2 JUMP JUMPDEST PUSH1 0x40 MLOAD PUSH1 0x1 PUSH1 0x1 PUSH1 0x60 SHL SUB SWAP1 SWAP2 AND DUP2 MSTORE PUSH1 0x20 ADD PUSH2 0x197 JUMP JUMPDEST PUSH2 0x127 PUSH2 0x1D0 CALLDATASIZE PUSH1 0x4 PUSH2 0x1B07 JUMP JUMPDEST PUSH2 0x6F7 JUMP JUMPDEST PUSH2 0x127 PUSH2 0x1E3 CALLDATASIZE PUSH1 0x4 PUSH2 0x1B07 JUMP JUMPDEST PUSH2 0x89E JUMP JUMPDEST PUSH2 0x127 PUSH2 0x1F6 CALLDATASIZE PUSH1 0x4 PUSH2 0x1BA8 JUMP JUMPDEST PUSH2 0xAB0 JUMP JUMPDEST PUSH2 0x127 PUSH2 0x209 CALLDATASIZE PUSH1 0x4 PUSH2 0x1B39 JUMP JUMPDEST PUSH2 0xF55 JUMP JUMPDEST PUSH2 0x221 PUSH2 0x21C CALLDATASIZE PUSH1 0x4 PUSH2 0x1C3E JUMP JUMPDEST PUSH2 0x105F JUMP JUMPDEST PUSH1 0x40 MLOAD SWAP1 DUP2 MSTORE PUSH1 0x20 ADD PUSH2 0x197 JUMP JUMPDEST PUSH2 0x127 PUSH2 0x1373 JUMP JUMPDEST PUSH2 0x127 PUSH2 0x245 CALLDATASIZE PUSH1 0x4 PUSH2 0x1CBE JUMP JUMPDEST PUSH2 0x1386 JUMP JUMPDEST PUSH0 SLOAD PUSH1 0x1 PUSH1 0x1 PUSH1 0xA0 SHL SUB AND JUMPDEST PUSH1 0x40 MLOAD PUSH1 0x1 PUSH1 0x1 PUSH1 0xA0 SHL SUB SWAP1 SWAP2 AND DUP2 MSTORE PUSH1 0x20 ADD PUSH2 0x197 JUMP JUMPDEST PUSH2 0x221 PUSH2 0x27C CALLDATASIZE PUSH1 0x4 PUSH2 0x1CFC JUMP JUMPDEST PUSH1 0x5 PUSH1 0x20 MSTORE PUSH0 SWAP1 DUP2 MSTORE PUSH1 0x40 SWAP1 KECCAK256 SLOAD DUP2 JUMP JUMPDEST PUSH2 0x127 PUSH2 0x29B CALLDATASIZE PUSH1 0x4 PUSH2 0x1D1E JUMP JUMPDEST PUSH2 0x14C2 JUMP JUMPDEST PUSH2 0x221 PUSH2 0x1581 JUMP JUMPDEST PUSH2 0x256 PUSH32 0x0 DUP2 JUMP JUMPDEST PUSH2 0x2E2 PUSH2 0x2DD CALLDATASIZE PUSH1 0x4 PUSH2 0x1B07 JUMP JUMPDEST PUSH2 0x1597 JUMP JUMPDEST PUSH1 0x40 DUP1 MLOAD PUSH1 0x1 PUSH1 0x1 PUSH1 0xA0 SHL SUB SWAP1 SWAP8 AND DUP8 MSTORE PUSH1 0x20 DUP8 ADD SWAP6 SWAP1 SWAP6 MSTORE PUSH1 0x1 PUSH1 0x1 PUSH1 0x60 SHL SUB SWAP1 SWAP4 AND SWAP4 DUP6 ADD SWAP4 SWAP1 SWAP4 MSTORE PUSH1 0x60 DUP5 ADD MSTORE PUSH1 0x80 DUP4 ADD SWAP2 SWAP1 SWAP2 MSTORE PUSH1 0xA0 DUP3 ADD MSTORE PUSH1 0xC0 ADD PUSH2 0x197 JUMP JUMPDEST PUSH2 0x127 PUSH2 0x335 CALLDATASIZE PUSH1 0x4 PUSH2 0x1CFC JUMP JUMPDEST PUSH2 0x161A JUMP JUMPDEST PUSH2 0x342 PUSH2 0x1654 JUMP JUMPDEST DUP1 PUSH0 DUP2 GT DUP1 ISZERO PUSH2 0x353 JUMPI POP PUSH1 0x4 SLOAD DUP2 LT JUMPDEST PUSH2 0x378 JUMPI PUSH1 0x40 MLOAD PUSH3 0x461BCD PUSH1 0xE5 SHL DUP2 MSTORE PUSH1 0x4 ADD PUSH2 0x36F SWAP1 PUSH2 0x1D48 JUMP JUMPDEST PUSH1 0x40 MLOAD DUP1 SWAP2 SUB SWAP1 REVERT JUMPDEST PUSH0 DUP3 DUP2 MSTORE PUSH1 0x3 PUSH1 0x20 MSTORE PUSH1 0x40 SWAP1 KECCAK256 PUSH1 0x1 DUP2 ADD SLOAD PUSH2 0x3A8 SWAP1 PUSH3 0x34BC00 SWAP1 PUSH1 0x1 PUSH1 0xA0 SHL SWAP1 DIV PUSH1 0x1 PUSH1 0x1 PUSH1 0x60 SHL SUB AND PUSH2 0x1D93 JUMP JUMPDEST PUSH1 0x1 PUSH1 0x1 PUSH1 0x60 SHL SUB AND TIMESTAMP PUSH1 0x1 PUSH1 0x1 PUSH1 0x60 SHL SUB AND LT ISZERO PUSH2 0x3C5 JUMPI PUSH0 PUSH0 REVERT JUMPDEST PUSH0 PUSH1 0x2 DUP3 PUSH0 ADD SLOAD DUP2 SLOAD DUP2 LT PUSH2 0x3DC JUMPI PUSH2 0x3DC PUSH2 0x1DB8 JUMP JUMPDEST PUSH0 SWAP2 DUP3 MSTORE PUSH1 0x20 DUP1 DUP4 KECCAK256 PUSH1 0x3 DUP7 DUP2 ADD SLOAD SWAP4 MUL ADD PUSH1 0x1 DUP2 ADD SLOAD PUSH1 0x1 PUSH1 0x1 PUSH1 0xA0 SHL SUB AND DUP5 MSTORE PUSH1 0x5 SWAP1 SWAP2 MSTORE PUSH1 0x40 DUP4 KECCAK256 DUP1 SLOAD SWAP2 SWAP5 POP SWAP2 SWAP3 SWAP1 PUSH2 0x41A SWAP1 DUP5 SWAP1 PUSH2 0x1DCC JUMP JUMPDEST SWAP1 SWAP2 SSTORE POP POP PUSH0 PUSH1 0x3 DUP4 ADD SSTORE DUP2 SLOAD PUSH1 0x40 MLOAD DUP6 DUP2 MSTORE PUSH32 0x85CF309FCBACAF1EE2B300F62E8586A0661E41C7F318003E9AAB792BE89980B SWAP1 PUSH1 0x20 ADD PUSH1 0x40 MLOAD DUP1 SWAP2 SUB SWAP1 LOG2 POP POP POP POP JUMP JUMPDEST PUSH2 0x468 PUSH2 0x1654 JUMP JUMPDEST DUP2 PUSH0 DUP2 GT DUP1 ISZERO PUSH2 0x479 JUMPI POP PUSH1 0x2 SLOAD DUP2 LT JUMPDEST PUSH2 0x495 JUMPI PUSH1 0x40 MLOAD PUSH3 0x461BCD PUSH1 0xE5 SHL DUP2 MSTORE PUSH1 0x4 ADD PUSH2 0x36F SWAP1 PUSH2 0x1DDF JUMP JUMPDEST PUSH3 0x186A0 DUP3 PUSH1 0x1 PUSH1 0x1 PUSH1 0x60 SHL SUB AND GT ISZERO PUSH2 0x4F1 JUMPI PUSH1 0x40 MLOAD PUSH3 0x461BCD PUSH1 0xE5 SHL DUP2 MSTORE PUSH1 0x20 PUSH1 0x4 DUP3 ADD MSTORE PUSH1 0x1A PUSH1 0x24 DUP3 ADD MSTORE PUSH32 0x4C505374616B696E673A6D617820617079206973203130303025000000000000 PUSH1 0x44 DUP3 ADD MSTORE PUSH1 0x64 ADD PUSH2 0x36F JUMP JUMPDEST DUP2 PUSH1 0x2 DUP5 DUP2 SLOAD DUP2 LT PUSH2 0x505 JUMPI PUSH2 0x505 PUSH2 0x1DB8 JUMP JUMPDEST PUSH0 SWAP2 DUP3 MSTORE PUSH1 0x20 SWAP2 DUP3 SWAP1 KECCAK256 PUSH1 0x3 SWAP2 SWAP1 SWAP2 MUL ADD PUSH1 0x1 ADD DUP1 SLOAD PUSH1 0x1 PUSH1 0x1 PUSH1 0xA0 SHL SUB AND PUSH1 0x1 PUSH1 0xA0 SHL PUSH1 0x1 PUSH1 0x1 PUSH1 0x60 SHL SUB SWAP5 DUP6 AND MUL OR SWAP1 SSTORE PUSH1 0x40 MLOAD SWAP2 DUP5 AND DUP3 MSTORE DUP5 SWAP2 PUSH32 0x9A2C3C653A42F5C64BBFDF07224D8E0D6526460F44E520AC49BAE23804E18E8 SWAP2 ADD JUMPDEST PUSH1 0x40 MLOAD DUP1 SWAP2 SUB SWAP1 LOG2 POP POP POP JUMP JUMPDEST PUSH0 PUSH0 PUSH0 PUSH0 PUSH0 PUSH0 DUP7 PUSH0 DUP2 GT DUP1 ISZERO PUSH2 0x58A JUMPI POP PUSH1 0x2 SLOAD DUP2 LT JUMPDEST PUSH2 0x5A6 JUMPI PUSH1 0x40 MLOAD PUSH3 0x461BCD PUSH1 0xE5 SHL DUP2 MSTORE PUSH1 0x4 ADD PUSH2 0x36F SWAP1 PUSH2 0x1DDF JUMP JUMPDEST PUSH1 0x2 DUP9 DUP2 SLOAD DUP2 LT PUSH2 0x5B9 JUMPI PUSH2 0x5B9 PUSH2 0x1DB8 JUMP JUMPDEST PUSH0 SWAP2 DUP3 MSTORE PUSH1 0x20 SWAP1 SWAP2 KECCAK256 PUSH1 0x3 SWAP1 SWAP2 MUL ADD SLOAD PUSH1 0x2 DUP1 SLOAD PUSH1 0x1 PUSH1 0x1 PUSH1 0xA0 SHL SUB SWAP1 SWAP3 AND SWAP2 DUP11 SWAP1 DUP2 LT PUSH2 0x5E9 JUMPI PUSH2 0x5E9 PUSH2 0x1DB8 JUMP JUMPDEST SWAP1 PUSH0 MSTORE PUSH1 0x20 PUSH0 KECCAK256 SWAP1 PUSH1 0x3 MUL ADD PUSH1 0x1 ADD PUSH0 SWAP1 SLOAD SWAP1 PUSH2 0x100 EXP SWAP1 DIV PUSH1 0x1 PUSH1 0x1 PUSH1 0xA0 SHL SUB AND PUSH1 0x2 DUP11 DUP2 SLOAD DUP2 LT PUSH2 0x61E JUMPI PUSH2 0x61E PUSH2 0x1DB8 JUMP JUMPDEST SWAP1 PUSH0 MSTORE PUSH1 0x20 PUSH0 KECCAK256 SWAP1 PUSH1 0x3 MUL ADD PUSH1 0x2 ADD PUSH0 SWAP1 SLOAD SWAP1 PUSH2 0x100 EXP SWAP1 DIV PUSH1 0x1 PUSH1 0x1 PUSH1 0xA0 SHL SUB AND PUSH1 0x2 DUP12 DUP2 SLOAD DUP2 LT PUSH2 0x653 JUMPI PUSH2 0x653 PUSH2 0x1DB8 JUMP JUMPDEST SWAP1 PUSH0 MSTORE PUSH1 0x20 PUSH0 KECCAK256 SWAP1 PUSH1 0x3 MUL ADD PUSH0 ADD PUSH1 0x14 SWAP1 SLOAD SWAP1 PUSH2 0x100 EXP SWAP1 DIV PUSH1 0x1 PUSH1 0x1 PUSH1 0x60 SHL SUB AND PUSH1 0x2 DUP13 DUP2 SLOAD DUP2 LT PUSH2 0x688 JUMPI PUSH2 0x688 PUSH2 0x1DB8 JUMP JUMPDEST SWAP1 PUSH0 MSTORE PUSH1 0x20 PUSH0 KECCAK256 SWAP1 PUSH1 0x3 MUL ADD PUSH1 0x1 ADD PUSH1 0x14 SWAP1 SLOAD SWAP1 PUSH2 0x100 EXP SWAP1 DIV PUSH1 0x1 PUSH1 0x1 PUSH1 0x60 SHL SUB AND PUSH1 0x2 DUP14 DUP2 SLOAD DUP2 LT PUSH2 0x6BE JUMPI PUSH2 0x6BE PUSH2 0x1DB8 JUMP JUMPDEST SWAP1 PUSH0 MSTORE PUSH1 0x20 PUSH0 KECCAK256 SWAP1 PUSH1 0x3 MUL ADD PUSH1 0x2 ADD PUSH1 0x14 SWAP1 SLOAD SWAP1 PUSH2 0x100 EXP SWAP1 DIV PUSH1 0x1 PUSH1 0x1 PUSH1 0x60 SHL SUB AND SWAP7 POP SWAP7 POP SWAP7 POP SWAP7 POP SWAP7 POP SWAP7 POP POP SWAP2 SWAP4 SWAP6 POP SWAP2 SWAP4 SWAP6 JUMP JUMPDEST PUSH2 0x6FF PUSH2 0x1680 JUMP JUMPDEST DUP1 PUSH0 DUP2 GT DUP1 ISZERO PUSH2 0x710 JUMPI POP PUSH1 0x4 SLOAD DUP2 LT JUMPDEST PUSH2 0x72C JUMPI PUSH1 0x40 MLOAD PUSH3 0x461BCD PUSH1 0xE5 SHL DUP2 MSTORE PUSH1 0x4 ADD PUSH2 0x36F SWAP1 PUSH2 0x1D48 JUMP JUMPDEST PUSH0 DUP3 DUP2 MSTORE PUSH1 0x3 PUSH1 0x20 MSTORE PUSH1 0x40 SWAP1 KECCAK256 PUSH1 0x1 DUP2 ADD SLOAD PUSH1 0x1 PUSH1 0x1 PUSH1 0xA0 SHL SUB AND CALLER EQ PUSH2 0x765 JUMPI PUSH1 0x40 MLOAD PUSH3 0x461BCD PUSH1 0xE5 SHL DUP2 MSTORE PUSH1 0x4 ADD PUSH2 0x36F SWAP1 PUSH2 0x1E16 JUMP JUMPDEST PUSH0 PUSH1 0x2 DUP3 PUSH0 ADD SLOAD DUP2 SLOAD DUP2 LT PUSH2 0x77C JUMPI PUSH2 0x77C PUSH2 0x1DB8 JUMP JUMPDEST PUSH0 SWAP2 DUP3 MSTORE PUSH1 0x20 SWAP2 DUP3 SWAP1 KECCAK256 PUSH1 0x40 DUP1 MLOAD PUSH1 0xC0 DUP2 ADD DUP3 MSTORE PUSH1 0x3 SWAP1 SWAP4 MUL SWAP1 SWAP2 ADD DUP1 SLOAD PUSH1 0x1 PUSH1 0x1 PUSH1 0xA0 SHL SUB DUP1 DUP3 AND DUP6 MSTORE PUSH1 0x1 PUSH1 0x1 PUSH1 0x60 SHL SUB PUSH1 0x1 PUSH1 0xA0 SHL SWAP3 DUP4 SWAP1 DIV DUP2 AND SWAP7 DUP7 ADD SWAP7 SWAP1 SWAP7 MSTORE PUSH1 0x1 DUP1 DUP5 ADD SLOAD DUP1 DUP4 AND SWAP6 DUP8 ADD SWAP6 SWAP1 SWAP6 MSTORE SWAP4 DUP3 SWAP1 DIV DUP7 AND PUSH1 0x60 DUP7 ADD MSTORE PUSH1 0x2 SWAP1 SWAP3 ADD SLOAD SWAP2 DUP3 AND PUSH1 0x80 DUP6 ADD MSTORE SWAP1 DUP2 SWAP1 DIV DUP5 AND PUSH1 0xA0 DUP5 ADD MSTORE SWAP1 DUP6 ADD SLOAD SWAP2 SWAP4 POP SWAP1 DIV AND PUSH2 0x806 TIMESTAMP SWAP1 JUMP JUMPDEST PUSH1 0x1 PUSH1 0x1 PUSH1 0x60 SHL SUB AND LT ISZERO PUSH2 0x82D JUMPI PUSH1 0x40 MLOAD PUSH3 0x461BCD PUSH1 0xE5 SHL DUP2 MSTORE PUSH1 0x4 ADD PUSH2 0x36F SWAP1 PUSH2 0x1E57 JUMP JUMPDEST PUSH1 0x2 DUP3 ADD SLOAD ISZERO PUSH2 0x88F JUMPI PUSH2 0x852 CALLER PUSH1 0x2 DUP5 ADD SLOAD DUP4 MLOAD PUSH1 0x1 PUSH1 0x1 PUSH1 0xA0 SHL SUB AND SWAP2 SWAP1 PUSH2 0x16AA JUMP JUMPDEST PUSH0 PUSH1 0x2 DUP4 ADD SSTORE DUP2 SLOAD PUSH1 0x40 MLOAD DUP6 DUP2 MSTORE PUSH32 0x3DB0CA701D7C1106534C6003E5D65DAE65A9CB891AD5BBB9BE39C091DF79D87E SWAP1 PUSH1 0x20 ADD JUMPDEST PUSH1 0x40 MLOAD DUP1 SWAP2 SUB SWAP1 LOG2 JUMPDEST POP POP POP PUSH2 0x89B PUSH1 0x1 DUP1 SSTORE JUMP JUMPDEST POP JUMP JUMPDEST PUSH2 0x8A6 PUSH2 0x1680 JUMP JUMPDEST DUP1 PUSH0 DUP2 GT DUP1 ISZERO PUSH2 0x8B7 JUMPI POP PUSH1 0x4 SLOAD DUP2 LT JUMPDEST PUSH2 0x8D3 JUMPI PUSH1 0x40 MLOAD PUSH3 0x461BCD PUSH1 0xE5 SHL DUP2 MSTORE PUSH1 0x4 ADD PUSH2 0x36F SWAP1 PUSH2 0x1D48 JUMP JUMPDEST PUSH0 DUP3 DUP2 MSTORE PUSH1 0x3 PUSH1 0x20 MSTORE PUSH1 0x40 SWAP1 KECCAK256 PUSH1 0x1 DUP2 ADD SLOAD PUSH1 0x1 PUSH1 0x1 PUSH1 0xA0 SHL SUB AND CALLER EQ PUSH2 0x90C JUMPI PUSH1 0x40 MLOAD PUSH3 0x461BCD PUSH1 0xE5 SHL DUP2 MSTORE PUSH1 0x4 ADD PUSH2 0x36F SWAP1 PUSH2 0x1E16 JUMP JUMPDEST PUSH0 PUSH1 0x2 DUP3 PUSH0 ADD SLOAD DUP2 SLOAD DUP2 LT PUSH2 0x923 JUMPI PUSH2 0x923 PUSH2 0x1DB8 JUMP JUMPDEST PUSH0 SWAP2 DUP3 MSTORE PUSH1 0x20 SWAP1 SWAP2 KECCAK256 PUSH1 0x1 DUP5 ADD SLOAD PUSH1 0x3 SWAP1 SWAP3 MUL ADD SWAP2 POP PUSH1 0x1 PUSH1 0xA0 SHL SWAP1 DIV PUSH1 0x1 PUSH1 0x1 PUSH1 0x60 SHL SUB AND TIMESTAMP PUSH1 0x1 PUSH1 0x1 PUSH1 0x60 SHL SUB AND LT ISZERO PUSH2 0x971 JUMPI PUSH1 0x40 MLOAD PUSH3 0x461BCD PUSH1 0xE5 SHL DUP2 MSTORE PUSH1 0x4 ADD PUSH2 0x36F SWAP1 PUSH2 0x1E57 JUMP JUMPDEST PUSH0 DUP3 PUSH1 0x3 ADD SLOAD GT PUSH2 0x9C4 JUMPI PUSH1 0x40 MLOAD PUSH3 0x461BCD PUSH1 0xE5 SHL DUP2 MSTORE PUSH1 0x20 PUSH1 0x4 DUP3 ADD MSTORE PUSH1 0x1A PUSH1 0x24 DUP3 ADD MSTORE PUSH32 0x4C505374616B696E673A4E6F7468696E6720746F20636C61696D000000000000 PUSH1 0x44 DUP3 ADD MSTORE PUSH1 0x64 ADD PUSH2 0x36F JUMP JUMPDEST PUSH1 0x2 DUP3 ADD SLOAD ISZERO PUSH2 0x9F0 JUMPI PUSH2 0x9E9 CALLER PUSH1 0x2 DUP5 ADD SLOAD DUP4 SLOAD PUSH1 0x1 PUSH1 0x1 PUSH1 0xA0 SHL SUB AND SWAP2 SWAP1 PUSH2 0x16AA JUMP JUMPDEST PUSH0 PUSH1 0x2 DUP4 ADD SSTORE JUMPDEST PUSH2 0xA0E CALLER PUSH1 0x3 DUP5 ADD SLOAD PUSH1 0x1 DUP5 ADD SLOAD PUSH1 0x1 PUSH1 0x1 PUSH1 0xA0 SHL SUB AND SWAP2 SWAP1 PUSH2 0x16AA JUMP JUMPDEST PUSH1 0x3 DUP3 ADD SLOAD PUSH1 0x1 DUP3 ADD SLOAD PUSH1 0x1 PUSH1 0x1 PUSH1 0xA0 SHL SUB AND PUSH0 SWAP1 DUP2 MSTORE PUSH1 0x5 PUSH1 0x20 MSTORE PUSH1 0x40 DUP2 KECCAK256 DUP1 SLOAD SWAP1 SWAP2 SWAP1 PUSH2 0xA3E SWAP1 DUP5 SWAP1 PUSH2 0x1DCC JUMP JUMPDEST SWAP1 SWAP2 SSTORE POP POP PUSH0 PUSH1 0x3 DUP4 ADD SSTORE DUP2 SLOAD PUSH1 0x40 MLOAD DUP6 DUP2 MSTORE PUSH32 0x3DB0CA701D7C1106534C6003E5D65DAE65A9CB891AD5BBB9BE39C091DF79D87E SWAP1 PUSH1 0x20 ADD PUSH1 0x40 MLOAD DUP1 SWAP2 SUB SWAP1 LOG2 DUP2 SLOAD PUSH1 0x40 MLOAD DUP6 DUP2 MSTORE PUSH32 0x4D7828F2AA36030CC63CDEA79EC646099AA121D019F1A90EDB55078939FB84EA SWAP1 PUSH1 0x20 ADD PUSH2 0x886 JUMP JUMPDEST PUSH2 0xAB8 PUSH2 0x1680 JUMP JUMPDEST DUP6 PUSH0 DUP2 GT DUP1 ISZERO PUSH2 0xAC9 JUMPI POP PUSH1 0x2 SLOAD DUP2 LT JUMPDEST PUSH2 0xAE5 JUMPI PUSH1 0x40 MLOAD PUSH3 0x461BCD PUSH1 0xE5 SHL DUP2 MSTORE PUSH1 0x4 ADD PUSH2 0x36F SWAP1 PUSH2 0x1DDF JUMP JUMPDEST PUSH0 PUSH1 0x2 DUP9 DUP2 SLOAD DUP2 LT PUSH2 0xAF9 JUMPI PUSH2 0xAF9 PUSH2 0x1DB8 JUMP JUMPDEST SWAP1 PUSH0 MSTORE PUSH1 0x20 PUSH0 KECCAK256 SWAP1 PUSH1 0x3 MUL ADD SWAP1 POP PUSH0 DUP2 PUSH1 0x1 ADD PUSH1 0x14 SWAP1 SLOAD SWAP1 PUSH2 0x100 EXP SWAP1 DIV PUSH1 0x1 PUSH1 0x1 PUSH1 0x60 SHL SUB AND PUSH1 0x1 PUSH1 0x1 PUSH1 0x60 SHL SUB AND GT PUSH2 0xB76 JUMPI PUSH1 0x40 MLOAD PUSH3 0x461BCD PUSH1 0xE5 SHL DUP2 MSTORE PUSH1 0x20 PUSH1 0x4 DUP3 ADD MSTORE PUSH1 0x19 PUSH1 0x24 DUP3 ADD MSTORE PUSH32 0x4C505374616B696E673A506F6F6C206973207061757365642100000000000000 PUSH1 0x44 DUP3 ADD MSTORE PUSH1 0x64 ADD PUSH2 0x36F JUMP JUMPDEST PUSH2 0xB8D CALLER DUP3 SLOAD PUSH1 0x1 PUSH1 0x1 PUSH1 0xA0 SHL SUB AND SWAP1 ADDRESS DUP11 PUSH2 0x170E JUMP JUMPDEST DUP1 SLOAD PUSH1 0x2 DUP3 ADD SLOAD PUSH0 SWAP2 PUSH2 0xBB2 SWAP2 PUSH1 0x1 PUSH1 0x1 PUSH1 0xA0 SHL SUB SWAP2 DUP3 AND SWAP2 DUP12 SWAP2 AND DUP11 DUP11 DUP11 DUP11 PUSH2 0x174D JUMP JUMPDEST DUP3 SLOAD PUSH1 0x1 DUP5 ADD SLOAD SWAP2 SWAP3 POP PUSH0 SWAP2 PUSH4 0x1E13380 SWAP2 PUSH1 0x1 PUSH1 0x1 PUSH1 0x60 SHL SUB PUSH1 0x1 PUSH1 0xA0 SHL SWAP2 DUP3 SWAP1 DIV DUP2 AND SWAP3 PUSH2 0x2710 SWAP3 PUSH2 0xBE9 SWAP3 SWAP2 DIV AND DUP7 PUSH2 0x1EA3 JUMP JUMPDEST PUSH2 0xBF3 SWAP2 SWAP1 PUSH2 0x1EBA JUMP JUMPDEST PUSH2 0xBFD SWAP2 SWAP1 PUSH2 0x1EA3 JUMP JUMPDEST PUSH2 0xC07 SWAP2 SWAP1 PUSH2 0x1EBA JUMP JUMPDEST SWAP1 POP PUSH0 PUSH32 0x0 PUSH1 0x1 PUSH1 0x1 PUSH1 0xA0 SHL SUB AND PUSH4 0x8EF1E259 CALLER PUSH1 0x40 MLOAD PUSH1 0x1 PUSH1 0x1 PUSH1 0xE0 SHL SUB NOT PUSH1 0xE0 DUP5 SWAP1 SHL AND DUP2 MSTORE PUSH1 0x1 PUSH1 0x1 PUSH1 0xA0 SHL SUB SWAP1 SWAP2 AND PUSH1 0x4 DUP3 ADD MSTORE PUSH1 0x24 ADD PUSH1 0x20 PUSH1 0x40 MLOAD DUP1 DUP4 SUB DUP2 DUP7 GAS STATICCALL ISZERO DUP1 ISZERO PUSH2 0xC7C JUMPI RETURNDATASIZE PUSH0 PUSH0 RETURNDATACOPY RETURNDATASIZE PUSH0 REVERT JUMPDEST POP POP POP POP PUSH1 0x40 MLOAD RETURNDATASIZE PUSH1 0x1F NOT PUSH1 0x1F DUP3 ADD AND DUP3 ADD DUP1 PUSH1 0x40 MSTORE POP DUP2 ADD SWAP1 PUSH2 0xCA0 SWAP2 SWAP1 PUSH2 0x1ED9 JUMP JUMPDEST ISZERO PUSH2 0xD86 JUMPI PUSH32 0x0 PUSH1 0x1 PUSH1 0x1 PUSH1 0xA0 SHL SUB AND PUSH4 0x9A3BFDF5 PUSH1 0x40 MLOAD DUP2 PUSH4 0xFFFFFFFF AND PUSH1 0xE0 SHL DUP2 MSTORE PUSH1 0x4 ADD PUSH1 0x20 PUSH1 0x40 MLOAD DUP1 DUP4 SUB DUP2 DUP7 GAS STATICCALL ISZERO DUP1 ISZERO PUSH2 0xD01 JUMPI RETURNDATASIZE PUSH0 PUSH0 RETURNDATACOPY RETURNDATASIZE PUSH0 REVERT JUMPDEST POP POP POP POP PUSH1 0x40 MLOAD RETURNDATASIZE PUSH1 0x1F NOT PUSH1 0x1F DUP3 ADD AND DUP3 ADD DUP1 PUSH1 0x40 MSTORE POP DUP2 ADD SWAP1 PUSH2 0xD25 SWAP2 SWAP1 PUSH2 0x1EF8 JUMP JUMPDEST DUP5 SLOAD PUSH1 0x2 DUP7 ADD SLOAD SWAP2 SWAP3 POP PUSH4 0x1E13380 SWAP2 PUSH1 0x1 PUSH1 0x1 PUSH1 0x60 SHL SUB PUSH1 0x1 PUSH1 0xA0 SHL SWAP3 DUP4 SWAP1 DIV DUP2 AND SWAP3 PUSH2 0x2710 SWAP3 PUSH2 0xD5B SWAP3 SWAP2 SWAP1 DIV AND DUP8 PUSH2 0x1EA3 JUMP JUMPDEST PUSH2 0xD65 SWAP2 SWAP1 PUSH2 0x1EBA JUMP JUMPDEST PUSH2 0xD6F SWAP2 SWAP1 PUSH2 0x1EA3 JUMP JUMPDEST PUSH2 0xD79 SWAP2 SWAP1 PUSH2 0x1EBA JUMP JUMPDEST PUSH2 0xD83 SWAP1 DUP4 PUSH2 0x1F0F JUMP JUMPDEST SWAP2 POP JUMPDEST DUP4 SLOAD PUSH0 SWAP1 PUSH1 0x1 PUSH1 0xA0 SHL SWAP1 DIV PUSH1 0x1 PUSH1 0x1 PUSH1 0x60 SHL SUB AND TIMESTAMP PUSH2 0xDA5 SWAP2 SWAP1 PUSH2 0x1D93 JUMP JUMPDEST SWAP1 POP PUSH1 0x40 MLOAD DUP1 PUSH1 0xC0 ADD PUSH1 0x40 MSTORE DUP1 DUP14 DUP2 MSTORE PUSH1 0x20 ADD PUSH2 0xDBF CALLER SWAP1 JUMP JUMPDEST PUSH1 0x1 PUSH1 0x1 PUSH1 0xA0 SHL SUB AND DUP2 MSTORE PUSH1 0x20 ADD DUP3 PUSH1 0x1 PUSH1 0x1 PUSH1 0x60 SHL SUB AND DUP2 MSTORE PUSH1 0x20 ADD DUP13 DUP2 MSTORE PUSH1 0x20 ADD DUP5 DUP2 MSTORE PUSH1 0x20 ADD DUP4 DUP2 MSTORE POP PUSH1 0x3 PUSH0 PUSH1 0x4 SLOAD DUP2 MSTORE PUSH1 0x20 ADD SWAP1 DUP2 MSTORE PUSH1 0x20 ADD PUSH0 KECCAK256 PUSH0 DUP3 ADD MLOAD DUP2 PUSH0 ADD SSTORE PUSH1 0x20 DUP3 ADD MLOAD DUP2 PUSH1 0x1 ADD PUSH0 PUSH2 0x100 EXP DUP2 SLOAD DUP2 PUSH1 0x1 PUSH1 0x1 PUSH1 0xA0 SHL SUB MUL NOT AND SWAP1 DUP4 PUSH1 0x1 PUSH1 0x1 PUSH1 0xA0 SHL SUB AND MUL OR SWAP1 SSTORE POP PUSH1 0x40 DUP3 ADD MLOAD DUP2 PUSH1 0x1 ADD PUSH1 0x14 PUSH2 0x100 EXP DUP2 SLOAD DUP2 PUSH1 0x1 PUSH1 0x1 PUSH1 0x60 SHL SUB MUL NOT AND SWAP1 DUP4 PUSH1 0x1 PUSH1 0x1 PUSH1 0x60 SHL SUB AND MUL OR SWAP1 SSTORE POP PUSH1 0x60 DUP3 ADD MLOAD DUP2 PUSH1 0x2 ADD SSTORE PUSH1 0x80 DUP3 ADD MLOAD DUP2 PUSH1 0x3 ADD SSTORE PUSH1 0xA0 DUP3 ADD MLOAD DUP2 PUSH1 0x4 ADD SSTORE SWAP1 POP POP DUP3 PUSH1 0x5 PUSH0 DUP8 PUSH1 0x1 ADD PUSH0 SWAP1 SLOAD SWAP1 PUSH2 0x100 EXP SWAP1 DIV PUSH1 0x1 PUSH1 0x1 PUSH1 0xA0 SHL SUB AND PUSH1 0x1 PUSH1 0x1 PUSH1 0xA0 SHL SUB AND PUSH1 0x1 PUSH1 0x1 PUSH1 0xA0 SHL SUB AND DUP2 MSTORE PUSH1 0x20 ADD SWAP1 DUP2 MSTORE PUSH1 0x20 ADD PUSH0 KECCAK256 PUSH0 DUP3 DUP3 SLOAD PUSH2 0xEC9 SWAP2 SWAP1 PUSH2 0x1F0F JUMP JUMPDEST SWAP1 SWAP2 SSTORE POP POP PUSH1 0x4 SLOAD PUSH1 0x40 DUP1 MLOAD SWAP2 DUP3 MSTORE PUSH1 0x1 PUSH1 0x1 PUSH1 0x60 SHL SUB DUP4 AND PUSH1 0x20 DUP4 ADD MSTORE DUP2 DUP2 ADD DUP14 SWAP1 MSTORE PUSH1 0x60 DUP3 ADD DUP6 SWAP1 MSTORE PUSH1 0x80 DUP3 ADD DUP5 SWAP1 MSTORE MLOAD DUP14 SWAP2 CALLER SWAP2 PUSH32 0xC48192CF3609B4932A8B10A6F09FE1CAC38610FDEF14EACC15B35C454DA0B4C5 SWAP2 DUP2 SWAP1 SUB PUSH1 0xA0 ADD SWAP1 LOG3 PUSH1 0x4 DUP1 SLOAD SWAP1 PUSH0 PUSH2 0xF39 DUP4 PUSH2 0x1F22 JUMP JUMPDEST SWAP2 SWAP1 POP SSTORE POP POP POP POP POP POP POP PUSH2 0xF4D PUSH1 0x1 DUP1 SSTORE JUMP JUMPDEST POP POP POP POP POP POP JUMP JUMPDEST PUSH2 0xF5D PUSH2 0x1654 JUMP JUMPDEST DUP2 PUSH0 DUP2 GT DUP1 ISZERO PUSH2 0xF6E JUMPI POP PUSH1 0x2 SLOAD DUP2 LT JUMPDEST PUSH2 0xF8A JUMPI PUSH1 0x40 MLOAD PUSH3 0x461BCD PUSH1 0xE5 SHL DUP2 MSTORE PUSH1 0x4 ADD PUSH2 0x36F SWAP1 PUSH2 0x1DDF JUMP JUMPDEST PUSH3 0x186A0 DUP3 PUSH1 0x1 PUSH1 0x1 PUSH1 0x60 SHL SUB AND GT ISZERO PUSH2 0xFE6 JUMPI PUSH1 0x40 MLOAD PUSH3 0x461BCD PUSH1 0xE5 SHL DUP2 MSTORE PUSH1 0x20 PUSH1 0x4 DUP3 ADD DUP2 SWAP1 MSTORE PUSH1 0x24 DUP3 ADD MSTORE PUSH32 0x4C505374616B696E673A6D617820626F6E757320617079206973203130303025 PUSH1 0x44 DUP3 ADD MSTORE PUSH1 0x64 ADD PUSH2 0x36F JUMP JUMPDEST DUP2 PUSH1 0x2 DUP5 DUP2 SLOAD DUP2 LT PUSH2 0xFFA JUMPI PUSH2 0xFFA PUSH2 0x1DB8 JUMP JUMPDEST PUSH0 SWAP2 DUP3 MSTORE PUSH1 0x20 SWAP2 DUP3 SWAP1 KECCAK256 PUSH1 0x3 SWAP2 SWAP1 SWAP2 MUL ADD PUSH1 0x2 ADD DUP1 SLOAD PUSH1 0x1 PUSH1 0x1 PUSH1 0xA0 SHL SUB AND PUSH1 0x1 PUSH1 0xA0 SHL PUSH1 0x1 PUSH1 0x1 PUSH1 0x60 SHL SUB SWAP5 DUP6 AND MUL OR SWAP1 SSTORE PUSH1 0x40 MLOAD SWAP2 DUP5 AND DUP3 MSTORE DUP5 SWAP2 PUSH32 0xD3CD184B56B5B95016981FC55484FF8FDF06EB587430055C7AB828A0EDC0DC9D SWAP2 ADD PUSH2 0x566 JUMP JUMPDEST PUSH0 PUSH2 0x1068 PUSH2 0x1654 JUMP JUMPDEST PUSH0 DUP5 PUSH1 0x1 PUSH1 0x1 PUSH1 0x60 SHL SUB AND GT PUSH2 0x10D2 JUMPI PUSH1 0x40 MLOAD PUSH3 0x461BCD PUSH1 0xE5 SHL DUP2 MSTORE PUSH1 0x20 PUSH1 0x4 DUP3 ADD MSTORE PUSH1 0x29 PUSH1 0x24 DUP3 ADD MSTORE PUSH32 0x4C505374616B696E673A6D61747572697479206D757374206265206772656174 PUSH1 0x44 DUP3 ADD MSTORE PUSH9 0x6572207468616E203 PUSH1 0xBC SHL PUSH1 0x64 DUP3 ADD MSTORE PUSH1 0x84 ADD PUSH2 0x36F JUMP JUMPDEST DUP7 PUSH1 0x1 PUSH1 0x1 PUSH1 0xA0 SHL SUB AND DUP7 PUSH1 0x1 PUSH1 0x1 PUSH1 0xA0 SHL SUB AND PUSH4 0x217A4B70 PUSH1 0x40 MLOAD DUP2 PUSH4 0xFFFFFFFF AND PUSH1 0xE0 SHL DUP2 MSTORE PUSH1 0x4 ADD PUSH1 0x20 PUSH1 0x40 MLOAD DUP1 DUP4 SUB DUP2 DUP7 GAS STATICCALL ISZERO DUP1 ISZERO PUSH2 0x1118 JUMPI RETURNDATASIZE PUSH0 PUSH0 RETURNDATACOPY RETURNDATASIZE PUSH0 REVERT JUMPDEST POP POP POP POP PUSH1 0x40 MLOAD RETURNDATASIZE PUSH1 0x1F NOT PUSH1 0x1F DUP3 ADD AND DUP3 ADD DUP1 PUSH1 0x40 MSTORE POP DUP2 ADD SWAP1 PUSH2 0x113C SWAP2 SWAP1 PUSH2 0x1F3A JUMP JUMPDEST PUSH1 0x1 PUSH1 0x1 PUSH1 0xA0 SHL SUB AND EQ PUSH2 0x11C2 JUMPI PUSH1 0x40 MLOAD PUSH3 0x461BCD PUSH1 0xE5 SHL DUP2 MSTORE PUSH1 0x20 PUSH1 0x4 DUP3 ADD MSTORE PUSH1 0x41 PUSH1 0x24 DUP3 ADD MSTORE PUSH32 0x4C505374616B696E673A726577617264735F746F6B656E206D75737420626520 PUSH1 0x44 DUP3 ADD MSTORE PUSH32 0x657175616C20746F2070726963655F6F7261636C652071756F746520746F6B65 PUSH1 0x64 DUP3 ADD MSTORE PUSH1 0x37 PUSH1 0xF9 SHL PUSH1 0x84 DUP3 ADD MSTORE PUSH1 0xA4 ADD PUSH2 0x36F JUMP JUMPDEST PUSH1 0x40 DUP1 MLOAD PUSH1 0xC0 DUP2 ADD DUP3 MSTORE PUSH1 0x1 PUSH1 0x1 PUSH1 0xA0 SHL SUB DUP11 DUP2 AND DUP3 MSTORE PUSH1 0x1 PUSH1 0x1 PUSH1 0x60 SHL SUB DUP8 DUP2 AND PUSH1 0x20 DUP5 ADD SWAP1 DUP2 MSTORE DUP12 DUP4 AND SWAP5 DUP5 ADD SWAP5 DUP6 MSTORE DUP8 DUP3 AND PUSH1 0x60 DUP6 ADD SWAP1 DUP2 MSTORE DUP12 DUP5 AND PUSH1 0x80 DUP7 ADD SWAP1 DUP2 MSTORE DUP9 DUP5 AND PUSH1 0xA0 DUP8 ADD SWAP1 DUP2 MSTORE PUSH1 0x2 DUP1 SLOAD PUSH1 0x1 DUP1 DUP3 ADD DUP4 SSTORE PUSH0 DUP4 DUP2 MSTORE SWAP10 MLOAD SWAP7 MLOAD SWAP7 DUP10 AND PUSH1 0x1 PUSH1 0xA0 SHL SWAP8 DUP10 AND DUP9 MUL OR PUSH32 0x405787FA12A823E0F2B7631CC41B3BA8828B3321CA811111FA75CD3AA3BB5ACE PUSH1 0x3 SWAP1 SWAP4 MUL SWAP3 DUP4 ADD SSTORE SWAP10 MLOAD SWAP5 MLOAD SWAP5 DUP9 AND SWAP5 DUP8 AND DUP7 MUL SWAP5 SWAP1 SWAP5 OR PUSH32 0x405787FA12A823E0F2B7631CC41B3BA8828B3321CA811111FA75CD3AA3BB5ACF DUP6 ADD SSTORE SWAP2 MLOAD SWAP1 MLOAD SWAP6 AND SWAP5 SWAP1 SWAP4 AND SWAP1 SWAP2 MUL SWAP3 SWAP1 SWAP3 OR PUSH32 0x405787FA12A823E0F2B7631CC41B3BA8828B3321CA811111FA75CD3AA3BB5AD0 SWAP1 SWAP3 ADD SWAP2 SWAP1 SWAP2 SSTORE SLOAD SWAP1 SWAP2 PUSH2 0x12D6 SWAP2 PUSH2 0x1DCC JUMP JUMPDEST SWAP1 POP DUP8 PUSH1 0x1 PUSH1 0x1 PUSH1 0xA0 SHL SUB AND DUP10 PUSH1 0x1 PUSH1 0x1 PUSH1 0xA0 SHL SUB AND DUP3 PUSH32 0x6B64B7E8B6F4656658EFB1C74B7D1BBFF6E84D3D7B1CD5AE89FD6CD91DE6EF96 DUP11 DUP10 DUP10 DUP10 PUSH1 0x40 MLOAD PUSH2 0x134F SWAP5 SWAP4 SWAP3 SWAP2 SWAP1 PUSH1 0x1 PUSH1 0x1 PUSH1 0xA0 SHL SUB SWAP5 SWAP1 SWAP5 AND DUP5 MSTORE PUSH1 0x1 PUSH1 0x1 PUSH1 0x60 SHL SUB SWAP3 DUP4 AND PUSH1 0x20 DUP6 ADD MSTORE SWAP1 DUP3 AND PUSH1 0x40 DUP5 ADD MSTORE AND PUSH1 0x60 DUP3 ADD MSTORE PUSH1 0x80 ADD SWAP1 JUMP JUMPDEST PUSH1 0x40 MLOAD DUP1 SWAP2 SUB SWAP1 LOG4 DUP6 ISZERO PUSH2 0x1367 JUMPI PUSH2 0x1367 DUP9 DUP8 PUSH2 0x14C2 JUMP JUMPDEST SWAP9 SWAP8 POP POP POP POP POP POP POP POP JUMP JUMPDEST PUSH2 0x137B PUSH2 0x1654 JUMP JUMPDEST PUSH2 0x1384 PUSH0 PUSH2 0x191D JUMP JUMPDEST JUMP JUMPDEST PUSH2 0x138E PUSH2 0x1654 JUMP JUMPDEST PUSH1 0x1 PUSH1 0x1 PUSH1 0xA0 SHL SUB DUP4 AND PUSH0 SWAP1 DUP2 MSTORE PUSH1 0x5 PUSH1 0x20 MSTORE PUSH1 0x40 SWAP1 KECCAK256 SLOAD PUSH2 0x13B0 SWAP1 DUP3 PUSH2 0x1F0F JUMP JUMPDEST PUSH1 0x40 MLOAD PUSH4 0x70A08231 PUSH1 0xE0 SHL DUP2 MSTORE ADDRESS PUSH1 0x4 DUP3 ADD MSTORE PUSH1 0x1 PUSH1 0x1 PUSH1 0xA0 SHL SUB DUP6 AND SWAP1 PUSH4 0x70A08231 SWAP1 PUSH1 0x24 ADD PUSH1 0x20 PUSH1 0x40 MLOAD DUP1 DUP4 SUB DUP2 DUP7 GAS STATICCALL ISZERO DUP1 ISZERO PUSH2 0x13F2 JUMPI RETURNDATASIZE PUSH0 PUSH0 RETURNDATACOPY RETURNDATASIZE PUSH0 REVERT JUMPDEST POP POP POP POP PUSH1 0x40 MLOAD RETURNDATASIZE PUSH1 0x1F NOT PUSH1 0x1F DUP3 ADD AND DUP3 ADD DUP1 PUSH1 0x40 MSTORE POP DUP2 ADD SWAP1 PUSH2 0x1416 SWAP2 SWAP1 PUSH2 0x1EF8 JUMP JUMPDEST LT ISZERO PUSH2 0x145C JUMPI PUSH1 0x40 MLOAD PUSH3 0x461BCD PUSH1 0xE5 SHL DUP2 MSTORE PUSH1 0x20 PUSH1 0x4 DUP3 ADD MSTORE PUSH1 0x15 PUSH1 0x24 DUP3 ADD MSTORE PUSH21 0x496E73756666696369656E742062616C616E636521 PUSH1 0x58 SHL PUSH1 0x44 DUP3 ADD MSTORE PUSH1 0x64 ADD PUSH2 0x36F JUMP JUMPDEST PUSH2 0x1470 PUSH1 0x1 PUSH1 0x1 PUSH1 0xA0 SHL SUB DUP5 AND DUP4 DUP4 PUSH2 0x16AA JUMP JUMPDEST DUP2 PUSH1 0x1 PUSH1 0x1 PUSH1 0xA0 SHL SUB AND DUP4 PUSH1 0x1 PUSH1 0x1 PUSH1 0xA0 SHL SUB AND PUSH32 0xE06FAB35F3C220725C11D544884AFF93EBF67222C8310C487C71F27C844593E8 DUP4 PUSH1 0x40 MLOAD PUSH2 0x14B5 SWAP2 DUP2 MSTORE PUSH1 0x20 ADD SWAP1 JUMP JUMPDEST PUSH1 0x40 MLOAD DUP1 SWAP2 SUB SWAP1 LOG3 POP POP POP JUMP JUMPDEST PUSH0 DUP2 GT PUSH2 0x1525 JUMPI PUSH1 0x40 MLOAD PUSH3 0x461BCD PUSH1 0xE5 SHL DUP2 MSTORE PUSH1 0x20 PUSH1 0x4 DUP3 ADD MSTORE PUSH1 0x2B PUSH1 0x24 DUP3 ADD MSTORE PUSH32 0x4C505374616B696E673A616D6F756E74206D7573742062652067726561746572 PUSH1 0x44 DUP3 ADD MSTORE PUSH11 0x207468616E207A65726F21 PUSH1 0xA8 SHL PUSH1 0x64 DUP3 ADD MSTORE PUSH1 0x84 ADD PUSH2 0x36F JUMP JUMPDEST PUSH2 0x153A PUSH1 0x1 PUSH1 0x1 PUSH1 0xA0 SHL SUB DUP4 AND CALLER ADDRESS DUP5 PUSH2 0x170E JUMP JUMPDEST DUP2 PUSH1 0x1 PUSH1 0x1 PUSH1 0xA0 SHL SUB AND PUSH32 0xAC24935FD910BC682B5CCB1A07B718CADF8CF2F6D1404C4F3DDC3662DAE40E29 DUP3 PUSH1 0x40 MLOAD PUSH2 0x1575 SWAP2 DUP2 MSTORE PUSH1 0x20 ADD SWAP1 JUMP JUMPDEST PUSH1 0x40 MLOAD DUP1 SWAP2 SUB SWAP1 LOG2 POP POP JUMP JUMPDEST PUSH1 0x2 SLOAD PUSH0 SWAP1 PUSH2 0x1592 SWAP1 PUSH1 0x1 SWAP1 PUSH2 0x1DCC JUMP JUMPDEST SWAP1 POP SWAP1 JUMP JUMPDEST PUSH0 PUSH0 PUSH0 PUSH0 PUSH0 PUSH0 DUP7 PUSH0 DUP2 GT DUP1 ISZERO PUSH2 0x15AE JUMPI POP PUSH1 0x4 SLOAD DUP2 LT JUMPDEST PUSH2 0x15CA JUMPI PUSH1 0x40 MLOAD PUSH3 0x461BCD PUSH1 0xE5 SHL DUP2 MSTORE PUSH1 0x4 ADD PUSH2 0x36F SWAP1 PUSH2 0x1D48 JUMP JUMPDEST POP POP POP PUSH0 SWAP5 DUP6 MSTORE POP POP PUSH1 0x3 PUSH1 0x20 DUP2 SWAP1 MSTORE PUSH1 0x40 SWAP1 SWAP4 KECCAK256 PUSH1 0x1 DUP2 ADD SLOAD DUP2 SLOAD PUSH1 0x2 DUP4 ADD SLOAD SWAP6 DUP4 ADD SLOAD PUSH1 0x4 SWAP1 SWAP4 ADD SLOAD PUSH1 0x1 PUSH1 0x1 PUSH1 0xA0 SHL SUB DUP4 AND SWAP8 SWAP2 SWAP7 PUSH1 0x1 PUSH1 0xA0 SHL SWAP1 SWAP4 DIV PUSH1 0x1 PUSH1 0x1 PUSH1 0x60 SHL SUB AND SWAP6 POP SWAP2 SWAP4 POP JUMP JUMPDEST PUSH2 0x1622 PUSH2 0x1654 JUMP JUMPDEST PUSH1 0x1 PUSH1 0x1 PUSH1 0xA0 SHL SUB DUP2 AND PUSH2 0x164B JUMPI PUSH1 0x40 MLOAD PUSH4 0x1E4FBDF7 PUSH1 0xE0 SHL DUP2 MSTORE PUSH0 PUSH1 0x4 DUP3 ADD MSTORE PUSH1 0x24 ADD PUSH2 0x36F JUMP JUMPDEST PUSH2 0x89B DUP2 PUSH2 0x191D JUMP JUMPDEST PUSH0 SLOAD PUSH1 0x1 PUSH1 0x1 PUSH1 0xA0 SHL SUB AND CALLER EQ PUSH2 0x1384 JUMPI PUSH1 0x40 MLOAD PUSH4 0x118CDAA7 PUSH1 0xE0 SHL DUP2 MSTORE CALLER PUSH1 0x4 DUP3 ADD MSTORE PUSH1 0x24 ADD PUSH2 0x36F JUMP JUMPDEST PUSH1 0x2 PUSH1 0x1 SLOAD SUB PUSH2 0x16A3 JUMPI PUSH1 0x40 MLOAD PUSH4 0x3EE5AEB5 PUSH1 0xE0 SHL DUP2 MSTORE PUSH1 0x4 ADD PUSH1 0x40 MLOAD DUP1 SWAP2 SUB SWAP1 REVERT JUMPDEST PUSH1 0x2 PUSH1 0x1 SSTORE JUMP JUMPDEST PUSH1 0x40 MLOAD PUSH1 0x1 PUSH1 0x1 PUSH1 0xA0 SHL SUB DUP4 DUP2 AND PUSH1 0x24 DUP4 ADD MSTORE PUSH1 0x44 DUP3 ADD DUP4 SWAP1 MSTORE PUSH2 0x1709 SWAP2 DUP6 SWAP2 DUP3 AND SWAP1 PUSH4 0xA9059CBB SWAP1 PUSH1 0x64 ADD JUMPDEST PUSH1 0x40 MLOAD PUSH1 0x20 DUP2 DUP4 SUB SUB DUP2 MSTORE SWAP1 PUSH1 0x40 MSTORE SWAP2 POP PUSH1 0xE0 SHL PUSH1 0x20 DUP3 ADD DUP1 MLOAD PUSH1 0x1 PUSH1 0x1 PUSH1 0xE0 SHL SUB DUP4 DUP2 DUP4 AND OR DUP4 MSTORE POP POP POP POP PUSH2 0x196C JUMP JUMPDEST POP POP POP JUMP JUMPDEST PUSH1 0x40 MLOAD PUSH1 0x1 PUSH1 0x1 PUSH1 0xA0 SHL SUB DUP5 DUP2 AND PUSH1 0x24 DUP4 ADD MSTORE DUP4 DUP2 AND PUSH1 0x44 DUP4 ADD MSTORE PUSH1 0x64 DUP3 ADD DUP4 SWAP1 MSTORE PUSH2 0x1747 SWAP2 DUP7 SWAP2 DUP3 AND SWAP1 PUSH4 0x23B872DD SWAP1 PUSH1 0x84 ADD PUSH2 0x16D7 JUMP JUMPDEST POP POP POP POP JUMP JUMPDEST PUSH0 PUSH0 DUP9 SWAP1 POP PUSH0 PUSH0 DUP3 PUSH1 0x1 PUSH1 0x1 PUSH1 0xA0 SHL SUB AND PUSH4 0x902F1AC PUSH1 0x40 MLOAD DUP2 PUSH4 0xFFFFFFFF AND PUSH1 0xE0 SHL DUP2 MSTORE PUSH1 0x4 ADD PUSH1 0x60 PUSH1 0x40 MLOAD DUP1 DUP4 SUB DUP2 DUP7 GAS STATICCALL ISZERO DUP1 ISZERO PUSH2 0x1790 JUMPI RETURNDATASIZE PUSH0 PUSH0 RETURNDATACOPY RETURNDATASIZE PUSH0 REVERT JUMPDEST POP POP POP POP PUSH1 0x40 MLOAD RETURNDATASIZE PUSH1 0x1F NOT PUSH1 0x1F DUP3 ADD AND DUP3 ADD DUP1 PUSH1 0x40 MSTORE POP DUP2 ADD SWAP1 PUSH2 0x17B4 SWAP2 SWAP1 PUSH2 0x1F6B JUMP JUMPDEST POP SWAP2 POP SWAP2 POP PUSH0 PUSH0 PUSH2 0x1826 DUP13 DUP7 PUSH1 0x1 PUSH1 0x1 PUSH1 0xA0 SHL SUB AND PUSH4 0x18160DDD PUSH1 0x40 MLOAD DUP2 PUSH4 0xFFFFFFFF AND PUSH1 0xE0 SHL DUP2 MSTORE PUSH1 0x4 ADD PUSH1 0x20 PUSH1 0x40 MLOAD DUP1 DUP4 SUB DUP2 DUP7 GAS STATICCALL ISZERO DUP1 ISZERO PUSH2 0x17FB JUMPI RETURNDATASIZE PUSH0 PUSH0 RETURNDATACOPY RETURNDATASIZE PUSH0 REVERT JUMPDEST POP POP POP POP PUSH1 0x40 MLOAD RETURNDATASIZE PUSH1 0x1F NOT PUSH1 0x1F DUP3 ADD AND DUP3 ADD DUP1 PUSH1 0x40 MSTORE POP DUP2 ADD SWAP1 PUSH2 0x181F SWAP2 SWAP1 PUSH2 0x1EF8 JUMP JUMPDEST DUP7 DUP7 PUSH2 0x19D8 JUMP JUMPDEST SWAP2 POP SWAP2 POP PUSH2 0x1896 DUP6 PUSH1 0x1 PUSH1 0x1 PUSH1 0xA0 SHL SUB AND PUSH4 0xD21220A7 PUSH1 0x40 MLOAD DUP2 PUSH4 0xFFFFFFFF AND PUSH1 0xE0 SHL DUP2 MSTORE PUSH1 0x4 ADD PUSH1 0x20 PUSH1 0x40 MLOAD DUP1 DUP4 SUB DUP2 DUP7 GAS STATICCALL ISZERO DUP1 ISZERO PUSH2 0x1869 JUMPI RETURNDATASIZE PUSH0 PUSH0 RETURNDATACOPY RETURNDATASIZE PUSH0 REVERT JUMPDEST POP POP POP POP PUSH1 0x40 MLOAD RETURNDATASIZE PUSH1 0x1F NOT PUSH1 0x1F DUP3 ADD AND DUP3 ADD DUP1 PUSH1 0x40 MSTORE POP DUP2 ADD SWAP1 PUSH2 0x188D SWAP2 SWAP1 PUSH2 0x1F3A JUMP JUMPDEST DUP3 DUP14 DUP12 DUP12 PUSH2 0x1A29 JUMP JUMPDEST PUSH2 0x1902 DUP7 PUSH1 0x1 PUSH1 0x1 PUSH1 0xA0 SHL SUB AND PUSH4 0xDFE1681 PUSH1 0x40 MLOAD DUP2 PUSH4 0xFFFFFFFF AND PUSH1 0xE0 SHL DUP2 MSTORE PUSH1 0x4 ADD PUSH1 0x20 PUSH1 0x40 MLOAD DUP1 DUP4 SUB DUP2 DUP7 GAS STATICCALL ISZERO DUP1 ISZERO PUSH2 0x18D5 JUMPI RETURNDATASIZE PUSH0 PUSH0 RETURNDATACOPY RETURNDATASIZE PUSH0 REVERT JUMPDEST POP POP POP POP PUSH1 0x40 MLOAD RETURNDATASIZE PUSH1 0x1F NOT PUSH1 0x1F DUP3 ADD AND DUP3 ADD DUP1 PUSH1 0x40 MSTORE POP DUP2 ADD SWAP1 PUSH2 0x18F9 SWAP2 SWAP1 PUSH2 0x1F3A JUMP JUMPDEST DUP5 DUP15 DUP15 DUP15 PUSH2 0x1A29 JUMP JUMPDEST PUSH2 0x190C SWAP2 SWAP1 PUSH2 0x1F0F JUMP JUMPDEST SWAP14 SWAP13 POP POP POP POP POP POP POP POP POP POP POP POP POP JUMP JUMPDEST PUSH0 DUP1 SLOAD PUSH1 0x1 PUSH1 0x1 PUSH1 0xA0 SHL SUB DUP4 DUP2 AND PUSH1 0x1 PUSH1 0x1 PUSH1 0xA0 SHL SUB NOT DUP4 AND DUP2 OR DUP5 SSTORE PUSH1 0x40 MLOAD SWAP2 SWAP1 SWAP3 AND SWAP3 DUP4 SWAP2 PUSH32 0x8BE0079C531659141344CD1FD0A4F28419497F9722A3DAAFE3B4186F6B6457E0 SWAP2 SWAP1 LOG3 POP POP JUMP JUMPDEST PUSH0 PUSH0 PUSH1 0x20 PUSH0 DUP5 MLOAD PUSH1 0x20 DUP7 ADD PUSH0 DUP9 GAS CALL DUP1 PUSH2 0x198B JUMPI PUSH1 0x40 MLOAD RETURNDATASIZE PUSH0 DUP3 RETURNDATACOPY RETURNDATASIZE DUP2 REVERT JUMPDEST POP POP PUSH0 MLOAD RETURNDATASIZE SWAP2 POP DUP2 ISZERO PUSH2 0x19A2 JUMPI DUP1 PUSH1 0x1 EQ ISZERO PUSH2 0x19AF JUMP JUMPDEST PUSH1 0x1 PUSH1 0x1 PUSH1 0xA0 SHL SUB DUP5 AND EXTCODESIZE ISZERO JUMPDEST ISZERO PUSH2 0x1747 JUMPI PUSH1 0x40 MLOAD PUSH4 0x5274AFE7 PUSH1 0xE0 SHL DUP2 MSTORE PUSH1 0x1 PUSH1 0x1 PUSH1 0xA0 SHL SUB DUP6 AND PUSH1 0x4 DUP3 ADD MSTORE PUSH1 0x24 ADD PUSH2 0x36F JUMP JUMPDEST PUSH0 DUP1 DUP1 DUP6 PUSH2 0x19EF DUP9 PUSH1 0x1 PUSH1 0x1 PUSH1 0x70 SHL SUB DUP9 AND PUSH2 0x1EA3 JUMP JUMPDEST PUSH2 0x19F9 SWAP2 SWAP1 PUSH2 0x1EBA JUMP JUMPDEST SWAP1 POP PUSH0 DUP7 PUSH2 0x1A10 DUP10 PUSH1 0x1 PUSH1 0x1 PUSH1 0x70 SHL SUB DUP9 AND PUSH2 0x1EA3 JUMP JUMPDEST PUSH2 0x1A1A SWAP2 SWAP1 PUSH2 0x1EBA JUMP JUMPDEST SWAP2 SWAP9 SWAP2 SWAP8 POP SWAP1 SWAP6 POP POP POP POP POP POP JUMP JUMPDEST PUSH0 DUP4 PUSH1 0x1 PUSH1 0x1 PUSH1 0xA0 SHL SUB AND PUSH4 0x6A089215 DUP8 DUP8 DUP10 PUSH1 0x1 PUSH1 0x1 PUSH1 0xA0 SHL SUB AND PUSH4 0x313CE567 PUSH1 0x40 MLOAD DUP2 PUSH4 0xFFFFFFFF AND PUSH1 0xE0 SHL DUP2 MSTORE PUSH1 0x4 ADD PUSH1 0x20 PUSH1 0x40 MLOAD DUP1 DUP4 SUB DUP2 DUP7 GAS STATICCALL ISZERO DUP1 ISZERO PUSH2 0x1A77 JUMPI RETURNDATASIZE PUSH0 PUSH0 RETURNDATACOPY RETURNDATASIZE PUSH0 REVERT JUMPDEST POP POP POP POP PUSH1 0x40 MLOAD RETURNDATASIZE PUSH1 0x1F NOT PUSH1 0x1F DUP3 ADD AND DUP3 ADD DUP1 PUSH1 0x40 MSTORE POP DUP2 ADD SWAP1 PUSH2 0x1A9B SWAP2 SWAP1 PUSH2 0x1FB7 JUMP JUMPDEST DUP8 DUP8 PUSH1 0x40 MLOAD DUP7 PUSH4 0xFFFFFFFF AND PUSH1 0xE0 SHL DUP2 MSTORE PUSH1 0x4 ADD PUSH2 0x1ABD SWAP6 SWAP5 SWAP4 SWAP3 SWAP2 SWAP1 PUSH2 0x1FD7 JUMP JUMPDEST PUSH1 0x20 PUSH1 0x40 MLOAD DUP1 DUP4 SUB DUP2 PUSH0 DUP8 GAS CALL ISZERO DUP1 ISZERO PUSH2 0x1AD9 JUMPI RETURNDATASIZE PUSH0 PUSH0 RETURNDATACOPY RETURNDATASIZE PUSH0 REVERT JUMPDEST POP POP POP POP PUSH1 0x40 MLOAD RETURNDATASIZE PUSH1 0x1F NOT PUSH1 0x1F DUP3 ADD AND DUP3 ADD DUP1 PUSH1 0x40 MSTORE POP DUP2 ADD SWAP1 PUSH2 0x1AFD SWAP2 SWAP1 PUSH2 0x1EF8 JUMP JUMPDEST SWAP7 SWAP6 POP POP POP POP POP POP JUMP JUMPDEST PUSH0 PUSH1 0x20 DUP3 DUP5 SUB SLT ISZERO PUSH2 0x1B17 JUMPI PUSH0 PUSH0 REVERT JUMPDEST POP CALLDATALOAD SWAP2 SWAP1 POP JUMP JUMPDEST DUP1 CALLDATALOAD PUSH1 0x1 PUSH1 0x1 PUSH1 0x60 SHL SUB DUP2 AND DUP2 EQ PUSH2 0x1B34 JUMPI PUSH0 PUSH0 REVERT JUMPDEST SWAP2 SWAP1 POP JUMP JUMPDEST PUSH0 PUSH0 PUSH1 0x40 DUP4 DUP6 SUB SLT ISZERO PUSH2 0x1B4A JUMPI PUSH0 PUSH0 REVERT JUMPDEST DUP3 CALLDATALOAD SWAP2 POP PUSH2 0x1B5A PUSH1 0x20 DUP5 ADD PUSH2 0x1B1E JUMP JUMPDEST SWAP1 POP SWAP3 POP SWAP3 SWAP1 POP JUMP JUMPDEST PUSH0 PUSH0 DUP4 PUSH1 0x1F DUP5 ADD SLT PUSH2 0x1B73 JUMPI PUSH0 PUSH0 REVERT JUMPDEST POP DUP2 CALLDATALOAD PUSH8 0xFFFFFFFFFFFFFFFF DUP2 GT ISZERO PUSH2 0x1B8A JUMPI PUSH0 PUSH0 REVERT JUMPDEST PUSH1 0x20 DUP4 ADD SWAP2 POP DUP4 PUSH1 0x20 DUP3 DUP6 ADD ADD GT ISZERO PUSH2 0x1BA1 JUMPI PUSH0 PUSH0 REVERT JUMPDEST SWAP3 POP SWAP3 SWAP1 POP JUMP JUMPDEST PUSH0 PUSH0 PUSH0 PUSH0 PUSH0 PUSH0 PUSH1 0x80 DUP8 DUP10 SUB SLT ISZERO PUSH2 0x1BBD JUMPI PUSH0 PUSH0 REVERT JUMPDEST DUP7 CALLDATALOAD SWAP6 POP PUSH1 0x20 DUP8 ADD CALLDATALOAD SWAP5 POP PUSH1 0x40 DUP8 ADD CALLDATALOAD PUSH8 0xFFFFFFFFFFFFFFFF DUP2 GT ISZERO PUSH2 0x1BE1 JUMPI PUSH0 PUSH0 REVERT JUMPDEST PUSH2 0x1BED DUP10 DUP3 DUP11 ADD PUSH2 0x1B63 JUMP JUMPDEST SWAP1 SWAP6 POP SWAP4 POP POP PUSH1 0x60 DUP8 ADD CALLDATALOAD PUSH8 0xFFFFFFFFFFFFFFFF DUP2 GT ISZERO PUSH2 0x1C0C JUMPI PUSH0 PUSH0 REVERT JUMPDEST PUSH2 0x1C18 DUP10 DUP3 DUP11 ADD PUSH2 0x1B63 JUMP JUMPDEST SWAP8 SWAP11 SWAP7 SWAP10 POP SWAP5 SWAP8 POP SWAP3 SWAP6 SWAP4 SWAP5 SWAP3 POP POP POP JUMP JUMPDEST PUSH1 0x1 PUSH1 0x1 PUSH1 0xA0 SHL SUB DUP2 AND DUP2 EQ PUSH2 0x89B JUMPI PUSH0 PUSH0 REVERT JUMPDEST PUSH0 PUSH0 PUSH0 PUSH0 PUSH0 PUSH0 PUSH0 PUSH1 0xE0 DUP9 DUP11 SUB SLT ISZERO PUSH2 0x1C54 JUMPI PUSH0 PUSH0 REVERT JUMPDEST DUP8 CALLDATALOAD PUSH2 0x1C5F DUP2 PUSH2 0x1C2A JUMP JUMPDEST SWAP7 POP PUSH1 0x20 DUP9 ADD CALLDATALOAD PUSH2 0x1C6F DUP2 PUSH2 0x1C2A JUMP JUMPDEST SWAP6 POP PUSH1 0x40 DUP9 ADD CALLDATALOAD PUSH2 0x1C7F DUP2 PUSH2 0x1C2A JUMP JUMPDEST SWAP5 POP PUSH1 0x60 DUP9 ADD CALLDATALOAD SWAP4 POP PUSH2 0x1C94 PUSH1 0x80 DUP10 ADD PUSH2 0x1B1E JUMP JUMPDEST SWAP3 POP PUSH2 0x1CA2 PUSH1 0xA0 DUP10 ADD PUSH2 0x1B1E JUMP JUMPDEST SWAP2 POP PUSH2 0x1CB0 PUSH1 0xC0 DUP10 ADD PUSH2 0x1B1E JUMP JUMPDEST SWAP1 POP SWAP3 SWAP6 SWAP9 SWAP2 SWAP5 SWAP8 POP SWAP3 SWAP6 POP JUMP JUMPDEST PUSH0 PUSH0 PUSH0 PUSH1 0x60 DUP5 DUP7 SUB SLT ISZERO PUSH2 0x1CD0 JUMPI PUSH0 PUSH0 REVERT JUMPDEST DUP4 CALLDATALOAD PUSH2 0x1CDB DUP2 PUSH2 0x1C2A JUMP JUMPDEST SWAP3 POP PUSH1 0x20 DUP5 ADD CALLDATALOAD PUSH2 0x1CEB DUP2 PUSH2 0x1C2A JUMP JUMPDEST SWAP3 SWAP6 SWAP3 SWAP5 POP POP POP PUSH1 0x40 SWAP2 SWAP1 SWAP2 ADD CALLDATALOAD SWAP1 JUMP JUMPDEST PUSH0 PUSH1 0x20 DUP3 DUP5 SUB SLT ISZERO PUSH2 0x1D0C JUMPI PUSH0 PUSH0 REVERT JUMPDEST DUP2 CALLDATALOAD PUSH2 0x1D17 DUP2 PUSH2 0x1C2A JUMP JUMPDEST SWAP4 SWAP3 POP POP POP JUMP JUMPDEST PUSH0 PUSH0 PUSH1 0x40 DUP4 DUP6 SUB SLT ISZERO PUSH2 0x1D2F JUMPI PUSH0 PUSH0 REVERT JUMPDEST DUP3 CALLDATALOAD PUSH2 0x1D3A DUP2 PUSH2 0x1C2A JUMP JUMPDEST SWAP5 PUSH1 0x20 SWAP4 SWAP1 SWAP4 ADD CALLDATALOAD SWAP4 POP POP POP JUMP JUMPDEST PUSH1 0x20 DUP1 DUP3 MSTORE PUSH1 0x1B SWAP1 DUP3 ADD MSTORE PUSH32 0x4C505374616B696E673A496E76616C6964205374616B65204944210000000000 PUSH1 0x40 DUP3 ADD MSTORE PUSH1 0x60 ADD SWAP1 JUMP JUMPDEST PUSH4 0x4E487B71 PUSH1 0xE0 SHL PUSH0 MSTORE PUSH1 0x11 PUSH1 0x4 MSTORE PUSH1 0x24 PUSH0 REVERT JUMPDEST PUSH1 0x1 PUSH1 0x1 PUSH1 0x60 SHL SUB DUP2 DUP2 AND DUP4 DUP3 AND ADD SWAP1 DUP2 GT ISZERO PUSH2 0x1DB2 JUMPI PUSH2 0x1DB2 PUSH2 0x1D7F JUMP JUMPDEST SWAP3 SWAP2 POP POP JUMP JUMPDEST PUSH4 0x4E487B71 PUSH1 0xE0 SHL PUSH0 MSTORE PUSH1 0x32 PUSH1 0x4 MSTORE PUSH1 0x24 PUSH0 REVERT JUMPDEST DUP2 DUP2 SUB DUP2 DUP2 GT ISZERO PUSH2 0x1DB2 JUMPI PUSH2 0x1DB2 PUSH2 0x1D7F JUMP JUMPDEST PUSH1 0x20 DUP1 DUP3 MSTORE PUSH1 0x1A SWAP1 DUP3 ADD MSTORE PUSH32 0x4C505374616B696E673A496E76616C696420506F6F6C20494421000000000000 PUSH1 0x40 DUP3 ADD MSTORE PUSH1 0x60 ADD SWAP1 JUMP JUMPDEST PUSH1 0x20 DUP1 DUP3 MSTORE PUSH1 0x21 SWAP1 DUP3 ADD MSTORE PUSH32 0x4C505374616B696E673A43616C6C6572206973206E6F7420746865206F776E65 PUSH1 0x40 DUP3 ADD MSTORE PUSH1 0x39 PUSH1 0xF9 SHL PUSH1 0x60 DUP3 ADD MSTORE PUSH1 0x80 ADD SWAP1 JUMP JUMPDEST PUSH1 0x20 DUP1 DUP3 MSTORE PUSH1 0x2C SWAP1 DUP3 ADD MSTORE PUSH32 0x4C505374616B696E673A4561726C79205769746864726177616C206973206E6F PUSH1 0x40 DUP3 ADD MSTORE PUSH12 0x74207065726D697474656421 PUSH1 0xA0 SHL PUSH1 0x60 DUP3 ADD MSTORE PUSH1 0x80 ADD SWAP1 JUMP JUMPDEST DUP1 DUP3 MUL DUP2 ISZERO DUP3 DUP3 DIV DUP5 EQ OR PUSH2 0x1DB2 JUMPI PUSH2 0x1DB2 PUSH2 0x1D7F JUMP JUMPDEST PUSH0 DUP3 PUSH2 0x1ED4 JUMPI PUSH4 0x4E487B71 PUSH1 0xE0 SHL PUSH0 MSTORE PUSH1 0x12 PUSH1 0x4 MSTORE PUSH1 0x24 PUSH0 REVERT JUMPDEST POP DIV SWAP1 JUMP JUMPDEST PUSH0 PUSH1 0x20 DUP3 DUP5 SUB SLT ISZERO PUSH2 0x1EE9 JUMPI PUSH0 PUSH0 REVERT JUMPDEST DUP2 MLOAD DUP1 ISZERO ISZERO DUP2 EQ PUSH2 0x1D17 JUMPI PUSH0 PUSH0 REVERT JUMPDEST PUSH0 PUSH1 0x20 DUP3 DUP5 SUB SLT ISZERO PUSH2 0x1F08 JUMPI PUSH0 PUSH0 REVERT JUMPDEST POP MLOAD SWAP2 SWAP1 POP JUMP JUMPDEST DUP1 DUP3 ADD DUP1 DUP3 GT ISZERO PUSH2 0x1DB2 JUMPI PUSH2 0x1DB2 PUSH2 0x1D7F JUMP JUMPDEST PUSH0 PUSH1 0x1 DUP3 ADD PUSH2 0x1F33 JUMPI PUSH2 0x1F33 PUSH2 0x1D7F JUMP JUMPDEST POP PUSH1 0x1 ADD SWAP1 JUMP JUMPDEST PUSH0 PUSH1 0x20 DUP3 DUP5 SUB SLT ISZERO PUSH2 0x1F4A JUMPI PUSH0 PUSH0 REVERT JUMPDEST DUP2 MLOAD PUSH2 0x1D17 DUP2 PUSH2 0x1C2A JUMP JUMPDEST DUP1 MLOAD PUSH1 0x1 PUSH1 0x1 PUSH1 0x70 SHL SUB DUP2 AND DUP2 EQ PUSH2 0x1B34 JUMPI PUSH0 PUSH0 REVERT JUMPDEST PUSH0 PUSH0 PUSH0 PUSH1 0x60 DUP5 DUP7 SUB SLT ISZERO PUSH2 0x1F7D JUMPI PUSH0 PUSH0 REVERT JUMPDEST PUSH2 0x1F86 DUP5 PUSH2 0x1F55 JUMP JUMPDEST SWAP3 POP PUSH2 0x1F94 PUSH1 0x20 DUP6 ADD PUSH2 0x1F55 JUMP JUMPDEST SWAP2 POP PUSH1 0x40 DUP5 ADD MLOAD PUSH4 0xFFFFFFFF DUP2 AND DUP2 EQ PUSH2 0x1FAC JUMPI PUSH0 PUSH0 REVERT JUMPDEST DUP1 SWAP2 POP POP SWAP3 POP SWAP3 POP SWAP3 JUMP JUMPDEST PUSH0 PUSH1 0x20 DUP3 DUP5 SUB SLT ISZERO PUSH2 0x1FC7 JUMPI PUSH0 PUSH0 REVERT JUMPDEST DUP2 MLOAD PUSH1 0xFF DUP2 AND DUP2 EQ PUSH2 0x1D17 JUMPI PUSH0 PUSH0 REVERT JUMPDEST PUSH1 0x1 PUSH1 0x1 PUSH1 0xA0 SHL SUB DUP7 AND DUP2 MSTORE PUSH1 0x20 DUP2 ADD DUP6 SWAP1 MSTORE PUSH1 0xFF DUP5 AND PUSH1 0x40 DUP3 ADD MSTORE PUSH1 0x80 PUSH1 0x60 DUP3 ADD DUP2 SWAP1 MSTORE DUP2 ADD DUP3 SWAP1 MSTORE DUP2 DUP4 PUSH1 0xA0 DUP4 ADD CALLDATACOPY PUSH0 DUP2 DUP4 ADD PUSH1 0xA0 SWAP1 DUP2 ADD SWAP2 SWAP1 SWAP2 MSTORE PUSH1 0x1F SWAP1 SWAP3 ADD PUSH1 0x1F NOT AND ADD ADD SWAP5 SWAP4 POP POP POP POP JUMP INVALID LOG2 PUSH5 0x6970667358 0x22 SLT KECCAK256 DUP13 RETURNCONTRACT 0xD3 0x2F 0xAA 0xC3 XOR 0xBE GAS 0xD3 0x4E COINBASE CALLDATALOAD SWAP8 0xA7 LOG4 0xC3 0xA5 PUSH16 0xDB997326EE0AFFB187024896B064736F PUSH13 0x634300081E0033000000000000 "
		},
		"gasEstimates": {
			"creation": {
				"codeDepositCost": "1657200",
				"executionCost": "infinite",
				"totalCost": "infinite"
			},
			"external": {
				"CLAIM_PERIOD()": "305",
				"CREDI_WHALE_ORACLE()": "infinite",
				"addRewards(address,uint256)": "infinite",
				"claim(uint256)": "infinite",
				"createPool(address,address,address,uint256,uint96,uint96,uint96)": "infinite",
				"getPool(uint256)": "28933",
				"getPoolsCount()": "2438",
				"getStake(uint256)": "13392",
				"owner()": "2385",
				"pending_payments(address)": "2599",
				"renounceOwnership()": "infinite",
				"setAPY(uint256,uint96)": "32664",
				"setBonusAPY(uint256,uint96)": "32718",
				"stake(uint256,uint256,bytes,bytes)": "infinite",
				"transferOwnership(address)": "infinite",
				"voidReward(uint256)": "infinite",
				"withdrawRewards(address,address,uint256)": "infinite",
				"withdrawStake(uint256)": "infinite"
			},
			"internal": {
				"time_now()": "infinite"
			}
		},
		"methodIdentifiers": {
			"CLAIM_PERIOD()": "21241dfe",
			"CREDI_WHALE_ORACLE()": "cc5c56dc",
			"addRewards(address,uint256)": "a9fc507b",
			"claim(uint256)": "379607f5",
			"createPool(address,address,address,uint256,uint96,uint96,uint96)": "69ca431b",
			"getPool(uint256)": "068bcd8d",
			"getPoolsCount()": "b4ac6860",
			"getStake(uint256)": "ce325bf8",
			"owner()": "8da5cb5b",
			"pending_payments(address)": "954821b6",
			"renounceOwnership()": "715018a6",
			"setAPY(uint256,uint96)": "039ba6b7",
			"setBonusAPY(uint256,uint96)": "4f44daa9",
			"stake(uint256,uint256,bytes,bytes)": "3b5dd047",
			"transferOwnership(address)": "f2fde38b",
			"voidReward(uint256)": "00215784",
			"withdrawRewards(address,address,uint256)": "74ee6b62",
			"withdrawStake(uint256)": "25d5971f"
		}
	},
	"abi": [
		{
			"inputs": [
				{
					"internalType": "address",
					"name": "_whale_oracle_addr",
					"type": "address"
				}
			],
			"stateMutability": "nonpayable",
			"type": "constructor"
		},
		{
			"inputs": [
				{
					"internalType": "address",
					"name": "owner",
					"type": "address"
				}
			],
			"name": "OwnableInvalidOwner",
			"type": "error"
		},
		{
			"inputs": [
				{
					"internalType": "address",
					"name": "account",
					"type": "address"
				}
			],
			"name": "OwnableUnauthorizedAccount",
			"type": "error"
		},
		{
			"inputs": [],
			"name": "ReentrancyGuardReentrantCall",
			"type": "error"
		},
		{
			"inputs": [
				{
					"internalType": "address",
					"name": "token",
					"type": "address"
				}
			],
			"name": "SafeERC20FailedOperation",
			"type": "error"
		},
		{
			"anonymous": false,
			"inputs": [
				{
					"indexed": true,
					"internalType": "uint256",
					"name": "pool_id",
					"type": "uint256"
				},
				{
					"indexed": false,
					"internalType": "uint96",
					"name": "apy",
					"type": "uint96"
				}
			],
			"name": "APYChanged",
			"type": "event"
		},
		{
			"anonymous": false,
			"inputs": [
				{
					"indexed": true,
					"internalType": "uint256",
					"name": "pool_id",
					"type": "uint256"
				},
				{
					"indexed": false,
					"internalType": "uint96",
					"name": "whales_bonus_apy",
					"type": "uint96"
				}
			],
			"name": "BonusAPYChanged",
			"type": "event"
		},
		{
			"anonymous": false,
			"inputs": [
				{
					"indexed": true,
					"internalType": "address",
					"name": "previousOwner",
					"type": "address"
				},
				{
					"indexed": true,
					"internalType": "address",
					"name": "newOwner",
					"type": "address"
				}
			],
			"name": "OwnershipTransferred",
			"type": "event"
		},
		{
			"anonymous": false,
			"inputs": [
				{
					"indexed": true,
					"internalType": "uint256",
					"name": "pool_id",
					"type": "uint256"
				},
				{
					"indexed": true,
					"internalType": "address",
					"name": "staking_token",
					"type": "address"
				},
				{
					"indexed": true,
					"internalType": "address",
					"name": "rewards_token",
					"type": "address"
				},
				{
					"indexed": false,
					"internalType": "address",
					"name": "price_oracle",
					"type": "address"
				},
				{
					"indexed": false,
					"internalType": "uint96",
					"name": "maturity",
					"type": "uint96"
				},
				{
					"indexed": false,
					"internalType": "uint96",
					"name": "apy",
					"type": "uint96"
				},
				{
					"indexed": false,
					"internalType": "uint96",
					"name": "whales_bonus_apy",
					"type": "uint96"
				}
			],
			"name": "PoolCreated",
			"type": "event"
		},
		{
			"anonymous": false,
			"inputs": [
				{
					"indexed": true,
					"internalType": "address",
					"name": "token",
					"type": "address"
				},
				{
					"indexed": false,
					"internalType": "uint256",
					"name": "amount",
					"type": "uint256"
				}
			],
			"name": "RewardAdded",
			"type": "event"
		},
		{
			"anonymous": false,
			"inputs": [
				{
					"indexed": true,
					"internalType": "uint256",
					"name": "pool_id",
					"type": "uint256"
				},
				{
					"indexed": false,
					"internalType": "uint256",
					"name": "stake_id",
					"type": "uint256"
				}
			],
			"name": "RewardPaid",
			"type": "event"
		},
		{
			"anonymous": false,
			"inputs": [
				{
					"indexed": true,
					"internalType": "uint256",
					"name": "pool_id",
					"type": "uint256"
				},
				{
					"indexed": false,
					"internalType": "uint256",
					"name": "stake_id",
					"type": "uint256"
				}
			],
			"name": "RewardVoided",
			"type": "event"
		},
		{
			"anonymous": false,
			"inputs": [
				{
					"indexed": true,
					"internalType": "address",
					"name": "token",
					"type": "address"
				},
				{
					"indexed": true,
					"internalType": "address",
					"name": "to",
					"type": "address"
				},
				{
					"indexed": false,
					"internalType": "uint256",
					"name": "amount",
					"type": "uint256"
				}
			],
			"name": "RewardWithdrawn",
			"type": "event"
		},
		{
			"anonymous": false,
			"inputs": [
				{
					"indexed": true,
					"internalType": "uint256",
					"name": "pool_id",
					"type": "uint256"
				},
				{
					"indexed": false,
					"internalType": "uint256",
					"name": "stake_id",
					"type": "uint256"
				}
			],
			"name": "StakeWithdrawn",
			"type": "event"
		},
		{
			"anonymous": false,
			"inputs": [
				{
					"indexed": true,
					"internalType": "address",
					"name": "owner",
					"type": "address"
				},
				{
					"indexed": false,
					"internalType": "uint256",
					"name": "stake_id",
					"type": "uint256"
				},
				{
					"indexed": true,
					"internalType": "uint256",
					"name": "pool_id",
					"type": "uint256"
				},
				{
					"indexed": false,
					"internalType": "uint96",
					"name": "maturity",
					"type": "uint96"
				},
				{
					"indexed": false,
					"internalType": "uint256",
					"name": "stake_amount",
					"type": "uint256"
				},
				{
					"indexed": false,
					"internalType": "uint256",
					"name": "rewards_amount",
					"type": "uint256"
				},
				{
					"indexed": false,
					"internalType": "uint256",
					"name": "required_CREDI",
					"type": "uint256"
				}
			],
			"name": "Staked",
			"type": "event"
		},
		{
			"inputs": [],
			"name": "CLAIM_PERIOD",
			"outputs": [
				{
					"internalType": "uint96",
					"name": "",
					"type": "uint96"
				}
			],
			"stateMutability": "view",
			"type": "function"
		},
		{
			"inputs": [],
			"name": "CREDI_WHALE_ORACLE",
			"outputs": [
				{
					"internalType": "contract ICREDIWhale",
					"name": "",
					"type": "address"
				}
			],
			"stateMutability": "view",
			"type": "function"
		},
		{
			"inputs": [
				{
					"internalType": "address",
					"name": "rewards_token",
					"type": "address"
				},
				{
					"internalType": "uint256",
					"name": "amount",
					"type": "uint256"
				}
			],
			"name": "addRewards",
			"outputs": [],
			"stateMutability": "nonpayable",
			"type": "function"
		},
		{
			"inputs": [
				{
					"internalType": "uint256",
					"name": "stake_id",
					"type": "uint256"
				}
			],
			"name": "claim",
			"outputs": [],
			"stateMutability": "nonpayable",
			"type": "function"
		},
		{
			"inputs": [
				{
					"internalType": "address",
					"name": "staking_token",
					"type": "address"
				},
				{
					"internalType": "address",
					"name": "rewards_token",
					"type": "address"
				},
				{
					"internalType": "address",
					"name": "price_oracle",
					"type": "address"
				},
				{
					"internalType": "uint256",
					"name": "reward_amount",
					"type": "uint256"
				},
				{
					"internalType": "uint96",
					"name": "maturity",
					"type": "uint96"
				},
				{
					"internalType": "uint96",
					"name": "apy",
					"type": "uint96"
				},
				{
					"internalType": "uint96",
					"name": "whales_bonus_apy",
					"type": "uint96"
				}
			],
			"name": "createPool",
			"outputs": [
				{
					"internalType": "uint256",
					"name": "",
					"type": "uint256"
				}
			],
			"stateMutability": "nonpayable",
			"type": "function"
		},
		{
			"inputs": [
				{
					"internalType": "uint256",
					"name": "pool_id",
					"type": "uint256"
				}
			],
			"name": "getPool",
			"outputs": [
				{
					"internalType": "address",
					"name": "staking_token",
					"type": "address"
				},
				{
					"internalType": "address",
					"name": "rewards_token",
					"type": "address"
				},
				{
					"internalType": "address",
					"name": "price_oracle",
					"type": "address"
				},
				{
					"internalType": "uint96",
					"name": "maturity",
					"type": "uint96"
				},
				{
					"internalType": "uint96",
					"name": "apy",
					"type": "uint96"
				},
				{
					"internalType": "uint96",
					"name": "whales_bonus_apy",
					"type": "uint96"
				}
			],
			"stateMutability": "view",
			"type": "function"
		},
		{
			"inputs": [],
			"name": "getPoolsCount",
			"outputs": [
				{
					"internalType": "uint256",
					"name": "",
					"type": "uint256"
				}
			],
			"stateMutability": "view",
			"type": "function"
		},
		{
			"inputs": [
				{
					"internalType": "uint256",
					"name": "stake_id",
					"type": "uint256"
				}
			],
			"name": "getStake",
			"outputs": [
				{
					"internalType": "address",
					"name": "owner",
					"type": "address"
				},
				{
					"internalType": "uint256",
					"name": "pool_id",
					"type": "uint256"
				},
				{
					"internalType": "uint96",
					"name": "maturity",
					"type": "uint96"
				},
				{
					"internalType": "uint256",
					"name": "stake_amount",
					"type": "uint256"
				},
				{
					"internalType": "uint256",
					"name": "reward_amount",
					"type": "uint256"
				},
				{
					"internalType": "uint256",
					"name": "required_CREDI",
					"type": "uint256"
				}
			],
			"stateMutability": "view",
			"type": "function"
		},
		{
			"inputs": [],
			"name": "owner",
			"outputs": [
				{
					"internalType": "address",
					"name": "",
					"type": "address"
				}
			],
			"stateMutability": "view",
			"type": "function"
		},
		{
			"inputs": [
				{
					"internalType": "address",
					"name": "",
					"type": "address"
				}
			],
			"name": "pending_payments",
			"outputs": [
				{
					"internalType": "uint256",
					"name": "",
					"type": "uint256"
				}
			],
			"stateMutability": "view",
			"type": "function"
		},
		{
			"inputs": [],
			"name": "renounceOwnership",
			"outputs": [],
			"stateMutability": "nonpayable",
			"type": "function"
		},
		{
			"inputs": [
				{
					"internalType": "uint256",
					"name": "pool_id",
					"type": "uint256"
				},
				{
					"internalType": "uint96",
					"name": "apy",
					"type": "uint96"
				}
			],
			"name": "setAPY",
			"outputs": [],
			"stateMutability": "nonpayable",
			"type": "function"
		},
		{
			"inputs": [
				{
					"internalType": "uint256",
					"name": "pool_id",
					"type": "uint256"
				},
				{
					"internalType": "uint96",
					"name": "whales_bonus_apy",
					"type": "uint96"
				}
			],
			"name": "setBonusAPY",
			"outputs": [],
			"stateMutability": "nonpayable",
			"type": "function"
		},
		{
			"inputs": [
				{
					"internalType": "uint256",
					"name": "pool_id",
					"type": "uint256"
				},
				{
					"internalType": "uint256",
					"name": "stake_amount",
					"type": "uint256"
				},
				{
					"internalType": "bytes",
					"name": "token0_price_data",
					"type": "bytes"
				},
				{
					"internalType": "bytes",
					"name": "token1_price_data",
					"type": "bytes"
				}
			],
			"name": "stake",
			"outputs": [],
			"stateMutability": "nonpayable",
			"type": "function"
		},
		{
			"inputs": [
				{
					"internalType": "address",
					"name": "newOwner",
					"type": "address"
				}
			],
			"name": "transferOwnership",
			"outputs": [],
			"stateMutability": "nonpayable",
			"type": "function"
		},
		{
			"inputs": [
				{
					"internalType": "uint256",
					"name": "stake_id",
					"type": "uint256"
				}
			],
			"name": "voidReward",
			"outputs": [],
			"stateMutability": "nonpayable",
			"type": "function"
		},
		{
			"inputs": [
				{
					"internalType": "address",
					"name": "rewards_token",
					"type": "address"
				},
				{
					"internalType": "address",
					"name": "to",
					"type": "address"
				},
				{
					"internalType": "uint256",
					"name": "amount",
					"type": "uint256"
				}
			],
			"name": "withdrawRewards",
			"outputs": [],
			"stateMutability": "nonpayable",
			"type": "function"
		},
		{
			"inputs": [
				{
					"internalType": "uint256",
					"name": "stake_id",
					"type": "uint256"
				}
			],
			"name": "withdrawStake",
			"outputs": [],
			"stateMutability": "nonpayable",
			"type": "function"
		}
	]
}