{
	"data": {
		"bytecode": {
			"linkReferences": {},
			"object": "608060405234801561000f575f5ffd5b5061001e6102b960201b60201c565b5f73ffffffffffffffffffffffffffffffffffffffff168173ffffffffffffffffffffffffffffffffffffffff160361008e575f6040517f1e4fbdf700000000000000000000000000000000000000000000000000000000815260040161008591906103c0565b60405180910390fd5b61009d816102c060201b60201c565b5060016040518061012001604052805f73ffffffffffffffffffffffffffffffffffffffff1681526020015f6bffffffffffffffffffffffff1681526020015f73ffffffffffffffffffffffffffffffffffffffff1681526020015f6bffffffffffffffffffffffff1681526020015f81526020015f81526020015f81526020015f81526020015f6bffffffffffffffffffffffff16815250908060018154018082558091505060019003905f5260205f2090600702015f909190919091505f820151815f015f6101000a81548173ffffffffffffffffffffffffffffffffffffffff021916908373ffffffffffffffffffffffffffffffffffffffff1602179055506020820151815f0160146101000a8154816bffffffffffffffffffffffff02191690836bffffffffffffffffffffffff1602179055506040820151816001015f6101000a81548173ffffffffffffffffffffffffffffffffffffffff021916908373ffffffffffffffffffffffffffffffffffffffff16021790555060608201518160010160146101000a8154816bffffffffffffffffffffffff02191690836bffffffffffffffffffffffff1602179055506080820151816002015560a0820151816003015560c0820151816004015560e08201518160050155610100820151816006015f6101000a8154816bffffffffffffffffffffffff02191690836bffffffffffffffffffffffff16021790555050506103d9565b5f33905090565b5f5f5f9054906101000a900473ffffffffffffffffffffffffffffffffffffffff169050815f5f6101000a81548173ffffffffffffffffffffffffffffffffffffffff021916908373ffffffffffffffffffffffffffffffffffffffff1602179055508173ffffffffffffffffffffffffffffffffffffffff168173ffffffffffffffffffffffffffffffffffffffff167f8be0079c531659141344cd1fd0a4f28419497f9722a3daafe3b4186f6b6457e060405160405180910390a35050565b5f73ffffffffffffffffffffffffffffffffffffffff82169050919050565b5f6103aa82610381565b9050919050565b6103ba816103a0565b82525050565b5f6020820190506103d35f8301846103b1565b92915050565b612bf2806103e65f395ff3fe608060405234801561000f575f5ffd5b50600436106100f3575f3560e01c80637b0472f011610095578063ce4b5bbe11610064578063ce4b5bbe14610265578063f2fde38b14610283578063fc41aa091461029f578063fdeef425146102bb576100f3565b80637b0472f0146101f15780637db7e3bf1461020d5780638da5cb5b14610229578063b4ac686014610247576100f3565b8063379607f5116100d1578063379607f514610169578063584b62a1146101855780635d9d2318146101b7578063715018a6146101e7576100f3565b8063068bcd8d146100f757806321241dfe1461012f57806325d5971f1461014d575b5f5ffd5b610111600480360381019061010c9190612026565b6102eb565b604051610126999897969594939291906120c5565b60405180910390f35b61013761043b565b6040516101449190612150565b60405180910390f35b61016760048036038101906101629190612026565b610442565b005b610183600480360381019061017e9190612026565b610752565b005b61019f600480360381019061019a9190612193565b610bd6565b6040516101ae939291906121d1565b60405180910390f35b6101d160048036038101906101cc9190612230565b610c07565b6040516101de91906122b9565b60405180910390f35b6101ef611035565b005b61020b600480360381019061020691906122d2565b611048565b005b61022760048036038101906102229190612310565b61138c565b005b6102316115b8565b60405161023e9190612360565b60405180910390f35b61024f6115df565b60405161025c91906122b9565b60405180910390f35b61026d6115f6565b60405161027a91906122b9565b60405180910390f35b61029d60048036038101906102989190612379565b611603565b005b6102b960048036038101906102b491906122d2565b611687565b005b6102d560048036038101906102d091906123a4565b6117ee565b6040516102e291906122b9565b60405180910390f35b5f5f5f5f5f5f5f5f5f895f81118015610308575060018054905081105b610347576040517f08c379a000000000000000000000000000000000000000000000000000000000815260040161033e90612462565b60405180910390fd5b5f60018c8154811061035c5761035b612480565b5b905f5260205f2090600702019050805f015f9054906101000a900473ffffffffffffffffffffffffffffffffffffffff16816001015f9054906101000a900473ffffffffffffffffffffffffffffffffffffffff16825f0160149054906101000a90046bffffffffffffffffffffffff168360010160149054906101000a90046bffffffffffffffffffffffff16846002015485600301548660040154876006015f9054906101000a90046bffffffffffffffffffffffff1688600501549a509a509a509a509a509a509a509a509a5050509193959799909294969850565b6234bc0081565b805f81118015610456575060018054905081105b610495576040517f08c379a000000000000000000000000000000000000000000000000000000000815260040161048c90612462565b60405180910390fd5b6104a6826104a1611a2d565b611a34565b5f60025f6104b2611a2d565b73ffffffffffffffffffffffffffffffffffffffff1673ffffffffffffffffffffffffffffffffffffffff1681526020019081526020015f205f8481526020019081526020015f2090505f6001848154811061051157610510612480565b5b905f5260205f20906007020190508060010160149054906101000a90046bffffffffffffffffffffffff166bffffffffffffffffffffffff16610552611cb4565b6bffffffffffffffffffffffff1610156105a1576040517f08c379a00000000000000000000000000000000000000000000000000000000081526004016105989061251d565b60405180910390fd5b5f825f0154111561074c576106036105b7611a2d565b835f0154835f015f9054906101000a900473ffffffffffffffffffffffffffffffffffffffff1673ffffffffffffffffffffffffffffffffffffffff16611cbb9092919063ffffffff16565b815f0154816002015f8282546106199190612568565b92505081905550610628611a2d565b73ffffffffffffffffffffffffffffffffffffffff16847f459d5aef2c549903c1eeb1736f5728845d5ccf82537ddd5bf8035795eee89263845f015460405161067191906122b9565b60405180910390a35f825f0181905550610689611a2d565b73ffffffffffffffffffffffffffffffffffffffff16847f8fe70e917ad578cbb5b0779aa52ee3f23afa39c5295542125059f2a4e98cbbfe845f0154856001015486600201546040516106de939291906121d1565b60405180910390a3837fe9d4ced29dfd1b7392aa77b7ea3220d8318a5a65cd900f4e40e9d816d11d84f2826002015483600301548460040154856006015f9054906101000a90046bffffffffffffffffffffffff16604051610743949392919061259b565b60405180910390a25b50505050565b805f81118015610766575060018054905081105b6107a5576040517f08c379a000000000000000000000000000000000000000000000000000000000815260040161079c90612462565b60405180910390fd5b6107b6826107b1611a2d565b611a34565b5f60025f6107c2611a2d565b73ffffffffffffffffffffffffffffffffffffffff1673ffffffffffffffffffffffffffffffffffffffff1681526020019081526020015f205f8481526020019081526020015f2090505f6001848154811061082157610820612480565b5b905f5260205f20906007020190508060010160149054906101000a90046bffffffffffffffffffffffff166bffffffffffffffffffffffff16610862611cb4565b6bffffffffffffffffffffffff1610156108b1576040517f08c379a00000000000000000000000000000000000000000000000000000000081526004016108a89061251d565b60405180910390fd5b5f8260010154116108f7576040517f08c379a00000000000000000000000000000000000000000000000000000000081526004016108ee9061264e565b60405180910390fd5b816001015481600501541015610942576040517f08c379a0000000000000000000000000000000000000000000000000000000008152600401610939906126dc565b60405180910390fd5b5f825f01541115610a23576109a4610958611a2d565b835f0154835f015f9054906101000a900473ffffffffffffffffffffffffffffffffffffffff1673ffffffffffffffffffffffffffffffffffffffff16611cbb9092919063ffffffff16565b815f0154816002015f8282546109ba9190612568565b925050819055506109c9611a2d565b73ffffffffffffffffffffffffffffffffffffffff16847f459d5aef2c549903c1eeb1736f5728845d5ccf82537ddd5bf8035795eee89263845f0154604051610a1291906122b9565b60405180910390a35f825f01819055505b610a7c610a2e611a2d565b8360010154836001015f9054906101000a900473ffffffffffffffffffffffffffffffffffffffff1673ffffffffffffffffffffffffffffffffffffffff16611cbb9092919063ffffffff16565b8160010154816005015f828254610a939190612568565b92505081905550610aa2611a2d565b73ffffffffffffffffffffffffffffffffffffffff16847f04492fab062412e7e4e5f46c9e919f1640652946a5e163ad6e6c1c03d87954d28460010154604051610aec91906122b9565b60405180910390a35f82600101819055505f8260020181905550610b0e611a2d565b73ffffffffffffffffffffffffffffffffffffffff16847f8fe70e917ad578cbb5b0779aa52ee3f23afa39c5295542125059f2a4e98cbbfe845f015485600101548660020154604051610b63939291906121d1565b60405180910390a3837fe9d4ced29dfd1b7392aa77b7ea3220d8318a5a65cd900f4e40e9d816d11d84f2826002015483600301548460040154856006015f9054906101000a90046bffffffffffffffffffffffff16604051610bc8949392919061259b565b60405180910390a250505050565b6002602052815f5260405f20602052805f5260405f205f9150915050805f0154908060010154908060020154905083565b5f610c10611d3a565b836bffffffffffffffffffffffff16610c27611cb4565b6bffffffffffffffffffffffff1610610c75576040517f08c379a0000000000000000000000000000000000000000000000000000000008152600401610c6c9061276a565b60405180910390fd5b610ca2856bffffffffffffffffffffffff16610c8f611cb4565b6bffffffffffffffffffffffff16611dc1565b9450836bffffffffffffffffffffffff16856bffffffffffffffffffffffff1610610d02576040517f08c379a0000000000000000000000000000000000000000000000000000000008152600401610cf9906127f8565b60405180910390fd5b5f8585610d0f9190612816565b6bffffffffffffffffffffffff1684683635c9adc5dea00000610d329190612855565b610d3c91906128c3565b905060016040518061012001604052808a73ffffffffffffffffffffffffffffffffffffffff168152602001886bffffffffffffffffffffffff1681526020018973ffffffffffffffffffffffffffffffffffffffff168152602001876bffffffffffffffffffffffff1681526020015f81526020018381526020015f8152602001858152602001886bffffffffffffffffffffffff16815250908060018154018082558091505060019003905f5260205f2090600702015f909190919091505f820151815f015f6101000a81548173ffffffffffffffffffffffffffffffffffffffff021916908373ffffffffffffffffffffffffffffffffffffffff1602179055506020820151815f0160146101000a8154816bffffffffffffffffffffffff02191690836bffffffffffffffffffffffff1602179055506040820151816001015f6101000a81548173ffffffffffffffffffffffffffffffffffffffff021916908373ffffffffffffffffffffffffffffffffffffffff16021790555060608201518160010160146101000a8154816bffffffffffffffffffffffff02191690836bffffffffffffffffffffffff1602179055506080820151816002015560a0820151816003015560c0820151816004015560e08201518160050155610100820151816006015f6101000a8154816bffffffffffffffffffffffff02191690836bffffffffffffffffffffffff16021790555050505f60018080549050610f669190612568565b9050807f7c89ff64ffbfc8006a5f9ef85541e2fc4f990a7906ba4920928ffd9c9b7b3a958a8a8a8a683635c9adc5dea00000604051610fa99594939291906128f3565b60405180910390a25f84111561102657610fed610fc4611a2d565b30868b73ffffffffffffffffffffffffffffffffffffffff16611dd7909392919063ffffffff16565b807f6c07ee05dcf262f13abf9d87b846ee789d2f90fe991d495acd7d7fc109ee1f558560405161101d91906122b9565b60405180910390a25b80925050509695505050505050565b61103d611d3a565b6110465f611e59565b565b815f8111801561105c575060018054905081105b61109b576040517f08c379a000000000000000000000000000000000000000000000000000000000815260040161109290612462565b60405180910390fd5b5f600184815481106110b0576110af612480565b5b905f5260205f2090600702019050805f0160149054906101000a90046bffffffffffffffffffffffff166bffffffffffffffffffffffff166110f0611cb4565b6bffffffffffffffffffffffff161015801561114a57508060010160149054906101000a90046bffffffffffffffffffffffff166bffffffffffffffffffffffff1661113a611cb4565b6bffffffffffffffffffffffff16105b611189576040517f08c379a0000000000000000000000000000000000000000000000000000000008152600401611180906129b4565b60405180910390fd5b5f83116111cb576040517f08c379a00000000000000000000000000000000000000000000000000000000081526004016111c290612a42565b60405180910390fd5b6112216111d6611a2d565b3085845f015f9054906101000a900473ffffffffffffffffffffffffffffffffffffffff1673ffffffffffffffffffffffffffffffffffffffff16611dd7909392919063ffffffff16565b6112328461122d611a2d565b611a34565b5f60025f61123e611a2d565b73ffffffffffffffffffffffffffffffffffffffff1673ffffffffffffffffffffffffffffffffffffffff1681526020019081526020015f205f8681526020019081526020015f20905083815f015f82825461129a9190612a60565b9250508190555083826002015f8282546112b49190612a60565b925050819055506112c3611a2d565b73ffffffffffffffffffffffffffffffffffffffff16857f8fe70e917ad578cbb5b0779aa52ee3f23afa39c5295542125059f2a4e98cbbfe835f015484600101548560020154604051611318939291906121d1565b60405180910390a3847fe9d4ced29dfd1b7392aa77b7ea3220d8318a5a65cd900f4e40e9d816d11d84f2836002015484600301548560040154866006015f9054906101000a90046bffffffffffffffffffffffff1660405161137d949392919061259b565b60405180910390a25050505050565b611394611d3a565b825f811180156113a8575060018054905081105b6113e7576040517f08c379a00000000000000000000000000000000000000000000000000000000081526004016113de90612462565b60405180910390fd5b5f8211611429576040517f08c379a000000000000000000000000000000000000000000000000000000000815260040161142090612b03565b60405180910390fd5b5f6001858154811061143e5761143d612480565b5b905f5260205f20906007020190508281600501541015611493576040517f08c379a000000000000000000000000000000000000000000000000000000000815260040161148a906126dc565b60405180910390fd5b6234bc008160010160149054906101000a90046bffffffffffffffffffffffff166114be9190612b21565b6bffffffffffffffffffffffff166114d4611cb4565b6bffffffffffffffffffffffff161015806114f257505f8160020154145b6114fa575f5ffd5b6115488484836001015f9054906101000a900473ffffffffffffffffffffffffffffffffffffffff1673ffffffffffffffffffffffffffffffffffffffff16611cbb9092919063ffffffff16565b82816005015f82825461155b9190612568565b925050819055508373ffffffffffffffffffffffffffffffffffffffff16857fb886382d42263e3c08a157dd29a33c435741f36625dbc3acb6fb8c19bbf78247856040516115a991906122b9565b60405180910390a35050505050565b5f5f5f9054906101000a900473ffffffffffffffffffffffffffffffffffffffff16905090565b5f600180805490506115f19190612568565b905090565b683635c9adc5dea0000081565b61160b611d3a565b5f73ffffffffffffffffffffffffffffffffffffffff168173ffffffffffffffffffffffffffffffffffffffff160361167b575f6040517f1e4fbdf70000000000000000000000000000000000000000000000000000000081526004016116729190612360565b60405180910390fd5b61168481611e59565b50565b815f8111801561169b575060018054905081105b6116da576040517f08c379a00000000000000000000000000000000000000000000000000000000081526004016116d190612462565b60405180910390fd5b5f821161171c576040517f08c379a000000000000000000000000000000000000000000000000000000000815260040161171390612b03565b60405180910390fd5b5f6001848154811061173157611730612480565b5b905f5260205f209060070201905061179661174a611a2d565b3085846001015f9054906101000a900473ffffffffffffffffffffffffffffffffffffffff1673ffffffffffffffffffffffffffffffffffffffff16611dd7909392919063ffffffff16565b82816005015f8282546117a99190612a60565b92505081905550837f6c07ee05dcf262f13abf9d87b846ee789d2f90fe991d495acd7d7fc109ee1f55846040516117e091906122b9565b60405180910390a250505050565b5f825f81118015611803575060018054905081105b611842576040517f08c379a000000000000000000000000000000000000000000000000000000000815260040161183990612462565b60405180910390fd5b5f60025f8573ffffffffffffffffffffffffffffffffffffffff1673ffffffffffffffffffffffffffffffffffffffff1681526020019081526020015f205f8681526020019081526020015f2090505f600186815481106118a6576118a5612480565b5b905f5260205f20906007020190505f611930826006015f9054906101000a90046bffffffffffffffffffffffff166bffffffffffffffffffffffff1661192b6118ed611cb4565b6bffffffffffffffffffffffff168560010160149054906101000a90046bffffffffffffffffffffffff166bffffffffffffffffffffffff16611f1a565b611dc1565b90505f826004015490505f83600201541180156119755750826006015f9054906101000a90046bffffffffffffffffffffffff166bffffffffffffffffffffffff1682115b156119df5782600201548360030154846006015f9054906101000a90046bffffffffffffffffffffffff166bffffffffffffffffffffffff16846119b99190612568565b6119c39190612855565b6119cd91906128c3565b83600401546119dc9190612a60565b90505b683635c9adc5dea000008460020154826119f99190612568565b855f0154611a079190612855565b611a1191906128c3565b8460010154611a209190612a60565b9550505050505092915050565b5f33905090565b5f60018381548110611a4957611a48612480565b5b905f5260205f20906007020190505f611ad3826006015f9054906101000a90046bffffffffffffffffffffffff166bffffffffffffffffffffffff16611ace611a90611cb4565b6bffffffffffffffffffffffff168560010160149054906101000a90046bffffffffffffffffffffffff166bffffffffffffffffffffffff16611f1a565b611dc1565b90505f8260020154118015611b1e5750816006015f9054906101000a90046bffffffffffffffffffffffff166bffffffffffffffffffffffff16816bffffffffffffffffffffffff16115b15611b905781600201548260030154836006015f9054906101000a90046bffffffffffffffffffffffff1683611b549190612816565b6bffffffffffffffffffffffff16611b6c9190612855565b611b7691906128c3565b826004015f828254611b889190612a60565b925050819055505b80826006015f6101000a8154816bffffffffffffffffffffffff02191690836bffffffffffffffffffffffff1602179055505f73ffffffffffffffffffffffffffffffffffffffff168373ffffffffffffffffffffffffffffffffffffffff1614611cae575f60025f8573ffffffffffffffffffffffffffffffffffffffff1673ffffffffffffffffffffffffffffffffffffffff1681526020019081526020015f205f8681526020019081526020015f2090505f815f01541115611c9f57683635c9adc5dea0000081600201548460040154611c6d9190612568565b825f0154611c7b9190612855565b611c8591906128c3565b816001015f828254611c979190612a60565b925050819055505b82600401548160020181905550505b50505050565b5f42905090565b611d35838473ffffffffffffffffffffffffffffffffffffffff1663a9059cbb8585604051602401611cee929190612b60565b604051602081830303815290604052915060e01b6020820180517bffffffffffffffffffffffffffffffffffffffffffffffffffffffff8381831617835250505050611f30565b505050565b611d42611a2d565b73ffffffffffffffffffffffffffffffffffffffff16611d606115b8565b73ffffffffffffffffffffffffffffffffffffffff1614611dbf57611d83611a2d565b6040517f118cdaa7000000000000000000000000000000000000000000000000000000008152600401611db69190612360565b60405180910390fd5b565b5f611dcf8284118484611fcb565b905092915050565b611e53848573ffffffffffffffffffffffffffffffffffffffff166323b872dd868686604051602401611e0c93929190612b87565b604051602081830303815290604052915060e01b6020820180517bffffffffffffffffffffffffffffffffffffffffffffffffffffffff8381831617835250505050611f30565b50505050565b5f5f5f9054906101000a900473ffffffffffffffffffffffffffffffffffffffff169050815f5f6101000a81548173ffffffffffffffffffffffffffffffffffffffff021916908373ffffffffffffffffffffffffffffffffffffffff1602179055508173ffffffffffffffffffffffffffffffffffffffff168173ffffffffffffffffffffffffffffffffffffffff167f8be0079c531659141344cd1fd0a4f28419497f9722a3daafe3b4186f6b6457e060405160405180910390a35050565b5f611f288284108484611fcb565b905092915050565b5f5f60205f8451602086015f885af180611f4f576040513d5f823e3d81fd5b3d92505f519150505f8214611f68576001811415611f83565b5f8473ffffffffffffffffffffffffffffffffffffffff163b145b15611fc557836040517f5274afe7000000000000000000000000000000000000000000000000000000008152600401611fbc9190612360565b60405180910390fd5b50505050565b5f611fd584611fe4565b82841802821890509392505050565b5f8115159050919050565b5f5ffd5b5f819050919050565b61200581611ff3565b811461200f575f5ffd5b50565b5f8135905061202081611ffc565b92915050565b5f6020828403121561203b5761203a611fef565b5b5f61204884828501612012565b91505092915050565b5f73ffffffffffffffffffffffffffffffffffffffff82169050919050565b5f61207a82612051565b9050919050565b61208a81612070565b82525050565b5f6bffffffffffffffffffffffff82169050919050565b6120b081612090565b82525050565b6120bf81611ff3565b82525050565b5f610120820190506120d95f83018c612081565b6120e6602083018b612081565b6120f3604083018a6120a7565b61210060608301896120a7565b61210d60808301886120b6565b61211a60a08301876120b6565b61212760c08301866120b6565b61213460e08301856120a7565b6121426101008301846120b6565b9a9950505050505050505050565b5f6020820190506121635f8301846120a7565b92915050565b61217281612070565b811461217c575f5ffd5b50565b5f8135905061218d81612169565b92915050565b5f5f604083850312156121a9576121a8611fef565b5b5f6121b68582860161217f565b92505060206121c785828601612012565b9150509250929050565b5f6060820190506121e45f8301866120b6565b6121f160208301856120b6565b6121fe60408301846120b6565b949350505050565b61220f81612090565b8114612219575f5ffd5b50565b5f8135905061222a81612206565b92915050565b5f5f5f5f5f5f60c0878903121561224a57612249611fef565b5b5f61225789828a0161217f565b965050602061226889828a0161217f565b955050604061227989828a0161221c565b945050606061228a89828a0161221c565b935050608061229b89828a01612012565b92505060a06122ac89828a01612012565b9150509295509295509295565b5f6020820190506122cc5f8301846120b6565b92915050565b5f5f604083850312156122e8576122e7611fef565b5b5f6122f585828601612012565b925050602061230685828601612012565b9150509250929050565b5f5f5f6060848603121561232757612326611fef565b5b5f61233486828701612012565b93505060206123458682870161217f565b925050604061235686828701612012565b9150509250925092565b5f6020820190506123735f830184612081565b92915050565b5f6020828403121561238e5761238d611fef565b5b5f61239b8482850161217f565b91505092915050565b5f5f604083850312156123ba576123b9611fef565b5b5f6123c785828601612012565b92505060206123d88582860161217f565b9150509250929050565b5f82825260208201905092915050565b7f4d61726b6574696e675374616b696e673a496e76616c696420506f6f6c2049445f8201527f2100000000000000000000000000000000000000000000000000000000000000602082015250565b5f61244c6021836123e2565b9150612457826123f2565b604082019050919050565b5f6020820190508181035f83015261247981612440565b9050919050565b7f4e487b71000000000000000000000000000000000000000000000000000000005f52603260045260245ffd5b7f4d61726b6574696e675374616b696e673a4561726c79205769746864726177615f8201527f6c206973206e6f74207065726d69747465642100000000000000000000000000602082015250565b5f6125076033836123e2565b9150612512826124ad565b604082019050919050565b5f6020820190508181035f830152612534816124fb565b9050919050565b7f4e487b71000000000000000000000000000000000000000000000000000000005f52601160045260245ffd5b5f61257282611ff3565b915061257d83611ff3565b92508282039050818111156125955761259461253b565b5b92915050565b5f6080820190506125ae5f8301876120b6565b6125bb60208301866120b6565b6125c860408301856120b6565b6125d560608301846120a7565b95945050505050565b7f4d61726b6574696e675374616b696e673a4e6f7468696e6720746f20636c61695f8201527f6d00000000000000000000000000000000000000000000000000000000000000602082015250565b5f6126386021836123e2565b9150612643826125de565b604082019050919050565b5f6020820190508181035f8301526126658161262c565b9050919050565b7f4d61726b6574696e675374616b696e673a496e73756666696369656e742062615f8201527f6c616e6365210000000000000000000000000000000000000000000000000000602082015250565b5f6126c66026836123e2565b91506126d18261266c565b604082019050919050565b5f6020820190508181035f8301526126f3816126ba565b9050919050565b7f4d61726b6574696e675374616b696e673a456e642074696d65206d75737420625f8201527f652067726561746572207468616e2074696d655f6e6f77210000000000000000602082015250565b5f6127546038836123e2565b915061275f826126fa565b604082019050919050565b5f6020820190508181035f83015261278181612748565b9050919050565b7f4d61726b6574696e675374616b696e673a53746172742074696d65206d7573745f8201527f206265206c657373207468616e20656e642074696d6521000000000000000000602082015250565b5f6127e26037836123e2565b91506127ed82612788565b604082019050919050565b5f6020820190508181035f83015261280f816127d6565b9050919050565b5f61282082612090565b915061282b83612090565b925082820390506bffffffffffffffffffffffff81111561284f5761284e61253b565b5b92915050565b5f61285f82611ff3565b915061286a83611ff3565b925082820261287881611ff3565b9150828204841483151761288f5761288e61253b565b5b5092915050565b7f4e487b71000000000000000000000000000000000000000000000000000000005f52601260045260245ffd5b5f6128cd82611ff3565b91506128d883611ff3565b9250826128e8576128e7612896565b5b828204905092915050565b5f60a0820190506129065f830188612081565b6129136020830187612081565b61292060408301866120a7565b61292d60608301856120a7565b61293a60808301846120b6565b9695505050505050565b7f4d61726b6574696e675374616b696e673a506f6f6c206973206e6f74206163745f8201527f6976652100000000000000000000000000000000000000000000000000000000602082015250565b5f61299e6024836123e2565b91506129a982612944565b604082019050919050565b5f6020820190508181035f8301526129cb81612992565b9050919050565b7f4d61726b6574696e675374616b696e673a7374616b655f616d6f756e74206d755f8201527f73742062652067726561746572207468616e2030210000000000000000000000602082015250565b5f612a2c6035836123e2565b9150612a37826129d2565b604082019050919050565b5f6020820190508181035f830152612a5981612a20565b9050919050565b5f612a6a82611ff3565b9150612a7583611ff3565b9250828201905080821115612a8d57612a8c61253b565b5b92915050565b7f4d61726b6574696e675374616b696e673a616d6f756e74206d757374206265205f8201527f67726561746572207468616e207a65726f210000000000000000000000000000602082015250565b5f612aed6032836123e2565b9150612af882612a93565b604082019050919050565b5f6020820190508181035f830152612b1a81612ae1565b9050919050565b5f612b2b82612090565b9150612b3683612090565b925082820190506bffffffffffffffffffffffff811115612b5a57612b5961253b565b5b92915050565b5f604082019050612b735f830185612081565b612b8060208301846120b6565b9392505050565b5f606082019050612b9a5f830186612081565b612ba76020830185612081565b612bb460408301846120b6565b94935050505056fea264697066735822122094e17552a8f9547a48f33259ee46525ca1775be9c804e04687602f40c6b7dbfb64736f6c634300081d0033",
			"opcodes": "PUSH1 0x80 PUSH1 0x40 MSTORE CALLVALUE DUP1 ISZERO PUSH2 0xF JUMPI PUSH0 PUSH0 REVERT JUMPDEST POP PUSH2 0x1E PUSH2 0x2B9 PUSH1 0x20 SHL PUSH1 0x20 SHR JUMP JUMPDEST PUSH0 PUSH20 0xFFFFFFFFFFFFFFFFFFFFFFFFFFFFFFFFFFFFFFFF AND DUP2 PUSH20 0xFFFFFFFFFFFFFFFFFFFFFFFFFFFFFFFFFFFFFFFF AND SUB PUSH2 0x8E JUMPI PUSH0 PUSH1 0x40 MLOAD PUSH32 0x1E4FBDF700000000000000000000000000000000000000000000000000000000 DUP2 MSTORE PUSH1 0x4 ADD PUSH2 0x85 SWAP2 SWAP1 PUSH2 0x3C0 JUMP JUMPDEST PUSH1 0x40 MLOAD DUP1 SWAP2 SUB SWAP1 REVERT JUMPDEST PUSH2 0x9D DUP2 PUSH2 0x2C0 PUSH1 0x20 SHL PUSH1 0x20 SHR JUMP JUMPDEST POP PUSH1 0x1 PUSH1 0x40 MLOAD DUP1 PUSH2 0x120 ADD PUSH1 0x40 MSTORE DUP1 PUSH0 PUSH20 0xFFFFFFFFFFFFFFFFFFFFFFFFFFFFFFFFFFFFFFFF AND DUP2 MSTORE PUSH1 0x20 ADD PUSH0 PUSH12 0xFFFFFFFFFFFFFFFFFFFFFFFF AND DUP2 MSTORE PUSH1 0x20 ADD PUSH0 PUSH20 0xFFFFFFFFFFFFFFFFFFFFFFFFFFFFFFFFFFFFFFFF AND DUP2 MSTORE PUSH1 0x20 ADD PUSH0 PUSH12 0xFFFFFFFFFFFFFFFFFFFFFFFF AND DUP2 MSTORE PUSH1 0x20 ADD PUSH0 DUP2 MSTORE PUSH1 0x20 ADD PUSH0 DUP2 MSTORE PUSH1 0x20 ADD PUSH0 DUP2 MSTORE PUSH1 0x20 ADD PUSH0 DUP2 MSTORE PUSH1 0x20 ADD PUSH0 PUSH12 0xFFFFFFFFFFFFFFFFFFFFFFFF AND DUP2 MSTORE POP SWAP1 DUP1 PUSH1 0x1 DUP2 SLOAD ADD DUP1 DUP3 SSTORE DUP1 SWAP2 POP POP PUSH1 0x1 SWAP1 SUB SWAP1 PUSH0 MSTORE PUSH1 0x20 PUSH0 KECCAK256 SWAP1 PUSH1 0x7 MUL ADD PUSH0 SWAP1 SWAP2 SWAP1 SWAP2 SWAP1 SWAP2 POP PUSH0 DUP3 ADD MLOAD DUP2 PUSH0 ADD PUSH0 PUSH2 0x100 EXP DUP2 SLOAD DUP2 PUSH20 0xFFFFFFFFFFFFFFFFFFFFFFFFFFFFFFFFFFFFFFFF MUL NOT AND SWAP1 DUP4 PUSH20 0xFFFFFFFFFFFFFFFFFFFFFFFFFFFFFFFFFFFFFFFF AND MUL OR SWAP1 SSTORE POP PUSH1 0x20 DUP3 ADD MLOAD DUP2 PUSH0 ADD PUSH1 0x14 PUSH2 0x100 EXP DUP2 SLOAD DUP2 PUSH12 0xFFFFFFFFFFFFFFFFFFFFFFFF MUL NOT AND SWAP1 DUP4 PUSH12 0xFFFFFFFFFFFFFFFFFFFFFFFF AND MUL OR SWAP1 SSTORE POP PUSH1 0x40 DUP3 ADD MLOAD DUP2 PUSH1 0x1 ADD PUSH0 PUSH2 0x100 EXP DUP2 SLOAD DUP2 PUSH20 0xFFFFFFFFFFFFFFFFFFFFFFFFFFFFFFFFFFFFFFFF MUL NOT AND SWAP1 DUP4 PUSH20 0xFFFFFFFFFFFFFFFFFFFFFFFFFFFFFFFFFFFFFFFF AND MUL OR SWAP1 SSTORE POP PUSH1 0x60 DUP3 ADD MLOAD DUP2 PUSH1 0x1 ADD PUSH1 0x14 PUSH2 0x100 EXP DUP2 SLOAD DUP2 PUSH12 0xFFFFFFFFFFFFFFFFFFFFFFFF MUL NOT AND SWAP1 DUP4 PUSH12 0xFFFFFFFFFFFFFFFFFFFFFFFF AND MUL OR SWAP1 SSTORE POP PUSH1 0x80 DUP3 ADD MLOAD DUP2 PUSH1 0x2 ADD SSTORE PUSH1 0xA0 DUP3 ADD MLOAD DUP2 PUSH1 0x3 ADD SSTORE PUSH1 0xC0 DUP3 ADD MLOAD DUP2 PUSH1 0x4 ADD SSTORE PUSH1 0xE0 DUP3 ADD MLOAD DUP2 PUSH1 0x5 ADD SSTORE PUSH2 0x100 DUP3 ADD MLOAD DUP2 PUSH1 0x6 ADD PUSH0 PUSH2 0x100 EXP DUP2 SLOAD DUP2 PUSH12 0xFFFFFFFFFFFFFFFFFFFFFFFF MUL NOT AND SWAP1 DUP4 PUSH12 0xFFFFFFFFFFFFFFFFFFFFFFFF AND MUL OR SWAP1 SSTORE POP POP POP PUSH2 0x3D9 JUMP JUMPDEST PUSH0 CALLER SWAP1 POP SWAP1 JUMP JUMPDEST PUSH0 PUSH0 PUSH0 SWAP1 SLOAD SWAP1 PUSH2 0x100 EXP SWAP1 DIV PUSH20 0xFFFFFFFFFFFFFFFFFFFFFFFFFFFFFFFFFFFFFFFF AND SWAP1 POP DUP2 PUSH0 PUSH0 PUSH2 0x100 EXP DUP2 SLOAD DUP2 PUSH20 0xFFFFFFFFFFFFFFFFFFFFFFFFFFFFFFFFFFFFFFFF MUL NOT AND SWAP1 DUP4 PUSH20 0xFFFFFFFFFFFFFFFFFFFFFFFFFFFFFFFFFFFFFFFF AND MUL OR SWAP1 SSTORE POP DUP2 PUSH20 0xFFFFFFFFFFFFFFFFFFFFFFFFFFFFFFFFFFFFFFFF AND DUP2 PUSH20 0xFFFFFFFFFFFFFFFFFFFFFFFFFFFFFFFFFFFFFFFF AND PUSH32 0x8BE0079C531659141344CD1FD0A4F28419497F9722A3DAAFE3B4186F6B6457E0 PUSH1 0x40 MLOAD PUSH1 0x40 MLOAD DUP1 SWAP2 SUB SWAP1 LOG3 POP POP JUMP JUMPDEST PUSH0 PUSH20 0xFFFFFFFFFFFFFFFFFFFFFFFFFFFFFFFFFFFFFFFF DUP3 AND SWAP1 POP SWAP2 SWAP1 POP JUMP JUMPDEST PUSH0 PUSH2 0x3AA DUP3 PUSH2 0x381 JUMP JUMPDEST SWAP1 POP SWAP2 SWAP1 POP JUMP JUMPDEST PUSH2 0x3BA DUP2 PUSH2 0x3A0 JUMP JUMPDEST DUP3 MSTORE POP POP JUMP JUMPDEST PUSH0 PUSH1 0x20 DUP3 ADD SWAP1 POP PUSH2 0x3D3 PUSH0 DUP4 ADD DUP5 PUSH2 0x3B1 JUMP JUMPDEST SWAP3 SWAP2 POP POP JUMP JUMPDEST PUSH2 0x2BF2 DUP1 PUSH2 0x3E6 PUSH0 CODECOPY PUSH0 RETURN INVALID PUSH1 0x80 PUSH1 0x40 MSTORE CALLVALUE DUP1 ISZERO PUSH2 0xF JUMPI PUSH0 PUSH0 REVERT JUMPDEST POP PUSH1 0x4 CALLDATASIZE LT PUSH2 0xF3 JUMPI PUSH0 CALLDATALOAD PUSH1 0xE0 SHR DUP1 PUSH4 0x7B0472F0 GT PUSH2 0x95 JUMPI DUP1 PUSH4 0xCE4B5BBE GT PUSH2 0x64 JUMPI DUP1 PUSH4 0xCE4B5BBE EQ PUSH2 0x265 JUMPI DUP1 PUSH4 0xF2FDE38B EQ PUSH2 0x283 JUMPI DUP1 PUSH4 0xFC41AA09 EQ PUSH2 0x29F JUMPI DUP1 PUSH4 0xFDEEF425 EQ PUSH2 0x2BB JUMPI PUSH2 0xF3 JUMP JUMPDEST DUP1 PUSH4 0x7B0472F0 EQ PUSH2 0x1F1 JUMPI DUP1 PUSH4 0x7DB7E3BF EQ PUSH2 0x20D JUMPI DUP1 PUSH4 0x8DA5CB5B EQ PUSH2 0x229 JUMPI DUP1 PUSH4 0xB4AC6860 EQ PUSH2 0x247 JUMPI PUSH2 0xF3 JUMP JUMPDEST DUP1 PUSH4 0x379607F5 GT PUSH2 0xD1 JUMPI DUP1 PUSH4 0x379607F5 EQ PUSH2 0x169 JUMPI DUP1 PUSH4 0x584B62A1 EQ PUSH2 0x185 JUMPI DUP1 PUSH4 0x5D9D2318 EQ PUSH2 0x1B7 JUMPI DUP1 PUSH4 0x715018A6 EQ PUSH2 0x1E7 JUMPI PUSH2 0xF3 JUMP JUMPDEST DUP1 PUSH4 0x68BCD8D EQ PUSH2 0xF7 JUMPI DUP1 PUSH4 0x21241DFE EQ PUSH2 0x12F JUMPI DUP1 PUSH4 0x25D5971F EQ PUSH2 0x14D JUMPI JUMPDEST PUSH0 PUSH0 REVERT JUMPDEST PUSH2 0x111 PUSH1 0x4 DUP1 CALLDATASIZE SUB DUP2 ADD SWAP1 PUSH2 0x10C SWAP2 SWAP1 PUSH2 0x2026 JUMP JUMPDEST PUSH2 0x2EB JUMP JUMPDEST PUSH1 0x40 MLOAD PUSH2 0x126 SWAP10 SWAP9 SWAP8 SWAP7 SWAP6 SWAP5 SWAP4 SWAP3 SWAP2 SWAP1 PUSH2 0x20C5 JUMP JUMPDEST PUSH1 0x40 MLOAD DUP1 SWAP2 SUB SWAP1 RETURN JUMPDEST PUSH2 0x137 PUSH2 0x43B JUMP JUMPDEST PUSH1 0x40 MLOAD PUSH2 0x144 SWAP2 SWAP1 PUSH2 0x2150 JUMP JUMPDEST PUSH1 0x40 MLOAD DUP1 SWAP2 SUB SWAP1 RETURN JUMPDEST PUSH2 0x167 PUSH1 0x4 DUP1 CALLDATASIZE SUB DUP2 ADD SWAP1 PUSH2 0x162 SWAP2 SWAP1 PUSH2 0x2026 JUMP JUMPDEST PUSH2 0x442 JUMP JUMPDEST STOP JUMPDEST PUSH2 0x183 PUSH1 0x4 DUP1 CALLDATASIZE SUB DUP2 ADD SWAP1 PUSH2 0x17E SWAP2 SWAP1 PUSH2 0x2026 JUMP JUMPDEST PUSH2 0x752 JUMP JUMPDEST STOP JUMPDEST PUSH2 0x19F PUSH1 0x4 DUP1 CALLDATASIZE SUB DUP2 ADD SWAP1 PUSH2 0x19A SWAP2 SWAP1 PUSH2 0x2193 JUMP JUMPDEST PUSH2 0xBD6 JUMP JUMPDEST PUSH1 0x40 MLOAD PUSH2 0x1AE SWAP4 SWAP3 SWAP2 SWAP1 PUSH2 0x21D1 JUMP JUMPDEST PUSH1 0x40 MLOAD DUP1 SWAP2 SUB SWAP1 RETURN JUMPDEST PUSH2 0x1D1 PUSH1 0x4 DUP1 CALLDATASIZE SUB DUP2 ADD SWAP1 PUSH2 0x1CC SWAP2 SWAP1 PUSH2 0x2230 JUMP JUMPDEST PUSH2 0xC07 JUMP JUMPDEST PUSH1 0x40 MLOAD PUSH2 0x1DE SWAP2 SWAP1 PUSH2 0x22B9 JUMP JUMPDEST PUSH1 0x40 MLOAD DUP1 SWAP2 SUB SWAP1 RETURN JUMPDEST PUSH2 0x1EF PUSH2 0x1035 JUMP JUMPDEST STOP JUMPDEST PUSH2 0x20B PUSH1 0x4 DUP1 CALLDATASIZE SUB DUP2 ADD SWAP1 PUSH2 0x206 SWAP2 SWAP1 PUSH2 0x22D2 JUMP JUMPDEST PUSH2 0x1048 JUMP JUMPDEST STOP JUMPDEST PUSH2 0x227 PUSH1 0x4 DUP1 CALLDATASIZE SUB DUP2 ADD SWAP1 PUSH2 0x222 SWAP2 SWAP1 PUSH2 0x2310 JUMP JUMPDEST PUSH2 0x138C JUMP JUMPDEST STOP JUMPDEST PUSH2 0x231 PUSH2 0x15B8 JUMP JUMPDEST PUSH1 0x40 MLOAD PUSH2 0x23E SWAP2 SWAP1 PUSH2 0x2360 JUMP JUMPDEST PUSH1 0x40 MLOAD DUP1 SWAP2 SUB SWAP1 RETURN JUMPDEST PUSH2 0x24F PUSH2 0x15DF JUMP JUMPDEST PUSH1 0x40 MLOAD PUSH2 0x25C SWAP2 SWAP1 PUSH2 0x22B9 JUMP JUMPDEST PUSH1 0x40 MLOAD DUP1 SWAP2 SUB SWAP1 RETURN JUMPDEST PUSH2 0x26D PUSH2 0x15F6 JUMP JUMPDEST PUSH1 0x40 MLOAD PUSH2 0x27A SWAP2 SWAP1 PUSH2 0x22B9 JUMP JUMPDEST PUSH1 0x40 MLOAD DUP1 SWAP2 SUB SWAP1 RETURN JUMPDEST PUSH2 0x29D PUSH1 0x4 DUP1 CALLDATASIZE SUB DUP2 ADD SWAP1 PUSH2 0x298 SWAP2 SWAP1 PUSH2 0x2379 JUMP JUMPDEST PUSH2 0x1603 JUMP JUMPDEST STOP JUMPDEST PUSH2 0x2B9 PUSH1 0x4 DUP1 CALLDATASIZE SUB DUP2 ADD SWAP1 PUSH2 0x2B4 SWAP2 SWAP1 PUSH2 0x22D2 JUMP JUMPDEST PUSH2 0x1687 JUMP JUMPDEST STOP JUMPDEST PUSH2 0x2D5 PUSH1 0x4 DUP1 CALLDATASIZE SUB DUP2 ADD SWAP1 PUSH2 0x2D0 SWAP2 SWAP1 PUSH2 0x23A4 JUMP JUMPDEST PUSH2 0x17EE JUMP JUMPDEST PUSH1 0x40 MLOAD PUSH2 0x2E2 SWAP2 SWAP1 PUSH2 0x22B9 JUMP JUMPDEST PUSH1 0x40 MLOAD DUP1 SWAP2 SUB SWAP1 RETURN JUMPDEST PUSH0 PUSH0 PUSH0 PUSH0 PUSH0 PUSH0 PUSH0 PUSH0 PUSH0 DUP10 PUSH0 DUP2 GT DUP1 ISZERO PUSH2 0x308 JUMPI POP PUSH1 0x1 DUP1 SLOAD SWAP1 POP DUP2 LT JUMPDEST PUSH2 0x347 JUMPI PUSH1 0x40 MLOAD PUSH32 0x8C379A000000000000000000000000000000000000000000000000000000000 DUP2 MSTORE PUSH1 0x4 ADD PUSH2 0x33E SWAP1 PUSH2 0x2462 JUMP JUMPDEST PUSH1 0x40 MLOAD DUP1 SWAP2 SUB SWAP1 REVERT JUMPDEST PUSH0 PUSH1 0x1 DUP13 DUP2 SLOAD DUP2 LT PUSH2 0x35C JUMPI PUSH2 0x35B PUSH2 0x2480 JUMP JUMPDEST JUMPDEST SWAP1 PUSH0 MSTORE PUSH1 0x20 PUSH0 KECCAK256 SWAP1 PUSH1 0x7 MUL ADD SWAP1 POP DUP1 PUSH0 ADD PUSH0 SWAP1 SLOAD SWAP1 PUSH2 0x100 EXP SWAP1 DIV PUSH20 0xFFFFFFFFFFFFFFFFFFFFFFFFFFFFFFFFFFFFFFFF AND DUP2 PUSH1 0x1 ADD PUSH0 SWAP1 SLOAD SWAP1 PUSH2 0x100 EXP SWAP1 DIV PUSH20 0xFFFFFFFFFFFFFFFFFFFFFFFFFFFFFFFFFFFFFFFF AND DUP3 PUSH0 ADD PUSH1 0x14 SWAP1 SLOAD SWAP1 PUSH2 0x100 EXP SWAP1 DIV PUSH12 0xFFFFFFFFFFFFFFFFFFFFFFFF AND DUP4 PUSH1 0x1 ADD PUSH1 0x14 SWAP1 SLOAD SWAP1 PUSH2 0x100 EXP SWAP1 DIV PUSH12 0xFFFFFFFFFFFFFFFFFFFFFFFF AND DUP5 PUSH1 0x2 ADD SLOAD DUP6 PUSH1 0x3 ADD SLOAD DUP7 PUSH1 0x4 ADD SLOAD DUP8 PUSH1 0x6 ADD PUSH0 SWAP1 SLOAD SWAP1 PUSH2 0x100 EXP SWAP1 DIV PUSH12 0xFFFFFFFFFFFFFFFFFFFFFFFF AND DUP9 PUSH1 0x5 ADD SLOAD SWAP11 POP SWAP11 POP SWAP11 POP SWAP11 POP SWAP11 POP SWAP11 POP SWAP11 POP SWAP11 POP SWAP11 POP POP POP SWAP2 SWAP4 SWAP6 SWAP8 SWAP10 SWAP1 SWAP3 SWAP5 SWAP7 SWAP9 POP JUMP JUMPDEST PUSH3 0x34BC00 DUP2 JUMP JUMPDEST DUP1 PUSH0 DUP2 GT DUP1 ISZERO PUSH2 0x456 JUMPI POP PUSH1 0x1 DUP1 SLOAD SWAP1 POP DUP2 LT JUMPDEST PUSH2 0x495 JUMPI PUSH1 0x40 MLOAD PUSH32 0x8C379A000000000000000000000000000000000000000000000000000000000 DUP2 MSTORE PUSH1 0x4 ADD PUSH2 0x48C SWAP1 PUSH2 0x2462 JUMP JUMPDEST PUSH1 0x40 MLOAD DUP1 SWAP2 SUB SWAP1 REVERT JUMPDEST PUSH2 0x4A6 DUP3 PUSH2 0x4A1 PUSH2 0x1A2D JUMP JUMPDEST PUSH2 0x1A34 JUMP JUMPDEST PUSH0 PUSH1 0x2 PUSH0 PUSH2 0x4B2 PUSH2 0x1A2D JUMP JUMPDEST PUSH20 0xFFFFFFFFFFFFFFFFFFFFFFFFFFFFFFFFFFFFFFFF AND PUSH20 0xFFFFFFFFFFFFFFFFFFFFFFFFFFFFFFFFFFFFFFFF AND DUP2 MSTORE PUSH1 0x20 ADD SWAP1 DUP2 MSTORE PUSH1 0x20 ADD PUSH0 KECCAK256 PUSH0 DUP5 DUP2 MSTORE PUSH1 0x20 ADD SWAP1 DUP2 MSTORE PUSH1 0x20 ADD PUSH0 KECCAK256 SWAP1 POP PUSH0 PUSH1 0x1 DUP5 DUP2 SLOAD DUP2 LT PUSH2 0x511 JUMPI PUSH2 0x510 PUSH2 0x2480 JUMP JUMPDEST JUMPDEST SWAP1 PUSH0 MSTORE PUSH1 0x20 PUSH0 KECCAK256 SWAP1 PUSH1 0x7 MUL ADD SWAP1 POP DUP1 PUSH1 0x1 ADD PUSH1 0x14 SWAP1 SLOAD SWAP1 PUSH2 0x100 EXP SWAP1 DIV PUSH12 0xFFFFFFFFFFFFFFFFFFFFFFFF AND PUSH12 0xFFFFFFFFFFFFFFFFFFFFFFFF AND PUSH2 0x552 PUSH2 0x1CB4 JUMP JUMPDEST PUSH12 0xFFFFFFFFFFFFFFFFFFFFFFFF AND LT ISZERO PUSH2 0x5A1 JUMPI PUSH1 0x40 MLOAD PUSH32 0x8C379A000000000000000000000000000000000000000000000000000000000 DUP2 MSTORE PUSH1 0x4 ADD PUSH2 0x598 SWAP1 PUSH2 0x251D JUMP JUMPDEST PUSH1 0x40 MLOAD DUP1 SWAP2 SUB SWAP1 REVERT JUMPDEST PUSH0 DUP3 PUSH0 ADD SLOAD GT ISZERO PUSH2 0x74C JUMPI PUSH2 0x603 PUSH2 0x5B7 PUSH2 0x1A2D JUMP JUMPDEST DUP4 PUSH0 ADD SLOAD DUP4 PUSH0 ADD PUSH0 SWAP1 SLOAD SWAP1 PUSH2 0x100 EXP SWAP1 DIV PUSH20 0xFFFFFFFFFFFFFFFFFFFFFFFFFFFFFFFFFFFFFFFF AND PUSH20 0xFFFFFFFFFFFFFFFFFFFFFFFFFFFFFFFFFFFFFFFF AND PUSH2 0x1CBB SWAP1 SWAP3 SWAP2 SWAP1 PUSH4 0xFFFFFFFF AND JUMP JUMPDEST DUP2 PUSH0 ADD SLOAD DUP2 PUSH1 0x2 ADD PUSH0 DUP3 DUP3 SLOAD PUSH2 0x619 SWAP2 SWAP1 PUSH2 0x2568 JUMP JUMPDEST SWAP3 POP POP DUP2 SWAP1 SSTORE POP PUSH2 0x628 PUSH2 0x1A2D JUMP JUMPDEST PUSH20 0xFFFFFFFFFFFFFFFFFFFFFFFFFFFFFFFFFFFFFFFF AND DUP5 PUSH32 0x459D5AEF2C549903C1EEB1736F5728845D5CCF82537DDD5BF8035795EEE89263 DUP5 PUSH0 ADD SLOAD PUSH1 0x40 MLOAD PUSH2 0x671 SWAP2 SWAP1 PUSH2 0x22B9 JUMP JUMPDEST PUSH1 0x40 MLOAD DUP1 SWAP2 SUB SWAP1 LOG3 PUSH0 DUP3 PUSH0 ADD DUP2 SWAP1 SSTORE POP PUSH2 0x689 PUSH2 0x1A2D JUMP JUMPDEST PUSH20 0xFFFFFFFFFFFFFFFFFFFFFFFFFFFFFFFFFFFFFFFF AND DUP5 PUSH32 0x8FE70E917AD578CBB5B0779AA52EE3F23AFA39C5295542125059F2A4E98CBBFE DUP5 PUSH0 ADD SLOAD DUP6 PUSH1 0x1 ADD SLOAD DUP7 PUSH1 0x2 ADD SLOAD PUSH1 0x40 MLOAD PUSH2 0x6DE SWAP4 SWAP3 SWAP2 SWAP1 PUSH2 0x21D1 JUMP JUMPDEST PUSH1 0x40 MLOAD DUP1 SWAP2 SUB SWAP1 LOG3 DUP4 PUSH32 0xE9D4CED29DFD1B7392AA77B7EA3220D8318A5A65CD900F4E40E9D816D11D84F2 DUP3 PUSH1 0x2 ADD SLOAD DUP4 PUSH1 0x3 ADD SLOAD DUP5 PUSH1 0x4 ADD SLOAD DUP6 PUSH1 0x6 ADD PUSH0 SWAP1 SLOAD SWAP1 PUSH2 0x100 EXP SWAP1 DIV PUSH12 0xFFFFFFFFFFFFFFFFFFFFFFFF AND PUSH1 0x40 MLOAD PUSH2 0x743 SWAP5 SWAP4 SWAP3 SWAP2 SWAP1 PUSH2 0x259B JUMP JUMPDEST PUSH1 0x40 MLOAD DUP1 SWAP2 SUB SWAP1 LOG2 JUMPDEST POP POP POP POP JUMP JUMPDEST DUP1 PUSH0 DUP2 GT DUP1 ISZERO PUSH2 0x766 JUMPI POP PUSH1 0x1 DUP1 SLOAD SWAP1 POP DUP2 LT JUMPDEST PUSH2 0x7A5 JUMPI PUSH1 0x40 MLOAD PUSH32 0x8C379A000000000000000000000000000000000000000000000000000000000 DUP2 MSTORE PUSH1 0x4 ADD PUSH2 0x79C SWAP1 PUSH2 0x2462 JUMP JUMPDEST PUSH1 0x40 MLOAD DUP1 SWAP2 SUB SWAP1 REVERT JUMPDEST PUSH2 0x7B6 DUP3 PUSH2 0x7B1 PUSH2 0x1A2D JUMP JUMPDEST PUSH2 0x1A34 JUMP JUMPDEST PUSH0 PUSH1 0x2 PUSH0 PUSH2 0x7C2 PUSH2 0x1A2D JUMP JUMPDEST PUSH20 0xFFFFFFFFFFFFFFFFFFFFFFFFFFFFFFFFFFFFFFFF AND PUSH20 0xFFFFFFFFFFFFFFFFFFFFFFFFFFFFFFFFFFFFFFFF AND DUP2 MSTORE PUSH1 0x20 ADD SWAP1 DUP2 MSTORE PUSH1 0x20 ADD PUSH0 KECCAK256 PUSH0 DUP5 DUP2 MSTORE PUSH1 0x20 ADD SWAP1 DUP2 MSTORE PUSH1 0x20 ADD PUSH0 KECCAK256 SWAP1 POP PUSH0 PUSH1 0x1 DUP5 DUP2 SLOAD DUP2 LT PUSH2 0x821 JUMPI PUSH2 0x820 PUSH2 0x2480 JUMP JUMPDEST JUMPDEST SWAP1 PUSH0 MSTORE PUSH1 0x20 PUSH0 KECCAK256 SWAP1 PUSH1 0x7 MUL ADD SWAP1 POP DUP1 PUSH1 0x1 ADD PUSH1 0x14 SWAP1 SLOAD SWAP1 PUSH2 0x100 EXP SWAP1 DIV PUSH12 0xFFFFFFFFFFFFFFFFFFFFFFFF AND PUSH12 0xFFFFFFFFFFFFFFFFFFFFFFFF AND PUSH2 0x862 PUSH2 0x1CB4 JUMP JUMPDEST PUSH12 0xFFFFFFFFFFFFFFFFFFFFFFFF AND LT ISZERO PUSH2 0x8B1 JUMPI PUSH1 0x40 MLOAD PUSH32 0x8C379A000000000000000000000000000000000000000000000000000000000 DUP2 MSTORE PUSH1 0x4 ADD PUSH2 0x8A8 SWAP1 PUSH2 0x251D JUMP JUMPDEST PUSH1 0x40 MLOAD DUP1 SWAP2 SUB SWAP1 REVERT JUMPDEST PUSH0 DUP3 PUSH1 0x1 ADD SLOAD GT PUSH2 0x8F7 JUMPI PUSH1 0x40 MLOAD PUSH32 0x8C379A000000000000000000000000000000000000000000000000000000000 DUP2 MSTORE PUSH1 0x4 ADD PUSH2 0x8EE SWAP1 PUSH2 0x264E JUMP JUMPDEST PUSH1 0x40 MLOAD DUP1 SWAP2 SUB SWAP1 REVERT JUMPDEST DUP2 PUSH1 0x1 ADD SLOAD DUP2 PUSH1 0x5 ADD SLOAD LT ISZERO PUSH2 0x942 JUMPI PUSH1 0x40 MLOAD PUSH32 0x8C379A000000000000000000000000000000000000000000000000000000000 DUP2 MSTORE PUSH1 0x4 ADD PUSH2 0x939 SWAP1 PUSH2 0x26DC JUMP JUMPDEST PUSH1 0x40 MLOAD DUP1 SWAP2 SUB SWAP1 REVERT JUMPDEST PUSH0 DUP3 PUSH0 ADD SLOAD GT ISZERO PUSH2 0xA23 JUMPI PUSH2 0x9A4 PUSH2 0x958 PUSH2 0x1A2D JUMP JUMPDEST DUP4 PUSH0 ADD SLOAD DUP4 PUSH0 ADD PUSH0 SWAP1 SLOAD SWAP1 PUSH2 0x100 EXP SWAP1 DIV PUSH20 0xFFFFFFFFFFFFFFFFFFFFFFFFFFFFFFFFFFFFFFFF AND PUSH20 0xFFFFFFFFFFFFFFFFFFFFFFFFFFFFFFFFFFFFFFFF AND PUSH2 0x1CBB SWAP1 SWAP3 SWAP2 SWAP1 PUSH4 0xFFFFFFFF AND JUMP JUMPDEST DUP2 PUSH0 ADD SLOAD DUP2 PUSH1 0x2 ADD PUSH0 DUP3 DUP3 SLOAD PUSH2 0x9BA SWAP2 SWAP1 PUSH2 0x2568 JUMP JUMPDEST SWAP3 POP POP DUP2 SWAP1 SSTORE POP PUSH2 0x9C9 PUSH2 0x1A2D JUMP JUMPDEST PUSH20 0xFFFFFFFFFFFFFFFFFFFFFFFFFFFFFFFFFFFFFFFF AND DUP5 PUSH32 0x459D5AEF2C549903C1EEB1736F5728845D5CCF82537DDD5BF8035795EEE89263 DUP5 PUSH0 ADD SLOAD PUSH1 0x40 MLOAD PUSH2 0xA12 SWAP2 SWAP1 PUSH2 0x22B9 JUMP JUMPDEST PUSH1 0x40 MLOAD DUP1 SWAP2 SUB SWAP1 LOG3 PUSH0 DUP3 PUSH0 ADD DUP2 SWAP1 SSTORE POP JUMPDEST PUSH2 0xA7C PUSH2 0xA2E PUSH2 0x1A2D JUMP JUMPDEST DUP4 PUSH1 0x1 ADD SLOAD DUP4 PUSH1 0x1 ADD PUSH0 SWAP1 SLOAD SWAP1 PUSH2 0x100 EXP SWAP1 DIV PUSH20 0xFFFFFFFFFFFFFFFFFFFFFFFFFFFFFFFFFFFFFFFF AND PUSH20 0xFFFFFFFFFFFFFFFFFFFFFFFFFFFFFFFFFFFFFFFF AND PUSH2 0x1CBB SWAP1 SWAP3 SWAP2 SWAP1 PUSH4 0xFFFFFFFF AND JUMP JUMPDEST DUP2 PUSH1 0x1 ADD SLOAD DUP2 PUSH1 0x5 ADD PUSH0 DUP3 DUP3 SLOAD PUSH2 0xA93 SWAP2 SWAP1 PUSH2 0x2568 JUMP JUMPDEST SWAP3 POP POP DUP2 SWAP1 SSTORE POP PUSH2 0xAA2 PUSH2 0x1A2D JUMP JUMPDEST PUSH20 0xFFFFFFFFFFFFFFFFFFFFFFFFFFFFFFFFFFFFFFFF AND DUP5 PUSH32 0x4492FAB062412E7E4E5F46C9E919F1640652946A5E163AD6E6C1C03D87954D2 DUP5 PUSH1 0x1 ADD SLOAD PUSH1 0x40 MLOAD PUSH2 0xAEC SWAP2 SWAP1 PUSH2 0x22B9 JUMP JUMPDEST PUSH1 0x40 MLOAD DUP1 SWAP2 SUB SWAP1 LOG3 PUSH0 DUP3 PUSH1 0x1 ADD DUP2 SWAP1 SSTORE POP PUSH0 DUP3 PUSH1 0x2 ADD DUP2 SWAP1 SSTORE POP PUSH2 0xB0E PUSH2 0x1A2D JUMP JUMPDEST PUSH20 0xFFFFFFFFFFFFFFFFFFFFFFFFFFFFFFFFFFFFFFFF AND DUP5 PUSH32 0x8FE70E917AD578CBB5B0779AA52EE3F23AFA39C5295542125059F2A4E98CBBFE DUP5 PUSH0 ADD SLOAD DUP6 PUSH1 0x1 ADD SLOAD DUP7 PUSH1 0x2 ADD SLOAD PUSH1 0x40 MLOAD PUSH2 0xB63 SWAP4 SWAP3 SWAP2 SWAP1 PUSH2 0x21D1 JUMP JUMPDEST PUSH1 0x40 MLOAD DUP1 SWAP2 SUB SWAP1 LOG3 DUP4 PUSH32 0xE9D4CED29DFD1B7392AA77B7EA3220D8318A5A65CD900F4E40E9D816D11D84F2 DUP3 PUSH1 0x2 ADD SLOAD DUP4 PUSH1 0x3 ADD SLOAD DUP5 PUSH1 0x4 ADD SLOAD DUP6 PUSH1 0x6 ADD PUSH0 SWAP1 SLOAD SWAP1 PUSH2 0x100 EXP SWAP1 DIV PUSH12 0xFFFFFFFFFFFFFFFFFFFFFFFF AND PUSH1 0x40 MLOAD PUSH2 0xBC8 SWAP5 SWAP4 SWAP3 SWAP2 SWAP1 PUSH2 0x259B JUMP JUMPDEST PUSH1 0x40 MLOAD DUP1 SWAP2 SUB SWAP1 LOG2 POP POP POP POP JUMP JUMPDEST PUSH1 0x2 PUSH1 0x20 MSTORE DUP2 PUSH0 MSTORE PUSH1 0x40 PUSH0 KECCAK256 PUSH1 0x20 MSTORE DUP1 PUSH0 MSTORE PUSH1 0x40 PUSH0 KECCAK256 PUSH0 SWAP2 POP SWAP2 POP POP DUP1 PUSH0 ADD SLOAD SWAP1 DUP1 PUSH1 0x1 ADD SLOAD SWAP1 DUP1 PUSH1 0x2 ADD SLOAD SWAP1 POP DUP4 JUMP JUMPDEST PUSH0 PUSH2 0xC10 PUSH2 0x1D3A JUMP JUMPDEST DUP4 PUSH12 0xFFFFFFFFFFFFFFFFFFFFFFFF AND PUSH2 0xC27 PUSH2 0x1CB4 JUMP JUMPDEST PUSH12 0xFFFFFFFFFFFFFFFFFFFFFFFF AND LT PUSH2 0xC75 JUMPI PUSH1 0x40 MLOAD PUSH32 0x8C379A000000000000000000000000000000000000000000000000000000000 DUP2 MSTORE PUSH1 0x4 ADD PUSH2 0xC6C SWAP1 PUSH2 0x276A JUMP JUMPDEST PUSH1 0x40 MLOAD DUP1 SWAP2 SUB SWAP1 REVERT JUMPDEST PUSH2 0xCA2 DUP6 PUSH12 0xFFFFFFFFFFFFFFFFFFFFFFFF AND PUSH2 0xC8F PUSH2 0x1CB4 JUMP JUMPDEST PUSH12 0xFFFFFFFFFFFFFFFFFFFFFFFF AND PUSH2 0x1DC1 JUMP JUMPDEST SWAP5 POP DUP4 PUSH12 0xFFFFFFFFFFFFFFFFFFFFFFFF AND DUP6 PUSH12 0xFFFFFFFFFFFFFFFFFFFFFFFF AND LT PUSH2 0xD02 JUMPI PUSH1 0x40 MLOAD PUSH32 0x8C379A000000000000000000000000000000000000000000000000000000000 DUP2 MSTORE PUSH1 0x4 ADD PUSH2 0xCF9 SWAP1 PUSH2 0x27F8 JUMP JUMPDEST PUSH1 0x40 MLOAD DUP1 SWAP2 SUB SWAP1 REVERT JUMPDEST PUSH0 DUP6 DUP6 PUSH2 0xD0F SWAP2 SWAP1 PUSH2 0x2816 JUMP JUMPDEST PUSH12 0xFFFFFFFFFFFFFFFFFFFFFFFF AND DUP5 PUSH9 0x3635C9ADC5DEA00000 PUSH2 0xD32 SWAP2 SWAP1 PUSH2 0x2855 JUMP JUMPDEST PUSH2 0xD3C SWAP2 SWAP1 PUSH2 0x28C3 JUMP JUMPDEST SWAP1 POP PUSH1 0x1 PUSH1 0x40 MLOAD DUP1 PUSH2 0x120 ADD PUSH1 0x40 MSTORE DUP1 DUP11 PUSH20 0xFFFFFFFFFFFFFFFFFFFFFFFFFFFFFFFFFFFFFFFF AND DUP2 MSTORE PUSH1 0x20 ADD DUP9 PUSH12 0xFFFFFFFFFFFFFFFFFFFFFFFF AND DUP2 MSTORE PUSH1 0x20 ADD DUP10 PUSH20 0xFFFFFFFFFFFFFFFFFFFFFFFFFFFFFFFFFFFFFFFF AND DUP2 MSTORE PUSH1 0x20 ADD DUP8 PUSH12 0xFFFFFFFFFFFFFFFFFFFFFFFF AND DUP2 MSTORE PUSH1 0x20 ADD PUSH0 DUP2 MSTORE PUSH1 0x20 ADD DUP4 DUP2 MSTORE PUSH1 0x20 ADD PUSH0 DUP2 MSTORE PUSH1 0x20 ADD DUP6 DUP2 MSTORE PUSH1 0x20 ADD DUP9 PUSH12 0xFFFFFFFFFFFFFFFFFFFFFFFF AND DUP2 MSTORE POP SWAP1 DUP1 PUSH1 0x1 DUP2 SLOAD ADD DUP1 DUP3 SSTORE DUP1 SWAP2 POP POP PUSH1 0x1 SWAP1 SUB SWAP1 PUSH0 MSTORE PUSH1 0x20 PUSH0 KECCAK256 SWAP1 PUSH1 0x7 MUL ADD PUSH0 SWAP1 SWAP2 SWAP1 SWAP2 SWAP1 SWAP2 POP PUSH0 DUP3 ADD MLOAD DUP2 PUSH0 ADD PUSH0 PUSH2 0x100 EXP DUP2 SLOAD DUP2 PUSH20 0xFFFFFFFFFFFFFFFFFFFFFFFFFFFFFFFFFFFFFFFF MUL NOT AND SWAP1 DUP4 PUSH20 0xFFFFFFFFFFFFFFFFFFFFFFFFFFFFFFFFFFFFFFFF AND MUL OR SWAP1 SSTORE POP PUSH1 0x20 DUP3 ADD MLOAD DUP2 PUSH0 ADD PUSH1 0x14 PUSH2 0x100 EXP DUP2 SLOAD DUP2 PUSH12 0xFFFFFFFFFFFFFFFFFFFFFFFF MUL NOT AND SWAP1 DUP4 PUSH12 0xFFFFFFFFFFFFFFFFFFFFFFFF AND MUL OR SWAP1 SSTORE POP PUSH1 0x40 DUP3 ADD MLOAD DUP2 PUSH1 0x1 ADD PUSH0 PUSH2 0x100 EXP DUP2 SLOAD DUP2 PUSH20 0xFFFFFFFFFFFFFFFFFFFFFFFFFFFFFFFFFFFFFFFF MUL NOT AND SWAP1 DUP4 PUSH20 0xFFFFFFFFFFFFFFFFFFFFFFFFFFFFFFFFFFFFFFFF AND MUL OR SWAP1 SSTORE POP PUSH1 0x60 DUP3 ADD MLOAD DUP2 PUSH1 0x1 ADD PUSH1 0x14 PUSH2 0x100 EXP DUP2 SLOAD DUP2 PUSH12 0xFFFFFFFFFFFFFFFFFFFFFFFF MUL NOT AND SWAP1 DUP4 PUSH12 0xFFFFFFFFFFFFFFFFFFFFFFFF AND MUL OR SWAP1 SSTORE POP PUSH1 0x80 DUP3 ADD MLOAD DUP2 PUSH1 0x2 ADD SSTORE PUSH1 0xA0 DUP3 ADD MLOAD DUP2 PUSH1 0x3 ADD SSTORE PUSH1 0xC0 DUP3 ADD MLOAD DUP2 PUSH1 0x4 ADD SSTORE PUSH1 0xE0 DUP3 ADD MLOAD DUP2 PUSH1 0x5 ADD SSTORE PUSH2 0x100 DUP3 ADD MLOAD DUP2 PUSH1 0x6 ADD PUSH0 PUSH2 0x100 EXP DUP2 SLOAD DUP2 PUSH12 0xFFFFFFFFFFFFFFFFFFFFFFFF MUL NOT AND SWAP1 DUP4 PUSH12 0xFFFFFFFFFFFFFFFFFFFFFFFF AND MUL OR SWAP1 SSTORE POP POP POP PUSH0 PUSH1 0x1 DUP1 DUP1 SLOAD SWAP1 POP PUSH2 0xF66 SWAP2 SWAP1 PUSH2 0x2568 JUMP JUMPDEST SWAP1 POP DUP1 PUSH32 0x7C89FF64FFBFC8006A5F9EF85541E2FC4F990A7906BA4920928FFD9C9B7B3A95 DUP11 DUP11 DUP11 DUP11 PUSH9 0x3635C9ADC5DEA00000 PUSH1 0x40 MLOAD PUSH2 0xFA9 SWAP6 SWAP5 SWAP4 SWAP3 SWAP2 SWAP1 PUSH2 0x28F3 JUMP JUMPDEST PUSH1 0x40 MLOAD DUP1 SWAP2 SUB SWAP1 LOG2 PUSH0 DUP5 GT ISZERO PUSH2 0x1026 JUMPI PUSH2 0xFED PUSH2 0xFC4 PUSH2 0x1A2D JUMP JUMPDEST ADDRESS DUP7 DUP12 PUSH20 0xFFFFFFFFFFFFFFFFFFFFFFFFFFFFFFFFFFFFFFFF AND PUSH2 0x1DD7 SWAP1 SWAP4 SWAP3 SWAP2 SWAP1 PUSH4 0xFFFFFFFF AND JUMP JUMPDEST DUP1 PUSH32 0x6C07EE05DCF262F13ABF9D87B846EE789D2F90FE991D495ACD7D7FC109EE1F55 DUP6 PUSH1 0x40 MLOAD PUSH2 0x101D SWAP2 SWAP1 PUSH2 0x22B9 JUMP JUMPDEST PUSH1 0x40 MLOAD DUP1 SWAP2 SUB SWAP1 LOG2 JUMPDEST DUP1 SWAP3 POP POP POP SWAP7 SWAP6 POP POP POP POP POP POP JUMP JUMPDEST PUSH2 0x103D PUSH2 0x1D3A JUMP JUMPDEST PUSH2 0x1046 PUSH0 PUSH2 0x1E59 JUMP JUMPDEST JUMP JUMPDEST DUP2 PUSH0 DUP2 GT DUP1 ISZERO PUSH2 0x105C JUMPI POP PUSH1 0x1 DUP1 SLOAD SWAP1 POP DUP2 LT JUMPDEST PUSH2 0x109B JUMPI PUSH1 0x40 MLOAD PUSH32 0x8C379A000000000000000000000000000000000000000000000000000000000 DUP2 MSTORE PUSH1 0x4 ADD PUSH2 0x1092 SWAP1 PUSH2 0x2462 JUMP JUMPDEST PUSH1 0x40 MLOAD DUP1 SWAP2 SUB SWAP1 REVERT JUMPDEST PUSH0 PUSH1 0x1 DUP5 DUP2 SLOAD DUP2 LT PUSH2 0x10B0 JUMPI PUSH2 0x10AF PUSH2 0x2480 JUMP JUMPDEST JUMPDEST SWAP1 PUSH0 MSTORE PUSH1 0x20 PUSH0 KECCAK256 SWAP1 PUSH1 0x7 MUL ADD SWAP1 POP DUP1 PUSH0 ADD PUSH1 0x14 SWAP1 SLOAD SWAP1 PUSH2 0x100 EXP SWAP1 DIV PUSH12 0xFFFFFFFFFFFFFFFFFFFFFFFF AND PUSH12 0xFFFFFFFFFFFFFFFFFFFFFFFF AND PUSH2 0x10F0 PUSH2 0x1CB4 JUMP JUMPDEST PUSH12 0xFFFFFFFFFFFFFFFFFFFFFFFF AND LT ISZERO DUP1 ISZERO PUSH2 0x114A JUMPI POP DUP1 PUSH1 0x1 ADD PUSH1 0x14 SWAP1 SLOAD SWAP1 PUSH2 0x100 EXP SWAP1 DIV PUSH12 0xFFFFFFFFFFFFFFFFFFFFFFFF AND PUSH12 0xFFFFFFFFFFFFFFFFFFFFFFFF AND PUSH2 0x113A PUSH2 0x1CB4 JUMP JUMPDEST PUSH12 0xFFFFFFFFFFFFFFFFFFFFFFFF AND LT JUMPDEST PUSH2 0x1189 JUMPI PUSH1 0x40 MLOAD PUSH32 0x8C379A000000000000000000000000000000000000000000000000000000000 DUP2 MSTORE PUSH1 0x4 ADD PUSH2 0x1180 SWAP1 PUSH2 0x29B4 JUMP JUMPDEST PUSH1 0x40 MLOAD DUP1 SWAP2 SUB SWAP1 REVERT JUMPDEST PUSH0 DUP4 GT PUSH2 0x11CB JUMPI PUSH1 0x40 MLOAD PUSH32 0x8C379A000000000000000000000000000000000000000000000000000000000 DUP2 MSTORE PUSH1 0x4 ADD PUSH2 0x11C2 SWAP1 PUSH2 0x2A42 JUMP JUMPDEST PUSH1 0x40 MLOAD DUP1 SWAP2 SUB SWAP1 REVERT JUMPDEST PUSH2 0x1221 PUSH2 0x11D6 PUSH2 0x1A2D JUMP JUMPDEST ADDRESS DUP6 DUP5 PUSH0 ADD PUSH0 SWAP1 SLOAD SWAP1 PUSH2 0x100 EXP SWAP1 DIV PUSH20 0xFFFFFFFFFFFFFFFFFFFFFFFFFFFFFFFFFFFFFFFF AND PUSH20 0xFFFFFFFFFFFFFFFFFFFFFFFFFFFFFFFFFFFFFFFF AND PUSH2 0x1DD7 SWAP1 SWAP4 SWAP3 SWAP2 SWAP1 PUSH4 0xFFFFFFFF AND JUMP JUMPDEST PUSH2 0x1232 DUP5 PUSH2 0x122D PUSH2 0x1A2D JUMP JUMPDEST PUSH2 0x1A34 JUMP JUMPDEST PUSH0 PUSH1 0x2 PUSH0 PUSH2 0x123E PUSH2 0x1A2D JUMP JUMPDEST PUSH20 0xFFFFFFFFFFFFFFFFFFFFFFFFFFFFFFFFFFFFFFFF AND PUSH20 0xFFFFFFFFFFFFFFFFFFFFFFFFFFFFFFFFFFFFFFFF AND DUP2 MSTORE PUSH1 0x20 ADD SWAP1 DUP2 MSTORE PUSH1 0x20 ADD PUSH0 KECCAK256 PUSH0 DUP7 DUP2 MSTORE PUSH1 0x20 ADD SWAP1 DUP2 MSTORE PUSH1 0x20 ADD PUSH0 KECCAK256 SWAP1 POP DUP4 DUP2 PUSH0 ADD PUSH0 DUP3 DUP3 SLOAD PUSH2 0x129A SWAP2 SWAP1 PUSH2 0x2A60 JUMP JUMPDEST SWAP3 POP POP DUP2 SWAP1 SSTORE POP DUP4 DUP3 PUSH1 0x2 ADD PUSH0 DUP3 DUP3 SLOAD PUSH2 0x12B4 SWAP2 SWAP1 PUSH2 0x2A60 JUMP JUMPDEST SWAP3 POP POP DUP2 SWAP1 SSTORE POP PUSH2 0x12C3 PUSH2 0x1A2D JUMP JUMPDEST PUSH20 0xFFFFFFFFFFFFFFFFFFFFFFFFFFFFFFFFFFFFFFFF AND DUP6 PUSH32 0x8FE70E917AD578CBB5B0779AA52EE3F23AFA39C5295542125059F2A4E98CBBFE DUP4 PUSH0 ADD SLOAD DUP5 PUSH1 0x1 ADD SLOAD DUP6 PUSH1 0x2 ADD SLOAD PUSH1 0x40 MLOAD PUSH2 0x1318 SWAP4 SWAP3 SWAP2 SWAP1 PUSH2 0x21D1 JUMP JUMPDEST PUSH1 0x40 MLOAD DUP1 SWAP2 SUB SWAP1 LOG3 DUP5 PUSH32 0xE9D4CED29DFD1B7392AA77B7EA3220D8318A5A65CD900F4E40E9D816D11D84F2 DUP4 PUSH1 0x2 ADD SLOAD DUP5 PUSH1 0x3 ADD SLOAD DUP6 PUSH1 0x4 ADD SLOAD DUP7 PUSH1 0x6 ADD PUSH0 SWAP1 SLOAD SWAP1 PUSH2 0x100 EXP SWAP1 DIV PUSH12 0xFFFFFFFFFFFFFFFFFFFFFFFF AND PUSH1 0x40 MLOAD PUSH2 0x137D SWAP5 SWAP4 SWAP3 SWAP2 SWAP1 PUSH2 0x259B JUMP JUMPDEST PUSH1 0x40 MLOAD DUP1 SWAP2 SUB SWAP1 LOG2 POP POP POP POP POP JUMP JUMPDEST PUSH2 0x1394 PUSH2 0x1D3A JUMP JUMPDEST DUP3 PUSH0 DUP2 GT DUP1 ISZERO PUSH2 0x13A8 JUMPI POP PUSH1 0x1 DUP1 SLOAD SWAP1 POP DUP2 LT JUMPDEST PUSH2 0x13E7 JUMPI PUSH1 0x40 MLOAD PUSH32 0x8C379A000000000000000000000000000000000000000000000000000000000 DUP2 MSTORE PUSH1 0x4 ADD PUSH2 0x13DE SWAP1 PUSH2 0x2462 JUMP JUMPDEST PUSH1 0x40 MLOAD DUP1 SWAP2 SUB SWAP1 REVERT JUMPDEST PUSH0 DUP3 GT PUSH2 0x1429 JUMPI PUSH1 0x40 MLOAD PUSH32 0x8C379A000000000000000000000000000000000000000000000000000000000 DUP2 MSTORE PUSH1 0x4 ADD PUSH2 0x1420 SWAP1 PUSH2 0x2B03 JUMP JUMPDEST PUSH1 0x40 MLOAD DUP1 SWAP2 SUB SWAP1 REVERT JUMPDEST PUSH0 PUSH1 0x1 DUP6 DUP2 SLOAD DUP2 LT PUSH2 0x143E JUMPI PUSH2 0x143D PUSH2 0x2480 JUMP JUMPDEST JUMPDEST SWAP1 PUSH0 MSTORE PUSH1 0x20 PUSH0 KECCAK256 SWAP1 PUSH1 0x7 MUL ADD SWAP1 POP DUP3 DUP2 PUSH1 0x5 ADD SLOAD LT ISZERO PUSH2 0x1493 JUMPI PUSH1 0x40 MLOAD PUSH32 0x8C379A000000000000000000000000000000000000000000000000000000000 DUP2 MSTORE PUSH1 0x4 ADD PUSH2 0x148A SWAP1 PUSH2 0x26DC JUMP JUMPDEST PUSH1 0x40 MLOAD DUP1 SWAP2 SUB SWAP1 REVERT JUMPDEST PUSH3 0x34BC00 DUP2 PUSH1 0x1 ADD PUSH1 0x14 SWAP1 SLOAD SWAP1 PUSH2 0x100 EXP SWAP1 DIV PUSH12 0xFFFFFFFFFFFFFFFFFFFFFFFF AND PUSH2 0x14BE SWAP2 SWAP1 PUSH2 0x2B21 JUMP JUMPDEST PUSH12 0xFFFFFFFFFFFFFFFFFFFFFFFF AND PUSH2 0x14D4 PUSH2 0x1CB4 JUMP JUMPDEST PUSH12 0xFFFFFFFFFFFFFFFFFFFFFFFF AND LT ISZERO DUP1 PUSH2 0x14F2 JUMPI POP PUSH0 DUP2 PUSH1 0x2 ADD SLOAD EQ JUMPDEST PUSH2 0x14FA JUMPI PUSH0 PUSH0 REVERT JUMPDEST PUSH2 0x1548 DUP5 DUP5 DUP4 PUSH1 0x1 ADD PUSH0 SWAP1 SLOAD SWAP1 PUSH2 0x100 EXP SWAP1 DIV PUSH20 0xFFFFFFFFFFFFFFFFFFFFFFFFFFFFFFFFFFFFFFFF AND PUSH20 0xFFFFFFFFFFFFFFFFFFFFFFFFFFFFFFFFFFFFFFFF AND PUSH2 0x1CBB SWAP1 SWAP3 SWAP2 SWAP1 PUSH4 0xFFFFFFFF AND JUMP JUMPDEST DUP3 DUP2 PUSH1 0x5 ADD PUSH0 DUP3 DUP3 SLOAD PUSH2 0x155B SWAP2 SWAP1 PUSH2 0x2568 JUMP JUMPDEST SWAP3 POP POP DUP2 SWAP1 SSTORE POP DUP4 PUSH20 0xFFFFFFFFFFFFFFFFFFFFFFFFFFFFFFFFFFFFFFFF AND DUP6 PUSH32 0xB886382D42263E3C08A157DD29A33C435741F36625DBC3ACB6FB8C19BBF78247 DUP6 PUSH1 0x40 MLOAD PUSH2 0x15A9 SWAP2 SWAP1 PUSH2 0x22B9 JUMP JUMPDEST PUSH1 0x40 MLOAD DUP1 SWAP2 SUB SWAP1 LOG3 POP POP POP POP POP JUMP JUMPDEST PUSH0 PUSH0 PUSH0 SWAP1 SLOAD SWAP1 PUSH2 0x100 EXP SWAP1 DIV PUSH20 0xFFFFFFFFFFFFFFFFFFFFFFFFFFFFFFFFFFFFFFFF AND SWAP1 POP SWAP1 JUMP JUMPDEST PUSH0 PUSH1 0x1 DUP1 DUP1 SLOAD SWAP1 POP PUSH2 0x15F1 SWAP2 SWAP1 PUSH2 0x2568 JUMP JUMPDEST SWAP1 POP SWAP1 JUMP JUMPDEST PUSH9 0x3635C9ADC5DEA00000 DUP2 JUMP JUMPDEST PUSH2 0x160B PUSH2 0x1D3A JUMP JUMPDEST PUSH0 PUSH20 0xFFFFFFFFFFFFFFFFFFFFFFFFFFFFFFFFFFFFFFFF AND DUP2 PUSH20 0xFFFFFFFFFFFFFFFFFFFFFFFFFFFFFFFFFFFFFFFF AND SUB PUSH2 0x167B JUMPI PUSH0 PUSH1 0x40 MLOAD PUSH32 0x1E4FBDF700000000000000000000000000000000000000000000000000000000 DUP2 MSTORE PUSH1 0x4 ADD PUSH2 0x1672 SWAP2 SWAP1 PUSH2 0x2360 JUMP JUMPDEST PUSH1 0x40 MLOAD DUP1 SWAP2 SUB SWAP1 REVERT JUMPDEST PUSH2 0x1684 DUP2 PUSH2 0x1E59 JUMP JUMPDEST POP JUMP JUMPDEST DUP2 PUSH0 DUP2 GT DUP1 ISZERO PUSH2 0x169B JUMPI POP PUSH1 0x1 DUP1 SLOAD SWAP1 POP DUP2 LT JUMPDEST PUSH2 0x16DA JUMPI PUSH1 0x40 MLOAD PUSH32 0x8C379A000000000000000000000000000000000000000000000000000000000 DUP2 MSTORE PUSH1 0x4 ADD PUSH2 0x16D1 SWAP1 PUSH2 0x2462 JUMP JUMPDEST PUSH1 0x40 MLOAD DUP1 SWAP2 SUB SWAP1 REVERT JUMPDEST PUSH0 DUP3 GT PUSH2 0x171C JUMPI PUSH1 0x40 MLOAD PUSH32 0x8C379A000000000000000000000000000000000000000000000000000000000 DUP2 MSTORE PUSH1 0x4 ADD PUSH2 0x1713 SWAP1 PUSH2 0x2B03 JUMP JUMPDEST PUSH1 0x40 MLOAD DUP1 SWAP2 SUB SWAP1 REVERT JUMPDEST PUSH0 PUSH1 0x1 DUP5 DUP2 SLOAD DUP2 LT PUSH2 0x1731 JUMPI PUSH2 0x1730 PUSH2 0x2480 JUMP JUMPDEST JUMPDEST SWAP1 PUSH0 MSTORE PUSH1 0x20 PUSH0 KECCAK256 SWAP1 PUSH1 0x7 MUL ADD SWAP1 POP PUSH2 0x1796 PUSH2 0x174A PUSH2 0x1A2D JUMP JUMPDEST ADDRESS DUP6 DUP5 PUSH1 0x1 ADD PUSH0 SWAP1 SLOAD SWAP1 PUSH2 0x100 EXP SWAP1 DIV PUSH20 0xFFFFFFFFFFFFFFFFFFFFFFFFFFFFFFFFFFFFFFFF AND PUSH20 0xFFFFFFFFFFFFFFFFFFFFFFFFFFFFFFFFFFFFFFFF AND PUSH2 0x1DD7 SWAP1 SWAP4 SWAP3 SWAP2 SWAP1 PUSH4 0xFFFFFFFF AND JUMP JUMPDEST DUP3 DUP2 PUSH1 0x5 ADD PUSH0 DUP3 DUP3 SLOAD PUSH2 0x17A9 SWAP2 SWAP1 PUSH2 0x2A60 JUMP JUMPDEST SWAP3 POP POP DUP2 SWAP1 SSTORE POP DUP4 PUSH32 0x6C07EE05DCF262F13ABF9D87B846EE789D2F90FE991D495ACD7D7FC109EE1F55 DUP5 PUSH1 0x40 MLOAD PUSH2 0x17E0 SWAP2 SWAP1 PUSH2 0x22B9 JUMP JUMPDEST PUSH1 0x40 MLOAD DUP1 SWAP2 SUB SWAP1 LOG2 POP POP POP POP JUMP JUMPDEST PUSH0 DUP3 PUSH0 DUP2 GT DUP1 ISZERO PUSH2 0x1803 JUMPI POP PUSH1 0x1 DUP1 SLOAD SWAP1 POP DUP2 LT JUMPDEST PUSH2 0x1842 JUMPI PUSH1 0x40 MLOAD PUSH32 0x8C379A000000000000000000000000000000000000000000000000000000000 DUP2 MSTORE PUSH1 0x4 ADD PUSH2 0x1839 SWAP1 PUSH2 0x2462 JUMP JUMPDEST PUSH1 0x40 MLOAD DUP1 SWAP2 SUB SWAP1 REVERT JUMPDEST PUSH0 PUSH1 0x2 PUSH0 DUP6 PUSH20 0xFFFFFFFFFFFFFFFFFFFFFFFFFFFFFFFFFFFFFFFF AND PUSH20 0xFFFFFFFFFFFFFFFFFFFFFFFFFFFFFFFFFFFFFFFF AND DUP2 MSTORE PUSH1 0x20 ADD SWAP1 DUP2 MSTORE PUSH1 0x20 ADD PUSH0 KECCAK256 PUSH0 DUP7 DUP2 MSTORE PUSH1 0x20 ADD SWAP1 DUP2 MSTORE PUSH1 0x20 ADD PUSH0 KECCAK256 SWAP1 POP PUSH0 PUSH1 0x1 DUP7 DUP2 SLOAD DUP2 LT PUSH2 0x18A6 JUMPI PUSH2 0x18A5 PUSH2 0x2480 JUMP JUMPDEST JUMPDEST SWAP1 PUSH0 MSTORE PUSH1 0x20 PUSH0 KECCAK256 SWAP1 PUSH1 0x7 MUL ADD SWAP1 POP PUSH0 PUSH2 0x1930 DUP3 PUSH1 0x6 ADD PUSH0 SWAP1 SLOAD SWAP1 PUSH2 0x100 EXP SWAP1 DIV PUSH12 0xFFFFFFFFFFFFFFFFFFFFFFFF AND PUSH12 0xFFFFFFFFFFFFFFFFFFFFFFFF AND PUSH2 0x192B PUSH2 0x18ED PUSH2 0x1CB4 JUMP JUMPDEST PUSH12 0xFFFFFFFFFFFFFFFFFFFFFFFF AND DUP6 PUSH1 0x1 ADD PUSH1 0x14 SWAP1 SLOAD SWAP1 PUSH2 0x100 EXP SWAP1 DIV PUSH12 0xFFFFFFFFFFFFFFFFFFFFFFFF AND PUSH12 0xFFFFFFFFFFFFFFFFFFFFFFFF AND PUSH2 0x1F1A JUMP JUMPDEST PUSH2 0x1DC1 JUMP JUMPDEST SWAP1 POP PUSH0 DUP3 PUSH1 0x4 ADD SLOAD SWAP1 POP PUSH0 DUP4 PUSH1 0x2 ADD SLOAD GT DUP1 ISZERO PUSH2 0x1975 JUMPI POP DUP3 PUSH1 0x6 ADD PUSH0 SWAP1 SLOAD SWAP1 PUSH2 0x100 EXP SWAP1 DIV PUSH12 0xFFFFFFFFFFFFFFFFFFFFFFFF AND PUSH12 0xFFFFFFFFFFFFFFFFFFFFFFFF AND DUP3 GT JUMPDEST ISZERO PUSH2 0x19DF JUMPI DUP3 PUSH1 0x2 ADD SLOAD DUP4 PUSH1 0x3 ADD SLOAD DUP5 PUSH1 0x6 ADD PUSH0 SWAP1 SLOAD SWAP1 PUSH2 0x100 EXP SWAP1 DIV PUSH12 0xFFFFFFFFFFFFFFFFFFFFFFFF AND PUSH12 0xFFFFFFFFFFFFFFFFFFFFFFFF AND DUP5 PUSH2 0x19B9 SWAP2 SWAP1 PUSH2 0x2568 JUMP JUMPDEST PUSH2 0x19C3 SWAP2 SWAP1 PUSH2 0x2855 JUMP JUMPDEST PUSH2 0x19CD SWAP2 SWAP1 PUSH2 0x28C3 JUMP JUMPDEST DUP4 PUSH1 0x4 ADD SLOAD PUSH2 0x19DC SWAP2 SWAP1 PUSH2 0x2A60 JUMP JUMPDEST SWAP1 POP JUMPDEST PUSH9 0x3635C9ADC5DEA00000 DUP5 PUSH1 0x2 ADD SLOAD DUP3 PUSH2 0x19F9 SWAP2 SWAP1 PUSH2 0x2568 JUMP JUMPDEST DUP6 PUSH0 ADD SLOAD PUSH2 0x1A07 SWAP2 SWAP1 PUSH2 0x2855 JUMP JUMPDEST PUSH2 0x1A11 SWAP2 SWAP1 PUSH2 0x28C3 JUMP JUMPDEST DUP5 PUSH1 0x1 ADD SLOAD PUSH2 0x1A20 SWAP2 SWAP1 PUSH2 0x2A60 JUMP JUMPDEST SWAP6 POP POP POP POP POP POP SWAP3 SWAP2 POP POP JUMP JUMPDEST PUSH0 CALLER SWAP1 POP SWAP1 JUMP JUMPDEST PUSH0 PUSH1 0x1 DUP4 DUP2 SLOAD DUP2 LT PUSH2 0x1A49 JUMPI PUSH2 0x1A48 PUSH2 0x2480 JUMP JUMPDEST JUMPDEST SWAP1 PUSH0 MSTORE PUSH1 0x20 PUSH0 KECCAK256 SWAP1 PUSH1 0x7 MUL ADD SWAP1 POP PUSH0 PUSH2 0x1AD3 DUP3 PUSH1 0x6 ADD PUSH0 SWAP1 SLOAD SWAP1 PUSH2 0x100 EXP SWAP1 DIV PUSH12 0xFFFFFFFFFFFFFFFFFFFFFFFF AND PUSH12 0xFFFFFFFFFFFFFFFFFFFFFFFF AND PUSH2 0x1ACE PUSH2 0x1A90 PUSH2 0x1CB4 JUMP JUMPDEST PUSH12 0xFFFFFFFFFFFFFFFFFFFFFFFF AND DUP6 PUSH1 0x1 ADD PUSH1 0x14 SWAP1 SLOAD SWAP1 PUSH2 0x100 EXP SWAP1 DIV PUSH12 0xFFFFFFFFFFFFFFFFFFFFFFFF AND PUSH12 0xFFFFFFFFFFFFFFFFFFFFFFFF AND PUSH2 0x1F1A JUMP JUMPDEST PUSH2 0x1DC1 JUMP JUMPDEST SWAP1 POP PUSH0 DUP3 PUSH1 0x2 ADD SLOAD GT DUP1 ISZERO PUSH2 0x1B1E JUMPI POP DUP2 PUSH1 0x6 ADD PUSH0 SWAP1 SLOAD SWAP1 PUSH2 0x100 EXP SWAP1 DIV PUSH12 0xFFFFFFFFFFFFFFFFFFFFFFFF AND PUSH12 0xFFFFFFFFFFFFFFFFFFFFFFFF AND DUP2 PUSH12 0xFFFFFFFFFFFFFFFFFFFFFFFF AND GT JUMPDEST ISZERO PUSH2 0x1B90 JUMPI DUP2 PUSH1 0x2 ADD SLOAD DUP3 PUSH1 0x3 ADD SLOAD DUP4 PUSH1 0x6 ADD PUSH0 SWAP1 SLOAD SWAP1 PUSH2 0x100 EXP SWAP1 DIV PUSH12 0xFFFFFFFFFFFFFFFFFFFFFFFF AND DUP4 PUSH2 0x1B54 SWAP2 SWAP1 PUSH2 0x2816 JUMP JUMPDEST PUSH12 0xFFFFFFFFFFFFFFFFFFFFFFFF AND PUSH2 0x1B6C SWAP2 SWAP1 PUSH2 0x2855 JUMP JUMPDEST PUSH2 0x1B76 SWAP2 SWAP1 PUSH2 0x28C3 JUMP JUMPDEST DUP3 PUSH1 0x4 ADD PUSH0 DUP3 DUP3 SLOAD PUSH2 0x1B88 SWAP2 SWAP1 PUSH2 0x2A60 JUMP JUMPDEST SWAP3 POP POP DUP2 SWAP1 SSTORE POP JUMPDEST DUP1 DUP3 PUSH1 0x6 ADD PUSH0 PUSH2 0x100 EXP DUP2 SLOAD DUP2 PUSH12 0xFFFFFFFFFFFFFFFFFFFFFFFF MUL NOT AND SWAP1 DUP4 PUSH12 0xFFFFFFFFFFFFFFFFFFFFFFFF AND MUL OR SWAP1 SSTORE POP PUSH0 PUSH20 0xFFFFFFFFFFFFFFFFFFFFFFFFFFFFFFFFFFFFFFFF AND DUP4 PUSH20 0xFFFFFFFFFFFFFFFFFFFFFFFFFFFFFFFFFFFFFFFF AND EQ PUSH2 0x1CAE JUMPI PUSH0 PUSH1 0x2 PUSH0 DUP6 PUSH20 0xFFFFFFFFFFFFFFFFFFFFFFFFFFFFFFFFFFFFFFFF AND PUSH20 0xFFFFFFFFFFFFFFFFFFFFFFFFFFFFFFFFFFFFFFFF AND DUP2 MSTORE PUSH1 0x20 ADD SWAP1 DUP2 MSTORE PUSH1 0x20 ADD PUSH0 KECCAK256 PUSH0 DUP7 DUP2 MSTORE PUSH1 0x20 ADD SWAP1 DUP2 MSTORE PUSH1 0x20 ADD PUSH0 KECCAK256 SWAP1 POP PUSH0 DUP2 PUSH0 ADD SLOAD GT ISZERO PUSH2 0x1C9F JUMPI PUSH9 0x3635C9ADC5DEA00000 DUP2 PUSH1 0x2 ADD SLOAD DUP5 PUSH1 0x4 ADD SLOAD PUSH2 0x1C6D SWAP2 SWAP1 PUSH2 0x2568 JUMP JUMPDEST DUP3 PUSH0 ADD SLOAD PUSH2 0x1C7B SWAP2 SWAP1 PUSH2 0x2855 JUMP JUMPDEST PUSH2 0x1C85 SWAP2 SWAP1 PUSH2 0x28C3 JUMP JUMPDEST DUP2 PUSH1 0x1 ADD PUSH0 DUP3 DUP3 SLOAD PUSH2 0x1C97 SWAP2 SWAP1 PUSH2 0x2A60 JUMP JUMPDEST SWAP3 POP POP DUP2 SWAP1 SSTORE POP JUMPDEST DUP3 PUSH1 0x4 ADD SLOAD DUP2 PUSH1 0x2 ADD DUP2 SWAP1 SSTORE POP POP JUMPDEST POP POP POP POP JUMP JUMPDEST PUSH0 TIMESTAMP SWAP1 POP SWAP1 JUMP JUMPDEST PUSH2 0x1D35 DUP4 DUP5 PUSH20 0xFFFFFFFFFFFFFFFFFFFFFFFFFFFFFFFFFFFFFFFF AND PUSH4 0xA9059CBB DUP6 DUP6 PUSH1 0x40 MLOAD PUSH1 0x24 ADD PUSH2 0x1CEE SWAP3 SWAP2 SWAP1 PUSH2 0x2B60 JUMP JUMPDEST PUSH1 0x40 MLOAD PUSH1 0x20 DUP2 DUP4 SUB SUB DUP2 MSTORE SWAP1 PUSH1 0x40 MSTORE SWAP2 POP PUSH1 0xE0 SHL PUSH1 0x20 DUP3 ADD DUP1 MLOAD PUSH28 0xFFFFFFFFFFFFFFFFFFFFFFFFFFFFFFFFFFFFFFFFFFFFFFFFFFFFFFFF DUP4 DUP2 DUP4 AND OR DUP4 MSTORE POP POP POP POP PUSH2 0x1F30 JUMP JUMPDEST POP POP POP JUMP JUMPDEST PUSH2 0x1D42 PUSH2 0x1A2D JUMP JUMPDEST PUSH20 0xFFFFFFFFFFFFFFFFFFFFFFFFFFFFFFFFFFFFFFFF AND PUSH2 0x1D60 PUSH2 0x15B8 JUMP JUMPDEST PUSH20 0xFFFFFFFFFFFFFFFFFFFFFFFFFFFFFFFFFFFFFFFF AND EQ PUSH2 0x1DBF JUMPI PUSH2 0x1D83 PUSH2 0x1A2D JUMP JUMPDEST PUSH1 0x40 MLOAD PUSH32 0x118CDAA700000000000000000000000000000000000000000000000000000000 DUP2 MSTORE PUSH1 0x4 ADD PUSH2 0x1DB6 SWAP2 SWAP1 PUSH2 0x2360 JUMP JUMPDEST PUSH1 0x40 MLOAD DUP1 SWAP2 SUB SWAP1 REVERT JUMPDEST JUMP JUMPDEST PUSH0 PUSH2 0x1DCF DUP3 DUP5 GT DUP5 DUP5 PUSH2 0x1FCB JUMP JUMPDEST SWAP1 POP SWAP3 SWAP2 POP POP JUMP JUMPDEST PUSH2 0x1E53 DUP5 DUP6 PUSH20 0xFFFFFFFFFFFFFFFFFFFFFFFFFFFFFFFFFFFFFFFF AND PUSH4 0x23B872DD DUP7 DUP7 DUP7 PUSH1 0x40 MLOAD PUSH1 0x24 ADD PUSH2 0x1E0C SWAP4 SWAP3 SWAP2 SWAP1 PUSH2 0x2B87 JUMP JUMPDEST PUSH1 0x40 MLOAD PUSH1 0x20 DUP2 DUP4 SUB SUB DUP2 MSTORE SWAP1 PUSH1 0x40 MSTORE SWAP2 POP PUSH1 0xE0 SHL PUSH1 0x20 DUP3 ADD DUP1 MLOAD PUSH28 0xFFFFFFFFFFFFFFFFFFFFFFFFFFFFFFFFFFFFFFFFFFFFFFFFFFFFFFFF DUP4 DUP2 DUP4 AND OR DUP4 MSTORE POP POP POP POP PUSH2 0x1F30 JUMP JUMPDEST POP POP POP POP JUMP JUMPDEST PUSH0 PUSH0 PUSH0 SWAP1 SLOAD SWAP1 PUSH2 0x100 EXP SWAP1 DIV PUSH20 0xFFFFFFFFFFFFFFFFFFFFFFFFFFFFFFFFFFFFFFFF AND SWAP1 POP DUP2 PUSH0 PUSH0 PUSH2 0x100 EXP DUP2 SLOAD DUP2 PUSH20 0xFFFFFFFFFFFFFFFFFFFFFFFFFFFFFFFFFFFFFFFF MUL NOT AND SWAP1 DUP4 PUSH20 0xFFFFFFFFFFFFFFFFFFFFFFFFFFFFFFFFFFFFFFFF AND MUL OR SWAP1 SSTORE POP DUP2 PUSH20 0xFFFFFFFFFFFFFFFFFFFFFFFFFFFFFFFFFFFFFFFF AND DUP2 PUSH20 0xFFFFFFFFFFFFFFFFFFFFFFFFFFFFFFFFFFFFFFFF AND PUSH32 0x8BE0079C531659141344CD1FD0A4F28419497F9722A3DAAFE3B4186F6B6457E0 PUSH1 0x40 MLOAD PUSH1 0x40 MLOAD DUP1 SWAP2 SUB SWAP1 LOG3 POP POP JUMP JUMPDEST PUSH0 PUSH2 0x1F28 DUP3 DUP5 LT DUP5 DUP5 PUSH2 0x1FCB JUMP JUMPDEST SWAP1 POP SWAP3 SWAP2 POP POP JUMP JUMPDEST PUSH0 PUSH0 PUSH1 0x20 PUSH0 DUP5 MLOAD PUSH1 0x20 DUP7 ADD PUSH0 DUP9 GAS CALL DUP1 PUSH2 0x1F4F JUMPI PUSH1 0x40 MLOAD RETURNDATASIZE PUSH0 DUP3 RETURNDATACOPY RETURNDATASIZE DUP2 REVERT JUMPDEST RETURNDATASIZE SWAP3 POP PUSH0 MLOAD SWAP2 POP POP PUSH0 DUP3 EQ PUSH2 0x1F68 JUMPI PUSH1 0x1 DUP2 EQ ISZERO PUSH2 0x1F83 JUMP JUMPDEST PUSH0 DUP5 PUSH20 0xFFFFFFFFFFFFFFFFFFFFFFFFFFFFFFFFFFFFFFFF AND EXTCODESIZE EQ JUMPDEST ISZERO PUSH2 0x1FC5 JUMPI DUP4 PUSH1 0x40 MLOAD PUSH32 0x5274AFE700000000000000000000000000000000000000000000000000000000 DUP2 MSTORE PUSH1 0x4 ADD PUSH2 0x1FBC SWAP2 SWAP1 PUSH2 0x2360 JUMP JUMPDEST PUSH1 0x40 MLOAD DUP1 SWAP2 SUB SWAP1 REVERT JUMPDEST POP POP POP POP JUMP JUMPDEST PUSH0 PUSH2 0x1FD5 DUP5 PUSH2 0x1FE4 JUMP JUMPDEST DUP3 DUP5 XOR MUL DUP3 XOR SWAP1 POP SWAP4 SWAP3 POP POP POP JUMP JUMPDEST PUSH0 DUP2 ISZERO ISZERO SWAP1 POP SWAP2 SWAP1 POP JUMP JUMPDEST PUSH0 PUSH0 REVERT JUMPDEST PUSH0 DUP2 SWAP1 POP SWAP2 SWAP1 POP JUMP JUMPDEST PUSH2 0x2005 DUP2 PUSH2 0x1FF3 JUMP JUMPDEST DUP2 EQ PUSH2 0x200F JUMPI PUSH0 PUSH0 REVERT JUMPDEST POP JUMP JUMPDEST PUSH0 DUP2 CALLDATALOAD SWAP1 POP PUSH2 0x2020 DUP2 PUSH2 0x1FFC JUMP JUMPDEST SWAP3 SWAP2 POP POP JUMP JUMPDEST PUSH0 PUSH1 0x20 DUP3 DUP5 SUB SLT ISZERO PUSH2 0x203B JUMPI PUSH2 0x203A PUSH2 0x1FEF JUMP JUMPDEST JUMPDEST PUSH0 PUSH2 0x2048 DUP5 DUP3 DUP6 ADD PUSH2 0x2012 JUMP JUMPDEST SWAP2 POP POP SWAP3 SWAP2 POP POP JUMP JUMPDEST PUSH0 PUSH20 0xFFFFFFFFFFFFFFFFFFFFFFFFFFFFFFFFFFFFFFFF DUP3 AND SWAP1 POP SWAP2 SWAP1 POP JUMP JUMPDEST PUSH0 PUSH2 0x207A DUP3 PUSH2 0x2051 JUMP JUMPDEST SWAP1 POP SWAP2 SWAP1 POP JUMP JUMPDEST PUSH2 0x208A DUP2 PUSH2 0x2070 JUMP JUMPDEST DUP3 MSTORE POP POP JUMP JUMPDEST PUSH0 PUSH12 0xFFFFFFFFFFFFFFFFFFFFFFFF DUP3 AND SWAP1 POP SWAP2 SWAP1 POP JUMP JUMPDEST PUSH2 0x20B0 DUP2 PUSH2 0x2090 JUMP JUMPDEST DUP3 MSTORE POP POP JUMP JUMPDEST PUSH2 0x20BF DUP2 PUSH2 0x1FF3 JUMP JUMPDEST DUP3 MSTORE POP POP JUMP JUMPDEST PUSH0 PUSH2 0x120 DUP3 ADD SWAP1 POP PUSH2 0x20D9 PUSH0 DUP4 ADD DUP13 PUSH2 0x2081 JUMP JUMPDEST PUSH2 0x20E6 PUSH1 0x20 DUP4 ADD DUP12 PUSH2 0x2081 JUMP JUMPDEST PUSH2 0x20F3 PUSH1 0x40 DUP4 ADD DUP11 PUSH2 0x20A7 JUMP JUMPDEST PUSH2 0x2100 PUSH1 0x60 DUP4 ADD DUP10 PUSH2 0x20A7 JUMP JUMPDEST PUSH2 0x210D PUSH1 0x80 DUP4 ADD DUP9 PUSH2 0x20B6 JUMP JUMPDEST PUSH2 0x211A PUSH1 0xA0 DUP4 ADD DUP8 PUSH2 0x20B6 JUMP JUMPDEST PUSH2 0x2127 PUSH1 0xC0 DUP4 ADD DUP7 PUSH2 0x20B6 JUMP JUMPDEST PUSH2 0x2134 PUSH1 0xE0 DUP4 ADD DUP6 PUSH2 0x20A7 JUMP JUMPDEST PUSH2 0x2142 PUSH2 0x100 DUP4 ADD DUP5 PUSH2 0x20B6 JUMP JUMPDEST SWAP11 SWAP10 POP POP POP POP POP POP POP POP POP POP JUMP JUMPDEST PUSH0 PUSH1 0x20 DUP3 ADD SWAP1 POP PUSH2 0x2163 PUSH0 DUP4 ADD DUP5 PUSH2 0x20A7 JUMP JUMPDEST SWAP3 SWAP2 POP POP JUMP JUMPDEST PUSH2 0x2172 DUP2 PUSH2 0x2070 JUMP JUMPDEST DUP2 EQ PUSH2 0x217C JUMPI PUSH0 PUSH0 REVERT JUMPDEST POP JUMP JUMPDEST PUSH0 DUP2 CALLDATALOAD SWAP1 POP PUSH2 0x218D DUP2 PUSH2 0x2169 JUMP JUMPDEST SWAP3 SWAP2 POP POP JUMP JUMPDEST PUSH0 PUSH0 PUSH1 0x40 DUP4 DUP6 SUB SLT ISZERO PUSH2 0x21A9 JUMPI PUSH2 0x21A8 PUSH2 0x1FEF JUMP JUMPDEST JUMPDEST PUSH0 PUSH2 0x21B6 DUP6 DUP3 DUP7 ADD PUSH2 0x217F JUMP JUMPDEST SWAP3 POP POP PUSH1 0x20 PUSH2 0x21C7 DUP6 DUP3 DUP7 ADD PUSH2 0x2012 JUMP JUMPDEST SWAP2 POP POP SWAP3 POP SWAP3 SWAP1 POP JUMP JUMPDEST PUSH0 PUSH1 0x60 DUP3 ADD SWAP1 POP PUSH2 0x21E4 PUSH0 DUP4 ADD DUP7 PUSH2 0x20B6 JUMP JUMPDEST PUSH2 0x21F1 PUSH1 0x20 DUP4 ADD DUP6 PUSH2 0x20B6 JUMP JUMPDEST PUSH2 0x21FE PUSH1 0x40 DUP4 ADD DUP5 PUSH2 0x20B6 JUMP JUMPDEST SWAP5 SWAP4 POP POP POP POP JUMP JUMPDEST PUSH2 0x220F DUP2 PUSH2 0x2090 JUMP JUMPDEST DUP2 EQ PUSH2 0x2219 JUMPI PUSH0 PUSH0 REVERT JUMPDEST POP JUMP JUMPDEST PUSH0 DUP2 CALLDATALOAD SWAP1 POP PUSH2 0x222A DUP2 PUSH2 0x2206 JUMP JUMPDEST SWAP3 SWAP2 POP POP JUMP JUMPDEST PUSH0 PUSH0 PUSH0 PUSH0 PUSH0 PUSH0 PUSH1 0xC0 DUP8 DUP10 SUB SLT ISZERO PUSH2 0x224A JUMPI PUSH2 0x2249 PUSH2 0x1FEF JUMP JUMPDEST JUMPDEST PUSH0 PUSH2 0x2257 DUP10 DUP3 DUP11 ADD PUSH2 0x217F JUMP JUMPDEST SWAP7 POP POP PUSH1 0x20 PUSH2 0x2268 DUP10 DUP3 DUP11 ADD PUSH2 0x217F JUMP JUMPDEST SWAP6 POP POP PUSH1 0x40 PUSH2 0x2279 DUP10 DUP3 DUP11 ADD PUSH2 0x221C JUMP JUMPDEST SWAP5 POP POP PUSH1 0x60 PUSH2 0x228A DUP10 DUP3 DUP11 ADD PUSH2 0x221C JUMP JUMPDEST SWAP4 POP POP PUSH1 0x80 PUSH2 0x229B DUP10 DUP3 DUP11 ADD PUSH2 0x2012 JUMP JUMPDEST SWAP3 POP POP PUSH1 0xA0 PUSH2 0x22AC DUP10 DUP3 DUP11 ADD PUSH2 0x2012 JUMP JUMPDEST SWAP2 POP POP SWAP3 SWAP6 POP SWAP3 SWAP6 POP SWAP3 SWAP6 JUMP JUMPDEST PUSH0 PUSH1 0x20 DUP3 ADD SWAP1 POP PUSH2 0x22CC PUSH0 DUP4 ADD DUP5 PUSH2 0x20B6 JUMP JUMPDEST SWAP3 SWAP2 POP POP JUMP JUMPDEST PUSH0 PUSH0 PUSH1 0x40 DUP4 DUP6 SUB SLT ISZERO PUSH2 0x22E8 JUMPI PUSH2 0x22E7 PUSH2 0x1FEF JUMP JUMPDEST JUMPDEST PUSH0 PUSH2 0x22F5 DUP6 DUP3 DUP7 ADD PUSH2 0x2012 JUMP JUMPDEST SWAP3 POP POP PUSH1 0x20 PUSH2 0x2306 DUP6 DUP3 DUP7 ADD PUSH2 0x2012 JUMP JUMPDEST SWAP2 POP POP SWAP3 POP SWAP3 SWAP1 POP JUMP JUMPDEST PUSH0 PUSH0 PUSH0 PUSH1 0x60 DUP5 DUP7 SUB SLT ISZERO PUSH2 0x2327 JUMPI PUSH2 0x2326 PUSH2 0x1FEF JUMP JUMPDEST JUMPDEST PUSH0 PUSH2 0x2334 DUP7 DUP3 DUP8 ADD PUSH2 0x2012 JUMP JUMPDEST SWAP4 POP POP PUSH1 0x20 PUSH2 0x2345 DUP7 DUP3 DUP8 ADD PUSH2 0x217F JUMP JUMPDEST SWAP3 POP POP PUSH1 0x40 PUSH2 0x2356 DUP7 DUP3 DUP8 ADD PUSH2 0x2012 JUMP JUMPDEST SWAP2 POP POP SWAP3 POP SWAP3 POP SWAP3 JUMP JUMPDEST PUSH0 PUSH1 0x20 DUP3 ADD SWAP1 POP PUSH2 0x2373 PUSH0 DUP4 ADD DUP5 PUSH2 0x2081 JUMP JUMPDEST SWAP3 SWAP2 POP POP JUMP JUMPDEST PUSH0 PUSH1 0x20 DUP3 DUP5 SUB SLT ISZERO PUSH2 0x238E JUMPI PUSH2 0x238D PUSH2 0x1FEF JUMP JUMPDEST JUMPDEST PUSH0 PUSH2 0x239B DUP5 DUP3 DUP6 ADD PUSH2 0x217F JUMP JUMPDEST SWAP2 POP POP SWAP3 SWAP2 POP POP JUMP JUMPDEST PUSH0 PUSH0 PUSH1 0x40 DUP4 DUP6 SUB SLT ISZERO PUSH2 0x23BA JUMPI PUSH2 0x23B9 PUSH2 0x1FEF JUMP JUMPDEST JUMPDEST PUSH0 PUSH2 0x23C7 DUP6 DUP3 DUP7 ADD PUSH2 0x2012 JUMP JUMPDEST SWAP3 POP POP PUSH1 0x20 PUSH2 0x23D8 DUP6 DUP3 DUP7 ADD PUSH2 0x217F JUMP JUMPDEST SWAP2 POP POP SWAP3 POP SWAP3 SWAP1 POP JUMP JUMPDEST PUSH0 DUP3 DUP3 MSTORE PUSH1 0x20 DUP3 ADD SWAP1 POP SWAP3 SWAP2 POP POP JUMP JUMPDEST PUSH32 0x4D61726B6574696E675374616B696E673A496E76616C696420506F6F6C204944 PUSH0 DUP3 ADD MSTORE PUSH32 0x2100000000000000000000000000000000000000000000000000000000000000 PUSH1 0x20 DUP3 ADD MSTORE POP JUMP JUMPDEST PUSH0 PUSH2 0x244C PUSH1 0x21 DUP4 PUSH2 0x23E2 JUMP JUMPDEST SWAP2 POP PUSH2 0x2457 DUP3 PUSH2 0x23F2 JUMP JUMPDEST PUSH1 0x40 DUP3 ADD SWAP1 POP SWAP2 SWAP1 POP JUMP JUMPDEST PUSH0 PUSH1 0x20 DUP3 ADD SWAP1 POP DUP2 DUP2 SUB PUSH0 DUP4 ADD MSTORE PUSH2 0x2479 DUP2 PUSH2 0x2440 JUMP JUMPDEST SWAP1 POP SWAP2 SWAP1 POP JUMP JUMPDEST PUSH32 0x4E487B7100000000000000000000000000000000000000000000000000000000 PUSH0 MSTORE PUSH1 0x32 PUSH1 0x4 MSTORE PUSH1 0x24 PUSH0 REVERT JUMPDEST PUSH32 0x4D61726B6574696E675374616B696E673A4561726C7920576974686472617761 PUSH0 DUP3 ADD MSTORE PUSH32 0x6C206973206E6F74207065726D69747465642100000000000000000000000000 PUSH1 0x20 DUP3 ADD MSTORE POP JUMP JUMPDEST PUSH0 PUSH2 0x2507 PUSH1 0x33 DUP4 PUSH2 0x23E2 JUMP JUMPDEST SWAP2 POP PUSH2 0x2512 DUP3 PUSH2 0x24AD JUMP JUMPDEST PUSH1 0x40 DUP3 ADD SWAP1 POP SWAP2 SWAP1 POP JUMP JUMPDEST PUSH0 PUSH1 0x20 DUP3 ADD SWAP1 POP DUP2 DUP2 SUB PUSH0 DUP4 ADD MSTORE PUSH2 0x2534 DUP2 PUSH2 0x24FB JUMP JUMPDEST SWAP1 POP SWAP2 SWAP1 POP JUMP JUMPDEST PUSH32 0x4E487B7100000000000000000000000000000000000000000000000000000000 PUSH0 MSTORE PUSH1 0x11 PUSH1 0x4 MSTORE PUSH1 0x24 PUSH0 REVERT JUMPDEST PUSH0 PUSH2 0x2572 DUP3 PUSH2 0x1FF3 JUMP JUMPDEST SWAP2 POP PUSH2 0x257D DUP4 PUSH2 0x1FF3 JUMP JUMPDEST SWAP3 POP DUP3 DUP3 SUB SWAP1 POP DUP2 DUP2 GT ISZERO PUSH2 0x2595 JUMPI PUSH2 0x2594 PUSH2 0x253B JUMP JUMPDEST JUMPDEST SWAP3 SWAP2 POP POP JUMP JUMPDEST PUSH0 PUSH1 0x80 DUP3 ADD SWAP1 POP PUSH2 0x25AE PUSH0 DUP4 ADD DUP8 PUSH2 0x20B6 JUMP JUMPDEST PUSH2 0x25BB PUSH1 0x20 DUP4 ADD DUP7 PUSH2 0x20B6 JUMP JUMPDEST PUSH2 0x25C8 PUSH1 0x40 DUP4 ADD DUP6 PUSH2 0x20B6 JUMP JUMPDEST PUSH2 0x25D5 PUSH1 0x60 DUP4 ADD DUP5 PUSH2 0x20A7 JUMP JUMPDEST SWAP6 SWAP5 POP POP POP POP POP JUMP JUMPDEST PUSH32 0x4D61726B6574696E675374616B696E673A4E6F7468696E6720746F20636C6169 PUSH0 DUP3 ADD MSTORE PUSH32 0x6D00000000000000000000000000000000000000000000000000000000000000 PUSH1 0x20 DUP3 ADD MSTORE POP JUMP JUMPDEST PUSH0 PUSH2 0x2638 PUSH1 0x21 DUP4 PUSH2 0x23E2 JUMP JUMPDEST SWAP2 POP PUSH2 0x2643 DUP3 PUSH2 0x25DE JUMP JUMPDEST PUSH1 0x40 DUP3 ADD SWAP1 POP SWAP2 SWAP1 POP JUMP JUMPDEST PUSH0 PUSH1 0x20 DUP3 ADD SWAP1 POP DUP2 DUP2 SUB PUSH0 DUP4 ADD MSTORE PUSH2 0x2665 DUP2 PUSH2 0x262C JUMP JUMPDEST SWAP1 POP SWAP2 SWAP1 POP JUMP JUMPDEST PUSH32 0x4D61726B6574696E675374616B696E673A496E73756666696369656E74206261 PUSH0 DUP3 ADD MSTORE PUSH32 0x6C616E6365210000000000000000000000000000000000000000000000000000 PUSH1 0x20 DUP3 ADD MSTORE POP JUMP JUMPDEST PUSH0 PUSH2 0x26C6 PUSH1 0x26 DUP4 PUSH2 0x23E2 JUMP JUMPDEST SWAP2 POP PUSH2 0x26D1 DUP3 PUSH2 0x266C JUMP JUMPDEST PUSH1 0x40 DUP3 ADD SWAP1 POP SWAP2 SWAP1 POP JUMP JUMPDEST PUSH0 PUSH1 0x20 DUP3 ADD SWAP1 POP DUP2 DUP2 SUB PUSH0 DUP4 ADD MSTORE PUSH2 0x26F3 DUP2 PUSH2 0x26BA JUMP JUMPDEST SWAP1 POP SWAP2 SWAP1 POP JUMP JUMPDEST PUSH32 0x4D61726B6574696E675374616B696E673A456E642074696D65206D7573742062 PUSH0 DUP3 ADD MSTORE PUSH32 0x652067726561746572207468616E2074696D655F6E6F77210000000000000000 PUSH1 0x20 DUP3 ADD MSTORE POP JUMP JUMPDEST PUSH0 PUSH2 0x2754 PUSH1 0x38 DUP4 PUSH2 0x23E2 JUMP JUMPDEST SWAP2 POP PUSH2 0x275F DUP3 PUSH2 0x26FA JUMP JUMPDEST PUSH1 0x40 DUP3 ADD SWAP1 POP SWAP2 SWAP1 POP JUMP JUMPDEST PUSH0 PUSH1 0x20 DUP3 ADD SWAP1 POP DUP2 DUP2 SUB PUSH0 DUP4 ADD MSTORE PUSH2 0x2781 DUP2 PUSH2 0x2748 JUMP JUMPDEST SWAP1 POP SWAP2 SWAP1 POP JUMP JUMPDEST PUSH32 0x4D61726B6574696E675374616B696E673A53746172742074696D65206D757374 PUSH0 DUP3 ADD MSTORE PUSH32 0x206265206C657373207468616E20656E642074696D6521000000000000000000 PUSH1 0x20 DUP3 ADD MSTORE POP JUMP JUMPDEST PUSH0 PUSH2 0x27E2 PUSH1 0x37 DUP4 PUSH2 0x23E2 JUMP JUMPDEST SWAP2 POP PUSH2 0x27ED DUP3 PUSH2 0x2788 JUMP JUMPDEST PUSH1 0x40 DUP3 ADD SWAP1 POP SWAP2 SWAP1 POP JUMP JUMPDEST PUSH0 PUSH1 0x20 DUP3 ADD SWAP1 POP DUP2 DUP2 SUB PUSH0 DUP4 ADD MSTORE PUSH2 0x280F DUP2 PUSH2 0x27D6 JUMP JUMPDEST SWAP1 POP SWAP2 SWAP1 POP JUMP JUMPDEST PUSH0 PUSH2 0x2820 DUP3 PUSH2 0x2090 JUMP JUMPDEST SWAP2 POP PUSH2 0x282B DUP4 PUSH2 0x2090 JUMP JUMPDEST SWAP3 POP DUP3 DUP3 SUB SWAP1 POP PUSH12 0xFFFFFFFFFFFFFFFFFFFFFFFF DUP2 GT ISZERO PUSH2 0x284F JUMPI PUSH2 0x284E PUSH2 0x253B JUMP JUMPDEST JUMPDEST SWAP3 SWAP2 POP POP JUMP JUMPDEST PUSH0 PUSH2 0x285F DUP3 PUSH2 0x1FF3 JUMP JUMPDEST SWAP2 POP PUSH2 0x286A DUP4 PUSH2 0x1FF3 JUMP JUMPDEST SWAP3 POP DUP3 DUP3 MUL PUSH2 0x2878 DUP2 PUSH2 0x1FF3 JUMP JUMPDEST SWAP2 POP DUP3 DUP3 DIV DUP5 EQ DUP4 ISZERO OR PUSH2 0x288F JUMPI PUSH2 0x288E PUSH2 0x253B JUMP JUMPDEST JUMPDEST POP SWAP3 SWAP2 POP POP JUMP JUMPDEST PUSH32 0x4E487B7100000000000000000000000000000000000000000000000000000000 PUSH0 MSTORE PUSH1 0x12 PUSH1 0x4 MSTORE PUSH1 0x24 PUSH0 REVERT JUMPDEST PUSH0 PUSH2 0x28CD DUP3 PUSH2 0x1FF3 JUMP JUMPDEST SWAP2 POP PUSH2 0x28D8 DUP4 PUSH2 0x1FF3 JUMP JUMPDEST SWAP3 POP DUP3 PUSH2 0x28E8 JUMPI PUSH2 0x28E7 PUSH2 0x2896 JUMP JUMPDEST JUMPDEST DUP3 DUP3 DIV SWAP1 POP SWAP3 SWAP2 POP POP JUMP JUMPDEST PUSH0 PUSH1 0xA0 DUP3 ADD SWAP1 POP PUSH2 0x2906 PUSH0 DUP4 ADD DUP9 PUSH2 0x2081 JUMP JUMPDEST PUSH2 0x2913 PUSH1 0x20 DUP4 ADD DUP8 PUSH2 0x2081 JUMP JUMPDEST PUSH2 0x2920 PUSH1 0x40 DUP4 ADD DUP7 PUSH2 0x20A7 JUMP JUMPDEST PUSH2 0x292D PUSH1 0x60 DUP4 ADD DUP6 PUSH2 0x20A7 JUMP JUMPDEST PUSH2 0x293A PUSH1 0x80 DUP4 ADD DUP5 PUSH2 0x20B6 JUMP JUMPDEST SWAP7 SWAP6 POP POP POP POP POP POP JUMP JUMPDEST PUSH32 0x4D61726B6574696E675374616B696E673A506F6F6C206973206E6F7420616374 PUSH0 DUP3 ADD MSTORE PUSH32 0x6976652100000000000000000000000000000000000000000000000000000000 PUSH1 0x20 DUP3 ADD MSTORE POP JUMP JUMPDEST PUSH0 PUSH2 0x299E PUSH1 0x24 DUP4 PUSH2 0x23E2 JUMP JUMPDEST SWAP2 POP PUSH2 0x29A9 DUP3 PUSH2 0x2944 JUMP JUMPDEST PUSH1 0x40 DUP3 ADD SWAP1 POP SWAP2 SWAP1 POP JUMP JUMPDEST PUSH0 PUSH1 0x20 DUP3 ADD SWAP1 POP DUP2 DUP2 SUB PUSH0 DUP4 ADD MSTORE PUSH2 0x29CB DUP2 PUSH2 0x2992 JUMP JUMPDEST SWAP1 POP SWAP2 SWAP1 POP JUMP JUMPDEST PUSH32 0x4D61726B6574696E675374616B696E673A7374616B655F616D6F756E74206D75 PUSH0 DUP3 ADD MSTORE PUSH32 0x73742062652067726561746572207468616E2030210000000000000000000000 PUSH1 0x20 DUP3 ADD MSTORE POP JUMP JUMPDEST PUSH0 PUSH2 0x2A2C PUSH1 0x35 DUP4 PUSH2 0x23E2 JUMP JUMPDEST SWAP2 POP PUSH2 0x2A37 DUP3 PUSH2 0x29D2 JUMP JUMPDEST PUSH1 0x40 DUP3 ADD SWAP1 POP SWAP2 SWAP1 POP JUMP JUMPDEST PUSH0 PUSH1 0x20 DUP3 ADD SWAP1 POP DUP2 DUP2 SUB PUSH0 DUP4 ADD MSTORE PUSH2 0x2A59 DUP2 PUSH2 0x2A20 JUMP JUMPDEST SWAP1 POP SWAP2 SWAP1 POP JUMP JUMPDEST PUSH0 PUSH2 0x2A6A DUP3 PUSH2 0x1FF3 JUMP JUMPDEST SWAP2 POP PUSH2 0x2A75 DUP4 PUSH2 0x1FF3 JUMP JUMPDEST SWAP3 POP DUP3 DUP3 ADD SWAP1 POP DUP1 DUP3 GT ISZERO PUSH2 0x2A8D JUMPI PUSH2 0x2A8C PUSH2 0x253B JUMP JUMPDEST JUMPDEST SWAP3 SWAP2 POP POP JUMP JUMPDEST PUSH32 0x4D61726B6574696E675374616B696E673A616D6F756E74206D75737420626520 PUSH0 DUP3 ADD MSTORE PUSH32 0x67726561746572207468616E207A65726F210000000000000000000000000000 PUSH1 0x20 DUP3 ADD MSTORE POP JUMP JUMPDEST PUSH0 PUSH2 0x2AED PUSH1 0x32 DUP4 PUSH2 0x23E2 JUMP JUMPDEST SWAP2 POP PUSH2 0x2AF8 DUP3 PUSH2 0x2A93 JUMP JUMPDEST PUSH1 0x40 DUP3 ADD SWAP1 POP SWAP2 SWAP1 POP JUMP JUMPDEST PUSH0 PUSH1 0x20 DUP3 ADD SWAP1 POP DUP2 DUP2 SUB PUSH0 DUP4 ADD MSTORE PUSH2 0x2B1A DUP2 PUSH2 0x2AE1 JUMP JUMPDEST SWAP1 POP SWAP2 SWAP1 POP JUMP JUMPDEST PUSH0 PUSH2 0x2B2B DUP3 PUSH2 0x2090 JUMP JUMPDEST SWAP2 POP PUSH2 0x2B36 DUP4 PUSH2 0x2090 JUMP JUMPDEST SWAP3 POP DUP3 DUP3 ADD SWAP1 POP PUSH12 0xFFFFFFFFFFFFFFFFFFFFFFFF DUP2 GT ISZERO PUSH2 0x2B5A JUMPI PUSH2 0x2B59 PUSH2 0x253B JUMP JUMPDEST JUMPDEST SWAP3 SWAP2 POP POP JUMP JUMPDEST PUSH0 PUSH1 0x40 DUP3 ADD SWAP1 POP PUSH2 0x2B73 PUSH0 DUP4 ADD DUP6 PUSH2 0x2081 JUMP JUMPDEST PUSH2 0x2B80 PUSH1 0x20 DUP4 ADD DUP5 PUSH2 0x20B6 JUMP JUMPDEST SWAP4 SWAP3 POP POP POP JUMP JUMPDEST PUSH0 PUSH1 0x60 DUP3 ADD SWAP1 POP PUSH2 0x2B9A PUSH0 DUP4 ADD DUP7 PUSH2 0x2081 JUMP JUMPDEST PUSH2 0x2BA7 PUSH1 0x20 DUP4 ADD DUP6 PUSH2 0x2081 JUMP JUMPDEST PUSH2 0x2BB4 PUSH1 0x40 DUP4 ADD DUP5 PUSH2 0x20B6 JUMP JUMPDEST SWAP5 SWAP4 POP POP POP POP JUMP INVALID LOG2 PUSH5 0x6970667358 0x22 SLT KECCAK256 SWAP5 RJUMPI 0x7552 0xA8 EXTDELEGATECALL SLOAD PUSH27 0x48F33259EE46525CA1775BE9C804E04687602F40C6B7DBFB64736F PUSH13 0x634300081D0033000000000000 "
		},
		"gasEstimates": {
			"creation": {
				"codeDepositCost": "2250000",
				"executionCost": "infinite",
				"totalCost": "infinite"
			},
			"external": {
				"CLAIM_PERIOD()": "377",
				"SCALE_FACTOR()": "347",
				"addRewards(uint256,uint256)": "infinite",
				"claim(uint256)": "infinite",
				"createPool(address,address,uint96,uint96,uint256,uint256)": "infinite",
				"getPool(uint256)": "infinite",
				"getPoolsCount()": "infinite",
				"getUserRewards(uint256,address)": "infinite",
				"owner()": "2581",
				"renounceOwnership()": "infinite",
				"stake(uint256,uint256)": "infinite",
				"stakes(address,uint256)": "infinite",
				"transferOwnership(address)": "infinite",
				"withdrawRewards(uint256,address,uint256)": "infinite",
				"withdrawStake(uint256)": "infinite"
			},
			"internal": {
				"time_now()": "21",
				"updatePool(uint256,address)": "infinite"
			}
		},
		"methodIdentifiers": {
			"CLAIM_PERIOD()": "21241dfe",
			"SCALE_FACTOR()": "ce4b5bbe",
			"addRewards(uint256,uint256)": "fc41aa09",
			"claim(uint256)": "379607f5",
			"createPool(address,address,uint96,uint96,uint256,uint256)": "5d9d2318",
			"getPool(uint256)": "068bcd8d",
			"getPoolsCount()": "b4ac6860",
			"getUserRewards(uint256,address)": "fdeef425",
			"owner()": "8da5cb5b",
			"renounceOwnership()": "715018a6",
			"stake(uint256,uint256)": "7b0472f0",
			"stakes(address,uint256)": "584b62a1",
			"transferOwnership(address)": "f2fde38b",
			"withdrawRewards(uint256,address,uint256)": "7db7e3bf",
			"withdrawStake(uint256)": "25d5971f"
		}
	},
	"abi": [
		{
			"inputs": [],
			"stateMutability": "nonpayable",
			"type": "constructor"
		},
		{
			"inputs": [
				{
					"internalType": "address",
					"name": "owner",
					"type": "address"
				}
			],
			"name": "OwnableInvalidOwner",
			"type": "error"
		},
		{
			"inputs": [
				{
					"internalType": "address",
					"name": "account",
					"type": "address"
				}
			],
			"name": "OwnableUnauthorizedAccount",
			"type": "error"
		},
		{
			"inputs": [
				{
					"internalType": "address",
					"name": "token",
					"type": "address"
				}
			],
			"name": "SafeERC20FailedOperation",
			"type": "error"
		},
		{
			"anonymous": false,
			"inputs": [
				{
					"indexed": true,
					"internalType": "address",
					"name": "previousOwner",
					"type": "address"
				},
				{
					"indexed": true,
					"internalType": "address",
					"name": "newOwner",
					"type": "address"
				}
			],
			"name": "OwnershipTransferred",
			"type": "event"
		},
		{
			"anonymous": false,
			"inputs": [
				{
					"indexed": true,
					"internalType": "uint256",
					"name": "pool_id",
					"type": "uint256"
				},
				{
					"indexed": false,
					"internalType": "address",
					"name": "staking_token",
					"type": "address"
				},
				{
					"indexed": false,
					"internalType": "address",
					"name": "rewards_token",
					"type": "address"
				},
				{
					"indexed": false,
					"internalType": "uint96",
					"name": "start_epoch",
					"type": "uint96"
				},
				{
					"indexed": false,
					"internalType": "uint96",
					"name": "end_epoch",
					"type": "uint96"
				},
				{
					"indexed": false,
					"internalType": "uint256",
					"name": "scale_factor",
					"type": "uint256"
				}
			],
			"name": "PoolCreated",
			"type": "event"
		},
		{
			"anonymous": false,
			"inputs": [
				{
					"indexed": true,
					"internalType": "uint256",
					"name": "pool_id",
					"type": "uint256"
				},
				{
					"indexed": false,
					"internalType": "uint256",
					"name": "stake_amount",
					"type": "uint256"
				},
				{
					"indexed": false,
					"internalType": "uint256",
					"name": "reward_rate",
					"type": "uint256"
				},
				{
					"indexed": false,
					"internalType": "uint256",
					"name": "reward_rate_cumsum",
					"type": "uint256"
				},
				{
					"indexed": false,
					"internalType": "uint96",
					"name": "last_update_epoch",
					"type": "uint96"
				}
			],
			"name": "PoolUpdated",
			"type": "event"
		},
		{
			"anonymous": false,
			"inputs": [
				{
					"indexed": true,
					"internalType": "uint256",
					"name": "pool_id",
					"type": "uint256"
				},
				{
					"indexed": false,
					"internalType": "uint256",
					"name": "amount",
					"type": "uint256"
				}
			],
			"name": "RewardAdded",
			"type": "event"
		},
		{
			"anonymous": false,
			"inputs": [
				{
					"indexed": true,
					"internalType": "uint256",
					"name": "pool_id",
					"type": "uint256"
				},
				{
					"indexed": true,
					"internalType": "address",
					"name": "user",
					"type": "address"
				},
				{
					"indexed": false,
					"internalType": "uint256",
					"name": "amount",
					"type": "uint256"
				}
			],
			"name": "RewardPaid",
			"type": "event"
		},
		{
			"anonymous": false,
			"inputs": [
				{
					"indexed": true,
					"internalType": "uint256",
					"name": "pool_id",
					"type": "uint256"
				},
				{
					"indexed": true,
					"internalType": "address",
					"name": "to",
					"type": "address"
				},
				{
					"indexed": false,
					"internalType": "uint256",
					"name": "amount",
					"type": "uint256"
				}
			],
			"name": "RewardWithdrawn",
			"type": "event"
		},
		{
			"anonymous": false,
			"inputs": [
				{
					"indexed": true,
					"internalType": "uint256",
					"name": "pool_id",
					"type": "uint256"
				},
				{
					"indexed": true,
					"internalType": "address",
					"name": "user",
					"type": "address"
				},
				{
					"indexed": false,
					"internalType": "uint256",
					"name": "stake_amount",
					"type": "uint256"
				},
				{
					"indexed": false,
					"internalType": "uint256",
					"name": "reward_amount",
					"type": "uint256"
				},
				{
					"indexed": false,
					"internalType": "uint256",
					"name": "reward_rate_cumsum",
					"type": "uint256"
				}
			],
			"name": "StakeUpdated",
			"type": "event"
		},
		{
			"anonymous": false,
			"inputs": [
				{
					"indexed": true,
					"internalType": "uint256",
					"name": "pool_id",
					"type": "uint256"
				},
				{
					"indexed": true,
					"internalType": "address",
					"name": "user",
					"type": "address"
				},
				{
					"indexed": false,
					"internalType": "uint256",
					"name": "amount",
					"type": "uint256"
				}
			],
			"name": "StakeWithdrawn",
			"type": "event"
		},
		{
			"inputs": [],
			"name": "CLAIM_PERIOD",
			"outputs": [
				{
					"internalType": "uint96",
					"name": "",
					"type": "uint96"
				}
			],
			"stateMutability": "view",
			"type": "function"
		},
		{
			"inputs": [],
			"name": "SCALE_FACTOR",
			"outputs": [
				{
					"internalType": "uint256",
					"name": "",
					"type": "uint256"
				}
			],
			"stateMutability": "view",
			"type": "function"
		},
		{
			"inputs": [
				{
					"internalType": "uint256",
					"name": "pool_id",
					"type": "uint256"
				},
				{
					"internalType": "uint256",
					"name": "amount",
					"type": "uint256"
				}
			],
			"name": "addRewards",
			"outputs": [],
			"stateMutability": "nonpayable",
			"type": "function"
		},
		{
			"inputs": [
				{
					"internalType": "uint256",
					"name": "pool_id",
					"type": "uint256"
				}
			],
			"name": "claim",
			"outputs": [],
			"stateMutability": "nonpayable",
			"type": "function"
		},
		{
			"inputs": [
				{
					"internalType": "address",
					"name": "staking_token",
					"type": "address"
				},
				{
					"internalType": "address",
					"name": "rewards_token",
					"type": "address"
				},
				{
					"internalType": "uint96",
					"name": "start_epoch",
					"type": "uint96"
				},
				{
					"internalType": "uint96",
					"name": "end_epoch",
					"type": "uint96"
				},
				{
					"internalType": "uint256",
					"name": "reward_amount",
					"type": "uint256"
				},
				{
					"internalType": "uint256",
					"name": "transfer_reward_amount",
					"type": "uint256"
				}
			],
			"name": "createPool",
			"outputs": [
				{
					"internalType": "uint256",
					"name": "",
					"type": "uint256"
				}
			],
			"stateMutability": "nonpayable",
			"type": "function"
		},
		{
			"inputs": [
				{
					"internalType": "uint256",
					"name": "pool_id",
					"type": "uint256"
				}
			],
			"name": "getPool",
			"outputs": [
				{
					"internalType": "address",
					"name": "staking_token",
					"type": "address"
				},
				{
					"internalType": "address",
					"name": "rewards_token",
					"type": "address"
				},
				{
					"internalType": "uint96",
					"name": "start_epoch",
					"type": "uint96"
				},
				{
					"internalType": "uint96",
					"name": "end_epoch",
					"type": "uint96"
				},
				{
					"internalType": "uint256",
					"name": "stake_amount",
					"type": "uint256"
				},
				{
					"internalType": "uint256",
					"name": "reward_rate",
					"type": "uint256"
				},
				{
					"internalType": "uint256",
					"name": "reward_rate_cumsum",
					"type": "uint256"
				},
				{
					"internalType": "uint96",
					"name": "last_update_epoch",
					"type": "uint96"
				},
				{
					"internalType": "uint256",
					"name": "available_rewards",
					"type": "uint256"
				}
			],
			"stateMutability": "view",
			"type": "function"
		},
		{
			"inputs": [],
			"name": "getPoolsCount",
			"outputs": [
				{
					"internalType": "uint256",
					"name": "",
					"type": "uint256"
				}
			],
			"stateMutability": "view",
			"type": "function"
		},
		{
			"inputs": [
				{
					"internalType": "uint256",
					"name": "pool_id",
					"type": "uint256"
				},
				{
					"internalType": "address",
					"name": "user",
					"type": "address"
				}
			],
			"name": "getUserRewards",
			"outputs": [
				{
					"internalType": "uint256",
					"name": "",
					"type": "uint256"
				}
			],
			"stateMutability": "view",
			"type": "function"
		},
		{
			"inputs": [],
			"name": "owner",
			"outputs": [
				{
					"internalType": "address",
					"name": "",
					"type": "address"
				}
			],
			"stateMutability": "view",
			"type": "function"
		},
		{
			"inputs": [],
			"name": "renounceOwnership",
			"outputs": [],
			"stateMutability": "nonpayable",
			"type": "function"
		},
		{
			"inputs": [
				{
					"internalType": "uint256",
					"name": "pool_id",
					"type": "uint256"
				},
				{
					"internalType": "uint256",
					"name": "stake_amount",
					"type": "uint256"
				}
			],
			"name": "stake",
			"outputs": [],
			"stateMutability": "nonpayable",
			"type": "function"
		},
		{
			"inputs": [
				{
					"internalType": "address",
					"name": "",
					"type": "address"
				},
				{
					"internalType": "uint256",
					"name": "",
					"type": "uint256"
				}
			],
			"name": "stakes",
			"outputs": [
				{
					"internalType": "uint256",
					"name": "stake_amount",
					"type": "uint256"
				},
				{
					"internalType": "uint256",
					"name": "reward_amount",
					"type": "uint256"
				},
				{
					"internalType": "uint256",
					"name": "reward_rate_cumsum",
					"type": "uint256"
				}
			],
			"stateMutability": "view",
			"type": "function"
		},
		{
			"inputs": [
				{
					"internalType": "address",
					"name": "newOwner",
					"type": "address"
				}
			],
			"name": "transferOwnership",
			"outputs": [],
			"stateMutability": "nonpayable",
			"type": "function"
		},
		{
			"inputs": [
				{
					"internalType": "uint256",
					"name": "pool_id",
					"type": "uint256"
				},
				{
					"internalType": "address",
					"name": "to",
					"type": "address"
				},
				{
					"internalType": "uint256",
					"name": "amount",
					"type": "uint256"
				}
			],
			"name": "withdrawRewards",
			"outputs": [],
			"stateMutability": "nonpayable",
			"type": "function"
		},
		{
			"inputs": [
				{
					"internalType": "uint256",
					"name": "pool_id",
					"type": "uint256"
				}
			],
			"name": "withdrawStake",
			"outputs": [],
			"stateMutability": "nonpayable",
			"type": "function"
		}
	]
}