{
	"data": {
		"bytecode": {
			"linkReferences": {},
			"object": "6101006040525f805460ff60a01b1916815560016002556003819055600455348015610029575f5ffd5b506040516119b33803806119b383398101604081905261004891610101565b338061006d57604051631e4fbdf760e01b81525f600482015260240160405180910390fd5b61007681610097565b506001600160a01b0393841660c0529190921660e05260a052608052610141565b5f80546001600160a01b038381166001600160a01b0319831681178455604051919092169283917f8be0079c531659141344cd1fd0a4f28419497f9722a3daafe3b4186f6b6457e09190a35050565b80516001600160a01b03811681146100fc575f5ffd5b919050565b5f5f5f5f60808587031215610114575f5ffd5b61011d856100e6565b935061012b602086016100e6565b6040860151606090960151949790965092505050565b60805160a05160c05160e0516117ba6101f95f395f818161024b015281816102cb015281816105fb01528181610ba901528181610f65015261103101525f81816101e4015281816103750152818161083801528181610b0f01526111d101525f8181610197015281816108ef01528181610cd101528181610d0501528181610da101528181610e250152610eb101525f81816108ce01528181610d3801528181610d7701528181610dfb0152610e8701526117ba5ff3fe608060405234801561000f575f5ffd5b5060043610610184575f3560e01c8063af7568dd116100dd578063ce325bf811610088578063d6ef7af011610063578063d6ef7af014610399578063d93c04a0146103ac578063f2fde38b146103d4575f5ffd5b8063ce325bf814610323578063d2d7231f14610360578063d46149a214610373575f5ffd5b8063b6baffe3116100b8578063b6baffe3146102f5578063bc854352146102fd578063beceed3914610310575f5ffd5b8063af7568dd146102bd578063b109beec146102c6578063b5fa91fe146102ed575f5ffd5b806375f12b211161013d5780638e12c0cd116101185780638e12c0cd1461027f5780638f4729b7146102a1578063ac00500f146102aa575f5ffd5b806375f12b21146102265780637c2fdeb5146102495780638da5cb5b1461026f575f5ffd5b8063379607f51161016d578063379607f5146101cc5780636db08f25146101df578063715018a61461021e575f5ffd5b806307da68f514610188578063109cf39914610192575b5f5ffd5b6101906103e7565b005b6101b97f000000000000000000000000000000000000000000000000000000000000000081565b6040519081526020015b60405180910390f35b6101b96101da36600461157a565b610445565b6102067f000000000000000000000000000000000000000000000000000000000000000081565b6040516001600160a01b0390911681526020016101c3565b610190610681565b5f5461023990600160a01b900460ff1681565b60405190151581526020016101c3565b7f0000000000000000000000000000000000000000000000000000000000000000610206565b5f546001600160a01b0316610206565b61028962ed4e0081565b6040516001600160601b0390911681526020016101c3565b6101b960045481565b6101906102b8366004611591565b610694565b6101b960035481565b6102067f000000000000000000000000000000000000000000000000000000000000000081565b6101b96108b6565b6101b96108cb565b61019061030b3660046115b1565b610925565b61019061031e36600461157a565b610b43565b61033661033136600461157a565b610c0f565b604080516001600160a01b03909516855260208501939093529183015260608201526080016101c3565b6101b961036e36600461157a565b610cb0565b7f0000000000000000000000000000000000000000000000000000000000000000610206565b6101906103a736600461163d565b610f22565b6103bf6103ba366004611665565b61109f565b604080519283526020830191909152016101c3565b6101906103e236600461168c565b611340565b6103ef611396565b5f80547fffffffffffffffffffffff00ffffffffffffffffffffffffffffffffffffffff16600160a01b1781556040517f7acc84e34091ae817647a4c49116f5cc07f319078ba80f8f5fde37ea7e25cbd69190a1565b5f815f81118015610457575060025481105b6104a85760405162461bcd60e51b815260206004820152601960248201527f4d6f64756c65583a496e76616c6964205374616b65204944210000000000000060448201526064015b60405180910390fd5b5f83815260016020526040902080546001600160a01b0316331461050e5760405162461bcd60e51b815260206004820152601f60248201527f4d6f64756c65583a43616c6c6572206973206e6f7420746865206f776e657200604482015260640161049f565b8054600160a01b90046001600160601b0316426001600160601b0316101561059e5760405162461bcd60e51b815260206004820152602a60248201527f4d6f64756c65583a4561726c79205769746864726177616c206973206e6f742060448201527f7065726d69747465642100000000000000000000000000000000000000000000606482015260840161049f565b5f8160020154116105f15760405162461bcd60e51b815260206004820152601860248201527f4d6f64756c65583a4e6f7468696e6720746f20636c61696d0000000000000000604482015260640161049f565b600281015461062a7f00000000000000000000000000000000000000000000000000000000000000006001600160a01b031633836113db565b8060045f82825461063b91906116c0565b90915550505f60028301556040518581527f67bb155fcabb99400c32b640dc7704c8f18aae4c817704c7267c5a8cd26dfc199060200160405180910390a1949350505050565b610689611396565b6106925f61144f565b565b61069c611396565b815f811180156106ad575060025481105b6106f95760405162461bcd60e51b815260206004820152601960248201527f4d6f64756c65583a496e76616c6964205374616b652049442100000000000000604482015260640161049f565b5f821161075a5760405162461bcd60e51b815260206004820152602960248201527f4d6f64756c65583a616d6f756e74206d7573742062652067726561746572207460448201526868616e207a65726f2160b81b606482015260840161049f565b5f8381526001602052604090208054600160a01b90046001600160601b0316426001600160601b031611156107d15760405162461bcd60e51b815260206004820152601560248201527f4d6f64756c65583a4275726e7420746f6b656e73210000000000000000000000604482015260640161049f565b80600101548311156108255760405162461bcd60e51b815260206004820152601d60248201527f4d6f64756c65583a496e73756666696369656e742062616c616e636521000000604482015260640161049f565b61085f3360018301546001600160a01b037f00000000000000000000000000000000000000000000000000000000000000001691906113db565b82816001015f82825461087291906116c0565b909155505060408051858152602081018590527f03a00e6132085cbc9ea18899cd135ef9cad5d305d58506e08e7b1a9b96199a9c910160405180910390a150505050565b5f60016002546108c691906116c0565b905090565b5f7f00000000000000000000000000000000000000000000000000000000000000007f000000000000000000000000000000000000000000000000000000000000000060035461091b91906116d9565b6108c691906116f8565b61092d611396565b5f805b82811015610aba5760025484848381811061094d5761094d61170b565b90506020020135106109a15760405162461bcd60e51b815260206004820152601960248201527f4d6f64756c65583a496e76616c6964205374616b652049442100000000000000604482015260640161049f565b5f60015f8686858181106109b7576109b761170b565b602090810292909201358352508101919091526040015f208054909150600160a01b90046001600160601b0316426001600160601b03161115610a3c5760405162461bcd60e51b815260206004820152601560248201527f4d6f64756c65583a4275726e7420746f6b656e73210000000000000000000000604482015260640161049f565b6001810154610a4b90846116f8565b5f600183015592507f03a00e6132085cbc9ea18899cd135ef9cad5d305d58506e08e7b1a9b96199a9c858584818110610a8657610a8661170b565b905060200201358260010154604051610aa9929190918252602082015260400190565b60405180910390a150600101610930565b505f8111610b0a5760405162461bcd60e51b815260206004820152601a60248201527f4d6f64756c65583a546f74616c20616d6f756e74206973203021000000000000604482015260640161049f565b610b3e7f00000000000000000000000000000000000000000000000000000000000000006001600160a01b031633836113db565b505050565b5f8111610ba45760405162461bcd60e51b815260206004820152602960248201527f4d6f64756c65583a616d6f756e74206d7573742062652067726561746572207460448201526868616e207a65726f2160b81b606482015260840161049f565b610bd97f00000000000000000000000000000000000000000000000000000000000000006001600160a01b03163330846114b6565b6040518181527fde88a922e0d3b88b24e9623efeb464919c6bf9f66857a65e2bfcf2ce87a9433d9060200160405180910390a150565b5f5f5f5f845f81118015610c24575060025481105b610c705760405162461bcd60e51b815260206004820152601960248201527f4d6f64756c65583a496e76616c6964205374616b652049442100000000000000604482015260640161049f565b5050505f92835250506001602081905260409091208054918101546002909101546001600160a01b03831693600160a01b9093046001600160601b031692565b5f5f670de0b6b3a764000090505f83600354610ccc91906116f8565b90505f7f0000000000000000000000000000000000000000000000000000000000000000600354610cfd91906116d9565b90505f610d2a7f0000000000000000000000000000000000000000000000000000000000000000846116d9565b9050808203610d7157610d5d7f0000000000000000000000000000000000000000000000000000000000000000836116f8565b610d6790876116d9565b9695505050505050565b5f610d9c7f0000000000000000000000000000000000000000000000000000000000000000846116f8565b6003547f0000000000000000000000000000000000000000000000000000000000000000610dcb8660016116f8565b610dd5919061171f565b610ddf91906116c0565b610de9908761171f565b610df391906116d9565b90505f610e207f0000000000000000000000000000000000000000000000000000000000000000846116f8565b610e4a7f00000000000000000000000000000000000000000000000000000000000000008561171f565b610e5490876116c0565b610e5e908861171f565b610e6891906116d9565b90505f80610e778660016116f8565b90505b84811015610ef457610eac7f0000000000000000000000000000000000000000000000000000000000000000826116f8565b610ed67f00000000000000000000000000000000000000000000000000000000000000008a61171f565b610ee091906116d9565b610eea90836116f8565b9150600101610e7a565b508682610f0183866116f8565b610f0b91906116f8565b610f1591906116d9565b9998505050505050505050565b610f2a611396565b600454610f3790826116f8565b6040517f70a082310000000000000000000000000000000000000000000000000000000081523060048201527f00000000000000000000000000000000000000000000000000000000000000006001600160a01b0316906370a0823190602401602060405180830381865afa158015610fb2573d5f5f3e3d5ffd5b505050506040513d601f19601f82011682018060405250810190610fd69190611736565b10156110245760405162461bcd60e51b815260206004820152601d60248201527f4d6f64756c65583a496e73756666696369656e742062616c616e636521000000604482015260640161049f565b6110586001600160a01b037f00000000000000000000000000000000000000000000000000000000000000001683836113db565b816001600160a01b03167f1d3eee4ca001cff39eec6ec7615aacf2f2bd61791273830728ba00ccbd6e13378260405161109391815260200190565b60405180910390a25050565b5f80548190600160a01b900460ff16156110fb5760405162461bcd60e51b815260206004820152601060248201527f4d6f64756c65583a53544f505045442100000000000000000000000000000000604482015260640161049f565b5f83116111705760405162461bcd60e51b815260206004820152602c60248201527f4d6f64756c65583a5374616b6520616d6f756e74206d7573742062652067726560448201527f61746572207468616e2030210000000000000000000000000000000000000000606482015260840161049f565b62ed4e006001600160601b03851610156111cc5760405162461bcd60e51b815260206004820152601f60248201527f4d6f64756c65583a557365206c6f6e676572206c6f636b5f706572696f642100604482015260640161049f565b6112017f00000000000000000000000000000000000000000000000000000000000000006001600160a01b03163330866114b6565b5f61120c854261174d565b90505f61121885610cb0565b90505f600254905060405180608001604052806112323390565b6001600160a01b0390811682526001600160601b0386811660208085019190915260408085018c905260609485018890525f878152600180845282822088519489015194909616600160a01b9490951693909302939093178455850151908301559290910151600290910155600380548892906112b09084906116f8565b925050819055508160045f8282546112c891906116f8565b9091555050604080518281526001600160601b038516602082015280820188905260608101849052905133917f24fe2d25c10eb2c67b5ac1e3edbcadc94191e154ed388ad667a9480c44f47146919081900360800190a260028054905f61132e8361176c565b90915550909791965090945050505050565b611348611396565b6001600160a01b03811661138a576040517f1e4fbdf70000000000000000000000000000000000000000000000000000000081525f600482015260240161049f565b6113938161144f565b50565b5f546001600160a01b03163314610692576040517f118cdaa700000000000000000000000000000000000000000000000000000000815233600482015260240161049f565b6040516001600160a01b03838116602483015260448201839052610b3e91859182169063a9059cbb906064015b604051602081830303815290604052915060e01b6020820180517bffffffffffffffffffffffffffffffffffffffffffffffffffffffff83818316178352505050506114f5565b5f80546001600160a01b038381167fffffffffffffffffffffffff0000000000000000000000000000000000000000831681178455604051919092169283917f8be0079c531659141344cd1fd0a4f28419497f9722a3daafe3b4186f6b6457e09190a35050565b6040516001600160a01b0384811660248301528381166044830152606482018390526114ef9186918216906323b872dd90608401611408565b50505050565b5f5f60205f8451602086015f885af180611514576040513d5f823e3d81fd5b50505f513d9150811561152b578060011415611538565b6001600160a01b0384163b155b156114ef576040517f5274afe70000000000000000000000000000000000000000000000000000000081526001600160a01b038516600482015260240161049f565b5f6020828403121561158a575f5ffd5b5035919050565b5f5f604083850312156115a2575f5ffd5b50508035926020909101359150565b5f5f602083850312156115c2575f5ffd5b823567ffffffffffffffff8111156115d8575f5ffd5b8301601f810185136115e8575f5ffd5b803567ffffffffffffffff8111156115fe575f5ffd5b8560208260051b8401011115611612575f5ffd5b6020919091019590945092505050565b80356001600160a01b0381168114611638575f5ffd5b919050565b5f5f6040838503121561164e575f5ffd5b61165783611622565b946020939093013593505050565b5f5f60408385031215611676575f5ffd5b82356001600160601b0381168114611657575f5ffd5b5f6020828403121561169c575f5ffd5b6116a582611622565b9392505050565b634e487b7160e01b5f52601160045260245ffd5b818103818111156116d3576116d36116ac565b92915050565b5f826116f357634e487b7160e01b5f52601260045260245ffd5b500490565b808201808211156116d3576116d36116ac565b634e487b7160e01b5f52603260045260245ffd5b80820281158282048414176116d3576116d36116ac565b5f60208284031215611746575f5ffd5b5051919050565b6001600160601b0381811683821601908111156116d3576116d36116ac565b5f6001820161177d5761177d6116ac565b506001019056fea264697066735822122091bc69a6575ed327f6f7caba51903e66c7cb77b90249b3315e8c5fa69a83164764736f6c634300081e0033",
			"opcodes": "PUSH2 0x100 PUSH1 0x40 MSTORE PUSH0 DUP1 SLOAD PUSH1 0xFF PUSH1 0xA0 SHL NOT AND DUP2 SSTORE PUSH1 0x1 PUSH1 0x2 SSTORE PUSH1 0x3 DUP2 SWAP1 SSTORE PUSH1 0x4 SSTORE CALLVALUE DUP1 ISZERO PUSH2 0x29 JUMPI PUSH0 PUSH0 REVERT JUMPDEST POP PUSH1 0x40 MLOAD PUSH2 0x19B3 CODESIZE SUB DUP1 PUSH2 0x19B3 DUP4 CODECOPY DUP2 ADD PUSH1 0x40 DUP2 SWAP1 MSTORE PUSH2 0x48 SWAP2 PUSH2 0x101 JUMP JUMPDEST CALLER DUP1 PUSH2 0x6D JUMPI PUSH1 0x40 MLOAD PUSH4 0x1E4FBDF7 PUSH1 0xE0 SHL DUP2 MSTORE PUSH0 PUSH1 0x4 DUP3 ADD MSTORE PUSH1 0x24 ADD PUSH1 0x40 MLOAD DUP1 SWAP2 SUB SWAP1 REVERT JUMPDEST PUSH2 0x76 DUP2 PUSH2 0x97 JUMP JUMPDEST POP PUSH1 0x1 PUSH1 0x1 PUSH1 0xA0 SHL SUB SWAP4 DUP5 AND PUSH1 0xC0 MSTORE SWAP2 SWAP1 SWAP3 AND PUSH1 0xE0 MSTORE PUSH1 0xA0 MSTORE PUSH1 0x80 MSTORE PUSH2 0x141 JUMP JUMPDEST PUSH0 DUP1 SLOAD PUSH1 0x1 PUSH1 0x1 PUSH1 0xA0 SHL SUB DUP4 DUP2 AND PUSH1 0x1 PUSH1 0x1 PUSH1 0xA0 SHL SUB NOT DUP4 AND DUP2 OR DUP5 SSTORE PUSH1 0x40 MLOAD SWAP2 SWAP1 SWAP3 AND SWAP3 DUP4 SWAP2 PUSH32 0x8BE0079C531659141344CD1FD0A4F28419497F9722A3DAAFE3B4186F6B6457E0 SWAP2 SWAP1 LOG3 POP POP JUMP JUMPDEST DUP1 MLOAD PUSH1 0x1 PUSH1 0x1 PUSH1 0xA0 SHL SUB DUP2 AND DUP2 EQ PUSH2 0xFC JUMPI PUSH0 PUSH0 REVERT JUMPDEST SWAP2 SWAP1 POP JUMP JUMPDEST PUSH0 PUSH0 PUSH0 PUSH0 PUSH1 0x80 DUP6 DUP8 SUB SLT ISZERO PUSH2 0x114 JUMPI PUSH0 PUSH0 REVERT JUMPDEST PUSH2 0x11D DUP6 PUSH2 0xE6 JUMP JUMPDEST SWAP4 POP PUSH2 0x12B PUSH1 0x20 DUP7 ADD PUSH2 0xE6 JUMP JUMPDEST PUSH1 0x40 DUP7 ADD MLOAD PUSH1 0x60 SWAP1 SWAP7 ADD MLOAD SWAP5 SWAP8 SWAP1 SWAP7 POP SWAP3 POP POP POP JUMP JUMPDEST PUSH1 0x80 MLOAD PUSH1 0xA0 MLOAD PUSH1 0xC0 MLOAD PUSH1 0xE0 MLOAD PUSH2 0x17BA PUSH2 0x1F9 PUSH0 CODECOPY PUSH0 DUP2 DUP2 PUSH2 0x24B ADD MSTORE DUP2 DUP2 PUSH2 0x2CB ADD MSTORE DUP2 DUP2 PUSH2 0x5FB ADD MSTORE DUP2 DUP2 PUSH2 0xBA9 ADD MSTORE DUP2 DUP2 PUSH2 0xF65 ADD MSTORE PUSH2 0x1031 ADD MSTORE PUSH0 DUP2 DUP2 PUSH2 0x1E4 ADD MSTORE DUP2 DUP2 PUSH2 0x375 ADD MSTORE DUP2 DUP2 PUSH2 0x838 ADD MSTORE DUP2 DUP2 PUSH2 0xB0F ADD MSTORE PUSH2 0x11D1 ADD MSTORE PUSH0 DUP2 DUP2 PUSH2 0x197 ADD MSTORE DUP2 DUP2 PUSH2 0x8EF ADD MSTORE DUP2 DUP2 PUSH2 0xCD1 ADD MSTORE DUP2 DUP2 PUSH2 0xD05 ADD MSTORE DUP2 DUP2 PUSH2 0xDA1 ADD MSTORE DUP2 DUP2 PUSH2 0xE25 ADD MSTORE PUSH2 0xEB1 ADD MSTORE PUSH0 DUP2 DUP2 PUSH2 0x8CE ADD MSTORE DUP2 DUP2 PUSH2 0xD38 ADD MSTORE DUP2 DUP2 PUSH2 0xD77 ADD MSTORE DUP2 DUP2 PUSH2 0xDFB ADD MSTORE PUSH2 0xE87 ADD MSTORE PUSH2 0x17BA PUSH0 RETURN INVALID PUSH1 0x80 PUSH1 0x40 MSTORE CALLVALUE DUP1 ISZERO PUSH2 0xF JUMPI PUSH0 PUSH0 REVERT JUMPDEST POP PUSH1 0x4 CALLDATASIZE LT PUSH2 0x184 JUMPI PUSH0 CALLDATALOAD PUSH1 0xE0 SHR DUP1 PUSH4 0xAF7568DD GT PUSH2 0xDD JUMPI DUP1 PUSH4 0xCE325BF8 GT PUSH2 0x88 JUMPI DUP1 PUSH4 0xD6EF7AF0 GT PUSH2 0x63 JUMPI DUP1 PUSH4 0xD6EF7AF0 EQ PUSH2 0x399 JUMPI DUP1 PUSH4 0xD93C04A0 EQ PUSH2 0x3AC JUMPI DUP1 PUSH4 0xF2FDE38B EQ PUSH2 0x3D4 JUMPI PUSH0 PUSH0 REVERT JUMPDEST DUP1 PUSH4 0xCE325BF8 EQ PUSH2 0x323 JUMPI DUP1 PUSH4 0xD2D7231F EQ PUSH2 0x360 JUMPI DUP1 PUSH4 0xD46149A2 EQ PUSH2 0x373 JUMPI PUSH0 PUSH0 REVERT JUMPDEST DUP1 PUSH4 0xB6BAFFE3 GT PUSH2 0xB8 JUMPI DUP1 PUSH4 0xB6BAFFE3 EQ PUSH2 0x2F5 JUMPI DUP1 PUSH4 0xBC854352 EQ PUSH2 0x2FD JUMPI DUP1 PUSH4 0xBECEED39 EQ PUSH2 0x310 JUMPI PUSH0 PUSH0 REVERT JUMPDEST DUP1 PUSH4 0xAF7568DD EQ PUSH2 0x2BD JUMPI DUP1 PUSH4 0xB109BEEC EQ PUSH2 0x2C6 JUMPI DUP1 PUSH4 0xB5FA91FE EQ PUSH2 0x2ED JUMPI PUSH0 PUSH0 REVERT JUMPDEST DUP1 PUSH4 0x75F12B21 GT PUSH2 0x13D JUMPI DUP1 PUSH4 0x8E12C0CD GT PUSH2 0x118 JUMPI DUP1 PUSH4 0x8E12C0CD EQ PUSH2 0x27F JUMPI DUP1 PUSH4 0x8F4729B7 EQ PUSH2 0x2A1 JUMPI DUP1 PUSH4 0xAC00500F EQ PUSH2 0x2AA JUMPI PUSH0 PUSH0 REVERT JUMPDEST DUP1 PUSH4 0x75F12B21 EQ PUSH2 0x226 JUMPI DUP1 PUSH4 0x7C2FDEB5 EQ PUSH2 0x249 JUMPI DUP1 PUSH4 0x8DA5CB5B EQ PUSH2 0x26F JUMPI PUSH0 PUSH0 REVERT JUMPDEST DUP1 PUSH4 0x379607F5 GT PUSH2 0x16D JUMPI DUP1 PUSH4 0x379607F5 EQ PUSH2 0x1CC JUMPI DUP1 PUSH4 0x6DB08F25 EQ PUSH2 0x1DF JUMPI DUP1 PUSH4 0x715018A6 EQ PUSH2 0x21E JUMPI PUSH0 PUSH0 REVERT JUMPDEST DUP1 PUSH4 0x7DA68F5 EQ PUSH2 0x188 JUMPI DUP1 PUSH4 0x109CF399 EQ PUSH2 0x192 JUMPI JUMPDEST PUSH0 PUSH0 REVERT JUMPDEST PUSH2 0x190 PUSH2 0x3E7 JUMP JUMPDEST STOP JUMPDEST PUSH2 0x1B9 PUSH32 0x0 DUP2 JUMP JUMPDEST PUSH1 0x40 MLOAD SWAP1 DUP2 MSTORE PUSH1 0x20 ADD JUMPDEST PUSH1 0x40 MLOAD DUP1 SWAP2 SUB SWAP1 RETURN JUMPDEST PUSH2 0x1B9 PUSH2 0x1DA CALLDATASIZE PUSH1 0x4 PUSH2 0x157A JUMP JUMPDEST PUSH2 0x445 JUMP JUMPDEST PUSH2 0x206 PUSH32 0x0 DUP2 JUMP JUMPDEST PUSH1 0x40 MLOAD PUSH1 0x1 PUSH1 0x1 PUSH1 0xA0 SHL SUB SWAP1 SWAP2 AND DUP2 MSTORE PUSH1 0x20 ADD PUSH2 0x1C3 JUMP JUMPDEST PUSH2 0x190 PUSH2 0x681 JUMP JUMPDEST PUSH0 SLOAD PUSH2 0x239 SWAP1 PUSH1 0x1 PUSH1 0xA0 SHL SWAP1 DIV PUSH1 0xFF AND DUP2 JUMP JUMPDEST PUSH1 0x40 MLOAD SWAP1 ISZERO ISZERO DUP2 MSTORE PUSH1 0x20 ADD PUSH2 0x1C3 JUMP JUMPDEST PUSH32 0x0 PUSH2 0x206 JUMP JUMPDEST PUSH0 SLOAD PUSH1 0x1 PUSH1 0x1 PUSH1 0xA0 SHL SUB AND PUSH2 0x206 JUMP JUMPDEST PUSH2 0x289 PUSH3 0xED4E00 DUP2 JUMP JUMPDEST PUSH1 0x40 MLOAD PUSH1 0x1 PUSH1 0x1 PUSH1 0x60 SHL SUB SWAP1 SWAP2 AND DUP2 MSTORE PUSH1 0x20 ADD PUSH2 0x1C3 JUMP JUMPDEST PUSH2 0x1B9 PUSH1 0x4 SLOAD DUP2 JUMP JUMPDEST PUSH2 0x190 PUSH2 0x2B8 CALLDATASIZE PUSH1 0x4 PUSH2 0x1591 JUMP JUMPDEST PUSH2 0x694 JUMP JUMPDEST PUSH2 0x1B9 PUSH1 0x3 SLOAD DUP2 JUMP JUMPDEST PUSH2 0x206 PUSH32 0x0 DUP2 JUMP JUMPDEST PUSH2 0x1B9 PUSH2 0x8B6 JUMP JUMPDEST PUSH2 0x1B9 PUSH2 0x8CB JUMP JUMPDEST PUSH2 0x190 PUSH2 0x30B CALLDATASIZE PUSH1 0x4 PUSH2 0x15B1 JUMP JUMPDEST PUSH2 0x925 JUMP JUMPDEST PUSH2 0x190 PUSH2 0x31E CALLDATASIZE PUSH1 0x4 PUSH2 0x157A JUMP JUMPDEST PUSH2 0xB43 JUMP JUMPDEST PUSH2 0x336 PUSH2 0x331 CALLDATASIZE PUSH1 0x4 PUSH2 0x157A JUMP JUMPDEST PUSH2 0xC0F JUMP JUMPDEST PUSH1 0x40 DUP1 MLOAD PUSH1 0x1 PUSH1 0x1 PUSH1 0xA0 SHL SUB SWAP1 SWAP6 AND DUP6 MSTORE PUSH1 0x20 DUP6 ADD SWAP4 SWAP1 SWAP4 MSTORE SWAP2 DUP4 ADD MSTORE PUSH1 0x60 DUP3 ADD MSTORE PUSH1 0x80 ADD PUSH2 0x1C3 JUMP JUMPDEST PUSH2 0x1B9 PUSH2 0x36E CALLDATASIZE PUSH1 0x4 PUSH2 0x157A JUMP JUMPDEST PUSH2 0xCB0 JUMP JUMPDEST PUSH32 0x0 PUSH2 0x206 JUMP JUMPDEST PUSH2 0x190 PUSH2 0x3A7 CALLDATASIZE PUSH1 0x4 PUSH2 0x163D JUMP JUMPDEST PUSH2 0xF22 JUMP JUMPDEST PUSH2 0x3BF PUSH2 0x3BA CALLDATASIZE PUSH1 0x4 PUSH2 0x1665 JUMP JUMPDEST PUSH2 0x109F JUMP JUMPDEST PUSH1 0x40 DUP1 MLOAD SWAP3 DUP4 MSTORE PUSH1 0x20 DUP4 ADD SWAP2 SWAP1 SWAP2 MSTORE ADD PUSH2 0x1C3 JUMP JUMPDEST PUSH2 0x190 PUSH2 0x3E2 CALLDATASIZE PUSH1 0x4 PUSH2 0x168C JUMP JUMPDEST PUSH2 0x1340 JUMP JUMPDEST PUSH2 0x3EF PUSH2 0x1396 JUMP JUMPDEST PUSH0 DUP1 SLOAD PUSH32 0xFFFFFFFFFFFFFFFFFFFFFF00FFFFFFFFFFFFFFFFFFFFFFFFFFFFFFFFFFFFFFFF AND PUSH1 0x1 PUSH1 0xA0 SHL OR DUP2 SSTORE PUSH1 0x40 MLOAD PUSH32 0x7ACC84E34091AE817647A4C49116F5CC07F319078BA80F8F5FDE37EA7E25CBD6 SWAP2 SWAP1 LOG1 JUMP JUMPDEST PUSH0 DUP2 PUSH0 DUP2 GT DUP1 ISZERO PUSH2 0x457 JUMPI POP PUSH1 0x2 SLOAD DUP2 LT JUMPDEST PUSH2 0x4A8 JUMPI PUSH1 0x40 MLOAD PUSH3 0x461BCD PUSH1 0xE5 SHL DUP2 MSTORE PUSH1 0x20 PUSH1 0x4 DUP3 ADD MSTORE PUSH1 0x19 PUSH1 0x24 DUP3 ADD MSTORE PUSH32 0x4D6F64756C65583A496E76616C6964205374616B652049442100000000000000 PUSH1 0x44 DUP3 ADD MSTORE PUSH1 0x64 ADD JUMPDEST PUSH1 0x40 MLOAD DUP1 SWAP2 SUB SWAP1 REVERT JUMPDEST PUSH0 DUP4 DUP2 MSTORE PUSH1 0x1 PUSH1 0x20 MSTORE PUSH1 0x40 SWAP1 KECCAK256 DUP1 SLOAD PUSH1 0x1 PUSH1 0x1 PUSH1 0xA0 SHL SUB AND CALLER EQ PUSH2 0x50E JUMPI PUSH1 0x40 MLOAD PUSH3 0x461BCD PUSH1 0xE5 SHL DUP2 MSTORE PUSH1 0x20 PUSH1 0x4 DUP3 ADD MSTORE PUSH1 0x1F PUSH1 0x24 DUP3 ADD MSTORE PUSH32 0x4D6F64756C65583A43616C6C6572206973206E6F7420746865206F776E657200 PUSH1 0x44 DUP3 ADD MSTORE PUSH1 0x64 ADD PUSH2 0x49F JUMP JUMPDEST DUP1 SLOAD PUSH1 0x1 PUSH1 0xA0 SHL SWAP1 DIV PUSH1 0x1 PUSH1 0x1 PUSH1 0x60 SHL SUB AND TIMESTAMP PUSH1 0x1 PUSH1 0x1 PUSH1 0x60 SHL SUB AND LT ISZERO PUSH2 0x59E JUMPI PUSH1 0x40 MLOAD PUSH3 0x461BCD PUSH1 0xE5 SHL DUP2 MSTORE PUSH1 0x20 PUSH1 0x4 DUP3 ADD MSTORE PUSH1 0x2A PUSH1 0x24 DUP3 ADD MSTORE PUSH32 0x4D6F64756C65583A4561726C79205769746864726177616C206973206E6F7420 PUSH1 0x44 DUP3 ADD MSTORE PUSH32 0x7065726D69747465642100000000000000000000000000000000000000000000 PUSH1 0x64 DUP3 ADD MSTORE PUSH1 0x84 ADD PUSH2 0x49F JUMP JUMPDEST PUSH0 DUP2 PUSH1 0x2 ADD SLOAD GT PUSH2 0x5F1 JUMPI PUSH1 0x40 MLOAD PUSH3 0x461BCD PUSH1 0xE5 SHL DUP2 MSTORE PUSH1 0x20 PUSH1 0x4 DUP3 ADD MSTORE PUSH1 0x18 PUSH1 0x24 DUP3 ADD MSTORE PUSH32 0x4D6F64756C65583A4E6F7468696E6720746F20636C61696D0000000000000000 PUSH1 0x44 DUP3 ADD MSTORE PUSH1 0x64 ADD PUSH2 0x49F JUMP JUMPDEST PUSH1 0x2 DUP2 ADD SLOAD PUSH2 0x62A PUSH32 0x0 PUSH1 0x1 PUSH1 0x1 PUSH1 0xA0 SHL SUB AND CALLER DUP4 PUSH2 0x13DB JUMP JUMPDEST DUP1 PUSH1 0x4 PUSH0 DUP3 DUP3 SLOAD PUSH2 0x63B SWAP2 SWAP1 PUSH2 0x16C0 JUMP JUMPDEST SWAP1 SWAP2 SSTORE POP POP PUSH0 PUSH1 0x2 DUP4 ADD SSTORE PUSH1 0x40 MLOAD DUP6 DUP2 MSTORE PUSH32 0x67BB155FCABB99400C32B640DC7704C8F18AAE4C817704C7267C5A8CD26DFC19 SWAP1 PUSH1 0x20 ADD PUSH1 0x40 MLOAD DUP1 SWAP2 SUB SWAP1 LOG1 SWAP5 SWAP4 POP POP POP POP JUMP JUMPDEST PUSH2 0x689 PUSH2 0x1396 JUMP JUMPDEST PUSH2 0x692 PUSH0 PUSH2 0x144F JUMP JUMPDEST JUMP JUMPDEST PUSH2 0x69C PUSH2 0x1396 JUMP JUMPDEST DUP2 PUSH0 DUP2 GT DUP1 ISZERO PUSH2 0x6AD JUMPI POP PUSH1 0x2 SLOAD DUP2 LT JUMPDEST PUSH2 0x6F9 JUMPI PUSH1 0x40 MLOAD PUSH3 0x461BCD PUSH1 0xE5 SHL DUP2 MSTORE PUSH1 0x20 PUSH1 0x4 DUP3 ADD MSTORE PUSH1 0x19 PUSH1 0x24 DUP3 ADD MSTORE PUSH32 0x4D6F64756C65583A496E76616C6964205374616B652049442100000000000000 PUSH1 0x44 DUP3 ADD MSTORE PUSH1 0x64 ADD PUSH2 0x49F JUMP JUMPDEST PUSH0 DUP3 GT PUSH2 0x75A JUMPI PUSH1 0x40 MLOAD PUSH3 0x461BCD PUSH1 0xE5 SHL DUP2 MSTORE PUSH1 0x20 PUSH1 0x4 DUP3 ADD MSTORE PUSH1 0x29 PUSH1 0x24 DUP3 ADD MSTORE PUSH32 0x4D6F64756C65583A616D6F756E74206D75737420626520677265617465722074 PUSH1 0x44 DUP3 ADD MSTORE PUSH9 0x68616E207A65726F21 PUSH1 0xB8 SHL PUSH1 0x64 DUP3 ADD MSTORE PUSH1 0x84 ADD PUSH2 0x49F JUMP JUMPDEST PUSH0 DUP4 DUP2 MSTORE PUSH1 0x1 PUSH1 0x20 MSTORE PUSH1 0x40 SWAP1 KECCAK256 DUP1 SLOAD PUSH1 0x1 PUSH1 0xA0 SHL SWAP1 DIV PUSH1 0x1 PUSH1 0x1 PUSH1 0x60 SHL SUB AND TIMESTAMP PUSH1 0x1 PUSH1 0x1 PUSH1 0x60 SHL SUB AND GT ISZERO PUSH2 0x7D1 JUMPI PUSH1 0x40 MLOAD PUSH3 0x461BCD PUSH1 0xE5 SHL DUP2 MSTORE PUSH1 0x20 PUSH1 0x4 DUP3 ADD MSTORE PUSH1 0x15 PUSH1 0x24 DUP3 ADD MSTORE PUSH32 0x4D6F64756C65583A4275726E7420746F6B656E73210000000000000000000000 PUSH1 0x44 DUP3 ADD MSTORE PUSH1 0x64 ADD PUSH2 0x49F JUMP JUMPDEST DUP1 PUSH1 0x1 ADD SLOAD DUP4 GT ISZERO PUSH2 0x825 JUMPI PUSH1 0x40 MLOAD PUSH3 0x461BCD PUSH1 0xE5 SHL DUP2 MSTORE PUSH1 0x20 PUSH1 0x4 DUP3 ADD MSTORE PUSH1 0x1D PUSH1 0x24 DUP3 ADD MSTORE PUSH32 0x4D6F64756C65583A496E73756666696369656E742062616C616E636521000000 PUSH1 0x44 DUP3 ADD MSTORE PUSH1 0x64 ADD PUSH2 0x49F JUMP JUMPDEST PUSH2 0x85F CALLER PUSH1 0x1 DUP4 ADD SLOAD PUSH1 0x1 PUSH1 0x1 PUSH1 0xA0 SHL SUB PUSH32 0x0 AND SWAP2 SWAP1 PUSH2 0x13DB JUMP JUMPDEST DUP3 DUP2 PUSH1 0x1 ADD PUSH0 DUP3 DUP3 SLOAD PUSH2 0x872 SWAP2 SWAP1 PUSH2 0x16C0 JUMP JUMPDEST SWAP1 SWAP2 SSTORE POP POP PUSH1 0x40 DUP1 MLOAD DUP6 DUP2 MSTORE PUSH1 0x20 DUP2 ADD DUP6 SWAP1 MSTORE PUSH32 0x3A00E6132085CBC9EA18899CD135EF9CAD5D305D58506E08E7B1A9B96199A9C SWAP2 ADD PUSH1 0x40 MLOAD DUP1 SWAP2 SUB SWAP1 LOG1 POP POP POP POP JUMP JUMPDEST PUSH0 PUSH1 0x1 PUSH1 0x2 SLOAD PUSH2 0x8C6 SWAP2 SWAP1 PUSH2 0x16C0 JUMP JUMPDEST SWAP1 POP SWAP1 JUMP JUMPDEST PUSH0 PUSH32 0x0 PUSH32 0x0 PUSH1 0x3 SLOAD PUSH2 0x91B SWAP2 SWAP1 PUSH2 0x16D9 JUMP JUMPDEST PUSH2 0x8C6 SWAP2 SWAP1 PUSH2 0x16F8 JUMP JUMPDEST PUSH2 0x92D PUSH2 0x1396 JUMP JUMPDEST PUSH0 DUP1 JUMPDEST DUP3 DUP2 LT ISZERO PUSH2 0xABA JUMPI PUSH1 0x2 SLOAD DUP5 DUP5 DUP4 DUP2 DUP2 LT PUSH2 0x94D JUMPI PUSH2 0x94D PUSH2 0x170B JUMP JUMPDEST SWAP1 POP PUSH1 0x20 MUL ADD CALLDATALOAD LT PUSH2 0x9A1 JUMPI PUSH1 0x40 MLOAD PUSH3 0x461BCD PUSH1 0xE5 SHL DUP2 MSTORE PUSH1 0x20 PUSH1 0x4 DUP3 ADD MSTORE PUSH1 0x19 PUSH1 0x24 DUP3 ADD MSTORE PUSH32 0x4D6F64756C65583A496E76616C6964205374616B652049442100000000000000 PUSH1 0x44 DUP3 ADD MSTORE PUSH1 0x64 ADD PUSH2 0x49F JUMP JUMPDEST PUSH0 PUSH1 0x1 PUSH0 DUP7 DUP7 DUP6 DUP2 DUP2 LT PUSH2 0x9B7 JUMPI PUSH2 0x9B7 PUSH2 0x170B JUMP JUMPDEST PUSH1 0x20 SWAP1 DUP2 MUL SWAP3 SWAP1 SWAP3 ADD CALLDATALOAD DUP4 MSTORE POP DUP2 ADD SWAP2 SWAP1 SWAP2 MSTORE PUSH1 0x40 ADD PUSH0 KECCAK256 DUP1 SLOAD SWAP1 SWAP2 POP PUSH1 0x1 PUSH1 0xA0 SHL SWAP1 DIV PUSH1 0x1 PUSH1 0x1 PUSH1 0x60 SHL SUB AND TIMESTAMP PUSH1 0x1 PUSH1 0x1 PUSH1 0x60 SHL SUB AND GT ISZERO PUSH2 0xA3C JUMPI PUSH1 0x40 MLOAD PUSH3 0x461BCD PUSH1 0xE5 SHL DUP2 MSTORE PUSH1 0x20 PUSH1 0x4 DUP3 ADD MSTORE PUSH1 0x15 PUSH1 0x24 DUP3 ADD MSTORE PUSH32 0x4D6F64756C65583A4275726E7420746F6B656E73210000000000000000000000 PUSH1 0x44 DUP3 ADD MSTORE PUSH1 0x64 ADD PUSH2 0x49F JUMP JUMPDEST PUSH1 0x1 DUP2 ADD SLOAD PUSH2 0xA4B SWAP1 DUP5 PUSH2 0x16F8 JUMP JUMPDEST PUSH0 PUSH1 0x1 DUP4 ADD SSTORE SWAP3 POP PUSH32 0x3A00E6132085CBC9EA18899CD135EF9CAD5D305D58506E08E7B1A9B96199A9C DUP6 DUP6 DUP5 DUP2 DUP2 LT PUSH2 0xA86 JUMPI PUSH2 0xA86 PUSH2 0x170B JUMP JUMPDEST SWAP1 POP PUSH1 0x20 MUL ADD CALLDATALOAD DUP3 PUSH1 0x1 ADD SLOAD PUSH1 0x40 MLOAD PUSH2 0xAA9 SWAP3 SWAP2 SWAP1 SWAP2 DUP3 MSTORE PUSH1 0x20 DUP3 ADD MSTORE PUSH1 0x40 ADD SWAP1 JUMP JUMPDEST PUSH1 0x40 MLOAD DUP1 SWAP2 SUB SWAP1 LOG1 POP PUSH1 0x1 ADD PUSH2 0x930 JUMP JUMPDEST POP PUSH0 DUP2 GT PUSH2 0xB0A JUMPI PUSH1 0x40 MLOAD PUSH3 0x461BCD PUSH1 0xE5 SHL DUP2 MSTORE PUSH1 0x20 PUSH1 0x4 DUP3 ADD MSTORE PUSH1 0x1A PUSH1 0x24 DUP3 ADD MSTORE PUSH32 0x4D6F64756C65583A546F74616C20616D6F756E74206973203021000000000000 PUSH1 0x44 DUP3 ADD MSTORE PUSH1 0x64 ADD PUSH2 0x49F JUMP JUMPDEST PUSH2 0xB3E PUSH32 0x0 PUSH1 0x1 PUSH1 0x1 PUSH1 0xA0 SHL SUB AND CALLER DUP4 PUSH2 0x13DB JUMP JUMPDEST POP POP POP JUMP JUMPDEST PUSH0 DUP2 GT PUSH2 0xBA4 JUMPI PUSH1 0x40 MLOAD PUSH3 0x461BCD PUSH1 0xE5 SHL DUP2 MSTORE PUSH1 0x20 PUSH1 0x4 DUP3 ADD MSTORE PUSH1 0x29 PUSH1 0x24 DUP3 ADD MSTORE PUSH32 0x4D6F64756C65583A616D6F756E74206D75737420626520677265617465722074 PUSH1 0x44 DUP3 ADD MSTORE PUSH9 0x68616E207A65726F21 PUSH1 0xB8 SHL PUSH1 0x64 DUP3 ADD MSTORE PUSH1 0x84 ADD PUSH2 0x49F JUMP JUMPDEST PUSH2 0xBD9 PUSH32 0x0 PUSH1 0x1 PUSH1 0x1 PUSH1 0xA0 SHL SUB AND CALLER ADDRESS DUP5 PUSH2 0x14B6 JUMP JUMPDEST PUSH1 0x40 MLOAD DUP2 DUP2 MSTORE PUSH32 0xDE88A922E0D3B88B24E9623EFEB464919C6BF9F66857A65E2BFCF2CE87A9433D SWAP1 PUSH1 0x20 ADD PUSH1 0x40 MLOAD DUP1 SWAP2 SUB SWAP1 LOG1 POP JUMP JUMPDEST PUSH0 PUSH0 PUSH0 PUSH0 DUP5 PUSH0 DUP2 GT DUP1 ISZERO PUSH2 0xC24 JUMPI POP PUSH1 0x2 SLOAD DUP2 LT JUMPDEST PUSH2 0xC70 JUMPI PUSH1 0x40 MLOAD PUSH3 0x461BCD PUSH1 0xE5 SHL DUP2 MSTORE PUSH1 0x20 PUSH1 0x4 DUP3 ADD MSTORE PUSH1 0x19 PUSH1 0x24 DUP3 ADD MSTORE PUSH32 0x4D6F64756C65583A496E76616C6964205374616B652049442100000000000000 PUSH1 0x44 DUP3 ADD MSTORE PUSH1 0x64 ADD PUSH2 0x49F JUMP JUMPDEST POP POP POP PUSH0 SWAP3 DUP4 MSTORE POP POP PUSH1 0x1 PUSH1 0x20 DUP2 SWAP1 MSTORE PUSH1 0x40 SWAP1 SWAP2 KECCAK256 DUP1 SLOAD SWAP2 DUP2 ADD SLOAD PUSH1 0x2 SWAP1 SWAP2 ADD SLOAD PUSH1 0x1 PUSH1 0x1 PUSH1 0xA0 SHL SUB DUP4 AND SWAP4 PUSH1 0x1 PUSH1 0xA0 SHL SWAP1 SWAP4 DIV PUSH1 0x1 PUSH1 0x1 PUSH1 0x60 SHL SUB AND SWAP3 JUMP JUMPDEST PUSH0 PUSH0 PUSH8 0xDE0B6B3A7640000 SWAP1 POP PUSH0 DUP4 PUSH1 0x3 SLOAD PUSH2 0xCCC SWAP2 SWAP1 PUSH2 0x16F8 JUMP JUMPDEST SWAP1 POP PUSH0 PUSH32 0x0 PUSH1 0x3 SLOAD PUSH2 0xCFD SWAP2 SWAP1 PUSH2 0x16D9 JUMP JUMPDEST SWAP1 POP PUSH0 PUSH2 0xD2A PUSH32 0x0 DUP5 PUSH2 0x16D9 JUMP JUMPDEST SWAP1 POP DUP1 DUP3 SUB PUSH2 0xD71 JUMPI PUSH2 0xD5D PUSH32 0x0 DUP4 PUSH2 0x16F8 JUMP JUMPDEST PUSH2 0xD67 SWAP1 DUP8 PUSH2 0x16D9 JUMP JUMPDEST SWAP7 SWAP6 POP POP POP POP POP POP JUMP JUMPDEST PUSH0 PUSH2 0xD9C PUSH32 0x0 DUP5 PUSH2 0x16F8 JUMP JUMPDEST PUSH1 0x3 SLOAD PUSH32 0x0 PUSH2 0xDCB DUP7 PUSH1 0x1 PUSH2 0x16F8 JUMP JUMPDEST PUSH2 0xDD5 SWAP2 SWAP1 PUSH2 0x171F JUMP JUMPDEST PUSH2 0xDDF SWAP2 SWAP1 PUSH2 0x16C0 JUMP JUMPDEST PUSH2 0xDE9 SWAP1 DUP8 PUSH2 0x171F JUMP JUMPDEST PUSH2 0xDF3 SWAP2 SWAP1 PUSH2 0x16D9 JUMP JUMPDEST SWAP1 POP PUSH0 PUSH2 0xE20 PUSH32 0x0 DUP5 PUSH2 0x16F8 JUMP JUMPDEST PUSH2 0xE4A PUSH32 0x0 DUP6 PUSH2 0x171F JUMP JUMPDEST PUSH2 0xE54 SWAP1 DUP8 PUSH2 0x16C0 JUMP JUMPDEST PUSH2 0xE5E SWAP1 DUP9 PUSH2 0x171F JUMP JUMPDEST PUSH2 0xE68 SWAP2 SWAP1 PUSH2 0x16D9 JUMP JUMPDEST SWAP1 POP PUSH0 DUP1 PUSH2 0xE77 DUP7 PUSH1 0x1 PUSH2 0x16F8 JUMP JUMPDEST SWAP1 POP JUMPDEST DUP5 DUP2 LT ISZERO PUSH2 0xEF4 JUMPI PUSH2 0xEAC PUSH32 0x0 DUP3 PUSH2 0x16F8 JUMP JUMPDEST PUSH2 0xED6 PUSH32 0x0 DUP11 PUSH2 0x171F JUMP JUMPDEST PUSH2 0xEE0 SWAP2 SWAP1 PUSH2 0x16D9 JUMP JUMPDEST PUSH2 0xEEA SWAP1 DUP4 PUSH2 0x16F8 JUMP JUMPDEST SWAP2 POP PUSH1 0x1 ADD PUSH2 0xE7A JUMP JUMPDEST POP DUP7 DUP3 PUSH2 0xF01 DUP4 DUP7 PUSH2 0x16F8 JUMP JUMPDEST PUSH2 0xF0B SWAP2 SWAP1 PUSH2 0x16F8 JUMP JUMPDEST PUSH2 0xF15 SWAP2 SWAP1 PUSH2 0x16D9 JUMP JUMPDEST SWAP10 SWAP9 POP POP POP POP POP POP POP POP POP JUMP JUMPDEST PUSH2 0xF2A PUSH2 0x1396 JUMP JUMPDEST PUSH1 0x4 SLOAD PUSH2 0xF37 SWAP1 DUP3 PUSH2 0x16F8 JUMP JUMPDEST PUSH1 0x40 MLOAD PUSH32 0x70A0823100000000000000000000000000000000000000000000000000000000 DUP2 MSTORE ADDRESS PUSH1 0x4 DUP3 ADD MSTORE PUSH32 0x0 PUSH1 0x1 PUSH1 0x1 PUSH1 0xA0 SHL SUB AND SWAP1 PUSH4 0x70A08231 SWAP1 PUSH1 0x24 ADD PUSH1 0x20 PUSH1 0x40 MLOAD DUP1 DUP4 SUB DUP2 DUP7 GAS STATICCALL ISZERO DUP1 ISZERO PUSH2 0xFB2 JUMPI RETURNDATASIZE PUSH0 PUSH0 RETURNDATACOPY RETURNDATASIZE PUSH0 REVERT JUMPDEST POP POP POP POP PUSH1 0x40 MLOAD RETURNDATASIZE PUSH1 0x1F NOT PUSH1 0x1F DUP3 ADD AND DUP3 ADD DUP1 PUSH1 0x40 MSTORE POP DUP2 ADD SWAP1 PUSH2 0xFD6 SWAP2 SWAP1 PUSH2 0x1736 JUMP JUMPDEST LT ISZERO PUSH2 0x1024 JUMPI PUSH1 0x40 MLOAD PUSH3 0x461BCD PUSH1 0xE5 SHL DUP2 MSTORE PUSH1 0x20 PUSH1 0x4 DUP3 ADD MSTORE PUSH1 0x1D PUSH1 0x24 DUP3 ADD MSTORE PUSH32 0x4D6F64756C65583A496E73756666696369656E742062616C616E636521000000 PUSH1 0x44 DUP3 ADD MSTORE PUSH1 0x64 ADD PUSH2 0x49F JUMP JUMPDEST PUSH2 0x1058 PUSH1 0x1 PUSH1 0x1 PUSH1 0xA0 SHL SUB PUSH32 0x0 AND DUP4 DUP4 PUSH2 0x13DB JUMP JUMPDEST DUP2 PUSH1 0x1 PUSH1 0x1 PUSH1 0xA0 SHL SUB AND PUSH32 0x1D3EEE4CA001CFF39EEC6EC7615AACF2F2BD61791273830728BA00CCBD6E1337 DUP3 PUSH1 0x40 MLOAD PUSH2 0x1093 SWAP2 DUP2 MSTORE PUSH1 0x20 ADD SWAP1 JUMP JUMPDEST PUSH1 0x40 MLOAD DUP1 SWAP2 SUB SWAP1 LOG2 POP POP JUMP JUMPDEST PUSH0 DUP1 SLOAD DUP2 SWAP1 PUSH1 0x1 PUSH1 0xA0 SHL SWAP1 DIV PUSH1 0xFF AND ISZERO PUSH2 0x10FB JUMPI PUSH1 0x40 MLOAD PUSH3 0x461BCD PUSH1 0xE5 SHL DUP2 MSTORE PUSH1 0x20 PUSH1 0x4 DUP3 ADD MSTORE PUSH1 0x10 PUSH1 0x24 DUP3 ADD MSTORE PUSH32 0x4D6F64756C65583A53544F505045442100000000000000000000000000000000 PUSH1 0x44 DUP3 ADD MSTORE PUSH1 0x64 ADD PUSH2 0x49F JUMP JUMPDEST PUSH0 DUP4 GT PUSH2 0x1170 JUMPI PUSH1 0x40 MLOAD PUSH3 0x461BCD PUSH1 0xE5 SHL DUP2 MSTORE PUSH1 0x20 PUSH1 0x4 DUP3 ADD MSTORE PUSH1 0x2C PUSH1 0x24 DUP3 ADD MSTORE PUSH32 0x4D6F64756C65583A5374616B6520616D6F756E74206D75737420626520677265 PUSH1 0x44 DUP3 ADD MSTORE PUSH32 0x61746572207468616E2030210000000000000000000000000000000000000000 PUSH1 0x64 DUP3 ADD MSTORE PUSH1 0x84 ADD PUSH2 0x49F JUMP JUMPDEST PUSH3 0xED4E00 PUSH1 0x1 PUSH1 0x1 PUSH1 0x60 SHL SUB DUP6 AND LT ISZERO PUSH2 0x11CC JUMPI PUSH1 0x40 MLOAD PUSH3 0x461BCD PUSH1 0xE5 SHL DUP2 MSTORE PUSH1 0x20 PUSH1 0x4 DUP3 ADD MSTORE PUSH1 0x1F PUSH1 0x24 DUP3 ADD MSTORE PUSH32 0x4D6F64756C65583A557365206C6F6E676572206C6F636B5F706572696F642100 PUSH1 0x44 DUP3 ADD MSTORE PUSH1 0x64 ADD PUSH2 0x49F JUMP JUMPDEST PUSH2 0x1201 PUSH32 0x0 PUSH1 0x1 PUSH1 0x1 PUSH1 0xA0 SHL SUB AND CALLER ADDRESS DUP7 PUSH2 0x14B6 JUMP JUMPDEST PUSH0 PUSH2 0x120C DUP6 TIMESTAMP PUSH2 0x174D JUMP JUMPDEST SWAP1 POP PUSH0 PUSH2 0x1218 DUP6 PUSH2 0xCB0 JUMP JUMPDEST SWAP1 POP PUSH0 PUSH1 0x2 SLOAD SWAP1 POP PUSH1 0x40 MLOAD DUP1 PUSH1 0x80 ADD PUSH1 0x40 MSTORE DUP1 PUSH2 0x1232 CALLER SWAP1 JUMP JUMPDEST PUSH1 0x1 PUSH1 0x1 PUSH1 0xA0 SHL SUB SWAP1 DUP2 AND DUP3 MSTORE PUSH1 0x1 PUSH1 0x1 PUSH1 0x60 SHL SUB DUP7 DUP2 AND PUSH1 0x20 DUP1 DUP6 ADD SWAP2 SWAP1 SWAP2 MSTORE PUSH1 0x40 DUP1 DUP6 ADD DUP13 SWAP1 MSTORE PUSH1 0x60 SWAP5 DUP6 ADD DUP9 SWAP1 MSTORE PUSH0 DUP8 DUP2 MSTORE PUSH1 0x1 DUP1 DUP5 MSTORE DUP3 DUP3 KECCAK256 DUP9 MLOAD SWAP5 DUP10 ADD MLOAD SWAP5 SWAP1 SWAP7 AND PUSH1 0x1 PUSH1 0xA0 SHL SWAP5 SWAP1 SWAP6 AND SWAP4 SWAP1 SWAP4 MUL SWAP4 SWAP1 SWAP4 OR DUP5 SSTORE DUP6 ADD MLOAD SWAP1 DUP4 ADD SSTORE SWAP3 SWAP1 SWAP2 ADD MLOAD PUSH1 0x2 SWAP1 SWAP2 ADD SSTORE PUSH1 0x3 DUP1 SLOAD DUP9 SWAP3 SWAP1 PUSH2 0x12B0 SWAP1 DUP5 SWAP1 PUSH2 0x16F8 JUMP JUMPDEST SWAP3 POP POP DUP2 SWAP1 SSTORE POP DUP2 PUSH1 0x4 PUSH0 DUP3 DUP3 SLOAD PUSH2 0x12C8 SWAP2 SWAP1 PUSH2 0x16F8 JUMP JUMPDEST SWAP1 SWAP2 SSTORE POP POP PUSH1 0x40 DUP1 MLOAD DUP3 DUP2 MSTORE PUSH1 0x1 PUSH1 0x1 PUSH1 0x60 SHL SUB DUP6 AND PUSH1 0x20 DUP3 ADD MSTORE DUP1 DUP3 ADD DUP9 SWAP1 MSTORE PUSH1 0x60 DUP2 ADD DUP5 SWAP1 MSTORE SWAP1 MLOAD CALLER SWAP2 PUSH32 0x24FE2D25C10EB2C67B5AC1E3EDBCADC94191E154ED388AD667A9480C44F47146 SWAP2 SWAP1 DUP2 SWAP1 SUB PUSH1 0x80 ADD SWAP1 LOG2 PUSH1 0x2 DUP1 SLOAD SWAP1 PUSH0 PUSH2 0x132E DUP4 PUSH2 0x176C JUMP JUMPDEST SWAP1 SWAP2 SSTORE POP SWAP1 SWAP8 SWAP2 SWAP7 POP SWAP1 SWAP5 POP POP POP POP POP JUMP JUMPDEST PUSH2 0x1348 PUSH2 0x1396 JUMP JUMPDEST PUSH1 0x1 PUSH1 0x1 PUSH1 0xA0 SHL SUB DUP2 AND PUSH2 0x138A JUMPI PUSH1 0x40 MLOAD PUSH32 0x1E4FBDF700000000000000000000000000000000000000000000000000000000 DUP2 MSTORE PUSH0 PUSH1 0x4 DUP3 ADD MSTORE PUSH1 0x24 ADD PUSH2 0x49F JUMP JUMPDEST PUSH2 0x1393 DUP2 PUSH2 0x144F JUMP JUMPDEST POP JUMP JUMPDEST PUSH0 SLOAD PUSH1 0x1 PUSH1 0x1 PUSH1 0xA0 SHL SUB AND CALLER EQ PUSH2 0x692 JUMPI PUSH1 0x40 MLOAD PUSH32 0x118CDAA700000000000000000000000000000000000000000000000000000000 DUP2 MSTORE CALLER PUSH1 0x4 DUP3 ADD MSTORE PUSH1 0x24 ADD PUSH2 0x49F JUMP JUMPDEST PUSH1 0x40 MLOAD PUSH1 0x1 PUSH1 0x1 PUSH1 0xA0 SHL SUB DUP4 DUP2 AND PUSH1 0x24 DUP4 ADD MSTORE PUSH1 0x44 DUP3 ADD DUP4 SWAP1 MSTORE PUSH2 0xB3E SWAP2 DUP6 SWAP2 DUP3 AND SWAP1 PUSH4 0xA9059CBB SWAP1 PUSH1 0x64 ADD JUMPDEST PUSH1 0x40 MLOAD PUSH1 0x20 DUP2 DUP4 SUB SUB DUP2 MSTORE SWAP1 PUSH1 0x40 MSTORE SWAP2 POP PUSH1 0xE0 SHL PUSH1 0x20 DUP3 ADD DUP1 MLOAD PUSH28 0xFFFFFFFFFFFFFFFFFFFFFFFFFFFFFFFFFFFFFFFFFFFFFFFFFFFFFFFF DUP4 DUP2 DUP4 AND OR DUP4 MSTORE POP POP POP POP PUSH2 0x14F5 JUMP JUMPDEST PUSH0 DUP1 SLOAD PUSH1 0x1 PUSH1 0x1 PUSH1 0xA0 SHL SUB DUP4 DUP2 AND PUSH32 0xFFFFFFFFFFFFFFFFFFFFFFFF0000000000000000000000000000000000000000 DUP4 AND DUP2 OR DUP5 SSTORE PUSH1 0x40 MLOAD SWAP2 SWAP1 SWAP3 AND SWAP3 DUP4 SWAP2 PUSH32 0x8BE0079C531659141344CD1FD0A4F28419497F9722A3DAAFE3B4186F6B6457E0 SWAP2 SWAP1 LOG3 POP POP JUMP JUMPDEST PUSH1 0x40 MLOAD PUSH1 0x1 PUSH1 0x1 PUSH1 0xA0 SHL SUB DUP5 DUP2 AND PUSH1 0x24 DUP4 ADD MSTORE DUP4 DUP2 AND PUSH1 0x44 DUP4 ADD MSTORE PUSH1 0x64 DUP3 ADD DUP4 SWAP1 MSTORE PUSH2 0x14EF SWAP2 DUP7 SWAP2 DUP3 AND SWAP1 PUSH4 0x23B872DD SWAP1 PUSH1 0x84 ADD PUSH2 0x1408 JUMP JUMPDEST POP POP POP POP JUMP JUMPDEST PUSH0 PUSH0 PUSH1 0x20 PUSH0 DUP5 MLOAD PUSH1 0x20 DUP7 ADD PUSH0 DUP9 GAS CALL DUP1 PUSH2 0x1514 JUMPI PUSH1 0x40 MLOAD RETURNDATASIZE PUSH0 DUP3 RETURNDATACOPY RETURNDATASIZE DUP2 REVERT JUMPDEST POP POP PUSH0 MLOAD RETURNDATASIZE SWAP2 POP DUP2 ISZERO PUSH2 0x152B JUMPI DUP1 PUSH1 0x1 EQ ISZERO PUSH2 0x1538 JUMP JUMPDEST PUSH1 0x1 PUSH1 0x1 PUSH1 0xA0 SHL SUB DUP5 AND EXTCODESIZE ISZERO JUMPDEST ISZERO PUSH2 0x14EF JUMPI PUSH1 0x40 MLOAD PUSH32 0x5274AFE700000000000000000000000000000000000000000000000000000000 DUP2 MSTORE PUSH1 0x1 PUSH1 0x1 PUSH1 0xA0 SHL SUB DUP6 AND PUSH1 0x4 DUP3 ADD MSTORE PUSH1 0x24 ADD PUSH2 0x49F JUMP JUMPDEST PUSH0 PUSH1 0x20 DUP3 DUP5 SUB SLT ISZERO PUSH2 0x158A JUMPI PUSH0 PUSH0 REVERT JUMPDEST POP CALLDATALOAD SWAP2 SWAP1 POP JUMP JUMPDEST PUSH0 PUSH0 PUSH1 0x40 DUP4 DUP6 SUB SLT ISZERO PUSH2 0x15A2 JUMPI PUSH0 PUSH0 REVERT JUMPDEST POP POP DUP1 CALLDATALOAD SWAP3 PUSH1 0x20 SWAP1 SWAP2 ADD CALLDATALOAD SWAP2 POP JUMP JUMPDEST PUSH0 PUSH0 PUSH1 0x20 DUP4 DUP6 SUB SLT ISZERO PUSH2 0x15C2 JUMPI PUSH0 PUSH0 REVERT JUMPDEST DUP3 CALLDATALOAD PUSH8 0xFFFFFFFFFFFFFFFF DUP2 GT ISZERO PUSH2 0x15D8 JUMPI PUSH0 PUSH0 REVERT JUMPDEST DUP4 ADD PUSH1 0x1F DUP2 ADD DUP6 SGT PUSH2 0x15E8 JUMPI PUSH0 PUSH0 REVERT JUMPDEST DUP1 CALLDATALOAD PUSH8 0xFFFFFFFFFFFFFFFF DUP2 GT ISZERO PUSH2 0x15FE JUMPI PUSH0 PUSH0 REVERT JUMPDEST DUP6 PUSH1 0x20 DUP3 PUSH1 0x5 SHL DUP5 ADD ADD GT ISZERO PUSH2 0x1612 JUMPI PUSH0 PUSH0 REVERT JUMPDEST PUSH1 0x20 SWAP2 SWAP1 SWAP2 ADD SWAP6 SWAP1 SWAP5 POP SWAP3 POP POP POP JUMP JUMPDEST DUP1 CALLDATALOAD PUSH1 0x1 PUSH1 0x1 PUSH1 0xA0 SHL SUB DUP2 AND DUP2 EQ PUSH2 0x1638 JUMPI PUSH0 PUSH0 REVERT JUMPDEST SWAP2 SWAP1 POP JUMP JUMPDEST PUSH0 PUSH0 PUSH1 0x40 DUP4 DUP6 SUB SLT ISZERO PUSH2 0x164E JUMPI PUSH0 PUSH0 REVERT JUMPDEST PUSH2 0x1657 DUP4 PUSH2 0x1622 JUMP JUMPDEST SWAP5 PUSH1 0x20 SWAP4 SWAP1 SWAP4 ADD CALLDATALOAD SWAP4 POP POP POP JUMP JUMPDEST PUSH0 PUSH0 PUSH1 0x40 DUP4 DUP6 SUB SLT ISZERO PUSH2 0x1676 JUMPI PUSH0 PUSH0 REVERT JUMPDEST DUP3 CALLDATALOAD PUSH1 0x1 PUSH1 0x1 PUSH1 0x60 SHL SUB DUP2 AND DUP2 EQ PUSH2 0x1657 JUMPI PUSH0 PUSH0 REVERT JUMPDEST PUSH0 PUSH1 0x20 DUP3 DUP5 SUB SLT ISZERO PUSH2 0x169C JUMPI PUSH0 PUSH0 REVERT JUMPDEST PUSH2 0x16A5 DUP3 PUSH2 0x1622 JUMP JUMPDEST SWAP4 SWAP3 POP POP POP JUMP JUMPDEST PUSH4 0x4E487B71 PUSH1 0xE0 SHL PUSH0 MSTORE PUSH1 0x11 PUSH1 0x4 MSTORE PUSH1 0x24 PUSH0 REVERT JUMPDEST DUP2 DUP2 SUB DUP2 DUP2 GT ISZERO PUSH2 0x16D3 JUMPI PUSH2 0x16D3 PUSH2 0x16AC JUMP JUMPDEST SWAP3 SWAP2 POP POP JUMP JUMPDEST PUSH0 DUP3 PUSH2 0x16F3 JUMPI PUSH4 0x4E487B71 PUSH1 0xE0 SHL PUSH0 MSTORE PUSH1 0x12 PUSH1 0x4 MSTORE PUSH1 0x24 PUSH0 REVERT JUMPDEST POP DIV SWAP1 JUMP JUMPDEST DUP1 DUP3 ADD DUP1 DUP3 GT ISZERO PUSH2 0x16D3 JUMPI PUSH2 0x16D3 PUSH2 0x16AC JUMP JUMPDEST PUSH4 0x4E487B71 PUSH1 0xE0 SHL PUSH0 MSTORE PUSH1 0x32 PUSH1 0x4 MSTORE PUSH1 0x24 PUSH0 REVERT JUMPDEST DUP1 DUP3 MUL DUP2 ISZERO DUP3 DUP3 DIV DUP5 EQ OR PUSH2 0x16D3 JUMPI PUSH2 0x16D3 PUSH2 0x16AC JUMP JUMPDEST PUSH0 PUSH1 0x20 DUP3 DUP5 SUB SLT ISZERO PUSH2 0x1746 JUMPI PUSH0 PUSH0 REVERT JUMPDEST POP MLOAD SWAP2 SWAP1 POP JUMP JUMPDEST PUSH1 0x1 PUSH1 0x1 PUSH1 0x60 SHL SUB DUP2 DUP2 AND DUP4 DUP3 AND ADD SWAP1 DUP2 GT ISZERO PUSH2 0x16D3 JUMPI PUSH2 0x16D3 PUSH2 0x16AC JUMP JUMPDEST PUSH0 PUSH1 0x1 DUP3 ADD PUSH2 0x177D JUMPI PUSH2 0x177D PUSH2 0x16AC JUMP JUMPDEST POP PUSH1 0x1 ADD SWAP1 JUMP INVALID LOG2 PUSH5 0x6970667358 0x22 SLT KECCAK256 SWAP2 0xBC PUSH10 0xA6575ED327F6F7CABA51 SWAP1 RETURNDATACOPY PUSH7 0xC7CB77B90249B3 BALANCE MCOPY DUP13 PUSH0 0xA6 SWAP11 DUP4 AND SELFBALANCE PUSH5 0x736F6C6343 STOP ADDMOD 0x1E STOP CALLER "
		},
		"gasEstimates": {
			"creation": {
				"codeDepositCost": "1214800",
				"executionCost": "infinite",
				"totalCost": "infinite"
			},
			"external": {
				"CREDI()": "infinite",
				"DIFFICULTY_INTERVAL()": "infinite",
				"MATURITY()": "260",
				"addRewards(uint256)": "infinite",
				"batchWithdrawCREDI(uint256[])": "infinite",
				"calculateReward(uint256)": "infinite",
				"claim(uint256)": "infinite",
				"getCREDIAddress()": "infinite",
				"getDifficulty()": "infinite",
				"getStake(uint256)": "9039",
				"getStakesCount()": "2470",
				"getxCREDIAddress()": "infinite",
				"owner()": "2419",
				"pending_payments()": "2350",
				"renounceOwnership()": "infinite",
				"stake(uint96,uint256)": "infinite",
				"stop()": "27344",
				"stopped()": "2371",
				"total_staked()": "2329",
				"transferOwnership(address)": "28402",
				"withdrawCREDI(uint256,uint256)": "infinite",
				"withdrawRewards(address,uint256)": "infinite",
				"xCREDI()": "infinite"
			},
			"internal": {
				"time_now()": "infinite"
			}
		},
		"methodIdentifiers": {
			"CREDI()": "6db08f25",
			"DIFFICULTY_INTERVAL()": "109cf399",
			"MATURITY()": "8e12c0cd",
			"addRewards(uint256)": "beceed39",
			"batchWithdrawCREDI(uint256[])": "bc854352",
			"calculateReward(uint256)": "d2d7231f",
			"claim(uint256)": "379607f5",
			"getCREDIAddress()": "d46149a2",
			"getDifficulty()": "b6baffe3",
			"getStake(uint256)": "ce325bf8",
			"getStakesCount()": "b5fa91fe",
			"getxCREDIAddress()": "7c2fdeb5",
			"owner()": "8da5cb5b",
			"pending_payments()": "8f4729b7",
			"renounceOwnership()": "715018a6",
			"stake(uint96,uint256)": "d93c04a0",
			"stop()": "07da68f5",
			"stopped()": "75f12b21",
			"total_staked()": "af7568dd",
			"transferOwnership(address)": "f2fde38b",
			"withdrawCREDI(uint256,uint256)": "ac00500f",
			"withdrawRewards(address,uint256)": "d6ef7af0",
			"xCREDI()": "b109beec"
		}
	},
	"abi": [
		{
			"inputs": [
				{
					"internalType": "address",
					"name": "_credi_addr",
					"type": "address"
				},
				{
					"internalType": "address",
					"name": "_xcredi_addr",
					"type": "address"
				},
				{
					"internalType": "uint256",
					"name": "_DIFFICULTY",
					"type": "uint256"
				},
				{
					"internalType": "uint256",
					"name": "_DIFFICULTY_INTERVAL",
					"type": "uint256"
				}
			],
			"stateMutability": "nonpayable",
			"type": "constructor"
		},
		{
			"inputs": [
				{
					"internalType": "address",
					"name": "owner",
					"type": "address"
				}
			],
			"name": "OwnableInvalidOwner",
			"type": "error"
		},
		{
			"inputs": [
				{
					"internalType": "address",
					"name": "account",
					"type": "address"
				}
			],
			"name": "OwnableUnauthorizedAccount",
			"type": "error"
		},
		{
			"inputs": [
				{
					"internalType": "address",
					"name": "token",
					"type": "address"
				}
			],
			"name": "SafeERC20FailedOperation",
			"type": "error"
		},
		{
			"anonymous": false,
			"inputs": [
				{
					"indexed": false,
					"internalType": "uint256",
					"name": "stake_id",
					"type": "uint256"
				},
				{
					"indexed": false,
					"internalType": "uint256",
					"name": "amount",
					"type": "uint256"
				}
			],
			"name": "CREDIWithdrawn",
			"type": "event"
		},
		{
			"anonymous": false,
			"inputs": [
				{
					"indexed": true,
					"internalType": "address",
					"name": "previousOwner",
					"type": "address"
				},
				{
					"indexed": true,
					"internalType": "address",
					"name": "newOwner",
					"type": "address"
				}
			],
			"name": "OwnershipTransferred",
			"type": "event"
		},
		{
			"anonymous": false,
			"inputs": [
				{
					"indexed": false,
					"internalType": "uint256",
					"name": "amount",
					"type": "uint256"
				}
			],
			"name": "RewardAdded",
			"type": "event"
		},
		{
			"anonymous": false,
			"inputs": [
				{
					"indexed": false,
					"internalType": "uint256",
					"name": "stake_id",
					"type": "uint256"
				}
			],
			"name": "RewardPaid",
			"type": "event"
		},
		{
			"anonymous": false,
			"inputs": [
				{
					"indexed": true,
					"internalType": "address",
					"name": "to",
					"type": "address"
				},
				{
					"indexed": false,
					"internalType": "uint256",
					"name": "amount",
					"type": "uint256"
				}
			],
			"name": "RewardWithdrawn",
			"type": "event"
		},
		{
			"anonymous": false,
			"inputs": [
				{
					"indexed": true,
					"internalType": "address",
					"name": "user",
					"type": "address"
				},
				{
					"indexed": false,
					"internalType": "uint256",
					"name": "stake_id",
					"type": "uint256"
				},
				{
					"indexed": false,
					"internalType": "uint96",
					"name": "maturity",
					"type": "uint96"
				},
				{
					"indexed": false,
					"internalType": "uint256",
					"name": "stake_amount",
					"type": "uint256"
				},
				{
					"indexed": false,
					"internalType": "uint256",
					"name": "rewards_amount",
					"type": "uint256"
				}
			],
			"name": "Staked",
			"type": "event"
		},
		{
			"anonymous": false,
			"inputs": [],
			"name": "Stopped",
			"type": "event"
		},
		{
			"inputs": [],
			"name": "CREDI",
			"outputs": [
				{
					"internalType": "contract IERC20",
					"name": "",
					"type": "address"
				}
			],
			"stateMutability": "view",
			"type": "function"
		},
		{
			"inputs": [],
			"name": "DIFFICULTY_INTERVAL",
			"outputs": [
				{
					"internalType": "uint256",
					"name": "",
					"type": "uint256"
				}
			],
			"stateMutability": "view",
			"type": "function"
		},
		{
			"inputs": [],
			"name": "MATURITY",
			"outputs": [
				{
					"internalType": "uint96",
					"name": "",
					"type": "uint96"
				}
			],
			"stateMutability": "view",
			"type": "function"
		},
		{
			"inputs": [
				{
					"internalType": "uint256",
					"name": "amount",
					"type": "uint256"
				}
			],
			"name": "addRewards",
			"outputs": [],
			"stateMutability": "nonpayable",
			"type": "function"
		},
		{
			"inputs": [
				{
					"internalType": "uint256[]",
					"name": "stake_ids",
					"type": "uint256[]"
				}
			],
			"name": "batchWithdrawCREDI",
			"outputs": [],
			"stateMutability": "nonpayable",
			"type": "function"
		},
		{
			"inputs": [
				{
					"internalType": "uint256",
					"name": "stake_amount",
					"type": "uint256"
				}
			],
			"name": "calculateReward",
			"outputs": [
				{
					"internalType": "uint256",
					"name": "",
					"type": "uint256"
				}
			],
			"stateMutability": "view",
			"type": "function"
		},
		{
			"inputs": [
				{
					"internalType": "uint256",
					"name": "stake_id",
					"type": "uint256"
				}
			],
			"name": "claim",
			"outputs": [
				{
					"internalType": "uint256",
					"name": "",
					"type": "uint256"
				}
			],
			"stateMutability": "nonpayable",
			"type": "function"
		},
		{
			"inputs": [],
			"name": "getCREDIAddress",
			"outputs": [
				{
					"internalType": "address",
					"name": "",
					"type": "address"
				}
			],
			"stateMutability": "view",
			"type": "function"
		},
		{
			"inputs": [],
			"name": "getDifficulty",
			"outputs": [
				{
					"internalType": "uint256",
					"name": "",
					"type": "uint256"
				}
			],
			"stateMutability": "view",
			"type": "function"
		},
		{
			"inputs": [
				{
					"internalType": "uint256",
					"name": "stake_id",
					"type": "uint256"
				}
			],
			"name": "getStake",
			"outputs": [
				{
					"internalType": "address",
					"name": "owner",
					"type": "address"
				},
				{
					"internalType": "uint256",
					"name": "maturity",
					"type": "uint256"
				},
				{
					"internalType": "uint256",
					"name": "stake_amount",
					"type": "uint256"
				},
				{
					"internalType": "uint256",
					"name": "reward_amount",
					"type": "uint256"
				}
			],
			"stateMutability": "view",
			"type": "function"
		},
		{
			"inputs": [],
			"name": "getStakesCount",
			"outputs": [
				{
					"internalType": "uint256",
					"name": "",
					"type": "uint256"
				}
			],
			"stateMutability": "view",
			"type": "function"
		},
		{
			"inputs": [],
			"name": "getxCREDIAddress",
			"outputs": [
				{
					"internalType": "address",
					"name": "",
					"type": "address"
				}
			],
			"stateMutability": "view",
			"type": "function"
		},
		{
			"inputs": [],
			"name": "owner",
			"outputs": [
				{
					"internalType": "address",
					"name": "",
					"type": "address"
				}
			],
			"stateMutability": "view",
			"type": "function"
		},
		{
			"inputs": [],
			"name": "pending_payments",
			"outputs": [
				{
					"internalType": "uint256",
					"name": "",
					"type": "uint256"
				}
			],
			"stateMutability": "view",
			"type": "function"
		},
		{
			"inputs": [],
			"name": "renounceOwnership",
			"outputs": [],
			"stateMutability": "nonpayable",
			"type": "function"
		},
		{
			"inputs": [
				{
					"internalType": "uint96",
					"name": "lock_period",
					"type": "uint96"
				},
				{
					"internalType": "uint256",
					"name": "stake_amount",
					"type": "uint256"
				}
			],
			"name": "stake",
			"outputs": [
				{
					"internalType": "uint256",
					"name": "",
					"type": "uint256"
				},
				{
					"internalType": "uint256",
					"name": "",
					"type": "uint256"
				}
			],
			"stateMutability": "nonpayable",
			"type": "function"
		},
		{
			"inputs": [],
			"name": "stop",
			"outputs": [],
			"stateMutability": "nonpayable",
			"type": "function"
		},
		{
			"inputs": [],
			"name": "stopped",
			"outputs": [
				{
					"internalType": "bool",
					"name": "",
					"type": "bool"
				}
			],
			"stateMutability": "view",
			"type": "function"
		},
		{
			"inputs": [],
			"name": "total_staked",
			"outputs": [
				{
					"internalType": "uint256",
					"name": "",
					"type": "uint256"
				}
			],
			"stateMutability": "view",
			"type": "function"
		},
		{
			"inputs": [
				{
					"internalType": "address",
					"name": "newOwner",
					"type": "address"
				}
			],
			"name": "transferOwnership",
			"outputs": [],
			"stateMutability": "nonpayable",
			"type": "function"
		},
		{
			"inputs": [
				{
					"internalType": "uint256",
					"name": "stake_id",
					"type": "uint256"
				},
				{
					"internalType": "uint256",
					"name": "amount",
					"type": "uint256"
				}
			],
			"name": "withdrawCREDI",
			"outputs": [],
			"stateMutability": "nonpayable",
			"type": "function"
		},
		{
			"inputs": [
				{
					"internalType": "address",
					"name": "to",
					"type": "address"
				},
				{
					"internalType": "uint256",
					"name": "amount",
					"type": "uint256"
				}
			],
			"name": "withdrawRewards",
			"outputs": [],
			"stateMutability": "nonpayable",
			"type": "function"
		},
		{
			"inputs": [],
			"name": "xCREDI",
			"outputs": [
				{
					"internalType": "contract IERC20",
					"name": "",
					"type": "address"
				}
			],
			"stateMutability": "view",
			"type": "function"
		}
	]
}