{
	"data": {
		"bytecode": {
			"linkReferences": {},
			"object": "60c060405260016002555f6003555f60045534801561001c575f5ffd5b5060405161162638038061162683398101604081905261003b916100eb565b338061006057604051631e4fbdf760e01b81525f600482015260240160405180910390fd5b61006981610081565b506001600160a01b039182166080521660a05261011c565b5f80546001600160a01b038381166001600160a01b0319831681178455604051919092169283917f8be0079c531659141344cd1fd0a4f28419497f9722a3daafe3b4186f6b6457e09190a35050565b80516001600160a01b03811681146100e6575f5ffd5b919050565b5f5f604083850312156100fc575f5ffd5b610105836100d0565b9150610113602084016100d0565b90509250929050565b60805160a0516114aa61017c5f395f81816101c7015281816102460152818161050101528181610a6201528181610d170152610de301525f8181610181015281816102f001528181610732015281816109c80152610f1701526114aa5ff3fe608060405234801561000f575f5ffd5b5060043610610141575f3560e01c8063b109beec116100c3578063ce325bf811610088578063d6ef7af011610063578063d6ef7af014610314578063d93c04a014610327578063f2fde38b1461034f575f5ffd5b8063ce325bf81461029e578063d2d7231f146102db578063d46149a2146102ee575f5ffd5b8063b109beec14610241578063b5fa91fe14610268578063b6baffe314610270578063bc85435214610278578063beceed391461028b575f5ffd5b80638da5cb5b116101095780638da5cb5b146101eb5780638e12c0cd146101fb5780638f4729b71461021c578063ac00500f14610225578063af7568dd14610238575f5ffd5b8063109cf39914610145578063379607f5146101695780636db08f251461017c578063715018a6146101bb5780637c2fdeb5146101c5575b5f5ffd5b6101566969e10de76676d080000081565b6040519081526020015b60405180910390f35b61015661017736600461126a565b610362565b6101a37f000000000000000000000000000000000000000000000000000000000000000081565b6040516001600160a01b039091168152602001610160565b6101c3610587565b005b7f00000000000000000000000000000000000000000000000000000000000000006101a3565b5f546001600160a01b03166101a3565b610204612a3081565b6040516001600160601b039091168152602001610160565b61015660045481565b6101c3610233366004611281565b61059a565b61015660035481565b6101a37f000000000000000000000000000000000000000000000000000000000000000081565b6101566107b0565b6101566107c5565b6101c36102863660046112a1565b6107ea565b6101c361029936600461126a565b6109fc565b6102b16102ac36600461126a565b610ac8565b604080516001600160a01b0390951685526020850193909352918301526060820152608001610160565b6101566102e936600461126a565b610b65565b7f00000000000000000000000000000000000000000000000000000000000000006101a3565b6101c361032236600461132d565b610ced565b61033a610335366004611355565b610e51565b60408051928352602083019190915201610160565b6101c361035d36600461137c565b611086565b5f815f81118015610374575060025481105b6103c15760405162461bcd60e51b81526020600482015260196024820152784d6f64756c65583a496e76616c6964205374616b652049442160381b60448201526064015b60405180910390fd5b5f83815260016020526040902080546001600160a01b031633146104275760405162461bcd60e51b815260206004820152601f60248201527f4d6f64756c65583a43616c6c6572206973206e6f7420746865206f776e65720060448201526064016103b8565b8054600160a01b90046001600160601b0316426001600160601b031610156104a45760405162461bcd60e51b815260206004820152602a60248201527f4d6f64756c65583a4561726c79205769746864726177616c206973206e6f74206044820152697065726d69747465642160b01b60648201526084016103b8565b5f8160020154116104f75760405162461bcd60e51b815260206004820152601860248201527f4d6f64756c65583a4e6f7468696e6720746f20636c61696d000000000000000060448201526064016103b8565b60028101546105307f00000000000000000000000000000000000000000000000000000000000000006001600160a01b031633836110c3565b8060045f82825461054191906113b0565b90915550505f60028301556040518581527f67bb155fcabb99400c32b640dc7704c8f18aae4c817704c7267c5a8cd26dfc199060200160405180910390a1949350505050565b61058f611137565b6105985f611163565b565b6105a2611137565b815f811180156105b3575060025481105b6105fb5760405162461bcd60e51b81526020600482015260196024820152784d6f64756c65583a496e76616c6964205374616b652049442160381b60448201526064016103b8565b5f821161065c5760405162461bcd60e51b815260206004820152602960248201527f4d6f64756c65583a616d6f756e74206d7573742062652067726561746572207460448201526868616e207a65726f2160b81b60648201526084016103b8565b5f8381526001602052604090208054600160a01b90046001600160601b0316426001600160601b031611156106cb5760405162461bcd60e51b81526020600482015260156024820152744d6f64756c65583a4275726e7420746f6b656e732160581b60448201526064016103b8565b806001015483111561071f5760405162461bcd60e51b815260206004820152601d60248201527f4d6f64756c65583a496e73756666696369656e742062616c616e63652100000060448201526064016103b8565b6107593360018301546001600160a01b037f00000000000000000000000000000000000000000000000000000000000000001691906110c3565b82816001015f82825461076c91906113b0565b909155505060408051858152602081018590527f03a00e6132085cbc9ea18899cd135ef9cad5d305d58506e08e7b1a9b96199a9c910160405180910390a150505050565b5f60016002546107c091906113b0565b905090565b5f600b6969e10de76676d08000006003546107e091906113c9565b6107c091906113e8565b6107f2611137565b5f805b8281101561097357600254848483818110610812576108126113fb565b90506020020135106108625760405162461bcd60e51b81526020600482015260196024820152784d6f64756c65583a496e76616c6964205374616b652049442160381b60448201526064016103b8565b5f60015f868685818110610878576108786113fb565b602090810292909201358352508101919091526040015f208054909150600160a01b90046001600160601b0316426001600160601b031611156108f55760405162461bcd60e51b81526020600482015260156024820152744d6f64756c65583a4275726e7420746f6b656e732160581b60448201526064016103b8565b600181015461090490846113e8565b5f600183015592507f03a00e6132085cbc9ea18899cd135ef9cad5d305d58506e08e7b1a9b96199a9c85858481811061093f5761093f6113fb565b905060200201358260010154604051610962929190918252602082015260400190565b60405180910390a1506001016107f5565b505f81116109c35760405162461bcd60e51b815260206004820152601a60248201527f4d6f64756c65583a546f74616c20616d6f756e7420697320302100000000000060448201526064016103b8565b6109f77f00000000000000000000000000000000000000000000000000000000000000006001600160a01b031633836110c3565b505050565b5f8111610a5d5760405162461bcd60e51b815260206004820152602960248201527f4d6f64756c65583a616d6f756e74206d7573742062652067726561746572207460448201526868616e207a65726f2160b81b60648201526084016103b8565b610a927f00000000000000000000000000000000000000000000000000000000000000006001600160a01b03163330846111bf565b6040518181527fde88a922e0d3b88b24e9623efeb464919c6bf9f66857a65e2bfcf2ce87a9433d9060200160405180910390a150565b5f5f5f5f845f81118015610add575060025481105b610b255760405162461bcd60e51b81526020600482015260196024820152784d6f64756c65583a496e76616c6964205374616b652049442160381b60448201526064016103b8565b5050505f92835250506001602081905260409091208054918101546002909101546001600160a01b03831693600160a01b9093046001600160601b031692565b5f5f670de0b6b3a764000090505f83600354610b8191906113e8565b90505f6969e10de76676d0800000600354610b9c91906113c9565b90505f610bb36969e10de76676d0800000846113c9565b9050808203610bdb57610bc7600b836113e8565b610bd190876113c9565b9695505050505050565b5f610be7600b846113e8565b6003546969e10de76676d0800000610c008660016113e8565b610c0a919061140f565b610c1491906113b0565b610c1e908761140f565b610c2891906113c9565b90505f610c36600b846113e8565b610c4a6969e10de76676d08000008561140f565b610c5490876113b0565b610c5e908861140f565b610c6891906113c9565b90505f80610c778660016113e8565b90505b84811015610cbf57610c8d600b826113e8565b610ca16969e10de76676d08000008a61140f565b610cab91906113c9565b610cb590836113e8565b9150600101610c7a565b508682610ccc83866113e8565b610cd691906113e8565b610ce091906113c9565b9998505050505050505050565b610cf5611137565b600454610d0290826113e8565b6040516370a0823160e01b81523060048201527f00000000000000000000000000000000000000000000000000000000000000006001600160a01b0316906370a0823190602401602060405180830381865afa158015610d64573d5f5f3e3d5ffd5b505050506040513d601f19601f82011682018060405250810190610d889190611426565b1015610dd65760405162461bcd60e51b815260206004820152601d60248201527f4d6f64756c65583a496e73756666696369656e742062616c616e63652100000060448201526064016103b8565b610e0a6001600160a01b037f00000000000000000000000000000000000000000000000000000000000000001683836110c3565b816001600160a01b03167f1d3eee4ca001cff39eec6ec7615aacf2f2bd61791273830728ba00ccbd6e133782604051610e4591815260200190565b60405180910390a25050565b5f5f5f8311610eb75760405162461bcd60e51b815260206004820152602c60248201527f4d6f64756c65583a5374616b6520616d6f756e74206d7573742062652067726560448201526b61746572207468616e20302160a01b60648201526084016103b8565b612a306001600160601b0385161015610f125760405162461bcd60e51b815260206004820152601f60248201527f4d6f64756c65583a557365206c6f6e676572206c6f636b5f706572696f64210060448201526064016103b8565b610f477f00000000000000000000000000000000000000000000000000000000000000006001600160a01b03163330866111bf565b5f610f52854261143d565b90505f610f5e85610b65565b90505f60025490506040518060800160405280610f783390565b6001600160a01b0390811682526001600160601b0386811660208085019190915260408085018c905260609485018890525f878152600180845282822088519489015194909616600160a01b949095169390930293909317845585015190830155929091015160029091015560038054889290610ff69084906113e8565b925050819055508160045f82825461100e91906113e8565b9091555050604080518281526001600160601b038516602082015280820188905260608101849052905133917f24fe2d25c10eb2c67b5ac1e3edbcadc94191e154ed388ad667a9480c44f47146919081900360800190a260028054905f6110748361145c565b90915550909791965090945050505050565b61108e611137565b6001600160a01b0381166110b757604051631e4fbdf760e01b81525f60048201526024016103b8565b6110c081611163565b50565b6040516001600160a01b038381166024830152604482018390526109f791859182169063a9059cbb906064015b604051602081830303815290604052915060e01b6020820180517bffffffffffffffffffffffffffffffffffffffffffffffffffffffff83818316178352505050506111fe565b5f546001600160a01b031633146105985760405163118cdaa760e01b81523360048201526024016103b8565b5f80546001600160a01b0383811673ffffffffffffffffffffffffffffffffffffffff19831681178455604051919092169283917f8be0079c531659141344cd1fd0a4f28419497f9722a3daafe3b4186f6b6457e09190a35050565b6040516001600160a01b0384811660248301528381166044830152606482018390526111f89186918216906323b872dd906084016110f0565b50505050565b5f5f60205f8451602086015f885af18061121d576040513d5f823e3d81fd5b50505f513d91508115611234578060011415611241565b6001600160a01b0384163b155b156111f857604051635274afe760e01b81526001600160a01b03851660048201526024016103b8565b5f6020828403121561127a575f5ffd5b5035919050565b5f5f60408385031215611292575f5ffd5b50508035926020909101359150565b5f5f602083850312156112b2575f5ffd5b823567ffffffffffffffff8111156112c8575f5ffd5b8301601f810185136112d8575f5ffd5b803567ffffffffffffffff8111156112ee575f5ffd5b8560208260051b8401011115611302575f5ffd5b6020919091019590945092505050565b80356001600160a01b0381168114611328575f5ffd5b919050565b5f5f6040838503121561133e575f5ffd5b61134783611312565b946020939093013593505050565b5f5f60408385031215611366575f5ffd5b82356001600160601b0381168114611347575f5ffd5b5f6020828403121561138c575f5ffd5b61139582611312565b9392505050565b634e487b7160e01b5f52601160045260245ffd5b818103818111156113c3576113c361139c565b92915050565b5f826113e357634e487b7160e01b5f52601260045260245ffd5b500490565b808201808211156113c3576113c361139c565b634e487b7160e01b5f52603260045260245ffd5b80820281158282048414176113c3576113c361139c565b5f60208284031215611436575f5ffd5b5051919050565b6001600160601b0381811683821601908111156113c3576113c361139c565b5f6001820161146d5761146d61139c565b506001019056fea2646970667358221220907688c842296beb3d759f6b8aabca99f354693326ae041ced431c379c74726f64736f6c634300081e0033",
			"opcodes": "PUSH1 0xC0 PUSH1 0x40 MSTORE PUSH1 0x1 PUSH1 0x2 SSTORE PUSH0 PUSH1 0x3 SSTORE PUSH0 PUSH1 0x4 SSTORE CALLVALUE DUP1 ISZERO PUSH2 0x1C JUMPI PUSH0 PUSH0 REVERT JUMPDEST POP PUSH1 0x40 MLOAD PUSH2 0x1626 CODESIZE SUB DUP1 PUSH2 0x1626 DUP4 CODECOPY DUP2 ADD PUSH1 0x40 DUP2 SWAP1 MSTORE PUSH2 0x3B SWAP2 PUSH2 0xEB JUMP JUMPDEST CALLER DUP1 PUSH2 0x60 JUMPI PUSH1 0x40 MLOAD PUSH4 0x1E4FBDF7 PUSH1 0xE0 SHL DUP2 MSTORE PUSH0 PUSH1 0x4 DUP3 ADD MSTORE PUSH1 0x24 ADD PUSH1 0x40 MLOAD DUP1 SWAP2 SUB SWAP1 REVERT JUMPDEST PUSH2 0x69 DUP2 PUSH2 0x81 JUMP JUMPDEST POP PUSH1 0x1 PUSH1 0x1 PUSH1 0xA0 SHL SUB SWAP2 DUP3 AND PUSH1 0x80 MSTORE AND PUSH1 0xA0 MSTORE PUSH2 0x11C JUMP JUMPDEST PUSH0 DUP1 SLOAD PUSH1 0x1 PUSH1 0x1 PUSH1 0xA0 SHL SUB DUP4 DUP2 AND PUSH1 0x1 PUSH1 0x1 PUSH1 0xA0 SHL SUB NOT DUP4 AND DUP2 OR DUP5 SSTORE PUSH1 0x40 MLOAD SWAP2 SWAP1 SWAP3 AND SWAP3 DUP4 SWAP2 PUSH32 0x8BE0079C531659141344CD1FD0A4F28419497F9722A3DAAFE3B4186F6B6457E0 SWAP2 SWAP1 LOG3 POP POP JUMP JUMPDEST DUP1 MLOAD PUSH1 0x1 PUSH1 0x1 PUSH1 0xA0 SHL SUB DUP2 AND DUP2 EQ PUSH2 0xE6 JUMPI PUSH0 PUSH0 REVERT JUMPDEST SWAP2 SWAP1 POP JUMP JUMPDEST PUSH0 PUSH0 PUSH1 0x40 DUP4 DUP6 SUB SLT ISZERO PUSH2 0xFC JUMPI PUSH0 PUSH0 REVERT JUMPDEST PUSH2 0x105 DUP4 PUSH2 0xD0 JUMP JUMPDEST SWAP2 POP PUSH2 0x113 PUSH1 0x20 DUP5 ADD PUSH2 0xD0 JUMP JUMPDEST SWAP1 POP SWAP3 POP SWAP3 SWAP1 POP JUMP JUMPDEST PUSH1 0x80 MLOAD PUSH1 0xA0 MLOAD PUSH2 0x14AA PUSH2 0x17C PUSH0 CODECOPY PUSH0 DUP2 DUP2 PUSH2 0x1C7 ADD MSTORE DUP2 DUP2 PUSH2 0x246 ADD MSTORE DUP2 DUP2 PUSH2 0x501 ADD MSTORE DUP2 DUP2 PUSH2 0xA62 ADD MSTORE DUP2 DUP2 PUSH2 0xD17 ADD MSTORE PUSH2 0xDE3 ADD MSTORE PUSH0 DUP2 DUP2 PUSH2 0x181 ADD MSTORE DUP2 DUP2 PUSH2 0x2F0 ADD MSTORE DUP2 DUP2 PUSH2 0x732 ADD MSTORE DUP2 DUP2 PUSH2 0x9C8 ADD MSTORE PUSH2 0xF17 ADD MSTORE PUSH2 0x14AA PUSH0 RETURN INVALID PUSH1 0x80 PUSH1 0x40 MSTORE CALLVALUE DUP1 ISZERO PUSH2 0xF JUMPI PUSH0 PUSH0 REVERT JUMPDEST POP PUSH1 0x4 CALLDATASIZE LT PUSH2 0x141 JUMPI PUSH0 CALLDATALOAD PUSH1 0xE0 SHR DUP1 PUSH4 0xB109BEEC GT PUSH2 0xC3 JUMPI DUP1 PUSH4 0xCE325BF8 GT PUSH2 0x88 JUMPI DUP1 PUSH4 0xD6EF7AF0 GT PUSH2 0x63 JUMPI DUP1 PUSH4 0xD6EF7AF0 EQ PUSH2 0x314 JUMPI DUP1 PUSH4 0xD93C04A0 EQ PUSH2 0x327 JUMPI DUP1 PUSH4 0xF2FDE38B EQ PUSH2 0x34F JUMPI PUSH0 PUSH0 REVERT JUMPDEST DUP1 PUSH4 0xCE325BF8 EQ PUSH2 0x29E JUMPI DUP1 PUSH4 0xD2D7231F EQ PUSH2 0x2DB JUMPI DUP1 PUSH4 0xD46149A2 EQ PUSH2 0x2EE JUMPI PUSH0 PUSH0 REVERT JUMPDEST DUP1 PUSH4 0xB109BEEC EQ PUSH2 0x241 JUMPI DUP1 PUSH4 0xB5FA91FE EQ PUSH2 0x268 JUMPI DUP1 PUSH4 0xB6BAFFE3 EQ PUSH2 0x270 JUMPI DUP1 PUSH4 0xBC854352 EQ PUSH2 0x278 JUMPI DUP1 PUSH4 0xBECEED39 EQ PUSH2 0x28B JUMPI PUSH0 PUSH0 REVERT JUMPDEST DUP1 PUSH4 0x8DA5CB5B GT PUSH2 0x109 JUMPI DUP1 PUSH4 0x8DA5CB5B EQ PUSH2 0x1EB JUMPI DUP1 PUSH4 0x8E12C0CD EQ PUSH2 0x1FB JUMPI DUP1 PUSH4 0x8F4729B7 EQ PUSH2 0x21C JUMPI DUP1 PUSH4 0xAC00500F EQ PUSH2 0x225 JUMPI DUP1 PUSH4 0xAF7568DD EQ PUSH2 0x238 JUMPI PUSH0 PUSH0 REVERT JUMPDEST DUP1 PUSH4 0x109CF399 EQ PUSH2 0x145 JUMPI DUP1 PUSH4 0x379607F5 EQ PUSH2 0x169 JUMPI DUP1 PUSH4 0x6DB08F25 EQ PUSH2 0x17C JUMPI DUP1 PUSH4 0x715018A6 EQ PUSH2 0x1BB JUMPI DUP1 PUSH4 0x7C2FDEB5 EQ PUSH2 0x1C5 JUMPI JUMPDEST PUSH0 PUSH0 REVERT JUMPDEST PUSH2 0x156 PUSH10 0x69E10DE76676D0800000 DUP2 JUMP JUMPDEST PUSH1 0x40 MLOAD SWAP1 DUP2 MSTORE PUSH1 0x20 ADD JUMPDEST PUSH1 0x40 MLOAD DUP1 SWAP2 SUB SWAP1 RETURN JUMPDEST PUSH2 0x156 PUSH2 0x177 CALLDATASIZE PUSH1 0x4 PUSH2 0x126A JUMP JUMPDEST PUSH2 0x362 JUMP JUMPDEST PUSH2 0x1A3 PUSH32 0x0 DUP2 JUMP JUMPDEST PUSH1 0x40 MLOAD PUSH1 0x1 PUSH1 0x1 PUSH1 0xA0 SHL SUB SWAP1 SWAP2 AND DUP2 MSTORE PUSH1 0x20 ADD PUSH2 0x160 JUMP JUMPDEST PUSH2 0x1C3 PUSH2 0x587 JUMP JUMPDEST STOP JUMPDEST PUSH32 0x0 PUSH2 0x1A3 JUMP JUMPDEST PUSH0 SLOAD PUSH1 0x1 PUSH1 0x1 PUSH1 0xA0 SHL SUB AND PUSH2 0x1A3 JUMP JUMPDEST PUSH2 0x204 PUSH2 0x2A30 DUP2 JUMP JUMPDEST PUSH1 0x40 MLOAD PUSH1 0x1 PUSH1 0x1 PUSH1 0x60 SHL SUB SWAP1 SWAP2 AND DUP2 MSTORE PUSH1 0x20 ADD PUSH2 0x160 JUMP JUMPDEST PUSH2 0x156 PUSH1 0x4 SLOAD DUP2 JUMP JUMPDEST PUSH2 0x1C3 PUSH2 0x233 CALLDATASIZE PUSH1 0x4 PUSH2 0x1281 JUMP JUMPDEST PUSH2 0x59A JUMP JUMPDEST PUSH2 0x156 PUSH1 0x3 SLOAD DUP2 JUMP JUMPDEST PUSH2 0x1A3 PUSH32 0x0 DUP2 JUMP JUMPDEST PUSH2 0x156 PUSH2 0x7B0 JUMP JUMPDEST PUSH2 0x156 PUSH2 0x7C5 JUMP JUMPDEST PUSH2 0x1C3 PUSH2 0x286 CALLDATASIZE PUSH1 0x4 PUSH2 0x12A1 JUMP JUMPDEST PUSH2 0x7EA JUMP JUMPDEST PUSH2 0x1C3 PUSH2 0x299 CALLDATASIZE PUSH1 0x4 PUSH2 0x126A JUMP JUMPDEST PUSH2 0x9FC JUMP JUMPDEST PUSH2 0x2B1 PUSH2 0x2AC CALLDATASIZE PUSH1 0x4 PUSH2 0x126A JUMP JUMPDEST PUSH2 0xAC8 JUMP JUMPDEST PUSH1 0x40 DUP1 MLOAD PUSH1 0x1 PUSH1 0x1 PUSH1 0xA0 SHL SUB SWAP1 SWAP6 AND DUP6 MSTORE PUSH1 0x20 DUP6 ADD SWAP4 SWAP1 SWAP4 MSTORE SWAP2 DUP4 ADD MSTORE PUSH1 0x60 DUP3 ADD MSTORE PUSH1 0x80 ADD PUSH2 0x160 JUMP JUMPDEST PUSH2 0x156 PUSH2 0x2E9 CALLDATASIZE PUSH1 0x4 PUSH2 0x126A JUMP JUMPDEST PUSH2 0xB65 JUMP JUMPDEST PUSH32 0x0 PUSH2 0x1A3 JUMP JUMPDEST PUSH2 0x1C3 PUSH2 0x322 CALLDATASIZE PUSH1 0x4 PUSH2 0x132D JUMP JUMPDEST PUSH2 0xCED JUMP JUMPDEST PUSH2 0x33A PUSH2 0x335 CALLDATASIZE PUSH1 0x4 PUSH2 0x1355 JUMP JUMPDEST PUSH2 0xE51 JUMP JUMPDEST PUSH1 0x40 DUP1 MLOAD SWAP3 DUP4 MSTORE PUSH1 0x20 DUP4 ADD SWAP2 SWAP1 SWAP2 MSTORE ADD PUSH2 0x160 JUMP JUMPDEST PUSH2 0x1C3 PUSH2 0x35D CALLDATASIZE PUSH1 0x4 PUSH2 0x137C JUMP JUMPDEST PUSH2 0x1086 JUMP JUMPDEST PUSH0 DUP2 PUSH0 DUP2 GT DUP1 ISZERO PUSH2 0x374 JUMPI POP PUSH1 0x2 SLOAD DUP2 LT JUMPDEST PUSH2 0x3C1 JUMPI PUSH1 0x40 MLOAD PUSH3 0x461BCD PUSH1 0xE5 SHL DUP2 MSTORE PUSH1 0x20 PUSH1 0x4 DUP3 ADD MSTORE PUSH1 0x19 PUSH1 0x24 DUP3 ADD MSTORE PUSH25 0x4D6F64756C65583A496E76616C6964205374616B6520494421 PUSH1 0x38 SHL PUSH1 0x44 DUP3 ADD MSTORE PUSH1 0x64 ADD JUMPDEST PUSH1 0x40 MLOAD DUP1 SWAP2 SUB SWAP1 REVERT JUMPDEST PUSH0 DUP4 DUP2 MSTORE PUSH1 0x1 PUSH1 0x20 MSTORE PUSH1 0x40 SWAP1 KECCAK256 DUP1 SLOAD PUSH1 0x1 PUSH1 0x1 PUSH1 0xA0 SHL SUB AND CALLER EQ PUSH2 0x427 JUMPI PUSH1 0x40 MLOAD PUSH3 0x461BCD PUSH1 0xE5 SHL DUP2 MSTORE PUSH1 0x20 PUSH1 0x4 DUP3 ADD MSTORE PUSH1 0x1F PUSH1 0x24 DUP3 ADD MSTORE PUSH32 0x4D6F64756C65583A43616C6C6572206973206E6F7420746865206F776E657200 PUSH1 0x44 DUP3 ADD MSTORE PUSH1 0x64 ADD PUSH2 0x3B8 JUMP JUMPDEST DUP1 SLOAD PUSH1 0x1 PUSH1 0xA0 SHL SWAP1 DIV PUSH1 0x1 PUSH1 0x1 PUSH1 0x60 SHL SUB AND TIMESTAMP PUSH1 0x1 PUSH1 0x1 PUSH1 0x60 SHL SUB AND LT ISZERO PUSH2 0x4A4 JUMPI PUSH1 0x40 MLOAD PUSH3 0x461BCD PUSH1 0xE5 SHL DUP2 MSTORE PUSH1 0x20 PUSH1 0x4 DUP3 ADD MSTORE PUSH1 0x2A PUSH1 0x24 DUP3 ADD MSTORE PUSH32 0x4D6F64756C65583A4561726C79205769746864726177616C206973206E6F7420 PUSH1 0x44 DUP3 ADD MSTORE PUSH10 0x7065726D697474656421 PUSH1 0xB0 SHL PUSH1 0x64 DUP3 ADD MSTORE PUSH1 0x84 ADD PUSH2 0x3B8 JUMP JUMPDEST PUSH0 DUP2 PUSH1 0x2 ADD SLOAD GT PUSH2 0x4F7 JUMPI PUSH1 0x40 MLOAD PUSH3 0x461BCD PUSH1 0xE5 SHL DUP2 MSTORE PUSH1 0x20 PUSH1 0x4 DUP3 ADD MSTORE PUSH1 0x18 PUSH1 0x24 DUP3 ADD MSTORE PUSH32 0x4D6F64756C65583A4E6F7468696E6720746F20636C61696D0000000000000000 PUSH1 0x44 DUP3 ADD MSTORE PUSH1 0x64 ADD PUSH2 0x3B8 JUMP JUMPDEST PUSH1 0x2 DUP2 ADD SLOAD PUSH2 0x530 PUSH32 0x0 PUSH1 0x1 PUSH1 0x1 PUSH1 0xA0 SHL SUB AND CALLER DUP4 PUSH2 0x10C3 JUMP JUMPDEST DUP1 PUSH1 0x4 PUSH0 DUP3 DUP3 SLOAD PUSH2 0x541 SWAP2 SWAP1 PUSH2 0x13B0 JUMP JUMPDEST SWAP1 SWAP2 SSTORE POP POP PUSH0 PUSH1 0x2 DUP4 ADD SSTORE PUSH1 0x40 MLOAD DUP6 DUP2 MSTORE PUSH32 0x67BB155FCABB99400C32B640DC7704C8F18AAE4C817704C7267C5A8CD26DFC19 SWAP1 PUSH1 0x20 ADD PUSH1 0x40 MLOAD DUP1 SWAP2 SUB SWAP1 LOG1 SWAP5 SWAP4 POP POP POP POP JUMP JUMPDEST PUSH2 0x58F PUSH2 0x1137 JUMP JUMPDEST PUSH2 0x598 PUSH0 PUSH2 0x1163 JUMP JUMPDEST JUMP JUMPDEST PUSH2 0x5A2 PUSH2 0x1137 JUMP JUMPDEST DUP2 PUSH0 DUP2 GT DUP1 ISZERO PUSH2 0x5B3 JUMPI POP PUSH1 0x2 SLOAD DUP2 LT JUMPDEST PUSH2 0x5FB JUMPI PUSH1 0x40 MLOAD PUSH3 0x461BCD PUSH1 0xE5 SHL DUP2 MSTORE PUSH1 0x20 PUSH1 0x4 DUP3 ADD MSTORE PUSH1 0x19 PUSH1 0x24 DUP3 ADD MSTORE PUSH25 0x4D6F64756C65583A496E76616C6964205374616B6520494421 PUSH1 0x38 SHL PUSH1 0x44 DUP3 ADD MSTORE PUSH1 0x64 ADD PUSH2 0x3B8 JUMP JUMPDEST PUSH0 DUP3 GT PUSH2 0x65C JUMPI PUSH1 0x40 MLOAD PUSH3 0x461BCD PUSH1 0xE5 SHL DUP2 MSTORE PUSH1 0x20 PUSH1 0x4 DUP3 ADD MSTORE PUSH1 0x29 PUSH1 0x24 DUP3 ADD MSTORE PUSH32 0x4D6F64756C65583A616D6F756E74206D75737420626520677265617465722074 PUSH1 0x44 DUP3 ADD MSTORE PUSH9 0x68616E207A65726F21 PUSH1 0xB8 SHL PUSH1 0x64 DUP3 ADD MSTORE PUSH1 0x84 ADD PUSH2 0x3B8 JUMP JUMPDEST PUSH0 DUP4 DUP2 MSTORE PUSH1 0x1 PUSH1 0x20 MSTORE PUSH1 0x40 SWAP1 KECCAK256 DUP1 SLOAD PUSH1 0x1 PUSH1 0xA0 SHL SWAP1 DIV PUSH1 0x1 PUSH1 0x1 PUSH1 0x60 SHL SUB AND TIMESTAMP PUSH1 0x1 PUSH1 0x1 PUSH1 0x60 SHL SUB AND GT ISZERO PUSH2 0x6CB JUMPI PUSH1 0x40 MLOAD PUSH3 0x461BCD PUSH1 0xE5 SHL DUP2 MSTORE PUSH1 0x20 PUSH1 0x4 DUP3 ADD MSTORE PUSH1 0x15 PUSH1 0x24 DUP3 ADD MSTORE PUSH21 0x4D6F64756C65583A4275726E7420746F6B656E7321 PUSH1 0x58 SHL PUSH1 0x44 DUP3 ADD MSTORE PUSH1 0x64 ADD PUSH2 0x3B8 JUMP JUMPDEST DUP1 PUSH1 0x1 ADD SLOAD DUP4 GT ISZERO PUSH2 0x71F JUMPI PUSH1 0x40 MLOAD PUSH3 0x461BCD PUSH1 0xE5 SHL DUP2 MSTORE PUSH1 0x20 PUSH1 0x4 DUP3 ADD MSTORE PUSH1 0x1D PUSH1 0x24 DUP3 ADD MSTORE PUSH32 0x4D6F64756C65583A496E73756666696369656E742062616C616E636521000000 PUSH1 0x44 DUP3 ADD MSTORE PUSH1 0x64 ADD PUSH2 0x3B8 JUMP JUMPDEST PUSH2 0x759 CALLER PUSH1 0x1 DUP4 ADD SLOAD PUSH1 0x1 PUSH1 0x1 PUSH1 0xA0 SHL SUB PUSH32 0x0 AND SWAP2 SWAP1 PUSH2 0x10C3 JUMP JUMPDEST DUP3 DUP2 PUSH1 0x1 ADD PUSH0 DUP3 DUP3 SLOAD PUSH2 0x76C SWAP2 SWAP1 PUSH2 0x13B0 JUMP JUMPDEST SWAP1 SWAP2 SSTORE POP POP PUSH1 0x40 DUP1 MLOAD DUP6 DUP2 MSTORE PUSH1 0x20 DUP2 ADD DUP6 SWAP1 MSTORE PUSH32 0x3A00E6132085CBC9EA18899CD135EF9CAD5D305D58506E08E7B1A9B96199A9C SWAP2 ADD PUSH1 0x40 MLOAD DUP1 SWAP2 SUB SWAP1 LOG1 POP POP POP POP JUMP JUMPDEST PUSH0 PUSH1 0x1 PUSH1 0x2 SLOAD PUSH2 0x7C0 SWAP2 SWAP1 PUSH2 0x13B0 JUMP JUMPDEST SWAP1 POP SWAP1 JUMP JUMPDEST PUSH0 PUSH1 0xB PUSH10 0x69E10DE76676D0800000 PUSH1 0x3 SLOAD PUSH2 0x7E0 SWAP2 SWAP1 PUSH2 0x13C9 JUMP JUMPDEST PUSH2 0x7C0 SWAP2 SWAP1 PUSH2 0x13E8 JUMP JUMPDEST PUSH2 0x7F2 PUSH2 0x1137 JUMP JUMPDEST PUSH0 DUP1 JUMPDEST DUP3 DUP2 LT ISZERO PUSH2 0x973 JUMPI PUSH1 0x2 SLOAD DUP5 DUP5 DUP4 DUP2 DUP2 LT PUSH2 0x812 JUMPI PUSH2 0x812 PUSH2 0x13FB JUMP JUMPDEST SWAP1 POP PUSH1 0x20 MUL ADD CALLDATALOAD LT PUSH2 0x862 JUMPI PUSH1 0x40 MLOAD PUSH3 0x461BCD PUSH1 0xE5 SHL DUP2 MSTORE PUSH1 0x20 PUSH1 0x4 DUP3 ADD MSTORE PUSH1 0x19 PUSH1 0x24 DUP3 ADD MSTORE PUSH25 0x4D6F64756C65583A496E76616C6964205374616B6520494421 PUSH1 0x38 SHL PUSH1 0x44 DUP3 ADD MSTORE PUSH1 0x64 ADD PUSH2 0x3B8 JUMP JUMPDEST PUSH0 PUSH1 0x1 PUSH0 DUP7 DUP7 DUP6 DUP2 DUP2 LT PUSH2 0x878 JUMPI PUSH2 0x878 PUSH2 0x13FB JUMP JUMPDEST PUSH1 0x20 SWAP1 DUP2 MUL SWAP3 SWAP1 SWAP3 ADD CALLDATALOAD DUP4 MSTORE POP DUP2 ADD SWAP2 SWAP1 SWAP2 MSTORE PUSH1 0x40 ADD PUSH0 KECCAK256 DUP1 SLOAD SWAP1 SWAP2 POP PUSH1 0x1 PUSH1 0xA0 SHL SWAP1 DIV PUSH1 0x1 PUSH1 0x1 PUSH1 0x60 SHL SUB AND TIMESTAMP PUSH1 0x1 PUSH1 0x1 PUSH1 0x60 SHL SUB AND GT ISZERO PUSH2 0x8F5 JUMPI PUSH1 0x40 MLOAD PUSH3 0x461BCD PUSH1 0xE5 SHL DUP2 MSTORE PUSH1 0x20 PUSH1 0x4 DUP3 ADD MSTORE PUSH1 0x15 PUSH1 0x24 DUP3 ADD MSTORE PUSH21 0x4D6F64756C65583A4275726E7420746F6B656E7321 PUSH1 0x58 SHL PUSH1 0x44 DUP3 ADD MSTORE PUSH1 0x64 ADD PUSH2 0x3B8 JUMP JUMPDEST PUSH1 0x1 DUP2 ADD SLOAD PUSH2 0x904 SWAP1 DUP5 PUSH2 0x13E8 JUMP JUMPDEST PUSH0 PUSH1 0x1 DUP4 ADD SSTORE SWAP3 POP PUSH32 0x3A00E6132085CBC9EA18899CD135EF9CAD5D305D58506E08E7B1A9B96199A9C DUP6 DUP6 DUP5 DUP2 DUP2 LT PUSH2 0x93F JUMPI PUSH2 0x93F PUSH2 0x13FB JUMP JUMPDEST SWAP1 POP PUSH1 0x20 MUL ADD CALLDATALOAD DUP3 PUSH1 0x1 ADD SLOAD PUSH1 0x40 MLOAD PUSH2 0x962 SWAP3 SWAP2 SWAP1 SWAP2 DUP3 MSTORE PUSH1 0x20 DUP3 ADD MSTORE PUSH1 0x40 ADD SWAP1 JUMP JUMPDEST PUSH1 0x40 MLOAD DUP1 SWAP2 SUB SWAP1 LOG1 POP PUSH1 0x1 ADD PUSH2 0x7F5 JUMP JUMPDEST POP PUSH0 DUP2 GT PUSH2 0x9C3 JUMPI PUSH1 0x40 MLOAD PUSH3 0x461BCD PUSH1 0xE5 SHL DUP2 MSTORE PUSH1 0x20 PUSH1 0x4 DUP3 ADD MSTORE PUSH1 0x1A PUSH1 0x24 DUP3 ADD MSTORE PUSH32 0x4D6F64756C65583A546F74616C20616D6F756E74206973203021000000000000 PUSH1 0x44 DUP3 ADD MSTORE PUSH1 0x64 ADD PUSH2 0x3B8 JUMP JUMPDEST PUSH2 0x9F7 PUSH32 0x0 PUSH1 0x1 PUSH1 0x1 PUSH1 0xA0 SHL SUB AND CALLER DUP4 PUSH2 0x10C3 JUMP JUMPDEST POP POP POP JUMP JUMPDEST PUSH0 DUP2 GT PUSH2 0xA5D JUMPI PUSH1 0x40 MLOAD PUSH3 0x461BCD PUSH1 0xE5 SHL DUP2 MSTORE PUSH1 0x20 PUSH1 0x4 DUP3 ADD MSTORE PUSH1 0x29 PUSH1 0x24 DUP3 ADD MSTORE PUSH32 0x4D6F64756C65583A616D6F756E74206D75737420626520677265617465722074 PUSH1 0x44 DUP3 ADD MSTORE PUSH9 0x68616E207A65726F21 PUSH1 0xB8 SHL PUSH1 0x64 DUP3 ADD MSTORE PUSH1 0x84 ADD PUSH2 0x3B8 JUMP JUMPDEST PUSH2 0xA92 PUSH32 0x0 PUSH1 0x1 PUSH1 0x1 PUSH1 0xA0 SHL SUB AND CALLER ADDRESS DUP5 PUSH2 0x11BF JUMP JUMPDEST PUSH1 0x40 MLOAD DUP2 DUP2 MSTORE PUSH32 0xDE88A922E0D3B88B24E9623EFEB464919C6BF9F66857A65E2BFCF2CE87A9433D SWAP1 PUSH1 0x20 ADD PUSH1 0x40 MLOAD DUP1 SWAP2 SUB SWAP1 LOG1 POP JUMP JUMPDEST PUSH0 PUSH0 PUSH0 PUSH0 DUP5 PUSH0 DUP2 GT DUP1 ISZERO PUSH2 0xADD JUMPI POP PUSH1 0x2 SLOAD DUP2 LT JUMPDEST PUSH2 0xB25 JUMPI PUSH1 0x40 MLOAD PUSH3 0x461BCD PUSH1 0xE5 SHL DUP2 MSTORE PUSH1 0x20 PUSH1 0x4 DUP3 ADD MSTORE PUSH1 0x19 PUSH1 0x24 DUP3 ADD MSTORE PUSH25 0x4D6F64756C65583A496E76616C6964205374616B6520494421 PUSH1 0x38 SHL PUSH1 0x44 DUP3 ADD MSTORE PUSH1 0x64 ADD PUSH2 0x3B8 JUMP JUMPDEST POP POP POP PUSH0 SWAP3 DUP4 MSTORE POP POP PUSH1 0x1 PUSH1 0x20 DUP2 SWAP1 MSTORE PUSH1 0x40 SWAP1 SWAP2 KECCAK256 DUP1 SLOAD SWAP2 DUP2 ADD SLOAD PUSH1 0x2 SWAP1 SWAP2 ADD SLOAD PUSH1 0x1 PUSH1 0x1 PUSH1 0xA0 SHL SUB DUP4 AND SWAP4 PUSH1 0x1 PUSH1 0xA0 SHL SWAP1 SWAP4 DIV PUSH1 0x1 PUSH1 0x1 PUSH1 0x60 SHL SUB AND SWAP3 JUMP JUMPDEST PUSH0 PUSH0 PUSH8 0xDE0B6B3A7640000 SWAP1 POP PUSH0 DUP4 PUSH1 0x3 SLOAD PUSH2 0xB81 SWAP2 SWAP1 PUSH2 0x13E8 JUMP JUMPDEST SWAP1 POP PUSH0 PUSH10 0x69E10DE76676D0800000 PUSH1 0x3 SLOAD PUSH2 0xB9C SWAP2 SWAP1 PUSH2 0x13C9 JUMP JUMPDEST SWAP1 POP PUSH0 PUSH2 0xBB3 PUSH10 0x69E10DE76676D0800000 DUP5 PUSH2 0x13C9 JUMP JUMPDEST SWAP1 POP DUP1 DUP3 SUB PUSH2 0xBDB JUMPI PUSH2 0xBC7 PUSH1 0xB DUP4 PUSH2 0x13E8 JUMP JUMPDEST PUSH2 0xBD1 SWAP1 DUP8 PUSH2 0x13C9 JUMP JUMPDEST SWAP7 SWAP6 POP POP POP POP POP POP JUMP JUMPDEST PUSH0 PUSH2 0xBE7 PUSH1 0xB DUP5 PUSH2 0x13E8 JUMP JUMPDEST PUSH1 0x3 SLOAD PUSH10 0x69E10DE76676D0800000 PUSH2 0xC00 DUP7 PUSH1 0x1 PUSH2 0x13E8 JUMP JUMPDEST PUSH2 0xC0A SWAP2 SWAP1 PUSH2 0x140F JUMP JUMPDEST PUSH2 0xC14 SWAP2 SWAP1 PUSH2 0x13B0 JUMP JUMPDEST PUSH2 0xC1E SWAP1 DUP8 PUSH2 0x140F JUMP JUMPDEST PUSH2 0xC28 SWAP2 SWAP1 PUSH2 0x13C9 JUMP JUMPDEST SWAP1 POP PUSH0 PUSH2 0xC36 PUSH1 0xB DUP5 PUSH2 0x13E8 JUMP JUMPDEST PUSH2 0xC4A PUSH10 0x69E10DE76676D0800000 DUP6 PUSH2 0x140F JUMP JUMPDEST PUSH2 0xC54 SWAP1 DUP8 PUSH2 0x13B0 JUMP JUMPDEST PUSH2 0xC5E SWAP1 DUP9 PUSH2 0x140F JUMP JUMPDEST PUSH2 0xC68 SWAP2 SWAP1 PUSH2 0x13C9 JUMP JUMPDEST SWAP1 POP PUSH0 DUP1 PUSH2 0xC77 DUP7 PUSH1 0x1 PUSH2 0x13E8 JUMP JUMPDEST SWAP1 POP JUMPDEST DUP5 DUP2 LT ISZERO PUSH2 0xCBF JUMPI PUSH2 0xC8D PUSH1 0xB DUP3 PUSH2 0x13E8 JUMP JUMPDEST PUSH2 0xCA1 PUSH10 0x69E10DE76676D0800000 DUP11 PUSH2 0x140F JUMP JUMPDEST PUSH2 0xCAB SWAP2 SWAP1 PUSH2 0x13C9 JUMP JUMPDEST PUSH2 0xCB5 SWAP1 DUP4 PUSH2 0x13E8 JUMP JUMPDEST SWAP2 POP PUSH1 0x1 ADD PUSH2 0xC7A JUMP JUMPDEST POP DUP7 DUP3 PUSH2 0xCCC DUP4 DUP7 PUSH2 0x13E8 JUMP JUMPDEST PUSH2 0xCD6 SWAP2 SWAP1 PUSH2 0x13E8 JUMP JUMPDEST PUSH2 0xCE0 SWAP2 SWAP1 PUSH2 0x13C9 JUMP JUMPDEST SWAP10 SWAP9 POP POP POP POP POP POP POP POP POP JUMP JUMPDEST PUSH2 0xCF5 PUSH2 0x1137 JUMP JUMPDEST PUSH1 0x4 SLOAD PUSH2 0xD02 SWAP1 DUP3 PUSH2 0x13E8 JUMP JUMPDEST PUSH1 0x40 MLOAD PUSH4 0x70A08231 PUSH1 0xE0 SHL DUP2 MSTORE ADDRESS PUSH1 0x4 DUP3 ADD MSTORE PUSH32 0x0 PUSH1 0x1 PUSH1 0x1 PUSH1 0xA0 SHL SUB AND SWAP1 PUSH4 0x70A08231 SWAP1 PUSH1 0x24 ADD PUSH1 0x20 PUSH1 0x40 MLOAD DUP1 DUP4 SUB DUP2 DUP7 GAS STATICCALL ISZERO DUP1 ISZERO PUSH2 0xD64 JUMPI RETURNDATASIZE PUSH0 PUSH0 RETURNDATACOPY RETURNDATASIZE PUSH0 REVERT JUMPDEST POP POP POP POP PUSH1 0x40 MLOAD RETURNDATASIZE PUSH1 0x1F NOT PUSH1 0x1F DUP3 ADD AND DUP3 ADD DUP1 PUSH1 0x40 MSTORE POP DUP2 ADD SWAP1 PUSH2 0xD88 SWAP2 SWAP1 PUSH2 0x1426 JUMP JUMPDEST LT ISZERO PUSH2 0xDD6 JUMPI PUSH1 0x40 MLOAD PUSH3 0x461BCD PUSH1 0xE5 SHL DUP2 MSTORE PUSH1 0x20 PUSH1 0x4 DUP3 ADD MSTORE PUSH1 0x1D PUSH1 0x24 DUP3 ADD MSTORE PUSH32 0x4D6F64756C65583A496E73756666696369656E742062616C616E636521000000 PUSH1 0x44 DUP3 ADD MSTORE PUSH1 0x64 ADD PUSH2 0x3B8 JUMP JUMPDEST PUSH2 0xE0A PUSH1 0x1 PUSH1 0x1 PUSH1 0xA0 SHL SUB PUSH32 0x0 AND DUP4 DUP4 PUSH2 0x10C3 JUMP JUMPDEST DUP2 PUSH1 0x1 PUSH1 0x1 PUSH1 0xA0 SHL SUB AND PUSH32 0x1D3EEE4CA001CFF39EEC6EC7615AACF2F2BD61791273830728BA00CCBD6E1337 DUP3 PUSH1 0x40 MLOAD PUSH2 0xE45 SWAP2 DUP2 MSTORE PUSH1 0x20 ADD SWAP1 JUMP JUMPDEST PUSH1 0x40 MLOAD DUP1 SWAP2 SUB SWAP1 LOG2 POP POP JUMP JUMPDEST PUSH0 PUSH0 PUSH0 DUP4 GT PUSH2 0xEB7 JUMPI PUSH1 0x40 MLOAD PUSH3 0x461BCD PUSH1 0xE5 SHL DUP2 MSTORE PUSH1 0x20 PUSH1 0x4 DUP3 ADD MSTORE PUSH1 0x2C PUSH1 0x24 DUP3 ADD MSTORE PUSH32 0x4D6F64756C65583A5374616B6520616D6F756E74206D75737420626520677265 PUSH1 0x44 DUP3 ADD MSTORE PUSH12 0x61746572207468616E203021 PUSH1 0xA0 SHL PUSH1 0x64 DUP3 ADD MSTORE PUSH1 0x84 ADD PUSH2 0x3B8 JUMP JUMPDEST PUSH2 0x2A30 PUSH1 0x1 PUSH1 0x1 PUSH1 0x60 SHL SUB DUP6 AND LT ISZERO PUSH2 0xF12 JUMPI PUSH1 0x40 MLOAD PUSH3 0x461BCD PUSH1 0xE5 SHL DUP2 MSTORE PUSH1 0x20 PUSH1 0x4 DUP3 ADD MSTORE PUSH1 0x1F PUSH1 0x24 DUP3 ADD MSTORE PUSH32 0x4D6F64756C65583A557365206C6F6E676572206C6F636B5F706572696F642100 PUSH1 0x44 DUP3 ADD MSTORE PUSH1 0x64 ADD PUSH2 0x3B8 JUMP JUMPDEST PUSH2 0xF47 PUSH32 0x0 PUSH1 0x1 PUSH1 0x1 PUSH1 0xA0 SHL SUB AND CALLER ADDRESS DUP7 PUSH2 0x11BF JUMP JUMPDEST PUSH0 PUSH2 0xF52 DUP6 TIMESTAMP PUSH2 0x143D JUMP JUMPDEST SWAP1 POP PUSH0 PUSH2 0xF5E DUP6 PUSH2 0xB65 JUMP JUMPDEST SWAP1 POP PUSH0 PUSH1 0x2 SLOAD SWAP1 POP PUSH1 0x40 MLOAD DUP1 PUSH1 0x80 ADD PUSH1 0x40 MSTORE DUP1 PUSH2 0xF78 CALLER SWAP1 JUMP JUMPDEST PUSH1 0x1 PUSH1 0x1 PUSH1 0xA0 SHL SUB SWAP1 DUP2 AND DUP3 MSTORE PUSH1 0x1 PUSH1 0x1 PUSH1 0x60 SHL SUB DUP7 DUP2 AND PUSH1 0x20 DUP1 DUP6 ADD SWAP2 SWAP1 SWAP2 MSTORE PUSH1 0x40 DUP1 DUP6 ADD DUP13 SWAP1 MSTORE PUSH1 0x60 SWAP5 DUP6 ADD DUP9 SWAP1 MSTORE PUSH0 DUP8 DUP2 MSTORE PUSH1 0x1 DUP1 DUP5 MSTORE DUP3 DUP3 KECCAK256 DUP9 MLOAD SWAP5 DUP10 ADD MLOAD SWAP5 SWAP1 SWAP7 AND PUSH1 0x1 PUSH1 0xA0 SHL SWAP5 SWAP1 SWAP6 AND SWAP4 SWAP1 SWAP4 MUL SWAP4 SWAP1 SWAP4 OR DUP5 SSTORE DUP6 ADD MLOAD SWAP1 DUP4 ADD SSTORE SWAP3 SWAP1 SWAP2 ADD MLOAD PUSH1 0x2 SWAP1 SWAP2 ADD SSTORE PUSH1 0x3 DUP1 SLOAD DUP9 SWAP3 SWAP1 PUSH2 0xFF6 SWAP1 DUP5 SWAP1 PUSH2 0x13E8 JUMP JUMPDEST SWAP3 POP POP DUP2 SWAP1 SSTORE POP DUP2 PUSH1 0x4 PUSH0 DUP3 DUP3 SLOAD PUSH2 0x100E SWAP2 SWAP1 PUSH2 0x13E8 JUMP JUMPDEST SWAP1 SWAP2 SSTORE POP POP PUSH1 0x40 DUP1 MLOAD DUP3 DUP2 MSTORE PUSH1 0x1 PUSH1 0x1 PUSH1 0x60 SHL SUB DUP6 AND PUSH1 0x20 DUP3 ADD MSTORE DUP1 DUP3 ADD DUP9 SWAP1 MSTORE PUSH1 0x60 DUP2 ADD DUP5 SWAP1 MSTORE SWAP1 MLOAD CALLER SWAP2 PUSH32 0x24FE2D25C10EB2C67B5AC1E3EDBCADC94191E154ED388AD667A9480C44F47146 SWAP2 SWAP1 DUP2 SWAP1 SUB PUSH1 0x80 ADD SWAP1 LOG2 PUSH1 0x2 DUP1 SLOAD SWAP1 PUSH0 PUSH2 0x1074 DUP4 PUSH2 0x145C JUMP JUMPDEST SWAP1 SWAP2 SSTORE POP SWAP1 SWAP8 SWAP2 SWAP7 POP SWAP1 SWAP5 POP POP POP POP POP JUMP JUMPDEST PUSH2 0x108E PUSH2 0x1137 JUMP JUMPDEST PUSH1 0x1 PUSH1 0x1 PUSH1 0xA0 SHL SUB DUP2 AND PUSH2 0x10B7 JUMPI PUSH1 0x40 MLOAD PUSH4 0x1E4FBDF7 PUSH1 0xE0 SHL DUP2 MSTORE PUSH0 PUSH1 0x4 DUP3 ADD MSTORE PUSH1 0x24 ADD PUSH2 0x3B8 JUMP JUMPDEST PUSH2 0x10C0 DUP2 PUSH2 0x1163 JUMP JUMPDEST POP JUMP JUMPDEST PUSH1 0x40 MLOAD PUSH1 0x1 PUSH1 0x1 PUSH1 0xA0 SHL SUB DUP4 DUP2 AND PUSH1 0x24 DUP4 ADD MSTORE PUSH1 0x44 DUP3 ADD DUP4 SWAP1 MSTORE PUSH2 0x9F7 SWAP2 DUP6 SWAP2 DUP3 AND SWAP1 PUSH4 0xA9059CBB SWAP1 PUSH1 0x64 ADD JUMPDEST PUSH1 0x40 MLOAD PUSH1 0x20 DUP2 DUP4 SUB SUB DUP2 MSTORE SWAP1 PUSH1 0x40 MSTORE SWAP2 POP PUSH1 0xE0 SHL PUSH1 0x20 DUP3 ADD DUP1 MLOAD PUSH28 0xFFFFFFFFFFFFFFFFFFFFFFFFFFFFFFFFFFFFFFFFFFFFFFFFFFFFFFFF DUP4 DUP2 DUP4 AND OR DUP4 MSTORE POP POP POP POP PUSH2 0x11FE JUMP JUMPDEST PUSH0 SLOAD PUSH1 0x1 PUSH1 0x1 PUSH1 0xA0 SHL SUB AND CALLER EQ PUSH2 0x598 JUMPI PUSH1 0x40 MLOAD PUSH4 0x118CDAA7 PUSH1 0xE0 SHL DUP2 MSTORE CALLER PUSH1 0x4 DUP3 ADD MSTORE PUSH1 0x24 ADD PUSH2 0x3B8 JUMP JUMPDEST PUSH0 DUP1 SLOAD PUSH1 0x1 PUSH1 0x1 PUSH1 0xA0 SHL SUB DUP4 DUP2 AND PUSH20 0xFFFFFFFFFFFFFFFFFFFFFFFFFFFFFFFFFFFFFFFF NOT DUP4 AND DUP2 OR DUP5 SSTORE PUSH1 0x40 MLOAD SWAP2 SWAP1 SWAP3 AND SWAP3 DUP4 SWAP2 PUSH32 0x8BE0079C531659141344CD1FD0A4F28419497F9722A3DAAFE3B4186F6B6457E0 SWAP2 SWAP1 LOG3 POP POP JUMP JUMPDEST PUSH1 0x40 MLOAD PUSH1 0x1 PUSH1 0x1 PUSH1 0xA0 SHL SUB DUP5 DUP2 AND PUSH1 0x24 DUP4 ADD MSTORE DUP4 DUP2 AND PUSH1 0x44 DUP4 ADD MSTORE PUSH1 0x64 DUP3 ADD DUP4 SWAP1 MSTORE PUSH2 0x11F8 SWAP2 DUP7 SWAP2 DUP3 AND SWAP1 PUSH4 0x23B872DD SWAP1 PUSH1 0x84 ADD PUSH2 0x10F0 JUMP JUMPDEST POP POP POP POP JUMP JUMPDEST PUSH0 PUSH0 PUSH1 0x20 PUSH0 DUP5 MLOAD PUSH1 0x20 DUP7 ADD PUSH0 DUP9 GAS CALL DUP1 PUSH2 0x121D JUMPI PUSH1 0x40 MLOAD RETURNDATASIZE PUSH0 DUP3 RETURNDATACOPY RETURNDATASIZE DUP2 REVERT JUMPDEST POP POP PUSH0 MLOAD RETURNDATASIZE SWAP2 POP DUP2 ISZERO PUSH2 0x1234 JUMPI DUP1 PUSH1 0x1 EQ ISZERO PUSH2 0x1241 JUMP JUMPDEST PUSH1 0x1 PUSH1 0x1 PUSH1 0xA0 SHL SUB DUP5 AND EXTCODESIZE ISZERO JUMPDEST ISZERO PUSH2 0x11F8 JUMPI PUSH1 0x40 MLOAD PUSH4 0x5274AFE7 PUSH1 0xE0 SHL DUP2 MSTORE PUSH1 0x1 PUSH1 0x1 PUSH1 0xA0 SHL SUB DUP6 AND PUSH1 0x4 DUP3 ADD MSTORE PUSH1 0x24 ADD PUSH2 0x3B8 JUMP JUMPDEST PUSH0 PUSH1 0x20 DUP3 DUP5 SUB SLT ISZERO PUSH2 0x127A JUMPI PUSH0 PUSH0 REVERT JUMPDEST POP CALLDATALOAD SWAP2 SWAP1 POP JUMP JUMPDEST PUSH0 PUSH0 PUSH1 0x40 DUP4 DUP6 SUB SLT ISZERO PUSH2 0x1292 JUMPI PUSH0 PUSH0 REVERT JUMPDEST POP POP DUP1 CALLDATALOAD SWAP3 PUSH1 0x20 SWAP1 SWAP2 ADD CALLDATALOAD SWAP2 POP JUMP JUMPDEST PUSH0 PUSH0 PUSH1 0x20 DUP4 DUP6 SUB SLT ISZERO PUSH2 0x12B2 JUMPI PUSH0 PUSH0 REVERT JUMPDEST DUP3 CALLDATALOAD PUSH8 0xFFFFFFFFFFFFFFFF DUP2 GT ISZERO PUSH2 0x12C8 JUMPI PUSH0 PUSH0 REVERT JUMPDEST DUP4 ADD PUSH1 0x1F DUP2 ADD DUP6 SGT PUSH2 0x12D8 JUMPI PUSH0 PUSH0 REVERT JUMPDEST DUP1 CALLDATALOAD PUSH8 0xFFFFFFFFFFFFFFFF DUP2 GT ISZERO PUSH2 0x12EE JUMPI PUSH0 PUSH0 REVERT JUMPDEST DUP6 PUSH1 0x20 DUP3 PUSH1 0x5 SHL DUP5 ADD ADD GT ISZERO PUSH2 0x1302 JUMPI PUSH0 PUSH0 REVERT JUMPDEST PUSH1 0x20 SWAP2 SWAP1 SWAP2 ADD SWAP6 SWAP1 SWAP5 POP SWAP3 POP POP POP JUMP JUMPDEST DUP1 CALLDATALOAD PUSH1 0x1 PUSH1 0x1 PUSH1 0xA0 SHL SUB DUP2 AND DUP2 EQ PUSH2 0x1328 JUMPI PUSH0 PUSH0 REVERT JUMPDEST SWAP2 SWAP1 POP JUMP JUMPDEST PUSH0 PUSH0 PUSH1 0x40 DUP4 DUP6 SUB SLT ISZERO PUSH2 0x133E JUMPI PUSH0 PUSH0 REVERT JUMPDEST PUSH2 0x1347 DUP4 PUSH2 0x1312 JUMP JUMPDEST SWAP5 PUSH1 0x20 SWAP4 SWAP1 SWAP4 ADD CALLDATALOAD SWAP4 POP POP POP JUMP JUMPDEST PUSH0 PUSH0 PUSH1 0x40 DUP4 DUP6 SUB SLT ISZERO PUSH2 0x1366 JUMPI PUSH0 PUSH0 REVERT JUMPDEST DUP3 CALLDATALOAD PUSH1 0x1 PUSH1 0x1 PUSH1 0x60 SHL SUB DUP2 AND DUP2 EQ PUSH2 0x1347 JUMPI PUSH0 PUSH0 REVERT JUMPDEST PUSH0 PUSH1 0x20 DUP3 DUP5 SUB SLT ISZERO PUSH2 0x138C JUMPI PUSH0 PUSH0 REVERT JUMPDEST PUSH2 0x1395 DUP3 PUSH2 0x1312 JUMP JUMPDEST SWAP4 SWAP3 POP POP POP JUMP JUMPDEST PUSH4 0x4E487B71 PUSH1 0xE0 SHL PUSH0 MSTORE PUSH1 0x11 PUSH1 0x4 MSTORE PUSH1 0x24 PUSH0 REVERT JUMPDEST DUP2 DUP2 SUB DUP2 DUP2 GT ISZERO PUSH2 0x13C3 JUMPI PUSH2 0x13C3 PUSH2 0x139C JUMP JUMPDEST SWAP3 SWAP2 POP POP JUMP JUMPDEST PUSH0 DUP3 PUSH2 0x13E3 JUMPI PUSH4 0x4E487B71 PUSH1 0xE0 SHL PUSH0 MSTORE PUSH1 0x12 PUSH1 0x4 MSTORE PUSH1 0x24 PUSH0 REVERT JUMPDEST POP DIV SWAP1 JUMP JUMPDEST DUP1 DUP3 ADD DUP1 DUP3 GT ISZERO PUSH2 0x13C3 JUMPI PUSH2 0x13C3 PUSH2 0x139C JUMP JUMPDEST PUSH4 0x4E487B71 PUSH1 0xE0 SHL PUSH0 MSTORE PUSH1 0x32 PUSH1 0x4 MSTORE PUSH1 0x24 PUSH0 REVERT JUMPDEST DUP1 DUP3 MUL DUP2 ISZERO DUP3 DUP3 DIV DUP5 EQ OR PUSH2 0x13C3 JUMPI PUSH2 0x13C3 PUSH2 0x139C JUMP JUMPDEST PUSH0 PUSH1 0x20 DUP3 DUP5 SUB SLT ISZERO PUSH2 0x1436 JUMPI PUSH0 PUSH0 REVERT JUMPDEST POP MLOAD SWAP2 SWAP1 POP JUMP JUMPDEST PUSH1 0x1 PUSH1 0x1 PUSH1 0x60 SHL SUB DUP2 DUP2 AND DUP4 DUP3 AND ADD SWAP1 DUP2 GT ISZERO PUSH2 0x13C3 JUMPI PUSH2 0x13C3 PUSH2 0x139C JUMP JUMPDEST PUSH0 PUSH1 0x1 DUP3 ADD PUSH2 0x146D JUMPI PUSH2 0x146D PUSH2 0x139C JUMP JUMPDEST POP PUSH1 0x1 ADD SWAP1 JUMP INVALID LOG2 PUSH5 0x6970667358 0x22 SLT KECCAK256 SWAP1 PUSH23 0x88C842296BEB3D759F6B8AABCA99F354693326AE041CED NUMBER SHR CALLDATACOPY SWAP13 PUSH21 0x726F64736F6C634300081E00330000000000000000 "
		},
		"gasEstimates": {
			"creation": {
				"codeDepositCost": "1058000",
				"executionCost": "infinite",
				"totalCost": "infinite"
			},
			"external": {
				"CREDI()": "infinite",
				"DIFFICULTY_INTERVAL()": "207",
				"MATURITY()": "260",
				"addRewards(uint256)": "infinite",
				"batchWithdrawCREDI(uint256[])": "infinite",
				"calculateReward(uint256)": "infinite",
				"claim(uint256)": "infinite",
				"getCREDIAddress()": "infinite",
				"getDifficulty()": "2509",
				"getStake(uint256)": "9039",
				"getStakesCount()": "2425",
				"getxCREDIAddress()": "infinite",
				"owner()": "2352",
				"pending_payments()": "2350",
				"renounceOwnership()": "infinite",
				"stake(uint96,uint256)": "infinite",
				"total_staked()": "2394",
				"transferOwnership(address)": "28405",
				"withdrawCREDI(uint256,uint256)": "infinite",
				"withdrawRewards(address,uint256)": "infinite",
				"xCREDI()": "infinite"
			},
			"internal": {
				"time_now()": "infinite"
			}
		},
		"methodIdentifiers": {
			"CREDI()": "6db08f25",
			"DIFFICULTY_INTERVAL()": "109cf399",
			"MATURITY()": "8e12c0cd",
			"addRewards(uint256)": "beceed39",
			"batchWithdrawCREDI(uint256[])": "bc854352",
			"calculateReward(uint256)": "d2d7231f",
			"claim(uint256)": "379607f5",
			"getCREDIAddress()": "d46149a2",
			"getDifficulty()": "b6baffe3",
			"getStake(uint256)": "ce325bf8",
			"getStakesCount()": "b5fa91fe",
			"getxCREDIAddress()": "7c2fdeb5",
			"owner()": "8da5cb5b",
			"pending_payments()": "8f4729b7",
			"renounceOwnership()": "715018a6",
			"stake(uint96,uint256)": "d93c04a0",
			"total_staked()": "af7568dd",
			"transferOwnership(address)": "f2fde38b",
			"withdrawCREDI(uint256,uint256)": "ac00500f",
			"withdrawRewards(address,uint256)": "d6ef7af0",
			"xCREDI()": "b109beec"
		}
	},
	"abi": [
		{
			"inputs": [
				{
					"internalType": "address",
					"name": "_credi_addr",
					"type": "address"
				},
				{
					"internalType": "address",
					"name": "_xcredi_addr",
					"type": "address"
				}
			],
			"stateMutability": "nonpayable",
			"type": "constructor"
		},
		{
			"inputs": [
				{
					"internalType": "address",
					"name": "owner",
					"type": "address"
				}
			],
			"name": "OwnableInvalidOwner",
			"type": "error"
		},
		{
			"inputs": [
				{
					"internalType": "address",
					"name": "account",
					"type": "address"
				}
			],
			"name": "OwnableUnauthorizedAccount",
			"type": "error"
		},
		{
			"inputs": [
				{
					"internalType": "address",
					"name": "token",
					"type": "address"
				}
			],
			"name": "SafeERC20FailedOperation",
			"type": "error"
		},
		{
			"anonymous": false,
			"inputs": [
				{
					"indexed": false,
					"internalType": "uint256",
					"name": "stake_id",
					"type": "uint256"
				},
				{
					"indexed": false,
					"internalType": "uint256",
					"name": "amount",
					"type": "uint256"
				}
			],
			"name": "CREDIWithdrawn",
			"type": "event"
		},
		{
			"anonymous": false,
			"inputs": [
				{
					"indexed": true,
					"internalType": "address",
					"name": "previousOwner",
					"type": "address"
				},
				{
					"indexed": true,
					"internalType": "address",
					"name": "newOwner",
					"type": "address"
				}
			],
			"name": "OwnershipTransferred",
			"type": "event"
		},
		{
			"anonymous": false,
			"inputs": [
				{
					"indexed": false,
					"internalType": "uint256",
					"name": "amount",
					"type": "uint256"
				}
			],
			"name": "RewardAdded",
			"type": "event"
		},
		{
			"anonymous": false,
			"inputs": [
				{
					"indexed": false,
					"internalType": "uint256",
					"name": "stake_id",
					"type": "uint256"
				}
			],
			"name": "RewardPaid",
			"type": "event"
		},
		{
			"anonymous": false,
			"inputs": [
				{
					"indexed": true,
					"internalType": "address",
					"name": "to",
					"type": "address"
				},
				{
					"indexed": false,
					"internalType": "uint256",
					"name": "amount",
					"type": "uint256"
				}
			],
			"name": "RewardWithdrawn",
			"type": "event"
		},
		{
			"anonymous": false,
			"inputs": [
				{
					"indexed": true,
					"internalType": "address",
					"name": "user",
					"type": "address"
				},
				{
					"indexed": false,
					"internalType": "uint256",
					"name": "stake_id",
					"type": "uint256"
				},
				{
					"indexed": false,
					"internalType": "uint96",
					"name": "maturity",
					"type": "uint96"
				},
				{
					"indexed": false,
					"internalType": "uint256",
					"name": "stake_amount",
					"type": "uint256"
				},
				{
					"indexed": false,
					"internalType": "uint256",
					"name": "rewards_amount",
					"type": "uint256"
				}
			],
			"name": "Staked",
			"type": "event"
		},
		{
			"inputs": [],
			"name": "CREDI",
			"outputs": [
				{
					"internalType": "contract IERC20",
					"name": "",
					"type": "address"
				}
			],
			"stateMutability": "view",
			"type": "function"
		},
		{
			"inputs": [],
			"name": "DIFFICULTY_INTERVAL",
			"outputs": [
				{
					"internalType": "uint256",
					"name": "",
					"type": "uint256"
				}
			],
			"stateMutability": "view",
			"type": "function"
		},
		{
			"inputs": [],
			"name": "MATURITY",
			"outputs": [
				{
					"internalType": "uint96",
					"name": "",
					"type": "uint96"
				}
			],
			"stateMutability": "view",
			"type": "function"
		},
		{
			"inputs": [
				{
					"internalType": "uint256",
					"name": "amount",
					"type": "uint256"
				}
			],
			"name": "addRewards",
			"outputs": [],
			"stateMutability": "nonpayable",
			"type": "function"
		},
		{
			"inputs": [
				{
					"internalType": "uint256[]",
					"name": "stake_ids",
					"type": "uint256[]"
				}
			],
			"name": "batchWithdrawCREDI",
			"outputs": [],
			"stateMutability": "nonpayable",
			"type": "function"
		},
		{
			"inputs": [
				{
					"internalType": "uint256",
					"name": "stake_amount",
					"type": "uint256"
				}
			],
			"name": "calculateReward",
			"outputs": [
				{
					"internalType": "uint256",
					"name": "",
					"type": "uint256"
				}
			],
			"stateMutability": "view",
			"type": "function"
		},
		{
			"inputs": [
				{
					"internalType": "uint256",
					"name": "stake_id",
					"type": "uint256"
				}
			],
			"name": "claim",
			"outputs": [
				{
					"internalType": "uint256",
					"name": "",
					"type": "uint256"
				}
			],
			"stateMutability": "nonpayable",
			"type": "function"
		},
		{
			"inputs": [],
			"name": "getCREDIAddress",
			"outputs": [
				{
					"internalType": "address",
					"name": "",
					"type": "address"
				}
			],
			"stateMutability": "view",
			"type": "function"
		},
		{
			"inputs": [],
			"name": "getDifficulty",
			"outputs": [
				{
					"internalType": "uint256",
					"name": "",
					"type": "uint256"
				}
			],
			"stateMutability": "view",
			"type": "function"
		},
		{
			"inputs": [
				{
					"internalType": "uint256",
					"name": "stake_id",
					"type": "uint256"
				}
			],
			"name": "getStake",
			"outputs": [
				{
					"internalType": "address",
					"name": "owner",
					"type": "address"
				},
				{
					"internalType": "uint256",
					"name": "maturity",
					"type": "uint256"
				},
				{
					"internalType": "uint256",
					"name": "stake_amount",
					"type": "uint256"
				},
				{
					"internalType": "uint256",
					"name": "reward_amount",
					"type": "uint256"
				}
			],
			"stateMutability": "view",
			"type": "function"
		},
		{
			"inputs": [],
			"name": "getStakesCount",
			"outputs": [
				{
					"internalType": "uint256",
					"name": "",
					"type": "uint256"
				}
			],
			"stateMutability": "view",
			"type": "function"
		},
		{
			"inputs": [],
			"name": "getxCREDIAddress",
			"outputs": [
				{
					"internalType": "address",
					"name": "",
					"type": "address"
				}
			],
			"stateMutability": "view",
			"type": "function"
		},
		{
			"inputs": [],
			"name": "owner",
			"outputs": [
				{
					"internalType": "address",
					"name": "",
					"type": "address"
				}
			],
			"stateMutability": "view",
			"type": "function"
		},
		{
			"inputs": [],
			"name": "pending_payments",
			"outputs": [
				{
					"internalType": "uint256",
					"name": "",
					"type": "uint256"
				}
			],
			"stateMutability": "view",
			"type": "function"
		},
		{
			"inputs": [],
			"name": "renounceOwnership",
			"outputs": [],
			"stateMutability": "nonpayable",
			"type": "function"
		},
		{
			"inputs": [
				{
					"internalType": "uint96",
					"name": "lock_period",
					"type": "uint96"
				},
				{
					"internalType": "uint256",
					"name": "stake_amount",
					"type": "uint256"
				}
			],
			"name": "stake",
			"outputs": [
				{
					"internalType": "uint256",
					"name": "",
					"type": "uint256"
				},
				{
					"internalType": "uint256",
					"name": "",
					"type": "uint256"
				}
			],
			"stateMutability": "nonpayable",
			"type": "function"
		},
		{
			"inputs": [],
			"name": "total_staked",
			"outputs": [
				{
					"internalType": "uint256",
					"name": "",
					"type": "uint256"
				}
			],
			"stateMutability": "view",
			"type": "function"
		},
		{
			"inputs": [
				{
					"internalType": "address",
					"name": "newOwner",
					"type": "address"
				}
			],
			"name": "transferOwnership",
			"outputs": [],
			"stateMutability": "nonpayable",
			"type": "function"
		},
		{
			"inputs": [
				{
					"internalType": "uint256",
					"name": "stake_id",
					"type": "uint256"
				},
				{
					"internalType": "uint256",
					"name": "amount",
					"type": "uint256"
				}
			],
			"name": "withdrawCREDI",
			"outputs": [],
			"stateMutability": "nonpayable",
			"type": "function"
		},
		{
			"inputs": [
				{
					"internalType": "address",
					"name": "to",
					"type": "address"
				},
				{
					"internalType": "uint256",
					"name": "amount",
					"type": "uint256"
				}
			],
			"name": "withdrawRewards",
			"outputs": [],
			"stateMutability": "nonpayable",
			"type": "function"
		},
		{
			"inputs": [],
			"name": "xCREDI",
			"outputs": [
				{
					"internalType": "contract IERC20",
					"name": "",
					"type": "address"
				}
			],
			"stateMutability": "view",
			"type": "function"
		}
	]
}