{
	"data": {
		"bytecode": {
			"linkReferences": {},
			"object": "60c060405260016002555f6003555f60045534801561001c575f5ffd5b5060405161154538038061154583398101604081905261003b916100eb565b338061006057604051631e4fbdf760e01b81525f600482015260240160405180910390fd5b61006981610081565b506001600160a01b039182166080521660a05261011c565b5f80546001600160a01b038381166001600160a01b0319831681178455604051919092169283917f8be0079c531659141344cd1fd0a4f28419497f9722a3daafe3b4186f6b6457e09190a35050565b80516001600160a01b03811681146100e6575f5ffd5b919050565b5f5f604083850312156100fc575f5ffd5b610105836100d0565b9150610113602084016100d0565b90509250929050565b60805160a0516113c961017c5f395f81816101b801528181610237015281816104ca0152818161094f01528181610bd80152610ca401525f8181610172015281816102e10152818161068d015281816108f70152610dd801526113c95ff3fe608060405234801561000f575f5ffd5b5060043610610132575f3560e01c8063b109beec116100b4578063ce325bf811610079578063ce325bf81461028f578063d2d7231f146102cc578063d46149a2146102df578063d6ef7af014610305578063d93c04a014610318578063f2fde38b14610340575f5ffd5b8063b109beec14610232578063b5fa91fe14610259578063b6baffe314610261578063bc85435214610269578063beceed391461027c575f5ffd5b80638da5cb5b116100fa5780638da5cb5b146101dc5780638e12c0cd146101ec5780638f4729b71461020d578063ac00500f14610216578063af7568dd14610229575f5ffd5b8063109cf39914610136578063379607f51461015a5780636db08f251461016d578063715018a6146101ac5780637c2fdeb5146101b6575b5f5ffd5b6101476969e10de76676d080000081565b6040519081526020015b60405180910390f35b610147610168366004611109565b610353565b6101947f000000000000000000000000000000000000000000000000000000000000000081565b6040516001600160a01b039091168152602001610151565b6101b4610550565b005b7f0000000000000000000000000000000000000000000000000000000000000000610194565b5f546001600160a01b0316610194565b6101f5612a3081565b6040516001600160601b039091168152602001610151565b61014760045481565b6101b4610224366004611120565b610563565b61014760035481565b6101947f000000000000000000000000000000000000000000000000000000000000000081565b61014761070b565b610147610720565b6101b4610277366004611140565b610745565b6101b461028a366004611109565b61092b565b6102a261029d366004611109565b6109b5565b604080516001600160a01b0390951685526020850193909352918301526060820152608001610151565b6101476102da366004611109565b610a26565b7f0000000000000000000000000000000000000000000000000000000000000000610194565b6101b46103133660046111cc565b610bae565b61032b6103263660046111f4565b610d12565b60408051928352602083019190915201610151565b6101b461034e36600461121b565b610f47565b5f815f81118015610365575060025481105b61038a5760405162461bcd60e51b81526004016103819061123b565b60405180910390fd5b5f83815260016020526040902080546001600160a01b031633146103f05760405162461bcd60e51b815260206004820152601f60248201527f4d6f64756c65583a43616c6c6572206973206e6f7420746865206f776e6572006044820152606401610381565b8054600160a01b90046001600160601b0316426001600160601b0316101561046d5760405162461bcd60e51b815260206004820152602a60248201527f4d6f64756c65583a4561726c79205769746864726177616c206973206e6f74206044820152697065726d69747465642160b01b6064820152608401610381565b5f8160020154116104c05760405162461bcd60e51b815260206004820152601860248201527f4d6f64756c65583a4e6f7468696e6720746f20636c61696d00000000000000006044820152606401610381565b60028101546104f97f00000000000000000000000000000000000000000000000000000000000000006001600160a01b03163383610f84565b8060045f82825461050a9190611286565b90915550505f60028301556040518581527f67bb155fcabb99400c32b640dc7704c8f18aae4c817704c7267c5a8cd26dfc199060200160405180910390a1949350505050565b610558610fe3565b6105615f61100f565b565b61056b610fe3565b815f8111801561057c575060025481105b6105985760405162461bcd60e51b81526004016103819061123b565b5f82116105b75760405162461bcd60e51b81526004016103819061129f565b5f8381526001602052604090208054600160a01b90046001600160601b0316426001600160601b031611156106265760405162461bcd60e51b81526020600482015260156024820152744d6f64756c65583a4275726e7420746f6b656e732160581b6044820152606401610381565b806001015483111561067a5760405162461bcd60e51b815260206004820152601d60248201527f4d6f64756c65583a496e73756666696369656e742062616c616e6365210000006044820152606401610381565b6106b43360018301546001600160a01b037f0000000000000000000000000000000000000000000000000000000000000000169190610f84565b82816001015f8282546106c79190611286565b909155505060408051858152602081018590527f03a00e6132085cbc9ea18899cd135ef9cad5d305d58506e08e7b1a9b96199a9c910160405180910390a150505050565b5f600160025461071b9190611286565b905090565b5f600b6969e10de76676d080000060035461073b91906112e8565b61071b9190611307565b61074d610fe3565b5f805b828110156108a25760025484848381811061076d5761076d61131a565b90506020020135106107915760405162461bcd60e51b81526004016103819061123b565b5f60015f8686858181106107a7576107a761131a565b602090810292909201358352508101919091526040015f208054909150600160a01b90046001600160601b0316426001600160601b031611156108245760405162461bcd60e51b81526020600482015260156024820152744d6f64756c65583a4275726e7420746f6b656e732160581b6044820152606401610381565b60018101546108339084611307565b5f600183015592507f03a00e6132085cbc9ea18899cd135ef9cad5d305d58506e08e7b1a9b96199a9c85858481811061086e5761086e61131a565b905060200201358260010154604051610891929190918252602082015260400190565b60405180910390a150600101610750565b505f81116108f25760405162461bcd60e51b815260206004820152601a60248201527f4d6f64756c65583a546f74616c20616d6f756e742069732030210000000000006044820152606401610381565b6109267f00000000000000000000000000000000000000000000000000000000000000006001600160a01b03163383610f84565b505050565b5f811161094a5760405162461bcd60e51b81526004016103819061129f565b61097f7f00000000000000000000000000000000000000000000000000000000000000006001600160a01b031633308461105e565b6040518181527fde88a922e0d3b88b24e9623efeb464919c6bf9f66857a65e2bfcf2ce87a9433d9060200160405180910390a150565b5f5f5f5f845f811180156109ca575060025481105b6109e65760405162461bcd60e51b81526004016103819061123b565b5050505f92835250506001602081905260409091208054918101546002909101546001600160a01b03831693600160a01b9093046001600160601b031692565b5f5f670de0b6b3a764000090505f83600354610a429190611307565b90505f6969e10de76676d0800000600354610a5d91906112e8565b90505f610a746969e10de76676d0800000846112e8565b9050808203610a9c57610a88600b83611307565b610a9290876112e8565b9695505050505050565b5f610aa8600b84611307565b6003546969e10de76676d0800000610ac1866001611307565b610acb919061132e565b610ad59190611286565b610adf908761132e565b610ae991906112e8565b90505f610af7600b84611307565b610b0b6969e10de76676d08000008561132e565b610b159087611286565b610b1f908861132e565b610b2991906112e8565b90505f80610b38866001611307565b90505b84811015610b8057610b4e600b82611307565b610b626969e10de76676d08000008a61132e565b610b6c91906112e8565b610b769083611307565b9150600101610b3b565b508682610b8d8386611307565b610b979190611307565b610ba191906112e8565b9998505050505050505050565b610bb6610fe3565b600454610bc39082611307565b6040516370a0823160e01b81523060048201527f00000000000000000000000000000000000000000000000000000000000000006001600160a01b0316906370a0823190602401602060405180830381865afa158015610c25573d5f5f3e3d5ffd5b505050506040513d601f19601f82011682018060405250810190610c499190611345565b1015610c975760405162461bcd60e51b815260206004820152601d60248201527f4d6f64756c65583a496e73756666696369656e742062616c616e6365210000006044820152606401610381565b610ccb6001600160a01b037f0000000000000000000000000000000000000000000000000000000000000000168383610f84565b816001600160a01b03167f1d3eee4ca001cff39eec6ec7615aacf2f2bd61791273830728ba00ccbd6e133782604051610d0691815260200190565b60405180910390a25050565b5f5f5f8311610d785760405162461bcd60e51b815260206004820152602c60248201527f4d6f64756c65583a5374616b6520616d6f756e74206d7573742062652067726560448201526b61746572207468616e20302160a01b6064820152608401610381565b612a306001600160601b0385161015610dd35760405162461bcd60e51b815260206004820152601f60248201527f4d6f64756c65583a557365206c6f6e676572206c6f636b5f706572696f6421006044820152606401610381565b610e087f00000000000000000000000000000000000000000000000000000000000000006001600160a01b031633308661105e565b5f610e13854261135c565b90505f610e1f85610a26565b90505f60025490506040518060800160405280610e393390565b6001600160a01b0390811682526001600160601b0386811660208085019190915260408085018c905260609485018890525f878152600180845282822088519489015194909616600160a01b949095169390930293909317845585015190830155929091015160029091015560038054889290610eb7908490611307565b925050819055508160045f828254610ecf9190611307565b9091555050604080518281526001600160601b038516602082015280820188905260608101849052905133917f24fe2d25c10eb2c67b5ac1e3edbcadc94191e154ed388ad667a9480c44f47146919081900360800190a260028054905f610f358361137b565b90915550909791965090945050505050565b610f4f610fe3565b6001600160a01b038116610f7857604051631e4fbdf760e01b81525f6004820152602401610381565b610f818161100f565b50565b6040516001600160a01b0383811660248301526044820183905261092691859182169063a9059cbb906064015b604051602081830303815290604052915060e01b6020820180516001600160e01b03838183161783525050505061109d565b5f546001600160a01b031633146105615760405163118cdaa760e01b8152336004820152602401610381565b5f80546001600160a01b038381166001600160a01b0319831681178455604051919092169283917f8be0079c531659141344cd1fd0a4f28419497f9722a3daafe3b4186f6b6457e09190a35050565b6040516001600160a01b0384811660248301528381166044830152606482018390526110979186918216906323b872dd90608401610fb1565b50505050565b5f5f60205f8451602086015f885af1806110bc576040513d5f823e3d81fd5b50505f513d915081156110d35780600114156110e0565b6001600160a01b0384163b155b1561109757604051635274afe760e01b81526001600160a01b0385166004820152602401610381565b5f60208284031215611119575f5ffd5b5035919050565b5f5f60408385031215611131575f5ffd5b50508035926020909101359150565b5f5f60208385031215611151575f5ffd5b823567ffffffffffffffff811115611167575f5ffd5b8301601f81018513611177575f5ffd5b803567ffffffffffffffff81111561118d575f5ffd5b8560208260051b84010111156111a1575f5ffd5b6020919091019590945092505050565b80356001600160a01b03811681146111c7575f5ffd5b919050565b5f5f604083850312156111dd575f5ffd5b6111e6836111b1565b946020939093013593505050565b5f5f60408385031215611205575f5ffd5b82356001600160601b03811681146111e6575f5ffd5b5f6020828403121561122b575f5ffd5b611234826111b1565b9392505050565b60208082526019908201527f4d6f64756c65583a496e76616c6964205374616b652049442100000000000000604082015260600190565b634e487b7160e01b5f52601160045260245ffd5b8181038181111561129957611299611272565b92915050565b60208082526029908201527f4d6f64756c65583a616d6f756e74206d7573742062652067726561746572207460408201526868616e207a65726f2160b81b606082015260800190565b5f8261130257634e487b7160e01b5f52601260045260245ffd5b500490565b8082018082111561129957611299611272565b634e487b7160e01b5f52603260045260245ffd5b808202811582820484141761129957611299611272565b5f60208284031215611355575f5ffd5b5051919050565b6001600160601b03818116838216019081111561129957611299611272565b5f6001820161138c5761138c611272565b506001019056fea2646970667358221220bc6a0dbfd54a91a954691f255e21f1aa800468410fd1d8c1399ba6716541bfbc64736f6c634300081e0033",
			"opcodes": "PUSH1 0xC0 PUSH1 0x40 MSTORE PUSH1 0x1 PUSH1 0x2 SSTORE PUSH0 PUSH1 0x3 SSTORE PUSH0 PUSH1 0x4 SSTORE CALLVALUE DUP1 ISZERO PUSH2 0x1C JUMPI PUSH0 PUSH0 REVERT JUMPDEST POP PUSH1 0x40 MLOAD PUSH2 0x1545 CODESIZE SUB DUP1 PUSH2 0x1545 DUP4 CODECOPY DUP2 ADD PUSH1 0x40 DUP2 SWAP1 MSTORE PUSH2 0x3B SWAP2 PUSH2 0xEB JUMP JUMPDEST CALLER DUP1 PUSH2 0x60 JUMPI PUSH1 0x40 MLOAD PUSH4 0x1E4FBDF7 PUSH1 0xE0 SHL DUP2 MSTORE PUSH0 PUSH1 0x4 DUP3 ADD MSTORE PUSH1 0x24 ADD PUSH1 0x40 MLOAD DUP1 SWAP2 SUB SWAP1 REVERT JUMPDEST PUSH2 0x69 DUP2 PUSH2 0x81 JUMP JUMPDEST POP PUSH1 0x1 PUSH1 0x1 PUSH1 0xA0 SHL SUB SWAP2 DUP3 AND PUSH1 0x80 MSTORE AND PUSH1 0xA0 MSTORE PUSH2 0x11C JUMP JUMPDEST PUSH0 DUP1 SLOAD PUSH1 0x1 PUSH1 0x1 PUSH1 0xA0 SHL SUB DUP4 DUP2 AND PUSH1 0x1 PUSH1 0x1 PUSH1 0xA0 SHL SUB NOT DUP4 AND DUP2 OR DUP5 SSTORE PUSH1 0x40 MLOAD SWAP2 SWAP1 SWAP3 AND SWAP3 DUP4 SWAP2 PUSH32 0x8BE0079C531659141344CD1FD0A4F28419497F9722A3DAAFE3B4186F6B6457E0 SWAP2 SWAP1 LOG3 POP POP JUMP JUMPDEST DUP1 MLOAD PUSH1 0x1 PUSH1 0x1 PUSH1 0xA0 SHL SUB DUP2 AND DUP2 EQ PUSH2 0xE6 JUMPI PUSH0 PUSH0 REVERT JUMPDEST SWAP2 SWAP1 POP JUMP JUMPDEST PUSH0 PUSH0 PUSH1 0x40 DUP4 DUP6 SUB SLT ISZERO PUSH2 0xFC JUMPI PUSH0 PUSH0 REVERT JUMPDEST PUSH2 0x105 DUP4 PUSH2 0xD0 JUMP JUMPDEST SWAP2 POP PUSH2 0x113 PUSH1 0x20 DUP5 ADD PUSH2 0xD0 JUMP JUMPDEST SWAP1 POP SWAP3 POP SWAP3 SWAP1 POP JUMP JUMPDEST PUSH1 0x80 MLOAD PUSH1 0xA0 MLOAD PUSH2 0x13C9 PUSH2 0x17C PUSH0 CODECOPY PUSH0 DUP2 DUP2 PUSH2 0x1B8 ADD MSTORE DUP2 DUP2 PUSH2 0x237 ADD MSTORE DUP2 DUP2 PUSH2 0x4CA ADD MSTORE DUP2 DUP2 PUSH2 0x94F ADD MSTORE DUP2 DUP2 PUSH2 0xBD8 ADD MSTORE PUSH2 0xCA4 ADD MSTORE PUSH0 DUP2 DUP2 PUSH2 0x172 ADD MSTORE DUP2 DUP2 PUSH2 0x2E1 ADD MSTORE DUP2 DUP2 PUSH2 0x68D ADD MSTORE DUP2 DUP2 PUSH2 0x8F7 ADD MSTORE PUSH2 0xDD8 ADD MSTORE PUSH2 0x13C9 PUSH0 RETURN INVALID PUSH1 0x80 PUSH1 0x40 MSTORE CALLVALUE DUP1 ISZERO PUSH2 0xF JUMPI PUSH0 PUSH0 REVERT JUMPDEST POP PUSH1 0x4 CALLDATASIZE LT PUSH2 0x132 JUMPI PUSH0 CALLDATALOAD PUSH1 0xE0 SHR DUP1 PUSH4 0xB109BEEC GT PUSH2 0xB4 JUMPI DUP1 PUSH4 0xCE325BF8 GT PUSH2 0x79 JUMPI DUP1 PUSH4 0xCE325BF8 EQ PUSH2 0x28F JUMPI DUP1 PUSH4 0xD2D7231F EQ PUSH2 0x2CC JUMPI DUP1 PUSH4 0xD46149A2 EQ PUSH2 0x2DF JUMPI DUP1 PUSH4 0xD6EF7AF0 EQ PUSH2 0x305 JUMPI DUP1 PUSH4 0xD93C04A0 EQ PUSH2 0x318 JUMPI DUP1 PUSH4 0xF2FDE38B EQ PUSH2 0x340 JUMPI PUSH0 PUSH0 REVERT JUMPDEST DUP1 PUSH4 0xB109BEEC EQ PUSH2 0x232 JUMPI DUP1 PUSH4 0xB5FA91FE EQ PUSH2 0x259 JUMPI DUP1 PUSH4 0xB6BAFFE3 EQ PUSH2 0x261 JUMPI DUP1 PUSH4 0xBC854352 EQ PUSH2 0x269 JUMPI DUP1 PUSH4 0xBECEED39 EQ PUSH2 0x27C JUMPI PUSH0 PUSH0 REVERT JUMPDEST DUP1 PUSH4 0x8DA5CB5B GT PUSH2 0xFA JUMPI DUP1 PUSH4 0x8DA5CB5B EQ PUSH2 0x1DC JUMPI DUP1 PUSH4 0x8E12C0CD EQ PUSH2 0x1EC JUMPI DUP1 PUSH4 0x8F4729B7 EQ PUSH2 0x20D JUMPI DUP1 PUSH4 0xAC00500F EQ PUSH2 0x216 JUMPI DUP1 PUSH4 0xAF7568DD EQ PUSH2 0x229 JUMPI PUSH0 PUSH0 REVERT JUMPDEST DUP1 PUSH4 0x109CF399 EQ PUSH2 0x136 JUMPI DUP1 PUSH4 0x379607F5 EQ PUSH2 0x15A JUMPI DUP1 PUSH4 0x6DB08F25 EQ PUSH2 0x16D JUMPI DUP1 PUSH4 0x715018A6 EQ PUSH2 0x1AC JUMPI DUP1 PUSH4 0x7C2FDEB5 EQ PUSH2 0x1B6 JUMPI JUMPDEST PUSH0 PUSH0 REVERT JUMPDEST PUSH2 0x147 PUSH10 0x69E10DE76676D0800000 DUP2 JUMP JUMPDEST PUSH1 0x40 MLOAD SWAP1 DUP2 MSTORE PUSH1 0x20 ADD JUMPDEST PUSH1 0x40 MLOAD DUP1 SWAP2 SUB SWAP1 RETURN JUMPDEST PUSH2 0x147 PUSH2 0x168 CALLDATASIZE PUSH1 0x4 PUSH2 0x1109 JUMP JUMPDEST PUSH2 0x353 JUMP JUMPDEST PUSH2 0x194 PUSH32 0x0 DUP2 JUMP JUMPDEST PUSH1 0x40 MLOAD PUSH1 0x1 PUSH1 0x1 PUSH1 0xA0 SHL SUB SWAP1 SWAP2 AND DUP2 MSTORE PUSH1 0x20 ADD PUSH2 0x151 JUMP JUMPDEST PUSH2 0x1B4 PUSH2 0x550 JUMP JUMPDEST STOP JUMPDEST PUSH32 0x0 PUSH2 0x194 JUMP JUMPDEST PUSH0 SLOAD PUSH1 0x1 PUSH1 0x1 PUSH1 0xA0 SHL SUB AND PUSH2 0x194 JUMP JUMPDEST PUSH2 0x1F5 PUSH2 0x2A30 DUP2 JUMP JUMPDEST PUSH1 0x40 MLOAD PUSH1 0x1 PUSH1 0x1 PUSH1 0x60 SHL SUB SWAP1 SWAP2 AND DUP2 MSTORE PUSH1 0x20 ADD PUSH2 0x151 JUMP JUMPDEST PUSH2 0x147 PUSH1 0x4 SLOAD DUP2 JUMP JUMPDEST PUSH2 0x1B4 PUSH2 0x224 CALLDATASIZE PUSH1 0x4 PUSH2 0x1120 JUMP JUMPDEST PUSH2 0x563 JUMP JUMPDEST PUSH2 0x147 PUSH1 0x3 SLOAD DUP2 JUMP JUMPDEST PUSH2 0x194 PUSH32 0x0 DUP2 JUMP JUMPDEST PUSH2 0x147 PUSH2 0x70B JUMP JUMPDEST PUSH2 0x147 PUSH2 0x720 JUMP JUMPDEST PUSH2 0x1B4 PUSH2 0x277 CALLDATASIZE PUSH1 0x4 PUSH2 0x1140 JUMP JUMPDEST PUSH2 0x745 JUMP JUMPDEST PUSH2 0x1B4 PUSH2 0x28A CALLDATASIZE PUSH1 0x4 PUSH2 0x1109 JUMP JUMPDEST PUSH2 0x92B JUMP JUMPDEST PUSH2 0x2A2 PUSH2 0x29D CALLDATASIZE PUSH1 0x4 PUSH2 0x1109 JUMP JUMPDEST PUSH2 0x9B5 JUMP JUMPDEST PUSH1 0x40 DUP1 MLOAD PUSH1 0x1 PUSH1 0x1 PUSH1 0xA0 SHL SUB SWAP1 SWAP6 AND DUP6 MSTORE PUSH1 0x20 DUP6 ADD SWAP4 SWAP1 SWAP4 MSTORE SWAP2 DUP4 ADD MSTORE PUSH1 0x60 DUP3 ADD MSTORE PUSH1 0x80 ADD PUSH2 0x151 JUMP JUMPDEST PUSH2 0x147 PUSH2 0x2DA CALLDATASIZE PUSH1 0x4 PUSH2 0x1109 JUMP JUMPDEST PUSH2 0xA26 JUMP JUMPDEST PUSH32 0x0 PUSH2 0x194 JUMP JUMPDEST PUSH2 0x1B4 PUSH2 0x313 CALLDATASIZE PUSH1 0x4 PUSH2 0x11CC JUMP JUMPDEST PUSH2 0xBAE JUMP JUMPDEST PUSH2 0x32B PUSH2 0x326 CALLDATASIZE PUSH1 0x4 PUSH2 0x11F4 JUMP JUMPDEST PUSH2 0xD12 JUMP JUMPDEST PUSH1 0x40 DUP1 MLOAD SWAP3 DUP4 MSTORE PUSH1 0x20 DUP4 ADD SWAP2 SWAP1 SWAP2 MSTORE ADD PUSH2 0x151 JUMP JUMPDEST PUSH2 0x1B4 PUSH2 0x34E CALLDATASIZE PUSH1 0x4 PUSH2 0x121B JUMP JUMPDEST PUSH2 0xF47 JUMP JUMPDEST PUSH0 DUP2 PUSH0 DUP2 GT DUP1 ISZERO PUSH2 0x365 JUMPI POP PUSH1 0x2 SLOAD DUP2 LT JUMPDEST PUSH2 0x38A JUMPI PUSH1 0x40 MLOAD PUSH3 0x461BCD PUSH1 0xE5 SHL DUP2 MSTORE PUSH1 0x4 ADD PUSH2 0x381 SWAP1 PUSH2 0x123B JUMP JUMPDEST PUSH1 0x40 MLOAD DUP1 SWAP2 SUB SWAP1 REVERT JUMPDEST PUSH0 DUP4 DUP2 MSTORE PUSH1 0x1 PUSH1 0x20 MSTORE PUSH1 0x40 SWAP1 KECCAK256 DUP1 SLOAD PUSH1 0x1 PUSH1 0x1 PUSH1 0xA0 SHL SUB AND CALLER EQ PUSH2 0x3F0 JUMPI PUSH1 0x40 MLOAD PUSH3 0x461BCD PUSH1 0xE5 SHL DUP2 MSTORE PUSH1 0x20 PUSH1 0x4 DUP3 ADD MSTORE PUSH1 0x1F PUSH1 0x24 DUP3 ADD MSTORE PUSH32 0x4D6F64756C65583A43616C6C6572206973206E6F7420746865206F776E657200 PUSH1 0x44 DUP3 ADD MSTORE PUSH1 0x64 ADD PUSH2 0x381 JUMP JUMPDEST DUP1 SLOAD PUSH1 0x1 PUSH1 0xA0 SHL SWAP1 DIV PUSH1 0x1 PUSH1 0x1 PUSH1 0x60 SHL SUB AND TIMESTAMP PUSH1 0x1 PUSH1 0x1 PUSH1 0x60 SHL SUB AND LT ISZERO PUSH2 0x46D JUMPI PUSH1 0x40 MLOAD PUSH3 0x461BCD PUSH1 0xE5 SHL DUP2 MSTORE PUSH1 0x20 PUSH1 0x4 DUP3 ADD MSTORE PUSH1 0x2A PUSH1 0x24 DUP3 ADD MSTORE PUSH32 0x4D6F64756C65583A4561726C79205769746864726177616C206973206E6F7420 PUSH1 0x44 DUP3 ADD MSTORE PUSH10 0x7065726D697474656421 PUSH1 0xB0 SHL PUSH1 0x64 DUP3 ADD MSTORE PUSH1 0x84 ADD PUSH2 0x381 JUMP JUMPDEST PUSH0 DUP2 PUSH1 0x2 ADD SLOAD GT PUSH2 0x4C0 JUMPI PUSH1 0x40 MLOAD PUSH3 0x461BCD PUSH1 0xE5 SHL DUP2 MSTORE PUSH1 0x20 PUSH1 0x4 DUP3 ADD MSTORE PUSH1 0x18 PUSH1 0x24 DUP3 ADD MSTORE PUSH32 0x4D6F64756C65583A4E6F7468696E6720746F20636C61696D0000000000000000 PUSH1 0x44 DUP3 ADD MSTORE PUSH1 0x64 ADD PUSH2 0x381 JUMP JUMPDEST PUSH1 0x2 DUP2 ADD SLOAD PUSH2 0x4F9 PUSH32 0x0 PUSH1 0x1 PUSH1 0x1 PUSH1 0xA0 SHL SUB AND CALLER DUP4 PUSH2 0xF84 JUMP JUMPDEST DUP1 PUSH1 0x4 PUSH0 DUP3 DUP3 SLOAD PUSH2 0x50A SWAP2 SWAP1 PUSH2 0x1286 JUMP JUMPDEST SWAP1 SWAP2 SSTORE POP POP PUSH0 PUSH1 0x2 DUP4 ADD SSTORE PUSH1 0x40 MLOAD DUP6 DUP2 MSTORE PUSH32 0x67BB155FCABB99400C32B640DC7704C8F18AAE4C817704C7267C5A8CD26DFC19 SWAP1 PUSH1 0x20 ADD PUSH1 0x40 MLOAD DUP1 SWAP2 SUB SWAP1 LOG1 SWAP5 SWAP4 POP POP POP POP JUMP JUMPDEST PUSH2 0x558 PUSH2 0xFE3 JUMP JUMPDEST PUSH2 0x561 PUSH0 PUSH2 0x100F JUMP JUMPDEST JUMP JUMPDEST PUSH2 0x56B PUSH2 0xFE3 JUMP JUMPDEST DUP2 PUSH0 DUP2 GT DUP1 ISZERO PUSH2 0x57C JUMPI POP PUSH1 0x2 SLOAD DUP2 LT JUMPDEST PUSH2 0x598 JUMPI PUSH1 0x40 MLOAD PUSH3 0x461BCD PUSH1 0xE5 SHL DUP2 MSTORE PUSH1 0x4 ADD PUSH2 0x381 SWAP1 PUSH2 0x123B JUMP JUMPDEST PUSH0 DUP3 GT PUSH2 0x5B7 JUMPI PUSH1 0x40 MLOAD PUSH3 0x461BCD PUSH1 0xE5 SHL DUP2 MSTORE PUSH1 0x4 ADD PUSH2 0x381 SWAP1 PUSH2 0x129F JUMP JUMPDEST PUSH0 DUP4 DUP2 MSTORE PUSH1 0x1 PUSH1 0x20 MSTORE PUSH1 0x40 SWAP1 KECCAK256 DUP1 SLOAD PUSH1 0x1 PUSH1 0xA0 SHL SWAP1 DIV PUSH1 0x1 PUSH1 0x1 PUSH1 0x60 SHL SUB AND TIMESTAMP PUSH1 0x1 PUSH1 0x1 PUSH1 0x60 SHL SUB AND GT ISZERO PUSH2 0x626 JUMPI PUSH1 0x40 MLOAD PUSH3 0x461BCD PUSH1 0xE5 SHL DUP2 MSTORE PUSH1 0x20 PUSH1 0x4 DUP3 ADD MSTORE PUSH1 0x15 PUSH1 0x24 DUP3 ADD MSTORE PUSH21 0x4D6F64756C65583A4275726E7420746F6B656E7321 PUSH1 0x58 SHL PUSH1 0x44 DUP3 ADD MSTORE PUSH1 0x64 ADD PUSH2 0x381 JUMP JUMPDEST DUP1 PUSH1 0x1 ADD SLOAD DUP4 GT ISZERO PUSH2 0x67A JUMPI PUSH1 0x40 MLOAD PUSH3 0x461BCD PUSH1 0xE5 SHL DUP2 MSTORE PUSH1 0x20 PUSH1 0x4 DUP3 ADD MSTORE PUSH1 0x1D PUSH1 0x24 DUP3 ADD MSTORE PUSH32 0x4D6F64756C65583A496E73756666696369656E742062616C616E636521000000 PUSH1 0x44 DUP3 ADD MSTORE PUSH1 0x64 ADD PUSH2 0x381 JUMP JUMPDEST PUSH2 0x6B4 CALLER PUSH1 0x1 DUP4 ADD SLOAD PUSH1 0x1 PUSH1 0x1 PUSH1 0xA0 SHL SUB PUSH32 0x0 AND SWAP2 SWAP1 PUSH2 0xF84 JUMP JUMPDEST DUP3 DUP2 PUSH1 0x1 ADD PUSH0 DUP3 DUP3 SLOAD PUSH2 0x6C7 SWAP2 SWAP1 PUSH2 0x1286 JUMP JUMPDEST SWAP1 SWAP2 SSTORE POP POP PUSH1 0x40 DUP1 MLOAD DUP6 DUP2 MSTORE PUSH1 0x20 DUP2 ADD DUP6 SWAP1 MSTORE PUSH32 0x3A00E6132085CBC9EA18899CD135EF9CAD5D305D58506E08E7B1A9B96199A9C SWAP2 ADD PUSH1 0x40 MLOAD DUP1 SWAP2 SUB SWAP1 LOG1 POP POP POP POP JUMP JUMPDEST PUSH0 PUSH1 0x1 PUSH1 0x2 SLOAD PUSH2 0x71B SWAP2 SWAP1 PUSH2 0x1286 JUMP JUMPDEST SWAP1 POP SWAP1 JUMP JUMPDEST PUSH0 PUSH1 0xB PUSH10 0x69E10DE76676D0800000 PUSH1 0x3 SLOAD PUSH2 0x73B SWAP2 SWAP1 PUSH2 0x12E8 JUMP JUMPDEST PUSH2 0x71B SWAP2 SWAP1 PUSH2 0x1307 JUMP JUMPDEST PUSH2 0x74D PUSH2 0xFE3 JUMP JUMPDEST PUSH0 DUP1 JUMPDEST DUP3 DUP2 LT ISZERO PUSH2 0x8A2 JUMPI PUSH1 0x2 SLOAD DUP5 DUP5 DUP4 DUP2 DUP2 LT PUSH2 0x76D JUMPI PUSH2 0x76D PUSH2 0x131A JUMP JUMPDEST SWAP1 POP PUSH1 0x20 MUL ADD CALLDATALOAD LT PUSH2 0x791 JUMPI PUSH1 0x40 MLOAD PUSH3 0x461BCD PUSH1 0xE5 SHL DUP2 MSTORE PUSH1 0x4 ADD PUSH2 0x381 SWAP1 PUSH2 0x123B JUMP JUMPDEST PUSH0 PUSH1 0x1 PUSH0 DUP7 DUP7 DUP6 DUP2 DUP2 LT PUSH2 0x7A7 JUMPI PUSH2 0x7A7 PUSH2 0x131A JUMP JUMPDEST PUSH1 0x20 SWAP1 DUP2 MUL SWAP3 SWAP1 SWAP3 ADD CALLDATALOAD DUP4 MSTORE POP DUP2 ADD SWAP2 SWAP1 SWAP2 MSTORE PUSH1 0x40 ADD PUSH0 KECCAK256 DUP1 SLOAD SWAP1 SWAP2 POP PUSH1 0x1 PUSH1 0xA0 SHL SWAP1 DIV PUSH1 0x1 PUSH1 0x1 PUSH1 0x60 SHL SUB AND TIMESTAMP PUSH1 0x1 PUSH1 0x1 PUSH1 0x60 SHL SUB AND GT ISZERO PUSH2 0x824 JUMPI PUSH1 0x40 MLOAD PUSH3 0x461BCD PUSH1 0xE5 SHL DUP2 MSTORE PUSH1 0x20 PUSH1 0x4 DUP3 ADD MSTORE PUSH1 0x15 PUSH1 0x24 DUP3 ADD MSTORE PUSH21 0x4D6F64756C65583A4275726E7420746F6B656E7321 PUSH1 0x58 SHL PUSH1 0x44 DUP3 ADD MSTORE PUSH1 0x64 ADD PUSH2 0x381 JUMP JUMPDEST PUSH1 0x1 DUP2 ADD SLOAD PUSH2 0x833 SWAP1 DUP5 PUSH2 0x1307 JUMP JUMPDEST PUSH0 PUSH1 0x1 DUP4 ADD SSTORE SWAP3 POP PUSH32 0x3A00E6132085CBC9EA18899CD135EF9CAD5D305D58506E08E7B1A9B96199A9C DUP6 DUP6 DUP5 DUP2 DUP2 LT PUSH2 0x86E JUMPI PUSH2 0x86E PUSH2 0x131A JUMP JUMPDEST SWAP1 POP PUSH1 0x20 MUL ADD CALLDATALOAD DUP3 PUSH1 0x1 ADD SLOAD PUSH1 0x40 MLOAD PUSH2 0x891 SWAP3 SWAP2 SWAP1 SWAP2 DUP3 MSTORE PUSH1 0x20 DUP3 ADD MSTORE PUSH1 0x40 ADD SWAP1 JUMP JUMPDEST PUSH1 0x40 MLOAD DUP1 SWAP2 SUB SWAP1 LOG1 POP PUSH1 0x1 ADD PUSH2 0x750 JUMP JUMPDEST POP PUSH0 DUP2 GT PUSH2 0x8F2 JUMPI PUSH1 0x40 MLOAD PUSH3 0x461BCD PUSH1 0xE5 SHL DUP2 MSTORE PUSH1 0x20 PUSH1 0x4 DUP3 ADD MSTORE PUSH1 0x1A PUSH1 0x24 DUP3 ADD MSTORE PUSH32 0x4D6F64756C65583A546F74616C20616D6F756E74206973203021000000000000 PUSH1 0x44 DUP3 ADD MSTORE PUSH1 0x64 ADD PUSH2 0x381 JUMP JUMPDEST PUSH2 0x926 PUSH32 0x0 PUSH1 0x1 PUSH1 0x1 PUSH1 0xA0 SHL SUB AND CALLER DUP4 PUSH2 0xF84 JUMP JUMPDEST POP POP POP JUMP JUMPDEST PUSH0 DUP2 GT PUSH2 0x94A JUMPI PUSH1 0x40 MLOAD PUSH3 0x461BCD PUSH1 0xE5 SHL DUP2 MSTORE PUSH1 0x4 ADD PUSH2 0x381 SWAP1 PUSH2 0x129F JUMP JUMPDEST PUSH2 0x97F PUSH32 0x0 PUSH1 0x1 PUSH1 0x1 PUSH1 0xA0 SHL SUB AND CALLER ADDRESS DUP5 PUSH2 0x105E JUMP JUMPDEST PUSH1 0x40 MLOAD DUP2 DUP2 MSTORE PUSH32 0xDE88A922E0D3B88B24E9623EFEB464919C6BF9F66857A65E2BFCF2CE87A9433D SWAP1 PUSH1 0x20 ADD PUSH1 0x40 MLOAD DUP1 SWAP2 SUB SWAP1 LOG1 POP JUMP JUMPDEST PUSH0 PUSH0 PUSH0 PUSH0 DUP5 PUSH0 DUP2 GT DUP1 ISZERO PUSH2 0x9CA JUMPI POP PUSH1 0x2 SLOAD DUP2 LT JUMPDEST PUSH2 0x9E6 JUMPI PUSH1 0x40 MLOAD PUSH3 0x461BCD PUSH1 0xE5 SHL DUP2 MSTORE PUSH1 0x4 ADD PUSH2 0x381 SWAP1 PUSH2 0x123B JUMP JUMPDEST POP POP POP PUSH0 SWAP3 DUP4 MSTORE POP POP PUSH1 0x1 PUSH1 0x20 DUP2 SWAP1 MSTORE PUSH1 0x40 SWAP1 SWAP2 KECCAK256 DUP1 SLOAD SWAP2 DUP2 ADD SLOAD PUSH1 0x2 SWAP1 SWAP2 ADD SLOAD PUSH1 0x1 PUSH1 0x1 PUSH1 0xA0 SHL SUB DUP4 AND SWAP4 PUSH1 0x1 PUSH1 0xA0 SHL SWAP1 SWAP4 DIV PUSH1 0x1 PUSH1 0x1 PUSH1 0x60 SHL SUB AND SWAP3 JUMP JUMPDEST PUSH0 PUSH0 PUSH8 0xDE0B6B3A7640000 SWAP1 POP PUSH0 DUP4 PUSH1 0x3 SLOAD PUSH2 0xA42 SWAP2 SWAP1 PUSH2 0x1307 JUMP JUMPDEST SWAP1 POP PUSH0 PUSH10 0x69E10DE76676D0800000 PUSH1 0x3 SLOAD PUSH2 0xA5D SWAP2 SWAP1 PUSH2 0x12E8 JUMP JUMPDEST SWAP1 POP PUSH0 PUSH2 0xA74 PUSH10 0x69E10DE76676D0800000 DUP5 PUSH2 0x12E8 JUMP JUMPDEST SWAP1 POP DUP1 DUP3 SUB PUSH2 0xA9C JUMPI PUSH2 0xA88 PUSH1 0xB DUP4 PUSH2 0x1307 JUMP JUMPDEST PUSH2 0xA92 SWAP1 DUP8 PUSH2 0x12E8 JUMP JUMPDEST SWAP7 SWAP6 POP POP POP POP POP POP JUMP JUMPDEST PUSH0 PUSH2 0xAA8 PUSH1 0xB DUP5 PUSH2 0x1307 JUMP JUMPDEST PUSH1 0x3 SLOAD PUSH10 0x69E10DE76676D0800000 PUSH2 0xAC1 DUP7 PUSH1 0x1 PUSH2 0x1307 JUMP JUMPDEST PUSH2 0xACB SWAP2 SWAP1 PUSH2 0x132E JUMP JUMPDEST PUSH2 0xAD5 SWAP2 SWAP1 PUSH2 0x1286 JUMP JUMPDEST PUSH2 0xADF SWAP1 DUP8 PUSH2 0x132E JUMP JUMPDEST PUSH2 0xAE9 SWAP2 SWAP1 PUSH2 0x12E8 JUMP JUMPDEST SWAP1 POP PUSH0 PUSH2 0xAF7 PUSH1 0xB DUP5 PUSH2 0x1307 JUMP JUMPDEST PUSH2 0xB0B PUSH10 0x69E10DE76676D0800000 DUP6 PUSH2 0x132E JUMP JUMPDEST PUSH2 0xB15 SWAP1 DUP8 PUSH2 0x1286 JUMP JUMPDEST PUSH2 0xB1F SWAP1 DUP9 PUSH2 0x132E JUMP JUMPDEST PUSH2 0xB29 SWAP2 SWAP1 PUSH2 0x12E8 JUMP JUMPDEST SWAP1 POP PUSH0 DUP1 PUSH2 0xB38 DUP7 PUSH1 0x1 PUSH2 0x1307 JUMP JUMPDEST SWAP1 POP JUMPDEST DUP5 DUP2 LT ISZERO PUSH2 0xB80 JUMPI PUSH2 0xB4E PUSH1 0xB DUP3 PUSH2 0x1307 JUMP JUMPDEST PUSH2 0xB62 PUSH10 0x69E10DE76676D0800000 DUP11 PUSH2 0x132E JUMP JUMPDEST PUSH2 0xB6C SWAP2 SWAP1 PUSH2 0x12E8 JUMP JUMPDEST PUSH2 0xB76 SWAP1 DUP4 PUSH2 0x1307 JUMP JUMPDEST SWAP2 POP PUSH1 0x1 ADD PUSH2 0xB3B JUMP JUMPDEST POP DUP7 DUP3 PUSH2 0xB8D DUP4 DUP7 PUSH2 0x1307 JUMP JUMPDEST PUSH2 0xB97 SWAP2 SWAP1 PUSH2 0x1307 JUMP JUMPDEST PUSH2 0xBA1 SWAP2 SWAP1 PUSH2 0x12E8 JUMP JUMPDEST SWAP10 SWAP9 POP POP POP POP POP POP POP POP POP JUMP JUMPDEST PUSH2 0xBB6 PUSH2 0xFE3 JUMP JUMPDEST PUSH1 0x4 SLOAD PUSH2 0xBC3 SWAP1 DUP3 PUSH2 0x1307 JUMP JUMPDEST PUSH1 0x40 MLOAD PUSH4 0x70A08231 PUSH1 0xE0 SHL DUP2 MSTORE ADDRESS PUSH1 0x4 DUP3 ADD MSTORE PUSH32 0x0 PUSH1 0x1 PUSH1 0x1 PUSH1 0xA0 SHL SUB AND SWAP1 PUSH4 0x70A08231 SWAP1 PUSH1 0x24 ADD PUSH1 0x20 PUSH1 0x40 MLOAD DUP1 DUP4 SUB DUP2 DUP7 GAS STATICCALL ISZERO DUP1 ISZERO PUSH2 0xC25 JUMPI RETURNDATASIZE PUSH0 PUSH0 RETURNDATACOPY RETURNDATASIZE PUSH0 REVERT JUMPDEST POP POP POP POP PUSH1 0x40 MLOAD RETURNDATASIZE PUSH1 0x1F NOT PUSH1 0x1F DUP3 ADD AND DUP3 ADD DUP1 PUSH1 0x40 MSTORE POP DUP2 ADD SWAP1 PUSH2 0xC49 SWAP2 SWAP1 PUSH2 0x1345 JUMP JUMPDEST LT ISZERO PUSH2 0xC97 JUMPI PUSH1 0x40 MLOAD PUSH3 0x461BCD PUSH1 0xE5 SHL DUP2 MSTORE PUSH1 0x20 PUSH1 0x4 DUP3 ADD MSTORE PUSH1 0x1D PUSH1 0x24 DUP3 ADD MSTORE PUSH32 0x4D6F64756C65583A496E73756666696369656E742062616C616E636521000000 PUSH1 0x44 DUP3 ADD MSTORE PUSH1 0x64 ADD PUSH2 0x381 JUMP JUMPDEST PUSH2 0xCCB PUSH1 0x1 PUSH1 0x1 PUSH1 0xA0 SHL SUB PUSH32 0x0 AND DUP4 DUP4 PUSH2 0xF84 JUMP JUMPDEST DUP2 PUSH1 0x1 PUSH1 0x1 PUSH1 0xA0 SHL SUB AND PUSH32 0x1D3EEE4CA001CFF39EEC6EC7615AACF2F2BD61791273830728BA00CCBD6E1337 DUP3 PUSH1 0x40 MLOAD PUSH2 0xD06 SWAP2 DUP2 MSTORE PUSH1 0x20 ADD SWAP1 JUMP JUMPDEST PUSH1 0x40 MLOAD DUP1 SWAP2 SUB SWAP1 LOG2 POP POP JUMP JUMPDEST PUSH0 PUSH0 PUSH0 DUP4 GT PUSH2 0xD78 JUMPI PUSH1 0x40 MLOAD PUSH3 0x461BCD PUSH1 0xE5 SHL DUP2 MSTORE PUSH1 0x20 PUSH1 0x4 DUP3 ADD MSTORE PUSH1 0x2C PUSH1 0x24 DUP3 ADD MSTORE PUSH32 0x4D6F64756C65583A5374616B6520616D6F756E74206D75737420626520677265 PUSH1 0x44 DUP3 ADD MSTORE PUSH12 0x61746572207468616E203021 PUSH1 0xA0 SHL PUSH1 0x64 DUP3 ADD MSTORE PUSH1 0x84 ADD PUSH2 0x381 JUMP JUMPDEST PUSH2 0x2A30 PUSH1 0x1 PUSH1 0x1 PUSH1 0x60 SHL SUB DUP6 AND LT ISZERO PUSH2 0xDD3 JUMPI PUSH1 0x40 MLOAD PUSH3 0x461BCD PUSH1 0xE5 SHL DUP2 MSTORE PUSH1 0x20 PUSH1 0x4 DUP3 ADD MSTORE PUSH1 0x1F PUSH1 0x24 DUP3 ADD MSTORE PUSH32 0x4D6F64756C65583A557365206C6F6E676572206C6F636B5F706572696F642100 PUSH1 0x44 DUP3 ADD MSTORE PUSH1 0x64 ADD PUSH2 0x381 JUMP JUMPDEST PUSH2 0xE08 PUSH32 0x0 PUSH1 0x1 PUSH1 0x1 PUSH1 0xA0 SHL SUB AND CALLER ADDRESS DUP7 PUSH2 0x105E JUMP JUMPDEST PUSH0 PUSH2 0xE13 DUP6 TIMESTAMP PUSH2 0x135C JUMP JUMPDEST SWAP1 POP PUSH0 PUSH2 0xE1F DUP6 PUSH2 0xA26 JUMP JUMPDEST SWAP1 POP PUSH0 PUSH1 0x2 SLOAD SWAP1 POP PUSH1 0x40 MLOAD DUP1 PUSH1 0x80 ADD PUSH1 0x40 MSTORE DUP1 PUSH2 0xE39 CALLER SWAP1 JUMP JUMPDEST PUSH1 0x1 PUSH1 0x1 PUSH1 0xA0 SHL SUB SWAP1 DUP2 AND DUP3 MSTORE PUSH1 0x1 PUSH1 0x1 PUSH1 0x60 SHL SUB DUP7 DUP2 AND PUSH1 0x20 DUP1 DUP6 ADD SWAP2 SWAP1 SWAP2 MSTORE PUSH1 0x40 DUP1 DUP6 ADD DUP13 SWAP1 MSTORE PUSH1 0x60 SWAP5 DUP6 ADD DUP9 SWAP1 MSTORE PUSH0 DUP8 DUP2 MSTORE PUSH1 0x1 DUP1 DUP5 MSTORE DUP3 DUP3 KECCAK256 DUP9 MLOAD SWAP5 DUP10 ADD MLOAD SWAP5 SWAP1 SWAP7 AND PUSH1 0x1 PUSH1 0xA0 SHL SWAP5 SWAP1 SWAP6 AND SWAP4 SWAP1 SWAP4 MUL SWAP4 SWAP1 SWAP4 OR DUP5 SSTORE DUP6 ADD MLOAD SWAP1 DUP4 ADD SSTORE SWAP3 SWAP1 SWAP2 ADD MLOAD PUSH1 0x2 SWAP1 SWAP2 ADD SSTORE PUSH1 0x3 DUP1 SLOAD DUP9 SWAP3 SWAP1 PUSH2 0xEB7 SWAP1 DUP5 SWAP1 PUSH2 0x1307 JUMP JUMPDEST SWAP3 POP POP DUP2 SWAP1 SSTORE POP DUP2 PUSH1 0x4 PUSH0 DUP3 DUP3 SLOAD PUSH2 0xECF SWAP2 SWAP1 PUSH2 0x1307 JUMP JUMPDEST SWAP1 SWAP2 SSTORE POP POP PUSH1 0x40 DUP1 MLOAD DUP3 DUP2 MSTORE PUSH1 0x1 PUSH1 0x1 PUSH1 0x60 SHL SUB DUP6 AND PUSH1 0x20 DUP3 ADD MSTORE DUP1 DUP3 ADD DUP9 SWAP1 MSTORE PUSH1 0x60 DUP2 ADD DUP5 SWAP1 MSTORE SWAP1 MLOAD CALLER SWAP2 PUSH32 0x24FE2D25C10EB2C67B5AC1E3EDBCADC94191E154ED388AD667A9480C44F47146 SWAP2 SWAP1 DUP2 SWAP1 SUB PUSH1 0x80 ADD SWAP1 LOG2 PUSH1 0x2 DUP1 SLOAD SWAP1 PUSH0 PUSH2 0xF35 DUP4 PUSH2 0x137B JUMP JUMPDEST SWAP1 SWAP2 SSTORE POP SWAP1 SWAP8 SWAP2 SWAP7 POP SWAP1 SWAP5 POP POP POP POP POP JUMP JUMPDEST PUSH2 0xF4F PUSH2 0xFE3 JUMP JUMPDEST PUSH1 0x1 PUSH1 0x1 PUSH1 0xA0 SHL SUB DUP2 AND PUSH2 0xF78 JUMPI PUSH1 0x40 MLOAD PUSH4 0x1E4FBDF7 PUSH1 0xE0 SHL DUP2 MSTORE PUSH0 PUSH1 0x4 DUP3 ADD MSTORE PUSH1 0x24 ADD PUSH2 0x381 JUMP JUMPDEST PUSH2 0xF81 DUP2 PUSH2 0x100F JUMP JUMPDEST POP JUMP JUMPDEST PUSH1 0x40 MLOAD PUSH1 0x1 PUSH1 0x1 PUSH1 0xA0 SHL SUB DUP4 DUP2 AND PUSH1 0x24 DUP4 ADD MSTORE PUSH1 0x44 DUP3 ADD DUP4 SWAP1 MSTORE PUSH2 0x926 SWAP2 DUP6 SWAP2 DUP3 AND SWAP1 PUSH4 0xA9059CBB SWAP1 PUSH1 0x64 ADD JUMPDEST PUSH1 0x40 MLOAD PUSH1 0x20 DUP2 DUP4 SUB SUB DUP2 MSTORE SWAP1 PUSH1 0x40 MSTORE SWAP2 POP PUSH1 0xE0 SHL PUSH1 0x20 DUP3 ADD DUP1 MLOAD PUSH1 0x1 PUSH1 0x1 PUSH1 0xE0 SHL SUB DUP4 DUP2 DUP4 AND OR DUP4 MSTORE POP POP POP POP PUSH2 0x109D JUMP JUMPDEST PUSH0 SLOAD PUSH1 0x1 PUSH1 0x1 PUSH1 0xA0 SHL SUB AND CALLER EQ PUSH2 0x561 JUMPI PUSH1 0x40 MLOAD PUSH4 0x118CDAA7 PUSH1 0xE0 SHL DUP2 MSTORE CALLER PUSH1 0x4 DUP3 ADD MSTORE PUSH1 0x24 ADD PUSH2 0x381 JUMP JUMPDEST PUSH0 DUP1 SLOAD PUSH1 0x1 PUSH1 0x1 PUSH1 0xA0 SHL SUB DUP4 DUP2 AND PUSH1 0x1 PUSH1 0x1 PUSH1 0xA0 SHL SUB NOT DUP4 AND DUP2 OR DUP5 SSTORE PUSH1 0x40 MLOAD SWAP2 SWAP1 SWAP3 AND SWAP3 DUP4 SWAP2 PUSH32 0x8BE0079C531659141344CD1FD0A4F28419497F9722A3DAAFE3B4186F6B6457E0 SWAP2 SWAP1 LOG3 POP POP JUMP JUMPDEST PUSH1 0x40 MLOAD PUSH1 0x1 PUSH1 0x1 PUSH1 0xA0 SHL SUB DUP5 DUP2 AND PUSH1 0x24 DUP4 ADD MSTORE DUP4 DUP2 AND PUSH1 0x44 DUP4 ADD MSTORE PUSH1 0x64 DUP3 ADD DUP4 SWAP1 MSTORE PUSH2 0x1097 SWAP2 DUP7 SWAP2 DUP3 AND SWAP1 PUSH4 0x23B872DD SWAP1 PUSH1 0x84 ADD PUSH2 0xFB1 JUMP JUMPDEST POP POP POP POP JUMP JUMPDEST PUSH0 PUSH0 PUSH1 0x20 PUSH0 DUP5 MLOAD PUSH1 0x20 DUP7 ADD PUSH0 DUP9 GAS CALL DUP1 PUSH2 0x10BC JUMPI PUSH1 0x40 MLOAD RETURNDATASIZE PUSH0 DUP3 RETURNDATACOPY RETURNDATASIZE DUP2 REVERT JUMPDEST POP POP PUSH0 MLOAD RETURNDATASIZE SWAP2 POP DUP2 ISZERO PUSH2 0x10D3 JUMPI DUP1 PUSH1 0x1 EQ ISZERO PUSH2 0x10E0 JUMP JUMPDEST PUSH1 0x1 PUSH1 0x1 PUSH1 0xA0 SHL SUB DUP5 AND EXTCODESIZE ISZERO JUMPDEST ISZERO PUSH2 0x1097 JUMPI PUSH1 0x40 MLOAD PUSH4 0x5274AFE7 PUSH1 0xE0 SHL DUP2 MSTORE PUSH1 0x1 PUSH1 0x1 PUSH1 0xA0 SHL SUB DUP6 AND PUSH1 0x4 DUP3 ADD MSTORE PUSH1 0x24 ADD PUSH2 0x381 JUMP JUMPDEST PUSH0 PUSH1 0x20 DUP3 DUP5 SUB SLT ISZERO PUSH2 0x1119 JUMPI PUSH0 PUSH0 REVERT JUMPDEST POP CALLDATALOAD SWAP2 SWAP1 POP JUMP JUMPDEST PUSH0 PUSH0 PUSH1 0x40 DUP4 DUP6 SUB SLT ISZERO PUSH2 0x1131 JUMPI PUSH0 PUSH0 REVERT JUMPDEST POP POP DUP1 CALLDATALOAD SWAP3 PUSH1 0x20 SWAP1 SWAP2 ADD CALLDATALOAD SWAP2 POP JUMP JUMPDEST PUSH0 PUSH0 PUSH1 0x20 DUP4 DUP6 SUB SLT ISZERO PUSH2 0x1151 JUMPI PUSH0 PUSH0 REVERT JUMPDEST DUP3 CALLDATALOAD PUSH8 0xFFFFFFFFFFFFFFFF DUP2 GT ISZERO PUSH2 0x1167 JUMPI PUSH0 PUSH0 REVERT JUMPDEST DUP4 ADD PUSH1 0x1F DUP2 ADD DUP6 SGT PUSH2 0x1177 JUMPI PUSH0 PUSH0 REVERT JUMPDEST DUP1 CALLDATALOAD PUSH8 0xFFFFFFFFFFFFFFFF DUP2 GT ISZERO PUSH2 0x118D JUMPI PUSH0 PUSH0 REVERT JUMPDEST DUP6 PUSH1 0x20 DUP3 PUSH1 0x5 SHL DUP5 ADD ADD GT ISZERO PUSH2 0x11A1 JUMPI PUSH0 PUSH0 REVERT JUMPDEST PUSH1 0x20 SWAP2 SWAP1 SWAP2 ADD SWAP6 SWAP1 SWAP5 POP SWAP3 POP POP POP JUMP JUMPDEST DUP1 CALLDATALOAD PUSH1 0x1 PUSH1 0x1 PUSH1 0xA0 SHL SUB DUP2 AND DUP2 EQ PUSH2 0x11C7 JUMPI PUSH0 PUSH0 REVERT JUMPDEST SWAP2 SWAP1 POP JUMP JUMPDEST PUSH0 PUSH0 PUSH1 0x40 DUP4 DUP6 SUB SLT ISZERO PUSH2 0x11DD JUMPI PUSH0 PUSH0 REVERT JUMPDEST PUSH2 0x11E6 DUP4 PUSH2 0x11B1 JUMP JUMPDEST SWAP5 PUSH1 0x20 SWAP4 SWAP1 SWAP4 ADD CALLDATALOAD SWAP4 POP POP POP JUMP JUMPDEST PUSH0 PUSH0 PUSH1 0x40 DUP4 DUP6 SUB SLT ISZERO PUSH2 0x1205 JUMPI PUSH0 PUSH0 REVERT JUMPDEST DUP3 CALLDATALOAD PUSH1 0x1 PUSH1 0x1 PUSH1 0x60 SHL SUB DUP2 AND DUP2 EQ PUSH2 0x11E6 JUMPI PUSH0 PUSH0 REVERT JUMPDEST PUSH0 PUSH1 0x20 DUP3 DUP5 SUB SLT ISZERO PUSH2 0x122B JUMPI PUSH0 PUSH0 REVERT JUMPDEST PUSH2 0x1234 DUP3 PUSH2 0x11B1 JUMP JUMPDEST SWAP4 SWAP3 POP POP POP JUMP JUMPDEST PUSH1 0x20 DUP1 DUP3 MSTORE PUSH1 0x19 SWAP1 DUP3 ADD MSTORE PUSH32 0x4D6F64756C65583A496E76616C6964205374616B652049442100000000000000 PUSH1 0x40 DUP3 ADD MSTORE PUSH1 0x60 ADD SWAP1 JUMP JUMPDEST PUSH4 0x4E487B71 PUSH1 0xE0 SHL PUSH0 MSTORE PUSH1 0x11 PUSH1 0x4 MSTORE PUSH1 0x24 PUSH0 REVERT JUMPDEST DUP2 DUP2 SUB DUP2 DUP2 GT ISZERO PUSH2 0x1299 JUMPI PUSH2 0x1299 PUSH2 0x1272 JUMP JUMPDEST SWAP3 SWAP2 POP POP JUMP JUMPDEST PUSH1 0x20 DUP1 DUP3 MSTORE PUSH1 0x29 SWAP1 DUP3 ADD MSTORE PUSH32 0x4D6F64756C65583A616D6F756E74206D75737420626520677265617465722074 PUSH1 0x40 DUP3 ADD MSTORE PUSH9 0x68616E207A65726F21 PUSH1 0xB8 SHL PUSH1 0x60 DUP3 ADD MSTORE PUSH1 0x80 ADD SWAP1 JUMP JUMPDEST PUSH0 DUP3 PUSH2 0x1302 JUMPI PUSH4 0x4E487B71 PUSH1 0xE0 SHL PUSH0 MSTORE PUSH1 0x12 PUSH1 0x4 MSTORE PUSH1 0x24 PUSH0 REVERT JUMPDEST POP DIV SWAP1 JUMP JUMPDEST DUP1 DUP3 ADD DUP1 DUP3 GT ISZERO PUSH2 0x1299 JUMPI PUSH2 0x1299 PUSH2 0x1272 JUMP JUMPDEST PUSH4 0x4E487B71 PUSH1 0xE0 SHL PUSH0 MSTORE PUSH1 0x32 PUSH1 0x4 MSTORE PUSH1 0x24 PUSH0 REVERT JUMPDEST DUP1 DUP3 MUL DUP2 ISZERO DUP3 DUP3 DIV DUP5 EQ OR PUSH2 0x1299 JUMPI PUSH2 0x1299 PUSH2 0x1272 JUMP JUMPDEST PUSH0 PUSH1 0x20 DUP3 DUP5 SUB SLT ISZERO PUSH2 0x1355 JUMPI PUSH0 PUSH0 REVERT JUMPDEST POP MLOAD SWAP2 SWAP1 POP JUMP JUMPDEST PUSH1 0x1 PUSH1 0x1 PUSH1 0x60 SHL SUB DUP2 DUP2 AND DUP4 DUP3 AND ADD SWAP1 DUP2 GT ISZERO PUSH2 0x1299 JUMPI PUSH2 0x1299 PUSH2 0x1272 JUMP JUMPDEST PUSH0 PUSH1 0x1 DUP3 ADD PUSH2 0x138C JUMPI PUSH2 0x138C PUSH2 0x1272 JUMP JUMPDEST POP PUSH1 0x1 ADD SWAP1 JUMP INVALID LOG2 PUSH5 0x6970667358 0x22 SLT KECCAK256 0xBC PUSH11 0xDBFD54A91A954691F255E 0x21 CALL 0xAA DUP1 DIV PUSH9 0x410FD1D8C1399BA671 PUSH6 0x41BFBC64736F PUSH13 0x634300081E0033000000000000 "
		},
		"gasEstimates": {
			"creation": {
				"codeDepositCost": "1013000",
				"executionCost": "infinite",
				"totalCost": "infinite"
			},
			"external": {
				"CREDI()": "infinite",
				"DIFFICULTY_INTERVAL()": "207",
				"MATURITY()": "260",
				"addRewards(uint256)": "infinite",
				"batchWithdrawCREDI(uint256[])": "infinite",
				"calculateReward(uint256)": "infinite",
				"claim(uint256)": "infinite",
				"getCREDIAddress()": "infinite",
				"getDifficulty()": "2509",
				"getStake(uint256)": "9016",
				"getStakesCount()": "2425",
				"getxCREDIAddress()": "infinite",
				"owner()": "2352",
				"pending_payments()": "2350",
				"renounceOwnership()": "infinite",
				"stake(uint96,uint256)": "infinite",
				"total_staked()": "2394",
				"transferOwnership(address)": "28461",
				"withdrawCREDI(uint256,uint256)": "infinite",
				"withdrawRewards(address,uint256)": "infinite",
				"xCREDI()": "infinite"
			},
			"internal": {
				"time_now()": "infinite"
			}
		},
		"methodIdentifiers": {
			"CREDI()": "6db08f25",
			"DIFFICULTY_INTERVAL()": "109cf399",
			"MATURITY()": "8e12c0cd",
			"addRewards(uint256)": "beceed39",
			"batchWithdrawCREDI(uint256[])": "bc854352",
			"calculateReward(uint256)": "d2d7231f",
			"claim(uint256)": "379607f5",
			"getCREDIAddress()": "d46149a2",
			"getDifficulty()": "b6baffe3",
			"getStake(uint256)": "ce325bf8",
			"getStakesCount()": "b5fa91fe",
			"getxCREDIAddress()": "7c2fdeb5",
			"owner()": "8da5cb5b",
			"pending_payments()": "8f4729b7",
			"renounceOwnership()": "715018a6",
			"stake(uint96,uint256)": "d93c04a0",
			"total_staked()": "af7568dd",
			"transferOwnership(address)": "f2fde38b",
			"withdrawCREDI(uint256,uint256)": "ac00500f",
			"withdrawRewards(address,uint256)": "d6ef7af0",
			"xCREDI()": "b109beec"
		}
	},
	"abi": [
		{
			"inputs": [
				{
					"internalType": "address",
					"name": "_credi_addr",
					"type": "address"
				},
				{
					"internalType": "address",
					"name": "_xcredi_addr",
					"type": "address"
				}
			],
			"stateMutability": "nonpayable",
			"type": "constructor"
		},
		{
			"inputs": [
				{
					"internalType": "address",
					"name": "owner",
					"type": "address"
				}
			],
			"name": "OwnableInvalidOwner",
			"type": "error"
		},
		{
			"inputs": [
				{
					"internalType": "address",
					"name": "account",
					"type": "address"
				}
			],
			"name": "OwnableUnauthorizedAccount",
			"type": "error"
		},
		{
			"inputs": [
				{
					"internalType": "address",
					"name": "token",
					"type": "address"
				}
			],
			"name": "SafeERC20FailedOperation",
			"type": "error"
		},
		{
			"anonymous": false,
			"inputs": [
				{
					"indexed": false,
					"internalType": "uint256",
					"name": "stake_id",
					"type": "uint256"
				},
				{
					"indexed": false,
					"internalType": "uint256",
					"name": "amount",
					"type": "uint256"
				}
			],
			"name": "CREDIWithdrawn",
			"type": "event"
		},
		{
			"anonymous": false,
			"inputs": [
				{
					"indexed": true,
					"internalType": "address",
					"name": "previousOwner",
					"type": "address"
				},
				{
					"indexed": true,
					"internalType": "address",
					"name": "newOwner",
					"type": "address"
				}
			],
			"name": "OwnershipTransferred",
			"type": "event"
		},
		{
			"anonymous": false,
			"inputs": [
				{
					"indexed": false,
					"internalType": "uint256",
					"name": "amount",
					"type": "uint256"
				}
			],
			"name": "RewardAdded",
			"type": "event"
		},
		{
			"anonymous": false,
			"inputs": [
				{
					"indexed": false,
					"internalType": "uint256",
					"name": "stake_id",
					"type": "uint256"
				}
			],
			"name": "RewardPaid",
			"type": "event"
		},
		{
			"anonymous": false,
			"inputs": [
				{
					"indexed": true,
					"internalType": "address",
					"name": "to",
					"type": "address"
				},
				{
					"indexed": false,
					"internalType": "uint256",
					"name": "amount",
					"type": "uint256"
				}
			],
			"name": "RewardWithdrawn",
			"type": "event"
		},
		{
			"anonymous": false,
			"inputs": [
				{
					"indexed": true,
					"internalType": "address",
					"name": "user",
					"type": "address"
				},
				{
					"indexed": false,
					"internalType": "uint256",
					"name": "stake_id",
					"type": "uint256"
				},
				{
					"indexed": false,
					"internalType": "uint96",
					"name": "maturity",
					"type": "uint96"
				},
				{
					"indexed": false,
					"internalType": "uint256",
					"name": "stake_amount",
					"type": "uint256"
				},
				{
					"indexed": false,
					"internalType": "uint256",
					"name": "rewards_amount",
					"type": "uint256"
				}
			],
			"name": "Staked",
			"type": "event"
		},
		{
			"inputs": [],
			"name": "CREDI",
			"outputs": [
				{
					"internalType": "contract IERC20",
					"name": "",
					"type": "address"
				}
			],
			"stateMutability": "view",
			"type": "function"
		},
		{
			"inputs": [],
			"name": "DIFFICULTY_INTERVAL",
			"outputs": [
				{
					"internalType": "uint256",
					"name": "",
					"type": "uint256"
				}
			],
			"stateMutability": "view",
			"type": "function"
		},
		{
			"inputs": [],
			"name": "MATURITY",
			"outputs": [
				{
					"internalType": "uint96",
					"name": "",
					"type": "uint96"
				}
			],
			"stateMutability": "view",
			"type": "function"
		},
		{
			"inputs": [
				{
					"internalType": "uint256",
					"name": "amount",
					"type": "uint256"
				}
			],
			"name": "addRewards",
			"outputs": [],
			"stateMutability": "nonpayable",
			"type": "function"
		},
		{
			"inputs": [
				{
					"internalType": "uint256[]",
					"name": "stake_ids",
					"type": "uint256[]"
				}
			],
			"name": "batchWithdrawCREDI",
			"outputs": [],
			"stateMutability": "nonpayable",
			"type": "function"
		},
		{
			"inputs": [
				{
					"internalType": "uint256",
					"name": "stake_amount",
					"type": "uint256"
				}
			],
			"name": "calculateReward",
			"outputs": [
				{
					"internalType": "uint256",
					"name": "",
					"type": "uint256"
				}
			],
			"stateMutability": "view",
			"type": "function"
		},
		{
			"inputs": [
				{
					"internalType": "uint256",
					"name": "stake_id",
					"type": "uint256"
				}
			],
			"name": "claim",
			"outputs": [
				{
					"internalType": "uint256",
					"name": "",
					"type": "uint256"
				}
			],
			"stateMutability": "nonpayable",
			"type": "function"
		},
		{
			"inputs": [],
			"name": "getCREDIAddress",
			"outputs": [
				{
					"internalType": "address",
					"name": "",
					"type": "address"
				}
			],
			"stateMutability": "view",
			"type": "function"
		},
		{
			"inputs": [],
			"name": "getDifficulty",
			"outputs": [
				{
					"internalType": "uint256",
					"name": "",
					"type": "uint256"
				}
			],
			"stateMutability": "view",
			"type": "function"
		},
		{
			"inputs": [
				{
					"internalType": "uint256",
					"name": "stake_id",
					"type": "uint256"
				}
			],
			"name": "getStake",
			"outputs": [
				{
					"internalType": "address",
					"name": "owner",
					"type": "address"
				},
				{
					"internalType": "uint256",
					"name": "maturity",
					"type": "uint256"
				},
				{
					"internalType": "uint256",
					"name": "stake_amount",
					"type": "uint256"
				},
				{
					"internalType": "uint256",
					"name": "reward_amount",
					"type": "uint256"
				}
			],
			"stateMutability": "view",
			"type": "function"
		},
		{
			"inputs": [],
			"name": "getStakesCount",
			"outputs": [
				{
					"internalType": "uint256",
					"name": "",
					"type": "uint256"
				}
			],
			"stateMutability": "view",
			"type": "function"
		},
		{
			"inputs": [],
			"name": "getxCREDIAddress",
			"outputs": [
				{
					"internalType": "address",
					"name": "",
					"type": "address"
				}
			],
			"stateMutability": "view",
			"type": "function"
		},
		{
			"inputs": [],
			"name": "owner",
			"outputs": [
				{
					"internalType": "address",
					"name": "",
					"type": "address"
				}
			],
			"stateMutability": "view",
			"type": "function"
		},
		{
			"inputs": [],
			"name": "pending_payments",
			"outputs": [
				{
					"internalType": "uint256",
					"name": "",
					"type": "uint256"
				}
			],
			"stateMutability": "view",
			"type": "function"
		},
		{
			"inputs": [],
			"name": "renounceOwnership",
			"outputs": [],
			"stateMutability": "nonpayable",
			"type": "function"
		},
		{
			"inputs": [
				{
					"internalType": "uint96",
					"name": "lock_period",
					"type": "uint96"
				},
				{
					"internalType": "uint256",
					"name": "stake_amount",
					"type": "uint256"
				}
			],
			"name": "stake",
			"outputs": [
				{
					"internalType": "uint256",
					"name": "",
					"type": "uint256"
				},
				{
					"internalType": "uint256",
					"name": "",
					"type": "uint256"
				}
			],
			"stateMutability": "nonpayable",
			"type": "function"
		},
		{
			"inputs": [],
			"name": "total_staked",
			"outputs": [
				{
					"internalType": "uint256",
					"name": "",
					"type": "uint256"
				}
			],
			"stateMutability": "view",
			"type": "function"
		},
		{
			"inputs": [
				{
					"internalType": "address",
					"name": "newOwner",
					"type": "address"
				}
			],
			"name": "transferOwnership",
			"outputs": [],
			"stateMutability": "nonpayable",
			"type": "function"
		},
		{
			"inputs": [
				{
					"internalType": "uint256",
					"name": "stake_id",
					"type": "uint256"
				},
				{
					"internalType": "uint256",
					"name": "amount",
					"type": "uint256"
				}
			],
			"name": "withdrawCREDI",
			"outputs": [],
			"stateMutability": "nonpayable",
			"type": "function"
		},
		{
			"inputs": [
				{
					"internalType": "address",
					"name": "to",
					"type": "address"
				},
				{
					"internalType": "uint256",
					"name": "amount",
					"type": "uint256"
				}
			],
			"name": "withdrawRewards",
			"outputs": [],
			"stateMutability": "nonpayable",
			"type": "function"
		},
		{
			"inputs": [],
			"name": "xCREDI",
			"outputs": [
				{
					"internalType": "contract IERC20",
					"name": "",
					"type": "address"
				}
			],
			"stateMutability": "view",
			"type": "function"
		}
	]
}