{
	"data": {
		"bytecode": {
			"linkReferences": {},
			"object": "60e0604052633b9aca006007557e01c1380001fbd0000f4240000003e800000001000002da000000070000000a6008556009805463ffffffff19166105dc1790556001600d55348015610050575f5ffd5b5060405161517c38038061517c83398101604081905261006f916101fe565b80338061009557604051631e4fbdf760e01b81525f600482015260240160405180910390fd5b61009e81610170565b506100a8816101bf565b506001600655600a80546001600160a01b0319166001600160a01b0387811691909117909155841660808190526040805163313ce56760e01b8152905163313ce567916004808201926020929091908290030181865afa15801561010e573d5f5f3e3d5ffd5b505050506040513d601f19601f8201168201806040525081019061013291906102f0565b60ff1660a052506001600160a01b0391821660c052600980549190921664010000000002600160201b600160c01b0319909116179055506104559050565b5f80546001600160a01b038381166001600160a01b0319831681178455604051919092169283917f8be0079c531659141344cd1fd0a4f28419497f9722a3daafe3b4186f6b6457e09190a35050565b60036101cb828261039b565b5050565b80516001600160a01b03811681146101e5575f5ffd5b919050565b634e487b7160e01b5f52604160045260245ffd5b5f5f5f5f5f60a08688031215610212575f5ffd5b61021b866101cf565b9450610229602087016101cf565b9350610237604087016101cf565b9250610245606087016101cf565b60808701519092506001600160401b03811115610260575f5ffd5b8601601f81018813610270575f5ffd5b80516001600160401b03811115610289576102896101ea565b604051601f8201601f19908116603f011681016001600160401b03811182821017156102b7576102b76101ea565b6040528181528282016020018a10156102ce575f5ffd5b8160208401602083015e5f602083830101528093505050509295509295909350565b5f60208284031215610300575f5ffd5b815160ff81168114610310575f5ffd5b9392505050565b600181811c9082168061032b57607f821691505b60208210810361034957634e487b7160e01b5f52602260045260245ffd5b50919050565b601f82111561039657805f5260205f20601f840160051c810160208510156103745750805b601f840160051c820191505b81811015610393575f8155600101610380565b50505b505050565b81516001600160401b038111156103b4576103b46101ea565b6103c8816103c28454610317565b8461034f565b6020601f8211600181146103fa575f83156103e35750848201515b5f19600385901b1c1916600184901b178455610393565b5f84815260208120601f198516915b828110156104295787850151825560209485019460019092019101610409565b508482101561044657868401515f19600387901b60f8161c191681555b50505050600190811b01905550565b60805160a05160c051614c786105045f395f81816106b001528181610d2301528181610d7601528181611323015281816117bf015261244c01525f81816119ba01528181612d970152818161314c015261354901525f81816104d701528181610bcd01528181610c330152818161181601528181611995015281816121a90152818161221b0152818161268001528181612d7201528181613127015281816132d401526135270152614c785ff3fe608060405234801561000f575f5ffd5b506004361061037c575f3560e01c80636e5f4a89116101d4578063aa9f762811610109578063c9dd1f3c116100a9578063ef92182611610079578063ef92182614610851578063f08a538114610864578063f242432a14610877578063f2fde38b1461088a575f5ffd5b8063c9dd1f3c14610801578063e444f54514610814578063e51d375a14610827578063e985e9c51461083e575f5ffd5b8063b6a6d177116100e4578063b6a6d1771461079e578063bd85b039146107b5578063c5b3a376146107d4578063c5f16166146107e7575f5ffd5b8063aa9f762814610764578063acbb65af14610777578063b1724b4614610787575f5ffd5b8063950d91e911610174578063a22cb4651161014f578063a22cb46514610714578063a45234d014610727578063a877e9ce1461073a578063a8a71e091461074d575f5ffd5b8063950d91e9146106e25780639d100875146106ea578063a0420e7f146106fd575f5ffd5b80637fee67a2116101af5780637fee67a21461068f57806388e086651461069857806389a30271146106ab5780638da5cb5b146106d2575f5ffd5b80636e5f4a8914610661578063715018a6146106745780637175030d1461067c575f5ffd5b80632eb2c2d6116102b5578063487829961161025557806351f740d51161022557806351f740d514610611578063530e784f146106245780636112fe2e14610637578063670d5b631461064a575f5ffd5b806348782996146105aa57806349d4a7c4146105bd5780634e1273f4146105d05780634f558e79146105f0575f5ffd5b806335557e5c1161029057806335557e5c1461055a578063371fd8e61461056d578063373071f2146105805780633d92f4e214610593575f5ffd5b80632eb2c2d61461051f5780633273b1101461053457806334591a3e14610547575f5ffd5b80630e89341c1161032057806321241dfe116102fb57806321241dfe146104b057806324bbab8b146104d25780632bed89e5146104f95780632d4cdfc31461050c575f5ffd5b80630e89341c1461046857806318160ddd146104885780631c4fd41c14610490575f5ffd5b80630431aaf21161035b5780630431aaf2146103e35780630714012c146103f65780630a19399a146104185780630b4501fd14610443575f5ffd5b8062fdd58e1461038057806301ffc9a7146103a657806303cc1194146103c9575b5f5ffd5b61039361038e366004613f6a565b61089d565b6040519081526020015b60405180910390f35b6103b96103b4366004613fa7565b6108c6565b604051901515815260200161039d565b6103d1600581565b60405160ff909116815260200161039d565b6103936103f1366004614015565b610915565b610409610404366004614089565b610dfb565b60405161039d939291906140a0565b600a5461042b906001600160a01b031681565b6040516001600160a01b03909116815260200161039d565b6009546104539063ffffffff1681565b60405163ffffffff909116815260200161039d565b61047b610476366004614089565b610f8d565b60405161039d91906141b9565b600554610393565b6104a361049e366004614089565b61101f565b60405161039d91906141df565b6104ba6201518081565b6040516001600160601b03909116815260200161039d565b61042b7f000000000000000000000000000000000000000000000000000000000000000081565b610393610507366004614205565b611147565b61039361051a36600461422e565b6114f2565b61053261052d366004614389565b611595565b005b610532610542366004614448565b6115fc565b610532610555366004614089565b611663565b610532610568366004614448565b6116a0565b61053261057b366004614089565b6116fe565b61053261058e366004614461565b611894565b60085461045390600160a01b900463ffffffff1681565b6103936105b836600461447a565b6118fa565b6105326105cb366004614448565b611a4e565b6105e36105de3660046144c1565b611aad565b60405161039d91906145bc565b6103b96105fe366004614089565b5f90815260046020526040902054151590565b61039361061f3660046145ce565b611b77565b610532610632366004614461565b612015565b610532610645366004614089565b61206b565b60085461045390600160e01b900463ffffffff1681565b61053261066f366004614089565b6122df565b6105326124cf565b61039361068a366004614618565b6124e2565b61039360075481565b6105326106a636600461422e565b61297a565b61042b7f000000000000000000000000000000000000000000000000000000000000000081565b5f546001600160a01b031661042b565b6104ba603c81565b6105326106f8366004614448565b612bfa565b60085461045390600160c01b900463ffffffff1681565b6105326107223660046146aa565b612c59565b610532610735366004614448565b612c64565b6103b961074836600461447a565b612cc3565b60085461045390600160601b900463ffffffff1681565b610532610772366004614448565b612e3a565b6008546104539063ffffffff1681565b60085461045390600160401b900463ffffffff1681565b60085461045390600160201b900463ffffffff1681565b6103936107c3366004614089565b5f9081526004602052604090205490565b6105326107e2366004614448565b612e8a565b60095461042b90600160201b90046001600160a01b031681565b61039361080f366004614089565b612ee9565b61053261082236600461447a565b613052565b60085461045390600160801b900463ffffffff1681565b6103b961084c3660046146db565b61335d565b61053261085f366004614448565b61338a565b610532610872366004614448565b6133ee565b610532610885366004614703565b61343e565b610532610898366004614461565b61349d565b5f8181526001602090815260408083206001600160a01b03861684529091529020545b92915050565b5f6001600160e01b03198216636cdb3d1360e11b14806108f657506001600160e01b031982166303a24d0760e21b145b806108c057506301ffc9a760e01b6001600160e01b03198316146108c0565b5f61091e6134d7565b875f8111801561092f5750600d5481105b6109545760405162461bcd60e51b815260040161094b90614756565b60405180910390fd5b5f898152600b60209081526040808320600c835281842060049093529220548a1580159061098257508a8110155b801561098e5750898111155b6109f25760405162461bcd60e51b815260206004820152602f60248201527f5032504c656e64696e6720726571756972653a303c6d696e5f6c6f74733c3d7360448201526e7570706c793c3d6d61785f6c6f747360881b606482015260840161094b565b5f6109fc8d61101f565b90506001816005811115610a1257610a126141cb565b1480610a2f57506002816005811115610a2d57610a2d6141cb565b145b610a7b5760405162461bcd60e51b815260206004820152601960248201527f5032504c656e64696e673a43616e6e6f7420626f72726f772100000000000000604482015260640161094b565b82546001600160a01b0316331480610a9b575082546001600160a01b0316155b610ab75760405162461bcd60e51b815260040161094b90614780565b81845582546001600160a01b031916331783556002840154610aea906001600160601b03600160a01b90910416426147cb565b83546001600160601b0391909116600160a01b026001600160a01b039091161783555050600182015482545f91610b20916147ea565b60028401549091505f90610b409083906001600160a01b03168a8a613501565b90508915610c60575f610b556005600a6148e4565b6003860154610b72908490600160201b900463ffffffff166147ea565b610b7c91906148f2565b90508360010154811115610bfd575f846001015482610b9b9190614911565b9050808b1015610bbd5760405162461bcd60e51b815260040161094b90614924565b8454610bf7906001600160a01b037f0000000000000000000000000000000000000000000000000000000000000000811691163084613593565b50610c5a565b8360010154811015610c5a5783546001850154610c5a916001600160a01b031690610c29908490614911565b6001600160a01b037f0000000000000000000000000000000000000000000000000000000000000000169190613600565b60018401555b610c6c6005600a6148e4565b600854610c87908390600160c01b900463ffffffff166147ea565b610c9191906148f2565b83600101541015610ce45760405162461bcd60e51b815260206004820152601f60248201527f5032504c656e64696e673a496e63726561736520636f6c6c61746572616c2100604482015260640161094b565b5f610cf16005600a6148e4565b600954610d0590859063ffffffff166147ea565b610d0f91906148f2565b600954909150610d53906001600160a01b037f0000000000000000000000000000000000000000000000000000000000000000811691600160201b90041683613600565b8354610d9d906001600160a01b0316610d6c8386614911565b6001600160a01b037f0000000000000000000000000000000000000000000000000000000000000000169190613600565b5083546040519081528d907f044ec4d36b0d76019c4b5aec2a216dbca5ad6c6d671940c8fbbcd23cfe4e804b9060200160405180910390a2610dde8d613631565b5050905492505050610df06001600655565b979650505050505050565b60408051610100810182525f80825260208201819052918101829052606081018290526080810182905260a0810182905260c0810182905260e08101919091526040805160a0810182525f808252602082018190529181018290526060810182905260808101919091525f835f81118015610e775750600d5481105b610e935760405162461bcd60e51b815260040161094b90614756565b5050505f91825250600b60209081526040808320600c835281842060048452938290205482516101008101845282548152600180840154828701526002808501546001600160a01b03808216858901526001600160601b03600160a01b92839004811660608088019190915260039889015463ffffffff8082166080808b0191909152600160201b8304821660a0808c0191909152600160401b840490921660c08b0152600160601b909204841660e08a01528b519081018c528d5494851681529490930482169a84019a909a52938a01549782019790975290880154968101969096529290950154909116918301919091529192909190565b606060038054610f9c9061496b565b80601f0160208091040260200160405190810160405280929190818152602001828054610fc89061496b565b80156110135780601f10610fea57610100808354040283529160200191611013565b820191905f5260205f20905b815481529060010190602001808311610ff657829003601f168201915b50505050509050919050565b5f818152600b60209081526040808320600c90925282208154830361104757505f9392505050565b80546001600160a01b031615801561106a57505f84815260046020526040902054155b8061108b575080546001600160a01b03161580159061108b57506001810154155b1561109a575060059392505050565b8054600160a01b90046001600160601b03165f036111165760038101546001600160601b0316158015906110dd575060038101546001600160601b034281169116105b156110ec575060039392505050565b5f848152600460205260409020548254111561110c575060019392505050565b5060029392505050565b60018101541561113d575f848152600460205260409020541561113d575060049392505050565b5060059392505050565b5f6111506134d7565b835f811180156111615750600d5481105b61117d5760405162461bcd60e51b815260040161094b90614756565b5f8411801561118c5750828410155b6111f35760405162461bcd60e51b815260206004820152603260248201527f5032504c656e64696e6720726571756972653a7461726765745f6c6f74733e30604482015271202626206c6f74733e3d6d696e5f6c6f747360701b606482015260840161094b565b60016111fe8661101f565b600581111561120f5761120f6141cb565b146112705760405162461bcd60e51b815260206004820152602b60248201527f5032504c656e64696e673a4c6f616e537461747573206e6f7420657175616c7360448201526a2046494e414e43494e472160a81b606482015260840161094b565b5f858152600b60209081526040808320600490925282205490919082546112979190614911565b9050848110156112f75760405162461bcd60e51b815260206004820152602560248201527f5032504c656e64696e673a4e6f7420656e6f75676820617661696c61626c65206044820152646c6f74732160d81b606482015260840161094b565b5f61130287836136bc565b905061134b333083866001015461131991906147ea565b6001600160a01b037f000000000000000000000000000000000000000000000000000000000000000016929190613593565b61136533898360405180602001604052805f8152506136cb565b82545f8981526004602052604090205411156113d45760405162461bcd60e51b815260206004820152602860248201527f5032504c656e64696e6720726571756972653a737570706c793c3d6c6f74735f6044820152671c995c5d5a5c995960c21b606482015260840161094b565b82545f8981526004602052604090205442919003611461576113f962015180826147cb565b5f8a8152600c602090815260409182902060030180546001600160601b0319166001600160601b0394909416938417905590519182528a917f6fce911d7163d1242cd9f1727a93eb2d9232bb808db0881b448196dcd2fe412d910160405180910390a26114a4565b61146c603c826147cb565b335f908152600e602090815260408083208d8452909152902080546001600160601b0319166001600160601b03929092169190911790555b60405182815233908a907fbc00f64d7f7fdd45626f23c5b8bfa1c1b8e64faf4200efb7da5a7439a326f9559060200160405180910390a35093505050506114eb6001600655565b9392505050565b5f825f811180156115045750600d5481105b6115205760405162461bcd60e51b815260040161094b90614756565b5f848152600460205260409020548015611589575f858152600c602052604081206002015415611560575f868152600c6020526040902060020154611569565b61156986612ee9565b90508161157682876147ea565b61158091906148f2565b9350505061158e565b5f9250505b5092915050565b336001600160a01b03861681148015906115b657506115b4868261335d565b155b156115e75760405163711bec9160e11b81526001600160a01b0380831660048301528716602482015260440161094b565b6115f48686868686613726565b505050505050565b61160461378b565b6008805467ffffffff000000001916600160201b63ffffffff8481168202929092179283905560405192041681527f85595cb7b81d221172988f4bf171b00745e5c6f4e17760cc33dd2f02dcb57ae4906020015b60405180910390a150565b61166b61378b565b60078190556040518181527fde6a3638493f2725f743c7c5c9801d3143c92f2adf4825f0434dd9513b2943c790602001611658565b6116a861378b565b600880546001600160e01b0316600160e01b63ffffffff8481168202929092179283905560405192041681527f89c571e0d88872f4418634e394070dbe24a78682b16a616b1f8e02a2939d421e90602001611658565b6117066134d7565b805f811180156117175750600d5481105b6117335760405162461bcd60e51b815260040161094b90614756565b600461173e8361101f565b600581111561174f5761174f6141cb565b1461176c5760405162461bcd60e51b815260040161094b906149a3565b5f828152600c6020526040902080546001600160a01b031633146117a25760405162461bcd60e51b815260040161094b90614780565b5f6117ac84612ee9565b82549091506117e9906001600160a01b037f0000000000000000000000000000000000000000000000000000000000000000811691163084613593565b80826002015f8282546117fc91906149ec565b909155505081546001830154611840916001600160a01b037f0000000000000000000000000000000000000000000000000000000000000000811692911690613600565b5f600183015560405181815284907f552544cb36551120f07c66c5cd4b2987725a0c72198587f2ce796099bb66c58c9060200160405180910390a261188484613631565b5050506118916001600655565b50565b61189c61378b565b60098054640100000000600160c01b031916600160201b6001600160a01b038481168202929092179283905560405192041681527f15a6d8dbe28500fe360d4a194d18559ae45775c191765d262c598c2fcb59d96790602001611658565b5f835f8111801561190c5750600d5481105b6119285760405162461bcd60e51b815260040161094b90614756565b60046119338661101f565b6005811115611944576119446141cb565b146119615760405162461bcd60e51b815260040161094b906149a3565b5f858152600b6020908152604080832060020154600c909252909120600101546001600160a01b0390911690634bbf415c907f0000000000000000000000000000000000000000000000000000000000000000906005907f00000000000000000000000000000000000000000000000000000000000000006119e28b612ee9565b8a8a6040518863ffffffff1660e01b8152600401611a069796959493929190614a27565b602060405180830381865afa158015611a21573d5f5f3e3d5ffd5b505050506040513d601f19601f82011682018060405250810190611a459190614a73565b95945050505050565b611a5661378b565b6008805463ffffffff60a01b1916600160a01b63ffffffff8481168202929092179283905560405192041681527f7b0ffac54449edefe5c8b153777b5873e7673d02c8ac936f3cb37a9a2b9e00d590602001611658565b60608151835114611ade5781518351604051635b05999160e01b81526004810192909252602482015260440161094b565b5f83516001600160401b03811115611af857611af861424e565b604051908082528060200260200182016040528015611b21578160200160208202803683370190505b5090505f5b8451811015611b6f57602080820286010151611b4a9060208084028701015161089d565b828281518110611b5c57611b5c614a8a565b6020908102919091010152600101611b26565b509392505050565b5f611b806134d7565b60085463ffffffff168510801590611bab575060085463ffffffff600160c01b909104811690851610155b8015611bca575060085463ffffffff600160201b909104811690841610155b8015611be9575060085463ffffffff600160401b909104811690841611155b8015611c08575060085463ffffffff600160801b909104811690831610155b8015611c27575060085463ffffffff600160a01b909104811690831611155b611c735760405162461bcd60e51b815260206004820152601d60248201527f5032504c656e64696e673a496e76616c696420617267756d656e747321000000604482015260640161094b565b611c8633308760075461131991906147ea565b611ca233600d548760405180602001604052805f8152506136cb565b60408051610100810182528681526007546020820152600a546001600160a01b03169181019190915260608101611cdc8562015180614a9e565b63ffffffff166001600160601b031681526020018363ffffffff1681526020018563ffffffff1681526020016008601c9054906101000a900463ffffffff1663ffffffff1681526020015f6001600160601b0316815250600b5f600d5481526020019081526020015f205f820151815f0155602082015181600101556040820151816002015f6101000a8154816001600160a01b0302191690836001600160a01b0316021790555060608201518160020160146101000a8154816001600160601b0302191690836001600160601b031602179055506080820151816003015f6101000a81548163ffffffff021916908363ffffffff16021790555060a08201518160030160046101000a81548163ffffffff021916908363ffffffff16021790555060c08201518160030160086101000a81548163ffffffff021916908363ffffffff16021790555060e082015181600301600c6101000a8154816001600160601b0302191690836001600160601b031602179055509050506040518060a001604052805f6001600160a01b031681526020015f6001600160601b031681526020015f81526020015f81526020015f6001600160601b0316815250600c5f600d5481526020019081526020015f205f820151815f015f6101000a8154816001600160a01b0302191690836001600160a01b031602179055506020820151815f0160146101000a8154816001600160601b0302191690836001600160601b0316021790555060408201518160010155606082015181600201556080820151816003015f6101000a8154816001600160601b0302191690836001600160601b03160217905550905050611f4a3390565b600d545f818152600b60205260409081902080546001820154600283015460039093015493516001600160a01b03968716967f2f89d5518972ef9f2027aa908ae490b2bd691fbd59e127d7badcdb6bf75551d695611fe695918216926001600160601b03600160a01b90930483169263ffffffff80841693600160201b8104821693600160401b820490921692600160601b9091041690614abd565b60405180910390a3600d8054905f611ffd83614b12565b91905055905061200d6001600655565b949350505050565b61201d61378b565b600a80546001600160a01b0319166001600160a01b0383169081179091556040519081527f88a686e0e341d9099f2f990c3aa759a86822142a67579064b43ded9354a2566290602001611658565b6120736134d7565b805f811180156120845750600d5481105b6120a05760405162461bcd60e51b815260040161094b90614756565b5f828152600c6020526040902080546001600160a01b031633146120d65760405162461bcd60e51b815260040161094b90614780565b8054600160a01b90046001600160601b03161580156120f857505f8160010154115b6121445760405162461bcd60e51b815260206004820152601b60248201527f5032504c656e64696e673a43616e6e6f74205769746864726177210000000000604482015260640161094b565b600161214f8461101f565b6005811115612160576121606141cb565b14801561218f57505f838152600b60205260409020600301546001600160601b03428116600160601b90920416105b156121d857805460018201546121d3916001600160a01b037f0000000000000000000000000000000000000000000000000000000000000000811692911690613600565b61226d565b5f6121e56005600a6148e4565b60018301546009546121fd919063ffffffff166147ea565b61220791906148f2565b60095490915061224b906001600160a01b037f0000000000000000000000000000000000000000000000000000000000000000811691600160201b90041683613600565b8154600183015461226b916001600160a01b031690610c29908490614911565b505b5f6001828101829055848252600b6020908152604080842090920154600490915291205461229b91906147ea565b600282015560405183907ffc226bcc04f8f8905af4229a5d361773b6bb568167898414274c713c6179e6cb905f90a26122d383613631565b50506118916001600655565b6122e76134d7565b805f811180156122f85750600d5481105b6123145760405162461bcd60e51b815260040161094b90614756565b600561231f8361101f565b6005811115612330576123306141cb565b146123915760405162461bcd60e51b815260206004820152602b60248201527f5032504c656e64696e673a4c6f616e537461747573206d75737420657175616c60448201526a732046494e49534845442160a81b606482015260840161094b565b5f61239c338461089d565b90505f81116123ed5760405162461bcd60e51b815260206004820152601c60248201527f5032504c656e64696e673a4e6f7468696e6720746f20636c61696d2100000000604482015260640161094b565b5f838152600c602090815260408083206004909252822054909190600283015461241790856147ea565b61242191906148f2565b905080826002015f8282546124369190614911565b9091555061244790503386856137b7565b61247b7f00000000000000000000000000000000000000000000000000000000000000006001600160a01b03163383613600565b6040805184815260208101839052339187917ffcdaabbcac647c42f2fbf34f6c5a49ee8a8cd0b64ef5eb50b25441bdb133ddf2910160405180910390a36124c185613631565b505050506118916001600655565b6124d761378b565b6124e05f61381d565b565b5f6124eb6134d7565b60085463ffffffff168910801590612516575060085463ffffffff600160c01b909104811690881610155b8015612535575060085463ffffffff600160201b909104811690871610155b8015612554575060085463ffffffff600160401b909104811690871611155b8015612573575060085463ffffffff600160801b909104811690861610155b8015612592575060085463ffffffff600160a01b909104811690861611155b80156125b1575060085463ffffffff600160601b909104811690851610155b6125fd5760405162461bcd60e51b815260206004820152601d60248201527f5032504c656e64696e673a496e76616c696420617267756d656e747321000000604482015260640161094b565b5f8960075461260c91906147ea565b90505f61261b6005600a6148e4565b600a546126349084906001600160a01b03168888613501565b6126449063ffffffff8c166147ea565b61264e91906148f2565b9050808a1015801561265f57505f81115b61267b5760405162461bcd60e51b815260040161094b90614924565b6126b07f00000000000000000000000000000000000000000000000000000000000000006001600160a01b0316333084613593565b60408051610100810182528c81526007546020820152600a546001600160a01b031691810191909152606081016126ea8a62015180614a9e565b63ffffffff908116825289811660208301528b81166040830152600854600160e01b90041660608201526080016127248862015180614a9e565b6127349063ffffffff16426147cb565b6001600160601b03908116909152600d545f908152600b6020908152604091829020845181559084015160018201558382015160608501518416600160a01b026001600160a01b0390911617600282015560808401516003909101805460a08087015160c088015160e090980151909616600160601b026bffffffffffffffffffffffff60601b1963ffffffff988916600160401b021677ffffffffffffffffffffffffffffffff000000000000000019978916600160201b0267ffffffffffffffff199094169890951697909717919091179490941691909117939093179092558151908101909152806128263390565b6001600160a01b0390811682525f6020808401829052604080850187905260608086018490526080958601849052600d80548552600c8452828520885189860151908816600160a01b6001600160601b0392831681029190911783558a860151600180850191909155948b01516002808501919091559a90990151600392830180546001600160601b0319169183169190911790559154808752600b9095529483902080549281015498810154950154925193977fe0b5c9ec62aade94ca24b2ac9d81b2037be7d64cb9e5730fcc727bb885ee60379761293a979396919593821694910482169263ffffffff80831693600160201b8404821693600160401b810490921692600160601b9092041690614abd565b60405180910390a261294d600d54613631565b600d8054905f61295c83614b12565b919050559250505061296e6001600655565b98975050505050505050565b6129826134d7565b815f811180156129935750600d5481105b6129af5760405162461bcd60e51b815260040161094b90614756565b5f8211612a115760405162461bcd60e51b815260206004820152602a60248201527f5032504c656e64696e673a6c6f7473206d7573742062652067726561746572206044820152697468616e207a65726f2160b01b606482015260840161094b565b5f612a1b8461101f565b5f858152600c60205260409020549091506001600160a01b03161580612a5257506003816005811115612a5057612a506141cb565b145b80612a9f57506001816005811115612a6c57612a6c6141cb565b148015612a9f5750335f908152600e602090815260408083208784529091529020546001600160601b0390811642909116115b612aeb5760405162461bcd60e51b815260206004820152601b60248201527f5032504c656e64696e673a43616e6e6f74207769746864726177210000000000604482015260640161094b565b612af63385856137b7565b5f848152600c60205260409020546001600160a01b0316612b93575f84815260046020526040902054801580612b34575060085463ffffffff168110155b612b915760405162461bcd60e51b815260206004820152602860248201527f5032504c656e64696e673a537570706c792062656c6f77204d494e5f4c4f54536044820152675f414d4f554e542160c01b606482015260840161094b565b505b612bb3335f868152600b6020526040902060010154610d6c9086906147ea565b604051838152339085907fbf8fb3d353686a0832043307d6f9bb618df238d387c7dbc9d0fa2fc7b7cba7269060200160405180910390a35050612bf66001600655565b5050565b612c0261378b565b6008805463ffffffff60c01b1916600160c01b63ffffffff8481168202929092179283905560405192041681527fe03aa8e619c2efc3dcda53a6319b90bd43e44772026248ffaabc2a1535bba8e590602001611658565b612bf633838361386c565b612c6c61378b565b6008805463ffffffff60801b1916600160801b63ffffffff8481168202929092179283905560405192041681527f2519fd4cf837fefb87387523f27d23369ea51186f29f745cc4677e7c319b3ec090602001611658565b5f5f84118015612cd45750600d5484105b1580612cfa57506004612ce68561101f565b6005811115612cf757612cf76141cb565b14155b80612e2657505f848152600c60205260409020546001600160601b03428116600160a01b909204161080612e2457505f848152600b602090815260408083206003810154600290910154600c909352922060010154600160401b90920463ffffffff16916001600160a01b0390911690634bbf415c907f0000000000000000000000000000000000000000000000000000000000000000906005907f0000000000000000000000000000000000000000000000000000000000000000612dbf8b612ee9565b8a8a6040518863ffffffff1660e01b8152600401612de39796959493929190614a27565b602060405180830381865afa158015612dfe573d5f5f3e3d5ffd5b505050506040513d601f19601f82011682018060405250810190612e229190614a73565b105b155b15612e3257505f6114eb565b5060016114eb565b612e4261378b565b6009805463ffffffff191663ffffffff83169081179091556040519081527f7f6f57fed03f08a846d1dd7051e9d858e85408182510ec902f0d92130791028490602001611658565b612e9261378b565b6008805463ffffffff60601b1916600160601b63ffffffff8481168202929092179283905560405192041681527f62b518624e16dadca83b89e62d9f351d869e67a350d856935f3a3083aa4cf94890602001611658565b5f818152600c602052604081208054600160a01b90046001600160601b03161580612f1657506001810154155b15612f2357505f92915050565b5f838152600b602090815260408083206001810154600490935290832054909291612f4d916147ea565b83549091505f906001600160601b03428116600160a01b9092041611612f93576002830154612f8e90600190600160a01b90046001600160601b0316614b2a565b612fc6565b60028301548454612fbc916001600160601b03600160a01b918290048116929190910416614b2a565b612fc69042614b2a565b6001600160601b03169050612fde62015180826148f2565b612fe99060016149ec565b612ff690620151806147ea565b90506301e133806130096005600a6148e4565b600385015484906130209063ffffffff16856147ea565b61302a91906147ea565b61303491906148f2565b61303e91906148f2565b61304890836149ec565b9695505050505050565b61305a6134d7565b825f8111801561306b5750600d5481105b6130875760405162461bcd60e51b815260040161094b90614756565b60046130928561101f565b60058111156130a3576130a36141cb565b146130c05760405162461bcd60e51b815260040161094b906149a3565b5f848152600b60209081526040808320600c90925290912080546001600160601b03428116600160a01b9092041610806131da5750600382015460028301546001830154600160401b90920463ffffffff16916001600160a01b039091169063b4e37cf9907f0000000000000000000000000000000000000000000000000000000000000000906005907f00000000000000000000000000000000000000000000000000000000000000006131748d612ee9565b8c8c6040518863ffffffff1660e01b81526004016131989796959493929190614a27565b6020604051808303815f875af11580156131b4573d5f5f3e3d5ffd5b505050506040513d601f19601f820116820180604052508101906131d89190614a73565b105b6132265760405162461bcd60e51b815260206004820152601c60248201527f5032504c656e64696e673a43616e6e6f74204c69717569646174652100000000604482015260640161094b565b5f613231338861089d565b90505f81116132825760405162461bcd60e51b815260206004820152601c60248201527f5032504c656e64696e673a4e6f7468696e6720746f20636c61696d2100000000604482015260640161094b565b5f87815260046020526040812054600184015461329f90846147ea565b6132a991906148f2565b905080836001015f8282546132be9190614911565b909155506132cf90503389846137b7565b6133037f00000000000000000000000000000000000000000000000000000000000000006001600160a01b03163383613600565b604080518381526020810183905233918a917f1d444c28894712984a4fe069711274d086859136f702d387bda2f1cd90d66df8910160405180910390a361334988613631565b50505050506133586001600655565b505050565b6001600160a01b039182165f90815260026020908152604080832093909416825291909152205460ff1690565b61339261378b565b600880546bffffffff00000000000000001916600160401b63ffffffff8481168202929092179283905560405192041681527fa33c859c6a01d7d71b062ae88c11d026efd55b26b354dfc8844e5a74b8bf069b90602001611658565b6133f661378b565b6008805463ffffffff191663ffffffff83169081179091556040519081527f8b8bfa8b607aee8f950b269ee81087cd304216fd813ac4f3aead05d7072a3a1390602001611658565b336001600160a01b038616811480159061345f575061345d868261335d565b155b156134905760405163711bec9160e11b81526001600160a01b0380831660048301528716602482015260440161094b565b6115f48686868686613900565b6134a561378b565b6001600160a01b0381166134ce57604051631e4fbdf760e01b81525f600482015260240161094b565b6118918161381d565b6002600654036134fa57604051633ee5aeb560e01b815260040160405180910390fd5b6002600655565b60405163c5801aa360e01b81525f906001600160a01b0385169063c5801aa390613577907f0000000000000000000000000000000000000000000000000000000000000000907f0000000000000000000000000000000000000000000000000000000000000000908a9089908990600401614b49565b6020604051808303815f875af1158015611a21573d5f5f3e3d5ffd5b6040516001600160a01b0384811660248301528381166044830152606482018390526135fa9186918216906323b872dd906084015b604051602081830303815290604052915060e01b6020820180516001600160e01b03838183161783525050505061398c565b50505050565b6040516001600160a01b0383811660248301526044820183905261335891859182169063a9059cbb906064016135c8565b5f818152600c602090815260409182902080546001820154600283015460039093015485516001600160601b03600160a01b85048116825295810192909252948101929092529190921660608301526001600160a01b03169082907f289938dfd99639eb7b7174b9259eaa5a4b3a1d69d143b4d03d58b86ac502517d9060800160405180910390a350565b5f8282188284100282186114eb565b6001600160a01b0384166136f457604051632bfa23e760e11b81525f600482015260240161094b565b604080516001808252602082018690528183019081526060820185905260808201909252906115f45f878484876139f8565b6001600160a01b03841661374f57604051632bfa23e760e11b81525f600482015260240161094b565b6001600160a01b03851661377757604051626a0d4560e21b81525f600482015260240161094b565b61378485858585856139f8565b5050505050565b5f546001600160a01b031633146124e05760405163118cdaa760e01b815233600482015260240161094b565b6001600160a01b0383166137df57604051626a0d4560e21b81525f600482015260240161094b565b604080516001808252602082018590528183019081526060820184905260a082019092525f60808201818152919291613784918791859085906139f8565b5f80546001600160a01b038381166001600160a01b0319831681178455604051919092169283917f8be0079c531659141344cd1fd0a4f28419497f9722a3daafe3b4186f6b6457e09190a35050565b6001600160a01b0382166138945760405162ced3e160e81b81525f600482015260240161094b565b6001600160a01b038381165f81815260026020908152604080832094871680845294825291829020805460ff191686151590811790915591519182527f17307eab39ab6107e8899845ad3d59bd9653f200f220920489ca2b5937696c31910160405180910390a3505050565b6001600160a01b03841661392957604051632bfa23e760e11b81525f600482015260240161094b565b6001600160a01b03851661395157604051626a0d4560e21b81525f600482015260240161094b565b6040805160018082526020820186905281830190815260608201859052608082019092529061398387878484876139f8565b50505050505050565b5f5f60205f8451602086015f885af1806139ab576040513d5f823e3d81fd5b50505f513d915081156139c25780600114156139cf565b6001600160a01b0384163b155b156135fa57604051635274afe760e01b81526001600160a01b038516600482015260240161094b565b613a0485858585613a4b565b6001600160a01b038416156137845782513390600103613a3d5760208481015190840151613a36838989858589613b32565b50506115f4565b6115f4818787878787613c53565b613a5784848484613d3a565b6001600160a01b038416613ad4575f805b8351811015613abb5760208181028481018201519086018201515f908152600490925260408220805491928392613aa09084906149ec565b90915550613ab0905081846149ec565b925050600101613a68565b508060055f828254613acd91906149ec565b9091555050505b6001600160a01b0383166135fa575f805b8351811015613b215760208181028481018201519086018201515f90815260049092526040909120805482900390559190910190600101613ae5565b506005805491909103905550505050565b6001600160a01b0384163b156115f45760405163f23a6e6160e01b81526001600160a01b0385169063f23a6e6190613b769089908990889088908890600401614b79565b6020604051808303815f875af1925050508015613bb0575060408051601f3d908101601f19168201909252613bad91810190614bb2565b60015b613c17573d808015613bdd576040519150601f19603f3d011682016040523d82523d5f602084013e613be2565b606091505b5080515f03613c0f57604051632bfa23e760e11b81526001600160a01b038616600482015260240161094b565b805181602001fd5b6001600160e01b0319811663f23a6e6160e01b1461398357604051632bfa23e760e11b81526001600160a01b038616600482015260240161094b565b6001600160a01b0384163b156115f45760405163bc197c8160e01b81526001600160a01b0385169063bc197c8190613c979089908990889088908890600401614bcd565b6020604051808303815f875af1925050508015613cd1575060408051601f3d908101601f19168201909252613cce91810190614bb2565b60015b613cfe573d808015613bdd576040519150601f19603f3d011682016040523d82523d5f602084013e613be2565b6001600160e01b0319811663bc197c8160e01b1461398357604051632bfa23e760e11b81526001600160a01b038616600482015260240161094b565b8051825114613d695781518151604051635b05999160e01b81526004810192909252602482015260440161094b565b335f5b8351811015613e71576020818102858101820151908501909101516001600160a01b03881615613e21575f8281526001602090815260408083206001600160a01b038c16845290915290205481811015613df9576040516303dee4c560e01b81526001600160a01b038a16600482015260248101829052604481018390526064810184905260840161094b565b5f8381526001602090815260408083206001600160a01b038d16845290915290209082900390555b6001600160a01b03871615613e67575f8281526001602090815260408083206001600160a01b038b16845290915281208054839290613e619084906149ec565b90915550505b5050600101613d6c565b508251600103613ef15760208301515f906020840151909150856001600160a01b0316876001600160a01b0316846001600160a01b03167fc3d58168c5ae7397731d063d5bbf3d657854427343f4c083240f7aacaa2d0f628585604051613ee2929190918252602082015260400190565b60405180910390a45050613784565b836001600160a01b0316856001600160a01b0316826001600160a01b03167f4a39dc06d4c0dbc64b70af90fd698a233a518aa5d07e595d983b8c0526c8f7fb8686604051613f40929190614c1e565b60405180910390a45050505050565b80356001600160a01b0381168114613f65575f5ffd5b919050565b5f5f60408385031215613f7b575f5ffd5b613f8483613f4f565b946020939093013593505050565b6001600160e01b031981168114611891575f5ffd5b5f60208284031215613fb7575f5ffd5b81356114eb81613f92565b80358015158114613f65575f5ffd5b5f5f83601f840112613fe1575f5ffd5b5081356001600160401b03811115613ff7575f5ffd5b60208301915083602082850101111561400e575f5ffd5b9250929050565b5f5f5f5f5f5f5f60c0888a03121561402b575f5ffd5b87359650602088013595506040880135945061404960608901613fc2565b93506080880135925060a08801356001600160401b0381111561406a575f5ffd5b6140768a828b01613fd1565b989b979a50959850939692959293505050565b5f60208284031215614099575f5ffd5b5035919050565b83518152602080850151908201526040808501516001600160a01b0316908201526060808501516001600160601b03169082015260808085015163ffffffff169082015260a0808501516101c08301916141019084018263ffffffff169052565b5060c085015161411960c084018263ffffffff169052565b5060e085015161413460e08401826001600160601b03169052565b5083516001600160a01b031661010083015260208401516001600160601b03908116610120840152604085015161014084015260608501516101608401526080909401519093166101808201526101a00152919050565b5f81518084528060208401602086015e5f602082860101526020601f19601f83011685010191505092915050565b602081525f6114eb602083018461418b565b634e487b7160e01b5f52602160045260245ffd5b60208101600683106141ff57634e487b7160e01b5f52602160045260245ffd5b91905290565b5f5f5f60608486031215614217575f5ffd5b505081359360208301359350604090920135919050565b5f5f6040838503121561423f575f5ffd5b50508035926020909101359150565b634e487b7160e01b5f52604160045260245ffd5b604051601f8201601f191681016001600160401b038111828210171561428a5761428a61424e565b604052919050565b5f6001600160401b038211156142aa576142aa61424e565b5060051b60200190565b5f82601f8301126142c3575f5ffd5b81356142d66142d182614292565b614262565b8082825260208201915060208360051b8601019250858311156142f7575f5ffd5b602085015b838110156143145780358352602092830192016142fc565b5095945050505050565b5f82601f83011261432d575f5ffd5b81356001600160401b038111156143465761434661424e565b614359601f8201601f1916602001614262565b81815284602083860101111561436d575f5ffd5b816020850160208301375f918101602001919091529392505050565b5f5f5f5f5f60a0868803121561439d575f5ffd5b6143a686613f4f565b94506143b460208701613f4f565b935060408601356001600160401b038111156143ce575f5ffd5b6143da888289016142b4565b93505060608601356001600160401b038111156143f5575f5ffd5b614401888289016142b4565b92505060808601356001600160401b0381111561441c575f5ffd5b6144288882890161431e565b9150509295509295909350565b803563ffffffff81168114613f65575f5ffd5b5f60208284031215614458575f5ffd5b6114eb82614435565b5f60208284031215614471575f5ffd5b6114eb82613f4f565b5f5f5f6040848603121561448c575f5ffd5b8335925060208401356001600160401b038111156144a8575f5ffd5b6144b486828701613fd1565b9497909650939450505050565b5f5f604083850312156144d2575f5ffd5b82356001600160401b038111156144e7575f5ffd5b8301601f810185136144f7575f5ffd5b80356145056142d182614292565b8082825260208201915060208360051b850101925087831115614526575f5ffd5b6020840193505b8284101561454f5761453e84613f4f565b82526020938401939091019061452d565b945050505060208301356001600160401b0381111561456c575f5ffd5b614578858286016142b4565b9150509250929050565b5f8151808452602084019350602083015f5b828110156145b2578151865260209586019590910190600101614594565b5093949350505050565b602081525f6114eb6020830184614582565b5f5f5f5f608085870312156145e1575f5ffd5b843593506145f160208601614435565b92506145ff60408601614435565b915061460d60608601614435565b905092959194509250565b5f5f5f5f5f5f5f5f60e0898b03121561462f575f5ffd5b883597506020890135965061464660408a01614435565b955061465460608a01614435565b945061466260808a01614435565b935061467060a08a01614435565b925060c08901356001600160401b0381111561468a575f5ffd5b6146968b828c01613fd1565b999c989b5096995094979396929594505050565b5f5f604083850312156146bb575f5ffd5b6146c483613f4f565b91506146d260208401613fc2565b90509250929050565b5f5f604083850312156146ec575f5ffd5b6146f583613f4f565b91506146d260208401613f4f565b5f5f5f5f5f60a08688031215614717575f5ffd5b61472086613f4f565b945061472e60208701613f4f565b9350604086013592506060860135915060808601356001600160401b0381111561441c575f5ffd5b60208082526010908201526f496e76616c6964204c6f616e2049442160801b604082015260600190565b6020808252601f908201527f5032504c656e64696e673a43616c6c6572206973206e6f74206f776e65722100604082015260600190565b634e487b7160e01b5f52601160045260245ffd5b6001600160601b0381811683821601908111156108c0576108c06147b7565b80820281158282048414176108c0576108c06147b7565b6001815b600184111561483c57808504811115614820576148206147b7565b600184161561482e57908102905b60019390931c928002614805565b935093915050565b5f82614852575060016108c0565b8161485e57505f6108c0565b8160018114614874576002811461487e5761489a565b60019150506108c0565b60ff84111561488f5761488f6147b7565b50506001821b6108c0565b5060208310610133831016604e8410600b84101617156148bd575081810a6108c0565b6148c95f198484614801565b805f19048211156148dc576148dc6147b7565b029392505050565b5f6114eb60ff841683614844565b5f8261490c57634e487b7160e01b5f52601260045260245ffd5b500490565b818103818111156108c0576108c06147b7565b60208082526027908201527f5032504c656e64696e673a496e637265617365206d61785f636f6c6c61746572604082015266616c5f6f75742160c81b606082015260800190565b600181811c9082168061497f57607f821691505b60208210810361499d57634e487b7160e01b5f52602260045260245ffd5b50919050565b60208082526029908201527f5032504c656e64696e673a4c6f616e537461747573206d75737420657175616c60408201526873204143544956452160b81b606082015260800190565b808201808211156108c0576108c06147b7565b81835281816020850137505f828201602090810191909152601f909101601f19169091010190565b60018060a01b038816815260ff8716602082015285604082015260ff8516606082015283608082015260c060a08201525f614a6660c0830184866149ff565b9998505050505050505050565b5f60208284031215614a83575f5ffd5b5051919050565b634e487b7160e01b5f52603260045260245ffd5b63ffffffff818116838216029081169081811461158e5761158e6147b7565b97885260208801969096526001600160a01b039490941660408701526001600160601b03928316606087015263ffffffff9182166080870152811660a086015290911660c08401521660e08201526101000190565b5f60018201614b2357614b236147b7565b5060010190565b6001600160601b0382811682821603908111156108c0576108c06147b7565b60018060a01b038616815260ff85166020820152836040820152608060608201525f610df06080830184866149ff565b6001600160a01b03868116825285166020820152604081018490526060810183905260a0608082018190525f90610df09083018461418b565b5f60208284031215614bc2575f5ffd5b81516114eb81613f92565b6001600160a01b0386811682528516602082015260a0604082018190525f90614bf890830186614582565b8281036060840152614c0a8186614582565b9050828103608084015261296e818561418b565b604081525f614c306040830185614582565b8281036020840152611a45818561458256fea264697066735822122062972d57e7e23c906ddde9aef652cfd909685e1128af463bd3adaafc74b3155464736f6c634300081e0033",
			"opcodes": "PUSH1 0xE0 PUSH1 0x40 MSTORE PUSH4 0x3B9ACA00 PUSH1 0x7 SSTORE PUSH31 0x1C1380001FBD0000F4240000003E800000001000002DA000000070000000A PUSH1 0x8 SSTORE PUSH1 0x9 DUP1 SLOAD PUSH4 0xFFFFFFFF NOT AND PUSH2 0x5DC OR SWAP1 SSTORE PUSH1 0x1 PUSH1 0xD SSTORE CALLVALUE DUP1 ISZERO PUSH2 0x50 JUMPI PUSH0 PUSH0 REVERT JUMPDEST POP PUSH1 0x40 MLOAD PUSH2 0x517C CODESIZE SUB DUP1 PUSH2 0x517C DUP4 CODECOPY DUP2 ADD PUSH1 0x40 DUP2 SWAP1 MSTORE PUSH2 0x6F SWAP2 PUSH2 0x1FE JUMP JUMPDEST DUP1 CALLER DUP1 PUSH2 0x95 JUMPI PUSH1 0x40 MLOAD PUSH4 0x1E4FBDF7 PUSH1 0xE0 SHL DUP2 MSTORE PUSH0 PUSH1 0x4 DUP3 ADD MSTORE PUSH1 0x24 ADD PUSH1 0x40 MLOAD DUP1 SWAP2 SUB SWAP1 REVERT JUMPDEST PUSH2 0x9E DUP2 PUSH2 0x170 JUMP JUMPDEST POP PUSH2 0xA8 DUP2 PUSH2 0x1BF JUMP JUMPDEST POP PUSH1 0x1 PUSH1 0x6 SSTORE PUSH1 0xA DUP1 SLOAD PUSH1 0x1 PUSH1 0x1 PUSH1 0xA0 SHL SUB NOT AND PUSH1 0x1 PUSH1 0x1 PUSH1 0xA0 SHL SUB DUP8 DUP2 AND SWAP2 SWAP1 SWAP2 OR SWAP1 SWAP2 SSTORE DUP5 AND PUSH1 0x80 DUP2 SWAP1 MSTORE PUSH1 0x40 DUP1 MLOAD PUSH4 0x313CE567 PUSH1 0xE0 SHL DUP2 MSTORE SWAP1 MLOAD PUSH4 0x313CE567 SWAP2 PUSH1 0x4 DUP1 DUP3 ADD SWAP3 PUSH1 0x20 SWAP3 SWAP1 SWAP2 SWAP1 DUP3 SWAP1 SUB ADD DUP2 DUP7 GAS STATICCALL ISZERO DUP1 ISZERO PUSH2 0x10E JUMPI RETURNDATASIZE PUSH0 PUSH0 RETURNDATACOPY RETURNDATASIZE PUSH0 REVERT JUMPDEST POP POP POP POP PUSH1 0x40 MLOAD RETURNDATASIZE PUSH1 0x1F NOT PUSH1 0x1F DUP3 ADD AND DUP3 ADD DUP1 PUSH1 0x40 MSTORE POP DUP2 ADD SWAP1 PUSH2 0x132 SWAP2 SWAP1 PUSH2 0x2F0 JUMP JUMPDEST PUSH1 0xFF AND PUSH1 0xA0 MSTORE POP PUSH1 0x1 PUSH1 0x1 PUSH1 0xA0 SHL SUB SWAP2 DUP3 AND PUSH1 0xC0 MSTORE PUSH1 0x9 DUP1 SLOAD SWAP2 SWAP1 SWAP3 AND PUSH5 0x100000000 MUL PUSH1 0x1 PUSH1 0x20 SHL PUSH1 0x1 PUSH1 0xC0 SHL SUB NOT SWAP1 SWAP2 AND OR SWAP1 SSTORE POP PUSH2 0x455 SWAP1 POP JUMP JUMPDEST PUSH0 DUP1 SLOAD PUSH1 0x1 PUSH1 0x1 PUSH1 0xA0 SHL SUB DUP4 DUP2 AND PUSH1 0x1 PUSH1 0x1 PUSH1 0xA0 SHL SUB NOT DUP4 AND DUP2 OR DUP5 SSTORE PUSH1 0x40 MLOAD SWAP2 SWAP1 SWAP3 AND SWAP3 DUP4 SWAP2 PUSH32 0x8BE0079C531659141344CD1FD0A4F28419497F9722A3DAAFE3B4186F6B6457E0 SWAP2 SWAP1 LOG3 POP POP JUMP JUMPDEST PUSH1 0x3 PUSH2 0x1CB DUP3 DUP3 PUSH2 0x39B JUMP JUMPDEST POP POP JUMP JUMPDEST DUP1 MLOAD PUSH1 0x1 PUSH1 0x1 PUSH1 0xA0 SHL SUB DUP2 AND DUP2 EQ PUSH2 0x1E5 JUMPI PUSH0 PUSH0 REVERT JUMPDEST SWAP2 SWAP1 POP JUMP JUMPDEST PUSH4 0x4E487B71 PUSH1 0xE0 SHL PUSH0 MSTORE PUSH1 0x41 PUSH1 0x4 MSTORE PUSH1 0x24 PUSH0 REVERT JUMPDEST PUSH0 PUSH0 PUSH0 PUSH0 PUSH0 PUSH1 0xA0 DUP7 DUP9 SUB SLT ISZERO PUSH2 0x212 JUMPI PUSH0 PUSH0 REVERT JUMPDEST PUSH2 0x21B DUP7 PUSH2 0x1CF JUMP JUMPDEST SWAP5 POP PUSH2 0x229 PUSH1 0x20 DUP8 ADD PUSH2 0x1CF JUMP JUMPDEST SWAP4 POP PUSH2 0x237 PUSH1 0x40 DUP8 ADD PUSH2 0x1CF JUMP JUMPDEST SWAP3 POP PUSH2 0x245 PUSH1 0x60 DUP8 ADD PUSH2 0x1CF JUMP JUMPDEST PUSH1 0x80 DUP8 ADD MLOAD SWAP1 SWAP3 POP PUSH1 0x1 PUSH1 0x1 PUSH1 0x40 SHL SUB DUP2 GT ISZERO PUSH2 0x260 JUMPI PUSH0 PUSH0 REVERT JUMPDEST DUP7 ADD PUSH1 0x1F DUP2 ADD DUP9 SGT PUSH2 0x270 JUMPI PUSH0 PUSH0 REVERT JUMPDEST DUP1 MLOAD PUSH1 0x1 PUSH1 0x1 PUSH1 0x40 SHL SUB DUP2 GT ISZERO PUSH2 0x289 JUMPI PUSH2 0x289 PUSH2 0x1EA JUMP JUMPDEST PUSH1 0x40 MLOAD PUSH1 0x1F DUP3 ADD PUSH1 0x1F NOT SWAP1 DUP2 AND PUSH1 0x3F ADD AND DUP2 ADD PUSH1 0x1 PUSH1 0x1 PUSH1 0x40 SHL SUB DUP2 GT DUP3 DUP3 LT OR ISZERO PUSH2 0x2B7 JUMPI PUSH2 0x2B7 PUSH2 0x1EA JUMP JUMPDEST PUSH1 0x40 MSTORE DUP2 DUP2 MSTORE DUP3 DUP3 ADD PUSH1 0x20 ADD DUP11 LT ISZERO PUSH2 0x2CE JUMPI PUSH0 PUSH0 REVERT JUMPDEST DUP2 PUSH1 0x20 DUP5 ADD PUSH1 0x20 DUP4 ADD MCOPY PUSH0 PUSH1 0x20 DUP4 DUP4 ADD ADD MSTORE DUP1 SWAP4 POP POP POP POP SWAP3 SWAP6 POP SWAP3 SWAP6 SWAP1 SWAP4 POP JUMP JUMPDEST PUSH0 PUSH1 0x20 DUP3 DUP5 SUB SLT ISZERO PUSH2 0x300 JUMPI PUSH0 PUSH0 REVERT JUMPDEST DUP2 MLOAD PUSH1 0xFF DUP2 AND DUP2 EQ PUSH2 0x310 JUMPI PUSH0 PUSH0 REVERT JUMPDEST SWAP4 SWAP3 POP POP POP JUMP JUMPDEST PUSH1 0x1 DUP2 DUP2 SHR SWAP1 DUP3 AND DUP1 PUSH2 0x32B JUMPI PUSH1 0x7F DUP3 AND SWAP2 POP JUMPDEST PUSH1 0x20 DUP3 LT DUP2 SUB PUSH2 0x349 JUMPI PUSH4 0x4E487B71 PUSH1 0xE0 SHL PUSH0 MSTORE PUSH1 0x22 PUSH1 0x4 MSTORE PUSH1 0x24 PUSH0 REVERT JUMPDEST POP SWAP2 SWAP1 POP JUMP JUMPDEST PUSH1 0x1F DUP3 GT ISZERO PUSH2 0x396 JUMPI DUP1 PUSH0 MSTORE PUSH1 0x20 PUSH0 KECCAK256 PUSH1 0x1F DUP5 ADD PUSH1 0x5 SHR DUP2 ADD PUSH1 0x20 DUP6 LT ISZERO PUSH2 0x374 JUMPI POP DUP1 JUMPDEST PUSH1 0x1F DUP5 ADD PUSH1 0x5 SHR DUP3 ADD SWAP2 POP JUMPDEST DUP2 DUP2 LT ISZERO PUSH2 0x393 JUMPI PUSH0 DUP2 SSTORE PUSH1 0x1 ADD PUSH2 0x380 JUMP JUMPDEST POP POP JUMPDEST POP POP POP JUMP JUMPDEST DUP2 MLOAD PUSH1 0x1 PUSH1 0x1 PUSH1 0x40 SHL SUB DUP2 GT ISZERO PUSH2 0x3B4 JUMPI PUSH2 0x3B4 PUSH2 0x1EA JUMP JUMPDEST PUSH2 0x3C8 DUP2 PUSH2 0x3C2 DUP5 SLOAD PUSH2 0x317 JUMP JUMPDEST DUP5 PUSH2 0x34F JUMP JUMPDEST PUSH1 0x20 PUSH1 0x1F DUP3 GT PUSH1 0x1 DUP2 EQ PUSH2 0x3FA JUMPI PUSH0 DUP4 ISZERO PUSH2 0x3E3 JUMPI POP DUP5 DUP3 ADD MLOAD JUMPDEST PUSH0 NOT PUSH1 0x3 DUP6 SWAP1 SHL SHR NOT AND PUSH1 0x1 DUP5 SWAP1 SHL OR DUP5 SSTORE PUSH2 0x393 JUMP JUMPDEST PUSH0 DUP5 DUP2 MSTORE PUSH1 0x20 DUP2 KECCAK256 PUSH1 0x1F NOT DUP6 AND SWAP2 JUMPDEST DUP3 DUP2 LT ISZERO PUSH2 0x429 JUMPI DUP8 DUP6 ADD MLOAD DUP3 SSTORE PUSH1 0x20 SWAP5 DUP6 ADD SWAP5 PUSH1 0x1 SWAP1 SWAP3 ADD SWAP2 ADD PUSH2 0x409 JUMP JUMPDEST POP DUP5 DUP3 LT ISZERO PUSH2 0x446 JUMPI DUP7 DUP5 ADD MLOAD PUSH0 NOT PUSH1 0x3 DUP8 SWAP1 SHL PUSH1 0xF8 AND SHR NOT AND DUP2 SSTORE JUMPDEST POP POP POP POP PUSH1 0x1 SWAP1 DUP2 SHL ADD SWAP1 SSTORE POP JUMP JUMPDEST PUSH1 0x80 MLOAD PUSH1 0xA0 MLOAD PUSH1 0xC0 MLOAD PUSH2 0x4C78 PUSH2 0x504 PUSH0 CODECOPY PUSH0 DUP2 DUP2 PUSH2 0x6B0 ADD MSTORE DUP2 DUP2 PUSH2 0xD23 ADD MSTORE DUP2 DUP2 PUSH2 0xD76 ADD MSTORE DUP2 DUP2 PUSH2 0x1323 ADD MSTORE DUP2 DUP2 PUSH2 0x17BF ADD MSTORE PUSH2 0x244C ADD MSTORE PUSH0 DUP2 DUP2 PUSH2 0x19BA ADD MSTORE DUP2 DUP2 PUSH2 0x2D97 ADD MSTORE DUP2 DUP2 PUSH2 0x314C ADD MSTORE PUSH2 0x3549 ADD MSTORE PUSH0 DUP2 DUP2 PUSH2 0x4D7 ADD MSTORE DUP2 DUP2 PUSH2 0xBCD ADD MSTORE DUP2 DUP2 PUSH2 0xC33 ADD MSTORE DUP2 DUP2 PUSH2 0x1816 ADD MSTORE DUP2 DUP2 PUSH2 0x1995 ADD MSTORE DUP2 DUP2 PUSH2 0x21A9 ADD MSTORE DUP2 DUP2 PUSH2 0x221B ADD MSTORE DUP2 DUP2 PUSH2 0x2680 ADD MSTORE DUP2 DUP2 PUSH2 0x2D72 ADD MSTORE DUP2 DUP2 PUSH2 0x3127 ADD MSTORE DUP2 DUP2 PUSH2 0x32D4 ADD MSTORE PUSH2 0x3527 ADD MSTORE PUSH2 0x4C78 PUSH0 RETURN INVALID PUSH1 0x80 PUSH1 0x40 MSTORE CALLVALUE DUP1 ISZERO PUSH2 0xF JUMPI PUSH0 PUSH0 REVERT JUMPDEST POP PUSH1 0x4 CALLDATASIZE LT PUSH2 0x37C JUMPI PUSH0 CALLDATALOAD PUSH1 0xE0 SHR DUP1 PUSH4 0x6E5F4A89 GT PUSH2 0x1D4 JUMPI DUP1 PUSH4 0xAA9F7628 GT PUSH2 0x109 JUMPI DUP1 PUSH4 0xC9DD1F3C GT PUSH2 0xA9 JUMPI DUP1 PUSH4 0xEF921826 GT PUSH2 0x79 JUMPI DUP1 PUSH4 0xEF921826 EQ PUSH2 0x851 JUMPI DUP1 PUSH4 0xF08A5381 EQ PUSH2 0x864 JUMPI DUP1 PUSH4 0xF242432A EQ PUSH2 0x877 JUMPI DUP1 PUSH4 0xF2FDE38B EQ PUSH2 0x88A JUMPI PUSH0 PUSH0 REVERT JUMPDEST DUP1 PUSH4 0xC9DD1F3C EQ PUSH2 0x801 JUMPI DUP1 PUSH4 0xE444F545 EQ PUSH2 0x814 JUMPI DUP1 PUSH4 0xE51D375A EQ PUSH2 0x827 JUMPI DUP1 PUSH4 0xE985E9C5 EQ PUSH2 0x83E JUMPI PUSH0 PUSH0 REVERT JUMPDEST DUP1 PUSH4 0xB6A6D177 GT PUSH2 0xE4 JUMPI DUP1 PUSH4 0xB6A6D177 EQ PUSH2 0x79E JUMPI DUP1 PUSH4 0xBD85B039 EQ PUSH2 0x7B5 JUMPI DUP1 PUSH4 0xC5B3A376 EQ PUSH2 0x7D4 JUMPI DUP1 PUSH4 0xC5F16166 EQ PUSH2 0x7E7 JUMPI PUSH0 PUSH0 REVERT JUMPDEST DUP1 PUSH4 0xAA9F7628 EQ PUSH2 0x764 JUMPI DUP1 PUSH4 0xACBB65AF EQ PUSH2 0x777 JUMPI DUP1 PUSH4 0xB1724B46 EQ PUSH2 0x787 JUMPI PUSH0 PUSH0 REVERT JUMPDEST DUP1 PUSH4 0x950D91E9 GT PUSH2 0x174 JUMPI DUP1 PUSH4 0xA22CB465 GT PUSH2 0x14F JUMPI DUP1 PUSH4 0xA22CB465 EQ PUSH2 0x714 JUMPI DUP1 PUSH4 0xA45234D0 EQ PUSH2 0x727 JUMPI DUP1 PUSH4 0xA877E9CE EQ PUSH2 0x73A JUMPI DUP1 PUSH4 0xA8A71E09 EQ PUSH2 0x74D JUMPI PUSH0 PUSH0 REVERT JUMPDEST DUP1 PUSH4 0x950D91E9 EQ PUSH2 0x6E2 JUMPI DUP1 PUSH4 0x9D100875 EQ PUSH2 0x6EA JUMPI DUP1 PUSH4 0xA0420E7F EQ PUSH2 0x6FD JUMPI PUSH0 PUSH0 REVERT JUMPDEST DUP1 PUSH4 0x7FEE67A2 GT PUSH2 0x1AF JUMPI DUP1 PUSH4 0x7FEE67A2 EQ PUSH2 0x68F JUMPI DUP1 PUSH4 0x88E08665 EQ PUSH2 0x698 JUMPI DUP1 PUSH4 0x89A30271 EQ PUSH2 0x6AB JUMPI DUP1 PUSH4 0x8DA5CB5B EQ PUSH2 0x6D2 JUMPI PUSH0 PUSH0 REVERT JUMPDEST DUP1 PUSH4 0x6E5F4A89 EQ PUSH2 0x661 JUMPI DUP1 PUSH4 0x715018A6 EQ PUSH2 0x674 JUMPI DUP1 PUSH4 0x7175030D EQ PUSH2 0x67C JUMPI PUSH0 PUSH0 REVERT JUMPDEST DUP1 PUSH4 0x2EB2C2D6 GT PUSH2 0x2B5 JUMPI DUP1 PUSH4 0x48782996 GT PUSH2 0x255 JUMPI DUP1 PUSH4 0x51F740D5 GT PUSH2 0x225 JUMPI DUP1 PUSH4 0x51F740D5 EQ PUSH2 0x611 JUMPI DUP1 PUSH4 0x530E784F EQ PUSH2 0x624 JUMPI DUP1 PUSH4 0x6112FE2E EQ PUSH2 0x637 JUMPI DUP1 PUSH4 0x670D5B63 EQ PUSH2 0x64A JUMPI PUSH0 PUSH0 REVERT JUMPDEST DUP1 PUSH4 0x48782996 EQ PUSH2 0x5AA JUMPI DUP1 PUSH4 0x49D4A7C4 EQ PUSH2 0x5BD JUMPI DUP1 PUSH4 0x4E1273F4 EQ PUSH2 0x5D0 JUMPI DUP1 PUSH4 0x4F558E79 EQ PUSH2 0x5F0 JUMPI PUSH0 PUSH0 REVERT JUMPDEST DUP1 PUSH4 0x35557E5C GT PUSH2 0x290 JUMPI DUP1 PUSH4 0x35557E5C EQ PUSH2 0x55A JUMPI DUP1 PUSH4 0x371FD8E6 EQ PUSH2 0x56D JUMPI DUP1 PUSH4 0x373071F2 EQ PUSH2 0x580 JUMPI DUP1 PUSH4 0x3D92F4E2 EQ PUSH2 0x593 JUMPI PUSH0 PUSH0 REVERT JUMPDEST DUP1 PUSH4 0x2EB2C2D6 EQ PUSH2 0x51F JUMPI DUP1 PUSH4 0x3273B110 EQ PUSH2 0x534 JUMPI DUP1 PUSH4 0x34591A3E EQ PUSH2 0x547 JUMPI PUSH0 PUSH0 REVERT JUMPDEST DUP1 PUSH4 0xE89341C GT PUSH2 0x320 JUMPI DUP1 PUSH4 0x21241DFE GT PUSH2 0x2FB JUMPI DUP1 PUSH4 0x21241DFE EQ PUSH2 0x4B0 JUMPI DUP1 PUSH4 0x24BBAB8B EQ PUSH2 0x4D2 JUMPI DUP1 PUSH4 0x2BED89E5 EQ PUSH2 0x4F9 JUMPI DUP1 PUSH4 0x2D4CDFC3 EQ PUSH2 0x50C JUMPI PUSH0 PUSH0 REVERT JUMPDEST DUP1 PUSH4 0xE89341C EQ PUSH2 0x468 JUMPI DUP1 PUSH4 0x18160DDD EQ PUSH2 0x488 JUMPI DUP1 PUSH4 0x1C4FD41C EQ PUSH2 0x490 JUMPI PUSH0 PUSH0 REVERT JUMPDEST DUP1 PUSH4 0x431AAF2 GT PUSH2 0x35B JUMPI DUP1 PUSH4 0x431AAF2 EQ PUSH2 0x3E3 JUMPI DUP1 PUSH4 0x714012C EQ PUSH2 0x3F6 JUMPI DUP1 PUSH4 0xA19399A EQ PUSH2 0x418 JUMPI DUP1 PUSH4 0xB4501FD EQ PUSH2 0x443 JUMPI PUSH0 PUSH0 REVERT JUMPDEST DUP1 PUSH3 0xFDD58E EQ PUSH2 0x380 JUMPI DUP1 PUSH4 0x1FFC9A7 EQ PUSH2 0x3A6 JUMPI DUP1 PUSH4 0x3CC1194 EQ PUSH2 0x3C9 JUMPI JUMPDEST PUSH0 PUSH0 REVERT JUMPDEST PUSH2 0x393 PUSH2 0x38E CALLDATASIZE PUSH1 0x4 PUSH2 0x3F6A JUMP JUMPDEST PUSH2 0x89D JUMP JUMPDEST PUSH1 0x40 MLOAD SWAP1 DUP2 MSTORE PUSH1 0x20 ADD JUMPDEST PUSH1 0x40 MLOAD DUP1 SWAP2 SUB SWAP1 RETURN JUMPDEST PUSH2 0x3B9 PUSH2 0x3B4 CALLDATASIZE PUSH1 0x4 PUSH2 0x3FA7 JUMP JUMPDEST PUSH2 0x8C6 JUMP JUMPDEST PUSH1 0x40 MLOAD SWAP1 ISZERO ISZERO DUP2 MSTORE PUSH1 0x20 ADD PUSH2 0x39D JUMP JUMPDEST PUSH2 0x3D1 PUSH1 0x5 DUP2 JUMP JUMPDEST PUSH1 0x40 MLOAD PUSH1 0xFF SWAP1 SWAP2 AND DUP2 MSTORE PUSH1 0x20 ADD PUSH2 0x39D JUMP JUMPDEST PUSH2 0x393 PUSH2 0x3F1 CALLDATASIZE PUSH1 0x4 PUSH2 0x4015 JUMP JUMPDEST PUSH2 0x915 JUMP JUMPDEST PUSH2 0x409 PUSH2 0x404 CALLDATASIZE PUSH1 0x4 PUSH2 0x4089 JUMP JUMPDEST PUSH2 0xDFB JUMP JUMPDEST PUSH1 0x40 MLOAD PUSH2 0x39D SWAP4 SWAP3 SWAP2 SWAP1 PUSH2 0x40A0 JUMP JUMPDEST PUSH1 0xA SLOAD PUSH2 0x42B SWAP1 PUSH1 0x1 PUSH1 0x1 PUSH1 0xA0 SHL SUB AND DUP2 JUMP JUMPDEST PUSH1 0x40 MLOAD PUSH1 0x1 PUSH1 0x1 PUSH1 0xA0 SHL SUB SWAP1 SWAP2 AND DUP2 MSTORE PUSH1 0x20 ADD PUSH2 0x39D JUMP JUMPDEST PUSH1 0x9 SLOAD PUSH2 0x453 SWAP1 PUSH4 0xFFFFFFFF AND DUP2 JUMP JUMPDEST PUSH1 0x40 MLOAD PUSH4 0xFFFFFFFF SWAP1 SWAP2 AND DUP2 MSTORE PUSH1 0x20 ADD PUSH2 0x39D JUMP JUMPDEST PUSH2 0x47B PUSH2 0x476 CALLDATASIZE PUSH1 0x4 PUSH2 0x4089 JUMP JUMPDEST PUSH2 0xF8D JUMP JUMPDEST PUSH1 0x40 MLOAD PUSH2 0x39D SWAP2 SWAP1 PUSH2 0x41B9 JUMP JUMPDEST PUSH1 0x5 SLOAD PUSH2 0x393 JUMP JUMPDEST PUSH2 0x4A3 PUSH2 0x49E CALLDATASIZE PUSH1 0x4 PUSH2 0x4089 JUMP JUMPDEST PUSH2 0x101F JUMP JUMPDEST PUSH1 0x40 MLOAD PUSH2 0x39D SWAP2 SWAP1 PUSH2 0x41DF JUMP JUMPDEST PUSH2 0x4BA PUSH3 0x15180 DUP2 JUMP JUMPDEST PUSH1 0x40 MLOAD PUSH1 0x1 PUSH1 0x1 PUSH1 0x60 SHL SUB SWAP1 SWAP2 AND DUP2 MSTORE PUSH1 0x20 ADD PUSH2 0x39D JUMP JUMPDEST PUSH2 0x42B PUSH32 0x0 DUP2 JUMP JUMPDEST PUSH2 0x393 PUSH2 0x507 CALLDATASIZE PUSH1 0x4 PUSH2 0x4205 JUMP JUMPDEST PUSH2 0x1147 JUMP JUMPDEST PUSH2 0x393 PUSH2 0x51A CALLDATASIZE PUSH1 0x4 PUSH2 0x422E JUMP JUMPDEST PUSH2 0x14F2 JUMP JUMPDEST PUSH2 0x532 PUSH2 0x52D CALLDATASIZE PUSH1 0x4 PUSH2 0x4389 JUMP JUMPDEST PUSH2 0x1595 JUMP JUMPDEST STOP JUMPDEST PUSH2 0x532 PUSH2 0x542 CALLDATASIZE PUSH1 0x4 PUSH2 0x4448 JUMP JUMPDEST PUSH2 0x15FC JUMP JUMPDEST PUSH2 0x532 PUSH2 0x555 CALLDATASIZE PUSH1 0x4 PUSH2 0x4089 JUMP JUMPDEST PUSH2 0x1663 JUMP JUMPDEST PUSH2 0x532 PUSH2 0x568 CALLDATASIZE PUSH1 0x4 PUSH2 0x4448 JUMP JUMPDEST PUSH2 0x16A0 JUMP JUMPDEST PUSH2 0x532 PUSH2 0x57B CALLDATASIZE PUSH1 0x4 PUSH2 0x4089 JUMP JUMPDEST PUSH2 0x16FE JUMP JUMPDEST PUSH2 0x532 PUSH2 0x58E CALLDATASIZE PUSH1 0x4 PUSH2 0x4461 JUMP JUMPDEST PUSH2 0x1894 JUMP JUMPDEST PUSH1 0x8 SLOAD PUSH2 0x453 SWAP1 PUSH1 0x1 PUSH1 0xA0 SHL SWAP1 DIV PUSH4 0xFFFFFFFF AND DUP2 JUMP JUMPDEST PUSH2 0x393 PUSH2 0x5B8 CALLDATASIZE PUSH1 0x4 PUSH2 0x447A JUMP JUMPDEST PUSH2 0x18FA JUMP JUMPDEST PUSH2 0x532 PUSH2 0x5CB CALLDATASIZE PUSH1 0x4 PUSH2 0x4448 JUMP JUMPDEST PUSH2 0x1A4E JUMP JUMPDEST PUSH2 0x5E3 PUSH2 0x5DE CALLDATASIZE PUSH1 0x4 PUSH2 0x44C1 JUMP JUMPDEST PUSH2 0x1AAD JUMP JUMPDEST PUSH1 0x40 MLOAD PUSH2 0x39D SWAP2 SWAP1 PUSH2 0x45BC JUMP JUMPDEST PUSH2 0x3B9 PUSH2 0x5FE CALLDATASIZE PUSH1 0x4 PUSH2 0x4089 JUMP JUMPDEST PUSH0 SWAP1 DUP2 MSTORE PUSH1 0x4 PUSH1 0x20 MSTORE PUSH1 0x40 SWAP1 KECCAK256 SLOAD ISZERO ISZERO SWAP1 JUMP JUMPDEST PUSH2 0x393 PUSH2 0x61F CALLDATASIZE PUSH1 0x4 PUSH2 0x45CE JUMP JUMPDEST PUSH2 0x1B77 JUMP JUMPDEST PUSH2 0x532 PUSH2 0x632 CALLDATASIZE PUSH1 0x4 PUSH2 0x4461 JUMP JUMPDEST PUSH2 0x2015 JUMP JUMPDEST PUSH2 0x532 PUSH2 0x645 CALLDATASIZE PUSH1 0x4 PUSH2 0x4089 JUMP JUMPDEST PUSH2 0x206B JUMP JUMPDEST PUSH1 0x8 SLOAD PUSH2 0x453 SWAP1 PUSH1 0x1 PUSH1 0xE0 SHL SWAP1 DIV PUSH4 0xFFFFFFFF AND DUP2 JUMP JUMPDEST PUSH2 0x532 PUSH2 0x66F CALLDATASIZE PUSH1 0x4 PUSH2 0x4089 JUMP JUMPDEST PUSH2 0x22DF JUMP JUMPDEST PUSH2 0x532 PUSH2 0x24CF JUMP JUMPDEST PUSH2 0x393 PUSH2 0x68A CALLDATASIZE PUSH1 0x4 PUSH2 0x4618 JUMP JUMPDEST PUSH2 0x24E2 JUMP JUMPDEST PUSH2 0x393 PUSH1 0x7 SLOAD DUP2 JUMP JUMPDEST PUSH2 0x532 PUSH2 0x6A6 CALLDATASIZE PUSH1 0x4 PUSH2 0x422E JUMP JUMPDEST PUSH2 0x297A JUMP JUMPDEST PUSH2 0x42B PUSH32 0x0 DUP2 JUMP JUMPDEST PUSH0 SLOAD PUSH1 0x1 PUSH1 0x1 PUSH1 0xA0 SHL SUB AND PUSH2 0x42B JUMP JUMPDEST PUSH2 0x4BA PUSH1 0x3C DUP2 JUMP JUMPDEST PUSH2 0x532 PUSH2 0x6F8 CALLDATASIZE PUSH1 0x4 PUSH2 0x4448 JUMP JUMPDEST PUSH2 0x2BFA JUMP JUMPDEST PUSH1 0x8 SLOAD PUSH2 0x453 SWAP1 PUSH1 0x1 PUSH1 0xC0 SHL SWAP1 DIV PUSH4 0xFFFFFFFF AND DUP2 JUMP JUMPDEST PUSH2 0x532 PUSH2 0x722 CALLDATASIZE PUSH1 0x4 PUSH2 0x46AA JUMP JUMPDEST PUSH2 0x2C59 JUMP JUMPDEST PUSH2 0x532 PUSH2 0x735 CALLDATASIZE PUSH1 0x4 PUSH2 0x4448 JUMP JUMPDEST PUSH2 0x2C64 JUMP JUMPDEST PUSH2 0x3B9 PUSH2 0x748 CALLDATASIZE PUSH1 0x4 PUSH2 0x447A JUMP JUMPDEST PUSH2 0x2CC3 JUMP JUMPDEST PUSH1 0x8 SLOAD PUSH2 0x453 SWAP1 PUSH1 0x1 PUSH1 0x60 SHL SWAP1 DIV PUSH4 0xFFFFFFFF AND DUP2 JUMP JUMPDEST PUSH2 0x532 PUSH2 0x772 CALLDATASIZE PUSH1 0x4 PUSH2 0x4448 JUMP JUMPDEST PUSH2 0x2E3A JUMP JUMPDEST PUSH1 0x8 SLOAD PUSH2 0x453 SWAP1 PUSH4 0xFFFFFFFF AND DUP2 JUMP JUMPDEST PUSH1 0x8 SLOAD PUSH2 0x453 SWAP1 PUSH1 0x1 PUSH1 0x40 SHL SWAP1 DIV PUSH4 0xFFFFFFFF AND DUP2 JUMP JUMPDEST PUSH1 0x8 SLOAD PUSH2 0x453 SWAP1 PUSH1 0x1 PUSH1 0x20 SHL SWAP1 DIV PUSH4 0xFFFFFFFF AND DUP2 JUMP JUMPDEST PUSH2 0x393 PUSH2 0x7C3 CALLDATASIZE PUSH1 0x4 PUSH2 0x4089 JUMP JUMPDEST PUSH0 SWAP1 DUP2 MSTORE PUSH1 0x4 PUSH1 0x20 MSTORE PUSH1 0x40 SWAP1 KECCAK256 SLOAD SWAP1 JUMP JUMPDEST PUSH2 0x532 PUSH2 0x7E2 CALLDATASIZE PUSH1 0x4 PUSH2 0x4448 JUMP JUMPDEST PUSH2 0x2E8A JUMP JUMPDEST PUSH1 0x9 SLOAD PUSH2 0x42B SWAP1 PUSH1 0x1 PUSH1 0x20 SHL SWAP1 DIV PUSH1 0x1 PUSH1 0x1 PUSH1 0xA0 SHL SUB AND DUP2 JUMP JUMPDEST PUSH2 0x393 PUSH2 0x80F CALLDATASIZE PUSH1 0x4 PUSH2 0x4089 JUMP JUMPDEST PUSH2 0x2EE9 JUMP JUMPDEST PUSH2 0x532 PUSH2 0x822 CALLDATASIZE PUSH1 0x4 PUSH2 0x447A JUMP JUMPDEST PUSH2 0x3052 JUMP JUMPDEST PUSH1 0x8 SLOAD PUSH2 0x453 SWAP1 PUSH1 0x1 PUSH1 0x80 SHL SWAP1 DIV PUSH4 0xFFFFFFFF AND DUP2 JUMP JUMPDEST PUSH2 0x3B9 PUSH2 0x84C CALLDATASIZE PUSH1 0x4 PUSH2 0x46DB JUMP JUMPDEST PUSH2 0x335D JUMP JUMPDEST PUSH2 0x532 PUSH2 0x85F CALLDATASIZE PUSH1 0x4 PUSH2 0x4448 JUMP JUMPDEST PUSH2 0x338A JUMP JUMPDEST PUSH2 0x532 PUSH2 0x872 CALLDATASIZE PUSH1 0x4 PUSH2 0x4448 JUMP JUMPDEST PUSH2 0x33EE JUMP JUMPDEST PUSH2 0x532 PUSH2 0x885 CALLDATASIZE PUSH1 0x4 PUSH2 0x4703 JUMP JUMPDEST PUSH2 0x343E JUMP JUMPDEST PUSH2 0x532 PUSH2 0x898 CALLDATASIZE PUSH1 0x4 PUSH2 0x4461 JUMP JUMPDEST PUSH2 0x349D JUMP JUMPDEST PUSH0 DUP2 DUP2 MSTORE PUSH1 0x1 PUSH1 0x20 SWAP1 DUP2 MSTORE PUSH1 0x40 DUP1 DUP4 KECCAK256 PUSH1 0x1 PUSH1 0x1 PUSH1 0xA0 SHL SUB DUP7 AND DUP5 MSTORE SWAP1 SWAP2 MSTORE SWAP1 KECCAK256 SLOAD JUMPDEST SWAP3 SWAP2 POP POP JUMP JUMPDEST PUSH0 PUSH1 0x1 PUSH1 0x1 PUSH1 0xE0 SHL SUB NOT DUP3 AND PUSH4 0x6CDB3D13 PUSH1 0xE1 SHL EQ DUP1 PUSH2 0x8F6 JUMPI POP PUSH1 0x1 PUSH1 0x1 PUSH1 0xE0 SHL SUB NOT DUP3 AND PUSH4 0x3A24D07 PUSH1 0xE2 SHL EQ JUMPDEST DUP1 PUSH2 0x8C0 JUMPI POP PUSH4 0x1FFC9A7 PUSH1 0xE0 SHL PUSH1 0x1 PUSH1 0x1 PUSH1 0xE0 SHL SUB NOT DUP4 AND EQ PUSH2 0x8C0 JUMP JUMPDEST PUSH0 PUSH2 0x91E PUSH2 0x34D7 JUMP JUMPDEST DUP8 PUSH0 DUP2 GT DUP1 ISZERO PUSH2 0x92F JUMPI POP PUSH1 0xD SLOAD DUP2 LT JUMPDEST PUSH2 0x954 JUMPI PUSH1 0x40 MLOAD PUSH3 0x461BCD PUSH1 0xE5 SHL DUP2 MSTORE PUSH1 0x4 ADD PUSH2 0x94B SWAP1 PUSH2 0x4756 JUMP JUMPDEST PUSH1 0x40 MLOAD DUP1 SWAP2 SUB SWAP1 REVERT JUMPDEST PUSH0 DUP10 DUP2 MSTORE PUSH1 0xB PUSH1 0x20 SWAP1 DUP2 MSTORE PUSH1 0x40 DUP1 DUP4 KECCAK256 PUSH1 0xC DUP4 MSTORE DUP2 DUP5 KECCAK256 PUSH1 0x4 SWAP1 SWAP4 MSTORE SWAP3 KECCAK256 SLOAD DUP11 ISZERO DUP1 ISZERO SWAP1 PUSH2 0x982 JUMPI POP DUP11 DUP2 LT ISZERO JUMPDEST DUP1 ISZERO PUSH2 0x98E JUMPI POP DUP10 DUP2 GT ISZERO JUMPDEST PUSH2 0x9F2 JUMPI PUSH1 0x40 MLOAD PUSH3 0x461BCD PUSH1 0xE5 SHL DUP2 MSTORE PUSH1 0x20 PUSH1 0x4 DUP3 ADD MSTORE PUSH1 0x2F PUSH1 0x24 DUP3 ADD MSTORE PUSH32 0x5032504C656E64696E6720726571756972653A303C6D696E5F6C6F74733C3D73 PUSH1 0x44 DUP3 ADD MSTORE PUSH15 0x7570706C793C3D6D61785F6C6F7473 PUSH1 0x88 SHL PUSH1 0x64 DUP3 ADD MSTORE PUSH1 0x84 ADD PUSH2 0x94B JUMP JUMPDEST PUSH0 PUSH2 0x9FC DUP14 PUSH2 0x101F JUMP JUMPDEST SWAP1 POP PUSH1 0x1 DUP2 PUSH1 0x5 DUP2 GT ISZERO PUSH2 0xA12 JUMPI PUSH2 0xA12 PUSH2 0x41CB JUMP JUMPDEST EQ DUP1 PUSH2 0xA2F JUMPI POP PUSH1 0x2 DUP2 PUSH1 0x5 DUP2 GT ISZERO PUSH2 0xA2D JUMPI PUSH2 0xA2D PUSH2 0x41CB JUMP JUMPDEST EQ JUMPDEST PUSH2 0xA7B JUMPI PUSH1 0x40 MLOAD PUSH3 0x461BCD PUSH1 0xE5 SHL DUP2 MSTORE PUSH1 0x20 PUSH1 0x4 DUP3 ADD MSTORE PUSH1 0x19 PUSH1 0x24 DUP3 ADD MSTORE PUSH32 0x5032504C656E64696E673A43616E6E6F7420626F72726F772100000000000000 PUSH1 0x44 DUP3 ADD MSTORE PUSH1 0x64 ADD PUSH2 0x94B JUMP JUMPDEST DUP3 SLOAD PUSH1 0x1 PUSH1 0x1 PUSH1 0xA0 SHL SUB AND CALLER EQ DUP1 PUSH2 0xA9B JUMPI POP DUP3 SLOAD PUSH1 0x1 PUSH1 0x1 PUSH1 0xA0 SHL SUB AND ISZERO JUMPDEST PUSH2 0xAB7 JUMPI PUSH1 0x40 MLOAD PUSH3 0x461BCD PUSH1 0xE5 SHL DUP2 MSTORE PUSH1 0x4 ADD PUSH2 0x94B SWAP1 PUSH2 0x4780 JUMP JUMPDEST DUP2 DUP5 SSTORE DUP3 SLOAD PUSH1 0x1 PUSH1 0x1 PUSH1 0xA0 SHL SUB NOT AND CALLER OR DUP4 SSTORE PUSH1 0x2 DUP5 ADD SLOAD PUSH2 0xAEA SWAP1 PUSH1 0x1 PUSH1 0x1 PUSH1 0x60 SHL SUB PUSH1 0x1 PUSH1 0xA0 SHL SWAP1 SWAP2 DIV AND TIMESTAMP PUSH2 0x47CB JUMP JUMPDEST DUP4 SLOAD PUSH1 0x1 PUSH1 0x1 PUSH1 0x60 SHL SUB SWAP2 SWAP1 SWAP2 AND PUSH1 0x1 PUSH1 0xA0 SHL MUL PUSH1 0x1 PUSH1 0x1 PUSH1 0xA0 SHL SUB SWAP1 SWAP2 AND OR DUP4 SSTORE POP POP PUSH1 0x1 DUP3 ADD SLOAD DUP3 SLOAD PUSH0 SWAP2 PUSH2 0xB20 SWAP2 PUSH2 0x47EA JUMP JUMPDEST PUSH1 0x2 DUP5 ADD SLOAD SWAP1 SWAP2 POP PUSH0 SWAP1 PUSH2 0xB40 SWAP1 DUP4 SWAP1 PUSH1 0x1 PUSH1 0x1 PUSH1 0xA0 SHL SUB AND DUP11 DUP11 PUSH2 0x3501 JUMP JUMPDEST SWAP1 POP DUP10 ISZERO PUSH2 0xC60 JUMPI PUSH0 PUSH2 0xB55 PUSH1 0x5 PUSH1 0xA PUSH2 0x48E4 JUMP JUMPDEST PUSH1 0x3 DUP7 ADD SLOAD PUSH2 0xB72 SWAP1 DUP5 SWAP1 PUSH1 0x1 PUSH1 0x20 SHL SWAP1 DIV PUSH4 0xFFFFFFFF AND PUSH2 0x47EA JUMP JUMPDEST PUSH2 0xB7C SWAP2 SWAP1 PUSH2 0x48F2 JUMP JUMPDEST SWAP1 POP DUP4 PUSH1 0x1 ADD SLOAD DUP2 GT ISZERO PUSH2 0xBFD JUMPI PUSH0 DUP5 PUSH1 0x1 ADD SLOAD DUP3 PUSH2 0xB9B SWAP2 SWAP1 PUSH2 0x4911 JUMP JUMPDEST SWAP1 POP DUP1 DUP12 LT ISZERO PUSH2 0xBBD JUMPI PUSH1 0x40 MLOAD PUSH3 0x461BCD PUSH1 0xE5 SHL DUP2 MSTORE PUSH1 0x4 ADD PUSH2 0x94B SWAP1 PUSH2 0x4924 JUMP JUMPDEST DUP5 SLOAD PUSH2 0xBF7 SWAP1 PUSH1 0x1 PUSH1 0x1 PUSH1 0xA0 SHL SUB PUSH32 0x0 DUP2 AND SWAP2 AND ADDRESS DUP5 PUSH2 0x3593 JUMP JUMPDEST POP PUSH2 0xC5A JUMP JUMPDEST DUP4 PUSH1 0x1 ADD SLOAD DUP2 LT ISZERO PUSH2 0xC5A JUMPI DUP4 SLOAD PUSH1 0x1 DUP6 ADD SLOAD PUSH2 0xC5A SWAP2 PUSH1 0x1 PUSH1 0x1 PUSH1 0xA0 SHL SUB AND SWAP1 PUSH2 0xC29 SWAP1 DUP5 SWAP1 PUSH2 0x4911 JUMP JUMPDEST PUSH1 0x1 PUSH1 0x1 PUSH1 0xA0 SHL SUB PUSH32 0x0 AND SWAP2 SWAP1 PUSH2 0x3600 JUMP JUMPDEST PUSH1 0x1 DUP5 ADD SSTORE JUMPDEST PUSH2 0xC6C PUSH1 0x5 PUSH1 0xA PUSH2 0x48E4 JUMP JUMPDEST PUSH1 0x8 SLOAD PUSH2 0xC87 SWAP1 DUP4 SWAP1 PUSH1 0x1 PUSH1 0xC0 SHL SWAP1 DIV PUSH4 0xFFFFFFFF AND PUSH2 0x47EA JUMP JUMPDEST PUSH2 0xC91 SWAP2 SWAP1 PUSH2 0x48F2 JUMP JUMPDEST DUP4 PUSH1 0x1 ADD SLOAD LT ISZERO PUSH2 0xCE4 JUMPI PUSH1 0x40 MLOAD PUSH3 0x461BCD PUSH1 0xE5 SHL DUP2 MSTORE PUSH1 0x20 PUSH1 0x4 DUP3 ADD MSTORE PUSH1 0x1F PUSH1 0x24 DUP3 ADD MSTORE PUSH32 0x5032504C656E64696E673A496E63726561736520636F6C6C61746572616C2100 PUSH1 0x44 DUP3 ADD MSTORE PUSH1 0x64 ADD PUSH2 0x94B JUMP JUMPDEST PUSH0 PUSH2 0xCF1 PUSH1 0x5 PUSH1 0xA PUSH2 0x48E4 JUMP JUMPDEST PUSH1 0x9 SLOAD PUSH2 0xD05 SWAP1 DUP6 SWAP1 PUSH4 0xFFFFFFFF AND PUSH2 0x47EA JUMP JUMPDEST PUSH2 0xD0F SWAP2 SWAP1 PUSH2 0x48F2 JUMP JUMPDEST PUSH1 0x9 SLOAD SWAP1 SWAP2 POP PUSH2 0xD53 SWAP1 PUSH1 0x1 PUSH1 0x1 PUSH1 0xA0 SHL SUB PUSH32 0x0 DUP2 AND SWAP2 PUSH1 0x1 PUSH1 0x20 SHL SWAP1 DIV AND DUP4 PUSH2 0x3600 JUMP JUMPDEST DUP4 SLOAD PUSH2 0xD9D SWAP1 PUSH1 0x1 PUSH1 0x1 PUSH1 0xA0 SHL SUB AND PUSH2 0xD6C DUP4 DUP7 PUSH2 0x4911 JUMP JUMPDEST PUSH1 0x1 PUSH1 0x1 PUSH1 0xA0 SHL SUB PUSH32 0x0 AND SWAP2 SWAP1 PUSH2 0x3600 JUMP JUMPDEST POP DUP4 SLOAD PUSH1 0x40 MLOAD SWAP1 DUP2 MSTORE DUP14 SWAP1 PUSH32 0x44EC4D36B0D76019C4B5AEC2A216DBCA5AD6C6D671940C8FBBCD23CFE4E804B SWAP1 PUSH1 0x20 ADD PUSH1 0x40 MLOAD DUP1 SWAP2 SUB SWAP1 LOG2 PUSH2 0xDDE DUP14 PUSH2 0x3631 JUMP JUMPDEST POP POP SWAP1 SLOAD SWAP3 POP POP POP PUSH2 0xDF0 PUSH1 0x1 PUSH1 0x6 SSTORE JUMP JUMPDEST SWAP8 SWAP7 POP POP POP POP POP POP POP JUMP JUMPDEST PUSH1 0x40 DUP1 MLOAD PUSH2 0x100 DUP2 ADD DUP3 MSTORE PUSH0 DUP1 DUP3 MSTORE PUSH1 0x20 DUP3 ADD DUP2 SWAP1 MSTORE SWAP2 DUP2 ADD DUP3 SWAP1 MSTORE PUSH1 0x60 DUP2 ADD DUP3 SWAP1 MSTORE PUSH1 0x80 DUP2 ADD DUP3 SWAP1 MSTORE PUSH1 0xA0 DUP2 ADD DUP3 SWAP1 MSTORE PUSH1 0xC0 DUP2 ADD DUP3 SWAP1 MSTORE PUSH1 0xE0 DUP2 ADD SWAP2 SWAP1 SWAP2 MSTORE PUSH1 0x40 DUP1 MLOAD PUSH1 0xA0 DUP2 ADD DUP3 MSTORE PUSH0 DUP1 DUP3 MSTORE PUSH1 0x20 DUP3 ADD DUP2 SWAP1 MSTORE SWAP2 DUP2 ADD DUP3 SWAP1 MSTORE PUSH1 0x60 DUP2 ADD DUP3 SWAP1 MSTORE PUSH1 0x80 DUP2 ADD SWAP2 SWAP1 SWAP2 MSTORE PUSH0 DUP4 PUSH0 DUP2 GT DUP1 ISZERO PUSH2 0xE77 JUMPI POP PUSH1 0xD SLOAD DUP2 LT JUMPDEST PUSH2 0xE93 JUMPI PUSH1 0x40 MLOAD PUSH3 0x461BCD PUSH1 0xE5 SHL DUP2 MSTORE PUSH1 0x4 ADD PUSH2 0x94B SWAP1 PUSH2 0x4756 JUMP JUMPDEST POP POP POP PUSH0 SWAP2 DUP3 MSTORE POP PUSH1 0xB PUSH1 0x20 SWAP1 DUP2 MSTORE PUSH1 0x40 DUP1 DUP4 KECCAK256 PUSH1 0xC DUP4 MSTORE DUP2 DUP5 KECCAK256 PUSH1 0x4 DUP5 MSTORE SWAP4 DUP3 SWAP1 KECCAK256 SLOAD DUP3 MLOAD PUSH2 0x100 DUP2 ADD DUP5 MSTORE DUP3 SLOAD DUP2 MSTORE PUSH1 0x1 DUP1 DUP5 ADD SLOAD DUP3 DUP8 ADD MSTORE PUSH1 0x2 DUP1 DUP6 ADD SLOAD PUSH1 0x1 PUSH1 0x1 PUSH1 0xA0 SHL SUB DUP1 DUP3 AND DUP6 DUP10 ADD MSTORE PUSH1 0x1 PUSH1 0x1 PUSH1 0x60 SHL SUB PUSH1 0x1 PUSH1 0xA0 SHL SWAP3 DUP4 SWAP1 DIV DUP2 AND PUSH1 0x60 DUP1 DUP9 ADD SWAP2 SWAP1 SWAP2 MSTORE PUSH1 0x3 SWAP9 DUP10 ADD SLOAD PUSH4 0xFFFFFFFF DUP1 DUP3 AND PUSH1 0x80 DUP1 DUP12 ADD SWAP2 SWAP1 SWAP2 MSTORE PUSH1 0x1 PUSH1 0x20 SHL DUP4 DIV DUP3 AND PUSH1 0xA0 DUP1 DUP13 ADD SWAP2 SWAP1 SWAP2 MSTORE PUSH1 0x1 PUSH1 0x40 SHL DUP5 DIV SWAP1 SWAP3 AND PUSH1 0xC0 DUP12 ADD MSTORE PUSH1 0x1 PUSH1 0x60 SHL SWAP1 SWAP3 DIV DUP5 AND PUSH1 0xE0 DUP11 ADD MSTORE DUP12 MLOAD SWAP1 DUP2 ADD DUP13 MSTORE DUP14 SLOAD SWAP5 DUP6 AND DUP2 MSTORE SWAP5 SWAP1 SWAP4 DIV DUP3 AND SWAP11 DUP5 ADD SWAP11 SWAP1 SWAP11 MSTORE SWAP4 DUP11 ADD SLOAD SWAP8 DUP3 ADD SWAP8 SWAP1 SWAP8 MSTORE SWAP1 DUP9 ADD SLOAD SWAP7 DUP2 ADD SWAP7 SWAP1 SWAP7 MSTORE SWAP3 SWAP1 SWAP6 ADD SLOAD SWAP1 SWAP2 AND SWAP2 DUP4 ADD SWAP2 SWAP1 SWAP2 MSTORE SWAP2 SWAP3 SWAP1 SWAP2 SWAP1 JUMP JUMPDEST PUSH1 0x60 PUSH1 0x3 DUP1 SLOAD PUSH2 0xF9C SWAP1 PUSH2 0x496B JUMP JUMPDEST DUP1 PUSH1 0x1F ADD PUSH1 0x20 DUP1 SWAP2 DIV MUL PUSH1 0x20 ADD PUSH1 0x40 MLOAD SWAP1 DUP2 ADD PUSH1 0x40 MSTORE DUP1 SWAP3 SWAP2 SWAP1 DUP2 DUP2 MSTORE PUSH1 0x20 ADD DUP3 DUP1 SLOAD PUSH2 0xFC8 SWAP1 PUSH2 0x496B JUMP JUMPDEST DUP1 ISZERO PUSH2 0x1013 JUMPI DUP1 PUSH1 0x1F LT PUSH2 0xFEA JUMPI PUSH2 0x100 DUP1 DUP4 SLOAD DIV MUL DUP4 MSTORE SWAP2 PUSH1 0x20 ADD SWAP2 PUSH2 0x1013 JUMP JUMPDEST DUP3 ADD SWAP2 SWAP1 PUSH0 MSTORE PUSH1 0x20 PUSH0 KECCAK256 SWAP1 JUMPDEST DUP2 SLOAD DUP2 MSTORE SWAP1 PUSH1 0x1 ADD SWAP1 PUSH1 0x20 ADD DUP1 DUP4 GT PUSH2 0xFF6 JUMPI DUP3 SWAP1 SUB PUSH1 0x1F AND DUP3 ADD SWAP2 JUMPDEST POP POP POP POP POP SWAP1 POP SWAP2 SWAP1 POP JUMP JUMPDEST PUSH0 DUP2 DUP2 MSTORE PUSH1 0xB PUSH1 0x20 SWAP1 DUP2 MSTORE PUSH1 0x40 DUP1 DUP4 KECCAK256 PUSH1 0xC SWAP1 SWAP3 MSTORE DUP3 KECCAK256 DUP2 SLOAD DUP4 SUB PUSH2 0x1047 JUMPI POP PUSH0 SWAP4 SWAP3 POP POP POP JUMP JUMPDEST DUP1 SLOAD PUSH1 0x1 PUSH1 0x1 PUSH1 0xA0 SHL SUB AND ISZERO DUP1 ISZERO PUSH2 0x106A JUMPI POP PUSH0 DUP5 DUP2 MSTORE PUSH1 0x4 PUSH1 0x20 MSTORE PUSH1 0x40 SWAP1 KECCAK256 SLOAD ISZERO JUMPDEST DUP1 PUSH2 0x108B JUMPI POP DUP1 SLOAD PUSH1 0x1 PUSH1 0x1 PUSH1 0xA0 SHL SUB AND ISZERO DUP1 ISZERO SWAP1 PUSH2 0x108B JUMPI POP PUSH1 0x1 DUP2 ADD SLOAD ISZERO JUMPDEST ISZERO PUSH2 0x109A JUMPI POP PUSH1 0x5 SWAP4 SWAP3 POP POP POP JUMP JUMPDEST DUP1 SLOAD PUSH1 0x1 PUSH1 0xA0 SHL SWAP1 DIV PUSH1 0x1 PUSH1 0x1 PUSH1 0x60 SHL SUB AND PUSH0 SUB PUSH2 0x1116 JUMPI PUSH1 0x3 DUP2 ADD SLOAD PUSH1 0x1 PUSH1 0x1 PUSH1 0x60 SHL SUB AND ISZERO DUP1 ISZERO SWAP1 PUSH2 0x10DD JUMPI POP PUSH1 0x3 DUP2 ADD SLOAD PUSH1 0x1 PUSH1 0x1 PUSH1 0x60 SHL SUB TIMESTAMP DUP2 AND SWAP2 AND LT JUMPDEST ISZERO PUSH2 0x10EC JUMPI POP PUSH1 0x3 SWAP4 SWAP3 POP POP POP JUMP JUMPDEST PUSH0 DUP5 DUP2 MSTORE PUSH1 0x4 PUSH1 0x20 MSTORE PUSH1 0x40 SWAP1 KECCAK256 SLOAD DUP3 SLOAD GT ISZERO PUSH2 0x110C JUMPI POP PUSH1 0x1 SWAP4 SWAP3 POP POP POP JUMP JUMPDEST POP PUSH1 0x2 SWAP4 SWAP3 POP POP POP JUMP JUMPDEST PUSH1 0x1 DUP2 ADD SLOAD ISZERO PUSH2 0x113D JUMPI PUSH0 DUP5 DUP2 MSTORE PUSH1 0x4 PUSH1 0x20 MSTORE PUSH1 0x40 SWAP1 KECCAK256 SLOAD ISZERO PUSH2 0x113D JUMPI POP PUSH1 0x4 SWAP4 SWAP3 POP POP POP JUMP JUMPDEST POP PUSH1 0x5 SWAP4 SWAP3 POP POP POP JUMP JUMPDEST PUSH0 PUSH2 0x1150 PUSH2 0x34D7 JUMP JUMPDEST DUP4 PUSH0 DUP2 GT DUP1 ISZERO PUSH2 0x1161 JUMPI POP PUSH1 0xD SLOAD DUP2 LT JUMPDEST PUSH2 0x117D JUMPI PUSH1 0x40 MLOAD PUSH3 0x461BCD PUSH1 0xE5 SHL DUP2 MSTORE PUSH1 0x4 ADD PUSH2 0x94B SWAP1 PUSH2 0x4756 JUMP JUMPDEST PUSH0 DUP5 GT DUP1 ISZERO PUSH2 0x118C JUMPI POP DUP3 DUP5 LT ISZERO JUMPDEST PUSH2 0x11F3 JUMPI PUSH1 0x40 MLOAD PUSH3 0x461BCD PUSH1 0xE5 SHL DUP2 MSTORE PUSH1 0x20 PUSH1 0x4 DUP3 ADD MSTORE PUSH1 0x32 PUSH1 0x24 DUP3 ADD MSTORE PUSH32 0x5032504C656E64696E6720726571756972653A7461726765745F6C6F74733E30 PUSH1 0x44 DUP3 ADD MSTORE PUSH18 0x202626206C6F74733E3D6D696E5F6C6F7473 PUSH1 0x70 SHL PUSH1 0x64 DUP3 ADD MSTORE PUSH1 0x84 ADD PUSH2 0x94B JUMP JUMPDEST PUSH1 0x1 PUSH2 0x11FE DUP7 PUSH2 0x101F JUMP JUMPDEST PUSH1 0x5 DUP2 GT ISZERO PUSH2 0x120F JUMPI PUSH2 0x120F PUSH2 0x41CB JUMP JUMPDEST EQ PUSH2 0x1270 JUMPI PUSH1 0x40 MLOAD PUSH3 0x461BCD PUSH1 0xE5 SHL DUP2 MSTORE PUSH1 0x20 PUSH1 0x4 DUP3 ADD MSTORE PUSH1 0x2B PUSH1 0x24 DUP3 ADD MSTORE PUSH32 0x5032504C656E64696E673A4C6F616E537461747573206E6F7420657175616C73 PUSH1 0x44 DUP3 ADD MSTORE PUSH11 0x2046494E414E43494E4721 PUSH1 0xA8 SHL PUSH1 0x64 DUP3 ADD MSTORE PUSH1 0x84 ADD PUSH2 0x94B JUMP JUMPDEST PUSH0 DUP6 DUP2 MSTORE PUSH1 0xB PUSH1 0x20 SWAP1 DUP2 MSTORE PUSH1 0x40 DUP1 DUP4 KECCAK256 PUSH1 0x4 SWAP1 SWAP3 MSTORE DUP3 KECCAK256 SLOAD SWAP1 SWAP2 SWAP1 DUP3 SLOAD PUSH2 0x1297 SWAP2 SWAP1 PUSH2 0x4911 JUMP JUMPDEST SWAP1 POP DUP5 DUP2 LT ISZERO PUSH2 0x12F7 JUMPI PUSH1 0x40 MLOAD PUSH3 0x461BCD PUSH1 0xE5 SHL DUP2 MSTORE PUSH1 0x20 PUSH1 0x4 DUP3 ADD MSTORE PUSH1 0x25 PUSH1 0x24 DUP3 ADD MSTORE PUSH32 0x5032504C656E64696E673A4E6F7420656E6F75676820617661696C61626C6520 PUSH1 0x44 DUP3 ADD MSTORE PUSH5 0x6C6F747321 PUSH1 0xD8 SHL PUSH1 0x64 DUP3 ADD MSTORE PUSH1 0x84 ADD PUSH2 0x94B JUMP JUMPDEST PUSH0 PUSH2 0x1302 DUP8 DUP4 PUSH2 0x36BC JUMP JUMPDEST SWAP1 POP PUSH2 0x134B CALLER ADDRESS DUP4 DUP7 PUSH1 0x1 ADD SLOAD PUSH2 0x1319 SWAP2 SWAP1 PUSH2 0x47EA JUMP JUMPDEST PUSH1 0x1 PUSH1 0x1 PUSH1 0xA0 SHL SUB PUSH32 0x0 AND SWAP3 SWAP2 SWAP1 PUSH2 0x3593 JUMP JUMPDEST PUSH2 0x1365 CALLER DUP10 DUP4 PUSH1 0x40 MLOAD DUP1 PUSH1 0x20 ADD PUSH1 0x40 MSTORE DUP1 PUSH0 DUP2 MSTORE POP PUSH2 0x36CB JUMP JUMPDEST DUP3 SLOAD PUSH0 DUP10 DUP2 MSTORE PUSH1 0x4 PUSH1 0x20 MSTORE PUSH1 0x40 SWAP1 KECCAK256 SLOAD GT ISZERO PUSH2 0x13D4 JUMPI PUSH1 0x40 MLOAD PUSH3 0x461BCD PUSH1 0xE5 SHL DUP2 MSTORE PUSH1 0x20 PUSH1 0x4 DUP3 ADD MSTORE PUSH1 0x28 PUSH1 0x24 DUP3 ADD MSTORE PUSH32 0x5032504C656E64696E6720726571756972653A737570706C793C3D6C6F74735F PUSH1 0x44 DUP3 ADD MSTORE PUSH8 0x1C995C5D5A5C9959 PUSH1 0xC2 SHL PUSH1 0x64 DUP3 ADD MSTORE PUSH1 0x84 ADD PUSH2 0x94B JUMP JUMPDEST DUP3 SLOAD PUSH0 DUP10 DUP2 MSTORE PUSH1 0x4 PUSH1 0x20 MSTORE PUSH1 0x40 SWAP1 KECCAK256 SLOAD TIMESTAMP SWAP2 SWAP1 SUB PUSH2 0x1461 JUMPI PUSH2 0x13F9 PUSH3 0x15180 DUP3 PUSH2 0x47CB JUMP JUMPDEST PUSH0 DUP11 DUP2 MSTORE PUSH1 0xC PUSH1 0x20 SWAP1 DUP2 MSTORE PUSH1 0x40 SWAP2 DUP3 SWAP1 KECCAK256 PUSH1 0x3 ADD DUP1 SLOAD PUSH1 0x1 PUSH1 0x1 PUSH1 0x60 SHL SUB NOT AND PUSH1 0x1 PUSH1 0x1 PUSH1 0x60 SHL SUB SWAP5 SWAP1 SWAP5 AND SWAP4 DUP5 OR SWAP1 SSTORE SWAP1 MLOAD SWAP2 DUP3 MSTORE DUP11 SWAP2 PUSH32 0x6FCE911D7163D1242CD9F1727A93EB2D9232BB808DB0881B448196DCD2FE412D SWAP2 ADD PUSH1 0x40 MLOAD DUP1 SWAP2 SUB SWAP1 LOG2 PUSH2 0x14A4 JUMP JUMPDEST PUSH2 0x146C PUSH1 0x3C DUP3 PUSH2 0x47CB JUMP JUMPDEST CALLER PUSH0 SWAP1 DUP2 MSTORE PUSH1 0xE PUSH1 0x20 SWAP1 DUP2 MSTORE PUSH1 0x40 DUP1 DUP4 KECCAK256 DUP14 DUP5 MSTORE SWAP1 SWAP2 MSTORE SWAP1 KECCAK256 DUP1 SLOAD PUSH1 0x1 PUSH1 0x1 PUSH1 0x60 SHL SUB NOT AND PUSH1 0x1 PUSH1 0x1 PUSH1 0x60 SHL SUB SWAP3 SWAP1 SWAP3 AND SWAP2 SWAP1 SWAP2 OR SWAP1 SSTORE JUMPDEST PUSH1 0x40 MLOAD DUP3 DUP2 MSTORE CALLER SWAP1 DUP11 SWAP1 PUSH32 0xBC00F64D7F7FDD45626F23C5B8BFA1C1B8E64FAF4200EFB7DA5A7439A326F955 SWAP1 PUSH1 0x20 ADD PUSH1 0x40 MLOAD DUP1 SWAP2 SUB SWAP1 LOG3 POP SWAP4 POP POP POP POP PUSH2 0x14EB PUSH1 0x1 PUSH1 0x6 SSTORE JUMP JUMPDEST SWAP4 SWAP3 POP POP POP JUMP JUMPDEST PUSH0 DUP3 PUSH0 DUP2 GT DUP1 ISZERO PUSH2 0x1504 JUMPI POP PUSH1 0xD SLOAD DUP2 LT JUMPDEST PUSH2 0x1520 JUMPI PUSH1 0x40 MLOAD PUSH3 0x461BCD PUSH1 0xE5 SHL DUP2 MSTORE PUSH1 0x4 ADD PUSH2 0x94B SWAP1 PUSH2 0x4756 JUMP JUMPDEST PUSH0 DUP5 DUP2 MSTORE PUSH1 0x4 PUSH1 0x20 MSTORE PUSH1 0x40 SWAP1 KECCAK256 SLOAD DUP1 ISZERO PUSH2 0x1589 JUMPI PUSH0 DUP6 DUP2 MSTORE PUSH1 0xC PUSH1 0x20 MSTORE PUSH1 0x40 DUP2 KECCAK256 PUSH1 0x2 ADD SLOAD ISZERO PUSH2 0x1560 JUMPI PUSH0 DUP7 DUP2 MSTORE PUSH1 0xC PUSH1 0x20 MSTORE PUSH1 0x40 SWAP1 KECCAK256 PUSH1 0x2 ADD SLOAD PUSH2 0x1569 JUMP JUMPDEST PUSH2 0x1569 DUP7 PUSH2 0x2EE9 JUMP JUMPDEST SWAP1 POP DUP2 PUSH2 0x1576 DUP3 DUP8 PUSH2 0x47EA JUMP JUMPDEST PUSH2 0x1580 SWAP2 SWAP1 PUSH2 0x48F2 JUMP JUMPDEST SWAP4 POP POP POP PUSH2 0x158E JUMP JUMPDEST PUSH0 SWAP3 POP POP JUMPDEST POP SWAP3 SWAP2 POP POP JUMP JUMPDEST CALLER PUSH1 0x1 PUSH1 0x1 PUSH1 0xA0 SHL SUB DUP7 AND DUP2 EQ DUP1 ISZERO SWAP1 PUSH2 0x15B6 JUMPI POP PUSH2 0x15B4 DUP7 DUP3 PUSH2 0x335D JUMP JUMPDEST ISZERO JUMPDEST ISZERO PUSH2 0x15E7 JUMPI PUSH1 0x40 MLOAD PUSH4 0x711BEC91 PUSH1 0xE1 SHL DUP2 MSTORE PUSH1 0x1 PUSH1 0x1 PUSH1 0xA0 SHL SUB DUP1 DUP4 AND PUSH1 0x4 DUP4 ADD MSTORE DUP8 AND PUSH1 0x24 DUP3 ADD MSTORE PUSH1 0x44 ADD PUSH2 0x94B JUMP JUMPDEST PUSH2 0x15F4 DUP7 DUP7 DUP7 DUP7 DUP7 PUSH2 0x3726 JUMP JUMPDEST POP POP POP POP POP POP JUMP JUMPDEST PUSH2 0x1604 PUSH2 0x378B JUMP JUMPDEST PUSH1 0x8 DUP1 SLOAD PUSH8 0xFFFFFFFF00000000 NOT AND PUSH1 0x1 PUSH1 0x20 SHL PUSH4 0xFFFFFFFF DUP5 DUP2 AND DUP3 MUL SWAP3 SWAP1 SWAP3 OR SWAP3 DUP4 SWAP1 SSTORE PUSH1 0x40 MLOAD SWAP3 DIV AND DUP2 MSTORE PUSH32 0x85595CB7B81D221172988F4BF171B00745E5C6F4E17760CC33DD2F02DCB57AE4 SWAP1 PUSH1 0x20 ADD JUMPDEST PUSH1 0x40 MLOAD DUP1 SWAP2 SUB SWAP1 LOG1 POP JUMP JUMPDEST PUSH2 0x166B PUSH2 0x378B JUMP JUMPDEST PUSH1 0x7 DUP2 SWAP1 SSTORE PUSH1 0x40 MLOAD DUP2 DUP2 MSTORE PUSH32 0xDE6A3638493F2725F743C7C5C9801D3143C92F2ADF4825F0434DD9513B2943C7 SWAP1 PUSH1 0x20 ADD PUSH2 0x1658 JUMP JUMPDEST PUSH2 0x16A8 PUSH2 0x378B JUMP JUMPDEST PUSH1 0x8 DUP1 SLOAD PUSH1 0x1 PUSH1 0x1 PUSH1 0xE0 SHL SUB AND PUSH1 0x1 PUSH1 0xE0 SHL PUSH4 0xFFFFFFFF DUP5 DUP2 AND DUP3 MUL SWAP3 SWAP1 SWAP3 OR SWAP3 DUP4 SWAP1 SSTORE PUSH1 0x40 MLOAD SWAP3 DIV AND DUP2 MSTORE PUSH32 0x89C571E0D88872F4418634E394070DBE24A78682B16A616B1F8E02A2939D421E SWAP1 PUSH1 0x20 ADD PUSH2 0x1658 JUMP JUMPDEST PUSH2 0x1706 PUSH2 0x34D7 JUMP JUMPDEST DUP1 PUSH0 DUP2 GT DUP1 ISZERO PUSH2 0x1717 JUMPI POP PUSH1 0xD SLOAD DUP2 LT JUMPDEST PUSH2 0x1733 JUMPI PUSH1 0x40 MLOAD PUSH3 0x461BCD PUSH1 0xE5 SHL DUP2 MSTORE PUSH1 0x4 ADD PUSH2 0x94B SWAP1 PUSH2 0x4756 JUMP JUMPDEST PUSH1 0x4 PUSH2 0x173E DUP4 PUSH2 0x101F JUMP JUMPDEST PUSH1 0x5 DUP2 GT ISZERO PUSH2 0x174F JUMPI PUSH2 0x174F PUSH2 0x41CB JUMP JUMPDEST EQ PUSH2 0x176C JUMPI PUSH1 0x40 MLOAD PUSH3 0x461BCD PUSH1 0xE5 SHL DUP2 MSTORE PUSH1 0x4 ADD PUSH2 0x94B SWAP1 PUSH2 0x49A3 JUMP JUMPDEST PUSH0 DUP3 DUP2 MSTORE PUSH1 0xC PUSH1 0x20 MSTORE PUSH1 0x40 SWAP1 KECCAK256 DUP1 SLOAD PUSH1 0x1 PUSH1 0x1 PUSH1 0xA0 SHL SUB AND CALLER EQ PUSH2 0x17A2 JUMPI PUSH1 0x40 MLOAD PUSH3 0x461BCD PUSH1 0xE5 SHL DUP2 MSTORE PUSH1 0x4 ADD PUSH2 0x94B SWAP1 PUSH2 0x4780 JUMP JUMPDEST PUSH0 PUSH2 0x17AC DUP5 PUSH2 0x2EE9 JUMP JUMPDEST DUP3 SLOAD SWAP1 SWAP2 POP PUSH2 0x17E9 SWAP1 PUSH1 0x1 PUSH1 0x1 PUSH1 0xA0 SHL SUB PUSH32 0x0 DUP2 AND SWAP2 AND ADDRESS DUP5 PUSH2 0x3593 JUMP JUMPDEST DUP1 DUP3 PUSH1 0x2 ADD PUSH0 DUP3 DUP3 SLOAD PUSH2 0x17FC SWAP2 SWAP1 PUSH2 0x49EC JUMP JUMPDEST SWAP1 SWAP2 SSTORE POP POP DUP2 SLOAD PUSH1 0x1 DUP4 ADD SLOAD PUSH2 0x1840 SWAP2 PUSH1 0x1 PUSH1 0x1 PUSH1 0xA0 SHL SUB PUSH32 0x0 DUP2 AND SWAP3 SWAP2 AND SWAP1 PUSH2 0x3600 JUMP JUMPDEST PUSH0 PUSH1 0x1 DUP4 ADD SSTORE PUSH1 0x40 MLOAD DUP2 DUP2 MSTORE DUP5 SWAP1 PUSH32 0x552544CB36551120F07C66C5CD4B2987725A0C72198587F2CE796099BB66C58C SWAP1 PUSH1 0x20 ADD PUSH1 0x40 MLOAD DUP1 SWAP2 SUB SWAP1 LOG2 PUSH2 0x1884 DUP5 PUSH2 0x3631 JUMP JUMPDEST POP POP POP PUSH2 0x1891 PUSH1 0x1 PUSH1 0x6 SSTORE JUMP JUMPDEST POP JUMP JUMPDEST PUSH2 0x189C PUSH2 0x378B JUMP JUMPDEST PUSH1 0x9 DUP1 SLOAD PUSH5 0x100000000 PUSH1 0x1 PUSH1 0xC0 SHL SUB NOT AND PUSH1 0x1 PUSH1 0x20 SHL PUSH1 0x1 PUSH1 0x1 PUSH1 0xA0 SHL SUB DUP5 DUP2 AND DUP3 MUL SWAP3 SWAP1 SWAP3 OR SWAP3 DUP4 SWAP1 SSTORE PUSH1 0x40 MLOAD SWAP3 DIV AND DUP2 MSTORE PUSH32 0x15A6D8DBE28500FE360D4A194D18559AE45775C191765D262C598C2FCB59D967 SWAP1 PUSH1 0x20 ADD PUSH2 0x1658 JUMP JUMPDEST PUSH0 DUP4 PUSH0 DUP2 GT DUP1 ISZERO PUSH2 0x190C JUMPI POP PUSH1 0xD SLOAD DUP2 LT JUMPDEST PUSH2 0x1928 JUMPI PUSH1 0x40 MLOAD PUSH3 0x461BCD PUSH1 0xE5 SHL DUP2 MSTORE PUSH1 0x4 ADD PUSH2 0x94B SWAP1 PUSH2 0x4756 JUMP JUMPDEST PUSH1 0x4 PUSH2 0x1933 DUP7 PUSH2 0x101F JUMP JUMPDEST PUSH1 0x5 DUP2 GT ISZERO PUSH2 0x1944 JUMPI PUSH2 0x1944 PUSH2 0x41CB JUMP JUMPDEST EQ PUSH2 0x1961 JUMPI PUSH1 0x40 MLOAD PUSH3 0x461BCD PUSH1 0xE5 SHL DUP2 MSTORE PUSH1 0x4 ADD PUSH2 0x94B SWAP1 PUSH2 0x49A3 JUMP JUMPDEST PUSH0 DUP6 DUP2 MSTORE PUSH1 0xB PUSH1 0x20 SWAP1 DUP2 MSTORE PUSH1 0x40 DUP1 DUP4 KECCAK256 PUSH1 0x2 ADD SLOAD PUSH1 0xC SWAP1 SWAP3 MSTORE SWAP1 SWAP2 KECCAK256 PUSH1 0x1 ADD SLOAD PUSH1 0x1 PUSH1 0x1 PUSH1 0xA0 SHL SUB SWAP1 SWAP2 AND SWAP1 PUSH4 0x4BBF415C SWAP1 PUSH32 0x0 SWAP1 PUSH1 0x5 SWAP1 PUSH32 0x0 PUSH2 0x19E2 DUP12 PUSH2 0x2EE9 JUMP JUMPDEST DUP11 DUP11 PUSH1 0x40 MLOAD DUP9 PUSH4 0xFFFFFFFF AND PUSH1 0xE0 SHL DUP2 MSTORE PUSH1 0x4 ADD PUSH2 0x1A06 SWAP8 SWAP7 SWAP6 SWAP5 SWAP4 SWAP3 SWAP2 SWAP1 PUSH2 0x4A27 JUMP JUMPDEST PUSH1 0x20 PUSH1 0x40 MLOAD DUP1 DUP4 SUB DUP2 DUP7 GAS STATICCALL ISZERO DUP1 ISZERO PUSH2 0x1A21 JUMPI RETURNDATASIZE PUSH0 PUSH0 RETURNDATACOPY RETURNDATASIZE PUSH0 REVERT JUMPDEST POP POP POP POP PUSH1 0x40 MLOAD RETURNDATASIZE PUSH1 0x1F NOT PUSH1 0x1F DUP3 ADD AND DUP3 ADD DUP1 PUSH1 0x40 MSTORE POP DUP2 ADD SWAP1 PUSH2 0x1A45 SWAP2 SWAP1 PUSH2 0x4A73 JUMP JUMPDEST SWAP6 SWAP5 POP POP POP POP POP JUMP JUMPDEST PUSH2 0x1A56 PUSH2 0x378B JUMP JUMPDEST PUSH1 0x8 DUP1 SLOAD PUSH4 0xFFFFFFFF PUSH1 0xA0 SHL NOT AND PUSH1 0x1 PUSH1 0xA0 SHL PUSH4 0xFFFFFFFF DUP5 DUP2 AND DUP3 MUL SWAP3 SWAP1 SWAP3 OR SWAP3 DUP4 SWAP1 SSTORE PUSH1 0x40 MLOAD SWAP3 DIV AND DUP2 MSTORE PUSH32 0x7B0FFAC54449EDEFE5C8B153777B5873E7673D02C8AC936F3CB37A9A2B9E00D5 SWAP1 PUSH1 0x20 ADD PUSH2 0x1658 JUMP JUMPDEST PUSH1 0x60 DUP2 MLOAD DUP4 MLOAD EQ PUSH2 0x1ADE JUMPI DUP2 MLOAD DUP4 MLOAD PUSH1 0x40 MLOAD PUSH4 0x5B059991 PUSH1 0xE0 SHL DUP2 MSTORE PUSH1 0x4 DUP2 ADD SWAP3 SWAP1 SWAP3 MSTORE PUSH1 0x24 DUP3 ADD MSTORE PUSH1 0x44 ADD PUSH2 0x94B JUMP JUMPDEST PUSH0 DUP4 MLOAD PUSH1 0x1 PUSH1 0x1 PUSH1 0x40 SHL SUB DUP2 GT ISZERO PUSH2 0x1AF8 JUMPI PUSH2 0x1AF8 PUSH2 0x424E JUMP JUMPDEST PUSH1 0x40 MLOAD SWAP1 DUP1 DUP3 MSTORE DUP1 PUSH1 0x20 MUL PUSH1 0x20 ADD DUP3 ADD PUSH1 0x40 MSTORE DUP1 ISZERO PUSH2 0x1B21 JUMPI DUP2 PUSH1 0x20 ADD PUSH1 0x20 DUP3 MUL DUP1 CALLDATASIZE DUP4 CALLDATACOPY ADD SWAP1 POP JUMPDEST POP SWAP1 POP PUSH0 JUMPDEST DUP5 MLOAD DUP2 LT ISZERO PUSH2 0x1B6F JUMPI PUSH1 0x20 DUP1 DUP3 MUL DUP7 ADD ADD MLOAD PUSH2 0x1B4A SWAP1 PUSH1 0x20 DUP1 DUP5 MUL DUP8 ADD ADD MLOAD PUSH2 0x89D JUMP JUMPDEST DUP3 DUP3 DUP2 MLOAD DUP2 LT PUSH2 0x1B5C JUMPI PUSH2 0x1B5C PUSH2 0x4A8A JUMP JUMPDEST PUSH1 0x20 SWAP1 DUP2 MUL SWAP2 SWAP1 SWAP2 ADD ADD MSTORE PUSH1 0x1 ADD PUSH2 0x1B26 JUMP JUMPDEST POP SWAP4 SWAP3 POP POP POP JUMP JUMPDEST PUSH0 PUSH2 0x1B80 PUSH2 0x34D7 JUMP JUMPDEST PUSH1 0x8 SLOAD PUSH4 0xFFFFFFFF AND DUP6 LT DUP1 ISZERO SWAP1 PUSH2 0x1BAB JUMPI POP PUSH1 0x8 SLOAD PUSH4 0xFFFFFFFF PUSH1 0x1 PUSH1 0xC0 SHL SWAP1 SWAP2 DIV DUP2 AND SWAP1 DUP6 AND LT ISZERO JUMPDEST DUP1 ISZERO PUSH2 0x1BCA JUMPI POP PUSH1 0x8 SLOAD PUSH4 0xFFFFFFFF PUSH1 0x1 PUSH1 0x20 SHL SWAP1 SWAP2 DIV DUP2 AND SWAP1 DUP5 AND LT ISZERO JUMPDEST DUP1 ISZERO PUSH2 0x1BE9 JUMPI POP PUSH1 0x8 SLOAD PUSH4 0xFFFFFFFF PUSH1 0x1 PUSH1 0x40 SHL SWAP1 SWAP2 DIV DUP2 AND SWAP1 DUP5 AND GT ISZERO JUMPDEST DUP1 ISZERO PUSH2 0x1C08 JUMPI POP PUSH1 0x8 SLOAD PUSH4 0xFFFFFFFF PUSH1 0x1 PUSH1 0x80 SHL SWAP1 SWAP2 DIV DUP2 AND SWAP1 DUP4 AND LT ISZERO JUMPDEST DUP1 ISZERO PUSH2 0x1C27 JUMPI POP PUSH1 0x8 SLOAD PUSH4 0xFFFFFFFF PUSH1 0x1 PUSH1 0xA0 SHL SWAP1 SWAP2 DIV DUP2 AND SWAP1 DUP4 AND GT ISZERO JUMPDEST PUSH2 0x1C73 JUMPI PUSH1 0x40 MLOAD PUSH3 0x461BCD PUSH1 0xE5 SHL DUP2 MSTORE PUSH1 0x20 PUSH1 0x4 DUP3 ADD MSTORE PUSH1 0x1D PUSH1 0x24 DUP3 ADD MSTORE PUSH32 0x5032504C656E64696E673A496E76616C696420617267756D656E747321000000 PUSH1 0x44 DUP3 ADD MSTORE PUSH1 0x64 ADD PUSH2 0x94B JUMP JUMPDEST PUSH2 0x1C86 CALLER ADDRESS DUP8 PUSH1 0x7 SLOAD PUSH2 0x1319 SWAP2 SWAP1 PUSH2 0x47EA JUMP JUMPDEST PUSH2 0x1CA2 CALLER PUSH1 0xD SLOAD DUP8 PUSH1 0x40 MLOAD DUP1 PUSH1 0x20 ADD PUSH1 0x40 MSTORE DUP1 PUSH0 DUP2 MSTORE POP PUSH2 0x36CB JUMP JUMPDEST PUSH1 0x40 DUP1 MLOAD PUSH2 0x100 DUP2 ADD DUP3 MSTORE DUP7 DUP2 MSTORE PUSH1 0x7 SLOAD PUSH1 0x20 DUP3 ADD MSTORE PUSH1 0xA SLOAD PUSH1 0x1 PUSH1 0x1 PUSH1 0xA0 SHL SUB AND SWAP2 DUP2 ADD SWAP2 SWAP1 SWAP2 MSTORE PUSH1 0x60 DUP2 ADD PUSH2 0x1CDC DUP6 PUSH3 0x15180 PUSH2 0x4A9E JUMP JUMPDEST PUSH4 0xFFFFFFFF AND PUSH1 0x1 PUSH1 0x1 PUSH1 0x60 SHL SUB AND DUP2 MSTORE PUSH1 0x20 ADD DUP4 PUSH4 0xFFFFFFFF AND DUP2 MSTORE PUSH1 0x20 ADD DUP6 PUSH4 0xFFFFFFFF AND DUP2 MSTORE PUSH1 0x20 ADD PUSH1 0x8 PUSH1 0x1C SWAP1 SLOAD SWAP1 PUSH2 0x100 EXP SWAP1 DIV PUSH4 0xFFFFFFFF AND PUSH4 0xFFFFFFFF AND DUP2 MSTORE PUSH1 0x20 ADD PUSH0 PUSH1 0x1 PUSH1 0x1 PUSH1 0x60 SHL SUB AND DUP2 MSTORE POP PUSH1 0xB PUSH0 PUSH1 0xD SLOAD DUP2 MSTORE PUSH1 0x20 ADD SWAP1 DUP2 MSTORE PUSH1 0x20 ADD PUSH0 KECCAK256 PUSH0 DUP3 ADD MLOAD DUP2 PUSH0 ADD SSTORE PUSH1 0x20 DUP3 ADD MLOAD DUP2 PUSH1 0x1 ADD SSTORE PUSH1 0x40 DUP3 ADD MLOAD DUP2 PUSH1 0x2 ADD PUSH0 PUSH2 0x100 EXP DUP2 SLOAD DUP2 PUSH1 0x1 PUSH1 0x1 PUSH1 0xA0 SHL SUB MUL NOT AND SWAP1 DUP4 PUSH1 0x1 PUSH1 0x1 PUSH1 0xA0 SHL SUB AND MUL OR SWAP1 SSTORE POP PUSH1 0x60 DUP3 ADD MLOAD DUP2 PUSH1 0x2 ADD PUSH1 0x14 PUSH2 0x100 EXP DUP2 SLOAD DUP2 PUSH1 0x1 PUSH1 0x1 PUSH1 0x60 SHL SUB MUL NOT AND SWAP1 DUP4 PUSH1 0x1 PUSH1 0x1 PUSH1 0x60 SHL SUB AND MUL OR SWAP1 SSTORE POP PUSH1 0x80 DUP3 ADD MLOAD DUP2 PUSH1 0x3 ADD PUSH0 PUSH2 0x100 EXP DUP2 SLOAD DUP2 PUSH4 0xFFFFFFFF MUL NOT AND SWAP1 DUP4 PUSH4 0xFFFFFFFF AND MUL OR SWAP1 SSTORE POP PUSH1 0xA0 DUP3 ADD MLOAD DUP2 PUSH1 0x3 ADD PUSH1 0x4 PUSH2 0x100 EXP DUP2 SLOAD DUP2 PUSH4 0xFFFFFFFF MUL NOT AND SWAP1 DUP4 PUSH4 0xFFFFFFFF AND MUL OR SWAP1 SSTORE POP PUSH1 0xC0 DUP3 ADD MLOAD DUP2 PUSH1 0x3 ADD PUSH1 0x8 PUSH2 0x100 EXP DUP2 SLOAD DUP2 PUSH4 0xFFFFFFFF MUL NOT AND SWAP1 DUP4 PUSH4 0xFFFFFFFF AND MUL OR SWAP1 SSTORE POP PUSH1 0xE0 DUP3 ADD MLOAD DUP2 PUSH1 0x3 ADD PUSH1 0xC PUSH2 0x100 EXP DUP2 SLOAD DUP2 PUSH1 0x1 PUSH1 0x1 PUSH1 0x60 SHL SUB MUL NOT AND SWAP1 DUP4 PUSH1 0x1 PUSH1 0x1 PUSH1 0x60 SHL SUB AND MUL OR SWAP1 SSTORE POP SWAP1 POP POP PUSH1 0x40 MLOAD DUP1 PUSH1 0xA0 ADD PUSH1 0x40 MSTORE DUP1 PUSH0 PUSH1 0x1 PUSH1 0x1 PUSH1 0xA0 SHL SUB AND DUP2 MSTORE PUSH1 0x20 ADD PUSH0 PUSH1 0x1 PUSH1 0x1 PUSH1 0x60 SHL SUB AND DUP2 MSTORE PUSH1 0x20 ADD PUSH0 DUP2 MSTORE PUSH1 0x20 ADD PUSH0 DUP2 MSTORE PUSH1 0x20 ADD PUSH0 PUSH1 0x1 PUSH1 0x1 PUSH1 0x60 SHL SUB AND DUP2 MSTORE POP PUSH1 0xC PUSH0 PUSH1 0xD SLOAD DUP2 MSTORE PUSH1 0x20 ADD SWAP1 DUP2 MSTORE PUSH1 0x20 ADD PUSH0 KECCAK256 PUSH0 DUP3 ADD MLOAD DUP2 PUSH0 ADD PUSH0 PUSH2 0x100 EXP DUP2 SLOAD DUP2 PUSH1 0x1 PUSH1 0x1 PUSH1 0xA0 SHL SUB MUL NOT AND SWAP1 DUP4 PUSH1 0x1 PUSH1 0x1 PUSH1 0xA0 SHL SUB AND MUL OR SWAP1 SSTORE POP PUSH1 0x20 DUP3 ADD MLOAD DUP2 PUSH0 ADD PUSH1 0x14 PUSH2 0x100 EXP DUP2 SLOAD DUP2 PUSH1 0x1 PUSH1 0x1 PUSH1 0x60 SHL SUB MUL NOT AND SWAP1 DUP4 PUSH1 0x1 PUSH1 0x1 PUSH1 0x60 SHL SUB AND MUL OR SWAP1 SSTORE POP PUSH1 0x40 DUP3 ADD MLOAD DUP2 PUSH1 0x1 ADD SSTORE PUSH1 0x60 DUP3 ADD MLOAD DUP2 PUSH1 0x2 ADD SSTORE PUSH1 0x80 DUP3 ADD MLOAD DUP2 PUSH1 0x3 ADD PUSH0 PUSH2 0x100 EXP DUP2 SLOAD DUP2 PUSH1 0x1 PUSH1 0x1 PUSH1 0x60 SHL SUB MUL NOT AND SWAP1 DUP4 PUSH1 0x1 PUSH1 0x1 PUSH1 0x60 SHL SUB AND MUL OR SWAP1 SSTORE POP SWAP1 POP POP PUSH2 0x1F4A CALLER SWAP1 JUMP JUMPDEST PUSH1 0xD SLOAD PUSH0 DUP2 DUP2 MSTORE PUSH1 0xB PUSH1 0x20 MSTORE PUSH1 0x40 SWAP1 DUP2 SWAP1 KECCAK256 DUP1 SLOAD PUSH1 0x1 DUP3 ADD SLOAD PUSH1 0x2 DUP4 ADD SLOAD PUSH1 0x3 SWAP1 SWAP4 ADD SLOAD SWAP4 MLOAD PUSH1 0x1 PUSH1 0x1 PUSH1 0xA0 SHL SUB SWAP7 DUP8 AND SWAP7 PUSH32 0x2F89D5518972EF9F2027AA908AE490B2BD691FBD59E127D7BADCDB6BF75551D6 SWAP6 PUSH2 0x1FE6 SWAP6 SWAP2 DUP3 AND SWAP3 PUSH1 0x1 PUSH1 0x1 PUSH1 0x60 SHL SUB PUSH1 0x1 PUSH1 0xA0 SHL SWAP1 SWAP4 DIV DUP4 AND SWAP3 PUSH4 0xFFFFFFFF DUP1 DUP5 AND SWAP4 PUSH1 0x1 PUSH1 0x20 SHL DUP2 DIV DUP3 AND SWAP4 PUSH1 0x1 PUSH1 0x40 SHL DUP3 DIV SWAP1 SWAP3 AND SWAP3 PUSH1 0x1 PUSH1 0x60 SHL SWAP1 SWAP2 DIV AND SWAP1 PUSH2 0x4ABD JUMP JUMPDEST PUSH1 0x40 MLOAD DUP1 SWAP2 SUB SWAP1 LOG3 PUSH1 0xD DUP1 SLOAD SWAP1 PUSH0 PUSH2 0x1FFD DUP4 PUSH2 0x4B12 JUMP JUMPDEST SWAP2 SWAP1 POP SSTORE SWAP1 POP PUSH2 0x200D PUSH1 0x1 PUSH1 0x6 SSTORE JUMP JUMPDEST SWAP5 SWAP4 POP POP POP POP JUMP JUMPDEST PUSH2 0x201D PUSH2 0x378B JUMP JUMPDEST PUSH1 0xA DUP1 SLOAD PUSH1 0x1 PUSH1 0x1 PUSH1 0xA0 SHL SUB NOT AND PUSH1 0x1 PUSH1 0x1 PUSH1 0xA0 SHL SUB DUP4 AND SWAP1 DUP2 OR SWAP1 SWAP2 SSTORE PUSH1 0x40 MLOAD SWAP1 DUP2 MSTORE PUSH32 0x88A686E0E341D9099F2F990C3AA759A86822142A67579064B43DED9354A25662 SWAP1 PUSH1 0x20 ADD PUSH2 0x1658 JUMP JUMPDEST PUSH2 0x2073 PUSH2 0x34D7 JUMP JUMPDEST DUP1 PUSH0 DUP2 GT DUP1 ISZERO PUSH2 0x2084 JUMPI POP PUSH1 0xD SLOAD DUP2 LT JUMPDEST PUSH2 0x20A0 JUMPI PUSH1 0x40 MLOAD PUSH3 0x461BCD PUSH1 0xE5 SHL DUP2 MSTORE PUSH1 0x4 ADD PUSH2 0x94B SWAP1 PUSH2 0x4756 JUMP JUMPDEST PUSH0 DUP3 DUP2 MSTORE PUSH1 0xC PUSH1 0x20 MSTORE PUSH1 0x40 SWAP1 KECCAK256 DUP1 SLOAD PUSH1 0x1 PUSH1 0x1 PUSH1 0xA0 SHL SUB AND CALLER EQ PUSH2 0x20D6 JUMPI PUSH1 0x40 MLOAD PUSH3 0x461BCD PUSH1 0xE5 SHL DUP2 MSTORE PUSH1 0x4 ADD PUSH2 0x94B SWAP1 PUSH2 0x4780 JUMP JUMPDEST DUP1 SLOAD PUSH1 0x1 PUSH1 0xA0 SHL SWAP1 DIV PUSH1 0x1 PUSH1 0x1 PUSH1 0x60 SHL SUB AND ISZERO DUP1 ISZERO PUSH2 0x20F8 JUMPI POP PUSH0 DUP2 PUSH1 0x1 ADD SLOAD GT JUMPDEST PUSH2 0x2144 JUMPI PUSH1 0x40 MLOAD PUSH3 0x461BCD PUSH1 0xE5 SHL DUP2 MSTORE PUSH1 0x20 PUSH1 0x4 DUP3 ADD MSTORE PUSH1 0x1B PUSH1 0x24 DUP3 ADD MSTORE PUSH32 0x5032504C656E64696E673A43616E6E6F74205769746864726177210000000000 PUSH1 0x44 DUP3 ADD MSTORE PUSH1 0x64 ADD PUSH2 0x94B JUMP JUMPDEST PUSH1 0x1 PUSH2 0x214F DUP5 PUSH2 0x101F JUMP JUMPDEST PUSH1 0x5 DUP2 GT ISZERO PUSH2 0x2160 JUMPI PUSH2 0x2160 PUSH2 0x41CB JUMP JUMPDEST EQ DUP1 ISZERO PUSH2 0x218F JUMPI POP PUSH0 DUP4 DUP2 MSTORE PUSH1 0xB PUSH1 0x20 MSTORE PUSH1 0x40 SWAP1 KECCAK256 PUSH1 0x3 ADD SLOAD PUSH1 0x1 PUSH1 0x1 PUSH1 0x60 SHL SUB TIMESTAMP DUP2 AND PUSH1 0x1 PUSH1 0x60 SHL SWAP1 SWAP3 DIV AND LT JUMPDEST ISZERO PUSH2 0x21D8 JUMPI DUP1 SLOAD PUSH1 0x1 DUP3 ADD SLOAD PUSH2 0x21D3 SWAP2 PUSH1 0x1 PUSH1 0x1 PUSH1 0xA0 SHL SUB PUSH32 0x0 DUP2 AND SWAP3 SWAP2 AND SWAP1 PUSH2 0x3600 JUMP JUMPDEST PUSH2 0x226D JUMP JUMPDEST PUSH0 PUSH2 0x21E5 PUSH1 0x5 PUSH1 0xA PUSH2 0x48E4 JUMP JUMPDEST PUSH1 0x1 DUP4 ADD SLOAD PUSH1 0x9 SLOAD PUSH2 0x21FD SWAP2 SWAP1 PUSH4 0xFFFFFFFF AND PUSH2 0x47EA JUMP JUMPDEST PUSH2 0x2207 SWAP2 SWAP1 PUSH2 0x48F2 JUMP JUMPDEST PUSH1 0x9 SLOAD SWAP1 SWAP2 POP PUSH2 0x224B SWAP1 PUSH1 0x1 PUSH1 0x1 PUSH1 0xA0 SHL SUB PUSH32 0x0 DUP2 AND SWAP2 PUSH1 0x1 PUSH1 0x20 SHL SWAP1 DIV AND DUP4 PUSH2 0x3600 JUMP JUMPDEST DUP2 SLOAD PUSH1 0x1 DUP4 ADD SLOAD PUSH2 0x226B SWAP2 PUSH1 0x1 PUSH1 0x1 PUSH1 0xA0 SHL SUB AND SWAP1 PUSH2 0xC29 SWAP1 DUP5 SWAP1 PUSH2 0x4911 JUMP JUMPDEST POP JUMPDEST PUSH0 PUSH1 0x1 DUP3 DUP2 ADD DUP3 SWAP1 SSTORE DUP5 DUP3 MSTORE PUSH1 0xB PUSH1 0x20 SWAP1 DUP2 MSTORE PUSH1 0x40 DUP1 DUP5 KECCAK256 SWAP1 SWAP3 ADD SLOAD PUSH1 0x4 SWAP1 SWAP2 MSTORE SWAP2 KECCAK256 SLOAD PUSH2 0x229B SWAP2 SWAP1 PUSH2 0x47EA JUMP JUMPDEST PUSH1 0x2 DUP3 ADD SSTORE PUSH1 0x40 MLOAD DUP4 SWAP1 PUSH32 0xFC226BCC04F8F8905AF4229A5D361773B6BB568167898414274C713C6179E6CB SWAP1 PUSH0 SWAP1 LOG2 PUSH2 0x22D3 DUP4 PUSH2 0x3631 JUMP JUMPDEST POP POP PUSH2 0x1891 PUSH1 0x1 PUSH1 0x6 SSTORE JUMP JUMPDEST PUSH2 0x22E7 PUSH2 0x34D7 JUMP JUMPDEST DUP1 PUSH0 DUP2 GT DUP1 ISZERO PUSH2 0x22F8 JUMPI POP PUSH1 0xD SLOAD DUP2 LT JUMPDEST PUSH2 0x2314 JUMPI PUSH1 0x40 MLOAD PUSH3 0x461BCD PUSH1 0xE5 SHL DUP2 MSTORE PUSH1 0x4 ADD PUSH2 0x94B SWAP1 PUSH2 0x4756 JUMP JUMPDEST PUSH1 0x5 PUSH2 0x231F DUP4 PUSH2 0x101F JUMP JUMPDEST PUSH1 0x5 DUP2 GT ISZERO PUSH2 0x2330 JUMPI PUSH2 0x2330 PUSH2 0x41CB JUMP JUMPDEST EQ PUSH2 0x2391 JUMPI PUSH1 0x40 MLOAD PUSH3 0x461BCD PUSH1 0xE5 SHL DUP2 MSTORE PUSH1 0x20 PUSH1 0x4 DUP3 ADD MSTORE PUSH1 0x2B PUSH1 0x24 DUP3 ADD MSTORE PUSH32 0x5032504C656E64696E673A4C6F616E537461747573206D75737420657175616C PUSH1 0x44 DUP3 ADD MSTORE PUSH11 0x732046494E495348454421 PUSH1 0xA8 SHL PUSH1 0x64 DUP3 ADD MSTORE PUSH1 0x84 ADD PUSH2 0x94B JUMP JUMPDEST PUSH0 PUSH2 0x239C CALLER DUP5 PUSH2 0x89D JUMP JUMPDEST SWAP1 POP PUSH0 DUP2 GT PUSH2 0x23ED JUMPI PUSH1 0x40 MLOAD PUSH3 0x461BCD PUSH1 0xE5 SHL DUP2 MSTORE PUSH1 0x20 PUSH1 0x4 DUP3 ADD MSTORE PUSH1 0x1C PUSH1 0x24 DUP3 ADD MSTORE PUSH32 0x5032504C656E64696E673A4E6F7468696E6720746F20636C61696D2100000000 PUSH1 0x44 DUP3 ADD MSTORE PUSH1 0x64 ADD PUSH2 0x94B JUMP JUMPDEST PUSH0 DUP4 DUP2 MSTORE PUSH1 0xC PUSH1 0x20 SWAP1 DUP2 MSTORE PUSH1 0x40 DUP1 DUP4 KECCAK256 PUSH1 0x4 SWAP1 SWAP3 MSTORE DUP3 KECCAK256 SLOAD SWAP1 SWAP2 SWAP1 PUSH1 0x2 DUP4 ADD SLOAD PUSH2 0x2417 SWAP1 DUP6 PUSH2 0x47EA JUMP JUMPDEST PUSH2 0x2421 SWAP2 SWAP1 PUSH2 0x48F2 JUMP JUMPDEST SWAP1 POP DUP1 DUP3 PUSH1 0x2 ADD PUSH0 DUP3 DUP3 SLOAD PUSH2 0x2436 SWAP2 SWAP1 PUSH2 0x4911 JUMP JUMPDEST SWAP1 SWAP2 SSTORE POP PUSH2 0x2447 SWAP1 POP CALLER DUP7 DUP6 PUSH2 0x37B7 JUMP JUMPDEST PUSH2 0x247B PUSH32 0x0 PUSH1 0x1 PUSH1 0x1 PUSH1 0xA0 SHL SUB AND CALLER DUP4 PUSH2 0x3600 JUMP JUMPDEST PUSH1 0x40 DUP1 MLOAD DUP5 DUP2 MSTORE PUSH1 0x20 DUP2 ADD DUP4 SWAP1 MSTORE CALLER SWAP2 DUP8 SWAP2 PUSH32 0xFCDAABBCAC647C42F2FBF34F6C5A49EE8A8CD0B64EF5EB50B25441BDB133DDF2 SWAP2 ADD PUSH1 0x40 MLOAD DUP1 SWAP2 SUB SWAP1 LOG3 PUSH2 0x24C1 DUP6 PUSH2 0x3631 JUMP JUMPDEST POP POP POP POP PUSH2 0x1891 PUSH1 0x1 PUSH1 0x6 SSTORE JUMP JUMPDEST PUSH2 0x24D7 PUSH2 0x378B JUMP JUMPDEST PUSH2 0x24E0 PUSH0 PUSH2 0x381D JUMP JUMPDEST JUMP JUMPDEST PUSH0 PUSH2 0x24EB PUSH2 0x34D7 JUMP JUMPDEST PUSH1 0x8 SLOAD PUSH4 0xFFFFFFFF AND DUP10 LT DUP1 ISZERO SWAP1 PUSH2 0x2516 JUMPI POP PUSH1 0x8 SLOAD PUSH4 0xFFFFFFFF PUSH1 0x1 PUSH1 0xC0 SHL SWAP1 SWAP2 DIV DUP2 AND SWAP1 DUP9 AND LT ISZERO JUMPDEST DUP1 ISZERO PUSH2 0x2535 JUMPI POP PUSH1 0x8 SLOAD PUSH4 0xFFFFFFFF PUSH1 0x1 PUSH1 0x20 SHL SWAP1 SWAP2 DIV DUP2 AND SWAP1 DUP8 AND LT ISZERO JUMPDEST DUP1 ISZERO PUSH2 0x2554 JUMPI POP PUSH1 0x8 SLOAD PUSH4 0xFFFFFFFF PUSH1 0x1 PUSH1 0x40 SHL SWAP1 SWAP2 DIV DUP2 AND SWAP1 DUP8 AND GT ISZERO JUMPDEST DUP1 ISZERO PUSH2 0x2573 JUMPI POP PUSH1 0x8 SLOAD PUSH4 0xFFFFFFFF PUSH1 0x1 PUSH1 0x80 SHL SWAP1 SWAP2 DIV DUP2 AND SWAP1 DUP7 AND LT ISZERO JUMPDEST DUP1 ISZERO PUSH2 0x2592 JUMPI POP PUSH1 0x8 SLOAD PUSH4 0xFFFFFFFF PUSH1 0x1 PUSH1 0xA0 SHL SWAP1 SWAP2 DIV DUP2 AND SWAP1 DUP7 AND GT ISZERO JUMPDEST DUP1 ISZERO PUSH2 0x25B1 JUMPI POP PUSH1 0x8 SLOAD PUSH4 0xFFFFFFFF PUSH1 0x1 PUSH1 0x60 SHL SWAP1 SWAP2 DIV DUP2 AND SWAP1 DUP6 AND LT ISZERO JUMPDEST PUSH2 0x25FD JUMPI PUSH1 0x40 MLOAD PUSH3 0x461BCD PUSH1 0xE5 SHL DUP2 MSTORE PUSH1 0x20 PUSH1 0x4 DUP3 ADD MSTORE PUSH1 0x1D PUSH1 0x24 DUP3 ADD MSTORE PUSH32 0x5032504C656E64696E673A496E76616C696420617267756D656E747321000000 PUSH1 0x44 DUP3 ADD MSTORE PUSH1 0x64 ADD PUSH2 0x94B JUMP JUMPDEST PUSH0 DUP10 PUSH1 0x7 SLOAD PUSH2 0x260C SWAP2 SWAP1 PUSH2 0x47EA JUMP JUMPDEST SWAP1 POP PUSH0 PUSH2 0x261B PUSH1 0x5 PUSH1 0xA PUSH2 0x48E4 JUMP JUMPDEST PUSH1 0xA SLOAD PUSH2 0x2634 SWAP1 DUP5 SWAP1 PUSH1 0x1 PUSH1 0x1 PUSH1 0xA0 SHL SUB AND DUP9 DUP9 PUSH2 0x3501 JUMP JUMPDEST PUSH2 0x2644 SWAP1 PUSH4 0xFFFFFFFF DUP13 AND PUSH2 0x47EA JUMP JUMPDEST PUSH2 0x264E SWAP2 SWAP1 PUSH2 0x48F2 JUMP JUMPDEST SWAP1 POP DUP1 DUP11 LT ISZERO DUP1 ISZERO PUSH2 0x265F JUMPI POP PUSH0 DUP2 GT JUMPDEST PUSH2 0x267B JUMPI PUSH1 0x40 MLOAD PUSH3 0x461BCD PUSH1 0xE5 SHL DUP2 MSTORE PUSH1 0x4 ADD PUSH2 0x94B SWAP1 PUSH2 0x4924 JUMP JUMPDEST PUSH2 0x26B0 PUSH32 0x0 PUSH1 0x1 PUSH1 0x1 PUSH1 0xA0 SHL SUB AND CALLER ADDRESS DUP5 PUSH2 0x3593 JUMP JUMPDEST PUSH1 0x40 DUP1 MLOAD PUSH2 0x100 DUP2 ADD DUP3 MSTORE DUP13 DUP2 MSTORE PUSH1 0x7 SLOAD PUSH1 0x20 DUP3 ADD MSTORE PUSH1 0xA SLOAD PUSH1 0x1 PUSH1 0x1 PUSH1 0xA0 SHL SUB AND SWAP2 DUP2 ADD SWAP2 SWAP1 SWAP2 MSTORE PUSH1 0x60 DUP2 ADD PUSH2 0x26EA DUP11 PUSH3 0x15180 PUSH2 0x4A9E JUMP JUMPDEST PUSH4 0xFFFFFFFF SWAP1 DUP2 AND DUP3 MSTORE DUP10 DUP2 AND PUSH1 0x20 DUP4 ADD MSTORE DUP12 DUP2 AND PUSH1 0x40 DUP4 ADD MSTORE PUSH1 0x8 SLOAD PUSH1 0x1 PUSH1 0xE0 SHL SWAP1 DIV AND PUSH1 0x60 DUP3 ADD MSTORE PUSH1 0x80 ADD PUSH2 0x2724 DUP9 PUSH3 0x15180 PUSH2 0x4A9E JUMP JUMPDEST PUSH2 0x2734 SWAP1 PUSH4 0xFFFFFFFF AND TIMESTAMP PUSH2 0x47CB JUMP JUMPDEST PUSH1 0x1 PUSH1 0x1 PUSH1 0x60 SHL SUB SWAP1 DUP2 AND SWAP1 SWAP2 MSTORE PUSH1 0xD SLOAD PUSH0 SWAP1 DUP2 MSTORE PUSH1 0xB PUSH1 0x20 SWAP1 DUP2 MSTORE PUSH1 0x40 SWAP2 DUP3 SWAP1 KECCAK256 DUP5 MLOAD DUP2 SSTORE SWAP1 DUP5 ADD MLOAD PUSH1 0x1 DUP3 ADD SSTORE DUP4 DUP3 ADD MLOAD PUSH1 0x60 DUP6 ADD MLOAD DUP5 AND PUSH1 0x1 PUSH1 0xA0 SHL MUL PUSH1 0x1 PUSH1 0x1 PUSH1 0xA0 SHL SUB SWAP1 SWAP2 AND OR PUSH1 0x2 DUP3 ADD SSTORE PUSH1 0x80 DUP5 ADD MLOAD PUSH1 0x3 SWAP1 SWAP2 ADD DUP1 SLOAD PUSH1 0xA0 DUP1 DUP8 ADD MLOAD PUSH1 0xC0 DUP9 ADD MLOAD PUSH1 0xE0 SWAP1 SWAP9 ADD MLOAD SWAP1 SWAP7 AND PUSH1 0x1 PUSH1 0x60 SHL MUL PUSH12 0xFFFFFFFFFFFFFFFFFFFFFFFF PUSH1 0x60 SHL NOT PUSH4 0xFFFFFFFF SWAP9 DUP10 AND PUSH1 0x1 PUSH1 0x40 SHL MUL AND PUSH24 0xFFFFFFFFFFFFFFFFFFFFFFFFFFFFFFFF0000000000000000 NOT SWAP8 DUP10 AND PUSH1 0x1 PUSH1 0x20 SHL MUL PUSH8 0xFFFFFFFFFFFFFFFF NOT SWAP1 SWAP5 AND SWAP9 SWAP1 SWAP6 AND SWAP8 SWAP1 SWAP8 OR SWAP2 SWAP1 SWAP2 OR SWAP5 SWAP1 SWAP5 AND SWAP2 SWAP1 SWAP2 OR SWAP4 SWAP1 SWAP4 OR SWAP1 SWAP3 SSTORE DUP2 MLOAD SWAP1 DUP2 ADD SWAP1 SWAP2 MSTORE DUP1 PUSH2 0x2826 CALLER SWAP1 JUMP JUMPDEST PUSH1 0x1 PUSH1 0x1 PUSH1 0xA0 SHL SUB SWAP1 DUP2 AND DUP3 MSTORE PUSH0 PUSH1 0x20 DUP1 DUP5 ADD DUP3 SWAP1 MSTORE PUSH1 0x40 DUP1 DUP6 ADD DUP8 SWAP1 MSTORE PUSH1 0x60 DUP1 DUP7 ADD DUP5 SWAP1 MSTORE PUSH1 0x80 SWAP6 DUP7 ADD DUP5 SWAP1 MSTORE PUSH1 0xD DUP1 SLOAD DUP6 MSTORE PUSH1 0xC DUP5 MSTORE DUP3 DUP6 KECCAK256 DUP9 MLOAD DUP10 DUP7 ADD MLOAD SWAP1 DUP9 AND PUSH1 0x1 PUSH1 0xA0 SHL PUSH1 0x1 PUSH1 0x1 PUSH1 0x60 SHL SUB SWAP3 DUP4 AND DUP2 MUL SWAP2 SWAP1 SWAP2 OR DUP4 SSTORE DUP11 DUP7 ADD MLOAD PUSH1 0x1 DUP1 DUP6 ADD SWAP2 SWAP1 SWAP2 SSTORE SWAP5 DUP12 ADD MLOAD PUSH1 0x2 DUP1 DUP6 ADD SWAP2 SWAP1 SWAP2 SSTORE SWAP11 SWAP1 SWAP10 ADD MLOAD PUSH1 0x3 SWAP3 DUP4 ADD DUP1 SLOAD PUSH1 0x1 PUSH1 0x1 PUSH1 0x60 SHL SUB NOT AND SWAP2 DUP4 AND SWAP2 SWAP1 SWAP2 OR SWAP1 SSTORE SWAP2 SLOAD DUP1 DUP8 MSTORE PUSH1 0xB SWAP1 SWAP6 MSTORE SWAP5 DUP4 SWAP1 KECCAK256 DUP1 SLOAD SWAP3 DUP2 ADD SLOAD SWAP9 DUP2 ADD SLOAD SWAP6 ADD SLOAD SWAP3 MLOAD SWAP4 SWAP8 PUSH32 0xE0B5C9EC62AADE94CA24B2AC9D81B2037BE7D64CB9E5730FCC727BB885EE6037 SWAP8 PUSH2 0x293A SWAP8 SWAP4 SWAP7 SWAP2 SWAP6 SWAP4 DUP3 AND SWAP5 SWAP2 DIV DUP3 AND SWAP3 PUSH4 0xFFFFFFFF DUP1 DUP4 AND SWAP4 PUSH1 0x1 PUSH1 0x20 SHL DUP5 DIV DUP3 AND SWAP4 PUSH1 0x1 PUSH1 0x40 SHL DUP2 DIV SWAP1 SWAP3 AND SWAP3 PUSH1 0x1 PUSH1 0x60 SHL SWAP1 SWAP3 DIV AND SWAP1 PUSH2 0x4ABD JUMP JUMPDEST PUSH1 0x40 MLOAD DUP1 SWAP2 SUB SWAP1 LOG2 PUSH2 0x294D PUSH1 0xD SLOAD PUSH2 0x3631 JUMP JUMPDEST PUSH1 0xD DUP1 SLOAD SWAP1 PUSH0 PUSH2 0x295C DUP4 PUSH2 0x4B12 JUMP JUMPDEST SWAP2 SWAP1 POP SSTORE SWAP3 POP POP POP PUSH2 0x296E PUSH1 0x1 PUSH1 0x6 SSTORE JUMP JUMPDEST SWAP9 SWAP8 POP POP POP POP POP POP POP POP JUMP JUMPDEST PUSH2 0x2982 PUSH2 0x34D7 JUMP JUMPDEST DUP2 PUSH0 DUP2 GT DUP1 ISZERO PUSH2 0x2993 JUMPI POP PUSH1 0xD SLOAD DUP2 LT JUMPDEST PUSH2 0x29AF JUMPI PUSH1 0x40 MLOAD PUSH3 0x461BCD PUSH1 0xE5 SHL DUP2 MSTORE PUSH1 0x4 ADD PUSH2 0x94B SWAP1 PUSH2 0x4756 JUMP JUMPDEST PUSH0 DUP3 GT PUSH2 0x2A11 JUMPI PUSH1 0x40 MLOAD PUSH3 0x461BCD PUSH1 0xE5 SHL DUP2 MSTORE PUSH1 0x20 PUSH1 0x4 DUP3 ADD MSTORE PUSH1 0x2A PUSH1 0x24 DUP3 ADD MSTORE PUSH32 0x5032504C656E64696E673A6C6F7473206D757374206265206772656174657220 PUSH1 0x44 DUP3 ADD MSTORE PUSH10 0x7468616E207A65726F21 PUSH1 0xB0 SHL PUSH1 0x64 DUP3 ADD MSTORE PUSH1 0x84 ADD PUSH2 0x94B JUMP JUMPDEST PUSH0 PUSH2 0x2A1B DUP5 PUSH2 0x101F JUMP JUMPDEST PUSH0 DUP6 DUP2 MSTORE PUSH1 0xC PUSH1 0x20 MSTORE PUSH1 0x40 SWAP1 KECCAK256 SLOAD SWAP1 SWAP2 POP PUSH1 0x1 PUSH1 0x1 PUSH1 0xA0 SHL SUB AND ISZERO DUP1 PUSH2 0x2A52 JUMPI POP PUSH1 0x3 DUP2 PUSH1 0x5 DUP2 GT ISZERO PUSH2 0x2A50 JUMPI PUSH2 0x2A50 PUSH2 0x41CB JUMP JUMPDEST EQ JUMPDEST DUP1 PUSH2 0x2A9F JUMPI POP PUSH1 0x1 DUP2 PUSH1 0x5 DUP2 GT ISZERO PUSH2 0x2A6C JUMPI PUSH2 0x2A6C PUSH2 0x41CB JUMP JUMPDEST EQ DUP1 ISZERO PUSH2 0x2A9F JUMPI POP CALLER PUSH0 SWAP1 DUP2 MSTORE PUSH1 0xE PUSH1 0x20 SWAP1 DUP2 MSTORE PUSH1 0x40 DUP1 DUP4 KECCAK256 DUP8 DUP5 MSTORE SWAP1 SWAP2 MSTORE SWAP1 KECCAK256 SLOAD PUSH1 0x1 PUSH1 0x1 PUSH1 0x60 SHL SUB SWAP1 DUP2 AND TIMESTAMP SWAP1 SWAP2 AND GT JUMPDEST PUSH2 0x2AEB JUMPI PUSH1 0x40 MLOAD PUSH3 0x461BCD PUSH1 0xE5 SHL DUP2 MSTORE PUSH1 0x20 PUSH1 0x4 DUP3 ADD MSTORE PUSH1 0x1B PUSH1 0x24 DUP3 ADD MSTORE PUSH32 0x5032504C656E64696E673A43616E6E6F74207769746864726177210000000000 PUSH1 0x44 DUP3 ADD MSTORE PUSH1 0x64 ADD PUSH2 0x94B JUMP JUMPDEST PUSH2 0x2AF6 CALLER DUP6 DUP6 PUSH2 0x37B7 JUMP JUMPDEST PUSH0 DUP5 DUP2 MSTORE PUSH1 0xC PUSH1 0x20 MSTORE PUSH1 0x40 SWAP1 KECCAK256 SLOAD PUSH1 0x1 PUSH1 0x1 PUSH1 0xA0 SHL SUB AND PUSH2 0x2B93 JUMPI PUSH0 DUP5 DUP2 MSTORE PUSH1 0x4 PUSH1 0x20 MSTORE PUSH1 0x40 SWAP1 KECCAK256 SLOAD DUP1 ISZERO DUP1 PUSH2 0x2B34 JUMPI POP PUSH1 0x8 SLOAD PUSH4 0xFFFFFFFF AND DUP2 LT ISZERO JUMPDEST PUSH2 0x2B91 JUMPI PUSH1 0x40 MLOAD PUSH3 0x461BCD PUSH1 0xE5 SHL DUP2 MSTORE PUSH1 0x20 PUSH1 0x4 DUP3 ADD MSTORE PUSH1 0x28 PUSH1 0x24 DUP3 ADD MSTORE PUSH32 0x5032504C656E64696E673A537570706C792062656C6F77204D494E5F4C4F5453 PUSH1 0x44 DUP3 ADD MSTORE PUSH8 0x5F414D4F554E5421 PUSH1 0xC0 SHL PUSH1 0x64 DUP3 ADD MSTORE PUSH1 0x84 ADD PUSH2 0x94B JUMP JUMPDEST POP JUMPDEST PUSH2 0x2BB3 CALLER PUSH0 DUP7 DUP2 MSTORE PUSH1 0xB PUSH1 0x20 MSTORE PUSH1 0x40 SWAP1 KECCAK256 PUSH1 0x1 ADD SLOAD PUSH2 0xD6C SWAP1 DUP7 SWAP1 PUSH2 0x47EA JUMP JUMPDEST PUSH1 0x40 MLOAD DUP4 DUP2 MSTORE CALLER SWAP1 DUP6 SWAP1 PUSH32 0xBF8FB3D353686A0832043307D6F9BB618DF238D387C7DBC9D0FA2FC7B7CBA726 SWAP1 PUSH1 0x20 ADD PUSH1 0x40 MLOAD DUP1 SWAP2 SUB SWAP1 LOG3 POP POP PUSH2 0x2BF6 PUSH1 0x1 PUSH1 0x6 SSTORE JUMP JUMPDEST POP POP JUMP JUMPDEST PUSH2 0x2C02 PUSH2 0x378B JUMP JUMPDEST PUSH1 0x8 DUP1 SLOAD PUSH4 0xFFFFFFFF PUSH1 0xC0 SHL NOT AND PUSH1 0x1 PUSH1 0xC0 SHL PUSH4 0xFFFFFFFF DUP5 DUP2 AND DUP3 MUL SWAP3 SWAP1 SWAP3 OR SWAP3 DUP4 SWAP1 SSTORE PUSH1 0x40 MLOAD SWAP3 DIV AND DUP2 MSTORE PUSH32 0xE03AA8E619C2EFC3DCDA53A6319B90BD43E44772026248FFAABC2A1535BBA8E5 SWAP1 PUSH1 0x20 ADD PUSH2 0x1658 JUMP JUMPDEST PUSH2 0x2BF6 CALLER DUP4 DUP4 PUSH2 0x386C JUMP JUMPDEST PUSH2 0x2C6C PUSH2 0x378B JUMP JUMPDEST PUSH1 0x8 DUP1 SLOAD PUSH4 0xFFFFFFFF PUSH1 0x80 SHL NOT AND PUSH1 0x1 PUSH1 0x80 SHL PUSH4 0xFFFFFFFF DUP5 DUP2 AND DUP3 MUL SWAP3 SWAP1 SWAP3 OR SWAP3 DUP4 SWAP1 SSTORE PUSH1 0x40 MLOAD SWAP3 DIV AND DUP2 MSTORE PUSH32 0x2519FD4CF837FEFB87387523F27D23369EA51186F29F745CC4677E7C319B3EC0 SWAP1 PUSH1 0x20 ADD PUSH2 0x1658 JUMP JUMPDEST PUSH0 PUSH0 DUP5 GT DUP1 ISZERO PUSH2 0x2CD4 JUMPI POP PUSH1 0xD SLOAD DUP5 LT JUMPDEST ISZERO DUP1 PUSH2 0x2CFA JUMPI POP PUSH1 0x4 PUSH2 0x2CE6 DUP6 PUSH2 0x101F JUMP JUMPDEST PUSH1 0x5 DUP2 GT ISZERO PUSH2 0x2CF7 JUMPI PUSH2 0x2CF7 PUSH2 0x41CB JUMP JUMPDEST EQ ISZERO JUMPDEST DUP1 PUSH2 0x2E26 JUMPI POP PUSH0 DUP5 DUP2 MSTORE PUSH1 0xC PUSH1 0x20 MSTORE PUSH1 0x40 SWAP1 KECCAK256 SLOAD PUSH1 0x1 PUSH1 0x1 PUSH1 0x60 SHL SUB TIMESTAMP DUP2 AND PUSH1 0x1 PUSH1 0xA0 SHL SWAP1 SWAP3 DIV AND LT DUP1 PUSH2 0x2E24 JUMPI POP PUSH0 DUP5 DUP2 MSTORE PUSH1 0xB PUSH1 0x20 SWAP1 DUP2 MSTORE PUSH1 0x40 DUP1 DUP4 KECCAK256 PUSH1 0x3 DUP2 ADD SLOAD PUSH1 0x2 SWAP1 SWAP2 ADD SLOAD PUSH1 0xC SWAP1 SWAP4 MSTORE SWAP3 KECCAK256 PUSH1 0x1 ADD SLOAD PUSH1 0x1 PUSH1 0x40 SHL SWAP1 SWAP3 DIV PUSH4 0xFFFFFFFF AND SWAP2 PUSH1 0x1 PUSH1 0x1 PUSH1 0xA0 SHL SUB SWAP1 SWAP2 AND SWAP1 PUSH4 0x4BBF415C SWAP1 PUSH32 0x0 SWAP1 PUSH1 0x5 SWAP1 PUSH32 0x0 PUSH2 0x2DBF DUP12 PUSH2 0x2EE9 JUMP JUMPDEST DUP11 DUP11 PUSH1 0x40 MLOAD DUP9 PUSH4 0xFFFFFFFF AND PUSH1 0xE0 SHL DUP2 MSTORE PUSH1 0x4 ADD PUSH2 0x2DE3 SWAP8 SWAP7 SWAP6 SWAP5 SWAP4 SWAP3 SWAP2 SWAP1 PUSH2 0x4A27 JUMP JUMPDEST PUSH1 0x20 PUSH1 0x40 MLOAD DUP1 DUP4 SUB DUP2 DUP7 GAS STATICCALL ISZERO DUP1 ISZERO PUSH2 0x2DFE JUMPI RETURNDATASIZE PUSH0 PUSH0 RETURNDATACOPY RETURNDATASIZE PUSH0 REVERT JUMPDEST POP POP POP POP PUSH1 0x40 MLOAD RETURNDATASIZE PUSH1 0x1F NOT PUSH1 0x1F DUP3 ADD AND DUP3 ADD DUP1 PUSH1 0x40 MSTORE POP DUP2 ADD SWAP1 PUSH2 0x2E22 SWAP2 SWAP1 PUSH2 0x4A73 JUMP JUMPDEST LT JUMPDEST ISZERO JUMPDEST ISZERO PUSH2 0x2E32 JUMPI POP PUSH0 PUSH2 0x14EB JUMP JUMPDEST POP PUSH1 0x1 PUSH2 0x14EB JUMP JUMPDEST PUSH2 0x2E42 PUSH2 0x378B JUMP JUMPDEST PUSH1 0x9 DUP1 SLOAD PUSH4 0xFFFFFFFF NOT AND PUSH4 0xFFFFFFFF DUP4 AND SWAP1 DUP2 OR SWAP1 SWAP2 SSTORE PUSH1 0x40 MLOAD SWAP1 DUP2 MSTORE PUSH32 0x7F6F57FED03F08A846D1DD7051E9D858E85408182510EC902F0D921307910284 SWAP1 PUSH1 0x20 ADD PUSH2 0x1658 JUMP JUMPDEST PUSH2 0x2E92 PUSH2 0x378B JUMP JUMPDEST PUSH1 0x8 DUP1 SLOAD PUSH4 0xFFFFFFFF PUSH1 0x60 SHL NOT AND PUSH1 0x1 PUSH1 0x60 SHL PUSH4 0xFFFFFFFF DUP5 DUP2 AND DUP3 MUL SWAP3 SWAP1 SWAP3 OR SWAP3 DUP4 SWAP1 SSTORE PUSH1 0x40 MLOAD SWAP3 DIV AND DUP2 MSTORE PUSH32 0x62B518624E16DADCA83B89E62D9F351D869E67A350D856935F3A3083AA4CF948 SWAP1 PUSH1 0x20 ADD PUSH2 0x1658 JUMP JUMPDEST PUSH0 DUP2 DUP2 MSTORE PUSH1 0xC PUSH1 0x20 MSTORE PUSH1 0x40 DUP2 KECCAK256 DUP1 SLOAD PUSH1 0x1 PUSH1 0xA0 SHL SWAP1 DIV PUSH1 0x1 PUSH1 0x1 PUSH1 0x60 SHL SUB AND ISZERO DUP1 PUSH2 0x2F16 JUMPI POP PUSH1 0x1 DUP2 ADD SLOAD ISZERO JUMPDEST ISZERO PUSH2 0x2F23 JUMPI POP PUSH0 SWAP3 SWAP2 POP POP JUMP JUMPDEST PUSH0 DUP4 DUP2 MSTORE PUSH1 0xB PUSH1 0x20 SWAP1 DUP2 MSTORE PUSH1 0x40 DUP1 DUP4 KECCAK256 PUSH1 0x1 DUP2 ADD SLOAD PUSH1 0x4 SWAP1 SWAP4 MSTORE SWAP1 DUP4 KECCAK256 SLOAD SWAP1 SWAP3 SWAP2 PUSH2 0x2F4D SWAP2 PUSH2 0x47EA JUMP JUMPDEST DUP4 SLOAD SWAP1 SWAP2 POP PUSH0 SWAP1 PUSH1 0x1 PUSH1 0x1 PUSH1 0x60 SHL SUB TIMESTAMP DUP2 AND PUSH1 0x1 PUSH1 0xA0 SHL SWAP1 SWAP3 DIV AND GT PUSH2 0x2F93 JUMPI PUSH1 0x2 DUP4 ADD SLOAD PUSH2 0x2F8E SWAP1 PUSH1 0x1 SWAP1 PUSH1 0x1 PUSH1 0xA0 SHL SWAP1 DIV PUSH1 0x1 PUSH1 0x1 PUSH1 0x60 SHL SUB AND PUSH2 0x4B2A JUMP JUMPDEST PUSH2 0x2FC6 JUMP JUMPDEST PUSH1 0x2 DUP4 ADD SLOAD DUP5 SLOAD PUSH2 0x2FBC SWAP2 PUSH1 0x1 PUSH1 0x1 PUSH1 0x60 SHL SUB PUSH1 0x1 PUSH1 0xA0 SHL SWAP2 DUP3 SWAP1 DIV DUP2 AND SWAP3 SWAP2 SWAP1 SWAP2 DIV AND PUSH2 0x4B2A JUMP JUMPDEST PUSH2 0x2FC6 SWAP1 TIMESTAMP PUSH2 0x4B2A JUMP JUMPDEST PUSH1 0x1 PUSH1 0x1 PUSH1 0x60 SHL SUB AND SWAP1 POP PUSH2 0x2FDE PUSH3 0x15180 DUP3 PUSH2 0x48F2 JUMP JUMPDEST PUSH2 0x2FE9 SWAP1 PUSH1 0x1 PUSH2 0x49EC JUMP JUMPDEST PUSH2 0x2FF6 SWAP1 PUSH3 0x15180 PUSH2 0x47EA JUMP JUMPDEST SWAP1 POP PUSH4 0x1E13380 PUSH2 0x3009 PUSH1 0x5 PUSH1 0xA PUSH2 0x48E4 JUMP JUMPDEST PUSH1 0x3 DUP6 ADD SLOAD DUP5 SWAP1 PUSH2 0x3020 SWAP1 PUSH4 0xFFFFFFFF AND DUP6 PUSH2 0x47EA JUMP JUMPDEST PUSH2 0x302A SWAP2 SWAP1 PUSH2 0x47EA JUMP JUMPDEST PUSH2 0x3034 SWAP2 SWAP1 PUSH2 0x48F2 JUMP JUMPDEST PUSH2 0x303E SWAP2 SWAP1 PUSH2 0x48F2 JUMP JUMPDEST PUSH2 0x3048 SWAP1 DUP4 PUSH2 0x49EC JUMP JUMPDEST SWAP7 SWAP6 POP POP POP POP POP POP JUMP JUMPDEST PUSH2 0x305A PUSH2 0x34D7 JUMP JUMPDEST DUP3 PUSH0 DUP2 GT DUP1 ISZERO PUSH2 0x306B JUMPI POP PUSH1 0xD SLOAD DUP2 LT JUMPDEST PUSH2 0x3087 JUMPI PUSH1 0x40 MLOAD PUSH3 0x461BCD PUSH1 0xE5 SHL DUP2 MSTORE PUSH1 0x4 ADD PUSH2 0x94B SWAP1 PUSH2 0x4756 JUMP JUMPDEST PUSH1 0x4 PUSH2 0x3092 DUP6 PUSH2 0x101F JUMP JUMPDEST PUSH1 0x5 DUP2 GT ISZERO PUSH2 0x30A3 JUMPI PUSH2 0x30A3 PUSH2 0x41CB JUMP JUMPDEST EQ PUSH2 0x30C0 JUMPI PUSH1 0x40 MLOAD PUSH3 0x461BCD PUSH1 0xE5 SHL DUP2 MSTORE PUSH1 0x4 ADD PUSH2 0x94B SWAP1 PUSH2 0x49A3 JUMP JUMPDEST PUSH0 DUP5 DUP2 MSTORE PUSH1 0xB PUSH1 0x20 SWAP1 DUP2 MSTORE PUSH1 0x40 DUP1 DUP4 KECCAK256 PUSH1 0xC SWAP1 SWAP3 MSTORE SWAP1 SWAP2 KECCAK256 DUP1 SLOAD PUSH1 0x1 PUSH1 0x1 PUSH1 0x60 SHL SUB TIMESTAMP DUP2 AND PUSH1 0x1 PUSH1 0xA0 SHL SWAP1 SWAP3 DIV AND LT DUP1 PUSH2 0x31DA JUMPI POP PUSH1 0x3 DUP3 ADD SLOAD PUSH1 0x2 DUP4 ADD SLOAD PUSH1 0x1 DUP4 ADD SLOAD PUSH1 0x1 PUSH1 0x40 SHL SWAP1 SWAP3 DIV PUSH4 0xFFFFFFFF AND SWAP2 PUSH1 0x1 PUSH1 0x1 PUSH1 0xA0 SHL SUB SWAP1 SWAP2 AND SWAP1 PUSH4 0xB4E37CF9 SWAP1 PUSH32 0x0 SWAP1 PUSH1 0x5 SWAP1 PUSH32 0x0 PUSH2 0x3174 DUP14 PUSH2 0x2EE9 JUMP JUMPDEST DUP13 DUP13 PUSH1 0x40 MLOAD DUP9 PUSH4 0xFFFFFFFF AND PUSH1 0xE0 SHL DUP2 MSTORE PUSH1 0x4 ADD PUSH2 0x3198 SWAP8 SWAP7 SWAP6 SWAP5 SWAP4 SWAP3 SWAP2 SWAP1 PUSH2 0x4A27 JUMP JUMPDEST PUSH1 0x20 PUSH1 0x40 MLOAD DUP1 DUP4 SUB DUP2 PUSH0 DUP8 GAS CALL ISZERO DUP1 ISZERO PUSH2 0x31B4 JUMPI RETURNDATASIZE PUSH0 PUSH0 RETURNDATACOPY RETURNDATASIZE PUSH0 REVERT JUMPDEST POP POP POP POP PUSH1 0x40 MLOAD RETURNDATASIZE PUSH1 0x1F NOT PUSH1 0x1F DUP3 ADD AND DUP3 ADD DUP1 PUSH1 0x40 MSTORE POP DUP2 ADD SWAP1 PUSH2 0x31D8 SWAP2 SWAP1 PUSH2 0x4A73 JUMP JUMPDEST LT JUMPDEST PUSH2 0x3226 JUMPI PUSH1 0x40 MLOAD PUSH3 0x461BCD PUSH1 0xE5 SHL DUP2 MSTORE PUSH1 0x20 PUSH1 0x4 DUP3 ADD MSTORE PUSH1 0x1C PUSH1 0x24 DUP3 ADD MSTORE PUSH32 0x5032504C656E64696E673A43616E6E6F74204C69717569646174652100000000 PUSH1 0x44 DUP3 ADD MSTORE PUSH1 0x64 ADD PUSH2 0x94B JUMP JUMPDEST PUSH0 PUSH2 0x3231 CALLER DUP9 PUSH2 0x89D JUMP JUMPDEST SWAP1 POP PUSH0 DUP2 GT PUSH2 0x3282 JUMPI PUSH1 0x40 MLOAD PUSH3 0x461BCD PUSH1 0xE5 SHL DUP2 MSTORE PUSH1 0x20 PUSH1 0x4 DUP3 ADD MSTORE PUSH1 0x1C PUSH1 0x24 DUP3 ADD MSTORE PUSH32 0x5032504C656E64696E673A4E6F7468696E6720746F20636C61696D2100000000 PUSH1 0x44 DUP3 ADD MSTORE PUSH1 0x64 ADD PUSH2 0x94B JUMP JUMPDEST PUSH0 DUP8 DUP2 MSTORE PUSH1 0x4 PUSH1 0x20 MSTORE PUSH1 0x40 DUP2 KECCAK256 SLOAD PUSH1 0x1 DUP5 ADD SLOAD PUSH2 0x329F SWAP1 DUP5 PUSH2 0x47EA JUMP JUMPDEST PUSH2 0x32A9 SWAP2 SWAP1 PUSH2 0x48F2 JUMP JUMPDEST SWAP1 POP DUP1 DUP4 PUSH1 0x1 ADD PUSH0 DUP3 DUP3 SLOAD PUSH2 0x32BE SWAP2 SWAP1 PUSH2 0x4911 JUMP JUMPDEST SWAP1 SWAP2 SSTORE POP PUSH2 0x32CF SWAP1 POP CALLER DUP10 DUP5 PUSH2 0x37B7 JUMP JUMPDEST PUSH2 0x3303 PUSH32 0x0 PUSH1 0x1 PUSH1 0x1 PUSH1 0xA0 SHL SUB AND CALLER DUP4 PUSH2 0x3600 JUMP JUMPDEST PUSH1 0x40 DUP1 MLOAD DUP4 DUP2 MSTORE PUSH1 0x20 DUP2 ADD DUP4 SWAP1 MSTORE CALLER SWAP2 DUP11 SWAP2 PUSH32 0x1D444C28894712984A4FE069711274D086859136F702D387BDA2F1CD90D66DF8 SWAP2 ADD PUSH1 0x40 MLOAD DUP1 SWAP2 SUB SWAP1 LOG3 PUSH2 0x3349 DUP9 PUSH2 0x3631 JUMP JUMPDEST POP POP POP POP POP PUSH2 0x3358 PUSH1 0x1 PUSH1 0x6 SSTORE JUMP JUMPDEST POP POP POP JUMP JUMPDEST PUSH1 0x1 PUSH1 0x1 PUSH1 0xA0 SHL SUB SWAP2 DUP3 AND PUSH0 SWAP1 DUP2 MSTORE PUSH1 0x2 PUSH1 0x20 SWAP1 DUP2 MSTORE PUSH1 0x40 DUP1 DUP4 KECCAK256 SWAP4 SWAP1 SWAP5 AND DUP3 MSTORE SWAP2 SWAP1 SWAP2 MSTORE KECCAK256 SLOAD PUSH1 0xFF AND SWAP1 JUMP JUMPDEST PUSH2 0x3392 PUSH2 0x378B JUMP JUMPDEST PUSH1 0x8 DUP1 SLOAD PUSH12 0xFFFFFFFF0000000000000000 NOT AND PUSH1 0x1 PUSH1 0x40 SHL PUSH4 0xFFFFFFFF DUP5 DUP2 AND DUP3 MUL SWAP3 SWAP1 SWAP3 OR SWAP3 DUP4 SWAP1 SSTORE PUSH1 0x40 MLOAD SWAP3 DIV AND DUP2 MSTORE PUSH32 0xA33C859C6A01D7D71B062AE88C11D026EFD55B26B354DFC8844E5A74B8BF069B SWAP1 PUSH1 0x20 ADD PUSH2 0x1658 JUMP JUMPDEST PUSH2 0x33F6 PUSH2 0x378B JUMP JUMPDEST PUSH1 0x8 DUP1 SLOAD PUSH4 0xFFFFFFFF NOT AND PUSH4 0xFFFFFFFF DUP4 AND SWAP1 DUP2 OR SWAP1 SWAP2 SSTORE PUSH1 0x40 MLOAD SWAP1 DUP2 MSTORE PUSH32 0x8B8BFA8B607AEE8F950B269EE81087CD304216FD813AC4F3AEAD05D7072A3A13 SWAP1 PUSH1 0x20 ADD PUSH2 0x1658 JUMP JUMPDEST CALLER PUSH1 0x1 PUSH1 0x1 PUSH1 0xA0 SHL SUB DUP7 AND DUP2 EQ DUP1 ISZERO SWAP1 PUSH2 0x345F JUMPI POP PUSH2 0x345D DUP7 DUP3 PUSH2 0x335D JUMP JUMPDEST ISZERO JUMPDEST ISZERO PUSH2 0x3490 JUMPI PUSH1 0x40 MLOAD PUSH4 0x711BEC91 PUSH1 0xE1 SHL DUP2 MSTORE PUSH1 0x1 PUSH1 0x1 PUSH1 0xA0 SHL SUB DUP1 DUP4 AND PUSH1 0x4 DUP4 ADD MSTORE DUP8 AND PUSH1 0x24 DUP3 ADD MSTORE PUSH1 0x44 ADD PUSH2 0x94B JUMP JUMPDEST PUSH2 0x15F4 DUP7 DUP7 DUP7 DUP7 DUP7 PUSH2 0x3900 JUMP JUMPDEST PUSH2 0x34A5 PUSH2 0x378B JUMP JUMPDEST PUSH1 0x1 PUSH1 0x1 PUSH1 0xA0 SHL SUB DUP2 AND PUSH2 0x34CE JUMPI PUSH1 0x40 MLOAD PUSH4 0x1E4FBDF7 PUSH1 0xE0 SHL DUP2 MSTORE PUSH0 PUSH1 0x4 DUP3 ADD MSTORE PUSH1 0x24 ADD PUSH2 0x94B JUMP JUMPDEST PUSH2 0x1891 DUP2 PUSH2 0x381D JUMP JUMPDEST PUSH1 0x2 PUSH1 0x6 SLOAD SUB PUSH2 0x34FA JUMPI PUSH1 0x40 MLOAD PUSH4 0x3EE5AEB5 PUSH1 0xE0 SHL DUP2 MSTORE PUSH1 0x4 ADD PUSH1 0x40 MLOAD DUP1 SWAP2 SUB SWAP1 REVERT JUMPDEST PUSH1 0x2 PUSH1 0x6 SSTORE JUMP JUMPDEST PUSH1 0x40 MLOAD PUSH4 0xC5801AA3 PUSH1 0xE0 SHL DUP2 MSTORE PUSH0 SWAP1 PUSH1 0x1 PUSH1 0x1 PUSH1 0xA0 SHL SUB DUP6 AND SWAP1 PUSH4 0xC5801AA3 SWAP1 PUSH2 0x3577 SWAP1 PUSH32 0x0 SWAP1 PUSH32 0x0 SWAP1 DUP11 SWAP1 DUP10 SWAP1 DUP10 SWAP1 PUSH1 0x4 ADD PUSH2 0x4B49 JUMP JUMPDEST PUSH1 0x20 PUSH1 0x40 MLOAD DUP1 DUP4 SUB DUP2 PUSH0 DUP8 GAS CALL ISZERO DUP1 ISZERO PUSH2 0x1A21 JUMPI RETURNDATASIZE PUSH0 PUSH0 RETURNDATACOPY RETURNDATASIZE PUSH0 REVERT JUMPDEST PUSH1 0x40 MLOAD PUSH1 0x1 PUSH1 0x1 PUSH1 0xA0 SHL SUB DUP5 DUP2 AND PUSH1 0x24 DUP4 ADD MSTORE DUP4 DUP2 AND PUSH1 0x44 DUP4 ADD MSTORE PUSH1 0x64 DUP3 ADD DUP4 SWAP1 MSTORE PUSH2 0x35FA SWAP2 DUP7 SWAP2 DUP3 AND SWAP1 PUSH4 0x23B872DD SWAP1 PUSH1 0x84 ADD JUMPDEST PUSH1 0x40 MLOAD PUSH1 0x20 DUP2 DUP4 SUB SUB DUP2 MSTORE SWAP1 PUSH1 0x40 MSTORE SWAP2 POP PUSH1 0xE0 SHL PUSH1 0x20 DUP3 ADD DUP1 MLOAD PUSH1 0x1 PUSH1 0x1 PUSH1 0xE0 SHL SUB DUP4 DUP2 DUP4 AND OR DUP4 MSTORE POP POP POP POP PUSH2 0x398C JUMP JUMPDEST POP POP POP POP JUMP JUMPDEST PUSH1 0x40 MLOAD PUSH1 0x1 PUSH1 0x1 PUSH1 0xA0 SHL SUB DUP4 DUP2 AND PUSH1 0x24 DUP4 ADD MSTORE PUSH1 0x44 DUP3 ADD DUP4 SWAP1 MSTORE PUSH2 0x3358 SWAP2 DUP6 SWAP2 DUP3 AND SWAP1 PUSH4 0xA9059CBB SWAP1 PUSH1 0x64 ADD PUSH2 0x35C8 JUMP JUMPDEST PUSH0 DUP2 DUP2 MSTORE PUSH1 0xC PUSH1 0x20 SWAP1 DUP2 MSTORE PUSH1 0x40 SWAP2 DUP3 SWAP1 KECCAK256 DUP1 SLOAD PUSH1 0x1 DUP3 ADD SLOAD PUSH1 0x2 DUP4 ADD SLOAD PUSH1 0x3 SWAP1 SWAP4 ADD SLOAD DUP6 MLOAD PUSH1 0x1 PUSH1 0x1 PUSH1 0x60 SHL SUB PUSH1 0x1 PUSH1 0xA0 SHL DUP6 DIV DUP2 AND DUP3 MSTORE SWAP6 DUP2 ADD SWAP3 SWAP1 SWAP3 MSTORE SWAP5 DUP2 ADD SWAP3 SWAP1 SWAP3 MSTORE SWAP2 SWAP1 SWAP3 AND PUSH1 0x60 DUP4 ADD MSTORE PUSH1 0x1 PUSH1 0x1 PUSH1 0xA0 SHL SUB AND SWAP1 DUP3 SWAP1 PUSH32 0x289938DFD99639EB7B7174B9259EAA5A4B3A1D69D143B4D03D58B86AC502517D SWAP1 PUSH1 0x80 ADD PUSH1 0x40 MLOAD DUP1 SWAP2 SUB SWAP1 LOG3 POP JUMP JUMPDEST PUSH0 DUP3 DUP3 XOR DUP3 DUP5 LT MUL DUP3 XOR PUSH2 0x14EB JUMP JUMPDEST PUSH1 0x1 PUSH1 0x1 PUSH1 0xA0 SHL SUB DUP5 AND PUSH2 0x36F4 JUMPI PUSH1 0x40 MLOAD PUSH4 0x2BFA23E7 PUSH1 0xE1 SHL DUP2 MSTORE PUSH0 PUSH1 0x4 DUP3 ADD MSTORE PUSH1 0x24 ADD PUSH2 0x94B JUMP JUMPDEST PUSH1 0x40 DUP1 MLOAD PUSH1 0x1 DUP1 DUP3 MSTORE PUSH1 0x20 DUP3 ADD DUP7 SWAP1 MSTORE DUP2 DUP4 ADD SWAP1 DUP2 MSTORE PUSH1 0x60 DUP3 ADD DUP6 SWAP1 MSTORE PUSH1 0x80 DUP3 ADD SWAP1 SWAP3 MSTORE SWAP1 PUSH2 0x15F4 PUSH0 DUP8 DUP5 DUP5 DUP8 PUSH2 0x39F8 JUMP JUMPDEST PUSH1 0x1 PUSH1 0x1 PUSH1 0xA0 SHL SUB DUP5 AND PUSH2 0x374F JUMPI PUSH1 0x40 MLOAD PUSH4 0x2BFA23E7 PUSH1 0xE1 SHL DUP2 MSTORE PUSH0 PUSH1 0x4 DUP3 ADD MSTORE PUSH1 0x24 ADD PUSH2 0x94B JUMP JUMPDEST PUSH1 0x1 PUSH1 0x1 PUSH1 0xA0 SHL SUB DUP6 AND PUSH2 0x3777 JUMPI PUSH1 0x40 MLOAD PUSH3 0x6A0D45 PUSH1 0xE2 SHL DUP2 MSTORE PUSH0 PUSH1 0x4 DUP3 ADD MSTORE PUSH1 0x24 ADD PUSH2 0x94B JUMP JUMPDEST PUSH2 0x3784 DUP6 DUP6 DUP6 DUP6 DUP6 PUSH2 0x39F8 JUMP JUMPDEST POP POP POP POP POP JUMP JUMPDEST PUSH0 SLOAD PUSH1 0x1 PUSH1 0x1 PUSH1 0xA0 SHL SUB AND CALLER EQ PUSH2 0x24E0 JUMPI PUSH1 0x40 MLOAD PUSH4 0x118CDAA7 PUSH1 0xE0 SHL DUP2 MSTORE CALLER PUSH1 0x4 DUP3 ADD MSTORE PUSH1 0x24 ADD PUSH2 0x94B JUMP JUMPDEST PUSH1 0x1 PUSH1 0x1 PUSH1 0xA0 SHL SUB DUP4 AND PUSH2 0x37DF JUMPI PUSH1 0x40 MLOAD PUSH3 0x6A0D45 PUSH1 0xE2 SHL DUP2 MSTORE PUSH0 PUSH1 0x4 DUP3 ADD MSTORE PUSH1 0x24 ADD PUSH2 0x94B JUMP JUMPDEST PUSH1 0x40 DUP1 MLOAD PUSH1 0x1 DUP1 DUP3 MSTORE PUSH1 0x20 DUP3 ADD DUP6 SWAP1 MSTORE DUP2 DUP4 ADD SWAP1 DUP2 MSTORE PUSH1 0x60 DUP3 ADD DUP5 SWAP1 MSTORE PUSH1 0xA0 DUP3 ADD SWAP1 SWAP3 MSTORE PUSH0 PUSH1 0x80 DUP3 ADD DUP2 DUP2 MSTORE SWAP2 SWAP3 SWAP2 PUSH2 0x3784 SWAP2 DUP8 SWAP2 DUP6 SWAP1 DUP6 SWAP1 PUSH2 0x39F8 JUMP JUMPDEST PUSH0 DUP1 SLOAD PUSH1 0x1 PUSH1 0x1 PUSH1 0xA0 SHL SUB DUP4 DUP2 AND PUSH1 0x1 PUSH1 0x1 PUSH1 0xA0 SHL SUB NOT DUP4 AND DUP2 OR DUP5 SSTORE PUSH1 0x40 MLOAD SWAP2 SWAP1 SWAP3 AND SWAP3 DUP4 SWAP2 PUSH32 0x8BE0079C531659141344CD1FD0A4F28419497F9722A3DAAFE3B4186F6B6457E0 SWAP2 SWAP1 LOG3 POP POP JUMP JUMPDEST PUSH1 0x1 PUSH1 0x1 PUSH1 0xA0 SHL SUB DUP3 AND PUSH2 0x3894 JUMPI PUSH1 0x40 MLOAD PUSH3 0xCED3E1 PUSH1 0xE8 SHL DUP2 MSTORE PUSH0 PUSH1 0x4 DUP3 ADD MSTORE PUSH1 0x24 ADD PUSH2 0x94B JUMP JUMPDEST PUSH1 0x1 PUSH1 0x1 PUSH1 0xA0 SHL SUB DUP4 DUP2 AND PUSH0 DUP2 DUP2 MSTORE PUSH1 0x2 PUSH1 0x20 SWAP1 DUP2 MSTORE PUSH1 0x40 DUP1 DUP4 KECCAK256 SWAP5 DUP8 AND DUP1 DUP5 MSTORE SWAP5 DUP3 MSTORE SWAP2 DUP3 SWAP1 KECCAK256 DUP1 SLOAD PUSH1 0xFF NOT AND DUP7 ISZERO ISZERO SWAP1 DUP2 OR SWAP1 SWAP2 SSTORE SWAP2 MLOAD SWAP2 DUP3 MSTORE PUSH32 0x17307EAB39AB6107E8899845AD3D59BD9653F200F220920489CA2B5937696C31 SWAP2 ADD PUSH1 0x40 MLOAD DUP1 SWAP2 SUB SWAP1 LOG3 POP POP POP JUMP JUMPDEST PUSH1 0x1 PUSH1 0x1 PUSH1 0xA0 SHL SUB DUP5 AND PUSH2 0x3929 JUMPI PUSH1 0x40 MLOAD PUSH4 0x2BFA23E7 PUSH1 0xE1 SHL DUP2 MSTORE PUSH0 PUSH1 0x4 DUP3 ADD MSTORE PUSH1 0x24 ADD PUSH2 0x94B JUMP JUMPDEST PUSH1 0x1 PUSH1 0x1 PUSH1 0xA0 SHL SUB DUP6 AND PUSH2 0x3951 JUMPI PUSH1 0x40 MLOAD PUSH3 0x6A0D45 PUSH1 0xE2 SHL DUP2 MSTORE PUSH0 PUSH1 0x4 DUP3 ADD MSTORE PUSH1 0x24 ADD PUSH2 0x94B JUMP JUMPDEST PUSH1 0x40 DUP1 MLOAD PUSH1 0x1 DUP1 DUP3 MSTORE PUSH1 0x20 DUP3 ADD DUP7 SWAP1 MSTORE DUP2 DUP4 ADD SWAP1 DUP2 MSTORE PUSH1 0x60 DUP3 ADD DUP6 SWAP1 MSTORE PUSH1 0x80 DUP3 ADD SWAP1 SWAP3 MSTORE SWAP1 PUSH2 0x3983 DUP8 DUP8 DUP5 DUP5 DUP8 PUSH2 0x39F8 JUMP JUMPDEST POP POP POP POP POP POP POP JUMP JUMPDEST PUSH0 PUSH0 PUSH1 0x20 PUSH0 DUP5 MLOAD PUSH1 0x20 DUP7 ADD PUSH0 DUP9 GAS CALL DUP1 PUSH2 0x39AB JUMPI PUSH1 0x40 MLOAD RETURNDATASIZE PUSH0 DUP3 RETURNDATACOPY RETURNDATASIZE DUP2 REVERT JUMPDEST POP POP PUSH0 MLOAD RETURNDATASIZE SWAP2 POP DUP2 ISZERO PUSH2 0x39C2 JUMPI DUP1 PUSH1 0x1 EQ ISZERO PUSH2 0x39CF JUMP JUMPDEST PUSH1 0x1 PUSH1 0x1 PUSH1 0xA0 SHL SUB DUP5 AND EXTCODESIZE ISZERO JUMPDEST ISZERO PUSH2 0x35FA JUMPI PUSH1 0x40 MLOAD PUSH4 0x5274AFE7 PUSH1 0xE0 SHL DUP2 MSTORE PUSH1 0x1 PUSH1 0x1 PUSH1 0xA0 SHL SUB DUP6 AND PUSH1 0x4 DUP3 ADD MSTORE PUSH1 0x24 ADD PUSH2 0x94B JUMP JUMPDEST PUSH2 0x3A04 DUP6 DUP6 DUP6 DUP6 PUSH2 0x3A4B JUMP JUMPDEST PUSH1 0x1 PUSH1 0x1 PUSH1 0xA0 SHL SUB DUP5 AND ISZERO PUSH2 0x3784 JUMPI DUP3 MLOAD CALLER SWAP1 PUSH1 0x1 SUB PUSH2 0x3A3D JUMPI PUSH1 0x20 DUP5 DUP2 ADD MLOAD SWAP1 DUP5 ADD MLOAD PUSH2 0x3A36 DUP4 DUP10 DUP10 DUP6 DUP6 DUP10 PUSH2 0x3B32 JUMP JUMPDEST POP POP PUSH2 0x15F4 JUMP JUMPDEST PUSH2 0x15F4 DUP2 DUP8 DUP8 DUP8 DUP8 DUP8 PUSH2 0x3C53 JUMP JUMPDEST PUSH2 0x3A57 DUP5 DUP5 DUP5 DUP5 PUSH2 0x3D3A JUMP JUMPDEST PUSH1 0x1 PUSH1 0x1 PUSH1 0xA0 SHL SUB DUP5 AND PUSH2 0x3AD4 JUMPI PUSH0 DUP1 JUMPDEST DUP4 MLOAD DUP2 LT ISZERO PUSH2 0x3ABB JUMPI PUSH1 0x20 DUP2 DUP2 MUL DUP5 DUP2 ADD DUP3 ADD MLOAD SWAP1 DUP7 ADD DUP3 ADD MLOAD PUSH0 SWAP1 DUP2 MSTORE PUSH1 0x4 SWAP1 SWAP3 MSTORE PUSH1 0x40 DUP3 KECCAK256 DUP1 SLOAD SWAP2 SWAP3 DUP4 SWAP3 PUSH2 0x3AA0 SWAP1 DUP5 SWAP1 PUSH2 0x49EC JUMP JUMPDEST SWAP1 SWAP2 SSTORE POP PUSH2 0x3AB0 SWAP1 POP DUP2 DUP5 PUSH2 0x49EC JUMP JUMPDEST SWAP3 POP POP PUSH1 0x1 ADD PUSH2 0x3A68 JUMP JUMPDEST POP DUP1 PUSH1 0x5 PUSH0 DUP3 DUP3 SLOAD PUSH2 0x3ACD SWAP2 SWAP1 PUSH2 0x49EC JUMP JUMPDEST SWAP1 SWAP2 SSTORE POP POP POP JUMPDEST PUSH1 0x1 PUSH1 0x1 PUSH1 0xA0 SHL SUB DUP4 AND PUSH2 0x35FA JUMPI PUSH0 DUP1 JUMPDEST DUP4 MLOAD DUP2 LT ISZERO PUSH2 0x3B21 JUMPI PUSH1 0x20 DUP2 DUP2 MUL DUP5 DUP2 ADD DUP3 ADD MLOAD SWAP1 DUP7 ADD DUP3 ADD MLOAD PUSH0 SWAP1 DUP2 MSTORE PUSH1 0x4 SWAP1 SWAP3 MSTORE PUSH1 0x40 SWAP1 SWAP2 KECCAK256 DUP1 SLOAD DUP3 SWAP1 SUB SWAP1 SSTORE SWAP2 SWAP1 SWAP2 ADD SWAP1 PUSH1 0x1 ADD PUSH2 0x3AE5 JUMP JUMPDEST POP PUSH1 0x5 DUP1 SLOAD SWAP2 SWAP1 SWAP2 SUB SWAP1 SSTORE POP POP POP POP JUMP JUMPDEST PUSH1 0x1 PUSH1 0x1 PUSH1 0xA0 SHL SUB DUP5 AND EXTCODESIZE ISZERO PUSH2 0x15F4 JUMPI PUSH1 0x40 MLOAD PUSH4 0xF23A6E61 PUSH1 0xE0 SHL DUP2 MSTORE PUSH1 0x1 PUSH1 0x1 PUSH1 0xA0 SHL SUB DUP6 AND SWAP1 PUSH4 0xF23A6E61 SWAP1 PUSH2 0x3B76 SWAP1 DUP10 SWAP1 DUP10 SWAP1 DUP9 SWAP1 DUP9 SWAP1 DUP9 SWAP1 PUSH1 0x4 ADD PUSH2 0x4B79 JUMP JUMPDEST PUSH1 0x20 PUSH1 0x40 MLOAD DUP1 DUP4 SUB DUP2 PUSH0 DUP8 GAS CALL SWAP3 POP POP POP DUP1 ISZERO PUSH2 0x3BB0 JUMPI POP PUSH1 0x40 DUP1 MLOAD PUSH1 0x1F RETURNDATASIZE SWAP1 DUP2 ADD PUSH1 0x1F NOT AND DUP3 ADD SWAP1 SWAP3 MSTORE PUSH2 0x3BAD SWAP2 DUP2 ADD SWAP1 PUSH2 0x4BB2 JUMP JUMPDEST PUSH1 0x1 JUMPDEST PUSH2 0x3C17 JUMPI RETURNDATASIZE DUP1 DUP1 ISZERO PUSH2 0x3BDD JUMPI PUSH1 0x40 MLOAD SWAP2 POP PUSH1 0x1F NOT PUSH1 0x3F RETURNDATASIZE ADD AND DUP3 ADD PUSH1 0x40 MSTORE RETURNDATASIZE DUP3 MSTORE RETURNDATASIZE PUSH0 PUSH1 0x20 DUP5 ADD RETURNDATACOPY PUSH2 0x3BE2 JUMP JUMPDEST PUSH1 0x60 SWAP2 POP JUMPDEST POP DUP1 MLOAD PUSH0 SUB PUSH2 0x3C0F JUMPI PUSH1 0x40 MLOAD PUSH4 0x2BFA23E7 PUSH1 0xE1 SHL DUP2 MSTORE PUSH1 0x1 PUSH1 0x1 PUSH1 0xA0 SHL SUB DUP7 AND PUSH1 0x4 DUP3 ADD MSTORE PUSH1 0x24 ADD PUSH2 0x94B JUMP JUMPDEST DUP1 MLOAD DUP2 PUSH1 0x20 ADD REVERT JUMPDEST PUSH1 0x1 PUSH1 0x1 PUSH1 0xE0 SHL SUB NOT DUP2 AND PUSH4 0xF23A6E61 PUSH1 0xE0 SHL EQ PUSH2 0x3983 JUMPI PUSH1 0x40 MLOAD PUSH4 0x2BFA23E7 PUSH1 0xE1 SHL DUP2 MSTORE PUSH1 0x1 PUSH1 0x1 PUSH1 0xA0 SHL SUB DUP7 AND PUSH1 0x4 DUP3 ADD MSTORE PUSH1 0x24 ADD PUSH2 0x94B JUMP JUMPDEST PUSH1 0x1 PUSH1 0x1 PUSH1 0xA0 SHL SUB DUP5 AND EXTCODESIZE ISZERO PUSH2 0x15F4 JUMPI PUSH1 0x40 MLOAD PUSH4 0xBC197C81 PUSH1 0xE0 SHL DUP2 MSTORE PUSH1 0x1 PUSH1 0x1 PUSH1 0xA0 SHL SUB DUP6 AND SWAP1 PUSH4 0xBC197C81 SWAP1 PUSH2 0x3C97 SWAP1 DUP10 SWAP1 DUP10 SWAP1 DUP9 SWAP1 DUP9 SWAP1 DUP9 SWAP1 PUSH1 0x4 ADD PUSH2 0x4BCD JUMP JUMPDEST PUSH1 0x20 PUSH1 0x40 MLOAD DUP1 DUP4 SUB DUP2 PUSH0 DUP8 GAS CALL SWAP3 POP POP POP DUP1 ISZERO PUSH2 0x3CD1 JUMPI POP PUSH1 0x40 DUP1 MLOAD PUSH1 0x1F RETURNDATASIZE SWAP1 DUP2 ADD PUSH1 0x1F NOT AND DUP3 ADD SWAP1 SWAP3 MSTORE PUSH2 0x3CCE SWAP2 DUP2 ADD SWAP1 PUSH2 0x4BB2 JUMP JUMPDEST PUSH1 0x1 JUMPDEST PUSH2 0x3CFE JUMPI RETURNDATASIZE DUP1 DUP1 ISZERO PUSH2 0x3BDD JUMPI PUSH1 0x40 MLOAD SWAP2 POP PUSH1 0x1F NOT PUSH1 0x3F RETURNDATASIZE ADD AND DUP3 ADD PUSH1 0x40 MSTORE RETURNDATASIZE DUP3 MSTORE RETURNDATASIZE PUSH0 PUSH1 0x20 DUP5 ADD RETURNDATACOPY PUSH2 0x3BE2 JUMP JUMPDEST PUSH1 0x1 PUSH1 0x1 PUSH1 0xE0 SHL SUB NOT DUP2 AND PUSH4 0xBC197C81 PUSH1 0xE0 SHL EQ PUSH2 0x3983 JUMPI PUSH1 0x40 MLOAD PUSH4 0x2BFA23E7 PUSH1 0xE1 SHL DUP2 MSTORE PUSH1 0x1 PUSH1 0x1 PUSH1 0xA0 SHL SUB DUP7 AND PUSH1 0x4 DUP3 ADD MSTORE PUSH1 0x24 ADD PUSH2 0x94B JUMP JUMPDEST DUP1 MLOAD DUP3 MLOAD EQ PUSH2 0x3D69 JUMPI DUP2 MLOAD DUP2 MLOAD PUSH1 0x40 MLOAD PUSH4 0x5B059991 PUSH1 0xE0 SHL DUP2 MSTORE PUSH1 0x4 DUP2 ADD SWAP3 SWAP1 SWAP3 MSTORE PUSH1 0x24 DUP3 ADD MSTORE PUSH1 0x44 ADD PUSH2 0x94B JUMP JUMPDEST CALLER PUSH0 JUMPDEST DUP4 MLOAD DUP2 LT ISZERO PUSH2 0x3E71 JUMPI PUSH1 0x20 DUP2 DUP2 MUL DUP6 DUP2 ADD DUP3 ADD MLOAD SWAP1 DUP6 ADD SWAP1 SWAP2 ADD MLOAD PUSH1 0x1 PUSH1 0x1 PUSH1 0xA0 SHL SUB DUP9 AND ISZERO PUSH2 0x3E21 JUMPI PUSH0 DUP3 DUP2 MSTORE PUSH1 0x1 PUSH1 0x20 SWAP1 DUP2 MSTORE PUSH1 0x40 DUP1 DUP4 KECCAK256 PUSH1 0x1 PUSH1 0x1 PUSH1 0xA0 SHL SUB DUP13 AND DUP5 MSTORE SWAP1 SWAP2 MSTORE SWAP1 KECCAK256 SLOAD DUP2 DUP2 LT ISZERO PUSH2 0x3DF9 JUMPI PUSH1 0x40 MLOAD PUSH4 0x3DEE4C5 PUSH1 0xE0 SHL DUP2 MSTORE PUSH1 0x1 PUSH1 0x1 PUSH1 0xA0 SHL SUB DUP11 AND PUSH1 0x4 DUP3 ADD MSTORE PUSH1 0x24 DUP2 ADD DUP3 SWAP1 MSTORE PUSH1 0x44 DUP2 ADD DUP4 SWAP1 MSTORE PUSH1 0x64 DUP2 ADD DUP5 SWAP1 MSTORE PUSH1 0x84 ADD PUSH2 0x94B JUMP JUMPDEST PUSH0 DUP4 DUP2 MSTORE PUSH1 0x1 PUSH1 0x20 SWAP1 DUP2 MSTORE PUSH1 0x40 DUP1 DUP4 KECCAK256 PUSH1 0x1 PUSH1 0x1 PUSH1 0xA0 SHL SUB DUP14 AND DUP5 MSTORE SWAP1 SWAP2 MSTORE SWAP1 KECCAK256 SWAP1 DUP3 SWAP1 SUB SWAP1 SSTORE JUMPDEST PUSH1 0x1 PUSH1 0x1 PUSH1 0xA0 SHL SUB DUP8 AND ISZERO PUSH2 0x3E67 JUMPI PUSH0 DUP3 DUP2 MSTORE PUSH1 0x1 PUSH1 0x20 SWAP1 DUP2 MSTORE PUSH1 0x40 DUP1 DUP4 KECCAK256 PUSH1 0x1 PUSH1 0x1 PUSH1 0xA0 SHL SUB DUP12 AND DUP5 MSTORE SWAP1 SWAP2 MSTORE DUP2 KECCAK256 DUP1 SLOAD DUP4 SWAP3 SWAP1 PUSH2 0x3E61 SWAP1 DUP5 SWAP1 PUSH2 0x49EC JUMP JUMPDEST SWAP1 SWAP2 SSTORE POP POP JUMPDEST POP POP PUSH1 0x1 ADD PUSH2 0x3D6C JUMP JUMPDEST POP DUP3 MLOAD PUSH1 0x1 SUB PUSH2 0x3EF1 JUMPI PUSH1 0x20 DUP4 ADD MLOAD PUSH0 SWAP1 PUSH1 0x20 DUP5 ADD MLOAD SWAP1 SWAP2 POP DUP6 PUSH1 0x1 PUSH1 0x1 PUSH1 0xA0 SHL SUB AND DUP8 PUSH1 0x1 PUSH1 0x1 PUSH1 0xA0 SHL SUB AND DUP5 PUSH1 0x1 PUSH1 0x1 PUSH1 0xA0 SHL SUB AND PUSH32 0xC3D58168C5AE7397731D063D5BBF3D657854427343F4C083240F7AACAA2D0F62 DUP6 DUP6 PUSH1 0x40 MLOAD PUSH2 0x3EE2 SWAP3 SWAP2 SWAP1 SWAP2 DUP3 MSTORE PUSH1 0x20 DUP3 ADD MSTORE PUSH1 0x40 ADD SWAP1 JUMP JUMPDEST PUSH1 0x40 MLOAD DUP1 SWAP2 SUB SWAP1 LOG4 POP POP PUSH2 0x3784 JUMP JUMPDEST DUP4 PUSH1 0x1 PUSH1 0x1 PUSH1 0xA0 SHL SUB AND DUP6 PUSH1 0x1 PUSH1 0x1 PUSH1 0xA0 SHL SUB AND DUP3 PUSH1 0x1 PUSH1 0x1 PUSH1 0xA0 SHL SUB AND PUSH32 0x4A39DC06D4C0DBC64B70AF90FD698A233A518AA5D07E595D983B8C0526C8F7FB DUP7 DUP7 PUSH1 0x40 MLOAD PUSH2 0x3F40 SWAP3 SWAP2 SWAP1 PUSH2 0x4C1E JUMP JUMPDEST PUSH1 0x40 MLOAD DUP1 SWAP2 SUB SWAP1 LOG4 POP POP POP POP POP JUMP JUMPDEST DUP1 CALLDATALOAD PUSH1 0x1 PUSH1 0x1 PUSH1 0xA0 SHL SUB DUP2 AND DUP2 EQ PUSH2 0x3F65 JUMPI PUSH0 PUSH0 REVERT JUMPDEST SWAP2 SWAP1 POP JUMP JUMPDEST PUSH0 PUSH0 PUSH1 0x40 DUP4 DUP6 SUB SLT ISZERO PUSH2 0x3F7B JUMPI PUSH0 PUSH0 REVERT JUMPDEST PUSH2 0x3F84 DUP4 PUSH2 0x3F4F JUMP JUMPDEST SWAP5 PUSH1 0x20 SWAP4 SWAP1 SWAP4 ADD CALLDATALOAD SWAP4 POP POP POP JUMP JUMPDEST PUSH1 0x1 PUSH1 0x1 PUSH1 0xE0 SHL SUB NOT DUP2 AND DUP2 EQ PUSH2 0x1891 JUMPI PUSH0 PUSH0 REVERT JUMPDEST PUSH0 PUSH1 0x20 DUP3 DUP5 SUB SLT ISZERO PUSH2 0x3FB7 JUMPI PUSH0 PUSH0 REVERT JUMPDEST DUP2 CALLDATALOAD PUSH2 0x14EB DUP2 PUSH2 0x3F92 JUMP JUMPDEST DUP1 CALLDATALOAD DUP1 ISZERO ISZERO DUP2 EQ PUSH2 0x3F65 JUMPI PUSH0 PUSH0 REVERT JUMPDEST PUSH0 PUSH0 DUP4 PUSH1 0x1F DUP5 ADD SLT PUSH2 0x3FE1 JUMPI PUSH0 PUSH0 REVERT JUMPDEST POP DUP2 CALLDATALOAD PUSH1 0x1 PUSH1 0x1 PUSH1 0x40 SHL SUB DUP2 GT ISZERO PUSH2 0x3FF7 JUMPI PUSH0 PUSH0 REVERT JUMPDEST PUSH1 0x20 DUP4 ADD SWAP2 POP DUP4 PUSH1 0x20 DUP3 DUP6 ADD ADD GT ISZERO PUSH2 0x400E JUMPI PUSH0 PUSH0 REVERT JUMPDEST SWAP3 POP SWAP3 SWAP1 POP JUMP JUMPDEST PUSH0 PUSH0 PUSH0 PUSH0 PUSH0 PUSH0 PUSH0 PUSH1 0xC0 DUP9 DUP11 SUB SLT ISZERO PUSH2 0x402B JUMPI PUSH0 PUSH0 REVERT JUMPDEST DUP8 CALLDATALOAD SWAP7 POP PUSH1 0x20 DUP9 ADD CALLDATALOAD SWAP6 POP PUSH1 0x40 DUP9 ADD CALLDATALOAD SWAP5 POP PUSH2 0x4049 PUSH1 0x60 DUP10 ADD PUSH2 0x3FC2 JUMP JUMPDEST SWAP4 POP PUSH1 0x80 DUP9 ADD CALLDATALOAD SWAP3 POP PUSH1 0xA0 DUP9 ADD CALLDATALOAD PUSH1 0x1 PUSH1 0x1 PUSH1 0x40 SHL SUB DUP2 GT ISZERO PUSH2 0x406A JUMPI PUSH0 PUSH0 REVERT JUMPDEST PUSH2 0x4076 DUP11 DUP3 DUP12 ADD PUSH2 0x3FD1 JUMP JUMPDEST SWAP9 SWAP12 SWAP8 SWAP11 POP SWAP6 SWAP9 POP SWAP4 SWAP7 SWAP3 SWAP6 SWAP3 SWAP4 POP POP POP JUMP JUMPDEST PUSH0 PUSH1 0x20 DUP3 DUP5 SUB SLT ISZERO PUSH2 0x4099 JUMPI PUSH0 PUSH0 REVERT JUMPDEST POP CALLDATALOAD SWAP2 SWAP1 POP JUMP JUMPDEST DUP4 MLOAD DUP2 MSTORE PUSH1 0x20 DUP1 DUP6 ADD MLOAD SWAP1 DUP3 ADD MSTORE PUSH1 0x40 DUP1 DUP6 ADD MLOAD PUSH1 0x1 PUSH1 0x1 PUSH1 0xA0 SHL SUB AND SWAP1 DUP3 ADD MSTORE PUSH1 0x60 DUP1 DUP6 ADD MLOAD PUSH1 0x1 PUSH1 0x1 PUSH1 0x60 SHL SUB AND SWAP1 DUP3 ADD MSTORE PUSH1 0x80 DUP1 DUP6 ADD MLOAD PUSH4 0xFFFFFFFF AND SWAP1 DUP3 ADD MSTORE PUSH1 0xA0 DUP1 DUP6 ADD MLOAD PUSH2 0x1C0 DUP4 ADD SWAP2 PUSH2 0x4101 SWAP1 DUP5 ADD DUP3 PUSH4 0xFFFFFFFF AND SWAP1 MSTORE JUMP JUMPDEST POP PUSH1 0xC0 DUP6 ADD MLOAD PUSH2 0x4119 PUSH1 0xC0 DUP5 ADD DUP3 PUSH4 0xFFFFFFFF AND SWAP1 MSTORE JUMP JUMPDEST POP PUSH1 0xE0 DUP6 ADD MLOAD PUSH2 0x4134 PUSH1 0xE0 DUP5 ADD DUP3 PUSH1 0x1 PUSH1 0x1 PUSH1 0x60 SHL SUB AND SWAP1 MSTORE JUMP JUMPDEST POP DUP4 MLOAD PUSH1 0x1 PUSH1 0x1 PUSH1 0xA0 SHL SUB AND PUSH2 0x100 DUP4 ADD MSTORE PUSH1 0x20 DUP5 ADD MLOAD PUSH1 0x1 PUSH1 0x1 PUSH1 0x60 SHL SUB SWAP1 DUP2 AND PUSH2 0x120 DUP5 ADD MSTORE PUSH1 0x40 DUP6 ADD MLOAD PUSH2 0x140 DUP5 ADD MSTORE PUSH1 0x60 DUP6 ADD MLOAD PUSH2 0x160 DUP5 ADD MSTORE PUSH1 0x80 SWAP1 SWAP5 ADD MLOAD SWAP1 SWAP4 AND PUSH2 0x180 DUP3 ADD MSTORE PUSH2 0x1A0 ADD MSTORE SWAP2 SWAP1 POP JUMP JUMPDEST PUSH0 DUP2 MLOAD DUP1 DUP5 MSTORE DUP1 PUSH1 0x20 DUP5 ADD PUSH1 0x20 DUP7 ADD MCOPY PUSH0 PUSH1 0x20 DUP3 DUP7 ADD ADD MSTORE PUSH1 0x20 PUSH1 0x1F NOT PUSH1 0x1F DUP4 ADD AND DUP6 ADD ADD SWAP2 POP POP SWAP3 SWAP2 POP POP JUMP JUMPDEST PUSH1 0x20 DUP2 MSTORE PUSH0 PUSH2 0x14EB PUSH1 0x20 DUP4 ADD DUP5 PUSH2 0x418B JUMP JUMPDEST PUSH4 0x4E487B71 PUSH1 0xE0 SHL PUSH0 MSTORE PUSH1 0x21 PUSH1 0x4 MSTORE PUSH1 0x24 PUSH0 REVERT JUMPDEST PUSH1 0x20 DUP2 ADD PUSH1 0x6 DUP4 LT PUSH2 0x41FF JUMPI PUSH4 0x4E487B71 PUSH1 0xE0 SHL PUSH0 MSTORE PUSH1 0x21 PUSH1 0x4 MSTORE PUSH1 0x24 PUSH0 REVERT JUMPDEST SWAP2 SWAP1 MSTORE SWAP1 JUMP JUMPDEST PUSH0 PUSH0 PUSH0 PUSH1 0x60 DUP5 DUP7 SUB SLT ISZERO PUSH2 0x4217 JUMPI PUSH0 PUSH0 REVERT JUMPDEST POP POP DUP2 CALLDATALOAD SWAP4 PUSH1 0x20 DUP4 ADD CALLDATALOAD SWAP4 POP PUSH1 0x40 SWAP1 SWAP3 ADD CALLDATALOAD SWAP2 SWAP1 POP JUMP JUMPDEST PUSH0 PUSH0 PUSH1 0x40 DUP4 DUP6 SUB SLT ISZERO PUSH2 0x423F JUMPI PUSH0 PUSH0 REVERT JUMPDEST POP POP DUP1 CALLDATALOAD SWAP3 PUSH1 0x20 SWAP1 SWAP2 ADD CALLDATALOAD SWAP2 POP JUMP JUMPDEST PUSH4 0x4E487B71 PUSH1 0xE0 SHL PUSH0 MSTORE PUSH1 0x41 PUSH1 0x4 MSTORE PUSH1 0x24 PUSH0 REVERT JUMPDEST PUSH1 0x40 MLOAD PUSH1 0x1F DUP3 ADD PUSH1 0x1F NOT AND DUP2 ADD PUSH1 0x1 PUSH1 0x1 PUSH1 0x40 SHL SUB DUP2 GT DUP3 DUP3 LT OR ISZERO PUSH2 0x428A JUMPI PUSH2 0x428A PUSH2 0x424E JUMP JUMPDEST PUSH1 0x40 MSTORE SWAP2 SWAP1 POP JUMP JUMPDEST PUSH0 PUSH1 0x1 PUSH1 0x1 PUSH1 0x40 SHL SUB DUP3 GT ISZERO PUSH2 0x42AA JUMPI PUSH2 0x42AA PUSH2 0x424E JUMP JUMPDEST POP PUSH1 0x5 SHL PUSH1 0x20 ADD SWAP1 JUMP JUMPDEST PUSH0 DUP3 PUSH1 0x1F DUP4 ADD SLT PUSH2 0x42C3 JUMPI PUSH0 PUSH0 REVERT JUMPDEST DUP2 CALLDATALOAD PUSH2 0x42D6 PUSH2 0x42D1 DUP3 PUSH2 0x4292 JUMP JUMPDEST PUSH2 0x4262 JUMP JUMPDEST DUP1 DUP3 DUP3 MSTORE PUSH1 0x20 DUP3 ADD SWAP2 POP PUSH1 0x20 DUP4 PUSH1 0x5 SHL DUP7 ADD ADD SWAP3 POP DUP6 DUP4 GT ISZERO PUSH2 0x42F7 JUMPI PUSH0 PUSH0 REVERT JUMPDEST PUSH1 0x20 DUP6 ADD JUMPDEST DUP4 DUP2 LT ISZERO PUSH2 0x4314 JUMPI DUP1 CALLDATALOAD DUP4 MSTORE PUSH1 0x20 SWAP3 DUP4 ADD SWAP3 ADD PUSH2 0x42FC JUMP JUMPDEST POP SWAP6 SWAP5 POP POP POP POP POP JUMP JUMPDEST PUSH0 DUP3 PUSH1 0x1F DUP4 ADD SLT PUSH2 0x432D JUMPI PUSH0 PUSH0 REVERT JUMPDEST DUP2 CALLDATALOAD PUSH1 0x1 PUSH1 0x1 PUSH1 0x40 SHL SUB DUP2 GT ISZERO PUSH2 0x4346 JUMPI PUSH2 0x4346 PUSH2 0x424E JUMP JUMPDEST PUSH2 0x4359 PUSH1 0x1F DUP3 ADD PUSH1 0x1F NOT AND PUSH1 0x20 ADD PUSH2 0x4262 JUMP JUMPDEST DUP2 DUP2 MSTORE DUP5 PUSH1 0x20 DUP4 DUP7 ADD ADD GT ISZERO PUSH2 0x436D JUMPI PUSH0 PUSH0 REVERT JUMPDEST DUP2 PUSH1 0x20 DUP6 ADD PUSH1 0x20 DUP4 ADD CALLDATACOPY PUSH0 SWAP2 DUP2 ADD PUSH1 0x20 ADD SWAP2 SWAP1 SWAP2 MSTORE SWAP4 SWAP3 POP POP POP JUMP JUMPDEST PUSH0 PUSH0 PUSH0 PUSH0 PUSH0 PUSH1 0xA0 DUP7 DUP9 SUB SLT ISZERO PUSH2 0x439D JUMPI PUSH0 PUSH0 REVERT JUMPDEST PUSH2 0x43A6 DUP7 PUSH2 0x3F4F JUMP JUMPDEST SWAP5 POP PUSH2 0x43B4 PUSH1 0x20 DUP8 ADD PUSH2 0x3F4F JUMP JUMPDEST SWAP4 POP PUSH1 0x40 DUP7 ADD CALLDATALOAD PUSH1 0x1 PUSH1 0x1 PUSH1 0x40 SHL SUB DUP2 GT ISZERO PUSH2 0x43CE JUMPI PUSH0 PUSH0 REVERT JUMPDEST PUSH2 0x43DA DUP9 DUP3 DUP10 ADD PUSH2 0x42B4 JUMP JUMPDEST SWAP4 POP POP PUSH1 0x60 DUP7 ADD CALLDATALOAD PUSH1 0x1 PUSH1 0x1 PUSH1 0x40 SHL SUB DUP2 GT ISZERO PUSH2 0x43F5 JUMPI PUSH0 PUSH0 REVERT JUMPDEST PUSH2 0x4401 DUP9 DUP3 DUP10 ADD PUSH2 0x42B4 JUMP JUMPDEST SWAP3 POP POP PUSH1 0x80 DUP7 ADD CALLDATALOAD PUSH1 0x1 PUSH1 0x1 PUSH1 0x40 SHL SUB DUP2 GT ISZERO PUSH2 0x441C JUMPI PUSH0 PUSH0 REVERT JUMPDEST PUSH2 0x4428 DUP9 DUP3 DUP10 ADD PUSH2 0x431E JUMP JUMPDEST SWAP2 POP POP SWAP3 SWAP6 POP SWAP3 SWAP6 SWAP1 SWAP4 POP JUMP JUMPDEST DUP1 CALLDATALOAD PUSH4 0xFFFFFFFF DUP2 AND DUP2 EQ PUSH2 0x3F65 JUMPI PUSH0 PUSH0 REVERT JUMPDEST PUSH0 PUSH1 0x20 DUP3 DUP5 SUB SLT ISZERO PUSH2 0x4458 JUMPI PUSH0 PUSH0 REVERT JUMPDEST PUSH2 0x14EB DUP3 PUSH2 0x4435 JUMP JUMPDEST PUSH0 PUSH1 0x20 DUP3 DUP5 SUB SLT ISZERO PUSH2 0x4471 JUMPI PUSH0 PUSH0 REVERT JUMPDEST PUSH2 0x14EB DUP3 PUSH2 0x3F4F JUMP JUMPDEST PUSH0 PUSH0 PUSH0 PUSH1 0x40 DUP5 DUP7 SUB SLT ISZERO PUSH2 0x448C JUMPI PUSH0 PUSH0 REVERT JUMPDEST DUP4 CALLDATALOAD SWAP3 POP PUSH1 0x20 DUP5 ADD CALLDATALOAD PUSH1 0x1 PUSH1 0x1 PUSH1 0x40 SHL SUB DUP2 GT ISZERO PUSH2 0x44A8 JUMPI PUSH0 PUSH0 REVERT JUMPDEST PUSH2 0x44B4 DUP7 DUP3 DUP8 ADD PUSH2 0x3FD1 JUMP JUMPDEST SWAP5 SWAP8 SWAP1 SWAP7 POP SWAP4 SWAP5 POP POP POP POP JUMP JUMPDEST PUSH0 PUSH0 PUSH1 0x40 DUP4 DUP6 SUB SLT ISZERO PUSH2 0x44D2 JUMPI PUSH0 PUSH0 REVERT JUMPDEST DUP3 CALLDATALOAD PUSH1 0x1 PUSH1 0x1 PUSH1 0x40 SHL SUB DUP2 GT ISZERO PUSH2 0x44E7 JUMPI PUSH0 PUSH0 REVERT JUMPDEST DUP4 ADD PUSH1 0x1F DUP2 ADD DUP6 SGT PUSH2 0x44F7 JUMPI PUSH0 PUSH0 REVERT JUMPDEST DUP1 CALLDATALOAD PUSH2 0x4505 PUSH2 0x42D1 DUP3 PUSH2 0x4292 JUMP JUMPDEST DUP1 DUP3 DUP3 MSTORE PUSH1 0x20 DUP3 ADD SWAP2 POP PUSH1 0x20 DUP4 PUSH1 0x5 SHL DUP6 ADD ADD SWAP3 POP DUP8 DUP4 GT ISZERO PUSH2 0x4526 JUMPI PUSH0 PUSH0 REVERT JUMPDEST PUSH1 0x20 DUP5 ADD SWAP4 POP JUMPDEST DUP3 DUP5 LT ISZERO PUSH2 0x454F JUMPI PUSH2 0x453E DUP5 PUSH2 0x3F4F JUMP JUMPDEST DUP3 MSTORE PUSH1 0x20 SWAP4 DUP5 ADD SWAP4 SWAP1 SWAP2 ADD SWAP1 PUSH2 0x452D JUMP JUMPDEST SWAP5 POP POP POP POP PUSH1 0x20 DUP4 ADD CALLDATALOAD PUSH1 0x1 PUSH1 0x1 PUSH1 0x40 SHL SUB DUP2 GT ISZERO PUSH2 0x456C JUMPI PUSH0 PUSH0 REVERT JUMPDEST PUSH2 0x4578 DUP6 DUP3 DUP7 ADD PUSH2 0x42B4 JUMP JUMPDEST SWAP2 POP POP SWAP3 POP SWAP3 SWAP1 POP JUMP JUMPDEST PUSH0 DUP2 MLOAD DUP1 DUP5 MSTORE PUSH1 0x20 DUP5 ADD SWAP4 POP PUSH1 0x20 DUP4 ADD PUSH0 JUMPDEST DUP3 DUP2 LT ISZERO PUSH2 0x45B2 JUMPI DUP2 MLOAD DUP7 MSTORE PUSH1 0x20 SWAP6 DUP7 ADD SWAP6 SWAP1 SWAP2 ADD SWAP1 PUSH1 0x1 ADD PUSH2 0x4594 JUMP JUMPDEST POP SWAP4 SWAP5 SWAP4 POP POP POP POP JUMP JUMPDEST PUSH1 0x20 DUP2 MSTORE PUSH0 PUSH2 0x14EB PUSH1 0x20 DUP4 ADD DUP5 PUSH2 0x4582 JUMP JUMPDEST PUSH0 PUSH0 PUSH0 PUSH0 PUSH1 0x80 DUP6 DUP8 SUB SLT ISZERO PUSH2 0x45E1 JUMPI PUSH0 PUSH0 REVERT JUMPDEST DUP5 CALLDATALOAD SWAP4 POP PUSH2 0x45F1 PUSH1 0x20 DUP7 ADD PUSH2 0x4435 JUMP JUMPDEST SWAP3 POP PUSH2 0x45FF PUSH1 0x40 DUP7 ADD PUSH2 0x4435 JUMP JUMPDEST SWAP2 POP PUSH2 0x460D PUSH1 0x60 DUP7 ADD PUSH2 0x4435 JUMP JUMPDEST SWAP1 POP SWAP3 SWAP6 SWAP2 SWAP5 POP SWAP3 POP JUMP JUMPDEST PUSH0 PUSH0 PUSH0 PUSH0 PUSH0 PUSH0 PUSH0 PUSH0 PUSH1 0xE0 DUP10 DUP12 SUB SLT ISZERO PUSH2 0x462F JUMPI PUSH0 PUSH0 REVERT JUMPDEST DUP9 CALLDATALOAD SWAP8 POP PUSH1 0x20 DUP10 ADD CALLDATALOAD SWAP7 POP PUSH2 0x4646 PUSH1 0x40 DUP11 ADD PUSH2 0x4435 JUMP JUMPDEST SWAP6 POP PUSH2 0x4654 PUSH1 0x60 DUP11 ADD PUSH2 0x4435 JUMP JUMPDEST SWAP5 POP PUSH2 0x4662 PUSH1 0x80 DUP11 ADD PUSH2 0x4435 JUMP JUMPDEST SWAP4 POP PUSH2 0x4670 PUSH1 0xA0 DUP11 ADD PUSH2 0x4435 JUMP JUMPDEST SWAP3 POP PUSH1 0xC0 DUP10 ADD CALLDATALOAD PUSH1 0x1 PUSH1 0x1 PUSH1 0x40 SHL SUB DUP2 GT ISZERO PUSH2 0x468A JUMPI PUSH0 PUSH0 REVERT JUMPDEST PUSH2 0x4696 DUP12 DUP3 DUP13 ADD PUSH2 0x3FD1 JUMP JUMPDEST SWAP10 SWAP13 SWAP9 SWAP12 POP SWAP7 SWAP10 POP SWAP5 SWAP8 SWAP4 SWAP7 SWAP3 SWAP6 SWAP5 POP POP POP JUMP JUMPDEST PUSH0 PUSH0 PUSH1 0x40 DUP4 DUP6 SUB SLT ISZERO PUSH2 0x46BB JUMPI PUSH0 PUSH0 REVERT JUMPDEST PUSH2 0x46C4 DUP4 PUSH2 0x3F4F JUMP JUMPDEST SWAP2 POP PUSH2 0x46D2 PUSH1 0x20 DUP5 ADD PUSH2 0x3FC2 JUMP JUMPDEST SWAP1 POP SWAP3 POP SWAP3 SWAP1 POP JUMP JUMPDEST PUSH0 PUSH0 PUSH1 0x40 DUP4 DUP6 SUB SLT ISZERO PUSH2 0x46EC JUMPI PUSH0 PUSH0 REVERT JUMPDEST PUSH2 0x46F5 DUP4 PUSH2 0x3F4F JUMP JUMPDEST SWAP2 POP PUSH2 0x46D2 PUSH1 0x20 DUP5 ADD PUSH2 0x3F4F JUMP JUMPDEST PUSH0 PUSH0 PUSH0 PUSH0 PUSH0 PUSH1 0xA0 DUP7 DUP9 SUB SLT ISZERO PUSH2 0x4717 JUMPI PUSH0 PUSH0 REVERT JUMPDEST PUSH2 0x4720 DUP7 PUSH2 0x3F4F JUMP JUMPDEST SWAP5 POP PUSH2 0x472E PUSH1 0x20 DUP8 ADD PUSH2 0x3F4F JUMP JUMPDEST SWAP4 POP PUSH1 0x40 DUP7 ADD CALLDATALOAD SWAP3 POP PUSH1 0x60 DUP7 ADD CALLDATALOAD SWAP2 POP PUSH1 0x80 DUP7 ADD CALLDATALOAD PUSH1 0x1 PUSH1 0x1 PUSH1 0x40 SHL SUB DUP2 GT ISZERO PUSH2 0x441C JUMPI PUSH0 PUSH0 REVERT JUMPDEST PUSH1 0x20 DUP1 DUP3 MSTORE PUSH1 0x10 SWAP1 DUP3 ADD MSTORE PUSH16 0x496E76616C6964204C6F616E20494421 PUSH1 0x80 SHL PUSH1 0x40 DUP3 ADD MSTORE PUSH1 0x60 ADD SWAP1 JUMP JUMPDEST PUSH1 0x20 DUP1 DUP3 MSTORE PUSH1 0x1F SWAP1 DUP3 ADD MSTORE PUSH32 0x5032504C656E64696E673A43616C6C6572206973206E6F74206F776E65722100 PUSH1 0x40 DUP3 ADD MSTORE PUSH1 0x60 ADD SWAP1 JUMP JUMPDEST PUSH4 0x4E487B71 PUSH1 0xE0 SHL PUSH0 MSTORE PUSH1 0x11 PUSH1 0x4 MSTORE PUSH1 0x24 PUSH0 REVERT JUMPDEST PUSH1 0x1 PUSH1 0x1 PUSH1 0x60 SHL SUB DUP2 DUP2 AND DUP4 DUP3 AND ADD SWAP1 DUP2 GT ISZERO PUSH2 0x8C0 JUMPI PUSH2 0x8C0 PUSH2 0x47B7 JUMP JUMPDEST DUP1 DUP3 MUL DUP2 ISZERO DUP3 DUP3 DIV DUP5 EQ OR PUSH2 0x8C0 JUMPI PUSH2 0x8C0 PUSH2 0x47B7 JUMP JUMPDEST PUSH1 0x1 DUP2 JUMPDEST PUSH1 0x1 DUP5 GT ISZERO PUSH2 0x483C JUMPI DUP1 DUP6 DIV DUP2 GT ISZERO PUSH2 0x4820 JUMPI PUSH2 0x4820 PUSH2 0x47B7 JUMP JUMPDEST PUSH1 0x1 DUP5 AND ISZERO PUSH2 0x482E JUMPI SWAP1 DUP2 MUL SWAP1 JUMPDEST PUSH1 0x1 SWAP4 SWAP1 SWAP4 SHR SWAP3 DUP1 MUL PUSH2 0x4805 JUMP JUMPDEST SWAP4 POP SWAP4 SWAP2 POP POP JUMP JUMPDEST PUSH0 DUP3 PUSH2 0x4852 JUMPI POP PUSH1 0x1 PUSH2 0x8C0 JUMP JUMPDEST DUP2 PUSH2 0x485E JUMPI POP PUSH0 PUSH2 0x8C0 JUMP JUMPDEST DUP2 PUSH1 0x1 DUP2 EQ PUSH2 0x4874 JUMPI PUSH1 0x2 DUP2 EQ PUSH2 0x487E JUMPI PUSH2 0x489A JUMP JUMPDEST PUSH1 0x1 SWAP2 POP POP PUSH2 0x8C0 JUMP JUMPDEST PUSH1 0xFF DUP5 GT ISZERO PUSH2 0x488F JUMPI PUSH2 0x488F PUSH2 0x47B7 JUMP JUMPDEST POP POP PUSH1 0x1 DUP3 SHL PUSH2 0x8C0 JUMP JUMPDEST POP PUSH1 0x20 DUP4 LT PUSH2 0x133 DUP4 LT AND PUSH1 0x4E DUP5 LT PUSH1 0xB DUP5 LT AND OR ISZERO PUSH2 0x48BD JUMPI POP DUP2 DUP2 EXP PUSH2 0x8C0 JUMP JUMPDEST PUSH2 0x48C9 PUSH0 NOT DUP5 DUP5 PUSH2 0x4801 JUMP JUMPDEST DUP1 PUSH0 NOT DIV DUP3 GT ISZERO PUSH2 0x48DC JUMPI PUSH2 0x48DC PUSH2 0x47B7 JUMP JUMPDEST MUL SWAP4 SWAP3 POP POP POP JUMP JUMPDEST PUSH0 PUSH2 0x14EB PUSH1 0xFF DUP5 AND DUP4 PUSH2 0x4844 JUMP JUMPDEST PUSH0 DUP3 PUSH2 0x490C JUMPI PUSH4 0x4E487B71 PUSH1 0xE0 SHL PUSH0 MSTORE PUSH1 0x12 PUSH1 0x4 MSTORE PUSH1 0x24 PUSH0 REVERT JUMPDEST POP DIV SWAP1 JUMP JUMPDEST DUP2 DUP2 SUB DUP2 DUP2 GT ISZERO PUSH2 0x8C0 JUMPI PUSH2 0x8C0 PUSH2 0x47B7 JUMP JUMPDEST PUSH1 0x20 DUP1 DUP3 MSTORE PUSH1 0x27 SWAP1 DUP3 ADD MSTORE PUSH32 0x5032504C656E64696E673A496E637265617365206D61785F636F6C6C61746572 PUSH1 0x40 DUP3 ADD MSTORE PUSH7 0x616C5F6F757421 PUSH1 0xC8 SHL PUSH1 0x60 DUP3 ADD MSTORE PUSH1 0x80 ADD SWAP1 JUMP JUMPDEST PUSH1 0x1 DUP2 DUP2 SHR SWAP1 DUP3 AND DUP1 PUSH2 0x497F JUMPI PUSH1 0x7F DUP3 AND SWAP2 POP JUMPDEST PUSH1 0x20 DUP3 LT DUP2 SUB PUSH2 0x499D JUMPI PUSH4 0x4E487B71 PUSH1 0xE0 SHL PUSH0 MSTORE PUSH1 0x22 PUSH1 0x4 MSTORE PUSH1 0x24 PUSH0 REVERT JUMPDEST POP SWAP2 SWAP1 POP JUMP JUMPDEST PUSH1 0x20 DUP1 DUP3 MSTORE PUSH1 0x29 SWAP1 DUP3 ADD MSTORE PUSH32 0x5032504C656E64696E673A4C6F616E537461747573206D75737420657175616C PUSH1 0x40 DUP3 ADD MSTORE PUSH9 0x732041435449564521 PUSH1 0xB8 SHL PUSH1 0x60 DUP3 ADD MSTORE PUSH1 0x80 ADD SWAP1 JUMP JUMPDEST DUP1 DUP3 ADD DUP1 DUP3 GT ISZERO PUSH2 0x8C0 JUMPI PUSH2 0x8C0 PUSH2 0x47B7 JUMP JUMPDEST DUP2 DUP4 MSTORE DUP2 DUP2 PUSH1 0x20 DUP6 ADD CALLDATACOPY POP PUSH0 DUP3 DUP3 ADD PUSH1 0x20 SWAP1 DUP2 ADD SWAP2 SWAP1 SWAP2 MSTORE PUSH1 0x1F SWAP1 SWAP2 ADD PUSH1 0x1F NOT AND SWAP1 SWAP2 ADD ADD SWAP1 JUMP JUMPDEST PUSH1 0x1 DUP1 PUSH1 0xA0 SHL SUB DUP9 AND DUP2 MSTORE PUSH1 0xFF DUP8 AND PUSH1 0x20 DUP3 ADD MSTORE DUP6 PUSH1 0x40 DUP3 ADD MSTORE PUSH1 0xFF DUP6 AND PUSH1 0x60 DUP3 ADD MSTORE DUP4 PUSH1 0x80 DUP3 ADD MSTORE PUSH1 0xC0 PUSH1 0xA0 DUP3 ADD MSTORE PUSH0 PUSH2 0x4A66 PUSH1 0xC0 DUP4 ADD DUP5 DUP7 PUSH2 0x49FF JUMP JUMPDEST SWAP10 SWAP9 POP POP POP POP POP POP POP POP POP JUMP JUMPDEST PUSH0 PUSH1 0x20 DUP3 DUP5 SUB SLT ISZERO PUSH2 0x4A83 JUMPI PUSH0 PUSH0 REVERT JUMPDEST POP MLOAD SWAP2 SWAP1 POP JUMP JUMPDEST PUSH4 0x4E487B71 PUSH1 0xE0 SHL PUSH0 MSTORE PUSH1 0x32 PUSH1 0x4 MSTORE PUSH1 0x24 PUSH0 REVERT JUMPDEST PUSH4 0xFFFFFFFF DUP2 DUP2 AND DUP4 DUP3 AND MUL SWAP1 DUP2 AND SWAP1 DUP2 DUP2 EQ PUSH2 0x158E JUMPI PUSH2 0x158E PUSH2 0x47B7 JUMP JUMPDEST SWAP8 DUP9 MSTORE PUSH1 0x20 DUP9 ADD SWAP7 SWAP1 SWAP7 MSTORE PUSH1 0x1 PUSH1 0x1 PUSH1 0xA0 SHL SUB SWAP5 SWAP1 SWAP5 AND PUSH1 0x40 DUP8 ADD MSTORE PUSH1 0x1 PUSH1 0x1 PUSH1 0x60 SHL SUB SWAP3 DUP4 AND PUSH1 0x60 DUP8 ADD MSTORE PUSH4 0xFFFFFFFF SWAP2 DUP3 AND PUSH1 0x80 DUP8 ADD MSTORE DUP2 AND PUSH1 0xA0 DUP7 ADD MSTORE SWAP1 SWAP2 AND PUSH1 0xC0 DUP5 ADD MSTORE AND PUSH1 0xE0 DUP3 ADD MSTORE PUSH2 0x100 ADD SWAP1 JUMP JUMPDEST PUSH0 PUSH1 0x1 DUP3 ADD PUSH2 0x4B23 JUMPI PUSH2 0x4B23 PUSH2 0x47B7 JUMP JUMPDEST POP PUSH1 0x1 ADD SWAP1 JUMP JUMPDEST PUSH1 0x1 PUSH1 0x1 PUSH1 0x60 SHL SUB DUP3 DUP2 AND DUP3 DUP3 AND SUB SWAP1 DUP2 GT ISZERO PUSH2 0x8C0 JUMPI PUSH2 0x8C0 PUSH2 0x47B7 JUMP JUMPDEST PUSH1 0x1 DUP1 PUSH1 0xA0 SHL SUB DUP7 AND DUP2 MSTORE PUSH1 0xFF DUP6 AND PUSH1 0x20 DUP3 ADD MSTORE DUP4 PUSH1 0x40 DUP3 ADD MSTORE PUSH1 0x80 PUSH1 0x60 DUP3 ADD MSTORE PUSH0 PUSH2 0xDF0 PUSH1 0x80 DUP4 ADD DUP5 DUP7 PUSH2 0x49FF JUMP JUMPDEST PUSH1 0x1 PUSH1 0x1 PUSH1 0xA0 SHL SUB DUP7 DUP2 AND DUP3 MSTORE DUP6 AND PUSH1 0x20 DUP3 ADD MSTORE PUSH1 0x40 DUP2 ADD DUP5 SWAP1 MSTORE PUSH1 0x60 DUP2 ADD DUP4 SWAP1 MSTORE PUSH1 0xA0 PUSH1 0x80 DUP3 ADD DUP2 SWAP1 MSTORE PUSH0 SWAP1 PUSH2 0xDF0 SWAP1 DUP4 ADD DUP5 PUSH2 0x418B JUMP JUMPDEST PUSH0 PUSH1 0x20 DUP3 DUP5 SUB SLT ISZERO PUSH2 0x4BC2 JUMPI PUSH0 PUSH0 REVERT JUMPDEST DUP2 MLOAD PUSH2 0x14EB DUP2 PUSH2 0x3F92 JUMP JUMPDEST PUSH1 0x1 PUSH1 0x1 PUSH1 0xA0 SHL SUB DUP7 DUP2 AND DUP3 MSTORE DUP6 AND PUSH1 0x20 DUP3 ADD MSTORE PUSH1 0xA0 PUSH1 0x40 DUP3 ADD DUP2 SWAP1 MSTORE PUSH0 SWAP1 PUSH2 0x4BF8 SWAP1 DUP4 ADD DUP7 PUSH2 0x4582 JUMP JUMPDEST DUP3 DUP2 SUB PUSH1 0x60 DUP5 ADD MSTORE PUSH2 0x4C0A DUP2 DUP7 PUSH2 0x4582 JUMP JUMPDEST SWAP1 POP DUP3 DUP2 SUB PUSH1 0x80 DUP5 ADD MSTORE PUSH2 0x296E DUP2 DUP6 PUSH2 0x418B JUMP JUMPDEST PUSH1 0x40 DUP2 MSTORE PUSH0 PUSH2 0x4C30 PUSH1 0x40 DUP4 ADD DUP6 PUSH2 0x4582 JUMP JUMPDEST DUP3 DUP2 SUB PUSH1 0x20 DUP5 ADD MSTORE PUSH2 0x1A45 DUP2 DUP6 PUSH2 0x4582 JUMP INVALID LOG2 PUSH5 0x6970667358 0x22 SLT KECCAK256 PUSH3 0x972D57 SWAPN 0xE2 EXTCODECOPY SWAP1 PUSH14 0xDDE9AEF652CFD909685E1128AF46 EXTCODESIZE 0xD3 0xAD 0xAA 0xFC PUSH21 0xB3155464736F6C634300081E003300000000000000 "
		},
		"gasEstimates": {
			"creation": {
				"codeDepositCost": "3915200",
				"executionCost": "infinite",
				"totalCost": "infinite"
			},
			"external": {
				"CLAIM_PERIOD()": "283",
				"COLLATERAL()": "infinite",
				"FEES_COLLECTOR()": "2486",
				"LIQUIDATION_RELATIVE_VALUE()": "2462",
				"LOT_SIZE()": "2351",
				"MAX_APY()": "2463",
				"MAX_DURATION()": "2441",
				"MIN_APY()": "2440",
				"MIN_DURATION()": "2396",
				"MIN_FILL_DURATION()": "2462",
				"MIN_LOTS_AMOUNT()": "2402",
				"PRICE_ORACLE()": "2449",
				"PROTOCOL_FEE()": "2447",
				"RATIOS_DECIMALS()": "317",
				"TARGET_RELATIVE_VALUE()": "2441",
				"USDC()": "infinite",
				"USDCValueOf(uint256,uint256)": "infinite",
				"WITHDRAW_COOLDOWN()": "283",
				"balanceOf(address,uint256)": "2705",
				"balanceOfBatch(address[],uint256[])": "infinite",
				"borrow(uint256,uint256,uint256,bool,uint256,bytes)": "infinite",
				"claimCollateral(uint256,bytes)": "48849",
				"claimUSDC(uint256)": "infinite",
				"createAsBorrower(uint256,uint256,uint32,uint32,uint32,uint32,bytes)": "infinite",
				"createAsLender(uint256,uint32,uint32,uint32)": "infinite",
				"exists(uint256)": "2581",
				"getDebt(uint256)": "infinite",
				"getLoanInfo(uint256)": "23092",
				"getLoanStatus(uint256)": "22083",
				"getRelativeCollateralValue(uint256,bytes)": "24577",
				"isApprovedForAll(address,address)": "infinite",
				"isCollateralClaimable(uint256,bytes)": "infinite",
				"lend(uint256,uint256,uint256)": "infinite",
				"owner()": "2463",
				"renounceOwnership()": "infinite",
				"repay(uint256)": "48590",
				"safeBatchTransferFrom(address,address,uint256[],uint256[],bytes)": "infinite",
				"safeTransferFrom(address,address,uint256,uint256,bytes)": "infinite",
				"setApprovalForAll(address,bool)": "infinite",
				"setFeesCollector(address)": "27943",
				"setLiquidationRelativeValue(uint32)": "27872",
				"setLotSize(uint256)": "25675",
				"setMaxAPY(uint32)": "27891",
				"setMaxDuration(uint32)": "27861",
				"setMinAPY(uint32)": "27890",
				"setMinDuration(uint32)": "27875",
				"setMinFillDuration(uint32)": "27912",
				"setMinLotsAmount(uint32)": "27849",
				"setPriceOracle(address)": "27886",
				"setProtocolFee(uint32)": "27829",
				"setTargetRelativeValue(uint32)": "27891",
				"supportsInterface(bytes4)": "621",
				"totalSupply()": "2371",
				"totalSupply(uint256)": "2513",
				"transferOwnership(address)": "28461",
				"uri(uint256)": "infinite",
				"withdrawCollateral(uint256)": "infinite",
				"withdrawUSDC(uint256,uint256)": "infinite"
			},
			"internal": {
				"emit_state_updated(uint256)": "infinite",
				"time_now()": "infinite",
				"usdc_to_collateral(uint256,contract IPriceData,bytes calldata)": "infinite"
			}
		},
		"methodIdentifiers": {
			"CLAIM_PERIOD()": "21241dfe",
			"COLLATERAL()": "24bbab8b",
			"FEES_COLLECTOR()": "c5f16166",
			"LIQUIDATION_RELATIVE_VALUE()": "670d5b63",
			"LOT_SIZE()": "7fee67a2",
			"MAX_APY()": "3d92f4e2",
			"MAX_DURATION()": "b1724b46",
			"MIN_APY()": "e51d375a",
			"MIN_DURATION()": "b6a6d177",
			"MIN_FILL_DURATION()": "a8a71e09",
			"MIN_LOTS_AMOUNT()": "acbb65af",
			"PRICE_ORACLE()": "0a19399a",
			"PROTOCOL_FEE()": "0b4501fd",
			"RATIOS_DECIMALS()": "03cc1194",
			"TARGET_RELATIVE_VALUE()": "a0420e7f",
			"USDC()": "89a30271",
			"USDCValueOf(uint256,uint256)": "2d4cdfc3",
			"WITHDRAW_COOLDOWN()": "950d91e9",
			"balanceOf(address,uint256)": "00fdd58e",
			"balanceOfBatch(address[],uint256[])": "4e1273f4",
			"borrow(uint256,uint256,uint256,bool,uint256,bytes)": "0431aaf2",
			"claimCollateral(uint256,bytes)": "e444f545",
			"claimUSDC(uint256)": "6e5f4a89",
			"createAsBorrower(uint256,uint256,uint32,uint32,uint32,uint32,bytes)": "7175030d",
			"createAsLender(uint256,uint32,uint32,uint32)": "51f740d5",
			"exists(uint256)": "4f558e79",
			"getDebt(uint256)": "c9dd1f3c",
			"getLoanInfo(uint256)": "0714012c",
			"getLoanStatus(uint256)": "1c4fd41c",
			"getRelativeCollateralValue(uint256,bytes)": "48782996",
			"isApprovedForAll(address,address)": "e985e9c5",
			"isCollateralClaimable(uint256,bytes)": "a877e9ce",
			"lend(uint256,uint256,uint256)": "2bed89e5",
			"owner()": "8da5cb5b",
			"renounceOwnership()": "715018a6",
			"repay(uint256)": "371fd8e6",
			"safeBatchTransferFrom(address,address,uint256[],uint256[],bytes)": "2eb2c2d6",
			"safeTransferFrom(address,address,uint256,uint256,bytes)": "f242432a",
			"setApprovalForAll(address,bool)": "a22cb465",
			"setFeesCollector(address)": "373071f2",
			"setLiquidationRelativeValue(uint32)": "35557e5c",
			"setLotSize(uint256)": "34591a3e",
			"setMaxAPY(uint32)": "49d4a7c4",
			"setMaxDuration(uint32)": "ef921826",
			"setMinAPY(uint32)": "a45234d0",
			"setMinDuration(uint32)": "3273b110",
			"setMinFillDuration(uint32)": "c5b3a376",
			"setMinLotsAmount(uint32)": "f08a5381",
			"setPriceOracle(address)": "530e784f",
			"setProtocolFee(uint32)": "aa9f7628",
			"setTargetRelativeValue(uint32)": "9d100875",
			"supportsInterface(bytes4)": "01ffc9a7",
			"totalSupply()": "18160ddd",
			"totalSupply(uint256)": "bd85b039",
			"transferOwnership(address)": "f2fde38b",
			"uri(uint256)": "0e89341c",
			"withdrawCollateral(uint256)": "6112fe2e",
			"withdrawUSDC(uint256,uint256)": "88e08665"
		}
	},
	"abi": [
		{
			"inputs": [
				{
					"internalType": "address",
					"name": "_price_oracle_address",
					"type": "address"
				},
				{
					"internalType": "address",
					"name": "_COLLATERAL",
					"type": "address"
				},
				{
					"internalType": "address",
					"name": "_USDC",
					"type": "address"
				},
				{
					"internalType": "address",
					"name": "_FEES_COLLECTOR",
					"type": "address"
				},
				{
					"internalType": "string",
					"name": "_erc1155_uri",
					"type": "string"
				}
			],
			"stateMutability": "nonpayable",
			"type": "constructor"
		},
		{
			"inputs": [
				{
					"internalType": "address",
					"name": "sender",
					"type": "address"
				},
				{
					"internalType": "uint256",
					"name": "balance",
					"type": "uint256"
				},
				{
					"internalType": "uint256",
					"name": "needed",
					"type": "uint256"
				},
				{
					"internalType": "uint256",
					"name": "tokenId",
					"type": "uint256"
				}
			],
			"name": "ERC1155InsufficientBalance",
			"type": "error"
		},
		{
			"inputs": [
				{
					"internalType": "address",
					"name": "approver",
					"type": "address"
				}
			],
			"name": "ERC1155InvalidApprover",
			"type": "error"
		},
		{
			"inputs": [
				{
					"internalType": "uint256",
					"name": "idsLength",
					"type": "uint256"
				},
				{
					"internalType": "uint256",
					"name": "valuesLength",
					"type": "uint256"
				}
			],
			"name": "ERC1155InvalidArrayLength",
			"type": "error"
		},
		{
			"inputs": [
				{
					"internalType": "address",
					"name": "operator",
					"type": "address"
				}
			],
			"name": "ERC1155InvalidOperator",
			"type": "error"
		},
		{
			"inputs": [
				{
					"internalType": "address",
					"name": "receiver",
					"type": "address"
				}
			],
			"name": "ERC1155InvalidReceiver",
			"type": "error"
		},
		{
			"inputs": [
				{
					"internalType": "address",
					"name": "sender",
					"type": "address"
				}
			],
			"name": "ERC1155InvalidSender",
			"type": "error"
		},
		{
			"inputs": [
				{
					"internalType": "address",
					"name": "operator",
					"type": "address"
				},
				{
					"internalType": "address",
					"name": "owner",
					"type": "address"
				}
			],
			"name": "ERC1155MissingApprovalForAll",
			"type": "error"
		},
		{
			"inputs": [
				{
					"internalType": "address",
					"name": "owner",
					"type": "address"
				}
			],
			"name": "OwnableInvalidOwner",
			"type": "error"
		},
		{
			"inputs": [
				{
					"internalType": "address",
					"name": "account",
					"type": "address"
				}
			],
			"name": "OwnableUnauthorizedAccount",
			"type": "error"
		},
		{
			"inputs": [],
			"name": "ReentrancyGuardReentrantCall",
			"type": "error"
		},
		{
			"inputs": [
				{
					"internalType": "address",
					"name": "token",
					"type": "address"
				}
			],
			"name": "SafeERC20FailedOperation",
			"type": "error"
		},
		{
			"anonymous": false,
			"inputs": [
				{
					"indexed": true,
					"internalType": "address",
					"name": "account",
					"type": "address"
				},
				{
					"indexed": true,
					"internalType": "address",
					"name": "operator",
					"type": "address"
				},
				{
					"indexed": false,
					"internalType": "bool",
					"name": "approved",
					"type": "bool"
				}
			],
			"name": "ApprovalForAll",
			"type": "event"
		},
		{
			"anonymous": false,
			"inputs": [
				{
					"indexed": true,
					"internalType": "uint256",
					"name": "loan_id",
					"type": "uint256"
				},
				{
					"indexed": false,
					"internalType": "uint256",
					"name": "lots",
					"type": "uint256"
				}
			],
			"name": "Borrow",
			"type": "event"
		},
		{
			"anonymous": false,
			"inputs": [
				{
					"indexed": true,
					"internalType": "uint256",
					"name": "loan_id",
					"type": "uint256"
				},
				{
					"indexed": true,
					"internalType": "address",
					"name": "lender",
					"type": "address"
				},
				{
					"indexed": false,
					"internalType": "uint256",
					"name": "lots",
					"type": "uint256"
				},
				{
					"indexed": false,
					"internalType": "uint256",
					"name": "collateral_amount",
					"type": "uint256"
				}
			],
			"name": "ClaimCollateral",
			"type": "event"
		},
		{
			"anonymous": false,
			"inputs": [
				{
					"indexed": true,
					"internalType": "uint256",
					"name": "loan_id",
					"type": "uint256"
				},
				{
					"indexed": true,
					"internalType": "address",
					"name": "lender",
					"type": "address"
				},
				{
					"indexed": false,
					"internalType": "uint256",
					"name": "lots",
					"type": "uint256"
				},
				{
					"indexed": false,
					"internalType": "uint256",
					"name": "USDC_amount",
					"type": "uint256"
				}
			],
			"name": "ClaimUSDC",
			"type": "event"
		},
		{
			"anonymous": false,
			"inputs": [
				{
					"indexed": true,
					"internalType": "uint256",
					"name": "loan_id",
					"type": "uint256"
				},
				{
					"indexed": false,
					"internalType": "uint256",
					"name": "lots_required",
					"type": "uint256"
				},
				{
					"indexed": false,
					"internalType": "uint256",
					"name": "lot_size",
					"type": "uint256"
				},
				{
					"indexed": false,
					"internalType": "address",
					"name": "price_oracle",
					"type": "address"
				},
				{
					"indexed": false,
					"internalType": "uint96",
					"name": "duration",
					"type": "uint96"
				},
				{
					"indexed": false,
					"internalType": "uint32",
					"name": "apy",
					"type": "uint32"
				},
				{
					"indexed": false,
					"internalType": "uint32",
					"name": "target_relative_value",
					"type": "uint32"
				},
				{
					"indexed": false,
					"internalType": "uint32",
					"name": "liquidation_relative_value",
					"type": "uint32"
				},
				{
					"indexed": false,
					"internalType": "uint96",
					"name": "fill_deadline",
					"type": "uint96"
				}
			],
			"name": "CreateAsBorrower",
			"type": "event"
		},
		{
			"anonymous": false,
			"inputs": [
				{
					"indexed": true,
					"internalType": "uint256",
					"name": "loan_id",
					"type": "uint256"
				},
				{
					"indexed": true,
					"internalType": "address",
					"name": "lender",
					"type": "address"
				},
				{
					"indexed": false,
					"internalType": "uint256",
					"name": "lots_required",
					"type": "uint256"
				},
				{
					"indexed": false,
					"internalType": "uint256",
					"name": "lot_size",
					"type": "uint256"
				},
				{
					"indexed": false,
					"internalType": "address",
					"name": "price_oracle",
					"type": "address"
				},
				{
					"indexed": false,
					"internalType": "uint96",
					"name": "duration",
					"type": "uint96"
				},
				{
					"indexed": false,
					"internalType": "uint32",
					"name": "apy",
					"type": "uint32"
				},
				{
					"indexed": false,
					"internalType": "uint32",
					"name": "target_relative_value",
					"type": "uint32"
				},
				{
					"indexed": false,
					"internalType": "uint32",
					"name": "liquidation_relative_value",
					"type": "uint32"
				},
				{
					"indexed": false,
					"internalType": "uint96",
					"name": "fill_deadline",
					"type": "uint96"
				}
			],
			"name": "CreateAsLender",
			"type": "event"
		},
		{
			"anonymous": false,
			"inputs": [
				{
					"indexed": true,
					"internalType": "uint256",
					"name": "loan_id",
					"type": "uint256"
				},
				{
					"indexed": false,
					"internalType": "uint96",
					"name": "claim_deadline",
					"type": "uint96"
				}
			],
			"name": "FullyFunded",
			"type": "event"
		},
		{
			"anonymous": false,
			"inputs": [
				{
					"indexed": true,
					"internalType": "uint256",
					"name": "loan_id",
					"type": "uint256"
				},
				{
					"indexed": true,
					"internalType": "address",
					"name": "lender",
					"type": "address"
				},
				{
					"indexed": false,
					"internalType": "uint256",
					"name": "lots",
					"type": "uint256"
				}
			],
			"name": "Lend",
			"type": "event"
		},
		{
			"anonymous": false,
			"inputs": [
				{
					"indexed": true,
					"internalType": "address",
					"name": "previousOwner",
					"type": "address"
				},
				{
					"indexed": true,
					"internalType": "address",
					"name": "newOwner",
					"type": "address"
				}
			],
			"name": "OwnershipTransferred",
			"type": "event"
		},
		{
			"anonymous": false,
			"inputs": [
				{
					"indexed": true,
					"internalType": "uint256",
					"name": "load_id",
					"type": "uint256"
				},
				{
					"indexed": false,
					"internalType": "uint256",
					"name": "USDC_amount",
					"type": "uint256"
				}
			],
			"name": "Repay",
			"type": "event"
		},
		{
			"anonymous": false,
			"inputs": [
				{
					"indexed": false,
					"internalType": "address",
					"name": "FEES_COLLECTOR",
					"type": "address"
				}
			],
			"name": "SetFeesCollector",
			"type": "event"
		},
		{
			"anonymous": false,
			"inputs": [
				{
					"indexed": false,
					"internalType": "uint32",
					"name": "LIQUIDATION_RELATIVE_VALUE",
					"type": "uint32"
				}
			],
			"name": "SetLiquidationRelativeValue",
			"type": "event"
		},
		{
			"anonymous": false,
			"inputs": [
				{
					"indexed": false,
					"internalType": "uint256",
					"name": "LOT_SIZE",
					"type": "uint256"
				}
			],
			"name": "SetLotSize",
			"type": "event"
		},
		{
			"anonymous": false,
			"inputs": [
				{
					"indexed": false,
					"internalType": "uint32",
					"name": "MAX_APY",
					"type": "uint32"
				}
			],
			"name": "SetMaxAPY",
			"type": "event"
		},
		{
			"anonymous": false,
			"inputs": [
				{
					"indexed": false,
					"internalType": "uint32",
					"name": "MIN_LOTS_AMOUNT",
					"type": "uint32"
				}
			],
			"name": "SetMaxDuration",
			"type": "event"
		},
		{
			"anonymous": false,
			"inputs": [
				{
					"indexed": false,
					"internalType": "uint32",
					"name": "MIN_APY",
					"type": "uint32"
				}
			],
			"name": "SetMinAPY",
			"type": "event"
		},
		{
			"anonymous": false,
			"inputs": [
				{
					"indexed": false,
					"internalType": "uint32",
					"name": "MIN_LOTS_AMOUNT",
					"type": "uint32"
				}
			],
			"name": "SetMinDuration",
			"type": "event"
		},
		{
			"anonymous": false,
			"inputs": [
				{
					"indexed": false,
					"internalType": "uint32",
					"name": "MIN_FILL_DURATION",
					"type": "uint32"
				}
			],
			"name": "SetMinFillDuration",
			"type": "event"
		},
		{
			"anonymous": false,
			"inputs": [
				{
					"indexed": false,
					"internalType": "uint32",
					"name": "MIN_LOTS_AMOUNT",
					"type": "uint32"
				}
			],
			"name": "SetMinLotsAmount",
			"type": "event"
		},
		{
			"anonymous": false,
			"inputs": [
				{
					"indexed": false,
					"internalType": "address",
					"name": "PRICE_ORACLE",
					"type": "address"
				}
			],
			"name": "SetPriceOracle",
			"type": "event"
		},
		{
			"anonymous": false,
			"inputs": [
				{
					"indexed": false,
					"internalType": "uint32",
					"name": "PROTOCOL_FEE",
					"type": "uint32"
				}
			],
			"name": "SetProtocolFee",
			"type": "event"
		},
		{
			"anonymous": false,
			"inputs": [
				{
					"indexed": false,
					"internalType": "uint32",
					"name": "TARGET_RELATIVE_VALUE",
					"type": "uint32"
				}
			],
			"name": "SetTargetRelativeValue",
			"type": "event"
		},
		{
			"anonymous": false,
			"inputs": [
				{
					"indexed": true,
					"internalType": "uint256",
					"name": "loan_id",
					"type": "uint256"
				},
				{
					"indexed": true,
					"internalType": "address",
					"name": "borrower",
					"type": "address"
				},
				{
					"indexed": false,
					"internalType": "uint96",
					"name": "deadline",
					"type": "uint96"
				},
				{
					"indexed": false,
					"internalType": "uint256",
					"name": "collateral_balance",
					"type": "uint256"
				},
				{
					"indexed": false,
					"internalType": "uint256",
					"name": "USDC_balance",
					"type": "uint256"
				},
				{
					"indexed": false,
					"internalType": "uint96",
					"name": "claim_deadline",
					"type": "uint96"
				}
			],
			"name": "StateUpdated",
			"type": "event"
		},
		{
			"anonymous": false,
			"inputs": [
				{
					"indexed": true,
					"internalType": "address",
					"name": "operator",
					"type": "address"
				},
				{
					"indexed": true,
					"internalType": "address",
					"name": "from",
					"type": "address"
				},
				{
					"indexed": true,
					"internalType": "address",
					"name": "to",
					"type": "address"
				},
				{
					"indexed": false,
					"internalType": "uint256[]",
					"name": "ids",
					"type": "uint256[]"
				},
				{
					"indexed": false,
					"internalType": "uint256[]",
					"name": "values",
					"type": "uint256[]"
				}
			],
			"name": "TransferBatch",
			"type": "event"
		},
		{
			"anonymous": false,
			"inputs": [
				{
					"indexed": true,
					"internalType": "address",
					"name": "operator",
					"type": "address"
				},
				{
					"indexed": true,
					"internalType": "address",
					"name": "from",
					"type": "address"
				},
				{
					"indexed": true,
					"internalType": "address",
					"name": "to",
					"type": "address"
				},
				{
					"indexed": false,
					"internalType": "uint256",
					"name": "id",
					"type": "uint256"
				},
				{
					"indexed": false,
					"internalType": "uint256",
					"name": "value",
					"type": "uint256"
				}
			],
			"name": "TransferSingle",
			"type": "event"
		},
		{
			"anonymous": false,
			"inputs": [
				{
					"indexed": false,
					"internalType": "string",
					"name": "value",
					"type": "string"
				},
				{
					"indexed": true,
					"internalType": "uint256",
					"name": "id",
					"type": "uint256"
				}
			],
			"name": "URI",
			"type": "event"
		},
		{
			"anonymous": false,
			"inputs": [
				{
					"indexed": true,
					"internalType": "uint256",
					"name": "load_id",
					"type": "uint256"
				}
			],
			"name": "WithdrawCollateral",
			"type": "event"
		},
		{
			"anonymous": false,
			"inputs": [
				{
					"indexed": true,
					"internalType": "uint256",
					"name": "loan_id",
					"type": "uint256"
				},
				{
					"indexed": true,
					"internalType": "address",
					"name": "lender",
					"type": "address"
				},
				{
					"indexed": false,
					"internalType": "uint256",
					"name": "lots",
					"type": "uint256"
				}
			],
			"name": "WithdrawUSDC",
			"type": "event"
		},
		{
			"inputs": [],
			"name": "CLAIM_PERIOD",
			"outputs": [
				{
					"internalType": "uint96",
					"name": "",
					"type": "uint96"
				}
			],
			"stateMutability": "view",
			"type": "function"
		},
		{
			"inputs": [],
			"name": "COLLATERAL",
			"outputs": [
				{
					"internalType": "address",
					"name": "",
					"type": "address"
				}
			],
			"stateMutability": "view",
			"type": "function"
		},
		{
			"inputs": [],
			"name": "FEES_COLLECTOR",
			"outputs": [
				{
					"internalType": "address",
					"name": "",
					"type": "address"
				}
			],
			"stateMutability": "view",
			"type": "function"
		},
		{
			"inputs": [],
			"name": "LIQUIDATION_RELATIVE_VALUE",
			"outputs": [
				{
					"internalType": "uint32",
					"name": "",
					"type": "uint32"
				}
			],
			"stateMutability": "view",
			"type": "function"
		},
		{
			"inputs": [],
			"name": "LOT_SIZE",
			"outputs": [
				{
					"internalType": "uint256",
					"name": "",
					"type": "uint256"
				}
			],
			"stateMutability": "view",
			"type": "function"
		},
		{
			"inputs": [],
			"name": "MAX_APY",
			"outputs": [
				{
					"internalType": "uint32",
					"name": "",
					"type": "uint32"
				}
			],
			"stateMutability": "view",
			"type": "function"
		},
		{
			"inputs": [],
			"name": "MAX_DURATION",
			"outputs": [
				{
					"internalType": "uint32",
					"name": "",
					"type": "uint32"
				}
			],
			"stateMutability": "view",
			"type": "function"
		},
		{
			"inputs": [],
			"name": "MIN_APY",
			"outputs": [
				{
					"internalType": "uint32",
					"name": "",
					"type": "uint32"
				}
			],
			"stateMutability": "view",
			"type": "function"
		},
		{
			"inputs": [],
			"name": "MIN_DURATION",
			"outputs": [
				{
					"internalType": "uint32",
					"name": "",
					"type": "uint32"
				}
			],
			"stateMutability": "view",
			"type": "function"
		},
		{
			"inputs": [],
			"name": "MIN_FILL_DURATION",
			"outputs": [
				{
					"internalType": "uint32",
					"name": "",
					"type": "uint32"
				}
			],
			"stateMutability": "view",
			"type": "function"
		},
		{
			"inputs": [],
			"name": "MIN_LOTS_AMOUNT",
			"outputs": [
				{
					"internalType": "uint32",
					"name": "",
					"type": "uint32"
				}
			],
			"stateMutability": "view",
			"type": "function"
		},
		{
			"inputs": [],
			"name": "PRICE_ORACLE",
			"outputs": [
				{
					"internalType": "contract IPriceData",
					"name": "",
					"type": "address"
				}
			],
			"stateMutability": "view",
			"type": "function"
		},
		{
			"inputs": [],
			"name": "PROTOCOL_FEE",
			"outputs": [
				{
					"internalType": "uint32",
					"name": "",
					"type": "uint32"
				}
			],
			"stateMutability": "view",
			"type": "function"
		},
		{
			"inputs": [],
			"name": "RATIOS_DECIMALS",
			"outputs": [
				{
					"internalType": "uint8",
					"name": "",
					"type": "uint8"
				}
			],
			"stateMutability": "view",
			"type": "function"
		},
		{
			"inputs": [],
			"name": "TARGET_RELATIVE_VALUE",
			"outputs": [
				{
					"internalType": "uint32",
					"name": "",
					"type": "uint32"
				}
			],
			"stateMutability": "view",
			"type": "function"
		},
		{
			"inputs": [],
			"name": "USDC",
			"outputs": [
				{
					"internalType": "contract IERC20",
					"name": "",
					"type": "address"
				}
			],
			"stateMutability": "view",
			"type": "function"
		},
		{
			"inputs": [
				{
					"internalType": "uint256",
					"name": "loan_id",
					"type": "uint256"
				},
				{
					"internalType": "uint256",
					"name": "amount",
					"type": "uint256"
				}
			],
			"name": "USDCValueOf",
			"outputs": [
				{
					"internalType": "uint256",
					"name": "",
					"type": "uint256"
				}
			],
			"stateMutability": "view",
			"type": "function"
		},
		{
			"inputs": [],
			"name": "WITHDRAW_COOLDOWN",
			"outputs": [
				{
					"internalType": "uint96",
					"name": "",
					"type": "uint96"
				}
			],
			"stateMutability": "view",
			"type": "function"
		},
		{
			"inputs": [
				{
					"internalType": "address",
					"name": "account",
					"type": "address"
				},
				{
					"internalType": "uint256",
					"name": "id",
					"type": "uint256"
				}
			],
			"name": "balanceOf",
			"outputs": [
				{
					"internalType": "uint256",
					"name": "",
					"type": "uint256"
				}
			],
			"stateMutability": "view",
			"type": "function"
		},
		{
			"inputs": [
				{
					"internalType": "address[]",
					"name": "accounts",
					"type": "address[]"
				},
				{
					"internalType": "uint256[]",
					"name": "ids",
					"type": "uint256[]"
				}
			],
			"name": "balanceOfBatch",
			"outputs": [
				{
					"internalType": "uint256[]",
					"name": "",
					"type": "uint256[]"
				}
			],
			"stateMutability": "view",
			"type": "function"
		},
		{
			"inputs": [
				{
					"internalType": "uint256",
					"name": "loan_id",
					"type": "uint256"
				},
				{
					"internalType": "uint256",
					"name": "min_lots",
					"type": "uint256"
				},
				{
					"internalType": "uint256",
					"name": "max_lots",
					"type": "uint256"
				},
				{
					"internalType": "bool",
					"name": "transfer_collateral",
					"type": "bool"
				},
				{
					"internalType": "uint256",
					"name": "max_collateral_out",
					"type": "uint256"
				},
				{
					"internalType": "bytes",
					"name": "offchain_price_data",
					"type": "bytes"
				}
			],
			"name": "borrow",
			"outputs": [
				{
					"internalType": "uint256",
					"name": "",
					"type": "uint256"
				}
			],
			"stateMutability": "nonpayable",
			"type": "function"
		},
		{
			"inputs": [
				{
					"internalType": "uint256",
					"name": "loan_id",
					"type": "uint256"
				},
				{
					"internalType": "bytes",
					"name": "offchain_price_data",
					"type": "bytes"
				}
			],
			"name": "claimCollateral",
			"outputs": [],
			"stateMutability": "nonpayable",
			"type": "function"
		},
		{
			"inputs": [
				{
					"internalType": "uint256",
					"name": "loan_id",
					"type": "uint256"
				}
			],
			"name": "claimUSDC",
			"outputs": [],
			"stateMutability": "nonpayable",
			"type": "function"
		},
		{
			"inputs": [
				{
					"internalType": "uint256",
					"name": "lots",
					"type": "uint256"
				},
				{
					"internalType": "uint256",
					"name": "max_collateral_out",
					"type": "uint256"
				},
				{
					"internalType": "uint32",
					"name": "collateral_value",
					"type": "uint32"
				},
				{
					"internalType": "uint32",
					"name": "duration_days",
					"type": "uint32"
				},
				{
					"internalType": "uint32",
					"name": "apy",
					"type": "uint32"
				},
				{
					"internalType": "uint32",
					"name": "fill_duration_days",
					"type": "uint32"
				},
				{
					"internalType": "bytes",
					"name": "offchain_price_data",
					"type": "bytes"
				}
			],
			"name": "createAsBorrower",
			"outputs": [
				{
					"internalType": "uint256",
					"name": "",
					"type": "uint256"
				}
			],
			"stateMutability": "nonpayable",
			"type": "function"
		},
		{
			"inputs": [
				{
					"internalType": "uint256",
					"name": "lots",
					"type": "uint256"
				},
				{
					"internalType": "uint32",
					"name": "collateral_value",
					"type": "uint32"
				},
				{
					"internalType": "uint32",
					"name": "duration_days",
					"type": "uint32"
				},
				{
					"internalType": "uint32",
					"name": "apy",
					"type": "uint32"
				}
			],
			"name": "createAsLender",
			"outputs": [
				{
					"internalType": "uint256",
					"name": "",
					"type": "uint256"
				}
			],
			"stateMutability": "nonpayable",
			"type": "function"
		},
		{
			"inputs": [
				{
					"internalType": "uint256",
					"name": "id",
					"type": "uint256"
				}
			],
			"name": "exists",
			"outputs": [
				{
					"internalType": "bool",
					"name": "",
					"type": "bool"
				}
			],
			"stateMutability": "view",
			"type": "function"
		},
		{
			"inputs": [
				{
					"internalType": "uint256",
					"name": "loan_id",
					"type": "uint256"
				}
			],
			"name": "getDebt",
			"outputs": [
				{
					"internalType": "uint256",
					"name": "",
					"type": "uint256"
				}
			],
			"stateMutability": "view",
			"type": "function"
		},
		{
			"inputs": [
				{
					"internalType": "uint256",
					"name": "loan_id",
					"type": "uint256"
				}
			],
			"name": "getLoanInfo",
			"outputs": [
				{
					"components": [
						{
							"internalType": "uint256",
							"name": "lots_required",
							"type": "uint256"
						},
						{
							"internalType": "uint256",
							"name": "lot_size",
							"type": "uint256"
						},
						{
							"internalType": "contract IPriceData",
							"name": "price_oracle",
							"type": "address"
						},
						{
							"internalType": "uint96",
							"name": "duration",
							"type": "uint96"
						},
						{
							"internalType": "uint32",
							"name": "apy",
							"type": "uint32"
						},
						{
							"internalType": "uint32",
							"name": "target_relative_value",
							"type": "uint32"
						},
						{
							"internalType": "uint32",
							"name": "liquidation_relative_value",
							"type": "uint32"
						},
						{
							"internalType": "uint96",
							"name": "fill_deadline",
							"type": "uint96"
						}
					],
					"internalType": "struct IP2PLending.LoanConditions",
					"name": "",
					"type": "tuple"
				},
				{
					"components": [
						{
							"internalType": "address",
							"name": "borrower",
							"type": "address"
						},
						{
							"internalType": "uint96",
							"name": "deadline",
							"type": "uint96"
						},
						{
							"internalType": "uint256",
							"name": "collateral_balance",
							"type": "uint256"
						},
						{
							"internalType": "uint256",
							"name": "USDC_balance",
							"type": "uint256"
						},
						{
							"internalType": "uint96",
							"name": "claim_deadline",
							"type": "uint96"
						}
					],
					"internalType": "struct IP2PLending.LoanState",
					"name": "",
					"type": "tuple"
				},
				{
					"internalType": "uint256",
					"name": "",
					"type": "uint256"
				}
			],
			"stateMutability": "view",
			"type": "function"
		},
		{
			"inputs": [
				{
					"internalType": "uint256",
					"name": "loan_id",
					"type": "uint256"
				}
			],
			"name": "getLoanStatus",
			"outputs": [
				{
					"internalType": "enum IP2PLending.LoanStatus",
					"name": "",
					"type": "uint8"
				}
			],
			"stateMutability": "view",
			"type": "function"
		},
		{
			"inputs": [
				{
					"internalType": "uint256",
					"name": "loan_id",
					"type": "uint256"
				},
				{
					"internalType": "bytes",
					"name": "offchain_price_data",
					"type": "bytes"
				}
			],
			"name": "getRelativeCollateralValue",
			"outputs": [
				{
					"internalType": "uint256",
					"name": "",
					"type": "uint256"
				}
			],
			"stateMutability": "view",
			"type": "function"
		},
		{
			"inputs": [
				{
					"internalType": "address",
					"name": "account",
					"type": "address"
				},
				{
					"internalType": "address",
					"name": "operator",
					"type": "address"
				}
			],
			"name": "isApprovedForAll",
			"outputs": [
				{
					"internalType": "bool",
					"name": "",
					"type": "bool"
				}
			],
			"stateMutability": "view",
			"type": "function"
		},
		{
			"inputs": [
				{
					"internalType": "uint256",
					"name": "loan_id",
					"type": "uint256"
				},
				{
					"internalType": "bytes",
					"name": "offchain_price_data",
					"type": "bytes"
				}
			],
			"name": "isCollateralClaimable",
			"outputs": [
				{
					"internalType": "bool",
					"name": "",
					"type": "bool"
				}
			],
			"stateMutability": "view",
			"type": "function"
		},
		{
			"inputs": [
				{
					"internalType": "uint256",
					"name": "loan_id",
					"type": "uint256"
				},
				{
					"internalType": "uint256",
					"name": "target_lots",
					"type": "uint256"
				},
				{
					"internalType": "uint256",
					"name": "min_lots",
					"type": "uint256"
				}
			],
			"name": "lend",
			"outputs": [
				{
					"internalType": "uint256",
					"name": "",
					"type": "uint256"
				}
			],
			"stateMutability": "nonpayable",
			"type": "function"
		},
		{
			"inputs": [],
			"name": "owner",
			"outputs": [
				{
					"internalType": "address",
					"name": "",
					"type": "address"
				}
			],
			"stateMutability": "view",
			"type": "function"
		},
		{
			"inputs": [],
			"name": "renounceOwnership",
			"outputs": [],
			"stateMutability": "nonpayable",
			"type": "function"
		},
		{
			"inputs": [
				{
					"internalType": "uint256",
					"name": "loan_id",
					"type": "uint256"
				}
			],
			"name": "repay",
			"outputs": [],
			"stateMutability": "nonpayable",
			"type": "function"
		},
		{
			"inputs": [
				{
					"internalType": "address",
					"name": "from",
					"type": "address"
				},
				{
					"internalType": "address",
					"name": "to",
					"type": "address"
				},
				{
					"internalType": "uint256[]",
					"name": "ids",
					"type": "uint256[]"
				},
				{
					"internalType": "uint256[]",
					"name": "values",
					"type": "uint256[]"
				},
				{
					"internalType": "bytes",
					"name": "data",
					"type": "bytes"
				}
			],
			"name": "safeBatchTransferFrom",
			"outputs": [],
			"stateMutability": "nonpayable",
			"type": "function"
		},
		{
			"inputs": [
				{
					"internalType": "address",
					"name": "from",
					"type": "address"
				},
				{
					"internalType": "address",
					"name": "to",
					"type": "address"
				},
				{
					"internalType": "uint256",
					"name": "id",
					"type": "uint256"
				},
				{
					"internalType": "uint256",
					"name": "value",
					"type": "uint256"
				},
				{
					"internalType": "bytes",
					"name": "data",
					"type": "bytes"
				}
			],
			"name": "safeTransferFrom",
			"outputs": [],
			"stateMutability": "nonpayable",
			"type": "function"
		},
		{
			"inputs": [
				{
					"internalType": "address",
					"name": "operator",
					"type": "address"
				},
				{
					"internalType": "bool",
					"name": "approved",
					"type": "bool"
				}
			],
			"name": "setApprovalForAll",
			"outputs": [],
			"stateMutability": "nonpayable",
			"type": "function"
		},
		{
			"inputs": [
				{
					"internalType": "address",
					"name": "_FEES_COLLECTOR",
					"type": "address"
				}
			],
			"name": "setFeesCollector",
			"outputs": [],
			"stateMutability": "nonpayable",
			"type": "function"
		},
		{
			"inputs": [
				{
					"internalType": "uint32",
					"name": "_LIQUIDATION_RELATIVE_VALUE",
					"type": "uint32"
				}
			],
			"name": "setLiquidationRelativeValue",
			"outputs": [],
			"stateMutability": "nonpayable",
			"type": "function"
		},
		{
			"inputs": [
				{
					"internalType": "uint256",
					"name": "_LOT_SIZE",
					"type": "uint256"
				}
			],
			"name": "setLotSize",
			"outputs": [],
			"stateMutability": "nonpayable",
			"type": "function"
		},
		{
			"inputs": [
				{
					"internalType": "uint32",
					"name": "_MAX_APY",
					"type": "uint32"
				}
			],
			"name": "setMaxAPY",
			"outputs": [],
			"stateMutability": "nonpayable",
			"type": "function"
		},
		{
			"inputs": [
				{
					"internalType": "uint32",
					"name": "_MAX_DURATION",
					"type": "uint32"
				}
			],
			"name": "setMaxDuration",
			"outputs": [],
			"stateMutability": "nonpayable",
			"type": "function"
		},
		{
			"inputs": [
				{
					"internalType": "uint32",
					"name": "_MIN_APY",
					"type": "uint32"
				}
			],
			"name": "setMinAPY",
			"outputs": [],
			"stateMutability": "nonpayable",
			"type": "function"
		},
		{
			"inputs": [
				{
					"internalType": "uint32",
					"name": "_MIN_DURATION",
					"type": "uint32"
				}
			],
			"name": "setMinDuration",
			"outputs": [],
			"stateMutability": "nonpayable",
			"type": "function"
		},
		{
			"inputs": [
				{
					"internalType": "uint32",
					"name": "_MIN_FILL_DURATION",
					"type": "uint32"
				}
			],
			"name": "setMinFillDuration",
			"outputs": [],
			"stateMutability": "nonpayable",
			"type": "function"
		},
		{
			"inputs": [
				{
					"internalType": "uint32",
					"name": "_MIN_LOTS_AMOUNT",
					"type": "uint32"
				}
			],
			"name": "setMinLotsAmount",
			"outputs": [],
			"stateMutability": "nonpayable",
			"type": "function"
		},
		{
			"inputs": [
				{
					"internalType": "address",
					"name": "_PRICE_ORACLE",
					"type": "address"
				}
			],
			"name": "setPriceOracle",
			"outputs": [],
			"stateMutability": "nonpayable",
			"type": "function"
		},
		{
			"inputs": [
				{
					"internalType": "uint32",
					"name": "_PROTOCOL_FEE",
					"type": "uint32"
				}
			],
			"name": "setProtocolFee",
			"outputs": [],
			"stateMutability": "nonpayable",
			"type": "function"
		},
		{
			"inputs": [
				{
					"internalType": "uint32",
					"name": "_TARGET_RELATIVE_VALUE",
					"type": "uint32"
				}
			],
			"name": "setTargetRelativeValue",
			"outputs": [],
			"stateMutability": "nonpayable",
			"type": "function"
		},
		{
			"inputs": [
				{
					"internalType": "bytes4",
					"name": "interfaceId",
					"type": "bytes4"
				}
			],
			"name": "supportsInterface",
			"outputs": [
				{
					"internalType": "bool",
					"name": "",
					"type": "bool"
				}
			],
			"stateMutability": "view",
			"type": "function"
		},
		{
			"inputs": [],
			"name": "totalSupply",
			"outputs": [
				{
					"internalType": "uint256",
					"name": "",
					"type": "uint256"
				}
			],
			"stateMutability": "view",
			"type": "function"
		},
		{
			"inputs": [
				{
					"internalType": "uint256",
					"name": "id",
					"type": "uint256"
				}
			],
			"name": "totalSupply",
			"outputs": [
				{
					"internalType": "uint256",
					"name": "",
					"type": "uint256"
				}
			],
			"stateMutability": "view",
			"type": "function"
		},
		{
			"inputs": [
				{
					"internalType": "address",
					"name": "newOwner",
					"type": "address"
				}
			],
			"name": "transferOwnership",
			"outputs": [],
			"stateMutability": "nonpayable",
			"type": "function"
		},
		{
			"inputs": [
				{
					"internalType": "uint256",
					"name": "",
					"type": "uint256"
				}
			],
			"name": "uri",
			"outputs": [
				{
					"internalType": "string",
					"name": "",
					"type": "string"
				}
			],
			"stateMutability": "view",
			"type": "function"
		},
		{
			"inputs": [
				{
					"internalType": "uint256",
					"name": "loan_id",
					"type": "uint256"
				}
			],
			"name": "withdrawCollateral",
			"outputs": [],
			"stateMutability": "nonpayable",
			"type": "function"
		},
		{
			"inputs": [
				{
					"internalType": "uint256",
					"name": "loan_id",
					"type": "uint256"
				},
				{
					"internalType": "uint256",
					"name": "lots",
					"type": "uint256"
				}
			],
			"name": "withdrawUSDC",
			"outputs": [],
			"stateMutability": "nonpayable",
			"type": "function"
		}
	]
}