{
	"data": {
		"bytecode": {
			"linkReferences": {},
			"object": "60e06040526007805460ff19169055600a60088190557d2cec000032c8000186a000000064000000010000016d000000070000000a600955805463ffffffff191660961790556001600e55348015610055575f5ffd5b50604051615d6d380380615d6d83398101604081905261007491610287565b80338061009a57604051631e4fbdf760e01b81525f600482015260240160405180910390fd5b6100a3816101f9565b506100ad81610248565b506001600655600b80546001600160a01b0319166001600160a01b0387811691909117909155841660808190526040805163313ce56760e01b8152905163313ce567916004808201926020929091908290030181865afa158015610113573d5f5f3e3d5ffd5b505050506040513d601f19601f820116820180604052508101906101379190610379565b60ff1660a0526001600160a01b03831660c08190526040805163313ce56760e01b8152905163313ce567916004808201926020929091908290030181865afa158015610185573d5f5f3e3d5ffd5b505050506040513d601f19601f820116820180604052508101906101a99190610379565b6101b490600a610499565b6008546101c191906104a7565b60085550600a80546001600160a01b0390921664010000000002600160201b600160c01b0319909216919091179055506105fc915050565b5f80546001600160a01b038381166001600160a01b0319831681178455604051919092169283917f8be0079c531659141344cd1fd0a4f28419497f9722a3daafe3b4186f6b6457e09190a35050565b60036102548282610542565b5050565b80516001600160a01b038116811461026e575f5ffd5b919050565b634e487b7160e01b5f52604160045260245ffd5b5f5f5f5f5f60a0868803121561029b575f5ffd5b6102a486610258565b94506102b260208701610258565b93506102c060408701610258565b92506102ce60608701610258565b60808701519092506001600160401b038111156102e9575f5ffd5b8601601f810188136102f9575f5ffd5b80516001600160401b0381111561031257610312610273565b604051601f8201601f19908116603f011681016001600160401b038111828210171561034057610340610273565b6040528181528282016020018a1015610357575f5ffd5b8160208401602083015e5f602083830101528093505050509295509295909350565b5f60208284031215610389575f5ffd5b815160ff81168114610399575f5ffd5b9392505050565b634e487b7160e01b5f52601160045260245ffd5b6001815b60018411156103ef578085048111156103d3576103d36103a0565b60018416156103e157908102905b60019390931c9280026103b8565b935093915050565b5f8261040557506001610493565b8161041157505f610493565b816001811461042757600281146104315761044d565b6001915050610493565b60ff841115610442576104426103a0565b50506001821b610493565b5060208310610133831016604e8410600b8410161715610470575081810a610493565b61047c5f1984846103b4565b805f190482111561048f5761048f6103a0565b0290505b92915050565b5f61039960ff8416836103f7565b8082028115828204841417610493576104936103a0565b600181811c908216806104d257607f821691505b6020821081036104f057634e487b7160e01b5f52602260045260245ffd5b50919050565b601f82111561053d57805f5260205f20601f840160051c8101602085101561051b5750805b601f840160051c820191505b8181101561053a575f8155600101610527565b50505b505050565b81516001600160401b0381111561055b5761055b610273565b61056f8161056984546104be565b846104f6565b6020601f8211600181146105a1575f831561058a5750848201515b5f19600385901b1c1916600184901b17845561053a565b5f84815260208120601f198516915b828110156105d057878501518255602094850194600190920191016105b0565b50848210156105ed57868401515f19600387901b60f8161c191681555b50505050600190811b01905550565b60805160a05160c0516156b46106b95f395f81816106e601528181610fca015281816115e50152818161263401528181612ebd01526134f101525f818161185a0152818161379901528181613bbc015261433a01525f81816104ef0152818161163c01528181611835015281816121090152818161232a0152818161239c015281816123f7015281816128fc015281816133560152818161342b0152818161377401528181613b9701528181613d44015261431801526156b45ff3fe608060405234801561000f575f5ffd5b506004361061039d575f3560e01c80636e5f4a89116101ea578063a8a71e0911610114578063c9dd1f3c116100a9578063ef92182611610079578063ef921826146108c4578063f08a5381146108d7578063f242432a146108ea578063f2fde38b146108fd575f5ffd5b8063c9dd1f3c1461084c578063e444f5451461085f578063e51d375a14610872578063e985e9c514610889575f5ffd5b8063b6a6d177116100e4578063b6a6d177146107e7578063bd85b039146107ff578063c5b3a3761461081e578063c5f1616614610831575f5ffd5b8063a8a71e0914610796578063aa9f7628146107ad578063acbb65af146107c0578063b1724b46146107d0575f5ffd5b80638c8dc6591161018a578063a0420e7f1161015a578063a0420e7f14610746578063a22cb4651461075d578063a45234d014610770578063a877e9ce14610783575f5ffd5b80638c8dc659146107085780638da5cb5b1461071b578063950d91e91461072b5780639d10087514610733575f5ffd5b806375f12b21116101c557806375f12b21146106b85780637fee67a2146106c557806388e08665146106ce57806389a30271146106e1575f5ffd5b80636e5f4a891461068a578063715018a61461069d5780637175030d146106a5575f5ffd5b80633273b110116102cb57806349d4a7c41161026b578063530e784f1161023b578063530e784f1461063a57806354f0cb0d1461064d5780636112fe2e14610660578063670d5b6314610673575f5ffd5b806349d4a7c4146105d35780634e1273f4146105e65780634f558e791461060657806351f740d514610627575f5ffd5b8063371fd8e6116102a6578063371fd8e614610583578063373071f2146105965780633d92f4e2146105a957806348782996146105c0575f5ffd5b80633273b1101461054a57806334591a3e1461055d57806335557e5c14610570575f5ffd5b80630e89341c1161034157806324bbab8b1161031157806324bbab8b146104ea5780632bed89e5146105115780632d4cdfc3146105245780632eb2c2d614610537575f5ffd5b80630e89341c1461048057806318160ddd146104a05780631c4fd41c146104a857806321241dfe146104c8575f5ffd5b80630714012c1161037c5780630714012c1461040457806307da68f5146104265780630a19399a146104305780630b4501fd1461045b575f5ffd5b8062fdd58e146103a157806301ffc9a7146103c757806303cc1194146103ea575b5f5ffd5b6103b46103af366004614add565b610910565b6040519081526020015b60405180910390f35b6103da6103d5366004614b1a565b610939565b60405190151581526020016103be565b6103f2600481565b60405160ff90911681526020016103be565b610417610412366004614b35565b6109d3565b6040516103be93929190614b4c565b61042e610b8e565b005b600b54610443906001600160a01b031681565b6040516001600160a01b0390911681526020016103be565b600a5461046b9063ffffffff1681565b60405163ffffffff90911681526020016103be565b61049361048e366004614b35565b610bdc565b6040516103be9190614c67565b6005546103b4565b6104bb6104b6366004614b35565b610c6e565b6040516103be9190614c8d565b6104d26202a30081565b6040516001600160601b0390911681526020016103be565b6104437f000000000000000000000000000000000000000000000000000000000000000081565b6103b461051f366004614cb3565b610d96565b6103b4610532366004614cdc565b6111b8565b61042e610545366004614e3a565b61127e565b61042e610558366004614efc565b611303565b61042e61056b366004614b35565b61139a565b61042e61057e366004614efc565b6113e2565b61042e610591366004614b35565b61148f565b61042e6105a4366004614f15565b6116ba565b60095461046b90600160a01b900463ffffffff1681565b6103b46105ce366004614f73565b611735565b61042e6105e1366004614efc565b6118ee565b6105f96105f4366004614fbb565b611984565b6040516103be91906150b8565b6103da610614366004614b35565b5f90815260046020526040902054151590565b6103b46106353660046150ca565b611a4f565b61042e610648366004614f15565b611f5d565b61042e61065b366004614cdc565b611fc0565b61042e61066e366004614b35565b612199565b60095461046b90600160e01b900463ffffffff1681565b61042e610698366004614b35565b612492565b61042e6126b7565b6103b46106b3366004615114565b6126ca565b6007546103da9060ff1681565b6103b460085481565b61042e6106dc366004614cdc565b612c2f565b6104437f000000000000000000000000000000000000000000000000000000000000000081565b6103b46107163660046151a7565b612f27565b5f546001600160a01b0316610443565b6104d2601e81565b61042e610741366004614efc565b61358f565b60095461046b90600160c01b900463ffffffff1681565b61042e61076b366004615205565b613625565b61042e61077e366004614efc565b613630565b6103da610791366004614f73565b6136c5565b60095461046b90600160601b900463ffffffff1681565b61042e6107bb366004614efc565b61383c565b60095461046b9063ffffffff1681565b60095461046b90600160401b900463ffffffff1681565b60095461046b90640100000000900463ffffffff1681565b6103b461080d366004614b35565b5f9081526004602052604090205490565b61042e61082c366004614efc565b61388c565b600a546104439064010000000090046001600160a01b031681565b6103b461085a366004614b35565b6138f4565b61042e61086d366004614f73565b613a5d565b60095461046b90600160801b900463ffffffff1681565b6103da61089736600461523e565b6001600160a01b039182165f90815260026020908152604080832093909416825291909152205460ff1690565b61042e6108d2366004614efc565b613dcd565b61042e6108e5366004614efc565b613e51565b61042e6108f836600461526f565b613eb2565b61042e61090b366004614f15565b613f2f565b5f8181526001602090815260408083206001600160a01b03861684529091529020545b92915050565b5f6001600160e01b031982167fd9b67a2600000000000000000000000000000000000000000000000000000000148061099b57506001600160e01b031982167f0e89341c00000000000000000000000000000000000000000000000000000000145b8061093357507f01ffc9a7000000000000000000000000000000000000000000000000000000006001600160e01b0319831614610933565b60408051610100810182525f80825260208201819052918101829052606081018290526080810182905260a0810182905260c0810182905260e08101919091526040805160a0810182525f808252602082018190529181018290526060810182905260808101919091525f835f81118015610a4f5750600e5481105b610a935760405162461bcd60e51b815260206004820152601060248201526f496e76616c6964204c6f616e2049442160801b60448201526064015b60405180910390fd5b5050505f91825250600c60209081526040808320600d835281842060048452938290205482516101008101845282548152600180840154828701526002808501546001600160a01b03808216858901526001600160601b03600160a01b92839004811660608088019190915260039889015463ffffffff8082166080808b01919091526401000000008304821660a0808c0191909152600160401b840490921660c08b0152600160601b909204841660e08a01528b519081018c528d5494851681529490930482169a84019a909a52938a01549782019790975290880154968101969096529290950154909116918301919091529192909190565b610b96613f82565b60075460ff1615610ba5575f5ffd5b6007805460ff191660011790556040517f7acc84e34091ae817647a4c49116f5cc07f319078ba80f8f5fde37ea7e25cbd6905f90a1565b606060038054610beb906152c3565b80601f0160208091040260200160405190810160405280929190818152602001828054610c17906152c3565b8015610c625780601f10610c3957610100808354040283529160200191610c62565b820191905f5260205f20905b815481529060010190602001808311610c4557829003601f168201915b50505050509050919050565b5f818152600c60209081526040808320600d909252822081548303610c9657505f9392505050565b80546001600160a01b0316158015610cb957505f84815260046020526040902054155b80610cda575080546001600160a01b031615801590610cda57506001810154155b15610ce9575060059392505050565b8054600160a01b90046001600160601b03165f03610d655760038101546001600160601b031615801590610d2c575060038101546001600160601b034281169116105b15610d3b575060039392505050565b5f8481526004602052604090205482541115610d5b575060019392505050565b5060029392505050565b600181015415610d8c575f8481526004602052604090205415610d8c575060049392505050565b5060059392505050565b5f610d9f613fc7565b835f81118015610db05750600e5481105b610def5760405162461bcd60e51b815260206004820152601060248201526f496e76616c6964204c6f616e2049442160801b6044820152606401610a8a565b5f84118015610dfe5750828410155b610e705760405162461bcd60e51b815260206004820152603260248201527f5032504c656e64696e6720726571756972653a7461726765745f6c6f74733e3060448201527f202626206c6f74733e3d6d696e5f6c6f747300000000000000000000000000006064820152608401610a8a565b6001610e7b86610c6e565b6005811115610e8c57610e8c614c79565b14610eff5760405162461bcd60e51b815260206004820152602b60248201527f5032504c656e64696e673a4c6f616e537461747573206e6f7420657175616c7360448201527f2046494e414e43494e47210000000000000000000000000000000000000000006064820152608401610a8a565b5f858152600c6020908152604080832060049092528220549091908254610f26919061530f565b905084811015610f9e5760405162461bcd60e51b815260206004820152602560248201527f5032504c656e64696e673a4e6f7420656e6f75676820617661696c61626c652060448201527f6c6f7473210000000000000000000000000000000000000000000000000000006064820152608401610a8a565b5f610fa9878361400a565b9050610ff23330838660010154610fc09190615322565b6001600160a01b037f000000000000000000000000000000000000000000000000000000000000000016929190614019565b61100c33898360405180602001604052805f81525061409b565b82545f8981526004602052604090205411156110905760405162461bcd60e51b815260206004820152602860248201527f5032504c656e64696e6720726571756972653a737570706c793c3d6c6f74735f60448201527f72657175697265640000000000000000000000000000000000000000000000006064820152608401610a8a565b82545f8981526004602052604090205442919003611122576110b56202a30082615339565b5f8a8152600d602090815260409182902060030180546bffffffffffffffffffffffff19166001600160601b0394909416938417905590519182528a917f6fce911d7163d1242cd9f1727a93eb2d9232bb808db0881b448196dcd2fe412d910160405180910390a261116a565b61112d601e82615339565b335f908152600f602090815260408083208d8452909152902080546bffffffffffffffffffffffff19166001600160601b03929092169190911790555b60405182815233908a907fbc00f64d7f7fdd45626f23c5b8bfa1c1b8e64faf4200efb7da5a7439a326f9559060200160405180910390a35093505050506111b16001600655565b9392505050565b5f825f811180156111ca5750600e5481105b6112095760405162461bcd60e51b815260206004820152601060248201526f496e76616c6964204c6f616e2049442160801b6044820152606401610a8a565b5f848152600460205260409020548015611272575f858152600d602052604081206002015415611249575f868152600d6020526040902060020154611252565b611252866138f4565b90508161125f8287615322565b6112699190615358565b93505050611277565b5f9250505b5092915050565b336001600160a01b03861681148015906112bd57506001600160a01b038087165f9081526002602090815260408083209385168352929052205460ff16155b156112ee5760405163711bec9160e11b81526001600160a01b03808316600483015287166024820152604401610a8a565b6112fb86868686866140f6565b505050505050565b61130b613f82565b5f8163ffffffff161161131c575f5ffd5b60095463ffffffff808316600160401b90920416101561133a575f5ffd5b6009805467ffffffff00000000191664010000000063ffffffff8481168202929092179283905560405192041681527f85595cb7b81d221172988f4bf171b00745e5c6f4e17760cc33dd2f02dcb57ae4906020015b60405180910390a150565b6113a2613f82565b5f81116113ad575f5ffd5b60088190556040518181527fde6a3638493f2725f743c7c5c9801d3143c92f2adf4825f0434dd9513b2943c79060200161138f565b6113ea613f82565b6113f66004600a61545a565b8163ffffffff1611611406575f5ffd5b60095463ffffffff808316600160c01b909204161015611424575f5ffd5b600980547bffffffffffffffffffffffffffffffffffffffffffffffffffffffff16600160e01b63ffffffff8481168202929092179283905560405192041681527f89c571e0d88872f4418634e394070dbe24a78682b16a616b1f8e02a2939d421e9060200161138f565b611497613fc7565b805f811180156114a85750600e5481105b6114e75760405162461bcd60e51b815260206004820152601060248201526f496e76616c6964204c6f616e2049442160801b6044820152606401610a8a565b60046114f283610c6e565b600581111561150357611503614c79565b146115625760405162461bcd60e51b815260206004820152602960248201527f5032504c656e64696e673a4c6f616e537461747573206d75737420657175616c60448201526873204143544956452160b81b6064820152608401610a8a565b5f828152600d6020526040902080546001600160a01b031633146115c85760405162461bcd60e51b815260206004820152601f60248201527f5032504c656e64696e673a43616c6c6572206973206e6f74206f776e657221006044820152606401610a8a565b5f6115d2846138f4565b825490915061160f906001600160a01b037f0000000000000000000000000000000000000000000000000000000000000000811691163084614019565b80826002015f8282546116229190615468565b909155505081546001830154611666916001600160a01b037f000000000000000000000000000000000000000000000000000000000000000081169291169061415b565b5f600183015560405181815284907f552544cb36551120f07c66c5cd4b2987725a0c72198587f2ce796099bb66c58c9060200160405180910390a26116aa8461418c565b5050506116b76001600655565b50565b6116c2613f82565b600a80547fffffffffffffffff0000000000000000000000000000000000000000ffffffff166401000000006001600160a01b038481168202929092179283905560405192041681527f15a6d8dbe28500fe360d4a194d18559ae45775c191765d262c598c2fcb59d9679060200161138f565b5f835f811180156117475750600e5481105b6117865760405162461bcd60e51b815260206004820152601060248201526f496e76616c6964204c6f616e2049442160801b6044820152606401610a8a565b600461179186610c6e565b60058111156117a2576117a2614c79565b146118015760405162461bcd60e51b815260206004820152602960248201527f5032504c656e64696e673a4c6f616e537461747573206d75737420657175616c60448201526873204143544956452160b81b6064820152608401610a8a565b5f858152600c6020908152604080832060020154600d909252909120600101546001600160a01b0390911690634bbf415c907f0000000000000000000000000000000000000000000000000000000000000000906004907f00000000000000000000000000000000000000000000000000000000000000006118828b6138f4565b8a8a6040518863ffffffff1660e01b81526004016118a697969594939291906154a3565b602060405180830381865afa1580156118c1573d5f5f3e3d5ffd5b505050506040513d601f19601f820116820180604052508101906118e591906154f0565b95945050505050565b6118f6613f82565b60095463ffffffff600160801b90910481169082161015611915575f5ffd5b600980547fffffffffffffffff00000000ffffffffffffffffffffffffffffffffffffffff16600160a01b63ffffffff8481168202929092179283905560405192041681527f7b0ffac54449edefe5c8b153777b5873e7673d02c8ac936f3cb37a9a2b9e00d59060200161138f565b606081518351146119b55781518351604051635b05999160e01b815260048101929092526024820152604401610a8a565b5f835167ffffffffffffffff8111156119d0576119d0614cfc565b6040519080825280602002602001820160405280156119f9578160200160208202803683370190505b5090505f5b8451811015611a4757602080820286010151611a2290602080840287010151610910565b828281518110611a3457611a34615507565b60209081029190910101526001016119fe565b509392505050565b5f611a58613fc7565b60075460ff1615611aab5760405162461bcd60e51b815260206004820152601360248201527f5032504c656e64696e673a53544f5050454421000000000000000000000000006044820152606401610a8a565b60095463ffffffff168510801590611ad6575060095463ffffffff600160c01b909104811690851610155b8015611af6575060095463ffffffff640100000000909104811690841610155b8015611b15575060095463ffffffff600160401b909104811690841611155b8015611b34575060095463ffffffff600160801b909104811690831610155b8015611b53575060095463ffffffff600160a01b909104811690831611155b611b9f5760405162461bcd60e51b815260206004820152601d60248201527f5032504c656e64696e673a496e76616c696420617267756d656e7473210000006044820152606401610a8a565b611bb2333087600854610fc09190615322565b611bce33600e548760405180602001604052805f81525061409b565b60408051610100810182528681526008546020820152600b546001600160a01b03169181019190915260608101611c08856201518061551b565b63ffffffff166001600160601b031681526020018363ffffffff1681526020018563ffffffff1681526020016009601c9054906101000a900463ffffffff1663ffffffff1681526020015f6001600160601b0316815250600c5f600e5481526020019081526020015f205f820151815f0155602082015181600101556040820151816002015f6101000a8154816001600160a01b0302191690836001600160a01b0316021790555060608201518160020160146101000a8154816001600160601b0302191690836001600160601b031602179055506080820151816003015f6101000a81548163ffffffff021916908363ffffffff16021790555060a08201518160030160046101000a81548163ffffffff021916908363ffffffff16021790555060c08201518160030160086101000a81548163ffffffff021916908363ffffffff16021790555060e082015181600301600c6101000a8154816001600160601b0302191690836001600160601b031602179055509050506040518060a001604052805f6001600160a01b031681526020015f6001600160601b031681526020015f81526020015f81526020015f6001600160601b0316815250600d5f600e5481526020019081526020015f205f820151815f015f6101000a8154816001600160a01b0302191690836001600160a01b031602179055506020820151815f0160146101000a8154816001600160601b0302191690836001600160601b0316021790555060408201518160010155606082015181600201556080820151816003015f6101000a8154816001600160601b0302191690836001600160601b03160217905550905050611e763390565b600e545f818152600c60209081526040918290208054600182015460028301546003909301548551928352938201526001600160a01b03808316948201949094526001600160601b03600160a01b9092048216606082015263ffffffff80841660808301526401000000008404811660a0830152600160401b84041660c0820152600160601b9092041660e08201529216917f2f89d5518972ef9f2027aa908ae490b2bd691fbd59e127d7badcdb6bf75551d6906101000160405180910390a3600e8054905f611f458361553a565b919050559050611f556001600655565b949350505050565b611f65613f82565b600b805473ffffffffffffffffffffffffffffffffffffffff19166001600160a01b0383169081179091556040519081527f88a686e0e341d9099f2f990c3aa759a86822142a67579064b43ded9354a256629060200161138f565b611fc8613fc7565b815f81118015611fd95750600e5481105b6120185760405162461bcd60e51b815260206004820152601060248201526f496e76616c6964204c6f616e2049442160801b6044820152606401610a8a565b600461202384610c6e565b600581111561203457612034614c79565b146120935760405162461bcd60e51b815260206004820152602960248201527f5032504c656e64696e673a4c6f616e537461747573206d75737420657175616c60448201526873204143544956452160b81b6064820152608401610a8a565b5f838152600d6020526040902080546001600160a01b031633146120f95760405162461bcd60e51b815260206004820152601f60248201527f5032504c656e64696e673a43616c6c6572206973206e6f74206f776e657221006044820152606401610a8a565b8054612133906001600160a01b037f0000000000000000000000000000000000000000000000000000000000000000811691163086614019565b82816001015f8282546121469190615468565b909155505060405183815284907f8cc7f16cd883f4af720102359f36f5a11402ba74ba5515e43b36eea9eddff23c9060200160405180910390a26121898461418c565b50506121956001600655565b5050565b6121a1613fc7565b805f811180156121b25750600e5481105b6121f15760405162461bcd60e51b815260206004820152601060248201526f496e76616c6964204c6f616e2049442160801b6044820152606401610a8a565b5f828152600d6020526040902080546001600160a01b031633146122575760405162461bcd60e51b815260206004820152601f60248201527f5032504c656e64696e673a43616c6c6572206973206e6f74206f776e657221006044820152606401610a8a565b8054600160a01b90046001600160601b031615801561227957505f8160010154115b6122c55760405162461bcd60e51b815260206004820152601b60248201527f5032504c656e64696e673a43616e6e6f742057697468647261772100000000006044820152606401610a8a565b60016122d084610c6e565b60058111156122e1576122e1614c79565b14801561231057505f838152600c60205260409020600301546001600160601b03428116600160601b90920416105b156123595780546001820154612354916001600160a01b037f000000000000000000000000000000000000000000000000000000000000000081169291169061415b565b612420565b5f6123666004600a61545a565b6001830154600a5461237e919063ffffffff16615322565b6123889190615358565b600a549091506123cd906001600160a01b037f00000000000000000000000000000000000000000000000000000000000000008116916401000000009004168361415b565b8154600183015461241e916001600160a01b0316906123ed90849061530f565b6001600160a01b037f000000000000000000000000000000000000000000000000000000000000000016919061415b565b505b5f6001828101829055848252600c6020908152604080842090920154600490915291205461244e9190615322565b600282015560405183907ffc226bcc04f8f8905af4229a5d361773b6bb568167898414274c713c6179e6cb905f90a26124868361418c565b50506116b76001600655565b61249a613fc7565b805f811180156124ab5750600e5481105b6124ea5760405162461bcd60e51b815260206004820152601060248201526f496e76616c6964204c6f616e2049442160801b6044820152606401610a8a565b60056124f583610c6e565b600581111561250657612506614c79565b146125795760405162461bcd60e51b815260206004820152602b60248201527f5032504c656e64696e673a4c6f616e537461747573206d75737420657175616c60448201527f732046494e4953484544210000000000000000000000000000000000000000006064820152608401610a8a565b5f6125843384610910565b90505f81116125d55760405162461bcd60e51b815260206004820152601c60248201527f5032504c656e64696e673a4e6f7468696e6720746f20636c61696d21000000006044820152606401610a8a565b5f838152600d60209081526040808320600490925282205490919060028301546125ff9085615322565b6126099190615358565b905080826002015f82825461261e919061530f565b9091555061262f9050338685614217565b6126637f00000000000000000000000000000000000000000000000000000000000000006001600160a01b0316338361415b565b6040805184815260208101839052339187917ffcdaabbcac647c42f2fbf34f6c5a49ee8a8cd0b64ef5eb50b25441bdb133ddf2910160405180910390a36126a98561418c565b505050506116b76001600655565b6126bf613f82565b6126c85f61427d565b565b5f6126d3613fc7565b60075460ff16156127265760405162461bcd60e51b815260206004820152601360248201527f5032504c656e64696e673a53544f5050454421000000000000000000000000006044820152606401610a8a565b60095463ffffffff168910801590612751575060095463ffffffff600160c01b909104811690881610155b8015612771575060095463ffffffff640100000000909104811690871610155b8015612790575060095463ffffffff600160401b909104811690871611155b80156127af575060095463ffffffff600160801b909104811690861610155b80156127ce575060095463ffffffff600160a01b909104811690861611155b80156127ed575060095463ffffffff600160601b909104811690851610155b6128395760405162461bcd60e51b815260206004820152601d60248201527f5032504c656e64696e673a496e76616c696420617267756d656e7473210000006044820152606401610a8a565b5f896008546128489190615322565b90505f6128576004600a61545a565b600b546128709084906001600160a01b031688886142d9565b6128809063ffffffff8c16615322565b61288a9190615358565b9050808a1015801561289b57505f81115b6128f75760405162461bcd60e51b815260206004820152602760248201527f5032504c656e64696e673a496e637265617365206d61785f636f6c6c61746572604482015266616c5f6f75742160c81b6064820152608401610a8a565b61292c7f00000000000000000000000000000000000000000000000000000000000000006001600160a01b0316333084614019565b60408051610100810182528c81526008546020820152600b546001600160a01b031691810191909152606081016129668a6201518061551b565b63ffffffff908116825289811660208301528b81166040830152600954600160e01b90041660608201526080016129a0886201518061551b565b6129b09063ffffffff1642615339565b6001600160601b03908116909152600e545f908152600c6020908152604091829020845181559084015160018201558382015160608501518416600160a01b026001600160a01b0390911617600282015560808401516003909101805460a08087015160c088015160e090980151909616600160601b027fffffffffffffffff000000000000000000000000ffffffffffffffffffffffff63ffffffff988916600160401b02167fffffffffffffffff00000000000000000000000000000000ffffffffffffffff9789166401000000000267ffffffffffffffff19909416989095169790971791909117949094169190911793909317909255815190810190915280612aba3390565b6001600160a01b0390811682525f6020808401829052604080850187905260608086018490526080958601849052600e80548552600d8452828520885189860151908816600160a01b6001600160601b0392831681029190911783558a8601516001808501919091558b8601516002808601919091559b8b0151600394850180546bffffffffffffffffffffffff19169185169190911790559354808952600c8852978690208054948101549b81015493015486519485529684019a909a52968116938201939093529690910484169086015263ffffffff808216948601949094526401000000008104841660a0860152600160401b810490931660c0850152600160601b9092041660e0830152907fe0b5c9ec62aade94ca24b2ac9d81b2037be7d64cb9e5730fcc727bb885ee6037906101000160405180910390a2612c02600e5461418c565b600e8054905f612c118361553a565b9190505592505050612c236001600655565b98975050505050505050565b612c37613fc7565b815f81118015612c485750600e5481105b612c875760405162461bcd60e51b815260206004820152601060248201526f496e76616c6964204c6f616e2049442160801b6044820152606401610a8a565b5f8211612cfc5760405162461bcd60e51b815260206004820152602a60248201527f5032504c656e64696e673a6c6f7473206d75737420626520677265617465722060448201527f7468616e207a65726f21000000000000000000000000000000000000000000006064820152608401610a8a565b5f612d0684610c6e565b5f858152600d60205260409020549091506001600160a01b03161580612d3d57506003816005811115612d3b57612d3b614c79565b145b80612d8a57506001816005811115612d5757612d57614c79565b148015612d8a5750335f908152600f602090815260408083208784529091529020546001600160601b0390811642909116115b612dd65760405162461bcd60e51b815260206004820152601b60248201527f5032504c656e64696e673a43616e6e6f742077697468647261772100000000006044820152606401610a8a565b612de1338585614217565b5f848152600d60205260409020546001600160a01b0316612e93575f84815260046020526040902054801580612e1f575060095463ffffffff168110155b612e915760405162461bcd60e51b815260206004820152602860248201527f5032504c656e64696e673a537570706c792062656c6f77204d494e5f4c4f545360448201527f5f414d4f554e54210000000000000000000000000000000000000000000000006064820152608401610a8a565b505b612ee4335f868152600c6020526040902060010154612eb3908690615322565b6001600160a01b037f000000000000000000000000000000000000000000000000000000000000000016919061415b565b604051838152339085907fbf8fb3d353686a0832043307d6f9bb618df238d387c7dbc9d0fa2fc7b7cba7269060200160405180910390a350506121956001600655565b5f612f30613fc7565b885f81118015612f415750600e5481105b612f805760405162461bcd60e51b815260206004820152601060248201526f496e76616c6964204c6f616e2049442160801b6044820152606401610a8a565b5f8a8152600c60209081526040808320600d835281842060049093529220548b15801590612fae57508b8110155b8015612fba57508a8111155b61302c5760405162461bcd60e51b815260206004820152602f60248201527f5032504c656e64696e6720726571756972653a303c6d696e5f6c6f74733c3d7360448201527f7570706c793c3d6d61785f6c6f747300000000000000000000000000000000006064820152608401610a8a565b5f6130368e610c6e565b9050600181600581111561304c5761304c614c79565b14806130695750600281600581111561306757613067614c79565b145b6130b55760405162461bcd60e51b815260206004820152601960248201527f5032504c656e64696e673a43616e6e6f7420626f72726f7721000000000000006044820152606401610a8a565b82546001600160a01b03163314806130d5575082546001600160a01b0316155b6131215760405162461bcd60e51b815260206004820152601f60248201527f5032504c656e64696e673a43616c6c6572206973206e6f74206f776e657221006044820152606401610a8a565b818455825473ffffffffffffffffffffffffffffffffffffffff1916331783556002840154613161906001600160601b03600160a01b9091041642615339565b83546001600160601b0391909116600160a01b026001600160a01b039091161783555050600182015482545f9161319791615322565b60028401549091505f906131b79083906001600160a01b03168a8a6142d9565b90505f6131c66004600a61545a565b60038601546131e4908490640100000000900463ffffffff16615322565b6131ee9190615358565b905063ffffffff8c1615158061320357505f8b115b1561345e57600385015463ffffffff6401000000009091048116908d1610156132945760405162461bcd60e51b815260206004820152602a60248201527f5032504c656e64696e673a496e637265617365207461726765745f72656c617460448201527f6976655f76616c756521000000000000000000000000000000000000000000006064820152608401610a8a565b6132c5816132a46004600a61545a565b848f63ffffffff166132b69190615322565b6132c09190615358565b614384565b90508360010154811115613386575f8460010154826132e4919061530f565b9050808b10156133465760405162461bcd60e51b815260206004820152602760248201527f5032504c656e64696e673a496e637265617365206d61785f636f6c6c61746572604482015266616c5f6f75742160c81b6064820152608401610a8a565b8454613380906001600160a01b037f0000000000000000000000000000000000000000000000000000000000000000811691163084614019565b50613456565b8360010154811015613456575f8185600101546133a3919061530f565b90508b81101561341b5760405162461bcd60e51b815260206004820152602660248201527f5032504c656e64696e673a4465637265617365206d696e5f636f6c6c6174657260448201527f616c5f696e2100000000000000000000000000000000000000000000000000006064820152608401610a8a565b8454613454906001600160a01b037f0000000000000000000000000000000000000000000000000000000000000000811691168361415b565b505b600184018190555b80846001015410156134b25760405162461bcd60e51b815260206004820152601f60248201527f5032504c656e64696e673a496e63726561736520636f6c6c61746572616c21006044820152606401610a8a565b5f6134bf6004600a61545a565b600a546134d390869063ffffffff16615322565b6134dd9190615358565b600a54909150613522906001600160a01b037f00000000000000000000000000000000000000000000000000000000000000008116916401000000009004168361415b565b845461353b906001600160a01b0316612eb3838761530f565b5084546040519081528f907f044ec4d36b0d76019c4b5aec2a216dbca5ad6c6d671940c8fbbcd23cfe4e804b9060200160405180910390a261357c8f61418c565b505091549350505050612c236001600655565b613597613f82565b60095463ffffffff600160e01b909104811690821610156135b6575f5ffd5b600980547fffffffff00000000ffffffffffffffffffffffffffffffffffffffffffffffff16600160c01b63ffffffff8481168202929092179283905560405192041681527fe03aa8e619c2efc3dcda53a6319b90bd43e44772026248ffaabc2a1535bba8e59060200161138f565b612195338383614393565b613638613f82565b60095463ffffffff808316600160a01b909204161015613656575f5ffd5b600980547fffffffffffffffffffffffff00000000ffffffffffffffffffffffffffffffff16600160801b63ffffffff8481168202929092179283905560405192041681527f2519fd4cf837fefb87387523f27d23369ea51186f29f745cc4677e7c319b3ec09060200161138f565b5f5f841180156136d65750600e5484105b15806136fc575060046136e885610c6e565b60058111156136f9576136f9614c79565b14155b8061382857505f848152600d60205260409020546001600160601b03428116600160a01b90920416108061382657505f848152600c602090815260408083206003810154600290910154600d909352922060010154600160401b90920463ffffffff16916001600160a01b0390911690634bbf415c907f0000000000000000000000000000000000000000000000000000000000000000906004907f00000000000000000000000000000000000000000000000000000000000000006137c18b6138f4565b8a8a6040518863ffffffff1660e01b81526004016137e597969594939291906154a3565b602060405180830381865afa158015613800573d5f5f3e3d5ffd5b505050506040513d601f19601f8201168201806040525081019061382491906154f0565b105b155b1561383457505f6111b1565b5060016111b1565b613844613f82565b600a805463ffffffff191663ffffffff83169081179091556040519081527f7f6f57fed03f08a846d1dd7051e9d858e85408182510ec902f0d9213079102849060200161138f565b613894613f82565b600980546fffffffff0000000000000000000000001916600160601b63ffffffff8481168202929092179283905560405192041681527f62b518624e16dadca83b89e62d9f351d869e67a350d856935f3a3083aa4cf9489060200161138f565b5f818152600d602052604081208054600160a01b90046001600160601b0316158061392157506001810154155b1561392e57505f92915050565b5f838152600c60209081526040808320600181015460049093529083205490929161395891615322565b83549091505f906001600160601b03428116600160a01b909204161161399e57600283015461399990600190600160a01b90046001600160601b0316615552565b6139d1565b600283015484546139c7916001600160601b03600160a01b918290048116929190910416615552565b6139d19042615552565b6001600160601b031690506139e96201518082615358565b6139f4906001615468565b613a019062015180615322565b90506301e13380613a146004600a61545a565b60038501548490613a2b9063ffffffff1685615322565b613a359190615322565b613a3f9190615358565b613a499190615358565b613a539083615468565b9695505050505050565b613a65613fc7565b825f81118015613a765750600e5481105b613ab55760405162461bcd60e51b815260206004820152601060248201526f496e76616c6964204c6f616e2049442160801b6044820152606401610a8a565b6004613ac085610c6e565b6005811115613ad157613ad1614c79565b14613b305760405162461bcd60e51b815260206004820152602960248201527f5032504c656e64696e673a4c6f616e537461747573206d75737420657175616c60448201526873204143544956452160b81b6064820152608401610a8a565b5f848152600c60209081526040808320600d90925290912080546001600160601b03428116600160a01b909204161080613c4a5750600382015460028301546001830154600160401b90920463ffffffff16916001600160a01b039091169063b4e37cf9907f0000000000000000000000000000000000000000000000000000000000000000906004907f0000000000000000000000000000000000000000000000000000000000000000613be48d6138f4565b8c8c6040518863ffffffff1660e01b8152600401613c0897969594939291906154a3565b6020604051808303815f875af1158015613c24573d5f5f3e3d5ffd5b505050506040513d601f19601f82011682018060405250810190613c4891906154f0565b105b613c965760405162461bcd60e51b815260206004820152601c60248201527f5032504c656e64696e673a43616e6e6f74204c697175696461746521000000006044820152606401610a8a565b5f613ca13388610910565b90505f8111613cf25760405162461bcd60e51b815260206004820152601c60248201527f5032504c656e64696e673a4e6f7468696e6720746f20636c61696d21000000006044820152606401610a8a565b5f878152600460205260408120546001840154613d0f9084615322565b613d199190615358565b905080836001015f828254613d2e919061530f565b90915550613d3f9050338984614217565b613d737f00000000000000000000000000000000000000000000000000000000000000006001600160a01b0316338361415b565b604080518381526020810183905233918a917f1d444c28894712984a4fe069711274d086859136f702d387bda2f1cd90d66df8910160405180910390a3613db98861418c565b5050505050613dc86001600655565b505050565b613dd5613f82565b60095463ffffffff64010000000090910481169082161015613df5575f5ffd5b600980546bffffffff00000000000000001916600160401b63ffffffff8481168202929092179283905560405192041681527fa33c859c6a01d7d71b062ae88c11d026efd55b26b354dfc8844e5a74b8bf069b9060200161138f565b613e59613f82565b5f8163ffffffff1611613e6a575f5ffd5b6009805463ffffffff191663ffffffff83169081179091556040519081527f8b8bfa8b607aee8f950b269ee81087cd304216fd813ac4f3aead05d7072a3a139060200161138f565b336001600160a01b0386168114801590613ef157506001600160a01b038087165f9081526002602090815260408083209385168352929052205460ff16155b15613f225760405163711bec9160e11b81526001600160a01b03808316600483015287166024820152604401610a8a565b6112fb8686868686614441565b613f37613f82565b6001600160a01b038116613f79576040517f1e4fbdf70000000000000000000000000000000000000000000000000000000081525f6004820152602401610a8a565b6116b78161427d565b5f546001600160a01b031633146126c8576040517f118cdaa7000000000000000000000000000000000000000000000000000000008152336004820152602401610a8a565b600260065403614003576040517f3ee5aeb500000000000000000000000000000000000000000000000000000000815260040160405180910390fd5b6002600655565b5f8282188284100282186111b1565b6040516001600160a01b0384811660248301528381166044830152606482018390526140959186918216906323b872dd906084015b604051602081830303815290604052915060e01b6020820180517bffffffffffffffffffffffffffffffffffffffffffffffffffffffff83818316178352505050506144cd565b50505050565b6001600160a01b0384166140c457604051632bfa23e760e11b81525f6004820152602401610a8a565b604080516001808252602082018690528183019081526060820185905260808201909252906112fb5f87848487614552565b6001600160a01b03841661411f57604051632bfa23e760e11b81525f6004820152602401610a8a565b6001600160a01b03851661414757604051626a0d4560e21b81525f6004820152602401610a8a565b6141548585858585614552565b5050505050565b6040516001600160a01b03838116602483015260448201839052613dc891859182169063a9059cbb9060640161404e565b5f818152600d602090815260409182902080546001820154600283015460039093015485516001600160601b03600160a01b85048116825295810192909252948101929092529190921660608301526001600160a01b03169082907f289938dfd99639eb7b7174b9259eaa5a4b3a1d69d143b4d03d58b86ac502517d9060800160405180910390a350565b6001600160a01b03831661423f57604051626a0d4560e21b81525f6004820152602401610a8a565b604080516001808252602082018590528183019081526060820184905260a082019092525f6080820181815291929161415491879185908590614552565b5f80546001600160a01b0383811673ffffffffffffffffffffffffffffffffffffffff19831681178455604051919092169283917f8be0079c531659141344cd1fd0a4f28419497f9722a3daafe3b4186f6b6457e09190a35050565b6040517fc5801aa30000000000000000000000000000000000000000000000000000000081525f906001600160a01b0385169063c5801aa390614368907f0000000000000000000000000000000000000000000000000000000000000000907f0000000000000000000000000000000000000000000000000000000000000000908a9089908990600401615571565b6020604051808303815f875af11580156118c1573d5f5f3e3d5ffd5b5f8282188284110282186111b1565b6001600160a01b0382166143d5576040517fced3e1000000000000000000000000000000000000000000000000000000000081525f6004820152602401610a8a565b6001600160a01b038381165f81815260026020908152604080832094871680845294825291829020805460ff191686151590811790915591519182527f17307eab39ab6107e8899845ad3d59bd9653f200f220920489ca2b5937696c31910160405180910390a3505050565b6001600160a01b03841661446a57604051632bfa23e760e11b81525f6004820152602401610a8a565b6001600160a01b03851661449257604051626a0d4560e21b81525f6004820152602401610a8a565b604080516001808252602082018690528183019081526060820185905260808201909252906144c48787848487614552565b50505050505050565b5f5f60205f8451602086015f885af1806144ec576040513d5f823e3d81fd5b50505f513d91508115614503578060011415614510565b6001600160a01b0384163b155b15614095576040517f5274afe70000000000000000000000000000000000000000000000000000000081526001600160a01b0385166004820152602401610a8a565b61455e858585856145a5565b6001600160a01b038416156141545782513390600103614597576020848101519084015161459083898985858961468c565b50506112fb565b6112fb8187878787876147ad565b6145b184848484614894565b6001600160a01b03841661462e575f805b83518110156146155760208181028481018201519086018201515f9081526004909252604082208054919283926145fa908490615468565b9091555061460a90508184615468565b9250506001016145c2565b508060055f8282546146279190615468565b9091555050505b6001600160a01b038316614095575f805b835181101561467b5760208181028481018201519086018201515f9081526004909252604090912080548290039055919091019060010161463f565b506005805491909103905550505050565b6001600160a01b0384163b156112fb5760405163f23a6e6160e01b81526001600160a01b0385169063f23a6e61906146d090899089908890889088906004016155ad565b6020604051808303815f875af192505050801561470a575060408051601f3d908101601f19168201909252614707918101906155e9565b60015b614771573d808015614737576040519150601f19603f3d011682016040523d82523d5f602084013e61473c565b606091505b5080515f0361476957604051632bfa23e760e11b81526001600160a01b0386166004820152602401610a8a565b805181602001fd5b6001600160e01b0319811663f23a6e6160e01b146144c457604051632bfa23e760e11b81526001600160a01b0386166004820152602401610a8a565b6001600160a01b0384163b156112fb5760405163bc197c8160e01b81526001600160a01b0385169063bc197c81906147f19089908990889088908890600401615604565b6020604051808303815f875af192505050801561482b575060408051601f3d908101601f19168201909252614828918101906155e9565b60015b614858573d808015614737576040519150601f19603f3d011682016040523d82523d5f602084013e61473c565b6001600160e01b0319811663bc197c8160e01b146144c457604051632bfa23e760e11b81526001600160a01b0386166004820152602401610a8a565b80518251146148c35781518151604051635b05999160e01b815260048101929092526024820152604401610a8a565b335f5b83518110156149e4576020818102858101820151908501909101516001600160a01b03881615614994575f8281526001602090815260408083206001600160a01b038c1684529091529020548181101561496c576040517f03dee4c50000000000000000000000000000000000000000000000000000000081526001600160a01b038a166004820152602481018290526044810183905260648101849052608401610a8a565b5f8381526001602090815260408083206001600160a01b038d16845290915290209082900390555b6001600160a01b038716156149da575f8281526001602090815260408083206001600160a01b038b168452909152812080548392906149d4908490615468565b90915550505b50506001016148c6565b508251600103614a645760208301515f906020840151909150856001600160a01b0316876001600160a01b0316846001600160a01b03167fc3d58168c5ae7397731d063d5bbf3d657854427343f4c083240f7aacaa2d0f628585604051614a55929190918252602082015260400190565b60405180910390a45050614154565b836001600160a01b0316856001600160a01b0316826001600160a01b03167f4a39dc06d4c0dbc64b70af90fd698a233a518aa5d07e595d983b8c0526c8f7fb8686604051614ab392919061565a565b60405180910390a45050505050565b80356001600160a01b0381168114614ad8575f5ffd5b919050565b5f5f60408385031215614aee575f5ffd5b614af783614ac2565b946020939093013593505050565b6001600160e01b0319811681146116b7575f5ffd5b5f60208284031215614b2a575f5ffd5b81356111b181614b05565b5f60208284031215614b45575f5ffd5b5035919050565b5f6101c08201905084518252602085015160208301526001600160a01b0360408601511660408301526001600160601b03606086015116606083015263ffffffff608086015116608083015260a0850151614baf60a084018263ffffffff169052565b5060c0850151614bc760c084018263ffffffff169052565b5060e0850151614be260e08401826001600160601b03169052565b5083516001600160a01b031661010083015260208401516001600160601b03908116610120840152604085015161014084015260608501516101608401526080909401519093166101808201526101a00152919050565b5f81518084528060208401602086015e5f602082860101526020601f19601f83011685010191505092915050565b602081525f6111b16020830184614c39565b634e487b7160e01b5f52602160045260245ffd5b6020810160068310614cad57634e487b7160e01b5f52602160045260245ffd5b91905290565b5f5f5f60608486031215614cc5575f5ffd5b505081359360208301359350604090920135919050565b5f5f60408385031215614ced575f5ffd5b50508035926020909101359150565b634e487b7160e01b5f52604160045260245ffd5b604051601f8201601f1916810167ffffffffffffffff81118282101715614d3957614d39614cfc565b604052919050565b5f67ffffffffffffffff821115614d5a57614d5a614cfc565b5060051b60200190565b5f82601f830112614d73575f5ffd5b8135614d86614d8182614d41565b614d10565b8082825260208201915060208360051b860101925085831115614da7575f5ffd5b602085015b83811015614dc4578035835260209283019201614dac565b5095945050505050565b5f82601f830112614ddd575f5ffd5b813567ffffffffffffffff811115614df757614df7614cfc565b614e0a601f8201601f1916602001614d10565b818152846020838601011115614e1e575f5ffd5b816020850160208301375f918101602001919091529392505050565b5f5f5f5f5f60a08688031215614e4e575f5ffd5b614e5786614ac2565b9450614e6560208701614ac2565b9350604086013567ffffffffffffffff811115614e80575f5ffd5b614e8c88828901614d64565b935050606086013567ffffffffffffffff811115614ea8575f5ffd5b614eb488828901614d64565b925050608086013567ffffffffffffffff811115614ed0575f5ffd5b614edc88828901614dce565b9150509295509295909350565b803563ffffffff81168114614ad8575f5ffd5b5f60208284031215614f0c575f5ffd5b6111b182614ee9565b5f60208284031215614f25575f5ffd5b6111b182614ac2565b5f5f83601f840112614f3e575f5ffd5b50813567ffffffffffffffff811115614f55575f5ffd5b602083019150836020828501011115614f6c575f5ffd5b9250929050565b5f5f5f60408486031215614f85575f5ffd5b83359250602084013567ffffffffffffffff811115614fa2575f5ffd5b614fae86828701614f2e565b9497909650939450505050565b5f5f60408385031215614fcc575f5ffd5b823567ffffffffffffffff811115614fe2575f5ffd5b8301601f81018513614ff2575f5ffd5b8035615000614d8182614d41565b8082825260208201915060208360051b850101925087831115615021575f5ffd5b6020840193505b8284101561504a5761503984614ac2565b825260209384019390910190615028565b9450505050602083013567ffffffffffffffff811115615068575f5ffd5b61507485828601614d64565b9150509250929050565b5f8151808452602084019350602083015f5b828110156150ae578151865260209586019590910190600101615090565b5093949350505050565b602081525f6111b1602083018461507e565b5f5f5f5f608085870312156150dd575f5ffd5b843593506150ed60208601614ee9565b92506150fb60408601614ee9565b915061510960608601614ee9565b905092959194509250565b5f5f5f5f5f5f5f5f60e0898b03121561512b575f5ffd5b883597506020890135965061514260408a01614ee9565b955061515060608a01614ee9565b945061515e60808a01614ee9565b935061516c60a08a01614ee9565b925060c089013567ffffffffffffffff811115615187575f5ffd5b6151938b828c01614f2e565b999c989b5096995094979396929594505050565b5f5f5f5f5f5f5f5f60e0898b0312156151be575f5ffd5b8835975060208901359650604089013595506151dc60608a01614ee9565b94506080890135935060a0890135925060c089013567ffffffffffffffff811115615187575f5ffd5b5f5f60408385031215615216575f5ffd5b61521f83614ac2565b915060208301358015158114615233575f5ffd5b809150509250929050565b5f5f6040838503121561524f575f5ffd5b61525883614ac2565b915061526660208401614ac2565b90509250929050565b5f5f5f5f5f60a08688031215615283575f5ffd5b61528c86614ac2565b945061529a60208701614ac2565b93506040860135925060608601359150608086013567ffffffffffffffff811115614ed0575f5ffd5b600181811c908216806152d757607f821691505b6020821081036152f557634e487b7160e01b5f52602260045260245ffd5b50919050565b634e487b7160e01b5f52601160045260245ffd5b81810381811115610933576109336152fb565b8082028115828204841417610933576109336152fb565b6001600160601b038181168382160190811115610933576109336152fb565b5f8261537257634e487b7160e01b5f52601260045260245ffd5b500490565b6001815b60018411156153b257808504811115615396576153966152fb565b60018416156153a457908102905b60019390931c92800261537b565b935093915050565b5f826153c857506001610933565b816153d457505f610933565b81600181146153ea57600281146153f457615410565b6001915050610933565b60ff841115615405576154056152fb565b50506001821b610933565b5060208310610133831016604e8410600b8410161715615433575081810a610933565b61543f5f198484615377565b805f1904821115615452576154526152fb565b029392505050565b5f6111b160ff8416836153ba565b80820180821115610933576109336152fb565b81835281816020850137505f828201602090810191909152601f909101601f19169091010190565b6001600160a01b038816815260ff8716602082015285604082015260ff8516606082015283608082015260c060a08201525f6154e360c08301848661547b565b9998505050505050505050565b5f60208284031215615500575f5ffd5b5051919050565b634e487b7160e01b5f52603260045260245ffd5b63ffffffff8181168382160290811690818114611277576112776152fb565b5f6001820161554b5761554b6152fb565b5060010190565b6001600160601b038281168282160390811115610933576109336152fb565b6001600160a01b038616815260ff85166020820152836040820152608060608201525f6155a260808301848661547b565b979650505050505050565b6001600160a01b03861681526001600160a01b038516602082015283604082015282606082015260a060808201525f6155a260a0830184614c39565b5f602082840312156155f9575f5ffd5b81516111b181614b05565b6001600160a01b03861681526001600160a01b038516602082015260a060408201525f61563460a083018661507e565b8281036060840152615646818661507e565b90508281036080840152612c238185614c39565b604081525f61566c604083018561507e565b82810360208401526118e5818561507e56fea2646970667358221220f26cfc89a9d0d2f688401d83f013fb3dda9d53a4f37dde6fee27525a233fdbed64736f6c634300081e0033",
			"opcodes": "PUSH1 0xE0 PUSH1 0x40 MSTORE PUSH1 0x7 DUP1 SLOAD PUSH1 0xFF NOT AND SWAP1 SSTORE PUSH1 0xA PUSH1 0x8 DUP2 SWAP1 SSTORE PUSH30 0x2CEC000032C8000186A000000064000000010000016D000000070000000A PUSH1 0x9 SSTORE DUP1 SLOAD PUSH4 0xFFFFFFFF NOT AND PUSH1 0x96 OR SWAP1 SSTORE PUSH1 0x1 PUSH1 0xE SSTORE CALLVALUE DUP1 ISZERO PUSH2 0x55 JUMPI PUSH0 PUSH0 REVERT JUMPDEST POP PUSH1 0x40 MLOAD PUSH2 0x5D6D CODESIZE SUB DUP1 PUSH2 0x5D6D DUP4 CODECOPY DUP2 ADD PUSH1 0x40 DUP2 SWAP1 MSTORE PUSH2 0x74 SWAP2 PUSH2 0x287 JUMP JUMPDEST DUP1 CALLER DUP1 PUSH2 0x9A JUMPI PUSH1 0x40 MLOAD PUSH4 0x1E4FBDF7 PUSH1 0xE0 SHL DUP2 MSTORE PUSH0 PUSH1 0x4 DUP3 ADD MSTORE PUSH1 0x24 ADD PUSH1 0x40 MLOAD DUP1 SWAP2 SUB SWAP1 REVERT JUMPDEST PUSH2 0xA3 DUP2 PUSH2 0x1F9 JUMP JUMPDEST POP PUSH2 0xAD DUP2 PUSH2 0x248 JUMP JUMPDEST POP PUSH1 0x1 PUSH1 0x6 SSTORE PUSH1 0xB DUP1 SLOAD PUSH1 0x1 PUSH1 0x1 PUSH1 0xA0 SHL SUB NOT AND PUSH1 0x1 PUSH1 0x1 PUSH1 0xA0 SHL SUB DUP8 DUP2 AND SWAP2 SWAP1 SWAP2 OR SWAP1 SWAP2 SSTORE DUP5 AND PUSH1 0x80 DUP2 SWAP1 MSTORE PUSH1 0x40 DUP1 MLOAD PUSH4 0x313CE567 PUSH1 0xE0 SHL DUP2 MSTORE SWAP1 MLOAD PUSH4 0x313CE567 SWAP2 PUSH1 0x4 DUP1 DUP3 ADD SWAP3 PUSH1 0x20 SWAP3 SWAP1 SWAP2 SWAP1 DUP3 SWAP1 SUB ADD DUP2 DUP7 GAS STATICCALL ISZERO DUP1 ISZERO PUSH2 0x113 JUMPI RETURNDATASIZE PUSH0 PUSH0 RETURNDATACOPY RETURNDATASIZE PUSH0 REVERT JUMPDEST POP POP POP POP PUSH1 0x40 MLOAD RETURNDATASIZE PUSH1 0x1F NOT PUSH1 0x1F DUP3 ADD AND DUP3 ADD DUP1 PUSH1 0x40 MSTORE POP DUP2 ADD SWAP1 PUSH2 0x137 SWAP2 SWAP1 PUSH2 0x379 JUMP JUMPDEST PUSH1 0xFF AND PUSH1 0xA0 MSTORE PUSH1 0x1 PUSH1 0x1 PUSH1 0xA0 SHL SUB DUP4 AND PUSH1 0xC0 DUP2 SWAP1 MSTORE PUSH1 0x40 DUP1 MLOAD PUSH4 0x313CE567 PUSH1 0xE0 SHL DUP2 MSTORE SWAP1 MLOAD PUSH4 0x313CE567 SWAP2 PUSH1 0x4 DUP1 DUP3 ADD SWAP3 PUSH1 0x20 SWAP3 SWAP1 SWAP2 SWAP1 DUP3 SWAP1 SUB ADD DUP2 DUP7 GAS STATICCALL ISZERO DUP1 ISZERO PUSH2 0x185 JUMPI RETURNDATASIZE PUSH0 PUSH0 RETURNDATACOPY RETURNDATASIZE PUSH0 REVERT JUMPDEST POP POP POP POP PUSH1 0x40 MLOAD RETURNDATASIZE PUSH1 0x1F NOT PUSH1 0x1F DUP3 ADD AND DUP3 ADD DUP1 PUSH1 0x40 MSTORE POP DUP2 ADD SWAP1 PUSH2 0x1A9 SWAP2 SWAP1 PUSH2 0x379 JUMP JUMPDEST PUSH2 0x1B4 SWAP1 PUSH1 0xA PUSH2 0x499 JUMP JUMPDEST PUSH1 0x8 SLOAD PUSH2 0x1C1 SWAP2 SWAP1 PUSH2 0x4A7 JUMP JUMPDEST PUSH1 0x8 SSTORE POP PUSH1 0xA DUP1 SLOAD PUSH1 0x1 PUSH1 0x1 PUSH1 0xA0 SHL SUB SWAP1 SWAP3 AND PUSH5 0x100000000 MUL PUSH1 0x1 PUSH1 0x20 SHL PUSH1 0x1 PUSH1 0xC0 SHL SUB NOT SWAP1 SWAP3 AND SWAP2 SWAP1 SWAP2 OR SWAP1 SSTORE POP PUSH2 0x5FC SWAP2 POP POP JUMP JUMPDEST PUSH0 DUP1 SLOAD PUSH1 0x1 PUSH1 0x1 PUSH1 0xA0 SHL SUB DUP4 DUP2 AND PUSH1 0x1 PUSH1 0x1 PUSH1 0xA0 SHL SUB NOT DUP4 AND DUP2 OR DUP5 SSTORE PUSH1 0x40 MLOAD SWAP2 SWAP1 SWAP3 AND SWAP3 DUP4 SWAP2 PUSH32 0x8BE0079C531659141344CD1FD0A4F28419497F9722A3DAAFE3B4186F6B6457E0 SWAP2 SWAP1 LOG3 POP POP JUMP JUMPDEST PUSH1 0x3 PUSH2 0x254 DUP3 DUP3 PUSH2 0x542 JUMP JUMPDEST POP POP JUMP JUMPDEST DUP1 MLOAD PUSH1 0x1 PUSH1 0x1 PUSH1 0xA0 SHL SUB DUP2 AND DUP2 EQ PUSH2 0x26E JUMPI PUSH0 PUSH0 REVERT JUMPDEST SWAP2 SWAP1 POP JUMP JUMPDEST PUSH4 0x4E487B71 PUSH1 0xE0 SHL PUSH0 MSTORE PUSH1 0x41 PUSH1 0x4 MSTORE PUSH1 0x24 PUSH0 REVERT JUMPDEST PUSH0 PUSH0 PUSH0 PUSH0 PUSH0 PUSH1 0xA0 DUP7 DUP9 SUB SLT ISZERO PUSH2 0x29B JUMPI PUSH0 PUSH0 REVERT JUMPDEST PUSH2 0x2A4 DUP7 PUSH2 0x258 JUMP JUMPDEST SWAP5 POP PUSH2 0x2B2 PUSH1 0x20 DUP8 ADD PUSH2 0x258 JUMP JUMPDEST SWAP4 POP PUSH2 0x2C0 PUSH1 0x40 DUP8 ADD PUSH2 0x258 JUMP JUMPDEST SWAP3 POP PUSH2 0x2CE PUSH1 0x60 DUP8 ADD PUSH2 0x258 JUMP JUMPDEST PUSH1 0x80 DUP8 ADD MLOAD SWAP1 SWAP3 POP PUSH1 0x1 PUSH1 0x1 PUSH1 0x40 SHL SUB DUP2 GT ISZERO PUSH2 0x2E9 JUMPI PUSH0 PUSH0 REVERT JUMPDEST DUP7 ADD PUSH1 0x1F DUP2 ADD DUP9 SGT PUSH2 0x2F9 JUMPI PUSH0 PUSH0 REVERT JUMPDEST DUP1 MLOAD PUSH1 0x1 PUSH1 0x1 PUSH1 0x40 SHL SUB DUP2 GT ISZERO PUSH2 0x312 JUMPI PUSH2 0x312 PUSH2 0x273 JUMP JUMPDEST PUSH1 0x40 MLOAD PUSH1 0x1F DUP3 ADD PUSH1 0x1F NOT SWAP1 DUP2 AND PUSH1 0x3F ADD AND DUP2 ADD PUSH1 0x1 PUSH1 0x1 PUSH1 0x40 SHL SUB DUP2 GT DUP3 DUP3 LT OR ISZERO PUSH2 0x340 JUMPI PUSH2 0x340 PUSH2 0x273 JUMP JUMPDEST PUSH1 0x40 MSTORE DUP2 DUP2 MSTORE DUP3 DUP3 ADD PUSH1 0x20 ADD DUP11 LT ISZERO PUSH2 0x357 JUMPI PUSH0 PUSH0 REVERT JUMPDEST DUP2 PUSH1 0x20 DUP5 ADD PUSH1 0x20 DUP4 ADD MCOPY PUSH0 PUSH1 0x20 DUP4 DUP4 ADD ADD MSTORE DUP1 SWAP4 POP POP POP POP SWAP3 SWAP6 POP SWAP3 SWAP6 SWAP1 SWAP4 POP JUMP JUMPDEST PUSH0 PUSH1 0x20 DUP3 DUP5 SUB SLT ISZERO PUSH2 0x389 JUMPI PUSH0 PUSH0 REVERT JUMPDEST DUP2 MLOAD PUSH1 0xFF DUP2 AND DUP2 EQ PUSH2 0x399 JUMPI PUSH0 PUSH0 REVERT JUMPDEST SWAP4 SWAP3 POP POP POP JUMP JUMPDEST PUSH4 0x4E487B71 PUSH1 0xE0 SHL PUSH0 MSTORE PUSH1 0x11 PUSH1 0x4 MSTORE PUSH1 0x24 PUSH0 REVERT JUMPDEST PUSH1 0x1 DUP2 JUMPDEST PUSH1 0x1 DUP5 GT ISZERO PUSH2 0x3EF JUMPI DUP1 DUP6 DIV DUP2 GT ISZERO PUSH2 0x3D3 JUMPI PUSH2 0x3D3 PUSH2 0x3A0 JUMP JUMPDEST PUSH1 0x1 DUP5 AND ISZERO PUSH2 0x3E1 JUMPI SWAP1 DUP2 MUL SWAP1 JUMPDEST PUSH1 0x1 SWAP4 SWAP1 SWAP4 SHR SWAP3 DUP1 MUL PUSH2 0x3B8 JUMP JUMPDEST SWAP4 POP SWAP4 SWAP2 POP POP JUMP JUMPDEST PUSH0 DUP3 PUSH2 0x405 JUMPI POP PUSH1 0x1 PUSH2 0x493 JUMP JUMPDEST DUP2 PUSH2 0x411 JUMPI POP PUSH0 PUSH2 0x493 JUMP JUMPDEST DUP2 PUSH1 0x1 DUP2 EQ PUSH2 0x427 JUMPI PUSH1 0x2 DUP2 EQ PUSH2 0x431 JUMPI PUSH2 0x44D JUMP JUMPDEST PUSH1 0x1 SWAP2 POP POP PUSH2 0x493 JUMP JUMPDEST PUSH1 0xFF DUP5 GT ISZERO PUSH2 0x442 JUMPI PUSH2 0x442 PUSH2 0x3A0 JUMP JUMPDEST POP POP PUSH1 0x1 DUP3 SHL PUSH2 0x493 JUMP JUMPDEST POP PUSH1 0x20 DUP4 LT PUSH2 0x133 DUP4 LT AND PUSH1 0x4E DUP5 LT PUSH1 0xB DUP5 LT AND OR ISZERO PUSH2 0x470 JUMPI POP DUP2 DUP2 EXP PUSH2 0x493 JUMP JUMPDEST PUSH2 0x47C PUSH0 NOT DUP5 DUP5 PUSH2 0x3B4 JUMP JUMPDEST DUP1 PUSH0 NOT DIV DUP3 GT ISZERO PUSH2 0x48F JUMPI PUSH2 0x48F PUSH2 0x3A0 JUMP JUMPDEST MUL SWAP1 POP JUMPDEST SWAP3 SWAP2 POP POP JUMP JUMPDEST PUSH0 PUSH2 0x399 PUSH1 0xFF DUP5 AND DUP4 PUSH2 0x3F7 JUMP JUMPDEST DUP1 DUP3 MUL DUP2 ISZERO DUP3 DUP3 DIV DUP5 EQ OR PUSH2 0x493 JUMPI PUSH2 0x493 PUSH2 0x3A0 JUMP JUMPDEST PUSH1 0x1 DUP2 DUP2 SHR SWAP1 DUP3 AND DUP1 PUSH2 0x4D2 JUMPI PUSH1 0x7F DUP3 AND SWAP2 POP JUMPDEST PUSH1 0x20 DUP3 LT DUP2 SUB PUSH2 0x4F0 JUMPI PUSH4 0x4E487B71 PUSH1 0xE0 SHL PUSH0 MSTORE PUSH1 0x22 PUSH1 0x4 MSTORE PUSH1 0x24 PUSH0 REVERT JUMPDEST POP SWAP2 SWAP1 POP JUMP JUMPDEST PUSH1 0x1F DUP3 GT ISZERO PUSH2 0x53D JUMPI DUP1 PUSH0 MSTORE PUSH1 0x20 PUSH0 KECCAK256 PUSH1 0x1F DUP5 ADD PUSH1 0x5 SHR DUP2 ADD PUSH1 0x20 DUP6 LT ISZERO PUSH2 0x51B JUMPI POP DUP1 JUMPDEST PUSH1 0x1F DUP5 ADD PUSH1 0x5 SHR DUP3 ADD SWAP2 POP JUMPDEST DUP2 DUP2 LT ISZERO PUSH2 0x53A JUMPI PUSH0 DUP2 SSTORE PUSH1 0x1 ADD PUSH2 0x527 JUMP JUMPDEST POP POP JUMPDEST POP POP POP JUMP JUMPDEST DUP2 MLOAD PUSH1 0x1 PUSH1 0x1 PUSH1 0x40 SHL SUB DUP2 GT ISZERO PUSH2 0x55B JUMPI PUSH2 0x55B PUSH2 0x273 JUMP JUMPDEST PUSH2 0x56F DUP2 PUSH2 0x569 DUP5 SLOAD PUSH2 0x4BE JUMP JUMPDEST DUP5 PUSH2 0x4F6 JUMP JUMPDEST PUSH1 0x20 PUSH1 0x1F DUP3 GT PUSH1 0x1 DUP2 EQ PUSH2 0x5A1 JUMPI PUSH0 DUP4 ISZERO PUSH2 0x58A JUMPI POP DUP5 DUP3 ADD MLOAD JUMPDEST PUSH0 NOT PUSH1 0x3 DUP6 SWAP1 SHL SHR NOT AND PUSH1 0x1 DUP5 SWAP1 SHL OR DUP5 SSTORE PUSH2 0x53A JUMP JUMPDEST PUSH0 DUP5 DUP2 MSTORE PUSH1 0x20 DUP2 KECCAK256 PUSH1 0x1F NOT DUP6 AND SWAP2 JUMPDEST DUP3 DUP2 LT ISZERO PUSH2 0x5D0 JUMPI DUP8 DUP6 ADD MLOAD DUP3 SSTORE PUSH1 0x20 SWAP5 DUP6 ADD SWAP5 PUSH1 0x1 SWAP1 SWAP3 ADD SWAP2 ADD PUSH2 0x5B0 JUMP JUMPDEST POP DUP5 DUP3 LT ISZERO PUSH2 0x5ED JUMPI DUP7 DUP5 ADD MLOAD PUSH0 NOT PUSH1 0x3 DUP8 SWAP1 SHL PUSH1 0xF8 AND SHR NOT AND DUP2 SSTORE JUMPDEST POP POP POP POP PUSH1 0x1 SWAP1 DUP2 SHL ADD SWAP1 SSTORE POP JUMP JUMPDEST PUSH1 0x80 MLOAD PUSH1 0xA0 MLOAD PUSH1 0xC0 MLOAD PUSH2 0x56B4 PUSH2 0x6B9 PUSH0 CODECOPY PUSH0 DUP2 DUP2 PUSH2 0x6E6 ADD MSTORE DUP2 DUP2 PUSH2 0xFCA ADD MSTORE DUP2 DUP2 PUSH2 0x15E5 ADD MSTORE DUP2 DUP2 PUSH2 0x2634 ADD MSTORE DUP2 DUP2 PUSH2 0x2EBD ADD MSTORE PUSH2 0x34F1 ADD MSTORE PUSH0 DUP2 DUP2 PUSH2 0x185A ADD MSTORE DUP2 DUP2 PUSH2 0x3799 ADD MSTORE DUP2 DUP2 PUSH2 0x3BBC ADD MSTORE PUSH2 0x433A ADD MSTORE PUSH0 DUP2 DUP2 PUSH2 0x4EF ADD MSTORE DUP2 DUP2 PUSH2 0x163C ADD MSTORE DUP2 DUP2 PUSH2 0x1835 ADD MSTORE DUP2 DUP2 PUSH2 0x2109 ADD MSTORE DUP2 DUP2 PUSH2 0x232A ADD MSTORE DUP2 DUP2 PUSH2 0x239C ADD MSTORE DUP2 DUP2 PUSH2 0x23F7 ADD MSTORE DUP2 DUP2 PUSH2 0x28FC ADD MSTORE DUP2 DUP2 PUSH2 0x3356 ADD MSTORE DUP2 DUP2 PUSH2 0x342B ADD MSTORE DUP2 DUP2 PUSH2 0x3774 ADD MSTORE DUP2 DUP2 PUSH2 0x3B97 ADD MSTORE DUP2 DUP2 PUSH2 0x3D44 ADD MSTORE PUSH2 0x4318 ADD MSTORE PUSH2 0x56B4 PUSH0 RETURN INVALID PUSH1 0x80 PUSH1 0x40 MSTORE CALLVALUE DUP1 ISZERO PUSH2 0xF JUMPI PUSH0 PUSH0 REVERT JUMPDEST POP PUSH1 0x4 CALLDATASIZE LT PUSH2 0x39D JUMPI PUSH0 CALLDATALOAD PUSH1 0xE0 SHR DUP1 PUSH4 0x6E5F4A89 GT PUSH2 0x1EA JUMPI DUP1 PUSH4 0xA8A71E09 GT PUSH2 0x114 JUMPI DUP1 PUSH4 0xC9DD1F3C GT PUSH2 0xA9 JUMPI DUP1 PUSH4 0xEF921826 GT PUSH2 0x79 JUMPI DUP1 PUSH4 0xEF921826 EQ PUSH2 0x8C4 JUMPI DUP1 PUSH4 0xF08A5381 EQ PUSH2 0x8D7 JUMPI DUP1 PUSH4 0xF242432A EQ PUSH2 0x8EA JUMPI DUP1 PUSH4 0xF2FDE38B EQ PUSH2 0x8FD JUMPI PUSH0 PUSH0 REVERT JUMPDEST DUP1 PUSH4 0xC9DD1F3C EQ PUSH2 0x84C JUMPI DUP1 PUSH4 0xE444F545 EQ PUSH2 0x85F JUMPI DUP1 PUSH4 0xE51D375A EQ PUSH2 0x872 JUMPI DUP1 PUSH4 0xE985E9C5 EQ PUSH2 0x889 JUMPI PUSH0 PUSH0 REVERT JUMPDEST DUP1 PUSH4 0xB6A6D177 GT PUSH2 0xE4 JUMPI DUP1 PUSH4 0xB6A6D177 EQ PUSH2 0x7E7 JUMPI DUP1 PUSH4 0xBD85B039 EQ PUSH2 0x7FF JUMPI DUP1 PUSH4 0xC5B3A376 EQ PUSH2 0x81E JUMPI DUP1 PUSH4 0xC5F16166 EQ PUSH2 0x831 JUMPI PUSH0 PUSH0 REVERT JUMPDEST DUP1 PUSH4 0xA8A71E09 EQ PUSH2 0x796 JUMPI DUP1 PUSH4 0xAA9F7628 EQ PUSH2 0x7AD JUMPI DUP1 PUSH4 0xACBB65AF EQ PUSH2 0x7C0 JUMPI DUP1 PUSH4 0xB1724B46 EQ PUSH2 0x7D0 JUMPI PUSH0 PUSH0 REVERT JUMPDEST DUP1 PUSH4 0x8C8DC659 GT PUSH2 0x18A JUMPI DUP1 PUSH4 0xA0420E7F GT PUSH2 0x15A JUMPI DUP1 PUSH4 0xA0420E7F EQ PUSH2 0x746 JUMPI DUP1 PUSH4 0xA22CB465 EQ PUSH2 0x75D JUMPI DUP1 PUSH4 0xA45234D0 EQ PUSH2 0x770 JUMPI DUP1 PUSH4 0xA877E9CE EQ PUSH2 0x783 JUMPI PUSH0 PUSH0 REVERT JUMPDEST DUP1 PUSH4 0x8C8DC659 EQ PUSH2 0x708 JUMPI DUP1 PUSH4 0x8DA5CB5B EQ PUSH2 0x71B JUMPI DUP1 PUSH4 0x950D91E9 EQ PUSH2 0x72B JUMPI DUP1 PUSH4 0x9D100875 EQ PUSH2 0x733 JUMPI PUSH0 PUSH0 REVERT JUMPDEST DUP1 PUSH4 0x75F12B21 GT PUSH2 0x1C5 JUMPI DUP1 PUSH4 0x75F12B21 EQ PUSH2 0x6B8 JUMPI DUP1 PUSH4 0x7FEE67A2 EQ PUSH2 0x6C5 JUMPI DUP1 PUSH4 0x88E08665 EQ PUSH2 0x6CE JUMPI DUP1 PUSH4 0x89A30271 EQ PUSH2 0x6E1 JUMPI PUSH0 PUSH0 REVERT JUMPDEST DUP1 PUSH4 0x6E5F4A89 EQ PUSH2 0x68A JUMPI DUP1 PUSH4 0x715018A6 EQ PUSH2 0x69D JUMPI DUP1 PUSH4 0x7175030D EQ PUSH2 0x6A5 JUMPI PUSH0 PUSH0 REVERT JUMPDEST DUP1 PUSH4 0x3273B110 GT PUSH2 0x2CB JUMPI DUP1 PUSH4 0x49D4A7C4 GT PUSH2 0x26B JUMPI DUP1 PUSH4 0x530E784F GT PUSH2 0x23B JUMPI DUP1 PUSH4 0x530E784F EQ PUSH2 0x63A JUMPI DUP1 PUSH4 0x54F0CB0D EQ PUSH2 0x64D JUMPI DUP1 PUSH4 0x6112FE2E EQ PUSH2 0x660 JUMPI DUP1 PUSH4 0x670D5B63 EQ PUSH2 0x673 JUMPI PUSH0 PUSH0 REVERT JUMPDEST DUP1 PUSH4 0x49D4A7C4 EQ PUSH2 0x5D3 JUMPI DUP1 PUSH4 0x4E1273F4 EQ PUSH2 0x5E6 JUMPI DUP1 PUSH4 0x4F558E79 EQ PUSH2 0x606 JUMPI DUP1 PUSH4 0x51F740D5 EQ PUSH2 0x627 JUMPI PUSH0 PUSH0 REVERT JUMPDEST DUP1 PUSH4 0x371FD8E6 GT PUSH2 0x2A6 JUMPI DUP1 PUSH4 0x371FD8E6 EQ PUSH2 0x583 JUMPI DUP1 PUSH4 0x373071F2 EQ PUSH2 0x596 JUMPI DUP1 PUSH4 0x3D92F4E2 EQ PUSH2 0x5A9 JUMPI DUP1 PUSH4 0x48782996 EQ PUSH2 0x5C0 JUMPI PUSH0 PUSH0 REVERT JUMPDEST DUP1 PUSH4 0x3273B110 EQ PUSH2 0x54A JUMPI DUP1 PUSH4 0x34591A3E EQ PUSH2 0x55D JUMPI DUP1 PUSH4 0x35557E5C EQ PUSH2 0x570 JUMPI PUSH0 PUSH0 REVERT JUMPDEST DUP1 PUSH4 0xE89341C GT PUSH2 0x341 JUMPI DUP1 PUSH4 0x24BBAB8B GT PUSH2 0x311 JUMPI DUP1 PUSH4 0x24BBAB8B EQ PUSH2 0x4EA JUMPI DUP1 PUSH4 0x2BED89E5 EQ PUSH2 0x511 JUMPI DUP1 PUSH4 0x2D4CDFC3 EQ PUSH2 0x524 JUMPI DUP1 PUSH4 0x2EB2C2D6 EQ PUSH2 0x537 JUMPI PUSH0 PUSH0 REVERT JUMPDEST DUP1 PUSH4 0xE89341C EQ PUSH2 0x480 JUMPI DUP1 PUSH4 0x18160DDD EQ PUSH2 0x4A0 JUMPI DUP1 PUSH4 0x1C4FD41C EQ PUSH2 0x4A8 JUMPI DUP1 PUSH4 0x21241DFE EQ PUSH2 0x4C8 JUMPI PUSH0 PUSH0 REVERT JUMPDEST DUP1 PUSH4 0x714012C GT PUSH2 0x37C JUMPI DUP1 PUSH4 0x714012C EQ PUSH2 0x404 JUMPI DUP1 PUSH4 0x7DA68F5 EQ PUSH2 0x426 JUMPI DUP1 PUSH4 0xA19399A EQ PUSH2 0x430 JUMPI DUP1 PUSH4 0xB4501FD EQ PUSH2 0x45B JUMPI PUSH0 PUSH0 REVERT JUMPDEST DUP1 PUSH3 0xFDD58E EQ PUSH2 0x3A1 JUMPI DUP1 PUSH4 0x1FFC9A7 EQ PUSH2 0x3C7 JUMPI DUP1 PUSH4 0x3CC1194 EQ PUSH2 0x3EA JUMPI JUMPDEST PUSH0 PUSH0 REVERT JUMPDEST PUSH2 0x3B4 PUSH2 0x3AF CALLDATASIZE PUSH1 0x4 PUSH2 0x4ADD JUMP JUMPDEST PUSH2 0x910 JUMP JUMPDEST PUSH1 0x40 MLOAD SWAP1 DUP2 MSTORE PUSH1 0x20 ADD JUMPDEST PUSH1 0x40 MLOAD DUP1 SWAP2 SUB SWAP1 RETURN JUMPDEST PUSH2 0x3DA PUSH2 0x3D5 CALLDATASIZE PUSH1 0x4 PUSH2 0x4B1A JUMP JUMPDEST PUSH2 0x939 JUMP JUMPDEST PUSH1 0x40 MLOAD SWAP1 ISZERO ISZERO DUP2 MSTORE PUSH1 0x20 ADD PUSH2 0x3BE JUMP JUMPDEST PUSH2 0x3F2 PUSH1 0x4 DUP2 JUMP JUMPDEST PUSH1 0x40 MLOAD PUSH1 0xFF SWAP1 SWAP2 AND DUP2 MSTORE PUSH1 0x20 ADD PUSH2 0x3BE JUMP JUMPDEST PUSH2 0x417 PUSH2 0x412 CALLDATASIZE PUSH1 0x4 PUSH2 0x4B35 JUMP JUMPDEST PUSH2 0x9D3 JUMP JUMPDEST PUSH1 0x40 MLOAD PUSH2 0x3BE SWAP4 SWAP3 SWAP2 SWAP1 PUSH2 0x4B4C JUMP JUMPDEST PUSH2 0x42E PUSH2 0xB8E JUMP JUMPDEST STOP JUMPDEST PUSH1 0xB SLOAD PUSH2 0x443 SWAP1 PUSH1 0x1 PUSH1 0x1 PUSH1 0xA0 SHL SUB AND DUP2 JUMP JUMPDEST PUSH1 0x40 MLOAD PUSH1 0x1 PUSH1 0x1 PUSH1 0xA0 SHL SUB SWAP1 SWAP2 AND DUP2 MSTORE PUSH1 0x20 ADD PUSH2 0x3BE JUMP JUMPDEST PUSH1 0xA SLOAD PUSH2 0x46B SWAP1 PUSH4 0xFFFFFFFF AND DUP2 JUMP JUMPDEST PUSH1 0x40 MLOAD PUSH4 0xFFFFFFFF SWAP1 SWAP2 AND DUP2 MSTORE PUSH1 0x20 ADD PUSH2 0x3BE JUMP JUMPDEST PUSH2 0x493 PUSH2 0x48E CALLDATASIZE PUSH1 0x4 PUSH2 0x4B35 JUMP JUMPDEST PUSH2 0xBDC JUMP JUMPDEST PUSH1 0x40 MLOAD PUSH2 0x3BE SWAP2 SWAP1 PUSH2 0x4C67 JUMP JUMPDEST PUSH1 0x5 SLOAD PUSH2 0x3B4 JUMP JUMPDEST PUSH2 0x4BB PUSH2 0x4B6 CALLDATASIZE PUSH1 0x4 PUSH2 0x4B35 JUMP JUMPDEST PUSH2 0xC6E JUMP JUMPDEST PUSH1 0x40 MLOAD PUSH2 0x3BE SWAP2 SWAP1 PUSH2 0x4C8D JUMP JUMPDEST PUSH2 0x4D2 PUSH3 0x2A300 DUP2 JUMP JUMPDEST PUSH1 0x40 MLOAD PUSH1 0x1 PUSH1 0x1 PUSH1 0x60 SHL SUB SWAP1 SWAP2 AND DUP2 MSTORE PUSH1 0x20 ADD PUSH2 0x3BE JUMP JUMPDEST PUSH2 0x443 PUSH32 0x0 DUP2 JUMP JUMPDEST PUSH2 0x3B4 PUSH2 0x51F CALLDATASIZE PUSH1 0x4 PUSH2 0x4CB3 JUMP JUMPDEST PUSH2 0xD96 JUMP JUMPDEST PUSH2 0x3B4 PUSH2 0x532 CALLDATASIZE PUSH1 0x4 PUSH2 0x4CDC JUMP JUMPDEST PUSH2 0x11B8 JUMP JUMPDEST PUSH2 0x42E PUSH2 0x545 CALLDATASIZE PUSH1 0x4 PUSH2 0x4E3A JUMP JUMPDEST PUSH2 0x127E JUMP JUMPDEST PUSH2 0x42E PUSH2 0x558 CALLDATASIZE PUSH1 0x4 PUSH2 0x4EFC JUMP JUMPDEST PUSH2 0x1303 JUMP JUMPDEST PUSH2 0x42E PUSH2 0x56B CALLDATASIZE PUSH1 0x4 PUSH2 0x4B35 JUMP JUMPDEST PUSH2 0x139A JUMP JUMPDEST PUSH2 0x42E PUSH2 0x57E CALLDATASIZE PUSH1 0x4 PUSH2 0x4EFC JUMP JUMPDEST PUSH2 0x13E2 JUMP JUMPDEST PUSH2 0x42E PUSH2 0x591 CALLDATASIZE PUSH1 0x4 PUSH2 0x4B35 JUMP JUMPDEST PUSH2 0x148F JUMP JUMPDEST PUSH2 0x42E PUSH2 0x5A4 CALLDATASIZE PUSH1 0x4 PUSH2 0x4F15 JUMP JUMPDEST PUSH2 0x16BA JUMP JUMPDEST PUSH1 0x9 SLOAD PUSH2 0x46B SWAP1 PUSH1 0x1 PUSH1 0xA0 SHL SWAP1 DIV PUSH4 0xFFFFFFFF AND DUP2 JUMP JUMPDEST PUSH2 0x3B4 PUSH2 0x5CE CALLDATASIZE PUSH1 0x4 PUSH2 0x4F73 JUMP JUMPDEST PUSH2 0x1735 JUMP JUMPDEST PUSH2 0x42E PUSH2 0x5E1 CALLDATASIZE PUSH1 0x4 PUSH2 0x4EFC JUMP JUMPDEST PUSH2 0x18EE JUMP JUMPDEST PUSH2 0x5F9 PUSH2 0x5F4 CALLDATASIZE PUSH1 0x4 PUSH2 0x4FBB JUMP JUMPDEST PUSH2 0x1984 JUMP JUMPDEST PUSH1 0x40 MLOAD PUSH2 0x3BE SWAP2 SWAP1 PUSH2 0x50B8 JUMP JUMPDEST PUSH2 0x3DA PUSH2 0x614 CALLDATASIZE PUSH1 0x4 PUSH2 0x4B35 JUMP JUMPDEST PUSH0 SWAP1 DUP2 MSTORE PUSH1 0x4 PUSH1 0x20 MSTORE PUSH1 0x40 SWAP1 KECCAK256 SLOAD ISZERO ISZERO SWAP1 JUMP JUMPDEST PUSH2 0x3B4 PUSH2 0x635 CALLDATASIZE PUSH1 0x4 PUSH2 0x50CA JUMP JUMPDEST PUSH2 0x1A4F JUMP JUMPDEST PUSH2 0x42E PUSH2 0x648 CALLDATASIZE PUSH1 0x4 PUSH2 0x4F15 JUMP JUMPDEST PUSH2 0x1F5D JUMP JUMPDEST PUSH2 0x42E PUSH2 0x65B CALLDATASIZE PUSH1 0x4 PUSH2 0x4CDC JUMP JUMPDEST PUSH2 0x1FC0 JUMP JUMPDEST PUSH2 0x42E PUSH2 0x66E CALLDATASIZE PUSH1 0x4 PUSH2 0x4B35 JUMP JUMPDEST PUSH2 0x2199 JUMP JUMPDEST PUSH1 0x9 SLOAD PUSH2 0x46B SWAP1 PUSH1 0x1 PUSH1 0xE0 SHL SWAP1 DIV PUSH4 0xFFFFFFFF AND DUP2 JUMP JUMPDEST PUSH2 0x42E PUSH2 0x698 CALLDATASIZE PUSH1 0x4 PUSH2 0x4B35 JUMP JUMPDEST PUSH2 0x2492 JUMP JUMPDEST PUSH2 0x42E PUSH2 0x26B7 JUMP JUMPDEST PUSH2 0x3B4 PUSH2 0x6B3 CALLDATASIZE PUSH1 0x4 PUSH2 0x5114 JUMP JUMPDEST PUSH2 0x26CA JUMP JUMPDEST PUSH1 0x7 SLOAD PUSH2 0x3DA SWAP1 PUSH1 0xFF AND DUP2 JUMP JUMPDEST PUSH2 0x3B4 PUSH1 0x8 SLOAD DUP2 JUMP JUMPDEST PUSH2 0x42E PUSH2 0x6DC CALLDATASIZE PUSH1 0x4 PUSH2 0x4CDC JUMP JUMPDEST PUSH2 0x2C2F JUMP JUMPDEST PUSH2 0x443 PUSH32 0x0 DUP2 JUMP JUMPDEST PUSH2 0x3B4 PUSH2 0x716 CALLDATASIZE PUSH1 0x4 PUSH2 0x51A7 JUMP JUMPDEST PUSH2 0x2F27 JUMP JUMPDEST PUSH0 SLOAD PUSH1 0x1 PUSH1 0x1 PUSH1 0xA0 SHL SUB AND PUSH2 0x443 JUMP JUMPDEST PUSH2 0x4D2 PUSH1 0x1E DUP2 JUMP JUMPDEST PUSH2 0x42E PUSH2 0x741 CALLDATASIZE PUSH1 0x4 PUSH2 0x4EFC JUMP JUMPDEST PUSH2 0x358F JUMP JUMPDEST PUSH1 0x9 SLOAD PUSH2 0x46B SWAP1 PUSH1 0x1 PUSH1 0xC0 SHL SWAP1 DIV PUSH4 0xFFFFFFFF AND DUP2 JUMP JUMPDEST PUSH2 0x42E PUSH2 0x76B CALLDATASIZE PUSH1 0x4 PUSH2 0x5205 JUMP JUMPDEST PUSH2 0x3625 JUMP JUMPDEST PUSH2 0x42E PUSH2 0x77E CALLDATASIZE PUSH1 0x4 PUSH2 0x4EFC JUMP JUMPDEST PUSH2 0x3630 JUMP JUMPDEST PUSH2 0x3DA PUSH2 0x791 CALLDATASIZE PUSH1 0x4 PUSH2 0x4F73 JUMP JUMPDEST PUSH2 0x36C5 JUMP JUMPDEST PUSH1 0x9 SLOAD PUSH2 0x46B SWAP1 PUSH1 0x1 PUSH1 0x60 SHL SWAP1 DIV PUSH4 0xFFFFFFFF AND DUP2 JUMP JUMPDEST PUSH2 0x42E PUSH2 0x7BB CALLDATASIZE PUSH1 0x4 PUSH2 0x4EFC JUMP JUMPDEST PUSH2 0x383C JUMP JUMPDEST PUSH1 0x9 SLOAD PUSH2 0x46B SWAP1 PUSH4 0xFFFFFFFF AND DUP2 JUMP JUMPDEST PUSH1 0x9 SLOAD PUSH2 0x46B SWAP1 PUSH1 0x1 PUSH1 0x40 SHL SWAP1 DIV PUSH4 0xFFFFFFFF AND DUP2 JUMP JUMPDEST PUSH1 0x9 SLOAD PUSH2 0x46B SWAP1 PUSH5 0x100000000 SWAP1 DIV PUSH4 0xFFFFFFFF AND DUP2 JUMP JUMPDEST PUSH2 0x3B4 PUSH2 0x80D CALLDATASIZE PUSH1 0x4 PUSH2 0x4B35 JUMP JUMPDEST PUSH0 SWAP1 DUP2 MSTORE PUSH1 0x4 PUSH1 0x20 MSTORE PUSH1 0x40 SWAP1 KECCAK256 SLOAD SWAP1 JUMP JUMPDEST PUSH2 0x42E PUSH2 0x82C CALLDATASIZE PUSH1 0x4 PUSH2 0x4EFC JUMP JUMPDEST PUSH2 0x388C JUMP JUMPDEST PUSH1 0xA SLOAD PUSH2 0x443 SWAP1 PUSH5 0x100000000 SWAP1 DIV PUSH1 0x1 PUSH1 0x1 PUSH1 0xA0 SHL SUB AND DUP2 JUMP JUMPDEST PUSH2 0x3B4 PUSH2 0x85A CALLDATASIZE PUSH1 0x4 PUSH2 0x4B35 JUMP JUMPDEST PUSH2 0x38F4 JUMP JUMPDEST PUSH2 0x42E PUSH2 0x86D CALLDATASIZE PUSH1 0x4 PUSH2 0x4F73 JUMP JUMPDEST PUSH2 0x3A5D JUMP JUMPDEST PUSH1 0x9 SLOAD PUSH2 0x46B SWAP1 PUSH1 0x1 PUSH1 0x80 SHL SWAP1 DIV PUSH4 0xFFFFFFFF AND DUP2 JUMP JUMPDEST PUSH2 0x3DA PUSH2 0x897 CALLDATASIZE PUSH1 0x4 PUSH2 0x523E JUMP JUMPDEST PUSH1 0x1 PUSH1 0x1 PUSH1 0xA0 SHL SUB SWAP2 DUP3 AND PUSH0 SWAP1 DUP2 MSTORE PUSH1 0x2 PUSH1 0x20 SWAP1 DUP2 MSTORE PUSH1 0x40 DUP1 DUP4 KECCAK256 SWAP4 SWAP1 SWAP5 AND DUP3 MSTORE SWAP2 SWAP1 SWAP2 MSTORE KECCAK256 SLOAD PUSH1 0xFF AND SWAP1 JUMP JUMPDEST PUSH2 0x42E PUSH2 0x8D2 CALLDATASIZE PUSH1 0x4 PUSH2 0x4EFC JUMP JUMPDEST PUSH2 0x3DCD JUMP JUMPDEST PUSH2 0x42E PUSH2 0x8E5 CALLDATASIZE PUSH1 0x4 PUSH2 0x4EFC JUMP JUMPDEST PUSH2 0x3E51 JUMP JUMPDEST PUSH2 0x42E PUSH2 0x8F8 CALLDATASIZE PUSH1 0x4 PUSH2 0x526F JUMP JUMPDEST PUSH2 0x3EB2 JUMP JUMPDEST PUSH2 0x42E PUSH2 0x90B CALLDATASIZE PUSH1 0x4 PUSH2 0x4F15 JUMP JUMPDEST PUSH2 0x3F2F JUMP JUMPDEST PUSH0 DUP2 DUP2 MSTORE PUSH1 0x1 PUSH1 0x20 SWAP1 DUP2 MSTORE PUSH1 0x40 DUP1 DUP4 KECCAK256 PUSH1 0x1 PUSH1 0x1 PUSH1 0xA0 SHL SUB DUP7 AND DUP5 MSTORE SWAP1 SWAP2 MSTORE SWAP1 KECCAK256 SLOAD JUMPDEST SWAP3 SWAP2 POP POP JUMP JUMPDEST PUSH0 PUSH1 0x1 PUSH1 0x1 PUSH1 0xE0 SHL SUB NOT DUP3 AND PUSH32 0xD9B67A2600000000000000000000000000000000000000000000000000000000 EQ DUP1 PUSH2 0x99B JUMPI POP PUSH1 0x1 PUSH1 0x1 PUSH1 0xE0 SHL SUB NOT DUP3 AND PUSH32 0xE89341C00000000000000000000000000000000000000000000000000000000 EQ JUMPDEST DUP1 PUSH2 0x933 JUMPI POP PUSH32 0x1FFC9A700000000000000000000000000000000000000000000000000000000 PUSH1 0x1 PUSH1 0x1 PUSH1 0xE0 SHL SUB NOT DUP4 AND EQ PUSH2 0x933 JUMP JUMPDEST PUSH1 0x40 DUP1 MLOAD PUSH2 0x100 DUP2 ADD DUP3 MSTORE PUSH0 DUP1 DUP3 MSTORE PUSH1 0x20 DUP3 ADD DUP2 SWAP1 MSTORE SWAP2 DUP2 ADD DUP3 SWAP1 MSTORE PUSH1 0x60 DUP2 ADD DUP3 SWAP1 MSTORE PUSH1 0x80 DUP2 ADD DUP3 SWAP1 MSTORE PUSH1 0xA0 DUP2 ADD DUP3 SWAP1 MSTORE PUSH1 0xC0 DUP2 ADD DUP3 SWAP1 MSTORE PUSH1 0xE0 DUP2 ADD SWAP2 SWAP1 SWAP2 MSTORE PUSH1 0x40 DUP1 MLOAD PUSH1 0xA0 DUP2 ADD DUP3 MSTORE PUSH0 DUP1 DUP3 MSTORE PUSH1 0x20 DUP3 ADD DUP2 SWAP1 MSTORE SWAP2 DUP2 ADD DUP3 SWAP1 MSTORE PUSH1 0x60 DUP2 ADD DUP3 SWAP1 MSTORE PUSH1 0x80 DUP2 ADD SWAP2 SWAP1 SWAP2 MSTORE PUSH0 DUP4 PUSH0 DUP2 GT DUP1 ISZERO PUSH2 0xA4F JUMPI POP PUSH1 0xE SLOAD DUP2 LT JUMPDEST PUSH2 0xA93 JUMPI PUSH1 0x40 MLOAD PUSH3 0x461BCD PUSH1 0xE5 SHL DUP2 MSTORE PUSH1 0x20 PUSH1 0x4 DUP3 ADD MSTORE PUSH1 0x10 PUSH1 0x24 DUP3 ADD MSTORE PUSH16 0x496E76616C6964204C6F616E20494421 PUSH1 0x80 SHL PUSH1 0x44 DUP3 ADD MSTORE PUSH1 0x64 ADD JUMPDEST PUSH1 0x40 MLOAD DUP1 SWAP2 SUB SWAP1 REVERT JUMPDEST POP POP POP PUSH0 SWAP2 DUP3 MSTORE POP PUSH1 0xC PUSH1 0x20 SWAP1 DUP2 MSTORE PUSH1 0x40 DUP1 DUP4 KECCAK256 PUSH1 0xD DUP4 MSTORE DUP2 DUP5 KECCAK256 PUSH1 0x4 DUP5 MSTORE SWAP4 DUP3 SWAP1 KECCAK256 SLOAD DUP3 MLOAD PUSH2 0x100 DUP2 ADD DUP5 MSTORE DUP3 SLOAD DUP2 MSTORE PUSH1 0x1 DUP1 DUP5 ADD SLOAD DUP3 DUP8 ADD MSTORE PUSH1 0x2 DUP1 DUP6 ADD SLOAD PUSH1 0x1 PUSH1 0x1 PUSH1 0xA0 SHL SUB DUP1 DUP3 AND DUP6 DUP10 ADD MSTORE PUSH1 0x1 PUSH1 0x1 PUSH1 0x60 SHL SUB PUSH1 0x1 PUSH1 0xA0 SHL SWAP3 DUP4 SWAP1 DIV DUP2 AND PUSH1 0x60 DUP1 DUP9 ADD SWAP2 SWAP1 SWAP2 MSTORE PUSH1 0x3 SWAP9 DUP10 ADD SLOAD PUSH4 0xFFFFFFFF DUP1 DUP3 AND PUSH1 0x80 DUP1 DUP12 ADD SWAP2 SWAP1 SWAP2 MSTORE PUSH5 0x100000000 DUP4 DIV DUP3 AND PUSH1 0xA0 DUP1 DUP13 ADD SWAP2 SWAP1 SWAP2 MSTORE PUSH1 0x1 PUSH1 0x40 SHL DUP5 DIV SWAP1 SWAP3 AND PUSH1 0xC0 DUP12 ADD MSTORE PUSH1 0x1 PUSH1 0x60 SHL SWAP1 SWAP3 DIV DUP5 AND PUSH1 0xE0 DUP11 ADD MSTORE DUP12 MLOAD SWAP1 DUP2 ADD DUP13 MSTORE DUP14 SLOAD SWAP5 DUP6 AND DUP2 MSTORE SWAP5 SWAP1 SWAP4 DIV DUP3 AND SWAP11 DUP5 ADD SWAP11 SWAP1 SWAP11 MSTORE SWAP4 DUP11 ADD SLOAD SWAP8 DUP3 ADD SWAP8 SWAP1 SWAP8 MSTORE SWAP1 DUP9 ADD SLOAD SWAP7 DUP2 ADD SWAP7 SWAP1 SWAP7 MSTORE SWAP3 SWAP1 SWAP6 ADD SLOAD SWAP1 SWAP2 AND SWAP2 DUP4 ADD SWAP2 SWAP1 SWAP2 MSTORE SWAP2 SWAP3 SWAP1 SWAP2 SWAP1 JUMP JUMPDEST PUSH2 0xB96 PUSH2 0x3F82 JUMP JUMPDEST PUSH1 0x7 SLOAD PUSH1 0xFF AND ISZERO PUSH2 0xBA5 JUMPI PUSH0 PUSH0 REVERT JUMPDEST PUSH1 0x7 DUP1 SLOAD PUSH1 0xFF NOT AND PUSH1 0x1 OR SWAP1 SSTORE PUSH1 0x40 MLOAD PUSH32 0x7ACC84E34091AE817647A4C49116F5CC07F319078BA80F8F5FDE37EA7E25CBD6 SWAP1 PUSH0 SWAP1 LOG1 JUMP JUMPDEST PUSH1 0x60 PUSH1 0x3 DUP1 SLOAD PUSH2 0xBEB SWAP1 PUSH2 0x52C3 JUMP JUMPDEST DUP1 PUSH1 0x1F ADD PUSH1 0x20 DUP1 SWAP2 DIV MUL PUSH1 0x20 ADD PUSH1 0x40 MLOAD SWAP1 DUP2 ADD PUSH1 0x40 MSTORE DUP1 SWAP3 SWAP2 SWAP1 DUP2 DUP2 MSTORE PUSH1 0x20 ADD DUP3 DUP1 SLOAD PUSH2 0xC17 SWAP1 PUSH2 0x52C3 JUMP JUMPDEST DUP1 ISZERO PUSH2 0xC62 JUMPI DUP1 PUSH1 0x1F LT PUSH2 0xC39 JUMPI PUSH2 0x100 DUP1 DUP4 SLOAD DIV MUL DUP4 MSTORE SWAP2 PUSH1 0x20 ADD SWAP2 PUSH2 0xC62 JUMP JUMPDEST DUP3 ADD SWAP2 SWAP1 PUSH0 MSTORE PUSH1 0x20 PUSH0 KECCAK256 SWAP1 JUMPDEST DUP2 SLOAD DUP2 MSTORE SWAP1 PUSH1 0x1 ADD SWAP1 PUSH1 0x20 ADD DUP1 DUP4 GT PUSH2 0xC45 JUMPI DUP3 SWAP1 SUB PUSH1 0x1F AND DUP3 ADD SWAP2 JUMPDEST POP POP POP POP POP SWAP1 POP SWAP2 SWAP1 POP JUMP JUMPDEST PUSH0 DUP2 DUP2 MSTORE PUSH1 0xC PUSH1 0x20 SWAP1 DUP2 MSTORE PUSH1 0x40 DUP1 DUP4 KECCAK256 PUSH1 0xD SWAP1 SWAP3 MSTORE DUP3 KECCAK256 DUP2 SLOAD DUP4 SUB PUSH2 0xC96 JUMPI POP PUSH0 SWAP4 SWAP3 POP POP POP JUMP JUMPDEST DUP1 SLOAD PUSH1 0x1 PUSH1 0x1 PUSH1 0xA0 SHL SUB AND ISZERO DUP1 ISZERO PUSH2 0xCB9 JUMPI POP PUSH0 DUP5 DUP2 MSTORE PUSH1 0x4 PUSH1 0x20 MSTORE PUSH1 0x40 SWAP1 KECCAK256 SLOAD ISZERO JUMPDEST DUP1 PUSH2 0xCDA JUMPI POP DUP1 SLOAD PUSH1 0x1 PUSH1 0x1 PUSH1 0xA0 SHL SUB AND ISZERO DUP1 ISZERO SWAP1 PUSH2 0xCDA JUMPI POP PUSH1 0x1 DUP2 ADD SLOAD ISZERO JUMPDEST ISZERO PUSH2 0xCE9 JUMPI POP PUSH1 0x5 SWAP4 SWAP3 POP POP POP JUMP JUMPDEST DUP1 SLOAD PUSH1 0x1 PUSH1 0xA0 SHL SWAP1 DIV PUSH1 0x1 PUSH1 0x1 PUSH1 0x60 SHL SUB AND PUSH0 SUB PUSH2 0xD65 JUMPI PUSH1 0x3 DUP2 ADD SLOAD PUSH1 0x1 PUSH1 0x1 PUSH1 0x60 SHL SUB AND ISZERO DUP1 ISZERO SWAP1 PUSH2 0xD2C JUMPI POP PUSH1 0x3 DUP2 ADD SLOAD PUSH1 0x1 PUSH1 0x1 PUSH1 0x60 SHL SUB TIMESTAMP DUP2 AND SWAP2 AND LT JUMPDEST ISZERO PUSH2 0xD3B JUMPI POP PUSH1 0x3 SWAP4 SWAP3 POP POP POP JUMP JUMPDEST PUSH0 DUP5 DUP2 MSTORE PUSH1 0x4 PUSH1 0x20 MSTORE PUSH1 0x40 SWAP1 KECCAK256 SLOAD DUP3 SLOAD GT ISZERO PUSH2 0xD5B JUMPI POP PUSH1 0x1 SWAP4 SWAP3 POP POP POP JUMP JUMPDEST POP PUSH1 0x2 SWAP4 SWAP3 POP POP POP JUMP JUMPDEST PUSH1 0x1 DUP2 ADD SLOAD ISZERO PUSH2 0xD8C JUMPI PUSH0 DUP5 DUP2 MSTORE PUSH1 0x4 PUSH1 0x20 MSTORE PUSH1 0x40 SWAP1 KECCAK256 SLOAD ISZERO PUSH2 0xD8C JUMPI POP PUSH1 0x4 SWAP4 SWAP3 POP POP POP JUMP JUMPDEST POP PUSH1 0x5 SWAP4 SWAP3 POP POP POP JUMP JUMPDEST PUSH0 PUSH2 0xD9F PUSH2 0x3FC7 JUMP JUMPDEST DUP4 PUSH0 DUP2 GT DUP1 ISZERO PUSH2 0xDB0 JUMPI POP PUSH1 0xE SLOAD DUP2 LT JUMPDEST PUSH2 0xDEF JUMPI PUSH1 0x40 MLOAD PUSH3 0x461BCD PUSH1 0xE5 SHL DUP2 MSTORE PUSH1 0x20 PUSH1 0x4 DUP3 ADD MSTORE PUSH1 0x10 PUSH1 0x24 DUP3 ADD MSTORE PUSH16 0x496E76616C6964204C6F616E20494421 PUSH1 0x80 SHL PUSH1 0x44 DUP3 ADD MSTORE PUSH1 0x64 ADD PUSH2 0xA8A JUMP JUMPDEST PUSH0 DUP5 GT DUP1 ISZERO PUSH2 0xDFE JUMPI POP DUP3 DUP5 LT ISZERO JUMPDEST PUSH2 0xE70 JUMPI PUSH1 0x40 MLOAD PUSH3 0x461BCD PUSH1 0xE5 SHL DUP2 MSTORE PUSH1 0x20 PUSH1 0x4 DUP3 ADD MSTORE PUSH1 0x32 PUSH1 0x24 DUP3 ADD MSTORE PUSH32 0x5032504C656E64696E6720726571756972653A7461726765745F6C6F74733E30 PUSH1 0x44 DUP3 ADD MSTORE PUSH32 0x202626206C6F74733E3D6D696E5F6C6F74730000000000000000000000000000 PUSH1 0x64 DUP3 ADD MSTORE PUSH1 0x84 ADD PUSH2 0xA8A JUMP JUMPDEST PUSH1 0x1 PUSH2 0xE7B DUP7 PUSH2 0xC6E JUMP JUMPDEST PUSH1 0x5 DUP2 GT ISZERO PUSH2 0xE8C JUMPI PUSH2 0xE8C PUSH2 0x4C79 JUMP JUMPDEST EQ PUSH2 0xEFF JUMPI PUSH1 0x40 MLOAD PUSH3 0x461BCD PUSH1 0xE5 SHL DUP2 MSTORE PUSH1 0x20 PUSH1 0x4 DUP3 ADD MSTORE PUSH1 0x2B PUSH1 0x24 DUP3 ADD MSTORE PUSH32 0x5032504C656E64696E673A4C6F616E537461747573206E6F7420657175616C73 PUSH1 0x44 DUP3 ADD MSTORE PUSH32 0x2046494E414E43494E4721000000000000000000000000000000000000000000 PUSH1 0x64 DUP3 ADD MSTORE PUSH1 0x84 ADD PUSH2 0xA8A JUMP JUMPDEST PUSH0 DUP6 DUP2 MSTORE PUSH1 0xC PUSH1 0x20 SWAP1 DUP2 MSTORE PUSH1 0x40 DUP1 DUP4 KECCAK256 PUSH1 0x4 SWAP1 SWAP3 MSTORE DUP3 KECCAK256 SLOAD SWAP1 SWAP2 SWAP1 DUP3 SLOAD PUSH2 0xF26 SWAP2 SWAP1 PUSH2 0x530F JUMP JUMPDEST SWAP1 POP DUP5 DUP2 LT ISZERO PUSH2 0xF9E JUMPI PUSH1 0x40 MLOAD PUSH3 0x461BCD PUSH1 0xE5 SHL DUP2 MSTORE PUSH1 0x20 PUSH1 0x4 DUP3 ADD MSTORE PUSH1 0x25 PUSH1 0x24 DUP3 ADD MSTORE PUSH32 0x5032504C656E64696E673A4E6F7420656E6F75676820617661696C61626C6520 PUSH1 0x44 DUP3 ADD MSTORE PUSH32 0x6C6F747321000000000000000000000000000000000000000000000000000000 PUSH1 0x64 DUP3 ADD MSTORE PUSH1 0x84 ADD PUSH2 0xA8A JUMP JUMPDEST PUSH0 PUSH2 0xFA9 DUP8 DUP4 PUSH2 0x400A JUMP JUMPDEST SWAP1 POP PUSH2 0xFF2 CALLER ADDRESS DUP4 DUP7 PUSH1 0x1 ADD SLOAD PUSH2 0xFC0 SWAP2 SWAP1 PUSH2 0x5322 JUMP JUMPDEST PUSH1 0x1 PUSH1 0x1 PUSH1 0xA0 SHL SUB PUSH32 0x0 AND SWAP3 SWAP2 SWAP1 PUSH2 0x4019 JUMP JUMPDEST PUSH2 0x100C CALLER DUP10 DUP4 PUSH1 0x40 MLOAD DUP1 PUSH1 0x20 ADD PUSH1 0x40 MSTORE DUP1 PUSH0 DUP2 MSTORE POP PUSH2 0x409B JUMP JUMPDEST DUP3 SLOAD PUSH0 DUP10 DUP2 MSTORE PUSH1 0x4 PUSH1 0x20 MSTORE PUSH1 0x40 SWAP1 KECCAK256 SLOAD GT ISZERO PUSH2 0x1090 JUMPI PUSH1 0x40 MLOAD PUSH3 0x461BCD PUSH1 0xE5 SHL DUP2 MSTORE PUSH1 0x20 PUSH1 0x4 DUP3 ADD MSTORE PUSH1 0x28 PUSH1 0x24 DUP3 ADD MSTORE PUSH32 0x5032504C656E64696E6720726571756972653A737570706C793C3D6C6F74735F PUSH1 0x44 DUP3 ADD MSTORE PUSH32 0x7265717569726564000000000000000000000000000000000000000000000000 PUSH1 0x64 DUP3 ADD MSTORE PUSH1 0x84 ADD PUSH2 0xA8A JUMP JUMPDEST DUP3 SLOAD PUSH0 DUP10 DUP2 MSTORE PUSH1 0x4 PUSH1 0x20 MSTORE PUSH1 0x40 SWAP1 KECCAK256 SLOAD TIMESTAMP SWAP2 SWAP1 SUB PUSH2 0x1122 JUMPI PUSH2 0x10B5 PUSH3 0x2A300 DUP3 PUSH2 0x5339 JUMP JUMPDEST PUSH0 DUP11 DUP2 MSTORE PUSH1 0xD PUSH1 0x20 SWAP1 DUP2 MSTORE PUSH1 0x40 SWAP2 DUP3 SWAP1 KECCAK256 PUSH1 0x3 ADD DUP1 SLOAD PUSH12 0xFFFFFFFFFFFFFFFFFFFFFFFF NOT AND PUSH1 0x1 PUSH1 0x1 PUSH1 0x60 SHL SUB SWAP5 SWAP1 SWAP5 AND SWAP4 DUP5 OR SWAP1 SSTORE SWAP1 MLOAD SWAP2 DUP3 MSTORE DUP11 SWAP2 PUSH32 0x6FCE911D7163D1242CD9F1727A93EB2D9232BB808DB0881B448196DCD2FE412D SWAP2 ADD PUSH1 0x40 MLOAD DUP1 SWAP2 SUB SWAP1 LOG2 PUSH2 0x116A JUMP JUMPDEST PUSH2 0x112D PUSH1 0x1E DUP3 PUSH2 0x5339 JUMP JUMPDEST CALLER PUSH0 SWAP1 DUP2 MSTORE PUSH1 0xF PUSH1 0x20 SWAP1 DUP2 MSTORE PUSH1 0x40 DUP1 DUP4 KECCAK256 DUP14 DUP5 MSTORE SWAP1 SWAP2 MSTORE SWAP1 KECCAK256 DUP1 SLOAD PUSH12 0xFFFFFFFFFFFFFFFFFFFFFFFF NOT AND PUSH1 0x1 PUSH1 0x1 PUSH1 0x60 SHL SUB SWAP3 SWAP1 SWAP3 AND SWAP2 SWAP1 SWAP2 OR SWAP1 SSTORE JUMPDEST PUSH1 0x40 MLOAD DUP3 DUP2 MSTORE CALLER SWAP1 DUP11 SWAP1 PUSH32 0xBC00F64D7F7FDD45626F23C5B8BFA1C1B8E64FAF4200EFB7DA5A7439A326F955 SWAP1 PUSH1 0x20 ADD PUSH1 0x40 MLOAD DUP1 SWAP2 SUB SWAP1 LOG3 POP SWAP4 POP POP POP POP PUSH2 0x11B1 PUSH1 0x1 PUSH1 0x6 SSTORE JUMP JUMPDEST SWAP4 SWAP3 POP POP POP JUMP JUMPDEST PUSH0 DUP3 PUSH0 DUP2 GT DUP1 ISZERO PUSH2 0x11CA JUMPI POP PUSH1 0xE SLOAD DUP2 LT JUMPDEST PUSH2 0x1209 JUMPI PUSH1 0x40 MLOAD PUSH3 0x461BCD PUSH1 0xE5 SHL DUP2 MSTORE PUSH1 0x20 PUSH1 0x4 DUP3 ADD MSTORE PUSH1 0x10 PUSH1 0x24 DUP3 ADD MSTORE PUSH16 0x496E76616C6964204C6F616E20494421 PUSH1 0x80 SHL PUSH1 0x44 DUP3 ADD MSTORE PUSH1 0x64 ADD PUSH2 0xA8A JUMP JUMPDEST PUSH0 DUP5 DUP2 MSTORE PUSH1 0x4 PUSH1 0x20 MSTORE PUSH1 0x40 SWAP1 KECCAK256 SLOAD DUP1 ISZERO PUSH2 0x1272 JUMPI PUSH0 DUP6 DUP2 MSTORE PUSH1 0xD PUSH1 0x20 MSTORE PUSH1 0x40 DUP2 KECCAK256 PUSH1 0x2 ADD SLOAD ISZERO PUSH2 0x1249 JUMPI PUSH0 DUP7 DUP2 MSTORE PUSH1 0xD PUSH1 0x20 MSTORE PUSH1 0x40 SWAP1 KECCAK256 PUSH1 0x2 ADD SLOAD PUSH2 0x1252 JUMP JUMPDEST PUSH2 0x1252 DUP7 PUSH2 0x38F4 JUMP JUMPDEST SWAP1 POP DUP2 PUSH2 0x125F DUP3 DUP8 PUSH2 0x5322 JUMP JUMPDEST PUSH2 0x1269 SWAP2 SWAP1 PUSH2 0x5358 JUMP JUMPDEST SWAP4 POP POP POP PUSH2 0x1277 JUMP JUMPDEST PUSH0 SWAP3 POP POP JUMPDEST POP SWAP3 SWAP2 POP POP JUMP JUMPDEST CALLER PUSH1 0x1 PUSH1 0x1 PUSH1 0xA0 SHL SUB DUP7 AND DUP2 EQ DUP1 ISZERO SWAP1 PUSH2 0x12BD JUMPI POP PUSH1 0x1 PUSH1 0x1 PUSH1 0xA0 SHL SUB DUP1 DUP8 AND PUSH0 SWAP1 DUP2 MSTORE PUSH1 0x2 PUSH1 0x20 SWAP1 DUP2 MSTORE PUSH1 0x40 DUP1 DUP4 KECCAK256 SWAP4 DUP6 AND DUP4 MSTORE SWAP3 SWAP1 MSTORE KECCAK256 SLOAD PUSH1 0xFF AND ISZERO JUMPDEST ISZERO PUSH2 0x12EE JUMPI PUSH1 0x40 MLOAD PUSH4 0x711BEC91 PUSH1 0xE1 SHL DUP2 MSTORE PUSH1 0x1 PUSH1 0x1 PUSH1 0xA0 SHL SUB DUP1 DUP4 AND PUSH1 0x4 DUP4 ADD MSTORE DUP8 AND PUSH1 0x24 DUP3 ADD MSTORE PUSH1 0x44 ADD PUSH2 0xA8A JUMP JUMPDEST PUSH2 0x12FB DUP7 DUP7 DUP7 DUP7 DUP7 PUSH2 0x40F6 JUMP JUMPDEST POP POP POP POP POP POP JUMP JUMPDEST PUSH2 0x130B PUSH2 0x3F82 JUMP JUMPDEST PUSH0 DUP2 PUSH4 0xFFFFFFFF AND GT PUSH2 0x131C JUMPI PUSH0 PUSH0 REVERT JUMPDEST PUSH1 0x9 SLOAD PUSH4 0xFFFFFFFF DUP1 DUP4 AND PUSH1 0x1 PUSH1 0x40 SHL SWAP1 SWAP3 DIV AND LT ISZERO PUSH2 0x133A JUMPI PUSH0 PUSH0 REVERT JUMPDEST PUSH1 0x9 DUP1 SLOAD PUSH8 0xFFFFFFFF00000000 NOT AND PUSH5 0x100000000 PUSH4 0xFFFFFFFF DUP5 DUP2 AND DUP3 MUL SWAP3 SWAP1 SWAP3 OR SWAP3 DUP4 SWAP1 SSTORE PUSH1 0x40 MLOAD SWAP3 DIV AND DUP2 MSTORE PUSH32 0x85595CB7B81D221172988F4BF171B00745E5C6F4E17760CC33DD2F02DCB57AE4 SWAP1 PUSH1 0x20 ADD JUMPDEST PUSH1 0x40 MLOAD DUP1 SWAP2 SUB SWAP1 LOG1 POP JUMP JUMPDEST PUSH2 0x13A2 PUSH2 0x3F82 JUMP JUMPDEST PUSH0 DUP2 GT PUSH2 0x13AD JUMPI PUSH0 PUSH0 REVERT JUMPDEST PUSH1 0x8 DUP2 SWAP1 SSTORE PUSH1 0x40 MLOAD DUP2 DUP2 MSTORE PUSH32 0xDE6A3638493F2725F743C7C5C9801D3143C92F2ADF4825F0434DD9513B2943C7 SWAP1 PUSH1 0x20 ADD PUSH2 0x138F JUMP JUMPDEST PUSH2 0x13EA PUSH2 0x3F82 JUMP JUMPDEST PUSH2 0x13F6 PUSH1 0x4 PUSH1 0xA PUSH2 0x545A JUMP JUMPDEST DUP2 PUSH4 0xFFFFFFFF AND GT PUSH2 0x1406 JUMPI PUSH0 PUSH0 REVERT JUMPDEST PUSH1 0x9 SLOAD PUSH4 0xFFFFFFFF DUP1 DUP4 AND PUSH1 0x1 PUSH1 0xC0 SHL SWAP1 SWAP3 DIV AND LT ISZERO PUSH2 0x1424 JUMPI PUSH0 PUSH0 REVERT JUMPDEST PUSH1 0x9 DUP1 SLOAD PUSH28 0xFFFFFFFFFFFFFFFFFFFFFFFFFFFFFFFFFFFFFFFFFFFFFFFFFFFFFFFF AND PUSH1 0x1 PUSH1 0xE0 SHL PUSH4 0xFFFFFFFF DUP5 DUP2 AND DUP3 MUL SWAP3 SWAP1 SWAP3 OR SWAP3 DUP4 SWAP1 SSTORE PUSH1 0x40 MLOAD SWAP3 DIV AND DUP2 MSTORE PUSH32 0x89C571E0D88872F4418634E394070DBE24A78682B16A616B1F8E02A2939D421E SWAP1 PUSH1 0x20 ADD PUSH2 0x138F JUMP JUMPDEST PUSH2 0x1497 PUSH2 0x3FC7 JUMP JUMPDEST DUP1 PUSH0 DUP2 GT DUP1 ISZERO PUSH2 0x14A8 JUMPI POP PUSH1 0xE SLOAD DUP2 LT JUMPDEST PUSH2 0x14E7 JUMPI PUSH1 0x40 MLOAD PUSH3 0x461BCD PUSH1 0xE5 SHL DUP2 MSTORE PUSH1 0x20 PUSH1 0x4 DUP3 ADD MSTORE PUSH1 0x10 PUSH1 0x24 DUP3 ADD MSTORE PUSH16 0x496E76616C6964204C6F616E20494421 PUSH1 0x80 SHL PUSH1 0x44 DUP3 ADD MSTORE PUSH1 0x64 ADD PUSH2 0xA8A JUMP JUMPDEST PUSH1 0x4 PUSH2 0x14F2 DUP4 PUSH2 0xC6E JUMP JUMPDEST PUSH1 0x5 DUP2 GT ISZERO PUSH2 0x1503 JUMPI PUSH2 0x1503 PUSH2 0x4C79 JUMP JUMPDEST EQ PUSH2 0x1562 JUMPI PUSH1 0x40 MLOAD PUSH3 0x461BCD PUSH1 0xE5 SHL DUP2 MSTORE PUSH1 0x20 PUSH1 0x4 DUP3 ADD MSTORE PUSH1 0x29 PUSH1 0x24 DUP3 ADD MSTORE PUSH32 0x5032504C656E64696E673A4C6F616E537461747573206D75737420657175616C PUSH1 0x44 DUP3 ADD MSTORE PUSH9 0x732041435449564521 PUSH1 0xB8 SHL PUSH1 0x64 DUP3 ADD MSTORE PUSH1 0x84 ADD PUSH2 0xA8A JUMP JUMPDEST PUSH0 DUP3 DUP2 MSTORE PUSH1 0xD PUSH1 0x20 MSTORE PUSH1 0x40 SWAP1 KECCAK256 DUP1 SLOAD PUSH1 0x1 PUSH1 0x1 PUSH1 0xA0 SHL SUB AND CALLER EQ PUSH2 0x15C8 JUMPI PUSH1 0x40 MLOAD PUSH3 0x461BCD PUSH1 0xE5 SHL DUP2 MSTORE PUSH1 0x20 PUSH1 0x4 DUP3 ADD MSTORE PUSH1 0x1F PUSH1 0x24 DUP3 ADD MSTORE PUSH32 0x5032504C656E64696E673A43616C6C6572206973206E6F74206F776E65722100 PUSH1 0x44 DUP3 ADD MSTORE PUSH1 0x64 ADD PUSH2 0xA8A JUMP JUMPDEST PUSH0 PUSH2 0x15D2 DUP5 PUSH2 0x38F4 JUMP JUMPDEST DUP3 SLOAD SWAP1 SWAP2 POP PUSH2 0x160F SWAP1 PUSH1 0x1 PUSH1 0x1 PUSH1 0xA0 SHL SUB PUSH32 0x0 DUP2 AND SWAP2 AND ADDRESS DUP5 PUSH2 0x4019 JUMP JUMPDEST DUP1 DUP3 PUSH1 0x2 ADD PUSH0 DUP3 DUP3 SLOAD PUSH2 0x1622 SWAP2 SWAP1 PUSH2 0x5468 JUMP JUMPDEST SWAP1 SWAP2 SSTORE POP POP DUP2 SLOAD PUSH1 0x1 DUP4 ADD SLOAD PUSH2 0x1666 SWAP2 PUSH1 0x1 PUSH1 0x1 PUSH1 0xA0 SHL SUB PUSH32 0x0 DUP2 AND SWAP3 SWAP2 AND SWAP1 PUSH2 0x415B JUMP JUMPDEST PUSH0 PUSH1 0x1 DUP4 ADD SSTORE PUSH1 0x40 MLOAD DUP2 DUP2 MSTORE DUP5 SWAP1 PUSH32 0x552544CB36551120F07C66C5CD4B2987725A0C72198587F2CE796099BB66C58C SWAP1 PUSH1 0x20 ADD PUSH1 0x40 MLOAD DUP1 SWAP2 SUB SWAP1 LOG2 PUSH2 0x16AA DUP5 PUSH2 0x418C JUMP JUMPDEST POP POP POP PUSH2 0x16B7 PUSH1 0x1 PUSH1 0x6 SSTORE JUMP JUMPDEST POP JUMP JUMPDEST PUSH2 0x16C2 PUSH2 0x3F82 JUMP JUMPDEST PUSH1 0xA DUP1 SLOAD PUSH32 0xFFFFFFFFFFFFFFFF0000000000000000000000000000000000000000FFFFFFFF AND PUSH5 0x100000000 PUSH1 0x1 PUSH1 0x1 PUSH1 0xA0 SHL SUB DUP5 DUP2 AND DUP3 MUL SWAP3 SWAP1 SWAP3 OR SWAP3 DUP4 SWAP1 SSTORE PUSH1 0x40 MLOAD SWAP3 DIV AND DUP2 MSTORE PUSH32 0x15A6D8DBE28500FE360D4A194D18559AE45775C191765D262C598C2FCB59D967 SWAP1 PUSH1 0x20 ADD PUSH2 0x138F JUMP JUMPDEST PUSH0 DUP4 PUSH0 DUP2 GT DUP1 ISZERO PUSH2 0x1747 JUMPI POP PUSH1 0xE SLOAD DUP2 LT JUMPDEST PUSH2 0x1786 JUMPI PUSH1 0x40 MLOAD PUSH3 0x461BCD PUSH1 0xE5 SHL DUP2 MSTORE PUSH1 0x20 PUSH1 0x4 DUP3 ADD MSTORE PUSH1 0x10 PUSH1 0x24 DUP3 ADD MSTORE PUSH16 0x496E76616C6964204C6F616E20494421 PUSH1 0x80 SHL PUSH1 0x44 DUP3 ADD MSTORE PUSH1 0x64 ADD PUSH2 0xA8A JUMP JUMPDEST PUSH1 0x4 PUSH2 0x1791 DUP7 PUSH2 0xC6E JUMP JUMPDEST PUSH1 0x5 DUP2 GT ISZERO PUSH2 0x17A2 JUMPI PUSH2 0x17A2 PUSH2 0x4C79 JUMP JUMPDEST EQ PUSH2 0x1801 JUMPI PUSH1 0x40 MLOAD PUSH3 0x461BCD PUSH1 0xE5 SHL DUP2 MSTORE PUSH1 0x20 PUSH1 0x4 DUP3 ADD MSTORE PUSH1 0x29 PUSH1 0x24 DUP3 ADD MSTORE PUSH32 0x5032504C656E64696E673A4C6F616E537461747573206D75737420657175616C PUSH1 0x44 DUP3 ADD MSTORE PUSH9 0x732041435449564521 PUSH1 0xB8 SHL PUSH1 0x64 DUP3 ADD MSTORE PUSH1 0x84 ADD PUSH2 0xA8A JUMP JUMPDEST PUSH0 DUP6 DUP2 MSTORE PUSH1 0xC PUSH1 0x20 SWAP1 DUP2 MSTORE PUSH1 0x40 DUP1 DUP4 KECCAK256 PUSH1 0x2 ADD SLOAD PUSH1 0xD SWAP1 SWAP3 MSTORE SWAP1 SWAP2 KECCAK256 PUSH1 0x1 ADD SLOAD PUSH1 0x1 PUSH1 0x1 PUSH1 0xA0 SHL SUB SWAP1 SWAP2 AND SWAP1 PUSH4 0x4BBF415C SWAP1 PUSH32 0x0 SWAP1 PUSH1 0x4 SWAP1 PUSH32 0x0 PUSH2 0x1882 DUP12 PUSH2 0x38F4 JUMP JUMPDEST DUP11 DUP11 PUSH1 0x40 MLOAD DUP9 PUSH4 0xFFFFFFFF AND PUSH1 0xE0 SHL DUP2 MSTORE PUSH1 0x4 ADD PUSH2 0x18A6 SWAP8 SWAP7 SWAP6 SWAP5 SWAP4 SWAP3 SWAP2 SWAP1 PUSH2 0x54A3 JUMP JUMPDEST PUSH1 0x20 PUSH1 0x40 MLOAD DUP1 DUP4 SUB DUP2 DUP7 GAS STATICCALL ISZERO DUP1 ISZERO PUSH2 0x18C1 JUMPI RETURNDATASIZE PUSH0 PUSH0 RETURNDATACOPY RETURNDATASIZE PUSH0 REVERT JUMPDEST POP POP POP POP PUSH1 0x40 MLOAD RETURNDATASIZE PUSH1 0x1F NOT PUSH1 0x1F DUP3 ADD AND DUP3 ADD DUP1 PUSH1 0x40 MSTORE POP DUP2 ADD SWAP1 PUSH2 0x18E5 SWAP2 SWAP1 PUSH2 0x54F0 JUMP JUMPDEST SWAP6 SWAP5 POP POP POP POP POP JUMP JUMPDEST PUSH2 0x18F6 PUSH2 0x3F82 JUMP JUMPDEST PUSH1 0x9 SLOAD PUSH4 0xFFFFFFFF PUSH1 0x1 PUSH1 0x80 SHL SWAP1 SWAP2 DIV DUP2 AND SWAP1 DUP3 AND LT ISZERO PUSH2 0x1915 JUMPI PUSH0 PUSH0 REVERT JUMPDEST PUSH1 0x9 DUP1 SLOAD PUSH32 0xFFFFFFFFFFFFFFFF00000000FFFFFFFFFFFFFFFFFFFFFFFFFFFFFFFFFFFFFFFF AND PUSH1 0x1 PUSH1 0xA0 SHL PUSH4 0xFFFFFFFF DUP5 DUP2 AND DUP3 MUL SWAP3 SWAP1 SWAP3 OR SWAP3 DUP4 SWAP1 SSTORE PUSH1 0x40 MLOAD SWAP3 DIV AND DUP2 MSTORE PUSH32 0x7B0FFAC54449EDEFE5C8B153777B5873E7673D02C8AC936F3CB37A9A2B9E00D5 SWAP1 PUSH1 0x20 ADD PUSH2 0x138F JUMP JUMPDEST PUSH1 0x60 DUP2 MLOAD DUP4 MLOAD EQ PUSH2 0x19B5 JUMPI DUP2 MLOAD DUP4 MLOAD PUSH1 0x40 MLOAD PUSH4 0x5B059991 PUSH1 0xE0 SHL DUP2 MSTORE PUSH1 0x4 DUP2 ADD SWAP3 SWAP1 SWAP3 MSTORE PUSH1 0x24 DUP3 ADD MSTORE PUSH1 0x44 ADD PUSH2 0xA8A JUMP JUMPDEST PUSH0 DUP4 MLOAD PUSH8 0xFFFFFFFFFFFFFFFF DUP2 GT ISZERO PUSH2 0x19D0 JUMPI PUSH2 0x19D0 PUSH2 0x4CFC JUMP JUMPDEST PUSH1 0x40 MLOAD SWAP1 DUP1 DUP3 MSTORE DUP1 PUSH1 0x20 MUL PUSH1 0x20 ADD DUP3 ADD PUSH1 0x40 MSTORE DUP1 ISZERO PUSH2 0x19F9 JUMPI DUP2 PUSH1 0x20 ADD PUSH1 0x20 DUP3 MUL DUP1 CALLDATASIZE DUP4 CALLDATACOPY ADD SWAP1 POP JUMPDEST POP SWAP1 POP PUSH0 JUMPDEST DUP5 MLOAD DUP2 LT ISZERO PUSH2 0x1A47 JUMPI PUSH1 0x20 DUP1 DUP3 MUL DUP7 ADD ADD MLOAD PUSH2 0x1A22 SWAP1 PUSH1 0x20 DUP1 DUP5 MUL DUP8 ADD ADD MLOAD PUSH2 0x910 JUMP JUMPDEST DUP3 DUP3 DUP2 MLOAD DUP2 LT PUSH2 0x1A34 JUMPI PUSH2 0x1A34 PUSH2 0x5507 JUMP JUMPDEST PUSH1 0x20 SWAP1 DUP2 MUL SWAP2 SWAP1 SWAP2 ADD ADD MSTORE PUSH1 0x1 ADD PUSH2 0x19FE JUMP JUMPDEST POP SWAP4 SWAP3 POP POP POP JUMP JUMPDEST PUSH0 PUSH2 0x1A58 PUSH2 0x3FC7 JUMP JUMPDEST PUSH1 0x7 SLOAD PUSH1 0xFF AND ISZERO PUSH2 0x1AAB JUMPI PUSH1 0x40 MLOAD PUSH3 0x461BCD PUSH1 0xE5 SHL DUP2 MSTORE PUSH1 0x20 PUSH1 0x4 DUP3 ADD MSTORE PUSH1 0x13 PUSH1 0x24 DUP3 ADD MSTORE PUSH32 0x5032504C656E64696E673A53544F505045442100000000000000000000000000 PUSH1 0x44 DUP3 ADD MSTORE PUSH1 0x64 ADD PUSH2 0xA8A JUMP JUMPDEST PUSH1 0x9 SLOAD PUSH4 0xFFFFFFFF AND DUP6 LT DUP1 ISZERO SWAP1 PUSH2 0x1AD6 JUMPI POP PUSH1 0x9 SLOAD PUSH4 0xFFFFFFFF PUSH1 0x1 PUSH1 0xC0 SHL SWAP1 SWAP2 DIV DUP2 AND SWAP1 DUP6 AND LT ISZERO JUMPDEST DUP1 ISZERO PUSH2 0x1AF6 JUMPI POP PUSH1 0x9 SLOAD PUSH4 0xFFFFFFFF PUSH5 0x100000000 SWAP1 SWAP2 DIV DUP2 AND SWAP1 DUP5 AND LT ISZERO JUMPDEST DUP1 ISZERO PUSH2 0x1B15 JUMPI POP PUSH1 0x9 SLOAD PUSH4 0xFFFFFFFF PUSH1 0x1 PUSH1 0x40 SHL SWAP1 SWAP2 DIV DUP2 AND SWAP1 DUP5 AND GT ISZERO JUMPDEST DUP1 ISZERO PUSH2 0x1B34 JUMPI POP PUSH1 0x9 SLOAD PUSH4 0xFFFFFFFF PUSH1 0x1 PUSH1 0x80 SHL SWAP1 SWAP2 DIV DUP2 AND SWAP1 DUP4 AND LT ISZERO JUMPDEST DUP1 ISZERO PUSH2 0x1B53 JUMPI POP PUSH1 0x9 SLOAD PUSH4 0xFFFFFFFF PUSH1 0x1 PUSH1 0xA0 SHL SWAP1 SWAP2 DIV DUP2 AND SWAP1 DUP4 AND GT ISZERO JUMPDEST PUSH2 0x1B9F JUMPI PUSH1 0x40 MLOAD PUSH3 0x461BCD PUSH1 0xE5 SHL DUP2 MSTORE PUSH1 0x20 PUSH1 0x4 DUP3 ADD MSTORE PUSH1 0x1D PUSH1 0x24 DUP3 ADD MSTORE PUSH32 0x5032504C656E64696E673A496E76616C696420617267756D656E747321000000 PUSH1 0x44 DUP3 ADD MSTORE PUSH1 0x64 ADD PUSH2 0xA8A JUMP JUMPDEST PUSH2 0x1BB2 CALLER ADDRESS DUP8 PUSH1 0x8 SLOAD PUSH2 0xFC0 SWAP2 SWAP1 PUSH2 0x5322 JUMP JUMPDEST PUSH2 0x1BCE CALLER PUSH1 0xE SLOAD DUP8 PUSH1 0x40 MLOAD DUP1 PUSH1 0x20 ADD PUSH1 0x40 MSTORE DUP1 PUSH0 DUP2 MSTORE POP PUSH2 0x409B JUMP JUMPDEST PUSH1 0x40 DUP1 MLOAD PUSH2 0x100 DUP2 ADD DUP3 MSTORE DUP7 DUP2 MSTORE PUSH1 0x8 SLOAD PUSH1 0x20 DUP3 ADD MSTORE PUSH1 0xB SLOAD PUSH1 0x1 PUSH1 0x1 PUSH1 0xA0 SHL SUB AND SWAP2 DUP2 ADD SWAP2 SWAP1 SWAP2 MSTORE PUSH1 0x60 DUP2 ADD PUSH2 0x1C08 DUP6 PUSH3 0x15180 PUSH2 0x551B JUMP JUMPDEST PUSH4 0xFFFFFFFF AND PUSH1 0x1 PUSH1 0x1 PUSH1 0x60 SHL SUB AND DUP2 MSTORE PUSH1 0x20 ADD DUP4 PUSH4 0xFFFFFFFF AND DUP2 MSTORE PUSH1 0x20 ADD DUP6 PUSH4 0xFFFFFFFF AND DUP2 MSTORE PUSH1 0x20 ADD PUSH1 0x9 PUSH1 0x1C SWAP1 SLOAD SWAP1 PUSH2 0x100 EXP SWAP1 DIV PUSH4 0xFFFFFFFF AND PUSH4 0xFFFFFFFF AND DUP2 MSTORE PUSH1 0x20 ADD PUSH0 PUSH1 0x1 PUSH1 0x1 PUSH1 0x60 SHL SUB AND DUP2 MSTORE POP PUSH1 0xC PUSH0 PUSH1 0xE SLOAD DUP2 MSTORE PUSH1 0x20 ADD SWAP1 DUP2 MSTORE PUSH1 0x20 ADD PUSH0 KECCAK256 PUSH0 DUP3 ADD MLOAD DUP2 PUSH0 ADD SSTORE PUSH1 0x20 DUP3 ADD MLOAD DUP2 PUSH1 0x1 ADD SSTORE PUSH1 0x40 DUP3 ADD MLOAD DUP2 PUSH1 0x2 ADD PUSH0 PUSH2 0x100 EXP DUP2 SLOAD DUP2 PUSH1 0x1 PUSH1 0x1 PUSH1 0xA0 SHL SUB MUL NOT AND SWAP1 DUP4 PUSH1 0x1 PUSH1 0x1 PUSH1 0xA0 SHL SUB AND MUL OR SWAP1 SSTORE POP PUSH1 0x60 DUP3 ADD MLOAD DUP2 PUSH1 0x2 ADD PUSH1 0x14 PUSH2 0x100 EXP DUP2 SLOAD DUP2 PUSH1 0x1 PUSH1 0x1 PUSH1 0x60 SHL SUB MUL NOT AND SWAP1 DUP4 PUSH1 0x1 PUSH1 0x1 PUSH1 0x60 SHL SUB AND MUL OR SWAP1 SSTORE POP PUSH1 0x80 DUP3 ADD MLOAD DUP2 PUSH1 0x3 ADD PUSH0 PUSH2 0x100 EXP DUP2 SLOAD DUP2 PUSH4 0xFFFFFFFF MUL NOT AND SWAP1 DUP4 PUSH4 0xFFFFFFFF AND MUL OR SWAP1 SSTORE POP PUSH1 0xA0 DUP3 ADD MLOAD DUP2 PUSH1 0x3 ADD PUSH1 0x4 PUSH2 0x100 EXP DUP2 SLOAD DUP2 PUSH4 0xFFFFFFFF MUL NOT AND SWAP1 DUP4 PUSH4 0xFFFFFFFF AND MUL OR SWAP1 SSTORE POP PUSH1 0xC0 DUP3 ADD MLOAD DUP2 PUSH1 0x3 ADD PUSH1 0x8 PUSH2 0x100 EXP DUP2 SLOAD DUP2 PUSH4 0xFFFFFFFF MUL NOT AND SWAP1 DUP4 PUSH4 0xFFFFFFFF AND MUL OR SWAP1 SSTORE POP PUSH1 0xE0 DUP3 ADD MLOAD DUP2 PUSH1 0x3 ADD PUSH1 0xC PUSH2 0x100 EXP DUP2 SLOAD DUP2 PUSH1 0x1 PUSH1 0x1 PUSH1 0x60 SHL SUB MUL NOT AND SWAP1 DUP4 PUSH1 0x1 PUSH1 0x1 PUSH1 0x60 SHL SUB AND MUL OR SWAP1 SSTORE POP SWAP1 POP POP PUSH1 0x40 MLOAD DUP1 PUSH1 0xA0 ADD PUSH1 0x40 MSTORE DUP1 PUSH0 PUSH1 0x1 PUSH1 0x1 PUSH1 0xA0 SHL SUB AND DUP2 MSTORE PUSH1 0x20 ADD PUSH0 PUSH1 0x1 PUSH1 0x1 PUSH1 0x60 SHL SUB AND DUP2 MSTORE PUSH1 0x20 ADD PUSH0 DUP2 MSTORE PUSH1 0x20 ADD PUSH0 DUP2 MSTORE PUSH1 0x20 ADD PUSH0 PUSH1 0x1 PUSH1 0x1 PUSH1 0x60 SHL SUB AND DUP2 MSTORE POP PUSH1 0xD PUSH0 PUSH1 0xE SLOAD DUP2 MSTORE PUSH1 0x20 ADD SWAP1 DUP2 MSTORE PUSH1 0x20 ADD PUSH0 KECCAK256 PUSH0 DUP3 ADD MLOAD DUP2 PUSH0 ADD PUSH0 PUSH2 0x100 EXP DUP2 SLOAD DUP2 PUSH1 0x1 PUSH1 0x1 PUSH1 0xA0 SHL SUB MUL NOT AND SWAP1 DUP4 PUSH1 0x1 PUSH1 0x1 PUSH1 0xA0 SHL SUB AND MUL OR SWAP1 SSTORE POP PUSH1 0x20 DUP3 ADD MLOAD DUP2 PUSH0 ADD PUSH1 0x14 PUSH2 0x100 EXP DUP2 SLOAD DUP2 PUSH1 0x1 PUSH1 0x1 PUSH1 0x60 SHL SUB MUL NOT AND SWAP1 DUP4 PUSH1 0x1 PUSH1 0x1 PUSH1 0x60 SHL SUB AND MUL OR SWAP1 SSTORE POP PUSH1 0x40 DUP3 ADD MLOAD DUP2 PUSH1 0x1 ADD SSTORE PUSH1 0x60 DUP3 ADD MLOAD DUP2 PUSH1 0x2 ADD SSTORE PUSH1 0x80 DUP3 ADD MLOAD DUP2 PUSH1 0x3 ADD PUSH0 PUSH2 0x100 EXP DUP2 SLOAD DUP2 PUSH1 0x1 PUSH1 0x1 PUSH1 0x60 SHL SUB MUL NOT AND SWAP1 DUP4 PUSH1 0x1 PUSH1 0x1 PUSH1 0x60 SHL SUB AND MUL OR SWAP1 SSTORE POP SWAP1 POP POP PUSH2 0x1E76 CALLER SWAP1 JUMP JUMPDEST PUSH1 0xE SLOAD PUSH0 DUP2 DUP2 MSTORE PUSH1 0xC PUSH1 0x20 SWAP1 DUP2 MSTORE PUSH1 0x40 SWAP2 DUP3 SWAP1 KECCAK256 DUP1 SLOAD PUSH1 0x1 DUP3 ADD SLOAD PUSH1 0x2 DUP4 ADD SLOAD PUSH1 0x3 SWAP1 SWAP4 ADD SLOAD DUP6 MLOAD SWAP3 DUP4 MSTORE SWAP4 DUP3 ADD MSTORE PUSH1 0x1 PUSH1 0x1 PUSH1 0xA0 SHL SUB DUP1 DUP4 AND SWAP5 DUP3 ADD SWAP5 SWAP1 SWAP5 MSTORE PUSH1 0x1 PUSH1 0x1 PUSH1 0x60 SHL SUB PUSH1 0x1 PUSH1 0xA0 SHL SWAP1 SWAP3 DIV DUP3 AND PUSH1 0x60 DUP3 ADD MSTORE PUSH4 0xFFFFFFFF DUP1 DUP5 AND PUSH1 0x80 DUP4 ADD MSTORE PUSH5 0x100000000 DUP5 DIV DUP2 AND PUSH1 0xA0 DUP4 ADD MSTORE PUSH1 0x1 PUSH1 0x40 SHL DUP5 DIV AND PUSH1 0xC0 DUP3 ADD MSTORE PUSH1 0x1 PUSH1 0x60 SHL SWAP1 SWAP3 DIV AND PUSH1 0xE0 DUP3 ADD MSTORE SWAP3 AND SWAP2 PUSH32 0x2F89D5518972EF9F2027AA908AE490B2BD691FBD59E127D7BADCDB6BF75551D6 SWAP1 PUSH2 0x100 ADD PUSH1 0x40 MLOAD DUP1 SWAP2 SUB SWAP1 LOG3 PUSH1 0xE DUP1 SLOAD SWAP1 PUSH0 PUSH2 0x1F45 DUP4 PUSH2 0x553A JUMP JUMPDEST SWAP2 SWAP1 POP SSTORE SWAP1 POP PUSH2 0x1F55 PUSH1 0x1 PUSH1 0x6 SSTORE JUMP JUMPDEST SWAP5 SWAP4 POP POP POP POP JUMP JUMPDEST PUSH2 0x1F65 PUSH2 0x3F82 JUMP JUMPDEST PUSH1 0xB DUP1 SLOAD PUSH20 0xFFFFFFFFFFFFFFFFFFFFFFFFFFFFFFFFFFFFFFFF NOT AND PUSH1 0x1 PUSH1 0x1 PUSH1 0xA0 SHL SUB DUP4 AND SWAP1 DUP2 OR SWAP1 SWAP2 SSTORE PUSH1 0x40 MLOAD SWAP1 DUP2 MSTORE PUSH32 0x88A686E0E341D9099F2F990C3AA759A86822142A67579064B43DED9354A25662 SWAP1 PUSH1 0x20 ADD PUSH2 0x138F JUMP JUMPDEST PUSH2 0x1FC8 PUSH2 0x3FC7 JUMP JUMPDEST DUP2 PUSH0 DUP2 GT DUP1 ISZERO PUSH2 0x1FD9 JUMPI POP PUSH1 0xE SLOAD DUP2 LT JUMPDEST PUSH2 0x2018 JUMPI PUSH1 0x40 MLOAD PUSH3 0x461BCD PUSH1 0xE5 SHL DUP2 MSTORE PUSH1 0x20 PUSH1 0x4 DUP3 ADD MSTORE PUSH1 0x10 PUSH1 0x24 DUP3 ADD MSTORE PUSH16 0x496E76616C6964204C6F616E20494421 PUSH1 0x80 SHL PUSH1 0x44 DUP3 ADD MSTORE PUSH1 0x64 ADD PUSH2 0xA8A JUMP JUMPDEST PUSH1 0x4 PUSH2 0x2023 DUP5 PUSH2 0xC6E JUMP JUMPDEST PUSH1 0x5 DUP2 GT ISZERO PUSH2 0x2034 JUMPI PUSH2 0x2034 PUSH2 0x4C79 JUMP JUMPDEST EQ PUSH2 0x2093 JUMPI PUSH1 0x40 MLOAD PUSH3 0x461BCD PUSH1 0xE5 SHL DUP2 MSTORE PUSH1 0x20 PUSH1 0x4 DUP3 ADD MSTORE PUSH1 0x29 PUSH1 0x24 DUP3 ADD MSTORE PUSH32 0x5032504C656E64696E673A4C6F616E537461747573206D75737420657175616C PUSH1 0x44 DUP3 ADD MSTORE PUSH9 0x732041435449564521 PUSH1 0xB8 SHL PUSH1 0x64 DUP3 ADD MSTORE PUSH1 0x84 ADD PUSH2 0xA8A JUMP JUMPDEST PUSH0 DUP4 DUP2 MSTORE PUSH1 0xD PUSH1 0x20 MSTORE PUSH1 0x40 SWAP1 KECCAK256 DUP1 SLOAD PUSH1 0x1 PUSH1 0x1 PUSH1 0xA0 SHL SUB AND CALLER EQ PUSH2 0x20F9 JUMPI PUSH1 0x40 MLOAD PUSH3 0x461BCD PUSH1 0xE5 SHL DUP2 MSTORE PUSH1 0x20 PUSH1 0x4 DUP3 ADD MSTORE PUSH1 0x1F PUSH1 0x24 DUP3 ADD MSTORE PUSH32 0x5032504C656E64696E673A43616C6C6572206973206E6F74206F776E65722100 PUSH1 0x44 DUP3 ADD MSTORE PUSH1 0x64 ADD PUSH2 0xA8A JUMP JUMPDEST DUP1 SLOAD PUSH2 0x2133 SWAP1 PUSH1 0x1 PUSH1 0x1 PUSH1 0xA0 SHL SUB PUSH32 0x0 DUP2 AND SWAP2 AND ADDRESS DUP7 PUSH2 0x4019 JUMP JUMPDEST DUP3 DUP2 PUSH1 0x1 ADD PUSH0 DUP3 DUP3 SLOAD PUSH2 0x2146 SWAP2 SWAP1 PUSH2 0x5468 JUMP JUMPDEST SWAP1 SWAP2 SSTORE POP POP PUSH1 0x40 MLOAD DUP4 DUP2 MSTORE DUP5 SWAP1 PUSH32 0x8CC7F16CD883F4AF720102359F36F5A11402BA74BA5515E43B36EEA9EDDFF23C SWAP1 PUSH1 0x20 ADD PUSH1 0x40 MLOAD DUP1 SWAP2 SUB SWAP1 LOG2 PUSH2 0x2189 DUP5 PUSH2 0x418C JUMP JUMPDEST POP POP PUSH2 0x2195 PUSH1 0x1 PUSH1 0x6 SSTORE JUMP JUMPDEST POP POP JUMP JUMPDEST PUSH2 0x21A1 PUSH2 0x3FC7 JUMP JUMPDEST DUP1 PUSH0 DUP2 GT DUP1 ISZERO PUSH2 0x21B2 JUMPI POP PUSH1 0xE SLOAD DUP2 LT JUMPDEST PUSH2 0x21F1 JUMPI PUSH1 0x40 MLOAD PUSH3 0x461BCD PUSH1 0xE5 SHL DUP2 MSTORE PUSH1 0x20 PUSH1 0x4 DUP3 ADD MSTORE PUSH1 0x10 PUSH1 0x24 DUP3 ADD MSTORE PUSH16 0x496E76616C6964204C6F616E20494421 PUSH1 0x80 SHL PUSH1 0x44 DUP3 ADD MSTORE PUSH1 0x64 ADD PUSH2 0xA8A JUMP JUMPDEST PUSH0 DUP3 DUP2 MSTORE PUSH1 0xD PUSH1 0x20 MSTORE PUSH1 0x40 SWAP1 KECCAK256 DUP1 SLOAD PUSH1 0x1 PUSH1 0x1 PUSH1 0xA0 SHL SUB AND CALLER EQ PUSH2 0x2257 JUMPI PUSH1 0x40 MLOAD PUSH3 0x461BCD PUSH1 0xE5 SHL DUP2 MSTORE PUSH1 0x20 PUSH1 0x4 DUP3 ADD MSTORE PUSH1 0x1F PUSH1 0x24 DUP3 ADD MSTORE PUSH32 0x5032504C656E64696E673A43616C6C6572206973206E6F74206F776E65722100 PUSH1 0x44 DUP3 ADD MSTORE PUSH1 0x64 ADD PUSH2 0xA8A JUMP JUMPDEST DUP1 SLOAD PUSH1 0x1 PUSH1 0xA0 SHL SWAP1 DIV PUSH1 0x1 PUSH1 0x1 PUSH1 0x60 SHL SUB AND ISZERO DUP1 ISZERO PUSH2 0x2279 JUMPI POP PUSH0 DUP2 PUSH1 0x1 ADD SLOAD GT JUMPDEST PUSH2 0x22C5 JUMPI PUSH1 0x40 MLOAD PUSH3 0x461BCD PUSH1 0xE5 SHL DUP2 MSTORE PUSH1 0x20 PUSH1 0x4 DUP3 ADD MSTORE PUSH1 0x1B PUSH1 0x24 DUP3 ADD MSTORE PUSH32 0x5032504C656E64696E673A43616E6E6F74205769746864726177210000000000 PUSH1 0x44 DUP3 ADD MSTORE PUSH1 0x64 ADD PUSH2 0xA8A JUMP JUMPDEST PUSH1 0x1 PUSH2 0x22D0 DUP5 PUSH2 0xC6E JUMP JUMPDEST PUSH1 0x5 DUP2 GT ISZERO PUSH2 0x22E1 JUMPI PUSH2 0x22E1 PUSH2 0x4C79 JUMP JUMPDEST EQ DUP1 ISZERO PUSH2 0x2310 JUMPI POP PUSH0 DUP4 DUP2 MSTORE PUSH1 0xC PUSH1 0x20 MSTORE PUSH1 0x40 SWAP1 KECCAK256 PUSH1 0x3 ADD SLOAD PUSH1 0x1 PUSH1 0x1 PUSH1 0x60 SHL SUB TIMESTAMP DUP2 AND PUSH1 0x1 PUSH1 0x60 SHL SWAP1 SWAP3 DIV AND LT JUMPDEST ISZERO PUSH2 0x2359 JUMPI DUP1 SLOAD PUSH1 0x1 DUP3 ADD SLOAD PUSH2 0x2354 SWAP2 PUSH1 0x1 PUSH1 0x1 PUSH1 0xA0 SHL SUB PUSH32 0x0 DUP2 AND SWAP3 SWAP2 AND SWAP1 PUSH2 0x415B JUMP JUMPDEST PUSH2 0x2420 JUMP JUMPDEST PUSH0 PUSH2 0x2366 PUSH1 0x4 PUSH1 0xA PUSH2 0x545A JUMP JUMPDEST PUSH1 0x1 DUP4 ADD SLOAD PUSH1 0xA SLOAD PUSH2 0x237E SWAP2 SWAP1 PUSH4 0xFFFFFFFF AND PUSH2 0x5322 JUMP JUMPDEST PUSH2 0x2388 SWAP2 SWAP1 PUSH2 0x5358 JUMP JUMPDEST PUSH1 0xA SLOAD SWAP1 SWAP2 POP PUSH2 0x23CD SWAP1 PUSH1 0x1 PUSH1 0x1 PUSH1 0xA0 SHL SUB PUSH32 0x0 DUP2 AND SWAP2 PUSH5 0x100000000 SWAP1 DIV AND DUP4 PUSH2 0x415B JUMP JUMPDEST DUP2 SLOAD PUSH1 0x1 DUP4 ADD SLOAD PUSH2 0x241E SWAP2 PUSH1 0x1 PUSH1 0x1 PUSH1 0xA0 SHL SUB AND SWAP1 PUSH2 0x23ED SWAP1 DUP5 SWAP1 PUSH2 0x530F JUMP JUMPDEST PUSH1 0x1 PUSH1 0x1 PUSH1 0xA0 SHL SUB PUSH32 0x0 AND SWAP2 SWAP1 PUSH2 0x415B JUMP JUMPDEST POP JUMPDEST PUSH0 PUSH1 0x1 DUP3 DUP2 ADD DUP3 SWAP1 SSTORE DUP5 DUP3 MSTORE PUSH1 0xC PUSH1 0x20 SWAP1 DUP2 MSTORE PUSH1 0x40 DUP1 DUP5 KECCAK256 SWAP1 SWAP3 ADD SLOAD PUSH1 0x4 SWAP1 SWAP2 MSTORE SWAP2 KECCAK256 SLOAD PUSH2 0x244E SWAP2 SWAP1 PUSH2 0x5322 JUMP JUMPDEST PUSH1 0x2 DUP3 ADD SSTORE PUSH1 0x40 MLOAD DUP4 SWAP1 PUSH32 0xFC226BCC04F8F8905AF4229A5D361773B6BB568167898414274C713C6179E6CB SWAP1 PUSH0 SWAP1 LOG2 PUSH2 0x2486 DUP4 PUSH2 0x418C JUMP JUMPDEST POP POP PUSH2 0x16B7 PUSH1 0x1 PUSH1 0x6 SSTORE JUMP JUMPDEST PUSH2 0x249A PUSH2 0x3FC7 JUMP JUMPDEST DUP1 PUSH0 DUP2 GT DUP1 ISZERO PUSH2 0x24AB JUMPI POP PUSH1 0xE SLOAD DUP2 LT JUMPDEST PUSH2 0x24EA JUMPI PUSH1 0x40 MLOAD PUSH3 0x461BCD PUSH1 0xE5 SHL DUP2 MSTORE PUSH1 0x20 PUSH1 0x4 DUP3 ADD MSTORE PUSH1 0x10 PUSH1 0x24 DUP3 ADD MSTORE PUSH16 0x496E76616C6964204C6F616E20494421 PUSH1 0x80 SHL PUSH1 0x44 DUP3 ADD MSTORE PUSH1 0x64 ADD PUSH2 0xA8A JUMP JUMPDEST PUSH1 0x5 PUSH2 0x24F5 DUP4 PUSH2 0xC6E JUMP JUMPDEST PUSH1 0x5 DUP2 GT ISZERO PUSH2 0x2506 JUMPI PUSH2 0x2506 PUSH2 0x4C79 JUMP JUMPDEST EQ PUSH2 0x2579 JUMPI PUSH1 0x40 MLOAD PUSH3 0x461BCD PUSH1 0xE5 SHL DUP2 MSTORE PUSH1 0x20 PUSH1 0x4 DUP3 ADD MSTORE PUSH1 0x2B PUSH1 0x24 DUP3 ADD MSTORE PUSH32 0x5032504C656E64696E673A4C6F616E537461747573206D75737420657175616C PUSH1 0x44 DUP3 ADD MSTORE PUSH32 0x732046494E495348454421000000000000000000000000000000000000000000 PUSH1 0x64 DUP3 ADD MSTORE PUSH1 0x84 ADD PUSH2 0xA8A JUMP JUMPDEST PUSH0 PUSH2 0x2584 CALLER DUP5 PUSH2 0x910 JUMP JUMPDEST SWAP1 POP PUSH0 DUP2 GT PUSH2 0x25D5 JUMPI PUSH1 0x40 MLOAD PUSH3 0x461BCD PUSH1 0xE5 SHL DUP2 MSTORE PUSH1 0x20 PUSH1 0x4 DUP3 ADD MSTORE PUSH1 0x1C PUSH1 0x24 DUP3 ADD MSTORE PUSH32 0x5032504C656E64696E673A4E6F7468696E6720746F20636C61696D2100000000 PUSH1 0x44 DUP3 ADD MSTORE PUSH1 0x64 ADD PUSH2 0xA8A JUMP JUMPDEST PUSH0 DUP4 DUP2 MSTORE PUSH1 0xD PUSH1 0x20 SWAP1 DUP2 MSTORE PUSH1 0x40 DUP1 DUP4 KECCAK256 PUSH1 0x4 SWAP1 SWAP3 MSTORE DUP3 KECCAK256 SLOAD SWAP1 SWAP2 SWAP1 PUSH1 0x2 DUP4 ADD SLOAD PUSH2 0x25FF SWAP1 DUP6 PUSH2 0x5322 JUMP JUMPDEST PUSH2 0x2609 SWAP2 SWAP1 PUSH2 0x5358 JUMP JUMPDEST SWAP1 POP DUP1 DUP3 PUSH1 0x2 ADD PUSH0 DUP3 DUP3 SLOAD PUSH2 0x261E SWAP2 SWAP1 PUSH2 0x530F JUMP JUMPDEST SWAP1 SWAP2 SSTORE POP PUSH2 0x262F SWAP1 POP CALLER DUP7 DUP6 PUSH2 0x4217 JUMP JUMPDEST PUSH2 0x2663 PUSH32 0x0 PUSH1 0x1 PUSH1 0x1 PUSH1 0xA0 SHL SUB AND CALLER DUP4 PUSH2 0x415B JUMP JUMPDEST PUSH1 0x40 DUP1 MLOAD DUP5 DUP2 MSTORE PUSH1 0x20 DUP2 ADD DUP4 SWAP1 MSTORE CALLER SWAP2 DUP8 SWAP2 PUSH32 0xFCDAABBCAC647C42F2FBF34F6C5A49EE8A8CD0B64EF5EB50B25441BDB133DDF2 SWAP2 ADD PUSH1 0x40 MLOAD DUP1 SWAP2 SUB SWAP1 LOG3 PUSH2 0x26A9 DUP6 PUSH2 0x418C JUMP JUMPDEST POP POP POP POP PUSH2 0x16B7 PUSH1 0x1 PUSH1 0x6 SSTORE JUMP JUMPDEST PUSH2 0x26BF PUSH2 0x3F82 JUMP JUMPDEST PUSH2 0x26C8 PUSH0 PUSH2 0x427D JUMP JUMPDEST JUMP JUMPDEST PUSH0 PUSH2 0x26D3 PUSH2 0x3FC7 JUMP JUMPDEST PUSH1 0x7 SLOAD PUSH1 0xFF AND ISZERO PUSH2 0x2726 JUMPI PUSH1 0x40 MLOAD PUSH3 0x461BCD PUSH1 0xE5 SHL DUP2 MSTORE PUSH1 0x20 PUSH1 0x4 DUP3 ADD MSTORE PUSH1 0x13 PUSH1 0x24 DUP3 ADD MSTORE PUSH32 0x5032504C656E64696E673A53544F505045442100000000000000000000000000 PUSH1 0x44 DUP3 ADD MSTORE PUSH1 0x64 ADD PUSH2 0xA8A JUMP JUMPDEST PUSH1 0x9 SLOAD PUSH4 0xFFFFFFFF AND DUP10 LT DUP1 ISZERO SWAP1 PUSH2 0x2751 JUMPI POP PUSH1 0x9 SLOAD PUSH4 0xFFFFFFFF PUSH1 0x1 PUSH1 0xC0 SHL SWAP1 SWAP2 DIV DUP2 AND SWAP1 DUP9 AND LT ISZERO JUMPDEST DUP1 ISZERO PUSH2 0x2771 JUMPI POP PUSH1 0x9 SLOAD PUSH4 0xFFFFFFFF PUSH5 0x100000000 SWAP1 SWAP2 DIV DUP2 AND SWAP1 DUP8 AND LT ISZERO JUMPDEST DUP1 ISZERO PUSH2 0x2790 JUMPI POP PUSH1 0x9 SLOAD PUSH4 0xFFFFFFFF PUSH1 0x1 PUSH1 0x40 SHL SWAP1 SWAP2 DIV DUP2 AND SWAP1 DUP8 AND GT ISZERO JUMPDEST DUP1 ISZERO PUSH2 0x27AF JUMPI POP PUSH1 0x9 SLOAD PUSH4 0xFFFFFFFF PUSH1 0x1 PUSH1 0x80 SHL SWAP1 SWAP2 DIV DUP2 AND SWAP1 DUP7 AND LT ISZERO JUMPDEST DUP1 ISZERO PUSH2 0x27CE JUMPI POP PUSH1 0x9 SLOAD PUSH4 0xFFFFFFFF PUSH1 0x1 PUSH1 0xA0 SHL SWAP1 SWAP2 DIV DUP2 AND SWAP1 DUP7 AND GT ISZERO JUMPDEST DUP1 ISZERO PUSH2 0x27ED JUMPI POP PUSH1 0x9 SLOAD PUSH4 0xFFFFFFFF PUSH1 0x1 PUSH1 0x60 SHL SWAP1 SWAP2 DIV DUP2 AND SWAP1 DUP6 AND LT ISZERO JUMPDEST PUSH2 0x2839 JUMPI PUSH1 0x40 MLOAD PUSH3 0x461BCD PUSH1 0xE5 SHL DUP2 MSTORE PUSH1 0x20 PUSH1 0x4 DUP3 ADD MSTORE PUSH1 0x1D PUSH1 0x24 DUP3 ADD MSTORE PUSH32 0x5032504C656E64696E673A496E76616C696420617267756D656E747321000000 PUSH1 0x44 DUP3 ADD MSTORE PUSH1 0x64 ADD PUSH2 0xA8A JUMP JUMPDEST PUSH0 DUP10 PUSH1 0x8 SLOAD PUSH2 0x2848 SWAP2 SWAP1 PUSH2 0x5322 JUMP JUMPDEST SWAP1 POP PUSH0 PUSH2 0x2857 PUSH1 0x4 PUSH1 0xA PUSH2 0x545A JUMP JUMPDEST PUSH1 0xB SLOAD PUSH2 0x2870 SWAP1 DUP5 SWAP1 PUSH1 0x1 PUSH1 0x1 PUSH1 0xA0 SHL SUB AND DUP9 DUP9 PUSH2 0x42D9 JUMP JUMPDEST PUSH2 0x2880 SWAP1 PUSH4 0xFFFFFFFF DUP13 AND PUSH2 0x5322 JUMP JUMPDEST PUSH2 0x288A SWAP2 SWAP1 PUSH2 0x5358 JUMP JUMPDEST SWAP1 POP DUP1 DUP11 LT ISZERO DUP1 ISZERO PUSH2 0x289B JUMPI POP PUSH0 DUP2 GT JUMPDEST PUSH2 0x28F7 JUMPI PUSH1 0x40 MLOAD PUSH3 0x461BCD PUSH1 0xE5 SHL DUP2 MSTORE PUSH1 0x20 PUSH1 0x4 DUP3 ADD MSTORE PUSH1 0x27 PUSH1 0x24 DUP3 ADD MSTORE PUSH32 0x5032504C656E64696E673A496E637265617365206D61785F636F6C6C61746572 PUSH1 0x44 DUP3 ADD MSTORE PUSH7 0x616C5F6F757421 PUSH1 0xC8 SHL PUSH1 0x64 DUP3 ADD MSTORE PUSH1 0x84 ADD PUSH2 0xA8A JUMP JUMPDEST PUSH2 0x292C PUSH32 0x0 PUSH1 0x1 PUSH1 0x1 PUSH1 0xA0 SHL SUB AND CALLER ADDRESS DUP5 PUSH2 0x4019 JUMP JUMPDEST PUSH1 0x40 DUP1 MLOAD PUSH2 0x100 DUP2 ADD DUP3 MSTORE DUP13 DUP2 MSTORE PUSH1 0x8 SLOAD PUSH1 0x20 DUP3 ADD MSTORE PUSH1 0xB SLOAD PUSH1 0x1 PUSH1 0x1 PUSH1 0xA0 SHL SUB AND SWAP2 DUP2 ADD SWAP2 SWAP1 SWAP2 MSTORE PUSH1 0x60 DUP2 ADD PUSH2 0x2966 DUP11 PUSH3 0x15180 PUSH2 0x551B JUMP JUMPDEST PUSH4 0xFFFFFFFF SWAP1 DUP2 AND DUP3 MSTORE DUP10 DUP2 AND PUSH1 0x20 DUP4 ADD MSTORE DUP12 DUP2 AND PUSH1 0x40 DUP4 ADD MSTORE PUSH1 0x9 SLOAD PUSH1 0x1 PUSH1 0xE0 SHL SWAP1 DIV AND PUSH1 0x60 DUP3 ADD MSTORE PUSH1 0x80 ADD PUSH2 0x29A0 DUP9 PUSH3 0x15180 PUSH2 0x551B JUMP JUMPDEST PUSH2 0x29B0 SWAP1 PUSH4 0xFFFFFFFF AND TIMESTAMP PUSH2 0x5339 JUMP JUMPDEST PUSH1 0x1 PUSH1 0x1 PUSH1 0x60 SHL SUB SWAP1 DUP2 AND SWAP1 SWAP2 MSTORE PUSH1 0xE SLOAD PUSH0 SWAP1 DUP2 MSTORE PUSH1 0xC PUSH1 0x20 SWAP1 DUP2 MSTORE PUSH1 0x40 SWAP2 DUP3 SWAP1 KECCAK256 DUP5 MLOAD DUP2 SSTORE SWAP1 DUP5 ADD MLOAD PUSH1 0x1 DUP3 ADD SSTORE DUP4 DUP3 ADD MLOAD PUSH1 0x60 DUP6 ADD MLOAD DUP5 AND PUSH1 0x1 PUSH1 0xA0 SHL MUL PUSH1 0x1 PUSH1 0x1 PUSH1 0xA0 SHL SUB SWAP1 SWAP2 AND OR PUSH1 0x2 DUP3 ADD SSTORE PUSH1 0x80 DUP5 ADD MLOAD PUSH1 0x3 SWAP1 SWAP2 ADD DUP1 SLOAD PUSH1 0xA0 DUP1 DUP8 ADD MLOAD PUSH1 0xC0 DUP9 ADD MLOAD PUSH1 0xE0 SWAP1 SWAP9 ADD MLOAD SWAP1 SWAP7 AND PUSH1 0x1 PUSH1 0x60 SHL MUL PUSH32 0xFFFFFFFFFFFFFFFF000000000000000000000000FFFFFFFFFFFFFFFFFFFFFFFF PUSH4 0xFFFFFFFF SWAP9 DUP10 AND PUSH1 0x1 PUSH1 0x40 SHL MUL AND PUSH32 0xFFFFFFFFFFFFFFFF00000000000000000000000000000000FFFFFFFFFFFFFFFF SWAP8 DUP10 AND PUSH5 0x100000000 MUL PUSH8 0xFFFFFFFFFFFFFFFF NOT SWAP1 SWAP5 AND SWAP9 SWAP1 SWAP6 AND SWAP8 SWAP1 SWAP8 OR SWAP2 SWAP1 SWAP2 OR SWAP5 SWAP1 SWAP5 AND SWAP2 SWAP1 SWAP2 OR SWAP4 SWAP1 SWAP4 OR SWAP1 SWAP3 SSTORE DUP2 MLOAD SWAP1 DUP2 ADD SWAP1 SWAP2 MSTORE DUP1 PUSH2 0x2ABA CALLER SWAP1 JUMP JUMPDEST PUSH1 0x1 PUSH1 0x1 PUSH1 0xA0 SHL SUB SWAP1 DUP2 AND DUP3 MSTORE PUSH0 PUSH1 0x20 DUP1 DUP5 ADD DUP3 SWAP1 MSTORE PUSH1 0x40 DUP1 DUP6 ADD DUP8 SWAP1 MSTORE PUSH1 0x60 DUP1 DUP7 ADD DUP5 SWAP1 MSTORE PUSH1 0x80 SWAP6 DUP7 ADD DUP5 SWAP1 MSTORE PUSH1 0xE DUP1 SLOAD DUP6 MSTORE PUSH1 0xD DUP5 MSTORE DUP3 DUP6 KECCAK256 DUP9 MLOAD DUP10 DUP7 ADD MLOAD SWAP1 DUP9 AND PUSH1 0x1 PUSH1 0xA0 SHL PUSH1 0x1 PUSH1 0x1 PUSH1 0x60 SHL SUB SWAP3 DUP4 AND DUP2 MUL SWAP2 SWAP1 SWAP2 OR DUP4 SSTORE DUP11 DUP7 ADD MLOAD PUSH1 0x1 DUP1 DUP6 ADD SWAP2 SWAP1 SWAP2 SSTORE DUP12 DUP7 ADD MLOAD PUSH1 0x2 DUP1 DUP7 ADD SWAP2 SWAP1 SWAP2 SSTORE SWAP12 DUP12 ADD MLOAD PUSH1 0x3 SWAP5 DUP6 ADD DUP1 SLOAD PUSH12 0xFFFFFFFFFFFFFFFFFFFFFFFF NOT AND SWAP2 DUP6 AND SWAP2 SWAP1 SWAP2 OR SWAP1 SSTORE SWAP4 SLOAD DUP1 DUP10 MSTORE PUSH1 0xC DUP9 MSTORE SWAP8 DUP7 SWAP1 KECCAK256 DUP1 SLOAD SWAP5 DUP2 ADD SLOAD SWAP12 DUP2 ADD SLOAD SWAP4 ADD SLOAD DUP7 MLOAD SWAP5 DUP6 MSTORE SWAP7 DUP5 ADD SWAP11 SWAP1 SWAP11 MSTORE SWAP7 DUP2 AND SWAP4 DUP3 ADD SWAP4 SWAP1 SWAP4 MSTORE SWAP7 SWAP1 SWAP2 DIV DUP5 AND SWAP1 DUP7 ADD MSTORE PUSH4 0xFFFFFFFF DUP1 DUP3 AND SWAP5 DUP7 ADD SWAP5 SWAP1 SWAP5 MSTORE PUSH5 0x100000000 DUP2 DIV DUP5 AND PUSH1 0xA0 DUP7 ADD MSTORE PUSH1 0x1 PUSH1 0x40 SHL DUP2 DIV SWAP1 SWAP4 AND PUSH1 0xC0 DUP6 ADD MSTORE PUSH1 0x1 PUSH1 0x60 SHL SWAP1 SWAP3 DIV AND PUSH1 0xE0 DUP4 ADD MSTORE SWAP1 PUSH32 0xE0B5C9EC62AADE94CA24B2AC9D81B2037BE7D64CB9E5730FCC727BB885EE6037 SWAP1 PUSH2 0x100 ADD PUSH1 0x40 MLOAD DUP1 SWAP2 SUB SWAP1 LOG2 PUSH2 0x2C02 PUSH1 0xE SLOAD PUSH2 0x418C JUMP JUMPDEST PUSH1 0xE DUP1 SLOAD SWAP1 PUSH0 PUSH2 0x2C11 DUP4 PUSH2 0x553A JUMP JUMPDEST SWAP2 SWAP1 POP SSTORE SWAP3 POP POP POP PUSH2 0x2C23 PUSH1 0x1 PUSH1 0x6 SSTORE JUMP JUMPDEST SWAP9 SWAP8 POP POP POP POP POP POP POP POP JUMP JUMPDEST PUSH2 0x2C37 PUSH2 0x3FC7 JUMP JUMPDEST DUP2 PUSH0 DUP2 GT DUP1 ISZERO PUSH2 0x2C48 JUMPI POP PUSH1 0xE SLOAD DUP2 LT JUMPDEST PUSH2 0x2C87 JUMPI PUSH1 0x40 MLOAD PUSH3 0x461BCD PUSH1 0xE5 SHL DUP2 MSTORE PUSH1 0x20 PUSH1 0x4 DUP3 ADD MSTORE PUSH1 0x10 PUSH1 0x24 DUP3 ADD MSTORE PUSH16 0x496E76616C6964204C6F616E20494421 PUSH1 0x80 SHL PUSH1 0x44 DUP3 ADD MSTORE PUSH1 0x64 ADD PUSH2 0xA8A JUMP JUMPDEST PUSH0 DUP3 GT PUSH2 0x2CFC JUMPI PUSH1 0x40 MLOAD PUSH3 0x461BCD PUSH1 0xE5 SHL DUP2 MSTORE PUSH1 0x20 PUSH1 0x4 DUP3 ADD MSTORE PUSH1 0x2A PUSH1 0x24 DUP3 ADD MSTORE PUSH32 0x5032504C656E64696E673A6C6F7473206D757374206265206772656174657220 PUSH1 0x44 DUP3 ADD MSTORE PUSH32 0x7468616E207A65726F2100000000000000000000000000000000000000000000 PUSH1 0x64 DUP3 ADD MSTORE PUSH1 0x84 ADD PUSH2 0xA8A JUMP JUMPDEST PUSH0 PUSH2 0x2D06 DUP5 PUSH2 0xC6E JUMP JUMPDEST PUSH0 DUP6 DUP2 MSTORE PUSH1 0xD PUSH1 0x20 MSTORE PUSH1 0x40 SWAP1 KECCAK256 SLOAD SWAP1 SWAP2 POP PUSH1 0x1 PUSH1 0x1 PUSH1 0xA0 SHL SUB AND ISZERO DUP1 PUSH2 0x2D3D JUMPI POP PUSH1 0x3 DUP2 PUSH1 0x5 DUP2 GT ISZERO PUSH2 0x2D3B JUMPI PUSH2 0x2D3B PUSH2 0x4C79 JUMP JUMPDEST EQ JUMPDEST DUP1 PUSH2 0x2D8A JUMPI POP PUSH1 0x1 DUP2 PUSH1 0x5 DUP2 GT ISZERO PUSH2 0x2D57 JUMPI PUSH2 0x2D57 PUSH2 0x4C79 JUMP JUMPDEST EQ DUP1 ISZERO PUSH2 0x2D8A JUMPI POP CALLER PUSH0 SWAP1 DUP2 MSTORE PUSH1 0xF PUSH1 0x20 SWAP1 DUP2 MSTORE PUSH1 0x40 DUP1 DUP4 KECCAK256 DUP8 DUP5 MSTORE SWAP1 SWAP2 MSTORE SWAP1 KECCAK256 SLOAD PUSH1 0x1 PUSH1 0x1 PUSH1 0x60 SHL SUB SWAP1 DUP2 AND TIMESTAMP SWAP1 SWAP2 AND GT JUMPDEST PUSH2 0x2DD6 JUMPI PUSH1 0x40 MLOAD PUSH3 0x461BCD PUSH1 0xE5 SHL DUP2 MSTORE PUSH1 0x20 PUSH1 0x4 DUP3 ADD MSTORE PUSH1 0x1B PUSH1 0x24 DUP3 ADD MSTORE PUSH32 0x5032504C656E64696E673A43616E6E6F74207769746864726177210000000000 PUSH1 0x44 DUP3 ADD MSTORE PUSH1 0x64 ADD PUSH2 0xA8A JUMP JUMPDEST PUSH2 0x2DE1 CALLER DUP6 DUP6 PUSH2 0x4217 JUMP JUMPDEST PUSH0 DUP5 DUP2 MSTORE PUSH1 0xD PUSH1 0x20 MSTORE PUSH1 0x40 SWAP1 KECCAK256 SLOAD PUSH1 0x1 PUSH1 0x1 PUSH1 0xA0 SHL SUB AND PUSH2 0x2E93 JUMPI PUSH0 DUP5 DUP2 MSTORE PUSH1 0x4 PUSH1 0x20 MSTORE PUSH1 0x40 SWAP1 KECCAK256 SLOAD DUP1 ISZERO DUP1 PUSH2 0x2E1F JUMPI POP PUSH1 0x9 SLOAD PUSH4 0xFFFFFFFF AND DUP2 LT ISZERO JUMPDEST PUSH2 0x2E91 JUMPI PUSH1 0x40 MLOAD PUSH3 0x461BCD PUSH1 0xE5 SHL DUP2 MSTORE PUSH1 0x20 PUSH1 0x4 DUP3 ADD MSTORE PUSH1 0x28 PUSH1 0x24 DUP3 ADD MSTORE PUSH32 0x5032504C656E64696E673A537570706C792062656C6F77204D494E5F4C4F5453 PUSH1 0x44 DUP3 ADD MSTORE PUSH32 0x5F414D4F554E5421000000000000000000000000000000000000000000000000 PUSH1 0x64 DUP3 ADD MSTORE PUSH1 0x84 ADD PUSH2 0xA8A JUMP JUMPDEST POP JUMPDEST PUSH2 0x2EE4 CALLER PUSH0 DUP7 DUP2 MSTORE PUSH1 0xC PUSH1 0x20 MSTORE PUSH1 0x40 SWAP1 KECCAK256 PUSH1 0x1 ADD SLOAD PUSH2 0x2EB3 SWAP1 DUP7 SWAP1 PUSH2 0x5322 JUMP JUMPDEST PUSH1 0x1 PUSH1 0x1 PUSH1 0xA0 SHL SUB PUSH32 0x0 AND SWAP2 SWAP1 PUSH2 0x415B JUMP JUMPDEST PUSH1 0x40 MLOAD DUP4 DUP2 MSTORE CALLER SWAP1 DUP6 SWAP1 PUSH32 0xBF8FB3D353686A0832043307D6F9BB618DF238D387C7DBC9D0FA2FC7B7CBA726 SWAP1 PUSH1 0x20 ADD PUSH1 0x40 MLOAD DUP1 SWAP2 SUB SWAP1 LOG3 POP POP PUSH2 0x2195 PUSH1 0x1 PUSH1 0x6 SSTORE JUMP JUMPDEST PUSH0 PUSH2 0x2F30 PUSH2 0x3FC7 JUMP JUMPDEST DUP9 PUSH0 DUP2 GT DUP1 ISZERO PUSH2 0x2F41 JUMPI POP PUSH1 0xE SLOAD DUP2 LT JUMPDEST PUSH2 0x2F80 JUMPI PUSH1 0x40 MLOAD PUSH3 0x461BCD PUSH1 0xE5 SHL DUP2 MSTORE PUSH1 0x20 PUSH1 0x4 DUP3 ADD MSTORE PUSH1 0x10 PUSH1 0x24 DUP3 ADD MSTORE PUSH16 0x496E76616C6964204C6F616E20494421 PUSH1 0x80 SHL PUSH1 0x44 DUP3 ADD MSTORE PUSH1 0x64 ADD PUSH2 0xA8A JUMP JUMPDEST PUSH0 DUP11 DUP2 MSTORE PUSH1 0xC PUSH1 0x20 SWAP1 DUP2 MSTORE PUSH1 0x40 DUP1 DUP4 KECCAK256 PUSH1 0xD DUP4 MSTORE DUP2 DUP5 KECCAK256 PUSH1 0x4 SWAP1 SWAP4 MSTORE SWAP3 KECCAK256 SLOAD DUP12 ISZERO DUP1 ISZERO SWAP1 PUSH2 0x2FAE JUMPI POP DUP12 DUP2 LT ISZERO JUMPDEST DUP1 ISZERO PUSH2 0x2FBA JUMPI POP DUP11 DUP2 GT ISZERO JUMPDEST PUSH2 0x302C JUMPI PUSH1 0x40 MLOAD PUSH3 0x461BCD PUSH1 0xE5 SHL DUP2 MSTORE PUSH1 0x20 PUSH1 0x4 DUP3 ADD MSTORE PUSH1 0x2F PUSH1 0x24 DUP3 ADD MSTORE PUSH32 0x5032504C656E64696E6720726571756972653A303C6D696E5F6C6F74733C3D73 PUSH1 0x44 DUP3 ADD MSTORE PUSH32 0x7570706C793C3D6D61785F6C6F74730000000000000000000000000000000000 PUSH1 0x64 DUP3 ADD MSTORE PUSH1 0x84 ADD PUSH2 0xA8A JUMP JUMPDEST PUSH0 PUSH2 0x3036 DUP15 PUSH2 0xC6E JUMP JUMPDEST SWAP1 POP PUSH1 0x1 DUP2 PUSH1 0x5 DUP2 GT ISZERO PUSH2 0x304C JUMPI PUSH2 0x304C PUSH2 0x4C79 JUMP JUMPDEST EQ DUP1 PUSH2 0x3069 JUMPI POP PUSH1 0x2 DUP2 PUSH1 0x5 DUP2 GT ISZERO PUSH2 0x3067 JUMPI PUSH2 0x3067 PUSH2 0x4C79 JUMP JUMPDEST EQ JUMPDEST PUSH2 0x30B5 JUMPI PUSH1 0x40 MLOAD PUSH3 0x461BCD PUSH1 0xE5 SHL DUP2 MSTORE PUSH1 0x20 PUSH1 0x4 DUP3 ADD MSTORE PUSH1 0x19 PUSH1 0x24 DUP3 ADD MSTORE PUSH32 0x5032504C656E64696E673A43616E6E6F7420626F72726F772100000000000000 PUSH1 0x44 DUP3 ADD MSTORE PUSH1 0x64 ADD PUSH2 0xA8A JUMP JUMPDEST DUP3 SLOAD PUSH1 0x1 PUSH1 0x1 PUSH1 0xA0 SHL SUB AND CALLER EQ DUP1 PUSH2 0x30D5 JUMPI POP DUP3 SLOAD PUSH1 0x1 PUSH1 0x1 PUSH1 0xA0 SHL SUB AND ISZERO JUMPDEST PUSH2 0x3121 JUMPI PUSH1 0x40 MLOAD PUSH3 0x461BCD PUSH1 0xE5 SHL DUP2 MSTORE PUSH1 0x20 PUSH1 0x4 DUP3 ADD MSTORE PUSH1 0x1F PUSH1 0x24 DUP3 ADD MSTORE PUSH32 0x5032504C656E64696E673A43616C6C6572206973206E6F74206F776E65722100 PUSH1 0x44 DUP3 ADD MSTORE PUSH1 0x64 ADD PUSH2 0xA8A JUMP JUMPDEST DUP2 DUP5 SSTORE DUP3 SLOAD PUSH20 0xFFFFFFFFFFFFFFFFFFFFFFFFFFFFFFFFFFFFFFFF NOT AND CALLER OR DUP4 SSTORE PUSH1 0x2 DUP5 ADD SLOAD PUSH2 0x3161 SWAP1 PUSH1 0x1 PUSH1 0x1 PUSH1 0x60 SHL SUB PUSH1 0x1 PUSH1 0xA0 SHL SWAP1 SWAP2 DIV AND TIMESTAMP PUSH2 0x5339 JUMP JUMPDEST DUP4 SLOAD PUSH1 0x1 PUSH1 0x1 PUSH1 0x60 SHL SUB SWAP2 SWAP1 SWAP2 AND PUSH1 0x1 PUSH1 0xA0 SHL MUL PUSH1 0x1 PUSH1 0x1 PUSH1 0xA0 SHL SUB SWAP1 SWAP2 AND OR DUP4 SSTORE POP POP PUSH1 0x1 DUP3 ADD SLOAD DUP3 SLOAD PUSH0 SWAP2 PUSH2 0x3197 SWAP2 PUSH2 0x5322 JUMP JUMPDEST PUSH1 0x2 DUP5 ADD SLOAD SWAP1 SWAP2 POP PUSH0 SWAP1 PUSH2 0x31B7 SWAP1 DUP4 SWAP1 PUSH1 0x1 PUSH1 0x1 PUSH1 0xA0 SHL SUB AND DUP11 DUP11 PUSH2 0x42D9 JUMP JUMPDEST SWAP1 POP PUSH0 PUSH2 0x31C6 PUSH1 0x4 PUSH1 0xA PUSH2 0x545A JUMP JUMPDEST PUSH1 0x3 DUP7 ADD SLOAD PUSH2 0x31E4 SWAP1 DUP5 SWAP1 PUSH5 0x100000000 SWAP1 DIV PUSH4 0xFFFFFFFF AND PUSH2 0x5322 JUMP JUMPDEST PUSH2 0x31EE SWAP2 SWAP1 PUSH2 0x5358 JUMP JUMPDEST SWAP1 POP PUSH4 0xFFFFFFFF DUP13 AND ISZERO ISZERO DUP1 PUSH2 0x3203 JUMPI POP PUSH0 DUP12 GT JUMPDEST ISZERO PUSH2 0x345E JUMPI PUSH1 0x3 DUP6 ADD SLOAD PUSH4 0xFFFFFFFF PUSH5 0x100000000 SWAP1 SWAP2 DIV DUP2 AND SWAP1 DUP14 AND LT ISZERO PUSH2 0x3294 JUMPI PUSH1 0x40 MLOAD PUSH3 0x461BCD PUSH1 0xE5 SHL DUP2 MSTORE PUSH1 0x20 PUSH1 0x4 DUP3 ADD MSTORE PUSH1 0x2A PUSH1 0x24 DUP3 ADD MSTORE PUSH32 0x5032504C656E64696E673A496E637265617365207461726765745F72656C6174 PUSH1 0x44 DUP3 ADD MSTORE PUSH32 0x6976655F76616C75652100000000000000000000000000000000000000000000 PUSH1 0x64 DUP3 ADD MSTORE PUSH1 0x84 ADD PUSH2 0xA8A JUMP JUMPDEST PUSH2 0x32C5 DUP2 PUSH2 0x32A4 PUSH1 0x4 PUSH1 0xA PUSH2 0x545A JUMP JUMPDEST DUP5 DUP16 PUSH4 0xFFFFFFFF AND PUSH2 0x32B6 SWAP2 SWAP1 PUSH2 0x5322 JUMP JUMPDEST PUSH2 0x32C0 SWAP2 SWAP1 PUSH2 0x5358 JUMP JUMPDEST PUSH2 0x4384 JUMP JUMPDEST SWAP1 POP DUP4 PUSH1 0x1 ADD SLOAD DUP2 GT ISZERO PUSH2 0x3386 JUMPI PUSH0 DUP5 PUSH1 0x1 ADD SLOAD DUP3 PUSH2 0x32E4 SWAP2 SWAP1 PUSH2 0x530F JUMP JUMPDEST SWAP1 POP DUP1 DUP12 LT ISZERO PUSH2 0x3346 JUMPI PUSH1 0x40 MLOAD PUSH3 0x461BCD PUSH1 0xE5 SHL DUP2 MSTORE PUSH1 0x20 PUSH1 0x4 DUP3 ADD MSTORE PUSH1 0x27 PUSH1 0x24 DUP3 ADD MSTORE PUSH32 0x5032504C656E64696E673A496E637265617365206D61785F636F6C6C61746572 PUSH1 0x44 DUP3 ADD MSTORE PUSH7 0x616C5F6F757421 PUSH1 0xC8 SHL PUSH1 0x64 DUP3 ADD MSTORE PUSH1 0x84 ADD PUSH2 0xA8A JUMP JUMPDEST DUP5 SLOAD PUSH2 0x3380 SWAP1 PUSH1 0x1 PUSH1 0x1 PUSH1 0xA0 SHL SUB PUSH32 0x0 DUP2 AND SWAP2 AND ADDRESS DUP5 PUSH2 0x4019 JUMP JUMPDEST POP PUSH2 0x3456 JUMP JUMPDEST DUP4 PUSH1 0x1 ADD SLOAD DUP2 LT ISZERO PUSH2 0x3456 JUMPI PUSH0 DUP2 DUP6 PUSH1 0x1 ADD SLOAD PUSH2 0x33A3 SWAP2 SWAP1 PUSH2 0x530F JUMP JUMPDEST SWAP1 POP DUP12 DUP2 LT ISZERO PUSH2 0x341B JUMPI PUSH1 0x40 MLOAD PUSH3 0x461BCD PUSH1 0xE5 SHL DUP2 MSTORE PUSH1 0x20 PUSH1 0x4 DUP3 ADD MSTORE PUSH1 0x26 PUSH1 0x24 DUP3 ADD MSTORE PUSH32 0x5032504C656E64696E673A4465637265617365206D696E5F636F6C6C61746572 PUSH1 0x44 DUP3 ADD MSTORE PUSH32 0x616C5F696E210000000000000000000000000000000000000000000000000000 PUSH1 0x64 DUP3 ADD MSTORE PUSH1 0x84 ADD PUSH2 0xA8A JUMP JUMPDEST DUP5 SLOAD PUSH2 0x3454 SWAP1 PUSH1 0x1 PUSH1 0x1 PUSH1 0xA0 SHL SUB PUSH32 0x0 DUP2 AND SWAP2 AND DUP4 PUSH2 0x415B JUMP JUMPDEST POP JUMPDEST PUSH1 0x1 DUP5 ADD DUP2 SWAP1 SSTORE JUMPDEST DUP1 DUP5 PUSH1 0x1 ADD SLOAD LT ISZERO PUSH2 0x34B2 JUMPI PUSH1 0x40 MLOAD PUSH3 0x461BCD PUSH1 0xE5 SHL DUP2 MSTORE PUSH1 0x20 PUSH1 0x4 DUP3 ADD MSTORE PUSH1 0x1F PUSH1 0x24 DUP3 ADD MSTORE PUSH32 0x5032504C656E64696E673A496E63726561736520636F6C6C61746572616C2100 PUSH1 0x44 DUP3 ADD MSTORE PUSH1 0x64 ADD PUSH2 0xA8A JUMP JUMPDEST PUSH0 PUSH2 0x34BF PUSH1 0x4 PUSH1 0xA PUSH2 0x545A JUMP JUMPDEST PUSH1 0xA SLOAD PUSH2 0x34D3 SWAP1 DUP7 SWAP1 PUSH4 0xFFFFFFFF AND PUSH2 0x5322 JUMP JUMPDEST PUSH2 0x34DD SWAP2 SWAP1 PUSH2 0x5358 JUMP JUMPDEST PUSH1 0xA SLOAD SWAP1 SWAP2 POP PUSH2 0x3522 SWAP1 PUSH1 0x1 PUSH1 0x1 PUSH1 0xA0 SHL SUB PUSH32 0x0 DUP2 AND SWAP2 PUSH5 0x100000000 SWAP1 DIV AND DUP4 PUSH2 0x415B JUMP JUMPDEST DUP5 SLOAD PUSH2 0x353B SWAP1 PUSH1 0x1 PUSH1 0x1 PUSH1 0xA0 SHL SUB AND PUSH2 0x2EB3 DUP4 DUP8 PUSH2 0x530F JUMP JUMPDEST POP DUP5 SLOAD PUSH1 0x40 MLOAD SWAP1 DUP2 MSTORE DUP16 SWAP1 PUSH32 0x44EC4D36B0D76019C4B5AEC2A216DBCA5AD6C6D671940C8FBBCD23CFE4E804B SWAP1 PUSH1 0x20 ADD PUSH1 0x40 MLOAD DUP1 SWAP2 SUB SWAP1 LOG2 PUSH2 0x357C DUP16 PUSH2 0x418C JUMP JUMPDEST POP POP SWAP2 SLOAD SWAP4 POP POP POP POP PUSH2 0x2C23 PUSH1 0x1 PUSH1 0x6 SSTORE JUMP JUMPDEST PUSH2 0x3597 PUSH2 0x3F82 JUMP JUMPDEST PUSH1 0x9 SLOAD PUSH4 0xFFFFFFFF PUSH1 0x1 PUSH1 0xE0 SHL SWAP1 SWAP2 DIV DUP2 AND SWAP1 DUP3 AND LT ISZERO PUSH2 0x35B6 JUMPI PUSH0 PUSH0 REVERT JUMPDEST PUSH1 0x9 DUP1 SLOAD PUSH32 0xFFFFFFFF00000000FFFFFFFFFFFFFFFFFFFFFFFFFFFFFFFFFFFFFFFFFFFFFFFF AND PUSH1 0x1 PUSH1 0xC0 SHL PUSH4 0xFFFFFFFF DUP5 DUP2 AND DUP3 MUL SWAP3 SWAP1 SWAP3 OR SWAP3 DUP4 SWAP1 SSTORE PUSH1 0x40 MLOAD SWAP3 DIV AND DUP2 MSTORE PUSH32 0xE03AA8E619C2EFC3DCDA53A6319B90BD43E44772026248FFAABC2A1535BBA8E5 SWAP1 PUSH1 0x20 ADD PUSH2 0x138F JUMP JUMPDEST PUSH2 0x2195 CALLER DUP4 DUP4 PUSH2 0x4393 JUMP JUMPDEST PUSH2 0x3638 PUSH2 0x3F82 JUMP JUMPDEST PUSH1 0x9 SLOAD PUSH4 0xFFFFFFFF DUP1 DUP4 AND PUSH1 0x1 PUSH1 0xA0 SHL SWAP1 SWAP3 DIV AND LT ISZERO PUSH2 0x3656 JUMPI PUSH0 PUSH0 REVERT JUMPDEST PUSH1 0x9 DUP1 SLOAD PUSH32 0xFFFFFFFFFFFFFFFFFFFFFFFF00000000FFFFFFFFFFFFFFFFFFFFFFFFFFFFFFFF AND PUSH1 0x1 PUSH1 0x80 SHL PUSH4 0xFFFFFFFF DUP5 DUP2 AND DUP3 MUL SWAP3 SWAP1 SWAP3 OR SWAP3 DUP4 SWAP1 SSTORE PUSH1 0x40 MLOAD SWAP3 DIV AND DUP2 MSTORE PUSH32 0x2519FD4CF837FEFB87387523F27D23369EA51186F29F745CC4677E7C319B3EC0 SWAP1 PUSH1 0x20 ADD PUSH2 0x138F JUMP JUMPDEST PUSH0 PUSH0 DUP5 GT DUP1 ISZERO PUSH2 0x36D6 JUMPI POP PUSH1 0xE SLOAD DUP5 LT JUMPDEST ISZERO DUP1 PUSH2 0x36FC JUMPI POP PUSH1 0x4 PUSH2 0x36E8 DUP6 PUSH2 0xC6E JUMP JUMPDEST PUSH1 0x5 DUP2 GT ISZERO PUSH2 0x36F9 JUMPI PUSH2 0x36F9 PUSH2 0x4C79 JUMP JUMPDEST EQ ISZERO JUMPDEST DUP1 PUSH2 0x3828 JUMPI POP PUSH0 DUP5 DUP2 MSTORE PUSH1 0xD PUSH1 0x20 MSTORE PUSH1 0x40 SWAP1 KECCAK256 SLOAD PUSH1 0x1 PUSH1 0x1 PUSH1 0x60 SHL SUB TIMESTAMP DUP2 AND PUSH1 0x1 PUSH1 0xA0 SHL SWAP1 SWAP3 DIV AND LT DUP1 PUSH2 0x3826 JUMPI POP PUSH0 DUP5 DUP2 MSTORE PUSH1 0xC PUSH1 0x20 SWAP1 DUP2 MSTORE PUSH1 0x40 DUP1 DUP4 KECCAK256 PUSH1 0x3 DUP2 ADD SLOAD PUSH1 0x2 SWAP1 SWAP2 ADD SLOAD PUSH1 0xD SWAP1 SWAP4 MSTORE SWAP3 KECCAK256 PUSH1 0x1 ADD SLOAD PUSH1 0x1 PUSH1 0x40 SHL SWAP1 SWAP3 DIV PUSH4 0xFFFFFFFF AND SWAP2 PUSH1 0x1 PUSH1 0x1 PUSH1 0xA0 SHL SUB SWAP1 SWAP2 AND SWAP1 PUSH4 0x4BBF415C SWAP1 PUSH32 0x0 SWAP1 PUSH1 0x4 SWAP1 PUSH32 0x0 PUSH2 0x37C1 DUP12 PUSH2 0x38F4 JUMP JUMPDEST DUP11 DUP11 PUSH1 0x40 MLOAD DUP9 PUSH4 0xFFFFFFFF AND PUSH1 0xE0 SHL DUP2 MSTORE PUSH1 0x4 ADD PUSH2 0x37E5 SWAP8 SWAP7 SWAP6 SWAP5 SWAP4 SWAP3 SWAP2 SWAP1 PUSH2 0x54A3 JUMP JUMPDEST PUSH1 0x20 PUSH1 0x40 MLOAD DUP1 DUP4 SUB DUP2 DUP7 GAS STATICCALL ISZERO DUP1 ISZERO PUSH2 0x3800 JUMPI RETURNDATASIZE PUSH0 PUSH0 RETURNDATACOPY RETURNDATASIZE PUSH0 REVERT JUMPDEST POP POP POP POP PUSH1 0x40 MLOAD RETURNDATASIZE PUSH1 0x1F NOT PUSH1 0x1F DUP3 ADD AND DUP3 ADD DUP1 PUSH1 0x40 MSTORE POP DUP2 ADD SWAP1 PUSH2 0x3824 SWAP2 SWAP1 PUSH2 0x54F0 JUMP JUMPDEST LT JUMPDEST ISZERO JUMPDEST ISZERO PUSH2 0x3834 JUMPI POP PUSH0 PUSH2 0x11B1 JUMP JUMPDEST POP PUSH1 0x1 PUSH2 0x11B1 JUMP JUMPDEST PUSH2 0x3844 PUSH2 0x3F82 JUMP JUMPDEST PUSH1 0xA DUP1 SLOAD PUSH4 0xFFFFFFFF NOT AND PUSH4 0xFFFFFFFF DUP4 AND SWAP1 DUP2 OR SWAP1 SWAP2 SSTORE PUSH1 0x40 MLOAD SWAP1 DUP2 MSTORE PUSH32 0x7F6F57FED03F08A846D1DD7051E9D858E85408182510EC902F0D921307910284 SWAP1 PUSH1 0x20 ADD PUSH2 0x138F JUMP JUMPDEST PUSH2 0x3894 PUSH2 0x3F82 JUMP JUMPDEST PUSH1 0x9 DUP1 SLOAD PUSH16 0xFFFFFFFF000000000000000000000000 NOT AND PUSH1 0x1 PUSH1 0x60 SHL PUSH4 0xFFFFFFFF DUP5 DUP2 AND DUP3 MUL SWAP3 SWAP1 SWAP3 OR SWAP3 DUP4 SWAP1 SSTORE PUSH1 0x40 MLOAD SWAP3 DIV AND DUP2 MSTORE PUSH32 0x62B518624E16DADCA83B89E62D9F351D869E67A350D856935F3A3083AA4CF948 SWAP1 PUSH1 0x20 ADD PUSH2 0x138F JUMP JUMPDEST PUSH0 DUP2 DUP2 MSTORE PUSH1 0xD PUSH1 0x20 MSTORE PUSH1 0x40 DUP2 KECCAK256 DUP1 SLOAD PUSH1 0x1 PUSH1 0xA0 SHL SWAP1 DIV PUSH1 0x1 PUSH1 0x1 PUSH1 0x60 SHL SUB AND ISZERO DUP1 PUSH2 0x3921 JUMPI POP PUSH1 0x1 DUP2 ADD SLOAD ISZERO JUMPDEST ISZERO PUSH2 0x392E JUMPI POP PUSH0 SWAP3 SWAP2 POP POP JUMP JUMPDEST PUSH0 DUP4 DUP2 MSTORE PUSH1 0xC PUSH1 0x20 SWAP1 DUP2 MSTORE PUSH1 0x40 DUP1 DUP4 KECCAK256 PUSH1 0x1 DUP2 ADD SLOAD PUSH1 0x4 SWAP1 SWAP4 MSTORE SWAP1 DUP4 KECCAK256 SLOAD SWAP1 SWAP3 SWAP2 PUSH2 0x3958 SWAP2 PUSH2 0x5322 JUMP JUMPDEST DUP4 SLOAD SWAP1 SWAP2 POP PUSH0 SWAP1 PUSH1 0x1 PUSH1 0x1 PUSH1 0x60 SHL SUB TIMESTAMP DUP2 AND PUSH1 0x1 PUSH1 0xA0 SHL SWAP1 SWAP3 DIV AND GT PUSH2 0x399E JUMPI PUSH1 0x2 DUP4 ADD SLOAD PUSH2 0x3999 SWAP1 PUSH1 0x1 SWAP1 PUSH1 0x1 PUSH1 0xA0 SHL SWAP1 DIV PUSH1 0x1 PUSH1 0x1 PUSH1 0x60 SHL SUB AND PUSH2 0x5552 JUMP JUMPDEST PUSH2 0x39D1 JUMP JUMPDEST PUSH1 0x2 DUP4 ADD SLOAD DUP5 SLOAD PUSH2 0x39C7 SWAP2 PUSH1 0x1 PUSH1 0x1 PUSH1 0x60 SHL SUB PUSH1 0x1 PUSH1 0xA0 SHL SWAP2 DUP3 SWAP1 DIV DUP2 AND SWAP3 SWAP2 SWAP1 SWAP2 DIV AND PUSH2 0x5552 JUMP JUMPDEST PUSH2 0x39D1 SWAP1 TIMESTAMP PUSH2 0x5552 JUMP JUMPDEST PUSH1 0x1 PUSH1 0x1 PUSH1 0x60 SHL SUB AND SWAP1 POP PUSH2 0x39E9 PUSH3 0x15180 DUP3 PUSH2 0x5358 JUMP JUMPDEST PUSH2 0x39F4 SWAP1 PUSH1 0x1 PUSH2 0x5468 JUMP JUMPDEST PUSH2 0x3A01 SWAP1 PUSH3 0x15180 PUSH2 0x5322 JUMP JUMPDEST SWAP1 POP PUSH4 0x1E13380 PUSH2 0x3A14 PUSH1 0x4 PUSH1 0xA PUSH2 0x545A JUMP JUMPDEST PUSH1 0x3 DUP6 ADD SLOAD DUP5 SWAP1 PUSH2 0x3A2B SWAP1 PUSH4 0xFFFFFFFF AND DUP6 PUSH2 0x5322 JUMP JUMPDEST PUSH2 0x3A35 SWAP2 SWAP1 PUSH2 0x5322 JUMP JUMPDEST PUSH2 0x3A3F SWAP2 SWAP1 PUSH2 0x5358 JUMP JUMPDEST PUSH2 0x3A49 SWAP2 SWAP1 PUSH2 0x5358 JUMP JUMPDEST PUSH2 0x3A53 SWAP1 DUP4 PUSH2 0x5468 JUMP JUMPDEST SWAP7 SWAP6 POP POP POP POP POP POP JUMP JUMPDEST PUSH2 0x3A65 PUSH2 0x3FC7 JUMP JUMPDEST DUP3 PUSH0 DUP2 GT DUP1 ISZERO PUSH2 0x3A76 JUMPI POP PUSH1 0xE SLOAD DUP2 LT JUMPDEST PUSH2 0x3AB5 JUMPI PUSH1 0x40 MLOAD PUSH3 0x461BCD PUSH1 0xE5 SHL DUP2 MSTORE PUSH1 0x20 PUSH1 0x4 DUP3 ADD MSTORE PUSH1 0x10 PUSH1 0x24 DUP3 ADD MSTORE PUSH16 0x496E76616C6964204C6F616E20494421 PUSH1 0x80 SHL PUSH1 0x44 DUP3 ADD MSTORE PUSH1 0x64 ADD PUSH2 0xA8A JUMP JUMPDEST PUSH1 0x4 PUSH2 0x3AC0 DUP6 PUSH2 0xC6E JUMP JUMPDEST PUSH1 0x5 DUP2 GT ISZERO PUSH2 0x3AD1 JUMPI PUSH2 0x3AD1 PUSH2 0x4C79 JUMP JUMPDEST EQ PUSH2 0x3B30 JUMPI PUSH1 0x40 MLOAD PUSH3 0x461BCD PUSH1 0xE5 SHL DUP2 MSTORE PUSH1 0x20 PUSH1 0x4 DUP3 ADD MSTORE PUSH1 0x29 PUSH1 0x24 DUP3 ADD MSTORE PUSH32 0x5032504C656E64696E673A4C6F616E537461747573206D75737420657175616C PUSH1 0x44 DUP3 ADD MSTORE PUSH9 0x732041435449564521 PUSH1 0xB8 SHL PUSH1 0x64 DUP3 ADD MSTORE PUSH1 0x84 ADD PUSH2 0xA8A JUMP JUMPDEST PUSH0 DUP5 DUP2 MSTORE PUSH1 0xC PUSH1 0x20 SWAP1 DUP2 MSTORE PUSH1 0x40 DUP1 DUP4 KECCAK256 PUSH1 0xD SWAP1 SWAP3 MSTORE SWAP1 SWAP2 KECCAK256 DUP1 SLOAD PUSH1 0x1 PUSH1 0x1 PUSH1 0x60 SHL SUB TIMESTAMP DUP2 AND PUSH1 0x1 PUSH1 0xA0 SHL SWAP1 SWAP3 DIV AND LT DUP1 PUSH2 0x3C4A JUMPI POP PUSH1 0x3 DUP3 ADD SLOAD PUSH1 0x2 DUP4 ADD SLOAD PUSH1 0x1 DUP4 ADD SLOAD PUSH1 0x1 PUSH1 0x40 SHL SWAP1 SWAP3 DIV PUSH4 0xFFFFFFFF AND SWAP2 PUSH1 0x1 PUSH1 0x1 PUSH1 0xA0 SHL SUB SWAP1 SWAP2 AND SWAP1 PUSH4 0xB4E37CF9 SWAP1 PUSH32 0x0 SWAP1 PUSH1 0x4 SWAP1 PUSH32 0x0 PUSH2 0x3BE4 DUP14 PUSH2 0x38F4 JUMP JUMPDEST DUP13 DUP13 PUSH1 0x40 MLOAD DUP9 PUSH4 0xFFFFFFFF AND PUSH1 0xE0 SHL DUP2 MSTORE PUSH1 0x4 ADD PUSH2 0x3C08 SWAP8 SWAP7 SWAP6 SWAP5 SWAP4 SWAP3 SWAP2 SWAP1 PUSH2 0x54A3 JUMP JUMPDEST PUSH1 0x20 PUSH1 0x40 MLOAD DUP1 DUP4 SUB DUP2 PUSH0 DUP8 GAS CALL ISZERO DUP1 ISZERO PUSH2 0x3C24 JUMPI RETURNDATASIZE PUSH0 PUSH0 RETURNDATACOPY RETURNDATASIZE PUSH0 REVERT JUMPDEST POP POP POP POP PUSH1 0x40 MLOAD RETURNDATASIZE PUSH1 0x1F NOT PUSH1 0x1F DUP3 ADD AND DUP3 ADD DUP1 PUSH1 0x40 MSTORE POP DUP2 ADD SWAP1 PUSH2 0x3C48 SWAP2 SWAP1 PUSH2 0x54F0 JUMP JUMPDEST LT JUMPDEST PUSH2 0x3C96 JUMPI PUSH1 0x40 MLOAD PUSH3 0x461BCD PUSH1 0xE5 SHL DUP2 MSTORE PUSH1 0x20 PUSH1 0x4 DUP3 ADD MSTORE PUSH1 0x1C PUSH1 0x24 DUP3 ADD MSTORE PUSH32 0x5032504C656E64696E673A43616E6E6F74204C69717569646174652100000000 PUSH1 0x44 DUP3 ADD MSTORE PUSH1 0x64 ADD PUSH2 0xA8A JUMP JUMPDEST PUSH0 PUSH2 0x3CA1 CALLER DUP9 PUSH2 0x910 JUMP JUMPDEST SWAP1 POP PUSH0 DUP2 GT PUSH2 0x3CF2 JUMPI PUSH1 0x40 MLOAD PUSH3 0x461BCD PUSH1 0xE5 SHL DUP2 MSTORE PUSH1 0x20 PUSH1 0x4 DUP3 ADD MSTORE PUSH1 0x1C PUSH1 0x24 DUP3 ADD MSTORE PUSH32 0x5032504C656E64696E673A4E6F7468696E6720746F20636C61696D2100000000 PUSH1 0x44 DUP3 ADD MSTORE PUSH1 0x64 ADD PUSH2 0xA8A JUMP JUMPDEST PUSH0 DUP8 DUP2 MSTORE PUSH1 0x4 PUSH1 0x20 MSTORE PUSH1 0x40 DUP2 KECCAK256 SLOAD PUSH1 0x1 DUP5 ADD SLOAD PUSH2 0x3D0F SWAP1 DUP5 PUSH2 0x5322 JUMP JUMPDEST PUSH2 0x3D19 SWAP2 SWAP1 PUSH2 0x5358 JUMP JUMPDEST SWAP1 POP DUP1 DUP4 PUSH1 0x1 ADD PUSH0 DUP3 DUP3 SLOAD PUSH2 0x3D2E SWAP2 SWAP1 PUSH2 0x530F JUMP JUMPDEST SWAP1 SWAP2 SSTORE POP PUSH2 0x3D3F SWAP1 POP CALLER DUP10 DUP5 PUSH2 0x4217 JUMP JUMPDEST PUSH2 0x3D73 PUSH32 0x0 PUSH1 0x1 PUSH1 0x1 PUSH1 0xA0 SHL SUB AND CALLER DUP4 PUSH2 0x415B JUMP JUMPDEST PUSH1 0x40 DUP1 MLOAD DUP4 DUP2 MSTORE PUSH1 0x20 DUP2 ADD DUP4 SWAP1 MSTORE CALLER SWAP2 DUP11 SWAP2 PUSH32 0x1D444C28894712984A4FE069711274D086859136F702D387BDA2F1CD90D66DF8 SWAP2 ADD PUSH1 0x40 MLOAD DUP1 SWAP2 SUB SWAP1 LOG3 PUSH2 0x3DB9 DUP9 PUSH2 0x418C JUMP JUMPDEST POP POP POP POP POP PUSH2 0x3DC8 PUSH1 0x1 PUSH1 0x6 SSTORE JUMP JUMPDEST POP POP POP JUMP JUMPDEST PUSH2 0x3DD5 PUSH2 0x3F82 JUMP JUMPDEST PUSH1 0x9 SLOAD PUSH4 0xFFFFFFFF PUSH5 0x100000000 SWAP1 SWAP2 DIV DUP2 AND SWAP1 DUP3 AND LT ISZERO PUSH2 0x3DF5 JUMPI PUSH0 PUSH0 REVERT JUMPDEST PUSH1 0x9 DUP1 SLOAD PUSH12 0xFFFFFFFF0000000000000000 NOT AND PUSH1 0x1 PUSH1 0x40 SHL PUSH4 0xFFFFFFFF DUP5 DUP2 AND DUP3 MUL SWAP3 SWAP1 SWAP3 OR SWAP3 DUP4 SWAP1 SSTORE PUSH1 0x40 MLOAD SWAP3 DIV AND DUP2 MSTORE PUSH32 0xA33C859C6A01D7D71B062AE88C11D026EFD55B26B354DFC8844E5A74B8BF069B SWAP1 PUSH1 0x20 ADD PUSH2 0x138F JUMP JUMPDEST PUSH2 0x3E59 PUSH2 0x3F82 JUMP JUMPDEST PUSH0 DUP2 PUSH4 0xFFFFFFFF AND GT PUSH2 0x3E6A JUMPI PUSH0 PUSH0 REVERT JUMPDEST PUSH1 0x9 DUP1 SLOAD PUSH4 0xFFFFFFFF NOT AND PUSH4 0xFFFFFFFF DUP4 AND SWAP1 DUP2 OR SWAP1 SWAP2 SSTORE PUSH1 0x40 MLOAD SWAP1 DUP2 MSTORE PUSH32 0x8B8BFA8B607AEE8F950B269EE81087CD304216FD813AC4F3AEAD05D7072A3A13 SWAP1 PUSH1 0x20 ADD PUSH2 0x138F JUMP JUMPDEST CALLER PUSH1 0x1 PUSH1 0x1 PUSH1 0xA0 SHL SUB DUP7 AND DUP2 EQ DUP1 ISZERO SWAP1 PUSH2 0x3EF1 JUMPI POP PUSH1 0x1 PUSH1 0x1 PUSH1 0xA0 SHL SUB DUP1 DUP8 AND PUSH0 SWAP1 DUP2 MSTORE PUSH1 0x2 PUSH1 0x20 SWAP1 DUP2 MSTORE PUSH1 0x40 DUP1 DUP4 KECCAK256 SWAP4 DUP6 AND DUP4 MSTORE SWAP3 SWAP1 MSTORE KECCAK256 SLOAD PUSH1 0xFF AND ISZERO JUMPDEST ISZERO PUSH2 0x3F22 JUMPI PUSH1 0x40 MLOAD PUSH4 0x711BEC91 PUSH1 0xE1 SHL DUP2 MSTORE PUSH1 0x1 PUSH1 0x1 PUSH1 0xA0 SHL SUB DUP1 DUP4 AND PUSH1 0x4 DUP4 ADD MSTORE DUP8 AND PUSH1 0x24 DUP3 ADD MSTORE PUSH1 0x44 ADD PUSH2 0xA8A JUMP JUMPDEST PUSH2 0x12FB DUP7 DUP7 DUP7 DUP7 DUP7 PUSH2 0x4441 JUMP JUMPDEST PUSH2 0x3F37 PUSH2 0x3F82 JUMP JUMPDEST PUSH1 0x1 PUSH1 0x1 PUSH1 0xA0 SHL SUB DUP2 AND PUSH2 0x3F79 JUMPI PUSH1 0x40 MLOAD PUSH32 0x1E4FBDF700000000000000000000000000000000000000000000000000000000 DUP2 MSTORE PUSH0 PUSH1 0x4 DUP3 ADD MSTORE PUSH1 0x24 ADD PUSH2 0xA8A JUMP JUMPDEST PUSH2 0x16B7 DUP2 PUSH2 0x427D JUMP JUMPDEST PUSH0 SLOAD PUSH1 0x1 PUSH1 0x1 PUSH1 0xA0 SHL SUB AND CALLER EQ PUSH2 0x26C8 JUMPI PUSH1 0x40 MLOAD PUSH32 0x118CDAA700000000000000000000000000000000000000000000000000000000 DUP2 MSTORE CALLER PUSH1 0x4 DUP3 ADD MSTORE PUSH1 0x24 ADD PUSH2 0xA8A JUMP JUMPDEST PUSH1 0x2 PUSH1 0x6 SLOAD SUB PUSH2 0x4003 JUMPI PUSH1 0x40 MLOAD PUSH32 0x3EE5AEB500000000000000000000000000000000000000000000000000000000 DUP2 MSTORE PUSH1 0x4 ADD PUSH1 0x40 MLOAD DUP1 SWAP2 SUB SWAP1 REVERT JUMPDEST PUSH1 0x2 PUSH1 0x6 SSTORE JUMP JUMPDEST PUSH0 DUP3 DUP3 XOR DUP3 DUP5 LT MUL DUP3 XOR PUSH2 0x11B1 JUMP JUMPDEST PUSH1 0x40 MLOAD PUSH1 0x1 PUSH1 0x1 PUSH1 0xA0 SHL SUB DUP5 DUP2 AND PUSH1 0x24 DUP4 ADD MSTORE DUP4 DUP2 AND PUSH1 0x44 DUP4 ADD MSTORE PUSH1 0x64 DUP3 ADD DUP4 SWAP1 MSTORE PUSH2 0x4095 SWAP2 DUP7 SWAP2 DUP3 AND SWAP1 PUSH4 0x23B872DD SWAP1 PUSH1 0x84 ADD JUMPDEST PUSH1 0x40 MLOAD PUSH1 0x20 DUP2 DUP4 SUB SUB DUP2 MSTORE SWAP1 PUSH1 0x40 MSTORE SWAP2 POP PUSH1 0xE0 SHL PUSH1 0x20 DUP3 ADD DUP1 MLOAD PUSH28 0xFFFFFFFFFFFFFFFFFFFFFFFFFFFFFFFFFFFFFFFFFFFFFFFFFFFFFFFF DUP4 DUP2 DUP4 AND OR DUP4 MSTORE POP POP POP POP PUSH2 0x44CD JUMP JUMPDEST POP POP POP POP JUMP JUMPDEST PUSH1 0x1 PUSH1 0x1 PUSH1 0xA0 SHL SUB DUP5 AND PUSH2 0x40C4 JUMPI PUSH1 0x40 MLOAD PUSH4 0x2BFA23E7 PUSH1 0xE1 SHL DUP2 MSTORE PUSH0 PUSH1 0x4 DUP3 ADD MSTORE PUSH1 0x24 ADD PUSH2 0xA8A JUMP JUMPDEST PUSH1 0x40 DUP1 MLOAD PUSH1 0x1 DUP1 DUP3 MSTORE PUSH1 0x20 DUP3 ADD DUP7 SWAP1 MSTORE DUP2 DUP4 ADD SWAP1 DUP2 MSTORE PUSH1 0x60 DUP3 ADD DUP6 SWAP1 MSTORE PUSH1 0x80 DUP3 ADD SWAP1 SWAP3 MSTORE SWAP1 PUSH2 0x12FB PUSH0 DUP8 DUP5 DUP5 DUP8 PUSH2 0x4552 JUMP JUMPDEST PUSH1 0x1 PUSH1 0x1 PUSH1 0xA0 SHL SUB DUP5 AND PUSH2 0x411F JUMPI PUSH1 0x40 MLOAD PUSH4 0x2BFA23E7 PUSH1 0xE1 SHL DUP2 MSTORE PUSH0 PUSH1 0x4 DUP3 ADD MSTORE PUSH1 0x24 ADD PUSH2 0xA8A JUMP JUMPDEST PUSH1 0x1 PUSH1 0x1 PUSH1 0xA0 SHL SUB DUP6 AND PUSH2 0x4147 JUMPI PUSH1 0x40 MLOAD PUSH3 0x6A0D45 PUSH1 0xE2 SHL DUP2 MSTORE PUSH0 PUSH1 0x4 DUP3 ADD MSTORE PUSH1 0x24 ADD PUSH2 0xA8A JUMP JUMPDEST PUSH2 0x4154 DUP6 DUP6 DUP6 DUP6 DUP6 PUSH2 0x4552 JUMP JUMPDEST POP POP POP POP POP JUMP JUMPDEST PUSH1 0x40 MLOAD PUSH1 0x1 PUSH1 0x1 PUSH1 0xA0 SHL SUB DUP4 DUP2 AND PUSH1 0x24 DUP4 ADD MSTORE PUSH1 0x44 DUP3 ADD DUP4 SWAP1 MSTORE PUSH2 0x3DC8 SWAP2 DUP6 SWAP2 DUP3 AND SWAP1 PUSH4 0xA9059CBB SWAP1 PUSH1 0x64 ADD PUSH2 0x404E JUMP JUMPDEST PUSH0 DUP2 DUP2 MSTORE PUSH1 0xD PUSH1 0x20 SWAP1 DUP2 MSTORE PUSH1 0x40 SWAP2 DUP3 SWAP1 KECCAK256 DUP1 SLOAD PUSH1 0x1 DUP3 ADD SLOAD PUSH1 0x2 DUP4 ADD SLOAD PUSH1 0x3 SWAP1 SWAP4 ADD SLOAD DUP6 MLOAD PUSH1 0x1 PUSH1 0x1 PUSH1 0x60 SHL SUB PUSH1 0x1 PUSH1 0xA0 SHL DUP6 DIV DUP2 AND DUP3 MSTORE SWAP6 DUP2 ADD SWAP3 SWAP1 SWAP3 MSTORE SWAP5 DUP2 ADD SWAP3 SWAP1 SWAP3 MSTORE SWAP2 SWAP1 SWAP3 AND PUSH1 0x60 DUP4 ADD MSTORE PUSH1 0x1 PUSH1 0x1 PUSH1 0xA0 SHL SUB AND SWAP1 DUP3 SWAP1 PUSH32 0x289938DFD99639EB7B7174B9259EAA5A4B3A1D69D143B4D03D58B86AC502517D SWAP1 PUSH1 0x80 ADD PUSH1 0x40 MLOAD DUP1 SWAP2 SUB SWAP1 LOG3 POP JUMP JUMPDEST PUSH1 0x1 PUSH1 0x1 PUSH1 0xA0 SHL SUB DUP4 AND PUSH2 0x423F JUMPI PUSH1 0x40 MLOAD PUSH3 0x6A0D45 PUSH1 0xE2 SHL DUP2 MSTORE PUSH0 PUSH1 0x4 DUP3 ADD MSTORE PUSH1 0x24 ADD PUSH2 0xA8A JUMP JUMPDEST PUSH1 0x40 DUP1 MLOAD PUSH1 0x1 DUP1 DUP3 MSTORE PUSH1 0x20 DUP3 ADD DUP6 SWAP1 MSTORE DUP2 DUP4 ADD SWAP1 DUP2 MSTORE PUSH1 0x60 DUP3 ADD DUP5 SWAP1 MSTORE PUSH1 0xA0 DUP3 ADD SWAP1 SWAP3 MSTORE PUSH0 PUSH1 0x80 DUP3 ADD DUP2 DUP2 MSTORE SWAP2 SWAP3 SWAP2 PUSH2 0x4154 SWAP2 DUP8 SWAP2 DUP6 SWAP1 DUP6 SWAP1 PUSH2 0x4552 JUMP JUMPDEST PUSH0 DUP1 SLOAD PUSH1 0x1 PUSH1 0x1 PUSH1 0xA0 SHL SUB DUP4 DUP2 AND PUSH20 0xFFFFFFFFFFFFFFFFFFFFFFFFFFFFFFFFFFFFFFFF NOT DUP4 AND DUP2 OR DUP5 SSTORE PUSH1 0x40 MLOAD SWAP2 SWAP1 SWAP3 AND SWAP3 DUP4 SWAP2 PUSH32 0x8BE0079C531659141344CD1FD0A4F28419497F9722A3DAAFE3B4186F6B6457E0 SWAP2 SWAP1 LOG3 POP POP JUMP JUMPDEST PUSH1 0x40 MLOAD PUSH32 0xC5801AA300000000000000000000000000000000000000000000000000000000 DUP2 MSTORE PUSH0 SWAP1 PUSH1 0x1 PUSH1 0x1 PUSH1 0xA0 SHL SUB DUP6 AND SWAP1 PUSH4 0xC5801AA3 SWAP1 PUSH2 0x4368 SWAP1 PUSH32 0x0 SWAP1 PUSH32 0x0 SWAP1 DUP11 SWAP1 DUP10 SWAP1 DUP10 SWAP1 PUSH1 0x4 ADD PUSH2 0x5571 JUMP JUMPDEST PUSH1 0x20 PUSH1 0x40 MLOAD DUP1 DUP4 SUB DUP2 PUSH0 DUP8 GAS CALL ISZERO DUP1 ISZERO PUSH2 0x18C1 JUMPI RETURNDATASIZE PUSH0 PUSH0 RETURNDATACOPY RETURNDATASIZE PUSH0 REVERT JUMPDEST PUSH0 DUP3 DUP3 XOR DUP3 DUP5 GT MUL DUP3 XOR PUSH2 0x11B1 JUMP JUMPDEST PUSH1 0x1 PUSH1 0x1 PUSH1 0xA0 SHL SUB DUP3 AND PUSH2 0x43D5 JUMPI PUSH1 0x40 MLOAD PUSH32 0xCED3E10000000000000000000000000000000000000000000000000000000000 DUP2 MSTORE PUSH0 PUSH1 0x4 DUP3 ADD MSTORE PUSH1 0x24 ADD PUSH2 0xA8A JUMP JUMPDEST PUSH1 0x1 PUSH1 0x1 PUSH1 0xA0 SHL SUB DUP4 DUP2 AND PUSH0 DUP2 DUP2 MSTORE PUSH1 0x2 PUSH1 0x20 SWAP1 DUP2 MSTORE PUSH1 0x40 DUP1 DUP4 KECCAK256 SWAP5 DUP8 AND DUP1 DUP5 MSTORE SWAP5 DUP3 MSTORE SWAP2 DUP3 SWAP1 KECCAK256 DUP1 SLOAD PUSH1 0xFF NOT AND DUP7 ISZERO ISZERO SWAP1 DUP2 OR SWAP1 SWAP2 SSTORE SWAP2 MLOAD SWAP2 DUP3 MSTORE PUSH32 0x17307EAB39AB6107E8899845AD3D59BD9653F200F220920489CA2B5937696C31 SWAP2 ADD PUSH1 0x40 MLOAD DUP1 SWAP2 SUB SWAP1 LOG3 POP POP POP JUMP JUMPDEST PUSH1 0x1 PUSH1 0x1 PUSH1 0xA0 SHL SUB DUP5 AND PUSH2 0x446A JUMPI PUSH1 0x40 MLOAD PUSH4 0x2BFA23E7 PUSH1 0xE1 SHL DUP2 MSTORE PUSH0 PUSH1 0x4 DUP3 ADD MSTORE PUSH1 0x24 ADD PUSH2 0xA8A JUMP JUMPDEST PUSH1 0x1 PUSH1 0x1 PUSH1 0xA0 SHL SUB DUP6 AND PUSH2 0x4492 JUMPI PUSH1 0x40 MLOAD PUSH3 0x6A0D45 PUSH1 0xE2 SHL DUP2 MSTORE PUSH0 PUSH1 0x4 DUP3 ADD MSTORE PUSH1 0x24 ADD PUSH2 0xA8A JUMP JUMPDEST PUSH1 0x40 DUP1 MLOAD PUSH1 0x1 DUP1 DUP3 MSTORE PUSH1 0x20 DUP3 ADD DUP7 SWAP1 MSTORE DUP2 DUP4 ADD SWAP1 DUP2 MSTORE PUSH1 0x60 DUP3 ADD DUP6 SWAP1 MSTORE PUSH1 0x80 DUP3 ADD SWAP1 SWAP3 MSTORE SWAP1 PUSH2 0x44C4 DUP8 DUP8 DUP5 DUP5 DUP8 PUSH2 0x4552 JUMP JUMPDEST POP POP POP POP POP POP POP JUMP JUMPDEST PUSH0 PUSH0 PUSH1 0x20 PUSH0 DUP5 MLOAD PUSH1 0x20 DUP7 ADD PUSH0 DUP9 GAS CALL DUP1 PUSH2 0x44EC JUMPI PUSH1 0x40 MLOAD RETURNDATASIZE PUSH0 DUP3 RETURNDATACOPY RETURNDATASIZE DUP2 REVERT JUMPDEST POP POP PUSH0 MLOAD RETURNDATASIZE SWAP2 POP DUP2 ISZERO PUSH2 0x4503 JUMPI DUP1 PUSH1 0x1 EQ ISZERO PUSH2 0x4510 JUMP JUMPDEST PUSH1 0x1 PUSH1 0x1 PUSH1 0xA0 SHL SUB DUP5 AND EXTCODESIZE ISZERO JUMPDEST ISZERO PUSH2 0x4095 JUMPI PUSH1 0x40 MLOAD PUSH32 0x5274AFE700000000000000000000000000000000000000000000000000000000 DUP2 MSTORE PUSH1 0x1 PUSH1 0x1 PUSH1 0xA0 SHL SUB DUP6 AND PUSH1 0x4 DUP3 ADD MSTORE PUSH1 0x24 ADD PUSH2 0xA8A JUMP JUMPDEST PUSH2 0x455E DUP6 DUP6 DUP6 DUP6 PUSH2 0x45A5 JUMP JUMPDEST PUSH1 0x1 PUSH1 0x1 PUSH1 0xA0 SHL SUB DUP5 AND ISZERO PUSH2 0x4154 JUMPI DUP3 MLOAD CALLER SWAP1 PUSH1 0x1 SUB PUSH2 0x4597 JUMPI PUSH1 0x20 DUP5 DUP2 ADD MLOAD SWAP1 DUP5 ADD MLOAD PUSH2 0x4590 DUP4 DUP10 DUP10 DUP6 DUP6 DUP10 PUSH2 0x468C JUMP JUMPDEST POP POP PUSH2 0x12FB JUMP JUMPDEST PUSH2 0x12FB DUP2 DUP8 DUP8 DUP8 DUP8 DUP8 PUSH2 0x47AD JUMP JUMPDEST PUSH2 0x45B1 DUP5 DUP5 DUP5 DUP5 PUSH2 0x4894 JUMP JUMPDEST PUSH1 0x1 PUSH1 0x1 PUSH1 0xA0 SHL SUB DUP5 AND PUSH2 0x462E JUMPI PUSH0 DUP1 JUMPDEST DUP4 MLOAD DUP2 LT ISZERO PUSH2 0x4615 JUMPI PUSH1 0x20 DUP2 DUP2 MUL DUP5 DUP2 ADD DUP3 ADD MLOAD SWAP1 DUP7 ADD DUP3 ADD MLOAD PUSH0 SWAP1 DUP2 MSTORE PUSH1 0x4 SWAP1 SWAP3 MSTORE PUSH1 0x40 DUP3 KECCAK256 DUP1 SLOAD SWAP2 SWAP3 DUP4 SWAP3 PUSH2 0x45FA SWAP1 DUP5 SWAP1 PUSH2 0x5468 JUMP JUMPDEST SWAP1 SWAP2 SSTORE POP PUSH2 0x460A SWAP1 POP DUP2 DUP5 PUSH2 0x5468 JUMP JUMPDEST SWAP3 POP POP PUSH1 0x1 ADD PUSH2 0x45C2 JUMP JUMPDEST POP DUP1 PUSH1 0x5 PUSH0 DUP3 DUP3 SLOAD PUSH2 0x4627 SWAP2 SWAP1 PUSH2 0x5468 JUMP JUMPDEST SWAP1 SWAP2 SSTORE POP POP POP JUMPDEST PUSH1 0x1 PUSH1 0x1 PUSH1 0xA0 SHL SUB DUP4 AND PUSH2 0x4095 JUMPI PUSH0 DUP1 JUMPDEST DUP4 MLOAD DUP2 LT ISZERO PUSH2 0x467B JUMPI PUSH1 0x20 DUP2 DUP2 MUL DUP5 DUP2 ADD DUP3 ADD MLOAD SWAP1 DUP7 ADD DUP3 ADD MLOAD PUSH0 SWAP1 DUP2 MSTORE PUSH1 0x4 SWAP1 SWAP3 MSTORE PUSH1 0x40 SWAP1 SWAP2 KECCAK256 DUP1 SLOAD DUP3 SWAP1 SUB SWAP1 SSTORE SWAP2 SWAP1 SWAP2 ADD SWAP1 PUSH1 0x1 ADD PUSH2 0x463F JUMP JUMPDEST POP PUSH1 0x5 DUP1 SLOAD SWAP2 SWAP1 SWAP2 SUB SWAP1 SSTORE POP POP POP POP JUMP JUMPDEST PUSH1 0x1 PUSH1 0x1 PUSH1 0xA0 SHL SUB DUP5 AND EXTCODESIZE ISZERO PUSH2 0x12FB JUMPI PUSH1 0x40 MLOAD PUSH4 0xF23A6E61 PUSH1 0xE0 SHL DUP2 MSTORE PUSH1 0x1 PUSH1 0x1 PUSH1 0xA0 SHL SUB DUP6 AND SWAP1 PUSH4 0xF23A6E61 SWAP1 PUSH2 0x46D0 SWAP1 DUP10 SWAP1 DUP10 SWAP1 DUP9 SWAP1 DUP9 SWAP1 DUP9 SWAP1 PUSH1 0x4 ADD PUSH2 0x55AD JUMP JUMPDEST PUSH1 0x20 PUSH1 0x40 MLOAD DUP1 DUP4 SUB DUP2 PUSH0 DUP8 GAS CALL SWAP3 POP POP POP DUP1 ISZERO PUSH2 0x470A JUMPI POP PUSH1 0x40 DUP1 MLOAD PUSH1 0x1F RETURNDATASIZE SWAP1 DUP2 ADD PUSH1 0x1F NOT AND DUP3 ADD SWAP1 SWAP3 MSTORE PUSH2 0x4707 SWAP2 DUP2 ADD SWAP1 PUSH2 0x55E9 JUMP JUMPDEST PUSH1 0x1 JUMPDEST PUSH2 0x4771 JUMPI RETURNDATASIZE DUP1 DUP1 ISZERO PUSH2 0x4737 JUMPI PUSH1 0x40 MLOAD SWAP2 POP PUSH1 0x1F NOT PUSH1 0x3F RETURNDATASIZE ADD AND DUP3 ADD PUSH1 0x40 MSTORE RETURNDATASIZE DUP3 MSTORE RETURNDATASIZE PUSH0 PUSH1 0x20 DUP5 ADD RETURNDATACOPY PUSH2 0x473C JUMP JUMPDEST PUSH1 0x60 SWAP2 POP JUMPDEST POP DUP1 MLOAD PUSH0 SUB PUSH2 0x4769 JUMPI PUSH1 0x40 MLOAD PUSH4 0x2BFA23E7 PUSH1 0xE1 SHL DUP2 MSTORE PUSH1 0x1 PUSH1 0x1 PUSH1 0xA0 SHL SUB DUP7 AND PUSH1 0x4 DUP3 ADD MSTORE PUSH1 0x24 ADD PUSH2 0xA8A JUMP JUMPDEST DUP1 MLOAD DUP2 PUSH1 0x20 ADD REVERT JUMPDEST PUSH1 0x1 PUSH1 0x1 PUSH1 0xE0 SHL SUB NOT DUP2 AND PUSH4 0xF23A6E61 PUSH1 0xE0 SHL EQ PUSH2 0x44C4 JUMPI PUSH1 0x40 MLOAD PUSH4 0x2BFA23E7 PUSH1 0xE1 SHL DUP2 MSTORE PUSH1 0x1 PUSH1 0x1 PUSH1 0xA0 SHL SUB DUP7 AND PUSH1 0x4 DUP3 ADD MSTORE PUSH1 0x24 ADD PUSH2 0xA8A JUMP JUMPDEST PUSH1 0x1 PUSH1 0x1 PUSH1 0xA0 SHL SUB DUP5 AND EXTCODESIZE ISZERO PUSH2 0x12FB JUMPI PUSH1 0x40 MLOAD PUSH4 0xBC197C81 PUSH1 0xE0 SHL DUP2 MSTORE PUSH1 0x1 PUSH1 0x1 PUSH1 0xA0 SHL SUB DUP6 AND SWAP1 PUSH4 0xBC197C81 SWAP1 PUSH2 0x47F1 SWAP1 DUP10 SWAP1 DUP10 SWAP1 DUP9 SWAP1 DUP9 SWAP1 DUP9 SWAP1 PUSH1 0x4 ADD PUSH2 0x5604 JUMP JUMPDEST PUSH1 0x20 PUSH1 0x40 MLOAD DUP1 DUP4 SUB DUP2 PUSH0 DUP8 GAS CALL SWAP3 POP POP POP DUP1 ISZERO PUSH2 0x482B JUMPI POP PUSH1 0x40 DUP1 MLOAD PUSH1 0x1F RETURNDATASIZE SWAP1 DUP2 ADD PUSH1 0x1F NOT AND DUP3 ADD SWAP1 SWAP3 MSTORE PUSH2 0x4828 SWAP2 DUP2 ADD SWAP1 PUSH2 0x55E9 JUMP JUMPDEST PUSH1 0x1 JUMPDEST PUSH2 0x4858 JUMPI RETURNDATASIZE DUP1 DUP1 ISZERO PUSH2 0x4737 JUMPI PUSH1 0x40 MLOAD SWAP2 POP PUSH1 0x1F NOT PUSH1 0x3F RETURNDATASIZE ADD AND DUP3 ADD PUSH1 0x40 MSTORE RETURNDATASIZE DUP3 MSTORE RETURNDATASIZE PUSH0 PUSH1 0x20 DUP5 ADD RETURNDATACOPY PUSH2 0x473C JUMP JUMPDEST PUSH1 0x1 PUSH1 0x1 PUSH1 0xE0 SHL SUB NOT DUP2 AND PUSH4 0xBC197C81 PUSH1 0xE0 SHL EQ PUSH2 0x44C4 JUMPI PUSH1 0x40 MLOAD PUSH4 0x2BFA23E7 PUSH1 0xE1 SHL DUP2 MSTORE PUSH1 0x1 PUSH1 0x1 PUSH1 0xA0 SHL SUB DUP7 AND PUSH1 0x4 DUP3 ADD MSTORE PUSH1 0x24 ADD PUSH2 0xA8A JUMP JUMPDEST DUP1 MLOAD DUP3 MLOAD EQ PUSH2 0x48C3 JUMPI DUP2 MLOAD DUP2 MLOAD PUSH1 0x40 MLOAD PUSH4 0x5B059991 PUSH1 0xE0 SHL DUP2 MSTORE PUSH1 0x4 DUP2 ADD SWAP3 SWAP1 SWAP3 MSTORE PUSH1 0x24 DUP3 ADD MSTORE PUSH1 0x44 ADD PUSH2 0xA8A JUMP JUMPDEST CALLER PUSH0 JUMPDEST DUP4 MLOAD DUP2 LT ISZERO PUSH2 0x49E4 JUMPI PUSH1 0x20 DUP2 DUP2 MUL DUP6 DUP2 ADD DUP3 ADD MLOAD SWAP1 DUP6 ADD SWAP1 SWAP2 ADD MLOAD PUSH1 0x1 PUSH1 0x1 PUSH1 0xA0 SHL SUB DUP9 AND ISZERO PUSH2 0x4994 JUMPI PUSH0 DUP3 DUP2 MSTORE PUSH1 0x1 PUSH1 0x20 SWAP1 DUP2 MSTORE PUSH1 0x40 DUP1 DUP4 KECCAK256 PUSH1 0x1 PUSH1 0x1 PUSH1 0xA0 SHL SUB DUP13 AND DUP5 MSTORE SWAP1 SWAP2 MSTORE SWAP1 KECCAK256 SLOAD DUP2 DUP2 LT ISZERO PUSH2 0x496C JUMPI PUSH1 0x40 MLOAD PUSH32 0x3DEE4C500000000000000000000000000000000000000000000000000000000 DUP2 MSTORE PUSH1 0x1 PUSH1 0x1 PUSH1 0xA0 SHL SUB DUP11 AND PUSH1 0x4 DUP3 ADD MSTORE PUSH1 0x24 DUP2 ADD DUP3 SWAP1 MSTORE PUSH1 0x44 DUP2 ADD DUP4 SWAP1 MSTORE PUSH1 0x64 DUP2 ADD DUP5 SWAP1 MSTORE PUSH1 0x84 ADD PUSH2 0xA8A JUMP JUMPDEST PUSH0 DUP4 DUP2 MSTORE PUSH1 0x1 PUSH1 0x20 SWAP1 DUP2 MSTORE PUSH1 0x40 DUP1 DUP4 KECCAK256 PUSH1 0x1 PUSH1 0x1 PUSH1 0xA0 SHL SUB DUP14 AND DUP5 MSTORE SWAP1 SWAP2 MSTORE SWAP1 KECCAK256 SWAP1 DUP3 SWAP1 SUB SWAP1 SSTORE JUMPDEST PUSH1 0x1 PUSH1 0x1 PUSH1 0xA0 SHL SUB DUP8 AND ISZERO PUSH2 0x49DA JUMPI PUSH0 DUP3 DUP2 MSTORE PUSH1 0x1 PUSH1 0x20 SWAP1 DUP2 MSTORE PUSH1 0x40 DUP1 DUP4 KECCAK256 PUSH1 0x1 PUSH1 0x1 PUSH1 0xA0 SHL SUB DUP12 AND DUP5 MSTORE SWAP1 SWAP2 MSTORE DUP2 KECCAK256 DUP1 SLOAD DUP4 SWAP3 SWAP1 PUSH2 0x49D4 SWAP1 DUP5 SWAP1 PUSH2 0x5468 JUMP JUMPDEST SWAP1 SWAP2 SSTORE POP POP JUMPDEST POP POP PUSH1 0x1 ADD PUSH2 0x48C6 JUMP JUMPDEST POP DUP3 MLOAD PUSH1 0x1 SUB PUSH2 0x4A64 JUMPI PUSH1 0x20 DUP4 ADD MLOAD PUSH0 SWAP1 PUSH1 0x20 DUP5 ADD MLOAD SWAP1 SWAP2 POP DUP6 PUSH1 0x1 PUSH1 0x1 PUSH1 0xA0 SHL SUB AND DUP8 PUSH1 0x1 PUSH1 0x1 PUSH1 0xA0 SHL SUB AND DUP5 PUSH1 0x1 PUSH1 0x1 PUSH1 0xA0 SHL SUB AND PUSH32 0xC3D58168C5AE7397731D063D5BBF3D657854427343F4C083240F7AACAA2D0F62 DUP6 DUP6 PUSH1 0x40 MLOAD PUSH2 0x4A55 SWAP3 SWAP2 SWAP1 SWAP2 DUP3 MSTORE PUSH1 0x20 DUP3 ADD MSTORE PUSH1 0x40 ADD SWAP1 JUMP JUMPDEST PUSH1 0x40 MLOAD DUP1 SWAP2 SUB SWAP1 LOG4 POP POP PUSH2 0x4154 JUMP JUMPDEST DUP4 PUSH1 0x1 PUSH1 0x1 PUSH1 0xA0 SHL SUB AND DUP6 PUSH1 0x1 PUSH1 0x1 PUSH1 0xA0 SHL SUB AND DUP3 PUSH1 0x1 PUSH1 0x1 PUSH1 0xA0 SHL SUB AND PUSH32 0x4A39DC06D4C0DBC64B70AF90FD698A233A518AA5D07E595D983B8C0526C8F7FB DUP7 DUP7 PUSH1 0x40 MLOAD PUSH2 0x4AB3 SWAP3 SWAP2 SWAP1 PUSH2 0x565A JUMP JUMPDEST PUSH1 0x40 MLOAD DUP1 SWAP2 SUB SWAP1 LOG4 POP POP POP POP POP JUMP JUMPDEST DUP1 CALLDATALOAD PUSH1 0x1 PUSH1 0x1 PUSH1 0xA0 SHL SUB DUP2 AND DUP2 EQ PUSH2 0x4AD8 JUMPI PUSH0 PUSH0 REVERT JUMPDEST SWAP2 SWAP1 POP JUMP JUMPDEST PUSH0 PUSH0 PUSH1 0x40 DUP4 DUP6 SUB SLT ISZERO PUSH2 0x4AEE JUMPI PUSH0 PUSH0 REVERT JUMPDEST PUSH2 0x4AF7 DUP4 PUSH2 0x4AC2 JUMP JUMPDEST SWAP5 PUSH1 0x20 SWAP4 SWAP1 SWAP4 ADD CALLDATALOAD SWAP4 POP POP POP JUMP JUMPDEST PUSH1 0x1 PUSH1 0x1 PUSH1 0xE0 SHL SUB NOT DUP2 AND DUP2 EQ PUSH2 0x16B7 JUMPI PUSH0 PUSH0 REVERT JUMPDEST PUSH0 PUSH1 0x20 DUP3 DUP5 SUB SLT ISZERO PUSH2 0x4B2A JUMPI PUSH0 PUSH0 REVERT JUMPDEST DUP2 CALLDATALOAD PUSH2 0x11B1 DUP2 PUSH2 0x4B05 JUMP JUMPDEST PUSH0 PUSH1 0x20 DUP3 DUP5 SUB SLT ISZERO PUSH2 0x4B45 JUMPI PUSH0 PUSH0 REVERT JUMPDEST POP CALLDATALOAD SWAP2 SWAP1 POP JUMP JUMPDEST PUSH0 PUSH2 0x1C0 DUP3 ADD SWAP1 POP DUP5 MLOAD DUP3 MSTORE PUSH1 0x20 DUP6 ADD MLOAD PUSH1 0x20 DUP4 ADD MSTORE PUSH1 0x1 PUSH1 0x1 PUSH1 0xA0 SHL SUB PUSH1 0x40 DUP7 ADD MLOAD AND PUSH1 0x40 DUP4 ADD MSTORE PUSH1 0x1 PUSH1 0x1 PUSH1 0x60 SHL SUB PUSH1 0x60 DUP7 ADD MLOAD AND PUSH1 0x60 DUP4 ADD MSTORE PUSH4 0xFFFFFFFF PUSH1 0x80 DUP7 ADD MLOAD AND PUSH1 0x80 DUP4 ADD MSTORE PUSH1 0xA0 DUP6 ADD MLOAD PUSH2 0x4BAF PUSH1 0xA0 DUP5 ADD DUP3 PUSH4 0xFFFFFFFF AND SWAP1 MSTORE JUMP JUMPDEST POP PUSH1 0xC0 DUP6 ADD MLOAD PUSH2 0x4BC7 PUSH1 0xC0 DUP5 ADD DUP3 PUSH4 0xFFFFFFFF AND SWAP1 MSTORE JUMP JUMPDEST POP PUSH1 0xE0 DUP6 ADD MLOAD PUSH2 0x4BE2 PUSH1 0xE0 DUP5 ADD DUP3 PUSH1 0x1 PUSH1 0x1 PUSH1 0x60 SHL SUB AND SWAP1 MSTORE JUMP JUMPDEST POP DUP4 MLOAD PUSH1 0x1 PUSH1 0x1 PUSH1 0xA0 SHL SUB AND PUSH2 0x100 DUP4 ADD MSTORE PUSH1 0x20 DUP5 ADD MLOAD PUSH1 0x1 PUSH1 0x1 PUSH1 0x60 SHL SUB SWAP1 DUP2 AND PUSH2 0x120 DUP5 ADD MSTORE PUSH1 0x40 DUP6 ADD MLOAD PUSH2 0x140 DUP5 ADD MSTORE PUSH1 0x60 DUP6 ADD MLOAD PUSH2 0x160 DUP5 ADD MSTORE PUSH1 0x80 SWAP1 SWAP5 ADD MLOAD SWAP1 SWAP4 AND PUSH2 0x180 DUP3 ADD MSTORE PUSH2 0x1A0 ADD MSTORE SWAP2 SWAP1 POP JUMP JUMPDEST PUSH0 DUP2 MLOAD DUP1 DUP5 MSTORE DUP1 PUSH1 0x20 DUP5 ADD PUSH1 0x20 DUP7 ADD MCOPY PUSH0 PUSH1 0x20 DUP3 DUP7 ADD ADD MSTORE PUSH1 0x20 PUSH1 0x1F NOT PUSH1 0x1F DUP4 ADD AND DUP6 ADD ADD SWAP2 POP POP SWAP3 SWAP2 POP POP JUMP JUMPDEST PUSH1 0x20 DUP2 MSTORE PUSH0 PUSH2 0x11B1 PUSH1 0x20 DUP4 ADD DUP5 PUSH2 0x4C39 JUMP JUMPDEST PUSH4 0x4E487B71 PUSH1 0xE0 SHL PUSH0 MSTORE PUSH1 0x21 PUSH1 0x4 MSTORE PUSH1 0x24 PUSH0 REVERT JUMPDEST PUSH1 0x20 DUP2 ADD PUSH1 0x6 DUP4 LT PUSH2 0x4CAD JUMPI PUSH4 0x4E487B71 PUSH1 0xE0 SHL PUSH0 MSTORE PUSH1 0x21 PUSH1 0x4 MSTORE PUSH1 0x24 PUSH0 REVERT JUMPDEST SWAP2 SWAP1 MSTORE SWAP1 JUMP JUMPDEST PUSH0 PUSH0 PUSH0 PUSH1 0x60 DUP5 DUP7 SUB SLT ISZERO PUSH2 0x4CC5 JUMPI PUSH0 PUSH0 REVERT JUMPDEST POP POP DUP2 CALLDATALOAD SWAP4 PUSH1 0x20 DUP4 ADD CALLDATALOAD SWAP4 POP PUSH1 0x40 SWAP1 SWAP3 ADD CALLDATALOAD SWAP2 SWAP1 POP JUMP JUMPDEST PUSH0 PUSH0 PUSH1 0x40 DUP4 DUP6 SUB SLT ISZERO PUSH2 0x4CED JUMPI PUSH0 PUSH0 REVERT JUMPDEST POP POP DUP1 CALLDATALOAD SWAP3 PUSH1 0x20 SWAP1 SWAP2 ADD CALLDATALOAD SWAP2 POP JUMP JUMPDEST PUSH4 0x4E487B71 PUSH1 0xE0 SHL PUSH0 MSTORE PUSH1 0x41 PUSH1 0x4 MSTORE PUSH1 0x24 PUSH0 REVERT JUMPDEST PUSH1 0x40 MLOAD PUSH1 0x1F DUP3 ADD PUSH1 0x1F NOT AND DUP2 ADD PUSH8 0xFFFFFFFFFFFFFFFF DUP2 GT DUP3 DUP3 LT OR ISZERO PUSH2 0x4D39 JUMPI PUSH2 0x4D39 PUSH2 0x4CFC JUMP JUMPDEST PUSH1 0x40 MSTORE SWAP2 SWAP1 POP JUMP JUMPDEST PUSH0 PUSH8 0xFFFFFFFFFFFFFFFF DUP3 GT ISZERO PUSH2 0x4D5A JUMPI PUSH2 0x4D5A PUSH2 0x4CFC JUMP JUMPDEST POP PUSH1 0x5 SHL PUSH1 0x20 ADD SWAP1 JUMP JUMPDEST PUSH0 DUP3 PUSH1 0x1F DUP4 ADD SLT PUSH2 0x4D73 JUMPI PUSH0 PUSH0 REVERT JUMPDEST DUP2 CALLDATALOAD PUSH2 0x4D86 PUSH2 0x4D81 DUP3 PUSH2 0x4D41 JUMP JUMPDEST PUSH2 0x4D10 JUMP JUMPDEST DUP1 DUP3 DUP3 MSTORE PUSH1 0x20 DUP3 ADD SWAP2 POP PUSH1 0x20 DUP4 PUSH1 0x5 SHL DUP7 ADD ADD SWAP3 POP DUP6 DUP4 GT ISZERO PUSH2 0x4DA7 JUMPI PUSH0 PUSH0 REVERT JUMPDEST PUSH1 0x20 DUP6 ADD JUMPDEST DUP4 DUP2 LT ISZERO PUSH2 0x4DC4 JUMPI DUP1 CALLDATALOAD DUP4 MSTORE PUSH1 0x20 SWAP3 DUP4 ADD SWAP3 ADD PUSH2 0x4DAC JUMP JUMPDEST POP SWAP6 SWAP5 POP POP POP POP POP JUMP JUMPDEST PUSH0 DUP3 PUSH1 0x1F DUP4 ADD SLT PUSH2 0x4DDD JUMPI PUSH0 PUSH0 REVERT JUMPDEST DUP2 CALLDATALOAD PUSH8 0xFFFFFFFFFFFFFFFF DUP2 GT ISZERO PUSH2 0x4DF7 JUMPI PUSH2 0x4DF7 PUSH2 0x4CFC JUMP JUMPDEST PUSH2 0x4E0A PUSH1 0x1F DUP3 ADD PUSH1 0x1F NOT AND PUSH1 0x20 ADD PUSH2 0x4D10 JUMP JUMPDEST DUP2 DUP2 MSTORE DUP5 PUSH1 0x20 DUP4 DUP7 ADD ADD GT ISZERO PUSH2 0x4E1E JUMPI PUSH0 PUSH0 REVERT JUMPDEST DUP2 PUSH1 0x20 DUP6 ADD PUSH1 0x20 DUP4 ADD CALLDATACOPY PUSH0 SWAP2 DUP2 ADD PUSH1 0x20 ADD SWAP2 SWAP1 SWAP2 MSTORE SWAP4 SWAP3 POP POP POP JUMP JUMPDEST PUSH0 PUSH0 PUSH0 PUSH0 PUSH0 PUSH1 0xA0 DUP7 DUP9 SUB SLT ISZERO PUSH2 0x4E4E JUMPI PUSH0 PUSH0 REVERT JUMPDEST PUSH2 0x4E57 DUP7 PUSH2 0x4AC2 JUMP JUMPDEST SWAP5 POP PUSH2 0x4E65 PUSH1 0x20 DUP8 ADD PUSH2 0x4AC2 JUMP JUMPDEST SWAP4 POP PUSH1 0x40 DUP7 ADD CALLDATALOAD PUSH8 0xFFFFFFFFFFFFFFFF DUP2 GT ISZERO PUSH2 0x4E80 JUMPI PUSH0 PUSH0 REVERT JUMPDEST PUSH2 0x4E8C DUP9 DUP3 DUP10 ADD PUSH2 0x4D64 JUMP JUMPDEST SWAP4 POP POP PUSH1 0x60 DUP7 ADD CALLDATALOAD PUSH8 0xFFFFFFFFFFFFFFFF DUP2 GT ISZERO PUSH2 0x4EA8 JUMPI PUSH0 PUSH0 REVERT JUMPDEST PUSH2 0x4EB4 DUP9 DUP3 DUP10 ADD PUSH2 0x4D64 JUMP JUMPDEST SWAP3 POP POP PUSH1 0x80 DUP7 ADD CALLDATALOAD PUSH8 0xFFFFFFFFFFFFFFFF DUP2 GT ISZERO PUSH2 0x4ED0 JUMPI PUSH0 PUSH0 REVERT JUMPDEST PUSH2 0x4EDC DUP9 DUP3 DUP10 ADD PUSH2 0x4DCE JUMP JUMPDEST SWAP2 POP POP SWAP3 SWAP6 POP SWAP3 SWAP6 SWAP1 SWAP4 POP JUMP JUMPDEST DUP1 CALLDATALOAD PUSH4 0xFFFFFFFF DUP2 AND DUP2 EQ PUSH2 0x4AD8 JUMPI PUSH0 PUSH0 REVERT JUMPDEST PUSH0 PUSH1 0x20 DUP3 DUP5 SUB SLT ISZERO PUSH2 0x4F0C JUMPI PUSH0 PUSH0 REVERT JUMPDEST PUSH2 0x11B1 DUP3 PUSH2 0x4EE9 JUMP JUMPDEST PUSH0 PUSH1 0x20 DUP3 DUP5 SUB SLT ISZERO PUSH2 0x4F25 JUMPI PUSH0 PUSH0 REVERT JUMPDEST PUSH2 0x11B1 DUP3 PUSH2 0x4AC2 JUMP JUMPDEST PUSH0 PUSH0 DUP4 PUSH1 0x1F DUP5 ADD SLT PUSH2 0x4F3E JUMPI PUSH0 PUSH0 REVERT JUMPDEST POP DUP2 CALLDATALOAD PUSH8 0xFFFFFFFFFFFFFFFF DUP2 GT ISZERO PUSH2 0x4F55 JUMPI PUSH0 PUSH0 REVERT JUMPDEST PUSH1 0x20 DUP4 ADD SWAP2 POP DUP4 PUSH1 0x20 DUP3 DUP6 ADD ADD GT ISZERO PUSH2 0x4F6C JUMPI PUSH0 PUSH0 REVERT JUMPDEST SWAP3 POP SWAP3 SWAP1 POP JUMP JUMPDEST PUSH0 PUSH0 PUSH0 PUSH1 0x40 DUP5 DUP7 SUB SLT ISZERO PUSH2 0x4F85 JUMPI PUSH0 PUSH0 REVERT JUMPDEST DUP4 CALLDATALOAD SWAP3 POP PUSH1 0x20 DUP5 ADD CALLDATALOAD PUSH8 0xFFFFFFFFFFFFFFFF DUP2 GT ISZERO PUSH2 0x4FA2 JUMPI PUSH0 PUSH0 REVERT JUMPDEST PUSH2 0x4FAE DUP7 DUP3 DUP8 ADD PUSH2 0x4F2E JUMP JUMPDEST SWAP5 SWAP8 SWAP1 SWAP7 POP SWAP4 SWAP5 POP POP POP POP JUMP JUMPDEST PUSH0 PUSH0 PUSH1 0x40 DUP4 DUP6 SUB SLT ISZERO PUSH2 0x4FCC JUMPI PUSH0 PUSH0 REVERT JUMPDEST DUP3 CALLDATALOAD PUSH8 0xFFFFFFFFFFFFFFFF DUP2 GT ISZERO PUSH2 0x4FE2 JUMPI PUSH0 PUSH0 REVERT JUMPDEST DUP4 ADD PUSH1 0x1F DUP2 ADD DUP6 SGT PUSH2 0x4FF2 JUMPI PUSH0 PUSH0 REVERT JUMPDEST DUP1 CALLDATALOAD PUSH2 0x5000 PUSH2 0x4D81 DUP3 PUSH2 0x4D41 JUMP JUMPDEST DUP1 DUP3 DUP3 MSTORE PUSH1 0x20 DUP3 ADD SWAP2 POP PUSH1 0x20 DUP4 PUSH1 0x5 SHL DUP6 ADD ADD SWAP3 POP DUP8 DUP4 GT ISZERO PUSH2 0x5021 JUMPI PUSH0 PUSH0 REVERT JUMPDEST PUSH1 0x20 DUP5 ADD SWAP4 POP JUMPDEST DUP3 DUP5 LT ISZERO PUSH2 0x504A JUMPI PUSH2 0x5039 DUP5 PUSH2 0x4AC2 JUMP JUMPDEST DUP3 MSTORE PUSH1 0x20 SWAP4 DUP5 ADD SWAP4 SWAP1 SWAP2 ADD SWAP1 PUSH2 0x5028 JUMP JUMPDEST SWAP5 POP POP POP POP PUSH1 0x20 DUP4 ADD CALLDATALOAD PUSH8 0xFFFFFFFFFFFFFFFF DUP2 GT ISZERO PUSH2 0x5068 JUMPI PUSH0 PUSH0 REVERT JUMPDEST PUSH2 0x5074 DUP6 DUP3 DUP7 ADD PUSH2 0x4D64 JUMP JUMPDEST SWAP2 POP POP SWAP3 POP SWAP3 SWAP1 POP JUMP JUMPDEST PUSH0 DUP2 MLOAD DUP1 DUP5 MSTORE PUSH1 0x20 DUP5 ADD SWAP4 POP PUSH1 0x20 DUP4 ADD PUSH0 JUMPDEST DUP3 DUP2 LT ISZERO PUSH2 0x50AE JUMPI DUP2 MLOAD DUP7 MSTORE PUSH1 0x20 SWAP6 DUP7 ADD SWAP6 SWAP1 SWAP2 ADD SWAP1 PUSH1 0x1 ADD PUSH2 0x5090 JUMP JUMPDEST POP SWAP4 SWAP5 SWAP4 POP POP POP POP JUMP JUMPDEST PUSH1 0x20 DUP2 MSTORE PUSH0 PUSH2 0x11B1 PUSH1 0x20 DUP4 ADD DUP5 PUSH2 0x507E JUMP JUMPDEST PUSH0 PUSH0 PUSH0 PUSH0 PUSH1 0x80 DUP6 DUP8 SUB SLT ISZERO PUSH2 0x50DD JUMPI PUSH0 PUSH0 REVERT JUMPDEST DUP5 CALLDATALOAD SWAP4 POP PUSH2 0x50ED PUSH1 0x20 DUP7 ADD PUSH2 0x4EE9 JUMP JUMPDEST SWAP3 POP PUSH2 0x50FB PUSH1 0x40 DUP7 ADD PUSH2 0x4EE9 JUMP JUMPDEST SWAP2 POP PUSH2 0x5109 PUSH1 0x60 DUP7 ADD PUSH2 0x4EE9 JUMP JUMPDEST SWAP1 POP SWAP3 SWAP6 SWAP2 SWAP5 POP SWAP3 POP JUMP JUMPDEST PUSH0 PUSH0 PUSH0 PUSH0 PUSH0 PUSH0 PUSH0 PUSH0 PUSH1 0xE0 DUP10 DUP12 SUB SLT ISZERO PUSH2 0x512B JUMPI PUSH0 PUSH0 REVERT JUMPDEST DUP9 CALLDATALOAD SWAP8 POP PUSH1 0x20 DUP10 ADD CALLDATALOAD SWAP7 POP PUSH2 0x5142 PUSH1 0x40 DUP11 ADD PUSH2 0x4EE9 JUMP JUMPDEST SWAP6 POP PUSH2 0x5150 PUSH1 0x60 DUP11 ADD PUSH2 0x4EE9 JUMP JUMPDEST SWAP5 POP PUSH2 0x515E PUSH1 0x80 DUP11 ADD PUSH2 0x4EE9 JUMP JUMPDEST SWAP4 POP PUSH2 0x516C PUSH1 0xA0 DUP11 ADD PUSH2 0x4EE9 JUMP JUMPDEST SWAP3 POP PUSH1 0xC0 DUP10 ADD CALLDATALOAD PUSH8 0xFFFFFFFFFFFFFFFF DUP2 GT ISZERO PUSH2 0x5187 JUMPI PUSH0 PUSH0 REVERT JUMPDEST PUSH2 0x5193 DUP12 DUP3 DUP13 ADD PUSH2 0x4F2E JUMP JUMPDEST SWAP10 SWAP13 SWAP9 SWAP12 POP SWAP7 SWAP10 POP SWAP5 SWAP8 SWAP4 SWAP7 SWAP3 SWAP6 SWAP5 POP POP POP JUMP JUMPDEST PUSH0 PUSH0 PUSH0 PUSH0 PUSH0 PUSH0 PUSH0 PUSH0 PUSH1 0xE0 DUP10 DUP12 SUB SLT ISZERO PUSH2 0x51BE JUMPI PUSH0 PUSH0 REVERT JUMPDEST DUP9 CALLDATALOAD SWAP8 POP PUSH1 0x20 DUP10 ADD CALLDATALOAD SWAP7 POP PUSH1 0x40 DUP10 ADD CALLDATALOAD SWAP6 POP PUSH2 0x51DC PUSH1 0x60 DUP11 ADD PUSH2 0x4EE9 JUMP JUMPDEST SWAP5 POP PUSH1 0x80 DUP10 ADD CALLDATALOAD SWAP4 POP PUSH1 0xA0 DUP10 ADD CALLDATALOAD SWAP3 POP PUSH1 0xC0 DUP10 ADD CALLDATALOAD PUSH8 0xFFFFFFFFFFFFFFFF DUP2 GT ISZERO PUSH2 0x5187 JUMPI PUSH0 PUSH0 REVERT JUMPDEST PUSH0 PUSH0 PUSH1 0x40 DUP4 DUP6 SUB SLT ISZERO PUSH2 0x5216 JUMPI PUSH0 PUSH0 REVERT JUMPDEST PUSH2 0x521F DUP4 PUSH2 0x4AC2 JUMP JUMPDEST SWAP2 POP PUSH1 0x20 DUP4 ADD CALLDATALOAD DUP1 ISZERO ISZERO DUP2 EQ PUSH2 0x5233 JUMPI PUSH0 PUSH0 REVERT JUMPDEST DUP1 SWAP2 POP POP SWAP3 POP SWAP3 SWAP1 POP JUMP JUMPDEST PUSH0 PUSH0 PUSH1 0x40 DUP4 DUP6 SUB SLT ISZERO PUSH2 0x524F JUMPI PUSH0 PUSH0 REVERT JUMPDEST PUSH2 0x5258 DUP4 PUSH2 0x4AC2 JUMP JUMPDEST SWAP2 POP PUSH2 0x5266 PUSH1 0x20 DUP5 ADD PUSH2 0x4AC2 JUMP JUMPDEST SWAP1 POP SWAP3 POP SWAP3 SWAP1 POP JUMP JUMPDEST PUSH0 PUSH0 PUSH0 PUSH0 PUSH0 PUSH1 0xA0 DUP7 DUP9 SUB SLT ISZERO PUSH2 0x5283 JUMPI PUSH0 PUSH0 REVERT JUMPDEST PUSH2 0x528C DUP7 PUSH2 0x4AC2 JUMP JUMPDEST SWAP5 POP PUSH2 0x529A PUSH1 0x20 DUP8 ADD PUSH2 0x4AC2 JUMP JUMPDEST SWAP4 POP PUSH1 0x40 DUP7 ADD CALLDATALOAD SWAP3 POP PUSH1 0x60 DUP7 ADD CALLDATALOAD SWAP2 POP PUSH1 0x80 DUP7 ADD CALLDATALOAD PUSH8 0xFFFFFFFFFFFFFFFF DUP2 GT ISZERO PUSH2 0x4ED0 JUMPI PUSH0 PUSH0 REVERT JUMPDEST PUSH1 0x1 DUP2 DUP2 SHR SWAP1 DUP3 AND DUP1 PUSH2 0x52D7 JUMPI PUSH1 0x7F DUP3 AND SWAP2 POP JUMPDEST PUSH1 0x20 DUP3 LT DUP2 SUB PUSH2 0x52F5 JUMPI PUSH4 0x4E487B71 PUSH1 0xE0 SHL PUSH0 MSTORE PUSH1 0x22 PUSH1 0x4 MSTORE PUSH1 0x24 PUSH0 REVERT JUMPDEST POP SWAP2 SWAP1 POP JUMP JUMPDEST PUSH4 0x4E487B71 PUSH1 0xE0 SHL PUSH0 MSTORE PUSH1 0x11 PUSH1 0x4 MSTORE PUSH1 0x24 PUSH0 REVERT JUMPDEST DUP2 DUP2 SUB DUP2 DUP2 GT ISZERO PUSH2 0x933 JUMPI PUSH2 0x933 PUSH2 0x52FB JUMP JUMPDEST DUP1 DUP3 MUL DUP2 ISZERO DUP3 DUP3 DIV DUP5 EQ OR PUSH2 0x933 JUMPI PUSH2 0x933 PUSH2 0x52FB JUMP JUMPDEST PUSH1 0x1 PUSH1 0x1 PUSH1 0x60 SHL SUB DUP2 DUP2 AND DUP4 DUP3 AND ADD SWAP1 DUP2 GT ISZERO PUSH2 0x933 JUMPI PUSH2 0x933 PUSH2 0x52FB JUMP JUMPDEST PUSH0 DUP3 PUSH2 0x5372 JUMPI PUSH4 0x4E487B71 PUSH1 0xE0 SHL PUSH0 MSTORE PUSH1 0x12 PUSH1 0x4 MSTORE PUSH1 0x24 PUSH0 REVERT JUMPDEST POP DIV SWAP1 JUMP JUMPDEST PUSH1 0x1 DUP2 JUMPDEST PUSH1 0x1 DUP5 GT ISZERO PUSH2 0x53B2 JUMPI DUP1 DUP6 DIV DUP2 GT ISZERO PUSH2 0x5396 JUMPI PUSH2 0x5396 PUSH2 0x52FB JUMP JUMPDEST PUSH1 0x1 DUP5 AND ISZERO PUSH2 0x53A4 JUMPI SWAP1 DUP2 MUL SWAP1 JUMPDEST PUSH1 0x1 SWAP4 SWAP1 SWAP4 SHR SWAP3 DUP1 MUL PUSH2 0x537B JUMP JUMPDEST SWAP4 POP SWAP4 SWAP2 POP POP JUMP JUMPDEST PUSH0 DUP3 PUSH2 0x53C8 JUMPI POP PUSH1 0x1 PUSH2 0x933 JUMP JUMPDEST DUP2 PUSH2 0x53D4 JUMPI POP PUSH0 PUSH2 0x933 JUMP JUMPDEST DUP2 PUSH1 0x1 DUP2 EQ PUSH2 0x53EA JUMPI PUSH1 0x2 DUP2 EQ PUSH2 0x53F4 JUMPI PUSH2 0x5410 JUMP JUMPDEST PUSH1 0x1 SWAP2 POP POP PUSH2 0x933 JUMP JUMPDEST PUSH1 0xFF DUP5 GT ISZERO PUSH2 0x5405 JUMPI PUSH2 0x5405 PUSH2 0x52FB JUMP JUMPDEST POP POP PUSH1 0x1 DUP3 SHL PUSH2 0x933 JUMP JUMPDEST POP PUSH1 0x20 DUP4 LT PUSH2 0x133 DUP4 LT AND PUSH1 0x4E DUP5 LT PUSH1 0xB DUP5 LT AND OR ISZERO PUSH2 0x5433 JUMPI POP DUP2 DUP2 EXP PUSH2 0x933 JUMP JUMPDEST PUSH2 0x543F PUSH0 NOT DUP5 DUP5 PUSH2 0x5377 JUMP JUMPDEST DUP1 PUSH0 NOT DIV DUP3 GT ISZERO PUSH2 0x5452 JUMPI PUSH2 0x5452 PUSH2 0x52FB JUMP JUMPDEST MUL SWAP4 SWAP3 POP POP POP JUMP JUMPDEST PUSH0 PUSH2 0x11B1 PUSH1 0xFF DUP5 AND DUP4 PUSH2 0x53BA JUMP JUMPDEST DUP1 DUP3 ADD DUP1 DUP3 GT ISZERO PUSH2 0x933 JUMPI PUSH2 0x933 PUSH2 0x52FB JUMP JUMPDEST DUP2 DUP4 MSTORE DUP2 DUP2 PUSH1 0x20 DUP6 ADD CALLDATACOPY POP PUSH0 DUP3 DUP3 ADD PUSH1 0x20 SWAP1 DUP2 ADD SWAP2 SWAP1 SWAP2 MSTORE PUSH1 0x1F SWAP1 SWAP2 ADD PUSH1 0x1F NOT AND SWAP1 SWAP2 ADD ADD SWAP1 JUMP JUMPDEST PUSH1 0x1 PUSH1 0x1 PUSH1 0xA0 SHL SUB DUP9 AND DUP2 MSTORE PUSH1 0xFF DUP8 AND PUSH1 0x20 DUP3 ADD MSTORE DUP6 PUSH1 0x40 DUP3 ADD MSTORE PUSH1 0xFF DUP6 AND PUSH1 0x60 DUP3 ADD MSTORE DUP4 PUSH1 0x80 DUP3 ADD MSTORE PUSH1 0xC0 PUSH1 0xA0 DUP3 ADD MSTORE PUSH0 PUSH2 0x54E3 PUSH1 0xC0 DUP4 ADD DUP5 DUP7 PUSH2 0x547B JUMP JUMPDEST SWAP10 SWAP9 POP POP POP POP POP POP POP POP POP JUMP JUMPDEST PUSH0 PUSH1 0x20 DUP3 DUP5 SUB SLT ISZERO PUSH2 0x5500 JUMPI PUSH0 PUSH0 REVERT JUMPDEST POP MLOAD SWAP2 SWAP1 POP JUMP JUMPDEST PUSH4 0x4E487B71 PUSH1 0xE0 SHL PUSH0 MSTORE PUSH1 0x32 PUSH1 0x4 MSTORE PUSH1 0x24 PUSH0 REVERT JUMPDEST PUSH4 0xFFFFFFFF DUP2 DUP2 AND DUP4 DUP3 AND MUL SWAP1 DUP2 AND SWAP1 DUP2 DUP2 EQ PUSH2 0x1277 JUMPI PUSH2 0x1277 PUSH2 0x52FB JUMP JUMPDEST PUSH0 PUSH1 0x1 DUP3 ADD PUSH2 0x554B JUMPI PUSH2 0x554B PUSH2 0x52FB JUMP JUMPDEST POP PUSH1 0x1 ADD SWAP1 JUMP JUMPDEST PUSH1 0x1 PUSH1 0x1 PUSH1 0x60 SHL SUB DUP3 DUP2 AND DUP3 DUP3 AND SUB SWAP1 DUP2 GT ISZERO PUSH2 0x933 JUMPI PUSH2 0x933 PUSH2 0x52FB JUMP JUMPDEST PUSH1 0x1 PUSH1 0x1 PUSH1 0xA0 SHL SUB DUP7 AND DUP2 MSTORE PUSH1 0xFF DUP6 AND PUSH1 0x20 DUP3 ADD MSTORE DUP4 PUSH1 0x40 DUP3 ADD MSTORE PUSH1 0x80 PUSH1 0x60 DUP3 ADD MSTORE PUSH0 PUSH2 0x55A2 PUSH1 0x80 DUP4 ADD DUP5 DUP7 PUSH2 0x547B JUMP JUMPDEST SWAP8 SWAP7 POP POP POP POP POP POP POP JUMP JUMPDEST PUSH1 0x1 PUSH1 0x1 PUSH1 0xA0 SHL SUB DUP7 AND DUP2 MSTORE PUSH1 0x1 PUSH1 0x1 PUSH1 0xA0 SHL SUB DUP6 AND PUSH1 0x20 DUP3 ADD MSTORE DUP4 PUSH1 0x40 DUP3 ADD MSTORE DUP3 PUSH1 0x60 DUP3 ADD MSTORE PUSH1 0xA0 PUSH1 0x80 DUP3 ADD MSTORE PUSH0 PUSH2 0x55A2 PUSH1 0xA0 DUP4 ADD DUP5 PUSH2 0x4C39 JUMP JUMPDEST PUSH0 PUSH1 0x20 DUP3 DUP5 SUB SLT ISZERO PUSH2 0x55F9 JUMPI PUSH0 PUSH0 REVERT JUMPDEST DUP2 MLOAD PUSH2 0x11B1 DUP2 PUSH2 0x4B05 JUMP JUMPDEST PUSH1 0x1 PUSH1 0x1 PUSH1 0xA0 SHL SUB DUP7 AND DUP2 MSTORE PUSH1 0x1 PUSH1 0x1 PUSH1 0xA0 SHL SUB DUP6 AND PUSH1 0x20 DUP3 ADD MSTORE PUSH1 0xA0 PUSH1 0x40 DUP3 ADD MSTORE PUSH0 PUSH2 0x5634 PUSH1 0xA0 DUP4 ADD DUP7 PUSH2 0x507E JUMP JUMPDEST DUP3 DUP2 SUB PUSH1 0x60 DUP5 ADD MSTORE PUSH2 0x5646 DUP2 DUP7 PUSH2 0x507E JUMP JUMPDEST SWAP1 POP DUP3 DUP2 SUB PUSH1 0x80 DUP5 ADD MSTORE PUSH2 0x2C23 DUP2 DUP6 PUSH2 0x4C39 JUMP JUMPDEST PUSH1 0x40 DUP2 MSTORE PUSH0 PUSH2 0x566C PUSH1 0x40 DUP4 ADD DUP6 PUSH2 0x507E JUMP JUMPDEST DUP3 DUP2 SUB PUSH1 0x20 DUP5 ADD MSTORE PUSH2 0x18E5 DUP2 DUP6 PUSH2 0x507E JUMP INVALID LOG2 PUSH5 0x6970667358 0x22 SLT KECCAK256 CALLCODE PUSH13 0xFC89A9D0D2F688401D83F013FB RETURNDATASIZE 0xDA SWAP14 MSTORE8 LOG4 RETURN PUSH30 0xDE6FEE27525A233FDBED64736F6C634300081E0033000000000000000000 "
		},
		"gasEstimates": {
			"creation": {
				"codeDepositCost": "4439200",
				"executionCost": "infinite",
				"totalCost": "infinite"
			},
			"external": {
				"CLAIM_PERIOD()": "350",
				"COLLATERAL()": "infinite",
				"FEES_COLLECTOR()": "2480",
				"LIQUIDATION_RELATIVE_VALUE()": "2462",
				"LOT_SIZE()": "2373",
				"MAX_APY()": "2441",
				"MAX_DURATION()": "2463",
				"MIN_APY()": "2440",
				"MIN_DURATION()": "2390",
				"MIN_FILL_DURATION()": "2397",
				"MIN_LOTS_AMOUNT()": "2424",
				"PRICE_ORACLE()": "2449",
				"PROTOCOL_FEE()": "2447",
				"RATIOS_DECIMALS()": "317",
				"TARGET_RELATIVE_VALUE()": "2396",
				"USDC()": "infinite",
				"USDCValueOf(uint256,uint256)": "infinite",
				"WITHDRAW_COOLDOWN()": "327",
				"balanceOf(address,uint256)": "2705",
				"balanceOfBatch(address[],uint256[])": "infinite",
				"borrow(uint256,uint256,uint256,uint32,uint256,uint256,bytes)": "infinite",
				"claimCollateral(uint256,bytes)": "48804",
				"claimUSDC(uint256)": "infinite",
				"createAsBorrower(uint256,uint256,uint32,uint32,uint32,uint32,bytes)": "infinite",
				"createAsLender(uint256,uint32,uint32,uint32)": "infinite",
				"exists(uint256)": "2559",
				"getDebt(uint256)": "infinite",
				"getLoanInfo(uint256)": "23053",
				"getLoanStatus(uint256)": "22083",
				"getRelativeCollateralValue(uint256,bytes)": "24598",
				"increaseCollateral(uint256,uint256)": "48590",
				"isApprovedForAll(address,address)": "infinite",
				"isCollateralClaimable(uint256,bytes)": "infinite",
				"lend(uint256,uint256,uint256)": "infinite",
				"owner()": "2419",
				"renounceOwnership()": "infinite",
				"repay(uint256)": "48547",
				"safeBatchTransferFrom(address,address,uint256[],uint256[],bytes)": "infinite",
				"safeTransferFrom(address,address,uint256,uint256,bytes)": "infinite",
				"setApprovalForAll(address,bool)": "26744",
				"setFeesCollector(address)": "27900",
				"setLiquidationRelativeValue(uint32)": "infinite",
				"setLotSize(uint256)": "25675",
				"setMaxAPY(uint32)": "30021",
				"setMaxDuration(uint32)": "30016",
				"setMinAPY(uint32)": "30061",
				"setMinDuration(uint32)": "30033",
				"setMinFillDuration(uint32)": "27906",
				"setMinLotsAmount(uint32)": "27877",
				"setPriceOracle(address)": "27852",
				"setProtocolFee(uint32)": "27851",
				"setTargetRelativeValue(uint32)": "30087",
				"stop()": "29514",
				"stopped()": "2377",
				"supportsInterface(bytes4)": "603",
				"totalSupply()": "2371",
				"totalSupply(uint256)": "2513",
				"transferOwnership(address)": "28449",
				"uri(uint256)": "infinite",
				"withdrawCollateral(uint256)": "infinite",
				"withdrawUSDC(uint256,uint256)": "infinite"
			},
			"internal": {
				"emit_state_updated(uint256)": "infinite",
				"time_now()": "infinite",
				"usdc_to_collateral(uint256,contract IPriceData,bytes calldata)": "infinite"
			}
		},
		"methodIdentifiers": {
			"CLAIM_PERIOD()": "21241dfe",
			"COLLATERAL()": "24bbab8b",
			"FEES_COLLECTOR()": "c5f16166",
			"LIQUIDATION_RELATIVE_VALUE()": "670d5b63",
			"LOT_SIZE()": "7fee67a2",
			"MAX_APY()": "3d92f4e2",
			"MAX_DURATION()": "b1724b46",
			"MIN_APY()": "e51d375a",
			"MIN_DURATION()": "b6a6d177",
			"MIN_FILL_DURATION()": "a8a71e09",
			"MIN_LOTS_AMOUNT()": "acbb65af",
			"PRICE_ORACLE()": "0a19399a",
			"PROTOCOL_FEE()": "0b4501fd",
			"RATIOS_DECIMALS()": "03cc1194",
			"TARGET_RELATIVE_VALUE()": "a0420e7f",
			"USDC()": "89a30271",
			"USDCValueOf(uint256,uint256)": "2d4cdfc3",
			"WITHDRAW_COOLDOWN()": "950d91e9",
			"balanceOf(address,uint256)": "00fdd58e",
			"balanceOfBatch(address[],uint256[])": "4e1273f4",
			"borrow(uint256,uint256,uint256,uint32,uint256,uint256,bytes)": "8c8dc659",
			"claimCollateral(uint256,bytes)": "e444f545",
			"claimUSDC(uint256)": "6e5f4a89",
			"createAsBorrower(uint256,uint256,uint32,uint32,uint32,uint32,bytes)": "7175030d",
			"createAsLender(uint256,uint32,uint32,uint32)": "51f740d5",
			"exists(uint256)": "4f558e79",
			"getDebt(uint256)": "c9dd1f3c",
			"getLoanInfo(uint256)": "0714012c",
			"getLoanStatus(uint256)": "1c4fd41c",
			"getRelativeCollateralValue(uint256,bytes)": "48782996",
			"increaseCollateral(uint256,uint256)": "54f0cb0d",
			"isApprovedForAll(address,address)": "e985e9c5",
			"isCollateralClaimable(uint256,bytes)": "a877e9ce",
			"lend(uint256,uint256,uint256)": "2bed89e5",
			"owner()": "8da5cb5b",
			"renounceOwnership()": "715018a6",
			"repay(uint256)": "371fd8e6",
			"safeBatchTransferFrom(address,address,uint256[],uint256[],bytes)": "2eb2c2d6",
			"safeTransferFrom(address,address,uint256,uint256,bytes)": "f242432a",
			"setApprovalForAll(address,bool)": "a22cb465",
			"setFeesCollector(address)": "373071f2",
			"setLiquidationRelativeValue(uint32)": "35557e5c",
			"setLotSize(uint256)": "34591a3e",
			"setMaxAPY(uint32)": "49d4a7c4",
			"setMaxDuration(uint32)": "ef921826",
			"setMinAPY(uint32)": "a45234d0",
			"setMinDuration(uint32)": "3273b110",
			"setMinFillDuration(uint32)": "c5b3a376",
			"setMinLotsAmount(uint32)": "f08a5381",
			"setPriceOracle(address)": "530e784f",
			"setProtocolFee(uint32)": "aa9f7628",
			"setTargetRelativeValue(uint32)": "9d100875",
			"stop()": "07da68f5",
			"stopped()": "75f12b21",
			"supportsInterface(bytes4)": "01ffc9a7",
			"totalSupply()": "18160ddd",
			"totalSupply(uint256)": "bd85b039",
			"transferOwnership(address)": "f2fde38b",
			"uri(uint256)": "0e89341c",
			"withdrawCollateral(uint256)": "6112fe2e",
			"withdrawUSDC(uint256,uint256)": "88e08665"
		}
	},
	"abi": [
		{
			"inputs": [
				{
					"internalType": "address",
					"name": "_price_oracle_address",
					"type": "address"
				},
				{
					"internalType": "address",
					"name": "_COLLATERAL",
					"type": "address"
				},
				{
					"internalType": "address",
					"name": "_USDC",
					"type": "address"
				},
				{
					"internalType": "address",
					"name": "_FEES_COLLECTOR",
					"type": "address"
				},
				{
					"internalType": "string",
					"name": "_erc1155_uri",
					"type": "string"
				}
			],
			"stateMutability": "nonpayable",
			"type": "constructor"
		},
		{
			"inputs": [
				{
					"internalType": "address",
					"name": "sender",
					"type": "address"
				},
				{
					"internalType": "uint256",
					"name": "balance",
					"type": "uint256"
				},
				{
					"internalType": "uint256",
					"name": "needed",
					"type": "uint256"
				},
				{
					"internalType": "uint256",
					"name": "tokenId",
					"type": "uint256"
				}
			],
			"name": "ERC1155InsufficientBalance",
			"type": "error"
		},
		{
			"inputs": [
				{
					"internalType": "address",
					"name": "approver",
					"type": "address"
				}
			],
			"name": "ERC1155InvalidApprover",
			"type": "error"
		},
		{
			"inputs": [
				{
					"internalType": "uint256",
					"name": "idsLength",
					"type": "uint256"
				},
				{
					"internalType": "uint256",
					"name": "valuesLength",
					"type": "uint256"
				}
			],
			"name": "ERC1155InvalidArrayLength",
			"type": "error"
		},
		{
			"inputs": [
				{
					"internalType": "address",
					"name": "operator",
					"type": "address"
				}
			],
			"name": "ERC1155InvalidOperator",
			"type": "error"
		},
		{
			"inputs": [
				{
					"internalType": "address",
					"name": "receiver",
					"type": "address"
				}
			],
			"name": "ERC1155InvalidReceiver",
			"type": "error"
		},
		{
			"inputs": [
				{
					"internalType": "address",
					"name": "sender",
					"type": "address"
				}
			],
			"name": "ERC1155InvalidSender",
			"type": "error"
		},
		{
			"inputs": [
				{
					"internalType": "address",
					"name": "operator",
					"type": "address"
				},
				{
					"internalType": "address",
					"name": "owner",
					"type": "address"
				}
			],
			"name": "ERC1155MissingApprovalForAll",
			"type": "error"
		},
		{
			"inputs": [
				{
					"internalType": "address",
					"name": "owner",
					"type": "address"
				}
			],
			"name": "OwnableInvalidOwner",
			"type": "error"
		},
		{
			"inputs": [
				{
					"internalType": "address",
					"name": "account",
					"type": "address"
				}
			],
			"name": "OwnableUnauthorizedAccount",
			"type": "error"
		},
		{
			"inputs": [],
			"name": "ReentrancyGuardReentrantCall",
			"type": "error"
		},
		{
			"inputs": [
				{
					"internalType": "address",
					"name": "token",
					"type": "address"
				}
			],
			"name": "SafeERC20FailedOperation",
			"type": "error"
		},
		{
			"anonymous": false,
			"inputs": [
				{
					"indexed": true,
					"internalType": "address",
					"name": "account",
					"type": "address"
				},
				{
					"indexed": true,
					"internalType": "address",
					"name": "operator",
					"type": "address"
				},
				{
					"indexed": false,
					"internalType": "bool",
					"name": "approved",
					"type": "bool"
				}
			],
			"name": "ApprovalForAll",
			"type": "event"
		},
		{
			"anonymous": false,
			"inputs": [
				{
					"indexed": true,
					"internalType": "uint256",
					"name": "loan_id",
					"type": "uint256"
				},
				{
					"indexed": false,
					"internalType": "uint256",
					"name": "lots",
					"type": "uint256"
				}
			],
			"name": "Borrow",
			"type": "event"
		},
		{
			"anonymous": false,
			"inputs": [
				{
					"indexed": true,
					"internalType": "uint256",
					"name": "loan_id",
					"type": "uint256"
				},
				{
					"indexed": true,
					"internalType": "address",
					"name": "lender",
					"type": "address"
				},
				{
					"indexed": false,
					"internalType": "uint256",
					"name": "lots",
					"type": "uint256"
				},
				{
					"indexed": false,
					"internalType": "uint256",
					"name": "collateral_amount",
					"type": "uint256"
				}
			],
			"name": "ClaimCollateral",
			"type": "event"
		},
		{
			"anonymous": false,
			"inputs": [
				{
					"indexed": true,
					"internalType": "uint256",
					"name": "loan_id",
					"type": "uint256"
				},
				{
					"indexed": true,
					"internalType": "address",
					"name": "lender",
					"type": "address"
				},
				{
					"indexed": false,
					"internalType": "uint256",
					"name": "lots",
					"type": "uint256"
				},
				{
					"indexed": false,
					"internalType": "uint256",
					"name": "USDC_amount",
					"type": "uint256"
				}
			],
			"name": "ClaimUSDC",
			"type": "event"
		},
		{
			"anonymous": false,
			"inputs": [
				{
					"indexed": true,
					"internalType": "uint256",
					"name": "loan_id",
					"type": "uint256"
				},
				{
					"indexed": false,
					"internalType": "uint256",
					"name": "lots_required",
					"type": "uint256"
				},
				{
					"indexed": false,
					"internalType": "uint256",
					"name": "lot_size",
					"type": "uint256"
				},
				{
					"indexed": false,
					"internalType": "address",
					"name": "price_oracle",
					"type": "address"
				},
				{
					"indexed": false,
					"internalType": "uint96",
					"name": "duration",
					"type": "uint96"
				},
				{
					"indexed": false,
					"internalType": "uint32",
					"name": "apy",
					"type": "uint32"
				},
				{
					"indexed": false,
					"internalType": "uint32",
					"name": "target_relative_value",
					"type": "uint32"
				},
				{
					"indexed": false,
					"internalType": "uint32",
					"name": "liquidation_relative_value",
					"type": "uint32"
				},
				{
					"indexed": false,
					"internalType": "uint96",
					"name": "fill_deadline",
					"type": "uint96"
				}
			],
			"name": "CreateAsBorrower",
			"type": "event"
		},
		{
			"anonymous": false,
			"inputs": [
				{
					"indexed": true,
					"internalType": "uint256",
					"name": "loan_id",
					"type": "uint256"
				},
				{
					"indexed": true,
					"internalType": "address",
					"name": "lender",
					"type": "address"
				},
				{
					"indexed": false,
					"internalType": "uint256",
					"name": "lots_required",
					"type": "uint256"
				},
				{
					"indexed": false,
					"internalType": "uint256",
					"name": "lot_size",
					"type": "uint256"
				},
				{
					"indexed": false,
					"internalType": "address",
					"name": "price_oracle",
					"type": "address"
				},
				{
					"indexed": false,
					"internalType": "uint96",
					"name": "duration",
					"type": "uint96"
				},
				{
					"indexed": false,
					"internalType": "uint32",
					"name": "apy",
					"type": "uint32"
				},
				{
					"indexed": false,
					"internalType": "uint32",
					"name": "target_relative_value",
					"type": "uint32"
				},
				{
					"indexed": false,
					"internalType": "uint32",
					"name": "liquidation_relative_value",
					"type": "uint32"
				},
				{
					"indexed": false,
					"internalType": "uint96",
					"name": "fill_deadline",
					"type": "uint96"
				}
			],
			"name": "CreateAsLender",
			"type": "event"
		},
		{
			"anonymous": false,
			"inputs": [
				{
					"indexed": true,
					"internalType": "uint256",
					"name": "loan_id",
					"type": "uint256"
				},
				{
					"indexed": false,
					"internalType": "uint96",
					"name": "claim_deadline",
					"type": "uint96"
				}
			],
			"name": "FullyFunded",
			"type": "event"
		},
		{
			"anonymous": false,
			"inputs": [
				{
					"indexed": true,
					"internalType": "uint256",
					"name": "load_id",
					"type": "uint256"
				},
				{
					"indexed": false,
					"internalType": "uint256",
					"name": "collateral_amount",
					"type": "uint256"
				}
			],
			"name": "IncreaseCollateral",
			"type": "event"
		},
		{
			"anonymous": false,
			"inputs": [
				{
					"indexed": true,
					"internalType": "uint256",
					"name": "loan_id",
					"type": "uint256"
				},
				{
					"indexed": true,
					"internalType": "address",
					"name": "lender",
					"type": "address"
				},
				{
					"indexed": false,
					"internalType": "uint256",
					"name": "lots",
					"type": "uint256"
				}
			],
			"name": "Lend",
			"type": "event"
		},
		{
			"anonymous": false,
			"inputs": [
				{
					"indexed": true,
					"internalType": "address",
					"name": "previousOwner",
					"type": "address"
				},
				{
					"indexed": true,
					"internalType": "address",
					"name": "newOwner",
					"type": "address"
				}
			],
			"name": "OwnershipTransferred",
			"type": "event"
		},
		{
			"anonymous": false,
			"inputs": [
				{
					"indexed": true,
					"internalType": "uint256",
					"name": "loan_id",
					"type": "uint256"
				},
				{
					"indexed": false,
					"internalType": "uint256",
					"name": "USDC_amount",
					"type": "uint256"
				}
			],
			"name": "Repay",
			"type": "event"
		},
		{
			"anonymous": false,
			"inputs": [
				{
					"indexed": false,
					"internalType": "address",
					"name": "FEES_COLLECTOR",
					"type": "address"
				}
			],
			"name": "SetFeesCollector",
			"type": "event"
		},
		{
			"anonymous": false,
			"inputs": [
				{
					"indexed": false,
					"internalType": "uint32",
					"name": "LIQUIDATION_RELATIVE_VALUE",
					"type": "uint32"
				}
			],
			"name": "SetLiquidationRelativeValue",
			"type": "event"
		},
		{
			"anonymous": false,
			"inputs": [
				{
					"indexed": false,
					"internalType": "uint256",
					"name": "LOT_SIZE",
					"type": "uint256"
				}
			],
			"name": "SetLotSize",
			"type": "event"
		},
		{
			"anonymous": false,
			"inputs": [
				{
					"indexed": false,
					"internalType": "uint32",
					"name": "MAX_APY",
					"type": "uint32"
				}
			],
			"name": "SetMaxAPY",
			"type": "event"
		},
		{
			"anonymous": false,
			"inputs": [
				{
					"indexed": false,
					"internalType": "uint32",
					"name": "MIN_LOTS_AMOUNT",
					"type": "uint32"
				}
			],
			"name": "SetMaxDuration",
			"type": "event"
		},
		{
			"anonymous": false,
			"inputs": [
				{
					"indexed": false,
					"internalType": "uint32",
					"name": "MIN_APY",
					"type": "uint32"
				}
			],
			"name": "SetMinAPY",
			"type": "event"
		},
		{
			"anonymous": false,
			"inputs": [
				{
					"indexed": false,
					"internalType": "uint32",
					"name": "MIN_LOTS_AMOUNT",
					"type": "uint32"
				}
			],
			"name": "SetMinDuration",
			"type": "event"
		},
		{
			"anonymous": false,
			"inputs": [
				{
					"indexed": false,
					"internalType": "uint32",
					"name": "MIN_FILL_DURATION",
					"type": "uint32"
				}
			],
			"name": "SetMinFillDuration",
			"type": "event"
		},
		{
			"anonymous": false,
			"inputs": [
				{
					"indexed": false,
					"internalType": "uint32",
					"name": "MIN_LOTS_AMOUNT",
					"type": "uint32"
				}
			],
			"name": "SetMinLotsAmount",
			"type": "event"
		},
		{
			"anonymous": false,
			"inputs": [
				{
					"indexed": false,
					"internalType": "address",
					"name": "PRICE_ORACLE",
					"type": "address"
				}
			],
			"name": "SetPriceOracle",
			"type": "event"
		},
		{
			"anonymous": false,
			"inputs": [
				{
					"indexed": false,
					"internalType": "uint32",
					"name": "PROTOCOL_FEE",
					"type": "uint32"
				}
			],
			"name": "SetProtocolFee",
			"type": "event"
		},
		{
			"anonymous": false,
			"inputs": [
				{
					"indexed": false,
					"internalType": "uint32",
					"name": "TARGET_RELATIVE_VALUE",
					"type": "uint32"
				}
			],
			"name": "SetTargetRelativeValue",
			"type": "event"
		},
		{
			"anonymous": false,
			"inputs": [
				{
					"indexed": true,
					"internalType": "uint256",
					"name": "loan_id",
					"type": "uint256"
				},
				{
					"indexed": true,
					"internalType": "address",
					"name": "borrower",
					"type": "address"
				},
				{
					"indexed": false,
					"internalType": "uint96",
					"name": "deadline",
					"type": "uint96"
				},
				{
					"indexed": false,
					"internalType": "uint256",
					"name": "collateral_balance",
					"type": "uint256"
				},
				{
					"indexed": false,
					"internalType": "uint256",
					"name": "USDC_balance",
					"type": "uint256"
				},
				{
					"indexed": false,
					"internalType": "uint96",
					"name": "claim_deadline",
					"type": "uint96"
				}
			],
			"name": "StateUpdated",
			"type": "event"
		},
		{
			"anonymous": false,
			"inputs": [],
			"name": "Stopped",
			"type": "event"
		},
		{
			"anonymous": false,
			"inputs": [
				{
					"indexed": true,
					"internalType": "address",
					"name": "operator",
					"type": "address"
				},
				{
					"indexed": true,
					"internalType": "address",
					"name": "from",
					"type": "address"
				},
				{
					"indexed": true,
					"internalType": "address",
					"name": "to",
					"type": "address"
				},
				{
					"indexed": false,
					"internalType": "uint256[]",
					"name": "ids",
					"type": "uint256[]"
				},
				{
					"indexed": false,
					"internalType": "uint256[]",
					"name": "values",
					"type": "uint256[]"
				}
			],
			"name": "TransferBatch",
			"type": "event"
		},
		{
			"anonymous": false,
			"inputs": [
				{
					"indexed": true,
					"internalType": "address",
					"name": "operator",
					"type": "address"
				},
				{
					"indexed": true,
					"internalType": "address",
					"name": "from",
					"type": "address"
				},
				{
					"indexed": true,
					"internalType": "address",
					"name": "to",
					"type": "address"
				},
				{
					"indexed": false,
					"internalType": "uint256",
					"name": "id",
					"type": "uint256"
				},
				{
					"indexed": false,
					"internalType": "uint256",
					"name": "value",
					"type": "uint256"
				}
			],
			"name": "TransferSingle",
			"type": "event"
		},
		{
			"anonymous": false,
			"inputs": [
				{
					"indexed": false,
					"internalType": "string",
					"name": "value",
					"type": "string"
				},
				{
					"indexed": true,
					"internalType": "uint256",
					"name": "id",
					"type": "uint256"
				}
			],
			"name": "URI",
			"type": "event"
		},
		{
			"anonymous": false,
			"inputs": [
				{
					"indexed": true,
					"internalType": "uint256",
					"name": "load_id",
					"type": "uint256"
				}
			],
			"name": "WithdrawCollateral",
			"type": "event"
		},
		{
			"anonymous": false,
			"inputs": [
				{
					"indexed": true,
					"internalType": "uint256",
					"name": "loan_id",
					"type": "uint256"
				},
				{
					"indexed": true,
					"internalType": "address",
					"name": "lender",
					"type": "address"
				},
				{
					"indexed": false,
					"internalType": "uint256",
					"name": "lots",
					"type": "uint256"
				}
			],
			"name": "WithdrawUSDC",
			"type": "event"
		},
		{
			"inputs": [],
			"name": "CLAIM_PERIOD",
			"outputs": [
				{
					"internalType": "uint96",
					"name": "",
					"type": "uint96"
				}
			],
			"stateMutability": "view",
			"type": "function"
		},
		{
			"inputs": [],
			"name": "COLLATERAL",
			"outputs": [
				{
					"internalType": "address",
					"name": "",
					"type": "address"
				}
			],
			"stateMutability": "view",
			"type": "function"
		},
		{
			"inputs": [],
			"name": "FEES_COLLECTOR",
			"outputs": [
				{
					"internalType": "address",
					"name": "",
					"type": "address"
				}
			],
			"stateMutability": "view",
			"type": "function"
		},
		{
			"inputs": [],
			"name": "LIQUIDATION_RELATIVE_VALUE",
			"outputs": [
				{
					"internalType": "uint32",
					"name": "",
					"type": "uint32"
				}
			],
			"stateMutability": "view",
			"type": "function"
		},
		{
			"inputs": [],
			"name": "LOT_SIZE",
			"outputs": [
				{
					"internalType": "uint256",
					"name": "",
					"type": "uint256"
				}
			],
			"stateMutability": "view",
			"type": "function"
		},
		{
			"inputs": [],
			"name": "MAX_APY",
			"outputs": [
				{
					"internalType": "uint32",
					"name": "",
					"type": "uint32"
				}
			],
			"stateMutability": "view",
			"type": "function"
		},
		{
			"inputs": [],
			"name": "MAX_DURATION",
			"outputs": [
				{
					"internalType": "uint32",
					"name": "",
					"type": "uint32"
				}
			],
			"stateMutability": "view",
			"type": "function"
		},
		{
			"inputs": [],
			"name": "MIN_APY",
			"outputs": [
				{
					"internalType": "uint32",
					"name": "",
					"type": "uint32"
				}
			],
			"stateMutability": "view",
			"type": "function"
		},
		{
			"inputs": [],
			"name": "MIN_DURATION",
			"outputs": [
				{
					"internalType": "uint32",
					"name": "",
					"type": "uint32"
				}
			],
			"stateMutability": "view",
			"type": "function"
		},
		{
			"inputs": [],
			"name": "MIN_FILL_DURATION",
			"outputs": [
				{
					"internalType": "uint32",
					"name": "",
					"type": "uint32"
				}
			],
			"stateMutability": "view",
			"type": "function"
		},
		{
			"inputs": [],
			"name": "MIN_LOTS_AMOUNT",
			"outputs": [
				{
					"internalType": "uint32",
					"name": "",
					"type": "uint32"
				}
			],
			"stateMutability": "view",
			"type": "function"
		},
		{
			"inputs": [],
			"name": "PRICE_ORACLE",
			"outputs": [
				{
					"internalType": "contract IPriceData",
					"name": "",
					"type": "address"
				}
			],
			"stateMutability": "view",
			"type": "function"
		},
		{
			"inputs": [],
			"name": "PROTOCOL_FEE",
			"outputs": [
				{
					"internalType": "uint32",
					"name": "",
					"type": "uint32"
				}
			],
			"stateMutability": "view",
			"type": "function"
		},
		{
			"inputs": [],
			"name": "RATIOS_DECIMALS",
			"outputs": [
				{
					"internalType": "uint8",
					"name": "",
					"type": "uint8"
				}
			],
			"stateMutability": "view",
			"type": "function"
		},
		{
			"inputs": [],
			"name": "TARGET_RELATIVE_VALUE",
			"outputs": [
				{
					"internalType": "uint32",
					"name": "",
					"type": "uint32"
				}
			],
			"stateMutability": "view",
			"type": "function"
		},
		{
			"inputs": [],
			"name": "USDC",
			"outputs": [
				{
					"internalType": "contract IERC20",
					"name": "",
					"type": "address"
				}
			],
			"stateMutability": "view",
			"type": "function"
		},
		{
			"inputs": [
				{
					"internalType": "uint256",
					"name": "loan_id",
					"type": "uint256"
				},
				{
					"internalType": "uint256",
					"name": "amount",
					"type": "uint256"
				}
			],
			"name": "USDCValueOf",
			"outputs": [
				{
					"internalType": "uint256",
					"name": "",
					"type": "uint256"
				}
			],
			"stateMutability": "view",
			"type": "function"
		},
		{
			"inputs": [],
			"name": "WITHDRAW_COOLDOWN",
			"outputs": [
				{
					"internalType": "uint96",
					"name": "",
					"type": "uint96"
				}
			],
			"stateMutability": "view",
			"type": "function"
		},
		{
			"inputs": [
				{
					"internalType": "address",
					"name": "account",
					"type": "address"
				},
				{
					"internalType": "uint256",
					"name": "id",
					"type": "uint256"
				}
			],
			"name": "balanceOf",
			"outputs": [
				{
					"internalType": "uint256",
					"name": "",
					"type": "uint256"
				}
			],
			"stateMutability": "view",
			"type": "function"
		},
		{
			"inputs": [
				{
					"internalType": "address[]",
					"name": "accounts",
					"type": "address[]"
				},
				{
					"internalType": "uint256[]",
					"name": "ids",
					"type": "uint256[]"
				}
			],
			"name": "balanceOfBatch",
			"outputs": [
				{
					"internalType": "uint256[]",
					"name": "",
					"type": "uint256[]"
				}
			],
			"stateMutability": "view",
			"type": "function"
		},
		{
			"inputs": [
				{
					"internalType": "uint256",
					"name": "loan_id",
					"type": "uint256"
				},
				{
					"internalType": "uint256",
					"name": "min_lots",
					"type": "uint256"
				},
				{
					"internalType": "uint256",
					"name": "max_lots",
					"type": "uint256"
				},
				{
					"internalType": "uint32",
					"name": "target_relative_value",
					"type": "uint32"
				},
				{
					"internalType": "uint256",
					"name": "min_collateral_in",
					"type": "uint256"
				},
				{
					"internalType": "uint256",
					"name": "max_collateral_out",
					"type": "uint256"
				},
				{
					"internalType": "bytes",
					"name": "offchain_price_data",
					"type": "bytes"
				}
			],
			"name": "borrow",
			"outputs": [
				{
					"internalType": "uint256",
					"name": "",
					"type": "uint256"
				}
			],
			"stateMutability": "nonpayable",
			"type": "function"
		},
		{
			"inputs": [
				{
					"internalType": "uint256",
					"name": "loan_id",
					"type": "uint256"
				},
				{
					"internalType": "bytes",
					"name": "offchain_price_data",
					"type": "bytes"
				}
			],
			"name": "claimCollateral",
			"outputs": [],
			"stateMutability": "nonpayable",
			"type": "function"
		},
		{
			"inputs": [
				{
					"internalType": "uint256",
					"name": "loan_id",
					"type": "uint256"
				}
			],
			"name": "claimUSDC",
			"outputs": [],
			"stateMutability": "nonpayable",
			"type": "function"
		},
		{
			"inputs": [
				{
					"internalType": "uint256",
					"name": "lots",
					"type": "uint256"
				},
				{
					"internalType": "uint256",
					"name": "max_collateral_out",
					"type": "uint256"
				},
				{
					"internalType": "uint32",
					"name": "collateral_value",
					"type": "uint32"
				},
				{
					"internalType": "uint32",
					"name": "duration_days",
					"type": "uint32"
				},
				{
					"internalType": "uint32",
					"name": "apy",
					"type": "uint32"
				},
				{
					"internalType": "uint32",
					"name": "fill_duration_days",
					"type": "uint32"
				},
				{
					"internalType": "bytes",
					"name": "offchain_price_data",
					"type": "bytes"
				}
			],
			"name": "createAsBorrower",
			"outputs": [
				{
					"internalType": "uint256",
					"name": "",
					"type": "uint256"
				}
			],
			"stateMutability": "nonpayable",
			"type": "function"
		},
		{
			"inputs": [
				{
					"internalType": "uint256",
					"name": "lots",
					"type": "uint256"
				},
				{
					"internalType": "uint32",
					"name": "collateral_value",
					"type": "uint32"
				},
				{
					"internalType": "uint32",
					"name": "duration_days",
					"type": "uint32"
				},
				{
					"internalType": "uint32",
					"name": "apy",
					"type": "uint32"
				}
			],
			"name": "createAsLender",
			"outputs": [
				{
					"internalType": "uint256",
					"name": "",
					"type": "uint256"
				}
			],
			"stateMutability": "nonpayable",
			"type": "function"
		},
		{
			"inputs": [
				{
					"internalType": "uint256",
					"name": "id",
					"type": "uint256"
				}
			],
			"name": "exists",
			"outputs": [
				{
					"internalType": "bool",
					"name": "",
					"type": "bool"
				}
			],
			"stateMutability": "view",
			"type": "function"
		},
		{
			"inputs": [
				{
					"internalType": "uint256",
					"name": "loan_id",
					"type": "uint256"
				}
			],
			"name": "getDebt",
			"outputs": [
				{
					"internalType": "uint256",
					"name": "",
					"type": "uint256"
				}
			],
			"stateMutability": "view",
			"type": "function"
		},
		{
			"inputs": [
				{
					"internalType": "uint256",
					"name": "loan_id",
					"type": "uint256"
				}
			],
			"name": "getLoanInfo",
			"outputs": [
				{
					"components": [
						{
							"internalType": "uint256",
							"name": "lots_required",
							"type": "uint256"
						},
						{
							"internalType": "uint256",
							"name": "lot_size",
							"type": "uint256"
						},
						{
							"internalType": "contract IPriceData",
							"name": "price_oracle",
							"type": "address"
						},
						{
							"internalType": "uint96",
							"name": "duration",
							"type": "uint96"
						},
						{
							"internalType": "uint32",
							"name": "apy",
							"type": "uint32"
						},
						{
							"internalType": "uint32",
							"name": "target_relative_value",
							"type": "uint32"
						},
						{
							"internalType": "uint32",
							"name": "liquidation_relative_value",
							"type": "uint32"
						},
						{
							"internalType": "uint96",
							"name": "fill_deadline",
							"type": "uint96"
						}
					],
					"internalType": "struct IP2PLending.LoanConditions",
					"name": "",
					"type": "tuple"
				},
				{
					"components": [
						{
							"internalType": "address",
							"name": "borrower",
							"type": "address"
						},
						{
							"internalType": "uint96",
							"name": "deadline",
							"type": "uint96"
						},
						{
							"internalType": "uint256",
							"name": "collateral_balance",
							"type": "uint256"
						},
						{
							"internalType": "uint256",
							"name": "USDC_balance",
							"type": "uint256"
						},
						{
							"internalType": "uint96",
							"name": "claim_deadline",
							"type": "uint96"
						}
					],
					"internalType": "struct IP2PLending.LoanState",
					"name": "",
					"type": "tuple"
				},
				{
					"internalType": "uint256",
					"name": "",
					"type": "uint256"
				}
			],
			"stateMutability": "view",
			"type": "function"
		},
		{
			"inputs": [
				{
					"internalType": "uint256",
					"name": "loan_id",
					"type": "uint256"
				}
			],
			"name": "getLoanStatus",
			"outputs": [
				{
					"internalType": "enum IP2PLending.LoanStatus",
					"name": "",
					"type": "uint8"
				}
			],
			"stateMutability": "view",
			"type": "function"
		},
		{
			"inputs": [
				{
					"internalType": "uint256",
					"name": "loan_id",
					"type": "uint256"
				},
				{
					"internalType": "bytes",
					"name": "offchain_price_data",
					"type": "bytes"
				}
			],
			"name": "getRelativeCollateralValue",
			"outputs": [
				{
					"internalType": "uint256",
					"name": "",
					"type": "uint256"
				}
			],
			"stateMutability": "view",
			"type": "function"
		},
		{
			"inputs": [
				{
					"internalType": "uint256",
					"name": "loan_id",
					"type": "uint256"
				},
				{
					"internalType": "uint256",
					"name": "collateral_amount",
					"type": "uint256"
				}
			],
			"name": "increaseCollateral",
			"outputs": [],
			"stateMutability": "nonpayable",
			"type": "function"
		},
		{
			"inputs": [
				{
					"internalType": "address",
					"name": "account",
					"type": "address"
				},
				{
					"internalType": "address",
					"name": "operator",
					"type": "address"
				}
			],
			"name": "isApprovedForAll",
			"outputs": [
				{
					"internalType": "bool",
					"name": "",
					"type": "bool"
				}
			],
			"stateMutability": "view",
			"type": "function"
		},
		{
			"inputs": [
				{
					"internalType": "uint256",
					"name": "loan_id",
					"type": "uint256"
				},
				{
					"internalType": "bytes",
					"name": "offchain_price_data",
					"type": "bytes"
				}
			],
			"name": "isCollateralClaimable",
			"outputs": [
				{
					"internalType": "bool",
					"name": "",
					"type": "bool"
				}
			],
			"stateMutability": "view",
			"type": "function"
		},
		{
			"inputs": [
				{
					"internalType": "uint256",
					"name": "loan_id",
					"type": "uint256"
				},
				{
					"internalType": "uint256",
					"name": "target_lots",
					"type": "uint256"
				},
				{
					"internalType": "uint256",
					"name": "min_lots",
					"type": "uint256"
				}
			],
			"name": "lend",
			"outputs": [
				{
					"internalType": "uint256",
					"name": "",
					"type": "uint256"
				}
			],
			"stateMutability": "nonpayable",
			"type": "function"
		},
		{
			"inputs": [],
			"name": "owner",
			"outputs": [
				{
					"internalType": "address",
					"name": "",
					"type": "address"
				}
			],
			"stateMutability": "view",
			"type": "function"
		},
		{
			"inputs": [],
			"name": "renounceOwnership",
			"outputs": [],
			"stateMutability": "nonpayable",
			"type": "function"
		},
		{
			"inputs": [
				{
					"internalType": "uint256",
					"name": "loan_id",
					"type": "uint256"
				}
			],
			"name": "repay",
			"outputs": [],
			"stateMutability": "nonpayable",
			"type": "function"
		},
		{
			"inputs": [
				{
					"internalType": "address",
					"name": "from",
					"type": "address"
				},
				{
					"internalType": "address",
					"name": "to",
					"type": "address"
				},
				{
					"internalType": "uint256[]",
					"name": "ids",
					"type": "uint256[]"
				},
				{
					"internalType": "uint256[]",
					"name": "values",
					"type": "uint256[]"
				},
				{
					"internalType": "bytes",
					"name": "data",
					"type": "bytes"
				}
			],
			"name": "safeBatchTransferFrom",
			"outputs": [],
			"stateMutability": "nonpayable",
			"type": "function"
		},
		{
			"inputs": [
				{
					"internalType": "address",
					"name": "from",
					"type": "address"
				},
				{
					"internalType": "address",
					"name": "to",
					"type": "address"
				},
				{
					"internalType": "uint256",
					"name": "id",
					"type": "uint256"
				},
				{
					"internalType": "uint256",
					"name": "value",
					"type": "uint256"
				},
				{
					"internalType": "bytes",
					"name": "data",
					"type": "bytes"
				}
			],
			"name": "safeTransferFrom",
			"outputs": [],
			"stateMutability": "nonpayable",
			"type": "function"
		},
		{
			"inputs": [
				{
					"internalType": "address",
					"name": "operator",
					"type": "address"
				},
				{
					"internalType": "bool",
					"name": "approved",
					"type": "bool"
				}
			],
			"name": "setApprovalForAll",
			"outputs": [],
			"stateMutability": "nonpayable",
			"type": "function"
		},
		{
			"inputs": [
				{
					"internalType": "address",
					"name": "_FEES_COLLECTOR",
					"type": "address"
				}
			],
			"name": "setFeesCollector",
			"outputs": [],
			"stateMutability": "nonpayable",
			"type": "function"
		},
		{
			"inputs": [
				{
					"internalType": "uint32",
					"name": "_LIQUIDATION_RELATIVE_VALUE",
					"type": "uint32"
				}
			],
			"name": "setLiquidationRelativeValue",
			"outputs": [],
			"stateMutability": "nonpayable",
			"type": "function"
		},
		{
			"inputs": [
				{
					"internalType": "uint256",
					"name": "_LOT_SIZE",
					"type": "uint256"
				}
			],
			"name": "setLotSize",
			"outputs": [],
			"stateMutability": "nonpayable",
			"type": "function"
		},
		{
			"inputs": [
				{
					"internalType": "uint32",
					"name": "_MAX_APY",
					"type": "uint32"
				}
			],
			"name": "setMaxAPY",
			"outputs": [],
			"stateMutability": "nonpayable",
			"type": "function"
		},
		{
			"inputs": [
				{
					"internalType": "uint32",
					"name": "_MAX_DURATION",
					"type": "uint32"
				}
			],
			"name": "setMaxDuration",
			"outputs": [],
			"stateMutability": "nonpayable",
			"type": "function"
		},
		{
			"inputs": [
				{
					"internalType": "uint32",
					"name": "_MIN_APY",
					"type": "uint32"
				}
			],
			"name": "setMinAPY",
			"outputs": [],
			"stateMutability": "nonpayable",
			"type": "function"
		},
		{
			"inputs": [
				{
					"internalType": "uint32",
					"name": "_MIN_DURATION",
					"type": "uint32"
				}
			],
			"name": "setMinDuration",
			"outputs": [],
			"stateMutability": "nonpayable",
			"type": "function"
		},
		{
			"inputs": [
				{
					"internalType": "uint32",
					"name": "_MIN_FILL_DURATION",
					"type": "uint32"
				}
			],
			"name": "setMinFillDuration",
			"outputs": [],
			"stateMutability": "nonpayable",
			"type": "function"
		},
		{
			"inputs": [
				{
					"internalType": "uint32",
					"name": "_MIN_LOTS_AMOUNT",
					"type": "uint32"
				}
			],
			"name": "setMinLotsAmount",
			"outputs": [],
			"stateMutability": "nonpayable",
			"type": "function"
		},
		{
			"inputs": [
				{
					"internalType": "address",
					"name": "_PRICE_ORACLE",
					"type": "address"
				}
			],
			"name": "setPriceOracle",
			"outputs": [],
			"stateMutability": "nonpayable",
			"type": "function"
		},
		{
			"inputs": [
				{
					"internalType": "uint32",
					"name": "_PROTOCOL_FEE",
					"type": "uint32"
				}
			],
			"name": "setProtocolFee",
			"outputs": [],
			"stateMutability": "nonpayable",
			"type": "function"
		},
		{
			"inputs": [
				{
					"internalType": "uint32",
					"name": "_TARGET_RELATIVE_VALUE",
					"type": "uint32"
				}
			],
			"name": "setTargetRelativeValue",
			"outputs": [],
			"stateMutability": "nonpayable",
			"type": "function"
		},
		{
			"inputs": [],
			"name": "stop",
			"outputs": [],
			"stateMutability": "nonpayable",
			"type": "function"
		},
		{
			"inputs": [],
			"name": "stopped",
			"outputs": [
				{
					"internalType": "bool",
					"name": "",
					"type": "bool"
				}
			],
			"stateMutability": "view",
			"type": "function"
		},
		{
			"inputs": [
				{
					"internalType": "bytes4",
					"name": "interfaceId",
					"type": "bytes4"
				}
			],
			"name": "supportsInterface",
			"outputs": [
				{
					"internalType": "bool",
					"name": "",
					"type": "bool"
				}
			],
			"stateMutability": "view",
			"type": "function"
		},
		{
			"inputs": [],
			"name": "totalSupply",
			"outputs": [
				{
					"internalType": "uint256",
					"name": "",
					"type": "uint256"
				}
			],
			"stateMutability": "view",
			"type": "function"
		},
		{
			"inputs": [
				{
					"internalType": "uint256",
					"name": "id",
					"type": "uint256"
				}
			],
			"name": "totalSupply",
			"outputs": [
				{
					"internalType": "uint256",
					"name": "",
					"type": "uint256"
				}
			],
			"stateMutability": "view",
			"type": "function"
		},
		{
			"inputs": [
				{
					"internalType": "address",
					"name": "newOwner",
					"type": "address"
				}
			],
			"name": "transferOwnership",
			"outputs": [],
			"stateMutability": "nonpayable",
			"type": "function"
		},
		{
			"inputs": [
				{
					"internalType": "uint256",
					"name": "",
					"type": "uint256"
				}
			],
			"name": "uri",
			"outputs": [
				{
					"internalType": "string",
					"name": "",
					"type": "string"
				}
			],
			"stateMutability": "view",
			"type": "function"
		},
		{
			"inputs": [
				{
					"internalType": "uint256",
					"name": "loan_id",
					"type": "uint256"
				}
			],
			"name": "withdrawCollateral",
			"outputs": [],
			"stateMutability": "nonpayable",
			"type": "function"
		},
		{
			"inputs": [
				{
					"internalType": "uint256",
					"name": "loan_id",
					"type": "uint256"
				},
				{
					"internalType": "uint256",
					"name": "lots",
					"type": "uint256"
				}
			],
			"name": "withdrawUSDC",
			"outputs": [],
			"stateMutability": "nonpayable",
			"type": "function"
		}
	]
}