{
	"data": {
		"bytecode": {
			"linkReferences": {},
			"object": "60e0604052600a6007557d2cec000032c8000186a00000006400000001000002da000000070000000a6008556009805463ffffffff191660961790556001600d5534801561004b575f5ffd5b5060405161580438038061580483398101604081905261006a9161027d565b80338061009057604051631e4fbdf760e01b81525f600482015260240160405180910390fd5b610099816101ef565b506100a38161023e565b506001600655600a80546001600160a01b0319166001600160a01b0387811691909117909155841660808190526040805163313ce56760e01b8152905163313ce567916004808201926020929091908290030181865afa158015610109573d5f5f3e3d5ffd5b505050506040513d601f19601f8201168201806040525081019061012d919061036f565b60ff1660a0526001600160a01b03831660c08190526040805163313ce56760e01b8152905163313ce567916004808201926020929091908290030181865afa15801561017b573d5f5f3e3d5ffd5b505050506040513d601f19601f8201168201806040525081019061019f919061036f565b6101aa90600a61048f565b6007546101b7919061049d565b60075550600980546001600160a01b0390921664010000000002600160201b600160c01b0319909216919091179055506105f2915050565b5f80546001600160a01b038381166001600160a01b0319831681178455604051919092169283917f8be0079c531659141344cd1fd0a4f28419497f9722a3daafe3b4186f6b6457e09190a35050565b600361024a8282610538565b5050565b80516001600160a01b0381168114610264575f5ffd5b919050565b634e487b7160e01b5f52604160045260245ffd5b5f5f5f5f5f60a08688031215610291575f5ffd5b61029a8661024e565b94506102a86020870161024e565b93506102b66040870161024e565b92506102c46060870161024e565b60808701519092506001600160401b038111156102df575f5ffd5b8601601f810188136102ef575f5ffd5b80516001600160401b0381111561030857610308610269565b604051601f8201601f19908116603f011681016001600160401b038111828210171561033657610336610269565b6040528181528282016020018a101561034d575f5ffd5b8160208401602083015e5f602083830101528093505050509295509295909350565b5f6020828403121561037f575f5ffd5b815160ff8116811461038f575f5ffd5b9392505050565b634e487b7160e01b5f52601160045260245ffd5b6001815b60018411156103e5578085048111156103c9576103c9610396565b60018416156103d757908102905b60019390931c9280026103ae565b935093915050565b5f826103fb57506001610489565b8161040757505f610489565b816001811461041d576002811461042757610443565b6001915050610489565b60ff84111561043857610438610396565b50506001821b610489565b5060208310610133831016604e8410600b8410161715610466575081810a610489565b6104725f1984846103aa565b805f190482111561048557610485610396565b0290505b92915050565b5f61038f60ff8416836103ed565b808202811582820484141761048957610489610396565b600181811c908216806104c857607f821691505b6020821081036104e657634e487b7160e01b5f52602260045260245ffd5b50919050565b601f82111561053357805f5260205f20601f840160051c810160208510156105115750805b601f840160051c820191505b81811015610530575f815560010161051d565b50505b505050565b81516001600160401b0381111561055157610551610269565b6105658161055f84546104b4565b846104ec565b6020601f821160018114610597575f83156105805750848201515b5f19600385901b1c1916600184901b178455610530565b5f84815260208120601f198516915b828110156105c657878501518255602094850194600190920191016105a6565b50848210156105e357868401515f19600387901b60f8161c191681555b50505050600190811b01905550565b60805160a05160c0516151556106af5f395f81816106bb01528181610edc01528181611459015281816123ff01528181612c0d015261356301525f81816116ce01528181612e210152818161376a0152613e3101525f81816104cf015281816114b0015281816116a901528181611ee60152818161210701528181612179015281816121d40152818161267401528181612dfc015281816133fd0152818161345b01528181613745015281816138f20152613e0f01526151555ff3fe608060405234801561000f575f5ffd5b5060043610610387575f3560e01c80636e5f4a89116101df578063acbb65af11610109578063e3f1aa94116100a9578063ef92182611610079578063ef92182614610899578063f08a5381146108ac578063f242432a146108bf578063f2fde38b146108d2575f5ffd5b8063e3f1aa9414610821578063e444f54514610834578063e51d375a14610847578063e985e9c51461085e575f5ffd5b8063bd85b039116100e4578063bd85b039146107c1578063c5b3a376146107e0578063c5f16166146107f3578063c9dd1f3c1461080e575f5ffd5b8063acbb65af14610782578063b1724b4614610792578063b6a6d177146107a9575f5ffd5b8063950d91e91161017f578063a45234d01161014f578063a45234d014610732578063a877e9ce14610745578063a8a71e0914610758578063aa9f76281461076f575f5ffd5b8063950d91e9146106ed5780639d100875146106f5578063a0420e7f14610708578063a22cb4651461071f575f5ffd5b80637fee67a2116101ba5780637fee67a21461069a57806388e08665146106a357806389a30271146106b65780638da5cb5b146106dd575f5ffd5b80636e5f4a891461066c578063715018a61461067f5780637175030d14610687575f5ffd5b80633273b110116102c057806349d4a7c411610260578063530e784f11610230578063530e784f1461061c57806354f0cb0d1461062f5780636112fe2e14610642578063670d5b6314610655575f5ffd5b806349d4a7c4146105b55780634e1273f4146105c85780634f558e79146105e857806351f740d514610609575f5ffd5b8063371fd8e61161029b578063371fd8e614610565578063373071f2146105785780633d92f4e21461058b57806348782996146105a2575f5ffd5b80633273b1101461052c57806334591a3e1461053f57806335557e5c14610552575f5ffd5b806318160ddd1161032b57806324bbab8b1161030657806324bbab8b146104ca5780632bed89e5146104f15780632d4cdfc3146105045780632eb2c2d614610517575f5ffd5b806318160ddd146104805780631c4fd41c1461048857806321241dfe146104a8575f5ffd5b80630714012c116103665780630714012c146103ee5780630a19399a146104105780630b4501fd1461043b5780630e89341c14610460575f5ffd5b8062fdd58e1461038b57806301ffc9a7146103b157806303cc1194146103d4575b5f5ffd5b61039e610399366004614579565b6108e5565b6040519081526020015b60405180910390f35b6103c46103bf3660046145b6565b61090e565b60405190151581526020016103a8565b6103dc600481565b60405160ff90911681526020016103a8565b6104016103fc3660046145d1565b61095d565b6040516103a8939291906145e8565b600a54610423906001600160a01b031681565b6040516001600160a01b0390911681526020016103a8565b60095461044b9063ffffffff1681565b60405163ffffffff90911681526020016103a8565b61047361046e3660046145d1565b610b18565b6040516103a89190614703565b60055461039e565b61049b6104963660046145d1565b610baa565b6040516103a89190614729565b6104b26201518081565b6040516001600160601b0390911681526020016103a8565b6104237f000000000000000000000000000000000000000000000000000000000000000081565b61039e6104ff36600461474f565b610cd2565b61039e610512366004614778565b6110b5565b61052a6105253660046148d6565b61117b565b005b61052a61053a366004614998565b611200565b61052a61054d3660046145d1565b611268565b61052a610560366004614998565b6112a5565b61052a6105733660046145d1565b611303565b61052a6105863660046149b1565b61152e565b60085461044b90600160a01b900463ffffffff1681565b61039e6105b0366004614a0f565b6115a9565b61052a6105c3366004614998565b611762565b6105db6105d6366004614a57565b6117c1565b6040516103a89190614b54565b6103c46105f63660046145d1565b5f90815260046020526040902054151590565b61039e610617366004614b66565b61188c565b61052a61062a3660046149b1565b611d47565b61052a61063d366004614778565b611d9d565b61052a6106503660046145d1565b611f76565b60085461044b90600160e01b900463ffffffff1681565b61052a61067a3660046145d1565b61226f565b61052a612482565b61039e610695366004614bb0565b612495565b61039e60075481565b61052a6106b1366004614778565b6129a7565b6104237f000000000000000000000000000000000000000000000000000000000000000081565b5f546001600160a01b0316610423565b6104b2601e81565b61052a610703366004614998565b612c77565b60085461044b90600160c01b900463ffffffff1681565b61052a61072d366004614c43565b612cd6565b61052a610740366004614998565b612ce1565b6103c4610753366004614a0f565b612d4d565b60085461044b90600160601b900463ffffffff1681565b61052a61077d366004614998565b612ec4565b60085461044b9063ffffffff1681565b60085461044b90600160401b900463ffffffff1681565b60085461044b90640100000000900463ffffffff1681565b61039e6107cf3660046145d1565b5f9081526004602052604090205490565b61052a6107ee366004614998565b612f14565b6009546104239064010000000090046001600160a01b031681565b61039e61081c3660046145d1565b612f7c565b61039e61082f366004614c7c565b6130e5565b61052a610842366004614a0f565b61360b565b60085461044b90600160801b900463ffffffff1681565b6103c461086c366004614cea565b6001600160a01b039182165f90815260026020908152604080832093909416825291909152205460ff1690565b61052a6108a7366004614998565b61397b565b61052a6108ba366004614998565b6139df565b61052a6108cd366004614d1b565b613a2f565b61052a6108e03660046149b1565b613aac565b5f8181526001602090815260408083206001600160a01b03861684529091529020545b92915050565b5f6001600160e01b03198216636cdb3d1360e11b148061093e57506001600160e01b031982166303a24d0760e21b145b8061090857506301ffc9a760e01b6001600160e01b0319831614610908565b60408051610100810182525f80825260208201819052918101829052606081018290526080810182905260a0810182905260c0810182905260e08101919091526040805160a0810182525f808252602082018190529181018290526060810182905260808101919091525f835f811180156109d95750600d5481105b610a1d5760405162461bcd60e51b815260206004820152601060248201526f496e76616c6964204c6f616e2049442160801b60448201526064015b60405180910390fd5b5050505f91825250600b60209081526040808320600c835281842060048452938290205482516101008101845282548152600180840154828701526002808501546001600160a01b03808216858901526001600160601b03600160a01b92839004811660608088019190915260039889015463ffffffff8082166080808b01919091526401000000008304821660a0808c0191909152600160401b840490921660c08b0152600160601b909204841660e08a01528b519081018c528d5494851681529490930482169a84019a909a52938a01549782019790975290880154968101969096529290950154909116918301919091529192909190565b606060038054610b2790614d6f565b80601f0160208091040260200160405190810160405280929190818152602001828054610b5390614d6f565b8015610b9e5780601f10610b7557610100808354040283529160200191610b9e565b820191905f5260205f20905b815481529060010190602001808311610b8157829003601f168201915b50505050509050919050565b5f818152600b60209081526040808320600c909252822081548303610bd257505f9392505050565b80546001600160a01b0316158015610bf557505f84815260046020526040902054155b80610c16575080546001600160a01b031615801590610c1657506001810154155b15610c25575060059392505050565b8054600160a01b90046001600160601b03165f03610ca15760038101546001600160601b031615801590610c68575060038101546001600160601b034281169116105b15610c77575060039392505050565b5f8481526004602052604090205482541115610c97575060019392505050565b5060029392505050565b600181015415610cc8575f8481526004602052604090205415610cc8575060049392505050565b5060059392505050565b5f610cdb613ae6565b835f81118015610cec5750600d5481105b610d2b5760405162461bcd60e51b815260206004820152601060248201526f496e76616c6964204c6f616e2049442160801b6044820152606401610a14565b5f84118015610d3a5750828410155b610dac5760405162461bcd60e51b815260206004820152603260248201527f5032504c656e64696e6720726571756972653a7461726765745f6c6f74733e3060448201527f202626206c6f74733e3d6d696e5f6c6f747300000000000000000000000000006064820152608401610a14565b6001610db786610baa565b6005811115610dc857610dc8614715565b14610e295760405162461bcd60e51b815260206004820152602b60248201527f5032504c656e64696e673a4c6f616e537461747573206e6f7420657175616c7360448201526a2046494e414e43494e472160a81b6064820152608401610a14565b5f858152600b6020908152604080832060049092528220549091908254610e509190614dbb565b905084811015610eb05760405162461bcd60e51b815260206004820152602560248201527f5032504c656e64696e673a4e6f7420656e6f75676820617661696c61626c65206044820152646c6f74732160d81b6064820152608401610a14565b5f610ebb8783613b10565b9050610f043330838660010154610ed29190614dce565b6001600160a01b037f000000000000000000000000000000000000000000000000000000000000000016929190613b1f565b610f1e33898360405180602001604052805f815250613b8c565b82545f898152600460205260409020541115610f8d5760405162461bcd60e51b815260206004820152602860248201527f5032504c656e64696e6720726571756972653a737570706c793c3d6c6f74735f6044820152671c995c5d5a5c995960c21b6064820152608401610a14565b82545f898152600460205260409020544291900361101f57610fb26201518082614de5565b5f8a8152600c602090815260409182902060030180546bffffffffffffffffffffffff19166001600160601b0394909416938417905590519182528a917f6fce911d7163d1242cd9f1727a93eb2d9232bb808db0881b448196dcd2fe412d910160405180910390a2611067565b61102a601e82614de5565b335f908152600e602090815260408083208d8452909152902080546bffffffffffffffffffffffff19166001600160601b03929092169190911790555b60405182815233908a907fbc00f64d7f7fdd45626f23c5b8bfa1c1b8e64faf4200efb7da5a7439a326f9559060200160405180910390a35093505050506110ae6001600655565b9392505050565b5f825f811180156110c75750600d5481105b6111065760405162461bcd60e51b815260206004820152601060248201526f496e76616c6964204c6f616e2049442160801b6044820152606401610a14565b5f84815260046020526040902054801561116f575f858152600c602052604081206002015415611146575f868152600c602052604090206002015461114f565b61114f86612f7c565b90508161115c8287614dce565b6111669190614e04565b93505050611174565b5f9250505b5092915050565b336001600160a01b03861681148015906111ba57506001600160a01b038087165f9081526002602090815260408083209385168352929052205460ff16155b156111eb5760405163711bec9160e11b81526001600160a01b03808316600483015287166024820152604401610a14565b6111f88686868686613be7565b505050505050565b611208613c4c565b6008805467ffffffff00000000191664010000000063ffffffff8481168202929092179283905560405192041681527f85595cb7b81d221172988f4bf171b00745e5c6f4e17760cc33dd2f02dcb57ae4906020015b60405180910390a150565b611270613c4c565b60078190556040518181527fde6a3638493f2725f743c7c5c9801d3143c92f2adf4825f0434dd9513b2943c79060200161125d565b6112ad613c4c565b600880546001600160e01b0316600160e01b63ffffffff8481168202929092179283905560405192041681527f89c571e0d88872f4418634e394070dbe24a78682b16a616b1f8e02a2939d421e9060200161125d565b61130b613ae6565b805f8111801561131c5750600d5481105b61135b5760405162461bcd60e51b815260206004820152601060248201526f496e76616c6964204c6f616e2049442160801b6044820152606401610a14565b600461136683610baa565b600581111561137757611377614715565b146113d65760405162461bcd60e51b815260206004820152602960248201527f5032504c656e64696e673a4c6f616e537461747573206d75737420657175616c60448201526873204143544956452160b81b6064820152608401610a14565b5f828152600c6020526040902080546001600160a01b0316331461143c5760405162461bcd60e51b815260206004820152601f60248201527f5032504c656e64696e673a43616c6c6572206973206e6f74206f776e657221006044820152606401610a14565b5f61144684612f7c565b8254909150611483906001600160a01b037f0000000000000000000000000000000000000000000000000000000000000000811691163084613b1f565b80826002015f8282546114969190614e23565b9091555050815460018301546114da916001600160a01b037f0000000000000000000000000000000000000000000000000000000000000000811692911690613c78565b5f600183015560405181815284907f552544cb36551120f07c66c5cd4b2987725a0c72198587f2ce796099bb66c58c9060200160405180910390a261151e84613ca9565b50505061152b6001600655565b50565b611536613c4c565b600980547fffffffffffffffff0000000000000000000000000000000000000000ffffffff166401000000006001600160a01b038481168202929092179283905560405192041681527f15a6d8dbe28500fe360d4a194d18559ae45775c191765d262c598c2fcb59d9679060200161125d565b5f835f811180156115bb5750600d5481105b6115fa5760405162461bcd60e51b815260206004820152601060248201526f496e76616c6964204c6f616e2049442160801b6044820152606401610a14565b600461160586610baa565b600581111561161657611616614715565b146116755760405162461bcd60e51b815260206004820152602960248201527f5032504c656e64696e673a4c6f616e537461747573206d75737420657175616c60448201526873204143544956452160b81b6064820152608401610a14565b5f858152600b6020908152604080832060020154600c909252909120600101546001600160a01b0390911690634bbf415c907f0000000000000000000000000000000000000000000000000000000000000000906004907f00000000000000000000000000000000000000000000000000000000000000006116f68b612f7c565b8a8a6040518863ffffffff1660e01b815260040161171a9796959493929190614e5e565b602060405180830381865afa158015611735573d5f5f3e3d5ffd5b505050506040513d601f19601f820116820180604052508101906117599190614eab565b95945050505050565b61176a613c4c565b6008805463ffffffff60a01b1916600160a01b63ffffffff8481168202929092179283905560405192041681527f7b0ffac54449edefe5c8b153777b5873e7673d02c8ac936f3cb37a9a2b9e00d59060200161125d565b606081518351146117f25781518351604051635b05999160e01b815260048101929092526024820152604401610a14565b5f835167ffffffffffffffff81111561180d5761180d614798565b604051908082528060200260200182016040528015611836578160200160208202803683370190505b5090505f5b84518110156118845760208082028601015161185f906020808402870101516108e5565b82828151811061187157611871614ec2565b602090810291909101015260010161183b565b509392505050565b5f611895613ae6565b60085463ffffffff1685108015906118c0575060085463ffffffff600160c01b909104811690851610155b80156118e0575060085463ffffffff640100000000909104811690841610155b80156118ff575060085463ffffffff600160401b909104811690841611155b801561191e575060085463ffffffff600160801b909104811690831610155b801561193d575060085463ffffffff600160a01b909104811690831611155b6119895760405162461bcd60e51b815260206004820152601d60248201527f5032504c656e64696e673a496e76616c696420617267756d656e7473210000006044820152606401610a14565b61199c333087600754610ed29190614dce565b6119b833600d548760405180602001604052805f815250613b8c565b60408051610100810182528681526007546020820152600a546001600160a01b031691810191909152606081016119f28562015180614ed6565b63ffffffff166001600160601b031681526020018363ffffffff1681526020018563ffffffff1681526020016008601c9054906101000a900463ffffffff1663ffffffff1681526020015f6001600160601b0316815250600b5f600d5481526020019081526020015f205f820151815f0155602082015181600101556040820151816002015f6101000a8154816001600160a01b0302191690836001600160a01b0316021790555060608201518160020160146101000a8154816001600160601b0302191690836001600160601b031602179055506080820151816003015f6101000a81548163ffffffff021916908363ffffffff16021790555060a08201518160030160046101000a81548163ffffffff021916908363ffffffff16021790555060c08201518160030160086101000a81548163ffffffff021916908363ffffffff16021790555060e082015181600301600c6101000a8154816001600160601b0302191690836001600160601b031602179055509050506040518060a001604052805f6001600160a01b031681526020015f6001600160601b031681526020015f81526020015f81526020015f6001600160601b0316815250600c5f600d5481526020019081526020015f205f820151815f015f6101000a8154816001600160a01b0302191690836001600160a01b031602179055506020820151815f0160146101000a8154816001600160601b0302191690836001600160601b0316021790555060408201518160010155606082015181600201556080820151816003015f6101000a8154816001600160601b0302191690836001600160601b03160217905550905050611c603390565b600d545f818152600b60209081526040918290208054600182015460028301546003909301548551928352938201526001600160a01b03808316948201949094526001600160601b03600160a01b9092048216606082015263ffffffff80841660808301526401000000008404811660a0830152600160401b84041660c0820152600160601b9092041660e08201529216917f2f89d5518972ef9f2027aa908ae490b2bd691fbd59e127d7badcdb6bf75551d6906101000160405180910390a3600d8054905f611d2f83614ef5565b919050559050611d3f6001600655565b949350505050565b611d4f613c4c565b600a80546001600160a01b0319166001600160a01b0383169081179091556040519081527f88a686e0e341d9099f2f990c3aa759a86822142a67579064b43ded9354a256629060200161125d565b611da5613ae6565b815f81118015611db65750600d5481105b611df55760405162461bcd60e51b815260206004820152601060248201526f496e76616c6964204c6f616e2049442160801b6044820152606401610a14565b6004611e0084610baa565b6005811115611e1157611e11614715565b14611e705760405162461bcd60e51b815260206004820152602960248201527f5032504c656e64696e673a4c6f616e537461747573206d75737420657175616c60448201526873204143544956452160b81b6064820152608401610a14565b5f838152600c6020526040902080546001600160a01b03163314611ed65760405162461bcd60e51b815260206004820152601f60248201527f5032504c656e64696e673a43616c6c6572206973206e6f74206f776e657221006044820152606401610a14565b8054611f10906001600160a01b037f0000000000000000000000000000000000000000000000000000000000000000811691163086613b1f565b82816001015f828254611f239190614e23565b909155505060405183815284907f8cc7f16cd883f4af720102359f36f5a11402ba74ba5515e43b36eea9eddff23c9060200160405180910390a2611f6684613ca9565b5050611f726001600655565b5050565b611f7e613ae6565b805f81118015611f8f5750600d5481105b611fce5760405162461bcd60e51b815260206004820152601060248201526f496e76616c6964204c6f616e2049442160801b6044820152606401610a14565b5f828152600c6020526040902080546001600160a01b031633146120345760405162461bcd60e51b815260206004820152601f60248201527f5032504c656e64696e673a43616c6c6572206973206e6f74206f776e657221006044820152606401610a14565b8054600160a01b90046001600160601b031615801561205657505f8160010154115b6120a25760405162461bcd60e51b815260206004820152601b60248201527f5032504c656e64696e673a43616e6e6f742057697468647261772100000000006044820152606401610a14565b60016120ad84610baa565b60058111156120be576120be614715565b1480156120ed57505f838152600b60205260409020600301546001600160601b03428116600160601b90920416105b156121365780546001820154612131916001600160a01b037f0000000000000000000000000000000000000000000000000000000000000000811692911690613c78565b6121fd565b5f6121436004600a614ff0565b600183015460095461215b919063ffffffff16614dce565b6121659190614e04565b6009549091506121aa906001600160a01b037f000000000000000000000000000000000000000000000000000000000000000081169164010000000090041683613c78565b815460018301546121fb916001600160a01b0316906121ca908490614dbb565b6001600160a01b037f0000000000000000000000000000000000000000000000000000000000000000169190613c78565b505b5f6001828101829055848252600b6020908152604080842090920154600490915291205461222b9190614dce565b600282015560405183907ffc226bcc04f8f8905af4229a5d361773b6bb568167898414274c713c6179e6cb905f90a261226383613ca9565b505061152b6001600655565b612277613ae6565b805f811180156122885750600d5481105b6122c75760405162461bcd60e51b815260206004820152601060248201526f496e76616c6964204c6f616e2049442160801b6044820152606401610a14565b60056122d283610baa565b60058111156122e3576122e3614715565b146123445760405162461bcd60e51b815260206004820152602b60248201527f5032504c656e64696e673a4c6f616e537461747573206d75737420657175616c60448201526a732046494e49534845442160a81b6064820152608401610a14565b5f61234f33846108e5565b90505f81116123a05760405162461bcd60e51b815260206004820152601c60248201527f5032504c656e64696e673a4e6f7468696e6720746f20636c61696d21000000006044820152606401610a14565b5f838152600c60209081526040808320600490925282205490919060028301546123ca9085614dce565b6123d49190614e04565b905080826002015f8282546123e99190614dbb565b909155506123fa9050338685613d34565b61242e7f00000000000000000000000000000000000000000000000000000000000000006001600160a01b03163383613c78565b6040805184815260208101839052339187917ffcdaabbcac647c42f2fbf34f6c5a49ee8a8cd0b64ef5eb50b25441bdb133ddf2910160405180910390a361247485613ca9565b5050505061152b6001600655565b61248a613c4c565b6124935f613d9a565b565b5f61249e613ae6565b60085463ffffffff1689108015906124c9575060085463ffffffff600160c01b909104811690881610155b80156124e9575060085463ffffffff640100000000909104811690871610155b8015612508575060085463ffffffff600160401b909104811690871611155b8015612527575060085463ffffffff600160801b909104811690861610155b8015612546575060085463ffffffff600160a01b909104811690861611155b8015612565575060085463ffffffff600160601b909104811690851610155b6125b15760405162461bcd60e51b815260206004820152601d60248201527f5032504c656e64696e673a496e76616c696420617267756d656e7473210000006044820152606401610a14565b5f896007546125c09190614dce565b90505f6125cf6004600a614ff0565b600a546125e89084906001600160a01b03168888613de9565b6125f89063ffffffff8c16614dce565b6126029190614e04565b9050808a1015801561261357505f81115b61266f5760405162461bcd60e51b815260206004820152602760248201527f5032504c656e64696e673a496e637265617365206d61785f636f6c6c61746572604482015266616c5f6f75742160c81b6064820152608401610a14565b6126a47f00000000000000000000000000000000000000000000000000000000000000006001600160a01b0316333084613b1f565b60408051610100810182528c81526007546020820152600a546001600160a01b031691810191909152606081016126de8a62015180614ed6565b63ffffffff908116825289811660208301528b81166040830152600854600160e01b90041660608201526080016127188862015180614ed6565b6127289063ffffffff1642614de5565b6001600160601b03908116909152600d545f908152600b6020908152604091829020845181559084015160018201558382015160608501518416600160a01b026001600160a01b0390911617600282015560808401516003909101805460a08087015160c088015160e090980151909616600160601b027fffffffffffffffff000000000000000000000000ffffffffffffffffffffffff63ffffffff988916600160401b02167fffffffffffffffff00000000000000000000000000000000ffffffffffffffff9789166401000000000267ffffffffffffffff199094169890951697909717919091179490941691909117939093179092558151908101909152806128323390565b6001600160a01b0390811682525f6020808401829052604080850187905260608086018490526080958601849052600d80548552600c8452828520885189860151908816600160a01b6001600160601b0392831681029190911783558a8601516001808501919091558b8601516002808601919091559b8b0151600394850180546bffffffffffffffffffffffff19169185169190911790559354808952600b8852978690208054948101549b81015493015486519485529684019a909a52968116938201939093529690910484169086015263ffffffff808216948601949094526401000000008104841660a0860152600160401b810490931660c0850152600160601b9092041660e0830152907fe0b5c9ec62aade94ca24b2ac9d81b2037be7d64cb9e5730fcc727bb885ee6037906101000160405180910390a261297a600d54613ca9565b600d8054905f61298983614ef5565b919050559250505061299b6001600655565b98975050505050505050565b6129af613ae6565b815f811180156129c05750600d5481105b6129ff5760405162461bcd60e51b815260206004820152601060248201526f496e76616c6964204c6f616e2049442160801b6044820152606401610a14565b5f8211612a615760405162461bcd60e51b815260206004820152602a60248201527f5032504c656e64696e673a6c6f7473206d7573742062652067726561746572206044820152697468616e207a65726f2160b01b6064820152608401610a14565b5f612a6b84610baa565b5f858152600c60205260409020549091506001600160a01b03161580612aa257506003816005811115612aa057612aa0614715565b145b80612aef57506001816005811115612abc57612abc614715565b148015612aef5750335f908152600e602090815260408083208784529091529020546001600160601b0390811642909116115b612b3b5760405162461bcd60e51b815260206004820152601b60248201527f5032504c656e64696e673a43616e6e6f742077697468647261772100000000006044820152606401610a14565b612b46338585613d34565b5f848152600c60205260409020546001600160a01b0316612be3575f84815260046020526040902054801580612b84575060085463ffffffff168110155b612be15760405162461bcd60e51b815260206004820152602860248201527f5032504c656e64696e673a537570706c792062656c6f77204d494e5f4c4f54536044820152675f414d4f554e542160c01b6064820152608401610a14565b505b612c34335f868152600b6020526040902060010154612c03908690614dce565b6001600160a01b037f0000000000000000000000000000000000000000000000000000000000000000169190613c78565b604051838152339085907fbf8fb3d353686a0832043307d6f9bb618df238d387c7dbc9d0fa2fc7b7cba7269060200160405180910390a35050611f726001600655565b612c7f613c4c565b6008805463ffffffff60c01b1916600160c01b63ffffffff8481168202929092179283905560405192041681527fe03aa8e619c2efc3dcda53a6319b90bd43e44772026248ffaabc2a1535bba8e59060200161125d565b611f72338383613e7b565b612ce9613c4c565b6008805473ffffffff000000000000000000000000000000001916600160801b63ffffffff8481168202929092179283905560405192041681527f2519fd4cf837fefb87387523f27d23369ea51186f29f745cc4677e7c319b3ec09060200161125d565b5f5f84118015612d5e5750600d5484105b1580612d8457506004612d7085610baa565b6005811115612d8157612d81614715565b14155b80612eb057505f848152600c60205260409020546001600160601b03428116600160a01b909204161080612eae57505f848152600b602090815260408083206003810154600290910154600c909352922060010154600160401b90920463ffffffff16916001600160a01b0390911690634bbf415c907f0000000000000000000000000000000000000000000000000000000000000000906004907f0000000000000000000000000000000000000000000000000000000000000000612e498b612f7c565b8a8a6040518863ffffffff1660e01b8152600401612e6d9796959493929190614e5e565b602060405180830381865afa158015612e88573d5f5f3e3d5ffd5b505050506040513d601f19601f82011682018060405250810190612eac9190614eab565b105b155b15612ebc57505f6110ae565b5060016110ae565b612ecc613c4c565b6009805463ffffffff191663ffffffff83169081179091556040519081527f7f6f57fed03f08a846d1dd7051e9d858e85408182510ec902f0d9213079102849060200161125d565b612f1c613c4c565b600880546fffffffff0000000000000000000000001916600160601b63ffffffff8481168202929092179283905560405192041681527f62b518624e16dadca83b89e62d9f351d869e67a350d856935f3a3083aa4cf9489060200161125d565b5f818152600c602052604081208054600160a01b90046001600160601b03161580612fa957506001810154155b15612fb657505f92915050565b5f838152600b602090815260408083206001810154600490935290832054909291612fe091614dce565b83549091505f906001600160601b03428116600160a01b909204161161302657600283015461302190600190600160a01b90046001600160601b0316614ffe565b613059565b6002830154845461304f916001600160601b03600160a01b918290048116929190910416614ffe565b6130599042614ffe565b6001600160601b031690506130716201518082614e04565b61307c906001614e23565b6130899062015180614dce565b90506301e1338061309c6004600a614ff0565b600385015484906130b39063ffffffff1685614dce565b6130bd9190614dce565b6130c79190614e04565b6130d19190614e04565b6130db9083614e23565b9695505050505050565b5f6130ee613ae6565b875f811180156130ff5750600d5481105b61313e5760405162461bcd60e51b815260206004820152601060248201526f496e76616c6964204c6f616e2049442160801b6044820152606401610a14565b851580613149575084155b6131bb5760405162461bcd60e51b815260206004820152603160248201527f5032504c656e64696e6720726571756972653a636f6c6c61746572616c5f696e60448201527f2a636f6c6c61746572616c5f6f75743d300000000000000000000000000000006064820152608401610a14565b5f898152600b60209081526040808320600c835281842060049093529220548a158015906131e957508a8110155b80156131f55750898111155b6132675760405162461bcd60e51b815260206004820152602f60248201527f5032504c656e64696e6720726571756972653a303c6d696e5f6c6f74733c3d7360448201527f7570706c793c3d6d61785f6c6f747300000000000000000000000000000000006064820152608401610a14565b5f6132718d610baa565b9050600181600581111561328757613287614715565b14806132a4575060028160058111156132a2576132a2614715565b145b6132f05760405162461bcd60e51b815260206004820152601960248201527f5032504c656e64696e673a43616e6e6f7420626f72726f7721000000000000006044820152606401610a14565b82546001600160a01b0316331480613310575082546001600160a01b0316155b61335c5760405162461bcd60e51b815260206004820152601f60248201527f5032504c656e64696e673a43616c6c6572206973206e6f74206f776e657221006044820152606401610a14565b81845582546001600160a01b03191633178355600284015461338f906001600160601b03600160a01b9091041642614de5565b83546001600160601b0391909116600160a01b026001600160a01b039091161783555050600182015482545f916133c591614dce565b60028401549091505f906133e59083906001600160a01b03168a8a613de9565b90508815613445578254613427906001600160a01b037f000000000000000000000000000000000000000000000000000000000000000081169116308c613b1f565b88836001015f82825461343a9190614e23565b9091555061349d9050565b891561349d578254613484906001600160a01b037f0000000000000000000000000000000000000000000000000000000000000000811691168c613c78565b89836001015f8282546134979190614dbb565b90915550505b6134a96004600a614ff0565b60038501546134c7908390640100000000900463ffffffff16614dce565b6134d19190614e04565b836001015410156135245760405162461bcd60e51b815260206004820152601f60248201527f5032504c656e64696e673a496e63726561736520636f6c6c61746572616c21006044820152606401610a14565b5f6135316004600a614ff0565b60095461354590859063ffffffff16614dce565b61354f9190614e04565b600954909150613594906001600160a01b037f000000000000000000000000000000000000000000000000000000000000000081169164010000000090041683613c78565b83546135ad906001600160a01b0316612c038386614dbb565b84546040519081528e907f044ec4d36b0d76019c4b5aec2a216dbca5ad6c6d671940c8fbbcd23cfe4e804b9060200160405180910390a26135ed8e613ca9565b5050915493505050506136006001600655565b979650505050505050565b613613613ae6565b825f811180156136245750600d5481105b6136635760405162461bcd60e51b815260206004820152601060248201526f496e76616c6964204c6f616e2049442160801b6044820152606401610a14565b600461366e85610baa565b600581111561367f5761367f614715565b146136de5760405162461bcd60e51b815260206004820152602960248201527f5032504c656e64696e673a4c6f616e537461747573206d75737420657175616c60448201526873204143544956452160b81b6064820152608401610a14565b5f848152600b60209081526040808320600c90925290912080546001600160601b03428116600160a01b9092041610806137f85750600382015460028301546001830154600160401b90920463ffffffff16916001600160a01b039091169063b4e37cf9907f0000000000000000000000000000000000000000000000000000000000000000906004907f00000000000000000000000000000000000000000000000000000000000000006137928d612f7c565b8c8c6040518863ffffffff1660e01b81526004016137b69796959493929190614e5e565b6020604051808303815f875af11580156137d2573d5f5f3e3d5ffd5b505050506040513d601f19601f820116820180604052508101906137f69190614eab565b105b6138445760405162461bcd60e51b815260206004820152601c60248201527f5032504c656e64696e673a43616e6e6f74204c697175696461746521000000006044820152606401610a14565b5f61384f33886108e5565b90505f81116138a05760405162461bcd60e51b815260206004820152601c60248201527f5032504c656e64696e673a4e6f7468696e6720746f20636c61696d21000000006044820152606401610a14565b5f8781526004602052604081205460018401546138bd9084614dce565b6138c79190614e04565b905080836001015f8282546138dc9190614dbb565b909155506138ed9050338984613d34565b6139217f00000000000000000000000000000000000000000000000000000000000000006001600160a01b03163383613c78565b604080518381526020810183905233918a917f1d444c28894712984a4fe069711274d086859136f702d387bda2f1cd90d66df8910160405180910390a361396788613ca9565b50505050506139766001600655565b505050565b613983613c4c565b600880546bffffffff00000000000000001916600160401b63ffffffff8481168202929092179283905560405192041681527fa33c859c6a01d7d71b062ae88c11d026efd55b26b354dfc8844e5a74b8bf069b9060200161125d565b6139e7613c4c565b6008805463ffffffff191663ffffffff83169081179091556040519081527f8b8bfa8b607aee8f950b269ee81087cd304216fd813ac4f3aead05d7072a3a139060200161125d565b336001600160a01b0386168114801590613a6e57506001600160a01b038087165f9081526002602090815260408083209385168352929052205460ff16155b15613a9f5760405163711bec9160e11b81526001600160a01b03808316600483015287166024820152604401610a14565b6111f88686868686613f0f565b613ab4613c4c565b6001600160a01b038116613add57604051631e4fbdf760e01b81525f6004820152602401610a14565b61152b81613d9a565b600260065403613b0957604051633ee5aeb560e01b815260040160405180910390fd5b6002600655565b5f8282188284100282186110ae565b6040516001600160a01b038481166024830152838116604483015260648201839052613b869186918216906323b872dd906084015b604051602081830303815290604052915060e01b6020820180516001600160e01b038381831617835250505050613f9b565b50505050565b6001600160a01b038416613bb557604051632bfa23e760e11b81525f6004820152602401610a14565b604080516001808252602082018690528183019081526060820185905260808201909252906111f85f87848487614007565b6001600160a01b038416613c1057604051632bfa23e760e11b81525f6004820152602401610a14565b6001600160a01b038516613c3857604051626a0d4560e21b81525f6004820152602401610a14565b613c458585858585614007565b5050505050565b5f546001600160a01b031633146124935760405163118cdaa760e01b8152336004820152602401610a14565b6040516001600160a01b0383811660248301526044820183905261397691859182169063a9059cbb90606401613b54565b5f818152600c602090815260409182902080546001820154600283015460039093015485516001600160601b03600160a01b85048116825295810192909252948101929092529190921660608301526001600160a01b03169082907f289938dfd99639eb7b7174b9259eaa5a4b3a1d69d143b4d03d58b86ac502517d9060800160405180910390a350565b6001600160a01b038316613d5c57604051626a0d4560e21b81525f6004820152602401610a14565b604080516001808252602082018590528183019081526060820184905260a082019092525f60808201818152919291613c4591879185908590614007565b5f80546001600160a01b038381166001600160a01b0319831681178455604051919092169283917f8be0079c531659141344cd1fd0a4f28419497f9722a3daafe3b4186f6b6457e09190a35050565b60405163c5801aa360e01b81525f906001600160a01b0385169063c5801aa390613e5f907f0000000000000000000000000000000000000000000000000000000000000000907f0000000000000000000000000000000000000000000000000000000000000000908a908990899060040161501d565b6020604051808303815f875af1158015611735573d5f5f3e3d5ffd5b6001600160a01b038216613ea35760405162ced3e160e81b81525f6004820152602401610a14565b6001600160a01b038381165f81815260026020908152604080832094871680845294825291829020805460ff191686151590811790915591519182527f17307eab39ab6107e8899845ad3d59bd9653f200f220920489ca2b5937696c31910160405180910390a3505050565b6001600160a01b038416613f3857604051632bfa23e760e11b81525f6004820152602401610a14565b6001600160a01b038516613f6057604051626a0d4560e21b81525f6004820152602401610a14565b60408051600180825260208201869052818301908152606082018590526080820190925290613f928787848487614007565b50505050505050565b5f5f60205f8451602086015f885af180613fba576040513d5f823e3d81fd5b50505f513d91508115613fd1578060011415613fde565b6001600160a01b0384163b155b15613b8657604051635274afe760e01b81526001600160a01b0385166004820152602401610a14565b6140138585858561405a565b6001600160a01b03841615613c45578251339060010361404c5760208481015190840151614045838989858589614141565b50506111f8565b6111f8818787878787614262565b61406684848484614349565b6001600160a01b0384166140e3575f805b83518110156140ca5760208181028481018201519086018201515f9081526004909252604082208054919283926140af908490614e23565b909155506140bf90508184614e23565b925050600101614077565b508060055f8282546140dc9190614e23565b9091555050505b6001600160a01b038316613b86575f805b83518110156141305760208181028481018201519086018201515f908152600490925260409091208054829003905591909101906001016140f4565b506005805491909103905550505050565b6001600160a01b0384163b156111f85760405163f23a6e6160e01b81526001600160a01b0385169063f23a6e6190614185908990899088908890889060040161504e565b6020604051808303815f875af19250505080156141bf575060408051601f3d908101601f191682019092526141bc9181019061508a565b60015b614226573d8080156141ec576040519150601f19603f3d011682016040523d82523d5f602084013e6141f1565b606091505b5080515f0361421e57604051632bfa23e760e11b81526001600160a01b0386166004820152602401610a14565b805181602001fd5b6001600160e01b0319811663f23a6e6160e01b14613f9257604051632bfa23e760e11b81526001600160a01b0386166004820152602401610a14565b6001600160a01b0384163b156111f85760405163bc197c8160e01b81526001600160a01b0385169063bc197c81906142a690899089908890889088906004016150a5565b6020604051808303815f875af19250505080156142e0575060408051601f3d908101601f191682019092526142dd9181019061508a565b60015b61430d573d8080156141ec576040519150601f19603f3d011682016040523d82523d5f602084013e6141f1565b6001600160e01b0319811663bc197c8160e01b14613f9257604051632bfa23e760e11b81526001600160a01b0386166004820152602401610a14565b80518251146143785781518151604051635b05999160e01b815260048101929092526024820152604401610a14565b335f5b8351811015614480576020818102858101820151908501909101516001600160a01b03881615614430575f8281526001602090815260408083206001600160a01b038c16845290915290205481811015614408576040516303dee4c560e01b81526001600160a01b038a166004820152602481018290526044810183905260648101849052608401610a14565b5f8381526001602090815260408083206001600160a01b038d16845290915290209082900390555b6001600160a01b03871615614476575f8281526001602090815260408083206001600160a01b038b16845290915281208054839290614470908490614e23565b90915550505b505060010161437b565b5082516001036145005760208301515f906020840151909150856001600160a01b0316876001600160a01b0316846001600160a01b03167fc3d58168c5ae7397731d063d5bbf3d657854427343f4c083240f7aacaa2d0f6285856040516144f1929190918252602082015260400190565b60405180910390a45050613c45565b836001600160a01b0316856001600160a01b0316826001600160a01b03167f4a39dc06d4c0dbc64b70af90fd698a233a518aa5d07e595d983b8c0526c8f7fb868660405161454f9291906150fb565b60405180910390a45050505050565b80356001600160a01b0381168114614574575f5ffd5b919050565b5f5f6040838503121561458a575f5ffd5b6145938361455e565b946020939093013593505050565b6001600160e01b03198116811461152b575f5ffd5b5f602082840312156145c6575f5ffd5b81356110ae816145a1565b5f602082840312156145e1575f5ffd5b5035919050565b5f6101c08201905084518252602085015160208301526001600160a01b0360408601511660408301526001600160601b03606086015116606083015263ffffffff608086015116608083015260a085015161464b60a084018263ffffffff169052565b5060c085015161466360c084018263ffffffff169052565b5060e085015161467e60e08401826001600160601b03169052565b5083516001600160a01b031661010083015260208401516001600160601b03908116610120840152604085015161014084015260608501516101608401526080909401519093166101808201526101a00152919050565b5f81518084528060208401602086015e5f602082860101526020601f19601f83011685010191505092915050565b602081525f6110ae60208301846146d5565b634e487b7160e01b5f52602160045260245ffd5b602081016006831061474957634e487b7160e01b5f52602160045260245ffd5b91905290565b5f5f5f60608486031215614761575f5ffd5b505081359360208301359350604090920135919050565b5f5f60408385031215614789575f5ffd5b50508035926020909101359150565b634e487b7160e01b5f52604160045260245ffd5b604051601f8201601f1916810167ffffffffffffffff811182821017156147d5576147d5614798565b604052919050565b5f67ffffffffffffffff8211156147f6576147f6614798565b5060051b60200190565b5f82601f83011261480f575f5ffd5b813561482261481d826147dd565b6147ac565b8082825260208201915060208360051b860101925085831115614843575f5ffd5b602085015b83811015614860578035835260209283019201614848565b5095945050505050565b5f82601f830112614879575f5ffd5b813567ffffffffffffffff81111561489357614893614798565b6148a6601f8201601f19166020016147ac565b8181528460208386010111156148ba575f5ffd5b816020850160208301375f918101602001919091529392505050565b5f5f5f5f5f60a086880312156148ea575f5ffd5b6148f38661455e565b94506149016020870161455e565b9350604086013567ffffffffffffffff81111561491c575f5ffd5b61492888828901614800565b935050606086013567ffffffffffffffff811115614944575f5ffd5b61495088828901614800565b925050608086013567ffffffffffffffff81111561496c575f5ffd5b6149788882890161486a565b9150509295509295909350565b803563ffffffff81168114614574575f5ffd5b5f602082840312156149a8575f5ffd5b6110ae82614985565b5f602082840312156149c1575f5ffd5b6110ae8261455e565b5f5f83601f8401126149da575f5ffd5b50813567ffffffffffffffff8111156149f1575f5ffd5b602083019150836020828501011115614a08575f5ffd5b9250929050565b5f5f5f60408486031215614a21575f5ffd5b83359250602084013567ffffffffffffffff811115614a3e575f5ffd5b614a4a868287016149ca565b9497909650939450505050565b5f5f60408385031215614a68575f5ffd5b823567ffffffffffffffff811115614a7e575f5ffd5b8301601f81018513614a8e575f5ffd5b8035614a9c61481d826147dd565b8082825260208201915060208360051b850101925087831115614abd575f5ffd5b6020840193505b82841015614ae657614ad58461455e565b825260209384019390910190614ac4565b9450505050602083013567ffffffffffffffff811115614b04575f5ffd5b614b1085828601614800565b9150509250929050565b5f8151808452602084019350602083015f5b82811015614b4a578151865260209586019590910190600101614b2c565b5093949350505050565b602081525f6110ae6020830184614b1a565b5f5f5f5f60808587031215614b79575f5ffd5b84359350614b8960208601614985565b9250614b9760408601614985565b9150614ba560608601614985565b905092959194509250565b5f5f5f5f5f5f5f5f60e0898b031215614bc7575f5ffd5b8835975060208901359650614bde60408a01614985565b9550614bec60608a01614985565b9450614bfa60808a01614985565b9350614c0860a08a01614985565b925060c089013567ffffffffffffffff811115614c23575f5ffd5b614c2f8b828c016149ca565b999c989b5096995094979396929594505050565b5f5f60408385031215614c54575f5ffd5b614c5d8361455e565b915060208301358015158114614c71575f5ffd5b809150509250929050565b5f5f5f5f5f5f5f60c0888a031215614c92575f5ffd5b873596506020880135955060408801359450606088013593506080880135925060a088013567ffffffffffffffff811115614ccb575f5ffd5b614cd78a828b016149ca565b989b979a50959850939692959293505050565b5f5f60408385031215614cfb575f5ffd5b614d048361455e565b9150614d126020840161455e565b90509250929050565b5f5f5f5f5f60a08688031215614d2f575f5ffd5b614d388661455e565b9450614d466020870161455e565b93506040860135925060608601359150608086013567ffffffffffffffff81111561496c575f5ffd5b600181811c90821680614d8357607f821691505b602082108103614da157634e487b7160e01b5f52602260045260245ffd5b50919050565b634e487b7160e01b5f52601160045260245ffd5b8181038181111561090857610908614da7565b808202811582820484141761090857610908614da7565b6001600160601b03818116838216019081111561090857610908614da7565b5f82614e1e57634e487b7160e01b5f52601260045260245ffd5b500490565b8082018082111561090857610908614da7565b81835281816020850137505f828201602090810191909152601f909101601f19169091010190565b6001600160a01b038816815260ff8716602082015285604082015260ff8516606082015283608082015260c060a08201525f614e9e60c083018486614e36565b9998505050505050505050565b5f60208284031215614ebb575f5ffd5b5051919050565b634e487b7160e01b5f52603260045260245ffd5b63ffffffff818116838216029081169081811461117457611174614da7565b5f60018201614f0657614f06614da7565b5060010190565b6001815b6001841115614f4857808504811115614f2c57614f2c614da7565b6001841615614f3a57908102905b60019390931c928002614f11565b935093915050565b5f82614f5e57506001610908565b81614f6a57505f610908565b8160018114614f805760028114614f8a57614fa6565b6001915050610908565b60ff841115614f9b57614f9b614da7565b50506001821b610908565b5060208310610133831016604e8410600b8410161715614fc9575081810a610908565b614fd55f198484614f0d565b805f1904821115614fe857614fe8614da7565b029392505050565b5f6110ae60ff841683614f50565b6001600160601b03828116828216039081111561090857610908614da7565b6001600160a01b038616815260ff85166020820152836040820152608060608201525f613600608083018486614e36565b6001600160a01b03861681526001600160a01b038516602082015283604082015282606082015260a060808201525f61360060a08301846146d5565b5f6020828403121561509a575f5ffd5b81516110ae816145a1565b6001600160a01b03861681526001600160a01b038516602082015260a060408201525f6150d560a0830186614b1a565b82810360608401526150e78186614b1a565b9050828103608084015261299b81856146d5565b604081525f61510d6040830185614b1a565b82810360208401526117598185614b1a56fea2646970667358221220187cafcde90bee4f568a98ec19058bde0d4625ee8d08e4a12473551ecd4f7cf664736f6c634300081e0033",
			"opcodes": "PUSH1 0xE0 PUSH1 0x40 MSTORE PUSH1 0xA PUSH1 0x7 SSTORE PUSH30 0x2CEC000032C8000186A00000006400000001000002DA000000070000000A PUSH1 0x8 SSTORE PUSH1 0x9 DUP1 SLOAD PUSH4 0xFFFFFFFF NOT AND PUSH1 0x96 OR SWAP1 SSTORE PUSH1 0x1 PUSH1 0xD SSTORE CALLVALUE DUP1 ISZERO PUSH2 0x4B JUMPI PUSH0 PUSH0 REVERT JUMPDEST POP PUSH1 0x40 MLOAD PUSH2 0x5804 CODESIZE SUB DUP1 PUSH2 0x5804 DUP4 CODECOPY DUP2 ADD PUSH1 0x40 DUP2 SWAP1 MSTORE PUSH2 0x6A SWAP2 PUSH2 0x27D JUMP JUMPDEST DUP1 CALLER DUP1 PUSH2 0x90 JUMPI PUSH1 0x40 MLOAD PUSH4 0x1E4FBDF7 PUSH1 0xE0 SHL DUP2 MSTORE PUSH0 PUSH1 0x4 DUP3 ADD MSTORE PUSH1 0x24 ADD PUSH1 0x40 MLOAD DUP1 SWAP2 SUB SWAP1 REVERT JUMPDEST PUSH2 0x99 DUP2 PUSH2 0x1EF JUMP JUMPDEST POP PUSH2 0xA3 DUP2 PUSH2 0x23E JUMP JUMPDEST POP PUSH1 0x1 PUSH1 0x6 SSTORE PUSH1 0xA DUP1 SLOAD PUSH1 0x1 PUSH1 0x1 PUSH1 0xA0 SHL SUB NOT AND PUSH1 0x1 PUSH1 0x1 PUSH1 0xA0 SHL SUB DUP8 DUP2 AND SWAP2 SWAP1 SWAP2 OR SWAP1 SWAP2 SSTORE DUP5 AND PUSH1 0x80 DUP2 SWAP1 MSTORE PUSH1 0x40 DUP1 MLOAD PUSH4 0x313CE567 PUSH1 0xE0 SHL DUP2 MSTORE SWAP1 MLOAD PUSH4 0x313CE567 SWAP2 PUSH1 0x4 DUP1 DUP3 ADD SWAP3 PUSH1 0x20 SWAP3 SWAP1 SWAP2 SWAP1 DUP3 SWAP1 SUB ADD DUP2 DUP7 GAS STATICCALL ISZERO DUP1 ISZERO PUSH2 0x109 JUMPI RETURNDATASIZE PUSH0 PUSH0 RETURNDATACOPY RETURNDATASIZE PUSH0 REVERT JUMPDEST POP POP POP POP PUSH1 0x40 MLOAD RETURNDATASIZE PUSH1 0x1F NOT PUSH1 0x1F DUP3 ADD AND DUP3 ADD DUP1 PUSH1 0x40 MSTORE POP DUP2 ADD SWAP1 PUSH2 0x12D SWAP2 SWAP1 PUSH2 0x36F JUMP JUMPDEST PUSH1 0xFF AND PUSH1 0xA0 MSTORE PUSH1 0x1 PUSH1 0x1 PUSH1 0xA0 SHL SUB DUP4 AND PUSH1 0xC0 DUP2 SWAP1 MSTORE PUSH1 0x40 DUP1 MLOAD PUSH4 0x313CE567 PUSH1 0xE0 SHL DUP2 MSTORE SWAP1 MLOAD PUSH4 0x313CE567 SWAP2 PUSH1 0x4 DUP1 DUP3 ADD SWAP3 PUSH1 0x20 SWAP3 SWAP1 SWAP2 SWAP1 DUP3 SWAP1 SUB ADD DUP2 DUP7 GAS STATICCALL ISZERO DUP1 ISZERO PUSH2 0x17B JUMPI RETURNDATASIZE PUSH0 PUSH0 RETURNDATACOPY RETURNDATASIZE PUSH0 REVERT JUMPDEST POP POP POP POP PUSH1 0x40 MLOAD RETURNDATASIZE PUSH1 0x1F NOT PUSH1 0x1F DUP3 ADD AND DUP3 ADD DUP1 PUSH1 0x40 MSTORE POP DUP2 ADD SWAP1 PUSH2 0x19F SWAP2 SWAP1 PUSH2 0x36F JUMP JUMPDEST PUSH2 0x1AA SWAP1 PUSH1 0xA PUSH2 0x48F JUMP JUMPDEST PUSH1 0x7 SLOAD PUSH2 0x1B7 SWAP2 SWAP1 PUSH2 0x49D JUMP JUMPDEST PUSH1 0x7 SSTORE POP PUSH1 0x9 DUP1 SLOAD PUSH1 0x1 PUSH1 0x1 PUSH1 0xA0 SHL SUB SWAP1 SWAP3 AND PUSH5 0x100000000 MUL PUSH1 0x1 PUSH1 0x20 SHL PUSH1 0x1 PUSH1 0xC0 SHL SUB NOT SWAP1 SWAP3 AND SWAP2 SWAP1 SWAP2 OR SWAP1 SSTORE POP PUSH2 0x5F2 SWAP2 POP POP JUMP JUMPDEST PUSH0 DUP1 SLOAD PUSH1 0x1 PUSH1 0x1 PUSH1 0xA0 SHL SUB DUP4 DUP2 AND PUSH1 0x1 PUSH1 0x1 PUSH1 0xA0 SHL SUB NOT DUP4 AND DUP2 OR DUP5 SSTORE PUSH1 0x40 MLOAD SWAP2 SWAP1 SWAP3 AND SWAP3 DUP4 SWAP2 PUSH32 0x8BE0079C531659141344CD1FD0A4F28419497F9722A3DAAFE3B4186F6B6457E0 SWAP2 SWAP1 LOG3 POP POP JUMP JUMPDEST PUSH1 0x3 PUSH2 0x24A DUP3 DUP3 PUSH2 0x538 JUMP JUMPDEST POP POP JUMP JUMPDEST DUP1 MLOAD PUSH1 0x1 PUSH1 0x1 PUSH1 0xA0 SHL SUB DUP2 AND DUP2 EQ PUSH2 0x264 JUMPI PUSH0 PUSH0 REVERT JUMPDEST SWAP2 SWAP1 POP JUMP JUMPDEST PUSH4 0x4E487B71 PUSH1 0xE0 SHL PUSH0 MSTORE PUSH1 0x41 PUSH1 0x4 MSTORE PUSH1 0x24 PUSH0 REVERT JUMPDEST PUSH0 PUSH0 PUSH0 PUSH0 PUSH0 PUSH1 0xA0 DUP7 DUP9 SUB SLT ISZERO PUSH2 0x291 JUMPI PUSH0 PUSH0 REVERT JUMPDEST PUSH2 0x29A DUP7 PUSH2 0x24E JUMP JUMPDEST SWAP5 POP PUSH2 0x2A8 PUSH1 0x20 DUP8 ADD PUSH2 0x24E JUMP JUMPDEST SWAP4 POP PUSH2 0x2B6 PUSH1 0x40 DUP8 ADD PUSH2 0x24E JUMP JUMPDEST SWAP3 POP PUSH2 0x2C4 PUSH1 0x60 DUP8 ADD PUSH2 0x24E JUMP JUMPDEST PUSH1 0x80 DUP8 ADD MLOAD SWAP1 SWAP3 POP PUSH1 0x1 PUSH1 0x1 PUSH1 0x40 SHL SUB DUP2 GT ISZERO PUSH2 0x2DF JUMPI PUSH0 PUSH0 REVERT JUMPDEST DUP7 ADD PUSH1 0x1F DUP2 ADD DUP9 SGT PUSH2 0x2EF JUMPI PUSH0 PUSH0 REVERT JUMPDEST DUP1 MLOAD PUSH1 0x1 PUSH1 0x1 PUSH1 0x40 SHL SUB DUP2 GT ISZERO PUSH2 0x308 JUMPI PUSH2 0x308 PUSH2 0x269 JUMP JUMPDEST PUSH1 0x40 MLOAD PUSH1 0x1F DUP3 ADD PUSH1 0x1F NOT SWAP1 DUP2 AND PUSH1 0x3F ADD AND DUP2 ADD PUSH1 0x1 PUSH1 0x1 PUSH1 0x40 SHL SUB DUP2 GT DUP3 DUP3 LT OR ISZERO PUSH2 0x336 JUMPI PUSH2 0x336 PUSH2 0x269 JUMP JUMPDEST PUSH1 0x40 MSTORE DUP2 DUP2 MSTORE DUP3 DUP3 ADD PUSH1 0x20 ADD DUP11 LT ISZERO PUSH2 0x34D JUMPI PUSH0 PUSH0 REVERT JUMPDEST DUP2 PUSH1 0x20 DUP5 ADD PUSH1 0x20 DUP4 ADD MCOPY PUSH0 PUSH1 0x20 DUP4 DUP4 ADD ADD MSTORE DUP1 SWAP4 POP POP POP POP SWAP3 SWAP6 POP SWAP3 SWAP6 SWAP1 SWAP4 POP JUMP JUMPDEST PUSH0 PUSH1 0x20 DUP3 DUP5 SUB SLT ISZERO PUSH2 0x37F JUMPI PUSH0 PUSH0 REVERT JUMPDEST DUP2 MLOAD PUSH1 0xFF DUP2 AND DUP2 EQ PUSH2 0x38F JUMPI PUSH0 PUSH0 REVERT JUMPDEST SWAP4 SWAP3 POP POP POP JUMP JUMPDEST PUSH4 0x4E487B71 PUSH1 0xE0 SHL PUSH0 MSTORE PUSH1 0x11 PUSH1 0x4 MSTORE PUSH1 0x24 PUSH0 REVERT JUMPDEST PUSH1 0x1 DUP2 JUMPDEST PUSH1 0x1 DUP5 GT ISZERO PUSH2 0x3E5 JUMPI DUP1 DUP6 DIV DUP2 GT ISZERO PUSH2 0x3C9 JUMPI PUSH2 0x3C9 PUSH2 0x396 JUMP JUMPDEST PUSH1 0x1 DUP5 AND ISZERO PUSH2 0x3D7 JUMPI SWAP1 DUP2 MUL SWAP1 JUMPDEST PUSH1 0x1 SWAP4 SWAP1 SWAP4 SHR SWAP3 DUP1 MUL PUSH2 0x3AE JUMP JUMPDEST SWAP4 POP SWAP4 SWAP2 POP POP JUMP JUMPDEST PUSH0 DUP3 PUSH2 0x3FB JUMPI POP PUSH1 0x1 PUSH2 0x489 JUMP JUMPDEST DUP2 PUSH2 0x407 JUMPI POP PUSH0 PUSH2 0x489 JUMP JUMPDEST DUP2 PUSH1 0x1 DUP2 EQ PUSH2 0x41D JUMPI PUSH1 0x2 DUP2 EQ PUSH2 0x427 JUMPI PUSH2 0x443 JUMP JUMPDEST PUSH1 0x1 SWAP2 POP POP PUSH2 0x489 JUMP JUMPDEST PUSH1 0xFF DUP5 GT ISZERO PUSH2 0x438 JUMPI PUSH2 0x438 PUSH2 0x396 JUMP JUMPDEST POP POP PUSH1 0x1 DUP3 SHL PUSH2 0x489 JUMP JUMPDEST POP PUSH1 0x20 DUP4 LT PUSH2 0x133 DUP4 LT AND PUSH1 0x4E DUP5 LT PUSH1 0xB DUP5 LT AND OR ISZERO PUSH2 0x466 JUMPI POP DUP2 DUP2 EXP PUSH2 0x489 JUMP JUMPDEST PUSH2 0x472 PUSH0 NOT DUP5 DUP5 PUSH2 0x3AA JUMP JUMPDEST DUP1 PUSH0 NOT DIV DUP3 GT ISZERO PUSH2 0x485 JUMPI PUSH2 0x485 PUSH2 0x396 JUMP JUMPDEST MUL SWAP1 POP JUMPDEST SWAP3 SWAP2 POP POP JUMP JUMPDEST PUSH0 PUSH2 0x38F PUSH1 0xFF DUP5 AND DUP4 PUSH2 0x3ED JUMP JUMPDEST DUP1 DUP3 MUL DUP2 ISZERO DUP3 DUP3 DIV DUP5 EQ OR PUSH2 0x489 JUMPI PUSH2 0x489 PUSH2 0x396 JUMP JUMPDEST PUSH1 0x1 DUP2 DUP2 SHR SWAP1 DUP3 AND DUP1 PUSH2 0x4C8 JUMPI PUSH1 0x7F DUP3 AND SWAP2 POP JUMPDEST PUSH1 0x20 DUP3 LT DUP2 SUB PUSH2 0x4E6 JUMPI PUSH4 0x4E487B71 PUSH1 0xE0 SHL PUSH0 MSTORE PUSH1 0x22 PUSH1 0x4 MSTORE PUSH1 0x24 PUSH0 REVERT JUMPDEST POP SWAP2 SWAP1 POP JUMP JUMPDEST PUSH1 0x1F DUP3 GT ISZERO PUSH2 0x533 JUMPI DUP1 PUSH0 MSTORE PUSH1 0x20 PUSH0 KECCAK256 PUSH1 0x1F DUP5 ADD PUSH1 0x5 SHR DUP2 ADD PUSH1 0x20 DUP6 LT ISZERO PUSH2 0x511 JUMPI POP DUP1 JUMPDEST PUSH1 0x1F DUP5 ADD PUSH1 0x5 SHR DUP3 ADD SWAP2 POP JUMPDEST DUP2 DUP2 LT ISZERO PUSH2 0x530 JUMPI PUSH0 DUP2 SSTORE PUSH1 0x1 ADD PUSH2 0x51D JUMP JUMPDEST POP POP JUMPDEST POP POP POP JUMP JUMPDEST DUP2 MLOAD PUSH1 0x1 PUSH1 0x1 PUSH1 0x40 SHL SUB DUP2 GT ISZERO PUSH2 0x551 JUMPI PUSH2 0x551 PUSH2 0x269 JUMP JUMPDEST PUSH2 0x565 DUP2 PUSH2 0x55F DUP5 SLOAD PUSH2 0x4B4 JUMP JUMPDEST DUP5 PUSH2 0x4EC JUMP JUMPDEST PUSH1 0x20 PUSH1 0x1F DUP3 GT PUSH1 0x1 DUP2 EQ PUSH2 0x597 JUMPI PUSH0 DUP4 ISZERO PUSH2 0x580 JUMPI POP DUP5 DUP3 ADD MLOAD JUMPDEST PUSH0 NOT PUSH1 0x3 DUP6 SWAP1 SHL SHR NOT AND PUSH1 0x1 DUP5 SWAP1 SHL OR DUP5 SSTORE PUSH2 0x530 JUMP JUMPDEST PUSH0 DUP5 DUP2 MSTORE PUSH1 0x20 DUP2 KECCAK256 PUSH1 0x1F NOT DUP6 AND SWAP2 JUMPDEST DUP3 DUP2 LT ISZERO PUSH2 0x5C6 JUMPI DUP8 DUP6 ADD MLOAD DUP3 SSTORE PUSH1 0x20 SWAP5 DUP6 ADD SWAP5 PUSH1 0x1 SWAP1 SWAP3 ADD SWAP2 ADD PUSH2 0x5A6 JUMP JUMPDEST POP DUP5 DUP3 LT ISZERO PUSH2 0x5E3 JUMPI DUP7 DUP5 ADD MLOAD PUSH0 NOT PUSH1 0x3 DUP8 SWAP1 SHL PUSH1 0xF8 AND SHR NOT AND DUP2 SSTORE JUMPDEST POP POP POP POP PUSH1 0x1 SWAP1 DUP2 SHL ADD SWAP1 SSTORE POP JUMP JUMPDEST PUSH1 0x80 MLOAD PUSH1 0xA0 MLOAD PUSH1 0xC0 MLOAD PUSH2 0x5155 PUSH2 0x6AF PUSH0 CODECOPY PUSH0 DUP2 DUP2 PUSH2 0x6BB ADD MSTORE DUP2 DUP2 PUSH2 0xEDC ADD MSTORE DUP2 DUP2 PUSH2 0x1459 ADD MSTORE DUP2 DUP2 PUSH2 0x23FF ADD MSTORE DUP2 DUP2 PUSH2 0x2C0D ADD MSTORE PUSH2 0x3563 ADD MSTORE PUSH0 DUP2 DUP2 PUSH2 0x16CE ADD MSTORE DUP2 DUP2 PUSH2 0x2E21 ADD MSTORE DUP2 DUP2 PUSH2 0x376A ADD MSTORE PUSH2 0x3E31 ADD MSTORE PUSH0 DUP2 DUP2 PUSH2 0x4CF ADD MSTORE DUP2 DUP2 PUSH2 0x14B0 ADD MSTORE DUP2 DUP2 PUSH2 0x16A9 ADD MSTORE DUP2 DUP2 PUSH2 0x1EE6 ADD MSTORE DUP2 DUP2 PUSH2 0x2107 ADD MSTORE DUP2 DUP2 PUSH2 0x2179 ADD MSTORE DUP2 DUP2 PUSH2 0x21D4 ADD MSTORE DUP2 DUP2 PUSH2 0x2674 ADD MSTORE DUP2 DUP2 PUSH2 0x2DFC ADD MSTORE DUP2 DUP2 PUSH2 0x33FD ADD MSTORE DUP2 DUP2 PUSH2 0x345B ADD MSTORE DUP2 DUP2 PUSH2 0x3745 ADD MSTORE DUP2 DUP2 PUSH2 0x38F2 ADD MSTORE PUSH2 0x3E0F ADD MSTORE PUSH2 0x5155 PUSH0 RETURN INVALID PUSH1 0x80 PUSH1 0x40 MSTORE CALLVALUE DUP1 ISZERO PUSH2 0xF JUMPI PUSH0 PUSH0 REVERT JUMPDEST POP PUSH1 0x4 CALLDATASIZE LT PUSH2 0x387 JUMPI PUSH0 CALLDATALOAD PUSH1 0xE0 SHR DUP1 PUSH4 0x6E5F4A89 GT PUSH2 0x1DF JUMPI DUP1 PUSH4 0xACBB65AF GT PUSH2 0x109 JUMPI DUP1 PUSH4 0xE3F1AA94 GT PUSH2 0xA9 JUMPI DUP1 PUSH4 0xEF921826 GT PUSH2 0x79 JUMPI DUP1 PUSH4 0xEF921826 EQ PUSH2 0x899 JUMPI DUP1 PUSH4 0xF08A5381 EQ PUSH2 0x8AC JUMPI DUP1 PUSH4 0xF242432A EQ PUSH2 0x8BF JUMPI DUP1 PUSH4 0xF2FDE38B EQ PUSH2 0x8D2 JUMPI PUSH0 PUSH0 REVERT JUMPDEST DUP1 PUSH4 0xE3F1AA94 EQ PUSH2 0x821 JUMPI DUP1 PUSH4 0xE444F545 EQ PUSH2 0x834 JUMPI DUP1 PUSH4 0xE51D375A EQ PUSH2 0x847 JUMPI DUP1 PUSH4 0xE985E9C5 EQ PUSH2 0x85E JUMPI PUSH0 PUSH0 REVERT JUMPDEST DUP1 PUSH4 0xBD85B039 GT PUSH2 0xE4 JUMPI DUP1 PUSH4 0xBD85B039 EQ PUSH2 0x7C1 JUMPI DUP1 PUSH4 0xC5B3A376 EQ PUSH2 0x7E0 JUMPI DUP1 PUSH4 0xC5F16166 EQ PUSH2 0x7F3 JUMPI DUP1 PUSH4 0xC9DD1F3C EQ PUSH2 0x80E JUMPI PUSH0 PUSH0 REVERT JUMPDEST DUP1 PUSH4 0xACBB65AF EQ PUSH2 0x782 JUMPI DUP1 PUSH4 0xB1724B46 EQ PUSH2 0x792 JUMPI DUP1 PUSH4 0xB6A6D177 EQ PUSH2 0x7A9 JUMPI PUSH0 PUSH0 REVERT JUMPDEST DUP1 PUSH4 0x950D91E9 GT PUSH2 0x17F JUMPI DUP1 PUSH4 0xA45234D0 GT PUSH2 0x14F JUMPI DUP1 PUSH4 0xA45234D0 EQ PUSH2 0x732 JUMPI DUP1 PUSH4 0xA877E9CE EQ PUSH2 0x745 JUMPI DUP1 PUSH4 0xA8A71E09 EQ PUSH2 0x758 JUMPI DUP1 PUSH4 0xAA9F7628 EQ PUSH2 0x76F JUMPI PUSH0 PUSH0 REVERT JUMPDEST DUP1 PUSH4 0x950D91E9 EQ PUSH2 0x6ED JUMPI DUP1 PUSH4 0x9D100875 EQ PUSH2 0x6F5 JUMPI DUP1 PUSH4 0xA0420E7F EQ PUSH2 0x708 JUMPI DUP1 PUSH4 0xA22CB465 EQ PUSH2 0x71F JUMPI PUSH0 PUSH0 REVERT JUMPDEST DUP1 PUSH4 0x7FEE67A2 GT PUSH2 0x1BA JUMPI DUP1 PUSH4 0x7FEE67A2 EQ PUSH2 0x69A JUMPI DUP1 PUSH4 0x88E08665 EQ PUSH2 0x6A3 JUMPI DUP1 PUSH4 0x89A30271 EQ PUSH2 0x6B6 JUMPI DUP1 PUSH4 0x8DA5CB5B EQ PUSH2 0x6DD JUMPI PUSH0 PUSH0 REVERT JUMPDEST DUP1 PUSH4 0x6E5F4A89 EQ PUSH2 0x66C JUMPI DUP1 PUSH4 0x715018A6 EQ PUSH2 0x67F JUMPI DUP1 PUSH4 0x7175030D EQ PUSH2 0x687 JUMPI PUSH0 PUSH0 REVERT JUMPDEST DUP1 PUSH4 0x3273B110 GT PUSH2 0x2C0 JUMPI DUP1 PUSH4 0x49D4A7C4 GT PUSH2 0x260 JUMPI DUP1 PUSH4 0x530E784F GT PUSH2 0x230 JUMPI DUP1 PUSH4 0x530E784F EQ PUSH2 0x61C JUMPI DUP1 PUSH4 0x54F0CB0D EQ PUSH2 0x62F JUMPI DUP1 PUSH4 0x6112FE2E EQ PUSH2 0x642 JUMPI DUP1 PUSH4 0x670D5B63 EQ PUSH2 0x655 JUMPI PUSH0 PUSH0 REVERT JUMPDEST DUP1 PUSH4 0x49D4A7C4 EQ PUSH2 0x5B5 JUMPI DUP1 PUSH4 0x4E1273F4 EQ PUSH2 0x5C8 JUMPI DUP1 PUSH4 0x4F558E79 EQ PUSH2 0x5E8 JUMPI DUP1 PUSH4 0x51F740D5 EQ PUSH2 0x609 JUMPI PUSH0 PUSH0 REVERT JUMPDEST DUP1 PUSH4 0x371FD8E6 GT PUSH2 0x29B JUMPI DUP1 PUSH4 0x371FD8E6 EQ PUSH2 0x565 JUMPI DUP1 PUSH4 0x373071F2 EQ PUSH2 0x578 JUMPI DUP1 PUSH4 0x3D92F4E2 EQ PUSH2 0x58B JUMPI DUP1 PUSH4 0x48782996 EQ PUSH2 0x5A2 JUMPI PUSH0 PUSH0 REVERT JUMPDEST DUP1 PUSH4 0x3273B110 EQ PUSH2 0x52C JUMPI DUP1 PUSH4 0x34591A3E EQ PUSH2 0x53F JUMPI DUP1 PUSH4 0x35557E5C EQ PUSH2 0x552 JUMPI PUSH0 PUSH0 REVERT JUMPDEST DUP1 PUSH4 0x18160DDD GT PUSH2 0x32B JUMPI DUP1 PUSH4 0x24BBAB8B GT PUSH2 0x306 JUMPI DUP1 PUSH4 0x24BBAB8B EQ PUSH2 0x4CA JUMPI DUP1 PUSH4 0x2BED89E5 EQ PUSH2 0x4F1 JUMPI DUP1 PUSH4 0x2D4CDFC3 EQ PUSH2 0x504 JUMPI DUP1 PUSH4 0x2EB2C2D6 EQ PUSH2 0x517 JUMPI PUSH0 PUSH0 REVERT JUMPDEST DUP1 PUSH4 0x18160DDD EQ PUSH2 0x480 JUMPI DUP1 PUSH4 0x1C4FD41C EQ PUSH2 0x488 JUMPI DUP1 PUSH4 0x21241DFE EQ PUSH2 0x4A8 JUMPI PUSH0 PUSH0 REVERT JUMPDEST DUP1 PUSH4 0x714012C GT PUSH2 0x366 JUMPI DUP1 PUSH4 0x714012C EQ PUSH2 0x3EE JUMPI DUP1 PUSH4 0xA19399A EQ PUSH2 0x410 JUMPI DUP1 PUSH4 0xB4501FD EQ PUSH2 0x43B JUMPI DUP1 PUSH4 0xE89341C EQ PUSH2 0x460 JUMPI PUSH0 PUSH0 REVERT JUMPDEST DUP1 PUSH3 0xFDD58E EQ PUSH2 0x38B JUMPI DUP1 PUSH4 0x1FFC9A7 EQ PUSH2 0x3B1 JUMPI DUP1 PUSH4 0x3CC1194 EQ PUSH2 0x3D4 JUMPI JUMPDEST PUSH0 PUSH0 REVERT JUMPDEST PUSH2 0x39E PUSH2 0x399 CALLDATASIZE PUSH1 0x4 PUSH2 0x4579 JUMP JUMPDEST PUSH2 0x8E5 JUMP JUMPDEST PUSH1 0x40 MLOAD SWAP1 DUP2 MSTORE PUSH1 0x20 ADD JUMPDEST PUSH1 0x40 MLOAD DUP1 SWAP2 SUB SWAP1 RETURN JUMPDEST PUSH2 0x3C4 PUSH2 0x3BF CALLDATASIZE PUSH1 0x4 PUSH2 0x45B6 JUMP JUMPDEST PUSH2 0x90E JUMP JUMPDEST PUSH1 0x40 MLOAD SWAP1 ISZERO ISZERO DUP2 MSTORE PUSH1 0x20 ADD PUSH2 0x3A8 JUMP JUMPDEST PUSH2 0x3DC PUSH1 0x4 DUP2 JUMP JUMPDEST PUSH1 0x40 MLOAD PUSH1 0xFF SWAP1 SWAP2 AND DUP2 MSTORE PUSH1 0x20 ADD PUSH2 0x3A8 JUMP JUMPDEST PUSH2 0x401 PUSH2 0x3FC CALLDATASIZE PUSH1 0x4 PUSH2 0x45D1 JUMP JUMPDEST PUSH2 0x95D JUMP JUMPDEST PUSH1 0x40 MLOAD PUSH2 0x3A8 SWAP4 SWAP3 SWAP2 SWAP1 PUSH2 0x45E8 JUMP JUMPDEST PUSH1 0xA SLOAD PUSH2 0x423 SWAP1 PUSH1 0x1 PUSH1 0x1 PUSH1 0xA0 SHL SUB AND DUP2 JUMP JUMPDEST PUSH1 0x40 MLOAD PUSH1 0x1 PUSH1 0x1 PUSH1 0xA0 SHL SUB SWAP1 SWAP2 AND DUP2 MSTORE PUSH1 0x20 ADD PUSH2 0x3A8 JUMP JUMPDEST PUSH1 0x9 SLOAD PUSH2 0x44B SWAP1 PUSH4 0xFFFFFFFF AND DUP2 JUMP JUMPDEST PUSH1 0x40 MLOAD PUSH4 0xFFFFFFFF SWAP1 SWAP2 AND DUP2 MSTORE PUSH1 0x20 ADD PUSH2 0x3A8 JUMP JUMPDEST PUSH2 0x473 PUSH2 0x46E CALLDATASIZE PUSH1 0x4 PUSH2 0x45D1 JUMP JUMPDEST PUSH2 0xB18 JUMP JUMPDEST PUSH1 0x40 MLOAD PUSH2 0x3A8 SWAP2 SWAP1 PUSH2 0x4703 JUMP JUMPDEST PUSH1 0x5 SLOAD PUSH2 0x39E JUMP JUMPDEST PUSH2 0x49B PUSH2 0x496 CALLDATASIZE PUSH1 0x4 PUSH2 0x45D1 JUMP JUMPDEST PUSH2 0xBAA JUMP JUMPDEST PUSH1 0x40 MLOAD PUSH2 0x3A8 SWAP2 SWAP1 PUSH2 0x4729 JUMP JUMPDEST PUSH2 0x4B2 PUSH3 0x15180 DUP2 JUMP JUMPDEST PUSH1 0x40 MLOAD PUSH1 0x1 PUSH1 0x1 PUSH1 0x60 SHL SUB SWAP1 SWAP2 AND DUP2 MSTORE PUSH1 0x20 ADD PUSH2 0x3A8 JUMP JUMPDEST PUSH2 0x423 PUSH32 0x0 DUP2 JUMP JUMPDEST PUSH2 0x39E PUSH2 0x4FF CALLDATASIZE PUSH1 0x4 PUSH2 0x474F JUMP JUMPDEST PUSH2 0xCD2 JUMP JUMPDEST PUSH2 0x39E PUSH2 0x512 CALLDATASIZE PUSH1 0x4 PUSH2 0x4778 JUMP JUMPDEST PUSH2 0x10B5 JUMP JUMPDEST PUSH2 0x52A PUSH2 0x525 CALLDATASIZE PUSH1 0x4 PUSH2 0x48D6 JUMP JUMPDEST PUSH2 0x117B JUMP JUMPDEST STOP JUMPDEST PUSH2 0x52A PUSH2 0x53A CALLDATASIZE PUSH1 0x4 PUSH2 0x4998 JUMP JUMPDEST PUSH2 0x1200 JUMP JUMPDEST PUSH2 0x52A PUSH2 0x54D CALLDATASIZE PUSH1 0x4 PUSH2 0x45D1 JUMP JUMPDEST PUSH2 0x1268 JUMP JUMPDEST PUSH2 0x52A PUSH2 0x560 CALLDATASIZE PUSH1 0x4 PUSH2 0x4998 JUMP JUMPDEST PUSH2 0x12A5 JUMP JUMPDEST PUSH2 0x52A PUSH2 0x573 CALLDATASIZE PUSH1 0x4 PUSH2 0x45D1 JUMP JUMPDEST PUSH2 0x1303 JUMP JUMPDEST PUSH2 0x52A PUSH2 0x586 CALLDATASIZE PUSH1 0x4 PUSH2 0x49B1 JUMP JUMPDEST PUSH2 0x152E JUMP JUMPDEST PUSH1 0x8 SLOAD PUSH2 0x44B SWAP1 PUSH1 0x1 PUSH1 0xA0 SHL SWAP1 DIV PUSH4 0xFFFFFFFF AND DUP2 JUMP JUMPDEST PUSH2 0x39E PUSH2 0x5B0 CALLDATASIZE PUSH1 0x4 PUSH2 0x4A0F JUMP JUMPDEST PUSH2 0x15A9 JUMP JUMPDEST PUSH2 0x52A PUSH2 0x5C3 CALLDATASIZE PUSH1 0x4 PUSH2 0x4998 JUMP JUMPDEST PUSH2 0x1762 JUMP JUMPDEST PUSH2 0x5DB PUSH2 0x5D6 CALLDATASIZE PUSH1 0x4 PUSH2 0x4A57 JUMP JUMPDEST PUSH2 0x17C1 JUMP JUMPDEST PUSH1 0x40 MLOAD PUSH2 0x3A8 SWAP2 SWAP1 PUSH2 0x4B54 JUMP JUMPDEST PUSH2 0x3C4 PUSH2 0x5F6 CALLDATASIZE PUSH1 0x4 PUSH2 0x45D1 JUMP JUMPDEST PUSH0 SWAP1 DUP2 MSTORE PUSH1 0x4 PUSH1 0x20 MSTORE PUSH1 0x40 SWAP1 KECCAK256 SLOAD ISZERO ISZERO SWAP1 JUMP JUMPDEST PUSH2 0x39E PUSH2 0x617 CALLDATASIZE PUSH1 0x4 PUSH2 0x4B66 JUMP JUMPDEST PUSH2 0x188C JUMP JUMPDEST PUSH2 0x52A PUSH2 0x62A CALLDATASIZE PUSH1 0x4 PUSH2 0x49B1 JUMP JUMPDEST PUSH2 0x1D47 JUMP JUMPDEST PUSH2 0x52A PUSH2 0x63D CALLDATASIZE PUSH1 0x4 PUSH2 0x4778 JUMP JUMPDEST PUSH2 0x1D9D JUMP JUMPDEST PUSH2 0x52A PUSH2 0x650 CALLDATASIZE PUSH1 0x4 PUSH2 0x45D1 JUMP JUMPDEST PUSH2 0x1F76 JUMP JUMPDEST PUSH1 0x8 SLOAD PUSH2 0x44B SWAP1 PUSH1 0x1 PUSH1 0xE0 SHL SWAP1 DIV PUSH4 0xFFFFFFFF AND DUP2 JUMP JUMPDEST PUSH2 0x52A PUSH2 0x67A CALLDATASIZE PUSH1 0x4 PUSH2 0x45D1 JUMP JUMPDEST PUSH2 0x226F JUMP JUMPDEST PUSH2 0x52A PUSH2 0x2482 JUMP JUMPDEST PUSH2 0x39E PUSH2 0x695 CALLDATASIZE PUSH1 0x4 PUSH2 0x4BB0 JUMP JUMPDEST PUSH2 0x2495 JUMP JUMPDEST PUSH2 0x39E PUSH1 0x7 SLOAD DUP2 JUMP JUMPDEST PUSH2 0x52A PUSH2 0x6B1 CALLDATASIZE PUSH1 0x4 PUSH2 0x4778 JUMP JUMPDEST PUSH2 0x29A7 JUMP JUMPDEST PUSH2 0x423 PUSH32 0x0 DUP2 JUMP JUMPDEST PUSH0 SLOAD PUSH1 0x1 PUSH1 0x1 PUSH1 0xA0 SHL SUB AND PUSH2 0x423 JUMP JUMPDEST PUSH2 0x4B2 PUSH1 0x1E DUP2 JUMP JUMPDEST PUSH2 0x52A PUSH2 0x703 CALLDATASIZE PUSH1 0x4 PUSH2 0x4998 JUMP JUMPDEST PUSH2 0x2C77 JUMP JUMPDEST PUSH1 0x8 SLOAD PUSH2 0x44B SWAP1 PUSH1 0x1 PUSH1 0xC0 SHL SWAP1 DIV PUSH4 0xFFFFFFFF AND DUP2 JUMP JUMPDEST PUSH2 0x52A PUSH2 0x72D CALLDATASIZE PUSH1 0x4 PUSH2 0x4C43 JUMP JUMPDEST PUSH2 0x2CD6 JUMP JUMPDEST PUSH2 0x52A PUSH2 0x740 CALLDATASIZE PUSH1 0x4 PUSH2 0x4998 JUMP JUMPDEST PUSH2 0x2CE1 JUMP JUMPDEST PUSH2 0x3C4 PUSH2 0x753 CALLDATASIZE PUSH1 0x4 PUSH2 0x4A0F JUMP JUMPDEST PUSH2 0x2D4D JUMP JUMPDEST PUSH1 0x8 SLOAD PUSH2 0x44B SWAP1 PUSH1 0x1 PUSH1 0x60 SHL SWAP1 DIV PUSH4 0xFFFFFFFF AND DUP2 JUMP JUMPDEST PUSH2 0x52A PUSH2 0x77D CALLDATASIZE PUSH1 0x4 PUSH2 0x4998 JUMP JUMPDEST PUSH2 0x2EC4 JUMP JUMPDEST PUSH1 0x8 SLOAD PUSH2 0x44B SWAP1 PUSH4 0xFFFFFFFF AND DUP2 JUMP JUMPDEST PUSH1 0x8 SLOAD PUSH2 0x44B SWAP1 PUSH1 0x1 PUSH1 0x40 SHL SWAP1 DIV PUSH4 0xFFFFFFFF AND DUP2 JUMP JUMPDEST PUSH1 0x8 SLOAD PUSH2 0x44B SWAP1 PUSH5 0x100000000 SWAP1 DIV PUSH4 0xFFFFFFFF AND DUP2 JUMP JUMPDEST PUSH2 0x39E PUSH2 0x7CF CALLDATASIZE PUSH1 0x4 PUSH2 0x45D1 JUMP JUMPDEST PUSH0 SWAP1 DUP2 MSTORE PUSH1 0x4 PUSH1 0x20 MSTORE PUSH1 0x40 SWAP1 KECCAK256 SLOAD SWAP1 JUMP JUMPDEST PUSH2 0x52A PUSH2 0x7EE CALLDATASIZE PUSH1 0x4 PUSH2 0x4998 JUMP JUMPDEST PUSH2 0x2F14 JUMP JUMPDEST PUSH1 0x9 SLOAD PUSH2 0x423 SWAP1 PUSH5 0x100000000 SWAP1 DIV PUSH1 0x1 PUSH1 0x1 PUSH1 0xA0 SHL SUB AND DUP2 JUMP JUMPDEST PUSH2 0x39E PUSH2 0x81C CALLDATASIZE PUSH1 0x4 PUSH2 0x45D1 JUMP JUMPDEST PUSH2 0x2F7C JUMP JUMPDEST PUSH2 0x39E PUSH2 0x82F CALLDATASIZE PUSH1 0x4 PUSH2 0x4C7C JUMP JUMPDEST PUSH2 0x30E5 JUMP JUMPDEST PUSH2 0x52A PUSH2 0x842 CALLDATASIZE PUSH1 0x4 PUSH2 0x4A0F JUMP JUMPDEST PUSH2 0x360B JUMP JUMPDEST PUSH1 0x8 SLOAD PUSH2 0x44B SWAP1 PUSH1 0x1 PUSH1 0x80 SHL SWAP1 DIV PUSH4 0xFFFFFFFF AND DUP2 JUMP JUMPDEST PUSH2 0x3C4 PUSH2 0x86C CALLDATASIZE PUSH1 0x4 PUSH2 0x4CEA JUMP JUMPDEST PUSH1 0x1 PUSH1 0x1 PUSH1 0xA0 SHL SUB SWAP2 DUP3 AND PUSH0 SWAP1 DUP2 MSTORE PUSH1 0x2 PUSH1 0x20 SWAP1 DUP2 MSTORE PUSH1 0x40 DUP1 DUP4 KECCAK256 SWAP4 SWAP1 SWAP5 AND DUP3 MSTORE SWAP2 SWAP1 SWAP2 MSTORE KECCAK256 SLOAD PUSH1 0xFF AND SWAP1 JUMP JUMPDEST PUSH2 0x52A PUSH2 0x8A7 CALLDATASIZE PUSH1 0x4 PUSH2 0x4998 JUMP JUMPDEST PUSH2 0x397B JUMP JUMPDEST PUSH2 0x52A PUSH2 0x8BA CALLDATASIZE PUSH1 0x4 PUSH2 0x4998 JUMP JUMPDEST PUSH2 0x39DF JUMP JUMPDEST PUSH2 0x52A PUSH2 0x8CD CALLDATASIZE PUSH1 0x4 PUSH2 0x4D1B JUMP JUMPDEST PUSH2 0x3A2F JUMP JUMPDEST PUSH2 0x52A PUSH2 0x8E0 CALLDATASIZE PUSH1 0x4 PUSH2 0x49B1 JUMP JUMPDEST PUSH2 0x3AAC JUMP JUMPDEST PUSH0 DUP2 DUP2 MSTORE PUSH1 0x1 PUSH1 0x20 SWAP1 DUP2 MSTORE PUSH1 0x40 DUP1 DUP4 KECCAK256 PUSH1 0x1 PUSH1 0x1 PUSH1 0xA0 SHL SUB DUP7 AND DUP5 MSTORE SWAP1 SWAP2 MSTORE SWAP1 KECCAK256 SLOAD JUMPDEST SWAP3 SWAP2 POP POP JUMP JUMPDEST PUSH0 PUSH1 0x1 PUSH1 0x1 PUSH1 0xE0 SHL SUB NOT DUP3 AND PUSH4 0x6CDB3D13 PUSH1 0xE1 SHL EQ DUP1 PUSH2 0x93E JUMPI POP PUSH1 0x1 PUSH1 0x1 PUSH1 0xE0 SHL SUB NOT DUP3 AND PUSH4 0x3A24D07 PUSH1 0xE2 SHL EQ JUMPDEST DUP1 PUSH2 0x908 JUMPI POP PUSH4 0x1FFC9A7 PUSH1 0xE0 SHL PUSH1 0x1 PUSH1 0x1 PUSH1 0xE0 SHL SUB NOT DUP4 AND EQ PUSH2 0x908 JUMP JUMPDEST PUSH1 0x40 DUP1 MLOAD PUSH2 0x100 DUP2 ADD DUP3 MSTORE PUSH0 DUP1 DUP3 MSTORE PUSH1 0x20 DUP3 ADD DUP2 SWAP1 MSTORE SWAP2 DUP2 ADD DUP3 SWAP1 MSTORE PUSH1 0x60 DUP2 ADD DUP3 SWAP1 MSTORE PUSH1 0x80 DUP2 ADD DUP3 SWAP1 MSTORE PUSH1 0xA0 DUP2 ADD DUP3 SWAP1 MSTORE PUSH1 0xC0 DUP2 ADD DUP3 SWAP1 MSTORE PUSH1 0xE0 DUP2 ADD SWAP2 SWAP1 SWAP2 MSTORE PUSH1 0x40 DUP1 MLOAD PUSH1 0xA0 DUP2 ADD DUP3 MSTORE PUSH0 DUP1 DUP3 MSTORE PUSH1 0x20 DUP3 ADD DUP2 SWAP1 MSTORE SWAP2 DUP2 ADD DUP3 SWAP1 MSTORE PUSH1 0x60 DUP2 ADD DUP3 SWAP1 MSTORE PUSH1 0x80 DUP2 ADD SWAP2 SWAP1 SWAP2 MSTORE PUSH0 DUP4 PUSH0 DUP2 GT DUP1 ISZERO PUSH2 0x9D9 JUMPI POP PUSH1 0xD SLOAD DUP2 LT JUMPDEST PUSH2 0xA1D JUMPI PUSH1 0x40 MLOAD PUSH3 0x461BCD PUSH1 0xE5 SHL DUP2 MSTORE PUSH1 0x20 PUSH1 0x4 DUP3 ADD MSTORE PUSH1 0x10 PUSH1 0x24 DUP3 ADD MSTORE PUSH16 0x496E76616C6964204C6F616E20494421 PUSH1 0x80 SHL PUSH1 0x44 DUP3 ADD MSTORE PUSH1 0x64 ADD JUMPDEST PUSH1 0x40 MLOAD DUP1 SWAP2 SUB SWAP1 REVERT JUMPDEST POP POP POP PUSH0 SWAP2 DUP3 MSTORE POP PUSH1 0xB PUSH1 0x20 SWAP1 DUP2 MSTORE PUSH1 0x40 DUP1 DUP4 KECCAK256 PUSH1 0xC DUP4 MSTORE DUP2 DUP5 KECCAK256 PUSH1 0x4 DUP5 MSTORE SWAP4 DUP3 SWAP1 KECCAK256 SLOAD DUP3 MLOAD PUSH2 0x100 DUP2 ADD DUP5 MSTORE DUP3 SLOAD DUP2 MSTORE PUSH1 0x1 DUP1 DUP5 ADD SLOAD DUP3 DUP8 ADD MSTORE PUSH1 0x2 DUP1 DUP6 ADD SLOAD PUSH1 0x1 PUSH1 0x1 PUSH1 0xA0 SHL SUB DUP1 DUP3 AND DUP6 DUP10 ADD MSTORE PUSH1 0x1 PUSH1 0x1 PUSH1 0x60 SHL SUB PUSH1 0x1 PUSH1 0xA0 SHL SWAP3 DUP4 SWAP1 DIV DUP2 AND PUSH1 0x60 DUP1 DUP9 ADD SWAP2 SWAP1 SWAP2 MSTORE PUSH1 0x3 SWAP9 DUP10 ADD SLOAD PUSH4 0xFFFFFFFF DUP1 DUP3 AND PUSH1 0x80 DUP1 DUP12 ADD SWAP2 SWAP1 SWAP2 MSTORE PUSH5 0x100000000 DUP4 DIV DUP3 AND PUSH1 0xA0 DUP1 DUP13 ADD SWAP2 SWAP1 SWAP2 MSTORE PUSH1 0x1 PUSH1 0x40 SHL DUP5 DIV SWAP1 SWAP3 AND PUSH1 0xC0 DUP12 ADD MSTORE PUSH1 0x1 PUSH1 0x60 SHL SWAP1 SWAP3 DIV DUP5 AND PUSH1 0xE0 DUP11 ADD MSTORE DUP12 MLOAD SWAP1 DUP2 ADD DUP13 MSTORE DUP14 SLOAD SWAP5 DUP6 AND DUP2 MSTORE SWAP5 SWAP1 SWAP4 DIV DUP3 AND SWAP11 DUP5 ADD SWAP11 SWAP1 SWAP11 MSTORE SWAP4 DUP11 ADD SLOAD SWAP8 DUP3 ADD SWAP8 SWAP1 SWAP8 MSTORE SWAP1 DUP9 ADD SLOAD SWAP7 DUP2 ADD SWAP7 SWAP1 SWAP7 MSTORE SWAP3 SWAP1 SWAP6 ADD SLOAD SWAP1 SWAP2 AND SWAP2 DUP4 ADD SWAP2 SWAP1 SWAP2 MSTORE SWAP2 SWAP3 SWAP1 SWAP2 SWAP1 JUMP JUMPDEST PUSH1 0x60 PUSH1 0x3 DUP1 SLOAD PUSH2 0xB27 SWAP1 PUSH2 0x4D6F JUMP JUMPDEST DUP1 PUSH1 0x1F ADD PUSH1 0x20 DUP1 SWAP2 DIV MUL PUSH1 0x20 ADD PUSH1 0x40 MLOAD SWAP1 DUP2 ADD PUSH1 0x40 MSTORE DUP1 SWAP3 SWAP2 SWAP1 DUP2 DUP2 MSTORE PUSH1 0x20 ADD DUP3 DUP1 SLOAD PUSH2 0xB53 SWAP1 PUSH2 0x4D6F JUMP JUMPDEST DUP1 ISZERO PUSH2 0xB9E JUMPI DUP1 PUSH1 0x1F LT PUSH2 0xB75 JUMPI PUSH2 0x100 DUP1 DUP4 SLOAD DIV MUL DUP4 MSTORE SWAP2 PUSH1 0x20 ADD SWAP2 PUSH2 0xB9E JUMP JUMPDEST DUP3 ADD SWAP2 SWAP1 PUSH0 MSTORE PUSH1 0x20 PUSH0 KECCAK256 SWAP1 JUMPDEST DUP2 SLOAD DUP2 MSTORE SWAP1 PUSH1 0x1 ADD SWAP1 PUSH1 0x20 ADD DUP1 DUP4 GT PUSH2 0xB81 JUMPI DUP3 SWAP1 SUB PUSH1 0x1F AND DUP3 ADD SWAP2 JUMPDEST POP POP POP POP POP SWAP1 POP SWAP2 SWAP1 POP JUMP JUMPDEST PUSH0 DUP2 DUP2 MSTORE PUSH1 0xB PUSH1 0x20 SWAP1 DUP2 MSTORE PUSH1 0x40 DUP1 DUP4 KECCAK256 PUSH1 0xC SWAP1 SWAP3 MSTORE DUP3 KECCAK256 DUP2 SLOAD DUP4 SUB PUSH2 0xBD2 JUMPI POP PUSH0 SWAP4 SWAP3 POP POP POP JUMP JUMPDEST DUP1 SLOAD PUSH1 0x1 PUSH1 0x1 PUSH1 0xA0 SHL SUB AND ISZERO DUP1 ISZERO PUSH2 0xBF5 JUMPI POP PUSH0 DUP5 DUP2 MSTORE PUSH1 0x4 PUSH1 0x20 MSTORE PUSH1 0x40 SWAP1 KECCAK256 SLOAD ISZERO JUMPDEST DUP1 PUSH2 0xC16 JUMPI POP DUP1 SLOAD PUSH1 0x1 PUSH1 0x1 PUSH1 0xA0 SHL SUB AND ISZERO DUP1 ISZERO SWAP1 PUSH2 0xC16 JUMPI POP PUSH1 0x1 DUP2 ADD SLOAD ISZERO JUMPDEST ISZERO PUSH2 0xC25 JUMPI POP PUSH1 0x5 SWAP4 SWAP3 POP POP POP JUMP JUMPDEST DUP1 SLOAD PUSH1 0x1 PUSH1 0xA0 SHL SWAP1 DIV PUSH1 0x1 PUSH1 0x1 PUSH1 0x60 SHL SUB AND PUSH0 SUB PUSH2 0xCA1 JUMPI PUSH1 0x3 DUP2 ADD SLOAD PUSH1 0x1 PUSH1 0x1 PUSH1 0x60 SHL SUB AND ISZERO DUP1 ISZERO SWAP1 PUSH2 0xC68 JUMPI POP PUSH1 0x3 DUP2 ADD SLOAD PUSH1 0x1 PUSH1 0x1 PUSH1 0x60 SHL SUB TIMESTAMP DUP2 AND SWAP2 AND LT JUMPDEST ISZERO PUSH2 0xC77 JUMPI POP PUSH1 0x3 SWAP4 SWAP3 POP POP POP JUMP JUMPDEST PUSH0 DUP5 DUP2 MSTORE PUSH1 0x4 PUSH1 0x20 MSTORE PUSH1 0x40 SWAP1 KECCAK256 SLOAD DUP3 SLOAD GT ISZERO PUSH2 0xC97 JUMPI POP PUSH1 0x1 SWAP4 SWAP3 POP POP POP JUMP JUMPDEST POP PUSH1 0x2 SWAP4 SWAP3 POP POP POP JUMP JUMPDEST PUSH1 0x1 DUP2 ADD SLOAD ISZERO PUSH2 0xCC8 JUMPI PUSH0 DUP5 DUP2 MSTORE PUSH1 0x4 PUSH1 0x20 MSTORE PUSH1 0x40 SWAP1 KECCAK256 SLOAD ISZERO PUSH2 0xCC8 JUMPI POP PUSH1 0x4 SWAP4 SWAP3 POP POP POP JUMP JUMPDEST POP PUSH1 0x5 SWAP4 SWAP3 POP POP POP JUMP JUMPDEST PUSH0 PUSH2 0xCDB PUSH2 0x3AE6 JUMP JUMPDEST DUP4 PUSH0 DUP2 GT DUP1 ISZERO PUSH2 0xCEC JUMPI POP PUSH1 0xD SLOAD DUP2 LT JUMPDEST PUSH2 0xD2B JUMPI PUSH1 0x40 MLOAD PUSH3 0x461BCD PUSH1 0xE5 SHL DUP2 MSTORE PUSH1 0x20 PUSH1 0x4 DUP3 ADD MSTORE PUSH1 0x10 PUSH1 0x24 DUP3 ADD MSTORE PUSH16 0x496E76616C6964204C6F616E20494421 PUSH1 0x80 SHL PUSH1 0x44 DUP3 ADD MSTORE PUSH1 0x64 ADD PUSH2 0xA14 JUMP JUMPDEST PUSH0 DUP5 GT DUP1 ISZERO PUSH2 0xD3A JUMPI POP DUP3 DUP5 LT ISZERO JUMPDEST PUSH2 0xDAC JUMPI PUSH1 0x40 MLOAD PUSH3 0x461BCD PUSH1 0xE5 SHL DUP2 MSTORE PUSH1 0x20 PUSH1 0x4 DUP3 ADD MSTORE PUSH1 0x32 PUSH1 0x24 DUP3 ADD MSTORE PUSH32 0x5032504C656E64696E6720726571756972653A7461726765745F6C6F74733E30 PUSH1 0x44 DUP3 ADD MSTORE PUSH32 0x202626206C6F74733E3D6D696E5F6C6F74730000000000000000000000000000 PUSH1 0x64 DUP3 ADD MSTORE PUSH1 0x84 ADD PUSH2 0xA14 JUMP JUMPDEST PUSH1 0x1 PUSH2 0xDB7 DUP7 PUSH2 0xBAA JUMP JUMPDEST PUSH1 0x5 DUP2 GT ISZERO PUSH2 0xDC8 JUMPI PUSH2 0xDC8 PUSH2 0x4715 JUMP JUMPDEST EQ PUSH2 0xE29 JUMPI PUSH1 0x40 MLOAD PUSH3 0x461BCD PUSH1 0xE5 SHL DUP2 MSTORE PUSH1 0x20 PUSH1 0x4 DUP3 ADD MSTORE PUSH1 0x2B PUSH1 0x24 DUP3 ADD MSTORE PUSH32 0x5032504C656E64696E673A4C6F616E537461747573206E6F7420657175616C73 PUSH1 0x44 DUP3 ADD MSTORE PUSH11 0x2046494E414E43494E4721 PUSH1 0xA8 SHL PUSH1 0x64 DUP3 ADD MSTORE PUSH1 0x84 ADD PUSH2 0xA14 JUMP JUMPDEST PUSH0 DUP6 DUP2 MSTORE PUSH1 0xB PUSH1 0x20 SWAP1 DUP2 MSTORE PUSH1 0x40 DUP1 DUP4 KECCAK256 PUSH1 0x4 SWAP1 SWAP3 MSTORE DUP3 KECCAK256 SLOAD SWAP1 SWAP2 SWAP1 DUP3 SLOAD PUSH2 0xE50 SWAP2 SWAP1 PUSH2 0x4DBB JUMP JUMPDEST SWAP1 POP DUP5 DUP2 LT ISZERO PUSH2 0xEB0 JUMPI PUSH1 0x40 MLOAD PUSH3 0x461BCD PUSH1 0xE5 SHL DUP2 MSTORE PUSH1 0x20 PUSH1 0x4 DUP3 ADD MSTORE PUSH1 0x25 PUSH1 0x24 DUP3 ADD MSTORE PUSH32 0x5032504C656E64696E673A4E6F7420656E6F75676820617661696C61626C6520 PUSH1 0x44 DUP3 ADD MSTORE PUSH5 0x6C6F747321 PUSH1 0xD8 SHL PUSH1 0x64 DUP3 ADD MSTORE PUSH1 0x84 ADD PUSH2 0xA14 JUMP JUMPDEST PUSH0 PUSH2 0xEBB DUP8 DUP4 PUSH2 0x3B10 JUMP JUMPDEST SWAP1 POP PUSH2 0xF04 CALLER ADDRESS DUP4 DUP7 PUSH1 0x1 ADD SLOAD PUSH2 0xED2 SWAP2 SWAP1 PUSH2 0x4DCE JUMP JUMPDEST PUSH1 0x1 PUSH1 0x1 PUSH1 0xA0 SHL SUB PUSH32 0x0 AND SWAP3 SWAP2 SWAP1 PUSH2 0x3B1F JUMP JUMPDEST PUSH2 0xF1E CALLER DUP10 DUP4 PUSH1 0x40 MLOAD DUP1 PUSH1 0x20 ADD PUSH1 0x40 MSTORE DUP1 PUSH0 DUP2 MSTORE POP PUSH2 0x3B8C JUMP JUMPDEST DUP3 SLOAD PUSH0 DUP10 DUP2 MSTORE PUSH1 0x4 PUSH1 0x20 MSTORE PUSH1 0x40 SWAP1 KECCAK256 SLOAD GT ISZERO PUSH2 0xF8D JUMPI PUSH1 0x40 MLOAD PUSH3 0x461BCD PUSH1 0xE5 SHL DUP2 MSTORE PUSH1 0x20 PUSH1 0x4 DUP3 ADD MSTORE PUSH1 0x28 PUSH1 0x24 DUP3 ADD MSTORE PUSH32 0x5032504C656E64696E6720726571756972653A737570706C793C3D6C6F74735F PUSH1 0x44 DUP3 ADD MSTORE PUSH8 0x1C995C5D5A5C9959 PUSH1 0xC2 SHL PUSH1 0x64 DUP3 ADD MSTORE PUSH1 0x84 ADD PUSH2 0xA14 JUMP JUMPDEST DUP3 SLOAD PUSH0 DUP10 DUP2 MSTORE PUSH1 0x4 PUSH1 0x20 MSTORE PUSH1 0x40 SWAP1 KECCAK256 SLOAD TIMESTAMP SWAP2 SWAP1 SUB PUSH2 0x101F JUMPI PUSH2 0xFB2 PUSH3 0x15180 DUP3 PUSH2 0x4DE5 JUMP JUMPDEST PUSH0 DUP11 DUP2 MSTORE PUSH1 0xC PUSH1 0x20 SWAP1 DUP2 MSTORE PUSH1 0x40 SWAP2 DUP3 SWAP1 KECCAK256 PUSH1 0x3 ADD DUP1 SLOAD PUSH12 0xFFFFFFFFFFFFFFFFFFFFFFFF NOT AND PUSH1 0x1 PUSH1 0x1 PUSH1 0x60 SHL SUB SWAP5 SWAP1 SWAP5 AND SWAP4 DUP5 OR SWAP1 SSTORE SWAP1 MLOAD SWAP2 DUP3 MSTORE DUP11 SWAP2 PUSH32 0x6FCE911D7163D1242CD9F1727A93EB2D9232BB808DB0881B448196DCD2FE412D SWAP2 ADD PUSH1 0x40 MLOAD DUP1 SWAP2 SUB SWAP1 LOG2 PUSH2 0x1067 JUMP JUMPDEST PUSH2 0x102A PUSH1 0x1E DUP3 PUSH2 0x4DE5 JUMP JUMPDEST CALLER PUSH0 SWAP1 DUP2 MSTORE PUSH1 0xE PUSH1 0x20 SWAP1 DUP2 MSTORE PUSH1 0x40 DUP1 DUP4 KECCAK256 DUP14 DUP5 MSTORE SWAP1 SWAP2 MSTORE SWAP1 KECCAK256 DUP1 SLOAD PUSH12 0xFFFFFFFFFFFFFFFFFFFFFFFF NOT AND PUSH1 0x1 PUSH1 0x1 PUSH1 0x60 SHL SUB SWAP3 SWAP1 SWAP3 AND SWAP2 SWAP1 SWAP2 OR SWAP1 SSTORE JUMPDEST PUSH1 0x40 MLOAD DUP3 DUP2 MSTORE CALLER SWAP1 DUP11 SWAP1 PUSH32 0xBC00F64D7F7FDD45626F23C5B8BFA1C1B8E64FAF4200EFB7DA5A7439A326F955 SWAP1 PUSH1 0x20 ADD PUSH1 0x40 MLOAD DUP1 SWAP2 SUB SWAP1 LOG3 POP SWAP4 POP POP POP POP PUSH2 0x10AE PUSH1 0x1 PUSH1 0x6 SSTORE JUMP JUMPDEST SWAP4 SWAP3 POP POP POP JUMP JUMPDEST PUSH0 DUP3 PUSH0 DUP2 GT DUP1 ISZERO PUSH2 0x10C7 JUMPI POP PUSH1 0xD SLOAD DUP2 LT JUMPDEST PUSH2 0x1106 JUMPI PUSH1 0x40 MLOAD PUSH3 0x461BCD PUSH1 0xE5 SHL DUP2 MSTORE PUSH1 0x20 PUSH1 0x4 DUP3 ADD MSTORE PUSH1 0x10 PUSH1 0x24 DUP3 ADD MSTORE PUSH16 0x496E76616C6964204C6F616E20494421 PUSH1 0x80 SHL PUSH1 0x44 DUP3 ADD MSTORE PUSH1 0x64 ADD PUSH2 0xA14 JUMP JUMPDEST PUSH0 DUP5 DUP2 MSTORE PUSH1 0x4 PUSH1 0x20 MSTORE PUSH1 0x40 SWAP1 KECCAK256 SLOAD DUP1 ISZERO PUSH2 0x116F JUMPI PUSH0 DUP6 DUP2 MSTORE PUSH1 0xC PUSH1 0x20 MSTORE PUSH1 0x40 DUP2 KECCAK256 PUSH1 0x2 ADD SLOAD ISZERO PUSH2 0x1146 JUMPI PUSH0 DUP7 DUP2 MSTORE PUSH1 0xC PUSH1 0x20 MSTORE PUSH1 0x40 SWAP1 KECCAK256 PUSH1 0x2 ADD SLOAD PUSH2 0x114F JUMP JUMPDEST PUSH2 0x114F DUP7 PUSH2 0x2F7C JUMP JUMPDEST SWAP1 POP DUP2 PUSH2 0x115C DUP3 DUP8 PUSH2 0x4DCE JUMP JUMPDEST PUSH2 0x1166 SWAP2 SWAP1 PUSH2 0x4E04 JUMP JUMPDEST SWAP4 POP POP POP PUSH2 0x1174 JUMP JUMPDEST PUSH0 SWAP3 POP POP JUMPDEST POP SWAP3 SWAP2 POP POP JUMP JUMPDEST CALLER PUSH1 0x1 PUSH1 0x1 PUSH1 0xA0 SHL SUB DUP7 AND DUP2 EQ DUP1 ISZERO SWAP1 PUSH2 0x11BA JUMPI POP PUSH1 0x1 PUSH1 0x1 PUSH1 0xA0 SHL SUB DUP1 DUP8 AND PUSH0 SWAP1 DUP2 MSTORE PUSH1 0x2 PUSH1 0x20 SWAP1 DUP2 MSTORE PUSH1 0x40 DUP1 DUP4 KECCAK256 SWAP4 DUP6 AND DUP4 MSTORE SWAP3 SWAP1 MSTORE KECCAK256 SLOAD PUSH1 0xFF AND ISZERO JUMPDEST ISZERO PUSH2 0x11EB JUMPI PUSH1 0x40 MLOAD PUSH4 0x711BEC91 PUSH1 0xE1 SHL DUP2 MSTORE PUSH1 0x1 PUSH1 0x1 PUSH1 0xA0 SHL SUB DUP1 DUP4 AND PUSH1 0x4 DUP4 ADD MSTORE DUP8 AND PUSH1 0x24 DUP3 ADD MSTORE PUSH1 0x44 ADD PUSH2 0xA14 JUMP JUMPDEST PUSH2 0x11F8 DUP7 DUP7 DUP7 DUP7 DUP7 PUSH2 0x3BE7 JUMP JUMPDEST POP POP POP POP POP POP JUMP JUMPDEST PUSH2 0x1208 PUSH2 0x3C4C JUMP JUMPDEST PUSH1 0x8 DUP1 SLOAD PUSH8 0xFFFFFFFF00000000 NOT AND PUSH5 0x100000000 PUSH4 0xFFFFFFFF DUP5 DUP2 AND DUP3 MUL SWAP3 SWAP1 SWAP3 OR SWAP3 DUP4 SWAP1 SSTORE PUSH1 0x40 MLOAD SWAP3 DIV AND DUP2 MSTORE PUSH32 0x85595CB7B81D221172988F4BF171B00745E5C6F4E17760CC33DD2F02DCB57AE4 SWAP1 PUSH1 0x20 ADD JUMPDEST PUSH1 0x40 MLOAD DUP1 SWAP2 SUB SWAP1 LOG1 POP JUMP JUMPDEST PUSH2 0x1270 PUSH2 0x3C4C JUMP JUMPDEST PUSH1 0x7 DUP2 SWAP1 SSTORE PUSH1 0x40 MLOAD DUP2 DUP2 MSTORE PUSH32 0xDE6A3638493F2725F743C7C5C9801D3143C92F2ADF4825F0434DD9513B2943C7 SWAP1 PUSH1 0x20 ADD PUSH2 0x125D JUMP JUMPDEST PUSH2 0x12AD PUSH2 0x3C4C JUMP JUMPDEST PUSH1 0x8 DUP1 SLOAD PUSH1 0x1 PUSH1 0x1 PUSH1 0xE0 SHL SUB AND PUSH1 0x1 PUSH1 0xE0 SHL PUSH4 0xFFFFFFFF DUP5 DUP2 AND DUP3 MUL SWAP3 SWAP1 SWAP3 OR SWAP3 DUP4 SWAP1 SSTORE PUSH1 0x40 MLOAD SWAP3 DIV AND DUP2 MSTORE PUSH32 0x89C571E0D88872F4418634E394070DBE24A78682B16A616B1F8E02A2939D421E SWAP1 PUSH1 0x20 ADD PUSH2 0x125D JUMP JUMPDEST PUSH2 0x130B PUSH2 0x3AE6 JUMP JUMPDEST DUP1 PUSH0 DUP2 GT DUP1 ISZERO PUSH2 0x131C JUMPI POP PUSH1 0xD SLOAD DUP2 LT JUMPDEST PUSH2 0x135B JUMPI PUSH1 0x40 MLOAD PUSH3 0x461BCD PUSH1 0xE5 SHL DUP2 MSTORE PUSH1 0x20 PUSH1 0x4 DUP3 ADD MSTORE PUSH1 0x10 PUSH1 0x24 DUP3 ADD MSTORE PUSH16 0x496E76616C6964204C6F616E20494421 PUSH1 0x80 SHL PUSH1 0x44 DUP3 ADD MSTORE PUSH1 0x64 ADD PUSH2 0xA14 JUMP JUMPDEST PUSH1 0x4 PUSH2 0x1366 DUP4 PUSH2 0xBAA JUMP JUMPDEST PUSH1 0x5 DUP2 GT ISZERO PUSH2 0x1377 JUMPI PUSH2 0x1377 PUSH2 0x4715 JUMP JUMPDEST EQ PUSH2 0x13D6 JUMPI PUSH1 0x40 MLOAD PUSH3 0x461BCD PUSH1 0xE5 SHL DUP2 MSTORE PUSH1 0x20 PUSH1 0x4 DUP3 ADD MSTORE PUSH1 0x29 PUSH1 0x24 DUP3 ADD MSTORE PUSH32 0x5032504C656E64696E673A4C6F616E537461747573206D75737420657175616C PUSH1 0x44 DUP3 ADD MSTORE PUSH9 0x732041435449564521 PUSH1 0xB8 SHL PUSH1 0x64 DUP3 ADD MSTORE PUSH1 0x84 ADD PUSH2 0xA14 JUMP JUMPDEST PUSH0 DUP3 DUP2 MSTORE PUSH1 0xC PUSH1 0x20 MSTORE PUSH1 0x40 SWAP1 KECCAK256 DUP1 SLOAD PUSH1 0x1 PUSH1 0x1 PUSH1 0xA0 SHL SUB AND CALLER EQ PUSH2 0x143C JUMPI PUSH1 0x40 MLOAD PUSH3 0x461BCD PUSH1 0xE5 SHL DUP2 MSTORE PUSH1 0x20 PUSH1 0x4 DUP3 ADD MSTORE PUSH1 0x1F PUSH1 0x24 DUP3 ADD MSTORE PUSH32 0x5032504C656E64696E673A43616C6C6572206973206E6F74206F776E65722100 PUSH1 0x44 DUP3 ADD MSTORE PUSH1 0x64 ADD PUSH2 0xA14 JUMP JUMPDEST PUSH0 PUSH2 0x1446 DUP5 PUSH2 0x2F7C JUMP JUMPDEST DUP3 SLOAD SWAP1 SWAP2 POP PUSH2 0x1483 SWAP1 PUSH1 0x1 PUSH1 0x1 PUSH1 0xA0 SHL SUB PUSH32 0x0 DUP2 AND SWAP2 AND ADDRESS DUP5 PUSH2 0x3B1F JUMP JUMPDEST DUP1 DUP3 PUSH1 0x2 ADD PUSH0 DUP3 DUP3 SLOAD PUSH2 0x1496 SWAP2 SWAP1 PUSH2 0x4E23 JUMP JUMPDEST SWAP1 SWAP2 SSTORE POP POP DUP2 SLOAD PUSH1 0x1 DUP4 ADD SLOAD PUSH2 0x14DA SWAP2 PUSH1 0x1 PUSH1 0x1 PUSH1 0xA0 SHL SUB PUSH32 0x0 DUP2 AND SWAP3 SWAP2 AND SWAP1 PUSH2 0x3C78 JUMP JUMPDEST PUSH0 PUSH1 0x1 DUP4 ADD SSTORE PUSH1 0x40 MLOAD DUP2 DUP2 MSTORE DUP5 SWAP1 PUSH32 0x552544CB36551120F07C66C5CD4B2987725A0C72198587F2CE796099BB66C58C SWAP1 PUSH1 0x20 ADD PUSH1 0x40 MLOAD DUP1 SWAP2 SUB SWAP1 LOG2 PUSH2 0x151E DUP5 PUSH2 0x3CA9 JUMP JUMPDEST POP POP POP PUSH2 0x152B PUSH1 0x1 PUSH1 0x6 SSTORE JUMP JUMPDEST POP JUMP JUMPDEST PUSH2 0x1536 PUSH2 0x3C4C JUMP JUMPDEST PUSH1 0x9 DUP1 SLOAD PUSH32 0xFFFFFFFFFFFFFFFF0000000000000000000000000000000000000000FFFFFFFF AND PUSH5 0x100000000 PUSH1 0x1 PUSH1 0x1 PUSH1 0xA0 SHL SUB DUP5 DUP2 AND DUP3 MUL SWAP3 SWAP1 SWAP3 OR SWAP3 DUP4 SWAP1 SSTORE PUSH1 0x40 MLOAD SWAP3 DIV AND DUP2 MSTORE PUSH32 0x15A6D8DBE28500FE360D4A194D18559AE45775C191765D262C598C2FCB59D967 SWAP1 PUSH1 0x20 ADD PUSH2 0x125D JUMP JUMPDEST PUSH0 DUP4 PUSH0 DUP2 GT DUP1 ISZERO PUSH2 0x15BB JUMPI POP PUSH1 0xD SLOAD DUP2 LT JUMPDEST PUSH2 0x15FA JUMPI PUSH1 0x40 MLOAD PUSH3 0x461BCD PUSH1 0xE5 SHL DUP2 MSTORE PUSH1 0x20 PUSH1 0x4 DUP3 ADD MSTORE PUSH1 0x10 PUSH1 0x24 DUP3 ADD MSTORE PUSH16 0x496E76616C6964204C6F616E20494421 PUSH1 0x80 SHL PUSH1 0x44 DUP3 ADD MSTORE PUSH1 0x64 ADD PUSH2 0xA14 JUMP JUMPDEST PUSH1 0x4 PUSH2 0x1605 DUP7 PUSH2 0xBAA JUMP JUMPDEST PUSH1 0x5 DUP2 GT ISZERO PUSH2 0x1616 JUMPI PUSH2 0x1616 PUSH2 0x4715 JUMP JUMPDEST EQ PUSH2 0x1675 JUMPI PUSH1 0x40 MLOAD PUSH3 0x461BCD PUSH1 0xE5 SHL DUP2 MSTORE PUSH1 0x20 PUSH1 0x4 DUP3 ADD MSTORE PUSH1 0x29 PUSH1 0x24 DUP3 ADD MSTORE PUSH32 0x5032504C656E64696E673A4C6F616E537461747573206D75737420657175616C PUSH1 0x44 DUP3 ADD MSTORE PUSH9 0x732041435449564521 PUSH1 0xB8 SHL PUSH1 0x64 DUP3 ADD MSTORE PUSH1 0x84 ADD PUSH2 0xA14 JUMP JUMPDEST PUSH0 DUP6 DUP2 MSTORE PUSH1 0xB PUSH1 0x20 SWAP1 DUP2 MSTORE PUSH1 0x40 DUP1 DUP4 KECCAK256 PUSH1 0x2 ADD SLOAD PUSH1 0xC SWAP1 SWAP3 MSTORE SWAP1 SWAP2 KECCAK256 PUSH1 0x1 ADD SLOAD PUSH1 0x1 PUSH1 0x1 PUSH1 0xA0 SHL SUB SWAP1 SWAP2 AND SWAP1 PUSH4 0x4BBF415C SWAP1 PUSH32 0x0 SWAP1 PUSH1 0x4 SWAP1 PUSH32 0x0 PUSH2 0x16F6 DUP12 PUSH2 0x2F7C JUMP JUMPDEST DUP11 DUP11 PUSH1 0x40 MLOAD DUP9 PUSH4 0xFFFFFFFF AND PUSH1 0xE0 SHL DUP2 MSTORE PUSH1 0x4 ADD PUSH2 0x171A SWAP8 SWAP7 SWAP6 SWAP5 SWAP4 SWAP3 SWAP2 SWAP1 PUSH2 0x4E5E JUMP JUMPDEST PUSH1 0x20 PUSH1 0x40 MLOAD DUP1 DUP4 SUB DUP2 DUP7 GAS STATICCALL ISZERO DUP1 ISZERO PUSH2 0x1735 JUMPI RETURNDATASIZE PUSH0 PUSH0 RETURNDATACOPY RETURNDATASIZE PUSH0 REVERT JUMPDEST POP POP POP POP PUSH1 0x40 MLOAD RETURNDATASIZE PUSH1 0x1F NOT PUSH1 0x1F DUP3 ADD AND DUP3 ADD DUP1 PUSH1 0x40 MSTORE POP DUP2 ADD SWAP1 PUSH2 0x1759 SWAP2 SWAP1 PUSH2 0x4EAB JUMP JUMPDEST SWAP6 SWAP5 POP POP POP POP POP JUMP JUMPDEST PUSH2 0x176A PUSH2 0x3C4C JUMP JUMPDEST PUSH1 0x8 DUP1 SLOAD PUSH4 0xFFFFFFFF PUSH1 0xA0 SHL NOT AND PUSH1 0x1 PUSH1 0xA0 SHL PUSH4 0xFFFFFFFF DUP5 DUP2 AND DUP3 MUL SWAP3 SWAP1 SWAP3 OR SWAP3 DUP4 SWAP1 SSTORE PUSH1 0x40 MLOAD SWAP3 DIV AND DUP2 MSTORE PUSH32 0x7B0FFAC54449EDEFE5C8B153777B5873E7673D02C8AC936F3CB37A9A2B9E00D5 SWAP1 PUSH1 0x20 ADD PUSH2 0x125D JUMP JUMPDEST PUSH1 0x60 DUP2 MLOAD DUP4 MLOAD EQ PUSH2 0x17F2 JUMPI DUP2 MLOAD DUP4 MLOAD PUSH1 0x40 MLOAD PUSH4 0x5B059991 PUSH1 0xE0 SHL DUP2 MSTORE PUSH1 0x4 DUP2 ADD SWAP3 SWAP1 SWAP3 MSTORE PUSH1 0x24 DUP3 ADD MSTORE PUSH1 0x44 ADD PUSH2 0xA14 JUMP JUMPDEST PUSH0 DUP4 MLOAD PUSH8 0xFFFFFFFFFFFFFFFF DUP2 GT ISZERO PUSH2 0x180D JUMPI PUSH2 0x180D PUSH2 0x4798 JUMP JUMPDEST PUSH1 0x40 MLOAD SWAP1 DUP1 DUP3 MSTORE DUP1 PUSH1 0x20 MUL PUSH1 0x20 ADD DUP3 ADD PUSH1 0x40 MSTORE DUP1 ISZERO PUSH2 0x1836 JUMPI DUP2 PUSH1 0x20 ADD PUSH1 0x20 DUP3 MUL DUP1 CALLDATASIZE DUP4 CALLDATACOPY ADD SWAP1 POP JUMPDEST POP SWAP1 POP PUSH0 JUMPDEST DUP5 MLOAD DUP2 LT ISZERO PUSH2 0x1884 JUMPI PUSH1 0x20 DUP1 DUP3 MUL DUP7 ADD ADD MLOAD PUSH2 0x185F SWAP1 PUSH1 0x20 DUP1 DUP5 MUL DUP8 ADD ADD MLOAD PUSH2 0x8E5 JUMP JUMPDEST DUP3 DUP3 DUP2 MLOAD DUP2 LT PUSH2 0x1871 JUMPI PUSH2 0x1871 PUSH2 0x4EC2 JUMP JUMPDEST PUSH1 0x20 SWAP1 DUP2 MUL SWAP2 SWAP1 SWAP2 ADD ADD MSTORE PUSH1 0x1 ADD PUSH2 0x183B JUMP JUMPDEST POP SWAP4 SWAP3 POP POP POP JUMP JUMPDEST PUSH0 PUSH2 0x1895 PUSH2 0x3AE6 JUMP JUMPDEST PUSH1 0x8 SLOAD PUSH4 0xFFFFFFFF AND DUP6 LT DUP1 ISZERO SWAP1 PUSH2 0x18C0 JUMPI POP PUSH1 0x8 SLOAD PUSH4 0xFFFFFFFF PUSH1 0x1 PUSH1 0xC0 SHL SWAP1 SWAP2 DIV DUP2 AND SWAP1 DUP6 AND LT ISZERO JUMPDEST DUP1 ISZERO PUSH2 0x18E0 JUMPI POP PUSH1 0x8 SLOAD PUSH4 0xFFFFFFFF PUSH5 0x100000000 SWAP1 SWAP2 DIV DUP2 AND SWAP1 DUP5 AND LT ISZERO JUMPDEST DUP1 ISZERO PUSH2 0x18FF JUMPI POP PUSH1 0x8 SLOAD PUSH4 0xFFFFFFFF PUSH1 0x1 PUSH1 0x40 SHL SWAP1 SWAP2 DIV DUP2 AND SWAP1 DUP5 AND GT ISZERO JUMPDEST DUP1 ISZERO PUSH2 0x191E JUMPI POP PUSH1 0x8 SLOAD PUSH4 0xFFFFFFFF PUSH1 0x1 PUSH1 0x80 SHL SWAP1 SWAP2 DIV DUP2 AND SWAP1 DUP4 AND LT ISZERO JUMPDEST DUP1 ISZERO PUSH2 0x193D JUMPI POP PUSH1 0x8 SLOAD PUSH4 0xFFFFFFFF PUSH1 0x1 PUSH1 0xA0 SHL SWAP1 SWAP2 DIV DUP2 AND SWAP1 DUP4 AND GT ISZERO JUMPDEST PUSH2 0x1989 JUMPI PUSH1 0x40 MLOAD PUSH3 0x461BCD PUSH1 0xE5 SHL DUP2 MSTORE PUSH1 0x20 PUSH1 0x4 DUP3 ADD MSTORE PUSH1 0x1D PUSH1 0x24 DUP3 ADD MSTORE PUSH32 0x5032504C656E64696E673A496E76616C696420617267756D656E747321000000 PUSH1 0x44 DUP3 ADD MSTORE PUSH1 0x64 ADD PUSH2 0xA14 JUMP JUMPDEST PUSH2 0x199C CALLER ADDRESS DUP8 PUSH1 0x7 SLOAD PUSH2 0xED2 SWAP2 SWAP1 PUSH2 0x4DCE JUMP JUMPDEST PUSH2 0x19B8 CALLER PUSH1 0xD SLOAD DUP8 PUSH1 0x40 MLOAD DUP1 PUSH1 0x20 ADD PUSH1 0x40 MSTORE DUP1 PUSH0 DUP2 MSTORE POP PUSH2 0x3B8C JUMP JUMPDEST PUSH1 0x40 DUP1 MLOAD PUSH2 0x100 DUP2 ADD DUP3 MSTORE DUP7 DUP2 MSTORE PUSH1 0x7 SLOAD PUSH1 0x20 DUP3 ADD MSTORE PUSH1 0xA SLOAD PUSH1 0x1 PUSH1 0x1 PUSH1 0xA0 SHL SUB AND SWAP2 DUP2 ADD SWAP2 SWAP1 SWAP2 MSTORE PUSH1 0x60 DUP2 ADD PUSH2 0x19F2 DUP6 PUSH3 0x15180 PUSH2 0x4ED6 JUMP JUMPDEST PUSH4 0xFFFFFFFF AND PUSH1 0x1 PUSH1 0x1 PUSH1 0x60 SHL SUB AND DUP2 MSTORE PUSH1 0x20 ADD DUP4 PUSH4 0xFFFFFFFF AND DUP2 MSTORE PUSH1 0x20 ADD DUP6 PUSH4 0xFFFFFFFF AND DUP2 MSTORE PUSH1 0x20 ADD PUSH1 0x8 PUSH1 0x1C SWAP1 SLOAD SWAP1 PUSH2 0x100 EXP SWAP1 DIV PUSH4 0xFFFFFFFF AND PUSH4 0xFFFFFFFF AND DUP2 MSTORE PUSH1 0x20 ADD PUSH0 PUSH1 0x1 PUSH1 0x1 PUSH1 0x60 SHL SUB AND DUP2 MSTORE POP PUSH1 0xB PUSH0 PUSH1 0xD SLOAD DUP2 MSTORE PUSH1 0x20 ADD SWAP1 DUP2 MSTORE PUSH1 0x20 ADD PUSH0 KECCAK256 PUSH0 DUP3 ADD MLOAD DUP2 PUSH0 ADD SSTORE PUSH1 0x20 DUP3 ADD MLOAD DUP2 PUSH1 0x1 ADD SSTORE PUSH1 0x40 DUP3 ADD MLOAD DUP2 PUSH1 0x2 ADD PUSH0 PUSH2 0x100 EXP DUP2 SLOAD DUP2 PUSH1 0x1 PUSH1 0x1 PUSH1 0xA0 SHL SUB MUL NOT AND SWAP1 DUP4 PUSH1 0x1 PUSH1 0x1 PUSH1 0xA0 SHL SUB AND MUL OR SWAP1 SSTORE POP PUSH1 0x60 DUP3 ADD MLOAD DUP2 PUSH1 0x2 ADD PUSH1 0x14 PUSH2 0x100 EXP DUP2 SLOAD DUP2 PUSH1 0x1 PUSH1 0x1 PUSH1 0x60 SHL SUB MUL NOT AND SWAP1 DUP4 PUSH1 0x1 PUSH1 0x1 PUSH1 0x60 SHL SUB AND MUL OR SWAP1 SSTORE POP PUSH1 0x80 DUP3 ADD MLOAD DUP2 PUSH1 0x3 ADD PUSH0 PUSH2 0x100 EXP DUP2 SLOAD DUP2 PUSH4 0xFFFFFFFF MUL NOT AND SWAP1 DUP4 PUSH4 0xFFFFFFFF AND MUL OR SWAP1 SSTORE POP PUSH1 0xA0 DUP3 ADD MLOAD DUP2 PUSH1 0x3 ADD PUSH1 0x4 PUSH2 0x100 EXP DUP2 SLOAD DUP2 PUSH4 0xFFFFFFFF MUL NOT AND SWAP1 DUP4 PUSH4 0xFFFFFFFF AND MUL OR SWAP1 SSTORE POP PUSH1 0xC0 DUP3 ADD MLOAD DUP2 PUSH1 0x3 ADD PUSH1 0x8 PUSH2 0x100 EXP DUP2 SLOAD DUP2 PUSH4 0xFFFFFFFF MUL NOT AND SWAP1 DUP4 PUSH4 0xFFFFFFFF AND MUL OR SWAP1 SSTORE POP PUSH1 0xE0 DUP3 ADD MLOAD DUP2 PUSH1 0x3 ADD PUSH1 0xC PUSH2 0x100 EXP DUP2 SLOAD DUP2 PUSH1 0x1 PUSH1 0x1 PUSH1 0x60 SHL SUB MUL NOT AND SWAP1 DUP4 PUSH1 0x1 PUSH1 0x1 PUSH1 0x60 SHL SUB AND MUL OR SWAP1 SSTORE POP SWAP1 POP POP PUSH1 0x40 MLOAD DUP1 PUSH1 0xA0 ADD PUSH1 0x40 MSTORE DUP1 PUSH0 PUSH1 0x1 PUSH1 0x1 PUSH1 0xA0 SHL SUB AND DUP2 MSTORE PUSH1 0x20 ADD PUSH0 PUSH1 0x1 PUSH1 0x1 PUSH1 0x60 SHL SUB AND DUP2 MSTORE PUSH1 0x20 ADD PUSH0 DUP2 MSTORE PUSH1 0x20 ADD PUSH0 DUP2 MSTORE PUSH1 0x20 ADD PUSH0 PUSH1 0x1 PUSH1 0x1 PUSH1 0x60 SHL SUB AND DUP2 MSTORE POP PUSH1 0xC PUSH0 PUSH1 0xD SLOAD DUP2 MSTORE PUSH1 0x20 ADD SWAP1 DUP2 MSTORE PUSH1 0x20 ADD PUSH0 KECCAK256 PUSH0 DUP3 ADD MLOAD DUP2 PUSH0 ADD PUSH0 PUSH2 0x100 EXP DUP2 SLOAD DUP2 PUSH1 0x1 PUSH1 0x1 PUSH1 0xA0 SHL SUB MUL NOT AND SWAP1 DUP4 PUSH1 0x1 PUSH1 0x1 PUSH1 0xA0 SHL SUB AND MUL OR SWAP1 SSTORE POP PUSH1 0x20 DUP3 ADD MLOAD DUP2 PUSH0 ADD PUSH1 0x14 PUSH2 0x100 EXP DUP2 SLOAD DUP2 PUSH1 0x1 PUSH1 0x1 PUSH1 0x60 SHL SUB MUL NOT AND SWAP1 DUP4 PUSH1 0x1 PUSH1 0x1 PUSH1 0x60 SHL SUB AND MUL OR SWAP1 SSTORE POP PUSH1 0x40 DUP3 ADD MLOAD DUP2 PUSH1 0x1 ADD SSTORE PUSH1 0x60 DUP3 ADD MLOAD DUP2 PUSH1 0x2 ADD SSTORE PUSH1 0x80 DUP3 ADD MLOAD DUP2 PUSH1 0x3 ADD PUSH0 PUSH2 0x100 EXP DUP2 SLOAD DUP2 PUSH1 0x1 PUSH1 0x1 PUSH1 0x60 SHL SUB MUL NOT AND SWAP1 DUP4 PUSH1 0x1 PUSH1 0x1 PUSH1 0x60 SHL SUB AND MUL OR SWAP1 SSTORE POP SWAP1 POP POP PUSH2 0x1C60 CALLER SWAP1 JUMP JUMPDEST PUSH1 0xD SLOAD PUSH0 DUP2 DUP2 MSTORE PUSH1 0xB PUSH1 0x20 SWAP1 DUP2 MSTORE PUSH1 0x40 SWAP2 DUP3 SWAP1 KECCAK256 DUP1 SLOAD PUSH1 0x1 DUP3 ADD SLOAD PUSH1 0x2 DUP4 ADD SLOAD PUSH1 0x3 SWAP1 SWAP4 ADD SLOAD DUP6 MLOAD SWAP3 DUP4 MSTORE SWAP4 DUP3 ADD MSTORE PUSH1 0x1 PUSH1 0x1 PUSH1 0xA0 SHL SUB DUP1 DUP4 AND SWAP5 DUP3 ADD SWAP5 SWAP1 SWAP5 MSTORE PUSH1 0x1 PUSH1 0x1 PUSH1 0x60 SHL SUB PUSH1 0x1 PUSH1 0xA0 SHL SWAP1 SWAP3 DIV DUP3 AND PUSH1 0x60 DUP3 ADD MSTORE PUSH4 0xFFFFFFFF DUP1 DUP5 AND PUSH1 0x80 DUP4 ADD MSTORE PUSH5 0x100000000 DUP5 DIV DUP2 AND PUSH1 0xA0 DUP4 ADD MSTORE PUSH1 0x1 PUSH1 0x40 SHL DUP5 DIV AND PUSH1 0xC0 DUP3 ADD MSTORE PUSH1 0x1 PUSH1 0x60 SHL SWAP1 SWAP3 DIV AND PUSH1 0xE0 DUP3 ADD MSTORE SWAP3 AND SWAP2 PUSH32 0x2F89D5518972EF9F2027AA908AE490B2BD691FBD59E127D7BADCDB6BF75551D6 SWAP1 PUSH2 0x100 ADD PUSH1 0x40 MLOAD DUP1 SWAP2 SUB SWAP1 LOG3 PUSH1 0xD DUP1 SLOAD SWAP1 PUSH0 PUSH2 0x1D2F DUP4 PUSH2 0x4EF5 JUMP JUMPDEST SWAP2 SWAP1 POP SSTORE SWAP1 POP PUSH2 0x1D3F PUSH1 0x1 PUSH1 0x6 SSTORE JUMP JUMPDEST SWAP5 SWAP4 POP POP POP POP JUMP JUMPDEST PUSH2 0x1D4F PUSH2 0x3C4C JUMP JUMPDEST PUSH1 0xA DUP1 SLOAD PUSH1 0x1 PUSH1 0x1 PUSH1 0xA0 SHL SUB NOT AND PUSH1 0x1 PUSH1 0x1 PUSH1 0xA0 SHL SUB DUP4 AND SWAP1 DUP2 OR SWAP1 SWAP2 SSTORE PUSH1 0x40 MLOAD SWAP1 DUP2 MSTORE PUSH32 0x88A686E0E341D9099F2F990C3AA759A86822142A67579064B43DED9354A25662 SWAP1 PUSH1 0x20 ADD PUSH2 0x125D JUMP JUMPDEST PUSH2 0x1DA5 PUSH2 0x3AE6 JUMP JUMPDEST DUP2 PUSH0 DUP2 GT DUP1 ISZERO PUSH2 0x1DB6 JUMPI POP PUSH1 0xD SLOAD DUP2 LT JUMPDEST PUSH2 0x1DF5 JUMPI PUSH1 0x40 MLOAD PUSH3 0x461BCD PUSH1 0xE5 SHL DUP2 MSTORE PUSH1 0x20 PUSH1 0x4 DUP3 ADD MSTORE PUSH1 0x10 PUSH1 0x24 DUP3 ADD MSTORE PUSH16 0x496E76616C6964204C6F616E20494421 PUSH1 0x80 SHL PUSH1 0x44 DUP3 ADD MSTORE PUSH1 0x64 ADD PUSH2 0xA14 JUMP JUMPDEST PUSH1 0x4 PUSH2 0x1E00 DUP5 PUSH2 0xBAA JUMP JUMPDEST PUSH1 0x5 DUP2 GT ISZERO PUSH2 0x1E11 JUMPI PUSH2 0x1E11 PUSH2 0x4715 JUMP JUMPDEST EQ PUSH2 0x1E70 JUMPI PUSH1 0x40 MLOAD PUSH3 0x461BCD PUSH1 0xE5 SHL DUP2 MSTORE PUSH1 0x20 PUSH1 0x4 DUP3 ADD MSTORE PUSH1 0x29 PUSH1 0x24 DUP3 ADD MSTORE PUSH32 0x5032504C656E64696E673A4C6F616E537461747573206D75737420657175616C PUSH1 0x44 DUP3 ADD MSTORE PUSH9 0x732041435449564521 PUSH1 0xB8 SHL PUSH1 0x64 DUP3 ADD MSTORE PUSH1 0x84 ADD PUSH2 0xA14 JUMP JUMPDEST PUSH0 DUP4 DUP2 MSTORE PUSH1 0xC PUSH1 0x20 MSTORE PUSH1 0x40 SWAP1 KECCAK256 DUP1 SLOAD PUSH1 0x1 PUSH1 0x1 PUSH1 0xA0 SHL SUB AND CALLER EQ PUSH2 0x1ED6 JUMPI PUSH1 0x40 MLOAD PUSH3 0x461BCD PUSH1 0xE5 SHL DUP2 MSTORE PUSH1 0x20 PUSH1 0x4 DUP3 ADD MSTORE PUSH1 0x1F PUSH1 0x24 DUP3 ADD MSTORE PUSH32 0x5032504C656E64696E673A43616C6C6572206973206E6F74206F776E65722100 PUSH1 0x44 DUP3 ADD MSTORE PUSH1 0x64 ADD PUSH2 0xA14 JUMP JUMPDEST DUP1 SLOAD PUSH2 0x1F10 SWAP1 PUSH1 0x1 PUSH1 0x1 PUSH1 0xA0 SHL SUB PUSH32 0x0 DUP2 AND SWAP2 AND ADDRESS DUP7 PUSH2 0x3B1F JUMP JUMPDEST DUP3 DUP2 PUSH1 0x1 ADD PUSH0 DUP3 DUP3 SLOAD PUSH2 0x1F23 SWAP2 SWAP1 PUSH2 0x4E23 JUMP JUMPDEST SWAP1 SWAP2 SSTORE POP POP PUSH1 0x40 MLOAD DUP4 DUP2 MSTORE DUP5 SWAP1 PUSH32 0x8CC7F16CD883F4AF720102359F36F5A11402BA74BA5515E43B36EEA9EDDFF23C SWAP1 PUSH1 0x20 ADD PUSH1 0x40 MLOAD DUP1 SWAP2 SUB SWAP1 LOG2 PUSH2 0x1F66 DUP5 PUSH2 0x3CA9 JUMP JUMPDEST POP POP PUSH2 0x1F72 PUSH1 0x1 PUSH1 0x6 SSTORE JUMP JUMPDEST POP POP JUMP JUMPDEST PUSH2 0x1F7E PUSH2 0x3AE6 JUMP JUMPDEST DUP1 PUSH0 DUP2 GT DUP1 ISZERO PUSH2 0x1F8F JUMPI POP PUSH1 0xD SLOAD DUP2 LT JUMPDEST PUSH2 0x1FCE JUMPI PUSH1 0x40 MLOAD PUSH3 0x461BCD PUSH1 0xE5 SHL DUP2 MSTORE PUSH1 0x20 PUSH1 0x4 DUP3 ADD MSTORE PUSH1 0x10 PUSH1 0x24 DUP3 ADD MSTORE PUSH16 0x496E76616C6964204C6F616E20494421 PUSH1 0x80 SHL PUSH1 0x44 DUP3 ADD MSTORE PUSH1 0x64 ADD PUSH2 0xA14 JUMP JUMPDEST PUSH0 DUP3 DUP2 MSTORE PUSH1 0xC PUSH1 0x20 MSTORE PUSH1 0x40 SWAP1 KECCAK256 DUP1 SLOAD PUSH1 0x1 PUSH1 0x1 PUSH1 0xA0 SHL SUB AND CALLER EQ PUSH2 0x2034 JUMPI PUSH1 0x40 MLOAD PUSH3 0x461BCD PUSH1 0xE5 SHL DUP2 MSTORE PUSH1 0x20 PUSH1 0x4 DUP3 ADD MSTORE PUSH1 0x1F PUSH1 0x24 DUP3 ADD MSTORE PUSH32 0x5032504C656E64696E673A43616C6C6572206973206E6F74206F776E65722100 PUSH1 0x44 DUP3 ADD MSTORE PUSH1 0x64 ADD PUSH2 0xA14 JUMP JUMPDEST DUP1 SLOAD PUSH1 0x1 PUSH1 0xA0 SHL SWAP1 DIV PUSH1 0x1 PUSH1 0x1 PUSH1 0x60 SHL SUB AND ISZERO DUP1 ISZERO PUSH2 0x2056 JUMPI POP PUSH0 DUP2 PUSH1 0x1 ADD SLOAD GT JUMPDEST PUSH2 0x20A2 JUMPI PUSH1 0x40 MLOAD PUSH3 0x461BCD PUSH1 0xE5 SHL DUP2 MSTORE PUSH1 0x20 PUSH1 0x4 DUP3 ADD MSTORE PUSH1 0x1B PUSH1 0x24 DUP3 ADD MSTORE PUSH32 0x5032504C656E64696E673A43616E6E6F74205769746864726177210000000000 PUSH1 0x44 DUP3 ADD MSTORE PUSH1 0x64 ADD PUSH2 0xA14 JUMP JUMPDEST PUSH1 0x1 PUSH2 0x20AD DUP5 PUSH2 0xBAA JUMP JUMPDEST PUSH1 0x5 DUP2 GT ISZERO PUSH2 0x20BE JUMPI PUSH2 0x20BE PUSH2 0x4715 JUMP JUMPDEST EQ DUP1 ISZERO PUSH2 0x20ED JUMPI POP PUSH0 DUP4 DUP2 MSTORE PUSH1 0xB PUSH1 0x20 MSTORE PUSH1 0x40 SWAP1 KECCAK256 PUSH1 0x3 ADD SLOAD PUSH1 0x1 PUSH1 0x1 PUSH1 0x60 SHL SUB TIMESTAMP DUP2 AND PUSH1 0x1 PUSH1 0x60 SHL SWAP1 SWAP3 DIV AND LT JUMPDEST ISZERO PUSH2 0x2136 JUMPI DUP1 SLOAD PUSH1 0x1 DUP3 ADD SLOAD PUSH2 0x2131 SWAP2 PUSH1 0x1 PUSH1 0x1 PUSH1 0xA0 SHL SUB PUSH32 0x0 DUP2 AND SWAP3 SWAP2 AND SWAP1 PUSH2 0x3C78 JUMP JUMPDEST PUSH2 0x21FD JUMP JUMPDEST PUSH0 PUSH2 0x2143 PUSH1 0x4 PUSH1 0xA PUSH2 0x4FF0 JUMP JUMPDEST PUSH1 0x1 DUP4 ADD SLOAD PUSH1 0x9 SLOAD PUSH2 0x215B SWAP2 SWAP1 PUSH4 0xFFFFFFFF AND PUSH2 0x4DCE JUMP JUMPDEST PUSH2 0x2165 SWAP2 SWAP1 PUSH2 0x4E04 JUMP JUMPDEST PUSH1 0x9 SLOAD SWAP1 SWAP2 POP PUSH2 0x21AA SWAP1 PUSH1 0x1 PUSH1 0x1 PUSH1 0xA0 SHL SUB PUSH32 0x0 DUP2 AND SWAP2 PUSH5 0x100000000 SWAP1 DIV AND DUP4 PUSH2 0x3C78 JUMP JUMPDEST DUP2 SLOAD PUSH1 0x1 DUP4 ADD SLOAD PUSH2 0x21FB SWAP2 PUSH1 0x1 PUSH1 0x1 PUSH1 0xA0 SHL SUB AND SWAP1 PUSH2 0x21CA SWAP1 DUP5 SWAP1 PUSH2 0x4DBB JUMP JUMPDEST PUSH1 0x1 PUSH1 0x1 PUSH1 0xA0 SHL SUB PUSH32 0x0 AND SWAP2 SWAP1 PUSH2 0x3C78 JUMP JUMPDEST POP JUMPDEST PUSH0 PUSH1 0x1 DUP3 DUP2 ADD DUP3 SWAP1 SSTORE DUP5 DUP3 MSTORE PUSH1 0xB PUSH1 0x20 SWAP1 DUP2 MSTORE PUSH1 0x40 DUP1 DUP5 KECCAK256 SWAP1 SWAP3 ADD SLOAD PUSH1 0x4 SWAP1 SWAP2 MSTORE SWAP2 KECCAK256 SLOAD PUSH2 0x222B SWAP2 SWAP1 PUSH2 0x4DCE JUMP JUMPDEST PUSH1 0x2 DUP3 ADD SSTORE PUSH1 0x40 MLOAD DUP4 SWAP1 PUSH32 0xFC226BCC04F8F8905AF4229A5D361773B6BB568167898414274C713C6179E6CB SWAP1 PUSH0 SWAP1 LOG2 PUSH2 0x2263 DUP4 PUSH2 0x3CA9 JUMP JUMPDEST POP POP PUSH2 0x152B PUSH1 0x1 PUSH1 0x6 SSTORE JUMP JUMPDEST PUSH2 0x2277 PUSH2 0x3AE6 JUMP JUMPDEST DUP1 PUSH0 DUP2 GT DUP1 ISZERO PUSH2 0x2288 JUMPI POP PUSH1 0xD SLOAD DUP2 LT JUMPDEST PUSH2 0x22C7 JUMPI PUSH1 0x40 MLOAD PUSH3 0x461BCD PUSH1 0xE5 SHL DUP2 MSTORE PUSH1 0x20 PUSH1 0x4 DUP3 ADD MSTORE PUSH1 0x10 PUSH1 0x24 DUP3 ADD MSTORE PUSH16 0x496E76616C6964204C6F616E20494421 PUSH1 0x80 SHL PUSH1 0x44 DUP3 ADD MSTORE PUSH1 0x64 ADD PUSH2 0xA14 JUMP JUMPDEST PUSH1 0x5 PUSH2 0x22D2 DUP4 PUSH2 0xBAA JUMP JUMPDEST PUSH1 0x5 DUP2 GT ISZERO PUSH2 0x22E3 JUMPI PUSH2 0x22E3 PUSH2 0x4715 JUMP JUMPDEST EQ PUSH2 0x2344 JUMPI PUSH1 0x40 MLOAD PUSH3 0x461BCD PUSH1 0xE5 SHL DUP2 MSTORE PUSH1 0x20 PUSH1 0x4 DUP3 ADD MSTORE PUSH1 0x2B PUSH1 0x24 DUP3 ADD MSTORE PUSH32 0x5032504C656E64696E673A4C6F616E537461747573206D75737420657175616C PUSH1 0x44 DUP3 ADD MSTORE PUSH11 0x732046494E495348454421 PUSH1 0xA8 SHL PUSH1 0x64 DUP3 ADD MSTORE PUSH1 0x84 ADD PUSH2 0xA14 JUMP JUMPDEST PUSH0 PUSH2 0x234F CALLER DUP5 PUSH2 0x8E5 JUMP JUMPDEST SWAP1 POP PUSH0 DUP2 GT PUSH2 0x23A0 JUMPI PUSH1 0x40 MLOAD PUSH3 0x461BCD PUSH1 0xE5 SHL DUP2 MSTORE PUSH1 0x20 PUSH1 0x4 DUP3 ADD MSTORE PUSH1 0x1C PUSH1 0x24 DUP3 ADD MSTORE PUSH32 0x5032504C656E64696E673A4E6F7468696E6720746F20636C61696D2100000000 PUSH1 0x44 DUP3 ADD MSTORE PUSH1 0x64 ADD PUSH2 0xA14 JUMP JUMPDEST PUSH0 DUP4 DUP2 MSTORE PUSH1 0xC PUSH1 0x20 SWAP1 DUP2 MSTORE PUSH1 0x40 DUP1 DUP4 KECCAK256 PUSH1 0x4 SWAP1 SWAP3 MSTORE DUP3 KECCAK256 SLOAD SWAP1 SWAP2 SWAP1 PUSH1 0x2 DUP4 ADD SLOAD PUSH2 0x23CA SWAP1 DUP6 PUSH2 0x4DCE JUMP JUMPDEST PUSH2 0x23D4 SWAP2 SWAP1 PUSH2 0x4E04 JUMP JUMPDEST SWAP1 POP DUP1 DUP3 PUSH1 0x2 ADD PUSH0 DUP3 DUP3 SLOAD PUSH2 0x23E9 SWAP2 SWAP1 PUSH2 0x4DBB JUMP JUMPDEST SWAP1 SWAP2 SSTORE POP PUSH2 0x23FA SWAP1 POP CALLER DUP7 DUP6 PUSH2 0x3D34 JUMP JUMPDEST PUSH2 0x242E PUSH32 0x0 PUSH1 0x1 PUSH1 0x1 PUSH1 0xA0 SHL SUB AND CALLER DUP4 PUSH2 0x3C78 JUMP JUMPDEST PUSH1 0x40 DUP1 MLOAD DUP5 DUP2 MSTORE PUSH1 0x20 DUP2 ADD DUP4 SWAP1 MSTORE CALLER SWAP2 DUP8 SWAP2 PUSH32 0xFCDAABBCAC647C42F2FBF34F6C5A49EE8A8CD0B64EF5EB50B25441BDB133DDF2 SWAP2 ADD PUSH1 0x40 MLOAD DUP1 SWAP2 SUB SWAP1 LOG3 PUSH2 0x2474 DUP6 PUSH2 0x3CA9 JUMP JUMPDEST POP POP POP POP PUSH2 0x152B PUSH1 0x1 PUSH1 0x6 SSTORE JUMP JUMPDEST PUSH2 0x248A PUSH2 0x3C4C JUMP JUMPDEST PUSH2 0x2493 PUSH0 PUSH2 0x3D9A JUMP JUMPDEST JUMP JUMPDEST PUSH0 PUSH2 0x249E PUSH2 0x3AE6 JUMP JUMPDEST PUSH1 0x8 SLOAD PUSH4 0xFFFFFFFF AND DUP10 LT DUP1 ISZERO SWAP1 PUSH2 0x24C9 JUMPI POP PUSH1 0x8 SLOAD PUSH4 0xFFFFFFFF PUSH1 0x1 PUSH1 0xC0 SHL SWAP1 SWAP2 DIV DUP2 AND SWAP1 DUP9 AND LT ISZERO JUMPDEST DUP1 ISZERO PUSH2 0x24E9 JUMPI POP PUSH1 0x8 SLOAD PUSH4 0xFFFFFFFF PUSH5 0x100000000 SWAP1 SWAP2 DIV DUP2 AND SWAP1 DUP8 AND LT ISZERO JUMPDEST DUP1 ISZERO PUSH2 0x2508 JUMPI POP PUSH1 0x8 SLOAD PUSH4 0xFFFFFFFF PUSH1 0x1 PUSH1 0x40 SHL SWAP1 SWAP2 DIV DUP2 AND SWAP1 DUP8 AND GT ISZERO JUMPDEST DUP1 ISZERO PUSH2 0x2527 JUMPI POP PUSH1 0x8 SLOAD PUSH4 0xFFFFFFFF PUSH1 0x1 PUSH1 0x80 SHL SWAP1 SWAP2 DIV DUP2 AND SWAP1 DUP7 AND LT ISZERO JUMPDEST DUP1 ISZERO PUSH2 0x2546 JUMPI POP PUSH1 0x8 SLOAD PUSH4 0xFFFFFFFF PUSH1 0x1 PUSH1 0xA0 SHL SWAP1 SWAP2 DIV DUP2 AND SWAP1 DUP7 AND GT ISZERO JUMPDEST DUP1 ISZERO PUSH2 0x2565 JUMPI POP PUSH1 0x8 SLOAD PUSH4 0xFFFFFFFF PUSH1 0x1 PUSH1 0x60 SHL SWAP1 SWAP2 DIV DUP2 AND SWAP1 DUP6 AND LT ISZERO JUMPDEST PUSH2 0x25B1 JUMPI PUSH1 0x40 MLOAD PUSH3 0x461BCD PUSH1 0xE5 SHL DUP2 MSTORE PUSH1 0x20 PUSH1 0x4 DUP3 ADD MSTORE PUSH1 0x1D PUSH1 0x24 DUP3 ADD MSTORE PUSH32 0x5032504C656E64696E673A496E76616C696420617267756D656E747321000000 PUSH1 0x44 DUP3 ADD MSTORE PUSH1 0x64 ADD PUSH2 0xA14 JUMP JUMPDEST PUSH0 DUP10 PUSH1 0x7 SLOAD PUSH2 0x25C0 SWAP2 SWAP1 PUSH2 0x4DCE JUMP JUMPDEST SWAP1 POP PUSH0 PUSH2 0x25CF PUSH1 0x4 PUSH1 0xA PUSH2 0x4FF0 JUMP JUMPDEST PUSH1 0xA SLOAD PUSH2 0x25E8 SWAP1 DUP5 SWAP1 PUSH1 0x1 PUSH1 0x1 PUSH1 0xA0 SHL SUB AND DUP9 DUP9 PUSH2 0x3DE9 JUMP JUMPDEST PUSH2 0x25F8 SWAP1 PUSH4 0xFFFFFFFF DUP13 AND PUSH2 0x4DCE JUMP JUMPDEST PUSH2 0x2602 SWAP2 SWAP1 PUSH2 0x4E04 JUMP JUMPDEST SWAP1 POP DUP1 DUP11 LT ISZERO DUP1 ISZERO PUSH2 0x2613 JUMPI POP PUSH0 DUP2 GT JUMPDEST PUSH2 0x266F JUMPI PUSH1 0x40 MLOAD PUSH3 0x461BCD PUSH1 0xE5 SHL DUP2 MSTORE PUSH1 0x20 PUSH1 0x4 DUP3 ADD MSTORE PUSH1 0x27 PUSH1 0x24 DUP3 ADD MSTORE PUSH32 0x5032504C656E64696E673A496E637265617365206D61785F636F6C6C61746572 PUSH1 0x44 DUP3 ADD MSTORE PUSH7 0x616C5F6F757421 PUSH1 0xC8 SHL PUSH1 0x64 DUP3 ADD MSTORE PUSH1 0x84 ADD PUSH2 0xA14 JUMP JUMPDEST PUSH2 0x26A4 PUSH32 0x0 PUSH1 0x1 PUSH1 0x1 PUSH1 0xA0 SHL SUB AND CALLER ADDRESS DUP5 PUSH2 0x3B1F JUMP JUMPDEST PUSH1 0x40 DUP1 MLOAD PUSH2 0x100 DUP2 ADD DUP3 MSTORE DUP13 DUP2 MSTORE PUSH1 0x7 SLOAD PUSH1 0x20 DUP3 ADD MSTORE PUSH1 0xA SLOAD PUSH1 0x1 PUSH1 0x1 PUSH1 0xA0 SHL SUB AND SWAP2 DUP2 ADD SWAP2 SWAP1 SWAP2 MSTORE PUSH1 0x60 DUP2 ADD PUSH2 0x26DE DUP11 PUSH3 0x15180 PUSH2 0x4ED6 JUMP JUMPDEST PUSH4 0xFFFFFFFF SWAP1 DUP2 AND DUP3 MSTORE DUP10 DUP2 AND PUSH1 0x20 DUP4 ADD MSTORE DUP12 DUP2 AND PUSH1 0x40 DUP4 ADD MSTORE PUSH1 0x8 SLOAD PUSH1 0x1 PUSH1 0xE0 SHL SWAP1 DIV AND PUSH1 0x60 DUP3 ADD MSTORE PUSH1 0x80 ADD PUSH2 0x2718 DUP9 PUSH3 0x15180 PUSH2 0x4ED6 JUMP JUMPDEST PUSH2 0x2728 SWAP1 PUSH4 0xFFFFFFFF AND TIMESTAMP PUSH2 0x4DE5 JUMP JUMPDEST PUSH1 0x1 PUSH1 0x1 PUSH1 0x60 SHL SUB SWAP1 DUP2 AND SWAP1 SWAP2 MSTORE PUSH1 0xD SLOAD PUSH0 SWAP1 DUP2 MSTORE PUSH1 0xB PUSH1 0x20 SWAP1 DUP2 MSTORE PUSH1 0x40 SWAP2 DUP3 SWAP1 KECCAK256 DUP5 MLOAD DUP2 SSTORE SWAP1 DUP5 ADD MLOAD PUSH1 0x1 DUP3 ADD SSTORE DUP4 DUP3 ADD MLOAD PUSH1 0x60 DUP6 ADD MLOAD DUP5 AND PUSH1 0x1 PUSH1 0xA0 SHL MUL PUSH1 0x1 PUSH1 0x1 PUSH1 0xA0 SHL SUB SWAP1 SWAP2 AND OR PUSH1 0x2 DUP3 ADD SSTORE PUSH1 0x80 DUP5 ADD MLOAD PUSH1 0x3 SWAP1 SWAP2 ADD DUP1 SLOAD PUSH1 0xA0 DUP1 DUP8 ADD MLOAD PUSH1 0xC0 DUP9 ADD MLOAD PUSH1 0xE0 SWAP1 SWAP9 ADD MLOAD SWAP1 SWAP7 AND PUSH1 0x1 PUSH1 0x60 SHL MUL PUSH32 0xFFFFFFFFFFFFFFFF000000000000000000000000FFFFFFFFFFFFFFFFFFFFFFFF PUSH4 0xFFFFFFFF SWAP9 DUP10 AND PUSH1 0x1 PUSH1 0x40 SHL MUL AND PUSH32 0xFFFFFFFFFFFFFFFF00000000000000000000000000000000FFFFFFFFFFFFFFFF SWAP8 DUP10 AND PUSH5 0x100000000 MUL PUSH8 0xFFFFFFFFFFFFFFFF NOT SWAP1 SWAP5 AND SWAP9 SWAP1 SWAP6 AND SWAP8 SWAP1 SWAP8 OR SWAP2 SWAP1 SWAP2 OR SWAP5 SWAP1 SWAP5 AND SWAP2 SWAP1 SWAP2 OR SWAP4 SWAP1 SWAP4 OR SWAP1 SWAP3 SSTORE DUP2 MLOAD SWAP1 DUP2 ADD SWAP1 SWAP2 MSTORE DUP1 PUSH2 0x2832 CALLER SWAP1 JUMP JUMPDEST PUSH1 0x1 PUSH1 0x1 PUSH1 0xA0 SHL SUB SWAP1 DUP2 AND DUP3 MSTORE PUSH0 PUSH1 0x20 DUP1 DUP5 ADD DUP3 SWAP1 MSTORE PUSH1 0x40 DUP1 DUP6 ADD DUP8 SWAP1 MSTORE PUSH1 0x60 DUP1 DUP7 ADD DUP5 SWAP1 MSTORE PUSH1 0x80 SWAP6 DUP7 ADD DUP5 SWAP1 MSTORE PUSH1 0xD DUP1 SLOAD DUP6 MSTORE PUSH1 0xC DUP5 MSTORE DUP3 DUP6 KECCAK256 DUP9 MLOAD DUP10 DUP7 ADD MLOAD SWAP1 DUP9 AND PUSH1 0x1 PUSH1 0xA0 SHL PUSH1 0x1 PUSH1 0x1 PUSH1 0x60 SHL SUB SWAP3 DUP4 AND DUP2 MUL SWAP2 SWAP1 SWAP2 OR DUP4 SSTORE DUP11 DUP7 ADD MLOAD PUSH1 0x1 DUP1 DUP6 ADD SWAP2 SWAP1 SWAP2 SSTORE DUP12 DUP7 ADD MLOAD PUSH1 0x2 DUP1 DUP7 ADD SWAP2 SWAP1 SWAP2 SSTORE SWAP12 DUP12 ADD MLOAD PUSH1 0x3 SWAP5 DUP6 ADD DUP1 SLOAD PUSH12 0xFFFFFFFFFFFFFFFFFFFFFFFF NOT AND SWAP2 DUP6 AND SWAP2 SWAP1 SWAP2 OR SWAP1 SSTORE SWAP4 SLOAD DUP1 DUP10 MSTORE PUSH1 0xB DUP9 MSTORE SWAP8 DUP7 SWAP1 KECCAK256 DUP1 SLOAD SWAP5 DUP2 ADD SLOAD SWAP12 DUP2 ADD SLOAD SWAP4 ADD SLOAD DUP7 MLOAD SWAP5 DUP6 MSTORE SWAP7 DUP5 ADD SWAP11 SWAP1 SWAP11 MSTORE SWAP7 DUP2 AND SWAP4 DUP3 ADD SWAP4 SWAP1 SWAP4 MSTORE SWAP7 SWAP1 SWAP2 DIV DUP5 AND SWAP1 DUP7 ADD MSTORE PUSH4 0xFFFFFFFF DUP1 DUP3 AND SWAP5 DUP7 ADD SWAP5 SWAP1 SWAP5 MSTORE PUSH5 0x100000000 DUP2 DIV DUP5 AND PUSH1 0xA0 DUP7 ADD MSTORE PUSH1 0x1 PUSH1 0x40 SHL DUP2 DIV SWAP1 SWAP4 AND PUSH1 0xC0 DUP6 ADD MSTORE PUSH1 0x1 PUSH1 0x60 SHL SWAP1 SWAP3 DIV AND PUSH1 0xE0 DUP4 ADD MSTORE SWAP1 PUSH32 0xE0B5C9EC62AADE94CA24B2AC9D81B2037BE7D64CB9E5730FCC727BB885EE6037 SWAP1 PUSH2 0x100 ADD PUSH1 0x40 MLOAD DUP1 SWAP2 SUB SWAP1 LOG2 PUSH2 0x297A PUSH1 0xD SLOAD PUSH2 0x3CA9 JUMP JUMPDEST PUSH1 0xD DUP1 SLOAD SWAP1 PUSH0 PUSH2 0x2989 DUP4 PUSH2 0x4EF5 JUMP JUMPDEST SWAP2 SWAP1 POP SSTORE SWAP3 POP POP POP PUSH2 0x299B PUSH1 0x1 PUSH1 0x6 SSTORE JUMP JUMPDEST SWAP9 SWAP8 POP POP POP POP POP POP POP POP JUMP JUMPDEST PUSH2 0x29AF PUSH2 0x3AE6 JUMP JUMPDEST DUP2 PUSH0 DUP2 GT DUP1 ISZERO PUSH2 0x29C0 JUMPI POP PUSH1 0xD SLOAD DUP2 LT JUMPDEST PUSH2 0x29FF JUMPI PUSH1 0x40 MLOAD PUSH3 0x461BCD PUSH1 0xE5 SHL DUP2 MSTORE PUSH1 0x20 PUSH1 0x4 DUP3 ADD MSTORE PUSH1 0x10 PUSH1 0x24 DUP3 ADD MSTORE PUSH16 0x496E76616C6964204C6F616E20494421 PUSH1 0x80 SHL PUSH1 0x44 DUP3 ADD MSTORE PUSH1 0x64 ADD PUSH2 0xA14 JUMP JUMPDEST PUSH0 DUP3 GT PUSH2 0x2A61 JUMPI PUSH1 0x40 MLOAD PUSH3 0x461BCD PUSH1 0xE5 SHL DUP2 MSTORE PUSH1 0x20 PUSH1 0x4 DUP3 ADD MSTORE PUSH1 0x2A PUSH1 0x24 DUP3 ADD MSTORE PUSH32 0x5032504C656E64696E673A6C6F7473206D757374206265206772656174657220 PUSH1 0x44 DUP3 ADD MSTORE PUSH10 0x7468616E207A65726F21 PUSH1 0xB0 SHL PUSH1 0x64 DUP3 ADD MSTORE PUSH1 0x84 ADD PUSH2 0xA14 JUMP JUMPDEST PUSH0 PUSH2 0x2A6B DUP5 PUSH2 0xBAA JUMP JUMPDEST PUSH0 DUP6 DUP2 MSTORE PUSH1 0xC PUSH1 0x20 MSTORE PUSH1 0x40 SWAP1 KECCAK256 SLOAD SWAP1 SWAP2 POP PUSH1 0x1 PUSH1 0x1 PUSH1 0xA0 SHL SUB AND ISZERO DUP1 PUSH2 0x2AA2 JUMPI POP PUSH1 0x3 DUP2 PUSH1 0x5 DUP2 GT ISZERO PUSH2 0x2AA0 JUMPI PUSH2 0x2AA0 PUSH2 0x4715 JUMP JUMPDEST EQ JUMPDEST DUP1 PUSH2 0x2AEF JUMPI POP PUSH1 0x1 DUP2 PUSH1 0x5 DUP2 GT ISZERO PUSH2 0x2ABC JUMPI PUSH2 0x2ABC PUSH2 0x4715 JUMP JUMPDEST EQ DUP1 ISZERO PUSH2 0x2AEF JUMPI POP CALLER PUSH0 SWAP1 DUP2 MSTORE PUSH1 0xE PUSH1 0x20 SWAP1 DUP2 MSTORE PUSH1 0x40 DUP1 DUP4 KECCAK256 DUP8 DUP5 MSTORE SWAP1 SWAP2 MSTORE SWAP1 KECCAK256 SLOAD PUSH1 0x1 PUSH1 0x1 PUSH1 0x60 SHL SUB SWAP1 DUP2 AND TIMESTAMP SWAP1 SWAP2 AND GT JUMPDEST PUSH2 0x2B3B JUMPI PUSH1 0x40 MLOAD PUSH3 0x461BCD PUSH1 0xE5 SHL DUP2 MSTORE PUSH1 0x20 PUSH1 0x4 DUP3 ADD MSTORE PUSH1 0x1B PUSH1 0x24 DUP3 ADD MSTORE PUSH32 0x5032504C656E64696E673A43616E6E6F74207769746864726177210000000000 PUSH1 0x44 DUP3 ADD MSTORE PUSH1 0x64 ADD PUSH2 0xA14 JUMP JUMPDEST PUSH2 0x2B46 CALLER DUP6 DUP6 PUSH2 0x3D34 JUMP JUMPDEST PUSH0 DUP5 DUP2 MSTORE PUSH1 0xC PUSH1 0x20 MSTORE PUSH1 0x40 SWAP1 KECCAK256 SLOAD PUSH1 0x1 PUSH1 0x1 PUSH1 0xA0 SHL SUB AND PUSH2 0x2BE3 JUMPI PUSH0 DUP5 DUP2 MSTORE PUSH1 0x4 PUSH1 0x20 MSTORE PUSH1 0x40 SWAP1 KECCAK256 SLOAD DUP1 ISZERO DUP1 PUSH2 0x2B84 JUMPI POP PUSH1 0x8 SLOAD PUSH4 0xFFFFFFFF AND DUP2 LT ISZERO JUMPDEST PUSH2 0x2BE1 JUMPI PUSH1 0x40 MLOAD PUSH3 0x461BCD PUSH1 0xE5 SHL DUP2 MSTORE PUSH1 0x20 PUSH1 0x4 DUP3 ADD MSTORE PUSH1 0x28 PUSH1 0x24 DUP3 ADD MSTORE PUSH32 0x5032504C656E64696E673A537570706C792062656C6F77204D494E5F4C4F5453 PUSH1 0x44 DUP3 ADD MSTORE PUSH8 0x5F414D4F554E5421 PUSH1 0xC0 SHL PUSH1 0x64 DUP3 ADD MSTORE PUSH1 0x84 ADD PUSH2 0xA14 JUMP JUMPDEST POP JUMPDEST PUSH2 0x2C34 CALLER PUSH0 DUP7 DUP2 MSTORE PUSH1 0xB PUSH1 0x20 MSTORE PUSH1 0x40 SWAP1 KECCAK256 PUSH1 0x1 ADD SLOAD PUSH2 0x2C03 SWAP1 DUP7 SWAP1 PUSH2 0x4DCE JUMP JUMPDEST PUSH1 0x1 PUSH1 0x1 PUSH1 0xA0 SHL SUB PUSH32 0x0 AND SWAP2 SWAP1 PUSH2 0x3C78 JUMP JUMPDEST PUSH1 0x40 MLOAD DUP4 DUP2 MSTORE CALLER SWAP1 DUP6 SWAP1 PUSH32 0xBF8FB3D353686A0832043307D6F9BB618DF238D387C7DBC9D0FA2FC7B7CBA726 SWAP1 PUSH1 0x20 ADD PUSH1 0x40 MLOAD DUP1 SWAP2 SUB SWAP1 LOG3 POP POP PUSH2 0x1F72 PUSH1 0x1 PUSH1 0x6 SSTORE JUMP JUMPDEST PUSH2 0x2C7F PUSH2 0x3C4C JUMP JUMPDEST PUSH1 0x8 DUP1 SLOAD PUSH4 0xFFFFFFFF PUSH1 0xC0 SHL NOT AND PUSH1 0x1 PUSH1 0xC0 SHL PUSH4 0xFFFFFFFF DUP5 DUP2 AND DUP3 MUL SWAP3 SWAP1 SWAP3 OR SWAP3 DUP4 SWAP1 SSTORE PUSH1 0x40 MLOAD SWAP3 DIV AND DUP2 MSTORE PUSH32 0xE03AA8E619C2EFC3DCDA53A6319B90BD43E44772026248FFAABC2A1535BBA8E5 SWAP1 PUSH1 0x20 ADD PUSH2 0x125D JUMP JUMPDEST PUSH2 0x1F72 CALLER DUP4 DUP4 PUSH2 0x3E7B JUMP JUMPDEST PUSH2 0x2CE9 PUSH2 0x3C4C JUMP JUMPDEST PUSH1 0x8 DUP1 SLOAD PUSH20 0xFFFFFFFF00000000000000000000000000000000 NOT AND PUSH1 0x1 PUSH1 0x80 SHL PUSH4 0xFFFFFFFF DUP5 DUP2 AND DUP3 MUL SWAP3 SWAP1 SWAP3 OR SWAP3 DUP4 SWAP1 SSTORE PUSH1 0x40 MLOAD SWAP3 DIV AND DUP2 MSTORE PUSH32 0x2519FD4CF837FEFB87387523F27D23369EA51186F29F745CC4677E7C319B3EC0 SWAP1 PUSH1 0x20 ADD PUSH2 0x125D JUMP JUMPDEST PUSH0 PUSH0 DUP5 GT DUP1 ISZERO PUSH2 0x2D5E JUMPI POP PUSH1 0xD SLOAD DUP5 LT JUMPDEST ISZERO DUP1 PUSH2 0x2D84 JUMPI POP PUSH1 0x4 PUSH2 0x2D70 DUP6 PUSH2 0xBAA JUMP JUMPDEST PUSH1 0x5 DUP2 GT ISZERO PUSH2 0x2D81 JUMPI PUSH2 0x2D81 PUSH2 0x4715 JUMP JUMPDEST EQ ISZERO JUMPDEST DUP1 PUSH2 0x2EB0 JUMPI POP PUSH0 DUP5 DUP2 MSTORE PUSH1 0xC PUSH1 0x20 MSTORE PUSH1 0x40 SWAP1 KECCAK256 SLOAD PUSH1 0x1 PUSH1 0x1 PUSH1 0x60 SHL SUB TIMESTAMP DUP2 AND PUSH1 0x1 PUSH1 0xA0 SHL SWAP1 SWAP3 DIV AND LT DUP1 PUSH2 0x2EAE JUMPI POP PUSH0 DUP5 DUP2 MSTORE PUSH1 0xB PUSH1 0x20 SWAP1 DUP2 MSTORE PUSH1 0x40 DUP1 DUP4 KECCAK256 PUSH1 0x3 DUP2 ADD SLOAD PUSH1 0x2 SWAP1 SWAP2 ADD SLOAD PUSH1 0xC SWAP1 SWAP4 MSTORE SWAP3 KECCAK256 PUSH1 0x1 ADD SLOAD PUSH1 0x1 PUSH1 0x40 SHL SWAP1 SWAP3 DIV PUSH4 0xFFFFFFFF AND SWAP2 PUSH1 0x1 PUSH1 0x1 PUSH1 0xA0 SHL SUB SWAP1 SWAP2 AND SWAP1 PUSH4 0x4BBF415C SWAP1 PUSH32 0x0 SWAP1 PUSH1 0x4 SWAP1 PUSH32 0x0 PUSH2 0x2E49 DUP12 PUSH2 0x2F7C JUMP JUMPDEST DUP11 DUP11 PUSH1 0x40 MLOAD DUP9 PUSH4 0xFFFFFFFF AND PUSH1 0xE0 SHL DUP2 MSTORE PUSH1 0x4 ADD PUSH2 0x2E6D SWAP8 SWAP7 SWAP6 SWAP5 SWAP4 SWAP3 SWAP2 SWAP1 PUSH2 0x4E5E JUMP JUMPDEST PUSH1 0x20 PUSH1 0x40 MLOAD DUP1 DUP4 SUB DUP2 DUP7 GAS STATICCALL ISZERO DUP1 ISZERO PUSH2 0x2E88 JUMPI RETURNDATASIZE PUSH0 PUSH0 RETURNDATACOPY RETURNDATASIZE PUSH0 REVERT JUMPDEST POP POP POP POP PUSH1 0x40 MLOAD RETURNDATASIZE PUSH1 0x1F NOT PUSH1 0x1F DUP3 ADD AND DUP3 ADD DUP1 PUSH1 0x40 MSTORE POP DUP2 ADD SWAP1 PUSH2 0x2EAC SWAP2 SWAP1 PUSH2 0x4EAB JUMP JUMPDEST LT JUMPDEST ISZERO JUMPDEST ISZERO PUSH2 0x2EBC JUMPI POP PUSH0 PUSH2 0x10AE JUMP JUMPDEST POP PUSH1 0x1 PUSH2 0x10AE JUMP JUMPDEST PUSH2 0x2ECC PUSH2 0x3C4C JUMP JUMPDEST PUSH1 0x9 DUP1 SLOAD PUSH4 0xFFFFFFFF NOT AND PUSH4 0xFFFFFFFF DUP4 AND SWAP1 DUP2 OR SWAP1 SWAP2 SSTORE PUSH1 0x40 MLOAD SWAP1 DUP2 MSTORE PUSH32 0x7F6F57FED03F08A846D1DD7051E9D858E85408182510EC902F0D921307910284 SWAP1 PUSH1 0x20 ADD PUSH2 0x125D JUMP JUMPDEST PUSH2 0x2F1C PUSH2 0x3C4C JUMP JUMPDEST PUSH1 0x8 DUP1 SLOAD PUSH16 0xFFFFFFFF000000000000000000000000 NOT AND PUSH1 0x1 PUSH1 0x60 SHL PUSH4 0xFFFFFFFF DUP5 DUP2 AND DUP3 MUL SWAP3 SWAP1 SWAP3 OR SWAP3 DUP4 SWAP1 SSTORE PUSH1 0x40 MLOAD SWAP3 DIV AND DUP2 MSTORE PUSH32 0x62B518624E16DADCA83B89E62D9F351D869E67A350D856935F3A3083AA4CF948 SWAP1 PUSH1 0x20 ADD PUSH2 0x125D JUMP JUMPDEST PUSH0 DUP2 DUP2 MSTORE PUSH1 0xC PUSH1 0x20 MSTORE PUSH1 0x40 DUP2 KECCAK256 DUP1 SLOAD PUSH1 0x1 PUSH1 0xA0 SHL SWAP1 DIV PUSH1 0x1 PUSH1 0x1 PUSH1 0x60 SHL SUB AND ISZERO DUP1 PUSH2 0x2FA9 JUMPI POP PUSH1 0x1 DUP2 ADD SLOAD ISZERO JUMPDEST ISZERO PUSH2 0x2FB6 JUMPI POP PUSH0 SWAP3 SWAP2 POP POP JUMP JUMPDEST PUSH0 DUP4 DUP2 MSTORE PUSH1 0xB PUSH1 0x20 SWAP1 DUP2 MSTORE PUSH1 0x40 DUP1 DUP4 KECCAK256 PUSH1 0x1 DUP2 ADD SLOAD PUSH1 0x4 SWAP1 SWAP4 MSTORE SWAP1 DUP4 KECCAK256 SLOAD SWAP1 SWAP3 SWAP2 PUSH2 0x2FE0 SWAP2 PUSH2 0x4DCE JUMP JUMPDEST DUP4 SLOAD SWAP1 SWAP2 POP PUSH0 SWAP1 PUSH1 0x1 PUSH1 0x1 PUSH1 0x60 SHL SUB TIMESTAMP DUP2 AND PUSH1 0x1 PUSH1 0xA0 SHL SWAP1 SWAP3 DIV AND GT PUSH2 0x3026 JUMPI PUSH1 0x2 DUP4 ADD SLOAD PUSH2 0x3021 SWAP1 PUSH1 0x1 SWAP1 PUSH1 0x1 PUSH1 0xA0 SHL SWAP1 DIV PUSH1 0x1 PUSH1 0x1 PUSH1 0x60 SHL SUB AND PUSH2 0x4FFE JUMP JUMPDEST PUSH2 0x3059 JUMP JUMPDEST PUSH1 0x2 DUP4 ADD SLOAD DUP5 SLOAD PUSH2 0x304F SWAP2 PUSH1 0x1 PUSH1 0x1 PUSH1 0x60 SHL SUB PUSH1 0x1 PUSH1 0xA0 SHL SWAP2 DUP3 SWAP1 DIV DUP2 AND SWAP3 SWAP2 SWAP1 SWAP2 DIV AND PUSH2 0x4FFE JUMP JUMPDEST PUSH2 0x3059 SWAP1 TIMESTAMP PUSH2 0x4FFE JUMP JUMPDEST PUSH1 0x1 PUSH1 0x1 PUSH1 0x60 SHL SUB AND SWAP1 POP PUSH2 0x3071 PUSH3 0x15180 DUP3 PUSH2 0x4E04 JUMP JUMPDEST PUSH2 0x307C SWAP1 PUSH1 0x1 PUSH2 0x4E23 JUMP JUMPDEST PUSH2 0x3089 SWAP1 PUSH3 0x15180 PUSH2 0x4DCE JUMP JUMPDEST SWAP1 POP PUSH4 0x1E13380 PUSH2 0x309C PUSH1 0x4 PUSH1 0xA PUSH2 0x4FF0 JUMP JUMPDEST PUSH1 0x3 DUP6 ADD SLOAD DUP5 SWAP1 PUSH2 0x30B3 SWAP1 PUSH4 0xFFFFFFFF AND DUP6 PUSH2 0x4DCE JUMP JUMPDEST PUSH2 0x30BD SWAP2 SWAP1 PUSH2 0x4DCE JUMP JUMPDEST PUSH2 0x30C7 SWAP2 SWAP1 PUSH2 0x4E04 JUMP JUMPDEST PUSH2 0x30D1 SWAP2 SWAP1 PUSH2 0x4E04 JUMP JUMPDEST PUSH2 0x30DB SWAP1 DUP4 PUSH2 0x4E23 JUMP JUMPDEST SWAP7 SWAP6 POP POP POP POP POP POP JUMP JUMPDEST PUSH0 PUSH2 0x30EE PUSH2 0x3AE6 JUMP JUMPDEST DUP8 PUSH0 DUP2 GT DUP1 ISZERO PUSH2 0x30FF JUMPI POP PUSH1 0xD SLOAD DUP2 LT JUMPDEST PUSH2 0x313E JUMPI PUSH1 0x40 MLOAD PUSH3 0x461BCD PUSH1 0xE5 SHL DUP2 MSTORE PUSH1 0x20 PUSH1 0x4 DUP3 ADD MSTORE PUSH1 0x10 PUSH1 0x24 DUP3 ADD MSTORE PUSH16 0x496E76616C6964204C6F616E20494421 PUSH1 0x80 SHL PUSH1 0x44 DUP3 ADD MSTORE PUSH1 0x64 ADD PUSH2 0xA14 JUMP JUMPDEST DUP6 ISZERO DUP1 PUSH2 0x3149 JUMPI POP DUP5 ISZERO JUMPDEST PUSH2 0x31BB JUMPI PUSH1 0x40 MLOAD PUSH3 0x461BCD PUSH1 0xE5 SHL DUP2 MSTORE PUSH1 0x20 PUSH1 0x4 DUP3 ADD MSTORE PUSH1 0x31 PUSH1 0x24 DUP3 ADD MSTORE PUSH32 0x5032504C656E64696E6720726571756972653A636F6C6C61746572616C5F696E PUSH1 0x44 DUP3 ADD MSTORE PUSH32 0x2A636F6C6C61746572616C5F6F75743D30000000000000000000000000000000 PUSH1 0x64 DUP3 ADD MSTORE PUSH1 0x84 ADD PUSH2 0xA14 JUMP JUMPDEST PUSH0 DUP10 DUP2 MSTORE PUSH1 0xB PUSH1 0x20 SWAP1 DUP2 MSTORE PUSH1 0x40 DUP1 DUP4 KECCAK256 PUSH1 0xC DUP4 MSTORE DUP2 DUP5 KECCAK256 PUSH1 0x4 SWAP1 SWAP4 MSTORE SWAP3 KECCAK256 SLOAD DUP11 ISZERO DUP1 ISZERO SWAP1 PUSH2 0x31E9 JUMPI POP DUP11 DUP2 LT ISZERO JUMPDEST DUP1 ISZERO PUSH2 0x31F5 JUMPI POP DUP10 DUP2 GT ISZERO JUMPDEST PUSH2 0x3267 JUMPI PUSH1 0x40 MLOAD PUSH3 0x461BCD PUSH1 0xE5 SHL DUP2 MSTORE PUSH1 0x20 PUSH1 0x4 DUP3 ADD MSTORE PUSH1 0x2F PUSH1 0x24 DUP3 ADD MSTORE PUSH32 0x5032504C656E64696E6720726571756972653A303C6D696E5F6C6F74733C3D73 PUSH1 0x44 DUP3 ADD MSTORE PUSH32 0x7570706C793C3D6D61785F6C6F74730000000000000000000000000000000000 PUSH1 0x64 DUP3 ADD MSTORE PUSH1 0x84 ADD PUSH2 0xA14 JUMP JUMPDEST PUSH0 PUSH2 0x3271 DUP14 PUSH2 0xBAA JUMP JUMPDEST SWAP1 POP PUSH1 0x1 DUP2 PUSH1 0x5 DUP2 GT ISZERO PUSH2 0x3287 JUMPI PUSH2 0x3287 PUSH2 0x4715 JUMP JUMPDEST EQ DUP1 PUSH2 0x32A4 JUMPI POP PUSH1 0x2 DUP2 PUSH1 0x5 DUP2 GT ISZERO PUSH2 0x32A2 JUMPI PUSH2 0x32A2 PUSH2 0x4715 JUMP JUMPDEST EQ JUMPDEST PUSH2 0x32F0 JUMPI PUSH1 0x40 MLOAD PUSH3 0x461BCD PUSH1 0xE5 SHL DUP2 MSTORE PUSH1 0x20 PUSH1 0x4 DUP3 ADD MSTORE PUSH1 0x19 PUSH1 0x24 DUP3 ADD MSTORE PUSH32 0x5032504C656E64696E673A43616E6E6F7420626F72726F772100000000000000 PUSH1 0x44 DUP3 ADD MSTORE PUSH1 0x64 ADD PUSH2 0xA14 JUMP JUMPDEST DUP3 SLOAD PUSH1 0x1 PUSH1 0x1 PUSH1 0xA0 SHL SUB AND CALLER EQ DUP1 PUSH2 0x3310 JUMPI POP DUP3 SLOAD PUSH1 0x1 PUSH1 0x1 PUSH1 0xA0 SHL SUB AND ISZERO JUMPDEST PUSH2 0x335C JUMPI PUSH1 0x40 MLOAD PUSH3 0x461BCD PUSH1 0xE5 SHL DUP2 MSTORE PUSH1 0x20 PUSH1 0x4 DUP3 ADD MSTORE PUSH1 0x1F PUSH1 0x24 DUP3 ADD MSTORE PUSH32 0x5032504C656E64696E673A43616C6C6572206973206E6F74206F776E65722100 PUSH1 0x44 DUP3 ADD MSTORE PUSH1 0x64 ADD PUSH2 0xA14 JUMP JUMPDEST DUP2 DUP5 SSTORE DUP3 SLOAD PUSH1 0x1 PUSH1 0x1 PUSH1 0xA0 SHL SUB NOT AND CALLER OR DUP4 SSTORE PUSH1 0x2 DUP5 ADD SLOAD PUSH2 0x338F SWAP1 PUSH1 0x1 PUSH1 0x1 PUSH1 0x60 SHL SUB PUSH1 0x1 PUSH1 0xA0 SHL SWAP1 SWAP2 DIV AND TIMESTAMP PUSH2 0x4DE5 JUMP JUMPDEST DUP4 SLOAD PUSH1 0x1 PUSH1 0x1 PUSH1 0x60 SHL SUB SWAP2 SWAP1 SWAP2 AND PUSH1 0x1 PUSH1 0xA0 SHL MUL PUSH1 0x1 PUSH1 0x1 PUSH1 0xA0 SHL SUB SWAP1 SWAP2 AND OR DUP4 SSTORE POP POP PUSH1 0x1 DUP3 ADD SLOAD DUP3 SLOAD PUSH0 SWAP2 PUSH2 0x33C5 SWAP2 PUSH2 0x4DCE JUMP JUMPDEST PUSH1 0x2 DUP5 ADD SLOAD SWAP1 SWAP2 POP PUSH0 SWAP1 PUSH2 0x33E5 SWAP1 DUP4 SWAP1 PUSH1 0x1 PUSH1 0x1 PUSH1 0xA0 SHL SUB AND DUP11 DUP11 PUSH2 0x3DE9 JUMP JUMPDEST SWAP1 POP DUP9 ISZERO PUSH2 0x3445 JUMPI DUP3 SLOAD PUSH2 0x3427 SWAP1 PUSH1 0x1 PUSH1 0x1 PUSH1 0xA0 SHL SUB PUSH32 0x0 DUP2 AND SWAP2 AND ADDRESS DUP13 PUSH2 0x3B1F JUMP JUMPDEST DUP9 DUP4 PUSH1 0x1 ADD PUSH0 DUP3 DUP3 SLOAD PUSH2 0x343A SWAP2 SWAP1 PUSH2 0x4E23 JUMP JUMPDEST SWAP1 SWAP2 SSTORE POP PUSH2 0x349D SWAP1 POP JUMP JUMPDEST DUP10 ISZERO PUSH2 0x349D JUMPI DUP3 SLOAD PUSH2 0x3484 SWAP1 PUSH1 0x1 PUSH1 0x1 PUSH1 0xA0 SHL SUB PUSH32 0x0 DUP2 AND SWAP2 AND DUP13 PUSH2 0x3C78 JUMP JUMPDEST DUP10 DUP4 PUSH1 0x1 ADD PUSH0 DUP3 DUP3 SLOAD PUSH2 0x3497 SWAP2 SWAP1 PUSH2 0x4DBB JUMP JUMPDEST SWAP1 SWAP2 SSTORE POP POP JUMPDEST PUSH2 0x34A9 PUSH1 0x4 PUSH1 0xA PUSH2 0x4FF0 JUMP JUMPDEST PUSH1 0x3 DUP6 ADD SLOAD PUSH2 0x34C7 SWAP1 DUP4 SWAP1 PUSH5 0x100000000 SWAP1 DIV PUSH4 0xFFFFFFFF AND PUSH2 0x4DCE JUMP JUMPDEST PUSH2 0x34D1 SWAP2 SWAP1 PUSH2 0x4E04 JUMP JUMPDEST DUP4 PUSH1 0x1 ADD SLOAD LT ISZERO PUSH2 0x3524 JUMPI PUSH1 0x40 MLOAD PUSH3 0x461BCD PUSH1 0xE5 SHL DUP2 MSTORE PUSH1 0x20 PUSH1 0x4 DUP3 ADD MSTORE PUSH1 0x1F PUSH1 0x24 DUP3 ADD MSTORE PUSH32 0x5032504C656E64696E673A496E63726561736520636F6C6C61746572616C2100 PUSH1 0x44 DUP3 ADD MSTORE PUSH1 0x64 ADD PUSH2 0xA14 JUMP JUMPDEST PUSH0 PUSH2 0x3531 PUSH1 0x4 PUSH1 0xA PUSH2 0x4FF0 JUMP JUMPDEST PUSH1 0x9 SLOAD PUSH2 0x3545 SWAP1 DUP6 SWAP1 PUSH4 0xFFFFFFFF AND PUSH2 0x4DCE JUMP JUMPDEST PUSH2 0x354F SWAP2 SWAP1 PUSH2 0x4E04 JUMP JUMPDEST PUSH1 0x9 SLOAD SWAP1 SWAP2 POP PUSH2 0x3594 SWAP1 PUSH1 0x1 PUSH1 0x1 PUSH1 0xA0 SHL SUB PUSH32 0x0 DUP2 AND SWAP2 PUSH5 0x100000000 SWAP1 DIV AND DUP4 PUSH2 0x3C78 JUMP JUMPDEST DUP4 SLOAD PUSH2 0x35AD SWAP1 PUSH1 0x1 PUSH1 0x1 PUSH1 0xA0 SHL SUB AND PUSH2 0x2C03 DUP4 DUP7 PUSH2 0x4DBB JUMP JUMPDEST DUP5 SLOAD PUSH1 0x40 MLOAD SWAP1 DUP2 MSTORE DUP15 SWAP1 PUSH32 0x44EC4D36B0D76019C4B5AEC2A216DBCA5AD6C6D671940C8FBBCD23CFE4E804B SWAP1 PUSH1 0x20 ADD PUSH1 0x40 MLOAD DUP1 SWAP2 SUB SWAP1 LOG2 PUSH2 0x35ED DUP15 PUSH2 0x3CA9 JUMP JUMPDEST POP POP SWAP2 SLOAD SWAP4 POP POP POP POP PUSH2 0x3600 PUSH1 0x1 PUSH1 0x6 SSTORE JUMP JUMPDEST SWAP8 SWAP7 POP POP POP POP POP POP POP JUMP JUMPDEST PUSH2 0x3613 PUSH2 0x3AE6 JUMP JUMPDEST DUP3 PUSH0 DUP2 GT DUP1 ISZERO PUSH2 0x3624 JUMPI POP PUSH1 0xD SLOAD DUP2 LT JUMPDEST PUSH2 0x3663 JUMPI PUSH1 0x40 MLOAD PUSH3 0x461BCD PUSH1 0xE5 SHL DUP2 MSTORE PUSH1 0x20 PUSH1 0x4 DUP3 ADD MSTORE PUSH1 0x10 PUSH1 0x24 DUP3 ADD MSTORE PUSH16 0x496E76616C6964204C6F616E20494421 PUSH1 0x80 SHL PUSH1 0x44 DUP3 ADD MSTORE PUSH1 0x64 ADD PUSH2 0xA14 JUMP JUMPDEST PUSH1 0x4 PUSH2 0x366E DUP6 PUSH2 0xBAA JUMP JUMPDEST PUSH1 0x5 DUP2 GT ISZERO PUSH2 0x367F JUMPI PUSH2 0x367F PUSH2 0x4715 JUMP JUMPDEST EQ PUSH2 0x36DE JUMPI PUSH1 0x40 MLOAD PUSH3 0x461BCD PUSH1 0xE5 SHL DUP2 MSTORE PUSH1 0x20 PUSH1 0x4 DUP3 ADD MSTORE PUSH1 0x29 PUSH1 0x24 DUP3 ADD MSTORE PUSH32 0x5032504C656E64696E673A4C6F616E537461747573206D75737420657175616C PUSH1 0x44 DUP3 ADD MSTORE PUSH9 0x732041435449564521 PUSH1 0xB8 SHL PUSH1 0x64 DUP3 ADD MSTORE PUSH1 0x84 ADD PUSH2 0xA14 JUMP JUMPDEST PUSH0 DUP5 DUP2 MSTORE PUSH1 0xB PUSH1 0x20 SWAP1 DUP2 MSTORE PUSH1 0x40 DUP1 DUP4 KECCAK256 PUSH1 0xC SWAP1 SWAP3 MSTORE SWAP1 SWAP2 KECCAK256 DUP1 SLOAD PUSH1 0x1 PUSH1 0x1 PUSH1 0x60 SHL SUB TIMESTAMP DUP2 AND PUSH1 0x1 PUSH1 0xA0 SHL SWAP1 SWAP3 DIV AND LT DUP1 PUSH2 0x37F8 JUMPI POP PUSH1 0x3 DUP3 ADD SLOAD PUSH1 0x2 DUP4 ADD SLOAD PUSH1 0x1 DUP4 ADD SLOAD PUSH1 0x1 PUSH1 0x40 SHL SWAP1 SWAP3 DIV PUSH4 0xFFFFFFFF AND SWAP2 PUSH1 0x1 PUSH1 0x1 PUSH1 0xA0 SHL SUB SWAP1 SWAP2 AND SWAP1 PUSH4 0xB4E37CF9 SWAP1 PUSH32 0x0 SWAP1 PUSH1 0x4 SWAP1 PUSH32 0x0 PUSH2 0x3792 DUP14 PUSH2 0x2F7C JUMP JUMPDEST DUP13 DUP13 PUSH1 0x40 MLOAD DUP9 PUSH4 0xFFFFFFFF AND PUSH1 0xE0 SHL DUP2 MSTORE PUSH1 0x4 ADD PUSH2 0x37B6 SWAP8 SWAP7 SWAP6 SWAP5 SWAP4 SWAP3 SWAP2 SWAP1 PUSH2 0x4E5E JUMP JUMPDEST PUSH1 0x20 PUSH1 0x40 MLOAD DUP1 DUP4 SUB DUP2 PUSH0 DUP8 GAS CALL ISZERO DUP1 ISZERO PUSH2 0x37D2 JUMPI RETURNDATASIZE PUSH0 PUSH0 RETURNDATACOPY RETURNDATASIZE PUSH0 REVERT JUMPDEST POP POP POP POP PUSH1 0x40 MLOAD RETURNDATASIZE PUSH1 0x1F NOT PUSH1 0x1F DUP3 ADD AND DUP3 ADD DUP1 PUSH1 0x40 MSTORE POP DUP2 ADD SWAP1 PUSH2 0x37F6 SWAP2 SWAP1 PUSH2 0x4EAB JUMP JUMPDEST LT JUMPDEST PUSH2 0x3844 JUMPI PUSH1 0x40 MLOAD PUSH3 0x461BCD PUSH1 0xE5 SHL DUP2 MSTORE PUSH1 0x20 PUSH1 0x4 DUP3 ADD MSTORE PUSH1 0x1C PUSH1 0x24 DUP3 ADD MSTORE PUSH32 0x5032504C656E64696E673A43616E6E6F74204C69717569646174652100000000 PUSH1 0x44 DUP3 ADD MSTORE PUSH1 0x64 ADD PUSH2 0xA14 JUMP JUMPDEST PUSH0 PUSH2 0x384F CALLER DUP9 PUSH2 0x8E5 JUMP JUMPDEST SWAP1 POP PUSH0 DUP2 GT PUSH2 0x38A0 JUMPI PUSH1 0x40 MLOAD PUSH3 0x461BCD PUSH1 0xE5 SHL DUP2 MSTORE PUSH1 0x20 PUSH1 0x4 DUP3 ADD MSTORE PUSH1 0x1C PUSH1 0x24 DUP3 ADD MSTORE PUSH32 0x5032504C656E64696E673A4E6F7468696E6720746F20636C61696D2100000000 PUSH1 0x44 DUP3 ADD MSTORE PUSH1 0x64 ADD PUSH2 0xA14 JUMP JUMPDEST PUSH0 DUP8 DUP2 MSTORE PUSH1 0x4 PUSH1 0x20 MSTORE PUSH1 0x40 DUP2 KECCAK256 SLOAD PUSH1 0x1 DUP5 ADD SLOAD PUSH2 0x38BD SWAP1 DUP5 PUSH2 0x4DCE JUMP JUMPDEST PUSH2 0x38C7 SWAP2 SWAP1 PUSH2 0x4E04 JUMP JUMPDEST SWAP1 POP DUP1 DUP4 PUSH1 0x1 ADD PUSH0 DUP3 DUP3 SLOAD PUSH2 0x38DC SWAP2 SWAP1 PUSH2 0x4DBB JUMP JUMPDEST SWAP1 SWAP2 SSTORE POP PUSH2 0x38ED SWAP1 POP CALLER DUP10 DUP5 PUSH2 0x3D34 JUMP JUMPDEST PUSH2 0x3921 PUSH32 0x0 PUSH1 0x1 PUSH1 0x1 PUSH1 0xA0 SHL SUB AND CALLER DUP4 PUSH2 0x3C78 JUMP JUMPDEST PUSH1 0x40 DUP1 MLOAD DUP4 DUP2 MSTORE PUSH1 0x20 DUP2 ADD DUP4 SWAP1 MSTORE CALLER SWAP2 DUP11 SWAP2 PUSH32 0x1D444C28894712984A4FE069711274D086859136F702D387BDA2F1CD90D66DF8 SWAP2 ADD PUSH1 0x40 MLOAD DUP1 SWAP2 SUB SWAP1 LOG3 PUSH2 0x3967 DUP9 PUSH2 0x3CA9 JUMP JUMPDEST POP POP POP POP POP PUSH2 0x3976 PUSH1 0x1 PUSH1 0x6 SSTORE JUMP JUMPDEST POP POP POP JUMP JUMPDEST PUSH2 0x3983 PUSH2 0x3C4C JUMP JUMPDEST PUSH1 0x8 DUP1 SLOAD PUSH12 0xFFFFFFFF0000000000000000 NOT AND PUSH1 0x1 PUSH1 0x40 SHL PUSH4 0xFFFFFFFF DUP5 DUP2 AND DUP3 MUL SWAP3 SWAP1 SWAP3 OR SWAP3 DUP4 SWAP1 SSTORE PUSH1 0x40 MLOAD SWAP3 DIV AND DUP2 MSTORE PUSH32 0xA33C859C6A01D7D71B062AE88C11D026EFD55B26B354DFC8844E5A74B8BF069B SWAP1 PUSH1 0x20 ADD PUSH2 0x125D JUMP JUMPDEST PUSH2 0x39E7 PUSH2 0x3C4C JUMP JUMPDEST PUSH1 0x8 DUP1 SLOAD PUSH4 0xFFFFFFFF NOT AND PUSH4 0xFFFFFFFF DUP4 AND SWAP1 DUP2 OR SWAP1 SWAP2 SSTORE PUSH1 0x40 MLOAD SWAP1 DUP2 MSTORE PUSH32 0x8B8BFA8B607AEE8F950B269EE81087CD304216FD813AC4F3AEAD05D7072A3A13 SWAP1 PUSH1 0x20 ADD PUSH2 0x125D JUMP JUMPDEST CALLER PUSH1 0x1 PUSH1 0x1 PUSH1 0xA0 SHL SUB DUP7 AND DUP2 EQ DUP1 ISZERO SWAP1 PUSH2 0x3A6E JUMPI POP PUSH1 0x1 PUSH1 0x1 PUSH1 0xA0 SHL SUB DUP1 DUP8 AND PUSH0 SWAP1 DUP2 MSTORE PUSH1 0x2 PUSH1 0x20 SWAP1 DUP2 MSTORE PUSH1 0x40 DUP1 DUP4 KECCAK256 SWAP4 DUP6 AND DUP4 MSTORE SWAP3 SWAP1 MSTORE KECCAK256 SLOAD PUSH1 0xFF AND ISZERO JUMPDEST ISZERO PUSH2 0x3A9F JUMPI PUSH1 0x40 MLOAD PUSH4 0x711BEC91 PUSH1 0xE1 SHL DUP2 MSTORE PUSH1 0x1 PUSH1 0x1 PUSH1 0xA0 SHL SUB DUP1 DUP4 AND PUSH1 0x4 DUP4 ADD MSTORE DUP8 AND PUSH1 0x24 DUP3 ADD MSTORE PUSH1 0x44 ADD PUSH2 0xA14 JUMP JUMPDEST PUSH2 0x11F8 DUP7 DUP7 DUP7 DUP7 DUP7 PUSH2 0x3F0F JUMP JUMPDEST PUSH2 0x3AB4 PUSH2 0x3C4C JUMP JUMPDEST PUSH1 0x1 PUSH1 0x1 PUSH1 0xA0 SHL SUB DUP2 AND PUSH2 0x3ADD JUMPI PUSH1 0x40 MLOAD PUSH4 0x1E4FBDF7 PUSH1 0xE0 SHL DUP2 MSTORE PUSH0 PUSH1 0x4 DUP3 ADD MSTORE PUSH1 0x24 ADD PUSH2 0xA14 JUMP JUMPDEST PUSH2 0x152B DUP2 PUSH2 0x3D9A JUMP JUMPDEST PUSH1 0x2 PUSH1 0x6 SLOAD SUB PUSH2 0x3B09 JUMPI PUSH1 0x40 MLOAD PUSH4 0x3EE5AEB5 PUSH1 0xE0 SHL DUP2 MSTORE PUSH1 0x4 ADD PUSH1 0x40 MLOAD DUP1 SWAP2 SUB SWAP1 REVERT JUMPDEST PUSH1 0x2 PUSH1 0x6 SSTORE JUMP JUMPDEST PUSH0 DUP3 DUP3 XOR DUP3 DUP5 LT MUL DUP3 XOR PUSH2 0x10AE JUMP JUMPDEST PUSH1 0x40 MLOAD PUSH1 0x1 PUSH1 0x1 PUSH1 0xA0 SHL SUB DUP5 DUP2 AND PUSH1 0x24 DUP4 ADD MSTORE DUP4 DUP2 AND PUSH1 0x44 DUP4 ADD MSTORE PUSH1 0x64 DUP3 ADD DUP4 SWAP1 MSTORE PUSH2 0x3B86 SWAP2 DUP7 SWAP2 DUP3 AND SWAP1 PUSH4 0x23B872DD SWAP1 PUSH1 0x84 ADD JUMPDEST PUSH1 0x40 MLOAD PUSH1 0x20 DUP2 DUP4 SUB SUB DUP2 MSTORE SWAP1 PUSH1 0x40 MSTORE SWAP2 POP PUSH1 0xE0 SHL PUSH1 0x20 DUP3 ADD DUP1 MLOAD PUSH1 0x1 PUSH1 0x1 PUSH1 0xE0 SHL SUB DUP4 DUP2 DUP4 AND OR DUP4 MSTORE POP POP POP POP PUSH2 0x3F9B JUMP JUMPDEST POP POP POP POP JUMP JUMPDEST PUSH1 0x1 PUSH1 0x1 PUSH1 0xA0 SHL SUB DUP5 AND PUSH2 0x3BB5 JUMPI PUSH1 0x40 MLOAD PUSH4 0x2BFA23E7 PUSH1 0xE1 SHL DUP2 MSTORE PUSH0 PUSH1 0x4 DUP3 ADD MSTORE PUSH1 0x24 ADD PUSH2 0xA14 JUMP JUMPDEST PUSH1 0x40 DUP1 MLOAD PUSH1 0x1 DUP1 DUP3 MSTORE PUSH1 0x20 DUP3 ADD DUP7 SWAP1 MSTORE DUP2 DUP4 ADD SWAP1 DUP2 MSTORE PUSH1 0x60 DUP3 ADD DUP6 SWAP1 MSTORE PUSH1 0x80 DUP3 ADD SWAP1 SWAP3 MSTORE SWAP1 PUSH2 0x11F8 PUSH0 DUP8 DUP5 DUP5 DUP8 PUSH2 0x4007 JUMP JUMPDEST PUSH1 0x1 PUSH1 0x1 PUSH1 0xA0 SHL SUB DUP5 AND PUSH2 0x3C10 JUMPI PUSH1 0x40 MLOAD PUSH4 0x2BFA23E7 PUSH1 0xE1 SHL DUP2 MSTORE PUSH0 PUSH1 0x4 DUP3 ADD MSTORE PUSH1 0x24 ADD PUSH2 0xA14 JUMP JUMPDEST PUSH1 0x1 PUSH1 0x1 PUSH1 0xA0 SHL SUB DUP6 AND PUSH2 0x3C38 JUMPI PUSH1 0x40 MLOAD PUSH3 0x6A0D45 PUSH1 0xE2 SHL DUP2 MSTORE PUSH0 PUSH1 0x4 DUP3 ADD MSTORE PUSH1 0x24 ADD PUSH2 0xA14 JUMP JUMPDEST PUSH2 0x3C45 DUP6 DUP6 DUP6 DUP6 DUP6 PUSH2 0x4007 JUMP JUMPDEST POP POP POP POP POP JUMP JUMPDEST PUSH0 SLOAD PUSH1 0x1 PUSH1 0x1 PUSH1 0xA0 SHL SUB AND CALLER EQ PUSH2 0x2493 JUMPI PUSH1 0x40 MLOAD PUSH4 0x118CDAA7 PUSH1 0xE0 SHL DUP2 MSTORE CALLER PUSH1 0x4 DUP3 ADD MSTORE PUSH1 0x24 ADD PUSH2 0xA14 JUMP JUMPDEST PUSH1 0x40 MLOAD PUSH1 0x1 PUSH1 0x1 PUSH1 0xA0 SHL SUB DUP4 DUP2 AND PUSH1 0x24 DUP4 ADD MSTORE PUSH1 0x44 DUP3 ADD DUP4 SWAP1 MSTORE PUSH2 0x3976 SWAP2 DUP6 SWAP2 DUP3 AND SWAP1 PUSH4 0xA9059CBB SWAP1 PUSH1 0x64 ADD PUSH2 0x3B54 JUMP JUMPDEST PUSH0 DUP2 DUP2 MSTORE PUSH1 0xC PUSH1 0x20 SWAP1 DUP2 MSTORE PUSH1 0x40 SWAP2 DUP3 SWAP1 KECCAK256 DUP1 SLOAD PUSH1 0x1 DUP3 ADD SLOAD PUSH1 0x2 DUP4 ADD SLOAD PUSH1 0x3 SWAP1 SWAP4 ADD SLOAD DUP6 MLOAD PUSH1 0x1 PUSH1 0x1 PUSH1 0x60 SHL SUB PUSH1 0x1 PUSH1 0xA0 SHL DUP6 DIV DUP2 AND DUP3 MSTORE SWAP6 DUP2 ADD SWAP3 SWAP1 SWAP3 MSTORE SWAP5 DUP2 ADD SWAP3 SWAP1 SWAP3 MSTORE SWAP2 SWAP1 SWAP3 AND PUSH1 0x60 DUP4 ADD MSTORE PUSH1 0x1 PUSH1 0x1 PUSH1 0xA0 SHL SUB AND SWAP1 DUP3 SWAP1 PUSH32 0x289938DFD99639EB7B7174B9259EAA5A4B3A1D69D143B4D03D58B86AC502517D SWAP1 PUSH1 0x80 ADD PUSH1 0x40 MLOAD DUP1 SWAP2 SUB SWAP1 LOG3 POP JUMP JUMPDEST PUSH1 0x1 PUSH1 0x1 PUSH1 0xA0 SHL SUB DUP4 AND PUSH2 0x3D5C JUMPI PUSH1 0x40 MLOAD PUSH3 0x6A0D45 PUSH1 0xE2 SHL DUP2 MSTORE PUSH0 PUSH1 0x4 DUP3 ADD MSTORE PUSH1 0x24 ADD PUSH2 0xA14 JUMP JUMPDEST PUSH1 0x40 DUP1 MLOAD PUSH1 0x1 DUP1 DUP3 MSTORE PUSH1 0x20 DUP3 ADD DUP6 SWAP1 MSTORE DUP2 DUP4 ADD SWAP1 DUP2 MSTORE PUSH1 0x60 DUP3 ADD DUP5 SWAP1 MSTORE PUSH1 0xA0 DUP3 ADD SWAP1 SWAP3 MSTORE PUSH0 PUSH1 0x80 DUP3 ADD DUP2 DUP2 MSTORE SWAP2 SWAP3 SWAP2 PUSH2 0x3C45 SWAP2 DUP8 SWAP2 DUP6 SWAP1 DUP6 SWAP1 PUSH2 0x4007 JUMP JUMPDEST PUSH0 DUP1 SLOAD PUSH1 0x1 PUSH1 0x1 PUSH1 0xA0 SHL SUB DUP4 DUP2 AND PUSH1 0x1 PUSH1 0x1 PUSH1 0xA0 SHL SUB NOT DUP4 AND DUP2 OR DUP5 SSTORE PUSH1 0x40 MLOAD SWAP2 SWAP1 SWAP3 AND SWAP3 DUP4 SWAP2 PUSH32 0x8BE0079C531659141344CD1FD0A4F28419497F9722A3DAAFE3B4186F6B6457E0 SWAP2 SWAP1 LOG3 POP POP JUMP JUMPDEST PUSH1 0x40 MLOAD PUSH4 0xC5801AA3 PUSH1 0xE0 SHL DUP2 MSTORE PUSH0 SWAP1 PUSH1 0x1 PUSH1 0x1 PUSH1 0xA0 SHL SUB DUP6 AND SWAP1 PUSH4 0xC5801AA3 SWAP1 PUSH2 0x3E5F SWAP1 PUSH32 0x0 SWAP1 PUSH32 0x0 SWAP1 DUP11 SWAP1 DUP10 SWAP1 DUP10 SWAP1 PUSH1 0x4 ADD PUSH2 0x501D JUMP JUMPDEST PUSH1 0x20 PUSH1 0x40 MLOAD DUP1 DUP4 SUB DUP2 PUSH0 DUP8 GAS CALL ISZERO DUP1 ISZERO PUSH2 0x1735 JUMPI RETURNDATASIZE PUSH0 PUSH0 RETURNDATACOPY RETURNDATASIZE PUSH0 REVERT JUMPDEST PUSH1 0x1 PUSH1 0x1 PUSH1 0xA0 SHL SUB DUP3 AND PUSH2 0x3EA3 JUMPI PUSH1 0x40 MLOAD PUSH3 0xCED3E1 PUSH1 0xE8 SHL DUP2 MSTORE PUSH0 PUSH1 0x4 DUP3 ADD MSTORE PUSH1 0x24 ADD PUSH2 0xA14 JUMP JUMPDEST PUSH1 0x1 PUSH1 0x1 PUSH1 0xA0 SHL SUB DUP4 DUP2 AND PUSH0 DUP2 DUP2 MSTORE PUSH1 0x2 PUSH1 0x20 SWAP1 DUP2 MSTORE PUSH1 0x40 DUP1 DUP4 KECCAK256 SWAP5 DUP8 AND DUP1 DUP5 MSTORE SWAP5 DUP3 MSTORE SWAP2 DUP3 SWAP1 KECCAK256 DUP1 SLOAD PUSH1 0xFF NOT AND DUP7 ISZERO ISZERO SWAP1 DUP2 OR SWAP1 SWAP2 SSTORE SWAP2 MLOAD SWAP2 DUP3 MSTORE PUSH32 0x17307EAB39AB6107E8899845AD3D59BD9653F200F220920489CA2B5937696C31 SWAP2 ADD PUSH1 0x40 MLOAD DUP1 SWAP2 SUB SWAP1 LOG3 POP POP POP JUMP JUMPDEST PUSH1 0x1 PUSH1 0x1 PUSH1 0xA0 SHL SUB DUP5 AND PUSH2 0x3F38 JUMPI PUSH1 0x40 MLOAD PUSH4 0x2BFA23E7 PUSH1 0xE1 SHL DUP2 MSTORE PUSH0 PUSH1 0x4 DUP3 ADD MSTORE PUSH1 0x24 ADD PUSH2 0xA14 JUMP JUMPDEST PUSH1 0x1 PUSH1 0x1 PUSH1 0xA0 SHL SUB DUP6 AND PUSH2 0x3F60 JUMPI PUSH1 0x40 MLOAD PUSH3 0x6A0D45 PUSH1 0xE2 SHL DUP2 MSTORE PUSH0 PUSH1 0x4 DUP3 ADD MSTORE PUSH1 0x24 ADD PUSH2 0xA14 JUMP JUMPDEST PUSH1 0x40 DUP1 MLOAD PUSH1 0x1 DUP1 DUP3 MSTORE PUSH1 0x20 DUP3 ADD DUP7 SWAP1 MSTORE DUP2 DUP4 ADD SWAP1 DUP2 MSTORE PUSH1 0x60 DUP3 ADD DUP6 SWAP1 MSTORE PUSH1 0x80 DUP3 ADD SWAP1 SWAP3 MSTORE SWAP1 PUSH2 0x3F92 DUP8 DUP8 DUP5 DUP5 DUP8 PUSH2 0x4007 JUMP JUMPDEST POP POP POP POP POP POP POP JUMP JUMPDEST PUSH0 PUSH0 PUSH1 0x20 PUSH0 DUP5 MLOAD PUSH1 0x20 DUP7 ADD PUSH0 DUP9 GAS CALL DUP1 PUSH2 0x3FBA JUMPI PUSH1 0x40 MLOAD RETURNDATASIZE PUSH0 DUP3 RETURNDATACOPY RETURNDATASIZE DUP2 REVERT JUMPDEST POP POP PUSH0 MLOAD RETURNDATASIZE SWAP2 POP DUP2 ISZERO PUSH2 0x3FD1 JUMPI DUP1 PUSH1 0x1 EQ ISZERO PUSH2 0x3FDE JUMP JUMPDEST PUSH1 0x1 PUSH1 0x1 PUSH1 0xA0 SHL SUB DUP5 AND EXTCODESIZE ISZERO JUMPDEST ISZERO PUSH2 0x3B86 JUMPI PUSH1 0x40 MLOAD PUSH4 0x5274AFE7 PUSH1 0xE0 SHL DUP2 MSTORE PUSH1 0x1 PUSH1 0x1 PUSH1 0xA0 SHL SUB DUP6 AND PUSH1 0x4 DUP3 ADD MSTORE PUSH1 0x24 ADD PUSH2 0xA14 JUMP JUMPDEST PUSH2 0x4013 DUP6 DUP6 DUP6 DUP6 PUSH2 0x405A JUMP JUMPDEST PUSH1 0x1 PUSH1 0x1 PUSH1 0xA0 SHL SUB DUP5 AND ISZERO PUSH2 0x3C45 JUMPI DUP3 MLOAD CALLER SWAP1 PUSH1 0x1 SUB PUSH2 0x404C JUMPI PUSH1 0x20 DUP5 DUP2 ADD MLOAD SWAP1 DUP5 ADD MLOAD PUSH2 0x4045 DUP4 DUP10 DUP10 DUP6 DUP6 DUP10 PUSH2 0x4141 JUMP JUMPDEST POP POP PUSH2 0x11F8 JUMP JUMPDEST PUSH2 0x11F8 DUP2 DUP8 DUP8 DUP8 DUP8 DUP8 PUSH2 0x4262 JUMP JUMPDEST PUSH2 0x4066 DUP5 DUP5 DUP5 DUP5 PUSH2 0x4349 JUMP JUMPDEST PUSH1 0x1 PUSH1 0x1 PUSH1 0xA0 SHL SUB DUP5 AND PUSH2 0x40E3 JUMPI PUSH0 DUP1 JUMPDEST DUP4 MLOAD DUP2 LT ISZERO PUSH2 0x40CA JUMPI PUSH1 0x20 DUP2 DUP2 MUL DUP5 DUP2 ADD DUP3 ADD MLOAD SWAP1 DUP7 ADD DUP3 ADD MLOAD PUSH0 SWAP1 DUP2 MSTORE PUSH1 0x4 SWAP1 SWAP3 MSTORE PUSH1 0x40 DUP3 KECCAK256 DUP1 SLOAD SWAP2 SWAP3 DUP4 SWAP3 PUSH2 0x40AF SWAP1 DUP5 SWAP1 PUSH2 0x4E23 JUMP JUMPDEST SWAP1 SWAP2 SSTORE POP PUSH2 0x40BF SWAP1 POP DUP2 DUP5 PUSH2 0x4E23 JUMP JUMPDEST SWAP3 POP POP PUSH1 0x1 ADD PUSH2 0x4077 JUMP JUMPDEST POP DUP1 PUSH1 0x5 PUSH0 DUP3 DUP3 SLOAD PUSH2 0x40DC SWAP2 SWAP1 PUSH2 0x4E23 JUMP JUMPDEST SWAP1 SWAP2 SSTORE POP POP POP JUMPDEST PUSH1 0x1 PUSH1 0x1 PUSH1 0xA0 SHL SUB DUP4 AND PUSH2 0x3B86 JUMPI PUSH0 DUP1 JUMPDEST DUP4 MLOAD DUP2 LT ISZERO PUSH2 0x4130 JUMPI PUSH1 0x20 DUP2 DUP2 MUL DUP5 DUP2 ADD DUP3 ADD MLOAD SWAP1 DUP7 ADD DUP3 ADD MLOAD PUSH0 SWAP1 DUP2 MSTORE PUSH1 0x4 SWAP1 SWAP3 MSTORE PUSH1 0x40 SWAP1 SWAP2 KECCAK256 DUP1 SLOAD DUP3 SWAP1 SUB SWAP1 SSTORE SWAP2 SWAP1 SWAP2 ADD SWAP1 PUSH1 0x1 ADD PUSH2 0x40F4 JUMP JUMPDEST POP PUSH1 0x5 DUP1 SLOAD SWAP2 SWAP1 SWAP2 SUB SWAP1 SSTORE POP POP POP POP JUMP JUMPDEST PUSH1 0x1 PUSH1 0x1 PUSH1 0xA0 SHL SUB DUP5 AND EXTCODESIZE ISZERO PUSH2 0x11F8 JUMPI PUSH1 0x40 MLOAD PUSH4 0xF23A6E61 PUSH1 0xE0 SHL DUP2 MSTORE PUSH1 0x1 PUSH1 0x1 PUSH1 0xA0 SHL SUB DUP6 AND SWAP1 PUSH4 0xF23A6E61 SWAP1 PUSH2 0x4185 SWAP1 DUP10 SWAP1 DUP10 SWAP1 DUP9 SWAP1 DUP9 SWAP1 DUP9 SWAP1 PUSH1 0x4 ADD PUSH2 0x504E JUMP JUMPDEST PUSH1 0x20 PUSH1 0x40 MLOAD DUP1 DUP4 SUB DUP2 PUSH0 DUP8 GAS CALL SWAP3 POP POP POP DUP1 ISZERO PUSH2 0x41BF JUMPI POP PUSH1 0x40 DUP1 MLOAD PUSH1 0x1F RETURNDATASIZE SWAP1 DUP2 ADD PUSH1 0x1F NOT AND DUP3 ADD SWAP1 SWAP3 MSTORE PUSH2 0x41BC SWAP2 DUP2 ADD SWAP1 PUSH2 0x508A JUMP JUMPDEST PUSH1 0x1 JUMPDEST PUSH2 0x4226 JUMPI RETURNDATASIZE DUP1 DUP1 ISZERO PUSH2 0x41EC JUMPI PUSH1 0x40 MLOAD SWAP2 POP PUSH1 0x1F NOT PUSH1 0x3F RETURNDATASIZE ADD AND DUP3 ADD PUSH1 0x40 MSTORE RETURNDATASIZE DUP3 MSTORE RETURNDATASIZE PUSH0 PUSH1 0x20 DUP5 ADD RETURNDATACOPY PUSH2 0x41F1 JUMP JUMPDEST PUSH1 0x60 SWAP2 POP JUMPDEST POP DUP1 MLOAD PUSH0 SUB PUSH2 0x421E JUMPI PUSH1 0x40 MLOAD PUSH4 0x2BFA23E7 PUSH1 0xE1 SHL DUP2 MSTORE PUSH1 0x1 PUSH1 0x1 PUSH1 0xA0 SHL SUB DUP7 AND PUSH1 0x4 DUP3 ADD MSTORE PUSH1 0x24 ADD PUSH2 0xA14 JUMP JUMPDEST DUP1 MLOAD DUP2 PUSH1 0x20 ADD REVERT JUMPDEST PUSH1 0x1 PUSH1 0x1 PUSH1 0xE0 SHL SUB NOT DUP2 AND PUSH4 0xF23A6E61 PUSH1 0xE0 SHL EQ PUSH2 0x3F92 JUMPI PUSH1 0x40 MLOAD PUSH4 0x2BFA23E7 PUSH1 0xE1 SHL DUP2 MSTORE PUSH1 0x1 PUSH1 0x1 PUSH1 0xA0 SHL SUB DUP7 AND PUSH1 0x4 DUP3 ADD MSTORE PUSH1 0x24 ADD PUSH2 0xA14 JUMP JUMPDEST PUSH1 0x1 PUSH1 0x1 PUSH1 0xA0 SHL SUB DUP5 AND EXTCODESIZE ISZERO PUSH2 0x11F8 JUMPI PUSH1 0x40 MLOAD PUSH4 0xBC197C81 PUSH1 0xE0 SHL DUP2 MSTORE PUSH1 0x1 PUSH1 0x1 PUSH1 0xA0 SHL SUB DUP6 AND SWAP1 PUSH4 0xBC197C81 SWAP1 PUSH2 0x42A6 SWAP1 DUP10 SWAP1 DUP10 SWAP1 DUP9 SWAP1 DUP9 SWAP1 DUP9 SWAP1 PUSH1 0x4 ADD PUSH2 0x50A5 JUMP JUMPDEST PUSH1 0x20 PUSH1 0x40 MLOAD DUP1 DUP4 SUB DUP2 PUSH0 DUP8 GAS CALL SWAP3 POP POP POP DUP1 ISZERO PUSH2 0x42E0 JUMPI POP PUSH1 0x40 DUP1 MLOAD PUSH1 0x1F RETURNDATASIZE SWAP1 DUP2 ADD PUSH1 0x1F NOT AND DUP3 ADD SWAP1 SWAP3 MSTORE PUSH2 0x42DD SWAP2 DUP2 ADD SWAP1 PUSH2 0x508A JUMP JUMPDEST PUSH1 0x1 JUMPDEST PUSH2 0x430D JUMPI RETURNDATASIZE DUP1 DUP1 ISZERO PUSH2 0x41EC JUMPI PUSH1 0x40 MLOAD SWAP2 POP PUSH1 0x1F NOT PUSH1 0x3F RETURNDATASIZE ADD AND DUP3 ADD PUSH1 0x40 MSTORE RETURNDATASIZE DUP3 MSTORE RETURNDATASIZE PUSH0 PUSH1 0x20 DUP5 ADD RETURNDATACOPY PUSH2 0x41F1 JUMP JUMPDEST PUSH1 0x1 PUSH1 0x1 PUSH1 0xE0 SHL SUB NOT DUP2 AND PUSH4 0xBC197C81 PUSH1 0xE0 SHL EQ PUSH2 0x3F92 JUMPI PUSH1 0x40 MLOAD PUSH4 0x2BFA23E7 PUSH1 0xE1 SHL DUP2 MSTORE PUSH1 0x1 PUSH1 0x1 PUSH1 0xA0 SHL SUB DUP7 AND PUSH1 0x4 DUP3 ADD MSTORE PUSH1 0x24 ADD PUSH2 0xA14 JUMP JUMPDEST DUP1 MLOAD DUP3 MLOAD EQ PUSH2 0x4378 JUMPI DUP2 MLOAD DUP2 MLOAD PUSH1 0x40 MLOAD PUSH4 0x5B059991 PUSH1 0xE0 SHL DUP2 MSTORE PUSH1 0x4 DUP2 ADD SWAP3 SWAP1 SWAP3 MSTORE PUSH1 0x24 DUP3 ADD MSTORE PUSH1 0x44 ADD PUSH2 0xA14 JUMP JUMPDEST CALLER PUSH0 JUMPDEST DUP4 MLOAD DUP2 LT ISZERO PUSH2 0x4480 JUMPI PUSH1 0x20 DUP2 DUP2 MUL DUP6 DUP2 ADD DUP3 ADD MLOAD SWAP1 DUP6 ADD SWAP1 SWAP2 ADD MLOAD PUSH1 0x1 PUSH1 0x1 PUSH1 0xA0 SHL SUB DUP9 AND ISZERO PUSH2 0x4430 JUMPI PUSH0 DUP3 DUP2 MSTORE PUSH1 0x1 PUSH1 0x20 SWAP1 DUP2 MSTORE PUSH1 0x40 DUP1 DUP4 KECCAK256 PUSH1 0x1 PUSH1 0x1 PUSH1 0xA0 SHL SUB DUP13 AND DUP5 MSTORE SWAP1 SWAP2 MSTORE SWAP1 KECCAK256 SLOAD DUP2 DUP2 LT ISZERO PUSH2 0x4408 JUMPI PUSH1 0x40 MLOAD PUSH4 0x3DEE4C5 PUSH1 0xE0 SHL DUP2 MSTORE PUSH1 0x1 PUSH1 0x1 PUSH1 0xA0 SHL SUB DUP11 AND PUSH1 0x4 DUP3 ADD MSTORE PUSH1 0x24 DUP2 ADD DUP3 SWAP1 MSTORE PUSH1 0x44 DUP2 ADD DUP4 SWAP1 MSTORE PUSH1 0x64 DUP2 ADD DUP5 SWAP1 MSTORE PUSH1 0x84 ADD PUSH2 0xA14 JUMP JUMPDEST PUSH0 DUP4 DUP2 MSTORE PUSH1 0x1 PUSH1 0x20 SWAP1 DUP2 MSTORE PUSH1 0x40 DUP1 DUP4 KECCAK256 PUSH1 0x1 PUSH1 0x1 PUSH1 0xA0 SHL SUB DUP14 AND DUP5 MSTORE SWAP1 SWAP2 MSTORE SWAP1 KECCAK256 SWAP1 DUP3 SWAP1 SUB SWAP1 SSTORE JUMPDEST PUSH1 0x1 PUSH1 0x1 PUSH1 0xA0 SHL SUB DUP8 AND ISZERO PUSH2 0x4476 JUMPI PUSH0 DUP3 DUP2 MSTORE PUSH1 0x1 PUSH1 0x20 SWAP1 DUP2 MSTORE PUSH1 0x40 DUP1 DUP4 KECCAK256 PUSH1 0x1 PUSH1 0x1 PUSH1 0xA0 SHL SUB DUP12 AND DUP5 MSTORE SWAP1 SWAP2 MSTORE DUP2 KECCAK256 DUP1 SLOAD DUP4 SWAP3 SWAP1 PUSH2 0x4470 SWAP1 DUP5 SWAP1 PUSH2 0x4E23 JUMP JUMPDEST SWAP1 SWAP2 SSTORE POP POP JUMPDEST POP POP PUSH1 0x1 ADD PUSH2 0x437B JUMP JUMPDEST POP DUP3 MLOAD PUSH1 0x1 SUB PUSH2 0x4500 JUMPI PUSH1 0x20 DUP4 ADD MLOAD PUSH0 SWAP1 PUSH1 0x20 DUP5 ADD MLOAD SWAP1 SWAP2 POP DUP6 PUSH1 0x1 PUSH1 0x1 PUSH1 0xA0 SHL SUB AND DUP8 PUSH1 0x1 PUSH1 0x1 PUSH1 0xA0 SHL SUB AND DUP5 PUSH1 0x1 PUSH1 0x1 PUSH1 0xA0 SHL SUB AND PUSH32 0xC3D58168C5AE7397731D063D5BBF3D657854427343F4C083240F7AACAA2D0F62 DUP6 DUP6 PUSH1 0x40 MLOAD PUSH2 0x44F1 SWAP3 SWAP2 SWAP1 SWAP2 DUP3 MSTORE PUSH1 0x20 DUP3 ADD MSTORE PUSH1 0x40 ADD SWAP1 JUMP JUMPDEST PUSH1 0x40 MLOAD DUP1 SWAP2 SUB SWAP1 LOG4 POP POP PUSH2 0x3C45 JUMP JUMPDEST DUP4 PUSH1 0x1 PUSH1 0x1 PUSH1 0xA0 SHL SUB AND DUP6 PUSH1 0x1 PUSH1 0x1 PUSH1 0xA0 SHL SUB AND DUP3 PUSH1 0x1 PUSH1 0x1 PUSH1 0xA0 SHL SUB AND PUSH32 0x4A39DC06D4C0DBC64B70AF90FD698A233A518AA5D07E595D983B8C0526C8F7FB DUP7 DUP7 PUSH1 0x40 MLOAD PUSH2 0x454F SWAP3 SWAP2 SWAP1 PUSH2 0x50FB JUMP JUMPDEST PUSH1 0x40 MLOAD DUP1 SWAP2 SUB SWAP1 LOG4 POP POP POP POP POP JUMP JUMPDEST DUP1 CALLDATALOAD PUSH1 0x1 PUSH1 0x1 PUSH1 0xA0 SHL SUB DUP2 AND DUP2 EQ PUSH2 0x4574 JUMPI PUSH0 PUSH0 REVERT JUMPDEST SWAP2 SWAP1 POP JUMP JUMPDEST PUSH0 PUSH0 PUSH1 0x40 DUP4 DUP6 SUB SLT ISZERO PUSH2 0x458A JUMPI PUSH0 PUSH0 REVERT JUMPDEST PUSH2 0x4593 DUP4 PUSH2 0x455E JUMP JUMPDEST SWAP5 PUSH1 0x20 SWAP4 SWAP1 SWAP4 ADD CALLDATALOAD SWAP4 POP POP POP JUMP JUMPDEST PUSH1 0x1 PUSH1 0x1 PUSH1 0xE0 SHL SUB NOT DUP2 AND DUP2 EQ PUSH2 0x152B JUMPI PUSH0 PUSH0 REVERT JUMPDEST PUSH0 PUSH1 0x20 DUP3 DUP5 SUB SLT ISZERO PUSH2 0x45C6 JUMPI PUSH0 PUSH0 REVERT JUMPDEST DUP2 CALLDATALOAD PUSH2 0x10AE DUP2 PUSH2 0x45A1 JUMP JUMPDEST PUSH0 PUSH1 0x20 DUP3 DUP5 SUB SLT ISZERO PUSH2 0x45E1 JUMPI PUSH0 PUSH0 REVERT JUMPDEST POP CALLDATALOAD SWAP2 SWAP1 POP JUMP JUMPDEST PUSH0 PUSH2 0x1C0 DUP3 ADD SWAP1 POP DUP5 MLOAD DUP3 MSTORE PUSH1 0x20 DUP6 ADD MLOAD PUSH1 0x20 DUP4 ADD MSTORE PUSH1 0x1 PUSH1 0x1 PUSH1 0xA0 SHL SUB PUSH1 0x40 DUP7 ADD MLOAD AND PUSH1 0x40 DUP4 ADD MSTORE PUSH1 0x1 PUSH1 0x1 PUSH1 0x60 SHL SUB PUSH1 0x60 DUP7 ADD MLOAD AND PUSH1 0x60 DUP4 ADD MSTORE PUSH4 0xFFFFFFFF PUSH1 0x80 DUP7 ADD MLOAD AND PUSH1 0x80 DUP4 ADD MSTORE PUSH1 0xA0 DUP6 ADD MLOAD PUSH2 0x464B PUSH1 0xA0 DUP5 ADD DUP3 PUSH4 0xFFFFFFFF AND SWAP1 MSTORE JUMP JUMPDEST POP PUSH1 0xC0 DUP6 ADD MLOAD PUSH2 0x4663 PUSH1 0xC0 DUP5 ADD DUP3 PUSH4 0xFFFFFFFF AND SWAP1 MSTORE JUMP JUMPDEST POP PUSH1 0xE0 DUP6 ADD MLOAD PUSH2 0x467E PUSH1 0xE0 DUP5 ADD DUP3 PUSH1 0x1 PUSH1 0x1 PUSH1 0x60 SHL SUB AND SWAP1 MSTORE JUMP JUMPDEST POP DUP4 MLOAD PUSH1 0x1 PUSH1 0x1 PUSH1 0xA0 SHL SUB AND PUSH2 0x100 DUP4 ADD MSTORE PUSH1 0x20 DUP5 ADD MLOAD PUSH1 0x1 PUSH1 0x1 PUSH1 0x60 SHL SUB SWAP1 DUP2 AND PUSH2 0x120 DUP5 ADD MSTORE PUSH1 0x40 DUP6 ADD MLOAD PUSH2 0x140 DUP5 ADD MSTORE PUSH1 0x60 DUP6 ADD MLOAD PUSH2 0x160 DUP5 ADD MSTORE PUSH1 0x80 SWAP1 SWAP5 ADD MLOAD SWAP1 SWAP4 AND PUSH2 0x180 DUP3 ADD MSTORE PUSH2 0x1A0 ADD MSTORE SWAP2 SWAP1 POP JUMP JUMPDEST PUSH0 DUP2 MLOAD DUP1 DUP5 MSTORE DUP1 PUSH1 0x20 DUP5 ADD PUSH1 0x20 DUP7 ADD MCOPY PUSH0 PUSH1 0x20 DUP3 DUP7 ADD ADD MSTORE PUSH1 0x20 PUSH1 0x1F NOT PUSH1 0x1F DUP4 ADD AND DUP6 ADD ADD SWAP2 POP POP SWAP3 SWAP2 POP POP JUMP JUMPDEST PUSH1 0x20 DUP2 MSTORE PUSH0 PUSH2 0x10AE PUSH1 0x20 DUP4 ADD DUP5 PUSH2 0x46D5 JUMP JUMPDEST PUSH4 0x4E487B71 PUSH1 0xE0 SHL PUSH0 MSTORE PUSH1 0x21 PUSH1 0x4 MSTORE PUSH1 0x24 PUSH0 REVERT JUMPDEST PUSH1 0x20 DUP2 ADD PUSH1 0x6 DUP4 LT PUSH2 0x4749 JUMPI PUSH4 0x4E487B71 PUSH1 0xE0 SHL PUSH0 MSTORE PUSH1 0x21 PUSH1 0x4 MSTORE PUSH1 0x24 PUSH0 REVERT JUMPDEST SWAP2 SWAP1 MSTORE SWAP1 JUMP JUMPDEST PUSH0 PUSH0 PUSH0 PUSH1 0x60 DUP5 DUP7 SUB SLT ISZERO PUSH2 0x4761 JUMPI PUSH0 PUSH0 REVERT JUMPDEST POP POP DUP2 CALLDATALOAD SWAP4 PUSH1 0x20 DUP4 ADD CALLDATALOAD SWAP4 POP PUSH1 0x40 SWAP1 SWAP3 ADD CALLDATALOAD SWAP2 SWAP1 POP JUMP JUMPDEST PUSH0 PUSH0 PUSH1 0x40 DUP4 DUP6 SUB SLT ISZERO PUSH2 0x4789 JUMPI PUSH0 PUSH0 REVERT JUMPDEST POP POP DUP1 CALLDATALOAD SWAP3 PUSH1 0x20 SWAP1 SWAP2 ADD CALLDATALOAD SWAP2 POP JUMP JUMPDEST PUSH4 0x4E487B71 PUSH1 0xE0 SHL PUSH0 MSTORE PUSH1 0x41 PUSH1 0x4 MSTORE PUSH1 0x24 PUSH0 REVERT JUMPDEST PUSH1 0x40 MLOAD PUSH1 0x1F DUP3 ADD PUSH1 0x1F NOT AND DUP2 ADD PUSH8 0xFFFFFFFFFFFFFFFF DUP2 GT DUP3 DUP3 LT OR ISZERO PUSH2 0x47D5 JUMPI PUSH2 0x47D5 PUSH2 0x4798 JUMP JUMPDEST PUSH1 0x40 MSTORE SWAP2 SWAP1 POP JUMP JUMPDEST PUSH0 PUSH8 0xFFFFFFFFFFFFFFFF DUP3 GT ISZERO PUSH2 0x47F6 JUMPI PUSH2 0x47F6 PUSH2 0x4798 JUMP JUMPDEST POP PUSH1 0x5 SHL PUSH1 0x20 ADD SWAP1 JUMP JUMPDEST PUSH0 DUP3 PUSH1 0x1F DUP4 ADD SLT PUSH2 0x480F JUMPI PUSH0 PUSH0 REVERT JUMPDEST DUP2 CALLDATALOAD PUSH2 0x4822 PUSH2 0x481D DUP3 PUSH2 0x47DD JUMP JUMPDEST PUSH2 0x47AC JUMP JUMPDEST DUP1 DUP3 DUP3 MSTORE PUSH1 0x20 DUP3 ADD SWAP2 POP PUSH1 0x20 DUP4 PUSH1 0x5 SHL DUP7 ADD ADD SWAP3 POP DUP6 DUP4 GT ISZERO PUSH2 0x4843 JUMPI PUSH0 PUSH0 REVERT JUMPDEST PUSH1 0x20 DUP6 ADD JUMPDEST DUP4 DUP2 LT ISZERO PUSH2 0x4860 JUMPI DUP1 CALLDATALOAD DUP4 MSTORE PUSH1 0x20 SWAP3 DUP4 ADD SWAP3 ADD PUSH2 0x4848 JUMP JUMPDEST POP SWAP6 SWAP5 POP POP POP POP POP JUMP JUMPDEST PUSH0 DUP3 PUSH1 0x1F DUP4 ADD SLT PUSH2 0x4879 JUMPI PUSH0 PUSH0 REVERT JUMPDEST DUP2 CALLDATALOAD PUSH8 0xFFFFFFFFFFFFFFFF DUP2 GT ISZERO PUSH2 0x4893 JUMPI PUSH2 0x4893 PUSH2 0x4798 JUMP JUMPDEST PUSH2 0x48A6 PUSH1 0x1F DUP3 ADD PUSH1 0x1F NOT AND PUSH1 0x20 ADD PUSH2 0x47AC JUMP JUMPDEST DUP2 DUP2 MSTORE DUP5 PUSH1 0x20 DUP4 DUP7 ADD ADD GT ISZERO PUSH2 0x48BA JUMPI PUSH0 PUSH0 REVERT JUMPDEST DUP2 PUSH1 0x20 DUP6 ADD PUSH1 0x20 DUP4 ADD CALLDATACOPY PUSH0 SWAP2 DUP2 ADD PUSH1 0x20 ADD SWAP2 SWAP1 SWAP2 MSTORE SWAP4 SWAP3 POP POP POP JUMP JUMPDEST PUSH0 PUSH0 PUSH0 PUSH0 PUSH0 PUSH1 0xA0 DUP7 DUP9 SUB SLT ISZERO PUSH2 0x48EA JUMPI PUSH0 PUSH0 REVERT JUMPDEST PUSH2 0x48F3 DUP7 PUSH2 0x455E JUMP JUMPDEST SWAP5 POP PUSH2 0x4901 PUSH1 0x20 DUP8 ADD PUSH2 0x455E JUMP JUMPDEST SWAP4 POP PUSH1 0x40 DUP7 ADD CALLDATALOAD PUSH8 0xFFFFFFFFFFFFFFFF DUP2 GT ISZERO PUSH2 0x491C JUMPI PUSH0 PUSH0 REVERT JUMPDEST PUSH2 0x4928 DUP9 DUP3 DUP10 ADD PUSH2 0x4800 JUMP JUMPDEST SWAP4 POP POP PUSH1 0x60 DUP7 ADD CALLDATALOAD PUSH8 0xFFFFFFFFFFFFFFFF DUP2 GT ISZERO PUSH2 0x4944 JUMPI PUSH0 PUSH0 REVERT JUMPDEST PUSH2 0x4950 DUP9 DUP3 DUP10 ADD PUSH2 0x4800 JUMP JUMPDEST SWAP3 POP POP PUSH1 0x80 DUP7 ADD CALLDATALOAD PUSH8 0xFFFFFFFFFFFFFFFF DUP2 GT ISZERO PUSH2 0x496C JUMPI PUSH0 PUSH0 REVERT JUMPDEST PUSH2 0x4978 DUP9 DUP3 DUP10 ADD PUSH2 0x486A JUMP JUMPDEST SWAP2 POP POP SWAP3 SWAP6 POP SWAP3 SWAP6 SWAP1 SWAP4 POP JUMP JUMPDEST DUP1 CALLDATALOAD PUSH4 0xFFFFFFFF DUP2 AND DUP2 EQ PUSH2 0x4574 JUMPI PUSH0 PUSH0 REVERT JUMPDEST PUSH0 PUSH1 0x20 DUP3 DUP5 SUB SLT ISZERO PUSH2 0x49A8 JUMPI PUSH0 PUSH0 REVERT JUMPDEST PUSH2 0x10AE DUP3 PUSH2 0x4985 JUMP JUMPDEST PUSH0 PUSH1 0x20 DUP3 DUP5 SUB SLT ISZERO PUSH2 0x49C1 JUMPI PUSH0 PUSH0 REVERT JUMPDEST PUSH2 0x10AE DUP3 PUSH2 0x455E JUMP JUMPDEST PUSH0 PUSH0 DUP4 PUSH1 0x1F DUP5 ADD SLT PUSH2 0x49DA JUMPI PUSH0 PUSH0 REVERT JUMPDEST POP DUP2 CALLDATALOAD PUSH8 0xFFFFFFFFFFFFFFFF DUP2 GT ISZERO PUSH2 0x49F1 JUMPI PUSH0 PUSH0 REVERT JUMPDEST PUSH1 0x20 DUP4 ADD SWAP2 POP DUP4 PUSH1 0x20 DUP3 DUP6 ADD ADD GT ISZERO PUSH2 0x4A08 JUMPI PUSH0 PUSH0 REVERT JUMPDEST SWAP3 POP SWAP3 SWAP1 POP JUMP JUMPDEST PUSH0 PUSH0 PUSH0 PUSH1 0x40 DUP5 DUP7 SUB SLT ISZERO PUSH2 0x4A21 JUMPI PUSH0 PUSH0 REVERT JUMPDEST DUP4 CALLDATALOAD SWAP3 POP PUSH1 0x20 DUP5 ADD CALLDATALOAD PUSH8 0xFFFFFFFFFFFFFFFF DUP2 GT ISZERO PUSH2 0x4A3E JUMPI PUSH0 PUSH0 REVERT JUMPDEST PUSH2 0x4A4A DUP7 DUP3 DUP8 ADD PUSH2 0x49CA JUMP JUMPDEST SWAP5 SWAP8 SWAP1 SWAP7 POP SWAP4 SWAP5 POP POP POP POP JUMP JUMPDEST PUSH0 PUSH0 PUSH1 0x40 DUP4 DUP6 SUB SLT ISZERO PUSH2 0x4A68 JUMPI PUSH0 PUSH0 REVERT JUMPDEST DUP3 CALLDATALOAD PUSH8 0xFFFFFFFFFFFFFFFF DUP2 GT ISZERO PUSH2 0x4A7E JUMPI PUSH0 PUSH0 REVERT JUMPDEST DUP4 ADD PUSH1 0x1F DUP2 ADD DUP6 SGT PUSH2 0x4A8E JUMPI PUSH0 PUSH0 REVERT JUMPDEST DUP1 CALLDATALOAD PUSH2 0x4A9C PUSH2 0x481D DUP3 PUSH2 0x47DD JUMP JUMPDEST DUP1 DUP3 DUP3 MSTORE PUSH1 0x20 DUP3 ADD SWAP2 POP PUSH1 0x20 DUP4 PUSH1 0x5 SHL DUP6 ADD ADD SWAP3 POP DUP8 DUP4 GT ISZERO PUSH2 0x4ABD JUMPI PUSH0 PUSH0 REVERT JUMPDEST PUSH1 0x20 DUP5 ADD SWAP4 POP JUMPDEST DUP3 DUP5 LT ISZERO PUSH2 0x4AE6 JUMPI PUSH2 0x4AD5 DUP5 PUSH2 0x455E JUMP JUMPDEST DUP3 MSTORE PUSH1 0x20 SWAP4 DUP5 ADD SWAP4 SWAP1 SWAP2 ADD SWAP1 PUSH2 0x4AC4 JUMP JUMPDEST SWAP5 POP POP POP POP PUSH1 0x20 DUP4 ADD CALLDATALOAD PUSH8 0xFFFFFFFFFFFFFFFF DUP2 GT ISZERO PUSH2 0x4B04 JUMPI PUSH0 PUSH0 REVERT JUMPDEST PUSH2 0x4B10 DUP6 DUP3 DUP7 ADD PUSH2 0x4800 JUMP JUMPDEST SWAP2 POP POP SWAP3 POP SWAP3 SWAP1 POP JUMP JUMPDEST PUSH0 DUP2 MLOAD DUP1 DUP5 MSTORE PUSH1 0x20 DUP5 ADD SWAP4 POP PUSH1 0x20 DUP4 ADD PUSH0 JUMPDEST DUP3 DUP2 LT ISZERO PUSH2 0x4B4A JUMPI DUP2 MLOAD DUP7 MSTORE PUSH1 0x20 SWAP6 DUP7 ADD SWAP6 SWAP1 SWAP2 ADD SWAP1 PUSH1 0x1 ADD PUSH2 0x4B2C JUMP JUMPDEST POP SWAP4 SWAP5 SWAP4 POP POP POP POP JUMP JUMPDEST PUSH1 0x20 DUP2 MSTORE PUSH0 PUSH2 0x10AE PUSH1 0x20 DUP4 ADD DUP5 PUSH2 0x4B1A JUMP JUMPDEST PUSH0 PUSH0 PUSH0 PUSH0 PUSH1 0x80 DUP6 DUP8 SUB SLT ISZERO PUSH2 0x4B79 JUMPI PUSH0 PUSH0 REVERT JUMPDEST DUP5 CALLDATALOAD SWAP4 POP PUSH2 0x4B89 PUSH1 0x20 DUP7 ADD PUSH2 0x4985 JUMP JUMPDEST SWAP3 POP PUSH2 0x4B97 PUSH1 0x40 DUP7 ADD PUSH2 0x4985 JUMP JUMPDEST SWAP2 POP PUSH2 0x4BA5 PUSH1 0x60 DUP7 ADD PUSH2 0x4985 JUMP JUMPDEST SWAP1 POP SWAP3 SWAP6 SWAP2 SWAP5 POP SWAP3 POP JUMP JUMPDEST PUSH0 PUSH0 PUSH0 PUSH0 PUSH0 PUSH0 PUSH0 PUSH0 PUSH1 0xE0 DUP10 DUP12 SUB SLT ISZERO PUSH2 0x4BC7 JUMPI PUSH0 PUSH0 REVERT JUMPDEST DUP9 CALLDATALOAD SWAP8 POP PUSH1 0x20 DUP10 ADD CALLDATALOAD SWAP7 POP PUSH2 0x4BDE PUSH1 0x40 DUP11 ADD PUSH2 0x4985 JUMP JUMPDEST SWAP6 POP PUSH2 0x4BEC PUSH1 0x60 DUP11 ADD PUSH2 0x4985 JUMP JUMPDEST SWAP5 POP PUSH2 0x4BFA PUSH1 0x80 DUP11 ADD PUSH2 0x4985 JUMP JUMPDEST SWAP4 POP PUSH2 0x4C08 PUSH1 0xA0 DUP11 ADD PUSH2 0x4985 JUMP JUMPDEST SWAP3 POP PUSH1 0xC0 DUP10 ADD CALLDATALOAD PUSH8 0xFFFFFFFFFFFFFFFF DUP2 GT ISZERO PUSH2 0x4C23 JUMPI PUSH0 PUSH0 REVERT JUMPDEST PUSH2 0x4C2F DUP12 DUP3 DUP13 ADD PUSH2 0x49CA JUMP JUMPDEST SWAP10 SWAP13 SWAP9 SWAP12 POP SWAP7 SWAP10 POP SWAP5 SWAP8 SWAP4 SWAP7 SWAP3 SWAP6 SWAP5 POP POP POP JUMP JUMPDEST PUSH0 PUSH0 PUSH1 0x40 DUP4 DUP6 SUB SLT ISZERO PUSH2 0x4C54 JUMPI PUSH0 PUSH0 REVERT JUMPDEST PUSH2 0x4C5D DUP4 PUSH2 0x455E JUMP JUMPDEST SWAP2 POP PUSH1 0x20 DUP4 ADD CALLDATALOAD DUP1 ISZERO ISZERO DUP2 EQ PUSH2 0x4C71 JUMPI PUSH0 PUSH0 REVERT JUMPDEST DUP1 SWAP2 POP POP SWAP3 POP SWAP3 SWAP1 POP JUMP JUMPDEST PUSH0 PUSH0 PUSH0 PUSH0 PUSH0 PUSH0 PUSH0 PUSH1 0xC0 DUP9 DUP11 SUB SLT ISZERO PUSH2 0x4C92 JUMPI PUSH0 PUSH0 REVERT JUMPDEST DUP8 CALLDATALOAD SWAP7 POP PUSH1 0x20 DUP9 ADD CALLDATALOAD SWAP6 POP PUSH1 0x40 DUP9 ADD CALLDATALOAD SWAP5 POP PUSH1 0x60 DUP9 ADD CALLDATALOAD SWAP4 POP PUSH1 0x80 DUP9 ADD CALLDATALOAD SWAP3 POP PUSH1 0xA0 DUP9 ADD CALLDATALOAD PUSH8 0xFFFFFFFFFFFFFFFF DUP2 GT ISZERO PUSH2 0x4CCB JUMPI PUSH0 PUSH0 REVERT JUMPDEST PUSH2 0x4CD7 DUP11 DUP3 DUP12 ADD PUSH2 0x49CA JUMP JUMPDEST SWAP9 SWAP12 SWAP8 SWAP11 POP SWAP6 SWAP9 POP SWAP4 SWAP7 SWAP3 SWAP6 SWAP3 SWAP4 POP POP POP JUMP JUMPDEST PUSH0 PUSH0 PUSH1 0x40 DUP4 DUP6 SUB SLT ISZERO PUSH2 0x4CFB JUMPI PUSH0 PUSH0 REVERT JUMPDEST PUSH2 0x4D04 DUP4 PUSH2 0x455E JUMP JUMPDEST SWAP2 POP PUSH2 0x4D12 PUSH1 0x20 DUP5 ADD PUSH2 0x455E JUMP JUMPDEST SWAP1 POP SWAP3 POP SWAP3 SWAP1 POP JUMP JUMPDEST PUSH0 PUSH0 PUSH0 PUSH0 PUSH0 PUSH1 0xA0 DUP7 DUP9 SUB SLT ISZERO PUSH2 0x4D2F JUMPI PUSH0 PUSH0 REVERT JUMPDEST PUSH2 0x4D38 DUP7 PUSH2 0x455E JUMP JUMPDEST SWAP5 POP PUSH2 0x4D46 PUSH1 0x20 DUP8 ADD PUSH2 0x455E JUMP JUMPDEST SWAP4 POP PUSH1 0x40 DUP7 ADD CALLDATALOAD SWAP3 POP PUSH1 0x60 DUP7 ADD CALLDATALOAD SWAP2 POP PUSH1 0x80 DUP7 ADD CALLDATALOAD PUSH8 0xFFFFFFFFFFFFFFFF DUP2 GT ISZERO PUSH2 0x496C JUMPI PUSH0 PUSH0 REVERT JUMPDEST PUSH1 0x1 DUP2 DUP2 SHR SWAP1 DUP3 AND DUP1 PUSH2 0x4D83 JUMPI PUSH1 0x7F DUP3 AND SWAP2 POP JUMPDEST PUSH1 0x20 DUP3 LT DUP2 SUB PUSH2 0x4DA1 JUMPI PUSH4 0x4E487B71 PUSH1 0xE0 SHL PUSH0 MSTORE PUSH1 0x22 PUSH1 0x4 MSTORE PUSH1 0x24 PUSH0 REVERT JUMPDEST POP SWAP2 SWAP1 POP JUMP JUMPDEST PUSH4 0x4E487B71 PUSH1 0xE0 SHL PUSH0 MSTORE PUSH1 0x11 PUSH1 0x4 MSTORE PUSH1 0x24 PUSH0 REVERT JUMPDEST DUP2 DUP2 SUB DUP2 DUP2 GT ISZERO PUSH2 0x908 JUMPI PUSH2 0x908 PUSH2 0x4DA7 JUMP JUMPDEST DUP1 DUP3 MUL DUP2 ISZERO DUP3 DUP3 DIV DUP5 EQ OR PUSH2 0x908 JUMPI PUSH2 0x908 PUSH2 0x4DA7 JUMP JUMPDEST PUSH1 0x1 PUSH1 0x1 PUSH1 0x60 SHL SUB DUP2 DUP2 AND DUP4 DUP3 AND ADD SWAP1 DUP2 GT ISZERO PUSH2 0x908 JUMPI PUSH2 0x908 PUSH2 0x4DA7 JUMP JUMPDEST PUSH0 DUP3 PUSH2 0x4E1E JUMPI PUSH4 0x4E487B71 PUSH1 0xE0 SHL PUSH0 MSTORE PUSH1 0x12 PUSH1 0x4 MSTORE PUSH1 0x24 PUSH0 REVERT JUMPDEST POP DIV SWAP1 JUMP JUMPDEST DUP1 DUP3 ADD DUP1 DUP3 GT ISZERO PUSH2 0x908 JUMPI PUSH2 0x908 PUSH2 0x4DA7 JUMP JUMPDEST DUP2 DUP4 MSTORE DUP2 DUP2 PUSH1 0x20 DUP6 ADD CALLDATACOPY POP PUSH0 DUP3 DUP3 ADD PUSH1 0x20 SWAP1 DUP2 ADD SWAP2 SWAP1 SWAP2 MSTORE PUSH1 0x1F SWAP1 SWAP2 ADD PUSH1 0x1F NOT AND SWAP1 SWAP2 ADD ADD SWAP1 JUMP JUMPDEST PUSH1 0x1 PUSH1 0x1 PUSH1 0xA0 SHL SUB DUP9 AND DUP2 MSTORE PUSH1 0xFF DUP8 AND PUSH1 0x20 DUP3 ADD MSTORE DUP6 PUSH1 0x40 DUP3 ADD MSTORE PUSH1 0xFF DUP6 AND PUSH1 0x60 DUP3 ADD MSTORE DUP4 PUSH1 0x80 DUP3 ADD MSTORE PUSH1 0xC0 PUSH1 0xA0 DUP3 ADD MSTORE PUSH0 PUSH2 0x4E9E PUSH1 0xC0 DUP4 ADD DUP5 DUP7 PUSH2 0x4E36 JUMP JUMPDEST SWAP10 SWAP9 POP POP POP POP POP POP POP POP POP JUMP JUMPDEST PUSH0 PUSH1 0x20 DUP3 DUP5 SUB SLT ISZERO PUSH2 0x4EBB JUMPI PUSH0 PUSH0 REVERT JUMPDEST POP MLOAD SWAP2 SWAP1 POP JUMP JUMPDEST PUSH4 0x4E487B71 PUSH1 0xE0 SHL PUSH0 MSTORE PUSH1 0x32 PUSH1 0x4 MSTORE PUSH1 0x24 PUSH0 REVERT JUMPDEST PUSH4 0xFFFFFFFF DUP2 DUP2 AND DUP4 DUP3 AND MUL SWAP1 DUP2 AND SWAP1 DUP2 DUP2 EQ PUSH2 0x1174 JUMPI PUSH2 0x1174 PUSH2 0x4DA7 JUMP JUMPDEST PUSH0 PUSH1 0x1 DUP3 ADD PUSH2 0x4F06 JUMPI PUSH2 0x4F06 PUSH2 0x4DA7 JUMP JUMPDEST POP PUSH1 0x1 ADD SWAP1 JUMP JUMPDEST PUSH1 0x1 DUP2 JUMPDEST PUSH1 0x1 DUP5 GT ISZERO PUSH2 0x4F48 JUMPI DUP1 DUP6 DIV DUP2 GT ISZERO PUSH2 0x4F2C JUMPI PUSH2 0x4F2C PUSH2 0x4DA7 JUMP JUMPDEST PUSH1 0x1 DUP5 AND ISZERO PUSH2 0x4F3A JUMPI SWAP1 DUP2 MUL SWAP1 JUMPDEST PUSH1 0x1 SWAP4 SWAP1 SWAP4 SHR SWAP3 DUP1 MUL PUSH2 0x4F11 JUMP JUMPDEST SWAP4 POP SWAP4 SWAP2 POP POP JUMP JUMPDEST PUSH0 DUP3 PUSH2 0x4F5E JUMPI POP PUSH1 0x1 PUSH2 0x908 JUMP JUMPDEST DUP2 PUSH2 0x4F6A JUMPI POP PUSH0 PUSH2 0x908 JUMP JUMPDEST DUP2 PUSH1 0x1 DUP2 EQ PUSH2 0x4F80 JUMPI PUSH1 0x2 DUP2 EQ PUSH2 0x4F8A JUMPI PUSH2 0x4FA6 JUMP JUMPDEST PUSH1 0x1 SWAP2 POP POP PUSH2 0x908 JUMP JUMPDEST PUSH1 0xFF DUP5 GT ISZERO PUSH2 0x4F9B JUMPI PUSH2 0x4F9B PUSH2 0x4DA7 JUMP JUMPDEST POP POP PUSH1 0x1 DUP3 SHL PUSH2 0x908 JUMP JUMPDEST POP PUSH1 0x20 DUP4 LT PUSH2 0x133 DUP4 LT AND PUSH1 0x4E DUP5 LT PUSH1 0xB DUP5 LT AND OR ISZERO PUSH2 0x4FC9 JUMPI POP DUP2 DUP2 EXP PUSH2 0x908 JUMP JUMPDEST PUSH2 0x4FD5 PUSH0 NOT DUP5 DUP5 PUSH2 0x4F0D JUMP JUMPDEST DUP1 PUSH0 NOT DIV DUP3 GT ISZERO PUSH2 0x4FE8 JUMPI PUSH2 0x4FE8 PUSH2 0x4DA7 JUMP JUMPDEST MUL SWAP4 SWAP3 POP POP POP JUMP JUMPDEST PUSH0 PUSH2 0x10AE PUSH1 0xFF DUP5 AND DUP4 PUSH2 0x4F50 JUMP JUMPDEST PUSH1 0x1 PUSH1 0x1 PUSH1 0x60 SHL SUB DUP3 DUP2 AND DUP3 DUP3 AND SUB SWAP1 DUP2 GT ISZERO PUSH2 0x908 JUMPI PUSH2 0x908 PUSH2 0x4DA7 JUMP JUMPDEST PUSH1 0x1 PUSH1 0x1 PUSH1 0xA0 SHL SUB DUP7 AND DUP2 MSTORE PUSH1 0xFF DUP6 AND PUSH1 0x20 DUP3 ADD MSTORE DUP4 PUSH1 0x40 DUP3 ADD MSTORE PUSH1 0x80 PUSH1 0x60 DUP3 ADD MSTORE PUSH0 PUSH2 0x3600 PUSH1 0x80 DUP4 ADD DUP5 DUP7 PUSH2 0x4E36 JUMP JUMPDEST PUSH1 0x1 PUSH1 0x1 PUSH1 0xA0 SHL SUB DUP7 AND DUP2 MSTORE PUSH1 0x1 PUSH1 0x1 PUSH1 0xA0 SHL SUB DUP6 AND PUSH1 0x20 DUP3 ADD MSTORE DUP4 PUSH1 0x40 DUP3 ADD MSTORE DUP3 PUSH1 0x60 DUP3 ADD MSTORE PUSH1 0xA0 PUSH1 0x80 DUP3 ADD MSTORE PUSH0 PUSH2 0x3600 PUSH1 0xA0 DUP4 ADD DUP5 PUSH2 0x46D5 JUMP JUMPDEST PUSH0 PUSH1 0x20 DUP3 DUP5 SUB SLT ISZERO PUSH2 0x509A JUMPI PUSH0 PUSH0 REVERT JUMPDEST DUP2 MLOAD PUSH2 0x10AE DUP2 PUSH2 0x45A1 JUMP JUMPDEST PUSH1 0x1 PUSH1 0x1 PUSH1 0xA0 SHL SUB DUP7 AND DUP2 MSTORE PUSH1 0x1 PUSH1 0x1 PUSH1 0xA0 SHL SUB DUP6 AND PUSH1 0x20 DUP3 ADD MSTORE PUSH1 0xA0 PUSH1 0x40 DUP3 ADD MSTORE PUSH0 PUSH2 0x50D5 PUSH1 0xA0 DUP4 ADD DUP7 PUSH2 0x4B1A JUMP JUMPDEST DUP3 DUP2 SUB PUSH1 0x60 DUP5 ADD MSTORE PUSH2 0x50E7 DUP2 DUP7 PUSH2 0x4B1A JUMP JUMPDEST SWAP1 POP DUP3 DUP2 SUB PUSH1 0x80 DUP5 ADD MSTORE PUSH2 0x299B DUP2 DUP6 PUSH2 0x46D5 JUMP JUMPDEST PUSH1 0x40 DUP2 MSTORE PUSH0 PUSH2 0x510D PUSH1 0x40 DUP4 ADD DUP6 PUSH2 0x4B1A JUMP JUMPDEST DUP3 DUP2 SUB PUSH1 0x20 DUP5 ADD MSTORE PUSH2 0x1759 DUP2 DUP6 PUSH2 0x4B1A JUMP INVALID LOG2 PUSH5 0x6970667358 0x22 SLT KECCAK256 XOR PUSH29 0xAFCDE90BEE4F568A98EC19058BDE0D4625EE8D08E4A12473551ECD4F7C 0xF6 PUSH5 0x736F6C6343 STOP ADDMOD 0x1E STOP CALLER "
		},
		"gasEstimates": {
			"creation": {
				"codeDepositCost": "4164200",
				"executionCost": "infinite",
				"totalCost": "infinite"
			},
			"external": {
				"CLAIM_PERIOD()": "328",
				"COLLATERAL()": "infinite",
				"FEES_COLLECTOR()": "2458",
				"LIQUIDATION_RELATIVE_VALUE()": "2462",
				"LOT_SIZE()": "2351",
				"MAX_APY()": "2441",
				"MAX_DURATION()": "2419",
				"MIN_APY()": "2440",
				"MIN_DURATION()": "2435",
				"MIN_FILL_DURATION()": "2440",
				"MIN_LOTS_AMOUNT()": "2380",
				"PRICE_ORACLE()": "2427",
				"PROTOCOL_FEE()": "2425",
				"RATIOS_DECIMALS()": "317",
				"TARGET_RELATIVE_VALUE()": "2441",
				"USDC()": "infinite",
				"USDCValueOf(uint256,uint256)": "infinite",
				"WITHDRAW_COOLDOWN()": "283",
				"balanceOf(address,uint256)": "2705",
				"balanceOfBatch(address[],uint256[])": "infinite",
				"borrow(uint256,uint256,uint256,uint256,uint256,bytes)": "infinite",
				"claimCollateral(uint256,bytes)": "48804",
				"claimUSDC(uint256)": "infinite",
				"createAsBorrower(uint256,uint256,uint32,uint32,uint32,uint32,bytes)": "infinite",
				"createAsLender(uint256,uint32,uint32,uint32)": "infinite",
				"exists(uint256)": "2559",
				"getDebt(uint256)": "infinite",
				"getLoanInfo(uint256)": "23053",
				"getLoanStatus(uint256)": "22061",
				"getRelativeCollateralValue(uint256,bytes)": "24598",
				"increaseCollateral(uint256,uint256)": "48590",
				"isApprovedForAll(address,address)": "infinite",
				"isCollateralClaimable(uint256,bytes)": "infinite",
				"lend(uint256,uint256,uint256)": "infinite",
				"owner()": "2463",
				"renounceOwnership()": "infinite",
				"repay(uint256)": "48547",
				"safeBatchTransferFrom(address,address,uint256[],uint256[],bytes)": "infinite",
				"safeTransferFrom(address,address,uint256,uint256,bytes)": "infinite",
				"setApprovalForAll(address,bool)": "26789",
				"setFeesCollector(address)": "27900",
				"setLiquidationRelativeValue(uint32)": "27917",
				"setLotSize(uint256)": "25653",
				"setMaxAPY(uint32)": "27869",
				"setMaxDuration(uint32)": "27861",
				"setMinAPY(uint32)": "27862",
				"setMinDuration(uint32)": "27847",
				"setMinFillDuration(uint32)": "27884",
				"setMinLotsAmount(uint32)": "27849",
				"setPriceOracle(address)": "27864",
				"setProtocolFee(uint32)": "27894",
				"setTargetRelativeValue(uint32)": "27891",
				"supportsInterface(bytes4)": "621",
				"totalSupply()": "2349",
				"totalSupply(uint256)": "2491",
				"transferOwnership(address)": "28461",
				"uri(uint256)": "infinite",
				"withdrawCollateral(uint256)": "infinite",
				"withdrawUSDC(uint256,uint256)": "infinite"
			},
			"internal": {
				"emit_state_updated(uint256)": "infinite",
				"time_now()": "infinite",
				"usdc_to_collateral(uint256,contract IPriceData,bytes calldata)": "infinite"
			}
		},
		"methodIdentifiers": {
			"CLAIM_PERIOD()": "21241dfe",
			"COLLATERAL()": "24bbab8b",
			"FEES_COLLECTOR()": "c5f16166",
			"LIQUIDATION_RELATIVE_VALUE()": "670d5b63",
			"LOT_SIZE()": "7fee67a2",
			"MAX_APY()": "3d92f4e2",
			"MAX_DURATION()": "b1724b46",
			"MIN_APY()": "e51d375a",
			"MIN_DURATION()": "b6a6d177",
			"MIN_FILL_DURATION()": "a8a71e09",
			"MIN_LOTS_AMOUNT()": "acbb65af",
			"PRICE_ORACLE()": "0a19399a",
			"PROTOCOL_FEE()": "0b4501fd",
			"RATIOS_DECIMALS()": "03cc1194",
			"TARGET_RELATIVE_VALUE()": "a0420e7f",
			"USDC()": "89a30271",
			"USDCValueOf(uint256,uint256)": "2d4cdfc3",
			"WITHDRAW_COOLDOWN()": "950d91e9",
			"balanceOf(address,uint256)": "00fdd58e",
			"balanceOfBatch(address[],uint256[])": "4e1273f4",
			"borrow(uint256,uint256,uint256,uint256,uint256,bytes)": "e3f1aa94",
			"claimCollateral(uint256,bytes)": "e444f545",
			"claimUSDC(uint256)": "6e5f4a89",
			"createAsBorrower(uint256,uint256,uint32,uint32,uint32,uint32,bytes)": "7175030d",
			"createAsLender(uint256,uint32,uint32,uint32)": "51f740d5",
			"exists(uint256)": "4f558e79",
			"getDebt(uint256)": "c9dd1f3c",
			"getLoanInfo(uint256)": "0714012c",
			"getLoanStatus(uint256)": "1c4fd41c",
			"getRelativeCollateralValue(uint256,bytes)": "48782996",
			"increaseCollateral(uint256,uint256)": "54f0cb0d",
			"isApprovedForAll(address,address)": "e985e9c5",
			"isCollateralClaimable(uint256,bytes)": "a877e9ce",
			"lend(uint256,uint256,uint256)": "2bed89e5",
			"owner()": "8da5cb5b",
			"renounceOwnership()": "715018a6",
			"repay(uint256)": "371fd8e6",
			"safeBatchTransferFrom(address,address,uint256[],uint256[],bytes)": "2eb2c2d6",
			"safeTransferFrom(address,address,uint256,uint256,bytes)": "f242432a",
			"setApprovalForAll(address,bool)": "a22cb465",
			"setFeesCollector(address)": "373071f2",
			"setLiquidationRelativeValue(uint32)": "35557e5c",
			"setLotSize(uint256)": "34591a3e",
			"setMaxAPY(uint32)": "49d4a7c4",
			"setMaxDuration(uint32)": "ef921826",
			"setMinAPY(uint32)": "a45234d0",
			"setMinDuration(uint32)": "3273b110",
			"setMinFillDuration(uint32)": "c5b3a376",
			"setMinLotsAmount(uint32)": "f08a5381",
			"setPriceOracle(address)": "530e784f",
			"setProtocolFee(uint32)": "aa9f7628",
			"setTargetRelativeValue(uint32)": "9d100875",
			"supportsInterface(bytes4)": "01ffc9a7",
			"totalSupply()": "18160ddd",
			"totalSupply(uint256)": "bd85b039",
			"transferOwnership(address)": "f2fde38b",
			"uri(uint256)": "0e89341c",
			"withdrawCollateral(uint256)": "6112fe2e",
			"withdrawUSDC(uint256,uint256)": "88e08665"
		}
	},
	"abi": [
		{
			"inputs": [
				{
					"internalType": "address",
					"name": "_price_oracle_address",
					"type": "address"
				},
				{
					"internalType": "address",
					"name": "_COLLATERAL",
					"type": "address"
				},
				{
					"internalType": "address",
					"name": "_USDC",
					"type": "address"
				},
				{
					"internalType": "address",
					"name": "_FEES_COLLECTOR",
					"type": "address"
				},
				{
					"internalType": "string",
					"name": "_erc1155_uri",
					"type": "string"
				}
			],
			"stateMutability": "nonpayable",
			"type": "constructor"
		},
		{
			"inputs": [
				{
					"internalType": "address",
					"name": "sender",
					"type": "address"
				},
				{
					"internalType": "uint256",
					"name": "balance",
					"type": "uint256"
				},
				{
					"internalType": "uint256",
					"name": "needed",
					"type": "uint256"
				},
				{
					"internalType": "uint256",
					"name": "tokenId",
					"type": "uint256"
				}
			],
			"name": "ERC1155InsufficientBalance",
			"type": "error"
		},
		{
			"inputs": [
				{
					"internalType": "address",
					"name": "approver",
					"type": "address"
				}
			],
			"name": "ERC1155InvalidApprover",
			"type": "error"
		},
		{
			"inputs": [
				{
					"internalType": "uint256",
					"name": "idsLength",
					"type": "uint256"
				},
				{
					"internalType": "uint256",
					"name": "valuesLength",
					"type": "uint256"
				}
			],
			"name": "ERC1155InvalidArrayLength",
			"type": "error"
		},
		{
			"inputs": [
				{
					"internalType": "address",
					"name": "operator",
					"type": "address"
				}
			],
			"name": "ERC1155InvalidOperator",
			"type": "error"
		},
		{
			"inputs": [
				{
					"internalType": "address",
					"name": "receiver",
					"type": "address"
				}
			],
			"name": "ERC1155InvalidReceiver",
			"type": "error"
		},
		{
			"inputs": [
				{
					"internalType": "address",
					"name": "sender",
					"type": "address"
				}
			],
			"name": "ERC1155InvalidSender",
			"type": "error"
		},
		{
			"inputs": [
				{
					"internalType": "address",
					"name": "operator",
					"type": "address"
				},
				{
					"internalType": "address",
					"name": "owner",
					"type": "address"
				}
			],
			"name": "ERC1155MissingApprovalForAll",
			"type": "error"
		},
		{
			"inputs": [
				{
					"internalType": "address",
					"name": "owner",
					"type": "address"
				}
			],
			"name": "OwnableInvalidOwner",
			"type": "error"
		},
		{
			"inputs": [
				{
					"internalType": "address",
					"name": "account",
					"type": "address"
				}
			],
			"name": "OwnableUnauthorizedAccount",
			"type": "error"
		},
		{
			"inputs": [],
			"name": "ReentrancyGuardReentrantCall",
			"type": "error"
		},
		{
			"inputs": [
				{
					"internalType": "address",
					"name": "token",
					"type": "address"
				}
			],
			"name": "SafeERC20FailedOperation",
			"type": "error"
		},
		{
			"anonymous": false,
			"inputs": [
				{
					"indexed": true,
					"internalType": "address",
					"name": "account",
					"type": "address"
				},
				{
					"indexed": true,
					"internalType": "address",
					"name": "operator",
					"type": "address"
				},
				{
					"indexed": false,
					"internalType": "bool",
					"name": "approved",
					"type": "bool"
				}
			],
			"name": "ApprovalForAll",
			"type": "event"
		},
		{
			"anonymous": false,
			"inputs": [
				{
					"indexed": true,
					"internalType": "uint256",
					"name": "loan_id",
					"type": "uint256"
				},
				{
					"indexed": false,
					"internalType": "uint256",
					"name": "lots",
					"type": "uint256"
				}
			],
			"name": "Borrow",
			"type": "event"
		},
		{
			"anonymous": false,
			"inputs": [
				{
					"indexed": true,
					"internalType": "uint256",
					"name": "loan_id",
					"type": "uint256"
				},
				{
					"indexed": true,
					"internalType": "address",
					"name": "lender",
					"type": "address"
				},
				{
					"indexed": false,
					"internalType": "uint256",
					"name": "lots",
					"type": "uint256"
				},
				{
					"indexed": false,
					"internalType": "uint256",
					"name": "collateral_amount",
					"type": "uint256"
				}
			],
			"name": "ClaimCollateral",
			"type": "event"
		},
		{
			"anonymous": false,
			"inputs": [
				{
					"indexed": true,
					"internalType": "uint256",
					"name": "loan_id",
					"type": "uint256"
				},
				{
					"indexed": true,
					"internalType": "address",
					"name": "lender",
					"type": "address"
				},
				{
					"indexed": false,
					"internalType": "uint256",
					"name": "lots",
					"type": "uint256"
				},
				{
					"indexed": false,
					"internalType": "uint256",
					"name": "USDC_amount",
					"type": "uint256"
				}
			],
			"name": "ClaimUSDC",
			"type": "event"
		},
		{
			"anonymous": false,
			"inputs": [
				{
					"indexed": true,
					"internalType": "uint256",
					"name": "loan_id",
					"type": "uint256"
				},
				{
					"indexed": false,
					"internalType": "uint256",
					"name": "lots_required",
					"type": "uint256"
				},
				{
					"indexed": false,
					"internalType": "uint256",
					"name": "lot_size",
					"type": "uint256"
				},
				{
					"indexed": false,
					"internalType": "address",
					"name": "price_oracle",
					"type": "address"
				},
				{
					"indexed": false,
					"internalType": "uint96",
					"name": "duration",
					"type": "uint96"
				},
				{
					"indexed": false,
					"internalType": "uint32",
					"name": "apy",
					"type": "uint32"
				},
				{
					"indexed": false,
					"internalType": "uint32",
					"name": "target_relative_value",
					"type": "uint32"
				},
				{
					"indexed": false,
					"internalType": "uint32",
					"name": "liquidation_relative_value",
					"type": "uint32"
				},
				{
					"indexed": false,
					"internalType": "uint96",
					"name": "fill_deadline",
					"type": "uint96"
				}
			],
			"name": "CreateAsBorrower",
			"type": "event"
		},
		{
			"anonymous": false,
			"inputs": [
				{
					"indexed": true,
					"internalType": "uint256",
					"name": "loan_id",
					"type": "uint256"
				},
				{
					"indexed": true,
					"internalType": "address",
					"name": "lender",
					"type": "address"
				},
				{
					"indexed": false,
					"internalType": "uint256",
					"name": "lots_required",
					"type": "uint256"
				},
				{
					"indexed": false,
					"internalType": "uint256",
					"name": "lot_size",
					"type": "uint256"
				},
				{
					"indexed": false,
					"internalType": "address",
					"name": "price_oracle",
					"type": "address"
				},
				{
					"indexed": false,
					"internalType": "uint96",
					"name": "duration",
					"type": "uint96"
				},
				{
					"indexed": false,
					"internalType": "uint32",
					"name": "apy",
					"type": "uint32"
				},
				{
					"indexed": false,
					"internalType": "uint32",
					"name": "target_relative_value",
					"type": "uint32"
				},
				{
					"indexed": false,
					"internalType": "uint32",
					"name": "liquidation_relative_value",
					"type": "uint32"
				},
				{
					"indexed": false,
					"internalType": "uint96",
					"name": "fill_deadline",
					"type": "uint96"
				}
			],
			"name": "CreateAsLender",
			"type": "event"
		},
		{
			"anonymous": false,
			"inputs": [
				{
					"indexed": true,
					"internalType": "uint256",
					"name": "loan_id",
					"type": "uint256"
				},
				{
					"indexed": false,
					"internalType": "uint96",
					"name": "claim_deadline",
					"type": "uint96"
				}
			],
			"name": "FullyFunded",
			"type": "event"
		},
		{
			"anonymous": false,
			"inputs": [
				{
					"indexed": true,
					"internalType": "uint256",
					"name": "load_id",
					"type": "uint256"
				},
				{
					"indexed": false,
					"internalType": "uint256",
					"name": "collateral_amount",
					"type": "uint256"
				}
			],
			"name": "IncreaseCollateral",
			"type": "event"
		},
		{
			"anonymous": false,
			"inputs": [
				{
					"indexed": true,
					"internalType": "uint256",
					"name": "loan_id",
					"type": "uint256"
				},
				{
					"indexed": true,
					"internalType": "address",
					"name": "lender",
					"type": "address"
				},
				{
					"indexed": false,
					"internalType": "uint256",
					"name": "lots",
					"type": "uint256"
				}
			],
			"name": "Lend",
			"type": "event"
		},
		{
			"anonymous": false,
			"inputs": [
				{
					"indexed": true,
					"internalType": "address",
					"name": "previousOwner",
					"type": "address"
				},
				{
					"indexed": true,
					"internalType": "address",
					"name": "newOwner",
					"type": "address"
				}
			],
			"name": "OwnershipTransferred",
			"type": "event"
		},
		{
			"anonymous": false,
			"inputs": [
				{
					"indexed": true,
					"internalType": "uint256",
					"name": "loan_id",
					"type": "uint256"
				},
				{
					"indexed": false,
					"internalType": "uint256",
					"name": "USDC_amount",
					"type": "uint256"
				}
			],
			"name": "Repay",
			"type": "event"
		},
		{
			"anonymous": false,
			"inputs": [
				{
					"indexed": false,
					"internalType": "address",
					"name": "FEES_COLLECTOR",
					"type": "address"
				}
			],
			"name": "SetFeesCollector",
			"type": "event"
		},
		{
			"anonymous": false,
			"inputs": [
				{
					"indexed": false,
					"internalType": "uint32",
					"name": "LIQUIDATION_RELATIVE_VALUE",
					"type": "uint32"
				}
			],
			"name": "SetLiquidationRelativeValue",
			"type": "event"
		},
		{
			"anonymous": false,
			"inputs": [
				{
					"indexed": false,
					"internalType": "uint256",
					"name": "LOT_SIZE",
					"type": "uint256"
				}
			],
			"name": "SetLotSize",
			"type": "event"
		},
		{
			"anonymous": false,
			"inputs": [
				{
					"indexed": false,
					"internalType": "uint32",
					"name": "MAX_APY",
					"type": "uint32"
				}
			],
			"name": "SetMaxAPY",
			"type": "event"
		},
		{
			"anonymous": false,
			"inputs": [
				{
					"indexed": false,
					"internalType": "uint32",
					"name": "MIN_LOTS_AMOUNT",
					"type": "uint32"
				}
			],
			"name": "SetMaxDuration",
			"type": "event"
		},
		{
			"anonymous": false,
			"inputs": [
				{
					"indexed": false,
					"internalType": "uint32",
					"name": "MIN_APY",
					"type": "uint32"
				}
			],
			"name": "SetMinAPY",
			"type": "event"
		},
		{
			"anonymous": false,
			"inputs": [
				{
					"indexed": false,
					"internalType": "uint32",
					"name": "MIN_LOTS_AMOUNT",
					"type": "uint32"
				}
			],
			"name": "SetMinDuration",
			"type": "event"
		},
		{
			"anonymous": false,
			"inputs": [
				{
					"indexed": false,
					"internalType": "uint32",
					"name": "MIN_FILL_DURATION",
					"type": "uint32"
				}
			],
			"name": "SetMinFillDuration",
			"type": "event"
		},
		{
			"anonymous": false,
			"inputs": [
				{
					"indexed": false,
					"internalType": "uint32",
					"name": "MIN_LOTS_AMOUNT",
					"type": "uint32"
				}
			],
			"name": "SetMinLotsAmount",
			"type": "event"
		},
		{
			"anonymous": false,
			"inputs": [
				{
					"indexed": false,
					"internalType": "address",
					"name": "PRICE_ORACLE",
					"type": "address"
				}
			],
			"name": "SetPriceOracle",
			"type": "event"
		},
		{
			"anonymous": false,
			"inputs": [
				{
					"indexed": false,
					"internalType": "uint32",
					"name": "PROTOCOL_FEE",
					"type": "uint32"
				}
			],
			"name": "SetProtocolFee",
			"type": "event"
		},
		{
			"anonymous": false,
			"inputs": [
				{
					"indexed": false,
					"internalType": "uint32",
					"name": "TARGET_RELATIVE_VALUE",
					"type": "uint32"
				}
			],
			"name": "SetTargetRelativeValue",
			"type": "event"
		},
		{
			"anonymous": false,
			"inputs": [
				{
					"indexed": true,
					"internalType": "uint256",
					"name": "loan_id",
					"type": "uint256"
				},
				{
					"indexed": true,
					"internalType": "address",
					"name": "borrower",
					"type": "address"
				},
				{
					"indexed": false,
					"internalType": "uint96",
					"name": "deadline",
					"type": "uint96"
				},
				{
					"indexed": false,
					"internalType": "uint256",
					"name": "collateral_balance",
					"type": "uint256"
				},
				{
					"indexed": false,
					"internalType": "uint256",
					"name": "USDC_balance",
					"type": "uint256"
				},
				{
					"indexed": false,
					"internalType": "uint96",
					"name": "claim_deadline",
					"type": "uint96"
				}
			],
			"name": "StateUpdated",
			"type": "event"
		},
		{
			"anonymous": false,
			"inputs": [
				{
					"indexed": true,
					"internalType": "address",
					"name": "operator",
					"type": "address"
				},
				{
					"indexed": true,
					"internalType": "address",
					"name": "from",
					"type": "address"
				},
				{
					"indexed": true,
					"internalType": "address",
					"name": "to",
					"type": "address"
				},
				{
					"indexed": false,
					"internalType": "uint256[]",
					"name": "ids",
					"type": "uint256[]"
				},
				{
					"indexed": false,
					"internalType": "uint256[]",
					"name": "values",
					"type": "uint256[]"
				}
			],
			"name": "TransferBatch",
			"type": "event"
		},
		{
			"anonymous": false,
			"inputs": [
				{
					"indexed": true,
					"internalType": "address",
					"name": "operator",
					"type": "address"
				},
				{
					"indexed": true,
					"internalType": "address",
					"name": "from",
					"type": "address"
				},
				{
					"indexed": true,
					"internalType": "address",
					"name": "to",
					"type": "address"
				},
				{
					"indexed": false,
					"internalType": "uint256",
					"name": "id",
					"type": "uint256"
				},
				{
					"indexed": false,
					"internalType": "uint256",
					"name": "value",
					"type": "uint256"
				}
			],
			"name": "TransferSingle",
			"type": "event"
		},
		{
			"anonymous": false,
			"inputs": [
				{
					"indexed": false,
					"internalType": "string",
					"name": "value",
					"type": "string"
				},
				{
					"indexed": true,
					"internalType": "uint256",
					"name": "id",
					"type": "uint256"
				}
			],
			"name": "URI",
			"type": "event"
		},
		{
			"anonymous": false,
			"inputs": [
				{
					"indexed": true,
					"internalType": "uint256",
					"name": "load_id",
					"type": "uint256"
				}
			],
			"name": "WithdrawCollateral",
			"type": "event"
		},
		{
			"anonymous": false,
			"inputs": [
				{
					"indexed": true,
					"internalType": "uint256",
					"name": "loan_id",
					"type": "uint256"
				},
				{
					"indexed": true,
					"internalType": "address",
					"name": "lender",
					"type": "address"
				},
				{
					"indexed": false,
					"internalType": "uint256",
					"name": "lots",
					"type": "uint256"
				}
			],
			"name": "WithdrawUSDC",
			"type": "event"
		},
		{
			"inputs": [],
			"name": "CLAIM_PERIOD",
			"outputs": [
				{
					"internalType": "uint96",
					"name": "",
					"type": "uint96"
				}
			],
			"stateMutability": "view",
			"type": "function"
		},
		{
			"inputs": [],
			"name": "COLLATERAL",
			"outputs": [
				{
					"internalType": "address",
					"name": "",
					"type": "address"
				}
			],
			"stateMutability": "view",
			"type": "function"
		},
		{
			"inputs": [],
			"name": "FEES_COLLECTOR",
			"outputs": [
				{
					"internalType": "address",
					"name": "",
					"type": "address"
				}
			],
			"stateMutability": "view",
			"type": "function"
		},
		{
			"inputs": [],
			"name": "LIQUIDATION_RELATIVE_VALUE",
			"outputs": [
				{
					"internalType": "uint32",
					"name": "",
					"type": "uint32"
				}
			],
			"stateMutability": "view",
			"type": "function"
		},
		{
			"inputs": [],
			"name": "LOT_SIZE",
			"outputs": [
				{
					"internalType": "uint256",
					"name": "",
					"type": "uint256"
				}
			],
			"stateMutability": "view",
			"type": "function"
		},
		{
			"inputs": [],
			"name": "MAX_APY",
			"outputs": [
				{
					"internalType": "uint32",
					"name": "",
					"type": "uint32"
				}
			],
			"stateMutability": "view",
			"type": "function"
		},
		{
			"inputs": [],
			"name": "MAX_DURATION",
			"outputs": [
				{
					"internalType": "uint32",
					"name": "",
					"type": "uint32"
				}
			],
			"stateMutability": "view",
			"type": "function"
		},
		{
			"inputs": [],
			"name": "MIN_APY",
			"outputs": [
				{
					"internalType": "uint32",
					"name": "",
					"type": "uint32"
				}
			],
			"stateMutability": "view",
			"type": "function"
		},
		{
			"inputs": [],
			"name": "MIN_DURATION",
			"outputs": [
				{
					"internalType": "uint32",
					"name": "",
					"type": "uint32"
				}
			],
			"stateMutability": "view",
			"type": "function"
		},
		{
			"inputs": [],
			"name": "MIN_FILL_DURATION",
			"outputs": [
				{
					"internalType": "uint32",
					"name": "",
					"type": "uint32"
				}
			],
			"stateMutability": "view",
			"type": "function"
		},
		{
			"inputs": [],
			"name": "MIN_LOTS_AMOUNT",
			"outputs": [
				{
					"internalType": "uint32",
					"name": "",
					"type": "uint32"
				}
			],
			"stateMutability": "view",
			"type": "function"
		},
		{
			"inputs": [],
			"name": "PRICE_ORACLE",
			"outputs": [
				{
					"internalType": "contract IPriceData",
					"name": "",
					"type": "address"
				}
			],
			"stateMutability": "view",
			"type": "function"
		},
		{
			"inputs": [],
			"name": "PROTOCOL_FEE",
			"outputs": [
				{
					"internalType": "uint32",
					"name": "",
					"type": "uint32"
				}
			],
			"stateMutability": "view",
			"type": "function"
		},
		{
			"inputs": [],
			"name": "RATIOS_DECIMALS",
			"outputs": [
				{
					"internalType": "uint8",
					"name": "",
					"type": "uint8"
				}
			],
			"stateMutability": "view",
			"type": "function"
		},
		{
			"inputs": [],
			"name": "TARGET_RELATIVE_VALUE",
			"outputs": [
				{
					"internalType": "uint32",
					"name": "",
					"type": "uint32"
				}
			],
			"stateMutability": "view",
			"type": "function"
		},
		{
			"inputs": [],
			"name": "USDC",
			"outputs": [
				{
					"internalType": "contract IERC20",
					"name": "",
					"type": "address"
				}
			],
			"stateMutability": "view",
			"type": "function"
		},
		{
			"inputs": [
				{
					"internalType": "uint256",
					"name": "loan_id",
					"type": "uint256"
				},
				{
					"internalType": "uint256",
					"name": "amount",
					"type": "uint256"
				}
			],
			"name": "USDCValueOf",
			"outputs": [
				{
					"internalType": "uint256",
					"name": "",
					"type": "uint256"
				}
			],
			"stateMutability": "view",
			"type": "function"
		},
		{
			"inputs": [],
			"name": "WITHDRAW_COOLDOWN",
			"outputs": [
				{
					"internalType": "uint96",
					"name": "",
					"type": "uint96"
				}
			],
			"stateMutability": "view",
			"type": "function"
		},
		{
			"inputs": [
				{
					"internalType": "address",
					"name": "account",
					"type": "address"
				},
				{
					"internalType": "uint256",
					"name": "id",
					"type": "uint256"
				}
			],
			"name": "balanceOf",
			"outputs": [
				{
					"internalType": "uint256",
					"name": "",
					"type": "uint256"
				}
			],
			"stateMutability": "view",
			"type": "function"
		},
		{
			"inputs": [
				{
					"internalType": "address[]",
					"name": "accounts",
					"type": "address[]"
				},
				{
					"internalType": "uint256[]",
					"name": "ids",
					"type": "uint256[]"
				}
			],
			"name": "balanceOfBatch",
			"outputs": [
				{
					"internalType": "uint256[]",
					"name": "",
					"type": "uint256[]"
				}
			],
			"stateMutability": "view",
			"type": "function"
		},
		{
			"inputs": [
				{
					"internalType": "uint256",
					"name": "loan_id",
					"type": "uint256"
				},
				{
					"internalType": "uint256",
					"name": "min_lots",
					"type": "uint256"
				},
				{
					"internalType": "uint256",
					"name": "max_lots",
					"type": "uint256"
				},
				{
					"internalType": "uint256",
					"name": "collateral_in",
					"type": "uint256"
				},
				{
					"internalType": "uint256",
					"name": "collateral_out",
					"type": "uint256"
				},
				{
					"internalType": "bytes",
					"name": "offchain_price_data",
					"type": "bytes"
				}
			],
			"name": "borrow",
			"outputs": [
				{
					"internalType": "uint256",
					"name": "",
					"type": "uint256"
				}
			],
			"stateMutability": "nonpayable",
			"type": "function"
		},
		{
			"inputs": [
				{
					"internalType": "uint256",
					"name": "loan_id",
					"type": "uint256"
				},
				{
					"internalType": "bytes",
					"name": "offchain_price_data",
					"type": "bytes"
				}
			],
			"name": "claimCollateral",
			"outputs": [],
			"stateMutability": "nonpayable",
			"type": "function"
		},
		{
			"inputs": [
				{
					"internalType": "uint256",
					"name": "loan_id",
					"type": "uint256"
				}
			],
			"name": "claimUSDC",
			"outputs": [],
			"stateMutability": "nonpayable",
			"type": "function"
		},
		{
			"inputs": [
				{
					"internalType": "uint256",
					"name": "lots",
					"type": "uint256"
				},
				{
					"internalType": "uint256",
					"name": "max_collateral_out",
					"type": "uint256"
				},
				{
					"internalType": "uint32",
					"name": "collateral_value",
					"type": "uint32"
				},
				{
					"internalType": "uint32",
					"name": "duration_days",
					"type": "uint32"
				},
				{
					"internalType": "uint32",
					"name": "apy",
					"type": "uint32"
				},
				{
					"internalType": "uint32",
					"name": "fill_duration_days",
					"type": "uint32"
				},
				{
					"internalType": "bytes",
					"name": "offchain_price_data",
					"type": "bytes"
				}
			],
			"name": "createAsBorrower",
			"outputs": [
				{
					"internalType": "uint256",
					"name": "",
					"type": "uint256"
				}
			],
			"stateMutability": "nonpayable",
			"type": "function"
		},
		{
			"inputs": [
				{
					"internalType": "uint256",
					"name": "lots",
					"type": "uint256"
				},
				{
					"internalType": "uint32",
					"name": "collateral_value",
					"type": "uint32"
				},
				{
					"internalType": "uint32",
					"name": "duration_days",
					"type": "uint32"
				},
				{
					"internalType": "uint32",
					"name": "apy",
					"type": "uint32"
				}
			],
			"name": "createAsLender",
			"outputs": [
				{
					"internalType": "uint256",
					"name": "",
					"type": "uint256"
				}
			],
			"stateMutability": "nonpayable",
			"type": "function"
		},
		{
			"inputs": [
				{
					"internalType": "uint256",
					"name": "id",
					"type": "uint256"
				}
			],
			"name": "exists",
			"outputs": [
				{
					"internalType": "bool",
					"name": "",
					"type": "bool"
				}
			],
			"stateMutability": "view",
			"type": "function"
		},
		{
			"inputs": [
				{
					"internalType": "uint256",
					"name": "loan_id",
					"type": "uint256"
				}
			],
			"name": "getDebt",
			"outputs": [
				{
					"internalType": "uint256",
					"name": "",
					"type": "uint256"
				}
			],
			"stateMutability": "view",
			"type": "function"
		},
		{
			"inputs": [
				{
					"internalType": "uint256",
					"name": "loan_id",
					"type": "uint256"
				}
			],
			"name": "getLoanInfo",
			"outputs": [
				{
					"components": [
						{
							"internalType": "uint256",
							"name": "lots_required",
							"type": "uint256"
						},
						{
							"internalType": "uint256",
							"name": "lot_size",
							"type": "uint256"
						},
						{
							"internalType": "contract IPriceData",
							"name": "price_oracle",
							"type": "address"
						},
						{
							"internalType": "uint96",
							"name": "duration",
							"type": "uint96"
						},
						{
							"internalType": "uint32",
							"name": "apy",
							"type": "uint32"
						},
						{
							"internalType": "uint32",
							"name": "target_relative_value",
							"type": "uint32"
						},
						{
							"internalType": "uint32",
							"name": "liquidation_relative_value",
							"type": "uint32"
						},
						{
							"internalType": "uint96",
							"name": "fill_deadline",
							"type": "uint96"
						}
					],
					"internalType": "struct IP2PLending.LoanConditions",
					"name": "",
					"type": "tuple"
				},
				{
					"components": [
						{
							"internalType": "address",
							"name": "borrower",
							"type": "address"
						},
						{
							"internalType": "uint96",
							"name": "deadline",
							"type": "uint96"
						},
						{
							"internalType": "uint256",
							"name": "collateral_balance",
							"type": "uint256"
						},
						{
							"internalType": "uint256",
							"name": "USDC_balance",
							"type": "uint256"
						},
						{
							"internalType": "uint96",
							"name": "claim_deadline",
							"type": "uint96"
						}
					],
					"internalType": "struct IP2PLending.LoanState",
					"name": "",
					"type": "tuple"
				},
				{
					"internalType": "uint256",
					"name": "",
					"type": "uint256"
				}
			],
			"stateMutability": "view",
			"type": "function"
		},
		{
			"inputs": [
				{
					"internalType": "uint256",
					"name": "loan_id",
					"type": "uint256"
				}
			],
			"name": "getLoanStatus",
			"outputs": [
				{
					"internalType": "enum IP2PLending.LoanStatus",
					"name": "",
					"type": "uint8"
				}
			],
			"stateMutability": "view",
			"type": "function"
		},
		{
			"inputs": [
				{
					"internalType": "uint256",
					"name": "loan_id",
					"type": "uint256"
				},
				{
					"internalType": "bytes",
					"name": "offchain_price_data",
					"type": "bytes"
				}
			],
			"name": "getRelativeCollateralValue",
			"outputs": [
				{
					"internalType": "uint256",
					"name": "",
					"type": "uint256"
				}
			],
			"stateMutability": "view",
			"type": "function"
		},
		{
			"inputs": [
				{
					"internalType": "uint256",
					"name": "loan_id",
					"type": "uint256"
				},
				{
					"internalType": "uint256",
					"name": "collateral_amount",
					"type": "uint256"
				}
			],
			"name": "increaseCollateral",
			"outputs": [],
			"stateMutability": "nonpayable",
			"type": "function"
		},
		{
			"inputs": [
				{
					"internalType": "address",
					"name": "account",
					"type": "address"
				},
				{
					"internalType": "address",
					"name": "operator",
					"type": "address"
				}
			],
			"name": "isApprovedForAll",
			"outputs": [
				{
					"internalType": "bool",
					"name": "",
					"type": "bool"
				}
			],
			"stateMutability": "view",
			"type": "function"
		},
		{
			"inputs": [
				{
					"internalType": "uint256",
					"name": "loan_id",
					"type": "uint256"
				},
				{
					"internalType": "bytes",
					"name": "offchain_price_data",
					"type": "bytes"
				}
			],
			"name": "isCollateralClaimable",
			"outputs": [
				{
					"internalType": "bool",
					"name": "",
					"type": "bool"
				}
			],
			"stateMutability": "view",
			"type": "function"
		},
		{
			"inputs": [
				{
					"internalType": "uint256",
					"name": "loan_id",
					"type": "uint256"
				},
				{
					"internalType": "uint256",
					"name": "target_lots",
					"type": "uint256"
				},
				{
					"internalType": "uint256",
					"name": "min_lots",
					"type": "uint256"
				}
			],
			"name": "lend",
			"outputs": [
				{
					"internalType": "uint256",
					"name": "",
					"type": "uint256"
				}
			],
			"stateMutability": "nonpayable",
			"type": "function"
		},
		{
			"inputs": [],
			"name": "owner",
			"outputs": [
				{
					"internalType": "address",
					"name": "",
					"type": "address"
				}
			],
			"stateMutability": "view",
			"type": "function"
		},
		{
			"inputs": [],
			"name": "renounceOwnership",
			"outputs": [],
			"stateMutability": "nonpayable",
			"type": "function"
		},
		{
			"inputs": [
				{
					"internalType": "uint256",
					"name": "loan_id",
					"type": "uint256"
				}
			],
			"name": "repay",
			"outputs": [],
			"stateMutability": "nonpayable",
			"type": "function"
		},
		{
			"inputs": [
				{
					"internalType": "address",
					"name": "from",
					"type": "address"
				},
				{
					"internalType": "address",
					"name": "to",
					"type": "address"
				},
				{
					"internalType": "uint256[]",
					"name": "ids",
					"type": "uint256[]"
				},
				{
					"internalType": "uint256[]",
					"name": "values",
					"type": "uint256[]"
				},
				{
					"internalType": "bytes",
					"name": "data",
					"type": "bytes"
				}
			],
			"name": "safeBatchTransferFrom",
			"outputs": [],
			"stateMutability": "nonpayable",
			"type": "function"
		},
		{
			"inputs": [
				{
					"internalType": "address",
					"name": "from",
					"type": "address"
				},
				{
					"internalType": "address",
					"name": "to",
					"type": "address"
				},
				{
					"internalType": "uint256",
					"name": "id",
					"type": "uint256"
				},
				{
					"internalType": "uint256",
					"name": "value",
					"type": "uint256"
				},
				{
					"internalType": "bytes",
					"name": "data",
					"type": "bytes"
				}
			],
			"name": "safeTransferFrom",
			"outputs": [],
			"stateMutability": "nonpayable",
			"type": "function"
		},
		{
			"inputs": [
				{
					"internalType": "address",
					"name": "operator",
					"type": "address"
				},
				{
					"internalType": "bool",
					"name": "approved",
					"type": "bool"
				}
			],
			"name": "setApprovalForAll",
			"outputs": [],
			"stateMutability": "nonpayable",
			"type": "function"
		},
		{
			"inputs": [
				{
					"internalType": "address",
					"name": "_FEES_COLLECTOR",
					"type": "address"
				}
			],
			"name": "setFeesCollector",
			"outputs": [],
			"stateMutability": "nonpayable",
			"type": "function"
		},
		{
			"inputs": [
				{
					"internalType": "uint32",
					"name": "_LIQUIDATION_RELATIVE_VALUE",
					"type": "uint32"
				}
			],
			"name": "setLiquidationRelativeValue",
			"outputs": [],
			"stateMutability": "nonpayable",
			"type": "function"
		},
		{
			"inputs": [
				{
					"internalType": "uint256",
					"name": "_LOT_SIZE",
					"type": "uint256"
				}
			],
			"name": "setLotSize",
			"outputs": [],
			"stateMutability": "nonpayable",
			"type": "function"
		},
		{
			"inputs": [
				{
					"internalType": "uint32",
					"name": "_MAX_APY",
					"type": "uint32"
				}
			],
			"name": "setMaxAPY",
			"outputs": [],
			"stateMutability": "nonpayable",
			"type": "function"
		},
		{
			"inputs": [
				{
					"internalType": "uint32",
					"name": "_MAX_DURATION",
					"type": "uint32"
				}
			],
			"name": "setMaxDuration",
			"outputs": [],
			"stateMutability": "nonpayable",
			"type": "function"
		},
		{
			"inputs": [
				{
					"internalType": "uint32",
					"name": "_MIN_APY",
					"type": "uint32"
				}
			],
			"name": "setMinAPY",
			"outputs": [],
			"stateMutability": "nonpayable",
			"type": "function"
		},
		{
			"inputs": [
				{
					"internalType": "uint32",
					"name": "_MIN_DURATION",
					"type": "uint32"
				}
			],
			"name": "setMinDuration",
			"outputs": [],
			"stateMutability": "nonpayable",
			"type": "function"
		},
		{
			"inputs": [
				{
					"internalType": "uint32",
					"name": "_MIN_FILL_DURATION",
					"type": "uint32"
				}
			],
			"name": "setMinFillDuration",
			"outputs": [],
			"stateMutability": "nonpayable",
			"type": "function"
		},
		{
			"inputs": [
				{
					"internalType": "uint32",
					"name": "_MIN_LOTS_AMOUNT",
					"type": "uint32"
				}
			],
			"name": "setMinLotsAmount",
			"outputs": [],
			"stateMutability": "nonpayable",
			"type": "function"
		},
		{
			"inputs": [
				{
					"internalType": "address",
					"name": "_PRICE_ORACLE",
					"type": "address"
				}
			],
			"name": "setPriceOracle",
			"outputs": [],
			"stateMutability": "nonpayable",
			"type": "function"
		},
		{
			"inputs": [
				{
					"internalType": "uint32",
					"name": "_PROTOCOL_FEE",
					"type": "uint32"
				}
			],
			"name": "setProtocolFee",
			"outputs": [],
			"stateMutability": "nonpayable",
			"type": "function"
		},
		{
			"inputs": [
				{
					"internalType": "uint32",
					"name": "_TARGET_RELATIVE_VALUE",
					"type": "uint32"
				}
			],
			"name": "setTargetRelativeValue",
			"outputs": [],
			"stateMutability": "nonpayable",
			"type": "function"
		},
		{
			"inputs": [
				{
					"internalType": "bytes4",
					"name": "interfaceId",
					"type": "bytes4"
				}
			],
			"name": "supportsInterface",
			"outputs": [
				{
					"internalType": "bool",
					"name": "",
					"type": "bool"
				}
			],
			"stateMutability": "view",
			"type": "function"
		},
		{
			"inputs": [],
			"name": "totalSupply",
			"outputs": [
				{
					"internalType": "uint256",
					"name": "",
					"type": "uint256"
				}
			],
			"stateMutability": "view",
			"type": "function"
		},
		{
			"inputs": [
				{
					"internalType": "uint256",
					"name": "id",
					"type": "uint256"
				}
			],
			"name": "totalSupply",
			"outputs": [
				{
					"internalType": "uint256",
					"name": "",
					"type": "uint256"
				}
			],
			"stateMutability": "view",
			"type": "function"
		},
		{
			"inputs": [
				{
					"internalType": "address",
					"name": "newOwner",
					"type": "address"
				}
			],
			"name": "transferOwnership",
			"outputs": [],
			"stateMutability": "nonpayable",
			"type": "function"
		},
		{
			"inputs": [
				{
					"internalType": "uint256",
					"name": "",
					"type": "uint256"
				}
			],
			"name": "uri",
			"outputs": [
				{
					"internalType": "string",
					"name": "",
					"type": "string"
				}
			],
			"stateMutability": "view",
			"type": "function"
		},
		{
			"inputs": [
				{
					"internalType": "uint256",
					"name": "loan_id",
					"type": "uint256"
				}
			],
			"name": "withdrawCollateral",
			"outputs": [],
			"stateMutability": "nonpayable",
			"type": "function"
		},
		{
			"inputs": [
				{
					"internalType": "uint256",
					"name": "loan_id",
					"type": "uint256"
				},
				{
					"internalType": "uint256",
					"name": "lots",
					"type": "uint256"
				}
			],
			"name": "withdrawUSDC",
			"outputs": [],
			"stateMutability": "nonpayable",
			"type": "function"
		}
	]
}