{
	"data": {
		"bytecode": {
			"linkReferences": {},
			"object": "60e0604052600a6007557d2cec000032c8000186a00000006400000001000002da000000070000000a6008556009805463ffffffff191660961790556001600d5534801561004b575f5ffd5b5060405161547e38038061547e83398101604081905261006a9161027d565b80338061009057604051631e4fbdf760e01b81525f600482015260240160405180910390fd5b610099816101ef565b506100a38161023e565b506001600655600a80546001600160a01b0319166001600160a01b0387811691909117909155841660808190526040805163313ce56760e01b8152905163313ce567916004808201926020929091908290030181865afa158015610109573d5f5f3e3d5ffd5b505050506040513d601f19601f8201168201806040525081019061012d919061036f565b60ff1660a0526001600160a01b03831660c08190526040805163313ce56760e01b8152905163313ce567916004808201926020929091908290030181865afa15801561017b573d5f5f3e3d5ffd5b505050506040513d601f19601f8201168201806040525081019061019f919061036f565b6101aa90600a61048f565b6007546101b7919061049d565b60075550600980546001600160a01b0390921664010000000002600160201b600160c01b0319909216919091179055506105f2915050565b5f80546001600160a01b038381166001600160a01b0319831681178455604051919092169283917f8be0079c531659141344cd1fd0a4f28419497f9722a3daafe3b4186f6b6457e09190a35050565b600361024a8282610538565b5050565b80516001600160a01b0381168114610264575f5ffd5b919050565b634e487b7160e01b5f52604160045260245ffd5b5f5f5f5f5f60a08688031215610291575f5ffd5b61029a8661024e565b94506102a86020870161024e565b93506102b66040870161024e565b92506102c46060870161024e565b60808701519092506001600160401b038111156102df575f5ffd5b8601601f810188136102ef575f5ffd5b80516001600160401b0381111561030857610308610269565b604051601f8201601f19908116603f011681016001600160401b038111828210171561033657610336610269565b6040528181528282016020018a101561034d575f5ffd5b8160208401602083015e5f602083830101528093505050509295509295909350565b5f6020828403121561037f575f5ffd5b815160ff8116811461038f575f5ffd5b9392505050565b634e487b7160e01b5f52601160045260245ffd5b6001815b60018411156103e5578085048111156103c9576103c9610396565b60018416156103d757908102905b60019390931c9280026103ae565b935093915050565b5f826103fb57506001610489565b8161040757505f610489565b816001811461041d576002811461042757610443565b6001915050610489565b60ff84111561043857610438610396565b50506001821b610489565b5060208310610133831016604e8410600b8410161715610466575081810a610489565b6104725f1984846103aa565b805f190482111561048557610485610396565b0290505b92915050565b5f61038f60ff8416836103ed565b808202811582820484141761048957610489610396565b600181811c908216806104c857607f821691505b6020821081036104e657634e487b7160e01b5f52602260045260245ffd5b50919050565b601f82111561053357805f5260205f20601f840160051c810160208510156105115750805b601f840160051c820191505b81811015610530575f815560010161051d565b50505b505050565b81516001600160401b0381111561055157610551610269565b6105658161055f84546104b4565b846104ec565b6020601f821160018114610597575f83156105805750848201515b5f19600385901b1c1916600184901b178455610530565b5f84815260208120601f198516915b828110156105c657878501518255602094850194600190920191016105a6565b50848210156105e357868401515f19600387901b60f8161c191681555b50505050600190811b01905550565b60805160a05160c051614dd66106a85f395f81816106ce01528181610d4101528181610d9401528181611341015281816117dd01526125ae01525f81816119d801528181612ef5015281816132aa01526136a701525f81816104e201528181610beb01528181610c5101528181611834015281816119b30152818161213d0152818161230b0152818161237d015281816127e201528181612ed0015281816132850152818161343201526136850152614dd65ff3fe608060405234801561000f575f5ffd5b5060043610610387575f3560e01c8063670d5b63116101df578063aa9f762811610109578063c9dd1f3c116100a9578063ef92182611610079578063ef9218261461086f578063f08a538114610882578063f242432a14610895578063f2fde38b146108a8575f5ffd5b8063c9dd1f3c1461081f578063e444f54514610832578063e51d375a14610845578063e985e9c51461085c575f5ffd5b8063b6a6d177116100e4578063b6a6d177146107bc578063bd85b039146107d3578063c5b3a376146107f2578063c5f1616614610805575f5ffd5b8063aa9f762814610782578063acbb65af14610795578063b1724b46146107a5575f5ffd5b80638da5cb5b1161017f578063a22cb4651161014f578063a22cb46514610732578063a45234d014610745578063a877e9ce14610758578063a8a71e091461076b575f5ffd5b80638da5cb5b146106f0578063950d91e9146107005780639d10087514610708578063a0420e7f1461071b575f5ffd5b80637175030d116101ba5780637175030d1461069a5780637fee67a2146106ad57806388e08665146106b657806389a30271146106c9575f5ffd5b8063670d5b63146106685780636e5f4a891461067f578063715018a614610692575f5ffd5b80632eb2c2d6116102c0578063487829961161026057806351f740d51161023057806351f740d51461061c578063530e784f1461062f57806354f0cb0d146106425780636112fe2e14610655575f5ffd5b806348782996146105b557806349d4a7c4146105c85780634e1273f4146105db5780634f558e79146105fb575f5ffd5b806335557e5c1161029b57806335557e5c14610565578063371fd8e614610578578063373071f21461058b5780633d92f4e21461059e575f5ffd5b80632eb2c2d61461052a5780633273b1101461053f57806334591a3e14610552575f5ffd5b80630e89341c1161032b57806321241dfe1161030657806321241dfe146104bb57806324bbab8b146104dd5780632bed89e5146105045780632d4cdfc314610517575f5ffd5b80630e89341c1461047357806318160ddd146104935780631c4fd41c1461049b575f5ffd5b80630431aaf2116103665780630431aaf2146103ee5780630714012c146104015780630a19399a146104235780630b4501fd1461044e575f5ffd5b8062fdd58e1461038b57806301ffc9a7146103b157806303cc1194146103d4575b5f5ffd5b61039e6103993660046140c8565b6108bb565b6040519081526020015b60405180910390f35b6103c46103bf366004614105565b6108e4565b60405190151581526020016103a8565b6103dc600481565b60405160ff90911681526020016103a8565b61039e6103fc366004614173565b610933565b61041461040f3660046141e7565b610e19565b6040516103a8939291906141fe565b600a54610436906001600160a01b031681565b6040516001600160a01b0390911681526020016103a8565b60095461045e9063ffffffff1681565b60405163ffffffff90911681526020016103a8565b6104866104813660046141e7565b610fab565b6040516103a89190614317565b60055461039e565b6104ae6104a93660046141e7565b61103d565b6040516103a8919061433d565b6104c56201518081565b6040516001600160601b0390911681526020016103a8565b6104367f000000000000000000000000000000000000000000000000000000000000000081565b61039e610512366004614363565b611165565b61039e61052536600461438c565b611510565b61053d6105383660046144e7565b6115b3565b005b61053d61054d3660046145a6565b61161a565b61053d6105603660046141e7565b611681565b61053d6105733660046145a6565b6116be565b61053d6105863660046141e7565b61171c565b61053d6105993660046145bf565b6118b2565b60085461045e90600160a01b900463ffffffff1681565b61039e6105c33660046145d8565b611918565b61053d6105d63660046145a6565b611a6c565b6105ee6105e936600461461f565b611acb565b6040516103a8919061471a565b6103c46106093660046141e7565b5f90815260046020526040902054151590565b61039e61062a36600461472c565b611b95565b61053d61063d3660046145bf565b612033565b61053d61065036600461438c565b612089565b61053d6106633660046141e7565b6121cd565b60085461045e90600160e01b900463ffffffff1681565b61053d61068d3660046141e7565b612441565b61053d612631565b61039e6106a8366004614776565b612644565b61039e60075481565b61053d6106c436600461438c565b612adc565b6104367f000000000000000000000000000000000000000000000000000000000000000081565b5f546001600160a01b0316610436565b6104c5601e81565b61053d6107163660046145a6565b612d58565b60085461045e90600160c01b900463ffffffff1681565b61053d610740366004614808565b612db7565b61053d6107533660046145a6565b612dc2565b6103c46107663660046145d8565b612e21565b60085461045e90600160601b900463ffffffff1681565b61053d6107903660046145a6565b612f98565b60085461045e9063ffffffff1681565b60085461045e90600160401b900463ffffffff1681565b60085461045e90600160201b900463ffffffff1681565b61039e6107e13660046141e7565b5f9081526004602052604090205490565b61053d6108003660046145a6565b612fe8565b60095461043690600160201b90046001600160a01b031681565b61039e61082d3660046141e7565b613047565b61053d6108403660046145d8565b6131b0565b60085461045e90600160801b900463ffffffff1681565b6103c461086a366004614839565b6134bb565b61053d61087d3660046145a6565b6134e8565b61053d6108903660046145a6565b61354c565b61053d6108a3366004614861565b61359c565b61053d6108b63660046145bf565b6135fb565b5f8181526001602090815260408083206001600160a01b03861684529091529020545b92915050565b5f6001600160e01b03198216636cdb3d1360e11b148061091457506001600160e01b031982166303a24d0760e21b145b806108de57506301ffc9a760e01b6001600160e01b03198316146108de565b5f61093c613635565b875f8111801561094d5750600d5481105b6109725760405162461bcd60e51b8152600401610969906148b4565b60405180910390fd5b5f898152600b60209081526040808320600c835281842060049093529220548a158015906109a057508a8110155b80156109ac5750898111155b610a105760405162461bcd60e51b815260206004820152602f60248201527f5032504c656e64696e6720726571756972653a303c6d696e5f6c6f74733c3d7360448201526e7570706c793c3d6d61785f6c6f747360881b6064820152608401610969565b5f610a1a8d61103d565b90506001816005811115610a3057610a30614329565b1480610a4d57506002816005811115610a4b57610a4b614329565b145b610a995760405162461bcd60e51b815260206004820152601960248201527f5032504c656e64696e673a43616e6e6f7420626f72726f7721000000000000006044820152606401610969565b82546001600160a01b0316331480610ab9575082546001600160a01b0316155b610ad55760405162461bcd60e51b8152600401610969906148de565b81845582546001600160a01b031916331783556002840154610b08906001600160601b03600160a01b9091041642614929565b83546001600160601b0391909116600160a01b026001600160a01b039091161783555050600182015482545f91610b3e91614948565b60028401549091505f90610b5e9083906001600160a01b03168a8a61365f565b90508915610c7e575f610b736004600a614a42565b6003860154610b90908490600160201b900463ffffffff16614948565b610b9a9190614a50565b90508360010154811115610c1b575f846001015482610bb99190614a6f565b9050808b1015610bdb5760405162461bcd60e51b815260040161096990614a82565b8454610c15906001600160a01b037f00000000000000000000000000000000000000000000000000000000000000008116911630846136f1565b50610c78565b8360010154811015610c785783546001850154610c78916001600160a01b031690610c47908490614a6f565b6001600160a01b037f000000000000000000000000000000000000000000000000000000000000000016919061375e565b60018401555b610c8a6004600a614a42565b600854610ca5908390600160c01b900463ffffffff16614948565b610caf9190614a50565b83600101541015610d025760405162461bcd60e51b815260206004820152601f60248201527f5032504c656e64696e673a496e63726561736520636f6c6c61746572616c21006044820152606401610969565b5f610d0f6004600a614a42565b600954610d2390859063ffffffff16614948565b610d2d9190614a50565b600954909150610d71906001600160a01b037f0000000000000000000000000000000000000000000000000000000000000000811691600160201b9004168361375e565b8354610dbb906001600160a01b0316610d8a8386614a6f565b6001600160a01b037f000000000000000000000000000000000000000000000000000000000000000016919061375e565b5083546040519081528d907f044ec4d36b0d76019c4b5aec2a216dbca5ad6c6d671940c8fbbcd23cfe4e804b9060200160405180910390a2610dfc8d61378f565b5050905492505050610e0e6001600655565b979650505050505050565b60408051610100810182525f80825260208201819052918101829052606081018290526080810182905260a0810182905260c0810182905260e08101919091526040805160a0810182525f808252602082018190529181018290526060810182905260808101919091525f835f81118015610e955750600d5481105b610eb15760405162461bcd60e51b8152600401610969906148b4565b5050505f91825250600b60209081526040808320600c835281842060048452938290205482516101008101845282548152600180840154828701526002808501546001600160a01b03808216858901526001600160601b03600160a01b92839004811660608088019190915260039889015463ffffffff8082166080808b0191909152600160201b8304821660a0808c0191909152600160401b840490921660c08b0152600160601b909204841660e08a01528b519081018c528d5494851681529490930482169a84019a909a52938a01549782019790975290880154968101969096529290950154909116918301919091529192909190565b606060038054610fba90614ac9565b80601f0160208091040260200160405190810160405280929190818152602001828054610fe690614ac9565b80156110315780601f1061100857610100808354040283529160200191611031565b820191905f5260205f20905b81548152906001019060200180831161101457829003601f168201915b50505050509050919050565b5f818152600b60209081526040808320600c90925282208154830361106557505f9392505050565b80546001600160a01b031615801561108857505f84815260046020526040902054155b806110a9575080546001600160a01b0316158015906110a957506001810154155b156110b8575060059392505050565b8054600160a01b90046001600160601b03165f036111345760038101546001600160601b0316158015906110fb575060038101546001600160601b034281169116105b1561110a575060039392505050565b5f848152600460205260409020548254111561112a575060019392505050565b5060029392505050565b60018101541561115b575f848152600460205260409020541561115b575060049392505050565b5060059392505050565b5f61116e613635565b835f8111801561117f5750600d5481105b61119b5760405162461bcd60e51b8152600401610969906148b4565b5f841180156111aa5750828410155b6112115760405162461bcd60e51b815260206004820152603260248201527f5032504c656e64696e6720726571756972653a7461726765745f6c6f74733e30604482015271202626206c6f74733e3d6d696e5f6c6f747360701b6064820152608401610969565b600161121c8661103d565b600581111561122d5761122d614329565b1461128e5760405162461bcd60e51b815260206004820152602b60248201527f5032504c656e64696e673a4c6f616e537461747573206e6f7420657175616c7360448201526a2046494e414e43494e472160a81b6064820152608401610969565b5f858152600b60209081526040808320600490925282205490919082546112b59190614a6f565b9050848110156113155760405162461bcd60e51b815260206004820152602560248201527f5032504c656e64696e673a4e6f7420656e6f75676820617661696c61626c65206044820152646c6f74732160d81b6064820152608401610969565b5f611320878361381a565b905061136933308386600101546113379190614948565b6001600160a01b037f0000000000000000000000000000000000000000000000000000000000000000169291906136f1565b61138333898360405180602001604052805f815250613829565b82545f8981526004602052604090205411156113f25760405162461bcd60e51b815260206004820152602860248201527f5032504c656e64696e6720726571756972653a737570706c793c3d6c6f74735f6044820152671c995c5d5a5c995960c21b6064820152608401610969565b82545f898152600460205260409020544291900361147f576114176201518082614929565b5f8a8152600c602090815260409182902060030180546001600160601b0319166001600160601b0394909416938417905590519182528a917f6fce911d7163d1242cd9f1727a93eb2d9232bb808db0881b448196dcd2fe412d910160405180910390a26114c2565b61148a601e82614929565b335f908152600e602090815260408083208d8452909152902080546001600160601b0319166001600160601b03929092169190911790555b60405182815233908a907fbc00f64d7f7fdd45626f23c5b8bfa1c1b8e64faf4200efb7da5a7439a326f9559060200160405180910390a35093505050506115096001600655565b9392505050565b5f825f811180156115225750600d5481105b61153e5760405162461bcd60e51b8152600401610969906148b4565b5f8481526004602052604090205480156115a7575f858152600c60205260408120600201541561157e575f868152600c6020526040902060020154611587565b61158786613047565b9050816115948287614948565b61159e9190614a50565b935050506115ac565b5f9250505b5092915050565b336001600160a01b03861681148015906115d457506115d286826134bb565b155b156116055760405163711bec9160e11b81526001600160a01b03808316600483015287166024820152604401610969565b6116128686868686613884565b505050505050565b6116226138e9565b6008805467ffffffff000000001916600160201b63ffffffff8481168202929092179283905560405192041681527f85595cb7b81d221172988f4bf171b00745e5c6f4e17760cc33dd2f02dcb57ae4906020015b60405180910390a150565b6116896138e9565b60078190556040518181527fde6a3638493f2725f743c7c5c9801d3143c92f2adf4825f0434dd9513b2943c790602001611676565b6116c66138e9565b600880546001600160e01b0316600160e01b63ffffffff8481168202929092179283905560405192041681527f89c571e0d88872f4418634e394070dbe24a78682b16a616b1f8e02a2939d421e90602001611676565b611724613635565b805f811180156117355750600d5481105b6117515760405162461bcd60e51b8152600401610969906148b4565b600461175c8361103d565b600581111561176d5761176d614329565b1461178a5760405162461bcd60e51b815260040161096990614b01565b5f828152600c6020526040902080546001600160a01b031633146117c05760405162461bcd60e51b8152600401610969906148de565b5f6117ca84613047565b8254909150611807906001600160a01b037f00000000000000000000000000000000000000000000000000000000000000008116911630846136f1565b80826002015f82825461181a9190614b4a565b90915550508154600183015461185e916001600160a01b037f000000000000000000000000000000000000000000000000000000000000000081169291169061375e565b5f600183015560405181815284907f552544cb36551120f07c66c5cd4b2987725a0c72198587f2ce796099bb66c58c9060200160405180910390a26118a28461378f565b5050506118af6001600655565b50565b6118ba6138e9565b60098054640100000000600160c01b031916600160201b6001600160a01b038481168202929092179283905560405192041681527f15a6d8dbe28500fe360d4a194d18559ae45775c191765d262c598c2fcb59d96790602001611676565b5f835f8111801561192a5750600d5481105b6119465760405162461bcd60e51b8152600401610969906148b4565b60046119518661103d565b600581111561196257611962614329565b1461197f5760405162461bcd60e51b815260040161096990614b01565b5f858152600b6020908152604080832060020154600c909252909120600101546001600160a01b0390911690634bbf415c907f0000000000000000000000000000000000000000000000000000000000000000906004907f0000000000000000000000000000000000000000000000000000000000000000611a008b613047565b8a8a6040518863ffffffff1660e01b8152600401611a249796959493929190614b85565b602060405180830381865afa158015611a3f573d5f5f3e3d5ffd5b505050506040513d601f19601f82011682018060405250810190611a639190614bd1565b95945050505050565b611a746138e9565b6008805463ffffffff60a01b1916600160a01b63ffffffff8481168202929092179283905560405192041681527f7b0ffac54449edefe5c8b153777b5873e7673d02c8ac936f3cb37a9a2b9e00d590602001611676565b60608151835114611afc5781518351604051635b05999160e01b815260048101929092526024820152604401610969565b5f83516001600160401b03811115611b1657611b166143ac565b604051908082528060200260200182016040528015611b3f578160200160208202803683370190505b5090505f5b8451811015611b8d57602080820286010151611b68906020808402870101516108bb565b828281518110611b7a57611b7a614be8565b6020908102919091010152600101611b44565b509392505050565b5f611b9e613635565b60085463ffffffff168510801590611bc9575060085463ffffffff600160c01b909104811690851610155b8015611be8575060085463ffffffff600160201b909104811690841610155b8015611c07575060085463ffffffff600160401b909104811690841611155b8015611c26575060085463ffffffff600160801b909104811690831610155b8015611c45575060085463ffffffff600160a01b909104811690831611155b611c915760405162461bcd60e51b815260206004820152601d60248201527f5032504c656e64696e673a496e76616c696420617267756d656e7473210000006044820152606401610969565b611ca43330876007546113379190614948565b611cc033600d548760405180602001604052805f815250613829565b60408051610100810182528681526007546020820152600a546001600160a01b03169181019190915260608101611cfa8562015180614bfc565b63ffffffff166001600160601b031681526020018363ffffffff1681526020018563ffffffff1681526020016008601c9054906101000a900463ffffffff1663ffffffff1681526020015f6001600160601b0316815250600b5f600d5481526020019081526020015f205f820151815f0155602082015181600101556040820151816002015f6101000a8154816001600160a01b0302191690836001600160a01b0316021790555060608201518160020160146101000a8154816001600160601b0302191690836001600160601b031602179055506080820151816003015f6101000a81548163ffffffff021916908363ffffffff16021790555060a08201518160030160046101000a81548163ffffffff021916908363ffffffff16021790555060c08201518160030160086101000a81548163ffffffff021916908363ffffffff16021790555060e082015181600301600c6101000a8154816001600160601b0302191690836001600160601b031602179055509050506040518060a001604052805f6001600160a01b031681526020015f6001600160601b031681526020015f81526020015f81526020015f6001600160601b0316815250600c5f600d5481526020019081526020015f205f820151815f015f6101000a8154816001600160a01b0302191690836001600160a01b031602179055506020820151815f0160146101000a8154816001600160601b0302191690836001600160601b0316021790555060408201518160010155606082015181600201556080820151816003015f6101000a8154816001600160601b0302191690836001600160601b03160217905550905050611f683390565b600d545f818152600b60205260409081902080546001820154600283015460039093015493516001600160a01b03968716967f2f89d5518972ef9f2027aa908ae490b2bd691fbd59e127d7badcdb6bf75551d69561200495918216926001600160601b03600160a01b90930483169263ffffffff80841693600160201b8104821693600160401b820490921692600160601b9091041690614c1b565b60405180910390a3600d8054905f61201b83614c70565b91905055905061202b6001600655565b949350505050565b61203b6138e9565b600a80546001600160a01b0319166001600160a01b0383169081179091556040519081527f88a686e0e341d9099f2f990c3aa759a86822142a67579064b43ded9354a2566290602001611676565b612091613635565b815f811180156120a25750600d5481105b6120be5760405162461bcd60e51b8152600401610969906148b4565b60046120c98461103d565b60058111156120da576120da614329565b146120f75760405162461bcd60e51b815260040161096990614b01565b5f838152600c6020526040902080546001600160a01b0316331461212d5760405162461bcd60e51b8152600401610969906148de565b8054612167906001600160a01b037f00000000000000000000000000000000000000000000000000000000000000008116911630866136f1565b82816001015f82825461217a9190614b4a565b909155505060405183815284907f8cc7f16cd883f4af720102359f36f5a11402ba74ba5515e43b36eea9eddff23c9060200160405180910390a26121bd8461378f565b50506121c96001600655565b5050565b6121d5613635565b805f811180156121e65750600d5481105b6122025760405162461bcd60e51b8152600401610969906148b4565b5f828152600c6020526040902080546001600160a01b031633146122385760405162461bcd60e51b8152600401610969906148de565b8054600160a01b90046001600160601b031615801561225a57505f8160010154115b6122a65760405162461bcd60e51b815260206004820152601b60248201527f5032504c656e64696e673a43616e6e6f742057697468647261772100000000006044820152606401610969565b60016122b18461103d565b60058111156122c2576122c2614329565b1480156122f157505f838152600b60205260409020600301546001600160601b03428116600160601b90920416105b1561233a5780546001820154612335916001600160a01b037f000000000000000000000000000000000000000000000000000000000000000081169291169061375e565b6123cf565b5f6123476004600a614a42565b600183015460095461235f919063ffffffff16614948565b6123699190614a50565b6009549091506123ad906001600160a01b037f0000000000000000000000000000000000000000000000000000000000000000811691600160201b9004168361375e565b815460018301546123cd916001600160a01b031690610c47908490614a6f565b505b5f6001828101829055848252600b602090815260408084209092015460049091529120546123fd9190614948565b600282015560405183907ffc226bcc04f8f8905af4229a5d361773b6bb568167898414274c713c6179e6cb905f90a26124358361378f565b50506118af6001600655565b612449613635565b805f8111801561245a5750600d5481105b6124765760405162461bcd60e51b8152600401610969906148b4565b60056124818361103d565b600581111561249257612492614329565b146124f35760405162461bcd60e51b815260206004820152602b60248201527f5032504c656e64696e673a4c6f616e537461747573206d75737420657175616c60448201526a732046494e49534845442160a81b6064820152608401610969565b5f6124fe33846108bb565b90505f811161254f5760405162461bcd60e51b815260206004820152601c60248201527f5032504c656e64696e673a4e6f7468696e6720746f20636c61696d21000000006044820152606401610969565b5f838152600c60209081526040808320600490925282205490919060028301546125799085614948565b6125839190614a50565b905080826002015f8282546125989190614a6f565b909155506125a99050338685613915565b6125dd7f00000000000000000000000000000000000000000000000000000000000000006001600160a01b0316338361375e565b6040805184815260208101839052339187917ffcdaabbcac647c42f2fbf34f6c5a49ee8a8cd0b64ef5eb50b25441bdb133ddf2910160405180910390a36126238561378f565b505050506118af6001600655565b6126396138e9565b6126425f61397b565b565b5f61264d613635565b60085463ffffffff168910801590612678575060085463ffffffff600160c01b909104811690881610155b8015612697575060085463ffffffff600160201b909104811690871610155b80156126b6575060085463ffffffff600160401b909104811690871611155b80156126d5575060085463ffffffff600160801b909104811690861610155b80156126f4575060085463ffffffff600160a01b909104811690861611155b8015612713575060085463ffffffff600160601b909104811690851610155b61275f5760405162461bcd60e51b815260206004820152601d60248201527f5032504c656e64696e673a496e76616c696420617267756d656e7473210000006044820152606401610969565b5f8960075461276e9190614948565b90505f61277d6004600a614a42565b600a546127969084906001600160a01b0316888861365f565b6127a69063ffffffff8c16614948565b6127b09190614a50565b9050808a101580156127c157505f81115b6127dd5760405162461bcd60e51b815260040161096990614a82565b6128127f00000000000000000000000000000000000000000000000000000000000000006001600160a01b03163330846136f1565b60408051610100810182528c81526007546020820152600a546001600160a01b0316918101919091526060810161284c8a62015180614bfc565b63ffffffff908116825289811660208301528b81166040830152600854600160e01b90041660608201526080016128868862015180614bfc565b6128969063ffffffff1642614929565b6001600160601b03908116909152600d545f908152600b6020908152604091829020845181559084015160018201558382015160608501518416600160a01b026001600160a01b0390911617600282015560808401516003909101805460a08087015160c088015160e090980151909616600160601b026bffffffffffffffffffffffff60601b1963ffffffff988916600160401b021677ffffffffffffffffffffffffffffffff000000000000000019978916600160201b0267ffffffffffffffff199094169890951697909717919091179490941691909117939093179092558151908101909152806129883390565b6001600160a01b0390811682525f6020808401829052604080850187905260608086018490526080958601849052600d80548552600c8452828520885189860151908816600160a01b6001600160601b0392831681029190911783558a860151600180850191909155948b01516002808501919091559a90990151600392830180546001600160601b0319169183169190911790559154808752600b9095529483902080549281015498810154950154925193977fe0b5c9ec62aade94ca24b2ac9d81b2037be7d64cb9e5730fcc727bb885ee603797612a9c979396919593821694910482169263ffffffff80831693600160201b8404821693600160401b810490921692600160601b9092041690614c1b565b60405180910390a2612aaf600d5461378f565b600d8054905f612abe83614c70565b9190505592505050612ad06001600655565b98975050505050505050565b612ae4613635565b815f81118015612af55750600d5481105b612b115760405162461bcd60e51b8152600401610969906148b4565b5f8211612b735760405162461bcd60e51b815260206004820152602a60248201527f5032504c656e64696e673a6c6f7473206d7573742062652067726561746572206044820152697468616e207a65726f2160b01b6064820152608401610969565b5f612b7d8461103d565b5f858152600c60205260409020549091506001600160a01b03161580612bb457506003816005811115612bb257612bb2614329565b145b80612c0157506001816005811115612bce57612bce614329565b148015612c015750335f908152600e602090815260408083208784529091529020546001600160601b0390811642909116115b612c4d5760405162461bcd60e51b815260206004820152601b60248201527f5032504c656e64696e673a43616e6e6f742077697468647261772100000000006044820152606401610969565b612c58338585613915565b5f848152600c60205260409020546001600160a01b0316612cf5575f84815260046020526040902054801580612c96575060085463ffffffff168110155b612cf35760405162461bcd60e51b815260206004820152602860248201527f5032504c656e64696e673a537570706c792062656c6f77204d494e5f4c4f54536044820152675f414d4f554e542160c01b6064820152608401610969565b505b612d15335f868152600b6020526040902060010154610d8a908690614948565b604051838152339085907fbf8fb3d353686a0832043307d6f9bb618df238d387c7dbc9d0fa2fc7b7cba7269060200160405180910390a350506121c96001600655565b612d606138e9565b6008805463ffffffff60c01b1916600160c01b63ffffffff8481168202929092179283905560405192041681527fe03aa8e619c2efc3dcda53a6319b90bd43e44772026248ffaabc2a1535bba8e590602001611676565b6121c93383836139ca565b612dca6138e9565b6008805463ffffffff60801b1916600160801b63ffffffff8481168202929092179283905560405192041681527f2519fd4cf837fefb87387523f27d23369ea51186f29f745cc4677e7c319b3ec090602001611676565b5f5f84118015612e325750600d5484105b1580612e5857506004612e448561103d565b6005811115612e5557612e55614329565b14155b80612f8457505f848152600c60205260409020546001600160601b03428116600160a01b909204161080612f8257505f848152600b602090815260408083206003810154600290910154600c909352922060010154600160401b90920463ffffffff16916001600160a01b0390911690634bbf415c907f0000000000000000000000000000000000000000000000000000000000000000906004907f0000000000000000000000000000000000000000000000000000000000000000612f1d8b613047565b8a8a6040518863ffffffff1660e01b8152600401612f419796959493929190614b85565b602060405180830381865afa158015612f5c573d5f5f3e3d5ffd5b505050506040513d601f19601f82011682018060405250810190612f809190614bd1565b105b155b15612f9057505f611509565b506001611509565b612fa06138e9565b6009805463ffffffff191663ffffffff83169081179091556040519081527f7f6f57fed03f08a846d1dd7051e9d858e85408182510ec902f0d92130791028490602001611676565b612ff06138e9565b6008805463ffffffff60601b1916600160601b63ffffffff8481168202929092179283905560405192041681527f62b518624e16dadca83b89e62d9f351d869e67a350d856935f3a3083aa4cf94890602001611676565b5f818152600c602052604081208054600160a01b90046001600160601b0316158061307457506001810154155b1561308157505f92915050565b5f838152600b6020908152604080832060018101546004909352908320549092916130ab91614948565b83549091505f906001600160601b03428116600160a01b90920416116130f15760028301546130ec90600190600160a01b90046001600160601b0316614c88565b613124565b6002830154845461311a916001600160601b03600160a01b918290048116929190910416614c88565b6131249042614c88565b6001600160601b0316905061313c6201518082614a50565b613147906001614b4a565b6131549062015180614948565b90506301e133806131676004600a614a42565b6003850154849061317e9063ffffffff1685614948565b6131889190614948565b6131929190614a50565b61319c9190614a50565b6131a69083614b4a565b9695505050505050565b6131b8613635565b825f811180156131c95750600d5481105b6131e55760405162461bcd60e51b8152600401610969906148b4565b60046131f08561103d565b600581111561320157613201614329565b1461321e5760405162461bcd60e51b815260040161096990614b01565b5f848152600b60209081526040808320600c90925290912080546001600160601b03428116600160a01b9092041610806133385750600382015460028301546001830154600160401b90920463ffffffff16916001600160a01b039091169063b4e37cf9907f0000000000000000000000000000000000000000000000000000000000000000906004907f00000000000000000000000000000000000000000000000000000000000000006132d28d613047565b8c8c6040518863ffffffff1660e01b81526004016132f69796959493929190614b85565b6020604051808303815f875af1158015613312573d5f5f3e3d5ffd5b505050506040513d601f19601f820116820180604052508101906133369190614bd1565b105b6133845760405162461bcd60e51b815260206004820152601c60248201527f5032504c656e64696e673a43616e6e6f74204c697175696461746521000000006044820152606401610969565b5f61338f33886108bb565b90505f81116133e05760405162461bcd60e51b815260206004820152601c60248201527f5032504c656e64696e673a4e6f7468696e6720746f20636c61696d21000000006044820152606401610969565b5f8781526004602052604081205460018401546133fd9084614948565b6134079190614a50565b905080836001015f82825461341c9190614a6f565b9091555061342d9050338984613915565b6134617f00000000000000000000000000000000000000000000000000000000000000006001600160a01b0316338361375e565b604080518381526020810183905233918a917f1d444c28894712984a4fe069711274d086859136f702d387bda2f1cd90d66df8910160405180910390a36134a78861378f565b50505050506134b66001600655565b505050565b6001600160a01b039182165f90815260026020908152604080832093909416825291909152205460ff1690565b6134f06138e9565b600880546bffffffff00000000000000001916600160401b63ffffffff8481168202929092179283905560405192041681527fa33c859c6a01d7d71b062ae88c11d026efd55b26b354dfc8844e5a74b8bf069b90602001611676565b6135546138e9565b6008805463ffffffff191663ffffffff83169081179091556040519081527f8b8bfa8b607aee8f950b269ee81087cd304216fd813ac4f3aead05d7072a3a1390602001611676565b336001600160a01b03861681148015906135bd57506135bb86826134bb565b155b156135ee5760405163711bec9160e11b81526001600160a01b03808316600483015287166024820152604401610969565b6116128686868686613a5e565b6136036138e9565b6001600160a01b03811661362c57604051631e4fbdf760e01b81525f6004820152602401610969565b6118af8161397b565b60026006540361365857604051633ee5aeb560e01b815260040160405180910390fd5b6002600655565b60405163c5801aa360e01b81525f906001600160a01b0385169063c5801aa3906136d5907f0000000000000000000000000000000000000000000000000000000000000000907f0000000000000000000000000000000000000000000000000000000000000000908a9089908990600401614ca7565b6020604051808303815f875af1158015611a3f573d5f5f3e3d5ffd5b6040516001600160a01b0384811660248301528381166044830152606482018390526137589186918216906323b872dd906084015b604051602081830303815290604052915060e01b6020820180516001600160e01b038381831617835250505050613aea565b50505050565b6040516001600160a01b038381166024830152604482018390526134b691859182169063a9059cbb90606401613726565b5f818152600c602090815260409182902080546001820154600283015460039093015485516001600160601b03600160a01b85048116825295810192909252948101929092529190921660608301526001600160a01b03169082907f289938dfd99639eb7b7174b9259eaa5a4b3a1d69d143b4d03d58b86ac502517d9060800160405180910390a350565b5f828218828410028218611509565b6001600160a01b03841661385257604051632bfa23e760e11b81525f6004820152602401610969565b604080516001808252602082018690528183019081526060820185905260808201909252906116125f87848487613b56565b6001600160a01b0384166138ad57604051632bfa23e760e11b81525f6004820152602401610969565b6001600160a01b0385166138d557604051626a0d4560e21b81525f6004820152602401610969565b6138e28585858585613b56565b5050505050565b5f546001600160a01b031633146126425760405163118cdaa760e01b8152336004820152602401610969565b6001600160a01b03831661393d57604051626a0d4560e21b81525f6004820152602401610969565b604080516001808252602082018590528183019081526060820184905260a082019092525f608082018181529192916138e291879185908590613b56565b5f80546001600160a01b038381166001600160a01b0319831681178455604051919092169283917f8be0079c531659141344cd1fd0a4f28419497f9722a3daafe3b4186f6b6457e09190a35050565b6001600160a01b0382166139f25760405162ced3e160e81b81525f6004820152602401610969565b6001600160a01b038381165f81815260026020908152604080832094871680845294825291829020805460ff191686151590811790915591519182527f17307eab39ab6107e8899845ad3d59bd9653f200f220920489ca2b5937696c31910160405180910390a3505050565b6001600160a01b038416613a8757604051632bfa23e760e11b81525f6004820152602401610969565b6001600160a01b038516613aaf57604051626a0d4560e21b81525f6004820152602401610969565b60408051600180825260208201869052818301908152606082018590526080820190925290613ae18787848487613b56565b50505050505050565b5f5f60205f8451602086015f885af180613b09576040513d5f823e3d81fd5b50505f513d91508115613b20578060011415613b2d565b6001600160a01b0384163b155b1561375857604051635274afe760e01b81526001600160a01b0385166004820152602401610969565b613b6285858585613ba9565b6001600160a01b038416156138e25782513390600103613b9b5760208481015190840151613b94838989858589613c90565b5050611612565b611612818787878787613db1565b613bb584848484613e98565b6001600160a01b038416613c32575f805b8351811015613c195760208181028481018201519086018201515f908152600490925260408220805491928392613bfe908490614b4a565b90915550613c0e90508184614b4a565b925050600101613bc6565b508060055f828254613c2b9190614b4a565b9091555050505b6001600160a01b038316613758575f805b8351811015613c7f5760208181028481018201519086018201515f90815260049092526040909120805482900390559190910190600101613c43565b506005805491909103905550505050565b6001600160a01b0384163b156116125760405163f23a6e6160e01b81526001600160a01b0385169063f23a6e6190613cd49089908990889088908890600401614cd7565b6020604051808303815f875af1925050508015613d0e575060408051601f3d908101601f19168201909252613d0b91810190614d10565b60015b613d75573d808015613d3b576040519150601f19603f3d011682016040523d82523d5f602084013e613d40565b606091505b5080515f03613d6d57604051632bfa23e760e11b81526001600160a01b0386166004820152602401610969565b805181602001fd5b6001600160e01b0319811663f23a6e6160e01b14613ae157604051632bfa23e760e11b81526001600160a01b0386166004820152602401610969565b6001600160a01b0384163b156116125760405163bc197c8160e01b81526001600160a01b0385169063bc197c8190613df59089908990889088908890600401614d2b565b6020604051808303815f875af1925050508015613e2f575060408051601f3d908101601f19168201909252613e2c91810190614d10565b60015b613e5c573d808015613d3b576040519150601f19603f3d011682016040523d82523d5f602084013e613d40565b6001600160e01b0319811663bc197c8160e01b14613ae157604051632bfa23e760e11b81526001600160a01b0386166004820152602401610969565b8051825114613ec75781518151604051635b05999160e01b815260048101929092526024820152604401610969565b335f5b8351811015613fcf576020818102858101820151908501909101516001600160a01b03881615613f7f575f8281526001602090815260408083206001600160a01b038c16845290915290205481811015613f57576040516303dee4c560e01b81526001600160a01b038a166004820152602481018290526044810183905260648101849052608401610969565b5f8381526001602090815260408083206001600160a01b038d16845290915290209082900390555b6001600160a01b03871615613fc5575f8281526001602090815260408083206001600160a01b038b16845290915281208054839290613fbf908490614b4a565b90915550505b5050600101613eca565b50825160010361404f5760208301515f906020840151909150856001600160a01b0316876001600160a01b0316846001600160a01b03167fc3d58168c5ae7397731d063d5bbf3d657854427343f4c083240f7aacaa2d0f628585604051614040929190918252602082015260400190565b60405180910390a450506138e2565b836001600160a01b0316856001600160a01b0316826001600160a01b03167f4a39dc06d4c0dbc64b70af90fd698a233a518aa5d07e595d983b8c0526c8f7fb868660405161409e929190614d7c565b60405180910390a45050505050565b80356001600160a01b03811681146140c3575f5ffd5b919050565b5f5f604083850312156140d9575f5ffd5b6140e2836140ad565b946020939093013593505050565b6001600160e01b0319811681146118af575f5ffd5b5f60208284031215614115575f5ffd5b8135611509816140f0565b803580151581146140c3575f5ffd5b5f5f83601f84011261413f575f5ffd5b5081356001600160401b03811115614155575f5ffd5b60208301915083602082850101111561416c575f5ffd5b9250929050565b5f5f5f5f5f5f5f60c0888a031215614189575f5ffd5b8735965060208801359550604088013594506141a760608901614120565b93506080880135925060a08801356001600160401b038111156141c8575f5ffd5b6141d48a828b0161412f565b989b979a50959850939692959293505050565b5f602082840312156141f7575f5ffd5b5035919050565b83518152602080850151908201526040808501516001600160a01b0316908201526060808501516001600160601b03169082015260808085015163ffffffff169082015260a0808501516101c083019161425f9084018263ffffffff169052565b5060c085015161427760c084018263ffffffff169052565b5060e085015161429260e08401826001600160601b03169052565b5083516001600160a01b031661010083015260208401516001600160601b03908116610120840152604085015161014084015260608501516101608401526080909401519093166101808201526101a00152919050565b5f81518084528060208401602086015e5f602082860101526020601f19601f83011685010191505092915050565b602081525f61150960208301846142e9565b634e487b7160e01b5f52602160045260245ffd5b602081016006831061435d57634e487b7160e01b5f52602160045260245ffd5b91905290565b5f5f5f60608486031215614375575f5ffd5b505081359360208301359350604090920135919050565b5f5f6040838503121561439d575f5ffd5b50508035926020909101359150565b634e487b7160e01b5f52604160045260245ffd5b604051601f8201601f191681016001600160401b03811182821017156143e8576143e86143ac565b604052919050565b5f6001600160401b03821115614408576144086143ac565b5060051b60200190565b5f82601f830112614421575f5ffd5b813561443461442f826143f0565b6143c0565b8082825260208201915060208360051b860101925085831115614455575f5ffd5b602085015b8381101561447257803583526020928301920161445a565b5095945050505050565b5f82601f83011261448b575f5ffd5b81356001600160401b038111156144a4576144a46143ac565b6144b7601f8201601f19166020016143c0565b8181528460208386010111156144cb575f5ffd5b816020850160208301375f918101602001919091529392505050565b5f5f5f5f5f60a086880312156144fb575f5ffd5b614504866140ad565b9450614512602087016140ad565b935060408601356001600160401b0381111561452c575f5ffd5b61453888828901614412565b93505060608601356001600160401b03811115614553575f5ffd5b61455f88828901614412565b92505060808601356001600160401b0381111561457a575f5ffd5b6145868882890161447c565b9150509295509295909350565b803563ffffffff811681146140c3575f5ffd5b5f602082840312156145b6575f5ffd5b61150982614593565b5f602082840312156145cf575f5ffd5b611509826140ad565b5f5f5f604084860312156145ea575f5ffd5b8335925060208401356001600160401b03811115614606575f5ffd5b6146128682870161412f565b9497909650939450505050565b5f5f60408385031215614630575f5ffd5b82356001600160401b03811115614645575f5ffd5b8301601f81018513614655575f5ffd5b803561466361442f826143f0565b8082825260208201915060208360051b850101925087831115614684575f5ffd5b6020840193505b828410156146ad5761469c846140ad565b82526020938401939091019061468b565b945050505060208301356001600160401b038111156146ca575f5ffd5b6146d685828601614412565b9150509250929050565b5f8151808452602084019350602083015f5b828110156147105781518652602095860195909101906001016146f2565b5093949350505050565b602081525f61150960208301846146e0565b5f5f5f5f6080858703121561473f575f5ffd5b8435935061474f60208601614593565b925061475d60408601614593565b915061476b60608601614593565b905092959194509250565b5f5f5f5f5f5f5f5f60e0898b03121561478d575f5ffd5b88359750602089013596506147a460408a01614593565b95506147b260608a01614593565b94506147c060808a01614593565b93506147ce60a08a01614593565b925060c08901356001600160401b038111156147e8575f5ffd5b6147f48b828c0161412f565b999c989b5096995094979396929594505050565b5f5f60408385031215614819575f5ffd5b614822836140ad565b915061483060208401614120565b90509250929050565b5f5f6040838503121561484a575f5ffd5b614853836140ad565b9150614830602084016140ad565b5f5f5f5f5f60a08688031215614875575f5ffd5b61487e866140ad565b945061488c602087016140ad565b9350604086013592506060860135915060808601356001600160401b0381111561457a575f5ffd5b60208082526010908201526f496e76616c6964204c6f616e2049442160801b604082015260600190565b6020808252601f908201527f5032504c656e64696e673a43616c6c6572206973206e6f74206f776e65722100604082015260600190565b634e487b7160e01b5f52601160045260245ffd5b6001600160601b0381811683821601908111156108de576108de614915565b80820281158282048414176108de576108de614915565b6001815b600184111561499a5780850481111561497e5761497e614915565b600184161561498c57908102905b60019390931c928002614963565b935093915050565b5f826149b0575060016108de565b816149bc57505f6108de565b81600181146149d257600281146149dc576149f8565b60019150506108de565b60ff8411156149ed576149ed614915565b50506001821b6108de565b5060208310610133831016604e8410600b8410161715614a1b575081810a6108de565b614a275f19848461495f565b805f1904821115614a3a57614a3a614915565b029392505050565b5f61150960ff8416836149a2565b5f82614a6a57634e487b7160e01b5f52601260045260245ffd5b500490565b818103818111156108de576108de614915565b60208082526027908201527f5032504c656e64696e673a496e637265617365206d61785f636f6c6c61746572604082015266616c5f6f75742160c81b606082015260800190565b600181811c90821680614add57607f821691505b602082108103614afb57634e487b7160e01b5f52602260045260245ffd5b50919050565b60208082526029908201527f5032504c656e64696e673a4c6f616e537461747573206d75737420657175616c60408201526873204143544956452160b81b606082015260800190565b808201808211156108de576108de614915565b81835281816020850137505f828201602090810191909152601f909101601f19169091010190565b60018060a01b038816815260ff8716602082015285604082015260ff8516606082015283608082015260c060a08201525f614bc460c083018486614b5d565b9998505050505050505050565b5f60208284031215614be1575f5ffd5b5051919050565b634e487b7160e01b5f52603260045260245ffd5b63ffffffff81811683821602908116908181146115ac576115ac614915565b97885260208801969096526001600160a01b039490941660408701526001600160601b03928316606087015263ffffffff9182166080870152811660a086015290911660c08401521660e08201526101000190565b5f60018201614c8157614c81614915565b5060010190565b6001600160601b0382811682821603908111156108de576108de614915565b60018060a01b038616815260ff85166020820152836040820152608060608201525f610e0e608083018486614b5d565b6001600160a01b03868116825285166020820152604081018490526060810183905260a0608082018190525f90610e0e908301846142e9565b5f60208284031215614d20575f5ffd5b8151611509816140f0565b6001600160a01b0386811682528516602082015260a0604082018190525f90614d56908301866146e0565b8281036060840152614d6881866146e0565b90508281036080840152612ad081856142e9565b604081525f614d8e60408301856146e0565b8281036020840152611a6381856146e056fea2646970667358221220b4ce4f91bd86e158704a7bbcb1f3d1eb815b123a308bb7630db73894fb1e161d64736f6c634300081e0033",
			"opcodes": "PUSH1 0xE0 PUSH1 0x40 MSTORE PUSH1 0xA PUSH1 0x7 SSTORE PUSH30 0x2CEC000032C8000186A00000006400000001000002DA000000070000000A PUSH1 0x8 SSTORE PUSH1 0x9 DUP1 SLOAD PUSH4 0xFFFFFFFF NOT AND PUSH1 0x96 OR SWAP1 SSTORE PUSH1 0x1 PUSH1 0xD SSTORE CALLVALUE DUP1 ISZERO PUSH2 0x4B JUMPI PUSH0 PUSH0 REVERT JUMPDEST POP PUSH1 0x40 MLOAD PUSH2 0x547E CODESIZE SUB DUP1 PUSH2 0x547E DUP4 CODECOPY DUP2 ADD PUSH1 0x40 DUP2 SWAP1 MSTORE PUSH2 0x6A SWAP2 PUSH2 0x27D JUMP JUMPDEST DUP1 CALLER DUP1 PUSH2 0x90 JUMPI PUSH1 0x40 MLOAD PUSH4 0x1E4FBDF7 PUSH1 0xE0 SHL DUP2 MSTORE PUSH0 PUSH1 0x4 DUP3 ADD MSTORE PUSH1 0x24 ADD PUSH1 0x40 MLOAD DUP1 SWAP2 SUB SWAP1 REVERT JUMPDEST PUSH2 0x99 DUP2 PUSH2 0x1EF JUMP JUMPDEST POP PUSH2 0xA3 DUP2 PUSH2 0x23E JUMP JUMPDEST POP PUSH1 0x1 PUSH1 0x6 SSTORE PUSH1 0xA DUP1 SLOAD PUSH1 0x1 PUSH1 0x1 PUSH1 0xA0 SHL SUB NOT AND PUSH1 0x1 PUSH1 0x1 PUSH1 0xA0 SHL SUB DUP8 DUP2 AND SWAP2 SWAP1 SWAP2 OR SWAP1 SWAP2 SSTORE DUP5 AND PUSH1 0x80 DUP2 SWAP1 MSTORE PUSH1 0x40 DUP1 MLOAD PUSH4 0x313CE567 PUSH1 0xE0 SHL DUP2 MSTORE SWAP1 MLOAD PUSH4 0x313CE567 SWAP2 PUSH1 0x4 DUP1 DUP3 ADD SWAP3 PUSH1 0x20 SWAP3 SWAP1 SWAP2 SWAP1 DUP3 SWAP1 SUB ADD DUP2 DUP7 GAS STATICCALL ISZERO DUP1 ISZERO PUSH2 0x109 JUMPI RETURNDATASIZE PUSH0 PUSH0 RETURNDATACOPY RETURNDATASIZE PUSH0 REVERT JUMPDEST POP POP POP POP PUSH1 0x40 MLOAD RETURNDATASIZE PUSH1 0x1F NOT PUSH1 0x1F DUP3 ADD AND DUP3 ADD DUP1 PUSH1 0x40 MSTORE POP DUP2 ADD SWAP1 PUSH2 0x12D SWAP2 SWAP1 PUSH2 0x36F JUMP JUMPDEST PUSH1 0xFF AND PUSH1 0xA0 MSTORE PUSH1 0x1 PUSH1 0x1 PUSH1 0xA0 SHL SUB DUP4 AND PUSH1 0xC0 DUP2 SWAP1 MSTORE PUSH1 0x40 DUP1 MLOAD PUSH4 0x313CE567 PUSH1 0xE0 SHL DUP2 MSTORE SWAP1 MLOAD PUSH4 0x313CE567 SWAP2 PUSH1 0x4 DUP1 DUP3 ADD SWAP3 PUSH1 0x20 SWAP3 SWAP1 SWAP2 SWAP1 DUP3 SWAP1 SUB ADD DUP2 DUP7 GAS STATICCALL ISZERO DUP1 ISZERO PUSH2 0x17B JUMPI RETURNDATASIZE PUSH0 PUSH0 RETURNDATACOPY RETURNDATASIZE PUSH0 REVERT JUMPDEST POP POP POP POP PUSH1 0x40 MLOAD RETURNDATASIZE PUSH1 0x1F NOT PUSH1 0x1F DUP3 ADD AND DUP3 ADD DUP1 PUSH1 0x40 MSTORE POP DUP2 ADD SWAP1 PUSH2 0x19F SWAP2 SWAP1 PUSH2 0x36F JUMP JUMPDEST PUSH2 0x1AA SWAP1 PUSH1 0xA PUSH2 0x48F JUMP JUMPDEST PUSH1 0x7 SLOAD PUSH2 0x1B7 SWAP2 SWAP1 PUSH2 0x49D JUMP JUMPDEST PUSH1 0x7 SSTORE POP PUSH1 0x9 DUP1 SLOAD PUSH1 0x1 PUSH1 0x1 PUSH1 0xA0 SHL SUB SWAP1 SWAP3 AND PUSH5 0x100000000 MUL PUSH1 0x1 PUSH1 0x20 SHL PUSH1 0x1 PUSH1 0xC0 SHL SUB NOT SWAP1 SWAP3 AND SWAP2 SWAP1 SWAP2 OR SWAP1 SSTORE POP PUSH2 0x5F2 SWAP2 POP POP JUMP JUMPDEST PUSH0 DUP1 SLOAD PUSH1 0x1 PUSH1 0x1 PUSH1 0xA0 SHL SUB DUP4 DUP2 AND PUSH1 0x1 PUSH1 0x1 PUSH1 0xA0 SHL SUB NOT DUP4 AND DUP2 OR DUP5 SSTORE PUSH1 0x40 MLOAD SWAP2 SWAP1 SWAP3 AND SWAP3 DUP4 SWAP2 PUSH32 0x8BE0079C531659141344CD1FD0A4F28419497F9722A3DAAFE3B4186F6B6457E0 SWAP2 SWAP1 LOG3 POP POP JUMP JUMPDEST PUSH1 0x3 PUSH2 0x24A DUP3 DUP3 PUSH2 0x538 JUMP JUMPDEST POP POP JUMP JUMPDEST DUP1 MLOAD PUSH1 0x1 PUSH1 0x1 PUSH1 0xA0 SHL SUB DUP2 AND DUP2 EQ PUSH2 0x264 JUMPI PUSH0 PUSH0 REVERT JUMPDEST SWAP2 SWAP1 POP JUMP JUMPDEST PUSH4 0x4E487B71 PUSH1 0xE0 SHL PUSH0 MSTORE PUSH1 0x41 PUSH1 0x4 MSTORE PUSH1 0x24 PUSH0 REVERT JUMPDEST PUSH0 PUSH0 PUSH0 PUSH0 PUSH0 PUSH1 0xA0 DUP7 DUP9 SUB SLT ISZERO PUSH2 0x291 JUMPI PUSH0 PUSH0 REVERT JUMPDEST PUSH2 0x29A DUP7 PUSH2 0x24E JUMP JUMPDEST SWAP5 POP PUSH2 0x2A8 PUSH1 0x20 DUP8 ADD PUSH2 0x24E JUMP JUMPDEST SWAP4 POP PUSH2 0x2B6 PUSH1 0x40 DUP8 ADD PUSH2 0x24E JUMP JUMPDEST SWAP3 POP PUSH2 0x2C4 PUSH1 0x60 DUP8 ADD PUSH2 0x24E JUMP JUMPDEST PUSH1 0x80 DUP8 ADD MLOAD SWAP1 SWAP3 POP PUSH1 0x1 PUSH1 0x1 PUSH1 0x40 SHL SUB DUP2 GT ISZERO PUSH2 0x2DF JUMPI PUSH0 PUSH0 REVERT JUMPDEST DUP7 ADD PUSH1 0x1F DUP2 ADD DUP9 SGT PUSH2 0x2EF JUMPI PUSH0 PUSH0 REVERT JUMPDEST DUP1 MLOAD PUSH1 0x1 PUSH1 0x1 PUSH1 0x40 SHL SUB DUP2 GT ISZERO PUSH2 0x308 JUMPI PUSH2 0x308 PUSH2 0x269 JUMP JUMPDEST PUSH1 0x40 MLOAD PUSH1 0x1F DUP3 ADD PUSH1 0x1F NOT SWAP1 DUP2 AND PUSH1 0x3F ADD AND DUP2 ADD PUSH1 0x1 PUSH1 0x1 PUSH1 0x40 SHL SUB DUP2 GT DUP3 DUP3 LT OR ISZERO PUSH2 0x336 JUMPI PUSH2 0x336 PUSH2 0x269 JUMP JUMPDEST PUSH1 0x40 MSTORE DUP2 DUP2 MSTORE DUP3 DUP3 ADD PUSH1 0x20 ADD DUP11 LT ISZERO PUSH2 0x34D JUMPI PUSH0 PUSH0 REVERT JUMPDEST DUP2 PUSH1 0x20 DUP5 ADD PUSH1 0x20 DUP4 ADD MCOPY PUSH0 PUSH1 0x20 DUP4 DUP4 ADD ADD MSTORE DUP1 SWAP4 POP POP POP POP SWAP3 SWAP6 POP SWAP3 SWAP6 SWAP1 SWAP4 POP JUMP JUMPDEST PUSH0 PUSH1 0x20 DUP3 DUP5 SUB SLT ISZERO PUSH2 0x37F JUMPI PUSH0 PUSH0 REVERT JUMPDEST DUP2 MLOAD PUSH1 0xFF DUP2 AND DUP2 EQ PUSH2 0x38F JUMPI PUSH0 PUSH0 REVERT JUMPDEST SWAP4 SWAP3 POP POP POP JUMP JUMPDEST PUSH4 0x4E487B71 PUSH1 0xE0 SHL PUSH0 MSTORE PUSH1 0x11 PUSH1 0x4 MSTORE PUSH1 0x24 PUSH0 REVERT JUMPDEST PUSH1 0x1 DUP2 JUMPDEST PUSH1 0x1 DUP5 GT ISZERO PUSH2 0x3E5 JUMPI DUP1 DUP6 DIV DUP2 GT ISZERO PUSH2 0x3C9 JUMPI PUSH2 0x3C9 PUSH2 0x396 JUMP JUMPDEST PUSH1 0x1 DUP5 AND ISZERO PUSH2 0x3D7 JUMPI SWAP1 DUP2 MUL SWAP1 JUMPDEST PUSH1 0x1 SWAP4 SWAP1 SWAP4 SHR SWAP3 DUP1 MUL PUSH2 0x3AE JUMP JUMPDEST SWAP4 POP SWAP4 SWAP2 POP POP JUMP JUMPDEST PUSH0 DUP3 PUSH2 0x3FB JUMPI POP PUSH1 0x1 PUSH2 0x489 JUMP JUMPDEST DUP2 PUSH2 0x407 JUMPI POP PUSH0 PUSH2 0x489 JUMP JUMPDEST DUP2 PUSH1 0x1 DUP2 EQ PUSH2 0x41D JUMPI PUSH1 0x2 DUP2 EQ PUSH2 0x427 JUMPI PUSH2 0x443 JUMP JUMPDEST PUSH1 0x1 SWAP2 POP POP PUSH2 0x489 JUMP JUMPDEST PUSH1 0xFF DUP5 GT ISZERO PUSH2 0x438 JUMPI PUSH2 0x438 PUSH2 0x396 JUMP JUMPDEST POP POP PUSH1 0x1 DUP3 SHL PUSH2 0x489 JUMP JUMPDEST POP PUSH1 0x20 DUP4 LT PUSH2 0x133 DUP4 LT AND PUSH1 0x4E DUP5 LT PUSH1 0xB DUP5 LT AND OR ISZERO PUSH2 0x466 JUMPI POP DUP2 DUP2 EXP PUSH2 0x489 JUMP JUMPDEST PUSH2 0x472 PUSH0 NOT DUP5 DUP5 PUSH2 0x3AA JUMP JUMPDEST DUP1 PUSH0 NOT DIV DUP3 GT ISZERO PUSH2 0x485 JUMPI PUSH2 0x485 PUSH2 0x396 JUMP JUMPDEST MUL SWAP1 POP JUMPDEST SWAP3 SWAP2 POP POP JUMP JUMPDEST PUSH0 PUSH2 0x38F PUSH1 0xFF DUP5 AND DUP4 PUSH2 0x3ED JUMP JUMPDEST DUP1 DUP3 MUL DUP2 ISZERO DUP3 DUP3 DIV DUP5 EQ OR PUSH2 0x489 JUMPI PUSH2 0x489 PUSH2 0x396 JUMP JUMPDEST PUSH1 0x1 DUP2 DUP2 SHR SWAP1 DUP3 AND DUP1 PUSH2 0x4C8 JUMPI PUSH1 0x7F DUP3 AND SWAP2 POP JUMPDEST PUSH1 0x20 DUP3 LT DUP2 SUB PUSH2 0x4E6 JUMPI PUSH4 0x4E487B71 PUSH1 0xE0 SHL PUSH0 MSTORE PUSH1 0x22 PUSH1 0x4 MSTORE PUSH1 0x24 PUSH0 REVERT JUMPDEST POP SWAP2 SWAP1 POP JUMP JUMPDEST PUSH1 0x1F DUP3 GT ISZERO PUSH2 0x533 JUMPI DUP1 PUSH0 MSTORE PUSH1 0x20 PUSH0 KECCAK256 PUSH1 0x1F DUP5 ADD PUSH1 0x5 SHR DUP2 ADD PUSH1 0x20 DUP6 LT ISZERO PUSH2 0x511 JUMPI POP DUP1 JUMPDEST PUSH1 0x1F DUP5 ADD PUSH1 0x5 SHR DUP3 ADD SWAP2 POP JUMPDEST DUP2 DUP2 LT ISZERO PUSH2 0x530 JUMPI PUSH0 DUP2 SSTORE PUSH1 0x1 ADD PUSH2 0x51D JUMP JUMPDEST POP POP JUMPDEST POP POP POP JUMP JUMPDEST DUP2 MLOAD PUSH1 0x1 PUSH1 0x1 PUSH1 0x40 SHL SUB DUP2 GT ISZERO PUSH2 0x551 JUMPI PUSH2 0x551 PUSH2 0x269 JUMP JUMPDEST PUSH2 0x565 DUP2 PUSH2 0x55F DUP5 SLOAD PUSH2 0x4B4 JUMP JUMPDEST DUP5 PUSH2 0x4EC JUMP JUMPDEST PUSH1 0x20 PUSH1 0x1F DUP3 GT PUSH1 0x1 DUP2 EQ PUSH2 0x597 JUMPI PUSH0 DUP4 ISZERO PUSH2 0x580 JUMPI POP DUP5 DUP3 ADD MLOAD JUMPDEST PUSH0 NOT PUSH1 0x3 DUP6 SWAP1 SHL SHR NOT AND PUSH1 0x1 DUP5 SWAP1 SHL OR DUP5 SSTORE PUSH2 0x530 JUMP JUMPDEST PUSH0 DUP5 DUP2 MSTORE PUSH1 0x20 DUP2 KECCAK256 PUSH1 0x1F NOT DUP6 AND SWAP2 JUMPDEST DUP3 DUP2 LT ISZERO PUSH2 0x5C6 JUMPI DUP8 DUP6 ADD MLOAD DUP3 SSTORE PUSH1 0x20 SWAP5 DUP6 ADD SWAP5 PUSH1 0x1 SWAP1 SWAP3 ADD SWAP2 ADD PUSH2 0x5A6 JUMP JUMPDEST POP DUP5 DUP3 LT ISZERO PUSH2 0x5E3 JUMPI DUP7 DUP5 ADD MLOAD PUSH0 NOT PUSH1 0x3 DUP8 SWAP1 SHL PUSH1 0xF8 AND SHR NOT AND DUP2 SSTORE JUMPDEST POP POP POP POP PUSH1 0x1 SWAP1 DUP2 SHL ADD SWAP1 SSTORE POP JUMP JUMPDEST PUSH1 0x80 MLOAD PUSH1 0xA0 MLOAD PUSH1 0xC0 MLOAD PUSH2 0x4DD6 PUSH2 0x6A8 PUSH0 CODECOPY PUSH0 DUP2 DUP2 PUSH2 0x6CE ADD MSTORE DUP2 DUP2 PUSH2 0xD41 ADD MSTORE DUP2 DUP2 PUSH2 0xD94 ADD MSTORE DUP2 DUP2 PUSH2 0x1341 ADD MSTORE DUP2 DUP2 PUSH2 0x17DD ADD MSTORE PUSH2 0x25AE ADD MSTORE PUSH0 DUP2 DUP2 PUSH2 0x19D8 ADD MSTORE DUP2 DUP2 PUSH2 0x2EF5 ADD MSTORE DUP2 DUP2 PUSH2 0x32AA ADD MSTORE PUSH2 0x36A7 ADD MSTORE PUSH0 DUP2 DUP2 PUSH2 0x4E2 ADD MSTORE DUP2 DUP2 PUSH2 0xBEB ADD MSTORE DUP2 DUP2 PUSH2 0xC51 ADD MSTORE DUP2 DUP2 PUSH2 0x1834 ADD MSTORE DUP2 DUP2 PUSH2 0x19B3 ADD MSTORE DUP2 DUP2 PUSH2 0x213D ADD MSTORE DUP2 DUP2 PUSH2 0x230B ADD MSTORE DUP2 DUP2 PUSH2 0x237D ADD MSTORE DUP2 DUP2 PUSH2 0x27E2 ADD MSTORE DUP2 DUP2 PUSH2 0x2ED0 ADD MSTORE DUP2 DUP2 PUSH2 0x3285 ADD MSTORE DUP2 DUP2 PUSH2 0x3432 ADD MSTORE PUSH2 0x3685 ADD MSTORE PUSH2 0x4DD6 PUSH0 RETURN INVALID PUSH1 0x80 PUSH1 0x40 MSTORE CALLVALUE DUP1 ISZERO PUSH2 0xF JUMPI PUSH0 PUSH0 REVERT JUMPDEST POP PUSH1 0x4 CALLDATASIZE LT PUSH2 0x387 JUMPI PUSH0 CALLDATALOAD PUSH1 0xE0 SHR DUP1 PUSH4 0x670D5B63 GT PUSH2 0x1DF JUMPI DUP1 PUSH4 0xAA9F7628 GT PUSH2 0x109 JUMPI DUP1 PUSH4 0xC9DD1F3C GT PUSH2 0xA9 JUMPI DUP1 PUSH4 0xEF921826 GT PUSH2 0x79 JUMPI DUP1 PUSH4 0xEF921826 EQ PUSH2 0x86F JUMPI DUP1 PUSH4 0xF08A5381 EQ PUSH2 0x882 JUMPI DUP1 PUSH4 0xF242432A EQ PUSH2 0x895 JUMPI DUP1 PUSH4 0xF2FDE38B EQ PUSH2 0x8A8 JUMPI PUSH0 PUSH0 REVERT JUMPDEST DUP1 PUSH4 0xC9DD1F3C EQ PUSH2 0x81F JUMPI DUP1 PUSH4 0xE444F545 EQ PUSH2 0x832 JUMPI DUP1 PUSH4 0xE51D375A EQ PUSH2 0x845 JUMPI DUP1 PUSH4 0xE985E9C5 EQ PUSH2 0x85C JUMPI PUSH0 PUSH0 REVERT JUMPDEST DUP1 PUSH4 0xB6A6D177 GT PUSH2 0xE4 JUMPI DUP1 PUSH4 0xB6A6D177 EQ PUSH2 0x7BC JUMPI DUP1 PUSH4 0xBD85B039 EQ PUSH2 0x7D3 JUMPI DUP1 PUSH4 0xC5B3A376 EQ PUSH2 0x7F2 JUMPI DUP1 PUSH4 0xC5F16166 EQ PUSH2 0x805 JUMPI PUSH0 PUSH0 REVERT JUMPDEST DUP1 PUSH4 0xAA9F7628 EQ PUSH2 0x782 JUMPI DUP1 PUSH4 0xACBB65AF EQ PUSH2 0x795 JUMPI DUP1 PUSH4 0xB1724B46 EQ PUSH2 0x7A5 JUMPI PUSH0 PUSH0 REVERT JUMPDEST DUP1 PUSH4 0x8DA5CB5B GT PUSH2 0x17F JUMPI DUP1 PUSH4 0xA22CB465 GT PUSH2 0x14F JUMPI DUP1 PUSH4 0xA22CB465 EQ PUSH2 0x732 JUMPI DUP1 PUSH4 0xA45234D0 EQ PUSH2 0x745 JUMPI DUP1 PUSH4 0xA877E9CE EQ PUSH2 0x758 JUMPI DUP1 PUSH4 0xA8A71E09 EQ PUSH2 0x76B JUMPI PUSH0 PUSH0 REVERT JUMPDEST DUP1 PUSH4 0x8DA5CB5B EQ PUSH2 0x6F0 JUMPI DUP1 PUSH4 0x950D91E9 EQ PUSH2 0x700 JUMPI DUP1 PUSH4 0x9D100875 EQ PUSH2 0x708 JUMPI DUP1 PUSH4 0xA0420E7F EQ PUSH2 0x71B JUMPI PUSH0 PUSH0 REVERT JUMPDEST DUP1 PUSH4 0x7175030D GT PUSH2 0x1BA JUMPI DUP1 PUSH4 0x7175030D EQ PUSH2 0x69A JUMPI DUP1 PUSH4 0x7FEE67A2 EQ PUSH2 0x6AD JUMPI DUP1 PUSH4 0x88E08665 EQ PUSH2 0x6B6 JUMPI DUP1 PUSH4 0x89A30271 EQ PUSH2 0x6C9 JUMPI PUSH0 PUSH0 REVERT JUMPDEST DUP1 PUSH4 0x670D5B63 EQ PUSH2 0x668 JUMPI DUP1 PUSH4 0x6E5F4A89 EQ PUSH2 0x67F JUMPI DUP1 PUSH4 0x715018A6 EQ PUSH2 0x692 JUMPI PUSH0 PUSH0 REVERT JUMPDEST DUP1 PUSH4 0x2EB2C2D6 GT PUSH2 0x2C0 JUMPI DUP1 PUSH4 0x48782996 GT PUSH2 0x260 JUMPI DUP1 PUSH4 0x51F740D5 GT PUSH2 0x230 JUMPI DUP1 PUSH4 0x51F740D5 EQ PUSH2 0x61C JUMPI DUP1 PUSH4 0x530E784F EQ PUSH2 0x62F JUMPI DUP1 PUSH4 0x54F0CB0D EQ PUSH2 0x642 JUMPI DUP1 PUSH4 0x6112FE2E EQ PUSH2 0x655 JUMPI PUSH0 PUSH0 REVERT JUMPDEST DUP1 PUSH4 0x48782996 EQ PUSH2 0x5B5 JUMPI DUP1 PUSH4 0x49D4A7C4 EQ PUSH2 0x5C8 JUMPI DUP1 PUSH4 0x4E1273F4 EQ PUSH2 0x5DB JUMPI DUP1 PUSH4 0x4F558E79 EQ PUSH2 0x5FB JUMPI PUSH0 PUSH0 REVERT JUMPDEST DUP1 PUSH4 0x35557E5C GT PUSH2 0x29B JUMPI DUP1 PUSH4 0x35557E5C EQ PUSH2 0x565 JUMPI DUP1 PUSH4 0x371FD8E6 EQ PUSH2 0x578 JUMPI DUP1 PUSH4 0x373071F2 EQ PUSH2 0x58B JUMPI DUP1 PUSH4 0x3D92F4E2 EQ PUSH2 0x59E JUMPI PUSH0 PUSH0 REVERT JUMPDEST DUP1 PUSH4 0x2EB2C2D6 EQ PUSH2 0x52A JUMPI DUP1 PUSH4 0x3273B110 EQ PUSH2 0x53F JUMPI DUP1 PUSH4 0x34591A3E EQ PUSH2 0x552 JUMPI PUSH0 PUSH0 REVERT JUMPDEST DUP1 PUSH4 0xE89341C GT PUSH2 0x32B JUMPI DUP1 PUSH4 0x21241DFE GT PUSH2 0x306 JUMPI DUP1 PUSH4 0x21241DFE EQ PUSH2 0x4BB JUMPI DUP1 PUSH4 0x24BBAB8B EQ PUSH2 0x4DD JUMPI DUP1 PUSH4 0x2BED89E5 EQ PUSH2 0x504 JUMPI DUP1 PUSH4 0x2D4CDFC3 EQ PUSH2 0x517 JUMPI PUSH0 PUSH0 REVERT JUMPDEST DUP1 PUSH4 0xE89341C EQ PUSH2 0x473 JUMPI DUP1 PUSH4 0x18160DDD EQ PUSH2 0x493 JUMPI DUP1 PUSH4 0x1C4FD41C EQ PUSH2 0x49B JUMPI PUSH0 PUSH0 REVERT JUMPDEST DUP1 PUSH4 0x431AAF2 GT PUSH2 0x366 JUMPI DUP1 PUSH4 0x431AAF2 EQ PUSH2 0x3EE JUMPI DUP1 PUSH4 0x714012C EQ PUSH2 0x401 JUMPI DUP1 PUSH4 0xA19399A EQ PUSH2 0x423 JUMPI DUP1 PUSH4 0xB4501FD EQ PUSH2 0x44E JUMPI PUSH0 PUSH0 REVERT JUMPDEST DUP1 PUSH3 0xFDD58E EQ PUSH2 0x38B JUMPI DUP1 PUSH4 0x1FFC9A7 EQ PUSH2 0x3B1 JUMPI DUP1 PUSH4 0x3CC1194 EQ PUSH2 0x3D4 JUMPI JUMPDEST PUSH0 PUSH0 REVERT JUMPDEST PUSH2 0x39E PUSH2 0x399 CALLDATASIZE PUSH1 0x4 PUSH2 0x40C8 JUMP JUMPDEST PUSH2 0x8BB JUMP JUMPDEST PUSH1 0x40 MLOAD SWAP1 DUP2 MSTORE PUSH1 0x20 ADD JUMPDEST PUSH1 0x40 MLOAD DUP1 SWAP2 SUB SWAP1 RETURN JUMPDEST PUSH2 0x3C4 PUSH2 0x3BF CALLDATASIZE PUSH1 0x4 PUSH2 0x4105 JUMP JUMPDEST PUSH2 0x8E4 JUMP JUMPDEST PUSH1 0x40 MLOAD SWAP1 ISZERO ISZERO DUP2 MSTORE PUSH1 0x20 ADD PUSH2 0x3A8 JUMP JUMPDEST PUSH2 0x3DC PUSH1 0x4 DUP2 JUMP JUMPDEST PUSH1 0x40 MLOAD PUSH1 0xFF SWAP1 SWAP2 AND DUP2 MSTORE PUSH1 0x20 ADD PUSH2 0x3A8 JUMP JUMPDEST PUSH2 0x39E PUSH2 0x3FC CALLDATASIZE PUSH1 0x4 PUSH2 0x4173 JUMP JUMPDEST PUSH2 0x933 JUMP JUMPDEST PUSH2 0x414 PUSH2 0x40F CALLDATASIZE PUSH1 0x4 PUSH2 0x41E7 JUMP JUMPDEST PUSH2 0xE19 JUMP JUMPDEST PUSH1 0x40 MLOAD PUSH2 0x3A8 SWAP4 SWAP3 SWAP2 SWAP1 PUSH2 0x41FE JUMP JUMPDEST PUSH1 0xA SLOAD PUSH2 0x436 SWAP1 PUSH1 0x1 PUSH1 0x1 PUSH1 0xA0 SHL SUB AND DUP2 JUMP JUMPDEST PUSH1 0x40 MLOAD PUSH1 0x1 PUSH1 0x1 PUSH1 0xA0 SHL SUB SWAP1 SWAP2 AND DUP2 MSTORE PUSH1 0x20 ADD PUSH2 0x3A8 JUMP JUMPDEST PUSH1 0x9 SLOAD PUSH2 0x45E SWAP1 PUSH4 0xFFFFFFFF AND DUP2 JUMP JUMPDEST PUSH1 0x40 MLOAD PUSH4 0xFFFFFFFF SWAP1 SWAP2 AND DUP2 MSTORE PUSH1 0x20 ADD PUSH2 0x3A8 JUMP JUMPDEST PUSH2 0x486 PUSH2 0x481 CALLDATASIZE PUSH1 0x4 PUSH2 0x41E7 JUMP JUMPDEST PUSH2 0xFAB JUMP JUMPDEST PUSH1 0x40 MLOAD PUSH2 0x3A8 SWAP2 SWAP1 PUSH2 0x4317 JUMP JUMPDEST PUSH1 0x5 SLOAD PUSH2 0x39E JUMP JUMPDEST PUSH2 0x4AE PUSH2 0x4A9 CALLDATASIZE PUSH1 0x4 PUSH2 0x41E7 JUMP JUMPDEST PUSH2 0x103D JUMP JUMPDEST PUSH1 0x40 MLOAD PUSH2 0x3A8 SWAP2 SWAP1 PUSH2 0x433D JUMP JUMPDEST PUSH2 0x4C5 PUSH3 0x15180 DUP2 JUMP JUMPDEST PUSH1 0x40 MLOAD PUSH1 0x1 PUSH1 0x1 PUSH1 0x60 SHL SUB SWAP1 SWAP2 AND DUP2 MSTORE PUSH1 0x20 ADD PUSH2 0x3A8 JUMP JUMPDEST PUSH2 0x436 PUSH32 0x0 DUP2 JUMP JUMPDEST PUSH2 0x39E PUSH2 0x512 CALLDATASIZE PUSH1 0x4 PUSH2 0x4363 JUMP JUMPDEST PUSH2 0x1165 JUMP JUMPDEST PUSH2 0x39E PUSH2 0x525 CALLDATASIZE PUSH1 0x4 PUSH2 0x438C JUMP JUMPDEST PUSH2 0x1510 JUMP JUMPDEST PUSH2 0x53D PUSH2 0x538 CALLDATASIZE PUSH1 0x4 PUSH2 0x44E7 JUMP JUMPDEST PUSH2 0x15B3 JUMP JUMPDEST STOP JUMPDEST PUSH2 0x53D PUSH2 0x54D CALLDATASIZE PUSH1 0x4 PUSH2 0x45A6 JUMP JUMPDEST PUSH2 0x161A JUMP JUMPDEST PUSH2 0x53D PUSH2 0x560 CALLDATASIZE PUSH1 0x4 PUSH2 0x41E7 JUMP JUMPDEST PUSH2 0x1681 JUMP JUMPDEST PUSH2 0x53D PUSH2 0x573 CALLDATASIZE PUSH1 0x4 PUSH2 0x45A6 JUMP JUMPDEST PUSH2 0x16BE JUMP JUMPDEST PUSH2 0x53D PUSH2 0x586 CALLDATASIZE PUSH1 0x4 PUSH2 0x41E7 JUMP JUMPDEST PUSH2 0x171C JUMP JUMPDEST PUSH2 0x53D PUSH2 0x599 CALLDATASIZE PUSH1 0x4 PUSH2 0x45BF JUMP JUMPDEST PUSH2 0x18B2 JUMP JUMPDEST PUSH1 0x8 SLOAD PUSH2 0x45E SWAP1 PUSH1 0x1 PUSH1 0xA0 SHL SWAP1 DIV PUSH4 0xFFFFFFFF AND DUP2 JUMP JUMPDEST PUSH2 0x39E PUSH2 0x5C3 CALLDATASIZE PUSH1 0x4 PUSH2 0x45D8 JUMP JUMPDEST PUSH2 0x1918 JUMP JUMPDEST PUSH2 0x53D PUSH2 0x5D6 CALLDATASIZE PUSH1 0x4 PUSH2 0x45A6 JUMP JUMPDEST PUSH2 0x1A6C JUMP JUMPDEST PUSH2 0x5EE PUSH2 0x5E9 CALLDATASIZE PUSH1 0x4 PUSH2 0x461F JUMP JUMPDEST PUSH2 0x1ACB JUMP JUMPDEST PUSH1 0x40 MLOAD PUSH2 0x3A8 SWAP2 SWAP1 PUSH2 0x471A JUMP JUMPDEST PUSH2 0x3C4 PUSH2 0x609 CALLDATASIZE PUSH1 0x4 PUSH2 0x41E7 JUMP JUMPDEST PUSH0 SWAP1 DUP2 MSTORE PUSH1 0x4 PUSH1 0x20 MSTORE PUSH1 0x40 SWAP1 KECCAK256 SLOAD ISZERO ISZERO SWAP1 JUMP JUMPDEST PUSH2 0x39E PUSH2 0x62A CALLDATASIZE PUSH1 0x4 PUSH2 0x472C JUMP JUMPDEST PUSH2 0x1B95 JUMP JUMPDEST PUSH2 0x53D PUSH2 0x63D CALLDATASIZE PUSH1 0x4 PUSH2 0x45BF JUMP JUMPDEST PUSH2 0x2033 JUMP JUMPDEST PUSH2 0x53D PUSH2 0x650 CALLDATASIZE PUSH1 0x4 PUSH2 0x438C JUMP JUMPDEST PUSH2 0x2089 JUMP JUMPDEST PUSH2 0x53D PUSH2 0x663 CALLDATASIZE PUSH1 0x4 PUSH2 0x41E7 JUMP JUMPDEST PUSH2 0x21CD JUMP JUMPDEST PUSH1 0x8 SLOAD PUSH2 0x45E SWAP1 PUSH1 0x1 PUSH1 0xE0 SHL SWAP1 DIV PUSH4 0xFFFFFFFF AND DUP2 JUMP JUMPDEST PUSH2 0x53D PUSH2 0x68D CALLDATASIZE PUSH1 0x4 PUSH2 0x41E7 JUMP JUMPDEST PUSH2 0x2441 JUMP JUMPDEST PUSH2 0x53D PUSH2 0x2631 JUMP JUMPDEST PUSH2 0x39E PUSH2 0x6A8 CALLDATASIZE PUSH1 0x4 PUSH2 0x4776 JUMP JUMPDEST PUSH2 0x2644 JUMP JUMPDEST PUSH2 0x39E PUSH1 0x7 SLOAD DUP2 JUMP JUMPDEST PUSH2 0x53D PUSH2 0x6C4 CALLDATASIZE PUSH1 0x4 PUSH2 0x438C JUMP JUMPDEST PUSH2 0x2ADC JUMP JUMPDEST PUSH2 0x436 PUSH32 0x0 DUP2 JUMP JUMPDEST PUSH0 SLOAD PUSH1 0x1 PUSH1 0x1 PUSH1 0xA0 SHL SUB AND PUSH2 0x436 JUMP JUMPDEST PUSH2 0x4C5 PUSH1 0x1E DUP2 JUMP JUMPDEST PUSH2 0x53D PUSH2 0x716 CALLDATASIZE PUSH1 0x4 PUSH2 0x45A6 JUMP JUMPDEST PUSH2 0x2D58 JUMP JUMPDEST PUSH1 0x8 SLOAD PUSH2 0x45E SWAP1 PUSH1 0x1 PUSH1 0xC0 SHL SWAP1 DIV PUSH4 0xFFFFFFFF AND DUP2 JUMP JUMPDEST PUSH2 0x53D PUSH2 0x740 CALLDATASIZE PUSH1 0x4 PUSH2 0x4808 JUMP JUMPDEST PUSH2 0x2DB7 JUMP JUMPDEST PUSH2 0x53D PUSH2 0x753 CALLDATASIZE PUSH1 0x4 PUSH2 0x45A6 JUMP JUMPDEST PUSH2 0x2DC2 JUMP JUMPDEST PUSH2 0x3C4 PUSH2 0x766 CALLDATASIZE PUSH1 0x4 PUSH2 0x45D8 JUMP JUMPDEST PUSH2 0x2E21 JUMP JUMPDEST PUSH1 0x8 SLOAD PUSH2 0x45E SWAP1 PUSH1 0x1 PUSH1 0x60 SHL SWAP1 DIV PUSH4 0xFFFFFFFF AND DUP2 JUMP JUMPDEST PUSH2 0x53D PUSH2 0x790 CALLDATASIZE PUSH1 0x4 PUSH2 0x45A6 JUMP JUMPDEST PUSH2 0x2F98 JUMP JUMPDEST PUSH1 0x8 SLOAD PUSH2 0x45E SWAP1 PUSH4 0xFFFFFFFF AND DUP2 JUMP JUMPDEST PUSH1 0x8 SLOAD PUSH2 0x45E SWAP1 PUSH1 0x1 PUSH1 0x40 SHL SWAP1 DIV PUSH4 0xFFFFFFFF AND DUP2 JUMP JUMPDEST PUSH1 0x8 SLOAD PUSH2 0x45E SWAP1 PUSH1 0x1 PUSH1 0x20 SHL SWAP1 DIV PUSH4 0xFFFFFFFF AND DUP2 JUMP JUMPDEST PUSH2 0x39E PUSH2 0x7E1 CALLDATASIZE PUSH1 0x4 PUSH2 0x41E7 JUMP JUMPDEST PUSH0 SWAP1 DUP2 MSTORE PUSH1 0x4 PUSH1 0x20 MSTORE PUSH1 0x40 SWAP1 KECCAK256 SLOAD SWAP1 JUMP JUMPDEST PUSH2 0x53D PUSH2 0x800 CALLDATASIZE PUSH1 0x4 PUSH2 0x45A6 JUMP JUMPDEST PUSH2 0x2FE8 JUMP JUMPDEST PUSH1 0x9 SLOAD PUSH2 0x436 SWAP1 PUSH1 0x1 PUSH1 0x20 SHL SWAP1 DIV PUSH1 0x1 PUSH1 0x1 PUSH1 0xA0 SHL SUB AND DUP2 JUMP JUMPDEST PUSH2 0x39E PUSH2 0x82D CALLDATASIZE PUSH1 0x4 PUSH2 0x41E7 JUMP JUMPDEST PUSH2 0x3047 JUMP JUMPDEST PUSH2 0x53D PUSH2 0x840 CALLDATASIZE PUSH1 0x4 PUSH2 0x45D8 JUMP JUMPDEST PUSH2 0x31B0 JUMP JUMPDEST PUSH1 0x8 SLOAD PUSH2 0x45E SWAP1 PUSH1 0x1 PUSH1 0x80 SHL SWAP1 DIV PUSH4 0xFFFFFFFF AND DUP2 JUMP JUMPDEST PUSH2 0x3C4 PUSH2 0x86A CALLDATASIZE PUSH1 0x4 PUSH2 0x4839 JUMP JUMPDEST PUSH2 0x34BB JUMP JUMPDEST PUSH2 0x53D PUSH2 0x87D CALLDATASIZE PUSH1 0x4 PUSH2 0x45A6 JUMP JUMPDEST PUSH2 0x34E8 JUMP JUMPDEST PUSH2 0x53D PUSH2 0x890 CALLDATASIZE PUSH1 0x4 PUSH2 0x45A6 JUMP JUMPDEST PUSH2 0x354C JUMP JUMPDEST PUSH2 0x53D PUSH2 0x8A3 CALLDATASIZE PUSH1 0x4 PUSH2 0x4861 JUMP JUMPDEST PUSH2 0x359C JUMP JUMPDEST PUSH2 0x53D PUSH2 0x8B6 CALLDATASIZE PUSH1 0x4 PUSH2 0x45BF JUMP JUMPDEST PUSH2 0x35FB JUMP JUMPDEST PUSH0 DUP2 DUP2 MSTORE PUSH1 0x1 PUSH1 0x20 SWAP1 DUP2 MSTORE PUSH1 0x40 DUP1 DUP4 KECCAK256 PUSH1 0x1 PUSH1 0x1 PUSH1 0xA0 SHL SUB DUP7 AND DUP5 MSTORE SWAP1 SWAP2 MSTORE SWAP1 KECCAK256 SLOAD JUMPDEST SWAP3 SWAP2 POP POP JUMP JUMPDEST PUSH0 PUSH1 0x1 PUSH1 0x1 PUSH1 0xE0 SHL SUB NOT DUP3 AND PUSH4 0x6CDB3D13 PUSH1 0xE1 SHL EQ DUP1 PUSH2 0x914 JUMPI POP PUSH1 0x1 PUSH1 0x1 PUSH1 0xE0 SHL SUB NOT DUP3 AND PUSH4 0x3A24D07 PUSH1 0xE2 SHL EQ JUMPDEST DUP1 PUSH2 0x8DE JUMPI POP PUSH4 0x1FFC9A7 PUSH1 0xE0 SHL PUSH1 0x1 PUSH1 0x1 PUSH1 0xE0 SHL SUB NOT DUP4 AND EQ PUSH2 0x8DE JUMP JUMPDEST PUSH0 PUSH2 0x93C PUSH2 0x3635 JUMP JUMPDEST DUP8 PUSH0 DUP2 GT DUP1 ISZERO PUSH2 0x94D JUMPI POP PUSH1 0xD SLOAD DUP2 LT JUMPDEST PUSH2 0x972 JUMPI PUSH1 0x40 MLOAD PUSH3 0x461BCD PUSH1 0xE5 SHL DUP2 MSTORE PUSH1 0x4 ADD PUSH2 0x969 SWAP1 PUSH2 0x48B4 JUMP JUMPDEST PUSH1 0x40 MLOAD DUP1 SWAP2 SUB SWAP1 REVERT JUMPDEST PUSH0 DUP10 DUP2 MSTORE PUSH1 0xB PUSH1 0x20 SWAP1 DUP2 MSTORE PUSH1 0x40 DUP1 DUP4 KECCAK256 PUSH1 0xC DUP4 MSTORE DUP2 DUP5 KECCAK256 PUSH1 0x4 SWAP1 SWAP4 MSTORE SWAP3 KECCAK256 SLOAD DUP11 ISZERO DUP1 ISZERO SWAP1 PUSH2 0x9A0 JUMPI POP DUP11 DUP2 LT ISZERO JUMPDEST DUP1 ISZERO PUSH2 0x9AC JUMPI POP DUP10 DUP2 GT ISZERO JUMPDEST PUSH2 0xA10 JUMPI PUSH1 0x40 MLOAD PUSH3 0x461BCD PUSH1 0xE5 SHL DUP2 MSTORE PUSH1 0x20 PUSH1 0x4 DUP3 ADD MSTORE PUSH1 0x2F PUSH1 0x24 DUP3 ADD MSTORE PUSH32 0x5032504C656E64696E6720726571756972653A303C6D696E5F6C6F74733C3D73 PUSH1 0x44 DUP3 ADD MSTORE PUSH15 0x7570706C793C3D6D61785F6C6F7473 PUSH1 0x88 SHL PUSH1 0x64 DUP3 ADD MSTORE PUSH1 0x84 ADD PUSH2 0x969 JUMP JUMPDEST PUSH0 PUSH2 0xA1A DUP14 PUSH2 0x103D JUMP JUMPDEST SWAP1 POP PUSH1 0x1 DUP2 PUSH1 0x5 DUP2 GT ISZERO PUSH2 0xA30 JUMPI PUSH2 0xA30 PUSH2 0x4329 JUMP JUMPDEST EQ DUP1 PUSH2 0xA4D JUMPI POP PUSH1 0x2 DUP2 PUSH1 0x5 DUP2 GT ISZERO PUSH2 0xA4B JUMPI PUSH2 0xA4B PUSH2 0x4329 JUMP JUMPDEST EQ JUMPDEST PUSH2 0xA99 JUMPI PUSH1 0x40 MLOAD PUSH3 0x461BCD PUSH1 0xE5 SHL DUP2 MSTORE PUSH1 0x20 PUSH1 0x4 DUP3 ADD MSTORE PUSH1 0x19 PUSH1 0x24 DUP3 ADD MSTORE PUSH32 0x5032504C656E64696E673A43616E6E6F7420626F72726F772100000000000000 PUSH1 0x44 DUP3 ADD MSTORE PUSH1 0x64 ADD PUSH2 0x969 JUMP JUMPDEST DUP3 SLOAD PUSH1 0x1 PUSH1 0x1 PUSH1 0xA0 SHL SUB AND CALLER EQ DUP1 PUSH2 0xAB9 JUMPI POP DUP3 SLOAD PUSH1 0x1 PUSH1 0x1 PUSH1 0xA0 SHL SUB AND ISZERO JUMPDEST PUSH2 0xAD5 JUMPI PUSH1 0x40 MLOAD PUSH3 0x461BCD PUSH1 0xE5 SHL DUP2 MSTORE PUSH1 0x4 ADD PUSH2 0x969 SWAP1 PUSH2 0x48DE JUMP JUMPDEST DUP2 DUP5 SSTORE DUP3 SLOAD PUSH1 0x1 PUSH1 0x1 PUSH1 0xA0 SHL SUB NOT AND CALLER OR DUP4 SSTORE PUSH1 0x2 DUP5 ADD SLOAD PUSH2 0xB08 SWAP1 PUSH1 0x1 PUSH1 0x1 PUSH1 0x60 SHL SUB PUSH1 0x1 PUSH1 0xA0 SHL SWAP1 SWAP2 DIV AND TIMESTAMP PUSH2 0x4929 JUMP JUMPDEST DUP4 SLOAD PUSH1 0x1 PUSH1 0x1 PUSH1 0x60 SHL SUB SWAP2 SWAP1 SWAP2 AND PUSH1 0x1 PUSH1 0xA0 SHL MUL PUSH1 0x1 PUSH1 0x1 PUSH1 0xA0 SHL SUB SWAP1 SWAP2 AND OR DUP4 SSTORE POP POP PUSH1 0x1 DUP3 ADD SLOAD DUP3 SLOAD PUSH0 SWAP2 PUSH2 0xB3E SWAP2 PUSH2 0x4948 JUMP JUMPDEST PUSH1 0x2 DUP5 ADD SLOAD SWAP1 SWAP2 POP PUSH0 SWAP1 PUSH2 0xB5E SWAP1 DUP4 SWAP1 PUSH1 0x1 PUSH1 0x1 PUSH1 0xA0 SHL SUB AND DUP11 DUP11 PUSH2 0x365F JUMP JUMPDEST SWAP1 POP DUP10 ISZERO PUSH2 0xC7E JUMPI PUSH0 PUSH2 0xB73 PUSH1 0x4 PUSH1 0xA PUSH2 0x4A42 JUMP JUMPDEST PUSH1 0x3 DUP7 ADD SLOAD PUSH2 0xB90 SWAP1 DUP5 SWAP1 PUSH1 0x1 PUSH1 0x20 SHL SWAP1 DIV PUSH4 0xFFFFFFFF AND PUSH2 0x4948 JUMP JUMPDEST PUSH2 0xB9A SWAP2 SWAP1 PUSH2 0x4A50 JUMP JUMPDEST SWAP1 POP DUP4 PUSH1 0x1 ADD SLOAD DUP2 GT ISZERO PUSH2 0xC1B JUMPI PUSH0 DUP5 PUSH1 0x1 ADD SLOAD DUP3 PUSH2 0xBB9 SWAP2 SWAP1 PUSH2 0x4A6F JUMP JUMPDEST SWAP1 POP DUP1 DUP12 LT ISZERO PUSH2 0xBDB JUMPI PUSH1 0x40 MLOAD PUSH3 0x461BCD PUSH1 0xE5 SHL DUP2 MSTORE PUSH1 0x4 ADD PUSH2 0x969 SWAP1 PUSH2 0x4A82 JUMP JUMPDEST DUP5 SLOAD PUSH2 0xC15 SWAP1 PUSH1 0x1 PUSH1 0x1 PUSH1 0xA0 SHL SUB PUSH32 0x0 DUP2 AND SWAP2 AND ADDRESS DUP5 PUSH2 0x36F1 JUMP JUMPDEST POP PUSH2 0xC78 JUMP JUMPDEST DUP4 PUSH1 0x1 ADD SLOAD DUP2 LT ISZERO PUSH2 0xC78 JUMPI DUP4 SLOAD PUSH1 0x1 DUP6 ADD SLOAD PUSH2 0xC78 SWAP2 PUSH1 0x1 PUSH1 0x1 PUSH1 0xA0 SHL SUB AND SWAP1 PUSH2 0xC47 SWAP1 DUP5 SWAP1 PUSH2 0x4A6F JUMP JUMPDEST PUSH1 0x1 PUSH1 0x1 PUSH1 0xA0 SHL SUB PUSH32 0x0 AND SWAP2 SWAP1 PUSH2 0x375E JUMP JUMPDEST PUSH1 0x1 DUP5 ADD SSTORE JUMPDEST PUSH2 0xC8A PUSH1 0x4 PUSH1 0xA PUSH2 0x4A42 JUMP JUMPDEST PUSH1 0x8 SLOAD PUSH2 0xCA5 SWAP1 DUP4 SWAP1 PUSH1 0x1 PUSH1 0xC0 SHL SWAP1 DIV PUSH4 0xFFFFFFFF AND PUSH2 0x4948 JUMP JUMPDEST PUSH2 0xCAF SWAP2 SWAP1 PUSH2 0x4A50 JUMP JUMPDEST DUP4 PUSH1 0x1 ADD SLOAD LT ISZERO PUSH2 0xD02 JUMPI PUSH1 0x40 MLOAD PUSH3 0x461BCD PUSH1 0xE5 SHL DUP2 MSTORE PUSH1 0x20 PUSH1 0x4 DUP3 ADD MSTORE PUSH1 0x1F PUSH1 0x24 DUP3 ADD MSTORE PUSH32 0x5032504C656E64696E673A496E63726561736520636F6C6C61746572616C2100 PUSH1 0x44 DUP3 ADD MSTORE PUSH1 0x64 ADD PUSH2 0x969 JUMP JUMPDEST PUSH0 PUSH2 0xD0F PUSH1 0x4 PUSH1 0xA PUSH2 0x4A42 JUMP JUMPDEST PUSH1 0x9 SLOAD PUSH2 0xD23 SWAP1 DUP6 SWAP1 PUSH4 0xFFFFFFFF AND PUSH2 0x4948 JUMP JUMPDEST PUSH2 0xD2D SWAP2 SWAP1 PUSH2 0x4A50 JUMP JUMPDEST PUSH1 0x9 SLOAD SWAP1 SWAP2 POP PUSH2 0xD71 SWAP1 PUSH1 0x1 PUSH1 0x1 PUSH1 0xA0 SHL SUB PUSH32 0x0 DUP2 AND SWAP2 PUSH1 0x1 PUSH1 0x20 SHL SWAP1 DIV AND DUP4 PUSH2 0x375E JUMP JUMPDEST DUP4 SLOAD PUSH2 0xDBB SWAP1 PUSH1 0x1 PUSH1 0x1 PUSH1 0xA0 SHL SUB AND PUSH2 0xD8A DUP4 DUP7 PUSH2 0x4A6F JUMP JUMPDEST PUSH1 0x1 PUSH1 0x1 PUSH1 0xA0 SHL SUB PUSH32 0x0 AND SWAP2 SWAP1 PUSH2 0x375E JUMP JUMPDEST POP DUP4 SLOAD PUSH1 0x40 MLOAD SWAP1 DUP2 MSTORE DUP14 SWAP1 PUSH32 0x44EC4D36B0D76019C4B5AEC2A216DBCA5AD6C6D671940C8FBBCD23CFE4E804B SWAP1 PUSH1 0x20 ADD PUSH1 0x40 MLOAD DUP1 SWAP2 SUB SWAP1 LOG2 PUSH2 0xDFC DUP14 PUSH2 0x378F JUMP JUMPDEST POP POP SWAP1 SLOAD SWAP3 POP POP POP PUSH2 0xE0E PUSH1 0x1 PUSH1 0x6 SSTORE JUMP JUMPDEST SWAP8 SWAP7 POP POP POP POP POP POP POP JUMP JUMPDEST PUSH1 0x40 DUP1 MLOAD PUSH2 0x100 DUP2 ADD DUP3 MSTORE PUSH0 DUP1 DUP3 MSTORE PUSH1 0x20 DUP3 ADD DUP2 SWAP1 MSTORE SWAP2 DUP2 ADD DUP3 SWAP1 MSTORE PUSH1 0x60 DUP2 ADD DUP3 SWAP1 MSTORE PUSH1 0x80 DUP2 ADD DUP3 SWAP1 MSTORE PUSH1 0xA0 DUP2 ADD DUP3 SWAP1 MSTORE PUSH1 0xC0 DUP2 ADD DUP3 SWAP1 MSTORE PUSH1 0xE0 DUP2 ADD SWAP2 SWAP1 SWAP2 MSTORE PUSH1 0x40 DUP1 MLOAD PUSH1 0xA0 DUP2 ADD DUP3 MSTORE PUSH0 DUP1 DUP3 MSTORE PUSH1 0x20 DUP3 ADD DUP2 SWAP1 MSTORE SWAP2 DUP2 ADD DUP3 SWAP1 MSTORE PUSH1 0x60 DUP2 ADD DUP3 SWAP1 MSTORE PUSH1 0x80 DUP2 ADD SWAP2 SWAP1 SWAP2 MSTORE PUSH0 DUP4 PUSH0 DUP2 GT DUP1 ISZERO PUSH2 0xE95 JUMPI POP PUSH1 0xD SLOAD DUP2 LT JUMPDEST PUSH2 0xEB1 JUMPI PUSH1 0x40 MLOAD PUSH3 0x461BCD PUSH1 0xE5 SHL DUP2 MSTORE PUSH1 0x4 ADD PUSH2 0x969 SWAP1 PUSH2 0x48B4 JUMP JUMPDEST POP POP POP PUSH0 SWAP2 DUP3 MSTORE POP PUSH1 0xB PUSH1 0x20 SWAP1 DUP2 MSTORE PUSH1 0x40 DUP1 DUP4 KECCAK256 PUSH1 0xC DUP4 MSTORE DUP2 DUP5 KECCAK256 PUSH1 0x4 DUP5 MSTORE SWAP4 DUP3 SWAP1 KECCAK256 SLOAD DUP3 MLOAD PUSH2 0x100 DUP2 ADD DUP5 MSTORE DUP3 SLOAD DUP2 MSTORE PUSH1 0x1 DUP1 DUP5 ADD SLOAD DUP3 DUP8 ADD MSTORE PUSH1 0x2 DUP1 DUP6 ADD SLOAD PUSH1 0x1 PUSH1 0x1 PUSH1 0xA0 SHL SUB DUP1 DUP3 AND DUP6 DUP10 ADD MSTORE PUSH1 0x1 PUSH1 0x1 PUSH1 0x60 SHL SUB PUSH1 0x1 PUSH1 0xA0 SHL SWAP3 DUP4 SWAP1 DIV DUP2 AND PUSH1 0x60 DUP1 DUP9 ADD SWAP2 SWAP1 SWAP2 MSTORE PUSH1 0x3 SWAP9 DUP10 ADD SLOAD PUSH4 0xFFFFFFFF DUP1 DUP3 AND PUSH1 0x80 DUP1 DUP12 ADD SWAP2 SWAP1 SWAP2 MSTORE PUSH1 0x1 PUSH1 0x20 SHL DUP4 DIV DUP3 AND PUSH1 0xA0 DUP1 DUP13 ADD SWAP2 SWAP1 SWAP2 MSTORE PUSH1 0x1 PUSH1 0x40 SHL DUP5 DIV SWAP1 SWAP3 AND PUSH1 0xC0 DUP12 ADD MSTORE PUSH1 0x1 PUSH1 0x60 SHL SWAP1 SWAP3 DIV DUP5 AND PUSH1 0xE0 DUP11 ADD MSTORE DUP12 MLOAD SWAP1 DUP2 ADD DUP13 MSTORE DUP14 SLOAD SWAP5 DUP6 AND DUP2 MSTORE SWAP5 SWAP1 SWAP4 DIV DUP3 AND SWAP11 DUP5 ADD SWAP11 SWAP1 SWAP11 MSTORE SWAP4 DUP11 ADD SLOAD SWAP8 DUP3 ADD SWAP8 SWAP1 SWAP8 MSTORE SWAP1 DUP9 ADD SLOAD SWAP7 DUP2 ADD SWAP7 SWAP1 SWAP7 MSTORE SWAP3 SWAP1 SWAP6 ADD SLOAD SWAP1 SWAP2 AND SWAP2 DUP4 ADD SWAP2 SWAP1 SWAP2 MSTORE SWAP2 SWAP3 SWAP1 SWAP2 SWAP1 JUMP JUMPDEST PUSH1 0x60 PUSH1 0x3 DUP1 SLOAD PUSH2 0xFBA SWAP1 PUSH2 0x4AC9 JUMP JUMPDEST DUP1 PUSH1 0x1F ADD PUSH1 0x20 DUP1 SWAP2 DIV MUL PUSH1 0x20 ADD PUSH1 0x40 MLOAD SWAP1 DUP2 ADD PUSH1 0x40 MSTORE DUP1 SWAP3 SWAP2 SWAP1 DUP2 DUP2 MSTORE PUSH1 0x20 ADD DUP3 DUP1 SLOAD PUSH2 0xFE6 SWAP1 PUSH2 0x4AC9 JUMP JUMPDEST DUP1 ISZERO PUSH2 0x1031 JUMPI DUP1 PUSH1 0x1F LT PUSH2 0x1008 JUMPI PUSH2 0x100 DUP1 DUP4 SLOAD DIV MUL DUP4 MSTORE SWAP2 PUSH1 0x20 ADD SWAP2 PUSH2 0x1031 JUMP JUMPDEST DUP3 ADD SWAP2 SWAP1 PUSH0 MSTORE PUSH1 0x20 PUSH0 KECCAK256 SWAP1 JUMPDEST DUP2 SLOAD DUP2 MSTORE SWAP1 PUSH1 0x1 ADD SWAP1 PUSH1 0x20 ADD DUP1 DUP4 GT PUSH2 0x1014 JUMPI DUP3 SWAP1 SUB PUSH1 0x1F AND DUP3 ADD SWAP2 JUMPDEST POP POP POP POP POP SWAP1 POP SWAP2 SWAP1 POP JUMP JUMPDEST PUSH0 DUP2 DUP2 MSTORE PUSH1 0xB PUSH1 0x20 SWAP1 DUP2 MSTORE PUSH1 0x40 DUP1 DUP4 KECCAK256 PUSH1 0xC SWAP1 SWAP3 MSTORE DUP3 KECCAK256 DUP2 SLOAD DUP4 SUB PUSH2 0x1065 JUMPI POP PUSH0 SWAP4 SWAP3 POP POP POP JUMP JUMPDEST DUP1 SLOAD PUSH1 0x1 PUSH1 0x1 PUSH1 0xA0 SHL SUB AND ISZERO DUP1 ISZERO PUSH2 0x1088 JUMPI POP PUSH0 DUP5 DUP2 MSTORE PUSH1 0x4 PUSH1 0x20 MSTORE PUSH1 0x40 SWAP1 KECCAK256 SLOAD ISZERO JUMPDEST DUP1 PUSH2 0x10A9 JUMPI POP DUP1 SLOAD PUSH1 0x1 PUSH1 0x1 PUSH1 0xA0 SHL SUB AND ISZERO DUP1 ISZERO SWAP1 PUSH2 0x10A9 JUMPI POP PUSH1 0x1 DUP2 ADD SLOAD ISZERO JUMPDEST ISZERO PUSH2 0x10B8 JUMPI POP PUSH1 0x5 SWAP4 SWAP3 POP POP POP JUMP JUMPDEST DUP1 SLOAD PUSH1 0x1 PUSH1 0xA0 SHL SWAP1 DIV PUSH1 0x1 PUSH1 0x1 PUSH1 0x60 SHL SUB AND PUSH0 SUB PUSH2 0x1134 JUMPI PUSH1 0x3 DUP2 ADD SLOAD PUSH1 0x1 PUSH1 0x1 PUSH1 0x60 SHL SUB AND ISZERO DUP1 ISZERO SWAP1 PUSH2 0x10FB JUMPI POP PUSH1 0x3 DUP2 ADD SLOAD PUSH1 0x1 PUSH1 0x1 PUSH1 0x60 SHL SUB TIMESTAMP DUP2 AND SWAP2 AND LT JUMPDEST ISZERO PUSH2 0x110A JUMPI POP PUSH1 0x3 SWAP4 SWAP3 POP POP POP JUMP JUMPDEST PUSH0 DUP5 DUP2 MSTORE PUSH1 0x4 PUSH1 0x20 MSTORE PUSH1 0x40 SWAP1 KECCAK256 SLOAD DUP3 SLOAD GT ISZERO PUSH2 0x112A JUMPI POP PUSH1 0x1 SWAP4 SWAP3 POP POP POP JUMP JUMPDEST POP PUSH1 0x2 SWAP4 SWAP3 POP POP POP JUMP JUMPDEST PUSH1 0x1 DUP2 ADD SLOAD ISZERO PUSH2 0x115B JUMPI PUSH0 DUP5 DUP2 MSTORE PUSH1 0x4 PUSH1 0x20 MSTORE PUSH1 0x40 SWAP1 KECCAK256 SLOAD ISZERO PUSH2 0x115B JUMPI POP PUSH1 0x4 SWAP4 SWAP3 POP POP POP JUMP JUMPDEST POP PUSH1 0x5 SWAP4 SWAP3 POP POP POP JUMP JUMPDEST PUSH0 PUSH2 0x116E PUSH2 0x3635 JUMP JUMPDEST DUP4 PUSH0 DUP2 GT DUP1 ISZERO PUSH2 0x117F JUMPI POP PUSH1 0xD SLOAD DUP2 LT JUMPDEST PUSH2 0x119B JUMPI PUSH1 0x40 MLOAD PUSH3 0x461BCD PUSH1 0xE5 SHL DUP2 MSTORE PUSH1 0x4 ADD PUSH2 0x969 SWAP1 PUSH2 0x48B4 JUMP JUMPDEST PUSH0 DUP5 GT DUP1 ISZERO PUSH2 0x11AA JUMPI POP DUP3 DUP5 LT ISZERO JUMPDEST PUSH2 0x1211 JUMPI PUSH1 0x40 MLOAD PUSH3 0x461BCD PUSH1 0xE5 SHL DUP2 MSTORE PUSH1 0x20 PUSH1 0x4 DUP3 ADD MSTORE PUSH1 0x32 PUSH1 0x24 DUP3 ADD MSTORE PUSH32 0x5032504C656E64696E6720726571756972653A7461726765745F6C6F74733E30 PUSH1 0x44 DUP3 ADD MSTORE PUSH18 0x202626206C6F74733E3D6D696E5F6C6F7473 PUSH1 0x70 SHL PUSH1 0x64 DUP3 ADD MSTORE PUSH1 0x84 ADD PUSH2 0x969 JUMP JUMPDEST PUSH1 0x1 PUSH2 0x121C DUP7 PUSH2 0x103D JUMP JUMPDEST PUSH1 0x5 DUP2 GT ISZERO PUSH2 0x122D JUMPI PUSH2 0x122D PUSH2 0x4329 JUMP JUMPDEST EQ PUSH2 0x128E JUMPI PUSH1 0x40 MLOAD PUSH3 0x461BCD PUSH1 0xE5 SHL DUP2 MSTORE PUSH1 0x20 PUSH1 0x4 DUP3 ADD MSTORE PUSH1 0x2B PUSH1 0x24 DUP3 ADD MSTORE PUSH32 0x5032504C656E64696E673A4C6F616E537461747573206E6F7420657175616C73 PUSH1 0x44 DUP3 ADD MSTORE PUSH11 0x2046494E414E43494E4721 PUSH1 0xA8 SHL PUSH1 0x64 DUP3 ADD MSTORE PUSH1 0x84 ADD PUSH2 0x969 JUMP JUMPDEST PUSH0 DUP6 DUP2 MSTORE PUSH1 0xB PUSH1 0x20 SWAP1 DUP2 MSTORE PUSH1 0x40 DUP1 DUP4 KECCAK256 PUSH1 0x4 SWAP1 SWAP3 MSTORE DUP3 KECCAK256 SLOAD SWAP1 SWAP2 SWAP1 DUP3 SLOAD PUSH2 0x12B5 SWAP2 SWAP1 PUSH2 0x4A6F JUMP JUMPDEST SWAP1 POP DUP5 DUP2 LT ISZERO PUSH2 0x1315 JUMPI PUSH1 0x40 MLOAD PUSH3 0x461BCD PUSH1 0xE5 SHL DUP2 MSTORE PUSH1 0x20 PUSH1 0x4 DUP3 ADD MSTORE PUSH1 0x25 PUSH1 0x24 DUP3 ADD MSTORE PUSH32 0x5032504C656E64696E673A4E6F7420656E6F75676820617661696C61626C6520 PUSH1 0x44 DUP3 ADD MSTORE PUSH5 0x6C6F747321 PUSH1 0xD8 SHL PUSH1 0x64 DUP3 ADD MSTORE PUSH1 0x84 ADD PUSH2 0x969 JUMP JUMPDEST PUSH0 PUSH2 0x1320 DUP8 DUP4 PUSH2 0x381A JUMP JUMPDEST SWAP1 POP PUSH2 0x1369 CALLER ADDRESS DUP4 DUP7 PUSH1 0x1 ADD SLOAD PUSH2 0x1337 SWAP2 SWAP1 PUSH2 0x4948 JUMP JUMPDEST PUSH1 0x1 PUSH1 0x1 PUSH1 0xA0 SHL SUB PUSH32 0x0 AND SWAP3 SWAP2 SWAP1 PUSH2 0x36F1 JUMP JUMPDEST PUSH2 0x1383 CALLER DUP10 DUP4 PUSH1 0x40 MLOAD DUP1 PUSH1 0x20 ADD PUSH1 0x40 MSTORE DUP1 PUSH0 DUP2 MSTORE POP PUSH2 0x3829 JUMP JUMPDEST DUP3 SLOAD PUSH0 DUP10 DUP2 MSTORE PUSH1 0x4 PUSH1 0x20 MSTORE PUSH1 0x40 SWAP1 KECCAK256 SLOAD GT ISZERO PUSH2 0x13F2 JUMPI PUSH1 0x40 MLOAD PUSH3 0x461BCD PUSH1 0xE5 SHL DUP2 MSTORE PUSH1 0x20 PUSH1 0x4 DUP3 ADD MSTORE PUSH1 0x28 PUSH1 0x24 DUP3 ADD MSTORE PUSH32 0x5032504C656E64696E6720726571756972653A737570706C793C3D6C6F74735F PUSH1 0x44 DUP3 ADD MSTORE PUSH8 0x1C995C5D5A5C9959 PUSH1 0xC2 SHL PUSH1 0x64 DUP3 ADD MSTORE PUSH1 0x84 ADD PUSH2 0x969 JUMP JUMPDEST DUP3 SLOAD PUSH0 DUP10 DUP2 MSTORE PUSH1 0x4 PUSH1 0x20 MSTORE PUSH1 0x40 SWAP1 KECCAK256 SLOAD TIMESTAMP SWAP2 SWAP1 SUB PUSH2 0x147F JUMPI PUSH2 0x1417 PUSH3 0x15180 DUP3 PUSH2 0x4929 JUMP JUMPDEST PUSH0 DUP11 DUP2 MSTORE PUSH1 0xC PUSH1 0x20 SWAP1 DUP2 MSTORE PUSH1 0x40 SWAP2 DUP3 SWAP1 KECCAK256 PUSH1 0x3 ADD DUP1 SLOAD PUSH1 0x1 PUSH1 0x1 PUSH1 0x60 SHL SUB NOT AND PUSH1 0x1 PUSH1 0x1 PUSH1 0x60 SHL SUB SWAP5 SWAP1 SWAP5 AND SWAP4 DUP5 OR SWAP1 SSTORE SWAP1 MLOAD SWAP2 DUP3 MSTORE DUP11 SWAP2 PUSH32 0x6FCE911D7163D1242CD9F1727A93EB2D9232BB808DB0881B448196DCD2FE412D SWAP2 ADD PUSH1 0x40 MLOAD DUP1 SWAP2 SUB SWAP1 LOG2 PUSH2 0x14C2 JUMP JUMPDEST PUSH2 0x148A PUSH1 0x1E DUP3 PUSH2 0x4929 JUMP JUMPDEST CALLER PUSH0 SWAP1 DUP2 MSTORE PUSH1 0xE PUSH1 0x20 SWAP1 DUP2 MSTORE PUSH1 0x40 DUP1 DUP4 KECCAK256 DUP14 DUP5 MSTORE SWAP1 SWAP2 MSTORE SWAP1 KECCAK256 DUP1 SLOAD PUSH1 0x1 PUSH1 0x1 PUSH1 0x60 SHL SUB NOT AND PUSH1 0x1 PUSH1 0x1 PUSH1 0x60 SHL SUB SWAP3 SWAP1 SWAP3 AND SWAP2 SWAP1 SWAP2 OR SWAP1 SSTORE JUMPDEST PUSH1 0x40 MLOAD DUP3 DUP2 MSTORE CALLER SWAP1 DUP11 SWAP1 PUSH32 0xBC00F64D7F7FDD45626F23C5B8BFA1C1B8E64FAF4200EFB7DA5A7439A326F955 SWAP1 PUSH1 0x20 ADD PUSH1 0x40 MLOAD DUP1 SWAP2 SUB SWAP1 LOG3 POP SWAP4 POP POP POP POP PUSH2 0x1509 PUSH1 0x1 PUSH1 0x6 SSTORE JUMP JUMPDEST SWAP4 SWAP3 POP POP POP JUMP JUMPDEST PUSH0 DUP3 PUSH0 DUP2 GT DUP1 ISZERO PUSH2 0x1522 JUMPI POP PUSH1 0xD SLOAD DUP2 LT JUMPDEST PUSH2 0x153E JUMPI PUSH1 0x40 MLOAD PUSH3 0x461BCD PUSH1 0xE5 SHL DUP2 MSTORE PUSH1 0x4 ADD PUSH2 0x969 SWAP1 PUSH2 0x48B4 JUMP JUMPDEST PUSH0 DUP5 DUP2 MSTORE PUSH1 0x4 PUSH1 0x20 MSTORE PUSH1 0x40 SWAP1 KECCAK256 SLOAD DUP1 ISZERO PUSH2 0x15A7 JUMPI PUSH0 DUP6 DUP2 MSTORE PUSH1 0xC PUSH1 0x20 MSTORE PUSH1 0x40 DUP2 KECCAK256 PUSH1 0x2 ADD SLOAD ISZERO PUSH2 0x157E JUMPI PUSH0 DUP7 DUP2 MSTORE PUSH1 0xC PUSH1 0x20 MSTORE PUSH1 0x40 SWAP1 KECCAK256 PUSH1 0x2 ADD SLOAD PUSH2 0x1587 JUMP JUMPDEST PUSH2 0x1587 DUP7 PUSH2 0x3047 JUMP JUMPDEST SWAP1 POP DUP2 PUSH2 0x1594 DUP3 DUP8 PUSH2 0x4948 JUMP JUMPDEST PUSH2 0x159E SWAP2 SWAP1 PUSH2 0x4A50 JUMP JUMPDEST SWAP4 POP POP POP PUSH2 0x15AC JUMP JUMPDEST PUSH0 SWAP3 POP POP JUMPDEST POP SWAP3 SWAP2 POP POP JUMP JUMPDEST CALLER PUSH1 0x1 PUSH1 0x1 PUSH1 0xA0 SHL SUB DUP7 AND DUP2 EQ DUP1 ISZERO SWAP1 PUSH2 0x15D4 JUMPI POP PUSH2 0x15D2 DUP7 DUP3 PUSH2 0x34BB JUMP JUMPDEST ISZERO JUMPDEST ISZERO PUSH2 0x1605 JUMPI PUSH1 0x40 MLOAD PUSH4 0x711BEC91 PUSH1 0xE1 SHL DUP2 MSTORE PUSH1 0x1 PUSH1 0x1 PUSH1 0xA0 SHL SUB DUP1 DUP4 AND PUSH1 0x4 DUP4 ADD MSTORE DUP8 AND PUSH1 0x24 DUP3 ADD MSTORE PUSH1 0x44 ADD PUSH2 0x969 JUMP JUMPDEST PUSH2 0x1612 DUP7 DUP7 DUP7 DUP7 DUP7 PUSH2 0x3884 JUMP JUMPDEST POP POP POP POP POP POP JUMP JUMPDEST PUSH2 0x1622 PUSH2 0x38E9 JUMP JUMPDEST PUSH1 0x8 DUP1 SLOAD PUSH8 0xFFFFFFFF00000000 NOT AND PUSH1 0x1 PUSH1 0x20 SHL PUSH4 0xFFFFFFFF DUP5 DUP2 AND DUP3 MUL SWAP3 SWAP1 SWAP3 OR SWAP3 DUP4 SWAP1 SSTORE PUSH1 0x40 MLOAD SWAP3 DIV AND DUP2 MSTORE PUSH32 0x85595CB7B81D221172988F4BF171B00745E5C6F4E17760CC33DD2F02DCB57AE4 SWAP1 PUSH1 0x20 ADD JUMPDEST PUSH1 0x40 MLOAD DUP1 SWAP2 SUB SWAP1 LOG1 POP JUMP JUMPDEST PUSH2 0x1689 PUSH2 0x38E9 JUMP JUMPDEST PUSH1 0x7 DUP2 SWAP1 SSTORE PUSH1 0x40 MLOAD DUP2 DUP2 MSTORE PUSH32 0xDE6A3638493F2725F743C7C5C9801D3143C92F2ADF4825F0434DD9513B2943C7 SWAP1 PUSH1 0x20 ADD PUSH2 0x1676 JUMP JUMPDEST PUSH2 0x16C6 PUSH2 0x38E9 JUMP JUMPDEST PUSH1 0x8 DUP1 SLOAD PUSH1 0x1 PUSH1 0x1 PUSH1 0xE0 SHL SUB AND PUSH1 0x1 PUSH1 0xE0 SHL PUSH4 0xFFFFFFFF DUP5 DUP2 AND DUP3 MUL SWAP3 SWAP1 SWAP3 OR SWAP3 DUP4 SWAP1 SSTORE PUSH1 0x40 MLOAD SWAP3 DIV AND DUP2 MSTORE PUSH32 0x89C571E0D88872F4418634E394070DBE24A78682B16A616B1F8E02A2939D421E SWAP1 PUSH1 0x20 ADD PUSH2 0x1676 JUMP JUMPDEST PUSH2 0x1724 PUSH2 0x3635 JUMP JUMPDEST DUP1 PUSH0 DUP2 GT DUP1 ISZERO PUSH2 0x1735 JUMPI POP PUSH1 0xD SLOAD DUP2 LT JUMPDEST PUSH2 0x1751 JUMPI PUSH1 0x40 MLOAD PUSH3 0x461BCD PUSH1 0xE5 SHL DUP2 MSTORE PUSH1 0x4 ADD PUSH2 0x969 SWAP1 PUSH2 0x48B4 JUMP JUMPDEST PUSH1 0x4 PUSH2 0x175C DUP4 PUSH2 0x103D JUMP JUMPDEST PUSH1 0x5 DUP2 GT ISZERO PUSH2 0x176D JUMPI PUSH2 0x176D PUSH2 0x4329 JUMP JUMPDEST EQ PUSH2 0x178A JUMPI PUSH1 0x40 MLOAD PUSH3 0x461BCD PUSH1 0xE5 SHL DUP2 MSTORE PUSH1 0x4 ADD PUSH2 0x969 SWAP1 PUSH2 0x4B01 JUMP JUMPDEST PUSH0 DUP3 DUP2 MSTORE PUSH1 0xC PUSH1 0x20 MSTORE PUSH1 0x40 SWAP1 KECCAK256 DUP1 SLOAD PUSH1 0x1 PUSH1 0x1 PUSH1 0xA0 SHL SUB AND CALLER EQ PUSH2 0x17C0 JUMPI PUSH1 0x40 MLOAD PUSH3 0x461BCD PUSH1 0xE5 SHL DUP2 MSTORE PUSH1 0x4 ADD PUSH2 0x969 SWAP1 PUSH2 0x48DE JUMP JUMPDEST PUSH0 PUSH2 0x17CA DUP5 PUSH2 0x3047 JUMP JUMPDEST DUP3 SLOAD SWAP1 SWAP2 POP PUSH2 0x1807 SWAP1 PUSH1 0x1 PUSH1 0x1 PUSH1 0xA0 SHL SUB PUSH32 0x0 DUP2 AND SWAP2 AND ADDRESS DUP5 PUSH2 0x36F1 JUMP JUMPDEST DUP1 DUP3 PUSH1 0x2 ADD PUSH0 DUP3 DUP3 SLOAD PUSH2 0x181A SWAP2 SWAP1 PUSH2 0x4B4A JUMP JUMPDEST SWAP1 SWAP2 SSTORE POP POP DUP2 SLOAD PUSH1 0x1 DUP4 ADD SLOAD PUSH2 0x185E SWAP2 PUSH1 0x1 PUSH1 0x1 PUSH1 0xA0 SHL SUB PUSH32 0x0 DUP2 AND SWAP3 SWAP2 AND SWAP1 PUSH2 0x375E JUMP JUMPDEST PUSH0 PUSH1 0x1 DUP4 ADD SSTORE PUSH1 0x40 MLOAD DUP2 DUP2 MSTORE DUP5 SWAP1 PUSH32 0x552544CB36551120F07C66C5CD4B2987725A0C72198587F2CE796099BB66C58C SWAP1 PUSH1 0x20 ADD PUSH1 0x40 MLOAD DUP1 SWAP2 SUB SWAP1 LOG2 PUSH2 0x18A2 DUP5 PUSH2 0x378F JUMP JUMPDEST POP POP POP PUSH2 0x18AF PUSH1 0x1 PUSH1 0x6 SSTORE JUMP JUMPDEST POP JUMP JUMPDEST PUSH2 0x18BA PUSH2 0x38E9 JUMP JUMPDEST PUSH1 0x9 DUP1 SLOAD PUSH5 0x100000000 PUSH1 0x1 PUSH1 0xC0 SHL SUB NOT AND PUSH1 0x1 PUSH1 0x20 SHL PUSH1 0x1 PUSH1 0x1 PUSH1 0xA0 SHL SUB DUP5 DUP2 AND DUP3 MUL SWAP3 SWAP1 SWAP3 OR SWAP3 DUP4 SWAP1 SSTORE PUSH1 0x40 MLOAD SWAP3 DIV AND DUP2 MSTORE PUSH32 0x15A6D8DBE28500FE360D4A194D18559AE45775C191765D262C598C2FCB59D967 SWAP1 PUSH1 0x20 ADD PUSH2 0x1676 JUMP JUMPDEST PUSH0 DUP4 PUSH0 DUP2 GT DUP1 ISZERO PUSH2 0x192A JUMPI POP PUSH1 0xD SLOAD DUP2 LT JUMPDEST PUSH2 0x1946 JUMPI PUSH1 0x40 MLOAD PUSH3 0x461BCD PUSH1 0xE5 SHL DUP2 MSTORE PUSH1 0x4 ADD PUSH2 0x969 SWAP1 PUSH2 0x48B4 JUMP JUMPDEST PUSH1 0x4 PUSH2 0x1951 DUP7 PUSH2 0x103D JUMP JUMPDEST PUSH1 0x5 DUP2 GT ISZERO PUSH2 0x1962 JUMPI PUSH2 0x1962 PUSH2 0x4329 JUMP JUMPDEST EQ PUSH2 0x197F JUMPI PUSH1 0x40 MLOAD PUSH3 0x461BCD PUSH1 0xE5 SHL DUP2 MSTORE PUSH1 0x4 ADD PUSH2 0x969 SWAP1 PUSH2 0x4B01 JUMP JUMPDEST PUSH0 DUP6 DUP2 MSTORE PUSH1 0xB PUSH1 0x20 SWAP1 DUP2 MSTORE PUSH1 0x40 DUP1 DUP4 KECCAK256 PUSH1 0x2 ADD SLOAD PUSH1 0xC SWAP1 SWAP3 MSTORE SWAP1 SWAP2 KECCAK256 PUSH1 0x1 ADD SLOAD PUSH1 0x1 PUSH1 0x1 PUSH1 0xA0 SHL SUB SWAP1 SWAP2 AND SWAP1 PUSH4 0x4BBF415C SWAP1 PUSH32 0x0 SWAP1 PUSH1 0x4 SWAP1 PUSH32 0x0 PUSH2 0x1A00 DUP12 PUSH2 0x3047 JUMP JUMPDEST DUP11 DUP11 PUSH1 0x40 MLOAD DUP9 PUSH4 0xFFFFFFFF AND PUSH1 0xE0 SHL DUP2 MSTORE PUSH1 0x4 ADD PUSH2 0x1A24 SWAP8 SWAP7 SWAP6 SWAP5 SWAP4 SWAP3 SWAP2 SWAP1 PUSH2 0x4B85 JUMP JUMPDEST PUSH1 0x20 PUSH1 0x40 MLOAD DUP1 DUP4 SUB DUP2 DUP7 GAS STATICCALL ISZERO DUP1 ISZERO PUSH2 0x1A3F JUMPI RETURNDATASIZE PUSH0 PUSH0 RETURNDATACOPY RETURNDATASIZE PUSH0 REVERT JUMPDEST POP POP POP POP PUSH1 0x40 MLOAD RETURNDATASIZE PUSH1 0x1F NOT PUSH1 0x1F DUP3 ADD AND DUP3 ADD DUP1 PUSH1 0x40 MSTORE POP DUP2 ADD SWAP1 PUSH2 0x1A63 SWAP2 SWAP1 PUSH2 0x4BD1 JUMP JUMPDEST SWAP6 SWAP5 POP POP POP POP POP JUMP JUMPDEST PUSH2 0x1A74 PUSH2 0x38E9 JUMP JUMPDEST PUSH1 0x8 DUP1 SLOAD PUSH4 0xFFFFFFFF PUSH1 0xA0 SHL NOT AND PUSH1 0x1 PUSH1 0xA0 SHL PUSH4 0xFFFFFFFF DUP5 DUP2 AND DUP3 MUL SWAP3 SWAP1 SWAP3 OR SWAP3 DUP4 SWAP1 SSTORE PUSH1 0x40 MLOAD SWAP3 DIV AND DUP2 MSTORE PUSH32 0x7B0FFAC54449EDEFE5C8B153777B5873E7673D02C8AC936F3CB37A9A2B9E00D5 SWAP1 PUSH1 0x20 ADD PUSH2 0x1676 JUMP JUMPDEST PUSH1 0x60 DUP2 MLOAD DUP4 MLOAD EQ PUSH2 0x1AFC JUMPI DUP2 MLOAD DUP4 MLOAD PUSH1 0x40 MLOAD PUSH4 0x5B059991 PUSH1 0xE0 SHL DUP2 MSTORE PUSH1 0x4 DUP2 ADD SWAP3 SWAP1 SWAP3 MSTORE PUSH1 0x24 DUP3 ADD MSTORE PUSH1 0x44 ADD PUSH2 0x969 JUMP JUMPDEST PUSH0 DUP4 MLOAD PUSH1 0x1 PUSH1 0x1 PUSH1 0x40 SHL SUB DUP2 GT ISZERO PUSH2 0x1B16 JUMPI PUSH2 0x1B16 PUSH2 0x43AC JUMP JUMPDEST PUSH1 0x40 MLOAD SWAP1 DUP1 DUP3 MSTORE DUP1 PUSH1 0x20 MUL PUSH1 0x20 ADD DUP3 ADD PUSH1 0x40 MSTORE DUP1 ISZERO PUSH2 0x1B3F JUMPI DUP2 PUSH1 0x20 ADD PUSH1 0x20 DUP3 MUL DUP1 CALLDATASIZE DUP4 CALLDATACOPY ADD SWAP1 POP JUMPDEST POP SWAP1 POP PUSH0 JUMPDEST DUP5 MLOAD DUP2 LT ISZERO PUSH2 0x1B8D JUMPI PUSH1 0x20 DUP1 DUP3 MUL DUP7 ADD ADD MLOAD PUSH2 0x1B68 SWAP1 PUSH1 0x20 DUP1 DUP5 MUL DUP8 ADD ADD MLOAD PUSH2 0x8BB JUMP JUMPDEST DUP3 DUP3 DUP2 MLOAD DUP2 LT PUSH2 0x1B7A JUMPI PUSH2 0x1B7A PUSH2 0x4BE8 JUMP JUMPDEST PUSH1 0x20 SWAP1 DUP2 MUL SWAP2 SWAP1 SWAP2 ADD ADD MSTORE PUSH1 0x1 ADD PUSH2 0x1B44 JUMP JUMPDEST POP SWAP4 SWAP3 POP POP POP JUMP JUMPDEST PUSH0 PUSH2 0x1B9E PUSH2 0x3635 JUMP JUMPDEST PUSH1 0x8 SLOAD PUSH4 0xFFFFFFFF AND DUP6 LT DUP1 ISZERO SWAP1 PUSH2 0x1BC9 JUMPI POP PUSH1 0x8 SLOAD PUSH4 0xFFFFFFFF PUSH1 0x1 PUSH1 0xC0 SHL SWAP1 SWAP2 DIV DUP2 AND SWAP1 DUP6 AND LT ISZERO JUMPDEST DUP1 ISZERO PUSH2 0x1BE8 JUMPI POP PUSH1 0x8 SLOAD PUSH4 0xFFFFFFFF PUSH1 0x1 PUSH1 0x20 SHL SWAP1 SWAP2 DIV DUP2 AND SWAP1 DUP5 AND LT ISZERO JUMPDEST DUP1 ISZERO PUSH2 0x1C07 JUMPI POP PUSH1 0x8 SLOAD PUSH4 0xFFFFFFFF PUSH1 0x1 PUSH1 0x40 SHL SWAP1 SWAP2 DIV DUP2 AND SWAP1 DUP5 AND GT ISZERO JUMPDEST DUP1 ISZERO PUSH2 0x1C26 JUMPI POP PUSH1 0x8 SLOAD PUSH4 0xFFFFFFFF PUSH1 0x1 PUSH1 0x80 SHL SWAP1 SWAP2 DIV DUP2 AND SWAP1 DUP4 AND LT ISZERO JUMPDEST DUP1 ISZERO PUSH2 0x1C45 JUMPI POP PUSH1 0x8 SLOAD PUSH4 0xFFFFFFFF PUSH1 0x1 PUSH1 0xA0 SHL SWAP1 SWAP2 DIV DUP2 AND SWAP1 DUP4 AND GT ISZERO JUMPDEST PUSH2 0x1C91 JUMPI PUSH1 0x40 MLOAD PUSH3 0x461BCD PUSH1 0xE5 SHL DUP2 MSTORE PUSH1 0x20 PUSH1 0x4 DUP3 ADD MSTORE PUSH1 0x1D PUSH1 0x24 DUP3 ADD MSTORE PUSH32 0x5032504C656E64696E673A496E76616C696420617267756D656E747321000000 PUSH1 0x44 DUP3 ADD MSTORE PUSH1 0x64 ADD PUSH2 0x969 JUMP JUMPDEST PUSH2 0x1CA4 CALLER ADDRESS DUP8 PUSH1 0x7 SLOAD PUSH2 0x1337 SWAP2 SWAP1 PUSH2 0x4948 JUMP JUMPDEST PUSH2 0x1CC0 CALLER PUSH1 0xD SLOAD DUP8 PUSH1 0x40 MLOAD DUP1 PUSH1 0x20 ADD PUSH1 0x40 MSTORE DUP1 PUSH0 DUP2 MSTORE POP PUSH2 0x3829 JUMP JUMPDEST PUSH1 0x40 DUP1 MLOAD PUSH2 0x100 DUP2 ADD DUP3 MSTORE DUP7 DUP2 MSTORE PUSH1 0x7 SLOAD PUSH1 0x20 DUP3 ADD MSTORE PUSH1 0xA SLOAD PUSH1 0x1 PUSH1 0x1 PUSH1 0xA0 SHL SUB AND SWAP2 DUP2 ADD SWAP2 SWAP1 SWAP2 MSTORE PUSH1 0x60 DUP2 ADD PUSH2 0x1CFA DUP6 PUSH3 0x15180 PUSH2 0x4BFC JUMP JUMPDEST PUSH4 0xFFFFFFFF AND PUSH1 0x1 PUSH1 0x1 PUSH1 0x60 SHL SUB AND DUP2 MSTORE PUSH1 0x20 ADD DUP4 PUSH4 0xFFFFFFFF AND DUP2 MSTORE PUSH1 0x20 ADD DUP6 PUSH4 0xFFFFFFFF AND DUP2 MSTORE PUSH1 0x20 ADD PUSH1 0x8 PUSH1 0x1C SWAP1 SLOAD SWAP1 PUSH2 0x100 EXP SWAP1 DIV PUSH4 0xFFFFFFFF AND PUSH4 0xFFFFFFFF AND DUP2 MSTORE PUSH1 0x20 ADD PUSH0 PUSH1 0x1 PUSH1 0x1 PUSH1 0x60 SHL SUB AND DUP2 MSTORE POP PUSH1 0xB PUSH0 PUSH1 0xD SLOAD DUP2 MSTORE PUSH1 0x20 ADD SWAP1 DUP2 MSTORE PUSH1 0x20 ADD PUSH0 KECCAK256 PUSH0 DUP3 ADD MLOAD DUP2 PUSH0 ADD SSTORE PUSH1 0x20 DUP3 ADD MLOAD DUP2 PUSH1 0x1 ADD SSTORE PUSH1 0x40 DUP3 ADD MLOAD DUP2 PUSH1 0x2 ADD PUSH0 PUSH2 0x100 EXP DUP2 SLOAD DUP2 PUSH1 0x1 PUSH1 0x1 PUSH1 0xA0 SHL SUB MUL NOT AND SWAP1 DUP4 PUSH1 0x1 PUSH1 0x1 PUSH1 0xA0 SHL SUB AND MUL OR SWAP1 SSTORE POP PUSH1 0x60 DUP3 ADD MLOAD DUP2 PUSH1 0x2 ADD PUSH1 0x14 PUSH2 0x100 EXP DUP2 SLOAD DUP2 PUSH1 0x1 PUSH1 0x1 PUSH1 0x60 SHL SUB MUL NOT AND SWAP1 DUP4 PUSH1 0x1 PUSH1 0x1 PUSH1 0x60 SHL SUB AND MUL OR SWAP1 SSTORE POP PUSH1 0x80 DUP3 ADD MLOAD DUP2 PUSH1 0x3 ADD PUSH0 PUSH2 0x100 EXP DUP2 SLOAD DUP2 PUSH4 0xFFFFFFFF MUL NOT AND SWAP1 DUP4 PUSH4 0xFFFFFFFF AND MUL OR SWAP1 SSTORE POP PUSH1 0xA0 DUP3 ADD MLOAD DUP2 PUSH1 0x3 ADD PUSH1 0x4 PUSH2 0x100 EXP DUP2 SLOAD DUP2 PUSH4 0xFFFFFFFF MUL NOT AND SWAP1 DUP4 PUSH4 0xFFFFFFFF AND MUL OR SWAP1 SSTORE POP PUSH1 0xC0 DUP3 ADD MLOAD DUP2 PUSH1 0x3 ADD PUSH1 0x8 PUSH2 0x100 EXP DUP2 SLOAD DUP2 PUSH4 0xFFFFFFFF MUL NOT AND SWAP1 DUP4 PUSH4 0xFFFFFFFF AND MUL OR SWAP1 SSTORE POP PUSH1 0xE0 DUP3 ADD MLOAD DUP2 PUSH1 0x3 ADD PUSH1 0xC PUSH2 0x100 EXP DUP2 SLOAD DUP2 PUSH1 0x1 PUSH1 0x1 PUSH1 0x60 SHL SUB MUL NOT AND SWAP1 DUP4 PUSH1 0x1 PUSH1 0x1 PUSH1 0x60 SHL SUB AND MUL OR SWAP1 SSTORE POP SWAP1 POP POP PUSH1 0x40 MLOAD DUP1 PUSH1 0xA0 ADD PUSH1 0x40 MSTORE DUP1 PUSH0 PUSH1 0x1 PUSH1 0x1 PUSH1 0xA0 SHL SUB AND DUP2 MSTORE PUSH1 0x20 ADD PUSH0 PUSH1 0x1 PUSH1 0x1 PUSH1 0x60 SHL SUB AND DUP2 MSTORE PUSH1 0x20 ADD PUSH0 DUP2 MSTORE PUSH1 0x20 ADD PUSH0 DUP2 MSTORE PUSH1 0x20 ADD PUSH0 PUSH1 0x1 PUSH1 0x1 PUSH1 0x60 SHL SUB AND DUP2 MSTORE POP PUSH1 0xC PUSH0 PUSH1 0xD SLOAD DUP2 MSTORE PUSH1 0x20 ADD SWAP1 DUP2 MSTORE PUSH1 0x20 ADD PUSH0 KECCAK256 PUSH0 DUP3 ADD MLOAD DUP2 PUSH0 ADD PUSH0 PUSH2 0x100 EXP DUP2 SLOAD DUP2 PUSH1 0x1 PUSH1 0x1 PUSH1 0xA0 SHL SUB MUL NOT AND SWAP1 DUP4 PUSH1 0x1 PUSH1 0x1 PUSH1 0xA0 SHL SUB AND MUL OR SWAP1 SSTORE POP PUSH1 0x20 DUP3 ADD MLOAD DUP2 PUSH0 ADD PUSH1 0x14 PUSH2 0x100 EXP DUP2 SLOAD DUP2 PUSH1 0x1 PUSH1 0x1 PUSH1 0x60 SHL SUB MUL NOT AND SWAP1 DUP4 PUSH1 0x1 PUSH1 0x1 PUSH1 0x60 SHL SUB AND MUL OR SWAP1 SSTORE POP PUSH1 0x40 DUP3 ADD MLOAD DUP2 PUSH1 0x1 ADD SSTORE PUSH1 0x60 DUP3 ADD MLOAD DUP2 PUSH1 0x2 ADD SSTORE PUSH1 0x80 DUP3 ADD MLOAD DUP2 PUSH1 0x3 ADD PUSH0 PUSH2 0x100 EXP DUP2 SLOAD DUP2 PUSH1 0x1 PUSH1 0x1 PUSH1 0x60 SHL SUB MUL NOT AND SWAP1 DUP4 PUSH1 0x1 PUSH1 0x1 PUSH1 0x60 SHL SUB AND MUL OR SWAP1 SSTORE POP SWAP1 POP POP PUSH2 0x1F68 CALLER SWAP1 JUMP JUMPDEST PUSH1 0xD SLOAD PUSH0 DUP2 DUP2 MSTORE PUSH1 0xB PUSH1 0x20 MSTORE PUSH1 0x40 SWAP1 DUP2 SWAP1 KECCAK256 DUP1 SLOAD PUSH1 0x1 DUP3 ADD SLOAD PUSH1 0x2 DUP4 ADD SLOAD PUSH1 0x3 SWAP1 SWAP4 ADD SLOAD SWAP4 MLOAD PUSH1 0x1 PUSH1 0x1 PUSH1 0xA0 SHL SUB SWAP7 DUP8 AND SWAP7 PUSH32 0x2F89D5518972EF9F2027AA908AE490B2BD691FBD59E127D7BADCDB6BF75551D6 SWAP6 PUSH2 0x2004 SWAP6 SWAP2 DUP3 AND SWAP3 PUSH1 0x1 PUSH1 0x1 PUSH1 0x60 SHL SUB PUSH1 0x1 PUSH1 0xA0 SHL SWAP1 SWAP4 DIV DUP4 AND SWAP3 PUSH4 0xFFFFFFFF DUP1 DUP5 AND SWAP4 PUSH1 0x1 PUSH1 0x20 SHL DUP2 DIV DUP3 AND SWAP4 PUSH1 0x1 PUSH1 0x40 SHL DUP3 DIV SWAP1 SWAP3 AND SWAP3 PUSH1 0x1 PUSH1 0x60 SHL SWAP1 SWAP2 DIV AND SWAP1 PUSH2 0x4C1B JUMP JUMPDEST PUSH1 0x40 MLOAD DUP1 SWAP2 SUB SWAP1 LOG3 PUSH1 0xD DUP1 SLOAD SWAP1 PUSH0 PUSH2 0x201B DUP4 PUSH2 0x4C70 JUMP JUMPDEST SWAP2 SWAP1 POP SSTORE SWAP1 POP PUSH2 0x202B PUSH1 0x1 PUSH1 0x6 SSTORE JUMP JUMPDEST SWAP5 SWAP4 POP POP POP POP JUMP JUMPDEST PUSH2 0x203B PUSH2 0x38E9 JUMP JUMPDEST PUSH1 0xA DUP1 SLOAD PUSH1 0x1 PUSH1 0x1 PUSH1 0xA0 SHL SUB NOT AND PUSH1 0x1 PUSH1 0x1 PUSH1 0xA0 SHL SUB DUP4 AND SWAP1 DUP2 OR SWAP1 SWAP2 SSTORE PUSH1 0x40 MLOAD SWAP1 DUP2 MSTORE PUSH32 0x88A686E0E341D9099F2F990C3AA759A86822142A67579064B43DED9354A25662 SWAP1 PUSH1 0x20 ADD PUSH2 0x1676 JUMP JUMPDEST PUSH2 0x2091 PUSH2 0x3635 JUMP JUMPDEST DUP2 PUSH0 DUP2 GT DUP1 ISZERO PUSH2 0x20A2 JUMPI POP PUSH1 0xD SLOAD DUP2 LT JUMPDEST PUSH2 0x20BE JUMPI PUSH1 0x40 MLOAD PUSH3 0x461BCD PUSH1 0xE5 SHL DUP2 MSTORE PUSH1 0x4 ADD PUSH2 0x969 SWAP1 PUSH2 0x48B4 JUMP JUMPDEST PUSH1 0x4 PUSH2 0x20C9 DUP5 PUSH2 0x103D JUMP JUMPDEST PUSH1 0x5 DUP2 GT ISZERO PUSH2 0x20DA JUMPI PUSH2 0x20DA PUSH2 0x4329 JUMP JUMPDEST EQ PUSH2 0x20F7 JUMPI PUSH1 0x40 MLOAD PUSH3 0x461BCD PUSH1 0xE5 SHL DUP2 MSTORE PUSH1 0x4 ADD PUSH2 0x969 SWAP1 PUSH2 0x4B01 JUMP JUMPDEST PUSH0 DUP4 DUP2 MSTORE PUSH1 0xC PUSH1 0x20 MSTORE PUSH1 0x40 SWAP1 KECCAK256 DUP1 SLOAD PUSH1 0x1 PUSH1 0x1 PUSH1 0xA0 SHL SUB AND CALLER EQ PUSH2 0x212D JUMPI PUSH1 0x40 MLOAD PUSH3 0x461BCD PUSH1 0xE5 SHL DUP2 MSTORE PUSH1 0x4 ADD PUSH2 0x969 SWAP1 PUSH2 0x48DE JUMP JUMPDEST DUP1 SLOAD PUSH2 0x2167 SWAP1 PUSH1 0x1 PUSH1 0x1 PUSH1 0xA0 SHL SUB PUSH32 0x0 DUP2 AND SWAP2 AND ADDRESS DUP7 PUSH2 0x36F1 JUMP JUMPDEST DUP3 DUP2 PUSH1 0x1 ADD PUSH0 DUP3 DUP3 SLOAD PUSH2 0x217A SWAP2 SWAP1 PUSH2 0x4B4A JUMP JUMPDEST SWAP1 SWAP2 SSTORE POP POP PUSH1 0x40 MLOAD DUP4 DUP2 MSTORE DUP5 SWAP1 PUSH32 0x8CC7F16CD883F4AF720102359F36F5A11402BA74BA5515E43B36EEA9EDDFF23C SWAP1 PUSH1 0x20 ADD PUSH1 0x40 MLOAD DUP1 SWAP2 SUB SWAP1 LOG2 PUSH2 0x21BD DUP5 PUSH2 0x378F JUMP JUMPDEST POP POP PUSH2 0x21C9 PUSH1 0x1 PUSH1 0x6 SSTORE JUMP JUMPDEST POP POP JUMP JUMPDEST PUSH2 0x21D5 PUSH2 0x3635 JUMP JUMPDEST DUP1 PUSH0 DUP2 GT DUP1 ISZERO PUSH2 0x21E6 JUMPI POP PUSH1 0xD SLOAD DUP2 LT JUMPDEST PUSH2 0x2202 JUMPI PUSH1 0x40 MLOAD PUSH3 0x461BCD PUSH1 0xE5 SHL DUP2 MSTORE PUSH1 0x4 ADD PUSH2 0x969 SWAP1 PUSH2 0x48B4 JUMP JUMPDEST PUSH0 DUP3 DUP2 MSTORE PUSH1 0xC PUSH1 0x20 MSTORE PUSH1 0x40 SWAP1 KECCAK256 DUP1 SLOAD PUSH1 0x1 PUSH1 0x1 PUSH1 0xA0 SHL SUB AND CALLER EQ PUSH2 0x2238 JUMPI PUSH1 0x40 MLOAD PUSH3 0x461BCD PUSH1 0xE5 SHL DUP2 MSTORE PUSH1 0x4 ADD PUSH2 0x969 SWAP1 PUSH2 0x48DE JUMP JUMPDEST DUP1 SLOAD PUSH1 0x1 PUSH1 0xA0 SHL SWAP1 DIV PUSH1 0x1 PUSH1 0x1 PUSH1 0x60 SHL SUB AND ISZERO DUP1 ISZERO PUSH2 0x225A JUMPI POP PUSH0 DUP2 PUSH1 0x1 ADD SLOAD GT JUMPDEST PUSH2 0x22A6 JUMPI PUSH1 0x40 MLOAD PUSH3 0x461BCD PUSH1 0xE5 SHL DUP2 MSTORE PUSH1 0x20 PUSH1 0x4 DUP3 ADD MSTORE PUSH1 0x1B PUSH1 0x24 DUP3 ADD MSTORE PUSH32 0x5032504C656E64696E673A43616E6E6F74205769746864726177210000000000 PUSH1 0x44 DUP3 ADD MSTORE PUSH1 0x64 ADD PUSH2 0x969 JUMP JUMPDEST PUSH1 0x1 PUSH2 0x22B1 DUP5 PUSH2 0x103D JUMP JUMPDEST PUSH1 0x5 DUP2 GT ISZERO PUSH2 0x22C2 JUMPI PUSH2 0x22C2 PUSH2 0x4329 JUMP JUMPDEST EQ DUP1 ISZERO PUSH2 0x22F1 JUMPI POP PUSH0 DUP4 DUP2 MSTORE PUSH1 0xB PUSH1 0x20 MSTORE PUSH1 0x40 SWAP1 KECCAK256 PUSH1 0x3 ADD SLOAD PUSH1 0x1 PUSH1 0x1 PUSH1 0x60 SHL SUB TIMESTAMP DUP2 AND PUSH1 0x1 PUSH1 0x60 SHL SWAP1 SWAP3 DIV AND LT JUMPDEST ISZERO PUSH2 0x233A JUMPI DUP1 SLOAD PUSH1 0x1 DUP3 ADD SLOAD PUSH2 0x2335 SWAP2 PUSH1 0x1 PUSH1 0x1 PUSH1 0xA0 SHL SUB PUSH32 0x0 DUP2 AND SWAP3 SWAP2 AND SWAP1 PUSH2 0x375E JUMP JUMPDEST PUSH2 0x23CF JUMP JUMPDEST PUSH0 PUSH2 0x2347 PUSH1 0x4 PUSH1 0xA PUSH2 0x4A42 JUMP JUMPDEST PUSH1 0x1 DUP4 ADD SLOAD PUSH1 0x9 SLOAD PUSH2 0x235F SWAP2 SWAP1 PUSH4 0xFFFFFFFF AND PUSH2 0x4948 JUMP JUMPDEST PUSH2 0x2369 SWAP2 SWAP1 PUSH2 0x4A50 JUMP JUMPDEST PUSH1 0x9 SLOAD SWAP1 SWAP2 POP PUSH2 0x23AD SWAP1 PUSH1 0x1 PUSH1 0x1 PUSH1 0xA0 SHL SUB PUSH32 0x0 DUP2 AND SWAP2 PUSH1 0x1 PUSH1 0x20 SHL SWAP1 DIV AND DUP4 PUSH2 0x375E JUMP JUMPDEST DUP2 SLOAD PUSH1 0x1 DUP4 ADD SLOAD PUSH2 0x23CD SWAP2 PUSH1 0x1 PUSH1 0x1 PUSH1 0xA0 SHL SUB AND SWAP1 PUSH2 0xC47 SWAP1 DUP5 SWAP1 PUSH2 0x4A6F JUMP JUMPDEST POP JUMPDEST PUSH0 PUSH1 0x1 DUP3 DUP2 ADD DUP3 SWAP1 SSTORE DUP5 DUP3 MSTORE PUSH1 0xB PUSH1 0x20 SWAP1 DUP2 MSTORE PUSH1 0x40 DUP1 DUP5 KECCAK256 SWAP1 SWAP3 ADD SLOAD PUSH1 0x4 SWAP1 SWAP2 MSTORE SWAP2 KECCAK256 SLOAD PUSH2 0x23FD SWAP2 SWAP1 PUSH2 0x4948 JUMP JUMPDEST PUSH1 0x2 DUP3 ADD SSTORE PUSH1 0x40 MLOAD DUP4 SWAP1 PUSH32 0xFC226BCC04F8F8905AF4229A5D361773B6BB568167898414274C713C6179E6CB SWAP1 PUSH0 SWAP1 LOG2 PUSH2 0x2435 DUP4 PUSH2 0x378F JUMP JUMPDEST POP POP PUSH2 0x18AF PUSH1 0x1 PUSH1 0x6 SSTORE JUMP JUMPDEST PUSH2 0x2449 PUSH2 0x3635 JUMP JUMPDEST DUP1 PUSH0 DUP2 GT DUP1 ISZERO PUSH2 0x245A JUMPI POP PUSH1 0xD SLOAD DUP2 LT JUMPDEST PUSH2 0x2476 JUMPI PUSH1 0x40 MLOAD PUSH3 0x461BCD PUSH1 0xE5 SHL DUP2 MSTORE PUSH1 0x4 ADD PUSH2 0x969 SWAP1 PUSH2 0x48B4 JUMP JUMPDEST PUSH1 0x5 PUSH2 0x2481 DUP4 PUSH2 0x103D JUMP JUMPDEST PUSH1 0x5 DUP2 GT ISZERO PUSH2 0x2492 JUMPI PUSH2 0x2492 PUSH2 0x4329 JUMP JUMPDEST EQ PUSH2 0x24F3 JUMPI PUSH1 0x40 MLOAD PUSH3 0x461BCD PUSH1 0xE5 SHL DUP2 MSTORE PUSH1 0x20 PUSH1 0x4 DUP3 ADD MSTORE PUSH1 0x2B PUSH1 0x24 DUP3 ADD MSTORE PUSH32 0x5032504C656E64696E673A4C6F616E537461747573206D75737420657175616C PUSH1 0x44 DUP3 ADD MSTORE PUSH11 0x732046494E495348454421 PUSH1 0xA8 SHL PUSH1 0x64 DUP3 ADD MSTORE PUSH1 0x84 ADD PUSH2 0x969 JUMP JUMPDEST PUSH0 PUSH2 0x24FE CALLER DUP5 PUSH2 0x8BB JUMP JUMPDEST SWAP1 POP PUSH0 DUP2 GT PUSH2 0x254F JUMPI PUSH1 0x40 MLOAD PUSH3 0x461BCD PUSH1 0xE5 SHL DUP2 MSTORE PUSH1 0x20 PUSH1 0x4 DUP3 ADD MSTORE PUSH1 0x1C PUSH1 0x24 DUP3 ADD MSTORE PUSH32 0x5032504C656E64696E673A4E6F7468696E6720746F20636C61696D2100000000 PUSH1 0x44 DUP3 ADD MSTORE PUSH1 0x64 ADD PUSH2 0x969 JUMP JUMPDEST PUSH0 DUP4 DUP2 MSTORE PUSH1 0xC PUSH1 0x20 SWAP1 DUP2 MSTORE PUSH1 0x40 DUP1 DUP4 KECCAK256 PUSH1 0x4 SWAP1 SWAP3 MSTORE DUP3 KECCAK256 SLOAD SWAP1 SWAP2 SWAP1 PUSH1 0x2 DUP4 ADD SLOAD PUSH2 0x2579 SWAP1 DUP6 PUSH2 0x4948 JUMP JUMPDEST PUSH2 0x2583 SWAP2 SWAP1 PUSH2 0x4A50 JUMP JUMPDEST SWAP1 POP DUP1 DUP3 PUSH1 0x2 ADD PUSH0 DUP3 DUP3 SLOAD PUSH2 0x2598 SWAP2 SWAP1 PUSH2 0x4A6F JUMP JUMPDEST SWAP1 SWAP2 SSTORE POP PUSH2 0x25A9 SWAP1 POP CALLER DUP7 DUP6 PUSH2 0x3915 JUMP JUMPDEST PUSH2 0x25DD PUSH32 0x0 PUSH1 0x1 PUSH1 0x1 PUSH1 0xA0 SHL SUB AND CALLER DUP4 PUSH2 0x375E JUMP JUMPDEST PUSH1 0x40 DUP1 MLOAD DUP5 DUP2 MSTORE PUSH1 0x20 DUP2 ADD DUP4 SWAP1 MSTORE CALLER SWAP2 DUP8 SWAP2 PUSH32 0xFCDAABBCAC647C42F2FBF34F6C5A49EE8A8CD0B64EF5EB50B25441BDB133DDF2 SWAP2 ADD PUSH1 0x40 MLOAD DUP1 SWAP2 SUB SWAP1 LOG3 PUSH2 0x2623 DUP6 PUSH2 0x378F JUMP JUMPDEST POP POP POP POP PUSH2 0x18AF PUSH1 0x1 PUSH1 0x6 SSTORE JUMP JUMPDEST PUSH2 0x2639 PUSH2 0x38E9 JUMP JUMPDEST PUSH2 0x2642 PUSH0 PUSH2 0x397B JUMP JUMPDEST JUMP JUMPDEST PUSH0 PUSH2 0x264D PUSH2 0x3635 JUMP JUMPDEST PUSH1 0x8 SLOAD PUSH4 0xFFFFFFFF AND DUP10 LT DUP1 ISZERO SWAP1 PUSH2 0x2678 JUMPI POP PUSH1 0x8 SLOAD PUSH4 0xFFFFFFFF PUSH1 0x1 PUSH1 0xC0 SHL SWAP1 SWAP2 DIV DUP2 AND SWAP1 DUP9 AND LT ISZERO JUMPDEST DUP1 ISZERO PUSH2 0x2697 JUMPI POP PUSH1 0x8 SLOAD PUSH4 0xFFFFFFFF PUSH1 0x1 PUSH1 0x20 SHL SWAP1 SWAP2 DIV DUP2 AND SWAP1 DUP8 AND LT ISZERO JUMPDEST DUP1 ISZERO PUSH2 0x26B6 JUMPI POP PUSH1 0x8 SLOAD PUSH4 0xFFFFFFFF PUSH1 0x1 PUSH1 0x40 SHL SWAP1 SWAP2 DIV DUP2 AND SWAP1 DUP8 AND GT ISZERO JUMPDEST DUP1 ISZERO PUSH2 0x26D5 JUMPI POP PUSH1 0x8 SLOAD PUSH4 0xFFFFFFFF PUSH1 0x1 PUSH1 0x80 SHL SWAP1 SWAP2 DIV DUP2 AND SWAP1 DUP7 AND LT ISZERO JUMPDEST DUP1 ISZERO PUSH2 0x26F4 JUMPI POP PUSH1 0x8 SLOAD PUSH4 0xFFFFFFFF PUSH1 0x1 PUSH1 0xA0 SHL SWAP1 SWAP2 DIV DUP2 AND SWAP1 DUP7 AND GT ISZERO JUMPDEST DUP1 ISZERO PUSH2 0x2713 JUMPI POP PUSH1 0x8 SLOAD PUSH4 0xFFFFFFFF PUSH1 0x1 PUSH1 0x60 SHL SWAP1 SWAP2 DIV DUP2 AND SWAP1 DUP6 AND LT ISZERO JUMPDEST PUSH2 0x275F JUMPI PUSH1 0x40 MLOAD PUSH3 0x461BCD PUSH1 0xE5 SHL DUP2 MSTORE PUSH1 0x20 PUSH1 0x4 DUP3 ADD MSTORE PUSH1 0x1D PUSH1 0x24 DUP3 ADD MSTORE PUSH32 0x5032504C656E64696E673A496E76616C696420617267756D656E747321000000 PUSH1 0x44 DUP3 ADD MSTORE PUSH1 0x64 ADD PUSH2 0x969 JUMP JUMPDEST PUSH0 DUP10 PUSH1 0x7 SLOAD PUSH2 0x276E SWAP2 SWAP1 PUSH2 0x4948 JUMP JUMPDEST SWAP1 POP PUSH0 PUSH2 0x277D PUSH1 0x4 PUSH1 0xA PUSH2 0x4A42 JUMP JUMPDEST PUSH1 0xA SLOAD PUSH2 0x2796 SWAP1 DUP5 SWAP1 PUSH1 0x1 PUSH1 0x1 PUSH1 0xA0 SHL SUB AND DUP9 DUP9 PUSH2 0x365F JUMP JUMPDEST PUSH2 0x27A6 SWAP1 PUSH4 0xFFFFFFFF DUP13 AND PUSH2 0x4948 JUMP JUMPDEST PUSH2 0x27B0 SWAP2 SWAP1 PUSH2 0x4A50 JUMP JUMPDEST SWAP1 POP DUP1 DUP11 LT ISZERO DUP1 ISZERO PUSH2 0x27C1 JUMPI POP PUSH0 DUP2 GT JUMPDEST PUSH2 0x27DD JUMPI PUSH1 0x40 MLOAD PUSH3 0x461BCD PUSH1 0xE5 SHL DUP2 MSTORE PUSH1 0x4 ADD PUSH2 0x969 SWAP1 PUSH2 0x4A82 JUMP JUMPDEST PUSH2 0x2812 PUSH32 0x0 PUSH1 0x1 PUSH1 0x1 PUSH1 0xA0 SHL SUB AND CALLER ADDRESS DUP5 PUSH2 0x36F1 JUMP JUMPDEST PUSH1 0x40 DUP1 MLOAD PUSH2 0x100 DUP2 ADD DUP3 MSTORE DUP13 DUP2 MSTORE PUSH1 0x7 SLOAD PUSH1 0x20 DUP3 ADD MSTORE PUSH1 0xA SLOAD PUSH1 0x1 PUSH1 0x1 PUSH1 0xA0 SHL SUB AND SWAP2 DUP2 ADD SWAP2 SWAP1 SWAP2 MSTORE PUSH1 0x60 DUP2 ADD PUSH2 0x284C DUP11 PUSH3 0x15180 PUSH2 0x4BFC JUMP JUMPDEST PUSH4 0xFFFFFFFF SWAP1 DUP2 AND DUP3 MSTORE DUP10 DUP2 AND PUSH1 0x20 DUP4 ADD MSTORE DUP12 DUP2 AND PUSH1 0x40 DUP4 ADD MSTORE PUSH1 0x8 SLOAD PUSH1 0x1 PUSH1 0xE0 SHL SWAP1 DIV AND PUSH1 0x60 DUP3 ADD MSTORE PUSH1 0x80 ADD PUSH2 0x2886 DUP9 PUSH3 0x15180 PUSH2 0x4BFC JUMP JUMPDEST PUSH2 0x2896 SWAP1 PUSH4 0xFFFFFFFF AND TIMESTAMP PUSH2 0x4929 JUMP JUMPDEST PUSH1 0x1 PUSH1 0x1 PUSH1 0x60 SHL SUB SWAP1 DUP2 AND SWAP1 SWAP2 MSTORE PUSH1 0xD SLOAD PUSH0 SWAP1 DUP2 MSTORE PUSH1 0xB PUSH1 0x20 SWAP1 DUP2 MSTORE PUSH1 0x40 SWAP2 DUP3 SWAP1 KECCAK256 DUP5 MLOAD DUP2 SSTORE SWAP1 DUP5 ADD MLOAD PUSH1 0x1 DUP3 ADD SSTORE DUP4 DUP3 ADD MLOAD PUSH1 0x60 DUP6 ADD MLOAD DUP5 AND PUSH1 0x1 PUSH1 0xA0 SHL MUL PUSH1 0x1 PUSH1 0x1 PUSH1 0xA0 SHL SUB SWAP1 SWAP2 AND OR PUSH1 0x2 DUP3 ADD SSTORE PUSH1 0x80 DUP5 ADD MLOAD PUSH1 0x3 SWAP1 SWAP2 ADD DUP1 SLOAD PUSH1 0xA0 DUP1 DUP8 ADD MLOAD PUSH1 0xC0 DUP9 ADD MLOAD PUSH1 0xE0 SWAP1 SWAP9 ADD MLOAD SWAP1 SWAP7 AND PUSH1 0x1 PUSH1 0x60 SHL MUL PUSH12 0xFFFFFFFFFFFFFFFFFFFFFFFF PUSH1 0x60 SHL NOT PUSH4 0xFFFFFFFF SWAP9 DUP10 AND PUSH1 0x1 PUSH1 0x40 SHL MUL AND PUSH24 0xFFFFFFFFFFFFFFFFFFFFFFFFFFFFFFFF0000000000000000 NOT SWAP8 DUP10 AND PUSH1 0x1 PUSH1 0x20 SHL MUL PUSH8 0xFFFFFFFFFFFFFFFF NOT SWAP1 SWAP5 AND SWAP9 SWAP1 SWAP6 AND SWAP8 SWAP1 SWAP8 OR SWAP2 SWAP1 SWAP2 OR SWAP5 SWAP1 SWAP5 AND SWAP2 SWAP1 SWAP2 OR SWAP4 SWAP1 SWAP4 OR SWAP1 SWAP3 SSTORE DUP2 MLOAD SWAP1 DUP2 ADD SWAP1 SWAP2 MSTORE DUP1 PUSH2 0x2988 CALLER SWAP1 JUMP JUMPDEST PUSH1 0x1 PUSH1 0x1 PUSH1 0xA0 SHL SUB SWAP1 DUP2 AND DUP3 MSTORE PUSH0 PUSH1 0x20 DUP1 DUP5 ADD DUP3 SWAP1 MSTORE PUSH1 0x40 DUP1 DUP6 ADD DUP8 SWAP1 MSTORE PUSH1 0x60 DUP1 DUP7 ADD DUP5 SWAP1 MSTORE PUSH1 0x80 SWAP6 DUP7 ADD DUP5 SWAP1 MSTORE PUSH1 0xD DUP1 SLOAD DUP6 MSTORE PUSH1 0xC DUP5 MSTORE DUP3 DUP6 KECCAK256 DUP9 MLOAD DUP10 DUP7 ADD MLOAD SWAP1 DUP9 AND PUSH1 0x1 PUSH1 0xA0 SHL PUSH1 0x1 PUSH1 0x1 PUSH1 0x60 SHL SUB SWAP3 DUP4 AND DUP2 MUL SWAP2 SWAP1 SWAP2 OR DUP4 SSTORE DUP11 DUP7 ADD MLOAD PUSH1 0x1 DUP1 DUP6 ADD SWAP2 SWAP1 SWAP2 SSTORE SWAP5 DUP12 ADD MLOAD PUSH1 0x2 DUP1 DUP6 ADD SWAP2 SWAP1 SWAP2 SSTORE SWAP11 SWAP1 SWAP10 ADD MLOAD PUSH1 0x3 SWAP3 DUP4 ADD DUP1 SLOAD PUSH1 0x1 PUSH1 0x1 PUSH1 0x60 SHL SUB NOT AND SWAP2 DUP4 AND SWAP2 SWAP1 SWAP2 OR SWAP1 SSTORE SWAP2 SLOAD DUP1 DUP8 MSTORE PUSH1 0xB SWAP1 SWAP6 MSTORE SWAP5 DUP4 SWAP1 KECCAK256 DUP1 SLOAD SWAP3 DUP2 ADD SLOAD SWAP9 DUP2 ADD SLOAD SWAP6 ADD SLOAD SWAP3 MLOAD SWAP4 SWAP8 PUSH32 0xE0B5C9EC62AADE94CA24B2AC9D81B2037BE7D64CB9E5730FCC727BB885EE6037 SWAP8 PUSH2 0x2A9C SWAP8 SWAP4 SWAP7 SWAP2 SWAP6 SWAP4 DUP3 AND SWAP5 SWAP2 DIV DUP3 AND SWAP3 PUSH4 0xFFFFFFFF DUP1 DUP4 AND SWAP4 PUSH1 0x1 PUSH1 0x20 SHL DUP5 DIV DUP3 AND SWAP4 PUSH1 0x1 PUSH1 0x40 SHL DUP2 DIV SWAP1 SWAP3 AND SWAP3 PUSH1 0x1 PUSH1 0x60 SHL SWAP1 SWAP3 DIV AND SWAP1 PUSH2 0x4C1B JUMP JUMPDEST PUSH1 0x40 MLOAD DUP1 SWAP2 SUB SWAP1 LOG2 PUSH2 0x2AAF PUSH1 0xD SLOAD PUSH2 0x378F JUMP JUMPDEST PUSH1 0xD DUP1 SLOAD SWAP1 PUSH0 PUSH2 0x2ABE DUP4 PUSH2 0x4C70 JUMP JUMPDEST SWAP2 SWAP1 POP SSTORE SWAP3 POP POP POP PUSH2 0x2AD0 PUSH1 0x1 PUSH1 0x6 SSTORE JUMP JUMPDEST SWAP9 SWAP8 POP POP POP POP POP POP POP POP JUMP JUMPDEST PUSH2 0x2AE4 PUSH2 0x3635 JUMP JUMPDEST DUP2 PUSH0 DUP2 GT DUP1 ISZERO PUSH2 0x2AF5 JUMPI POP PUSH1 0xD SLOAD DUP2 LT JUMPDEST PUSH2 0x2B11 JUMPI PUSH1 0x40 MLOAD PUSH3 0x461BCD PUSH1 0xE5 SHL DUP2 MSTORE PUSH1 0x4 ADD PUSH2 0x969 SWAP1 PUSH2 0x48B4 JUMP JUMPDEST PUSH0 DUP3 GT PUSH2 0x2B73 JUMPI PUSH1 0x40 MLOAD PUSH3 0x461BCD PUSH1 0xE5 SHL DUP2 MSTORE PUSH1 0x20 PUSH1 0x4 DUP3 ADD MSTORE PUSH1 0x2A PUSH1 0x24 DUP3 ADD MSTORE PUSH32 0x5032504C656E64696E673A6C6F7473206D757374206265206772656174657220 PUSH1 0x44 DUP3 ADD MSTORE PUSH10 0x7468616E207A65726F21 PUSH1 0xB0 SHL PUSH1 0x64 DUP3 ADD MSTORE PUSH1 0x84 ADD PUSH2 0x969 JUMP JUMPDEST PUSH0 PUSH2 0x2B7D DUP5 PUSH2 0x103D JUMP JUMPDEST PUSH0 DUP6 DUP2 MSTORE PUSH1 0xC PUSH1 0x20 MSTORE PUSH1 0x40 SWAP1 KECCAK256 SLOAD SWAP1 SWAP2 POP PUSH1 0x1 PUSH1 0x1 PUSH1 0xA0 SHL SUB AND ISZERO DUP1 PUSH2 0x2BB4 JUMPI POP PUSH1 0x3 DUP2 PUSH1 0x5 DUP2 GT ISZERO PUSH2 0x2BB2 JUMPI PUSH2 0x2BB2 PUSH2 0x4329 JUMP JUMPDEST EQ JUMPDEST DUP1 PUSH2 0x2C01 JUMPI POP PUSH1 0x1 DUP2 PUSH1 0x5 DUP2 GT ISZERO PUSH2 0x2BCE JUMPI PUSH2 0x2BCE PUSH2 0x4329 JUMP JUMPDEST EQ DUP1 ISZERO PUSH2 0x2C01 JUMPI POP CALLER PUSH0 SWAP1 DUP2 MSTORE PUSH1 0xE PUSH1 0x20 SWAP1 DUP2 MSTORE PUSH1 0x40 DUP1 DUP4 KECCAK256 DUP8 DUP5 MSTORE SWAP1 SWAP2 MSTORE SWAP1 KECCAK256 SLOAD PUSH1 0x1 PUSH1 0x1 PUSH1 0x60 SHL SUB SWAP1 DUP2 AND TIMESTAMP SWAP1 SWAP2 AND GT JUMPDEST PUSH2 0x2C4D JUMPI PUSH1 0x40 MLOAD PUSH3 0x461BCD PUSH1 0xE5 SHL DUP2 MSTORE PUSH1 0x20 PUSH1 0x4 DUP3 ADD MSTORE PUSH1 0x1B PUSH1 0x24 DUP3 ADD MSTORE PUSH32 0x5032504C656E64696E673A43616E6E6F74207769746864726177210000000000 PUSH1 0x44 DUP3 ADD MSTORE PUSH1 0x64 ADD PUSH2 0x969 JUMP JUMPDEST PUSH2 0x2C58 CALLER DUP6 DUP6 PUSH2 0x3915 JUMP JUMPDEST PUSH0 DUP5 DUP2 MSTORE PUSH1 0xC PUSH1 0x20 MSTORE PUSH1 0x40 SWAP1 KECCAK256 SLOAD PUSH1 0x1 PUSH1 0x1 PUSH1 0xA0 SHL SUB AND PUSH2 0x2CF5 JUMPI PUSH0 DUP5 DUP2 MSTORE PUSH1 0x4 PUSH1 0x20 MSTORE PUSH1 0x40 SWAP1 KECCAK256 SLOAD DUP1 ISZERO DUP1 PUSH2 0x2C96 JUMPI POP PUSH1 0x8 SLOAD PUSH4 0xFFFFFFFF AND DUP2 LT ISZERO JUMPDEST PUSH2 0x2CF3 JUMPI PUSH1 0x40 MLOAD PUSH3 0x461BCD PUSH1 0xE5 SHL DUP2 MSTORE PUSH1 0x20 PUSH1 0x4 DUP3 ADD MSTORE PUSH1 0x28 PUSH1 0x24 DUP3 ADD MSTORE PUSH32 0x5032504C656E64696E673A537570706C792062656C6F77204D494E5F4C4F5453 PUSH1 0x44 DUP3 ADD MSTORE PUSH8 0x5F414D4F554E5421 PUSH1 0xC0 SHL PUSH1 0x64 DUP3 ADD MSTORE PUSH1 0x84 ADD PUSH2 0x969 JUMP JUMPDEST POP JUMPDEST PUSH2 0x2D15 CALLER PUSH0 DUP7 DUP2 MSTORE PUSH1 0xB PUSH1 0x20 MSTORE PUSH1 0x40 SWAP1 KECCAK256 PUSH1 0x1 ADD SLOAD PUSH2 0xD8A SWAP1 DUP7 SWAP1 PUSH2 0x4948 JUMP JUMPDEST PUSH1 0x40 MLOAD DUP4 DUP2 MSTORE CALLER SWAP1 DUP6 SWAP1 PUSH32 0xBF8FB3D353686A0832043307D6F9BB618DF238D387C7DBC9D0FA2FC7B7CBA726 SWAP1 PUSH1 0x20 ADD PUSH1 0x40 MLOAD DUP1 SWAP2 SUB SWAP1 LOG3 POP POP PUSH2 0x21C9 PUSH1 0x1 PUSH1 0x6 SSTORE JUMP JUMPDEST PUSH2 0x2D60 PUSH2 0x38E9 JUMP JUMPDEST PUSH1 0x8 DUP1 SLOAD PUSH4 0xFFFFFFFF PUSH1 0xC0 SHL NOT AND PUSH1 0x1 PUSH1 0xC0 SHL PUSH4 0xFFFFFFFF DUP5 DUP2 AND DUP3 MUL SWAP3 SWAP1 SWAP3 OR SWAP3 DUP4 SWAP1 SSTORE PUSH1 0x40 MLOAD SWAP3 DIV AND DUP2 MSTORE PUSH32 0xE03AA8E619C2EFC3DCDA53A6319B90BD43E44772026248FFAABC2A1535BBA8E5 SWAP1 PUSH1 0x20 ADD PUSH2 0x1676 JUMP JUMPDEST PUSH2 0x21C9 CALLER DUP4 DUP4 PUSH2 0x39CA JUMP JUMPDEST PUSH2 0x2DCA PUSH2 0x38E9 JUMP JUMPDEST PUSH1 0x8 DUP1 SLOAD PUSH4 0xFFFFFFFF PUSH1 0x80 SHL NOT AND PUSH1 0x1 PUSH1 0x80 SHL PUSH4 0xFFFFFFFF DUP5 DUP2 AND DUP3 MUL SWAP3 SWAP1 SWAP3 OR SWAP3 DUP4 SWAP1 SSTORE PUSH1 0x40 MLOAD SWAP3 DIV AND DUP2 MSTORE PUSH32 0x2519FD4CF837FEFB87387523F27D23369EA51186F29F745CC4677E7C319B3EC0 SWAP1 PUSH1 0x20 ADD PUSH2 0x1676 JUMP JUMPDEST PUSH0 PUSH0 DUP5 GT DUP1 ISZERO PUSH2 0x2E32 JUMPI POP PUSH1 0xD SLOAD DUP5 LT JUMPDEST ISZERO DUP1 PUSH2 0x2E58 JUMPI POP PUSH1 0x4 PUSH2 0x2E44 DUP6 PUSH2 0x103D JUMP JUMPDEST PUSH1 0x5 DUP2 GT ISZERO PUSH2 0x2E55 JUMPI PUSH2 0x2E55 PUSH2 0x4329 JUMP JUMPDEST EQ ISZERO JUMPDEST DUP1 PUSH2 0x2F84 JUMPI POP PUSH0 DUP5 DUP2 MSTORE PUSH1 0xC PUSH1 0x20 MSTORE PUSH1 0x40 SWAP1 KECCAK256 SLOAD PUSH1 0x1 PUSH1 0x1 PUSH1 0x60 SHL SUB TIMESTAMP DUP2 AND PUSH1 0x1 PUSH1 0xA0 SHL SWAP1 SWAP3 DIV AND LT DUP1 PUSH2 0x2F82 JUMPI POP PUSH0 DUP5 DUP2 MSTORE PUSH1 0xB PUSH1 0x20 SWAP1 DUP2 MSTORE PUSH1 0x40 DUP1 DUP4 KECCAK256 PUSH1 0x3 DUP2 ADD SLOAD PUSH1 0x2 SWAP1 SWAP2 ADD SLOAD PUSH1 0xC SWAP1 SWAP4 MSTORE SWAP3 KECCAK256 PUSH1 0x1 ADD SLOAD PUSH1 0x1 PUSH1 0x40 SHL SWAP1 SWAP3 DIV PUSH4 0xFFFFFFFF AND SWAP2 PUSH1 0x1 PUSH1 0x1 PUSH1 0xA0 SHL SUB SWAP1 SWAP2 AND SWAP1 PUSH4 0x4BBF415C SWAP1 PUSH32 0x0 SWAP1 PUSH1 0x4 SWAP1 PUSH32 0x0 PUSH2 0x2F1D DUP12 PUSH2 0x3047 JUMP JUMPDEST DUP11 DUP11 PUSH1 0x40 MLOAD DUP9 PUSH4 0xFFFFFFFF AND PUSH1 0xE0 SHL DUP2 MSTORE PUSH1 0x4 ADD PUSH2 0x2F41 SWAP8 SWAP7 SWAP6 SWAP5 SWAP4 SWAP3 SWAP2 SWAP1 PUSH2 0x4B85 JUMP JUMPDEST PUSH1 0x20 PUSH1 0x40 MLOAD DUP1 DUP4 SUB DUP2 DUP7 GAS STATICCALL ISZERO DUP1 ISZERO PUSH2 0x2F5C JUMPI RETURNDATASIZE PUSH0 PUSH0 RETURNDATACOPY RETURNDATASIZE PUSH0 REVERT JUMPDEST POP POP POP POP PUSH1 0x40 MLOAD RETURNDATASIZE PUSH1 0x1F NOT PUSH1 0x1F DUP3 ADD AND DUP3 ADD DUP1 PUSH1 0x40 MSTORE POP DUP2 ADD SWAP1 PUSH2 0x2F80 SWAP2 SWAP1 PUSH2 0x4BD1 JUMP JUMPDEST LT JUMPDEST ISZERO JUMPDEST ISZERO PUSH2 0x2F90 JUMPI POP PUSH0 PUSH2 0x1509 JUMP JUMPDEST POP PUSH1 0x1 PUSH2 0x1509 JUMP JUMPDEST PUSH2 0x2FA0 PUSH2 0x38E9 JUMP JUMPDEST PUSH1 0x9 DUP1 SLOAD PUSH4 0xFFFFFFFF NOT AND PUSH4 0xFFFFFFFF DUP4 AND SWAP1 DUP2 OR SWAP1 SWAP2 SSTORE PUSH1 0x40 MLOAD SWAP1 DUP2 MSTORE PUSH32 0x7F6F57FED03F08A846D1DD7051E9D858E85408182510EC902F0D921307910284 SWAP1 PUSH1 0x20 ADD PUSH2 0x1676 JUMP JUMPDEST PUSH2 0x2FF0 PUSH2 0x38E9 JUMP JUMPDEST PUSH1 0x8 DUP1 SLOAD PUSH4 0xFFFFFFFF PUSH1 0x60 SHL NOT AND PUSH1 0x1 PUSH1 0x60 SHL PUSH4 0xFFFFFFFF DUP5 DUP2 AND DUP3 MUL SWAP3 SWAP1 SWAP3 OR SWAP3 DUP4 SWAP1 SSTORE PUSH1 0x40 MLOAD SWAP3 DIV AND DUP2 MSTORE PUSH32 0x62B518624E16DADCA83B89E62D9F351D869E67A350D856935F3A3083AA4CF948 SWAP1 PUSH1 0x20 ADD PUSH2 0x1676 JUMP JUMPDEST PUSH0 DUP2 DUP2 MSTORE PUSH1 0xC PUSH1 0x20 MSTORE PUSH1 0x40 DUP2 KECCAK256 DUP1 SLOAD PUSH1 0x1 PUSH1 0xA0 SHL SWAP1 DIV PUSH1 0x1 PUSH1 0x1 PUSH1 0x60 SHL SUB AND ISZERO DUP1 PUSH2 0x3074 JUMPI POP PUSH1 0x1 DUP2 ADD SLOAD ISZERO JUMPDEST ISZERO PUSH2 0x3081 JUMPI POP PUSH0 SWAP3 SWAP2 POP POP JUMP JUMPDEST PUSH0 DUP4 DUP2 MSTORE PUSH1 0xB PUSH1 0x20 SWAP1 DUP2 MSTORE PUSH1 0x40 DUP1 DUP4 KECCAK256 PUSH1 0x1 DUP2 ADD SLOAD PUSH1 0x4 SWAP1 SWAP4 MSTORE SWAP1 DUP4 KECCAK256 SLOAD SWAP1 SWAP3 SWAP2 PUSH2 0x30AB SWAP2 PUSH2 0x4948 JUMP JUMPDEST DUP4 SLOAD SWAP1 SWAP2 POP PUSH0 SWAP1 PUSH1 0x1 PUSH1 0x1 PUSH1 0x60 SHL SUB TIMESTAMP DUP2 AND PUSH1 0x1 PUSH1 0xA0 SHL SWAP1 SWAP3 DIV AND GT PUSH2 0x30F1 JUMPI PUSH1 0x2 DUP4 ADD SLOAD PUSH2 0x30EC SWAP1 PUSH1 0x1 SWAP1 PUSH1 0x1 PUSH1 0xA0 SHL SWAP1 DIV PUSH1 0x1 PUSH1 0x1 PUSH1 0x60 SHL SUB AND PUSH2 0x4C88 JUMP JUMPDEST PUSH2 0x3124 JUMP JUMPDEST PUSH1 0x2 DUP4 ADD SLOAD DUP5 SLOAD PUSH2 0x311A SWAP2 PUSH1 0x1 PUSH1 0x1 PUSH1 0x60 SHL SUB PUSH1 0x1 PUSH1 0xA0 SHL SWAP2 DUP3 SWAP1 DIV DUP2 AND SWAP3 SWAP2 SWAP1 SWAP2 DIV AND PUSH2 0x4C88 JUMP JUMPDEST PUSH2 0x3124 SWAP1 TIMESTAMP PUSH2 0x4C88 JUMP JUMPDEST PUSH1 0x1 PUSH1 0x1 PUSH1 0x60 SHL SUB AND SWAP1 POP PUSH2 0x313C PUSH3 0x15180 DUP3 PUSH2 0x4A50 JUMP JUMPDEST PUSH2 0x3147 SWAP1 PUSH1 0x1 PUSH2 0x4B4A JUMP JUMPDEST PUSH2 0x3154 SWAP1 PUSH3 0x15180 PUSH2 0x4948 JUMP JUMPDEST SWAP1 POP PUSH4 0x1E13380 PUSH2 0x3167 PUSH1 0x4 PUSH1 0xA PUSH2 0x4A42 JUMP JUMPDEST PUSH1 0x3 DUP6 ADD SLOAD DUP5 SWAP1 PUSH2 0x317E SWAP1 PUSH4 0xFFFFFFFF AND DUP6 PUSH2 0x4948 JUMP JUMPDEST PUSH2 0x3188 SWAP2 SWAP1 PUSH2 0x4948 JUMP JUMPDEST PUSH2 0x3192 SWAP2 SWAP1 PUSH2 0x4A50 JUMP JUMPDEST PUSH2 0x319C SWAP2 SWAP1 PUSH2 0x4A50 JUMP JUMPDEST PUSH2 0x31A6 SWAP1 DUP4 PUSH2 0x4B4A JUMP JUMPDEST SWAP7 SWAP6 POP POP POP POP POP POP JUMP JUMPDEST PUSH2 0x31B8 PUSH2 0x3635 JUMP JUMPDEST DUP3 PUSH0 DUP2 GT DUP1 ISZERO PUSH2 0x31C9 JUMPI POP PUSH1 0xD SLOAD DUP2 LT JUMPDEST PUSH2 0x31E5 JUMPI PUSH1 0x40 MLOAD PUSH3 0x461BCD PUSH1 0xE5 SHL DUP2 MSTORE PUSH1 0x4 ADD PUSH2 0x969 SWAP1 PUSH2 0x48B4 JUMP JUMPDEST PUSH1 0x4 PUSH2 0x31F0 DUP6 PUSH2 0x103D JUMP JUMPDEST PUSH1 0x5 DUP2 GT ISZERO PUSH2 0x3201 JUMPI PUSH2 0x3201 PUSH2 0x4329 JUMP JUMPDEST EQ PUSH2 0x321E JUMPI PUSH1 0x40 MLOAD PUSH3 0x461BCD PUSH1 0xE5 SHL DUP2 MSTORE PUSH1 0x4 ADD PUSH2 0x969 SWAP1 PUSH2 0x4B01 JUMP JUMPDEST PUSH0 DUP5 DUP2 MSTORE PUSH1 0xB PUSH1 0x20 SWAP1 DUP2 MSTORE PUSH1 0x40 DUP1 DUP4 KECCAK256 PUSH1 0xC SWAP1 SWAP3 MSTORE SWAP1 SWAP2 KECCAK256 DUP1 SLOAD PUSH1 0x1 PUSH1 0x1 PUSH1 0x60 SHL SUB TIMESTAMP DUP2 AND PUSH1 0x1 PUSH1 0xA0 SHL SWAP1 SWAP3 DIV AND LT DUP1 PUSH2 0x3338 JUMPI POP PUSH1 0x3 DUP3 ADD SLOAD PUSH1 0x2 DUP4 ADD SLOAD PUSH1 0x1 DUP4 ADD SLOAD PUSH1 0x1 PUSH1 0x40 SHL SWAP1 SWAP3 DIV PUSH4 0xFFFFFFFF AND SWAP2 PUSH1 0x1 PUSH1 0x1 PUSH1 0xA0 SHL SUB SWAP1 SWAP2 AND SWAP1 PUSH4 0xB4E37CF9 SWAP1 PUSH32 0x0 SWAP1 PUSH1 0x4 SWAP1 PUSH32 0x0 PUSH2 0x32D2 DUP14 PUSH2 0x3047 JUMP JUMPDEST DUP13 DUP13 PUSH1 0x40 MLOAD DUP9 PUSH4 0xFFFFFFFF AND PUSH1 0xE0 SHL DUP2 MSTORE PUSH1 0x4 ADD PUSH2 0x32F6 SWAP8 SWAP7 SWAP6 SWAP5 SWAP4 SWAP3 SWAP2 SWAP1 PUSH2 0x4B85 JUMP JUMPDEST PUSH1 0x20 PUSH1 0x40 MLOAD DUP1 DUP4 SUB DUP2 PUSH0 DUP8 GAS CALL ISZERO DUP1 ISZERO PUSH2 0x3312 JUMPI RETURNDATASIZE PUSH0 PUSH0 RETURNDATACOPY RETURNDATASIZE PUSH0 REVERT JUMPDEST POP POP POP POP PUSH1 0x40 MLOAD RETURNDATASIZE PUSH1 0x1F NOT PUSH1 0x1F DUP3 ADD AND DUP3 ADD DUP1 PUSH1 0x40 MSTORE POP DUP2 ADD SWAP1 PUSH2 0x3336 SWAP2 SWAP1 PUSH2 0x4BD1 JUMP JUMPDEST LT JUMPDEST PUSH2 0x3384 JUMPI PUSH1 0x40 MLOAD PUSH3 0x461BCD PUSH1 0xE5 SHL DUP2 MSTORE PUSH1 0x20 PUSH1 0x4 DUP3 ADD MSTORE PUSH1 0x1C PUSH1 0x24 DUP3 ADD MSTORE PUSH32 0x5032504C656E64696E673A43616E6E6F74204C69717569646174652100000000 PUSH1 0x44 DUP3 ADD MSTORE PUSH1 0x64 ADD PUSH2 0x969 JUMP JUMPDEST PUSH0 PUSH2 0x338F CALLER DUP9 PUSH2 0x8BB JUMP JUMPDEST SWAP1 POP PUSH0 DUP2 GT PUSH2 0x33E0 JUMPI PUSH1 0x40 MLOAD PUSH3 0x461BCD PUSH1 0xE5 SHL DUP2 MSTORE PUSH1 0x20 PUSH1 0x4 DUP3 ADD MSTORE PUSH1 0x1C PUSH1 0x24 DUP3 ADD MSTORE PUSH32 0x5032504C656E64696E673A4E6F7468696E6720746F20636C61696D2100000000 PUSH1 0x44 DUP3 ADD MSTORE PUSH1 0x64 ADD PUSH2 0x969 JUMP JUMPDEST PUSH0 DUP8 DUP2 MSTORE PUSH1 0x4 PUSH1 0x20 MSTORE PUSH1 0x40 DUP2 KECCAK256 SLOAD PUSH1 0x1 DUP5 ADD SLOAD PUSH2 0x33FD SWAP1 DUP5 PUSH2 0x4948 JUMP JUMPDEST PUSH2 0x3407 SWAP2 SWAP1 PUSH2 0x4A50 JUMP JUMPDEST SWAP1 POP DUP1 DUP4 PUSH1 0x1 ADD PUSH0 DUP3 DUP3 SLOAD PUSH2 0x341C SWAP2 SWAP1 PUSH2 0x4A6F JUMP JUMPDEST SWAP1 SWAP2 SSTORE POP PUSH2 0x342D SWAP1 POP CALLER DUP10 DUP5 PUSH2 0x3915 JUMP JUMPDEST PUSH2 0x3461 PUSH32 0x0 PUSH1 0x1 PUSH1 0x1 PUSH1 0xA0 SHL SUB AND CALLER DUP4 PUSH2 0x375E JUMP JUMPDEST PUSH1 0x40 DUP1 MLOAD DUP4 DUP2 MSTORE PUSH1 0x20 DUP2 ADD DUP4 SWAP1 MSTORE CALLER SWAP2 DUP11 SWAP2 PUSH32 0x1D444C28894712984A4FE069711274D086859136F702D387BDA2F1CD90D66DF8 SWAP2 ADD PUSH1 0x40 MLOAD DUP1 SWAP2 SUB SWAP1 LOG3 PUSH2 0x34A7 DUP9 PUSH2 0x378F JUMP JUMPDEST POP POP POP POP POP PUSH2 0x34B6 PUSH1 0x1 PUSH1 0x6 SSTORE JUMP JUMPDEST POP POP POP JUMP JUMPDEST PUSH1 0x1 PUSH1 0x1 PUSH1 0xA0 SHL SUB SWAP2 DUP3 AND PUSH0 SWAP1 DUP2 MSTORE PUSH1 0x2 PUSH1 0x20 SWAP1 DUP2 MSTORE PUSH1 0x40 DUP1 DUP4 KECCAK256 SWAP4 SWAP1 SWAP5 AND DUP3 MSTORE SWAP2 SWAP1 SWAP2 MSTORE KECCAK256 SLOAD PUSH1 0xFF AND SWAP1 JUMP JUMPDEST PUSH2 0x34F0 PUSH2 0x38E9 JUMP JUMPDEST PUSH1 0x8 DUP1 SLOAD PUSH12 0xFFFFFFFF0000000000000000 NOT AND PUSH1 0x1 PUSH1 0x40 SHL PUSH4 0xFFFFFFFF DUP5 DUP2 AND DUP3 MUL SWAP3 SWAP1 SWAP3 OR SWAP3 DUP4 SWAP1 SSTORE PUSH1 0x40 MLOAD SWAP3 DIV AND DUP2 MSTORE PUSH32 0xA33C859C6A01D7D71B062AE88C11D026EFD55B26B354DFC8844E5A74B8BF069B SWAP1 PUSH1 0x20 ADD PUSH2 0x1676 JUMP JUMPDEST PUSH2 0x3554 PUSH2 0x38E9 JUMP JUMPDEST PUSH1 0x8 DUP1 SLOAD PUSH4 0xFFFFFFFF NOT AND PUSH4 0xFFFFFFFF DUP4 AND SWAP1 DUP2 OR SWAP1 SWAP2 SSTORE PUSH1 0x40 MLOAD SWAP1 DUP2 MSTORE PUSH32 0x8B8BFA8B607AEE8F950B269EE81087CD304216FD813AC4F3AEAD05D7072A3A13 SWAP1 PUSH1 0x20 ADD PUSH2 0x1676 JUMP JUMPDEST CALLER PUSH1 0x1 PUSH1 0x1 PUSH1 0xA0 SHL SUB DUP7 AND DUP2 EQ DUP1 ISZERO SWAP1 PUSH2 0x35BD JUMPI POP PUSH2 0x35BB DUP7 DUP3 PUSH2 0x34BB JUMP JUMPDEST ISZERO JUMPDEST ISZERO PUSH2 0x35EE JUMPI PUSH1 0x40 MLOAD PUSH4 0x711BEC91 PUSH1 0xE1 SHL DUP2 MSTORE PUSH1 0x1 PUSH1 0x1 PUSH1 0xA0 SHL SUB DUP1 DUP4 AND PUSH1 0x4 DUP4 ADD MSTORE DUP8 AND PUSH1 0x24 DUP3 ADD MSTORE PUSH1 0x44 ADD PUSH2 0x969 JUMP JUMPDEST PUSH2 0x1612 DUP7 DUP7 DUP7 DUP7 DUP7 PUSH2 0x3A5E JUMP JUMPDEST PUSH2 0x3603 PUSH2 0x38E9 JUMP JUMPDEST PUSH1 0x1 PUSH1 0x1 PUSH1 0xA0 SHL SUB DUP2 AND PUSH2 0x362C JUMPI PUSH1 0x40 MLOAD PUSH4 0x1E4FBDF7 PUSH1 0xE0 SHL DUP2 MSTORE PUSH0 PUSH1 0x4 DUP3 ADD MSTORE PUSH1 0x24 ADD PUSH2 0x969 JUMP JUMPDEST PUSH2 0x18AF DUP2 PUSH2 0x397B JUMP JUMPDEST PUSH1 0x2 PUSH1 0x6 SLOAD SUB PUSH2 0x3658 JUMPI PUSH1 0x40 MLOAD PUSH4 0x3EE5AEB5 PUSH1 0xE0 SHL DUP2 MSTORE PUSH1 0x4 ADD PUSH1 0x40 MLOAD DUP1 SWAP2 SUB SWAP1 REVERT JUMPDEST PUSH1 0x2 PUSH1 0x6 SSTORE JUMP JUMPDEST PUSH1 0x40 MLOAD PUSH4 0xC5801AA3 PUSH1 0xE0 SHL DUP2 MSTORE PUSH0 SWAP1 PUSH1 0x1 PUSH1 0x1 PUSH1 0xA0 SHL SUB DUP6 AND SWAP1 PUSH4 0xC5801AA3 SWAP1 PUSH2 0x36D5 SWAP1 PUSH32 0x0 SWAP1 PUSH32 0x0 SWAP1 DUP11 SWAP1 DUP10 SWAP1 DUP10 SWAP1 PUSH1 0x4 ADD PUSH2 0x4CA7 JUMP JUMPDEST PUSH1 0x20 PUSH1 0x40 MLOAD DUP1 DUP4 SUB DUP2 PUSH0 DUP8 GAS CALL ISZERO DUP1 ISZERO PUSH2 0x1A3F JUMPI RETURNDATASIZE PUSH0 PUSH0 RETURNDATACOPY RETURNDATASIZE PUSH0 REVERT JUMPDEST PUSH1 0x40 MLOAD PUSH1 0x1 PUSH1 0x1 PUSH1 0xA0 SHL SUB DUP5 DUP2 AND PUSH1 0x24 DUP4 ADD MSTORE DUP4 DUP2 AND PUSH1 0x44 DUP4 ADD MSTORE PUSH1 0x64 DUP3 ADD DUP4 SWAP1 MSTORE PUSH2 0x3758 SWAP2 DUP7 SWAP2 DUP3 AND SWAP1 PUSH4 0x23B872DD SWAP1 PUSH1 0x84 ADD JUMPDEST PUSH1 0x40 MLOAD PUSH1 0x20 DUP2 DUP4 SUB SUB DUP2 MSTORE SWAP1 PUSH1 0x40 MSTORE SWAP2 POP PUSH1 0xE0 SHL PUSH1 0x20 DUP3 ADD DUP1 MLOAD PUSH1 0x1 PUSH1 0x1 PUSH1 0xE0 SHL SUB DUP4 DUP2 DUP4 AND OR DUP4 MSTORE POP POP POP POP PUSH2 0x3AEA JUMP JUMPDEST POP POP POP POP JUMP JUMPDEST PUSH1 0x40 MLOAD PUSH1 0x1 PUSH1 0x1 PUSH1 0xA0 SHL SUB DUP4 DUP2 AND PUSH1 0x24 DUP4 ADD MSTORE PUSH1 0x44 DUP3 ADD DUP4 SWAP1 MSTORE PUSH2 0x34B6 SWAP2 DUP6 SWAP2 DUP3 AND SWAP1 PUSH4 0xA9059CBB SWAP1 PUSH1 0x64 ADD PUSH2 0x3726 JUMP JUMPDEST PUSH0 DUP2 DUP2 MSTORE PUSH1 0xC PUSH1 0x20 SWAP1 DUP2 MSTORE PUSH1 0x40 SWAP2 DUP3 SWAP1 KECCAK256 DUP1 SLOAD PUSH1 0x1 DUP3 ADD SLOAD PUSH1 0x2 DUP4 ADD SLOAD PUSH1 0x3 SWAP1 SWAP4 ADD SLOAD DUP6 MLOAD PUSH1 0x1 PUSH1 0x1 PUSH1 0x60 SHL SUB PUSH1 0x1 PUSH1 0xA0 SHL DUP6 DIV DUP2 AND DUP3 MSTORE SWAP6 DUP2 ADD SWAP3 SWAP1 SWAP3 MSTORE SWAP5 DUP2 ADD SWAP3 SWAP1 SWAP3 MSTORE SWAP2 SWAP1 SWAP3 AND PUSH1 0x60 DUP4 ADD MSTORE PUSH1 0x1 PUSH1 0x1 PUSH1 0xA0 SHL SUB AND SWAP1 DUP3 SWAP1 PUSH32 0x289938DFD99639EB7B7174B9259EAA5A4B3A1D69D143B4D03D58B86AC502517D SWAP1 PUSH1 0x80 ADD PUSH1 0x40 MLOAD DUP1 SWAP2 SUB SWAP1 LOG3 POP JUMP JUMPDEST PUSH0 DUP3 DUP3 XOR DUP3 DUP5 LT MUL DUP3 XOR PUSH2 0x1509 JUMP JUMPDEST PUSH1 0x1 PUSH1 0x1 PUSH1 0xA0 SHL SUB DUP5 AND PUSH2 0x3852 JUMPI PUSH1 0x40 MLOAD PUSH4 0x2BFA23E7 PUSH1 0xE1 SHL DUP2 MSTORE PUSH0 PUSH1 0x4 DUP3 ADD MSTORE PUSH1 0x24 ADD PUSH2 0x969 JUMP JUMPDEST PUSH1 0x40 DUP1 MLOAD PUSH1 0x1 DUP1 DUP3 MSTORE PUSH1 0x20 DUP3 ADD DUP7 SWAP1 MSTORE DUP2 DUP4 ADD SWAP1 DUP2 MSTORE PUSH1 0x60 DUP3 ADD DUP6 SWAP1 MSTORE PUSH1 0x80 DUP3 ADD SWAP1 SWAP3 MSTORE SWAP1 PUSH2 0x1612 PUSH0 DUP8 DUP5 DUP5 DUP8 PUSH2 0x3B56 JUMP JUMPDEST PUSH1 0x1 PUSH1 0x1 PUSH1 0xA0 SHL SUB DUP5 AND PUSH2 0x38AD JUMPI PUSH1 0x40 MLOAD PUSH4 0x2BFA23E7 PUSH1 0xE1 SHL DUP2 MSTORE PUSH0 PUSH1 0x4 DUP3 ADD MSTORE PUSH1 0x24 ADD PUSH2 0x969 JUMP JUMPDEST PUSH1 0x1 PUSH1 0x1 PUSH1 0xA0 SHL SUB DUP6 AND PUSH2 0x38D5 JUMPI PUSH1 0x40 MLOAD PUSH3 0x6A0D45 PUSH1 0xE2 SHL DUP2 MSTORE PUSH0 PUSH1 0x4 DUP3 ADD MSTORE PUSH1 0x24 ADD PUSH2 0x969 JUMP JUMPDEST PUSH2 0x38E2 DUP6 DUP6 DUP6 DUP6 DUP6 PUSH2 0x3B56 JUMP JUMPDEST POP POP POP POP POP JUMP JUMPDEST PUSH0 SLOAD PUSH1 0x1 PUSH1 0x1 PUSH1 0xA0 SHL SUB AND CALLER EQ PUSH2 0x2642 JUMPI PUSH1 0x40 MLOAD PUSH4 0x118CDAA7 PUSH1 0xE0 SHL DUP2 MSTORE CALLER PUSH1 0x4 DUP3 ADD MSTORE PUSH1 0x24 ADD PUSH2 0x969 JUMP JUMPDEST PUSH1 0x1 PUSH1 0x1 PUSH1 0xA0 SHL SUB DUP4 AND PUSH2 0x393D JUMPI PUSH1 0x40 MLOAD PUSH3 0x6A0D45 PUSH1 0xE2 SHL DUP2 MSTORE PUSH0 PUSH1 0x4 DUP3 ADD MSTORE PUSH1 0x24 ADD PUSH2 0x969 JUMP JUMPDEST PUSH1 0x40 DUP1 MLOAD PUSH1 0x1 DUP1 DUP3 MSTORE PUSH1 0x20 DUP3 ADD DUP6 SWAP1 MSTORE DUP2 DUP4 ADD SWAP1 DUP2 MSTORE PUSH1 0x60 DUP3 ADD DUP5 SWAP1 MSTORE PUSH1 0xA0 DUP3 ADD SWAP1 SWAP3 MSTORE PUSH0 PUSH1 0x80 DUP3 ADD DUP2 DUP2 MSTORE SWAP2 SWAP3 SWAP2 PUSH2 0x38E2 SWAP2 DUP8 SWAP2 DUP6 SWAP1 DUP6 SWAP1 PUSH2 0x3B56 JUMP JUMPDEST PUSH0 DUP1 SLOAD PUSH1 0x1 PUSH1 0x1 PUSH1 0xA0 SHL SUB DUP4 DUP2 AND PUSH1 0x1 PUSH1 0x1 PUSH1 0xA0 SHL SUB NOT DUP4 AND DUP2 OR DUP5 SSTORE PUSH1 0x40 MLOAD SWAP2 SWAP1 SWAP3 AND SWAP3 DUP4 SWAP2 PUSH32 0x8BE0079C531659141344CD1FD0A4F28419497F9722A3DAAFE3B4186F6B6457E0 SWAP2 SWAP1 LOG3 POP POP JUMP JUMPDEST PUSH1 0x1 PUSH1 0x1 PUSH1 0xA0 SHL SUB DUP3 AND PUSH2 0x39F2 JUMPI PUSH1 0x40 MLOAD PUSH3 0xCED3E1 PUSH1 0xE8 SHL DUP2 MSTORE PUSH0 PUSH1 0x4 DUP3 ADD MSTORE PUSH1 0x24 ADD PUSH2 0x969 JUMP JUMPDEST PUSH1 0x1 PUSH1 0x1 PUSH1 0xA0 SHL SUB DUP4 DUP2 AND PUSH0 DUP2 DUP2 MSTORE PUSH1 0x2 PUSH1 0x20 SWAP1 DUP2 MSTORE PUSH1 0x40 DUP1 DUP4 KECCAK256 SWAP5 DUP8 AND DUP1 DUP5 MSTORE SWAP5 DUP3 MSTORE SWAP2 DUP3 SWAP1 KECCAK256 DUP1 SLOAD PUSH1 0xFF NOT AND DUP7 ISZERO ISZERO SWAP1 DUP2 OR SWAP1 SWAP2 SSTORE SWAP2 MLOAD SWAP2 DUP3 MSTORE PUSH32 0x17307EAB39AB6107E8899845AD3D59BD9653F200F220920489CA2B5937696C31 SWAP2 ADD PUSH1 0x40 MLOAD DUP1 SWAP2 SUB SWAP1 LOG3 POP POP POP JUMP JUMPDEST PUSH1 0x1 PUSH1 0x1 PUSH1 0xA0 SHL SUB DUP5 AND PUSH2 0x3A87 JUMPI PUSH1 0x40 MLOAD PUSH4 0x2BFA23E7 PUSH1 0xE1 SHL DUP2 MSTORE PUSH0 PUSH1 0x4 DUP3 ADD MSTORE PUSH1 0x24 ADD PUSH2 0x969 JUMP JUMPDEST PUSH1 0x1 PUSH1 0x1 PUSH1 0xA0 SHL SUB DUP6 AND PUSH2 0x3AAF JUMPI PUSH1 0x40 MLOAD PUSH3 0x6A0D45 PUSH1 0xE2 SHL DUP2 MSTORE PUSH0 PUSH1 0x4 DUP3 ADD MSTORE PUSH1 0x24 ADD PUSH2 0x969 JUMP JUMPDEST PUSH1 0x40 DUP1 MLOAD PUSH1 0x1 DUP1 DUP3 MSTORE PUSH1 0x20 DUP3 ADD DUP7 SWAP1 MSTORE DUP2 DUP4 ADD SWAP1 DUP2 MSTORE PUSH1 0x60 DUP3 ADD DUP6 SWAP1 MSTORE PUSH1 0x80 DUP3 ADD SWAP1 SWAP3 MSTORE SWAP1 PUSH2 0x3AE1 DUP8 DUP8 DUP5 DUP5 DUP8 PUSH2 0x3B56 JUMP JUMPDEST POP POP POP POP POP POP POP JUMP JUMPDEST PUSH0 PUSH0 PUSH1 0x20 PUSH0 DUP5 MLOAD PUSH1 0x20 DUP7 ADD PUSH0 DUP9 GAS CALL DUP1 PUSH2 0x3B09 JUMPI PUSH1 0x40 MLOAD RETURNDATASIZE PUSH0 DUP3 RETURNDATACOPY RETURNDATASIZE DUP2 REVERT JUMPDEST POP POP PUSH0 MLOAD RETURNDATASIZE SWAP2 POP DUP2 ISZERO PUSH2 0x3B20 JUMPI DUP1 PUSH1 0x1 EQ ISZERO PUSH2 0x3B2D JUMP JUMPDEST PUSH1 0x1 PUSH1 0x1 PUSH1 0xA0 SHL SUB DUP5 AND EXTCODESIZE ISZERO JUMPDEST ISZERO PUSH2 0x3758 JUMPI PUSH1 0x40 MLOAD PUSH4 0x5274AFE7 PUSH1 0xE0 SHL DUP2 MSTORE PUSH1 0x1 PUSH1 0x1 PUSH1 0xA0 SHL SUB DUP6 AND PUSH1 0x4 DUP3 ADD MSTORE PUSH1 0x24 ADD PUSH2 0x969 JUMP JUMPDEST PUSH2 0x3B62 DUP6 DUP6 DUP6 DUP6 PUSH2 0x3BA9 JUMP JUMPDEST PUSH1 0x1 PUSH1 0x1 PUSH1 0xA0 SHL SUB DUP5 AND ISZERO PUSH2 0x38E2 JUMPI DUP3 MLOAD CALLER SWAP1 PUSH1 0x1 SUB PUSH2 0x3B9B JUMPI PUSH1 0x20 DUP5 DUP2 ADD MLOAD SWAP1 DUP5 ADD MLOAD PUSH2 0x3B94 DUP4 DUP10 DUP10 DUP6 DUP6 DUP10 PUSH2 0x3C90 JUMP JUMPDEST POP POP PUSH2 0x1612 JUMP JUMPDEST PUSH2 0x1612 DUP2 DUP8 DUP8 DUP8 DUP8 DUP8 PUSH2 0x3DB1 JUMP JUMPDEST PUSH2 0x3BB5 DUP5 DUP5 DUP5 DUP5 PUSH2 0x3E98 JUMP JUMPDEST PUSH1 0x1 PUSH1 0x1 PUSH1 0xA0 SHL SUB DUP5 AND PUSH2 0x3C32 JUMPI PUSH0 DUP1 JUMPDEST DUP4 MLOAD DUP2 LT ISZERO PUSH2 0x3C19 JUMPI PUSH1 0x20 DUP2 DUP2 MUL DUP5 DUP2 ADD DUP3 ADD MLOAD SWAP1 DUP7 ADD DUP3 ADD MLOAD PUSH0 SWAP1 DUP2 MSTORE PUSH1 0x4 SWAP1 SWAP3 MSTORE PUSH1 0x40 DUP3 KECCAK256 DUP1 SLOAD SWAP2 SWAP3 DUP4 SWAP3 PUSH2 0x3BFE SWAP1 DUP5 SWAP1 PUSH2 0x4B4A JUMP JUMPDEST SWAP1 SWAP2 SSTORE POP PUSH2 0x3C0E SWAP1 POP DUP2 DUP5 PUSH2 0x4B4A JUMP JUMPDEST SWAP3 POP POP PUSH1 0x1 ADD PUSH2 0x3BC6 JUMP JUMPDEST POP DUP1 PUSH1 0x5 PUSH0 DUP3 DUP3 SLOAD PUSH2 0x3C2B SWAP2 SWAP1 PUSH2 0x4B4A JUMP JUMPDEST SWAP1 SWAP2 SSTORE POP POP POP JUMPDEST PUSH1 0x1 PUSH1 0x1 PUSH1 0xA0 SHL SUB DUP4 AND PUSH2 0x3758 JUMPI PUSH0 DUP1 JUMPDEST DUP4 MLOAD DUP2 LT ISZERO PUSH2 0x3C7F JUMPI PUSH1 0x20 DUP2 DUP2 MUL DUP5 DUP2 ADD DUP3 ADD MLOAD SWAP1 DUP7 ADD DUP3 ADD MLOAD PUSH0 SWAP1 DUP2 MSTORE PUSH1 0x4 SWAP1 SWAP3 MSTORE PUSH1 0x40 SWAP1 SWAP2 KECCAK256 DUP1 SLOAD DUP3 SWAP1 SUB SWAP1 SSTORE SWAP2 SWAP1 SWAP2 ADD SWAP1 PUSH1 0x1 ADD PUSH2 0x3C43 JUMP JUMPDEST POP PUSH1 0x5 DUP1 SLOAD SWAP2 SWAP1 SWAP2 SUB SWAP1 SSTORE POP POP POP POP JUMP JUMPDEST PUSH1 0x1 PUSH1 0x1 PUSH1 0xA0 SHL SUB DUP5 AND EXTCODESIZE ISZERO PUSH2 0x1612 JUMPI PUSH1 0x40 MLOAD PUSH4 0xF23A6E61 PUSH1 0xE0 SHL DUP2 MSTORE PUSH1 0x1 PUSH1 0x1 PUSH1 0xA0 SHL SUB DUP6 AND SWAP1 PUSH4 0xF23A6E61 SWAP1 PUSH2 0x3CD4 SWAP1 DUP10 SWAP1 DUP10 SWAP1 DUP9 SWAP1 DUP9 SWAP1 DUP9 SWAP1 PUSH1 0x4 ADD PUSH2 0x4CD7 JUMP JUMPDEST PUSH1 0x20 PUSH1 0x40 MLOAD DUP1 DUP4 SUB DUP2 PUSH0 DUP8 GAS CALL SWAP3 POP POP POP DUP1 ISZERO PUSH2 0x3D0E JUMPI POP PUSH1 0x40 DUP1 MLOAD PUSH1 0x1F RETURNDATASIZE SWAP1 DUP2 ADD PUSH1 0x1F NOT AND DUP3 ADD SWAP1 SWAP3 MSTORE PUSH2 0x3D0B SWAP2 DUP2 ADD SWAP1 PUSH2 0x4D10 JUMP JUMPDEST PUSH1 0x1 JUMPDEST PUSH2 0x3D75 JUMPI RETURNDATASIZE DUP1 DUP1 ISZERO PUSH2 0x3D3B JUMPI PUSH1 0x40 MLOAD SWAP2 POP PUSH1 0x1F NOT PUSH1 0x3F RETURNDATASIZE ADD AND DUP3 ADD PUSH1 0x40 MSTORE RETURNDATASIZE DUP3 MSTORE RETURNDATASIZE PUSH0 PUSH1 0x20 DUP5 ADD RETURNDATACOPY PUSH2 0x3D40 JUMP JUMPDEST PUSH1 0x60 SWAP2 POP JUMPDEST POP DUP1 MLOAD PUSH0 SUB PUSH2 0x3D6D JUMPI PUSH1 0x40 MLOAD PUSH4 0x2BFA23E7 PUSH1 0xE1 SHL DUP2 MSTORE PUSH1 0x1 PUSH1 0x1 PUSH1 0xA0 SHL SUB DUP7 AND PUSH1 0x4 DUP3 ADD MSTORE PUSH1 0x24 ADD PUSH2 0x969 JUMP JUMPDEST DUP1 MLOAD DUP2 PUSH1 0x20 ADD REVERT JUMPDEST PUSH1 0x1 PUSH1 0x1 PUSH1 0xE0 SHL SUB NOT DUP2 AND PUSH4 0xF23A6E61 PUSH1 0xE0 SHL EQ PUSH2 0x3AE1 JUMPI PUSH1 0x40 MLOAD PUSH4 0x2BFA23E7 PUSH1 0xE1 SHL DUP2 MSTORE PUSH1 0x1 PUSH1 0x1 PUSH1 0xA0 SHL SUB DUP7 AND PUSH1 0x4 DUP3 ADD MSTORE PUSH1 0x24 ADD PUSH2 0x969 JUMP JUMPDEST PUSH1 0x1 PUSH1 0x1 PUSH1 0xA0 SHL SUB DUP5 AND EXTCODESIZE ISZERO PUSH2 0x1612 JUMPI PUSH1 0x40 MLOAD PUSH4 0xBC197C81 PUSH1 0xE0 SHL DUP2 MSTORE PUSH1 0x1 PUSH1 0x1 PUSH1 0xA0 SHL SUB DUP6 AND SWAP1 PUSH4 0xBC197C81 SWAP1 PUSH2 0x3DF5 SWAP1 DUP10 SWAP1 DUP10 SWAP1 DUP9 SWAP1 DUP9 SWAP1 DUP9 SWAP1 PUSH1 0x4 ADD PUSH2 0x4D2B JUMP JUMPDEST PUSH1 0x20 PUSH1 0x40 MLOAD DUP1 DUP4 SUB DUP2 PUSH0 DUP8 GAS CALL SWAP3 POP POP POP DUP1 ISZERO PUSH2 0x3E2F JUMPI POP PUSH1 0x40 DUP1 MLOAD PUSH1 0x1F RETURNDATASIZE SWAP1 DUP2 ADD PUSH1 0x1F NOT AND DUP3 ADD SWAP1 SWAP3 MSTORE PUSH2 0x3E2C SWAP2 DUP2 ADD SWAP1 PUSH2 0x4D10 JUMP JUMPDEST PUSH1 0x1 JUMPDEST PUSH2 0x3E5C JUMPI RETURNDATASIZE DUP1 DUP1 ISZERO PUSH2 0x3D3B JUMPI PUSH1 0x40 MLOAD SWAP2 POP PUSH1 0x1F NOT PUSH1 0x3F RETURNDATASIZE ADD AND DUP3 ADD PUSH1 0x40 MSTORE RETURNDATASIZE DUP3 MSTORE RETURNDATASIZE PUSH0 PUSH1 0x20 DUP5 ADD RETURNDATACOPY PUSH2 0x3D40 JUMP JUMPDEST PUSH1 0x1 PUSH1 0x1 PUSH1 0xE0 SHL SUB NOT DUP2 AND PUSH4 0xBC197C81 PUSH1 0xE0 SHL EQ PUSH2 0x3AE1 JUMPI PUSH1 0x40 MLOAD PUSH4 0x2BFA23E7 PUSH1 0xE1 SHL DUP2 MSTORE PUSH1 0x1 PUSH1 0x1 PUSH1 0xA0 SHL SUB DUP7 AND PUSH1 0x4 DUP3 ADD MSTORE PUSH1 0x24 ADD PUSH2 0x969 JUMP JUMPDEST DUP1 MLOAD DUP3 MLOAD EQ PUSH2 0x3EC7 JUMPI DUP2 MLOAD DUP2 MLOAD PUSH1 0x40 MLOAD PUSH4 0x5B059991 PUSH1 0xE0 SHL DUP2 MSTORE PUSH1 0x4 DUP2 ADD SWAP3 SWAP1 SWAP3 MSTORE PUSH1 0x24 DUP3 ADD MSTORE PUSH1 0x44 ADD PUSH2 0x969 JUMP JUMPDEST CALLER PUSH0 JUMPDEST DUP4 MLOAD DUP2 LT ISZERO PUSH2 0x3FCF JUMPI PUSH1 0x20 DUP2 DUP2 MUL DUP6 DUP2 ADD DUP3 ADD MLOAD SWAP1 DUP6 ADD SWAP1 SWAP2 ADD MLOAD PUSH1 0x1 PUSH1 0x1 PUSH1 0xA0 SHL SUB DUP9 AND ISZERO PUSH2 0x3F7F JUMPI PUSH0 DUP3 DUP2 MSTORE PUSH1 0x1 PUSH1 0x20 SWAP1 DUP2 MSTORE PUSH1 0x40 DUP1 DUP4 KECCAK256 PUSH1 0x1 PUSH1 0x1 PUSH1 0xA0 SHL SUB DUP13 AND DUP5 MSTORE SWAP1 SWAP2 MSTORE SWAP1 KECCAK256 SLOAD DUP2 DUP2 LT ISZERO PUSH2 0x3F57 JUMPI PUSH1 0x40 MLOAD PUSH4 0x3DEE4C5 PUSH1 0xE0 SHL DUP2 MSTORE PUSH1 0x1 PUSH1 0x1 PUSH1 0xA0 SHL SUB DUP11 AND PUSH1 0x4 DUP3 ADD MSTORE PUSH1 0x24 DUP2 ADD DUP3 SWAP1 MSTORE PUSH1 0x44 DUP2 ADD DUP4 SWAP1 MSTORE PUSH1 0x64 DUP2 ADD DUP5 SWAP1 MSTORE PUSH1 0x84 ADD PUSH2 0x969 JUMP JUMPDEST PUSH0 DUP4 DUP2 MSTORE PUSH1 0x1 PUSH1 0x20 SWAP1 DUP2 MSTORE PUSH1 0x40 DUP1 DUP4 KECCAK256 PUSH1 0x1 PUSH1 0x1 PUSH1 0xA0 SHL SUB DUP14 AND DUP5 MSTORE SWAP1 SWAP2 MSTORE SWAP1 KECCAK256 SWAP1 DUP3 SWAP1 SUB SWAP1 SSTORE JUMPDEST PUSH1 0x1 PUSH1 0x1 PUSH1 0xA0 SHL SUB DUP8 AND ISZERO PUSH2 0x3FC5 JUMPI PUSH0 DUP3 DUP2 MSTORE PUSH1 0x1 PUSH1 0x20 SWAP1 DUP2 MSTORE PUSH1 0x40 DUP1 DUP4 KECCAK256 PUSH1 0x1 PUSH1 0x1 PUSH1 0xA0 SHL SUB DUP12 AND DUP5 MSTORE SWAP1 SWAP2 MSTORE DUP2 KECCAK256 DUP1 SLOAD DUP4 SWAP3 SWAP1 PUSH2 0x3FBF SWAP1 DUP5 SWAP1 PUSH2 0x4B4A JUMP JUMPDEST SWAP1 SWAP2 SSTORE POP POP JUMPDEST POP POP PUSH1 0x1 ADD PUSH2 0x3ECA JUMP JUMPDEST POP DUP3 MLOAD PUSH1 0x1 SUB PUSH2 0x404F JUMPI PUSH1 0x20 DUP4 ADD MLOAD PUSH0 SWAP1 PUSH1 0x20 DUP5 ADD MLOAD SWAP1 SWAP2 POP DUP6 PUSH1 0x1 PUSH1 0x1 PUSH1 0xA0 SHL SUB AND DUP8 PUSH1 0x1 PUSH1 0x1 PUSH1 0xA0 SHL SUB AND DUP5 PUSH1 0x1 PUSH1 0x1 PUSH1 0xA0 SHL SUB AND PUSH32 0xC3D58168C5AE7397731D063D5BBF3D657854427343F4C083240F7AACAA2D0F62 DUP6 DUP6 PUSH1 0x40 MLOAD PUSH2 0x4040 SWAP3 SWAP2 SWAP1 SWAP2 DUP3 MSTORE PUSH1 0x20 DUP3 ADD MSTORE PUSH1 0x40 ADD SWAP1 JUMP JUMPDEST PUSH1 0x40 MLOAD DUP1 SWAP2 SUB SWAP1 LOG4 POP POP PUSH2 0x38E2 JUMP JUMPDEST DUP4 PUSH1 0x1 PUSH1 0x1 PUSH1 0xA0 SHL SUB AND DUP6 PUSH1 0x1 PUSH1 0x1 PUSH1 0xA0 SHL SUB AND DUP3 PUSH1 0x1 PUSH1 0x1 PUSH1 0xA0 SHL SUB AND PUSH32 0x4A39DC06D4C0DBC64B70AF90FD698A233A518AA5D07E595D983B8C0526C8F7FB DUP7 DUP7 PUSH1 0x40 MLOAD PUSH2 0x409E SWAP3 SWAP2 SWAP1 PUSH2 0x4D7C JUMP JUMPDEST PUSH1 0x40 MLOAD DUP1 SWAP2 SUB SWAP1 LOG4 POP POP POP POP POP JUMP JUMPDEST DUP1 CALLDATALOAD PUSH1 0x1 PUSH1 0x1 PUSH1 0xA0 SHL SUB DUP2 AND DUP2 EQ PUSH2 0x40C3 JUMPI PUSH0 PUSH0 REVERT JUMPDEST SWAP2 SWAP1 POP JUMP JUMPDEST PUSH0 PUSH0 PUSH1 0x40 DUP4 DUP6 SUB SLT ISZERO PUSH2 0x40D9 JUMPI PUSH0 PUSH0 REVERT JUMPDEST PUSH2 0x40E2 DUP4 PUSH2 0x40AD JUMP JUMPDEST SWAP5 PUSH1 0x20 SWAP4 SWAP1 SWAP4 ADD CALLDATALOAD SWAP4 POP POP POP JUMP JUMPDEST PUSH1 0x1 PUSH1 0x1 PUSH1 0xE0 SHL SUB NOT DUP2 AND DUP2 EQ PUSH2 0x18AF JUMPI PUSH0 PUSH0 REVERT JUMPDEST PUSH0 PUSH1 0x20 DUP3 DUP5 SUB SLT ISZERO PUSH2 0x4115 JUMPI PUSH0 PUSH0 REVERT JUMPDEST DUP2 CALLDATALOAD PUSH2 0x1509 DUP2 PUSH2 0x40F0 JUMP JUMPDEST DUP1 CALLDATALOAD DUP1 ISZERO ISZERO DUP2 EQ PUSH2 0x40C3 JUMPI PUSH0 PUSH0 REVERT JUMPDEST PUSH0 PUSH0 DUP4 PUSH1 0x1F DUP5 ADD SLT PUSH2 0x413F JUMPI PUSH0 PUSH0 REVERT JUMPDEST POP DUP2 CALLDATALOAD PUSH1 0x1 PUSH1 0x1 PUSH1 0x40 SHL SUB DUP2 GT ISZERO PUSH2 0x4155 JUMPI PUSH0 PUSH0 REVERT JUMPDEST PUSH1 0x20 DUP4 ADD SWAP2 POP DUP4 PUSH1 0x20 DUP3 DUP6 ADD ADD GT ISZERO PUSH2 0x416C JUMPI PUSH0 PUSH0 REVERT JUMPDEST SWAP3 POP SWAP3 SWAP1 POP JUMP JUMPDEST PUSH0 PUSH0 PUSH0 PUSH0 PUSH0 PUSH0 PUSH0 PUSH1 0xC0 DUP9 DUP11 SUB SLT ISZERO PUSH2 0x4189 JUMPI PUSH0 PUSH0 REVERT JUMPDEST DUP8 CALLDATALOAD SWAP7 POP PUSH1 0x20 DUP9 ADD CALLDATALOAD SWAP6 POP PUSH1 0x40 DUP9 ADD CALLDATALOAD SWAP5 POP PUSH2 0x41A7 PUSH1 0x60 DUP10 ADD PUSH2 0x4120 JUMP JUMPDEST SWAP4 POP PUSH1 0x80 DUP9 ADD CALLDATALOAD SWAP3 POP PUSH1 0xA0 DUP9 ADD CALLDATALOAD PUSH1 0x1 PUSH1 0x1 PUSH1 0x40 SHL SUB DUP2 GT ISZERO PUSH2 0x41C8 JUMPI PUSH0 PUSH0 REVERT JUMPDEST PUSH2 0x41D4 DUP11 DUP3 DUP12 ADD PUSH2 0x412F JUMP JUMPDEST SWAP9 SWAP12 SWAP8 SWAP11 POP SWAP6 SWAP9 POP SWAP4 SWAP7 SWAP3 SWAP6 SWAP3 SWAP4 POP POP POP JUMP JUMPDEST PUSH0 PUSH1 0x20 DUP3 DUP5 SUB SLT ISZERO PUSH2 0x41F7 JUMPI PUSH0 PUSH0 REVERT JUMPDEST POP CALLDATALOAD SWAP2 SWAP1 POP JUMP JUMPDEST DUP4 MLOAD DUP2 MSTORE PUSH1 0x20 DUP1 DUP6 ADD MLOAD SWAP1 DUP3 ADD MSTORE PUSH1 0x40 DUP1 DUP6 ADD MLOAD PUSH1 0x1 PUSH1 0x1 PUSH1 0xA0 SHL SUB AND SWAP1 DUP3 ADD MSTORE PUSH1 0x60 DUP1 DUP6 ADD MLOAD PUSH1 0x1 PUSH1 0x1 PUSH1 0x60 SHL SUB AND SWAP1 DUP3 ADD MSTORE PUSH1 0x80 DUP1 DUP6 ADD MLOAD PUSH4 0xFFFFFFFF AND SWAP1 DUP3 ADD MSTORE PUSH1 0xA0 DUP1 DUP6 ADD MLOAD PUSH2 0x1C0 DUP4 ADD SWAP2 PUSH2 0x425F SWAP1 DUP5 ADD DUP3 PUSH4 0xFFFFFFFF AND SWAP1 MSTORE JUMP JUMPDEST POP PUSH1 0xC0 DUP6 ADD MLOAD PUSH2 0x4277 PUSH1 0xC0 DUP5 ADD DUP3 PUSH4 0xFFFFFFFF AND SWAP1 MSTORE JUMP JUMPDEST POP PUSH1 0xE0 DUP6 ADD MLOAD PUSH2 0x4292 PUSH1 0xE0 DUP5 ADD DUP3 PUSH1 0x1 PUSH1 0x1 PUSH1 0x60 SHL SUB AND SWAP1 MSTORE JUMP JUMPDEST POP DUP4 MLOAD PUSH1 0x1 PUSH1 0x1 PUSH1 0xA0 SHL SUB AND PUSH2 0x100 DUP4 ADD MSTORE PUSH1 0x20 DUP5 ADD MLOAD PUSH1 0x1 PUSH1 0x1 PUSH1 0x60 SHL SUB SWAP1 DUP2 AND PUSH2 0x120 DUP5 ADD MSTORE PUSH1 0x40 DUP6 ADD MLOAD PUSH2 0x140 DUP5 ADD MSTORE PUSH1 0x60 DUP6 ADD MLOAD PUSH2 0x160 DUP5 ADD MSTORE PUSH1 0x80 SWAP1 SWAP5 ADD MLOAD SWAP1 SWAP4 AND PUSH2 0x180 DUP3 ADD MSTORE PUSH2 0x1A0 ADD MSTORE SWAP2 SWAP1 POP JUMP JUMPDEST PUSH0 DUP2 MLOAD DUP1 DUP5 MSTORE DUP1 PUSH1 0x20 DUP5 ADD PUSH1 0x20 DUP7 ADD MCOPY PUSH0 PUSH1 0x20 DUP3 DUP7 ADD ADD MSTORE PUSH1 0x20 PUSH1 0x1F NOT PUSH1 0x1F DUP4 ADD AND DUP6 ADD ADD SWAP2 POP POP SWAP3 SWAP2 POP POP JUMP JUMPDEST PUSH1 0x20 DUP2 MSTORE PUSH0 PUSH2 0x1509 PUSH1 0x20 DUP4 ADD DUP5 PUSH2 0x42E9 JUMP JUMPDEST PUSH4 0x4E487B71 PUSH1 0xE0 SHL PUSH0 MSTORE PUSH1 0x21 PUSH1 0x4 MSTORE PUSH1 0x24 PUSH0 REVERT JUMPDEST PUSH1 0x20 DUP2 ADD PUSH1 0x6 DUP4 LT PUSH2 0x435D JUMPI PUSH4 0x4E487B71 PUSH1 0xE0 SHL PUSH0 MSTORE PUSH1 0x21 PUSH1 0x4 MSTORE PUSH1 0x24 PUSH0 REVERT JUMPDEST SWAP2 SWAP1 MSTORE SWAP1 JUMP JUMPDEST PUSH0 PUSH0 PUSH0 PUSH1 0x60 DUP5 DUP7 SUB SLT ISZERO PUSH2 0x4375 JUMPI PUSH0 PUSH0 REVERT JUMPDEST POP POP DUP2 CALLDATALOAD SWAP4 PUSH1 0x20 DUP4 ADD CALLDATALOAD SWAP4 POP PUSH1 0x40 SWAP1 SWAP3 ADD CALLDATALOAD SWAP2 SWAP1 POP JUMP JUMPDEST PUSH0 PUSH0 PUSH1 0x40 DUP4 DUP6 SUB SLT ISZERO PUSH2 0x439D JUMPI PUSH0 PUSH0 REVERT JUMPDEST POP POP DUP1 CALLDATALOAD SWAP3 PUSH1 0x20 SWAP1 SWAP2 ADD CALLDATALOAD SWAP2 POP JUMP JUMPDEST PUSH4 0x4E487B71 PUSH1 0xE0 SHL PUSH0 MSTORE PUSH1 0x41 PUSH1 0x4 MSTORE PUSH1 0x24 PUSH0 REVERT JUMPDEST PUSH1 0x40 MLOAD PUSH1 0x1F DUP3 ADD PUSH1 0x1F NOT AND DUP2 ADD PUSH1 0x1 PUSH1 0x1 PUSH1 0x40 SHL SUB DUP2 GT DUP3 DUP3 LT OR ISZERO PUSH2 0x43E8 JUMPI PUSH2 0x43E8 PUSH2 0x43AC JUMP JUMPDEST PUSH1 0x40 MSTORE SWAP2 SWAP1 POP JUMP JUMPDEST PUSH0 PUSH1 0x1 PUSH1 0x1 PUSH1 0x40 SHL SUB DUP3 GT ISZERO PUSH2 0x4408 JUMPI PUSH2 0x4408 PUSH2 0x43AC JUMP JUMPDEST POP PUSH1 0x5 SHL PUSH1 0x20 ADD SWAP1 JUMP JUMPDEST PUSH0 DUP3 PUSH1 0x1F DUP4 ADD SLT PUSH2 0x4421 JUMPI PUSH0 PUSH0 REVERT JUMPDEST DUP2 CALLDATALOAD PUSH2 0x4434 PUSH2 0x442F DUP3 PUSH2 0x43F0 JUMP JUMPDEST PUSH2 0x43C0 JUMP JUMPDEST DUP1 DUP3 DUP3 MSTORE PUSH1 0x20 DUP3 ADD SWAP2 POP PUSH1 0x20 DUP4 PUSH1 0x5 SHL DUP7 ADD ADD SWAP3 POP DUP6 DUP4 GT ISZERO PUSH2 0x4455 JUMPI PUSH0 PUSH0 REVERT JUMPDEST PUSH1 0x20 DUP6 ADD JUMPDEST DUP4 DUP2 LT ISZERO PUSH2 0x4472 JUMPI DUP1 CALLDATALOAD DUP4 MSTORE PUSH1 0x20 SWAP3 DUP4 ADD SWAP3 ADD PUSH2 0x445A JUMP JUMPDEST POP SWAP6 SWAP5 POP POP POP POP POP JUMP JUMPDEST PUSH0 DUP3 PUSH1 0x1F DUP4 ADD SLT PUSH2 0x448B JUMPI PUSH0 PUSH0 REVERT JUMPDEST DUP2 CALLDATALOAD PUSH1 0x1 PUSH1 0x1 PUSH1 0x40 SHL SUB DUP2 GT ISZERO PUSH2 0x44A4 JUMPI PUSH2 0x44A4 PUSH2 0x43AC JUMP JUMPDEST PUSH2 0x44B7 PUSH1 0x1F DUP3 ADD PUSH1 0x1F NOT AND PUSH1 0x20 ADD PUSH2 0x43C0 JUMP JUMPDEST DUP2 DUP2 MSTORE DUP5 PUSH1 0x20 DUP4 DUP7 ADD ADD GT ISZERO PUSH2 0x44CB JUMPI PUSH0 PUSH0 REVERT JUMPDEST DUP2 PUSH1 0x20 DUP6 ADD PUSH1 0x20 DUP4 ADD CALLDATACOPY PUSH0 SWAP2 DUP2 ADD PUSH1 0x20 ADD SWAP2 SWAP1 SWAP2 MSTORE SWAP4 SWAP3 POP POP POP JUMP JUMPDEST PUSH0 PUSH0 PUSH0 PUSH0 PUSH0 PUSH1 0xA0 DUP7 DUP9 SUB SLT ISZERO PUSH2 0x44FB JUMPI PUSH0 PUSH0 REVERT JUMPDEST PUSH2 0x4504 DUP7 PUSH2 0x40AD JUMP JUMPDEST SWAP5 POP PUSH2 0x4512 PUSH1 0x20 DUP8 ADD PUSH2 0x40AD JUMP JUMPDEST SWAP4 POP PUSH1 0x40 DUP7 ADD CALLDATALOAD PUSH1 0x1 PUSH1 0x1 PUSH1 0x40 SHL SUB DUP2 GT ISZERO PUSH2 0x452C JUMPI PUSH0 PUSH0 REVERT JUMPDEST PUSH2 0x4538 DUP9 DUP3 DUP10 ADD PUSH2 0x4412 JUMP JUMPDEST SWAP4 POP POP PUSH1 0x60 DUP7 ADD CALLDATALOAD PUSH1 0x1 PUSH1 0x1 PUSH1 0x40 SHL SUB DUP2 GT ISZERO PUSH2 0x4553 JUMPI PUSH0 PUSH0 REVERT JUMPDEST PUSH2 0x455F DUP9 DUP3 DUP10 ADD PUSH2 0x4412 JUMP JUMPDEST SWAP3 POP POP PUSH1 0x80 DUP7 ADD CALLDATALOAD PUSH1 0x1 PUSH1 0x1 PUSH1 0x40 SHL SUB DUP2 GT ISZERO PUSH2 0x457A JUMPI PUSH0 PUSH0 REVERT JUMPDEST PUSH2 0x4586 DUP9 DUP3 DUP10 ADD PUSH2 0x447C JUMP JUMPDEST SWAP2 POP POP SWAP3 SWAP6 POP SWAP3 SWAP6 SWAP1 SWAP4 POP JUMP JUMPDEST DUP1 CALLDATALOAD PUSH4 0xFFFFFFFF DUP2 AND DUP2 EQ PUSH2 0x40C3 JUMPI PUSH0 PUSH0 REVERT JUMPDEST PUSH0 PUSH1 0x20 DUP3 DUP5 SUB SLT ISZERO PUSH2 0x45B6 JUMPI PUSH0 PUSH0 REVERT JUMPDEST PUSH2 0x1509 DUP3 PUSH2 0x4593 JUMP JUMPDEST PUSH0 PUSH1 0x20 DUP3 DUP5 SUB SLT ISZERO PUSH2 0x45CF JUMPI PUSH0 PUSH0 REVERT JUMPDEST PUSH2 0x1509 DUP3 PUSH2 0x40AD JUMP JUMPDEST PUSH0 PUSH0 PUSH0 PUSH1 0x40 DUP5 DUP7 SUB SLT ISZERO PUSH2 0x45EA JUMPI PUSH0 PUSH0 REVERT JUMPDEST DUP4 CALLDATALOAD SWAP3 POP PUSH1 0x20 DUP5 ADD CALLDATALOAD PUSH1 0x1 PUSH1 0x1 PUSH1 0x40 SHL SUB DUP2 GT ISZERO PUSH2 0x4606 JUMPI PUSH0 PUSH0 REVERT JUMPDEST PUSH2 0x4612 DUP7 DUP3 DUP8 ADD PUSH2 0x412F JUMP JUMPDEST SWAP5 SWAP8 SWAP1 SWAP7 POP SWAP4 SWAP5 POP POP POP POP JUMP JUMPDEST PUSH0 PUSH0 PUSH1 0x40 DUP4 DUP6 SUB SLT ISZERO PUSH2 0x4630 JUMPI PUSH0 PUSH0 REVERT JUMPDEST DUP3 CALLDATALOAD PUSH1 0x1 PUSH1 0x1 PUSH1 0x40 SHL SUB DUP2 GT ISZERO PUSH2 0x4645 JUMPI PUSH0 PUSH0 REVERT JUMPDEST DUP4 ADD PUSH1 0x1F DUP2 ADD DUP6 SGT PUSH2 0x4655 JUMPI PUSH0 PUSH0 REVERT JUMPDEST DUP1 CALLDATALOAD PUSH2 0x4663 PUSH2 0x442F DUP3 PUSH2 0x43F0 JUMP JUMPDEST DUP1 DUP3 DUP3 MSTORE PUSH1 0x20 DUP3 ADD SWAP2 POP PUSH1 0x20 DUP4 PUSH1 0x5 SHL DUP6 ADD ADD SWAP3 POP DUP8 DUP4 GT ISZERO PUSH2 0x4684 JUMPI PUSH0 PUSH0 REVERT JUMPDEST PUSH1 0x20 DUP5 ADD SWAP4 POP JUMPDEST DUP3 DUP5 LT ISZERO PUSH2 0x46AD JUMPI PUSH2 0x469C DUP5 PUSH2 0x40AD JUMP JUMPDEST DUP3 MSTORE PUSH1 0x20 SWAP4 DUP5 ADD SWAP4 SWAP1 SWAP2 ADD SWAP1 PUSH2 0x468B JUMP JUMPDEST SWAP5 POP POP POP POP PUSH1 0x20 DUP4 ADD CALLDATALOAD PUSH1 0x1 PUSH1 0x1 PUSH1 0x40 SHL SUB DUP2 GT ISZERO PUSH2 0x46CA JUMPI PUSH0 PUSH0 REVERT JUMPDEST PUSH2 0x46D6 DUP6 DUP3 DUP7 ADD PUSH2 0x4412 JUMP JUMPDEST SWAP2 POP POP SWAP3 POP SWAP3 SWAP1 POP JUMP JUMPDEST PUSH0 DUP2 MLOAD DUP1 DUP5 MSTORE PUSH1 0x20 DUP5 ADD SWAP4 POP PUSH1 0x20 DUP4 ADD PUSH0 JUMPDEST DUP3 DUP2 LT ISZERO PUSH2 0x4710 JUMPI DUP2 MLOAD DUP7 MSTORE PUSH1 0x20 SWAP6 DUP7 ADD SWAP6 SWAP1 SWAP2 ADD SWAP1 PUSH1 0x1 ADD PUSH2 0x46F2 JUMP JUMPDEST POP SWAP4 SWAP5 SWAP4 POP POP POP POP JUMP JUMPDEST PUSH1 0x20 DUP2 MSTORE PUSH0 PUSH2 0x1509 PUSH1 0x20 DUP4 ADD DUP5 PUSH2 0x46E0 JUMP JUMPDEST PUSH0 PUSH0 PUSH0 PUSH0 PUSH1 0x80 DUP6 DUP8 SUB SLT ISZERO PUSH2 0x473F JUMPI PUSH0 PUSH0 REVERT JUMPDEST DUP5 CALLDATALOAD SWAP4 POP PUSH2 0x474F PUSH1 0x20 DUP7 ADD PUSH2 0x4593 JUMP JUMPDEST SWAP3 POP PUSH2 0x475D PUSH1 0x40 DUP7 ADD PUSH2 0x4593 JUMP JUMPDEST SWAP2 POP PUSH2 0x476B PUSH1 0x60 DUP7 ADD PUSH2 0x4593 JUMP JUMPDEST SWAP1 POP SWAP3 SWAP6 SWAP2 SWAP5 POP SWAP3 POP JUMP JUMPDEST PUSH0 PUSH0 PUSH0 PUSH0 PUSH0 PUSH0 PUSH0 PUSH0 PUSH1 0xE0 DUP10 DUP12 SUB SLT ISZERO PUSH2 0x478D JUMPI PUSH0 PUSH0 REVERT JUMPDEST DUP9 CALLDATALOAD SWAP8 POP PUSH1 0x20 DUP10 ADD CALLDATALOAD SWAP7 POP PUSH2 0x47A4 PUSH1 0x40 DUP11 ADD PUSH2 0x4593 JUMP JUMPDEST SWAP6 POP PUSH2 0x47B2 PUSH1 0x60 DUP11 ADD PUSH2 0x4593 JUMP JUMPDEST SWAP5 POP PUSH2 0x47C0 PUSH1 0x80 DUP11 ADD PUSH2 0x4593 JUMP JUMPDEST SWAP4 POP PUSH2 0x47CE PUSH1 0xA0 DUP11 ADD PUSH2 0x4593 JUMP JUMPDEST SWAP3 POP PUSH1 0xC0 DUP10 ADD CALLDATALOAD PUSH1 0x1 PUSH1 0x1 PUSH1 0x40 SHL SUB DUP2 GT ISZERO PUSH2 0x47E8 JUMPI PUSH0 PUSH0 REVERT JUMPDEST PUSH2 0x47F4 DUP12 DUP3 DUP13 ADD PUSH2 0x412F JUMP JUMPDEST SWAP10 SWAP13 SWAP9 SWAP12 POP SWAP7 SWAP10 POP SWAP5 SWAP8 SWAP4 SWAP7 SWAP3 SWAP6 SWAP5 POP POP POP JUMP JUMPDEST PUSH0 PUSH0 PUSH1 0x40 DUP4 DUP6 SUB SLT ISZERO PUSH2 0x4819 JUMPI PUSH0 PUSH0 REVERT JUMPDEST PUSH2 0x4822 DUP4 PUSH2 0x40AD JUMP JUMPDEST SWAP2 POP PUSH2 0x4830 PUSH1 0x20 DUP5 ADD PUSH2 0x4120 JUMP JUMPDEST SWAP1 POP SWAP3 POP SWAP3 SWAP1 POP JUMP JUMPDEST PUSH0 PUSH0 PUSH1 0x40 DUP4 DUP6 SUB SLT ISZERO PUSH2 0x484A JUMPI PUSH0 PUSH0 REVERT JUMPDEST PUSH2 0x4853 DUP4 PUSH2 0x40AD JUMP JUMPDEST SWAP2 POP PUSH2 0x4830 PUSH1 0x20 DUP5 ADD PUSH2 0x40AD JUMP JUMPDEST PUSH0 PUSH0 PUSH0 PUSH0 PUSH0 PUSH1 0xA0 DUP7 DUP9 SUB SLT ISZERO PUSH2 0x4875 JUMPI PUSH0 PUSH0 REVERT JUMPDEST PUSH2 0x487E DUP7 PUSH2 0x40AD JUMP JUMPDEST SWAP5 POP PUSH2 0x488C PUSH1 0x20 DUP8 ADD PUSH2 0x40AD JUMP JUMPDEST SWAP4 POP PUSH1 0x40 DUP7 ADD CALLDATALOAD SWAP3 POP PUSH1 0x60 DUP7 ADD CALLDATALOAD SWAP2 POP PUSH1 0x80 DUP7 ADD CALLDATALOAD PUSH1 0x1 PUSH1 0x1 PUSH1 0x40 SHL SUB DUP2 GT ISZERO PUSH2 0x457A JUMPI PUSH0 PUSH0 REVERT JUMPDEST PUSH1 0x20 DUP1 DUP3 MSTORE PUSH1 0x10 SWAP1 DUP3 ADD MSTORE PUSH16 0x496E76616C6964204C6F616E20494421 PUSH1 0x80 SHL PUSH1 0x40 DUP3 ADD MSTORE PUSH1 0x60 ADD SWAP1 JUMP JUMPDEST PUSH1 0x20 DUP1 DUP3 MSTORE PUSH1 0x1F SWAP1 DUP3 ADD MSTORE PUSH32 0x5032504C656E64696E673A43616C6C6572206973206E6F74206F776E65722100 PUSH1 0x40 DUP3 ADD MSTORE PUSH1 0x60 ADD SWAP1 JUMP JUMPDEST PUSH4 0x4E487B71 PUSH1 0xE0 SHL PUSH0 MSTORE PUSH1 0x11 PUSH1 0x4 MSTORE PUSH1 0x24 PUSH0 REVERT JUMPDEST PUSH1 0x1 PUSH1 0x1 PUSH1 0x60 SHL SUB DUP2 DUP2 AND DUP4 DUP3 AND ADD SWAP1 DUP2 GT ISZERO PUSH2 0x8DE JUMPI PUSH2 0x8DE PUSH2 0x4915 JUMP JUMPDEST DUP1 DUP3 MUL DUP2 ISZERO DUP3 DUP3 DIV DUP5 EQ OR PUSH2 0x8DE JUMPI PUSH2 0x8DE PUSH2 0x4915 JUMP JUMPDEST PUSH1 0x1 DUP2 JUMPDEST PUSH1 0x1 DUP5 GT ISZERO PUSH2 0x499A JUMPI DUP1 DUP6 DIV DUP2 GT ISZERO PUSH2 0x497E JUMPI PUSH2 0x497E PUSH2 0x4915 JUMP JUMPDEST PUSH1 0x1 DUP5 AND ISZERO PUSH2 0x498C JUMPI SWAP1 DUP2 MUL SWAP1 JUMPDEST PUSH1 0x1 SWAP4 SWAP1 SWAP4 SHR SWAP3 DUP1 MUL PUSH2 0x4963 JUMP JUMPDEST SWAP4 POP SWAP4 SWAP2 POP POP JUMP JUMPDEST PUSH0 DUP3 PUSH2 0x49B0 JUMPI POP PUSH1 0x1 PUSH2 0x8DE JUMP JUMPDEST DUP2 PUSH2 0x49BC JUMPI POP PUSH0 PUSH2 0x8DE JUMP JUMPDEST DUP2 PUSH1 0x1 DUP2 EQ PUSH2 0x49D2 JUMPI PUSH1 0x2 DUP2 EQ PUSH2 0x49DC JUMPI PUSH2 0x49F8 JUMP JUMPDEST PUSH1 0x1 SWAP2 POP POP PUSH2 0x8DE JUMP JUMPDEST PUSH1 0xFF DUP5 GT ISZERO PUSH2 0x49ED JUMPI PUSH2 0x49ED PUSH2 0x4915 JUMP JUMPDEST POP POP PUSH1 0x1 DUP3 SHL PUSH2 0x8DE JUMP JUMPDEST POP PUSH1 0x20 DUP4 LT PUSH2 0x133 DUP4 LT AND PUSH1 0x4E DUP5 LT PUSH1 0xB DUP5 LT AND OR ISZERO PUSH2 0x4A1B JUMPI POP DUP2 DUP2 EXP PUSH2 0x8DE JUMP JUMPDEST PUSH2 0x4A27 PUSH0 NOT DUP5 DUP5 PUSH2 0x495F JUMP JUMPDEST DUP1 PUSH0 NOT DIV DUP3 GT ISZERO PUSH2 0x4A3A JUMPI PUSH2 0x4A3A PUSH2 0x4915 JUMP JUMPDEST MUL SWAP4 SWAP3 POP POP POP JUMP JUMPDEST PUSH0 PUSH2 0x1509 PUSH1 0xFF DUP5 AND DUP4 PUSH2 0x49A2 JUMP JUMPDEST PUSH0 DUP3 PUSH2 0x4A6A JUMPI PUSH4 0x4E487B71 PUSH1 0xE0 SHL PUSH0 MSTORE PUSH1 0x12 PUSH1 0x4 MSTORE PUSH1 0x24 PUSH0 REVERT JUMPDEST POP DIV SWAP1 JUMP JUMPDEST DUP2 DUP2 SUB DUP2 DUP2 GT ISZERO PUSH2 0x8DE JUMPI PUSH2 0x8DE PUSH2 0x4915 JUMP JUMPDEST PUSH1 0x20 DUP1 DUP3 MSTORE PUSH1 0x27 SWAP1 DUP3 ADD MSTORE PUSH32 0x5032504C656E64696E673A496E637265617365206D61785F636F6C6C61746572 PUSH1 0x40 DUP3 ADD MSTORE PUSH7 0x616C5F6F757421 PUSH1 0xC8 SHL PUSH1 0x60 DUP3 ADD MSTORE PUSH1 0x80 ADD SWAP1 JUMP JUMPDEST PUSH1 0x1 DUP2 DUP2 SHR SWAP1 DUP3 AND DUP1 PUSH2 0x4ADD JUMPI PUSH1 0x7F DUP3 AND SWAP2 POP JUMPDEST PUSH1 0x20 DUP3 LT DUP2 SUB PUSH2 0x4AFB JUMPI PUSH4 0x4E487B71 PUSH1 0xE0 SHL PUSH0 MSTORE PUSH1 0x22 PUSH1 0x4 MSTORE PUSH1 0x24 PUSH0 REVERT JUMPDEST POP SWAP2 SWAP1 POP JUMP JUMPDEST PUSH1 0x20 DUP1 DUP3 MSTORE PUSH1 0x29 SWAP1 DUP3 ADD MSTORE PUSH32 0x5032504C656E64696E673A4C6F616E537461747573206D75737420657175616C PUSH1 0x40 DUP3 ADD MSTORE PUSH9 0x732041435449564521 PUSH1 0xB8 SHL PUSH1 0x60 DUP3 ADD MSTORE PUSH1 0x80 ADD SWAP1 JUMP JUMPDEST DUP1 DUP3 ADD DUP1 DUP3 GT ISZERO PUSH2 0x8DE JUMPI PUSH2 0x8DE PUSH2 0x4915 JUMP JUMPDEST DUP2 DUP4 MSTORE DUP2 DUP2 PUSH1 0x20 DUP6 ADD CALLDATACOPY POP PUSH0 DUP3 DUP3 ADD PUSH1 0x20 SWAP1 DUP2 ADD SWAP2 SWAP1 SWAP2 MSTORE PUSH1 0x1F SWAP1 SWAP2 ADD PUSH1 0x1F NOT AND SWAP1 SWAP2 ADD ADD SWAP1 JUMP JUMPDEST PUSH1 0x1 DUP1 PUSH1 0xA0 SHL SUB DUP9 AND DUP2 MSTORE PUSH1 0xFF DUP8 AND PUSH1 0x20 DUP3 ADD MSTORE DUP6 PUSH1 0x40 DUP3 ADD MSTORE PUSH1 0xFF DUP6 AND PUSH1 0x60 DUP3 ADD MSTORE DUP4 PUSH1 0x80 DUP3 ADD MSTORE PUSH1 0xC0 PUSH1 0xA0 DUP3 ADD MSTORE PUSH0 PUSH2 0x4BC4 PUSH1 0xC0 DUP4 ADD DUP5 DUP7 PUSH2 0x4B5D JUMP JUMPDEST SWAP10 SWAP9 POP POP POP POP POP POP POP POP POP JUMP JUMPDEST PUSH0 PUSH1 0x20 DUP3 DUP5 SUB SLT ISZERO PUSH2 0x4BE1 JUMPI PUSH0 PUSH0 REVERT JUMPDEST POP MLOAD SWAP2 SWAP1 POP JUMP JUMPDEST PUSH4 0x4E487B71 PUSH1 0xE0 SHL PUSH0 MSTORE PUSH1 0x32 PUSH1 0x4 MSTORE PUSH1 0x24 PUSH0 REVERT JUMPDEST PUSH4 0xFFFFFFFF DUP2 DUP2 AND DUP4 DUP3 AND MUL SWAP1 DUP2 AND SWAP1 DUP2 DUP2 EQ PUSH2 0x15AC JUMPI PUSH2 0x15AC PUSH2 0x4915 JUMP JUMPDEST SWAP8 DUP9 MSTORE PUSH1 0x20 DUP9 ADD SWAP7 SWAP1 SWAP7 MSTORE PUSH1 0x1 PUSH1 0x1 PUSH1 0xA0 SHL SUB SWAP5 SWAP1 SWAP5 AND PUSH1 0x40 DUP8 ADD MSTORE PUSH1 0x1 PUSH1 0x1 PUSH1 0x60 SHL SUB SWAP3 DUP4 AND PUSH1 0x60 DUP8 ADD MSTORE PUSH4 0xFFFFFFFF SWAP2 DUP3 AND PUSH1 0x80 DUP8 ADD MSTORE DUP2 AND PUSH1 0xA0 DUP7 ADD MSTORE SWAP1 SWAP2 AND PUSH1 0xC0 DUP5 ADD MSTORE AND PUSH1 0xE0 DUP3 ADD MSTORE PUSH2 0x100 ADD SWAP1 JUMP JUMPDEST PUSH0 PUSH1 0x1 DUP3 ADD PUSH2 0x4C81 JUMPI PUSH2 0x4C81 PUSH2 0x4915 JUMP JUMPDEST POP PUSH1 0x1 ADD SWAP1 JUMP JUMPDEST PUSH1 0x1 PUSH1 0x1 PUSH1 0x60 SHL SUB DUP3 DUP2 AND DUP3 DUP3 AND SUB SWAP1 DUP2 GT ISZERO PUSH2 0x8DE JUMPI PUSH2 0x8DE PUSH2 0x4915 JUMP JUMPDEST PUSH1 0x1 DUP1 PUSH1 0xA0 SHL SUB DUP7 AND DUP2 MSTORE PUSH1 0xFF DUP6 AND PUSH1 0x20 DUP3 ADD MSTORE DUP4 PUSH1 0x40 DUP3 ADD MSTORE PUSH1 0x80 PUSH1 0x60 DUP3 ADD MSTORE PUSH0 PUSH2 0xE0E PUSH1 0x80 DUP4 ADD DUP5 DUP7 PUSH2 0x4B5D JUMP JUMPDEST PUSH1 0x1 PUSH1 0x1 PUSH1 0xA0 SHL SUB DUP7 DUP2 AND DUP3 MSTORE DUP6 AND PUSH1 0x20 DUP3 ADD MSTORE PUSH1 0x40 DUP2 ADD DUP5 SWAP1 MSTORE PUSH1 0x60 DUP2 ADD DUP4 SWAP1 MSTORE PUSH1 0xA0 PUSH1 0x80 DUP3 ADD DUP2 SWAP1 MSTORE PUSH0 SWAP1 PUSH2 0xE0E SWAP1 DUP4 ADD DUP5 PUSH2 0x42E9 JUMP JUMPDEST PUSH0 PUSH1 0x20 DUP3 DUP5 SUB SLT ISZERO PUSH2 0x4D20 JUMPI PUSH0 PUSH0 REVERT JUMPDEST DUP2 MLOAD PUSH2 0x1509 DUP2 PUSH2 0x40F0 JUMP JUMPDEST PUSH1 0x1 PUSH1 0x1 PUSH1 0xA0 SHL SUB DUP7 DUP2 AND DUP3 MSTORE DUP6 AND PUSH1 0x20 DUP3 ADD MSTORE PUSH1 0xA0 PUSH1 0x40 DUP3 ADD DUP2 SWAP1 MSTORE PUSH0 SWAP1 PUSH2 0x4D56 SWAP1 DUP4 ADD DUP7 PUSH2 0x46E0 JUMP JUMPDEST DUP3 DUP2 SUB PUSH1 0x60 DUP5 ADD MSTORE PUSH2 0x4D68 DUP2 DUP7 PUSH2 0x46E0 JUMP JUMPDEST SWAP1 POP DUP3 DUP2 SUB PUSH1 0x80 DUP5 ADD MSTORE PUSH2 0x2AD0 DUP2 DUP6 PUSH2 0x42E9 JUMP JUMPDEST PUSH1 0x40 DUP2 MSTORE PUSH0 PUSH2 0x4D8E PUSH1 0x40 DUP4 ADD DUP6 PUSH2 0x46E0 JUMP JUMPDEST DUP3 DUP2 SUB PUSH1 0x20 DUP5 ADD MSTORE PUSH2 0x1A63 DUP2 DUP6 PUSH2 0x46E0 JUMP INVALID LOG2 PUSH5 0x6970667358 0x22 SLT KECCAK256 0xB4 0xCE 0x4F SWAP2 0xBD DUP7 RJUMPI 0x5870 BLOBBASEFEE PUSH28 0xBCB1F3D1EB815B123A308BB7630DB73894FB1E161D64736F6C634300 ADDMOD 0x1E STOP CALLER "
		},
		"gasEstimates": {
			"creation": {
				"codeDepositCost": "3985200",
				"executionCost": "infinite",
				"totalCost": "infinite"
			},
			"external": {
				"CLAIM_PERIOD()": "283",
				"COLLATERAL()": "infinite",
				"FEES_COLLECTOR()": "2486",
				"LIQUIDATION_RELATIVE_VALUE()": "2398",
				"LOT_SIZE()": "2373",
				"MAX_APY()": "2463",
				"MAX_DURATION()": "2441",
				"MIN_APY()": "2440",
				"MIN_DURATION()": "2396",
				"MIN_FILL_DURATION()": "2462",
				"MIN_LOTS_AMOUNT()": "2402",
				"PRICE_ORACLE()": "2449",
				"PROTOCOL_FEE()": "2447",
				"RATIOS_DECIMALS()": "317",
				"TARGET_RELATIVE_VALUE()": "2463",
				"USDC()": "infinite",
				"USDCValueOf(uint256,uint256)": "infinite",
				"WITHDRAW_COOLDOWN()": "305",
				"balanceOf(address,uint256)": "2705",
				"balanceOfBatch(address[],uint256[])": "infinite",
				"borrow(uint256,uint256,uint256,bool,uint256,bytes)": "infinite",
				"claimCollateral(uint256,bytes)": "48849",
				"claimUSDC(uint256)": "infinite",
				"createAsBorrower(uint256,uint256,uint32,uint32,uint32,uint32,bytes)": "infinite",
				"createAsLender(uint256,uint32,uint32,uint32)": "infinite",
				"exists(uint256)": "2581",
				"getDebt(uint256)": "infinite",
				"getLoanInfo(uint256)": "23092",
				"getLoanStatus(uint256)": "22083",
				"getRelativeCollateralValue(uint256,bytes)": "24577",
				"increaseCollateral(uint256,uint256)": "48633",
				"isApprovedForAll(address,address)": "infinite",
				"isCollateralClaimable(uint256,bytes)": "infinite",
				"lend(uint256,uint256,uint256)": "infinite",
				"owner()": "2397",
				"renounceOwnership()": "infinite",
				"repay(uint256)": "48590",
				"safeBatchTransferFrom(address,address,uint256[],uint256[],bytes)": "infinite",
				"safeTransferFrom(address,address,uint256,uint256,bytes)": "infinite",
				"setApprovalForAll(address,bool)": "infinite",
				"setFeesCollector(address)": "27943",
				"setLiquidationRelativeValue(uint32)": "27872",
				"setLotSize(uint256)": "25675",
				"setMaxAPY(uint32)": "27891",
				"setMaxDuration(uint32)": "27861",
				"setMinAPY(uint32)": "27890",
				"setMinDuration(uint32)": "27875",
				"setMinFillDuration(uint32)": "27912",
				"setMinLotsAmount(uint32)": "27849",
				"setPriceOracle(address)": "27886",
				"setProtocolFee(uint32)": "27829",
				"setTargetRelativeValue(uint32)": "27913",
				"supportsInterface(bytes4)": "621",
				"totalSupply()": "2371",
				"totalSupply(uint256)": "2513",
				"transferOwnership(address)": "28461",
				"uri(uint256)": "infinite",
				"withdrawCollateral(uint256)": "infinite",
				"withdrawUSDC(uint256,uint256)": "infinite"
			},
			"internal": {
				"emit_state_updated(uint256)": "infinite",
				"time_now()": "infinite",
				"usdc_to_collateral(uint256,contract IPriceData,bytes calldata)": "infinite"
			}
		},
		"methodIdentifiers": {
			"CLAIM_PERIOD()": "21241dfe",
			"COLLATERAL()": "24bbab8b",
			"FEES_COLLECTOR()": "c5f16166",
			"LIQUIDATION_RELATIVE_VALUE()": "670d5b63",
			"LOT_SIZE()": "7fee67a2",
			"MAX_APY()": "3d92f4e2",
			"MAX_DURATION()": "b1724b46",
			"MIN_APY()": "e51d375a",
			"MIN_DURATION()": "b6a6d177",
			"MIN_FILL_DURATION()": "a8a71e09",
			"MIN_LOTS_AMOUNT()": "acbb65af",
			"PRICE_ORACLE()": "0a19399a",
			"PROTOCOL_FEE()": "0b4501fd",
			"RATIOS_DECIMALS()": "03cc1194",
			"TARGET_RELATIVE_VALUE()": "a0420e7f",
			"USDC()": "89a30271",
			"USDCValueOf(uint256,uint256)": "2d4cdfc3",
			"WITHDRAW_COOLDOWN()": "950d91e9",
			"balanceOf(address,uint256)": "00fdd58e",
			"balanceOfBatch(address[],uint256[])": "4e1273f4",
			"borrow(uint256,uint256,uint256,bool,uint256,bytes)": "0431aaf2",
			"claimCollateral(uint256,bytes)": "e444f545",
			"claimUSDC(uint256)": "6e5f4a89",
			"createAsBorrower(uint256,uint256,uint32,uint32,uint32,uint32,bytes)": "7175030d",
			"createAsLender(uint256,uint32,uint32,uint32)": "51f740d5",
			"exists(uint256)": "4f558e79",
			"getDebt(uint256)": "c9dd1f3c",
			"getLoanInfo(uint256)": "0714012c",
			"getLoanStatus(uint256)": "1c4fd41c",
			"getRelativeCollateralValue(uint256,bytes)": "48782996",
			"increaseCollateral(uint256,uint256)": "54f0cb0d",
			"isApprovedForAll(address,address)": "e985e9c5",
			"isCollateralClaimable(uint256,bytes)": "a877e9ce",
			"lend(uint256,uint256,uint256)": "2bed89e5",
			"owner()": "8da5cb5b",
			"renounceOwnership()": "715018a6",
			"repay(uint256)": "371fd8e6",
			"safeBatchTransferFrom(address,address,uint256[],uint256[],bytes)": "2eb2c2d6",
			"safeTransferFrom(address,address,uint256,uint256,bytes)": "f242432a",
			"setApprovalForAll(address,bool)": "a22cb465",
			"setFeesCollector(address)": "373071f2",
			"setLiquidationRelativeValue(uint32)": "35557e5c",
			"setLotSize(uint256)": "34591a3e",
			"setMaxAPY(uint32)": "49d4a7c4",
			"setMaxDuration(uint32)": "ef921826",
			"setMinAPY(uint32)": "a45234d0",
			"setMinDuration(uint32)": "3273b110",
			"setMinFillDuration(uint32)": "c5b3a376",
			"setMinLotsAmount(uint32)": "f08a5381",
			"setPriceOracle(address)": "530e784f",
			"setProtocolFee(uint32)": "aa9f7628",
			"setTargetRelativeValue(uint32)": "9d100875",
			"supportsInterface(bytes4)": "01ffc9a7",
			"totalSupply()": "18160ddd",
			"totalSupply(uint256)": "bd85b039",
			"transferOwnership(address)": "f2fde38b",
			"uri(uint256)": "0e89341c",
			"withdrawCollateral(uint256)": "6112fe2e",
			"withdrawUSDC(uint256,uint256)": "88e08665"
		}
	},
	"abi": [
		{
			"inputs": [
				{
					"internalType": "address",
					"name": "_price_oracle_address",
					"type": "address"
				},
				{
					"internalType": "address",
					"name": "_COLLATERAL",
					"type": "address"
				},
				{
					"internalType": "address",
					"name": "_USDC",
					"type": "address"
				},
				{
					"internalType": "address",
					"name": "_FEES_COLLECTOR",
					"type": "address"
				},
				{
					"internalType": "string",
					"name": "_erc1155_uri",
					"type": "string"
				}
			],
			"stateMutability": "nonpayable",
			"type": "constructor"
		},
		{
			"inputs": [
				{
					"internalType": "address",
					"name": "sender",
					"type": "address"
				},
				{
					"internalType": "uint256",
					"name": "balance",
					"type": "uint256"
				},
				{
					"internalType": "uint256",
					"name": "needed",
					"type": "uint256"
				},
				{
					"internalType": "uint256",
					"name": "tokenId",
					"type": "uint256"
				}
			],
			"name": "ERC1155InsufficientBalance",
			"type": "error"
		},
		{
			"inputs": [
				{
					"internalType": "address",
					"name": "approver",
					"type": "address"
				}
			],
			"name": "ERC1155InvalidApprover",
			"type": "error"
		},
		{
			"inputs": [
				{
					"internalType": "uint256",
					"name": "idsLength",
					"type": "uint256"
				},
				{
					"internalType": "uint256",
					"name": "valuesLength",
					"type": "uint256"
				}
			],
			"name": "ERC1155InvalidArrayLength",
			"type": "error"
		},
		{
			"inputs": [
				{
					"internalType": "address",
					"name": "operator",
					"type": "address"
				}
			],
			"name": "ERC1155InvalidOperator",
			"type": "error"
		},
		{
			"inputs": [
				{
					"internalType": "address",
					"name": "receiver",
					"type": "address"
				}
			],
			"name": "ERC1155InvalidReceiver",
			"type": "error"
		},
		{
			"inputs": [
				{
					"internalType": "address",
					"name": "sender",
					"type": "address"
				}
			],
			"name": "ERC1155InvalidSender",
			"type": "error"
		},
		{
			"inputs": [
				{
					"internalType": "address",
					"name": "operator",
					"type": "address"
				},
				{
					"internalType": "address",
					"name": "owner",
					"type": "address"
				}
			],
			"name": "ERC1155MissingApprovalForAll",
			"type": "error"
		},
		{
			"inputs": [
				{
					"internalType": "address",
					"name": "owner",
					"type": "address"
				}
			],
			"name": "OwnableInvalidOwner",
			"type": "error"
		},
		{
			"inputs": [
				{
					"internalType": "address",
					"name": "account",
					"type": "address"
				}
			],
			"name": "OwnableUnauthorizedAccount",
			"type": "error"
		},
		{
			"inputs": [],
			"name": "ReentrancyGuardReentrantCall",
			"type": "error"
		},
		{
			"inputs": [
				{
					"internalType": "address",
					"name": "token",
					"type": "address"
				}
			],
			"name": "SafeERC20FailedOperation",
			"type": "error"
		},
		{
			"anonymous": false,
			"inputs": [
				{
					"indexed": true,
					"internalType": "address",
					"name": "account",
					"type": "address"
				},
				{
					"indexed": true,
					"internalType": "address",
					"name": "operator",
					"type": "address"
				},
				{
					"indexed": false,
					"internalType": "bool",
					"name": "approved",
					"type": "bool"
				}
			],
			"name": "ApprovalForAll",
			"type": "event"
		},
		{
			"anonymous": false,
			"inputs": [
				{
					"indexed": true,
					"internalType": "uint256",
					"name": "loan_id",
					"type": "uint256"
				},
				{
					"indexed": false,
					"internalType": "uint256",
					"name": "lots",
					"type": "uint256"
				}
			],
			"name": "Borrow",
			"type": "event"
		},
		{
			"anonymous": false,
			"inputs": [
				{
					"indexed": true,
					"internalType": "uint256",
					"name": "loan_id",
					"type": "uint256"
				},
				{
					"indexed": true,
					"internalType": "address",
					"name": "lender",
					"type": "address"
				},
				{
					"indexed": false,
					"internalType": "uint256",
					"name": "lots",
					"type": "uint256"
				},
				{
					"indexed": false,
					"internalType": "uint256",
					"name": "collateral_amount",
					"type": "uint256"
				}
			],
			"name": "ClaimCollateral",
			"type": "event"
		},
		{
			"anonymous": false,
			"inputs": [
				{
					"indexed": true,
					"internalType": "uint256",
					"name": "loan_id",
					"type": "uint256"
				},
				{
					"indexed": true,
					"internalType": "address",
					"name": "lender",
					"type": "address"
				},
				{
					"indexed": false,
					"internalType": "uint256",
					"name": "lots",
					"type": "uint256"
				},
				{
					"indexed": false,
					"internalType": "uint256",
					"name": "USDC_amount",
					"type": "uint256"
				}
			],
			"name": "ClaimUSDC",
			"type": "event"
		},
		{
			"anonymous": false,
			"inputs": [
				{
					"indexed": true,
					"internalType": "uint256",
					"name": "loan_id",
					"type": "uint256"
				},
				{
					"indexed": false,
					"internalType": "uint256",
					"name": "lots_required",
					"type": "uint256"
				},
				{
					"indexed": false,
					"internalType": "uint256",
					"name": "lot_size",
					"type": "uint256"
				},
				{
					"indexed": false,
					"internalType": "address",
					"name": "price_oracle",
					"type": "address"
				},
				{
					"indexed": false,
					"internalType": "uint96",
					"name": "duration",
					"type": "uint96"
				},
				{
					"indexed": false,
					"internalType": "uint32",
					"name": "apy",
					"type": "uint32"
				},
				{
					"indexed": false,
					"internalType": "uint32",
					"name": "target_relative_value",
					"type": "uint32"
				},
				{
					"indexed": false,
					"internalType": "uint32",
					"name": "liquidation_relative_value",
					"type": "uint32"
				},
				{
					"indexed": false,
					"internalType": "uint96",
					"name": "fill_deadline",
					"type": "uint96"
				}
			],
			"name": "CreateAsBorrower",
			"type": "event"
		},
		{
			"anonymous": false,
			"inputs": [
				{
					"indexed": true,
					"internalType": "uint256",
					"name": "loan_id",
					"type": "uint256"
				},
				{
					"indexed": true,
					"internalType": "address",
					"name": "lender",
					"type": "address"
				},
				{
					"indexed": false,
					"internalType": "uint256",
					"name": "lots_required",
					"type": "uint256"
				},
				{
					"indexed": false,
					"internalType": "uint256",
					"name": "lot_size",
					"type": "uint256"
				},
				{
					"indexed": false,
					"internalType": "address",
					"name": "price_oracle",
					"type": "address"
				},
				{
					"indexed": false,
					"internalType": "uint96",
					"name": "duration",
					"type": "uint96"
				},
				{
					"indexed": false,
					"internalType": "uint32",
					"name": "apy",
					"type": "uint32"
				},
				{
					"indexed": false,
					"internalType": "uint32",
					"name": "target_relative_value",
					"type": "uint32"
				},
				{
					"indexed": false,
					"internalType": "uint32",
					"name": "liquidation_relative_value",
					"type": "uint32"
				},
				{
					"indexed": false,
					"internalType": "uint96",
					"name": "fill_deadline",
					"type": "uint96"
				}
			],
			"name": "CreateAsLender",
			"type": "event"
		},
		{
			"anonymous": false,
			"inputs": [
				{
					"indexed": true,
					"internalType": "uint256",
					"name": "loan_id",
					"type": "uint256"
				},
				{
					"indexed": false,
					"internalType": "uint96",
					"name": "claim_deadline",
					"type": "uint96"
				}
			],
			"name": "FullyFunded",
			"type": "event"
		},
		{
			"anonymous": false,
			"inputs": [
				{
					"indexed": true,
					"internalType": "uint256",
					"name": "load_id",
					"type": "uint256"
				},
				{
					"indexed": false,
					"internalType": "uint256",
					"name": "collateral_amount",
					"type": "uint256"
				}
			],
			"name": "IncreaseCollateral",
			"type": "event"
		},
		{
			"anonymous": false,
			"inputs": [
				{
					"indexed": true,
					"internalType": "uint256",
					"name": "loan_id",
					"type": "uint256"
				},
				{
					"indexed": true,
					"internalType": "address",
					"name": "lender",
					"type": "address"
				},
				{
					"indexed": false,
					"internalType": "uint256",
					"name": "lots",
					"type": "uint256"
				}
			],
			"name": "Lend",
			"type": "event"
		},
		{
			"anonymous": false,
			"inputs": [
				{
					"indexed": true,
					"internalType": "address",
					"name": "previousOwner",
					"type": "address"
				},
				{
					"indexed": true,
					"internalType": "address",
					"name": "newOwner",
					"type": "address"
				}
			],
			"name": "OwnershipTransferred",
			"type": "event"
		},
		{
			"anonymous": false,
			"inputs": [
				{
					"indexed": true,
					"internalType": "uint256",
					"name": "loan_id",
					"type": "uint256"
				},
				{
					"indexed": false,
					"internalType": "uint256",
					"name": "USDC_amount",
					"type": "uint256"
				}
			],
			"name": "Repay",
			"type": "event"
		},
		{
			"anonymous": false,
			"inputs": [
				{
					"indexed": false,
					"internalType": "address",
					"name": "FEES_COLLECTOR",
					"type": "address"
				}
			],
			"name": "SetFeesCollector",
			"type": "event"
		},
		{
			"anonymous": false,
			"inputs": [
				{
					"indexed": false,
					"internalType": "uint32",
					"name": "LIQUIDATION_RELATIVE_VALUE",
					"type": "uint32"
				}
			],
			"name": "SetLiquidationRelativeValue",
			"type": "event"
		},
		{
			"anonymous": false,
			"inputs": [
				{
					"indexed": false,
					"internalType": "uint256",
					"name": "LOT_SIZE",
					"type": "uint256"
				}
			],
			"name": "SetLotSize",
			"type": "event"
		},
		{
			"anonymous": false,
			"inputs": [
				{
					"indexed": false,
					"internalType": "uint32",
					"name": "MAX_APY",
					"type": "uint32"
				}
			],
			"name": "SetMaxAPY",
			"type": "event"
		},
		{
			"anonymous": false,
			"inputs": [
				{
					"indexed": false,
					"internalType": "uint32",
					"name": "MIN_LOTS_AMOUNT",
					"type": "uint32"
				}
			],
			"name": "SetMaxDuration",
			"type": "event"
		},
		{
			"anonymous": false,
			"inputs": [
				{
					"indexed": false,
					"internalType": "uint32",
					"name": "MIN_APY",
					"type": "uint32"
				}
			],
			"name": "SetMinAPY",
			"type": "event"
		},
		{
			"anonymous": false,
			"inputs": [
				{
					"indexed": false,
					"internalType": "uint32",
					"name": "MIN_LOTS_AMOUNT",
					"type": "uint32"
				}
			],
			"name": "SetMinDuration",
			"type": "event"
		},
		{
			"anonymous": false,
			"inputs": [
				{
					"indexed": false,
					"internalType": "uint32",
					"name": "MIN_FILL_DURATION",
					"type": "uint32"
				}
			],
			"name": "SetMinFillDuration",
			"type": "event"
		},
		{
			"anonymous": false,
			"inputs": [
				{
					"indexed": false,
					"internalType": "uint32",
					"name": "MIN_LOTS_AMOUNT",
					"type": "uint32"
				}
			],
			"name": "SetMinLotsAmount",
			"type": "event"
		},
		{
			"anonymous": false,
			"inputs": [
				{
					"indexed": false,
					"internalType": "address",
					"name": "PRICE_ORACLE",
					"type": "address"
				}
			],
			"name": "SetPriceOracle",
			"type": "event"
		},
		{
			"anonymous": false,
			"inputs": [
				{
					"indexed": false,
					"internalType": "uint32",
					"name": "PROTOCOL_FEE",
					"type": "uint32"
				}
			],
			"name": "SetProtocolFee",
			"type": "event"
		},
		{
			"anonymous": false,
			"inputs": [
				{
					"indexed": false,
					"internalType": "uint32",
					"name": "TARGET_RELATIVE_VALUE",
					"type": "uint32"
				}
			],
			"name": "SetTargetRelativeValue",
			"type": "event"
		},
		{
			"anonymous": false,
			"inputs": [
				{
					"indexed": true,
					"internalType": "uint256",
					"name": "loan_id",
					"type": "uint256"
				},
				{
					"indexed": true,
					"internalType": "address",
					"name": "borrower",
					"type": "address"
				},
				{
					"indexed": false,
					"internalType": "uint96",
					"name": "deadline",
					"type": "uint96"
				},
				{
					"indexed": false,
					"internalType": "uint256",
					"name": "collateral_balance",
					"type": "uint256"
				},
				{
					"indexed": false,
					"internalType": "uint256",
					"name": "USDC_balance",
					"type": "uint256"
				},
				{
					"indexed": false,
					"internalType": "uint96",
					"name": "claim_deadline",
					"type": "uint96"
				}
			],
			"name": "StateUpdated",
			"type": "event"
		},
		{
			"anonymous": false,
			"inputs": [
				{
					"indexed": true,
					"internalType": "address",
					"name": "operator",
					"type": "address"
				},
				{
					"indexed": true,
					"internalType": "address",
					"name": "from",
					"type": "address"
				},
				{
					"indexed": true,
					"internalType": "address",
					"name": "to",
					"type": "address"
				},
				{
					"indexed": false,
					"internalType": "uint256[]",
					"name": "ids",
					"type": "uint256[]"
				},
				{
					"indexed": false,
					"internalType": "uint256[]",
					"name": "values",
					"type": "uint256[]"
				}
			],
			"name": "TransferBatch",
			"type": "event"
		},
		{
			"anonymous": false,
			"inputs": [
				{
					"indexed": true,
					"internalType": "address",
					"name": "operator",
					"type": "address"
				},
				{
					"indexed": true,
					"internalType": "address",
					"name": "from",
					"type": "address"
				},
				{
					"indexed": true,
					"internalType": "address",
					"name": "to",
					"type": "address"
				},
				{
					"indexed": false,
					"internalType": "uint256",
					"name": "id",
					"type": "uint256"
				},
				{
					"indexed": false,
					"internalType": "uint256",
					"name": "value",
					"type": "uint256"
				}
			],
			"name": "TransferSingle",
			"type": "event"
		},
		{
			"anonymous": false,
			"inputs": [
				{
					"indexed": false,
					"internalType": "string",
					"name": "value",
					"type": "string"
				},
				{
					"indexed": true,
					"internalType": "uint256",
					"name": "id",
					"type": "uint256"
				}
			],
			"name": "URI",
			"type": "event"
		},
		{
			"anonymous": false,
			"inputs": [
				{
					"indexed": true,
					"internalType": "uint256",
					"name": "load_id",
					"type": "uint256"
				}
			],
			"name": "WithdrawCollateral",
			"type": "event"
		},
		{
			"anonymous": false,
			"inputs": [
				{
					"indexed": true,
					"internalType": "uint256",
					"name": "loan_id",
					"type": "uint256"
				},
				{
					"indexed": true,
					"internalType": "address",
					"name": "lender",
					"type": "address"
				},
				{
					"indexed": false,
					"internalType": "uint256",
					"name": "lots",
					"type": "uint256"
				}
			],
			"name": "WithdrawUSDC",
			"type": "event"
		},
		{
			"inputs": [],
			"name": "CLAIM_PERIOD",
			"outputs": [
				{
					"internalType": "uint96",
					"name": "",
					"type": "uint96"
				}
			],
			"stateMutability": "view",
			"type": "function"
		},
		{
			"inputs": [],
			"name": "COLLATERAL",
			"outputs": [
				{
					"internalType": "address",
					"name": "",
					"type": "address"
				}
			],
			"stateMutability": "view",
			"type": "function"
		},
		{
			"inputs": [],
			"name": "FEES_COLLECTOR",
			"outputs": [
				{
					"internalType": "address",
					"name": "",
					"type": "address"
				}
			],
			"stateMutability": "view",
			"type": "function"
		},
		{
			"inputs": [],
			"name": "LIQUIDATION_RELATIVE_VALUE",
			"outputs": [
				{
					"internalType": "uint32",
					"name": "",
					"type": "uint32"
				}
			],
			"stateMutability": "view",
			"type": "function"
		},
		{
			"inputs": [],
			"name": "LOT_SIZE",
			"outputs": [
				{
					"internalType": "uint256",
					"name": "",
					"type": "uint256"
				}
			],
			"stateMutability": "view",
			"type": "function"
		},
		{
			"inputs": [],
			"name": "MAX_APY",
			"outputs": [
				{
					"internalType": "uint32",
					"name": "",
					"type": "uint32"
				}
			],
			"stateMutability": "view",
			"type": "function"
		},
		{
			"inputs": [],
			"name": "MAX_DURATION",
			"outputs": [
				{
					"internalType": "uint32",
					"name": "",
					"type": "uint32"
				}
			],
			"stateMutability": "view",
			"type": "function"
		},
		{
			"inputs": [],
			"name": "MIN_APY",
			"outputs": [
				{
					"internalType": "uint32",
					"name": "",
					"type": "uint32"
				}
			],
			"stateMutability": "view",
			"type": "function"
		},
		{
			"inputs": [],
			"name": "MIN_DURATION",
			"outputs": [
				{
					"internalType": "uint32",
					"name": "",
					"type": "uint32"
				}
			],
			"stateMutability": "view",
			"type": "function"
		},
		{
			"inputs": [],
			"name": "MIN_FILL_DURATION",
			"outputs": [
				{
					"internalType": "uint32",
					"name": "",
					"type": "uint32"
				}
			],
			"stateMutability": "view",
			"type": "function"
		},
		{
			"inputs": [],
			"name": "MIN_LOTS_AMOUNT",
			"outputs": [
				{
					"internalType": "uint32",
					"name": "",
					"type": "uint32"
				}
			],
			"stateMutability": "view",
			"type": "function"
		},
		{
			"inputs": [],
			"name": "PRICE_ORACLE",
			"outputs": [
				{
					"internalType": "contract IPriceData",
					"name": "",
					"type": "address"
				}
			],
			"stateMutability": "view",
			"type": "function"
		},
		{
			"inputs": [],
			"name": "PROTOCOL_FEE",
			"outputs": [
				{
					"internalType": "uint32",
					"name": "",
					"type": "uint32"
				}
			],
			"stateMutability": "view",
			"type": "function"
		},
		{
			"inputs": [],
			"name": "RATIOS_DECIMALS",
			"outputs": [
				{
					"internalType": "uint8",
					"name": "",
					"type": "uint8"
				}
			],
			"stateMutability": "view",
			"type": "function"
		},
		{
			"inputs": [],
			"name": "TARGET_RELATIVE_VALUE",
			"outputs": [
				{
					"internalType": "uint32",
					"name": "",
					"type": "uint32"
				}
			],
			"stateMutability": "view",
			"type": "function"
		},
		{
			"inputs": [],
			"name": "USDC",
			"outputs": [
				{
					"internalType": "contract IERC20",
					"name": "",
					"type": "address"
				}
			],
			"stateMutability": "view",
			"type": "function"
		},
		{
			"inputs": [
				{
					"internalType": "uint256",
					"name": "loan_id",
					"type": "uint256"
				},
				{
					"internalType": "uint256",
					"name": "amount",
					"type": "uint256"
				}
			],
			"name": "USDCValueOf",
			"outputs": [
				{
					"internalType": "uint256",
					"name": "",
					"type": "uint256"
				}
			],
			"stateMutability": "view",
			"type": "function"
		},
		{
			"inputs": [],
			"name": "WITHDRAW_COOLDOWN",
			"outputs": [
				{
					"internalType": "uint96",
					"name": "",
					"type": "uint96"
				}
			],
			"stateMutability": "view",
			"type": "function"
		},
		{
			"inputs": [
				{
					"internalType": "address",
					"name": "account",
					"type": "address"
				},
				{
					"internalType": "uint256",
					"name": "id",
					"type": "uint256"
				}
			],
			"name": "balanceOf",
			"outputs": [
				{
					"internalType": "uint256",
					"name": "",
					"type": "uint256"
				}
			],
			"stateMutability": "view",
			"type": "function"
		},
		{
			"inputs": [
				{
					"internalType": "address[]",
					"name": "accounts",
					"type": "address[]"
				},
				{
					"internalType": "uint256[]",
					"name": "ids",
					"type": "uint256[]"
				}
			],
			"name": "balanceOfBatch",
			"outputs": [
				{
					"internalType": "uint256[]",
					"name": "",
					"type": "uint256[]"
				}
			],
			"stateMutability": "view",
			"type": "function"
		},
		{
			"inputs": [
				{
					"internalType": "uint256",
					"name": "loan_id",
					"type": "uint256"
				},
				{
					"internalType": "uint256",
					"name": "min_lots",
					"type": "uint256"
				},
				{
					"internalType": "uint256",
					"name": "max_lots",
					"type": "uint256"
				},
				{
					"internalType": "bool",
					"name": "transfer_collateral",
					"type": "bool"
				},
				{
					"internalType": "uint256",
					"name": "max_collateral_out",
					"type": "uint256"
				},
				{
					"internalType": "bytes",
					"name": "offchain_price_data",
					"type": "bytes"
				}
			],
			"name": "borrow",
			"outputs": [
				{
					"internalType": "uint256",
					"name": "",
					"type": "uint256"
				}
			],
			"stateMutability": "nonpayable",
			"type": "function"
		},
		{
			"inputs": [
				{
					"internalType": "uint256",
					"name": "loan_id",
					"type": "uint256"
				},
				{
					"internalType": "bytes",
					"name": "offchain_price_data",
					"type": "bytes"
				}
			],
			"name": "claimCollateral",
			"outputs": [],
			"stateMutability": "nonpayable",
			"type": "function"
		},
		{
			"inputs": [
				{
					"internalType": "uint256",
					"name": "loan_id",
					"type": "uint256"
				}
			],
			"name": "claimUSDC",
			"outputs": [],
			"stateMutability": "nonpayable",
			"type": "function"
		},
		{
			"inputs": [
				{
					"internalType": "uint256",
					"name": "lots",
					"type": "uint256"
				},
				{
					"internalType": "uint256",
					"name": "max_collateral_out",
					"type": "uint256"
				},
				{
					"internalType": "uint32",
					"name": "collateral_value",
					"type": "uint32"
				},
				{
					"internalType": "uint32",
					"name": "duration_days",
					"type": "uint32"
				},
				{
					"internalType": "uint32",
					"name": "apy",
					"type": "uint32"
				},
				{
					"internalType": "uint32",
					"name": "fill_duration_days",
					"type": "uint32"
				},
				{
					"internalType": "bytes",
					"name": "offchain_price_data",
					"type": "bytes"
				}
			],
			"name": "createAsBorrower",
			"outputs": [
				{
					"internalType": "uint256",
					"name": "",
					"type": "uint256"
				}
			],
			"stateMutability": "nonpayable",
			"type": "function"
		},
		{
			"inputs": [
				{
					"internalType": "uint256",
					"name": "lots",
					"type": "uint256"
				},
				{
					"internalType": "uint32",
					"name": "collateral_value",
					"type": "uint32"
				},
				{
					"internalType": "uint32",
					"name": "duration_days",
					"type": "uint32"
				},
				{
					"internalType": "uint32",
					"name": "apy",
					"type": "uint32"
				}
			],
			"name": "createAsLender",
			"outputs": [
				{
					"internalType": "uint256",
					"name": "",
					"type": "uint256"
				}
			],
			"stateMutability": "nonpayable",
			"type": "function"
		},
		{
			"inputs": [
				{
					"internalType": "uint256",
					"name": "id",
					"type": "uint256"
				}
			],
			"name": "exists",
			"outputs": [
				{
					"internalType": "bool",
					"name": "",
					"type": "bool"
				}
			],
			"stateMutability": "view",
			"type": "function"
		},
		{
			"inputs": [
				{
					"internalType": "uint256",
					"name": "loan_id",
					"type": "uint256"
				}
			],
			"name": "getDebt",
			"outputs": [
				{
					"internalType": "uint256",
					"name": "",
					"type": "uint256"
				}
			],
			"stateMutability": "view",
			"type": "function"
		},
		{
			"inputs": [
				{
					"internalType": "uint256",
					"name": "loan_id",
					"type": "uint256"
				}
			],
			"name": "getLoanInfo",
			"outputs": [
				{
					"components": [
						{
							"internalType": "uint256",
							"name": "lots_required",
							"type": "uint256"
						},
						{
							"internalType": "uint256",
							"name": "lot_size",
							"type": "uint256"
						},
						{
							"internalType": "contract IPriceData",
							"name": "price_oracle",
							"type": "address"
						},
						{
							"internalType": "uint96",
							"name": "duration",
							"type": "uint96"
						},
						{
							"internalType": "uint32",
							"name": "apy",
							"type": "uint32"
						},
						{
							"internalType": "uint32",
							"name": "target_relative_value",
							"type": "uint32"
						},
						{
							"internalType": "uint32",
							"name": "liquidation_relative_value",
							"type": "uint32"
						},
						{
							"internalType": "uint96",
							"name": "fill_deadline",
							"type": "uint96"
						}
					],
					"internalType": "struct IP2PLending.LoanConditions",
					"name": "",
					"type": "tuple"
				},
				{
					"components": [
						{
							"internalType": "address",
							"name": "borrower",
							"type": "address"
						},
						{
							"internalType": "uint96",
							"name": "deadline",
							"type": "uint96"
						},
						{
							"internalType": "uint256",
							"name": "collateral_balance",
							"type": "uint256"
						},
						{
							"internalType": "uint256",
							"name": "USDC_balance",
							"type": "uint256"
						},
						{
							"internalType": "uint96",
							"name": "claim_deadline",
							"type": "uint96"
						}
					],
					"internalType": "struct IP2PLending.LoanState",
					"name": "",
					"type": "tuple"
				},
				{
					"internalType": "uint256",
					"name": "",
					"type": "uint256"
				}
			],
			"stateMutability": "view",
			"type": "function"
		},
		{
			"inputs": [
				{
					"internalType": "uint256",
					"name": "loan_id",
					"type": "uint256"
				}
			],
			"name": "getLoanStatus",
			"outputs": [
				{
					"internalType": "enum IP2PLending.LoanStatus",
					"name": "",
					"type": "uint8"
				}
			],
			"stateMutability": "view",
			"type": "function"
		},
		{
			"inputs": [
				{
					"internalType": "uint256",
					"name": "loan_id",
					"type": "uint256"
				},
				{
					"internalType": "bytes",
					"name": "offchain_price_data",
					"type": "bytes"
				}
			],
			"name": "getRelativeCollateralValue",
			"outputs": [
				{
					"internalType": "uint256",
					"name": "",
					"type": "uint256"
				}
			],
			"stateMutability": "view",
			"type": "function"
		},
		{
			"inputs": [
				{
					"internalType": "uint256",
					"name": "loan_id",
					"type": "uint256"
				},
				{
					"internalType": "uint256",
					"name": "collateral_amount",
					"type": "uint256"
				}
			],
			"name": "increaseCollateral",
			"outputs": [],
			"stateMutability": "nonpayable",
			"type": "function"
		},
		{
			"inputs": [
				{
					"internalType": "address",
					"name": "account",
					"type": "address"
				},
				{
					"internalType": "address",
					"name": "operator",
					"type": "address"
				}
			],
			"name": "isApprovedForAll",
			"outputs": [
				{
					"internalType": "bool",
					"name": "",
					"type": "bool"
				}
			],
			"stateMutability": "view",
			"type": "function"
		},
		{
			"inputs": [
				{
					"internalType": "uint256",
					"name": "loan_id",
					"type": "uint256"
				},
				{
					"internalType": "bytes",
					"name": "offchain_price_data",
					"type": "bytes"
				}
			],
			"name": "isCollateralClaimable",
			"outputs": [
				{
					"internalType": "bool",
					"name": "",
					"type": "bool"
				}
			],
			"stateMutability": "view",
			"type": "function"
		},
		{
			"inputs": [
				{
					"internalType": "uint256",
					"name": "loan_id",
					"type": "uint256"
				},
				{
					"internalType": "uint256",
					"name": "target_lots",
					"type": "uint256"
				},
				{
					"internalType": "uint256",
					"name": "min_lots",
					"type": "uint256"
				}
			],
			"name": "lend",
			"outputs": [
				{
					"internalType": "uint256",
					"name": "",
					"type": "uint256"
				}
			],
			"stateMutability": "nonpayable",
			"type": "function"
		},
		{
			"inputs": [],
			"name": "owner",
			"outputs": [
				{
					"internalType": "address",
					"name": "",
					"type": "address"
				}
			],
			"stateMutability": "view",
			"type": "function"
		},
		{
			"inputs": [],
			"name": "renounceOwnership",
			"outputs": [],
			"stateMutability": "nonpayable",
			"type": "function"
		},
		{
			"inputs": [
				{
					"internalType": "uint256",
					"name": "loan_id",
					"type": "uint256"
				}
			],
			"name": "repay",
			"outputs": [],
			"stateMutability": "nonpayable",
			"type": "function"
		},
		{
			"inputs": [
				{
					"internalType": "address",
					"name": "from",
					"type": "address"
				},
				{
					"internalType": "address",
					"name": "to",
					"type": "address"
				},
				{
					"internalType": "uint256[]",
					"name": "ids",
					"type": "uint256[]"
				},
				{
					"internalType": "uint256[]",
					"name": "values",
					"type": "uint256[]"
				},
				{
					"internalType": "bytes",
					"name": "data",
					"type": "bytes"
				}
			],
			"name": "safeBatchTransferFrom",
			"outputs": [],
			"stateMutability": "nonpayable",
			"type": "function"
		},
		{
			"inputs": [
				{
					"internalType": "address",
					"name": "from",
					"type": "address"
				},
				{
					"internalType": "address",
					"name": "to",
					"type": "address"
				},
				{
					"internalType": "uint256",
					"name": "id",
					"type": "uint256"
				},
				{
					"internalType": "uint256",
					"name": "value",
					"type": "uint256"
				},
				{
					"internalType": "bytes",
					"name": "data",
					"type": "bytes"
				}
			],
			"name": "safeTransferFrom",
			"outputs": [],
			"stateMutability": "nonpayable",
			"type": "function"
		},
		{
			"inputs": [
				{
					"internalType": "address",
					"name": "operator",
					"type": "address"
				},
				{
					"internalType": "bool",
					"name": "approved",
					"type": "bool"
				}
			],
			"name": "setApprovalForAll",
			"outputs": [],
			"stateMutability": "nonpayable",
			"type": "function"
		},
		{
			"inputs": [
				{
					"internalType": "address",
					"name": "_FEES_COLLECTOR",
					"type": "address"
				}
			],
			"name": "setFeesCollector",
			"outputs": [],
			"stateMutability": "nonpayable",
			"type": "function"
		},
		{
			"inputs": [
				{
					"internalType": "uint32",
					"name": "_LIQUIDATION_RELATIVE_VALUE",
					"type": "uint32"
				}
			],
			"name": "setLiquidationRelativeValue",
			"outputs": [],
			"stateMutability": "nonpayable",
			"type": "function"
		},
		{
			"inputs": [
				{
					"internalType": "uint256",
					"name": "_LOT_SIZE",
					"type": "uint256"
				}
			],
			"name": "setLotSize",
			"outputs": [],
			"stateMutability": "nonpayable",
			"type": "function"
		},
		{
			"inputs": [
				{
					"internalType": "uint32",
					"name": "_MAX_APY",
					"type": "uint32"
				}
			],
			"name": "setMaxAPY",
			"outputs": [],
			"stateMutability": "nonpayable",
			"type": "function"
		},
		{
			"inputs": [
				{
					"internalType": "uint32",
					"name": "_MAX_DURATION",
					"type": "uint32"
				}
			],
			"name": "setMaxDuration",
			"outputs": [],
			"stateMutability": "nonpayable",
			"type": "function"
		},
		{
			"inputs": [
				{
					"internalType": "uint32",
					"name": "_MIN_APY",
					"type": "uint32"
				}
			],
			"name": "setMinAPY",
			"outputs": [],
			"stateMutability": "nonpayable",
			"type": "function"
		},
		{
			"inputs": [
				{
					"internalType": "uint32",
					"name": "_MIN_DURATION",
					"type": "uint32"
				}
			],
			"name": "setMinDuration",
			"outputs": [],
			"stateMutability": "nonpayable",
			"type": "function"
		},
		{
			"inputs": [
				{
					"internalType": "uint32",
					"name": "_MIN_FILL_DURATION",
					"type": "uint32"
				}
			],
			"name": "setMinFillDuration",
			"outputs": [],
			"stateMutability": "nonpayable",
			"type": "function"
		},
		{
			"inputs": [
				{
					"internalType": "uint32",
					"name": "_MIN_LOTS_AMOUNT",
					"type": "uint32"
				}
			],
			"name": "setMinLotsAmount",
			"outputs": [],
			"stateMutability": "nonpayable",
			"type": "function"
		},
		{
			"inputs": [
				{
					"internalType": "address",
					"name": "_PRICE_ORACLE",
					"type": "address"
				}
			],
			"name": "setPriceOracle",
			"outputs": [],
			"stateMutability": "nonpayable",
			"type": "function"
		},
		{
			"inputs": [
				{
					"internalType": "uint32",
					"name": "_PROTOCOL_FEE",
					"type": "uint32"
				}
			],
			"name": "setProtocolFee",
			"outputs": [],
			"stateMutability": "nonpayable",
			"type": "function"
		},
		{
			"inputs": [
				{
					"internalType": "uint32",
					"name": "_TARGET_RELATIVE_VALUE",
					"type": "uint32"
				}
			],
			"name": "setTargetRelativeValue",
			"outputs": [],
			"stateMutability": "nonpayable",
			"type": "function"
		},
		{
			"inputs": [
				{
					"internalType": "bytes4",
					"name": "interfaceId",
					"type": "bytes4"
				}
			],
			"name": "supportsInterface",
			"outputs": [
				{
					"internalType": "bool",
					"name": "",
					"type": "bool"
				}
			],
			"stateMutability": "view",
			"type": "function"
		},
		{
			"inputs": [],
			"name": "totalSupply",
			"outputs": [
				{
					"internalType": "uint256",
					"name": "",
					"type": "uint256"
				}
			],
			"stateMutability": "view",
			"type": "function"
		},
		{
			"inputs": [
				{
					"internalType": "uint256",
					"name": "id",
					"type": "uint256"
				}
			],
			"name": "totalSupply",
			"outputs": [
				{
					"internalType": "uint256",
					"name": "",
					"type": "uint256"
				}
			],
			"stateMutability": "view",
			"type": "function"
		},
		{
			"inputs": [
				{
					"internalType": "address",
					"name": "newOwner",
					"type": "address"
				}
			],
			"name": "transferOwnership",
			"outputs": [],
			"stateMutability": "nonpayable",
			"type": "function"
		},
		{
			"inputs": [
				{
					"internalType": "uint256",
					"name": "",
					"type": "uint256"
				}
			],
			"name": "uri",
			"outputs": [
				{
					"internalType": "string",
					"name": "",
					"type": "string"
				}
			],
			"stateMutability": "view",
			"type": "function"
		},
		{
			"inputs": [
				{
					"internalType": "uint256",
					"name": "loan_id",
					"type": "uint256"
				}
			],
			"name": "withdrawCollateral",
			"outputs": [],
			"stateMutability": "nonpayable",
			"type": "function"
		},
		{
			"inputs": [
				{
					"internalType": "uint256",
					"name": "loan_id",
					"type": "uint256"
				},
				{
					"internalType": "uint256",
					"name": "lots",
					"type": "uint256"
				}
			],
			"name": "withdrawUSDC",
			"outputs": [],
			"stateMutability": "nonpayable",
			"type": "function"
		}
	]
}