{
	"data": {
		"bytecode": {
			"linkReferences": {},
			"object": "60c06040527f4e24c8b160ad2b512b9e6bd61624e0c216f7fc373cb977ad891206a7db1b9dc15f1b600355348015610035575f5ffd5b506040516135bc3803806135bc833981810160405281019061005791906102c1565b61006561019b60201b60201c565b5f73ffffffffffffffffffffffffffffffffffffffff168173ffffffffffffffffffffffffffffffffffffffff16036100d5575f6040517f1e4fbdf70000000000000000000000000000000000000000000000000000000081526004016100cc91906102fb565b60405180910390fd5b6100e4816101a260201b60201c565b508073ffffffffffffffffffffffffffffffffffffffff1660808173ffffffffffffffffffffffffffffffffffffffff168152505060805173ffffffffffffffffffffffffffffffffffffffff1663313ce5676040518163ffffffff1660e01b8152600401602060405180830381865afa158015610164573d5f5f3e3d5ffd5b505050506040513d601f19601f82011682018060405250810190610188919061034a565b60ff1660a08160ff168152505050610375565b5f33905090565b5f5f5f9054906101000a900473ffffffffffffffffffffffffffffffffffffffff169050815f5f6101000a81548173ffffffffffffffffffffffffffffffffffffffff021916908373ffffffffffffffffffffffffffffffffffffffff1602179055508173ffffffffffffffffffffffffffffffffffffffff168173ffffffffffffffffffffffffffffffffffffffff167f8be0079c531659141344cd1fd0a4f28419497f9722a3daafe3b4186f6b6457e060405160405180910390a35050565b5f5ffd5b5f73ffffffffffffffffffffffffffffffffffffffff82169050919050565b5f61029082610267565b9050919050565b6102a081610286565b81146102aa575f5ffd5b50565b5f815190506102bb81610297565b92915050565b5f602082840312156102d6576102d5610263565b5b5f6102e3848285016102ad565b91505092915050565b6102f581610286565b82525050565b5f60208201905061030e5f8301846102ec565b92915050565b5f60ff82169050919050565b61032981610314565b8114610333575f5ffd5b50565b5f8151905061034481610320565b92915050565b5f6020828403121561035f5761035e610263565b5b5f61036c84828501610336565b91505092915050565b60805160a0516131f56103c75f395f818161060001528181610643015261082a01525f81816103fa0152818161052d015281816106b401528181610b4001528181610cc40152610e8901526131f55ff3fe608060405234801561000f575f5ffd5b506004361061011f575f3560e01c8063715018a6116100ab578063b4e37cf91161006f578063b4e37cf91461032d578063bff734c11461035d578063f2fde38b1461038d578063f621a19a146103a9578063fc01d62b146103d95761011f565b8063715018a61461029b5780638da5cb5b146102a5578063927b0504146102c35780639ef1f7c2146102df578063aaf5eb681461030f5761011f565b806331cb6105116100f257806331cb6105146101bf57806349045e16146101db5780634bbf415c1461020b5780635d5232161461023b5780636a0892151461026b5761011f565b80630cd0740914610123578063150e89cb146101535780631ff8d6dc14610171578063217a4b70146101a1575b5f5ffd5b61013d60048036038101906101389190611f63565b6103f7565b60405161014a9190611fec565b60405180910390f35b61015b6105fe565b6040516101689190612014565b60405180910390f35b61018b60048036038101906101869190612057565b610622565b6040516101989190611fec565b60405180910390f35b6101a96106b1565b6040516101b691906120ea565b60405180910390f35b6101d960048036038101906101d49190612138565b6106d8565b005b6101f560048036038101906101f09190612176565b6106ee565b60405161020291906121b0565b60405180910390f35b610225600480360381019061022091906121c9565b61077f565b6040516102329190611fec565b60405180910390f35b61025560048036038101906102509190612273565b6107c1565b60405161026291906120ea565b60405180910390f35b61028560048036038101906102809190612057565b610809565b6040516102929190611fec565b60405180910390f35b6102a3610898565b005b6102ad6108ab565b6040516102ba91906120ea565b60405180910390f35b6102dd60048036038101906102d89190612306565b6108d2565b005b6102f960048036038101906102f49190612273565b610aae565b60405161030691906120ea565b60405180910390f35b610317610af6565b6040516103249190612014565b60405180910390f35b610347600480360381019061034291906121c9565b610afb565b6040516103549190611fec565b60405180910390f35b61037760048036038101906103729190611f63565b610b3d565b6040516103849190611fec565b60405180910390f35b6103a760048036038101906103a29190612176565b610de6565b005b6103c360048036038101906103be9190612176565b610e6a565b6040516103d091906121b0565b60405180910390f35b6103e1610e87565b6040516103ee91906120ea565b60405180910390f35b5f7f000000000000000000000000000000000000000000000000000000000000000073ffffffffffffffffffffffffffffffffffffffff168573ffffffffffffffffffffffffffffffffffffffff160361045f5783600a61045891906124f3565b90506105f6565b5f8460ff161161046d575f5ffd5b60065f8673ffffffffffffffffffffffffffffffffffffffff1673ffffffffffffffffffffffffffffffffffffffff1681526020019081526020015f205f9054906101000a900460ff16156104cd576104c68585610eab565b90506105f6565b5f84600a6104db91906124f3565b90505f5f5f5f6104eb88886113c7565b505093509350935093508973ffffffffffffffffffffffffffffffffffffffff168473ffffffffffffffffffffffffffffffffffffffff1614801561057b57507f000000000000000000000000000000000000000000000000000000000000000073ffffffffffffffffffffffffffffffffffffffff168373ffffffffffffffffffffffffffffffffffffffff16145b801561058957505f8160ff16115b6105c8576040517f08c379a00000000000000000000000000000000000000000000000000000000081526004016105bf90612597565b60405180910390fd5b80600a6105d591906124f3565b82866105e191906125b5565b6105eb9190612623565b945084955050505050505b949350505050565b7f000000000000000000000000000000000000000000000000000000000000000081565b5f5f61063187601286866103f7565b90506012600a61064191906124f3565b7f0000000000000000000000000000000000000000000000000000000000000000600a61066e91906124f3565b86600a61067b91906124f3565b838961068791906125b5565b6106919190612623565b61069b91906125b5565b6106a59190612623565b91505095945050505050565b5f7f0000000000000000000000000000000000000000000000000000000000000000905090565b6106e061159f565b6106ea8282611626565b5050565b5f5f73ffffffffffffffffffffffffffffffffffffffff168273ffffffffffffffffffffffffffffffffffffffff161415801561077857506001151560015f8473ffffffffffffffffffffffffffffffffffffffff1673ffffffffffffffffffffffffffffffffffffffff1681526020019081526020015f205f9054906101000a900460ff161515145b9050919050565b5f5f61078e8988888787610622565b9050848189600a61079f91906124f3565b6107a991906125b5565b6107b39190612623565b915050979650505050505050565b6005602052815f5260405f2081815481106107da575f80fd5b905f5260205f20015f915091509054906101000a900473ffffffffffffffffffffffffffffffffffffffff1681565b5f5f6108188760128686610b3d565b90506012600a61082891906124f3565b7f0000000000000000000000000000000000000000000000000000000000000000600a61085591906124f3565b86600a61086291906124f3565b838961086e91906125b5565b6108789190612623565b61088291906125b5565b61088c9190612623565b91505095945050505050565b6108a061159f565b6108a95f6116b7565b565b5f5f5f9054906101000a900473ffffffffffffffffffffffffffffffffffffffff16905090565b6108da61159f565b60065f8673ffffffffffffffffffffffffffffffffffffffff1673ffffffffffffffffffffffffffffffffffffffff1681526020019081526020015f205f9054906101000a900460ff1615610964576040517f08c379a000000000000000000000000000000000000000000000000000000000815260040161095b9061269d565b60405180910390fd5b838360045f8873ffffffffffffffffffffffffffffffffffffffff1673ffffffffffffffffffffffffffffffffffffffff1681526020019081526020015f2091906109b0929190611da9565b50818160055f8873ffffffffffffffffffffffffffffffffffffffff1673ffffffffffffffffffffffffffffffffffffffff1681526020019081526020015f2091906109fd929190611da9565b50600160065f8773ffffffffffffffffffffffffffffffffffffffff1673ffffffffffffffffffffffffffffffffffffffff1681526020019081526020015f205f6101000a81548160ff0219169083151502179055508473ffffffffffffffffffffffffffffffffffffffff167f7f62a858613430febc57d74cd39ba9acb468281347bb5fe1acabb12482e8905285858585604051610a9f9493929190612777565b60405180910390a25050505050565b6004602052815f5260405f208181548110610ac7575f80fd5b905f5260205f20015f915091509054906101000a900473ffffffffffffffffffffffffffffffffffffffff1681565b601281565b5f5f610b0a8988888787610809565b9050848189600a610b1b91906124f3565b610b2591906125b5565b610b2f9190612623565b915050979650505050505050565b5f7f000000000000000000000000000000000000000000000000000000000000000073ffffffffffffffffffffffffffffffffffffffff168573ffffffffffffffffffffffffffffffffffffffff1603610bf6578473ffffffffffffffffffffffffffffffffffffffff167f5db0211664709a6e813c8a533f05660f4d86d46ea914d072768d780cb75a934c600186604051610bda929190612822565b60405180910390a283600a610bef91906124f3565b9050610dde565b5f8460ff1611610c04575f5ffd5b5f60065f8773ffffffffffffffffffffffffffffffffffffffff1673ffffffffffffffffffffffffffffffffffffffff1681526020019081526020015f205f9054906101000a900460ff1615610c6557610c5e8686610eab565b9050610d89565b84600a610c7291906124f3565b90505f5f5f5f610c828888611778565b505093509350935093508973ffffffffffffffffffffffffffffffffffffffff168473ffffffffffffffffffffffffffffffffffffffff16148015610d1257507f000000000000000000000000000000000000000000000000000000000000000073ffffffffffffffffffffffffffffffffffffffff168373ffffffffffffffffffffffffffffffffffffffff16145b8015610d2057505f8160ff16115b610d5f576040517f08c379a0000000000000000000000000000000000000000000000000000000008152600401610d5690612597565b60405180910390fd5b80600a610d6c91906124f3565b8286610d7891906125b5565b610d829190612623565b9450505050505b8573ffffffffffffffffffffffffffffffffffffffff167f5db0211664709a6e813c8a533f05660f4d86d46ea914d072768d780cb75a934c8287604051610dd1929190612849565b60405180910390a2809150505b949350505050565b610dee61159f565b5f73ffffffffffffffffffffffffffffffffffffffff168173ffffffffffffffffffffffffffffffffffffffff1603610e5e575f6040517f1e4fbdf7000000000000000000000000000000000000000000000000000000008152600401610e5591906120ea565b60405180910390fd5b610e67816116b7565b50565b6006602052805f5260405f205f915054906101000a900460ff1681565b7f000000000000000000000000000000000000000000000000000000000000000081565b5f5f60045f8573ffffffffffffffffffffffffffffffffffffffff1673ffffffffffffffffffffffffffffffffffffffff1681526020019081526020015f20805480602002602001604051908101604052809291908181526020018280548015610f6757602002820191905f5260205f20905b815f9054906101000a900473ffffffffffffffffffffffffffffffffffffffff1673ffffffffffffffffffffffffffffffffffffffff1681526020019060010190808311610f1e575b505050505090505f60055f8673ffffffffffffffffffffffffffffffffffffffff1673ffffffffffffffffffffffffffffffffffffffff1681526020019081526020015f2080548060200260200160405190810160405280929190818152602001828054801561102957602002820191905f5260205f20905b815f9054906101000a900473ffffffffffffffffffffffffffffffffffffffff1673ffffffffffffffffffffffffffffffffffffffff1681526020019060010190808311610fe0575b505050505090505f8151835161103f9190612870565b1161107f576040517f08c379a0000000000000000000000000000000000000000000000000000000008152600401611076906128ed565b60405180910390fd5b5f84600a61108d91906124f3565b90505f5f90505b8351811015611224575f8482815181106110b1576110b061290b565b5b602002602001015190505f8173ffffffffffffffffffffffffffffffffffffffff1663313ce5676040518163ffffffff1660e01b8152600401602060405180830381865afa158015611105573d5f5f3e3d5ffd5b505050506040513d601f19601f82011682018060405250810190611129919061294c565b60ff1690505f8273ffffffffffffffffffffffffffffffffffffffff1663feaf968c6040518163ffffffff1660e01b815260040160a060405180830381865afa158015611178573d5f5f3e3d5ffd5b505050506040513d601f19601f8201168201806040525081019061119c91906129fd565b5050509150505f821180156111b057505f81135b6111ef576040517f08c379a00000000000000000000000000000000000000000000000000000000081526004016111e690612abe565b60405180910390fd5b81600a6111fc9190612adc565b818661120891906125b5565b6112129190612623565b94505050508080600101915050611094565b505f5f90505b82518110156113ba575f8382815181106112475761124661290b565b5b602002602001015190505f8173ffffffffffffffffffffffffffffffffffffffff1663313ce5676040518163ffffffff1660e01b8152600401602060405180830381865afa15801561129b573d5f5f3e3d5ffd5b505050506040513d601f19601f820116820180604052508101906112bf919061294c565b60ff1690505f8273ffffffffffffffffffffffffffffffffffffffff1663feaf968c6040518163ffffffff1660e01b815260040160a060405180830381865afa15801561130e573d5f5f3e3d5ffd5b505050506040513d601f19601f8201168201806040525081019061133291906129fd565b5050509150505f8211801561134657505f81135b611385576040517f08c379a000000000000000000000000000000000000000000000000000000000815260040161137c90612abe565b60405180910390fd5b8082600a6113939190612adc565b8661139e91906125b5565b6113a89190612623565b9450505050808060010191505061122a565b5080935050505092915050565b5f5f5f5f5f5f5f8888905011611412576040517f08c379a000000000000000000000000000000000000000000000000000000000815260040161140990612b70565b60405180910390fd5b5f5f89898101906114239190612cc6565b915091505f5f5f5f5f5f5f888060200190518101906114429190612deb565b96509650965096509650965096506003548714611494576040517f08c379a000000000000000000000000000000000000000000000000000000000815260040161148b90612ef8565b60405180910390fd5b5f86866040516020016114a8929190612f5b565b604051602081830303815290604052805190602001209050816bffffffffffffffffffffffff16426bffffffffffffffffffffffff16111580156115305750826bffffffffffffffffffffffff1660025f8381526020019081526020015f205f9054906101000a90046bffffffffffffffffffffffff166bffffffffffffffffffffffff1611155b61156f576040517f08c379a000000000000000000000000000000000000000000000000000000000815260040161156690612fd0565b60405180910390fd5b6115798a8a611823565b8686868686869f509f509f509f509f509f50505050505050505050509295509295509295565b6115a7611885565b73ffffffffffffffffffffffffffffffffffffffff166115c56108ab565b73ffffffffffffffffffffffffffffffffffffffff1614611624576115e8611885565b6040517f118cdaa700000000000000000000000000000000000000000000000000000000815260040161161b91906120ea565b60405180910390fd5b565b8060015f8473ffffffffffffffffffffffffffffffffffffffff1673ffffffffffffffffffffffffffffffffffffffff1681526020019081526020015f205f6101000a81548160ff0219169083151502179055507f70f1a3dba165402559aaa92407aa69ed152f584fde0bc213bcf1c47acef771b682826040516116ab929190612fee565b60405180910390a15050565b5f5f5f9054906101000a900473ffffffffffffffffffffffffffffffffffffffff169050815f5f6101000a81548173ffffffffffffffffffffffffffffffffffffffff021916908373ffffffffffffffffffffffffffffffffffffffff1602179055508173ffffffffffffffffffffffffffffffffffffffff168173ffffffffffffffffffffffffffffffffffffffff167f8be0079c531659141344cd1fd0a4f28419497f9722a3daafe3b4186f6b6457e060405160405180910390a35050565b5f5f5f5f5f5f5f5f5f5f5f5f61178e8e8e6113c7565b9550955095509550955095508160025f88886040516020016117b1929190612f5b565b6040516020818303038152906040528051906020012081526020019081526020015f205f6101000a8154816bffffffffffffffffffffffff02191690836bffffffffffffffffffffffff1602179055508585858585859b509b509b509b509b509b505050505050509295509295509295565b5f6118366118308461188c565b836118c6565b9050611841816106ee565b611880576040517f08c379a00000000000000000000000000000000000000000000000000000000081526004016118779061305f565b60405180910390fd5b505050565b5f33905090565b5f61189782516118f0565b826040516020016118a99291906130f5565b604051602081830303815290604052805190602001209050919050565b5f5f5f5f6118d486866119ba565b9250925092506118e48282611a0f565b82935050505092915050565b60605f60016118fe84611b71565b0190505f8167ffffffffffffffff81111561191c5761191b612ba2565b5b6040519080825280601f01601f19166020018201604052801561194e5781602001600182028036833780820191505090505b5090505f82602001820190505b6001156119af578080600190039150507f3031323334353637383961626364656600000000000000000000000000000000600a86061a8153600a85816119a4576119a36125f6565b5b0494505f850361195b575b819350505050919050565b5f5f5f60418451036119fa575f5f5f602087015192506040870151915060608701515f1a90506119ec88828585611cc2565b955095509550505050611a08565b5f600285515f1b9250925092505b9250925092565b5f6003811115611a2257611a21613127565b5b826003811115611a3557611a34613127565b5b0315611b6d5760016003811115611a4f57611a4e613127565b5b826003811115611a6257611a61613127565b5b03611a99576040517ff645eedf00000000000000000000000000000000000000000000000000000000815260040160405180910390fd5b60026003811115611aad57611aac613127565b5b826003811115611ac057611abf613127565b5b03611b0457805f1c6040517ffce698f7000000000000000000000000000000000000000000000000000000008152600401611afb9190611fec565b60405180910390fd5b600380811115611b1757611b16613127565b5b826003811115611b2a57611b29613127565b5b03611b6c57806040517fd78bce0c000000000000000000000000000000000000000000000000000000008152600401611b639190613163565b60405180910390fd5b5b5050565b5f5f5f90507a184f03e93ff9f4daa797ed6e38ed64bf6a1f0100000000000000008310611bcd577a184f03e93ff9f4daa797ed6e38ed64bf6a1f0100000000000000008381611bc357611bc26125f6565b5b0492506040810190505b6d04ee2d6d415b85acef81000000008310611c0a576d04ee2d6d415b85acef81000000008381611c0057611bff6125f6565b5b0492506020810190505b662386f26fc100008310611c3957662386f26fc100008381611c2f57611c2e6125f6565b5b0492506010810190505b6305f5e1008310611c62576305f5e1008381611c5857611c576125f6565b5b0492506008810190505b6127108310611c87576127108381611c7d57611c7c6125f6565b5b0492506004810190505b60648310611caa5760648381611ca057611c9f6125f6565b5b0492506002810190505b600a8310611cb9576001810190505b80915050919050565b5f5f5f7f7fffffffffffffffffffffffffffffff5d576e7357a4501ddfe92f46681b20a0845f1c1115611cfe575f600385925092509250611d9f565b5f6001888888886040515f8152602001604052604051611d21949392919061317c565b6020604051602081039080840390855afa158015611d41573d5f5f3e3d5ffd5b5050506020604051035190505f73ffffffffffffffffffffffffffffffffffffffff168173ffffffffffffffffffffffffffffffffffffffff1603611d92575f60015f5f1b93509350935050611d9f565b805f5f5f1b935093509350505b9450945094915050565b828054828255905f5260205f20908101928215611e35579160200282015b82811115611e3457823573ffffffffffffffffffffffffffffffffffffffff16825f6101000a81548173ffffffffffffffffffffffffffffffffffffffff021916908373ffffffffffffffffffffffffffffffffffffffff16021790555091602001919060010190611dc7565b5b509050611e429190611e46565b5090565b5b80821115611e5d575f815f905550600101611e47565b5090565b5f604051905090565b5f5ffd5b5f5ffd5b5f73ffffffffffffffffffffffffffffffffffffffff82169050919050565b5f611e9b82611e72565b9050919050565b611eab81611e91565b8114611eb5575f5ffd5b50565b5f81359050611ec681611ea2565b92915050565b5f60ff82169050919050565b611ee181611ecc565b8114611eeb575f5ffd5b50565b5f81359050611efc81611ed8565b92915050565b5f5ffd5b5f5ffd5b5f5ffd5b5f5f83601f840112611f2357611f22611f02565b5b8235905067ffffffffffffffff811115611f4057611f3f611f06565b5b602083019150836001820283011115611f5c57611f5b611f0a565b5b9250929050565b5f5f5f5f60608587031215611f7b57611f7a611e6a565b5b5f611f8887828801611eb8565b9450506020611f9987828801611eee565b935050604085013567ffffffffffffffff811115611fba57611fb9611e6e565b5b611fc687828801611f0e565b925092505092959194509250565b5f819050919050565b611fe681611fd4565b82525050565b5f602082019050611fff5f830184611fdd565b92915050565b61200e81611ecc565b82525050565b5f6020820190506120275f830184612005565b92915050565b61203681611fd4565b8114612040575f5ffd5b50565b5f813590506120518161202d565b92915050565b5f5f5f5f5f608086880312156120705761206f611e6a565b5b5f61207d88828901611eb8565b955050602061208e88828901612043565b945050604061209f88828901611eee565b935050606086013567ffffffffffffffff8111156120c0576120bf611e6e565b5b6120cc88828901611f0e565b92509250509295509295909350565b6120e481611e91565b82525050565b5f6020820190506120fd5f8301846120db565b92915050565b5f8115159050919050565b61211781612103565b8114612121575f5ffd5b50565b5f813590506121328161210e565b92915050565b5f5f6040838503121561214e5761214d611e6a565b5b5f61215b85828601611eb8565b925050602061216c85828601612124565b9150509250929050565b5f6020828403121561218b5761218a611e6a565b5b5f61219884828501611eb8565b91505092915050565b6121aa81612103565b82525050565b5f6020820190506121c35f8301846121a1565b92915050565b5f5f5f5f5f5f5f60c0888a0312156121e4576121e3611e6a565b5b5f6121f18a828b01611eb8565b97505060206122028a828b01611eee565b96505060406122138a828b01612043565b95505060606122248a828b01611eee565b94505060806122358a828b01612043565b93505060a088013567ffffffffffffffff81111561225657612255611e6e565b5b6122628a828b01611f0e565b925092505092959891949750929550565b5f5f6040838503121561228957612288611e6a565b5b5f61229685828601611eb8565b92505060206122a785828601612043565b9150509250929050565b5f5f83601f8401126122c6576122c5611f02565b5b8235905067ffffffffffffffff8111156122e3576122e2611f06565b5b6020830191508360208202830111156122ff576122fe611f0a565b5b9250929050565b5f5f5f5f5f6060868803121561231f5761231e611e6a565b5b5f61232c88828901611eb8565b955050602086013567ffffffffffffffff81111561234d5761234c611e6e565b5b612359888289016122b1565b9450945050604086013567ffffffffffffffff81111561237c5761237b611e6e565b5b612388888289016122b1565b92509250509295509295909350565b7f4e487b71000000000000000000000000000000000000000000000000000000005f52601160045260245ffd5b5f8160011c9050919050565b5f5f8291508390505b6001851115612419578086048111156123f5576123f4612397565b5b60018516156124045780820291505b8081029050612412856123c4565b94506123d9565b94509492505050565b5f8261243157600190506124ec565b8161243e575f90506124ec565b8160018114612454576002811461245e5761248d565b60019150506124ec565b60ff8411156124705761246f612397565b5b8360020a91508482111561248757612486612397565b5b506124ec565b5060208310610133831016604e8410600b84101617156124c25782820a9050838111156124bd576124bc612397565b5b6124ec565b6124cf84848460016123d0565b925090508184048111156124e6576124e5612397565b5b81810290505b9392505050565b5f6124fd82611fd4565b915061250883611ecc565b92506125357fffffffffffffffffffffffffffffffffffffffffffffffffffffffffffffffff8484612422565b905092915050565b5f82825260208201905092915050565b7f426164206f6666636861696e206f7261636c65206461746121000000000000005f82015250565b5f61258160198361253d565b915061258c8261254d565b602082019050919050565b5f6020820190508181035f8301526125ae81612575565b9050919050565b5f6125bf82611fd4565b91506125ca83611fd4565b92508282026125d881611fd4565b915082820484148315176125ef576125ee612397565b5b5092915050565b7f4e487b71000000000000000000000000000000000000000000000000000000005f52601260045260245ffd5b5f61262d82611fd4565b915061263883611fd4565b925082612648576126476125f6565b5b828204905092915050565b7f4f7261636c6520697320616c72656164792073657421000000000000000000005f82015250565b5f61268760168361253d565b915061269282612653565b602082019050919050565b5f6020820190508181035f8301526126b48161267b565b9050919050565b5f82825260208201905092915050565b5f819050919050565b6126dd81611e91565b82525050565b5f6126ee83836126d4565b60208301905092915050565b5f6127086020840184611eb8565b905092915050565b5f602082019050919050565b5f61272783856126bb565b9350612732826126cb565b805f5b8581101561276a5761274782846126fa565b61275188826126e3565b975061275c83612710565b925050600181019050612735565b5085925050509392505050565b5f6040820190508181035f83015261279081868861271c565b905081810360208301526127a581848661271c565b905095945050505050565b5f819050919050565b5f819050919050565b5f6127dc6127d76127d2846127b0565b6127b9565b611fd4565b9050919050565b6127ec816127c2565b82525050565b5f61280c61280761280284611ecc565b6127b9565b611fd4565b9050919050565b61281c816127f2565b82525050565b5f6040820190506128355f8301856127e3565b6128426020830184612813565b9392505050565b5f60408201905061285c5f830185611fdd565b6128696020830184612813565b9392505050565b5f61287a82611fd4565b915061288583611fd4565b925082820190508082111561289d5761289c612397565b5b92915050565b7f556e737570706f7274656420746f6b656e2100000000000000000000000000005f82015250565b5f6128d760128361253d565b91506128e2826128a3565b602082019050919050565b5f6020820190508181035f830152612904816128cb565b9050919050565b7f4e487b71000000000000000000000000000000000000000000000000000000005f52603260045260245ffd5b5f8151905061294681611ed8565b92915050565b5f6020828403121561296157612960611e6a565b5b5f61296e84828501612938565b91505092915050565b5f69ffffffffffffffffffff82169050919050565b61299581612977565b811461299f575f5ffd5b50565b5f815190506129b08161298c565b92915050565b5f819050919050565b6129c8816129b6565b81146129d2575f5ffd5b50565b5f815190506129e3816129bf565b92915050565b5f815190506129f78161202d565b92915050565b5f5f5f5f5f60a08688031215612a1657612a15611e6a565b5b5f612a23888289016129a2565b9550506020612a34888289016129d5565b9450506040612a45888289016129e9565b9350506060612a56888289016129e9565b9250506080612a67888289016129a2565b9150509295509295909350565b7f426164206f7261636c65206461746121000000000000000000000000000000005f82015250565b5f612aa860108361253d565b9150612ab382612a74565b602082019050919050565b5f6020820190508181035f830152612ad581612a9c565b9050919050565b5f612ae682611fd4565b9150612af183611fd4565b9250612b1e7fffffffffffffffffffffffffffffffffffffffffffffffffffffffffffffffff8484612422565b905092915050565b7f4f6666436861696e4f7261636c653a496e76616c6964206461746121000000005f82015250565b5f612b5a601c8361253d565b9150612b6582612b26565b602082019050919050565b5f6020820190508181035f830152612b8781612b4e565b9050919050565b5f5ffd5b5f601f19601f8301169050919050565b7f4e487b71000000000000000000000000000000000000000000000000000000005f52604160045260245ffd5b612bd882612b92565b810181811067ffffffffffffffff82111715612bf757612bf6612ba2565b5b80604052505050565b5f612c09611e61565b9050612c158282612bcf565b919050565b5f67ffffffffffffffff821115612c3457612c33612ba2565b5b612c3d82612b92565b9050602081019050919050565b828183375f83830152505050565b5f612c6a612c6584612c1a565b612c00565b905082815260208101848484011115612c8657612c85612b8e565b5b612c91848285612c4a565b509392505050565b5f82601f830112612cad57612cac611f02565b5b8135612cbd848260208601612c58565b91505092915050565b5f5f60408385031215612cdc57612cdb611e6a565b5b5f83013567ffffffffffffffff811115612cf957612cf8611e6e565b5b612d0585828601612c99565b925050602083013567ffffffffffffffff811115612d2657612d25611e6e565b5b612d3285828601612c99565b9150509250929050565b5f819050919050565b612d4e81612d3c565b8114612d58575f5ffd5b50565b5f81519050612d6981612d45565b92915050565b5f612d7982611e72565b9050919050565b612d8981612d6f565b8114612d93575f5ffd5b50565b5f81519050612da481612d80565b92915050565b5f6bffffffffffffffffffffffff82169050919050565b612dca81612daa565b8114612dd4575f5ffd5b50565b5f81519050612de581612dc1565b92915050565b5f5f5f5f5f5f5f60e0888a031215612e0657612e05611e6a565b5b5f612e138a828b01612d5b565b9750506020612e248a828b01612d96565b9650506040612e358a828b01612d96565b9550506060612e468a828b016129e9565b9450506080612e578a828b01612938565b93505060a0612e688a828b01612dd7565b92505060c0612e798a828b01612dd7565b91505092959891949750929550565b7f4f6666436861696e4f7261636c653a496e76616c696420545950455f484153485f8201527f2100000000000000000000000000000000000000000000000000000000000000602082015250565b5f612ee260218361253d565b9150612eed82612e88565b604082019050919050565b5f6020820190508181035f830152612f0f81612ed6565b9050919050565b5f8160601b9050919050565b5f612f2c82612f16565b9050919050565b5f612f3d82612f22565b9050919050565b612f55612f5082611e91565b612f33565b82525050565b5f612f668285612f44565b601482019150612f768284612f44565b6014820191508190509392505050565b7f4f6666436861696e4f7261636c653a45787069726564206461746121000000005f82015250565b5f612fba601c8361253d565b9150612fc582612f86565b602082019050919050565b5f6020820190508181035f830152612fe781612fae565b9050919050565b5f6040820190506130015f8301856120db565b61300e60208301846121a1565b9392505050565b7f4f6666436861696e4f7261636c653a4e6f7420617574686f72697a65642100005f82015250565b5f613049601e8361253d565b915061305482613015565b602082019050919050565b5f6020820190508181035f8301526130768161303d565b9050919050565b7f19457468657265756d205369676e6564204d6573736167653a0a000000000000815250565b5f81519050919050565b5f81905092915050565b8281835e5f83830152505050565b5f6130cf826130a3565b6130d981856130ad565b93506130e98185602086016130b7565b80840191505092915050565b5f6130ff8261307d565b601a8201915061310f82856130c5565b915061311b82846130c5565b91508190509392505050565b7f4e487b71000000000000000000000000000000000000000000000000000000005f52602160045260245ffd5b61315d81612d3c565b82525050565b5f6020820190506131765f830184613154565b92915050565b5f60808201905061318f5f830187613154565b61319c6020830186612005565b6131a96040830185613154565b6131b66060830184613154565b9594505050505056fea2646970667358221220c2ef4e5924a6320c64bd9496f46014e0e2ff8c92958c8c2f1e6f9c261890dc8764736f6c634300081d0033",
			"opcodes": "PUSH1 0xC0 PUSH1 0x40 MSTORE PUSH32 0x4E24C8B160AD2B512B9E6BD61624E0C216F7FC373CB977AD891206A7DB1B9DC1 PUSH0 SHL PUSH1 0x3 SSTORE CALLVALUE DUP1 ISZERO PUSH2 0x35 JUMPI PUSH0 PUSH0 REVERT JUMPDEST POP PUSH1 0x40 MLOAD PUSH2 0x35BC CODESIZE SUB DUP1 PUSH2 0x35BC DUP4 CODECOPY DUP2 DUP2 ADD PUSH1 0x40 MSTORE DUP2 ADD SWAP1 PUSH2 0x57 SWAP2 SWAP1 PUSH2 0x2C1 JUMP JUMPDEST PUSH2 0x65 PUSH2 0x19B PUSH1 0x20 SHL PUSH1 0x20 SHR JUMP JUMPDEST PUSH0 PUSH20 0xFFFFFFFFFFFFFFFFFFFFFFFFFFFFFFFFFFFFFFFF AND DUP2 PUSH20 0xFFFFFFFFFFFFFFFFFFFFFFFFFFFFFFFFFFFFFFFF AND SUB PUSH2 0xD5 JUMPI PUSH0 PUSH1 0x40 MLOAD PUSH32 0x1E4FBDF700000000000000000000000000000000000000000000000000000000 DUP2 MSTORE PUSH1 0x4 ADD PUSH2 0xCC SWAP2 SWAP1 PUSH2 0x2FB JUMP JUMPDEST PUSH1 0x40 MLOAD DUP1 SWAP2 SUB SWAP1 REVERT JUMPDEST PUSH2 0xE4 DUP2 PUSH2 0x1A2 PUSH1 0x20 SHL PUSH1 0x20 SHR JUMP JUMPDEST POP DUP1 PUSH20 0xFFFFFFFFFFFFFFFFFFFFFFFFFFFFFFFFFFFFFFFF AND PUSH1 0x80 DUP2 PUSH20 0xFFFFFFFFFFFFFFFFFFFFFFFFFFFFFFFFFFFFFFFF AND DUP2 MSTORE POP POP PUSH1 0x80 MLOAD PUSH20 0xFFFFFFFFFFFFFFFFFFFFFFFFFFFFFFFFFFFFFFFF AND PUSH4 0x313CE567 PUSH1 0x40 MLOAD DUP2 PUSH4 0xFFFFFFFF AND PUSH1 0xE0 SHL DUP2 MSTORE PUSH1 0x4 ADD PUSH1 0x20 PUSH1 0x40 MLOAD DUP1 DUP4 SUB DUP2 DUP7 GAS STATICCALL ISZERO DUP1 ISZERO PUSH2 0x164 JUMPI RETURNDATASIZE PUSH0 PUSH0 RETURNDATACOPY RETURNDATASIZE PUSH0 REVERT JUMPDEST POP POP POP POP PUSH1 0x40 MLOAD RETURNDATASIZE PUSH1 0x1F NOT PUSH1 0x1F DUP3 ADD AND DUP3 ADD DUP1 PUSH1 0x40 MSTORE POP DUP2 ADD SWAP1 PUSH2 0x188 SWAP2 SWAP1 PUSH2 0x34A JUMP JUMPDEST PUSH1 0xFF AND PUSH1 0xA0 DUP2 PUSH1 0xFF AND DUP2 MSTORE POP POP POP PUSH2 0x375 JUMP JUMPDEST PUSH0 CALLER SWAP1 POP SWAP1 JUMP JUMPDEST PUSH0 PUSH0 PUSH0 SWAP1 SLOAD SWAP1 PUSH2 0x100 EXP SWAP1 DIV PUSH20 0xFFFFFFFFFFFFFFFFFFFFFFFFFFFFFFFFFFFFFFFF AND SWAP1 POP DUP2 PUSH0 PUSH0 PUSH2 0x100 EXP DUP2 SLOAD DUP2 PUSH20 0xFFFFFFFFFFFFFFFFFFFFFFFFFFFFFFFFFFFFFFFF MUL NOT AND SWAP1 DUP4 PUSH20 0xFFFFFFFFFFFFFFFFFFFFFFFFFFFFFFFFFFFFFFFF AND MUL OR SWAP1 SSTORE POP DUP2 PUSH20 0xFFFFFFFFFFFFFFFFFFFFFFFFFFFFFFFFFFFFFFFF AND DUP2 PUSH20 0xFFFFFFFFFFFFFFFFFFFFFFFFFFFFFFFFFFFFFFFF AND PUSH32 0x8BE0079C531659141344CD1FD0A4F28419497F9722A3DAAFE3B4186F6B6457E0 PUSH1 0x40 MLOAD PUSH1 0x40 MLOAD DUP1 SWAP2 SUB SWAP1 LOG3 POP POP JUMP JUMPDEST PUSH0 PUSH0 REVERT JUMPDEST PUSH0 PUSH20 0xFFFFFFFFFFFFFFFFFFFFFFFFFFFFFFFFFFFFFFFF DUP3 AND SWAP1 POP SWAP2 SWAP1 POP JUMP JUMPDEST PUSH0 PUSH2 0x290 DUP3 PUSH2 0x267 JUMP JUMPDEST SWAP1 POP SWAP2 SWAP1 POP JUMP JUMPDEST PUSH2 0x2A0 DUP2 PUSH2 0x286 JUMP JUMPDEST DUP2 EQ PUSH2 0x2AA JUMPI PUSH0 PUSH0 REVERT JUMPDEST POP JUMP JUMPDEST PUSH0 DUP2 MLOAD SWAP1 POP PUSH2 0x2BB DUP2 PUSH2 0x297 JUMP JUMPDEST SWAP3 SWAP2 POP POP JUMP JUMPDEST PUSH0 PUSH1 0x20 DUP3 DUP5 SUB SLT ISZERO PUSH2 0x2D6 JUMPI PUSH2 0x2D5 PUSH2 0x263 JUMP JUMPDEST JUMPDEST PUSH0 PUSH2 0x2E3 DUP5 DUP3 DUP6 ADD PUSH2 0x2AD JUMP JUMPDEST SWAP2 POP POP SWAP3 SWAP2 POP POP JUMP JUMPDEST PUSH2 0x2F5 DUP2 PUSH2 0x286 JUMP JUMPDEST DUP3 MSTORE POP POP JUMP JUMPDEST PUSH0 PUSH1 0x20 DUP3 ADD SWAP1 POP PUSH2 0x30E PUSH0 DUP4 ADD DUP5 PUSH2 0x2EC JUMP JUMPDEST SWAP3 SWAP2 POP POP JUMP JUMPDEST PUSH0 PUSH1 0xFF DUP3 AND SWAP1 POP SWAP2 SWAP1 POP JUMP JUMPDEST PUSH2 0x329 DUP2 PUSH2 0x314 JUMP JUMPDEST DUP2 EQ PUSH2 0x333 JUMPI PUSH0 PUSH0 REVERT JUMPDEST POP JUMP JUMPDEST PUSH0 DUP2 MLOAD SWAP1 POP PUSH2 0x344 DUP2 PUSH2 0x320 JUMP JUMPDEST SWAP3 SWAP2 POP POP JUMP JUMPDEST PUSH0 PUSH1 0x20 DUP3 DUP5 SUB SLT ISZERO PUSH2 0x35F JUMPI PUSH2 0x35E PUSH2 0x263 JUMP JUMPDEST JUMPDEST PUSH0 PUSH2 0x36C DUP5 DUP3 DUP6 ADD PUSH2 0x336 JUMP JUMPDEST SWAP2 POP POP SWAP3 SWAP2 POP POP JUMP JUMPDEST PUSH1 0x80 MLOAD PUSH1 0xA0 MLOAD PUSH2 0x31F5 PUSH2 0x3C7 PUSH0 CODECOPY PUSH0 DUP2 DUP2 PUSH2 0x600 ADD MSTORE DUP2 DUP2 PUSH2 0x643 ADD MSTORE PUSH2 0x82A ADD MSTORE PUSH0 DUP2 DUP2 PUSH2 0x3FA ADD MSTORE DUP2 DUP2 PUSH2 0x52D ADD MSTORE DUP2 DUP2 PUSH2 0x6B4 ADD MSTORE DUP2 DUP2 PUSH2 0xB40 ADD MSTORE DUP2 DUP2 PUSH2 0xCC4 ADD MSTORE PUSH2 0xE89 ADD MSTORE PUSH2 0x31F5 PUSH0 RETURN INVALID PUSH1 0x80 PUSH1 0x40 MSTORE CALLVALUE DUP1 ISZERO PUSH2 0xF JUMPI PUSH0 PUSH0 REVERT JUMPDEST POP PUSH1 0x4 CALLDATASIZE LT PUSH2 0x11F JUMPI PUSH0 CALLDATALOAD PUSH1 0xE0 SHR DUP1 PUSH4 0x715018A6 GT PUSH2 0xAB JUMPI DUP1 PUSH4 0xB4E37CF9 GT PUSH2 0x6F JUMPI DUP1 PUSH4 0xB4E37CF9 EQ PUSH2 0x32D JUMPI DUP1 PUSH4 0xBFF734C1 EQ PUSH2 0x35D JUMPI DUP1 PUSH4 0xF2FDE38B EQ PUSH2 0x38D JUMPI DUP1 PUSH4 0xF621A19A EQ PUSH2 0x3A9 JUMPI DUP1 PUSH4 0xFC01D62B EQ PUSH2 0x3D9 JUMPI PUSH2 0x11F JUMP JUMPDEST DUP1 PUSH4 0x715018A6 EQ PUSH2 0x29B JUMPI DUP1 PUSH4 0x8DA5CB5B EQ PUSH2 0x2A5 JUMPI DUP1 PUSH4 0x927B0504 EQ PUSH2 0x2C3 JUMPI DUP1 PUSH4 0x9EF1F7C2 EQ PUSH2 0x2DF JUMPI DUP1 PUSH4 0xAAF5EB68 EQ PUSH2 0x30F JUMPI PUSH2 0x11F JUMP JUMPDEST DUP1 PUSH4 0x31CB6105 GT PUSH2 0xF2 JUMPI DUP1 PUSH4 0x31CB6105 EQ PUSH2 0x1BF JUMPI DUP1 PUSH4 0x49045E16 EQ PUSH2 0x1DB JUMPI DUP1 PUSH4 0x4BBF415C EQ PUSH2 0x20B JUMPI DUP1 PUSH4 0x5D523216 EQ PUSH2 0x23B JUMPI DUP1 PUSH4 0x6A089215 EQ PUSH2 0x26B JUMPI PUSH2 0x11F JUMP JUMPDEST DUP1 PUSH4 0xCD07409 EQ PUSH2 0x123 JUMPI DUP1 PUSH4 0x150E89CB EQ PUSH2 0x153 JUMPI DUP1 PUSH4 0x1FF8D6DC EQ PUSH2 0x171 JUMPI DUP1 PUSH4 0x217A4B70 EQ PUSH2 0x1A1 JUMPI JUMPDEST PUSH0 PUSH0 REVERT JUMPDEST PUSH2 0x13D PUSH1 0x4 DUP1 CALLDATASIZE SUB DUP2 ADD SWAP1 PUSH2 0x138 SWAP2 SWAP1 PUSH2 0x1F63 JUMP JUMPDEST PUSH2 0x3F7 JUMP JUMPDEST PUSH1 0x40 MLOAD PUSH2 0x14A SWAP2 SWAP1 PUSH2 0x1FEC JUMP JUMPDEST PUSH1 0x40 MLOAD DUP1 SWAP2 SUB SWAP1 RETURN JUMPDEST PUSH2 0x15B PUSH2 0x5FE JUMP JUMPDEST PUSH1 0x40 MLOAD PUSH2 0x168 SWAP2 SWAP1 PUSH2 0x2014 JUMP JUMPDEST PUSH1 0x40 MLOAD DUP1 SWAP2 SUB SWAP1 RETURN JUMPDEST PUSH2 0x18B PUSH1 0x4 DUP1 CALLDATASIZE SUB DUP2 ADD SWAP1 PUSH2 0x186 SWAP2 SWAP1 PUSH2 0x2057 JUMP JUMPDEST PUSH2 0x622 JUMP JUMPDEST PUSH1 0x40 MLOAD PUSH2 0x198 SWAP2 SWAP1 PUSH2 0x1FEC JUMP JUMPDEST PUSH1 0x40 MLOAD DUP1 SWAP2 SUB SWAP1 RETURN JUMPDEST PUSH2 0x1A9 PUSH2 0x6B1 JUMP JUMPDEST PUSH1 0x40 MLOAD PUSH2 0x1B6 SWAP2 SWAP1 PUSH2 0x20EA JUMP JUMPDEST PUSH1 0x40 MLOAD DUP1 SWAP2 SUB SWAP1 RETURN JUMPDEST PUSH2 0x1D9 PUSH1 0x4 DUP1 CALLDATASIZE SUB DUP2 ADD SWAP1 PUSH2 0x1D4 SWAP2 SWAP1 PUSH2 0x2138 JUMP JUMPDEST PUSH2 0x6D8 JUMP JUMPDEST STOP JUMPDEST PUSH2 0x1F5 PUSH1 0x4 DUP1 CALLDATASIZE SUB DUP2 ADD SWAP1 PUSH2 0x1F0 SWAP2 SWAP1 PUSH2 0x2176 JUMP JUMPDEST PUSH2 0x6EE JUMP JUMPDEST PUSH1 0x40 MLOAD PUSH2 0x202 SWAP2 SWAP1 PUSH2 0x21B0 JUMP JUMPDEST PUSH1 0x40 MLOAD DUP1 SWAP2 SUB SWAP1 RETURN JUMPDEST PUSH2 0x225 PUSH1 0x4 DUP1 CALLDATASIZE SUB DUP2 ADD SWAP1 PUSH2 0x220 SWAP2 SWAP1 PUSH2 0x21C9 JUMP JUMPDEST PUSH2 0x77F JUMP JUMPDEST PUSH1 0x40 MLOAD PUSH2 0x232 SWAP2 SWAP1 PUSH2 0x1FEC JUMP JUMPDEST PUSH1 0x40 MLOAD DUP1 SWAP2 SUB SWAP1 RETURN JUMPDEST PUSH2 0x255 PUSH1 0x4 DUP1 CALLDATASIZE SUB DUP2 ADD SWAP1 PUSH2 0x250 SWAP2 SWAP1 PUSH2 0x2273 JUMP JUMPDEST PUSH2 0x7C1 JUMP JUMPDEST PUSH1 0x40 MLOAD PUSH2 0x262 SWAP2 SWAP1 PUSH2 0x20EA JUMP JUMPDEST PUSH1 0x40 MLOAD DUP1 SWAP2 SUB SWAP1 RETURN JUMPDEST PUSH2 0x285 PUSH1 0x4 DUP1 CALLDATASIZE SUB DUP2 ADD SWAP1 PUSH2 0x280 SWAP2 SWAP1 PUSH2 0x2057 JUMP JUMPDEST PUSH2 0x809 JUMP JUMPDEST PUSH1 0x40 MLOAD PUSH2 0x292 SWAP2 SWAP1 PUSH2 0x1FEC JUMP JUMPDEST PUSH1 0x40 MLOAD DUP1 SWAP2 SUB SWAP1 RETURN JUMPDEST PUSH2 0x2A3 PUSH2 0x898 JUMP JUMPDEST STOP JUMPDEST PUSH2 0x2AD PUSH2 0x8AB JUMP JUMPDEST PUSH1 0x40 MLOAD PUSH2 0x2BA SWAP2 SWAP1 PUSH2 0x20EA JUMP JUMPDEST PUSH1 0x40 MLOAD DUP1 SWAP2 SUB SWAP1 RETURN JUMPDEST PUSH2 0x2DD PUSH1 0x4 DUP1 CALLDATASIZE SUB DUP2 ADD SWAP1 PUSH2 0x2D8 SWAP2 SWAP1 PUSH2 0x2306 JUMP JUMPDEST PUSH2 0x8D2 JUMP JUMPDEST STOP JUMPDEST PUSH2 0x2F9 PUSH1 0x4 DUP1 CALLDATASIZE SUB DUP2 ADD SWAP1 PUSH2 0x2F4 SWAP2 SWAP1 PUSH2 0x2273 JUMP JUMPDEST PUSH2 0xAAE JUMP JUMPDEST PUSH1 0x40 MLOAD PUSH2 0x306 SWAP2 SWAP1 PUSH2 0x20EA JUMP JUMPDEST PUSH1 0x40 MLOAD DUP1 SWAP2 SUB SWAP1 RETURN JUMPDEST PUSH2 0x317 PUSH2 0xAF6 JUMP JUMPDEST PUSH1 0x40 MLOAD PUSH2 0x324 SWAP2 SWAP1 PUSH2 0x2014 JUMP JUMPDEST PUSH1 0x40 MLOAD DUP1 SWAP2 SUB SWAP1 RETURN JUMPDEST PUSH2 0x347 PUSH1 0x4 DUP1 CALLDATASIZE SUB DUP2 ADD SWAP1 PUSH2 0x342 SWAP2 SWAP1 PUSH2 0x21C9 JUMP JUMPDEST PUSH2 0xAFB JUMP JUMPDEST PUSH1 0x40 MLOAD PUSH2 0x354 SWAP2 SWAP1 PUSH2 0x1FEC JUMP JUMPDEST PUSH1 0x40 MLOAD DUP1 SWAP2 SUB SWAP1 RETURN JUMPDEST PUSH2 0x377 PUSH1 0x4 DUP1 CALLDATASIZE SUB DUP2 ADD SWAP1 PUSH2 0x372 SWAP2 SWAP1 PUSH2 0x1F63 JUMP JUMPDEST PUSH2 0xB3D JUMP JUMPDEST PUSH1 0x40 MLOAD PUSH2 0x384 SWAP2 SWAP1 PUSH2 0x1FEC JUMP JUMPDEST PUSH1 0x40 MLOAD DUP1 SWAP2 SUB SWAP1 RETURN JUMPDEST PUSH2 0x3A7 PUSH1 0x4 DUP1 CALLDATASIZE SUB DUP2 ADD SWAP1 PUSH2 0x3A2 SWAP2 SWAP1 PUSH2 0x2176 JUMP JUMPDEST PUSH2 0xDE6 JUMP JUMPDEST STOP JUMPDEST PUSH2 0x3C3 PUSH1 0x4 DUP1 CALLDATASIZE SUB DUP2 ADD SWAP1 PUSH2 0x3BE SWAP2 SWAP1 PUSH2 0x2176 JUMP JUMPDEST PUSH2 0xE6A JUMP JUMPDEST PUSH1 0x40 MLOAD PUSH2 0x3D0 SWAP2 SWAP1 PUSH2 0x21B0 JUMP JUMPDEST PUSH1 0x40 MLOAD DUP1 SWAP2 SUB SWAP1 RETURN JUMPDEST PUSH2 0x3E1 PUSH2 0xE87 JUMP JUMPDEST PUSH1 0x40 MLOAD PUSH2 0x3EE SWAP2 SWAP1 PUSH2 0x20EA JUMP JUMPDEST PUSH1 0x40 MLOAD DUP1 SWAP2 SUB SWAP1 RETURN JUMPDEST PUSH0 PUSH32 0x0 PUSH20 0xFFFFFFFFFFFFFFFFFFFFFFFFFFFFFFFFFFFFFFFF AND DUP6 PUSH20 0xFFFFFFFFFFFFFFFFFFFFFFFFFFFFFFFFFFFFFFFF AND SUB PUSH2 0x45F JUMPI DUP4 PUSH1 0xA PUSH2 0x458 SWAP2 SWAP1 PUSH2 0x24F3 JUMP JUMPDEST SWAP1 POP PUSH2 0x5F6 JUMP JUMPDEST PUSH0 DUP5 PUSH1 0xFF AND GT PUSH2 0x46D JUMPI PUSH0 PUSH0 REVERT JUMPDEST PUSH1 0x6 PUSH0 DUP7 PUSH20 0xFFFFFFFFFFFFFFFFFFFFFFFFFFFFFFFFFFFFFFFF AND PUSH20 0xFFFFFFFFFFFFFFFFFFFFFFFFFFFFFFFFFFFFFFFF AND DUP2 MSTORE PUSH1 0x20 ADD SWAP1 DUP2 MSTORE PUSH1 0x20 ADD PUSH0 KECCAK256 PUSH0 SWAP1 SLOAD SWAP1 PUSH2 0x100 EXP SWAP1 DIV PUSH1 0xFF AND ISZERO PUSH2 0x4CD JUMPI PUSH2 0x4C6 DUP6 DUP6 PUSH2 0xEAB JUMP JUMPDEST SWAP1 POP PUSH2 0x5F6 JUMP JUMPDEST PUSH0 DUP5 PUSH1 0xA PUSH2 0x4DB SWAP2 SWAP1 PUSH2 0x24F3 JUMP JUMPDEST SWAP1 POP PUSH0 PUSH0 PUSH0 PUSH0 PUSH2 0x4EB DUP9 DUP9 PUSH2 0x13C7 JUMP JUMPDEST POP POP SWAP4 POP SWAP4 POP SWAP4 POP SWAP4 POP DUP10 PUSH20 0xFFFFFFFFFFFFFFFFFFFFFFFFFFFFFFFFFFFFFFFF AND DUP5 PUSH20 0xFFFFFFFFFFFFFFFFFFFFFFFFFFFFFFFFFFFFFFFF AND EQ DUP1 ISZERO PUSH2 0x57B JUMPI POP PUSH32 0x0 PUSH20 0xFFFFFFFFFFFFFFFFFFFFFFFFFFFFFFFFFFFFFFFF AND DUP4 PUSH20 0xFFFFFFFFFFFFFFFFFFFFFFFFFFFFFFFFFFFFFFFF AND EQ JUMPDEST DUP1 ISZERO PUSH2 0x589 JUMPI POP PUSH0 DUP2 PUSH1 0xFF AND GT JUMPDEST PUSH2 0x5C8 JUMPI PUSH1 0x40 MLOAD PUSH32 0x8C379A000000000000000000000000000000000000000000000000000000000 DUP2 MSTORE PUSH1 0x4 ADD PUSH2 0x5BF SWAP1 PUSH2 0x2597 JUMP JUMPDEST PUSH1 0x40 MLOAD DUP1 SWAP2 SUB SWAP1 REVERT JUMPDEST DUP1 PUSH1 0xA PUSH2 0x5D5 SWAP2 SWAP1 PUSH2 0x24F3 JUMP JUMPDEST DUP3 DUP7 PUSH2 0x5E1 SWAP2 SWAP1 PUSH2 0x25B5 JUMP JUMPDEST PUSH2 0x5EB SWAP2 SWAP1 PUSH2 0x2623 JUMP JUMPDEST SWAP5 POP DUP5 SWAP6 POP POP POP POP POP POP JUMPDEST SWAP5 SWAP4 POP POP POP POP JUMP JUMPDEST PUSH32 0x0 DUP2 JUMP JUMPDEST PUSH0 PUSH0 PUSH2 0x631 DUP8 PUSH1 0x12 DUP7 DUP7 PUSH2 0x3F7 JUMP JUMPDEST SWAP1 POP PUSH1 0x12 PUSH1 0xA PUSH2 0x641 SWAP2 SWAP1 PUSH2 0x24F3 JUMP JUMPDEST PUSH32 0x0 PUSH1 0xA PUSH2 0x66E SWAP2 SWAP1 PUSH2 0x24F3 JUMP JUMPDEST DUP7 PUSH1 0xA PUSH2 0x67B SWAP2 SWAP1 PUSH2 0x24F3 JUMP JUMPDEST DUP4 DUP10 PUSH2 0x687 SWAP2 SWAP1 PUSH2 0x25B5 JUMP JUMPDEST PUSH2 0x691 SWAP2 SWAP1 PUSH2 0x2623 JUMP JUMPDEST PUSH2 0x69B SWAP2 SWAP1 PUSH2 0x25B5 JUMP JUMPDEST PUSH2 0x6A5 SWAP2 SWAP1 PUSH2 0x2623 JUMP JUMPDEST SWAP2 POP POP SWAP6 SWAP5 POP POP POP POP POP JUMP JUMPDEST PUSH0 PUSH32 0x0 SWAP1 POP SWAP1 JUMP JUMPDEST PUSH2 0x6E0 PUSH2 0x159F JUMP JUMPDEST PUSH2 0x6EA DUP3 DUP3 PUSH2 0x1626 JUMP JUMPDEST POP POP JUMP JUMPDEST PUSH0 PUSH0 PUSH20 0xFFFFFFFFFFFFFFFFFFFFFFFFFFFFFFFFFFFFFFFF AND DUP3 PUSH20 0xFFFFFFFFFFFFFFFFFFFFFFFFFFFFFFFFFFFFFFFF AND EQ ISZERO DUP1 ISZERO PUSH2 0x778 JUMPI POP PUSH1 0x1 ISZERO ISZERO PUSH1 0x1 PUSH0 DUP5 PUSH20 0xFFFFFFFFFFFFFFFFFFFFFFFFFFFFFFFFFFFFFFFF AND PUSH20 0xFFFFFFFFFFFFFFFFFFFFFFFFFFFFFFFFFFFFFFFF AND DUP2 MSTORE PUSH1 0x20 ADD SWAP1 DUP2 MSTORE PUSH1 0x20 ADD PUSH0 KECCAK256 PUSH0 SWAP1 SLOAD SWAP1 PUSH2 0x100 EXP SWAP1 DIV PUSH1 0xFF AND ISZERO ISZERO EQ JUMPDEST SWAP1 POP SWAP2 SWAP1 POP JUMP JUMPDEST PUSH0 PUSH0 PUSH2 0x78E DUP10 DUP9 DUP9 DUP8 DUP8 PUSH2 0x622 JUMP JUMPDEST SWAP1 POP DUP5 DUP2 DUP10 PUSH1 0xA PUSH2 0x79F SWAP2 SWAP1 PUSH2 0x24F3 JUMP JUMPDEST PUSH2 0x7A9 SWAP2 SWAP1 PUSH2 0x25B5 JUMP JUMPDEST PUSH2 0x7B3 SWAP2 SWAP1 PUSH2 0x2623 JUMP JUMPDEST SWAP2 POP POP SWAP8 SWAP7 POP POP POP POP POP POP POP JUMP JUMPDEST PUSH1 0x5 PUSH1 0x20 MSTORE DUP2 PUSH0 MSTORE PUSH1 0x40 PUSH0 KECCAK256 DUP2 DUP2 SLOAD DUP2 LT PUSH2 0x7DA JUMPI PUSH0 DUP1 REVERT JUMPDEST SWAP1 PUSH0 MSTORE PUSH1 0x20 PUSH0 KECCAK256 ADD PUSH0 SWAP2 POP SWAP2 POP SWAP1 SLOAD SWAP1 PUSH2 0x100 EXP SWAP1 DIV PUSH20 0xFFFFFFFFFFFFFFFFFFFFFFFFFFFFFFFFFFFFFFFF AND DUP2 JUMP JUMPDEST PUSH0 PUSH0 PUSH2 0x818 DUP8 PUSH1 0x12 DUP7 DUP7 PUSH2 0xB3D JUMP JUMPDEST SWAP1 POP PUSH1 0x12 PUSH1 0xA PUSH2 0x828 SWAP2 SWAP1 PUSH2 0x24F3 JUMP JUMPDEST PUSH32 0x0 PUSH1 0xA PUSH2 0x855 SWAP2 SWAP1 PUSH2 0x24F3 JUMP JUMPDEST DUP7 PUSH1 0xA PUSH2 0x862 SWAP2 SWAP1 PUSH2 0x24F3 JUMP JUMPDEST DUP4 DUP10 PUSH2 0x86E SWAP2 SWAP1 PUSH2 0x25B5 JUMP JUMPDEST PUSH2 0x878 SWAP2 SWAP1 PUSH2 0x2623 JUMP JUMPDEST PUSH2 0x882 SWAP2 SWAP1 PUSH2 0x25B5 JUMP JUMPDEST PUSH2 0x88C SWAP2 SWAP1 PUSH2 0x2623 JUMP JUMPDEST SWAP2 POP POP SWAP6 SWAP5 POP POP POP POP POP JUMP JUMPDEST PUSH2 0x8A0 PUSH2 0x159F JUMP JUMPDEST PUSH2 0x8A9 PUSH0 PUSH2 0x16B7 JUMP JUMPDEST JUMP JUMPDEST PUSH0 PUSH0 PUSH0 SWAP1 SLOAD SWAP1 PUSH2 0x100 EXP SWAP1 DIV PUSH20 0xFFFFFFFFFFFFFFFFFFFFFFFFFFFFFFFFFFFFFFFF AND SWAP1 POP SWAP1 JUMP JUMPDEST PUSH2 0x8DA PUSH2 0x159F JUMP JUMPDEST PUSH1 0x6 PUSH0 DUP7 PUSH20 0xFFFFFFFFFFFFFFFFFFFFFFFFFFFFFFFFFFFFFFFF AND PUSH20 0xFFFFFFFFFFFFFFFFFFFFFFFFFFFFFFFFFFFFFFFF AND DUP2 MSTORE PUSH1 0x20 ADD SWAP1 DUP2 MSTORE PUSH1 0x20 ADD PUSH0 KECCAK256 PUSH0 SWAP1 SLOAD SWAP1 PUSH2 0x100 EXP SWAP1 DIV PUSH1 0xFF AND ISZERO PUSH2 0x964 JUMPI PUSH1 0x40 MLOAD PUSH32 0x8C379A000000000000000000000000000000000000000000000000000000000 DUP2 MSTORE PUSH1 0x4 ADD PUSH2 0x95B SWAP1 PUSH2 0x269D JUMP JUMPDEST PUSH1 0x40 MLOAD DUP1 SWAP2 SUB SWAP1 REVERT JUMPDEST DUP4 DUP4 PUSH1 0x4 PUSH0 DUP9 PUSH20 0xFFFFFFFFFFFFFFFFFFFFFFFFFFFFFFFFFFFFFFFF AND PUSH20 0xFFFFFFFFFFFFFFFFFFFFFFFFFFFFFFFFFFFFFFFF AND DUP2 MSTORE PUSH1 0x20 ADD SWAP1 DUP2 MSTORE PUSH1 0x20 ADD PUSH0 KECCAK256 SWAP2 SWAP1 PUSH2 0x9B0 SWAP3 SWAP2 SWAP1 PUSH2 0x1DA9 JUMP JUMPDEST POP DUP2 DUP2 PUSH1 0x5 PUSH0 DUP9 PUSH20 0xFFFFFFFFFFFFFFFFFFFFFFFFFFFFFFFFFFFFFFFF AND PUSH20 0xFFFFFFFFFFFFFFFFFFFFFFFFFFFFFFFFFFFFFFFF AND DUP2 MSTORE PUSH1 0x20 ADD SWAP1 DUP2 MSTORE PUSH1 0x20 ADD PUSH0 KECCAK256 SWAP2 SWAP1 PUSH2 0x9FD SWAP3 SWAP2 SWAP1 PUSH2 0x1DA9 JUMP JUMPDEST POP PUSH1 0x1 PUSH1 0x6 PUSH0 DUP8 PUSH20 0xFFFFFFFFFFFFFFFFFFFFFFFFFFFFFFFFFFFFFFFF AND PUSH20 0xFFFFFFFFFFFFFFFFFFFFFFFFFFFFFFFFFFFFFFFF AND DUP2 MSTORE PUSH1 0x20 ADD SWAP1 DUP2 MSTORE PUSH1 0x20 ADD PUSH0 KECCAK256 PUSH0 PUSH2 0x100 EXP DUP2 SLOAD DUP2 PUSH1 0xFF MUL NOT AND SWAP1 DUP4 ISZERO ISZERO MUL OR SWAP1 SSTORE POP DUP5 PUSH20 0xFFFFFFFFFFFFFFFFFFFFFFFFFFFFFFFFFFFFFFFF AND PUSH32 0x7F62A858613430FEBC57D74CD39BA9ACB468281347BB5FE1ACABB12482E89052 DUP6 DUP6 DUP6 DUP6 PUSH1 0x40 MLOAD PUSH2 0xA9F SWAP5 SWAP4 SWAP3 SWAP2 SWAP1 PUSH2 0x2777 JUMP JUMPDEST PUSH1 0x40 MLOAD DUP1 SWAP2 SUB SWAP1 LOG2 POP POP POP POP POP JUMP JUMPDEST PUSH1 0x4 PUSH1 0x20 MSTORE DUP2 PUSH0 MSTORE PUSH1 0x40 PUSH0 KECCAK256 DUP2 DUP2 SLOAD DUP2 LT PUSH2 0xAC7 JUMPI PUSH0 DUP1 REVERT JUMPDEST SWAP1 PUSH0 MSTORE PUSH1 0x20 PUSH0 KECCAK256 ADD PUSH0 SWAP2 POP SWAP2 POP SWAP1 SLOAD SWAP1 PUSH2 0x100 EXP SWAP1 DIV PUSH20 0xFFFFFFFFFFFFFFFFFFFFFFFFFFFFFFFFFFFFFFFF AND DUP2 JUMP JUMPDEST PUSH1 0x12 DUP2 JUMP JUMPDEST PUSH0 PUSH0 PUSH2 0xB0A DUP10 DUP9 DUP9 DUP8 DUP8 PUSH2 0x809 JUMP JUMPDEST SWAP1 POP DUP5 DUP2 DUP10 PUSH1 0xA PUSH2 0xB1B SWAP2 SWAP1 PUSH2 0x24F3 JUMP JUMPDEST PUSH2 0xB25 SWAP2 SWAP1 PUSH2 0x25B5 JUMP JUMPDEST PUSH2 0xB2F SWAP2 SWAP1 PUSH2 0x2623 JUMP JUMPDEST SWAP2 POP POP SWAP8 SWAP7 POP POP POP POP POP POP POP JUMP JUMPDEST PUSH0 PUSH32 0x0 PUSH20 0xFFFFFFFFFFFFFFFFFFFFFFFFFFFFFFFFFFFFFFFF AND DUP6 PUSH20 0xFFFFFFFFFFFFFFFFFFFFFFFFFFFFFFFFFFFFFFFF AND SUB PUSH2 0xBF6 JUMPI DUP5 PUSH20 0xFFFFFFFFFFFFFFFFFFFFFFFFFFFFFFFFFFFFFFFF AND PUSH32 0x5DB0211664709A6E813C8A533F05660F4D86D46EA914D072768D780CB75A934C PUSH1 0x1 DUP7 PUSH1 0x40 MLOAD PUSH2 0xBDA SWAP3 SWAP2 SWAP1 PUSH2 0x2822 JUMP JUMPDEST PUSH1 0x40 MLOAD DUP1 SWAP2 SUB SWAP1 LOG2 DUP4 PUSH1 0xA PUSH2 0xBEF SWAP2 SWAP1 PUSH2 0x24F3 JUMP JUMPDEST SWAP1 POP PUSH2 0xDDE JUMP JUMPDEST PUSH0 DUP5 PUSH1 0xFF AND GT PUSH2 0xC04 JUMPI PUSH0 PUSH0 REVERT JUMPDEST PUSH0 PUSH1 0x6 PUSH0 DUP8 PUSH20 0xFFFFFFFFFFFFFFFFFFFFFFFFFFFFFFFFFFFFFFFF AND PUSH20 0xFFFFFFFFFFFFFFFFFFFFFFFFFFFFFFFFFFFFFFFF AND DUP2 MSTORE PUSH1 0x20 ADD SWAP1 DUP2 MSTORE PUSH1 0x20 ADD PUSH0 KECCAK256 PUSH0 SWAP1 SLOAD SWAP1 PUSH2 0x100 EXP SWAP1 DIV PUSH1 0xFF AND ISZERO PUSH2 0xC65 JUMPI PUSH2 0xC5E DUP7 DUP7 PUSH2 0xEAB JUMP JUMPDEST SWAP1 POP PUSH2 0xD89 JUMP JUMPDEST DUP5 PUSH1 0xA PUSH2 0xC72 SWAP2 SWAP1 PUSH2 0x24F3 JUMP JUMPDEST SWAP1 POP PUSH0 PUSH0 PUSH0 PUSH0 PUSH2 0xC82 DUP9 DUP9 PUSH2 0x1778 JUMP JUMPDEST POP POP SWAP4 POP SWAP4 POP SWAP4 POP SWAP4 POP DUP10 PUSH20 0xFFFFFFFFFFFFFFFFFFFFFFFFFFFFFFFFFFFFFFFF AND DUP5 PUSH20 0xFFFFFFFFFFFFFFFFFFFFFFFFFFFFFFFFFFFFFFFF AND EQ DUP1 ISZERO PUSH2 0xD12 JUMPI POP PUSH32 0x0 PUSH20 0xFFFFFFFFFFFFFFFFFFFFFFFFFFFFFFFFFFFFFFFF AND DUP4 PUSH20 0xFFFFFFFFFFFFFFFFFFFFFFFFFFFFFFFFFFFFFFFF AND EQ JUMPDEST DUP1 ISZERO PUSH2 0xD20 JUMPI POP PUSH0 DUP2 PUSH1 0xFF AND GT JUMPDEST PUSH2 0xD5F JUMPI PUSH1 0x40 MLOAD PUSH32 0x8C379A000000000000000000000000000000000000000000000000000000000 DUP2 MSTORE PUSH1 0x4 ADD PUSH2 0xD56 SWAP1 PUSH2 0x2597 JUMP JUMPDEST PUSH1 0x40 MLOAD DUP1 SWAP2 SUB SWAP1 REVERT JUMPDEST DUP1 PUSH1 0xA PUSH2 0xD6C SWAP2 SWAP1 PUSH2 0x24F3 JUMP JUMPDEST DUP3 DUP7 PUSH2 0xD78 SWAP2 SWAP1 PUSH2 0x25B5 JUMP JUMPDEST PUSH2 0xD82 SWAP2 SWAP1 PUSH2 0x2623 JUMP JUMPDEST SWAP5 POP POP POP POP POP JUMPDEST DUP6 PUSH20 0xFFFFFFFFFFFFFFFFFFFFFFFFFFFFFFFFFFFFFFFF AND PUSH32 0x5DB0211664709A6E813C8A533F05660F4D86D46EA914D072768D780CB75A934C DUP3 DUP8 PUSH1 0x40 MLOAD PUSH2 0xDD1 SWAP3 SWAP2 SWAP1 PUSH2 0x2849 JUMP JUMPDEST PUSH1 0x40 MLOAD DUP1 SWAP2 SUB SWAP1 LOG2 DUP1 SWAP2 POP POP JUMPDEST SWAP5 SWAP4 POP POP POP POP JUMP JUMPDEST PUSH2 0xDEE PUSH2 0x159F JUMP JUMPDEST PUSH0 PUSH20 0xFFFFFFFFFFFFFFFFFFFFFFFFFFFFFFFFFFFFFFFF AND DUP2 PUSH20 0xFFFFFFFFFFFFFFFFFFFFFFFFFFFFFFFFFFFFFFFF AND SUB PUSH2 0xE5E JUMPI PUSH0 PUSH1 0x40 MLOAD PUSH32 0x1E4FBDF700000000000000000000000000000000000000000000000000000000 DUP2 MSTORE PUSH1 0x4 ADD PUSH2 0xE55 SWAP2 SWAP1 PUSH2 0x20EA JUMP JUMPDEST PUSH1 0x40 MLOAD DUP1 SWAP2 SUB SWAP1 REVERT JUMPDEST PUSH2 0xE67 DUP2 PUSH2 0x16B7 JUMP JUMPDEST POP JUMP JUMPDEST PUSH1 0x6 PUSH1 0x20 MSTORE DUP1 PUSH0 MSTORE PUSH1 0x40 PUSH0 KECCAK256 PUSH0 SWAP2 POP SLOAD SWAP1 PUSH2 0x100 EXP SWAP1 DIV PUSH1 0xFF AND DUP2 JUMP JUMPDEST PUSH32 0x0 DUP2 JUMP JUMPDEST PUSH0 PUSH0 PUSH1 0x4 PUSH0 DUP6 PUSH20 0xFFFFFFFFFFFFFFFFFFFFFFFFFFFFFFFFFFFFFFFF AND PUSH20 0xFFFFFFFFFFFFFFFFFFFFFFFFFFFFFFFFFFFFFFFF AND DUP2 MSTORE PUSH1 0x20 ADD SWAP1 DUP2 MSTORE PUSH1 0x20 ADD PUSH0 KECCAK256 DUP1 SLOAD DUP1 PUSH1 0x20 MUL PUSH1 0x20 ADD PUSH1 0x40 MLOAD SWAP1 DUP2 ADD PUSH1 0x40 MSTORE DUP1 SWAP3 SWAP2 SWAP1 DUP2 DUP2 MSTORE PUSH1 0x20 ADD DUP3 DUP1 SLOAD DUP1 ISZERO PUSH2 0xF67 JUMPI PUSH1 0x20 MUL DUP3 ADD SWAP2 SWAP1 PUSH0 MSTORE PUSH1 0x20 PUSH0 KECCAK256 SWAP1 JUMPDEST DUP2 PUSH0 SWAP1 SLOAD SWAP1 PUSH2 0x100 EXP SWAP1 DIV PUSH20 0xFFFFFFFFFFFFFFFFFFFFFFFFFFFFFFFFFFFFFFFF AND PUSH20 0xFFFFFFFFFFFFFFFFFFFFFFFFFFFFFFFFFFFFFFFF AND DUP2 MSTORE PUSH1 0x20 ADD SWAP1 PUSH1 0x1 ADD SWAP1 DUP1 DUP4 GT PUSH2 0xF1E JUMPI JUMPDEST POP POP POP POP POP SWAP1 POP PUSH0 PUSH1 0x5 PUSH0 DUP7 PUSH20 0xFFFFFFFFFFFFFFFFFFFFFFFFFFFFFFFFFFFFFFFF AND PUSH20 0xFFFFFFFFFFFFFFFFFFFFFFFFFFFFFFFFFFFFFFFF AND DUP2 MSTORE PUSH1 0x20 ADD SWAP1 DUP2 MSTORE PUSH1 0x20 ADD PUSH0 KECCAK256 DUP1 SLOAD DUP1 PUSH1 0x20 MUL PUSH1 0x20 ADD PUSH1 0x40 MLOAD SWAP1 DUP2 ADD PUSH1 0x40 MSTORE DUP1 SWAP3 SWAP2 SWAP1 DUP2 DUP2 MSTORE PUSH1 0x20 ADD DUP3 DUP1 SLOAD DUP1 ISZERO PUSH2 0x1029 JUMPI PUSH1 0x20 MUL DUP3 ADD SWAP2 SWAP1 PUSH0 MSTORE PUSH1 0x20 PUSH0 KECCAK256 SWAP1 JUMPDEST DUP2 PUSH0 SWAP1 SLOAD SWAP1 PUSH2 0x100 EXP SWAP1 DIV PUSH20 0xFFFFFFFFFFFFFFFFFFFFFFFFFFFFFFFFFFFFFFFF AND PUSH20 0xFFFFFFFFFFFFFFFFFFFFFFFFFFFFFFFFFFFFFFFF AND DUP2 MSTORE PUSH1 0x20 ADD SWAP1 PUSH1 0x1 ADD SWAP1 DUP1 DUP4 GT PUSH2 0xFE0 JUMPI JUMPDEST POP POP POP POP POP SWAP1 POP PUSH0 DUP2 MLOAD DUP4 MLOAD PUSH2 0x103F SWAP2 SWAP1 PUSH2 0x2870 JUMP JUMPDEST GT PUSH2 0x107F JUMPI PUSH1 0x40 MLOAD PUSH32 0x8C379A000000000000000000000000000000000000000000000000000000000 DUP2 MSTORE PUSH1 0x4 ADD PUSH2 0x1076 SWAP1 PUSH2 0x28ED JUMP JUMPDEST PUSH1 0x40 MLOAD DUP1 SWAP2 SUB SWAP1 REVERT JUMPDEST PUSH0 DUP5 PUSH1 0xA PUSH2 0x108D SWAP2 SWAP1 PUSH2 0x24F3 JUMP JUMPDEST SWAP1 POP PUSH0 PUSH0 SWAP1 POP JUMPDEST DUP4 MLOAD DUP2 LT ISZERO PUSH2 0x1224 JUMPI PUSH0 DUP5 DUP3 DUP2 MLOAD DUP2 LT PUSH2 0x10B1 JUMPI PUSH2 0x10B0 PUSH2 0x290B JUMP JUMPDEST JUMPDEST PUSH1 0x20 MUL PUSH1 0x20 ADD ADD MLOAD SWAP1 POP PUSH0 DUP2 PUSH20 0xFFFFFFFFFFFFFFFFFFFFFFFFFFFFFFFFFFFFFFFF AND PUSH4 0x313CE567 PUSH1 0x40 MLOAD DUP2 PUSH4 0xFFFFFFFF AND PUSH1 0xE0 SHL DUP2 MSTORE PUSH1 0x4 ADD PUSH1 0x20 PUSH1 0x40 MLOAD DUP1 DUP4 SUB DUP2 DUP7 GAS STATICCALL ISZERO DUP1 ISZERO PUSH2 0x1105 JUMPI RETURNDATASIZE PUSH0 PUSH0 RETURNDATACOPY RETURNDATASIZE PUSH0 REVERT JUMPDEST POP POP POP POP PUSH1 0x40 MLOAD RETURNDATASIZE PUSH1 0x1F NOT PUSH1 0x1F DUP3 ADD AND DUP3 ADD DUP1 PUSH1 0x40 MSTORE POP DUP2 ADD SWAP1 PUSH2 0x1129 SWAP2 SWAP1 PUSH2 0x294C JUMP JUMPDEST PUSH1 0xFF AND SWAP1 POP PUSH0 DUP3 PUSH20 0xFFFFFFFFFFFFFFFFFFFFFFFFFFFFFFFFFFFFFFFF AND PUSH4 0xFEAF968C PUSH1 0x40 MLOAD DUP2 PUSH4 0xFFFFFFFF AND PUSH1 0xE0 SHL DUP2 MSTORE PUSH1 0x4 ADD PUSH1 0xA0 PUSH1 0x40 MLOAD DUP1 DUP4 SUB DUP2 DUP7 GAS STATICCALL ISZERO DUP1 ISZERO PUSH2 0x1178 JUMPI RETURNDATASIZE PUSH0 PUSH0 RETURNDATACOPY RETURNDATASIZE PUSH0 REVERT JUMPDEST POP POP POP POP PUSH1 0x40 MLOAD RETURNDATASIZE PUSH1 0x1F NOT PUSH1 0x1F DUP3 ADD AND DUP3 ADD DUP1 PUSH1 0x40 MSTORE POP DUP2 ADD SWAP1 PUSH2 0x119C SWAP2 SWAP1 PUSH2 0x29FD JUMP JUMPDEST POP POP POP SWAP2 POP POP PUSH0 DUP3 GT DUP1 ISZERO PUSH2 0x11B0 JUMPI POP PUSH0 DUP2 SGT JUMPDEST PUSH2 0x11EF JUMPI PUSH1 0x40 MLOAD PUSH32 0x8C379A000000000000000000000000000000000000000000000000000000000 DUP2 MSTORE PUSH1 0x4 ADD PUSH2 0x11E6 SWAP1 PUSH2 0x2ABE JUMP JUMPDEST PUSH1 0x40 MLOAD DUP1 SWAP2 SUB SWAP1 REVERT JUMPDEST DUP2 PUSH1 0xA PUSH2 0x11FC SWAP2 SWAP1 PUSH2 0x2ADC JUMP JUMPDEST DUP2 DUP7 PUSH2 0x1208 SWAP2 SWAP1 PUSH2 0x25B5 JUMP JUMPDEST PUSH2 0x1212 SWAP2 SWAP1 PUSH2 0x2623 JUMP JUMPDEST SWAP5 POP POP POP POP DUP1 DUP1 PUSH1 0x1 ADD SWAP2 POP POP PUSH2 0x1094 JUMP JUMPDEST POP PUSH0 PUSH0 SWAP1 POP JUMPDEST DUP3 MLOAD DUP2 LT ISZERO PUSH2 0x13BA JUMPI PUSH0 DUP4 DUP3 DUP2 MLOAD DUP2 LT PUSH2 0x1247 JUMPI PUSH2 0x1246 PUSH2 0x290B JUMP JUMPDEST JUMPDEST PUSH1 0x20 MUL PUSH1 0x20 ADD ADD MLOAD SWAP1 POP PUSH0 DUP2 PUSH20 0xFFFFFFFFFFFFFFFFFFFFFFFFFFFFFFFFFFFFFFFF AND PUSH4 0x313CE567 PUSH1 0x40 MLOAD DUP2 PUSH4 0xFFFFFFFF AND PUSH1 0xE0 SHL DUP2 MSTORE PUSH1 0x4 ADD PUSH1 0x20 PUSH1 0x40 MLOAD DUP1 DUP4 SUB DUP2 DUP7 GAS STATICCALL ISZERO DUP1 ISZERO PUSH2 0x129B JUMPI RETURNDATASIZE PUSH0 PUSH0 RETURNDATACOPY RETURNDATASIZE PUSH0 REVERT JUMPDEST POP POP POP POP PUSH1 0x40 MLOAD RETURNDATASIZE PUSH1 0x1F NOT PUSH1 0x1F DUP3 ADD AND DUP3 ADD DUP1 PUSH1 0x40 MSTORE POP DUP2 ADD SWAP1 PUSH2 0x12BF SWAP2 SWAP1 PUSH2 0x294C JUMP JUMPDEST PUSH1 0xFF AND SWAP1 POP PUSH0 DUP3 PUSH20 0xFFFFFFFFFFFFFFFFFFFFFFFFFFFFFFFFFFFFFFFF AND PUSH4 0xFEAF968C PUSH1 0x40 MLOAD DUP2 PUSH4 0xFFFFFFFF AND PUSH1 0xE0 SHL DUP2 MSTORE PUSH1 0x4 ADD PUSH1 0xA0 PUSH1 0x40 MLOAD DUP1 DUP4 SUB DUP2 DUP7 GAS STATICCALL ISZERO DUP1 ISZERO PUSH2 0x130E JUMPI RETURNDATASIZE PUSH0 PUSH0 RETURNDATACOPY RETURNDATASIZE PUSH0 REVERT JUMPDEST POP POP POP POP PUSH1 0x40 MLOAD RETURNDATASIZE PUSH1 0x1F NOT PUSH1 0x1F DUP3 ADD AND DUP3 ADD DUP1 PUSH1 0x40 MSTORE POP DUP2 ADD SWAP1 PUSH2 0x1332 SWAP2 SWAP1 PUSH2 0x29FD JUMP JUMPDEST POP POP POP SWAP2 POP POP PUSH0 DUP3 GT DUP1 ISZERO PUSH2 0x1346 JUMPI POP PUSH0 DUP2 SGT JUMPDEST PUSH2 0x1385 JUMPI PUSH1 0x40 MLOAD PUSH32 0x8C379A000000000000000000000000000000000000000000000000000000000 DUP2 MSTORE PUSH1 0x4 ADD PUSH2 0x137C SWAP1 PUSH2 0x2ABE JUMP JUMPDEST PUSH1 0x40 MLOAD DUP1 SWAP2 SUB SWAP1 REVERT JUMPDEST DUP1 DUP3 PUSH1 0xA PUSH2 0x1393 SWAP2 SWAP1 PUSH2 0x2ADC JUMP JUMPDEST DUP7 PUSH2 0x139E SWAP2 SWAP1 PUSH2 0x25B5 JUMP JUMPDEST PUSH2 0x13A8 SWAP2 SWAP1 PUSH2 0x2623 JUMP JUMPDEST SWAP5 POP POP POP POP DUP1 DUP1 PUSH1 0x1 ADD SWAP2 POP POP PUSH2 0x122A JUMP JUMPDEST POP DUP1 SWAP4 POP POP POP POP SWAP3 SWAP2 POP POP JUMP JUMPDEST PUSH0 PUSH0 PUSH0 PUSH0 PUSH0 PUSH0 PUSH0 DUP9 DUP9 SWAP1 POP GT PUSH2 0x1412 JUMPI PUSH1 0x40 MLOAD PUSH32 0x8C379A000000000000000000000000000000000000000000000000000000000 DUP2 MSTORE PUSH1 0x4 ADD PUSH2 0x1409 SWAP1 PUSH2 0x2B70 JUMP JUMPDEST PUSH1 0x40 MLOAD DUP1 SWAP2 SUB SWAP1 REVERT JUMPDEST PUSH0 PUSH0 DUP10 DUP10 DUP2 ADD SWAP1 PUSH2 0x1423 SWAP2 SWAP1 PUSH2 0x2CC6 JUMP JUMPDEST SWAP2 POP SWAP2 POP PUSH0 PUSH0 PUSH0 PUSH0 PUSH0 PUSH0 PUSH0 DUP9 DUP1 PUSH1 0x20 ADD SWAP1 MLOAD DUP2 ADD SWAP1 PUSH2 0x1442 SWAP2 SWAP1 PUSH2 0x2DEB JUMP JUMPDEST SWAP7 POP SWAP7 POP SWAP7 POP SWAP7 POP SWAP7 POP SWAP7 POP SWAP7 POP PUSH1 0x3 SLOAD DUP8 EQ PUSH2 0x1494 JUMPI PUSH1 0x40 MLOAD PUSH32 0x8C379A000000000000000000000000000000000000000000000000000000000 DUP2 MSTORE PUSH1 0x4 ADD PUSH2 0x148B SWAP1 PUSH2 0x2EF8 JUMP JUMPDEST PUSH1 0x40 MLOAD DUP1 SWAP2 SUB SWAP1 REVERT JUMPDEST PUSH0 DUP7 DUP7 PUSH1 0x40 MLOAD PUSH1 0x20 ADD PUSH2 0x14A8 SWAP3 SWAP2 SWAP1 PUSH2 0x2F5B JUMP JUMPDEST PUSH1 0x40 MLOAD PUSH1 0x20 DUP2 DUP4 SUB SUB DUP2 MSTORE SWAP1 PUSH1 0x40 MSTORE DUP1 MLOAD SWAP1 PUSH1 0x20 ADD KECCAK256 SWAP1 POP DUP2 PUSH12 0xFFFFFFFFFFFFFFFFFFFFFFFF AND TIMESTAMP PUSH12 0xFFFFFFFFFFFFFFFFFFFFFFFF AND GT ISZERO DUP1 ISZERO PUSH2 0x1530 JUMPI POP DUP3 PUSH12 0xFFFFFFFFFFFFFFFFFFFFFFFF AND PUSH1 0x2 PUSH0 DUP4 DUP2 MSTORE PUSH1 0x20 ADD SWAP1 DUP2 MSTORE PUSH1 0x20 ADD PUSH0 KECCAK256 PUSH0 SWAP1 SLOAD SWAP1 PUSH2 0x100 EXP SWAP1 DIV PUSH12 0xFFFFFFFFFFFFFFFFFFFFFFFF AND PUSH12 0xFFFFFFFFFFFFFFFFFFFFFFFF AND GT ISZERO JUMPDEST PUSH2 0x156F JUMPI PUSH1 0x40 MLOAD PUSH32 0x8C379A000000000000000000000000000000000000000000000000000000000 DUP2 MSTORE PUSH1 0x4 ADD PUSH2 0x1566 SWAP1 PUSH2 0x2FD0 JUMP JUMPDEST PUSH1 0x40 MLOAD DUP1 SWAP2 SUB SWAP1 REVERT JUMPDEST PUSH2 0x1579 DUP11 DUP11 PUSH2 0x1823 JUMP JUMPDEST DUP7 DUP7 DUP7 DUP7 DUP7 DUP7 SWAP16 POP SWAP16 POP SWAP16 POP SWAP16 POP SWAP16 POP SWAP16 POP POP POP POP POP POP POP POP POP POP POP SWAP3 SWAP6 POP SWAP3 SWAP6 POP SWAP3 SWAP6 JUMP JUMPDEST PUSH2 0x15A7 PUSH2 0x1885 JUMP JUMPDEST PUSH20 0xFFFFFFFFFFFFFFFFFFFFFFFFFFFFFFFFFFFFFFFF AND PUSH2 0x15C5 PUSH2 0x8AB JUMP JUMPDEST PUSH20 0xFFFFFFFFFFFFFFFFFFFFFFFFFFFFFFFFFFFFFFFF AND EQ PUSH2 0x1624 JUMPI PUSH2 0x15E8 PUSH2 0x1885 JUMP JUMPDEST PUSH1 0x40 MLOAD PUSH32 0x118CDAA700000000000000000000000000000000000000000000000000000000 DUP2 MSTORE PUSH1 0x4 ADD PUSH2 0x161B SWAP2 SWAP1 PUSH2 0x20EA JUMP JUMPDEST PUSH1 0x40 MLOAD DUP1 SWAP2 SUB SWAP1 REVERT JUMPDEST JUMP JUMPDEST DUP1 PUSH1 0x1 PUSH0 DUP5 PUSH20 0xFFFFFFFFFFFFFFFFFFFFFFFFFFFFFFFFFFFFFFFF AND PUSH20 0xFFFFFFFFFFFFFFFFFFFFFFFFFFFFFFFFFFFFFFFF AND DUP2 MSTORE PUSH1 0x20 ADD SWAP1 DUP2 MSTORE PUSH1 0x20 ADD PUSH0 KECCAK256 PUSH0 PUSH2 0x100 EXP DUP2 SLOAD DUP2 PUSH1 0xFF MUL NOT AND SWAP1 DUP4 ISZERO ISZERO MUL OR SWAP1 SSTORE POP PUSH32 0x70F1A3DBA165402559AAA92407AA69ED152F584FDE0BC213BCF1C47ACEF771B6 DUP3 DUP3 PUSH1 0x40 MLOAD PUSH2 0x16AB SWAP3 SWAP2 SWAP1 PUSH2 0x2FEE JUMP JUMPDEST PUSH1 0x40 MLOAD DUP1 SWAP2 SUB SWAP1 LOG1 POP POP JUMP JUMPDEST PUSH0 PUSH0 PUSH0 SWAP1 SLOAD SWAP1 PUSH2 0x100 EXP SWAP1 DIV PUSH20 0xFFFFFFFFFFFFFFFFFFFFFFFFFFFFFFFFFFFFFFFF AND SWAP1 POP DUP2 PUSH0 PUSH0 PUSH2 0x100 EXP DUP2 SLOAD DUP2 PUSH20 0xFFFFFFFFFFFFFFFFFFFFFFFFFFFFFFFFFFFFFFFF MUL NOT AND SWAP1 DUP4 PUSH20 0xFFFFFFFFFFFFFFFFFFFFFFFFFFFFFFFFFFFFFFFF AND MUL OR SWAP1 SSTORE POP DUP2 PUSH20 0xFFFFFFFFFFFFFFFFFFFFFFFFFFFFFFFFFFFFFFFF AND DUP2 PUSH20 0xFFFFFFFFFFFFFFFFFFFFFFFFFFFFFFFFFFFFFFFF AND PUSH32 0x8BE0079C531659141344CD1FD0A4F28419497F9722A3DAAFE3B4186F6B6457E0 PUSH1 0x40 MLOAD PUSH1 0x40 MLOAD DUP1 SWAP2 SUB SWAP1 LOG3 POP POP JUMP JUMPDEST PUSH0 PUSH0 PUSH0 PUSH0 PUSH0 PUSH0 PUSH0 PUSH0 PUSH0 PUSH0 PUSH0 PUSH0 PUSH2 0x178E DUP15 DUP15 PUSH2 0x13C7 JUMP JUMPDEST SWAP6 POP SWAP6 POP SWAP6 POP SWAP6 POP SWAP6 POP SWAP6 POP DUP2 PUSH1 0x2 PUSH0 DUP9 DUP9 PUSH1 0x40 MLOAD PUSH1 0x20 ADD PUSH2 0x17B1 SWAP3 SWAP2 SWAP1 PUSH2 0x2F5B JUMP JUMPDEST PUSH1 0x40 MLOAD PUSH1 0x20 DUP2 DUP4 SUB SUB DUP2 MSTORE SWAP1 PUSH1 0x40 MSTORE DUP1 MLOAD SWAP1 PUSH1 0x20 ADD KECCAK256 DUP2 MSTORE PUSH1 0x20 ADD SWAP1 DUP2 MSTORE PUSH1 0x20 ADD PUSH0 KECCAK256 PUSH0 PUSH2 0x100 EXP DUP2 SLOAD DUP2 PUSH12 0xFFFFFFFFFFFFFFFFFFFFFFFF MUL NOT AND SWAP1 DUP4 PUSH12 0xFFFFFFFFFFFFFFFFFFFFFFFF AND MUL OR SWAP1 SSTORE POP DUP6 DUP6 DUP6 DUP6 DUP6 DUP6 SWAP12 POP SWAP12 POP SWAP12 POP SWAP12 POP SWAP12 POP SWAP12 POP POP POP POP POP POP POP SWAP3 SWAP6 POP SWAP3 SWAP6 POP SWAP3 SWAP6 JUMP JUMPDEST PUSH0 PUSH2 0x1836 PUSH2 0x1830 DUP5 PUSH2 0x188C JUMP JUMPDEST DUP4 PUSH2 0x18C6 JUMP JUMPDEST SWAP1 POP PUSH2 0x1841 DUP2 PUSH2 0x6EE JUMP JUMPDEST PUSH2 0x1880 JUMPI PUSH1 0x40 MLOAD PUSH32 0x8C379A000000000000000000000000000000000000000000000000000000000 DUP2 MSTORE PUSH1 0x4 ADD PUSH2 0x1877 SWAP1 PUSH2 0x305F JUMP JUMPDEST PUSH1 0x40 MLOAD DUP1 SWAP2 SUB SWAP1 REVERT JUMPDEST POP POP POP JUMP JUMPDEST PUSH0 CALLER SWAP1 POP SWAP1 JUMP JUMPDEST PUSH0 PUSH2 0x1897 DUP3 MLOAD PUSH2 0x18F0 JUMP JUMPDEST DUP3 PUSH1 0x40 MLOAD PUSH1 0x20 ADD PUSH2 0x18A9 SWAP3 SWAP2 SWAP1 PUSH2 0x30F5 JUMP JUMPDEST PUSH1 0x40 MLOAD PUSH1 0x20 DUP2 DUP4 SUB SUB DUP2 MSTORE SWAP1 PUSH1 0x40 MSTORE DUP1 MLOAD SWAP1 PUSH1 0x20 ADD KECCAK256 SWAP1 POP SWAP2 SWAP1 POP JUMP JUMPDEST PUSH0 PUSH0 PUSH0 PUSH0 PUSH2 0x18D4 DUP7 DUP7 PUSH2 0x19BA JUMP JUMPDEST SWAP3 POP SWAP3 POP SWAP3 POP PUSH2 0x18E4 DUP3 DUP3 PUSH2 0x1A0F JUMP JUMPDEST DUP3 SWAP4 POP POP POP POP SWAP3 SWAP2 POP POP JUMP JUMPDEST PUSH1 0x60 PUSH0 PUSH1 0x1 PUSH2 0x18FE DUP5 PUSH2 0x1B71 JUMP JUMPDEST ADD SWAP1 POP PUSH0 DUP2 PUSH8 0xFFFFFFFFFFFFFFFF DUP2 GT ISZERO PUSH2 0x191C JUMPI PUSH2 0x191B PUSH2 0x2BA2 JUMP JUMPDEST JUMPDEST PUSH1 0x40 MLOAD SWAP1 DUP1 DUP3 MSTORE DUP1 PUSH1 0x1F ADD PUSH1 0x1F NOT AND PUSH1 0x20 ADD DUP3 ADD PUSH1 0x40 MSTORE DUP1 ISZERO PUSH2 0x194E JUMPI DUP2 PUSH1 0x20 ADD PUSH1 0x1 DUP3 MUL DUP1 CALLDATASIZE DUP4 CALLDATACOPY DUP1 DUP3 ADD SWAP2 POP POP SWAP1 POP JUMPDEST POP SWAP1 POP PUSH0 DUP3 PUSH1 0x20 ADD DUP3 ADD SWAP1 POP JUMPDEST PUSH1 0x1 ISZERO PUSH2 0x19AF JUMPI DUP1 DUP1 PUSH1 0x1 SWAP1 SUB SWAP2 POP POP PUSH32 0x3031323334353637383961626364656600000000000000000000000000000000 PUSH1 0xA DUP7 MOD BYTE DUP2 MSTORE8 PUSH1 0xA DUP6 DUP2 PUSH2 0x19A4 JUMPI PUSH2 0x19A3 PUSH2 0x25F6 JUMP JUMPDEST JUMPDEST DIV SWAP5 POP PUSH0 DUP6 SUB PUSH2 0x195B JUMPI JUMPDEST DUP2 SWAP4 POP POP POP POP SWAP2 SWAP1 POP JUMP JUMPDEST PUSH0 PUSH0 PUSH0 PUSH1 0x41 DUP5 MLOAD SUB PUSH2 0x19FA JUMPI PUSH0 PUSH0 PUSH0 PUSH1 0x20 DUP8 ADD MLOAD SWAP3 POP PUSH1 0x40 DUP8 ADD MLOAD SWAP2 POP PUSH1 0x60 DUP8 ADD MLOAD PUSH0 BYTE SWAP1 POP PUSH2 0x19EC DUP9 DUP3 DUP6 DUP6 PUSH2 0x1CC2 JUMP JUMPDEST SWAP6 POP SWAP6 POP SWAP6 POP POP POP POP PUSH2 0x1A08 JUMP JUMPDEST PUSH0 PUSH1 0x2 DUP6 MLOAD PUSH0 SHL SWAP3 POP SWAP3 POP SWAP3 POP JUMPDEST SWAP3 POP SWAP3 POP SWAP3 JUMP JUMPDEST PUSH0 PUSH1 0x3 DUP2 GT ISZERO PUSH2 0x1A22 JUMPI PUSH2 0x1A21 PUSH2 0x3127 JUMP JUMPDEST JUMPDEST DUP3 PUSH1 0x3 DUP2 GT ISZERO PUSH2 0x1A35 JUMPI PUSH2 0x1A34 PUSH2 0x3127 JUMP JUMPDEST JUMPDEST SUB ISZERO PUSH2 0x1B6D JUMPI PUSH1 0x1 PUSH1 0x3 DUP2 GT ISZERO PUSH2 0x1A4F JUMPI PUSH2 0x1A4E PUSH2 0x3127 JUMP JUMPDEST JUMPDEST DUP3 PUSH1 0x3 DUP2 GT ISZERO PUSH2 0x1A62 JUMPI PUSH2 0x1A61 PUSH2 0x3127 JUMP JUMPDEST JUMPDEST SUB PUSH2 0x1A99 JUMPI PUSH1 0x40 MLOAD PUSH32 0xF645EEDF00000000000000000000000000000000000000000000000000000000 DUP2 MSTORE PUSH1 0x4 ADD PUSH1 0x40 MLOAD DUP1 SWAP2 SUB SWAP1 REVERT JUMPDEST PUSH1 0x2 PUSH1 0x3 DUP2 GT ISZERO PUSH2 0x1AAD JUMPI PUSH2 0x1AAC PUSH2 0x3127 JUMP JUMPDEST JUMPDEST DUP3 PUSH1 0x3 DUP2 GT ISZERO PUSH2 0x1AC0 JUMPI PUSH2 0x1ABF PUSH2 0x3127 JUMP JUMPDEST JUMPDEST SUB PUSH2 0x1B04 JUMPI DUP1 PUSH0 SHR PUSH1 0x40 MLOAD PUSH32 0xFCE698F700000000000000000000000000000000000000000000000000000000 DUP2 MSTORE PUSH1 0x4 ADD PUSH2 0x1AFB SWAP2 SWAP1 PUSH2 0x1FEC JUMP JUMPDEST PUSH1 0x40 MLOAD DUP1 SWAP2 SUB SWAP1 REVERT JUMPDEST PUSH1 0x3 DUP1 DUP2 GT ISZERO PUSH2 0x1B17 JUMPI PUSH2 0x1B16 PUSH2 0x3127 JUMP JUMPDEST JUMPDEST DUP3 PUSH1 0x3 DUP2 GT ISZERO PUSH2 0x1B2A JUMPI PUSH2 0x1B29 PUSH2 0x3127 JUMP JUMPDEST JUMPDEST SUB PUSH2 0x1B6C JUMPI DUP1 PUSH1 0x40 MLOAD PUSH32 0xD78BCE0C00000000000000000000000000000000000000000000000000000000 DUP2 MSTORE PUSH1 0x4 ADD PUSH2 0x1B63 SWAP2 SWAP1 PUSH2 0x3163 JUMP JUMPDEST PUSH1 0x40 MLOAD DUP1 SWAP2 SUB SWAP1 REVERT JUMPDEST JUMPDEST POP POP JUMP JUMPDEST PUSH0 PUSH0 PUSH0 SWAP1 POP PUSH27 0x184F03E93FF9F4DAA797ED6E38ED64BF6A1F010000000000000000 DUP4 LT PUSH2 0x1BCD JUMPI PUSH27 0x184F03E93FF9F4DAA797ED6E38ED64BF6A1F010000000000000000 DUP4 DUP2 PUSH2 0x1BC3 JUMPI PUSH2 0x1BC2 PUSH2 0x25F6 JUMP JUMPDEST JUMPDEST DIV SWAP3 POP PUSH1 0x40 DUP2 ADD SWAP1 POP JUMPDEST PUSH14 0x4EE2D6D415B85ACEF8100000000 DUP4 LT PUSH2 0x1C0A JUMPI PUSH14 0x4EE2D6D415B85ACEF8100000000 DUP4 DUP2 PUSH2 0x1C00 JUMPI PUSH2 0x1BFF PUSH2 0x25F6 JUMP JUMPDEST JUMPDEST DIV SWAP3 POP PUSH1 0x20 DUP2 ADD SWAP1 POP JUMPDEST PUSH7 0x2386F26FC10000 DUP4 LT PUSH2 0x1C39 JUMPI PUSH7 0x2386F26FC10000 DUP4 DUP2 PUSH2 0x1C2F JUMPI PUSH2 0x1C2E PUSH2 0x25F6 JUMP JUMPDEST JUMPDEST DIV SWAP3 POP PUSH1 0x10 DUP2 ADD SWAP1 POP JUMPDEST PUSH4 0x5F5E100 DUP4 LT PUSH2 0x1C62 JUMPI PUSH4 0x5F5E100 DUP4 DUP2 PUSH2 0x1C58 JUMPI PUSH2 0x1C57 PUSH2 0x25F6 JUMP JUMPDEST JUMPDEST DIV SWAP3 POP PUSH1 0x8 DUP2 ADD SWAP1 POP JUMPDEST PUSH2 0x2710 DUP4 LT PUSH2 0x1C87 JUMPI PUSH2 0x2710 DUP4 DUP2 PUSH2 0x1C7D JUMPI PUSH2 0x1C7C PUSH2 0x25F6 JUMP JUMPDEST JUMPDEST DIV SWAP3 POP PUSH1 0x4 DUP2 ADD SWAP1 POP JUMPDEST PUSH1 0x64 DUP4 LT PUSH2 0x1CAA JUMPI PUSH1 0x64 DUP4 DUP2 PUSH2 0x1CA0 JUMPI PUSH2 0x1C9F PUSH2 0x25F6 JUMP JUMPDEST JUMPDEST DIV SWAP3 POP PUSH1 0x2 DUP2 ADD SWAP1 POP JUMPDEST PUSH1 0xA DUP4 LT PUSH2 0x1CB9 JUMPI PUSH1 0x1 DUP2 ADD SWAP1 POP JUMPDEST DUP1 SWAP2 POP POP SWAP2 SWAP1 POP JUMP JUMPDEST PUSH0 PUSH0 PUSH0 PUSH32 0x7FFFFFFFFFFFFFFFFFFFFFFFFFFFFFFF5D576E7357A4501DDFE92F46681B20A0 DUP5 PUSH0 SHR GT ISZERO PUSH2 0x1CFE JUMPI PUSH0 PUSH1 0x3 DUP6 SWAP3 POP SWAP3 POP SWAP3 POP PUSH2 0x1D9F JUMP JUMPDEST PUSH0 PUSH1 0x1 DUP9 DUP9 DUP9 DUP9 PUSH1 0x40 MLOAD PUSH0 DUP2 MSTORE PUSH1 0x20 ADD PUSH1 0x40 MSTORE PUSH1 0x40 MLOAD PUSH2 0x1D21 SWAP5 SWAP4 SWAP3 SWAP2 SWAP1 PUSH2 0x317C JUMP JUMPDEST PUSH1 0x20 PUSH1 0x40 MLOAD PUSH1 0x20 DUP2 SUB SWAP1 DUP1 DUP5 SUB SWAP1 DUP6 GAS STATICCALL ISZERO DUP1 ISZERO PUSH2 0x1D41 JUMPI RETURNDATASIZE PUSH0 PUSH0 RETURNDATACOPY RETURNDATASIZE PUSH0 REVERT JUMPDEST POP POP POP PUSH1 0x20 PUSH1 0x40 MLOAD SUB MLOAD SWAP1 POP PUSH0 PUSH20 0xFFFFFFFFFFFFFFFFFFFFFFFFFFFFFFFFFFFFFFFF AND DUP2 PUSH20 0xFFFFFFFFFFFFFFFFFFFFFFFFFFFFFFFFFFFFFFFF AND SUB PUSH2 0x1D92 JUMPI PUSH0 PUSH1 0x1 PUSH0 PUSH0 SHL SWAP4 POP SWAP4 POP SWAP4 POP POP PUSH2 0x1D9F JUMP JUMPDEST DUP1 PUSH0 PUSH0 PUSH0 SHL SWAP4 POP SWAP4 POP SWAP4 POP POP JUMPDEST SWAP5 POP SWAP5 POP SWAP5 SWAP2 POP POP JUMP JUMPDEST DUP3 DUP1 SLOAD DUP3 DUP3 SSTORE SWAP1 PUSH0 MSTORE PUSH1 0x20 PUSH0 KECCAK256 SWAP1 DUP2 ADD SWAP3 DUP3 ISZERO PUSH2 0x1E35 JUMPI SWAP2 PUSH1 0x20 MUL DUP3 ADD JUMPDEST DUP3 DUP2 GT ISZERO PUSH2 0x1E34 JUMPI DUP3 CALLDATALOAD PUSH20 0xFFFFFFFFFFFFFFFFFFFFFFFFFFFFFFFFFFFFFFFF AND DUP3 PUSH0 PUSH2 0x100 EXP DUP2 SLOAD DUP2 PUSH20 0xFFFFFFFFFFFFFFFFFFFFFFFFFFFFFFFFFFFFFFFF MUL NOT AND SWAP1 DUP4 PUSH20 0xFFFFFFFFFFFFFFFFFFFFFFFFFFFFFFFFFFFFFFFF AND MUL OR SWAP1 SSTORE POP SWAP2 PUSH1 0x20 ADD SWAP2 SWAP1 PUSH1 0x1 ADD SWAP1 PUSH2 0x1DC7 JUMP JUMPDEST JUMPDEST POP SWAP1 POP PUSH2 0x1E42 SWAP2 SWAP1 PUSH2 0x1E46 JUMP JUMPDEST POP SWAP1 JUMP JUMPDEST JUMPDEST DUP1 DUP3 GT ISZERO PUSH2 0x1E5D JUMPI PUSH0 DUP2 PUSH0 SWAP1 SSTORE POP PUSH1 0x1 ADD PUSH2 0x1E47 JUMP JUMPDEST POP SWAP1 JUMP JUMPDEST PUSH0 PUSH1 0x40 MLOAD SWAP1 POP SWAP1 JUMP JUMPDEST PUSH0 PUSH0 REVERT JUMPDEST PUSH0 PUSH0 REVERT JUMPDEST PUSH0 PUSH20 0xFFFFFFFFFFFFFFFFFFFFFFFFFFFFFFFFFFFFFFFF DUP3 AND SWAP1 POP SWAP2 SWAP1 POP JUMP JUMPDEST PUSH0 PUSH2 0x1E9B DUP3 PUSH2 0x1E72 JUMP JUMPDEST SWAP1 POP SWAP2 SWAP1 POP JUMP JUMPDEST PUSH2 0x1EAB DUP2 PUSH2 0x1E91 JUMP JUMPDEST DUP2 EQ PUSH2 0x1EB5 JUMPI PUSH0 PUSH0 REVERT JUMPDEST POP JUMP JUMPDEST PUSH0 DUP2 CALLDATALOAD SWAP1 POP PUSH2 0x1EC6 DUP2 PUSH2 0x1EA2 JUMP JUMPDEST SWAP3 SWAP2 POP POP JUMP JUMPDEST PUSH0 PUSH1 0xFF DUP3 AND SWAP1 POP SWAP2 SWAP1 POP JUMP JUMPDEST PUSH2 0x1EE1 DUP2 PUSH2 0x1ECC JUMP JUMPDEST DUP2 EQ PUSH2 0x1EEB JUMPI PUSH0 PUSH0 REVERT JUMPDEST POP JUMP JUMPDEST PUSH0 DUP2 CALLDATALOAD SWAP1 POP PUSH2 0x1EFC DUP2 PUSH2 0x1ED8 JUMP JUMPDEST SWAP3 SWAP2 POP POP JUMP JUMPDEST PUSH0 PUSH0 REVERT JUMPDEST PUSH0 PUSH0 REVERT JUMPDEST PUSH0 PUSH0 REVERT JUMPDEST PUSH0 PUSH0 DUP4 PUSH1 0x1F DUP5 ADD SLT PUSH2 0x1F23 JUMPI PUSH2 0x1F22 PUSH2 0x1F02 JUMP JUMPDEST JUMPDEST DUP3 CALLDATALOAD SWAP1 POP PUSH8 0xFFFFFFFFFFFFFFFF DUP2 GT ISZERO PUSH2 0x1F40 JUMPI PUSH2 0x1F3F PUSH2 0x1F06 JUMP JUMPDEST JUMPDEST PUSH1 0x20 DUP4 ADD SWAP2 POP DUP4 PUSH1 0x1 DUP3 MUL DUP4 ADD GT ISZERO PUSH2 0x1F5C JUMPI PUSH2 0x1F5B PUSH2 0x1F0A JUMP JUMPDEST JUMPDEST SWAP3 POP SWAP3 SWAP1 POP JUMP JUMPDEST PUSH0 PUSH0 PUSH0 PUSH0 PUSH1 0x60 DUP6 DUP8 SUB SLT ISZERO PUSH2 0x1F7B JUMPI PUSH2 0x1F7A PUSH2 0x1E6A JUMP JUMPDEST JUMPDEST PUSH0 PUSH2 0x1F88 DUP8 DUP3 DUP9 ADD PUSH2 0x1EB8 JUMP JUMPDEST SWAP5 POP POP PUSH1 0x20 PUSH2 0x1F99 DUP8 DUP3 DUP9 ADD PUSH2 0x1EEE JUMP JUMPDEST SWAP4 POP POP PUSH1 0x40 DUP6 ADD CALLDATALOAD PUSH8 0xFFFFFFFFFFFFFFFF DUP2 GT ISZERO PUSH2 0x1FBA JUMPI PUSH2 0x1FB9 PUSH2 0x1E6E JUMP JUMPDEST JUMPDEST PUSH2 0x1FC6 DUP8 DUP3 DUP9 ADD PUSH2 0x1F0E JUMP JUMPDEST SWAP3 POP SWAP3 POP POP SWAP3 SWAP6 SWAP2 SWAP5 POP SWAP3 POP JUMP JUMPDEST PUSH0 DUP2 SWAP1 POP SWAP2 SWAP1 POP JUMP JUMPDEST PUSH2 0x1FE6 DUP2 PUSH2 0x1FD4 JUMP JUMPDEST DUP3 MSTORE POP POP JUMP JUMPDEST PUSH0 PUSH1 0x20 DUP3 ADD SWAP1 POP PUSH2 0x1FFF PUSH0 DUP4 ADD DUP5 PUSH2 0x1FDD JUMP JUMPDEST SWAP3 SWAP2 POP POP JUMP JUMPDEST PUSH2 0x200E DUP2 PUSH2 0x1ECC JUMP JUMPDEST DUP3 MSTORE POP POP JUMP JUMPDEST PUSH0 PUSH1 0x20 DUP3 ADD SWAP1 POP PUSH2 0x2027 PUSH0 DUP4 ADD DUP5 PUSH2 0x2005 JUMP JUMPDEST SWAP3 SWAP2 POP POP JUMP JUMPDEST PUSH2 0x2036 DUP2 PUSH2 0x1FD4 JUMP JUMPDEST DUP2 EQ PUSH2 0x2040 JUMPI PUSH0 PUSH0 REVERT JUMPDEST POP JUMP JUMPDEST PUSH0 DUP2 CALLDATALOAD SWAP1 POP PUSH2 0x2051 DUP2 PUSH2 0x202D JUMP JUMPDEST SWAP3 SWAP2 POP POP JUMP JUMPDEST PUSH0 PUSH0 PUSH0 PUSH0 PUSH0 PUSH1 0x80 DUP7 DUP9 SUB SLT ISZERO PUSH2 0x2070 JUMPI PUSH2 0x206F PUSH2 0x1E6A JUMP JUMPDEST JUMPDEST PUSH0 PUSH2 0x207D DUP9 DUP3 DUP10 ADD PUSH2 0x1EB8 JUMP JUMPDEST SWAP6 POP POP PUSH1 0x20 PUSH2 0x208E DUP9 DUP3 DUP10 ADD PUSH2 0x2043 JUMP JUMPDEST SWAP5 POP POP PUSH1 0x40 PUSH2 0x209F DUP9 DUP3 DUP10 ADD PUSH2 0x1EEE JUMP JUMPDEST SWAP4 POP POP PUSH1 0x60 DUP7 ADD CALLDATALOAD PUSH8 0xFFFFFFFFFFFFFFFF DUP2 GT ISZERO PUSH2 0x20C0 JUMPI PUSH2 0x20BF PUSH2 0x1E6E JUMP JUMPDEST JUMPDEST PUSH2 0x20CC DUP9 DUP3 DUP10 ADD PUSH2 0x1F0E JUMP JUMPDEST SWAP3 POP SWAP3 POP POP SWAP3 SWAP6 POP SWAP3 SWAP6 SWAP1 SWAP4 POP JUMP JUMPDEST PUSH2 0x20E4 DUP2 PUSH2 0x1E91 JUMP JUMPDEST DUP3 MSTORE POP POP JUMP JUMPDEST PUSH0 PUSH1 0x20 DUP3 ADD SWAP1 POP PUSH2 0x20FD PUSH0 DUP4 ADD DUP5 PUSH2 0x20DB JUMP JUMPDEST SWAP3 SWAP2 POP POP JUMP JUMPDEST PUSH0 DUP2 ISZERO ISZERO SWAP1 POP SWAP2 SWAP1 POP JUMP JUMPDEST PUSH2 0x2117 DUP2 PUSH2 0x2103 JUMP JUMPDEST DUP2 EQ PUSH2 0x2121 JUMPI PUSH0 PUSH0 REVERT JUMPDEST POP JUMP JUMPDEST PUSH0 DUP2 CALLDATALOAD SWAP1 POP PUSH2 0x2132 DUP2 PUSH2 0x210E JUMP JUMPDEST SWAP3 SWAP2 POP POP JUMP JUMPDEST PUSH0 PUSH0 PUSH1 0x40 DUP4 DUP6 SUB SLT ISZERO PUSH2 0x214E JUMPI PUSH2 0x214D PUSH2 0x1E6A JUMP JUMPDEST JUMPDEST PUSH0 PUSH2 0x215B DUP6 DUP3 DUP7 ADD PUSH2 0x1EB8 JUMP JUMPDEST SWAP3 POP POP PUSH1 0x20 PUSH2 0x216C DUP6 DUP3 DUP7 ADD PUSH2 0x2124 JUMP JUMPDEST SWAP2 POP POP SWAP3 POP SWAP3 SWAP1 POP JUMP JUMPDEST PUSH0 PUSH1 0x20 DUP3 DUP5 SUB SLT ISZERO PUSH2 0x218B JUMPI PUSH2 0x218A PUSH2 0x1E6A JUMP JUMPDEST JUMPDEST PUSH0 PUSH2 0x2198 DUP5 DUP3 DUP6 ADD PUSH2 0x1EB8 JUMP JUMPDEST SWAP2 POP POP SWAP3 SWAP2 POP POP JUMP JUMPDEST PUSH2 0x21AA DUP2 PUSH2 0x2103 JUMP JUMPDEST DUP3 MSTORE POP POP JUMP JUMPDEST PUSH0 PUSH1 0x20 DUP3 ADD SWAP1 POP PUSH2 0x21C3 PUSH0 DUP4 ADD DUP5 PUSH2 0x21A1 JUMP JUMPDEST SWAP3 SWAP2 POP POP JUMP JUMPDEST PUSH0 PUSH0 PUSH0 PUSH0 PUSH0 PUSH0 PUSH0 PUSH1 0xC0 DUP9 DUP11 SUB SLT ISZERO PUSH2 0x21E4 JUMPI PUSH2 0x21E3 PUSH2 0x1E6A JUMP JUMPDEST JUMPDEST PUSH0 PUSH2 0x21F1 DUP11 DUP3 DUP12 ADD PUSH2 0x1EB8 JUMP JUMPDEST SWAP8 POP POP PUSH1 0x20 PUSH2 0x2202 DUP11 DUP3 DUP12 ADD PUSH2 0x1EEE JUMP JUMPDEST SWAP7 POP POP PUSH1 0x40 PUSH2 0x2213 DUP11 DUP3 DUP12 ADD PUSH2 0x2043 JUMP JUMPDEST SWAP6 POP POP PUSH1 0x60 PUSH2 0x2224 DUP11 DUP3 DUP12 ADD PUSH2 0x1EEE JUMP JUMPDEST SWAP5 POP POP PUSH1 0x80 PUSH2 0x2235 DUP11 DUP3 DUP12 ADD PUSH2 0x2043 JUMP JUMPDEST SWAP4 POP POP PUSH1 0xA0 DUP9 ADD CALLDATALOAD PUSH8 0xFFFFFFFFFFFFFFFF DUP2 GT ISZERO PUSH2 0x2256 JUMPI PUSH2 0x2255 PUSH2 0x1E6E JUMP JUMPDEST JUMPDEST PUSH2 0x2262 DUP11 DUP3 DUP12 ADD PUSH2 0x1F0E JUMP JUMPDEST SWAP3 POP SWAP3 POP POP SWAP3 SWAP6 SWAP9 SWAP2 SWAP5 SWAP8 POP SWAP3 SWAP6 POP JUMP JUMPDEST PUSH0 PUSH0 PUSH1 0x40 DUP4 DUP6 SUB SLT ISZERO PUSH2 0x2289 JUMPI PUSH2 0x2288 PUSH2 0x1E6A JUMP JUMPDEST JUMPDEST PUSH0 PUSH2 0x2296 DUP6 DUP3 DUP7 ADD PUSH2 0x1EB8 JUMP JUMPDEST SWAP3 POP POP PUSH1 0x20 PUSH2 0x22A7 DUP6 DUP3 DUP7 ADD PUSH2 0x2043 JUMP JUMPDEST SWAP2 POP POP SWAP3 POP SWAP3 SWAP1 POP JUMP JUMPDEST PUSH0 PUSH0 DUP4 PUSH1 0x1F DUP5 ADD SLT PUSH2 0x22C6 JUMPI PUSH2 0x22C5 PUSH2 0x1F02 JUMP JUMPDEST JUMPDEST DUP3 CALLDATALOAD SWAP1 POP PUSH8 0xFFFFFFFFFFFFFFFF DUP2 GT ISZERO PUSH2 0x22E3 JUMPI PUSH2 0x22E2 PUSH2 0x1F06 JUMP JUMPDEST JUMPDEST PUSH1 0x20 DUP4 ADD SWAP2 POP DUP4 PUSH1 0x20 DUP3 MUL DUP4 ADD GT ISZERO PUSH2 0x22FF JUMPI PUSH2 0x22FE PUSH2 0x1F0A JUMP JUMPDEST JUMPDEST SWAP3 POP SWAP3 SWAP1 POP JUMP JUMPDEST PUSH0 PUSH0 PUSH0 PUSH0 PUSH0 PUSH1 0x60 DUP7 DUP9 SUB SLT ISZERO PUSH2 0x231F JUMPI PUSH2 0x231E PUSH2 0x1E6A JUMP JUMPDEST JUMPDEST PUSH0 PUSH2 0x232C DUP9 DUP3 DUP10 ADD PUSH2 0x1EB8 JUMP JUMPDEST SWAP6 POP POP PUSH1 0x20 DUP7 ADD CALLDATALOAD PUSH8 0xFFFFFFFFFFFFFFFF DUP2 GT ISZERO PUSH2 0x234D JUMPI PUSH2 0x234C PUSH2 0x1E6E JUMP JUMPDEST JUMPDEST PUSH2 0x2359 DUP9 DUP3 DUP10 ADD PUSH2 0x22B1 JUMP JUMPDEST SWAP5 POP SWAP5 POP POP PUSH1 0x40 DUP7 ADD CALLDATALOAD PUSH8 0xFFFFFFFFFFFFFFFF DUP2 GT ISZERO PUSH2 0x237C JUMPI PUSH2 0x237B PUSH2 0x1E6E JUMP JUMPDEST JUMPDEST PUSH2 0x2388 DUP9 DUP3 DUP10 ADD PUSH2 0x22B1 JUMP JUMPDEST SWAP3 POP SWAP3 POP POP SWAP3 SWAP6 POP SWAP3 SWAP6 SWAP1 SWAP4 POP JUMP JUMPDEST PUSH32 0x4E487B7100000000000000000000000000000000000000000000000000000000 PUSH0 MSTORE PUSH1 0x11 PUSH1 0x4 MSTORE PUSH1 0x24 PUSH0 REVERT JUMPDEST PUSH0 DUP2 PUSH1 0x1 SHR SWAP1 POP SWAP2 SWAP1 POP JUMP JUMPDEST PUSH0 PUSH0 DUP3 SWAP2 POP DUP4 SWAP1 POP JUMPDEST PUSH1 0x1 DUP6 GT ISZERO PUSH2 0x2419 JUMPI DUP1 DUP7 DIV DUP2 GT ISZERO PUSH2 0x23F5 JUMPI PUSH2 0x23F4 PUSH2 0x2397 JUMP JUMPDEST JUMPDEST PUSH1 0x1 DUP6 AND ISZERO PUSH2 0x2404 JUMPI DUP1 DUP3 MUL SWAP2 POP JUMPDEST DUP1 DUP2 MUL SWAP1 POP PUSH2 0x2412 DUP6 PUSH2 0x23C4 JUMP JUMPDEST SWAP5 POP PUSH2 0x23D9 JUMP JUMPDEST SWAP5 POP SWAP5 SWAP3 POP POP POP JUMP JUMPDEST PUSH0 DUP3 PUSH2 0x2431 JUMPI PUSH1 0x1 SWAP1 POP PUSH2 0x24EC JUMP JUMPDEST DUP2 PUSH2 0x243E JUMPI PUSH0 SWAP1 POP PUSH2 0x24EC JUMP JUMPDEST DUP2 PUSH1 0x1 DUP2 EQ PUSH2 0x2454 JUMPI PUSH1 0x2 DUP2 EQ PUSH2 0x245E JUMPI PUSH2 0x248D JUMP JUMPDEST PUSH1 0x1 SWAP2 POP POP PUSH2 0x24EC JUMP JUMPDEST PUSH1 0xFF DUP5 GT ISZERO PUSH2 0x2470 JUMPI PUSH2 0x246F PUSH2 0x2397 JUMP JUMPDEST JUMPDEST DUP4 PUSH1 0x2 EXP SWAP2 POP DUP5 DUP3 GT ISZERO PUSH2 0x2487 JUMPI PUSH2 0x2486 PUSH2 0x2397 JUMP JUMPDEST JUMPDEST POP PUSH2 0x24EC JUMP JUMPDEST POP PUSH1 0x20 DUP4 LT PUSH2 0x133 DUP4 LT AND PUSH1 0x4E DUP5 LT PUSH1 0xB DUP5 LT AND OR ISZERO PUSH2 0x24C2 JUMPI DUP3 DUP3 EXP SWAP1 POP DUP4 DUP2 GT ISZERO PUSH2 0x24BD JUMPI PUSH2 0x24BC PUSH2 0x2397 JUMP JUMPDEST JUMPDEST PUSH2 0x24EC JUMP JUMPDEST PUSH2 0x24CF DUP5 DUP5 DUP5 PUSH1 0x1 PUSH2 0x23D0 JUMP JUMPDEST SWAP3 POP SWAP1 POP DUP2 DUP5 DIV DUP2 GT ISZERO PUSH2 0x24E6 JUMPI PUSH2 0x24E5 PUSH2 0x2397 JUMP JUMPDEST JUMPDEST DUP2 DUP2 MUL SWAP1 POP JUMPDEST SWAP4 SWAP3 POP POP POP JUMP JUMPDEST PUSH0 PUSH2 0x24FD DUP3 PUSH2 0x1FD4 JUMP JUMPDEST SWAP2 POP PUSH2 0x2508 DUP4 PUSH2 0x1ECC JUMP JUMPDEST SWAP3 POP PUSH2 0x2535 PUSH32 0xFFFFFFFFFFFFFFFFFFFFFFFFFFFFFFFFFFFFFFFFFFFFFFFFFFFFFFFFFFFFFFFF DUP5 DUP5 PUSH2 0x2422 JUMP JUMPDEST SWAP1 POP SWAP3 SWAP2 POP POP JUMP JUMPDEST PUSH0 DUP3 DUP3 MSTORE PUSH1 0x20 DUP3 ADD SWAP1 POP SWAP3 SWAP2 POP POP JUMP JUMPDEST PUSH32 0x426164206F6666636861696E206F7261636C6520646174612100000000000000 PUSH0 DUP3 ADD MSTORE POP JUMP JUMPDEST PUSH0 PUSH2 0x2581 PUSH1 0x19 DUP4 PUSH2 0x253D JUMP JUMPDEST SWAP2 POP PUSH2 0x258C DUP3 PUSH2 0x254D JUMP JUMPDEST PUSH1 0x20 DUP3 ADD SWAP1 POP SWAP2 SWAP1 POP JUMP JUMPDEST PUSH0 PUSH1 0x20 DUP3 ADD SWAP1 POP DUP2 DUP2 SUB PUSH0 DUP4 ADD MSTORE PUSH2 0x25AE DUP2 PUSH2 0x2575 JUMP JUMPDEST SWAP1 POP SWAP2 SWAP1 POP JUMP JUMPDEST PUSH0 PUSH2 0x25BF DUP3 PUSH2 0x1FD4 JUMP JUMPDEST SWAP2 POP PUSH2 0x25CA DUP4 PUSH2 0x1FD4 JUMP JUMPDEST SWAP3 POP DUP3 DUP3 MUL PUSH2 0x25D8 DUP2 PUSH2 0x1FD4 JUMP JUMPDEST SWAP2 POP DUP3 DUP3 DIV DUP5 EQ DUP4 ISZERO OR PUSH2 0x25EF JUMPI PUSH2 0x25EE PUSH2 0x2397 JUMP JUMPDEST JUMPDEST POP SWAP3 SWAP2 POP POP JUMP JUMPDEST PUSH32 0x4E487B7100000000000000000000000000000000000000000000000000000000 PUSH0 MSTORE PUSH1 0x12 PUSH1 0x4 MSTORE PUSH1 0x24 PUSH0 REVERT JUMPDEST PUSH0 PUSH2 0x262D DUP3 PUSH2 0x1FD4 JUMP JUMPDEST SWAP2 POP PUSH2 0x2638 DUP4 PUSH2 0x1FD4 JUMP JUMPDEST SWAP3 POP DUP3 PUSH2 0x2648 JUMPI PUSH2 0x2647 PUSH2 0x25F6 JUMP JUMPDEST JUMPDEST DUP3 DUP3 DIV SWAP1 POP SWAP3 SWAP2 POP POP JUMP JUMPDEST PUSH32 0x4F7261636C6520697320616C7265616479207365742100000000000000000000 PUSH0 DUP3 ADD MSTORE POP JUMP JUMPDEST PUSH0 PUSH2 0x2687 PUSH1 0x16 DUP4 PUSH2 0x253D JUMP JUMPDEST SWAP2 POP PUSH2 0x2692 DUP3 PUSH2 0x2653 JUMP JUMPDEST PUSH1 0x20 DUP3 ADD SWAP1 POP SWAP2 SWAP1 POP JUMP JUMPDEST PUSH0 PUSH1 0x20 DUP3 ADD SWAP1 POP DUP2 DUP2 SUB PUSH0 DUP4 ADD MSTORE PUSH2 0x26B4 DUP2 PUSH2 0x267B JUMP JUMPDEST SWAP1 POP SWAP2 SWAP1 POP JUMP JUMPDEST PUSH0 DUP3 DUP3 MSTORE PUSH1 0x20 DUP3 ADD SWAP1 POP SWAP3 SWAP2 POP POP JUMP JUMPDEST PUSH0 DUP2 SWAP1 POP SWAP2 SWAP1 POP JUMP JUMPDEST PUSH2 0x26DD DUP2 PUSH2 0x1E91 JUMP JUMPDEST DUP3 MSTORE POP POP JUMP JUMPDEST PUSH0 PUSH2 0x26EE DUP4 DUP4 PUSH2 0x26D4 JUMP JUMPDEST PUSH1 0x20 DUP4 ADD SWAP1 POP SWAP3 SWAP2 POP POP JUMP JUMPDEST PUSH0 PUSH2 0x2708 PUSH1 0x20 DUP5 ADD DUP5 PUSH2 0x1EB8 JUMP JUMPDEST SWAP1 POP SWAP3 SWAP2 POP POP JUMP JUMPDEST PUSH0 PUSH1 0x20 DUP3 ADD SWAP1 POP SWAP2 SWAP1 POP JUMP JUMPDEST PUSH0 PUSH2 0x2727 DUP4 DUP6 PUSH2 0x26BB JUMP JUMPDEST SWAP4 POP PUSH2 0x2732 DUP3 PUSH2 0x26CB JUMP JUMPDEST DUP1 PUSH0 JUMPDEST DUP6 DUP2 LT ISZERO PUSH2 0x276A JUMPI PUSH2 0x2747 DUP3 DUP5 PUSH2 0x26FA JUMP JUMPDEST PUSH2 0x2751 DUP9 DUP3 PUSH2 0x26E3 JUMP JUMPDEST SWAP8 POP PUSH2 0x275C DUP4 PUSH2 0x2710 JUMP JUMPDEST SWAP3 POP POP PUSH1 0x1 DUP2 ADD SWAP1 POP PUSH2 0x2735 JUMP JUMPDEST POP DUP6 SWAP3 POP POP POP SWAP4 SWAP3 POP POP POP JUMP JUMPDEST PUSH0 PUSH1 0x40 DUP3 ADD SWAP1 POP DUP2 DUP2 SUB PUSH0 DUP4 ADD MSTORE PUSH2 0x2790 DUP2 DUP7 DUP9 PUSH2 0x271C JUMP JUMPDEST SWAP1 POP DUP2 DUP2 SUB PUSH1 0x20 DUP4 ADD MSTORE PUSH2 0x27A5 DUP2 DUP5 DUP7 PUSH2 0x271C JUMP JUMPDEST SWAP1 POP SWAP6 SWAP5 POP POP POP POP POP JUMP JUMPDEST PUSH0 DUP2 SWAP1 POP SWAP2 SWAP1 POP JUMP JUMPDEST PUSH0 DUP2 SWAP1 POP SWAP2 SWAP1 POP JUMP JUMPDEST PUSH0 PUSH2 0x27DC PUSH2 0x27D7 PUSH2 0x27D2 DUP5 PUSH2 0x27B0 JUMP JUMPDEST PUSH2 0x27B9 JUMP JUMPDEST PUSH2 0x1FD4 JUMP JUMPDEST SWAP1 POP SWAP2 SWAP1 POP JUMP JUMPDEST PUSH2 0x27EC DUP2 PUSH2 0x27C2 JUMP JUMPDEST DUP3 MSTORE POP POP JUMP JUMPDEST PUSH0 PUSH2 0x280C PUSH2 0x2807 PUSH2 0x2802 DUP5 PUSH2 0x1ECC JUMP JUMPDEST PUSH2 0x27B9 JUMP JUMPDEST PUSH2 0x1FD4 JUMP JUMPDEST SWAP1 POP SWAP2 SWAP1 POP JUMP JUMPDEST PUSH2 0x281C DUP2 PUSH2 0x27F2 JUMP JUMPDEST DUP3 MSTORE POP POP JUMP JUMPDEST PUSH0 PUSH1 0x40 DUP3 ADD SWAP1 POP PUSH2 0x2835 PUSH0 DUP4 ADD DUP6 PUSH2 0x27E3 JUMP JUMPDEST PUSH2 0x2842 PUSH1 0x20 DUP4 ADD DUP5 PUSH2 0x2813 JUMP JUMPDEST SWAP4 SWAP3 POP POP POP JUMP JUMPDEST PUSH0 PUSH1 0x40 DUP3 ADD SWAP1 POP PUSH2 0x285C PUSH0 DUP4 ADD DUP6 PUSH2 0x1FDD JUMP JUMPDEST PUSH2 0x2869 PUSH1 0x20 DUP4 ADD DUP5 PUSH2 0x2813 JUMP JUMPDEST SWAP4 SWAP3 POP POP POP JUMP JUMPDEST PUSH0 PUSH2 0x287A DUP3 PUSH2 0x1FD4 JUMP JUMPDEST SWAP2 POP PUSH2 0x2885 DUP4 PUSH2 0x1FD4 JUMP JUMPDEST SWAP3 POP DUP3 DUP3 ADD SWAP1 POP DUP1 DUP3 GT ISZERO PUSH2 0x289D JUMPI PUSH2 0x289C PUSH2 0x2397 JUMP JUMPDEST JUMPDEST SWAP3 SWAP2 POP POP JUMP JUMPDEST PUSH32 0x556E737570706F7274656420746F6B656E210000000000000000000000000000 PUSH0 DUP3 ADD MSTORE POP JUMP JUMPDEST PUSH0 PUSH2 0x28D7 PUSH1 0x12 DUP4 PUSH2 0x253D JUMP JUMPDEST SWAP2 POP PUSH2 0x28E2 DUP3 PUSH2 0x28A3 JUMP JUMPDEST PUSH1 0x20 DUP3 ADD SWAP1 POP SWAP2 SWAP1 POP JUMP JUMPDEST PUSH0 PUSH1 0x20 DUP3 ADD SWAP1 POP DUP2 DUP2 SUB PUSH0 DUP4 ADD MSTORE PUSH2 0x2904 DUP2 PUSH2 0x28CB JUMP JUMPDEST SWAP1 POP SWAP2 SWAP1 POP JUMP JUMPDEST PUSH32 0x4E487B7100000000000000000000000000000000000000000000000000000000 PUSH0 MSTORE PUSH1 0x32 PUSH1 0x4 MSTORE PUSH1 0x24 PUSH0 REVERT JUMPDEST PUSH0 DUP2 MLOAD SWAP1 POP PUSH2 0x2946 DUP2 PUSH2 0x1ED8 JUMP JUMPDEST SWAP3 SWAP2 POP POP JUMP JUMPDEST PUSH0 PUSH1 0x20 DUP3 DUP5 SUB SLT ISZERO PUSH2 0x2961 JUMPI PUSH2 0x2960 PUSH2 0x1E6A JUMP JUMPDEST JUMPDEST PUSH0 PUSH2 0x296E DUP5 DUP3 DUP6 ADD PUSH2 0x2938 JUMP JUMPDEST SWAP2 POP POP SWAP3 SWAP2 POP POP JUMP JUMPDEST PUSH0 PUSH10 0xFFFFFFFFFFFFFFFFFFFF DUP3 AND SWAP1 POP SWAP2 SWAP1 POP JUMP JUMPDEST PUSH2 0x2995 DUP2 PUSH2 0x2977 JUMP JUMPDEST DUP2 EQ PUSH2 0x299F JUMPI PUSH0 PUSH0 REVERT JUMPDEST POP JUMP JUMPDEST PUSH0 DUP2 MLOAD SWAP1 POP PUSH2 0x29B0 DUP2 PUSH2 0x298C JUMP JUMPDEST SWAP3 SWAP2 POP POP JUMP JUMPDEST PUSH0 DUP2 SWAP1 POP SWAP2 SWAP1 POP JUMP JUMPDEST PUSH2 0x29C8 DUP2 PUSH2 0x29B6 JUMP JUMPDEST DUP2 EQ PUSH2 0x29D2 JUMPI PUSH0 PUSH0 REVERT JUMPDEST POP JUMP JUMPDEST PUSH0 DUP2 MLOAD SWAP1 POP PUSH2 0x29E3 DUP2 PUSH2 0x29BF JUMP JUMPDEST SWAP3 SWAP2 POP POP JUMP JUMPDEST PUSH0 DUP2 MLOAD SWAP1 POP PUSH2 0x29F7 DUP2 PUSH2 0x202D JUMP JUMPDEST SWAP3 SWAP2 POP POP JUMP JUMPDEST PUSH0 PUSH0 PUSH0 PUSH0 PUSH0 PUSH1 0xA0 DUP7 DUP9 SUB SLT ISZERO PUSH2 0x2A16 JUMPI PUSH2 0x2A15 PUSH2 0x1E6A JUMP JUMPDEST JUMPDEST PUSH0 PUSH2 0x2A23 DUP9 DUP3 DUP10 ADD PUSH2 0x29A2 JUMP JUMPDEST SWAP6 POP POP PUSH1 0x20 PUSH2 0x2A34 DUP9 DUP3 DUP10 ADD PUSH2 0x29D5 JUMP JUMPDEST SWAP5 POP POP PUSH1 0x40 PUSH2 0x2A45 DUP9 DUP3 DUP10 ADD PUSH2 0x29E9 JUMP JUMPDEST SWAP4 POP POP PUSH1 0x60 PUSH2 0x2A56 DUP9 DUP3 DUP10 ADD PUSH2 0x29E9 JUMP JUMPDEST SWAP3 POP POP PUSH1 0x80 PUSH2 0x2A67 DUP9 DUP3 DUP10 ADD PUSH2 0x29A2 JUMP JUMPDEST SWAP2 POP POP SWAP3 SWAP6 POP SWAP3 SWAP6 SWAP1 SWAP4 POP JUMP JUMPDEST PUSH32 0x426164206F7261636C6520646174612100000000000000000000000000000000 PUSH0 DUP3 ADD MSTORE POP JUMP JUMPDEST PUSH0 PUSH2 0x2AA8 PUSH1 0x10 DUP4 PUSH2 0x253D JUMP JUMPDEST SWAP2 POP PUSH2 0x2AB3 DUP3 PUSH2 0x2A74 JUMP JUMPDEST PUSH1 0x20 DUP3 ADD SWAP1 POP SWAP2 SWAP1 POP JUMP JUMPDEST PUSH0 PUSH1 0x20 DUP3 ADD SWAP1 POP DUP2 DUP2 SUB PUSH0 DUP4 ADD MSTORE PUSH2 0x2AD5 DUP2 PUSH2 0x2A9C JUMP JUMPDEST SWAP1 POP SWAP2 SWAP1 POP JUMP JUMPDEST PUSH0 PUSH2 0x2AE6 DUP3 PUSH2 0x1FD4 JUMP JUMPDEST SWAP2 POP PUSH2 0x2AF1 DUP4 PUSH2 0x1FD4 JUMP JUMPDEST SWAP3 POP PUSH2 0x2B1E PUSH32 0xFFFFFFFFFFFFFFFFFFFFFFFFFFFFFFFFFFFFFFFFFFFFFFFFFFFFFFFFFFFFFFFF DUP5 DUP5 PUSH2 0x2422 JUMP JUMPDEST SWAP1 POP SWAP3 SWAP2 POP POP JUMP JUMPDEST PUSH32 0x4F6666436861696E4F7261636C653A496E76616C696420646174612100000000 PUSH0 DUP3 ADD MSTORE POP JUMP JUMPDEST PUSH0 PUSH2 0x2B5A PUSH1 0x1C DUP4 PUSH2 0x253D JUMP JUMPDEST SWAP2 POP PUSH2 0x2B65 DUP3 PUSH2 0x2B26 JUMP JUMPDEST PUSH1 0x20 DUP3 ADD SWAP1 POP SWAP2 SWAP1 POP JUMP JUMPDEST PUSH0 PUSH1 0x20 DUP3 ADD SWAP1 POP DUP2 DUP2 SUB PUSH0 DUP4 ADD MSTORE PUSH2 0x2B87 DUP2 PUSH2 0x2B4E JUMP JUMPDEST SWAP1 POP SWAP2 SWAP1 POP JUMP JUMPDEST PUSH0 PUSH0 REVERT JUMPDEST PUSH0 PUSH1 0x1F NOT PUSH1 0x1F DUP4 ADD AND SWAP1 POP SWAP2 SWAP1 POP JUMP JUMPDEST PUSH32 0x4E487B7100000000000000000000000000000000000000000000000000000000 PUSH0 MSTORE PUSH1 0x41 PUSH1 0x4 MSTORE PUSH1 0x24 PUSH0 REVERT JUMPDEST PUSH2 0x2BD8 DUP3 PUSH2 0x2B92 JUMP JUMPDEST DUP2 ADD DUP2 DUP2 LT PUSH8 0xFFFFFFFFFFFFFFFF DUP3 GT OR ISZERO PUSH2 0x2BF7 JUMPI PUSH2 0x2BF6 PUSH2 0x2BA2 JUMP JUMPDEST JUMPDEST DUP1 PUSH1 0x40 MSTORE POP POP POP JUMP JUMPDEST PUSH0 PUSH2 0x2C09 PUSH2 0x1E61 JUMP JUMPDEST SWAP1 POP PUSH2 0x2C15 DUP3 DUP3 PUSH2 0x2BCF JUMP JUMPDEST SWAP2 SWAP1 POP JUMP JUMPDEST PUSH0 PUSH8 0xFFFFFFFFFFFFFFFF DUP3 GT ISZERO PUSH2 0x2C34 JUMPI PUSH2 0x2C33 PUSH2 0x2BA2 JUMP JUMPDEST JUMPDEST PUSH2 0x2C3D DUP3 PUSH2 0x2B92 JUMP JUMPDEST SWAP1 POP PUSH1 0x20 DUP2 ADD SWAP1 POP SWAP2 SWAP1 POP JUMP JUMPDEST DUP3 DUP2 DUP4 CALLDATACOPY PUSH0 DUP4 DUP4 ADD MSTORE POP POP POP JUMP JUMPDEST PUSH0 PUSH2 0x2C6A PUSH2 0x2C65 DUP5 PUSH2 0x2C1A JUMP JUMPDEST PUSH2 0x2C00 JUMP JUMPDEST SWAP1 POP DUP3 DUP2 MSTORE PUSH1 0x20 DUP2 ADD DUP5 DUP5 DUP5 ADD GT ISZERO PUSH2 0x2C86 JUMPI PUSH2 0x2C85 PUSH2 0x2B8E JUMP JUMPDEST JUMPDEST PUSH2 0x2C91 DUP5 DUP3 DUP6 PUSH2 0x2C4A JUMP JUMPDEST POP SWAP4 SWAP3 POP POP POP JUMP JUMPDEST PUSH0 DUP3 PUSH1 0x1F DUP4 ADD SLT PUSH2 0x2CAD JUMPI PUSH2 0x2CAC PUSH2 0x1F02 JUMP JUMPDEST JUMPDEST DUP2 CALLDATALOAD PUSH2 0x2CBD DUP5 DUP3 PUSH1 0x20 DUP7 ADD PUSH2 0x2C58 JUMP JUMPDEST SWAP2 POP POP SWAP3 SWAP2 POP POP JUMP JUMPDEST PUSH0 PUSH0 PUSH1 0x40 DUP4 DUP6 SUB SLT ISZERO PUSH2 0x2CDC JUMPI PUSH2 0x2CDB PUSH2 0x1E6A JUMP JUMPDEST JUMPDEST PUSH0 DUP4 ADD CALLDATALOAD PUSH8 0xFFFFFFFFFFFFFFFF DUP2 GT ISZERO PUSH2 0x2CF9 JUMPI PUSH2 0x2CF8 PUSH2 0x1E6E JUMP JUMPDEST JUMPDEST PUSH2 0x2D05 DUP6 DUP3 DUP7 ADD PUSH2 0x2C99 JUMP JUMPDEST SWAP3 POP POP PUSH1 0x20 DUP4 ADD CALLDATALOAD PUSH8 0xFFFFFFFFFFFFFFFF DUP2 GT ISZERO PUSH2 0x2D26 JUMPI PUSH2 0x2D25 PUSH2 0x1E6E JUMP JUMPDEST JUMPDEST PUSH2 0x2D32 DUP6 DUP3 DUP7 ADD PUSH2 0x2C99 JUMP JUMPDEST SWAP2 POP POP SWAP3 POP SWAP3 SWAP1 POP JUMP JUMPDEST PUSH0 DUP2 SWAP1 POP SWAP2 SWAP1 POP JUMP JUMPDEST PUSH2 0x2D4E DUP2 PUSH2 0x2D3C JUMP JUMPDEST DUP2 EQ PUSH2 0x2D58 JUMPI PUSH0 PUSH0 REVERT JUMPDEST POP JUMP JUMPDEST PUSH0 DUP2 MLOAD SWAP1 POP PUSH2 0x2D69 DUP2 PUSH2 0x2D45 JUMP JUMPDEST SWAP3 SWAP2 POP POP JUMP JUMPDEST PUSH0 PUSH2 0x2D79 DUP3 PUSH2 0x1E72 JUMP JUMPDEST SWAP1 POP SWAP2 SWAP1 POP JUMP JUMPDEST PUSH2 0x2D89 DUP2 PUSH2 0x2D6F JUMP JUMPDEST DUP2 EQ PUSH2 0x2D93 JUMPI PUSH0 PUSH0 REVERT JUMPDEST POP JUMP JUMPDEST PUSH0 DUP2 MLOAD SWAP1 POP PUSH2 0x2DA4 DUP2 PUSH2 0x2D80 JUMP JUMPDEST SWAP3 SWAP2 POP POP JUMP JUMPDEST PUSH0 PUSH12 0xFFFFFFFFFFFFFFFFFFFFFFFF DUP3 AND SWAP1 POP SWAP2 SWAP1 POP JUMP JUMPDEST PUSH2 0x2DCA DUP2 PUSH2 0x2DAA JUMP JUMPDEST DUP2 EQ PUSH2 0x2DD4 JUMPI PUSH0 PUSH0 REVERT JUMPDEST POP JUMP JUMPDEST PUSH0 DUP2 MLOAD SWAP1 POP PUSH2 0x2DE5 DUP2 PUSH2 0x2DC1 JUMP JUMPDEST SWAP3 SWAP2 POP POP JUMP JUMPDEST PUSH0 PUSH0 PUSH0 PUSH0 PUSH0 PUSH0 PUSH0 PUSH1 0xE0 DUP9 DUP11 SUB SLT ISZERO PUSH2 0x2E06 JUMPI PUSH2 0x2E05 PUSH2 0x1E6A JUMP JUMPDEST JUMPDEST PUSH0 PUSH2 0x2E13 DUP11 DUP3 DUP12 ADD PUSH2 0x2D5B JUMP JUMPDEST SWAP8 POP POP PUSH1 0x20 PUSH2 0x2E24 DUP11 DUP3 DUP12 ADD PUSH2 0x2D96 JUMP JUMPDEST SWAP7 POP POP PUSH1 0x40 PUSH2 0x2E35 DUP11 DUP3 DUP12 ADD PUSH2 0x2D96 JUMP JUMPDEST SWAP6 POP POP PUSH1 0x60 PUSH2 0x2E46 DUP11 DUP3 DUP12 ADD PUSH2 0x29E9 JUMP JUMPDEST SWAP5 POP POP PUSH1 0x80 PUSH2 0x2E57 DUP11 DUP3 DUP12 ADD PUSH2 0x2938 JUMP JUMPDEST SWAP4 POP POP PUSH1 0xA0 PUSH2 0x2E68 DUP11 DUP3 DUP12 ADD PUSH2 0x2DD7 JUMP JUMPDEST SWAP3 POP POP PUSH1 0xC0 PUSH2 0x2E79 DUP11 DUP3 DUP12 ADD PUSH2 0x2DD7 JUMP JUMPDEST SWAP2 POP POP SWAP3 SWAP6 SWAP9 SWAP2 SWAP5 SWAP8 POP SWAP3 SWAP6 POP JUMP JUMPDEST PUSH32 0x4F6666436861696E4F7261636C653A496E76616C696420545950455F48415348 PUSH0 DUP3 ADD MSTORE PUSH32 0x2100000000000000000000000000000000000000000000000000000000000000 PUSH1 0x20 DUP3 ADD MSTORE POP JUMP JUMPDEST PUSH0 PUSH2 0x2EE2 PUSH1 0x21 DUP4 PUSH2 0x253D JUMP JUMPDEST SWAP2 POP PUSH2 0x2EED DUP3 PUSH2 0x2E88 JUMP JUMPDEST PUSH1 0x40 DUP3 ADD SWAP1 POP SWAP2 SWAP1 POP JUMP JUMPDEST PUSH0 PUSH1 0x20 DUP3 ADD SWAP1 POP DUP2 DUP2 SUB PUSH0 DUP4 ADD MSTORE PUSH2 0x2F0F DUP2 PUSH2 0x2ED6 JUMP JUMPDEST SWAP1 POP SWAP2 SWAP1 POP JUMP JUMPDEST PUSH0 DUP2 PUSH1 0x60 SHL SWAP1 POP SWAP2 SWAP1 POP JUMP JUMPDEST PUSH0 PUSH2 0x2F2C DUP3 PUSH2 0x2F16 JUMP JUMPDEST SWAP1 POP SWAP2 SWAP1 POP JUMP JUMPDEST PUSH0 PUSH2 0x2F3D DUP3 PUSH2 0x2F22 JUMP JUMPDEST SWAP1 POP SWAP2 SWAP1 POP JUMP JUMPDEST PUSH2 0x2F55 PUSH2 0x2F50 DUP3 PUSH2 0x1E91 JUMP JUMPDEST PUSH2 0x2F33 JUMP JUMPDEST DUP3 MSTORE POP POP JUMP JUMPDEST PUSH0 PUSH2 0x2F66 DUP3 DUP6 PUSH2 0x2F44 JUMP JUMPDEST PUSH1 0x14 DUP3 ADD SWAP2 POP PUSH2 0x2F76 DUP3 DUP5 PUSH2 0x2F44 JUMP JUMPDEST PUSH1 0x14 DUP3 ADD SWAP2 POP DUP2 SWAP1 POP SWAP4 SWAP3 POP POP POP JUMP JUMPDEST PUSH32 0x4F6666436861696E4F7261636C653A4578706972656420646174612100000000 PUSH0 DUP3 ADD MSTORE POP JUMP JUMPDEST PUSH0 PUSH2 0x2FBA PUSH1 0x1C DUP4 PUSH2 0x253D JUMP JUMPDEST SWAP2 POP PUSH2 0x2FC5 DUP3 PUSH2 0x2F86 JUMP JUMPDEST PUSH1 0x20 DUP3 ADD SWAP1 POP SWAP2 SWAP1 POP JUMP JUMPDEST PUSH0 PUSH1 0x20 DUP3 ADD SWAP1 POP DUP2 DUP2 SUB PUSH0 DUP4 ADD MSTORE PUSH2 0x2FE7 DUP2 PUSH2 0x2FAE JUMP JUMPDEST SWAP1 POP SWAP2 SWAP1 POP JUMP JUMPDEST PUSH0 PUSH1 0x40 DUP3 ADD SWAP1 POP PUSH2 0x3001 PUSH0 DUP4 ADD DUP6 PUSH2 0x20DB JUMP JUMPDEST PUSH2 0x300E PUSH1 0x20 DUP4 ADD DUP5 PUSH2 0x21A1 JUMP JUMPDEST SWAP4 SWAP3 POP POP POP JUMP JUMPDEST PUSH32 0x4F6666436861696E4F7261636C653A4E6F7420617574686F72697A6564210000 PUSH0 DUP3 ADD MSTORE POP JUMP JUMPDEST PUSH0 PUSH2 0x3049 PUSH1 0x1E DUP4 PUSH2 0x253D JUMP JUMPDEST SWAP2 POP PUSH2 0x3054 DUP3 PUSH2 0x3015 JUMP JUMPDEST PUSH1 0x20 DUP3 ADD SWAP1 POP SWAP2 SWAP1 POP JUMP JUMPDEST PUSH0 PUSH1 0x20 DUP3 ADD SWAP1 POP DUP2 DUP2 SUB PUSH0 DUP4 ADD MSTORE PUSH2 0x3076 DUP2 PUSH2 0x303D JUMP JUMPDEST SWAP1 POP SWAP2 SWAP1 POP JUMP JUMPDEST PUSH32 0x19457468657265756D205369676E6564204D6573736167653A0A000000000000 DUP2 MSTORE POP JUMP JUMPDEST PUSH0 DUP2 MLOAD SWAP1 POP SWAP2 SWAP1 POP JUMP JUMPDEST PUSH0 DUP2 SWAP1 POP SWAP3 SWAP2 POP POP JUMP JUMPDEST DUP3 DUP2 DUP4 MCOPY PUSH0 DUP4 DUP4 ADD MSTORE POP POP POP JUMP JUMPDEST PUSH0 PUSH2 0x30CF DUP3 PUSH2 0x30A3 JUMP JUMPDEST PUSH2 0x30D9 DUP2 DUP6 PUSH2 0x30AD JUMP JUMPDEST SWAP4 POP PUSH2 0x30E9 DUP2 DUP6 PUSH1 0x20 DUP7 ADD PUSH2 0x30B7 JUMP JUMPDEST DUP1 DUP5 ADD SWAP2 POP POP SWAP3 SWAP2 POP POP JUMP JUMPDEST PUSH0 PUSH2 0x30FF DUP3 PUSH2 0x307D JUMP JUMPDEST PUSH1 0x1A DUP3 ADD SWAP2 POP PUSH2 0x310F DUP3 DUP6 PUSH2 0x30C5 JUMP JUMPDEST SWAP2 POP PUSH2 0x311B DUP3 DUP5 PUSH2 0x30C5 JUMP JUMPDEST SWAP2 POP DUP2 SWAP1 POP SWAP4 SWAP3 POP POP POP JUMP JUMPDEST PUSH32 0x4E487B7100000000000000000000000000000000000000000000000000000000 PUSH0 MSTORE PUSH1 0x21 PUSH1 0x4 MSTORE PUSH1 0x24 PUSH0 REVERT JUMPDEST PUSH2 0x315D DUP2 PUSH2 0x2D3C JUMP JUMPDEST DUP3 MSTORE POP POP JUMP JUMPDEST PUSH0 PUSH1 0x20 DUP3 ADD SWAP1 POP PUSH2 0x3176 PUSH0 DUP4 ADD DUP5 PUSH2 0x3154 JUMP JUMPDEST SWAP3 SWAP2 POP POP JUMP JUMPDEST PUSH0 PUSH1 0x80 DUP3 ADD SWAP1 POP PUSH2 0x318F PUSH0 DUP4 ADD DUP8 PUSH2 0x3154 JUMP JUMPDEST PUSH2 0x319C PUSH1 0x20 DUP4 ADD DUP7 PUSH2 0x2005 JUMP JUMPDEST PUSH2 0x31A9 PUSH1 0x40 DUP4 ADD DUP6 PUSH2 0x3154 JUMP JUMPDEST PUSH2 0x31B6 PUSH1 0x60 DUP4 ADD DUP5 PUSH2 0x3154 JUMP JUMPDEST SWAP6 SWAP5 POP POP POP POP POP JUMP INVALID LOG2 PUSH5 0x6970667358 0x22 SLT KECCAK256 0xC2 0xEF 0x4E MSIZE 0x24 0xA6 ORIGIN 0xC PUSH5 0xBD9496F460 EQ RJUMP 0xE2FF DUP13 SWAP3 SWAP6 DUP13 DUP13 0x2F 0x1E PUSH16 0x9C261890DC8764736F6C634300081D00 CALLER "
		},
		"gasEstimates": {
			"creation": {
				"codeDepositCost": "2557800",
				"executionCost": "infinite",
				"totalCost": "infinite"
			},
			"external": {
				"PRECISION()": "442",
				"QUOTE_ADDRESS()": "infinite",
				"QUOTE_DECIMALS()": "infinite",
				"isAuthorizedSigner(address)": "2978",
				"isOnchainOracle(address)": "2921",
				"owner()": "2559",
				"path_div(address,uint256)": "infinite",
				"path_mul(address,uint256)": "infinite",
				"quoteToken()": "infinite",
				"readAbsoluteCollateralValue(address,uint256,uint8,bytes)": "infinite",
				"readPrice(address,uint8,bytes)": "infinite",
				"readRelativeCollateralValue(address,uint8,uint256,uint8,uint256,bytes)": "infinite",
				"renounceOwnership()": "infinite",
				"setOracles(address,address[],address[])": "infinite",
				"setSigner(address,bool)": "infinite",
				"transferOwnership(address)": "infinite",
				"useAbsoluteCollateralValue(address,uint256,uint8,bytes)": "infinite",
				"usePrice(address,uint8,bytes)": "infinite",
				"useRelativeCollateralValue(address,uint8,uint256,uint8,uint256,bytes)": "infinite"
			},
			"internal": {
				"calc_chainlink_price(address,uint8)": "infinite"
			}
		},
		"methodIdentifiers": {
			"PRECISION()": "aaf5eb68",
			"QUOTE_ADDRESS()": "fc01d62b",
			"QUOTE_DECIMALS()": "150e89cb",
			"isAuthorizedSigner(address)": "49045e16",
			"isOnchainOracle(address)": "f621a19a",
			"owner()": "8da5cb5b",
			"path_div(address,uint256)": "5d523216",
			"path_mul(address,uint256)": "9ef1f7c2",
			"quoteToken()": "217a4b70",
			"readAbsoluteCollateralValue(address,uint256,uint8,bytes)": "1ff8d6dc",
			"readPrice(address,uint8,bytes)": "0cd07409",
			"readRelativeCollateralValue(address,uint8,uint256,uint8,uint256,bytes)": "4bbf415c",
			"renounceOwnership()": "715018a6",
			"setOracles(address,address[],address[])": "927b0504",
			"setSigner(address,bool)": "31cb6105",
			"transferOwnership(address)": "f2fde38b",
			"useAbsoluteCollateralValue(address,uint256,uint8,bytes)": "6a089215",
			"usePrice(address,uint8,bytes)": "bff734c1",
			"useRelativeCollateralValue(address,uint8,uint256,uint8,uint256,bytes)": "b4e37cf9"
		}
	},
	"abi": [
		{
			"inputs": [
				{
					"internalType": "address",
					"name": "_quote_addr",
					"type": "address"
				}
			],
			"stateMutability": "nonpayable",
			"type": "constructor"
		},
		{
			"inputs": [],
			"name": "ECDSAInvalidSignature",
			"type": "error"
		},
		{
			"inputs": [
				{
					"internalType": "uint256",
					"name": "length",
					"type": "uint256"
				}
			],
			"name": "ECDSAInvalidSignatureLength",
			"type": "error"
		},
		{
			"inputs": [
				{
					"internalType": "bytes32",
					"name": "s",
					"type": "bytes32"
				}
			],
			"name": "ECDSAInvalidSignatureS",
			"type": "error"
		},
		{
			"inputs": [
				{
					"internalType": "address",
					"name": "owner",
					"type": "address"
				}
			],
			"name": "OwnableInvalidOwner",
			"type": "error"
		},
		{
			"inputs": [
				{
					"internalType": "address",
					"name": "account",
					"type": "address"
				}
			],
			"name": "OwnableUnauthorizedAccount",
			"type": "error"
		},
		{
			"anonymous": false,
			"inputs": [
				{
					"indexed": true,
					"internalType": "address",
					"name": "base_token",
					"type": "address"
				},
				{
					"indexed": false,
					"internalType": "address[]",
					"name": "mul_path",
					"type": "address[]"
				},
				{
					"indexed": false,
					"internalType": "address[]",
					"name": "div_path",
					"type": "address[]"
				}
			],
			"name": "OnChainOracleAdded",
			"type": "event"
		},
		{
			"anonymous": false,
			"inputs": [
				{
					"indexed": true,
					"internalType": "address",
					"name": "previousOwner",
					"type": "address"
				},
				{
					"indexed": true,
					"internalType": "address",
					"name": "newOwner",
					"type": "address"
				}
			],
			"name": "OwnershipTransferred",
			"type": "event"
		},
		{
			"anonymous": false,
			"inputs": [
				{
					"indexed": true,
					"internalType": "address",
					"name": "base_token",
					"type": "address"
				},
				{
					"indexed": false,
					"internalType": "uint256",
					"name": "price",
					"type": "uint256"
				},
				{
					"indexed": false,
					"internalType": "uint256",
					"name": "decimals",
					"type": "uint256"
				}
			],
			"name": "PriceLog",
			"type": "event"
		},
		{
			"anonymous": false,
			"inputs": [
				{
					"indexed": false,
					"internalType": "address",
					"name": "signer",
					"type": "address"
				},
				{
					"indexed": false,
					"internalType": "bool",
					"name": "is_authorized",
					"type": "bool"
				}
			],
			"name": "SignerChanged",
			"type": "event"
		},
		{
			"inputs": [],
			"name": "PRECISION",
			"outputs": [
				{
					"internalType": "uint8",
					"name": "",
					"type": "uint8"
				}
			],
			"stateMutability": "view",
			"type": "function"
		},
		{
			"inputs": [],
			"name": "QUOTE_ADDRESS",
			"outputs": [
				{
					"internalType": "address",
					"name": "",
					"type": "address"
				}
			],
			"stateMutability": "view",
			"type": "function"
		},
		{
			"inputs": [],
			"name": "QUOTE_DECIMALS",
			"outputs": [
				{
					"internalType": "uint8",
					"name": "",
					"type": "uint8"
				}
			],
			"stateMutability": "view",
			"type": "function"
		},
		{
			"inputs": [
				{
					"internalType": "address",
					"name": "_signer",
					"type": "address"
				}
			],
			"name": "isAuthorizedSigner",
			"outputs": [
				{
					"internalType": "bool",
					"name": "",
					"type": "bool"
				}
			],
			"stateMutability": "view",
			"type": "function"
		},
		{
			"inputs": [
				{
					"internalType": "address",
					"name": "",
					"type": "address"
				}
			],
			"name": "isOnchainOracle",
			"outputs": [
				{
					"internalType": "bool",
					"name": "",
					"type": "bool"
				}
			],
			"stateMutability": "view",
			"type": "function"
		},
		{
			"inputs": [],
			"name": "owner",
			"outputs": [
				{
					"internalType": "address",
					"name": "",
					"type": "address"
				}
			],
			"stateMutability": "view",
			"type": "function"
		},
		{
			"inputs": [
				{
					"internalType": "address",
					"name": "",
					"type": "address"
				},
				{
					"internalType": "uint256",
					"name": "",
					"type": "uint256"
				}
			],
			"name": "path_div",
			"outputs": [
				{
					"internalType": "address",
					"name": "",
					"type": "address"
				}
			],
			"stateMutability": "view",
			"type": "function"
		},
		{
			"inputs": [
				{
					"internalType": "address",
					"name": "",
					"type": "address"
				},
				{
					"internalType": "uint256",
					"name": "",
					"type": "uint256"
				}
			],
			"name": "path_mul",
			"outputs": [
				{
					"internalType": "address",
					"name": "",
					"type": "address"
				}
			],
			"stateMutability": "view",
			"type": "function"
		},
		{
			"inputs": [],
			"name": "quoteToken",
			"outputs": [
				{
					"internalType": "address",
					"name": "",
					"type": "address"
				}
			],
			"stateMutability": "view",
			"type": "function"
		},
		{
			"inputs": [
				{
					"internalType": "address",
					"name": "base_addr",
					"type": "address"
				},
				{
					"internalType": "uint256",
					"name": "base_amount",
					"type": "uint256"
				},
				{
					"internalType": "uint8",
					"name": "base_decimals",
					"type": "uint8"
				},
				{
					"internalType": "bytes",
					"name": "offchain_data",
					"type": "bytes"
				}
			],
			"name": "readAbsoluteCollateralValue",
			"outputs": [
				{
					"internalType": "uint256",
					"name": "",
					"type": "uint256"
				}
			],
			"stateMutability": "view",
			"type": "function"
		},
		{
			"inputs": [
				{
					"internalType": "address",
					"name": "base_addr",
					"type": "address"
				},
				{
					"internalType": "uint8",
					"name": "target_decimals",
					"type": "uint8"
				},
				{
					"internalType": "bytes",
					"name": "offchain_data",
					"type": "bytes"
				}
			],
			"name": "readPrice",
			"outputs": [
				{
					"internalType": "uint256",
					"name": "",
					"type": "uint256"
				}
			],
			"stateMutability": "view",
			"type": "function"
		},
		{
			"inputs": [
				{
					"internalType": "address",
					"name": "base_addr",
					"type": "address"
				},
				{
					"internalType": "uint8",
					"name": "result_decimals",
					"type": "uint8"
				},
				{
					"internalType": "uint256",
					"name": "base_amount",
					"type": "uint256"
				},
				{
					"internalType": "uint8",
					"name": "base_decimals",
					"type": "uint8"
				},
				{
					"internalType": "uint256",
					"name": "quote_amount",
					"type": "uint256"
				},
				{
					"internalType": "bytes",
					"name": "offchain_data",
					"type": "bytes"
				}
			],
			"name": "readRelativeCollateralValue",
			"outputs": [
				{
					"internalType": "uint256",
					"name": "",
					"type": "uint256"
				}
			],
			"stateMutability": "view",
			"type": "function"
		},
		{
			"inputs": [],
			"name": "renounceOwnership",
			"outputs": [],
			"stateMutability": "nonpayable",
			"type": "function"
		},
		{
			"inputs": [
				{
					"internalType": "address",
					"name": "base_addr",
					"type": "address"
				},
				{
					"internalType": "address[]",
					"name": "mul",
					"type": "address[]"
				},
				{
					"internalType": "address[]",
					"name": "div",
					"type": "address[]"
				}
			],
			"name": "setOracles",
			"outputs": [],
			"stateMutability": "nonpayable",
			"type": "function"
		},
		{
			"inputs": [
				{
					"internalType": "address",
					"name": "signer",
					"type": "address"
				},
				{
					"internalType": "bool",
					"name": "state",
					"type": "bool"
				}
			],
			"name": "setSigner",
			"outputs": [],
			"stateMutability": "nonpayable",
			"type": "function"
		},
		{
			"inputs": [
				{
					"internalType": "address",
					"name": "newOwner",
					"type": "address"
				}
			],
			"name": "transferOwnership",
			"outputs": [],
			"stateMutability": "nonpayable",
			"type": "function"
		},
		{
			"inputs": [
				{
					"internalType": "address",
					"name": "base_addr",
					"type": "address"
				},
				{
					"internalType": "uint256",
					"name": "base_amount",
					"type": "uint256"
				},
				{
					"internalType": "uint8",
					"name": "base_decimals",
					"type": "uint8"
				},
				{
					"internalType": "bytes",
					"name": "offchain_data",
					"type": "bytes"
				}
			],
			"name": "useAbsoluteCollateralValue",
			"outputs": [
				{
					"internalType": "uint256",
					"name": "",
					"type": "uint256"
				}
			],
			"stateMutability": "nonpayable",
			"type": "function"
		},
		{
			"inputs": [
				{
					"internalType": "address",
					"name": "base_addr",
					"type": "address"
				},
				{
					"internalType": "uint8",
					"name": "target_decimals",
					"type": "uint8"
				},
				{
					"internalType": "bytes",
					"name": "offchain_data",
					"type": "bytes"
				}
			],
			"name": "usePrice",
			"outputs": [
				{
					"internalType": "uint256",
					"name": "",
					"type": "uint256"
				}
			],
			"stateMutability": "nonpayable",
			"type": "function"
		},
		{
			"inputs": [
				{
					"internalType": "address",
					"name": "base_addr",
					"type": "address"
				},
				{
					"internalType": "uint8",
					"name": "result_decimals",
					"type": "uint8"
				},
				{
					"internalType": "uint256",
					"name": "base_amount",
					"type": "uint256"
				},
				{
					"internalType": "uint8",
					"name": "base_decimals",
					"type": "uint8"
				},
				{
					"internalType": "uint256",
					"name": "quote_amount",
					"type": "uint256"
				},
				{
					"internalType": "bytes",
					"name": "offchain_data",
					"type": "bytes"
				}
			],
			"name": "useRelativeCollateralValue",
			"outputs": [
				{
					"internalType": "uint256",
					"name": "",
					"type": "uint256"
				}
			],
			"stateMutability": "nonpayable",
			"type": "function"
		}
	]
}