{
	"data": {
		"bytecode": {
			"linkReferences": {},
			"object": "60c06040527f08c4a6ba964682b11f46df8ca21a2332795b52b556af6ce17e5f0727ca0f8e53600255348015610033575f5ffd5b5060405161216f38038061216f83398101604081905261005291610148565b338061007757604051631e4fbdf760e01b81525f600482015260240160405180910390fd5b610080816100f9565b506001600160a01b03811660808190526040805163313ce56760e01b8152905163313ce567916004808201926020929091908290030181865afa1580156100c9573d5f5f3e3d5ffd5b505050506040513d601f19601f820116820180604052508101906100ed9190610175565b60ff1660a05250610195565b5f80546001600160a01b038381166001600160a01b0319831681178455604051919092169283917f8be0079c531659141344cd1fd0a4f28419497f9722a3daafe3b4186f6b6457e09190a35050565b5f60208284031215610158575f5ffd5b81516001600160a01b038116811461016e575f5ffd5b9392505050565b5f60208284031215610185575f5ffd5b815160ff8116811461016e575f5ffd5b60805160a051611f886101e75f395f81816101db015281816105c4015261087a01525f8181610224015281816103ac01528181610416015281816104db015281816108c601526109d10152611f885ff3fe608060405234801561000f575f5ffd5b5060043610610184575f3560e01c8063715018a6116100dd578063b57a1b0b11610088578063f2fde38b11610063578063f2fde38b14610372578063f621a19a14610385578063fc01d62b146103a7575f5ffd5b8063b57a1b0b14610339578063bff734c11461034c578063c5801aa31461035f575f5ffd5b80639ef1f7c2116100b85780639ef1f7c21461030b578063aaf5eb681461031e578063b4e37cf914610326575f5ffd5b8063715018a6146102e05780638da5cb5b146102e8578063927b0504146102f8575f5ffd5b806331cb61051161013d5780634bbf415c116101185780634bbf415c146102a75780635d523216146102ba5780636a089215146102cd575f5ffd5b806331cb61051461025c5780633628815c1461027157806349045e1614610284575f5ffd5b8063150e89cb1161016d578063150e89cb146101d65780631ff8d6dc1461020f578063217a4b7014610222575f5ffd5b80630649b8c2146101885780630cd07409146101b5575b5f5ffd5b61019b610196366004611804565b6103ce565b604080519283526020830191909152015b60405180910390f35b6101c86101c336600461188d565b610413565b6040519081526020016101ac565b6101fd7f000000000000000000000000000000000000000000000000000000000000000081565b60405160ff90911681526020016101ac565b6101c861021d3660046118ee565b6105a2565b7f00000000000000000000000000000000000000000000000000000000000000005b6040516001600160a01b0390911681526020016101ac565b61026f61026a36600461195c565b610628565b005b61019b61027f366004611804565b61063e565b610297610292366004611997565b61064e565b60405190151581526020016101ac565b6101c86102b5366004611804565b61068a565b6102446102c83660046119b9565b6106c9565b6101c86102db3660046118ee565b6106fd565b61026f61070c565b5f546001600160a01b0316610244565b61026f610306366004611a24565b61071f565b6102446103193660046119b9565b61083c565b6101fd601581565b6101c8610334366004611804565b610855565b6101c8610347366004611a95565b610864565b6101c861035a36600461188d565b6108c3565b6101c861036d366004611a95565b610ad4565b61026f610380366004611997565b610ae3565b610297610393366004611997565b60056020525f908152604090205460ff1681565b6102447f000000000000000000000000000000000000000000000000000000000000000081565b5f5f5f6103de8a898988886106fd565b90508086816103ee8c600a611bdd565b6103f89190611beb565b6104029190611c02565b925092505097509795505050505050565b5f7f00000000000000000000000000000000000000000000000000000000000000006001600160a01b0316856001600160a01b03160361045f5761045884600a611bdd565b905061059a565b5f8460ff161161046d575f5ffd5b6001600160a01b0385165f9081526005602052604090205460ff1615610497576104588585610b39565b5f6104a385600a611bdd565b90505f5f5f5f6104b38888610f87565b50509350935093509350896001600160a01b0316846001600160a01b031614801561050f57507f00000000000000000000000000000000000000000000000000000000000000006001600160a01b0316836001600160a01b0316145b801561051d57505f8160ff16115b61056e5760405162461bcd60e51b815260206004820152601960248201527f426164206f6666636861696e206f7261636c652064617461210000000000000060448201526064015b60405180910390fd5b61057981600a611bdd565b6105838387611beb565b61058d9190611c02565b955061059a945050505050565b949350505050565b5f5f6105b18760158686610413565b90506105bf6015600a611bdd565b6105ea7f0000000000000000000000000000000000000000000000000000000000000000600a611bdd565b6105f587600a611bdd565b6105ff848a611beb565b6106099190611c02565b6106139190611beb565b61061d9190611c02565b979650505050505050565b610630611171565b61063a82826111b6565b5050565b5f5f5f6103de8a898988886105a2565b5f6001600160a01b0382161580159061068457506001600160a01b0382165f9081526001602081905260409091205460ff161515145b92915050565b5f5f61069989888887876105a2565b905084816106a88a600a611bdd565b6106b29190611beb565b6106bc9190611c02565b9998505050505050505050565b6004602052815f5260405f2081815481106106e2575f80fd5b5f918252602090912001546001600160a01b03169150829050565b5f5f6105b187601586866108c3565b610714611171565b61071d5f611218565b565b610727611171565b6001600160a01b0385165f9081526005602052604090205460ff161561078f5760405162461bcd60e51b815260206004820152601660248201527f4f7261636c6520697320616c72656164792073657421000000000000000000006044820152606401610565565b6001600160a01b0385165f9081526003602052604090206107b190858561171b565b506001600160a01b0385165f9081526004602052604090206107d490838361171b565b506001600160a01b0385165f8181526005602052604090819020805460ff19166001179055517f7f62a858613430febc57d74cd39ba9acb468281347bb5fe1acabb12482e890529061082d908790879087908790611c69565b60405180910390a25050505050565b6003602052815f5260405f2081815481106106e2575f80fd5b5f5f61069989888887876106fd565b5f5f6108738760158686610413565b90506108a07f0000000000000000000000000000000000000000000000000000000000000000600a611bdd565b6108ab87600a611bdd565b82876108b96015600a611bdd565b6105ff9190611beb565b5f7f00000000000000000000000000000000000000000000000000000000000000006001600160a01b0316856001600160a01b03160361094f57604080516001815260ff861660208201526001600160a01b038716917f5db0211664709a6e813c8a533f05660f4d86d46ea914d072768d780cb75a934c910160405180910390a261045884600a611bdd565b5f8460ff161161095d575f5ffd5b6001600160a01b0385165f9081526005602052604081205460ff161561098e576109878686610b39565b9050610a85565b61099985600a611bdd565b90505f5f5f5f6109a98888611274565b50509350935093509350896001600160a01b0316846001600160a01b0316148015610a0557507f00000000000000000000000000000000000000000000000000000000000000006001600160a01b0316836001600160a01b0316145b8015610a1357505f8160ff16115b610a5f5760405162461bcd60e51b815260206004820152601960248201527f426164206f6666636861696e206f7261636c65206461746121000000000000006044820152606401610565565b610a6a81600a611bdd565b610a748387611beb565b610a7e9190611c02565b9450505050505b6040805182815260ff871660208201526001600160a01b038816917f5db0211664709a6e813c8a533f05660f4d86d46ea914d072768d780cb75a934c910160405180910390a295945050505050565b5f5f61087387601586866108c3565b610aeb611171565b6001600160a01b038116610b2d576040517f1e4fbdf70000000000000000000000000000000000000000000000000000000081525f6004820152602401610565565b610b3681611218565b50565b6001600160a01b0382165f90815260036020908152604080832080548251818502810185019093528083528493830182828015610b9d57602002820191905f5260205f20905b81546001600160a01b03168152600190910190602001808311610b7f575b505050506001600160a01b0386165f9081526004602090815260408083208054825181850281018501909352808352959650929490935090830182828015610c0c57602002820191905f5260205f20905b81546001600160a01b03168152600190910190602001808311610bee575b505050505090505f81518351610c229190611c8f565b11610c6f5760405162461bcd60e51b815260206004820152601260248201527f556e737570706f7274656420746f6b656e2100000000000000000000000000006044820152606401610565565b5f610c7b85600a611bdd565b90505f5b8351811015610dfc575f848281518110610c9b57610c9b611ca2565b602002602001015190505f816001600160a01b031663313ce5676040518163ffffffff1660e01b8152600401602060405180830381865afa158015610ce2573d5f5f3e3d5ffd5b505050506040513d601f19601f82011682018060405250810190610d069190611cb6565b60ff1690505f826001600160a01b031663feaf968c6040518163ffffffff1660e01b815260040160a060405180830381865afa158015610d48573d5f5f3e3d5ffd5b505050506040513d601f19601f82011682018060405250810190610d6c9190611cef565b5050509150505f82118015610d8057505f81135b610dcc5760405162461bcd60e51b815260206004820152601060248201527f426164206f7261636c65206461746121000000000000000000000000000000006044820152606401610565565b610dd782600a611d3d565b610de18287611beb565b610deb9190611c02565b94505060019092019150610c7f9050565b505f5b8251811015610f7d575f838281518110610e1b57610e1b611ca2565b602002602001015190505f816001600160a01b031663313ce5676040518163ffffffff1660e01b8152600401602060405180830381865afa158015610e62573d5f5f3e3d5ffd5b505050506040513d601f19601f82011682018060405250810190610e869190611cb6565b60ff1690505f826001600160a01b031663feaf968c6040518163ffffffff1660e01b815260040160a060405180830381865afa158015610ec8573d5f5f3e3d5ffd5b505050506040513d601f19601f82011682018060405250810190610eec9190611cef565b5050509150505f82118015610f0057505f81135b610f4c5760405162461bcd60e51b815260206004820152601060248201527f426164206f7261636c65206461746121000000000000000000000000000000006044820152606401610565565b80610f5883600a611d3d565b610f629087611beb565b610f6c9190611c02565b94505060019092019150610dff9050565b5095945050505050565b5f808080808086610fda5760405162461bcd60e51b815260206004820152601c60248201527f4f6666436861696e4f7261636c653a496e76616c6964206461746121000000006044820152606401610565565b5f80610fe8898b018b611de7565b915091505f5f5f5f5f5f5f5f898060200190518101906110089190611e67565b97509750975097509750975097509750600254881461108f5760405162461bcd60e51b815260206004820152602160248201527f4f6666436861696e4f7261636c653a496e76616c696420545950455f4841534860448201527f21000000000000000000000000000000000000000000000000000000000000006064820152608401610565565b4687146110de5760405162461bcd60e51b815260206004820181905260248201527f4f6666436861696e4f7261636c653a496e76616c696420636861696e5f6964216044820152606401610565565b806bffffffffffffffffffffffff16426bffffffffffffffffffffffff16111561114a5760405162461bcd60e51b815260206004820152601c60248201527f4f6666436861696e4f7261636c653a45787069726564206461746121000000006044820152606401610565565b6111548a8a6112b8565b949e50929c50909a50985096509450505050509295509295509295565b5f546001600160a01b0316331461071d576040517f118cdaa7000000000000000000000000000000000000000000000000000000008152336004820152602401610565565b6001600160a01b0382165f81815260016020908152604091829020805460ff19168515159081179091558251938452908301527f70f1a3dba165402559aaa92407aa69ed152f584fde0bc213bcf1c47acef771b6910160405180910390a15050565b5f80546001600160a01b0383811673ffffffffffffffffffffffffffffffffffffffff19831681178455604051919092169283917f8be0079c531659141344cd1fd0a4f28419497f9722a3daafe3b4186f6b6457e09190a35050565b5f5f5f5f5f5f5f5f5f5f5f5f61128a8e8e610f87565b9550955095509550955095508585858585859b509b509b509b509b509b505050505050509295509295509295565b5f6112cb6112c584611327565b83611361565b90506112d68161064e565b6113225760405162461bcd60e51b815260206004820152601e60248201527f4f6666436861696e4f7261636c653a4e6f7420617574686f72697a65642100006044820152606401610565565b505050565b5f6113328251611389565b82604051602001611344929190611f04565b604051602081830303815290604052805190602001209050919050565b5f5f5f5f61136f8686611426565b92509250925061137f828261146f565b5090949350505050565b60605f61139583611572565b60010190505f8167ffffffffffffffff8111156113b4576113b4611d48565b6040519080825280601f01601f1916602001820160405280156113de576020820181803683370190505b5090508181016020015b5f19017f3031323334353637383961626364656600000000000000000000000000000000600a86061a8153600a85049450846113e857509392505050565b5f5f5f835160410361145d576020840151604085015160608601515f1a61144f88828585611653565b955095509550505050611468565b505081515f91506002905b9250925092565b5f82600381111561148257611482611f3e565b0361148b575050565b600182600381111561149f5761149f611f3e565b036114d6576040517ff645eedf00000000000000000000000000000000000000000000000000000000815260040160405180910390fd5b60028260038111156114ea576114ea611f3e565b03611524576040517ffce698f700000000000000000000000000000000000000000000000000000000815260048101829052602401610565565b600382600381111561153857611538611f3e565b0361063a576040517fd78bce0c00000000000000000000000000000000000000000000000000000000815260048101829052602401610565565b5f807a184f03e93ff9f4daa797ed6e38ed64bf6a1f01000000000000000083106115ba577a184f03e93ff9f4daa797ed6e38ed64bf6a1f010000000000000000830492506040015b6d04ee2d6d415b85acef810000000083106115e6576d04ee2d6d415b85acef8100000000830492506020015b662386f26fc10000831061160457662386f26fc10000830492506010015b6305f5e100831061161c576305f5e100830492506008015b612710831061163057612710830492506004015b60648310611642576064830492506002015b600a83106106845760010192915050565b5f80807f7fffffffffffffffffffffffffffffff5d576e7357a4501ddfe92f46681b20a084111561168c57505f91506003905082611711565b604080515f808252602082018084528a905260ff891692820192909252606081018790526080810186905260019060a0016020604051602081039080840390855afa1580156116dd573d5f5f3e3d5ffd5b5050604051601f1901519150506001600160a01b03811661170857505f925060019150829050611711565b92505f91508190505b9450945094915050565b828054828255905f5260205f20908101928215611779579160200282015b8281111561177957815473ffffffffffffffffffffffffffffffffffffffff19166001600160a01b03843516178255602090920191600190910190611739565b50611785929150611789565b5090565b5b80821115611785575f815560010161178a565b6001600160a01b0381168114610b36575f5ffd5b60ff81168114610b36575f5ffd5b5f5f83601f8401126117cf575f5ffd5b50813567ffffffffffffffff8111156117e6575f5ffd5b6020830191508360208285010111156117fd575f5ffd5b9250929050565b5f5f5f5f5f5f5f60c0888a03121561181a575f5ffd5b87356118258161179d565b96506020880135611835816117b1565b955060408801359450606088013561184c816117b1565b93506080880135925060a088013567ffffffffffffffff81111561186e575f5ffd5b61187a8a828b016117bf565b989b979a50959850939692959293505050565b5f5f5f5f606085870312156118a0575f5ffd5b84356118ab8161179d565b935060208501356118bb816117b1565b9250604085013567ffffffffffffffff8111156118d6575f5ffd5b6118e2878288016117bf565b95989497509550505050565b5f5f5f5f5f60808688031215611902575f5ffd5b853561190d8161179d565b9450602086013593506040860135611924816117b1565b9250606086013567ffffffffffffffff81111561193f575f5ffd5b61194b888289016117bf565b969995985093965092949392505050565b5f5f6040838503121561196d575f5ffd5b82356119788161179d565b91506020830135801515811461198c575f5ffd5b809150509250929050565b5f602082840312156119a7575f5ffd5b81356119b28161179d565b9392505050565b5f5f604083850312156119ca575f5ffd5b82356119d58161179d565b946020939093013593505050565b5f5f83601f8401126119f3575f5ffd5b50813567ffffffffffffffff811115611a0a575f5ffd5b6020830191508360208260051b85010111156117fd575f5ffd5b5f5f5f5f5f60608688031215611a38575f5ffd5b8535611a438161179d565b9450602086013567ffffffffffffffff811115611a5e575f5ffd5b611a6a888289016119e3565b909550935050604086013567ffffffffffffffff811115611a89575f5ffd5b61194b888289016119e3565b5f5f5f5f5f60808688031215611aa9575f5ffd5b8535611ab48161179d565b94506020860135611ac4816117b1565b935060408601359250606086013567ffffffffffffffff81111561193f575f5ffd5b634e487b7160e01b5f52601160045260245ffd5b6001815b6001841115611b3557808504811115611b1957611b19611ae6565b6001841615611b2757908102905b60019390931c928002611afe565b935093915050565b5f82611b4b57506001610684565b81611b5757505f610684565b8160018114611b6d5760028114611b7757611b93565b6001915050610684565b60ff841115611b8857611b88611ae6565b50506001821b610684565b5060208310610133831016604e8410600b8410161715611bb6575081810a610684565b611bc25f198484611afa565b805f1904821115611bd557611bd5611ae6565b029392505050565b5f6119b260ff841683611b3d565b808202811582820484141761068457610684611ae6565b5f82611c1c57634e487b7160e01b5f52601260045260245ffd5b500490565b8183526020830192505f815f5b84811015611c5f578135611c418161179d565b6001600160a01b031686526020958601959190910190600101611c2e565b5093949350505050565b604081525f611c7c604083018688611c21565b828103602084015261061d818587611c21565b8082018082111561068457610684611ae6565b634e487b7160e01b5f52603260045260245ffd5b5f60208284031215611cc6575f5ffd5b81516119b2816117b1565b805169ffffffffffffffffffff81168114611cea575f5ffd5b919050565b5f5f5f5f5f60a08688031215611d03575f5ffd5b611d0c86611cd1565b60208701516040880151606089015192975090955093509150611d3160808701611cd1565b90509295509295909350565b5f6119b28383611b3d565b634e487b7160e01b5f52604160045260245ffd5b5f82601f830112611d6b575f5ffd5b813567ffffffffffffffff811115611d8557611d85611d48565b604051601f8201601f19908116603f0116810167ffffffffffffffff81118282101715611db457611db4611d48565b604052818152838201602001851015611dcb575f5ffd5b816020850160208301375f918101602001919091529392505050565b5f5f60408385031215611df8575f5ffd5b823567ffffffffffffffff811115611e0e575f5ffd5b611e1a85828601611d5c565b925050602083013567ffffffffffffffff811115611e36575f5ffd5b611e4285828601611d5c565b9150509250929050565b80516bffffffffffffffffffffffff81168114611cea575f5ffd5b5f5f5f5f5f5f5f5f610100898b031215611e7f575f5ffd5b885160208a015160408b01519199509750611e998161179d565b60608a0151909650611eaa8161179d565b60808a015160a08b01519196509450611ec2816117b1565b9250611ed060c08a01611e4c565b9150611ede60e08a01611e4c565b90509295985092959890939650565b5f81518060208401855e5f93019283525090919050565b7f19457468657265756d205369676e6564204d6573736167653a0a00000000000081525f61059a611f38601a840186611eed565b84611eed565b634e487b7160e01b5f52602160045260245ffdfea26469706673582212200e1437843b8dba4992db977a1f04cf5aee4da5210157209d591cb948667d089064736f6c634300081e0033",
			"opcodes": "PUSH1 0xC0 PUSH1 0x40 MSTORE PUSH32 0x8C4A6BA964682B11F46DF8CA21A2332795B52B556AF6CE17E5F0727CA0F8E53 PUSH1 0x2 SSTORE CALLVALUE DUP1 ISZERO PUSH2 0x33 JUMPI PUSH0 PUSH0 REVERT JUMPDEST POP PUSH1 0x40 MLOAD PUSH2 0x216F CODESIZE SUB DUP1 PUSH2 0x216F DUP4 CODECOPY DUP2 ADD PUSH1 0x40 DUP2 SWAP1 MSTORE PUSH2 0x52 SWAP2 PUSH2 0x148 JUMP JUMPDEST CALLER DUP1 PUSH2 0x77 JUMPI PUSH1 0x40 MLOAD PUSH4 0x1E4FBDF7 PUSH1 0xE0 SHL DUP2 MSTORE PUSH0 PUSH1 0x4 DUP3 ADD MSTORE PUSH1 0x24 ADD PUSH1 0x40 MLOAD DUP1 SWAP2 SUB SWAP1 REVERT JUMPDEST PUSH2 0x80 DUP2 PUSH2 0xF9 JUMP JUMPDEST POP PUSH1 0x1 PUSH1 0x1 PUSH1 0xA0 SHL SUB DUP2 AND PUSH1 0x80 DUP2 SWAP1 MSTORE PUSH1 0x40 DUP1 MLOAD PUSH4 0x313CE567 PUSH1 0xE0 SHL DUP2 MSTORE SWAP1 MLOAD PUSH4 0x313CE567 SWAP2 PUSH1 0x4 DUP1 DUP3 ADD SWAP3 PUSH1 0x20 SWAP3 SWAP1 SWAP2 SWAP1 DUP3 SWAP1 SUB ADD DUP2 DUP7 GAS STATICCALL ISZERO DUP1 ISZERO PUSH2 0xC9 JUMPI RETURNDATASIZE PUSH0 PUSH0 RETURNDATACOPY RETURNDATASIZE PUSH0 REVERT JUMPDEST POP POP POP POP PUSH1 0x40 MLOAD RETURNDATASIZE PUSH1 0x1F NOT PUSH1 0x1F DUP3 ADD AND DUP3 ADD DUP1 PUSH1 0x40 MSTORE POP DUP2 ADD SWAP1 PUSH2 0xED SWAP2 SWAP1 PUSH2 0x175 JUMP JUMPDEST PUSH1 0xFF AND PUSH1 0xA0 MSTORE POP PUSH2 0x195 JUMP JUMPDEST PUSH0 DUP1 SLOAD PUSH1 0x1 PUSH1 0x1 PUSH1 0xA0 SHL SUB DUP4 DUP2 AND PUSH1 0x1 PUSH1 0x1 PUSH1 0xA0 SHL SUB NOT DUP4 AND DUP2 OR DUP5 SSTORE PUSH1 0x40 MLOAD SWAP2 SWAP1 SWAP3 AND SWAP3 DUP4 SWAP2 PUSH32 0x8BE0079C531659141344CD1FD0A4F28419497F9722A3DAAFE3B4186F6B6457E0 SWAP2 SWAP1 LOG3 POP POP JUMP JUMPDEST PUSH0 PUSH1 0x20 DUP3 DUP5 SUB SLT ISZERO PUSH2 0x158 JUMPI PUSH0 PUSH0 REVERT JUMPDEST DUP2 MLOAD PUSH1 0x1 PUSH1 0x1 PUSH1 0xA0 SHL SUB DUP2 AND DUP2 EQ PUSH2 0x16E JUMPI PUSH0 PUSH0 REVERT JUMPDEST SWAP4 SWAP3 POP POP POP JUMP JUMPDEST PUSH0 PUSH1 0x20 DUP3 DUP5 SUB SLT ISZERO PUSH2 0x185 JUMPI PUSH0 PUSH0 REVERT JUMPDEST DUP2 MLOAD PUSH1 0xFF DUP2 AND DUP2 EQ PUSH2 0x16E JUMPI PUSH0 PUSH0 REVERT JUMPDEST PUSH1 0x80 MLOAD PUSH1 0xA0 MLOAD PUSH2 0x1F88 PUSH2 0x1E7 PUSH0 CODECOPY PUSH0 DUP2 DUP2 PUSH2 0x1DB ADD MSTORE DUP2 DUP2 PUSH2 0x5C4 ADD MSTORE PUSH2 0x87A ADD MSTORE PUSH0 DUP2 DUP2 PUSH2 0x224 ADD MSTORE DUP2 DUP2 PUSH2 0x3AC ADD MSTORE DUP2 DUP2 PUSH2 0x416 ADD MSTORE DUP2 DUP2 PUSH2 0x4DB ADD MSTORE DUP2 DUP2 PUSH2 0x8C6 ADD MSTORE PUSH2 0x9D1 ADD MSTORE PUSH2 0x1F88 PUSH0 RETURN INVALID PUSH1 0x80 PUSH1 0x40 MSTORE CALLVALUE DUP1 ISZERO PUSH2 0xF JUMPI PUSH0 PUSH0 REVERT JUMPDEST POP PUSH1 0x4 CALLDATASIZE LT PUSH2 0x184 JUMPI PUSH0 CALLDATALOAD PUSH1 0xE0 SHR DUP1 PUSH4 0x715018A6 GT PUSH2 0xDD JUMPI DUP1 PUSH4 0xB57A1B0B GT PUSH2 0x88 JUMPI DUP1 PUSH4 0xF2FDE38B GT PUSH2 0x63 JUMPI DUP1 PUSH4 0xF2FDE38B EQ PUSH2 0x372 JUMPI DUP1 PUSH4 0xF621A19A EQ PUSH2 0x385 JUMPI DUP1 PUSH4 0xFC01D62B EQ PUSH2 0x3A7 JUMPI PUSH0 PUSH0 REVERT JUMPDEST DUP1 PUSH4 0xB57A1B0B EQ PUSH2 0x339 JUMPI DUP1 PUSH4 0xBFF734C1 EQ PUSH2 0x34C JUMPI DUP1 PUSH4 0xC5801AA3 EQ PUSH2 0x35F JUMPI PUSH0 PUSH0 REVERT JUMPDEST DUP1 PUSH4 0x9EF1F7C2 GT PUSH2 0xB8 JUMPI DUP1 PUSH4 0x9EF1F7C2 EQ PUSH2 0x30B JUMPI DUP1 PUSH4 0xAAF5EB68 EQ PUSH2 0x31E JUMPI DUP1 PUSH4 0xB4E37CF9 EQ PUSH2 0x326 JUMPI PUSH0 PUSH0 REVERT JUMPDEST DUP1 PUSH4 0x715018A6 EQ PUSH2 0x2E0 JUMPI DUP1 PUSH4 0x8DA5CB5B EQ PUSH2 0x2E8 JUMPI DUP1 PUSH4 0x927B0504 EQ PUSH2 0x2F8 JUMPI PUSH0 PUSH0 REVERT JUMPDEST DUP1 PUSH4 0x31CB6105 GT PUSH2 0x13D JUMPI DUP1 PUSH4 0x4BBF415C GT PUSH2 0x118 JUMPI DUP1 PUSH4 0x4BBF415C EQ PUSH2 0x2A7 JUMPI DUP1 PUSH4 0x5D523216 EQ PUSH2 0x2BA JUMPI DUP1 PUSH4 0x6A089215 EQ PUSH2 0x2CD JUMPI PUSH0 PUSH0 REVERT JUMPDEST DUP1 PUSH4 0x31CB6105 EQ PUSH2 0x25C JUMPI DUP1 PUSH4 0x3628815C EQ PUSH2 0x271 JUMPI DUP1 PUSH4 0x49045E16 EQ PUSH2 0x284 JUMPI PUSH0 PUSH0 REVERT JUMPDEST DUP1 PUSH4 0x150E89CB GT PUSH2 0x16D JUMPI DUP1 PUSH4 0x150E89CB EQ PUSH2 0x1D6 JUMPI DUP1 PUSH4 0x1FF8D6DC EQ PUSH2 0x20F JUMPI DUP1 PUSH4 0x217A4B70 EQ PUSH2 0x222 JUMPI PUSH0 PUSH0 REVERT JUMPDEST DUP1 PUSH4 0x649B8C2 EQ PUSH2 0x188 JUMPI DUP1 PUSH4 0xCD07409 EQ PUSH2 0x1B5 JUMPI JUMPDEST PUSH0 PUSH0 REVERT JUMPDEST PUSH2 0x19B PUSH2 0x196 CALLDATASIZE PUSH1 0x4 PUSH2 0x1804 JUMP JUMPDEST PUSH2 0x3CE JUMP JUMPDEST PUSH1 0x40 DUP1 MLOAD SWAP3 DUP4 MSTORE PUSH1 0x20 DUP4 ADD SWAP2 SWAP1 SWAP2 MSTORE ADD JUMPDEST PUSH1 0x40 MLOAD DUP1 SWAP2 SUB SWAP1 RETURN JUMPDEST PUSH2 0x1C8 PUSH2 0x1C3 CALLDATASIZE PUSH1 0x4 PUSH2 0x188D JUMP JUMPDEST PUSH2 0x413 JUMP JUMPDEST PUSH1 0x40 MLOAD SWAP1 DUP2 MSTORE PUSH1 0x20 ADD PUSH2 0x1AC JUMP JUMPDEST PUSH2 0x1FD PUSH32 0x0 DUP2 JUMP JUMPDEST PUSH1 0x40 MLOAD PUSH1 0xFF SWAP1 SWAP2 AND DUP2 MSTORE PUSH1 0x20 ADD PUSH2 0x1AC JUMP JUMPDEST PUSH2 0x1C8 PUSH2 0x21D CALLDATASIZE PUSH1 0x4 PUSH2 0x18EE JUMP JUMPDEST PUSH2 0x5A2 JUMP JUMPDEST PUSH32 0x0 JUMPDEST PUSH1 0x40 MLOAD PUSH1 0x1 PUSH1 0x1 PUSH1 0xA0 SHL SUB SWAP1 SWAP2 AND DUP2 MSTORE PUSH1 0x20 ADD PUSH2 0x1AC JUMP JUMPDEST PUSH2 0x26F PUSH2 0x26A CALLDATASIZE PUSH1 0x4 PUSH2 0x195C JUMP JUMPDEST PUSH2 0x628 JUMP JUMPDEST STOP JUMPDEST PUSH2 0x19B PUSH2 0x27F CALLDATASIZE PUSH1 0x4 PUSH2 0x1804 JUMP JUMPDEST PUSH2 0x63E JUMP JUMPDEST PUSH2 0x297 PUSH2 0x292 CALLDATASIZE PUSH1 0x4 PUSH2 0x1997 JUMP JUMPDEST PUSH2 0x64E JUMP JUMPDEST PUSH1 0x40 MLOAD SWAP1 ISZERO ISZERO DUP2 MSTORE PUSH1 0x20 ADD PUSH2 0x1AC JUMP JUMPDEST PUSH2 0x1C8 PUSH2 0x2B5 CALLDATASIZE PUSH1 0x4 PUSH2 0x1804 JUMP JUMPDEST PUSH2 0x68A JUMP JUMPDEST PUSH2 0x244 PUSH2 0x2C8 CALLDATASIZE PUSH1 0x4 PUSH2 0x19B9 JUMP JUMPDEST PUSH2 0x6C9 JUMP JUMPDEST PUSH2 0x1C8 PUSH2 0x2DB CALLDATASIZE PUSH1 0x4 PUSH2 0x18EE JUMP JUMPDEST PUSH2 0x6FD JUMP JUMPDEST PUSH2 0x26F PUSH2 0x70C JUMP JUMPDEST PUSH0 SLOAD PUSH1 0x1 PUSH1 0x1 PUSH1 0xA0 SHL SUB AND PUSH2 0x244 JUMP JUMPDEST PUSH2 0x26F PUSH2 0x306 CALLDATASIZE PUSH1 0x4 PUSH2 0x1A24 JUMP JUMPDEST PUSH2 0x71F JUMP JUMPDEST PUSH2 0x244 PUSH2 0x319 CALLDATASIZE PUSH1 0x4 PUSH2 0x19B9 JUMP JUMPDEST PUSH2 0x83C JUMP JUMPDEST PUSH2 0x1FD PUSH1 0x15 DUP2 JUMP JUMPDEST PUSH2 0x1C8 PUSH2 0x334 CALLDATASIZE PUSH1 0x4 PUSH2 0x1804 JUMP JUMPDEST PUSH2 0x855 JUMP JUMPDEST PUSH2 0x1C8 PUSH2 0x347 CALLDATASIZE PUSH1 0x4 PUSH2 0x1A95 JUMP JUMPDEST PUSH2 0x864 JUMP JUMPDEST PUSH2 0x1C8 PUSH2 0x35A CALLDATASIZE PUSH1 0x4 PUSH2 0x188D JUMP JUMPDEST PUSH2 0x8C3 JUMP JUMPDEST PUSH2 0x1C8 PUSH2 0x36D CALLDATASIZE PUSH1 0x4 PUSH2 0x1A95 JUMP JUMPDEST PUSH2 0xAD4 JUMP JUMPDEST PUSH2 0x26F PUSH2 0x380 CALLDATASIZE PUSH1 0x4 PUSH2 0x1997 JUMP JUMPDEST PUSH2 0xAE3 JUMP JUMPDEST PUSH2 0x297 PUSH2 0x393 CALLDATASIZE PUSH1 0x4 PUSH2 0x1997 JUMP JUMPDEST PUSH1 0x5 PUSH1 0x20 MSTORE PUSH0 SWAP1 DUP2 MSTORE PUSH1 0x40 SWAP1 KECCAK256 SLOAD PUSH1 0xFF AND DUP2 JUMP JUMPDEST PUSH2 0x244 PUSH32 0x0 DUP2 JUMP JUMPDEST PUSH0 PUSH0 PUSH0 PUSH2 0x3DE DUP11 DUP10 DUP10 DUP9 DUP9 PUSH2 0x6FD JUMP JUMPDEST SWAP1 POP DUP1 DUP7 DUP2 PUSH2 0x3EE DUP13 PUSH1 0xA PUSH2 0x1BDD JUMP JUMPDEST PUSH2 0x3F8 SWAP2 SWAP1 PUSH2 0x1BEB JUMP JUMPDEST PUSH2 0x402 SWAP2 SWAP1 PUSH2 0x1C02 JUMP JUMPDEST SWAP3 POP SWAP3 POP POP SWAP8 POP SWAP8 SWAP6 POP POP POP POP POP POP JUMP JUMPDEST PUSH0 PUSH32 0x0 PUSH1 0x1 PUSH1 0x1 PUSH1 0xA0 SHL SUB AND DUP6 PUSH1 0x1 PUSH1 0x1 PUSH1 0xA0 SHL SUB AND SUB PUSH2 0x45F JUMPI PUSH2 0x458 DUP5 PUSH1 0xA PUSH2 0x1BDD JUMP JUMPDEST SWAP1 POP PUSH2 0x59A JUMP JUMPDEST PUSH0 DUP5 PUSH1 0xFF AND GT PUSH2 0x46D JUMPI PUSH0 PUSH0 REVERT JUMPDEST PUSH1 0x1 PUSH1 0x1 PUSH1 0xA0 SHL SUB DUP6 AND PUSH0 SWAP1 DUP2 MSTORE PUSH1 0x5 PUSH1 0x20 MSTORE PUSH1 0x40 SWAP1 KECCAK256 SLOAD PUSH1 0xFF AND ISZERO PUSH2 0x497 JUMPI PUSH2 0x458 DUP6 DUP6 PUSH2 0xB39 JUMP JUMPDEST PUSH0 PUSH2 0x4A3 DUP6 PUSH1 0xA PUSH2 0x1BDD JUMP JUMPDEST SWAP1 POP PUSH0 PUSH0 PUSH0 PUSH0 PUSH2 0x4B3 DUP9 DUP9 PUSH2 0xF87 JUMP JUMPDEST POP POP SWAP4 POP SWAP4 POP SWAP4 POP SWAP4 POP DUP10 PUSH1 0x1 PUSH1 0x1 PUSH1 0xA0 SHL SUB AND DUP5 PUSH1 0x1 PUSH1 0x1 PUSH1 0xA0 SHL SUB AND EQ DUP1 ISZERO PUSH2 0x50F JUMPI POP PUSH32 0x0 PUSH1 0x1 PUSH1 0x1 PUSH1 0xA0 SHL SUB AND DUP4 PUSH1 0x1 PUSH1 0x1 PUSH1 0xA0 SHL SUB AND EQ JUMPDEST DUP1 ISZERO PUSH2 0x51D JUMPI POP PUSH0 DUP2 PUSH1 0xFF AND GT JUMPDEST PUSH2 0x56E JUMPI PUSH1 0x40 MLOAD PUSH3 0x461BCD PUSH1 0xE5 SHL DUP2 MSTORE PUSH1 0x20 PUSH1 0x4 DUP3 ADD MSTORE PUSH1 0x19 PUSH1 0x24 DUP3 ADD MSTORE PUSH32 0x426164206F6666636861696E206F7261636C6520646174612100000000000000 PUSH1 0x44 DUP3 ADD MSTORE PUSH1 0x64 ADD JUMPDEST PUSH1 0x40 MLOAD DUP1 SWAP2 SUB SWAP1 REVERT JUMPDEST PUSH2 0x579 DUP2 PUSH1 0xA PUSH2 0x1BDD JUMP JUMPDEST PUSH2 0x583 DUP4 DUP8 PUSH2 0x1BEB JUMP JUMPDEST PUSH2 0x58D SWAP2 SWAP1 PUSH2 0x1C02 JUMP JUMPDEST SWAP6 POP PUSH2 0x59A SWAP5 POP POP POP POP POP JUMP JUMPDEST SWAP5 SWAP4 POP POP POP POP JUMP JUMPDEST PUSH0 PUSH0 PUSH2 0x5B1 DUP8 PUSH1 0x15 DUP7 DUP7 PUSH2 0x413 JUMP JUMPDEST SWAP1 POP PUSH2 0x5BF PUSH1 0x15 PUSH1 0xA PUSH2 0x1BDD JUMP JUMPDEST PUSH2 0x5EA PUSH32 0x0 PUSH1 0xA PUSH2 0x1BDD JUMP JUMPDEST PUSH2 0x5F5 DUP8 PUSH1 0xA PUSH2 0x1BDD JUMP JUMPDEST PUSH2 0x5FF DUP5 DUP11 PUSH2 0x1BEB JUMP JUMPDEST PUSH2 0x609 SWAP2 SWAP1 PUSH2 0x1C02 JUMP JUMPDEST PUSH2 0x613 SWAP2 SWAP1 PUSH2 0x1BEB JUMP JUMPDEST PUSH2 0x61D SWAP2 SWAP1 PUSH2 0x1C02 JUMP JUMPDEST SWAP8 SWAP7 POP POP POP POP POP POP POP JUMP JUMPDEST PUSH2 0x630 PUSH2 0x1171 JUMP JUMPDEST PUSH2 0x63A DUP3 DUP3 PUSH2 0x11B6 JUMP JUMPDEST POP POP JUMP JUMPDEST PUSH0 PUSH0 PUSH0 PUSH2 0x3DE DUP11 DUP10 DUP10 DUP9 DUP9 PUSH2 0x5A2 JUMP JUMPDEST PUSH0 PUSH1 0x1 PUSH1 0x1 PUSH1 0xA0 SHL SUB DUP3 AND ISZERO DUP1 ISZERO SWAP1 PUSH2 0x684 JUMPI POP PUSH1 0x1 PUSH1 0x1 PUSH1 0xA0 SHL SUB DUP3 AND PUSH0 SWAP1 DUP2 MSTORE PUSH1 0x1 PUSH1 0x20 DUP2 SWAP1 MSTORE PUSH1 0x40 SWAP1 SWAP2 KECCAK256 SLOAD PUSH1 0xFF AND ISZERO ISZERO EQ JUMPDEST SWAP3 SWAP2 POP POP JUMP JUMPDEST PUSH0 PUSH0 PUSH2 0x699 DUP10 DUP9 DUP9 DUP8 DUP8 PUSH2 0x5A2 JUMP JUMPDEST SWAP1 POP DUP5 DUP2 PUSH2 0x6A8 DUP11 PUSH1 0xA PUSH2 0x1BDD JUMP JUMPDEST PUSH2 0x6B2 SWAP2 SWAP1 PUSH2 0x1BEB JUMP JUMPDEST PUSH2 0x6BC SWAP2 SWAP1 PUSH2 0x1C02 JUMP JUMPDEST SWAP10 SWAP9 POP POP POP POP POP POP POP POP POP JUMP JUMPDEST PUSH1 0x4 PUSH1 0x20 MSTORE DUP2 PUSH0 MSTORE PUSH1 0x40 PUSH0 KECCAK256 DUP2 DUP2 SLOAD DUP2 LT PUSH2 0x6E2 JUMPI PUSH0 DUP1 REVERT JUMPDEST PUSH0 SWAP2 DUP3 MSTORE PUSH1 0x20 SWAP1 SWAP2 KECCAK256 ADD SLOAD PUSH1 0x1 PUSH1 0x1 PUSH1 0xA0 SHL SUB AND SWAP2 POP DUP3 SWAP1 POP JUMP JUMPDEST PUSH0 PUSH0 PUSH2 0x5B1 DUP8 PUSH1 0x15 DUP7 DUP7 PUSH2 0x8C3 JUMP JUMPDEST PUSH2 0x714 PUSH2 0x1171 JUMP JUMPDEST PUSH2 0x71D PUSH0 PUSH2 0x1218 JUMP JUMPDEST JUMP JUMPDEST PUSH2 0x727 PUSH2 0x1171 JUMP JUMPDEST PUSH1 0x1 PUSH1 0x1 PUSH1 0xA0 SHL SUB DUP6 AND PUSH0 SWAP1 DUP2 MSTORE PUSH1 0x5 PUSH1 0x20 MSTORE PUSH1 0x40 SWAP1 KECCAK256 SLOAD PUSH1 0xFF AND ISZERO PUSH2 0x78F JUMPI PUSH1 0x40 MLOAD PUSH3 0x461BCD PUSH1 0xE5 SHL DUP2 MSTORE PUSH1 0x20 PUSH1 0x4 DUP3 ADD MSTORE PUSH1 0x16 PUSH1 0x24 DUP3 ADD MSTORE PUSH32 0x4F7261636C6520697320616C7265616479207365742100000000000000000000 PUSH1 0x44 DUP3 ADD MSTORE PUSH1 0x64 ADD PUSH2 0x565 JUMP JUMPDEST PUSH1 0x1 PUSH1 0x1 PUSH1 0xA0 SHL SUB DUP6 AND PUSH0 SWAP1 DUP2 MSTORE PUSH1 0x3 PUSH1 0x20 MSTORE PUSH1 0x40 SWAP1 KECCAK256 PUSH2 0x7B1 SWAP1 DUP6 DUP6 PUSH2 0x171B JUMP JUMPDEST POP PUSH1 0x1 PUSH1 0x1 PUSH1 0xA0 SHL SUB DUP6 AND PUSH0 SWAP1 DUP2 MSTORE PUSH1 0x4 PUSH1 0x20 MSTORE PUSH1 0x40 SWAP1 KECCAK256 PUSH2 0x7D4 SWAP1 DUP4 DUP4 PUSH2 0x171B JUMP JUMPDEST POP PUSH1 0x1 PUSH1 0x1 PUSH1 0xA0 SHL SUB DUP6 AND PUSH0 DUP2 DUP2 MSTORE PUSH1 0x5 PUSH1 0x20 MSTORE PUSH1 0x40 SWAP1 DUP2 SWAP1 KECCAK256 DUP1 SLOAD PUSH1 0xFF NOT AND PUSH1 0x1 OR SWAP1 SSTORE MLOAD PUSH32 0x7F62A858613430FEBC57D74CD39BA9ACB468281347BB5FE1ACABB12482E89052 SWAP1 PUSH2 0x82D SWAP1 DUP8 SWAP1 DUP8 SWAP1 DUP8 SWAP1 DUP8 SWAP1 PUSH2 0x1C69 JUMP JUMPDEST PUSH1 0x40 MLOAD DUP1 SWAP2 SUB SWAP1 LOG2 POP POP POP POP POP JUMP JUMPDEST PUSH1 0x3 PUSH1 0x20 MSTORE DUP2 PUSH0 MSTORE PUSH1 0x40 PUSH0 KECCAK256 DUP2 DUP2 SLOAD DUP2 LT PUSH2 0x6E2 JUMPI PUSH0 DUP1 REVERT JUMPDEST PUSH0 PUSH0 PUSH2 0x699 DUP10 DUP9 DUP9 DUP8 DUP8 PUSH2 0x6FD JUMP JUMPDEST PUSH0 PUSH0 PUSH2 0x873 DUP8 PUSH1 0x15 DUP7 DUP7 PUSH2 0x413 JUMP JUMPDEST SWAP1 POP PUSH2 0x8A0 PUSH32 0x0 PUSH1 0xA PUSH2 0x1BDD JUMP JUMPDEST PUSH2 0x8AB DUP8 PUSH1 0xA PUSH2 0x1BDD JUMP JUMPDEST DUP3 DUP8 PUSH2 0x8B9 PUSH1 0x15 PUSH1 0xA PUSH2 0x1BDD JUMP JUMPDEST PUSH2 0x5FF SWAP2 SWAP1 PUSH2 0x1BEB JUMP JUMPDEST PUSH0 PUSH32 0x0 PUSH1 0x1 PUSH1 0x1 PUSH1 0xA0 SHL SUB AND DUP6 PUSH1 0x1 PUSH1 0x1 PUSH1 0xA0 SHL SUB AND SUB PUSH2 0x94F JUMPI PUSH1 0x40 DUP1 MLOAD PUSH1 0x1 DUP2 MSTORE PUSH1 0xFF DUP7 AND PUSH1 0x20 DUP3 ADD MSTORE PUSH1 0x1 PUSH1 0x1 PUSH1 0xA0 SHL SUB DUP8 AND SWAP2 PUSH32 0x5DB0211664709A6E813C8A533F05660F4D86D46EA914D072768D780CB75A934C SWAP2 ADD PUSH1 0x40 MLOAD DUP1 SWAP2 SUB SWAP1 LOG2 PUSH2 0x458 DUP5 PUSH1 0xA PUSH2 0x1BDD JUMP JUMPDEST PUSH0 DUP5 PUSH1 0xFF AND GT PUSH2 0x95D JUMPI PUSH0 PUSH0 REVERT JUMPDEST PUSH1 0x1 PUSH1 0x1 PUSH1 0xA0 SHL SUB DUP6 AND PUSH0 SWAP1 DUP2 MSTORE PUSH1 0x5 PUSH1 0x20 MSTORE PUSH1 0x40 DUP2 KECCAK256 SLOAD PUSH1 0xFF AND ISZERO PUSH2 0x98E JUMPI PUSH2 0x987 DUP7 DUP7 PUSH2 0xB39 JUMP JUMPDEST SWAP1 POP PUSH2 0xA85 JUMP JUMPDEST PUSH2 0x999 DUP6 PUSH1 0xA PUSH2 0x1BDD JUMP JUMPDEST SWAP1 POP PUSH0 PUSH0 PUSH0 PUSH0 PUSH2 0x9A9 DUP9 DUP9 PUSH2 0x1274 JUMP JUMPDEST POP POP SWAP4 POP SWAP4 POP SWAP4 POP SWAP4 POP DUP10 PUSH1 0x1 PUSH1 0x1 PUSH1 0xA0 SHL SUB AND DUP5 PUSH1 0x1 PUSH1 0x1 PUSH1 0xA0 SHL SUB AND EQ DUP1 ISZERO PUSH2 0xA05 JUMPI POP PUSH32 0x0 PUSH1 0x1 PUSH1 0x1 PUSH1 0xA0 SHL SUB AND DUP4 PUSH1 0x1 PUSH1 0x1 PUSH1 0xA0 SHL SUB AND EQ JUMPDEST DUP1 ISZERO PUSH2 0xA13 JUMPI POP PUSH0 DUP2 PUSH1 0xFF AND GT JUMPDEST PUSH2 0xA5F JUMPI PUSH1 0x40 MLOAD PUSH3 0x461BCD PUSH1 0xE5 SHL DUP2 MSTORE PUSH1 0x20 PUSH1 0x4 DUP3 ADD MSTORE PUSH1 0x19 PUSH1 0x24 DUP3 ADD MSTORE PUSH32 0x426164206F6666636861696E206F7261636C6520646174612100000000000000 PUSH1 0x44 DUP3 ADD MSTORE PUSH1 0x64 ADD PUSH2 0x565 JUMP JUMPDEST PUSH2 0xA6A DUP2 PUSH1 0xA PUSH2 0x1BDD JUMP JUMPDEST PUSH2 0xA74 DUP4 DUP8 PUSH2 0x1BEB JUMP JUMPDEST PUSH2 0xA7E SWAP2 SWAP1 PUSH2 0x1C02 JUMP JUMPDEST SWAP5 POP POP POP POP POP JUMPDEST PUSH1 0x40 DUP1 MLOAD DUP3 DUP2 MSTORE PUSH1 0xFF DUP8 AND PUSH1 0x20 DUP3 ADD MSTORE PUSH1 0x1 PUSH1 0x1 PUSH1 0xA0 SHL SUB DUP9 AND SWAP2 PUSH32 0x5DB0211664709A6E813C8A533F05660F4D86D46EA914D072768D780CB75A934C SWAP2 ADD PUSH1 0x40 MLOAD DUP1 SWAP2 SUB SWAP1 LOG2 SWAP6 SWAP5 POP POP POP POP POP JUMP JUMPDEST PUSH0 PUSH0 PUSH2 0x873 DUP8 PUSH1 0x15 DUP7 DUP7 PUSH2 0x8C3 JUMP JUMPDEST PUSH2 0xAEB PUSH2 0x1171 JUMP JUMPDEST PUSH1 0x1 PUSH1 0x1 PUSH1 0xA0 SHL SUB DUP2 AND PUSH2 0xB2D JUMPI PUSH1 0x40 MLOAD PUSH32 0x1E4FBDF700000000000000000000000000000000000000000000000000000000 DUP2 MSTORE PUSH0 PUSH1 0x4 DUP3 ADD MSTORE PUSH1 0x24 ADD PUSH2 0x565 JUMP JUMPDEST PUSH2 0xB36 DUP2 PUSH2 0x1218 JUMP JUMPDEST POP JUMP JUMPDEST PUSH1 0x1 PUSH1 0x1 PUSH1 0xA0 SHL SUB DUP3 AND PUSH0 SWAP1 DUP2 MSTORE PUSH1 0x3 PUSH1 0x20 SWAP1 DUP2 MSTORE PUSH1 0x40 DUP1 DUP4 KECCAK256 DUP1 SLOAD DUP3 MLOAD DUP2 DUP6 MUL DUP2 ADD DUP6 ADD SWAP1 SWAP4 MSTORE DUP1 DUP4 MSTORE DUP5 SWAP4 DUP4 ADD DUP3 DUP3 DUP1 ISZERO PUSH2 0xB9D JUMPI PUSH1 0x20 MUL DUP3 ADD SWAP2 SWAP1 PUSH0 MSTORE PUSH1 0x20 PUSH0 KECCAK256 SWAP1 JUMPDEST DUP2 SLOAD PUSH1 0x1 PUSH1 0x1 PUSH1 0xA0 SHL SUB AND DUP2 MSTORE PUSH1 0x1 SWAP1 SWAP2 ADD SWAP1 PUSH1 0x20 ADD DUP1 DUP4 GT PUSH2 0xB7F JUMPI JUMPDEST POP POP POP POP PUSH1 0x1 PUSH1 0x1 PUSH1 0xA0 SHL SUB DUP7 AND PUSH0 SWAP1 DUP2 MSTORE PUSH1 0x4 PUSH1 0x20 SWAP1 DUP2 MSTORE PUSH1 0x40 DUP1 DUP4 KECCAK256 DUP1 SLOAD DUP3 MLOAD DUP2 DUP6 MUL DUP2 ADD DUP6 ADD SWAP1 SWAP4 MSTORE DUP1 DUP4 MSTORE SWAP6 SWAP7 POP SWAP3 SWAP5 SWAP1 SWAP4 POP SWAP1 DUP4 ADD DUP3 DUP3 DUP1 ISZERO PUSH2 0xC0C JUMPI PUSH1 0x20 MUL DUP3 ADD SWAP2 SWAP1 PUSH0 MSTORE PUSH1 0x20 PUSH0 KECCAK256 SWAP1 JUMPDEST DUP2 SLOAD PUSH1 0x1 PUSH1 0x1 PUSH1 0xA0 SHL SUB AND DUP2 MSTORE PUSH1 0x1 SWAP1 SWAP2 ADD SWAP1 PUSH1 0x20 ADD DUP1 DUP4 GT PUSH2 0xBEE JUMPI JUMPDEST POP POP POP POP POP SWAP1 POP PUSH0 DUP2 MLOAD DUP4 MLOAD PUSH2 0xC22 SWAP2 SWAP1 PUSH2 0x1C8F JUMP JUMPDEST GT PUSH2 0xC6F JUMPI PUSH1 0x40 MLOAD PUSH3 0x461BCD PUSH1 0xE5 SHL DUP2 MSTORE PUSH1 0x20 PUSH1 0x4 DUP3 ADD MSTORE PUSH1 0x12 PUSH1 0x24 DUP3 ADD MSTORE PUSH32 0x556E737570706F7274656420746F6B656E210000000000000000000000000000 PUSH1 0x44 DUP3 ADD MSTORE PUSH1 0x64 ADD PUSH2 0x565 JUMP JUMPDEST PUSH0 PUSH2 0xC7B DUP6 PUSH1 0xA PUSH2 0x1BDD JUMP JUMPDEST SWAP1 POP PUSH0 JUMPDEST DUP4 MLOAD DUP2 LT ISZERO PUSH2 0xDFC JUMPI PUSH0 DUP5 DUP3 DUP2 MLOAD DUP2 LT PUSH2 0xC9B JUMPI PUSH2 0xC9B PUSH2 0x1CA2 JUMP JUMPDEST PUSH1 0x20 MUL PUSH1 0x20 ADD ADD MLOAD SWAP1 POP PUSH0 DUP2 PUSH1 0x1 PUSH1 0x1 PUSH1 0xA0 SHL SUB AND PUSH4 0x313CE567 PUSH1 0x40 MLOAD DUP2 PUSH4 0xFFFFFFFF AND PUSH1 0xE0 SHL DUP2 MSTORE PUSH1 0x4 ADD PUSH1 0x20 PUSH1 0x40 MLOAD DUP1 DUP4 SUB DUP2 DUP7 GAS STATICCALL ISZERO DUP1 ISZERO PUSH2 0xCE2 JUMPI RETURNDATASIZE PUSH0 PUSH0 RETURNDATACOPY RETURNDATASIZE PUSH0 REVERT JUMPDEST POP POP POP POP PUSH1 0x40 MLOAD RETURNDATASIZE PUSH1 0x1F NOT PUSH1 0x1F DUP3 ADD AND DUP3 ADD DUP1 PUSH1 0x40 MSTORE POP DUP2 ADD SWAP1 PUSH2 0xD06 SWAP2 SWAP1 PUSH2 0x1CB6 JUMP JUMPDEST PUSH1 0xFF AND SWAP1 POP PUSH0 DUP3 PUSH1 0x1 PUSH1 0x1 PUSH1 0xA0 SHL SUB AND PUSH4 0xFEAF968C PUSH1 0x40 MLOAD DUP2 PUSH4 0xFFFFFFFF AND PUSH1 0xE0 SHL DUP2 MSTORE PUSH1 0x4 ADD PUSH1 0xA0 PUSH1 0x40 MLOAD DUP1 DUP4 SUB DUP2 DUP7 GAS STATICCALL ISZERO DUP1 ISZERO PUSH2 0xD48 JUMPI RETURNDATASIZE PUSH0 PUSH0 RETURNDATACOPY RETURNDATASIZE PUSH0 REVERT JUMPDEST POP POP POP POP PUSH1 0x40 MLOAD RETURNDATASIZE PUSH1 0x1F NOT PUSH1 0x1F DUP3 ADD AND DUP3 ADD DUP1 PUSH1 0x40 MSTORE POP DUP2 ADD SWAP1 PUSH2 0xD6C SWAP2 SWAP1 PUSH2 0x1CEF JUMP JUMPDEST POP POP POP SWAP2 POP POP PUSH0 DUP3 GT DUP1 ISZERO PUSH2 0xD80 JUMPI POP PUSH0 DUP2 SGT JUMPDEST PUSH2 0xDCC JUMPI PUSH1 0x40 MLOAD PUSH3 0x461BCD PUSH1 0xE5 SHL DUP2 MSTORE PUSH1 0x20 PUSH1 0x4 DUP3 ADD MSTORE PUSH1 0x10 PUSH1 0x24 DUP3 ADD MSTORE PUSH32 0x426164206F7261636C6520646174612100000000000000000000000000000000 PUSH1 0x44 DUP3 ADD MSTORE PUSH1 0x64 ADD PUSH2 0x565 JUMP JUMPDEST PUSH2 0xDD7 DUP3 PUSH1 0xA PUSH2 0x1D3D JUMP JUMPDEST PUSH2 0xDE1 DUP3 DUP8 PUSH2 0x1BEB JUMP JUMPDEST PUSH2 0xDEB SWAP2 SWAP1 PUSH2 0x1C02 JUMP JUMPDEST SWAP5 POP POP PUSH1 0x1 SWAP1 SWAP3 ADD SWAP2 POP PUSH2 0xC7F SWAP1 POP JUMP JUMPDEST POP PUSH0 JUMPDEST DUP3 MLOAD DUP2 LT ISZERO PUSH2 0xF7D JUMPI PUSH0 DUP4 DUP3 DUP2 MLOAD DUP2 LT PUSH2 0xE1B JUMPI PUSH2 0xE1B PUSH2 0x1CA2 JUMP JUMPDEST PUSH1 0x20 MUL PUSH1 0x20 ADD ADD MLOAD SWAP1 POP PUSH0 DUP2 PUSH1 0x1 PUSH1 0x1 PUSH1 0xA0 SHL SUB AND PUSH4 0x313CE567 PUSH1 0x40 MLOAD DUP2 PUSH4 0xFFFFFFFF AND PUSH1 0xE0 SHL DUP2 MSTORE PUSH1 0x4 ADD PUSH1 0x20 PUSH1 0x40 MLOAD DUP1 DUP4 SUB DUP2 DUP7 GAS STATICCALL ISZERO DUP1 ISZERO PUSH2 0xE62 JUMPI RETURNDATASIZE PUSH0 PUSH0 RETURNDATACOPY RETURNDATASIZE PUSH0 REVERT JUMPDEST POP POP POP POP PUSH1 0x40 MLOAD RETURNDATASIZE PUSH1 0x1F NOT PUSH1 0x1F DUP3 ADD AND DUP3 ADD DUP1 PUSH1 0x40 MSTORE POP DUP2 ADD SWAP1 PUSH2 0xE86 SWAP2 SWAP1 PUSH2 0x1CB6 JUMP JUMPDEST PUSH1 0xFF AND SWAP1 POP PUSH0 DUP3 PUSH1 0x1 PUSH1 0x1 PUSH1 0xA0 SHL SUB AND PUSH4 0xFEAF968C PUSH1 0x40 MLOAD DUP2 PUSH4 0xFFFFFFFF AND PUSH1 0xE0 SHL DUP2 MSTORE PUSH1 0x4 ADD PUSH1 0xA0 PUSH1 0x40 MLOAD DUP1 DUP4 SUB DUP2 DUP7 GAS STATICCALL ISZERO DUP1 ISZERO PUSH2 0xEC8 JUMPI RETURNDATASIZE PUSH0 PUSH0 RETURNDATACOPY RETURNDATASIZE PUSH0 REVERT JUMPDEST POP POP POP POP PUSH1 0x40 MLOAD RETURNDATASIZE PUSH1 0x1F NOT PUSH1 0x1F DUP3 ADD AND DUP3 ADD DUP1 PUSH1 0x40 MSTORE POP DUP2 ADD SWAP1 PUSH2 0xEEC SWAP2 SWAP1 PUSH2 0x1CEF JUMP JUMPDEST POP POP POP SWAP2 POP POP PUSH0 DUP3 GT DUP1 ISZERO PUSH2 0xF00 JUMPI POP PUSH0 DUP2 SGT JUMPDEST PUSH2 0xF4C JUMPI PUSH1 0x40 MLOAD PUSH3 0x461BCD PUSH1 0xE5 SHL DUP2 MSTORE PUSH1 0x20 PUSH1 0x4 DUP3 ADD MSTORE PUSH1 0x10 PUSH1 0x24 DUP3 ADD MSTORE PUSH32 0x426164206F7261636C6520646174612100000000000000000000000000000000 PUSH1 0x44 DUP3 ADD MSTORE PUSH1 0x64 ADD PUSH2 0x565 JUMP JUMPDEST DUP1 PUSH2 0xF58 DUP4 PUSH1 0xA PUSH2 0x1D3D JUMP JUMPDEST PUSH2 0xF62 SWAP1 DUP8 PUSH2 0x1BEB JUMP JUMPDEST PUSH2 0xF6C SWAP2 SWAP1 PUSH2 0x1C02 JUMP JUMPDEST SWAP5 POP POP PUSH1 0x1 SWAP1 SWAP3 ADD SWAP2 POP PUSH2 0xDFF SWAP1 POP JUMP JUMPDEST POP SWAP6 SWAP5 POP POP POP POP POP JUMP JUMPDEST PUSH0 DUP1 DUP1 DUP1 DUP1 DUP1 DUP7 PUSH2 0xFDA JUMPI PUSH1 0x40 MLOAD PUSH3 0x461BCD PUSH1 0xE5 SHL DUP2 MSTORE PUSH1 0x20 PUSH1 0x4 DUP3 ADD MSTORE PUSH1 0x1C PUSH1 0x24 DUP3 ADD MSTORE PUSH32 0x4F6666436861696E4F7261636C653A496E76616C696420646174612100000000 PUSH1 0x44 DUP3 ADD MSTORE PUSH1 0x64 ADD PUSH2 0x565 JUMP JUMPDEST PUSH0 DUP1 PUSH2 0xFE8 DUP10 DUP12 ADD DUP12 PUSH2 0x1DE7 JUMP JUMPDEST SWAP2 POP SWAP2 POP PUSH0 PUSH0 PUSH0 PUSH0 PUSH0 PUSH0 PUSH0 PUSH0 DUP10 DUP1 PUSH1 0x20 ADD SWAP1 MLOAD DUP2 ADD SWAP1 PUSH2 0x1008 SWAP2 SWAP1 PUSH2 0x1E67 JUMP JUMPDEST SWAP8 POP SWAP8 POP SWAP8 POP SWAP8 POP SWAP8 POP SWAP8 POP SWAP8 POP SWAP8 POP PUSH1 0x2 SLOAD DUP9 EQ PUSH2 0x108F JUMPI PUSH1 0x40 MLOAD PUSH3 0x461BCD PUSH1 0xE5 SHL DUP2 MSTORE PUSH1 0x20 PUSH1 0x4 DUP3 ADD MSTORE PUSH1 0x21 PUSH1 0x24 DUP3 ADD MSTORE PUSH32 0x4F6666436861696E4F7261636C653A496E76616C696420545950455F48415348 PUSH1 0x44 DUP3 ADD MSTORE PUSH32 0x2100000000000000000000000000000000000000000000000000000000000000 PUSH1 0x64 DUP3 ADD MSTORE PUSH1 0x84 ADD PUSH2 0x565 JUMP JUMPDEST CHAINID DUP8 EQ PUSH2 0x10DE JUMPI PUSH1 0x40 MLOAD PUSH3 0x461BCD PUSH1 0xE5 SHL DUP2 MSTORE PUSH1 0x20 PUSH1 0x4 DUP3 ADD DUP2 SWAP1 MSTORE PUSH1 0x24 DUP3 ADD MSTORE PUSH32 0x4F6666436861696E4F7261636C653A496E76616C696420636861696E5F696421 PUSH1 0x44 DUP3 ADD MSTORE PUSH1 0x64 ADD PUSH2 0x565 JUMP JUMPDEST DUP1 PUSH12 0xFFFFFFFFFFFFFFFFFFFFFFFF AND TIMESTAMP PUSH12 0xFFFFFFFFFFFFFFFFFFFFFFFF AND GT ISZERO PUSH2 0x114A JUMPI PUSH1 0x40 MLOAD PUSH3 0x461BCD PUSH1 0xE5 SHL DUP2 MSTORE PUSH1 0x20 PUSH1 0x4 DUP3 ADD MSTORE PUSH1 0x1C PUSH1 0x24 DUP3 ADD MSTORE PUSH32 0x4F6666436861696E4F7261636C653A4578706972656420646174612100000000 PUSH1 0x44 DUP3 ADD MSTORE PUSH1 0x64 ADD PUSH2 0x565 JUMP JUMPDEST PUSH2 0x1154 DUP11 DUP11 PUSH2 0x12B8 JUMP JUMPDEST SWAP5 SWAP15 POP SWAP3 SWAP13 POP SWAP1 SWAP11 POP SWAP9 POP SWAP7 POP SWAP5 POP POP POP POP POP SWAP3 SWAP6 POP SWAP3 SWAP6 POP SWAP3 SWAP6 JUMP JUMPDEST PUSH0 SLOAD PUSH1 0x1 PUSH1 0x1 PUSH1 0xA0 SHL SUB AND CALLER EQ PUSH2 0x71D JUMPI PUSH1 0x40 MLOAD PUSH32 0x118CDAA700000000000000000000000000000000000000000000000000000000 DUP2 MSTORE CALLER PUSH1 0x4 DUP3 ADD MSTORE PUSH1 0x24 ADD PUSH2 0x565 JUMP JUMPDEST PUSH1 0x1 PUSH1 0x1 PUSH1 0xA0 SHL SUB DUP3 AND PUSH0 DUP2 DUP2 MSTORE PUSH1 0x1 PUSH1 0x20 SWAP1 DUP2 MSTORE PUSH1 0x40 SWAP2 DUP3 SWAP1 KECCAK256 DUP1 SLOAD PUSH1 0xFF NOT AND DUP6 ISZERO ISZERO SWAP1 DUP2 OR SWAP1 SWAP2 SSTORE DUP3 MLOAD SWAP4 DUP5 MSTORE SWAP1 DUP4 ADD MSTORE PUSH32 0x70F1A3DBA165402559AAA92407AA69ED152F584FDE0BC213BCF1C47ACEF771B6 SWAP2 ADD PUSH1 0x40 MLOAD DUP1 SWAP2 SUB SWAP1 LOG1 POP POP JUMP JUMPDEST PUSH0 DUP1 SLOAD PUSH1 0x1 PUSH1 0x1 PUSH1 0xA0 SHL SUB DUP4 DUP2 AND PUSH20 0xFFFFFFFFFFFFFFFFFFFFFFFFFFFFFFFFFFFFFFFF NOT DUP4 AND DUP2 OR DUP5 SSTORE PUSH1 0x40 MLOAD SWAP2 SWAP1 SWAP3 AND SWAP3 DUP4 SWAP2 PUSH32 0x8BE0079C531659141344CD1FD0A4F28419497F9722A3DAAFE3B4186F6B6457E0 SWAP2 SWAP1 LOG3 POP POP JUMP JUMPDEST PUSH0 PUSH0 PUSH0 PUSH0 PUSH0 PUSH0 PUSH0 PUSH0 PUSH0 PUSH0 PUSH0 PUSH0 PUSH2 0x128A DUP15 DUP15 PUSH2 0xF87 JUMP JUMPDEST SWAP6 POP SWAP6 POP SWAP6 POP SWAP6 POP SWAP6 POP SWAP6 POP DUP6 DUP6 DUP6 DUP6 DUP6 DUP6 SWAP12 POP SWAP12 POP SWAP12 POP SWAP12 POP SWAP12 POP SWAP12 POP POP POP POP POP POP POP SWAP3 SWAP6 POP SWAP3 SWAP6 POP SWAP3 SWAP6 JUMP JUMPDEST PUSH0 PUSH2 0x12CB PUSH2 0x12C5 DUP5 PUSH2 0x1327 JUMP JUMPDEST DUP4 PUSH2 0x1361 JUMP JUMPDEST SWAP1 POP PUSH2 0x12D6 DUP2 PUSH2 0x64E JUMP JUMPDEST PUSH2 0x1322 JUMPI PUSH1 0x40 MLOAD PUSH3 0x461BCD PUSH1 0xE5 SHL DUP2 MSTORE PUSH1 0x20 PUSH1 0x4 DUP3 ADD MSTORE PUSH1 0x1E PUSH1 0x24 DUP3 ADD MSTORE PUSH32 0x4F6666436861696E4F7261636C653A4E6F7420617574686F72697A6564210000 PUSH1 0x44 DUP3 ADD MSTORE PUSH1 0x64 ADD PUSH2 0x565 JUMP JUMPDEST POP POP POP JUMP JUMPDEST PUSH0 PUSH2 0x1332 DUP3 MLOAD PUSH2 0x1389 JUMP JUMPDEST DUP3 PUSH1 0x40 MLOAD PUSH1 0x20 ADD PUSH2 0x1344 SWAP3 SWAP2 SWAP1 PUSH2 0x1F04 JUMP JUMPDEST PUSH1 0x40 MLOAD PUSH1 0x20 DUP2 DUP4 SUB SUB DUP2 MSTORE SWAP1 PUSH1 0x40 MSTORE DUP1 MLOAD SWAP1 PUSH1 0x20 ADD KECCAK256 SWAP1 POP SWAP2 SWAP1 POP JUMP JUMPDEST PUSH0 PUSH0 PUSH0 PUSH0 PUSH2 0x136F DUP7 DUP7 PUSH2 0x1426 JUMP JUMPDEST SWAP3 POP SWAP3 POP SWAP3 POP PUSH2 0x137F DUP3 DUP3 PUSH2 0x146F JUMP JUMPDEST POP SWAP1 SWAP5 SWAP4 POP POP POP POP JUMP JUMPDEST PUSH1 0x60 PUSH0 PUSH2 0x1395 DUP4 PUSH2 0x1572 JUMP JUMPDEST PUSH1 0x1 ADD SWAP1 POP PUSH0 DUP2 PUSH8 0xFFFFFFFFFFFFFFFF DUP2 GT ISZERO PUSH2 0x13B4 JUMPI PUSH2 0x13B4 PUSH2 0x1D48 JUMP JUMPDEST PUSH1 0x40 MLOAD SWAP1 DUP1 DUP3 MSTORE DUP1 PUSH1 0x1F ADD PUSH1 0x1F NOT AND PUSH1 0x20 ADD DUP3 ADD PUSH1 0x40 MSTORE DUP1 ISZERO PUSH2 0x13DE JUMPI PUSH1 0x20 DUP3 ADD DUP2 DUP1 CALLDATASIZE DUP4 CALLDATACOPY ADD SWAP1 POP JUMPDEST POP SWAP1 POP DUP2 DUP2 ADD PUSH1 0x20 ADD JUMPDEST PUSH0 NOT ADD PUSH32 0x3031323334353637383961626364656600000000000000000000000000000000 PUSH1 0xA DUP7 MOD BYTE DUP2 MSTORE8 PUSH1 0xA DUP6 DIV SWAP5 POP DUP5 PUSH2 0x13E8 JUMPI POP SWAP4 SWAP3 POP POP POP JUMP JUMPDEST PUSH0 PUSH0 PUSH0 DUP4 MLOAD PUSH1 0x41 SUB PUSH2 0x145D JUMPI PUSH1 0x20 DUP5 ADD MLOAD PUSH1 0x40 DUP6 ADD MLOAD PUSH1 0x60 DUP7 ADD MLOAD PUSH0 BYTE PUSH2 0x144F DUP9 DUP3 DUP6 DUP6 PUSH2 0x1653 JUMP JUMPDEST SWAP6 POP SWAP6 POP SWAP6 POP POP POP POP PUSH2 0x1468 JUMP JUMPDEST POP POP DUP2 MLOAD PUSH0 SWAP2 POP PUSH1 0x2 SWAP1 JUMPDEST SWAP3 POP SWAP3 POP SWAP3 JUMP JUMPDEST PUSH0 DUP3 PUSH1 0x3 DUP2 GT ISZERO PUSH2 0x1482 JUMPI PUSH2 0x1482 PUSH2 0x1F3E JUMP JUMPDEST SUB PUSH2 0x148B JUMPI POP POP JUMP JUMPDEST PUSH1 0x1 DUP3 PUSH1 0x3 DUP2 GT ISZERO PUSH2 0x149F JUMPI PUSH2 0x149F PUSH2 0x1F3E JUMP JUMPDEST SUB PUSH2 0x14D6 JUMPI PUSH1 0x40 MLOAD PUSH32 0xF645EEDF00000000000000000000000000000000000000000000000000000000 DUP2 MSTORE PUSH1 0x4 ADD PUSH1 0x40 MLOAD DUP1 SWAP2 SUB SWAP1 REVERT JUMPDEST PUSH1 0x2 DUP3 PUSH1 0x3 DUP2 GT ISZERO PUSH2 0x14EA JUMPI PUSH2 0x14EA PUSH2 0x1F3E JUMP JUMPDEST SUB PUSH2 0x1524 JUMPI PUSH1 0x40 MLOAD PUSH32 0xFCE698F700000000000000000000000000000000000000000000000000000000 DUP2 MSTORE PUSH1 0x4 DUP2 ADD DUP3 SWAP1 MSTORE PUSH1 0x24 ADD PUSH2 0x565 JUMP JUMPDEST PUSH1 0x3 DUP3 PUSH1 0x3 DUP2 GT ISZERO PUSH2 0x1538 JUMPI PUSH2 0x1538 PUSH2 0x1F3E JUMP JUMPDEST SUB PUSH2 0x63A JUMPI PUSH1 0x40 MLOAD PUSH32 0xD78BCE0C00000000000000000000000000000000000000000000000000000000 DUP2 MSTORE PUSH1 0x4 DUP2 ADD DUP3 SWAP1 MSTORE PUSH1 0x24 ADD PUSH2 0x565 JUMP JUMPDEST PUSH0 DUP1 PUSH27 0x184F03E93FF9F4DAA797ED6E38ED64BF6A1F010000000000000000 DUP4 LT PUSH2 0x15BA JUMPI PUSH27 0x184F03E93FF9F4DAA797ED6E38ED64BF6A1F010000000000000000 DUP4 DIV SWAP3 POP PUSH1 0x40 ADD JUMPDEST PUSH14 0x4EE2D6D415B85ACEF8100000000 DUP4 LT PUSH2 0x15E6 JUMPI PUSH14 0x4EE2D6D415B85ACEF8100000000 DUP4 DIV SWAP3 POP PUSH1 0x20 ADD JUMPDEST PUSH7 0x2386F26FC10000 DUP4 LT PUSH2 0x1604 JUMPI PUSH7 0x2386F26FC10000 DUP4 DIV SWAP3 POP PUSH1 0x10 ADD JUMPDEST PUSH4 0x5F5E100 DUP4 LT PUSH2 0x161C JUMPI PUSH4 0x5F5E100 DUP4 DIV SWAP3 POP PUSH1 0x8 ADD JUMPDEST PUSH2 0x2710 DUP4 LT PUSH2 0x1630 JUMPI PUSH2 0x2710 DUP4 DIV SWAP3 POP PUSH1 0x4 ADD JUMPDEST PUSH1 0x64 DUP4 LT PUSH2 0x1642 JUMPI PUSH1 0x64 DUP4 DIV SWAP3 POP PUSH1 0x2 ADD JUMPDEST PUSH1 0xA DUP4 LT PUSH2 0x684 JUMPI PUSH1 0x1 ADD SWAP3 SWAP2 POP POP JUMP JUMPDEST PUSH0 DUP1 DUP1 PUSH32 0x7FFFFFFFFFFFFFFFFFFFFFFFFFFFFFFF5D576E7357A4501DDFE92F46681B20A0 DUP5 GT ISZERO PUSH2 0x168C JUMPI POP PUSH0 SWAP2 POP PUSH1 0x3 SWAP1 POP DUP3 PUSH2 0x1711 JUMP JUMPDEST PUSH1 0x40 DUP1 MLOAD PUSH0 DUP1 DUP3 MSTORE PUSH1 0x20 DUP3 ADD DUP1 DUP5 MSTORE DUP11 SWAP1 MSTORE PUSH1 0xFF DUP10 AND SWAP3 DUP3 ADD SWAP3 SWAP1 SWAP3 MSTORE PUSH1 0x60 DUP2 ADD DUP8 SWAP1 MSTORE PUSH1 0x80 DUP2 ADD DUP7 SWAP1 MSTORE PUSH1 0x1 SWAP1 PUSH1 0xA0 ADD PUSH1 0x20 PUSH1 0x40 MLOAD PUSH1 0x20 DUP2 SUB SWAP1 DUP1 DUP5 SUB SWAP1 DUP6 GAS STATICCALL ISZERO DUP1 ISZERO PUSH2 0x16DD JUMPI RETURNDATASIZE PUSH0 PUSH0 RETURNDATACOPY RETURNDATASIZE PUSH0 REVERT JUMPDEST POP POP PUSH1 0x40 MLOAD PUSH1 0x1F NOT ADD MLOAD SWAP2 POP POP PUSH1 0x1 PUSH1 0x1 PUSH1 0xA0 SHL SUB DUP2 AND PUSH2 0x1708 JUMPI POP PUSH0 SWAP3 POP PUSH1 0x1 SWAP2 POP DUP3 SWAP1 POP PUSH2 0x1711 JUMP JUMPDEST SWAP3 POP PUSH0 SWAP2 POP DUP2 SWAP1 POP JUMPDEST SWAP5 POP SWAP5 POP SWAP5 SWAP2 POP POP JUMP JUMPDEST DUP3 DUP1 SLOAD DUP3 DUP3 SSTORE SWAP1 PUSH0 MSTORE PUSH1 0x20 PUSH0 KECCAK256 SWAP1 DUP2 ADD SWAP3 DUP3 ISZERO PUSH2 0x1779 JUMPI SWAP2 PUSH1 0x20 MUL DUP3 ADD JUMPDEST DUP3 DUP2 GT ISZERO PUSH2 0x1779 JUMPI DUP2 SLOAD PUSH20 0xFFFFFFFFFFFFFFFFFFFFFFFFFFFFFFFFFFFFFFFF NOT AND PUSH1 0x1 PUSH1 0x1 PUSH1 0xA0 SHL SUB DUP5 CALLDATALOAD AND OR DUP3 SSTORE PUSH1 0x20 SWAP1 SWAP3 ADD SWAP2 PUSH1 0x1 SWAP1 SWAP2 ADD SWAP1 PUSH2 0x1739 JUMP JUMPDEST POP PUSH2 0x1785 SWAP3 SWAP2 POP PUSH2 0x1789 JUMP JUMPDEST POP SWAP1 JUMP JUMPDEST JUMPDEST DUP1 DUP3 GT ISZERO PUSH2 0x1785 JUMPI PUSH0 DUP2 SSTORE PUSH1 0x1 ADD PUSH2 0x178A JUMP JUMPDEST PUSH1 0x1 PUSH1 0x1 PUSH1 0xA0 SHL SUB DUP2 AND DUP2 EQ PUSH2 0xB36 JUMPI PUSH0 PUSH0 REVERT JUMPDEST PUSH1 0xFF DUP2 AND DUP2 EQ PUSH2 0xB36 JUMPI PUSH0 PUSH0 REVERT JUMPDEST PUSH0 PUSH0 DUP4 PUSH1 0x1F DUP5 ADD SLT PUSH2 0x17CF JUMPI PUSH0 PUSH0 REVERT JUMPDEST POP DUP2 CALLDATALOAD PUSH8 0xFFFFFFFFFFFFFFFF DUP2 GT ISZERO PUSH2 0x17E6 JUMPI PUSH0 PUSH0 REVERT JUMPDEST PUSH1 0x20 DUP4 ADD SWAP2 POP DUP4 PUSH1 0x20 DUP3 DUP6 ADD ADD GT ISZERO PUSH2 0x17FD JUMPI PUSH0 PUSH0 REVERT JUMPDEST SWAP3 POP SWAP3 SWAP1 POP JUMP JUMPDEST PUSH0 PUSH0 PUSH0 PUSH0 PUSH0 PUSH0 PUSH0 PUSH1 0xC0 DUP9 DUP11 SUB SLT ISZERO PUSH2 0x181A JUMPI PUSH0 PUSH0 REVERT JUMPDEST DUP8 CALLDATALOAD PUSH2 0x1825 DUP2 PUSH2 0x179D JUMP JUMPDEST SWAP7 POP PUSH1 0x20 DUP9 ADD CALLDATALOAD PUSH2 0x1835 DUP2 PUSH2 0x17B1 JUMP JUMPDEST SWAP6 POP PUSH1 0x40 DUP9 ADD CALLDATALOAD SWAP5 POP PUSH1 0x60 DUP9 ADD CALLDATALOAD PUSH2 0x184C DUP2 PUSH2 0x17B1 JUMP JUMPDEST SWAP4 POP PUSH1 0x80 DUP9 ADD CALLDATALOAD SWAP3 POP PUSH1 0xA0 DUP9 ADD CALLDATALOAD PUSH8 0xFFFFFFFFFFFFFFFF DUP2 GT ISZERO PUSH2 0x186E JUMPI PUSH0 PUSH0 REVERT JUMPDEST PUSH2 0x187A DUP11 DUP3 DUP12 ADD PUSH2 0x17BF JUMP JUMPDEST SWAP9 SWAP12 SWAP8 SWAP11 POP SWAP6 SWAP9 POP SWAP4 SWAP7 SWAP3 SWAP6 SWAP3 SWAP4 POP POP POP JUMP JUMPDEST PUSH0 PUSH0 PUSH0 PUSH0 PUSH1 0x60 DUP6 DUP8 SUB SLT ISZERO PUSH2 0x18A0 JUMPI PUSH0 PUSH0 REVERT JUMPDEST DUP5 CALLDATALOAD PUSH2 0x18AB DUP2 PUSH2 0x179D JUMP JUMPDEST SWAP4 POP PUSH1 0x20 DUP6 ADD CALLDATALOAD PUSH2 0x18BB DUP2 PUSH2 0x17B1 JUMP JUMPDEST SWAP3 POP PUSH1 0x40 DUP6 ADD CALLDATALOAD PUSH8 0xFFFFFFFFFFFFFFFF DUP2 GT ISZERO PUSH2 0x18D6 JUMPI PUSH0 PUSH0 REVERT JUMPDEST PUSH2 0x18E2 DUP8 DUP3 DUP9 ADD PUSH2 0x17BF JUMP JUMPDEST SWAP6 SWAP9 SWAP5 SWAP8 POP SWAP6 POP POP POP POP JUMP JUMPDEST PUSH0 PUSH0 PUSH0 PUSH0 PUSH0 PUSH1 0x80 DUP7 DUP9 SUB SLT ISZERO PUSH2 0x1902 JUMPI PUSH0 PUSH0 REVERT JUMPDEST DUP6 CALLDATALOAD PUSH2 0x190D DUP2 PUSH2 0x179D JUMP JUMPDEST SWAP5 POP PUSH1 0x20 DUP7 ADD CALLDATALOAD SWAP4 POP PUSH1 0x40 DUP7 ADD CALLDATALOAD PUSH2 0x1924 DUP2 PUSH2 0x17B1 JUMP JUMPDEST SWAP3 POP PUSH1 0x60 DUP7 ADD CALLDATALOAD PUSH8 0xFFFFFFFFFFFFFFFF DUP2 GT ISZERO PUSH2 0x193F JUMPI PUSH0 PUSH0 REVERT JUMPDEST PUSH2 0x194B DUP9 DUP3 DUP10 ADD PUSH2 0x17BF JUMP JUMPDEST SWAP7 SWAP10 SWAP6 SWAP9 POP SWAP4 SWAP7 POP SWAP3 SWAP5 SWAP4 SWAP3 POP POP POP JUMP JUMPDEST PUSH0 PUSH0 PUSH1 0x40 DUP4 DUP6 SUB SLT ISZERO PUSH2 0x196D JUMPI PUSH0 PUSH0 REVERT JUMPDEST DUP3 CALLDATALOAD PUSH2 0x1978 DUP2 PUSH2 0x179D JUMP JUMPDEST SWAP2 POP PUSH1 0x20 DUP4 ADD CALLDATALOAD DUP1 ISZERO ISZERO DUP2 EQ PUSH2 0x198C JUMPI PUSH0 PUSH0 REVERT JUMPDEST DUP1 SWAP2 POP POP SWAP3 POP SWAP3 SWAP1 POP JUMP JUMPDEST PUSH0 PUSH1 0x20 DUP3 DUP5 SUB SLT ISZERO PUSH2 0x19A7 JUMPI PUSH0 PUSH0 REVERT JUMPDEST DUP2 CALLDATALOAD PUSH2 0x19B2 DUP2 PUSH2 0x179D JUMP JUMPDEST SWAP4 SWAP3 POP POP POP JUMP JUMPDEST PUSH0 PUSH0 PUSH1 0x40 DUP4 DUP6 SUB SLT ISZERO PUSH2 0x19CA JUMPI PUSH0 PUSH0 REVERT JUMPDEST DUP3 CALLDATALOAD PUSH2 0x19D5 DUP2 PUSH2 0x179D JUMP JUMPDEST SWAP5 PUSH1 0x20 SWAP4 SWAP1 SWAP4 ADD CALLDATALOAD SWAP4 POP POP POP JUMP JUMPDEST PUSH0 PUSH0 DUP4 PUSH1 0x1F DUP5 ADD SLT PUSH2 0x19F3 JUMPI PUSH0 PUSH0 REVERT JUMPDEST POP DUP2 CALLDATALOAD PUSH8 0xFFFFFFFFFFFFFFFF DUP2 GT ISZERO PUSH2 0x1A0A JUMPI PUSH0 PUSH0 REVERT JUMPDEST PUSH1 0x20 DUP4 ADD SWAP2 POP DUP4 PUSH1 0x20 DUP3 PUSH1 0x5 SHL DUP6 ADD ADD GT ISZERO PUSH2 0x17FD JUMPI PUSH0 PUSH0 REVERT JUMPDEST PUSH0 PUSH0 PUSH0 PUSH0 PUSH0 PUSH1 0x60 DUP7 DUP9 SUB SLT ISZERO PUSH2 0x1A38 JUMPI PUSH0 PUSH0 REVERT JUMPDEST DUP6 CALLDATALOAD PUSH2 0x1A43 DUP2 PUSH2 0x179D JUMP JUMPDEST SWAP5 POP PUSH1 0x20 DUP7 ADD CALLDATALOAD PUSH8 0xFFFFFFFFFFFFFFFF DUP2 GT ISZERO PUSH2 0x1A5E JUMPI PUSH0 PUSH0 REVERT JUMPDEST PUSH2 0x1A6A DUP9 DUP3 DUP10 ADD PUSH2 0x19E3 JUMP JUMPDEST SWAP1 SWAP6 POP SWAP4 POP POP PUSH1 0x40 DUP7 ADD CALLDATALOAD PUSH8 0xFFFFFFFFFFFFFFFF DUP2 GT ISZERO PUSH2 0x1A89 JUMPI PUSH0 PUSH0 REVERT JUMPDEST PUSH2 0x194B DUP9 DUP3 DUP10 ADD PUSH2 0x19E3 JUMP JUMPDEST PUSH0 PUSH0 PUSH0 PUSH0 PUSH0 PUSH1 0x80 DUP7 DUP9 SUB SLT ISZERO PUSH2 0x1AA9 JUMPI PUSH0 PUSH0 REVERT JUMPDEST DUP6 CALLDATALOAD PUSH2 0x1AB4 DUP2 PUSH2 0x179D JUMP JUMPDEST SWAP5 POP PUSH1 0x20 DUP7 ADD CALLDATALOAD PUSH2 0x1AC4 DUP2 PUSH2 0x17B1 JUMP JUMPDEST SWAP4 POP PUSH1 0x40 DUP7 ADD CALLDATALOAD SWAP3 POP PUSH1 0x60 DUP7 ADD CALLDATALOAD PUSH8 0xFFFFFFFFFFFFFFFF DUP2 GT ISZERO PUSH2 0x193F JUMPI PUSH0 PUSH0 REVERT JUMPDEST PUSH4 0x4E487B71 PUSH1 0xE0 SHL PUSH0 MSTORE PUSH1 0x11 PUSH1 0x4 MSTORE PUSH1 0x24 PUSH0 REVERT JUMPDEST PUSH1 0x1 DUP2 JUMPDEST PUSH1 0x1 DUP5 GT ISZERO PUSH2 0x1B35 JUMPI DUP1 DUP6 DIV DUP2 GT ISZERO PUSH2 0x1B19 JUMPI PUSH2 0x1B19 PUSH2 0x1AE6 JUMP JUMPDEST PUSH1 0x1 DUP5 AND ISZERO PUSH2 0x1B27 JUMPI SWAP1 DUP2 MUL SWAP1 JUMPDEST PUSH1 0x1 SWAP4 SWAP1 SWAP4 SHR SWAP3 DUP1 MUL PUSH2 0x1AFE JUMP JUMPDEST SWAP4 POP SWAP4 SWAP2 POP POP JUMP JUMPDEST PUSH0 DUP3 PUSH2 0x1B4B JUMPI POP PUSH1 0x1 PUSH2 0x684 JUMP JUMPDEST DUP2 PUSH2 0x1B57 JUMPI POP PUSH0 PUSH2 0x684 JUMP JUMPDEST DUP2 PUSH1 0x1 DUP2 EQ PUSH2 0x1B6D JUMPI PUSH1 0x2 DUP2 EQ PUSH2 0x1B77 JUMPI PUSH2 0x1B93 JUMP JUMPDEST PUSH1 0x1 SWAP2 POP POP PUSH2 0x684 JUMP JUMPDEST PUSH1 0xFF DUP5 GT ISZERO PUSH2 0x1B88 JUMPI PUSH2 0x1B88 PUSH2 0x1AE6 JUMP JUMPDEST POP POP PUSH1 0x1 DUP3 SHL PUSH2 0x684 JUMP JUMPDEST POP PUSH1 0x20 DUP4 LT PUSH2 0x133 DUP4 LT AND PUSH1 0x4E DUP5 LT PUSH1 0xB DUP5 LT AND OR ISZERO PUSH2 0x1BB6 JUMPI POP DUP2 DUP2 EXP PUSH2 0x684 JUMP JUMPDEST PUSH2 0x1BC2 PUSH0 NOT DUP5 DUP5 PUSH2 0x1AFA JUMP JUMPDEST DUP1 PUSH0 NOT DIV DUP3 GT ISZERO PUSH2 0x1BD5 JUMPI PUSH2 0x1BD5 PUSH2 0x1AE6 JUMP JUMPDEST MUL SWAP4 SWAP3 POP POP POP JUMP JUMPDEST PUSH0 PUSH2 0x19B2 PUSH1 0xFF DUP5 AND DUP4 PUSH2 0x1B3D JUMP JUMPDEST DUP1 DUP3 MUL DUP2 ISZERO DUP3 DUP3 DIV DUP5 EQ OR PUSH2 0x684 JUMPI PUSH2 0x684 PUSH2 0x1AE6 JUMP JUMPDEST PUSH0 DUP3 PUSH2 0x1C1C JUMPI PUSH4 0x4E487B71 PUSH1 0xE0 SHL PUSH0 MSTORE PUSH1 0x12 PUSH1 0x4 MSTORE PUSH1 0x24 PUSH0 REVERT JUMPDEST POP DIV SWAP1 JUMP JUMPDEST DUP2 DUP4 MSTORE PUSH1 0x20 DUP4 ADD SWAP3 POP PUSH0 DUP2 PUSH0 JUMPDEST DUP5 DUP2 LT ISZERO PUSH2 0x1C5F JUMPI DUP2 CALLDATALOAD PUSH2 0x1C41 DUP2 PUSH2 0x179D JUMP JUMPDEST PUSH1 0x1 PUSH1 0x1 PUSH1 0xA0 SHL SUB AND DUP7 MSTORE PUSH1 0x20 SWAP6 DUP7 ADD SWAP6 SWAP2 SWAP1 SWAP2 ADD SWAP1 PUSH1 0x1 ADD PUSH2 0x1C2E JUMP JUMPDEST POP SWAP4 SWAP5 SWAP4 POP POP POP POP JUMP JUMPDEST PUSH1 0x40 DUP2 MSTORE PUSH0 PUSH2 0x1C7C PUSH1 0x40 DUP4 ADD DUP7 DUP9 PUSH2 0x1C21 JUMP JUMPDEST DUP3 DUP2 SUB PUSH1 0x20 DUP5 ADD MSTORE PUSH2 0x61D DUP2 DUP6 DUP8 PUSH2 0x1C21 JUMP JUMPDEST DUP1 DUP3 ADD DUP1 DUP3 GT ISZERO PUSH2 0x684 JUMPI PUSH2 0x684 PUSH2 0x1AE6 JUMP JUMPDEST PUSH4 0x4E487B71 PUSH1 0xE0 SHL PUSH0 MSTORE PUSH1 0x32 PUSH1 0x4 MSTORE PUSH1 0x24 PUSH0 REVERT JUMPDEST PUSH0 PUSH1 0x20 DUP3 DUP5 SUB SLT ISZERO PUSH2 0x1CC6 JUMPI PUSH0 PUSH0 REVERT JUMPDEST DUP2 MLOAD PUSH2 0x19B2 DUP2 PUSH2 0x17B1 JUMP JUMPDEST DUP1 MLOAD PUSH10 0xFFFFFFFFFFFFFFFFFFFF DUP2 AND DUP2 EQ PUSH2 0x1CEA JUMPI PUSH0 PUSH0 REVERT JUMPDEST SWAP2 SWAP1 POP JUMP JUMPDEST PUSH0 PUSH0 PUSH0 PUSH0 PUSH0 PUSH1 0xA0 DUP7 DUP9 SUB SLT ISZERO PUSH2 0x1D03 JUMPI PUSH0 PUSH0 REVERT JUMPDEST PUSH2 0x1D0C DUP7 PUSH2 0x1CD1 JUMP JUMPDEST PUSH1 0x20 DUP8 ADD MLOAD PUSH1 0x40 DUP9 ADD MLOAD PUSH1 0x60 DUP10 ADD MLOAD SWAP3 SWAP8 POP SWAP1 SWAP6 POP SWAP4 POP SWAP2 POP PUSH2 0x1D31 PUSH1 0x80 DUP8 ADD PUSH2 0x1CD1 JUMP JUMPDEST SWAP1 POP SWAP3 SWAP6 POP SWAP3 SWAP6 SWAP1 SWAP4 POP JUMP JUMPDEST PUSH0 PUSH2 0x19B2 DUP4 DUP4 PUSH2 0x1B3D JUMP JUMPDEST PUSH4 0x4E487B71 PUSH1 0xE0 SHL PUSH0 MSTORE PUSH1 0x41 PUSH1 0x4 MSTORE PUSH1 0x24 PUSH0 REVERT JUMPDEST PUSH0 DUP3 PUSH1 0x1F DUP4 ADD SLT PUSH2 0x1D6B JUMPI PUSH0 PUSH0 REVERT JUMPDEST DUP2 CALLDATALOAD PUSH8 0xFFFFFFFFFFFFFFFF DUP2 GT ISZERO PUSH2 0x1D85 JUMPI PUSH2 0x1D85 PUSH2 0x1D48 JUMP JUMPDEST PUSH1 0x40 MLOAD PUSH1 0x1F DUP3 ADD PUSH1 0x1F NOT SWAP1 DUP2 AND PUSH1 0x3F ADD AND DUP2 ADD PUSH8 0xFFFFFFFFFFFFFFFF DUP2 GT DUP3 DUP3 LT OR ISZERO PUSH2 0x1DB4 JUMPI PUSH2 0x1DB4 PUSH2 0x1D48 JUMP JUMPDEST PUSH1 0x40 MSTORE DUP2 DUP2 MSTORE DUP4 DUP3 ADD PUSH1 0x20 ADD DUP6 LT ISZERO PUSH2 0x1DCB JUMPI PUSH0 PUSH0 REVERT JUMPDEST DUP2 PUSH1 0x20 DUP6 ADD PUSH1 0x20 DUP4 ADD CALLDATACOPY PUSH0 SWAP2 DUP2 ADD PUSH1 0x20 ADD SWAP2 SWAP1 SWAP2 MSTORE SWAP4 SWAP3 POP POP POP JUMP JUMPDEST PUSH0 PUSH0 PUSH1 0x40 DUP4 DUP6 SUB SLT ISZERO PUSH2 0x1DF8 JUMPI PUSH0 PUSH0 REVERT JUMPDEST DUP3 CALLDATALOAD PUSH8 0xFFFFFFFFFFFFFFFF DUP2 GT ISZERO PUSH2 0x1E0E JUMPI PUSH0 PUSH0 REVERT JUMPDEST PUSH2 0x1E1A DUP6 DUP3 DUP7 ADD PUSH2 0x1D5C JUMP JUMPDEST SWAP3 POP POP PUSH1 0x20 DUP4 ADD CALLDATALOAD PUSH8 0xFFFFFFFFFFFFFFFF DUP2 GT ISZERO PUSH2 0x1E36 JUMPI PUSH0 PUSH0 REVERT JUMPDEST PUSH2 0x1E42 DUP6 DUP3 DUP7 ADD PUSH2 0x1D5C JUMP JUMPDEST SWAP2 POP POP SWAP3 POP SWAP3 SWAP1 POP JUMP JUMPDEST DUP1 MLOAD PUSH12 0xFFFFFFFFFFFFFFFFFFFFFFFF DUP2 AND DUP2 EQ PUSH2 0x1CEA JUMPI PUSH0 PUSH0 REVERT JUMPDEST PUSH0 PUSH0 PUSH0 PUSH0 PUSH0 PUSH0 PUSH0 PUSH0 PUSH2 0x100 DUP10 DUP12 SUB SLT ISZERO PUSH2 0x1E7F JUMPI PUSH0 PUSH0 REVERT JUMPDEST DUP9 MLOAD PUSH1 0x20 DUP11 ADD MLOAD PUSH1 0x40 DUP12 ADD MLOAD SWAP2 SWAP10 POP SWAP8 POP PUSH2 0x1E99 DUP2 PUSH2 0x179D JUMP JUMPDEST PUSH1 0x60 DUP11 ADD MLOAD SWAP1 SWAP7 POP PUSH2 0x1EAA DUP2 PUSH2 0x179D JUMP JUMPDEST PUSH1 0x80 DUP11 ADD MLOAD PUSH1 0xA0 DUP12 ADD MLOAD SWAP2 SWAP7 POP SWAP5 POP PUSH2 0x1EC2 DUP2 PUSH2 0x17B1 JUMP JUMPDEST SWAP3 POP PUSH2 0x1ED0 PUSH1 0xC0 DUP11 ADD PUSH2 0x1E4C JUMP JUMPDEST SWAP2 POP PUSH2 0x1EDE PUSH1 0xE0 DUP11 ADD PUSH2 0x1E4C JUMP JUMPDEST SWAP1 POP SWAP3 SWAP6 SWAP9 POP SWAP3 SWAP6 SWAP9 SWAP1 SWAP4 SWAP7 POP JUMP JUMPDEST PUSH0 DUP2 MLOAD DUP1 PUSH1 0x20 DUP5 ADD DUP6 MCOPY PUSH0 SWAP4 ADD SWAP3 DUP4 MSTORE POP SWAP1 SWAP2 SWAP1 POP JUMP JUMPDEST PUSH32 0x19457468657265756D205369676E6564204D6573736167653A0A000000000000 DUP2 MSTORE PUSH0 PUSH2 0x59A PUSH2 0x1F38 PUSH1 0x1A DUP5 ADD DUP7 PUSH2 0x1EED JUMP JUMPDEST DUP5 PUSH2 0x1EED JUMP JUMPDEST PUSH4 0x4E487B71 PUSH1 0xE0 SHL PUSH0 MSTORE PUSH1 0x21 PUSH1 0x4 MSTORE PUSH1 0x24 PUSH0 REVERT INVALID LOG2 PUSH5 0x6970667358 0x22 SLT KECCAK256 0xE EQ CALLDATACOPY DUP5 EXTCODESIZE DUP14 0xBA BLOBHASH SWAP3 0xDB SWAP8 PUSH27 0x1F04CF5AEE4DA5210157209D591CB948667D089064736F6C634300 ADDMOD 0x1E STOP CALLER "
		},
		"gasEstimates": {
			"creation": {
				"codeDepositCost": "1614400",
				"executionCost": "infinite",
				"totalCost": "infinite"
			},
			"external": {
				"PRECISION()": "270",
				"QUOTE_ADDRESS()": "infinite",
				"QUOTE_DECIMALS()": "infinite",
				"isAuthorizedSigner(address)": "2721",
				"isOnchainOracle(address)": "2588",
				"owner()": "2397",
				"path_div(address,uint256)": "4839",
				"path_mul(address,uint256)": "4817",
				"quoteToken()": "infinite",
				"readAbsoluteCollateralValue(address,uint256,uint8,bytes)": "infinite",
				"readCollateralValues(address,uint8,uint256,uint8,uint256,bytes)": "infinite",
				"readPrice(address,uint8,bytes)": "infinite",
				"readQuoteAmountToCollateralAmount(address,uint8,uint256,bytes)": "infinite",
				"readRelativeCollateralValue(address,uint8,uint256,uint8,uint256,bytes)": "infinite",
				"renounceOwnership()": "infinite",
				"setOracles(address,address[],address[])": "infinite",
				"setSigner(address,bool)": "28262",
				"transferOwnership(address)": "infinite",
				"useAbsoluteCollateralValue(address,uint256,uint8,bytes)": "infinite",
				"useCollateralValues(address,uint8,uint256,uint8,uint256,bytes)": "infinite",
				"usePrice(address,uint8,bytes)": "infinite",
				"useQuoteAmountToCollateralAmount(address,uint8,uint256,bytes)": "infinite",
				"useRelativeCollateralValue(address,uint8,uint256,uint8,uint256,bytes)": "infinite"
			},
			"internal": {
				"calc_chainlink_price(address,uint8)": "infinite"
			}
		},
		"methodIdentifiers": {
			"PRECISION()": "aaf5eb68",
			"QUOTE_ADDRESS()": "fc01d62b",
			"QUOTE_DECIMALS()": "150e89cb",
			"isAuthorizedSigner(address)": "49045e16",
			"isOnchainOracle(address)": "f621a19a",
			"owner()": "8da5cb5b",
			"path_div(address,uint256)": "5d523216",
			"path_mul(address,uint256)": "9ef1f7c2",
			"quoteToken()": "217a4b70",
			"readAbsoluteCollateralValue(address,uint256,uint8,bytes)": "1ff8d6dc",
			"readCollateralValues(address,uint8,uint256,uint8,uint256,bytes)": "3628815c",
			"readPrice(address,uint8,bytes)": "0cd07409",
			"readQuoteAmountToCollateralAmount(address,uint8,uint256,bytes)": "b57a1b0b",
			"readRelativeCollateralValue(address,uint8,uint256,uint8,uint256,bytes)": "4bbf415c",
			"renounceOwnership()": "715018a6",
			"setOracles(address,address[],address[])": "927b0504",
			"setSigner(address,bool)": "31cb6105",
			"transferOwnership(address)": "f2fde38b",
			"useAbsoluteCollateralValue(address,uint256,uint8,bytes)": "6a089215",
			"useCollateralValues(address,uint8,uint256,uint8,uint256,bytes)": "0649b8c2",
			"usePrice(address,uint8,bytes)": "bff734c1",
			"useQuoteAmountToCollateralAmount(address,uint8,uint256,bytes)": "c5801aa3",
			"useRelativeCollateralValue(address,uint8,uint256,uint8,uint256,bytes)": "b4e37cf9"
		}
	},
	"abi": [
		{
			"inputs": [
				{
					"internalType": "address",
					"name": "_quote_addr",
					"type": "address"
				}
			],
			"stateMutability": "nonpayable",
			"type": "constructor"
		},
		{
			"inputs": [],
			"name": "ECDSAInvalidSignature",
			"type": "error"
		},
		{
			"inputs": [
				{
					"internalType": "uint256",
					"name": "length",
					"type": "uint256"
				}
			],
			"name": "ECDSAInvalidSignatureLength",
			"type": "error"
		},
		{
			"inputs": [
				{
					"internalType": "bytes32",
					"name": "s",
					"type": "bytes32"
				}
			],
			"name": "ECDSAInvalidSignatureS",
			"type": "error"
		},
		{
			"inputs": [
				{
					"internalType": "address",
					"name": "owner",
					"type": "address"
				}
			],
			"name": "OwnableInvalidOwner",
			"type": "error"
		},
		{
			"inputs": [
				{
					"internalType": "address",
					"name": "account",
					"type": "address"
				}
			],
			"name": "OwnableUnauthorizedAccount",
			"type": "error"
		},
		{
			"anonymous": false,
			"inputs": [
				{
					"indexed": true,
					"internalType": "address",
					"name": "base_token",
					"type": "address"
				},
				{
					"indexed": false,
					"internalType": "address[]",
					"name": "mul_path",
					"type": "address[]"
				},
				{
					"indexed": false,
					"internalType": "address[]",
					"name": "div_path",
					"type": "address[]"
				}
			],
			"name": "OnChainOracleAdded",
			"type": "event"
		},
		{
			"anonymous": false,
			"inputs": [
				{
					"indexed": true,
					"internalType": "address",
					"name": "previousOwner",
					"type": "address"
				},
				{
					"indexed": true,
					"internalType": "address",
					"name": "newOwner",
					"type": "address"
				}
			],
			"name": "OwnershipTransferred",
			"type": "event"
		},
		{
			"anonymous": false,
			"inputs": [
				{
					"indexed": true,
					"internalType": "address",
					"name": "base_token",
					"type": "address"
				},
				{
					"indexed": false,
					"internalType": "uint256",
					"name": "price",
					"type": "uint256"
				},
				{
					"indexed": false,
					"internalType": "uint256",
					"name": "decimals",
					"type": "uint256"
				}
			],
			"name": "PriceLog",
			"type": "event"
		},
		{
			"anonymous": false,
			"inputs": [
				{
					"indexed": false,
					"internalType": "address",
					"name": "signer",
					"type": "address"
				},
				{
					"indexed": false,
					"internalType": "bool",
					"name": "is_authorized",
					"type": "bool"
				}
			],
			"name": "SignerChanged",
			"type": "event"
		},
		{
			"inputs": [],
			"name": "PRECISION",
			"outputs": [
				{
					"internalType": "uint8",
					"name": "",
					"type": "uint8"
				}
			],
			"stateMutability": "view",
			"type": "function"
		},
		{
			"inputs": [],
			"name": "QUOTE_ADDRESS",
			"outputs": [
				{
					"internalType": "address",
					"name": "",
					"type": "address"
				}
			],
			"stateMutability": "view",
			"type": "function"
		},
		{
			"inputs": [],
			"name": "QUOTE_DECIMALS",
			"outputs": [
				{
					"internalType": "uint8",
					"name": "",
					"type": "uint8"
				}
			],
			"stateMutability": "view",
			"type": "function"
		},
		{
			"inputs": [
				{
					"internalType": "address",
					"name": "_signer",
					"type": "address"
				}
			],
			"name": "isAuthorizedSigner",
			"outputs": [
				{
					"internalType": "bool",
					"name": "",
					"type": "bool"
				}
			],
			"stateMutability": "view",
			"type": "function"
		},
		{
			"inputs": [
				{
					"internalType": "address",
					"name": "",
					"type": "address"
				}
			],
			"name": "isOnchainOracle",
			"outputs": [
				{
					"internalType": "bool",
					"name": "",
					"type": "bool"
				}
			],
			"stateMutability": "view",
			"type": "function"
		},
		{
			"inputs": [],
			"name": "owner",
			"outputs": [
				{
					"internalType": "address",
					"name": "",
					"type": "address"
				}
			],
			"stateMutability": "view",
			"type": "function"
		},
		{
			"inputs": [
				{
					"internalType": "address",
					"name": "",
					"type": "address"
				},
				{
					"internalType": "uint256",
					"name": "",
					"type": "uint256"
				}
			],
			"name": "path_div",
			"outputs": [
				{
					"internalType": "address",
					"name": "",
					"type": "address"
				}
			],
			"stateMutability": "view",
			"type": "function"
		},
		{
			"inputs": [
				{
					"internalType": "address",
					"name": "",
					"type": "address"
				},
				{
					"internalType": "uint256",
					"name": "",
					"type": "uint256"
				}
			],
			"name": "path_mul",
			"outputs": [
				{
					"internalType": "address",
					"name": "",
					"type": "address"
				}
			],
			"stateMutability": "view",
			"type": "function"
		},
		{
			"inputs": [],
			"name": "quoteToken",
			"outputs": [
				{
					"internalType": "address",
					"name": "",
					"type": "address"
				}
			],
			"stateMutability": "view",
			"type": "function"
		},
		{
			"inputs": [
				{
					"internalType": "address",
					"name": "base_addr",
					"type": "address"
				},
				{
					"internalType": "uint256",
					"name": "base_amount",
					"type": "uint256"
				},
				{
					"internalType": "uint8",
					"name": "base_decimals",
					"type": "uint8"
				},
				{
					"internalType": "bytes",
					"name": "offchain_data",
					"type": "bytes"
				}
			],
			"name": "readAbsoluteCollateralValue",
			"outputs": [
				{
					"internalType": "uint256",
					"name": "",
					"type": "uint256"
				}
			],
			"stateMutability": "view",
			"type": "function"
		},
		{
			"inputs": [
				{
					"internalType": "address",
					"name": "base_addr",
					"type": "address"
				},
				{
					"internalType": "uint8",
					"name": "result_decimals",
					"type": "uint8"
				},
				{
					"internalType": "uint256",
					"name": "base_amount",
					"type": "uint256"
				},
				{
					"internalType": "uint8",
					"name": "base_decimals",
					"type": "uint8"
				},
				{
					"internalType": "uint256",
					"name": "quote_amount",
					"type": "uint256"
				},
				{
					"internalType": "bytes",
					"name": "offchain_data",
					"type": "bytes"
				}
			],
			"name": "readCollateralValues",
			"outputs": [
				{
					"internalType": "uint256",
					"name": "",
					"type": "uint256"
				},
				{
					"internalType": "uint256",
					"name": "",
					"type": "uint256"
				}
			],
			"stateMutability": "view",
			"type": "function"
		},
		{
			"inputs": [
				{
					"internalType": "address",
					"name": "base_addr",
					"type": "address"
				},
				{
					"internalType": "uint8",
					"name": "target_decimals",
					"type": "uint8"
				},
				{
					"internalType": "bytes",
					"name": "offchain_data",
					"type": "bytes"
				}
			],
			"name": "readPrice",
			"outputs": [
				{
					"internalType": "uint256",
					"name": "",
					"type": "uint256"
				}
			],
			"stateMutability": "view",
			"type": "function"
		},
		{
			"inputs": [
				{
					"internalType": "address",
					"name": "base_addr",
					"type": "address"
				},
				{
					"internalType": "uint8",
					"name": "base_decimals",
					"type": "uint8"
				},
				{
					"internalType": "uint256",
					"name": "quote_amount",
					"type": "uint256"
				},
				{
					"internalType": "bytes",
					"name": "offchain_data",
					"type": "bytes"
				}
			],
			"name": "readQuoteAmountToCollateralAmount",
			"outputs": [
				{
					"internalType": "uint256",
					"name": "",
					"type": "uint256"
				}
			],
			"stateMutability": "view",
			"type": "function"
		},
		{
			"inputs": [
				{
					"internalType": "address",
					"name": "base_addr",
					"type": "address"
				},
				{
					"internalType": "uint8",
					"name": "result_decimals",
					"type": "uint8"
				},
				{
					"internalType": "uint256",
					"name": "base_amount",
					"type": "uint256"
				},
				{
					"internalType": "uint8",
					"name": "base_decimals",
					"type": "uint8"
				},
				{
					"internalType": "uint256",
					"name": "quote_amount",
					"type": "uint256"
				},
				{
					"internalType": "bytes",
					"name": "offchain_data",
					"type": "bytes"
				}
			],
			"name": "readRelativeCollateralValue",
			"outputs": [
				{
					"internalType": "uint256",
					"name": "",
					"type": "uint256"
				}
			],
			"stateMutability": "view",
			"type": "function"
		},
		{
			"inputs": [],
			"name": "renounceOwnership",
			"outputs": [],
			"stateMutability": "nonpayable",
			"type": "function"
		},
		{
			"inputs": [
				{
					"internalType": "address",
					"name": "base_addr",
					"type": "address"
				},
				{
					"internalType": "address[]",
					"name": "mul",
					"type": "address[]"
				},
				{
					"internalType": "address[]",
					"name": "div",
					"type": "address[]"
				}
			],
			"name": "setOracles",
			"outputs": [],
			"stateMutability": "nonpayable",
			"type": "function"
		},
		{
			"inputs": [
				{
					"internalType": "address",
					"name": "signer",
					"type": "address"
				},
				{
					"internalType": "bool",
					"name": "state",
					"type": "bool"
				}
			],
			"name": "setSigner",
			"outputs": [],
			"stateMutability": "nonpayable",
			"type": "function"
		},
		{
			"inputs": [
				{
					"internalType": "address",
					"name": "newOwner",
					"type": "address"
				}
			],
			"name": "transferOwnership",
			"outputs": [],
			"stateMutability": "nonpayable",
			"type": "function"
		},
		{
			"inputs": [
				{
					"internalType": "address",
					"name": "base_addr",
					"type": "address"
				},
				{
					"internalType": "uint256",
					"name": "base_amount",
					"type": "uint256"
				},
				{
					"internalType": "uint8",
					"name": "base_decimals",
					"type": "uint8"
				},
				{
					"internalType": "bytes",
					"name": "offchain_data",
					"type": "bytes"
				}
			],
			"name": "useAbsoluteCollateralValue",
			"outputs": [
				{
					"internalType": "uint256",
					"name": "",
					"type": "uint256"
				}
			],
			"stateMutability": "nonpayable",
			"type": "function"
		},
		{
			"inputs": [
				{
					"internalType": "address",
					"name": "base_addr",
					"type": "address"
				},
				{
					"internalType": "uint8",
					"name": "result_decimals",
					"type": "uint8"
				},
				{
					"internalType": "uint256",
					"name": "base_amount",
					"type": "uint256"
				},
				{
					"internalType": "uint8",
					"name": "base_decimals",
					"type": "uint8"
				},
				{
					"internalType": "uint256",
					"name": "quote_amount",
					"type": "uint256"
				},
				{
					"internalType": "bytes",
					"name": "offchain_data",
					"type": "bytes"
				}
			],
			"name": "useCollateralValues",
			"outputs": [
				{
					"internalType": "uint256",
					"name": "",
					"type": "uint256"
				},
				{
					"internalType": "uint256",
					"name": "",
					"type": "uint256"
				}
			],
			"stateMutability": "nonpayable",
			"type": "function"
		},
		{
			"inputs": [
				{
					"internalType": "address",
					"name": "base_addr",
					"type": "address"
				},
				{
					"internalType": "uint8",
					"name": "target_decimals",
					"type": "uint8"
				},
				{
					"internalType": "bytes",
					"name": "offchain_data",
					"type": "bytes"
				}
			],
			"name": "usePrice",
			"outputs": [
				{
					"internalType": "uint256",
					"name": "",
					"type": "uint256"
				}
			],
			"stateMutability": "nonpayable",
			"type": "function"
		},
		{
			"inputs": [
				{
					"internalType": "address",
					"name": "base_addr",
					"type": "address"
				},
				{
					"internalType": "uint8",
					"name": "base_decimals",
					"type": "uint8"
				},
				{
					"internalType": "uint256",
					"name": "quote_amount",
					"type": "uint256"
				},
				{
					"internalType": "bytes",
					"name": "offchain_data",
					"type": "bytes"
				}
			],
			"name": "useQuoteAmountToCollateralAmount",
			"outputs": [
				{
					"internalType": "uint256",
					"name": "",
					"type": "uint256"
				}
			],
			"stateMutability": "nonpayable",
			"type": "function"
		},
		{
			"inputs": [
				{
					"internalType": "address",
					"name": "base_addr",
					"type": "address"
				},
				{
					"internalType": "uint8",
					"name": "result_decimals",
					"type": "uint8"
				},
				{
					"internalType": "uint256",
					"name": "base_amount",
					"type": "uint256"
				},
				{
					"internalType": "uint8",
					"name": "base_decimals",
					"type": "uint8"
				},
				{
					"internalType": "uint256",
					"name": "quote_amount",
					"type": "uint256"
				},
				{
					"internalType": "bytes",
					"name": "offchain_data",
					"type": "bytes"
				}
			],
			"name": "useRelativeCollateralValue",
			"outputs": [
				{
					"internalType": "uint256",
					"name": "",
					"type": "uint256"
				}
			],
			"stateMutability": "nonpayable",
			"type": "function"
		}
	]
}