{
	"data": {
		"bytecode": {
			"linkReferences": {},
			"object": "60c06040527f08c4a6ba964682b11f46df8ca21a2332795b52b556af6ce17e5f0727ca0f8e53600255348015610033575f5ffd5b5060405161201938038061201983398101604081905261005291610148565b338061007757604051631e4fbdf760e01b81525f600482015260240160405180910390fd5b610080816100f9565b506001600160a01b03811660808190526040805163313ce56760e01b8152905163313ce567916004808201926020929091908290030181865afa1580156100c9573d5f5f3e3d5ffd5b505050506040513d601f19601f820116820180604052508101906100ed9190610175565b60ff1660a05250610195565b5f80546001600160a01b038381166001600160a01b0319831681178455604051919092169283917f8be0079c531659141344cd1fd0a4f28419497f9722a3daafe3b4186f6b6457e09190a35050565b5f60208284031215610158575f5ffd5b81516001600160a01b038116811461016e575f5ffd5b9392505050565b5f60208284031215610185575f5ffd5b815160ff8116811461016e575f5ffd5b60805160a051611e326101e75f395f818161019f01528181610584015261083301525f81816101e801528181610370015281816103da0152818161049f0152818161087f015261098a0152611e325ff3fe608060405234801561000f575f5ffd5b5060043610610148575f3560e01c8063715018a6116100bf578063b57a1b0b11610079578063b57a1b0b146102fd578063bff734c114610310578063c5801aa314610323578063f2fde38b14610336578063f621a19a14610349578063fc01d62b1461036b575f5ffd5b8063715018a6146102a45780638da5cb5b146102ac578063927b0504146102bc5780639ef1f7c2146102cf578063aaf5eb68146102e2578063b4e37cf9146102ea575f5ffd5b806331cb61051161011057806331cb6105146102205780633628815c1461023557806349045e16146102485780634bbf415c1461026b5780635d5232161461027e5780636a08921514610291575f5ffd5b80630649b8c21461014c5780630cd0740914610179578063150e89cb1461019a5780631ff8d6dc146101d3578063217a4b70146101e6575b5f5ffd5b61015f61015a3660046116be565b610392565b604080519283526020830191909152015b60405180910390f35b61018c610187366004611746565b6103d7565b604051908152602001610170565b6101c17f000000000000000000000000000000000000000000000000000000000000000081565b60405160ff9091168152602001610170565b61018c6101e13660046117a6565b610562565b7f00000000000000000000000000000000000000000000000000000000000000005b6040516001600160a01b039091168152602001610170565b61023361022e366004611813565b6105e8565b005b61015f6102433660046116be565b6105fe565b61025b61025636600461184e565b61060e565b6040519015158152602001610170565b61018c6102793660046116be565b61064a565b61020861028c366004611870565b610689565b61018c61029f3660046117a6565b6106bd565b6102336106cc565b5f546001600160a01b0316610208565b6102336102ca3660046118da565b6106df565b6102086102dd366004611870565b6107f5565b6101c1601481565b61018c6102f83660046116be565b61080e565b61018c61030b366004611949565b61081d565b61018c61031e366004611746565b61087c565b61018c610331366004611949565b610a89565b61023361034436600461184e565b610a98565b61025b61035736600461184e565b60056020525f908152604090205460ff1681565b6102087f000000000000000000000000000000000000000000000000000000000000000081565b5f5f5f6103a28a898988886106bd565b90508086816103b28c600a611a90565b6103bc9190611a9e565b6103c69190611ab5565b925092505097509795505050505050565b5f7f00000000000000000000000000000000000000000000000000000000000000006001600160a01b0316856001600160a01b0316036104235761041c84600a611a90565b905061055a565b5f8460ff1611610431575f5ffd5b6001600160a01b0385165f9081526005602052604090205460ff161561045b5761041c8585610ad5565b5f61046785600a611a90565b90505f5f5f5f6104778888610efe565b50509350935093509350896001600160a01b0316846001600160a01b03161480156104d357507f00000000000000000000000000000000000000000000000000000000000000006001600160a01b0316836001600160a01b0316145b80156104e157505f8160ff16115b61052e5760405162461bcd60e51b8152602060048201526019602482015278426164206f6666636861696e206f7261636c6520646174612160381b60448201526064015b60405180910390fd5b61053981600a611a90565b6105438387611a9e565b61054d9190611ab5565b955061055a945050505050565b949350505050565b5f5f61057187601486866103d7565b905061057f6014600a611a90565b6105aa7f0000000000000000000000000000000000000000000000000000000000000000600a611a90565b6105b587600a611a90565b6105bf848a611a9e565b6105c99190611ab5565b6105d39190611a9e565b6105dd9190611ab5565b979650505050505050565b6105f06110c2565b6105fa82826110ee565b5050565b5f5f5f6103a28a89898888610562565b5f6001600160a01b0382161580159061064457506001600160a01b0382165f9081526001602081905260409091205460ff161515145b92915050565b5f5f6106598988888787610562565b905084816106688a600a611a90565b6106729190611a9e565b61067c9190611ab5565b9998505050505050505050565b6004602052815f5260405f2081815481106106a2575f80fd5b5f918252602090912001546001600160a01b03169150829050565b5f5f610571876014868661087c565b6106d46110c2565b6106dd5f611150565b565b6106e76110c2565b6001600160a01b0385165f9081526005602052604090205460ff16156107485760405162461bcd60e51b81526020600482015260166024820152754f7261636c6520697320616c7265616479207365742160501b6044820152606401610525565b6001600160a01b0385165f90815260036020526040902061076a9085856115e3565b506001600160a01b0385165f90815260046020526040902061078d9083836115e3565b506001600160a01b0385165f8181526005602052604090819020805460ff19166001179055517f7f62a858613430febc57d74cd39ba9acb468281347bb5fe1acabb12482e89052906107e6908790879087908790611b1c565b60405180910390a25050505050565b6003602052815f5260405f2081815481106106a2575f80fd5b5f5f61065989888887876106bd565b5f5f61082c87601486866103d7565b90506108597f0000000000000000000000000000000000000000000000000000000000000000600a611a90565b61086487600a611a90565b82876108726014600a611a90565b6105bf9190611a9e565b5f7f00000000000000000000000000000000000000000000000000000000000000006001600160a01b0316856001600160a01b03160361090857604080516001815260ff861660208201526001600160a01b038716917f5db0211664709a6e813c8a533f05660f4d86d46ea914d072768d780cb75a934c910160405180910390a261041c84600a611a90565b5f8460ff1611610916575f5ffd5b6001600160a01b0385165f9081526005602052604081205460ff1615610947576109408686610ad5565b9050610a3a565b61095285600a611a90565b90505f5f5f5f610962888861119f565b50509350935093509350896001600160a01b0316846001600160a01b03161480156109be57507f00000000000000000000000000000000000000000000000000000000000000006001600160a01b0316836001600160a01b0316145b80156109cc57505f8160ff16115b610a145760405162461bcd60e51b8152602060048201526019602482015278426164206f6666636861696e206f7261636c6520646174612160381b6044820152606401610525565b610a1f81600a611a90565b610a298387611a9e565b610a339190611ab5565b9450505050505b6040805182815260ff871660208201526001600160a01b038816917f5db0211664709a6e813c8a533f05660f4d86d46ea914d072768d780cb75a934c910160405180910390a295945050505050565b5f5f61082c876014868661087c565b610aa06110c2565b6001600160a01b038116610ac957604051631e4fbdf760e01b81525f6004820152602401610525565b610ad281611150565b50565b6001600160a01b0382165f90815260036020908152604080832080548251818502810185019093528083528493830182828015610b3957602002820191905f5260205f20905b81546001600160a01b03168152600190910190602001808311610b1b575b505050506001600160a01b0386165f9081526004602090815260408083208054825181850281018501909352808352959650929490935090830182828015610ba857602002820191905f5260205f20905b81546001600160a01b03168152600190910190602001808311610b8a575b505050505090505f81518351610bbe9190611b42565b11610c005760405162461bcd60e51b8152602060048201526012602482015271556e737570706f7274656420746f6b656e2160701b6044820152606401610525565b5f610c0c85600a611a90565b90505f5b8351811015610d80575f848281518110610c2c57610c2c611b55565b602002602001015190505f816001600160a01b031663313ce5676040518163ffffffff1660e01b8152600401602060405180830381865afa158015610c73573d5f5f3e3d5ffd5b505050506040513d601f19601f82011682018060405250810190610c979190611b69565b60ff1690505f826001600160a01b031663feaf968c6040518163ffffffff1660e01b815260040160a060405180830381865afa158015610cd9573d5f5f3e3d5ffd5b505050506040513d601f19601f82011682018060405250810190610cfd9190611ba2565b5050509150505f82118015610d1157505f81135b610d505760405162461bcd60e51b815260206004820152601060248201526f426164206f7261636c6520646174612160801b6044820152606401610525565b610d5b82600a611bf0565b610d658287611a9e565b610d6f9190611ab5565b94505060019092019150610c109050565b505f5b8251811015610ef4575f838281518110610d9f57610d9f611b55565b602002602001015190505f816001600160a01b031663313ce5676040518163ffffffff1660e01b8152600401602060405180830381865afa158015610de6573d5f5f3e3d5ffd5b505050506040513d601f19601f82011682018060405250810190610e0a9190611b69565b60ff1690505f826001600160a01b031663feaf968c6040518163ffffffff1660e01b815260040160a060405180830381865afa158015610e4c573d5f5f3e3d5ffd5b505050506040513d601f19601f82011682018060405250810190610e709190611ba2565b5050509150505f82118015610e8457505f81135b610ec35760405162461bcd60e51b815260206004820152601060248201526f426164206f7261636c6520646174612160801b6044820152606401610525565b80610ecf83600a611bf0565b610ed99087611a9e565b610ee39190611ab5565b94505060019092019150610d839050565b5095945050505050565b5f808080808086610f515760405162461bcd60e51b815260206004820152601c60248201527f4f6666436861696e4f7261636c653a496e76616c6964206461746121000000006044820152606401610525565b5f80610f5f898b018b611c98565b915091505f5f5f5f5f5f5f5f89806020019051810190610f7f9190611d11565b975097509750975097509750975097506002548814610fea5760405162461bcd60e51b815260206004820152602160248201527f4f6666436861696e4f7261636c653a496e76616c696420545950455f484153486044820152602160f81b6064820152608401610525565b4687146110395760405162461bcd60e51b815260206004820181905260248201527f4f6666436861696e4f7261636c653a496e76616c696420636861696e5f6964216044820152606401610525565b806001600160601b0316426001600160601b0316111561109b5760405162461bcd60e51b815260206004820152601c60248201527f4f6666436861696e4f7261636c653a45787069726564206461746121000000006044820152606401610525565b6110a58a8a6111e3565b949e50929c50909a50985096509450505050509295509295509295565b5f546001600160a01b031633146106dd5760405163118cdaa760e01b8152336004820152602401610525565b6001600160a01b0382165f81815260016020908152604091829020805460ff19168515159081179091558251938452908301527f70f1a3dba165402559aaa92407aa69ed152f584fde0bc213bcf1c47acef771b6910160405180910390a15050565b5f80546001600160a01b038381166001600160a01b0319831681178455604051919092169283917f8be0079c531659141344cd1fd0a4f28419497f9722a3daafe3b4186f6b6457e09190a35050565b5f5f5f5f5f5f5f5f5f5f5f5f6111b58e8e610efe565b9550955095509550955095508585858585859b509b509b509b509b509b505050505050509295509295509295565b5f6111f66111f084611252565b8361128c565b90506112018161060e565b61124d5760405162461bcd60e51b815260206004820152601e60248201527f4f6666436861696e4f7261636c653a4e6f7420617574686f72697a65642100006044820152606401610525565b505050565b5f61125d82516112b4565b8260405160200161126f929190611dae565b604051602081830303815290604052805190602001209050919050565b5f5f5f5f61129a8686611343565b9250925092506112aa828261138c565b5090949350505050565b60605f6112c083611444565b60010190505f816001600160401b038111156112de576112de611bfb565b6040519080825280601f01601f191660200182016040528015611308576020820181803683370190505b5090508181016020015b5f19016f181899199a1a9b1b9c1cb0b131b232b360811b600a86061a8153600a850494508461131257509392505050565b5f5f5f835160410361137a576020840151604085015160608601515f1a61136c8882858561151b565b955095509550505050611385565b505081515f91506002905b9250925092565b5f82600381111561139f5761139f611de8565b036113a8575050565b60018260038111156113bc576113bc611de8565b036113da5760405163f645eedf60e01b815260040160405180910390fd5b60028260038111156113ee576113ee611de8565b0361140f5760405163fce698f760e01b815260048101829052602401610525565b600382600381111561142357611423611de8565b036105fa576040516335e2f38360e21b815260048101829052602401610525565b5f8072184f03e93ff9f4daa797ed6e38ed64bf6a1f0160401b83106114825772184f03e93ff9f4daa797ed6e38ed64bf6a1f0160401b830492506040015b6d04ee2d6d415b85acef810000000083106114ae576d04ee2d6d415b85acef8100000000830492506020015b662386f26fc1000083106114cc57662386f26fc10000830492506010015b6305f5e10083106114e4576305f5e100830492506008015b61271083106114f857612710830492506004015b6064831061150a576064830492506002015b600a83106106445760010192915050565b5f80807f7fffffffffffffffffffffffffffffff5d576e7357a4501ddfe92f46681b20a084111561155457505f915060039050826115d9565b604080515f808252602082018084528a905260ff891692820192909252606081018790526080810186905260019060a0016020604051602081039080840390855afa1580156115a5573d5f5f3e3d5ffd5b5050604051601f1901519150506001600160a01b0381166115d057505f9250600191508290506115d9565b92505f91508190505b9450945094915050565b828054828255905f5260205f20908101928215611634579160200282015b828111156116345781546001600160a01b0319166001600160a01b03843516178255602090920191600190910190611601565b50611640929150611644565b5090565b5b80821115611640575f8155600101611645565b6001600160a01b0381168114610ad2575f5ffd5b60ff81168114610ad2575f5ffd5b5f5f83601f84011261168a575f5ffd5b5081356001600160401b038111156116a0575f5ffd5b6020830191508360208285010111156116b7575f5ffd5b9250929050565b5f5f5f5f5f5f5f60c0888a0312156116d4575f5ffd5b87356116df81611658565b965060208801356116ef8161166c565b95506040880135945060608801356117068161166c565b93506080880135925060a08801356001600160401b03811115611727575f5ffd5b6117338a828b0161167a565b989b979a50959850939692959293505050565b5f5f5f5f60608587031215611759575f5ffd5b843561176481611658565b935060208501356117748161166c565b925060408501356001600160401b0381111561178e575f5ffd5b61179a8782880161167a565b95989497509550505050565b5f5f5f5f5f608086880312156117ba575f5ffd5b85356117c581611658565b94506020860135935060408601356117dc8161166c565b925060608601356001600160401b038111156117f6575f5ffd5b6118028882890161167a565b969995985093965092949392505050565b5f5f60408385031215611824575f5ffd5b823561182f81611658565b915060208301358015158114611843575f5ffd5b809150509250929050565b5f6020828403121561185e575f5ffd5b813561186981611658565b9392505050565b5f5f60408385031215611881575f5ffd5b823561188c81611658565b946020939093013593505050565b5f5f83601f8401126118aa575f5ffd5b5081356001600160401b038111156118c0575f5ffd5b6020830191508360208260051b85010111156116b7575f5ffd5b5f5f5f5f5f606086880312156118ee575f5ffd5b85356118f981611658565b945060208601356001600160401b03811115611913575f5ffd5b61191f8882890161189a565b90955093505060408601356001600160401b0381111561193d575f5ffd5b6118028882890161189a565b5f5f5f5f5f6080868803121561195d575f5ffd5b853561196881611658565b945060208601356119788161166c565b93506040860135925060608601356001600160401b038111156117f6575f5ffd5b634e487b7160e01b5f52601160045260245ffd5b6001815b60018411156119e8578085048111156119cc576119cc611999565b60018416156119da57908102905b60019390931c9280026119b1565b935093915050565b5f826119fe57506001610644565b81611a0a57505f610644565b8160018114611a205760028114611a2a57611a46565b6001915050610644565b60ff841115611a3b57611a3b611999565b50506001821b610644565b5060208310610133831016604e8410600b8410161715611a69575081810a610644565b611a755f1984846119ad565b805f1904821115611a8857611a88611999565b029392505050565b5f61186960ff8416836119f0565b808202811582820484141761064457610644611999565b5f82611acf57634e487b7160e01b5f52601260045260245ffd5b500490565b8183526020830192505f815f5b84811015611b12578135611af481611658565b6001600160a01b031686526020958601959190910190600101611ae1565b5093949350505050565b604081525f611b2f604083018688611ad4565b82810360208401526105dd818587611ad4565b8082018082111561064457610644611999565b634e487b7160e01b5f52603260045260245ffd5b5f60208284031215611b79575f5ffd5b81516118698161166c565b805169ffffffffffffffffffff81168114611b9d575f5ffd5b919050565b5f5f5f5f5f60a08688031215611bb6575f5ffd5b611bbf86611b84565b60208701516040880151606089015192975090955093509150611be460808701611b84565b90509295509295909350565b5f61186983836119f0565b634e487b7160e01b5f52604160045260245ffd5b5f82601f830112611c1e575f5ffd5b81356001600160401b03811115611c3757611c37611bfb565b604051601f8201601f19908116603f011681016001600160401b0381118282101715611c6557611c65611bfb565b604052818152838201602001851015611c7c575f5ffd5b816020850160208301375f918101602001919091529392505050565b5f5f60408385031215611ca9575f5ffd5b82356001600160401b03811115611cbe575f5ffd5b611cca85828601611c0f565b92505060208301356001600160401b03811115611ce5575f5ffd5b611cf185828601611c0f565b9150509250929050565b80516001600160601b0381168114611b9d575f5ffd5b5f5f5f5f5f5f5f5f610100898b031215611d29575f5ffd5b885160208a015160408b01519199509750611d4381611658565b60608a0151909650611d5481611658565b60808a015160a08b01519196509450611d6c8161166c565b9250611d7a60c08a01611cfb565b9150611d8860e08a01611cfb565b90509295985092959890939650565b5f81518060208401855e5f93019283525090919050565b7f19457468657265756d205369676e6564204d6573736167653a0a00000000000081525f61055a611de2601a840186611d97565b84611d97565b634e487b7160e01b5f52602160045260245ffdfea26469706673582212205623418af56cf40ad274d0b6eaecd3902aa4ae3ce869057604ca3420e3e55ef264736f6c634300081e0033",
			"opcodes": "PUSH1 0xC0 PUSH1 0x40 MSTORE PUSH32 0x8C4A6BA964682B11F46DF8CA21A2332795B52B556AF6CE17E5F0727CA0F8E53 PUSH1 0x2 SSTORE CALLVALUE DUP1 ISZERO PUSH2 0x33 JUMPI PUSH0 PUSH0 REVERT JUMPDEST POP PUSH1 0x40 MLOAD PUSH2 0x2019 CODESIZE SUB DUP1 PUSH2 0x2019 DUP4 CODECOPY DUP2 ADD PUSH1 0x40 DUP2 SWAP1 MSTORE PUSH2 0x52 SWAP2 PUSH2 0x148 JUMP JUMPDEST CALLER DUP1 PUSH2 0x77 JUMPI PUSH1 0x40 MLOAD PUSH4 0x1E4FBDF7 PUSH1 0xE0 SHL DUP2 MSTORE PUSH0 PUSH1 0x4 DUP3 ADD MSTORE PUSH1 0x24 ADD PUSH1 0x40 MLOAD DUP1 SWAP2 SUB SWAP1 REVERT JUMPDEST PUSH2 0x80 DUP2 PUSH2 0xF9 JUMP JUMPDEST POP PUSH1 0x1 PUSH1 0x1 PUSH1 0xA0 SHL SUB DUP2 AND PUSH1 0x80 DUP2 SWAP1 MSTORE PUSH1 0x40 DUP1 MLOAD PUSH4 0x313CE567 PUSH1 0xE0 SHL DUP2 MSTORE SWAP1 MLOAD PUSH4 0x313CE567 SWAP2 PUSH1 0x4 DUP1 DUP3 ADD SWAP3 PUSH1 0x20 SWAP3 SWAP1 SWAP2 SWAP1 DUP3 SWAP1 SUB ADD DUP2 DUP7 GAS STATICCALL ISZERO DUP1 ISZERO PUSH2 0xC9 JUMPI RETURNDATASIZE PUSH0 PUSH0 RETURNDATACOPY RETURNDATASIZE PUSH0 REVERT JUMPDEST POP POP POP POP PUSH1 0x40 MLOAD RETURNDATASIZE PUSH1 0x1F NOT PUSH1 0x1F DUP3 ADD AND DUP3 ADD DUP1 PUSH1 0x40 MSTORE POP DUP2 ADD SWAP1 PUSH2 0xED SWAP2 SWAP1 PUSH2 0x175 JUMP JUMPDEST PUSH1 0xFF AND PUSH1 0xA0 MSTORE POP PUSH2 0x195 JUMP JUMPDEST PUSH0 DUP1 SLOAD PUSH1 0x1 PUSH1 0x1 PUSH1 0xA0 SHL SUB DUP4 DUP2 AND PUSH1 0x1 PUSH1 0x1 PUSH1 0xA0 SHL SUB NOT DUP4 AND DUP2 OR DUP5 SSTORE PUSH1 0x40 MLOAD SWAP2 SWAP1 SWAP3 AND SWAP3 DUP4 SWAP2 PUSH32 0x8BE0079C531659141344CD1FD0A4F28419497F9722A3DAAFE3B4186F6B6457E0 SWAP2 SWAP1 LOG3 POP POP JUMP JUMPDEST PUSH0 PUSH1 0x20 DUP3 DUP5 SUB SLT ISZERO PUSH2 0x158 JUMPI PUSH0 PUSH0 REVERT JUMPDEST DUP2 MLOAD PUSH1 0x1 PUSH1 0x1 PUSH1 0xA0 SHL SUB DUP2 AND DUP2 EQ PUSH2 0x16E JUMPI PUSH0 PUSH0 REVERT JUMPDEST SWAP4 SWAP3 POP POP POP JUMP JUMPDEST PUSH0 PUSH1 0x20 DUP3 DUP5 SUB SLT ISZERO PUSH2 0x185 JUMPI PUSH0 PUSH0 REVERT JUMPDEST DUP2 MLOAD PUSH1 0xFF DUP2 AND DUP2 EQ PUSH2 0x16E JUMPI PUSH0 PUSH0 REVERT JUMPDEST PUSH1 0x80 MLOAD PUSH1 0xA0 MLOAD PUSH2 0x1E32 PUSH2 0x1E7 PUSH0 CODECOPY PUSH0 DUP2 DUP2 PUSH2 0x19F ADD MSTORE DUP2 DUP2 PUSH2 0x584 ADD MSTORE PUSH2 0x833 ADD MSTORE PUSH0 DUP2 DUP2 PUSH2 0x1E8 ADD MSTORE DUP2 DUP2 PUSH2 0x370 ADD MSTORE DUP2 DUP2 PUSH2 0x3DA ADD MSTORE DUP2 DUP2 PUSH2 0x49F ADD MSTORE DUP2 DUP2 PUSH2 0x87F ADD MSTORE PUSH2 0x98A ADD MSTORE PUSH2 0x1E32 PUSH0 RETURN INVALID PUSH1 0x80 PUSH1 0x40 MSTORE CALLVALUE DUP1 ISZERO PUSH2 0xF JUMPI PUSH0 PUSH0 REVERT JUMPDEST POP PUSH1 0x4 CALLDATASIZE LT PUSH2 0x148 JUMPI PUSH0 CALLDATALOAD PUSH1 0xE0 SHR DUP1 PUSH4 0x715018A6 GT PUSH2 0xBF JUMPI DUP1 PUSH4 0xB57A1B0B GT PUSH2 0x79 JUMPI DUP1 PUSH4 0xB57A1B0B EQ PUSH2 0x2FD JUMPI DUP1 PUSH4 0xBFF734C1 EQ PUSH2 0x310 JUMPI DUP1 PUSH4 0xC5801AA3 EQ PUSH2 0x323 JUMPI DUP1 PUSH4 0xF2FDE38B EQ PUSH2 0x336 JUMPI DUP1 PUSH4 0xF621A19A EQ PUSH2 0x349 JUMPI DUP1 PUSH4 0xFC01D62B EQ PUSH2 0x36B JUMPI PUSH0 PUSH0 REVERT JUMPDEST DUP1 PUSH4 0x715018A6 EQ PUSH2 0x2A4 JUMPI DUP1 PUSH4 0x8DA5CB5B EQ PUSH2 0x2AC JUMPI DUP1 PUSH4 0x927B0504 EQ PUSH2 0x2BC JUMPI DUP1 PUSH4 0x9EF1F7C2 EQ PUSH2 0x2CF JUMPI DUP1 PUSH4 0xAAF5EB68 EQ PUSH2 0x2E2 JUMPI DUP1 PUSH4 0xB4E37CF9 EQ PUSH2 0x2EA JUMPI PUSH0 PUSH0 REVERT JUMPDEST DUP1 PUSH4 0x31CB6105 GT PUSH2 0x110 JUMPI DUP1 PUSH4 0x31CB6105 EQ PUSH2 0x220 JUMPI DUP1 PUSH4 0x3628815C EQ PUSH2 0x235 JUMPI DUP1 PUSH4 0x49045E16 EQ PUSH2 0x248 JUMPI DUP1 PUSH4 0x4BBF415C EQ PUSH2 0x26B JUMPI DUP1 PUSH4 0x5D523216 EQ PUSH2 0x27E JUMPI DUP1 PUSH4 0x6A089215 EQ PUSH2 0x291 JUMPI PUSH0 PUSH0 REVERT JUMPDEST DUP1 PUSH4 0x649B8C2 EQ PUSH2 0x14C JUMPI DUP1 PUSH4 0xCD07409 EQ PUSH2 0x179 JUMPI DUP1 PUSH4 0x150E89CB EQ PUSH2 0x19A JUMPI DUP1 PUSH4 0x1FF8D6DC EQ PUSH2 0x1D3 JUMPI DUP1 PUSH4 0x217A4B70 EQ PUSH2 0x1E6 JUMPI JUMPDEST PUSH0 PUSH0 REVERT JUMPDEST PUSH2 0x15F PUSH2 0x15A CALLDATASIZE PUSH1 0x4 PUSH2 0x16BE JUMP JUMPDEST PUSH2 0x392 JUMP JUMPDEST PUSH1 0x40 DUP1 MLOAD SWAP3 DUP4 MSTORE PUSH1 0x20 DUP4 ADD SWAP2 SWAP1 SWAP2 MSTORE ADD JUMPDEST PUSH1 0x40 MLOAD DUP1 SWAP2 SUB SWAP1 RETURN JUMPDEST PUSH2 0x18C PUSH2 0x187 CALLDATASIZE PUSH1 0x4 PUSH2 0x1746 JUMP JUMPDEST PUSH2 0x3D7 JUMP JUMPDEST PUSH1 0x40 MLOAD SWAP1 DUP2 MSTORE PUSH1 0x20 ADD PUSH2 0x170 JUMP JUMPDEST PUSH2 0x1C1 PUSH32 0x0 DUP2 JUMP JUMPDEST PUSH1 0x40 MLOAD PUSH1 0xFF SWAP1 SWAP2 AND DUP2 MSTORE PUSH1 0x20 ADD PUSH2 0x170 JUMP JUMPDEST PUSH2 0x18C PUSH2 0x1E1 CALLDATASIZE PUSH1 0x4 PUSH2 0x17A6 JUMP JUMPDEST PUSH2 0x562 JUMP JUMPDEST PUSH32 0x0 JUMPDEST PUSH1 0x40 MLOAD PUSH1 0x1 PUSH1 0x1 PUSH1 0xA0 SHL SUB SWAP1 SWAP2 AND DUP2 MSTORE PUSH1 0x20 ADD PUSH2 0x170 JUMP JUMPDEST PUSH2 0x233 PUSH2 0x22E CALLDATASIZE PUSH1 0x4 PUSH2 0x1813 JUMP JUMPDEST PUSH2 0x5E8 JUMP JUMPDEST STOP JUMPDEST PUSH2 0x15F PUSH2 0x243 CALLDATASIZE PUSH1 0x4 PUSH2 0x16BE JUMP JUMPDEST PUSH2 0x5FE JUMP JUMPDEST PUSH2 0x25B PUSH2 0x256 CALLDATASIZE PUSH1 0x4 PUSH2 0x184E JUMP JUMPDEST PUSH2 0x60E JUMP JUMPDEST PUSH1 0x40 MLOAD SWAP1 ISZERO ISZERO DUP2 MSTORE PUSH1 0x20 ADD PUSH2 0x170 JUMP JUMPDEST PUSH2 0x18C PUSH2 0x279 CALLDATASIZE PUSH1 0x4 PUSH2 0x16BE JUMP JUMPDEST PUSH2 0x64A JUMP JUMPDEST PUSH2 0x208 PUSH2 0x28C CALLDATASIZE PUSH1 0x4 PUSH2 0x1870 JUMP JUMPDEST PUSH2 0x689 JUMP JUMPDEST PUSH2 0x18C PUSH2 0x29F CALLDATASIZE PUSH1 0x4 PUSH2 0x17A6 JUMP JUMPDEST PUSH2 0x6BD JUMP JUMPDEST PUSH2 0x233 PUSH2 0x6CC JUMP JUMPDEST PUSH0 SLOAD PUSH1 0x1 PUSH1 0x1 PUSH1 0xA0 SHL SUB AND PUSH2 0x208 JUMP JUMPDEST PUSH2 0x233 PUSH2 0x2CA CALLDATASIZE PUSH1 0x4 PUSH2 0x18DA JUMP JUMPDEST PUSH2 0x6DF JUMP JUMPDEST PUSH2 0x208 PUSH2 0x2DD CALLDATASIZE PUSH1 0x4 PUSH2 0x1870 JUMP JUMPDEST PUSH2 0x7F5 JUMP JUMPDEST PUSH2 0x1C1 PUSH1 0x14 DUP2 JUMP JUMPDEST PUSH2 0x18C PUSH2 0x2F8 CALLDATASIZE PUSH1 0x4 PUSH2 0x16BE JUMP JUMPDEST PUSH2 0x80E JUMP JUMPDEST PUSH2 0x18C PUSH2 0x30B CALLDATASIZE PUSH1 0x4 PUSH2 0x1949 JUMP JUMPDEST PUSH2 0x81D JUMP JUMPDEST PUSH2 0x18C PUSH2 0x31E CALLDATASIZE PUSH1 0x4 PUSH2 0x1746 JUMP JUMPDEST PUSH2 0x87C JUMP JUMPDEST PUSH2 0x18C PUSH2 0x331 CALLDATASIZE PUSH1 0x4 PUSH2 0x1949 JUMP JUMPDEST PUSH2 0xA89 JUMP JUMPDEST PUSH2 0x233 PUSH2 0x344 CALLDATASIZE PUSH1 0x4 PUSH2 0x184E JUMP JUMPDEST PUSH2 0xA98 JUMP JUMPDEST PUSH2 0x25B PUSH2 0x357 CALLDATASIZE PUSH1 0x4 PUSH2 0x184E JUMP JUMPDEST PUSH1 0x5 PUSH1 0x20 MSTORE PUSH0 SWAP1 DUP2 MSTORE PUSH1 0x40 SWAP1 KECCAK256 SLOAD PUSH1 0xFF AND DUP2 JUMP JUMPDEST PUSH2 0x208 PUSH32 0x0 DUP2 JUMP JUMPDEST PUSH0 PUSH0 PUSH0 PUSH2 0x3A2 DUP11 DUP10 DUP10 DUP9 DUP9 PUSH2 0x6BD JUMP JUMPDEST SWAP1 POP DUP1 DUP7 DUP2 PUSH2 0x3B2 DUP13 PUSH1 0xA PUSH2 0x1A90 JUMP JUMPDEST PUSH2 0x3BC SWAP2 SWAP1 PUSH2 0x1A9E JUMP JUMPDEST PUSH2 0x3C6 SWAP2 SWAP1 PUSH2 0x1AB5 JUMP JUMPDEST SWAP3 POP SWAP3 POP POP SWAP8 POP SWAP8 SWAP6 POP POP POP POP POP POP JUMP JUMPDEST PUSH0 PUSH32 0x0 PUSH1 0x1 PUSH1 0x1 PUSH1 0xA0 SHL SUB AND DUP6 PUSH1 0x1 PUSH1 0x1 PUSH1 0xA0 SHL SUB AND SUB PUSH2 0x423 JUMPI PUSH2 0x41C DUP5 PUSH1 0xA PUSH2 0x1A90 JUMP JUMPDEST SWAP1 POP PUSH2 0x55A JUMP JUMPDEST PUSH0 DUP5 PUSH1 0xFF AND GT PUSH2 0x431 JUMPI PUSH0 PUSH0 REVERT JUMPDEST PUSH1 0x1 PUSH1 0x1 PUSH1 0xA0 SHL SUB DUP6 AND PUSH0 SWAP1 DUP2 MSTORE PUSH1 0x5 PUSH1 0x20 MSTORE PUSH1 0x40 SWAP1 KECCAK256 SLOAD PUSH1 0xFF AND ISZERO PUSH2 0x45B JUMPI PUSH2 0x41C DUP6 DUP6 PUSH2 0xAD5 JUMP JUMPDEST PUSH0 PUSH2 0x467 DUP6 PUSH1 0xA PUSH2 0x1A90 JUMP JUMPDEST SWAP1 POP PUSH0 PUSH0 PUSH0 PUSH0 PUSH2 0x477 DUP9 DUP9 PUSH2 0xEFE JUMP JUMPDEST POP POP SWAP4 POP SWAP4 POP SWAP4 POP SWAP4 POP DUP10 PUSH1 0x1 PUSH1 0x1 PUSH1 0xA0 SHL SUB AND DUP5 PUSH1 0x1 PUSH1 0x1 PUSH1 0xA0 SHL SUB AND EQ DUP1 ISZERO PUSH2 0x4D3 JUMPI POP PUSH32 0x0 PUSH1 0x1 PUSH1 0x1 PUSH1 0xA0 SHL SUB AND DUP4 PUSH1 0x1 PUSH1 0x1 PUSH1 0xA0 SHL SUB AND EQ JUMPDEST DUP1 ISZERO PUSH2 0x4E1 JUMPI POP PUSH0 DUP2 PUSH1 0xFF AND GT JUMPDEST PUSH2 0x52E JUMPI PUSH1 0x40 MLOAD PUSH3 0x461BCD PUSH1 0xE5 SHL DUP2 MSTORE PUSH1 0x20 PUSH1 0x4 DUP3 ADD MSTORE PUSH1 0x19 PUSH1 0x24 DUP3 ADD MSTORE PUSH25 0x426164206F6666636861696E206F7261636C65206461746121 PUSH1 0x38 SHL PUSH1 0x44 DUP3 ADD MSTORE PUSH1 0x64 ADD JUMPDEST PUSH1 0x40 MLOAD DUP1 SWAP2 SUB SWAP1 REVERT JUMPDEST PUSH2 0x539 DUP2 PUSH1 0xA PUSH2 0x1A90 JUMP JUMPDEST PUSH2 0x543 DUP4 DUP8 PUSH2 0x1A9E JUMP JUMPDEST PUSH2 0x54D SWAP2 SWAP1 PUSH2 0x1AB5 JUMP JUMPDEST SWAP6 POP PUSH2 0x55A SWAP5 POP POP POP POP POP JUMP JUMPDEST SWAP5 SWAP4 POP POP POP POP JUMP JUMPDEST PUSH0 PUSH0 PUSH2 0x571 DUP8 PUSH1 0x14 DUP7 DUP7 PUSH2 0x3D7 JUMP JUMPDEST SWAP1 POP PUSH2 0x57F PUSH1 0x14 PUSH1 0xA PUSH2 0x1A90 JUMP JUMPDEST PUSH2 0x5AA PUSH32 0x0 PUSH1 0xA PUSH2 0x1A90 JUMP JUMPDEST PUSH2 0x5B5 DUP8 PUSH1 0xA PUSH2 0x1A90 JUMP JUMPDEST PUSH2 0x5BF DUP5 DUP11 PUSH2 0x1A9E JUMP JUMPDEST PUSH2 0x5C9 SWAP2 SWAP1 PUSH2 0x1AB5 JUMP JUMPDEST PUSH2 0x5D3 SWAP2 SWAP1 PUSH2 0x1A9E JUMP JUMPDEST PUSH2 0x5DD SWAP2 SWAP1 PUSH2 0x1AB5 JUMP JUMPDEST SWAP8 SWAP7 POP POP POP POP POP POP POP JUMP JUMPDEST PUSH2 0x5F0 PUSH2 0x10C2 JUMP JUMPDEST PUSH2 0x5FA DUP3 DUP3 PUSH2 0x10EE JUMP JUMPDEST POP POP JUMP JUMPDEST PUSH0 PUSH0 PUSH0 PUSH2 0x3A2 DUP11 DUP10 DUP10 DUP9 DUP9 PUSH2 0x562 JUMP JUMPDEST PUSH0 PUSH1 0x1 PUSH1 0x1 PUSH1 0xA0 SHL SUB DUP3 AND ISZERO DUP1 ISZERO SWAP1 PUSH2 0x644 JUMPI POP PUSH1 0x1 PUSH1 0x1 PUSH1 0xA0 SHL SUB DUP3 AND PUSH0 SWAP1 DUP2 MSTORE PUSH1 0x1 PUSH1 0x20 DUP2 SWAP1 MSTORE PUSH1 0x40 SWAP1 SWAP2 KECCAK256 SLOAD PUSH1 0xFF AND ISZERO ISZERO EQ JUMPDEST SWAP3 SWAP2 POP POP JUMP JUMPDEST PUSH0 PUSH0 PUSH2 0x659 DUP10 DUP9 DUP9 DUP8 DUP8 PUSH2 0x562 JUMP JUMPDEST SWAP1 POP DUP5 DUP2 PUSH2 0x668 DUP11 PUSH1 0xA PUSH2 0x1A90 JUMP JUMPDEST PUSH2 0x672 SWAP2 SWAP1 PUSH2 0x1A9E JUMP JUMPDEST PUSH2 0x67C SWAP2 SWAP1 PUSH2 0x1AB5 JUMP JUMPDEST SWAP10 SWAP9 POP POP POP POP POP POP POP POP POP JUMP JUMPDEST PUSH1 0x4 PUSH1 0x20 MSTORE DUP2 PUSH0 MSTORE PUSH1 0x40 PUSH0 KECCAK256 DUP2 DUP2 SLOAD DUP2 LT PUSH2 0x6A2 JUMPI PUSH0 DUP1 REVERT JUMPDEST PUSH0 SWAP2 DUP3 MSTORE PUSH1 0x20 SWAP1 SWAP2 KECCAK256 ADD SLOAD PUSH1 0x1 PUSH1 0x1 PUSH1 0xA0 SHL SUB AND SWAP2 POP DUP3 SWAP1 POP JUMP JUMPDEST PUSH0 PUSH0 PUSH2 0x571 DUP8 PUSH1 0x14 DUP7 DUP7 PUSH2 0x87C JUMP JUMPDEST PUSH2 0x6D4 PUSH2 0x10C2 JUMP JUMPDEST PUSH2 0x6DD PUSH0 PUSH2 0x1150 JUMP JUMPDEST JUMP JUMPDEST PUSH2 0x6E7 PUSH2 0x10C2 JUMP JUMPDEST PUSH1 0x1 PUSH1 0x1 PUSH1 0xA0 SHL SUB DUP6 AND PUSH0 SWAP1 DUP2 MSTORE PUSH1 0x5 PUSH1 0x20 MSTORE PUSH1 0x40 SWAP1 KECCAK256 SLOAD PUSH1 0xFF AND ISZERO PUSH2 0x748 JUMPI PUSH1 0x40 MLOAD PUSH3 0x461BCD PUSH1 0xE5 SHL DUP2 MSTORE PUSH1 0x20 PUSH1 0x4 DUP3 ADD MSTORE PUSH1 0x16 PUSH1 0x24 DUP3 ADD MSTORE PUSH22 0x4F7261636C6520697320616C72656164792073657421 PUSH1 0x50 SHL PUSH1 0x44 DUP3 ADD MSTORE PUSH1 0x64 ADD PUSH2 0x525 JUMP JUMPDEST PUSH1 0x1 PUSH1 0x1 PUSH1 0xA0 SHL SUB DUP6 AND PUSH0 SWAP1 DUP2 MSTORE PUSH1 0x3 PUSH1 0x20 MSTORE PUSH1 0x40 SWAP1 KECCAK256 PUSH2 0x76A SWAP1 DUP6 DUP6 PUSH2 0x15E3 JUMP JUMPDEST POP PUSH1 0x1 PUSH1 0x1 PUSH1 0xA0 SHL SUB DUP6 AND PUSH0 SWAP1 DUP2 MSTORE PUSH1 0x4 PUSH1 0x20 MSTORE PUSH1 0x40 SWAP1 KECCAK256 PUSH2 0x78D SWAP1 DUP4 DUP4 PUSH2 0x15E3 JUMP JUMPDEST POP PUSH1 0x1 PUSH1 0x1 PUSH1 0xA0 SHL SUB DUP6 AND PUSH0 DUP2 DUP2 MSTORE PUSH1 0x5 PUSH1 0x20 MSTORE PUSH1 0x40 SWAP1 DUP2 SWAP1 KECCAK256 DUP1 SLOAD PUSH1 0xFF NOT AND PUSH1 0x1 OR SWAP1 SSTORE MLOAD PUSH32 0x7F62A858613430FEBC57D74CD39BA9ACB468281347BB5FE1ACABB12482E89052 SWAP1 PUSH2 0x7E6 SWAP1 DUP8 SWAP1 DUP8 SWAP1 DUP8 SWAP1 DUP8 SWAP1 PUSH2 0x1B1C JUMP JUMPDEST PUSH1 0x40 MLOAD DUP1 SWAP2 SUB SWAP1 LOG2 POP POP POP POP POP JUMP JUMPDEST PUSH1 0x3 PUSH1 0x20 MSTORE DUP2 PUSH0 MSTORE PUSH1 0x40 PUSH0 KECCAK256 DUP2 DUP2 SLOAD DUP2 LT PUSH2 0x6A2 JUMPI PUSH0 DUP1 REVERT JUMPDEST PUSH0 PUSH0 PUSH2 0x659 DUP10 DUP9 DUP9 DUP8 DUP8 PUSH2 0x6BD JUMP JUMPDEST PUSH0 PUSH0 PUSH2 0x82C DUP8 PUSH1 0x14 DUP7 DUP7 PUSH2 0x3D7 JUMP JUMPDEST SWAP1 POP PUSH2 0x859 PUSH32 0x0 PUSH1 0xA PUSH2 0x1A90 JUMP JUMPDEST PUSH2 0x864 DUP8 PUSH1 0xA PUSH2 0x1A90 JUMP JUMPDEST DUP3 DUP8 PUSH2 0x872 PUSH1 0x14 PUSH1 0xA PUSH2 0x1A90 JUMP JUMPDEST PUSH2 0x5BF SWAP2 SWAP1 PUSH2 0x1A9E JUMP JUMPDEST PUSH0 PUSH32 0x0 PUSH1 0x1 PUSH1 0x1 PUSH1 0xA0 SHL SUB AND DUP6 PUSH1 0x1 PUSH1 0x1 PUSH1 0xA0 SHL SUB AND SUB PUSH2 0x908 JUMPI PUSH1 0x40 DUP1 MLOAD PUSH1 0x1 DUP2 MSTORE PUSH1 0xFF DUP7 AND PUSH1 0x20 DUP3 ADD MSTORE PUSH1 0x1 PUSH1 0x1 PUSH1 0xA0 SHL SUB DUP8 AND SWAP2 PUSH32 0x5DB0211664709A6E813C8A533F05660F4D86D46EA914D072768D780CB75A934C SWAP2 ADD PUSH1 0x40 MLOAD DUP1 SWAP2 SUB SWAP1 LOG2 PUSH2 0x41C DUP5 PUSH1 0xA PUSH2 0x1A90 JUMP JUMPDEST PUSH0 DUP5 PUSH1 0xFF AND GT PUSH2 0x916 JUMPI PUSH0 PUSH0 REVERT JUMPDEST PUSH1 0x1 PUSH1 0x1 PUSH1 0xA0 SHL SUB DUP6 AND PUSH0 SWAP1 DUP2 MSTORE PUSH1 0x5 PUSH1 0x20 MSTORE PUSH1 0x40 DUP2 KECCAK256 SLOAD PUSH1 0xFF AND ISZERO PUSH2 0x947 JUMPI PUSH2 0x940 DUP7 DUP7 PUSH2 0xAD5 JUMP JUMPDEST SWAP1 POP PUSH2 0xA3A JUMP JUMPDEST PUSH2 0x952 DUP6 PUSH1 0xA PUSH2 0x1A90 JUMP JUMPDEST SWAP1 POP PUSH0 PUSH0 PUSH0 PUSH0 PUSH2 0x962 DUP9 DUP9 PUSH2 0x119F JUMP JUMPDEST POP POP SWAP4 POP SWAP4 POP SWAP4 POP SWAP4 POP DUP10 PUSH1 0x1 PUSH1 0x1 PUSH1 0xA0 SHL SUB AND DUP5 PUSH1 0x1 PUSH1 0x1 PUSH1 0xA0 SHL SUB AND EQ DUP1 ISZERO PUSH2 0x9BE JUMPI POP PUSH32 0x0 PUSH1 0x1 PUSH1 0x1 PUSH1 0xA0 SHL SUB AND DUP4 PUSH1 0x1 PUSH1 0x1 PUSH1 0xA0 SHL SUB AND EQ JUMPDEST DUP1 ISZERO PUSH2 0x9CC JUMPI POP PUSH0 DUP2 PUSH1 0xFF AND GT JUMPDEST PUSH2 0xA14 JUMPI PUSH1 0x40 MLOAD PUSH3 0x461BCD PUSH1 0xE5 SHL DUP2 MSTORE PUSH1 0x20 PUSH1 0x4 DUP3 ADD MSTORE PUSH1 0x19 PUSH1 0x24 DUP3 ADD MSTORE PUSH25 0x426164206F6666636861696E206F7261636C65206461746121 PUSH1 0x38 SHL PUSH1 0x44 DUP3 ADD MSTORE PUSH1 0x64 ADD PUSH2 0x525 JUMP JUMPDEST PUSH2 0xA1F DUP2 PUSH1 0xA PUSH2 0x1A90 JUMP JUMPDEST PUSH2 0xA29 DUP4 DUP8 PUSH2 0x1A9E JUMP JUMPDEST PUSH2 0xA33 SWAP2 SWAP1 PUSH2 0x1AB5 JUMP JUMPDEST SWAP5 POP POP POP POP POP JUMPDEST PUSH1 0x40 DUP1 MLOAD DUP3 DUP2 MSTORE PUSH1 0xFF DUP8 AND PUSH1 0x20 DUP3 ADD MSTORE PUSH1 0x1 PUSH1 0x1 PUSH1 0xA0 SHL SUB DUP9 AND SWAP2 PUSH32 0x5DB0211664709A6E813C8A533F05660F4D86D46EA914D072768D780CB75A934C SWAP2 ADD PUSH1 0x40 MLOAD DUP1 SWAP2 SUB SWAP1 LOG2 SWAP6 SWAP5 POP POP POP POP POP JUMP JUMPDEST PUSH0 PUSH0 PUSH2 0x82C DUP8 PUSH1 0x14 DUP7 DUP7 PUSH2 0x87C JUMP JUMPDEST PUSH2 0xAA0 PUSH2 0x10C2 JUMP JUMPDEST PUSH1 0x1 PUSH1 0x1 PUSH1 0xA0 SHL SUB DUP2 AND PUSH2 0xAC9 JUMPI PUSH1 0x40 MLOAD PUSH4 0x1E4FBDF7 PUSH1 0xE0 SHL DUP2 MSTORE PUSH0 PUSH1 0x4 DUP3 ADD MSTORE PUSH1 0x24 ADD PUSH2 0x525 JUMP JUMPDEST PUSH2 0xAD2 DUP2 PUSH2 0x1150 JUMP JUMPDEST POP JUMP JUMPDEST PUSH1 0x1 PUSH1 0x1 PUSH1 0xA0 SHL SUB DUP3 AND PUSH0 SWAP1 DUP2 MSTORE PUSH1 0x3 PUSH1 0x20 SWAP1 DUP2 MSTORE PUSH1 0x40 DUP1 DUP4 KECCAK256 DUP1 SLOAD DUP3 MLOAD DUP2 DUP6 MUL DUP2 ADD DUP6 ADD SWAP1 SWAP4 MSTORE DUP1 DUP4 MSTORE DUP5 SWAP4 DUP4 ADD DUP3 DUP3 DUP1 ISZERO PUSH2 0xB39 JUMPI PUSH1 0x20 MUL DUP3 ADD SWAP2 SWAP1 PUSH0 MSTORE PUSH1 0x20 PUSH0 KECCAK256 SWAP1 JUMPDEST DUP2 SLOAD PUSH1 0x1 PUSH1 0x1 PUSH1 0xA0 SHL SUB AND DUP2 MSTORE PUSH1 0x1 SWAP1 SWAP2 ADD SWAP1 PUSH1 0x20 ADD DUP1 DUP4 GT PUSH2 0xB1B JUMPI JUMPDEST POP POP POP POP PUSH1 0x1 PUSH1 0x1 PUSH1 0xA0 SHL SUB DUP7 AND PUSH0 SWAP1 DUP2 MSTORE PUSH1 0x4 PUSH1 0x20 SWAP1 DUP2 MSTORE PUSH1 0x40 DUP1 DUP4 KECCAK256 DUP1 SLOAD DUP3 MLOAD DUP2 DUP6 MUL DUP2 ADD DUP6 ADD SWAP1 SWAP4 MSTORE DUP1 DUP4 MSTORE SWAP6 SWAP7 POP SWAP3 SWAP5 SWAP1 SWAP4 POP SWAP1 DUP4 ADD DUP3 DUP3 DUP1 ISZERO PUSH2 0xBA8 JUMPI PUSH1 0x20 MUL DUP3 ADD SWAP2 SWAP1 PUSH0 MSTORE PUSH1 0x20 PUSH0 KECCAK256 SWAP1 JUMPDEST DUP2 SLOAD PUSH1 0x1 PUSH1 0x1 PUSH1 0xA0 SHL SUB AND DUP2 MSTORE PUSH1 0x1 SWAP1 SWAP2 ADD SWAP1 PUSH1 0x20 ADD DUP1 DUP4 GT PUSH2 0xB8A JUMPI JUMPDEST POP POP POP POP POP SWAP1 POP PUSH0 DUP2 MLOAD DUP4 MLOAD PUSH2 0xBBE SWAP2 SWAP1 PUSH2 0x1B42 JUMP JUMPDEST GT PUSH2 0xC00 JUMPI PUSH1 0x40 MLOAD PUSH3 0x461BCD PUSH1 0xE5 SHL DUP2 MSTORE PUSH1 0x20 PUSH1 0x4 DUP3 ADD MSTORE PUSH1 0x12 PUSH1 0x24 DUP3 ADD MSTORE PUSH18 0x556E737570706F7274656420746F6B656E21 PUSH1 0x70 SHL PUSH1 0x44 DUP3 ADD MSTORE PUSH1 0x64 ADD PUSH2 0x525 JUMP JUMPDEST PUSH0 PUSH2 0xC0C DUP6 PUSH1 0xA PUSH2 0x1A90 JUMP JUMPDEST SWAP1 POP PUSH0 JUMPDEST DUP4 MLOAD DUP2 LT ISZERO PUSH2 0xD80 JUMPI PUSH0 DUP5 DUP3 DUP2 MLOAD DUP2 LT PUSH2 0xC2C JUMPI PUSH2 0xC2C PUSH2 0x1B55 JUMP JUMPDEST PUSH1 0x20 MUL PUSH1 0x20 ADD ADD MLOAD SWAP1 POP PUSH0 DUP2 PUSH1 0x1 PUSH1 0x1 PUSH1 0xA0 SHL SUB AND PUSH4 0x313CE567 PUSH1 0x40 MLOAD DUP2 PUSH4 0xFFFFFFFF AND PUSH1 0xE0 SHL DUP2 MSTORE PUSH1 0x4 ADD PUSH1 0x20 PUSH1 0x40 MLOAD DUP1 DUP4 SUB DUP2 DUP7 GAS STATICCALL ISZERO DUP1 ISZERO PUSH2 0xC73 JUMPI RETURNDATASIZE PUSH0 PUSH0 RETURNDATACOPY RETURNDATASIZE PUSH0 REVERT JUMPDEST POP POP POP POP PUSH1 0x40 MLOAD RETURNDATASIZE PUSH1 0x1F NOT PUSH1 0x1F DUP3 ADD AND DUP3 ADD DUP1 PUSH1 0x40 MSTORE POP DUP2 ADD SWAP1 PUSH2 0xC97 SWAP2 SWAP1 PUSH2 0x1B69 JUMP JUMPDEST PUSH1 0xFF AND SWAP1 POP PUSH0 DUP3 PUSH1 0x1 PUSH1 0x1 PUSH1 0xA0 SHL SUB AND PUSH4 0xFEAF968C PUSH1 0x40 MLOAD DUP2 PUSH4 0xFFFFFFFF AND PUSH1 0xE0 SHL DUP2 MSTORE PUSH1 0x4 ADD PUSH1 0xA0 PUSH1 0x40 MLOAD DUP1 DUP4 SUB DUP2 DUP7 GAS STATICCALL ISZERO DUP1 ISZERO PUSH2 0xCD9 JUMPI RETURNDATASIZE PUSH0 PUSH0 RETURNDATACOPY RETURNDATASIZE PUSH0 REVERT JUMPDEST POP POP POP POP PUSH1 0x40 MLOAD RETURNDATASIZE PUSH1 0x1F NOT PUSH1 0x1F DUP3 ADD AND DUP3 ADD DUP1 PUSH1 0x40 MSTORE POP DUP2 ADD SWAP1 PUSH2 0xCFD SWAP2 SWAP1 PUSH2 0x1BA2 JUMP JUMPDEST POP POP POP SWAP2 POP POP PUSH0 DUP3 GT DUP1 ISZERO PUSH2 0xD11 JUMPI POP PUSH0 DUP2 SGT JUMPDEST PUSH2 0xD50 JUMPI PUSH1 0x40 MLOAD PUSH3 0x461BCD PUSH1 0xE5 SHL DUP2 MSTORE PUSH1 0x20 PUSH1 0x4 DUP3 ADD MSTORE PUSH1 0x10 PUSH1 0x24 DUP3 ADD MSTORE PUSH16 0x426164206F7261636C65206461746121 PUSH1 0x80 SHL PUSH1 0x44 DUP3 ADD MSTORE PUSH1 0x64 ADD PUSH2 0x525 JUMP JUMPDEST PUSH2 0xD5B DUP3 PUSH1 0xA PUSH2 0x1BF0 JUMP JUMPDEST PUSH2 0xD65 DUP3 DUP8 PUSH2 0x1A9E JUMP JUMPDEST PUSH2 0xD6F SWAP2 SWAP1 PUSH2 0x1AB5 JUMP JUMPDEST SWAP5 POP POP PUSH1 0x1 SWAP1 SWAP3 ADD SWAP2 POP PUSH2 0xC10 SWAP1 POP JUMP JUMPDEST POP PUSH0 JUMPDEST DUP3 MLOAD DUP2 LT ISZERO PUSH2 0xEF4 JUMPI PUSH0 DUP4 DUP3 DUP2 MLOAD DUP2 LT PUSH2 0xD9F JUMPI PUSH2 0xD9F PUSH2 0x1B55 JUMP JUMPDEST PUSH1 0x20 MUL PUSH1 0x20 ADD ADD MLOAD SWAP1 POP PUSH0 DUP2 PUSH1 0x1 PUSH1 0x1 PUSH1 0xA0 SHL SUB AND PUSH4 0x313CE567 PUSH1 0x40 MLOAD DUP2 PUSH4 0xFFFFFFFF AND PUSH1 0xE0 SHL DUP2 MSTORE PUSH1 0x4 ADD PUSH1 0x20 PUSH1 0x40 MLOAD DUP1 DUP4 SUB DUP2 DUP7 GAS STATICCALL ISZERO DUP1 ISZERO PUSH2 0xDE6 JUMPI RETURNDATASIZE PUSH0 PUSH0 RETURNDATACOPY RETURNDATASIZE PUSH0 REVERT JUMPDEST POP POP POP POP PUSH1 0x40 MLOAD RETURNDATASIZE PUSH1 0x1F NOT PUSH1 0x1F DUP3 ADD AND DUP3 ADD DUP1 PUSH1 0x40 MSTORE POP DUP2 ADD SWAP1 PUSH2 0xE0A SWAP2 SWAP1 PUSH2 0x1B69 JUMP JUMPDEST PUSH1 0xFF AND SWAP1 POP PUSH0 DUP3 PUSH1 0x1 PUSH1 0x1 PUSH1 0xA0 SHL SUB AND PUSH4 0xFEAF968C PUSH1 0x40 MLOAD DUP2 PUSH4 0xFFFFFFFF AND PUSH1 0xE0 SHL DUP2 MSTORE PUSH1 0x4 ADD PUSH1 0xA0 PUSH1 0x40 MLOAD DUP1 DUP4 SUB DUP2 DUP7 GAS STATICCALL ISZERO DUP1 ISZERO PUSH2 0xE4C JUMPI RETURNDATASIZE PUSH0 PUSH0 RETURNDATACOPY RETURNDATASIZE PUSH0 REVERT JUMPDEST POP POP POP POP PUSH1 0x40 MLOAD RETURNDATASIZE PUSH1 0x1F NOT PUSH1 0x1F DUP3 ADD AND DUP3 ADD DUP1 PUSH1 0x40 MSTORE POP DUP2 ADD SWAP1 PUSH2 0xE70 SWAP2 SWAP1 PUSH2 0x1BA2 JUMP JUMPDEST POP POP POP SWAP2 POP POP PUSH0 DUP3 GT DUP1 ISZERO PUSH2 0xE84 JUMPI POP PUSH0 DUP2 SGT JUMPDEST PUSH2 0xEC3 JUMPI PUSH1 0x40 MLOAD PUSH3 0x461BCD PUSH1 0xE5 SHL DUP2 MSTORE PUSH1 0x20 PUSH1 0x4 DUP3 ADD MSTORE PUSH1 0x10 PUSH1 0x24 DUP3 ADD MSTORE PUSH16 0x426164206F7261636C65206461746121 PUSH1 0x80 SHL PUSH1 0x44 DUP3 ADD MSTORE PUSH1 0x64 ADD PUSH2 0x525 JUMP JUMPDEST DUP1 PUSH2 0xECF DUP4 PUSH1 0xA PUSH2 0x1BF0 JUMP JUMPDEST PUSH2 0xED9 SWAP1 DUP8 PUSH2 0x1A9E JUMP JUMPDEST PUSH2 0xEE3 SWAP2 SWAP1 PUSH2 0x1AB5 JUMP JUMPDEST SWAP5 POP POP PUSH1 0x1 SWAP1 SWAP3 ADD SWAP2 POP PUSH2 0xD83 SWAP1 POP JUMP JUMPDEST POP SWAP6 SWAP5 POP POP POP POP POP JUMP JUMPDEST PUSH0 DUP1 DUP1 DUP1 DUP1 DUP1 DUP7 PUSH2 0xF51 JUMPI PUSH1 0x40 MLOAD PUSH3 0x461BCD PUSH1 0xE5 SHL DUP2 MSTORE PUSH1 0x20 PUSH1 0x4 DUP3 ADD MSTORE PUSH1 0x1C PUSH1 0x24 DUP3 ADD MSTORE PUSH32 0x4F6666436861696E4F7261636C653A496E76616C696420646174612100000000 PUSH1 0x44 DUP3 ADD MSTORE PUSH1 0x64 ADD PUSH2 0x525 JUMP JUMPDEST PUSH0 DUP1 PUSH2 0xF5F DUP10 DUP12 ADD DUP12 PUSH2 0x1C98 JUMP JUMPDEST SWAP2 POP SWAP2 POP PUSH0 PUSH0 PUSH0 PUSH0 PUSH0 PUSH0 PUSH0 PUSH0 DUP10 DUP1 PUSH1 0x20 ADD SWAP1 MLOAD DUP2 ADD SWAP1 PUSH2 0xF7F SWAP2 SWAP1 PUSH2 0x1D11 JUMP JUMPDEST SWAP8 POP SWAP8 POP SWAP8 POP SWAP8 POP SWAP8 POP SWAP8 POP SWAP8 POP SWAP8 POP PUSH1 0x2 SLOAD DUP9 EQ PUSH2 0xFEA JUMPI PUSH1 0x40 MLOAD PUSH3 0x461BCD PUSH1 0xE5 SHL DUP2 MSTORE PUSH1 0x20 PUSH1 0x4 DUP3 ADD MSTORE PUSH1 0x21 PUSH1 0x24 DUP3 ADD MSTORE PUSH32 0x4F6666436861696E4F7261636C653A496E76616C696420545950455F48415348 PUSH1 0x44 DUP3 ADD MSTORE PUSH1 0x21 PUSH1 0xF8 SHL PUSH1 0x64 DUP3 ADD MSTORE PUSH1 0x84 ADD PUSH2 0x525 JUMP JUMPDEST CHAINID DUP8 EQ PUSH2 0x1039 JUMPI PUSH1 0x40 MLOAD PUSH3 0x461BCD PUSH1 0xE5 SHL DUP2 MSTORE PUSH1 0x20 PUSH1 0x4 DUP3 ADD DUP2 SWAP1 MSTORE PUSH1 0x24 DUP3 ADD MSTORE PUSH32 0x4F6666436861696E4F7261636C653A496E76616C696420636861696E5F696421 PUSH1 0x44 DUP3 ADD MSTORE PUSH1 0x64 ADD PUSH2 0x525 JUMP JUMPDEST DUP1 PUSH1 0x1 PUSH1 0x1 PUSH1 0x60 SHL SUB AND TIMESTAMP PUSH1 0x1 PUSH1 0x1 PUSH1 0x60 SHL SUB AND GT ISZERO PUSH2 0x109B JUMPI PUSH1 0x40 MLOAD PUSH3 0x461BCD PUSH1 0xE5 SHL DUP2 MSTORE PUSH1 0x20 PUSH1 0x4 DUP3 ADD MSTORE PUSH1 0x1C PUSH1 0x24 DUP3 ADD MSTORE PUSH32 0x4F6666436861696E4F7261636C653A4578706972656420646174612100000000 PUSH1 0x44 DUP3 ADD MSTORE PUSH1 0x64 ADD PUSH2 0x525 JUMP JUMPDEST PUSH2 0x10A5 DUP11 DUP11 PUSH2 0x11E3 JUMP JUMPDEST SWAP5 SWAP15 POP SWAP3 SWAP13 POP SWAP1 SWAP11 POP SWAP9 POP SWAP7 POP SWAP5 POP POP POP POP POP SWAP3 SWAP6 POP SWAP3 SWAP6 POP SWAP3 SWAP6 JUMP JUMPDEST PUSH0 SLOAD PUSH1 0x1 PUSH1 0x1 PUSH1 0xA0 SHL SUB AND CALLER EQ PUSH2 0x6DD JUMPI PUSH1 0x40 MLOAD PUSH4 0x118CDAA7 PUSH1 0xE0 SHL DUP2 MSTORE CALLER PUSH1 0x4 DUP3 ADD MSTORE PUSH1 0x24 ADD PUSH2 0x525 JUMP JUMPDEST PUSH1 0x1 PUSH1 0x1 PUSH1 0xA0 SHL SUB DUP3 AND PUSH0 DUP2 DUP2 MSTORE PUSH1 0x1 PUSH1 0x20 SWAP1 DUP2 MSTORE PUSH1 0x40 SWAP2 DUP3 SWAP1 KECCAK256 DUP1 SLOAD PUSH1 0xFF NOT AND DUP6 ISZERO ISZERO SWAP1 DUP2 OR SWAP1 SWAP2 SSTORE DUP3 MLOAD SWAP4 DUP5 MSTORE SWAP1 DUP4 ADD MSTORE PUSH32 0x70F1A3DBA165402559AAA92407AA69ED152F584FDE0BC213BCF1C47ACEF771B6 SWAP2 ADD PUSH1 0x40 MLOAD DUP1 SWAP2 SUB SWAP1 LOG1 POP POP JUMP JUMPDEST PUSH0 DUP1 SLOAD PUSH1 0x1 PUSH1 0x1 PUSH1 0xA0 SHL SUB DUP4 DUP2 AND PUSH1 0x1 PUSH1 0x1 PUSH1 0xA0 SHL SUB NOT DUP4 AND DUP2 OR DUP5 SSTORE PUSH1 0x40 MLOAD SWAP2 SWAP1 SWAP3 AND SWAP3 DUP4 SWAP2 PUSH32 0x8BE0079C531659141344CD1FD0A4F28419497F9722A3DAAFE3B4186F6B6457E0 SWAP2 SWAP1 LOG3 POP POP JUMP JUMPDEST PUSH0 PUSH0 PUSH0 PUSH0 PUSH0 PUSH0 PUSH0 PUSH0 PUSH0 PUSH0 PUSH0 PUSH0 PUSH2 0x11B5 DUP15 DUP15 PUSH2 0xEFE JUMP JUMPDEST SWAP6 POP SWAP6 POP SWAP6 POP SWAP6 POP SWAP6 POP SWAP6 POP DUP6 DUP6 DUP6 DUP6 DUP6 DUP6 SWAP12 POP SWAP12 POP SWAP12 POP SWAP12 POP SWAP12 POP SWAP12 POP POP POP POP POP POP POP SWAP3 SWAP6 POP SWAP3 SWAP6 POP SWAP3 SWAP6 JUMP JUMPDEST PUSH0 PUSH2 0x11F6 PUSH2 0x11F0 DUP5 PUSH2 0x1252 JUMP JUMPDEST DUP4 PUSH2 0x128C JUMP JUMPDEST SWAP1 POP PUSH2 0x1201 DUP2 PUSH2 0x60E JUMP JUMPDEST PUSH2 0x124D JUMPI PUSH1 0x40 MLOAD PUSH3 0x461BCD PUSH1 0xE5 SHL DUP2 MSTORE PUSH1 0x20 PUSH1 0x4 DUP3 ADD MSTORE PUSH1 0x1E PUSH1 0x24 DUP3 ADD MSTORE PUSH32 0x4F6666436861696E4F7261636C653A4E6F7420617574686F72697A6564210000 PUSH1 0x44 DUP3 ADD MSTORE PUSH1 0x64 ADD PUSH2 0x525 JUMP JUMPDEST POP POP POP JUMP JUMPDEST PUSH0 PUSH2 0x125D DUP3 MLOAD PUSH2 0x12B4 JUMP JUMPDEST DUP3 PUSH1 0x40 MLOAD PUSH1 0x20 ADD PUSH2 0x126F SWAP3 SWAP2 SWAP1 PUSH2 0x1DAE JUMP JUMPDEST PUSH1 0x40 MLOAD PUSH1 0x20 DUP2 DUP4 SUB SUB DUP2 MSTORE SWAP1 PUSH1 0x40 MSTORE DUP1 MLOAD SWAP1 PUSH1 0x20 ADD KECCAK256 SWAP1 POP SWAP2 SWAP1 POP JUMP JUMPDEST PUSH0 PUSH0 PUSH0 PUSH0 PUSH2 0x129A DUP7 DUP7 PUSH2 0x1343 JUMP JUMPDEST SWAP3 POP SWAP3 POP SWAP3 POP PUSH2 0x12AA DUP3 DUP3 PUSH2 0x138C JUMP JUMPDEST POP SWAP1 SWAP5 SWAP4 POP POP POP POP JUMP JUMPDEST PUSH1 0x60 PUSH0 PUSH2 0x12C0 DUP4 PUSH2 0x1444 JUMP JUMPDEST PUSH1 0x1 ADD SWAP1 POP PUSH0 DUP2 PUSH1 0x1 PUSH1 0x1 PUSH1 0x40 SHL SUB DUP2 GT ISZERO PUSH2 0x12DE JUMPI PUSH2 0x12DE PUSH2 0x1BFB JUMP JUMPDEST PUSH1 0x40 MLOAD SWAP1 DUP1 DUP3 MSTORE DUP1 PUSH1 0x1F ADD PUSH1 0x1F NOT AND PUSH1 0x20 ADD DUP3 ADD PUSH1 0x40 MSTORE DUP1 ISZERO PUSH2 0x1308 JUMPI PUSH1 0x20 DUP3 ADD DUP2 DUP1 CALLDATASIZE DUP4 CALLDATACOPY ADD SWAP1 POP JUMPDEST POP SWAP1 POP DUP2 DUP2 ADD PUSH1 0x20 ADD JUMPDEST PUSH0 NOT ADD PUSH16 0x181899199A1A9B1B9C1CB0B131B232B3 PUSH1 0x81 SHL PUSH1 0xA DUP7 MOD BYTE DUP2 MSTORE8 PUSH1 0xA DUP6 DIV SWAP5 POP DUP5 PUSH2 0x1312 JUMPI POP SWAP4 SWAP3 POP POP POP JUMP JUMPDEST PUSH0 PUSH0 PUSH0 DUP4 MLOAD PUSH1 0x41 SUB PUSH2 0x137A JUMPI PUSH1 0x20 DUP5 ADD MLOAD PUSH1 0x40 DUP6 ADD MLOAD PUSH1 0x60 DUP7 ADD MLOAD PUSH0 BYTE PUSH2 0x136C DUP9 DUP3 DUP6 DUP6 PUSH2 0x151B JUMP JUMPDEST SWAP6 POP SWAP6 POP SWAP6 POP POP POP POP PUSH2 0x1385 JUMP JUMPDEST POP POP DUP2 MLOAD PUSH0 SWAP2 POP PUSH1 0x2 SWAP1 JUMPDEST SWAP3 POP SWAP3 POP SWAP3 JUMP JUMPDEST PUSH0 DUP3 PUSH1 0x3 DUP2 GT ISZERO PUSH2 0x139F JUMPI PUSH2 0x139F PUSH2 0x1DE8 JUMP JUMPDEST SUB PUSH2 0x13A8 JUMPI POP POP JUMP JUMPDEST PUSH1 0x1 DUP3 PUSH1 0x3 DUP2 GT ISZERO PUSH2 0x13BC JUMPI PUSH2 0x13BC PUSH2 0x1DE8 JUMP JUMPDEST SUB PUSH2 0x13DA JUMPI PUSH1 0x40 MLOAD PUSH4 0xF645EEDF PUSH1 0xE0 SHL DUP2 MSTORE PUSH1 0x4 ADD PUSH1 0x40 MLOAD DUP1 SWAP2 SUB SWAP1 REVERT JUMPDEST PUSH1 0x2 DUP3 PUSH1 0x3 DUP2 GT ISZERO PUSH2 0x13EE JUMPI PUSH2 0x13EE PUSH2 0x1DE8 JUMP JUMPDEST SUB PUSH2 0x140F JUMPI PUSH1 0x40 MLOAD PUSH4 0xFCE698F7 PUSH1 0xE0 SHL DUP2 MSTORE PUSH1 0x4 DUP2 ADD DUP3 SWAP1 MSTORE PUSH1 0x24 ADD PUSH2 0x525 JUMP JUMPDEST PUSH1 0x3 DUP3 PUSH1 0x3 DUP2 GT ISZERO PUSH2 0x1423 JUMPI PUSH2 0x1423 PUSH2 0x1DE8 JUMP JUMPDEST SUB PUSH2 0x5FA JUMPI PUSH1 0x40 MLOAD PUSH4 0x35E2F383 PUSH1 0xE2 SHL DUP2 MSTORE PUSH1 0x4 DUP2 ADD DUP3 SWAP1 MSTORE PUSH1 0x24 ADD PUSH2 0x525 JUMP JUMPDEST PUSH0 DUP1 PUSH19 0x184F03E93FF9F4DAA797ED6E38ED64BF6A1F01 PUSH1 0x40 SHL DUP4 LT PUSH2 0x1482 JUMPI PUSH19 0x184F03E93FF9F4DAA797ED6E38ED64BF6A1F01 PUSH1 0x40 SHL DUP4 DIV SWAP3 POP PUSH1 0x40 ADD JUMPDEST PUSH14 0x4EE2D6D415B85ACEF8100000000 DUP4 LT PUSH2 0x14AE JUMPI PUSH14 0x4EE2D6D415B85ACEF8100000000 DUP4 DIV SWAP3 POP PUSH1 0x20 ADD JUMPDEST PUSH7 0x2386F26FC10000 DUP4 LT PUSH2 0x14CC JUMPI PUSH7 0x2386F26FC10000 DUP4 DIV SWAP3 POP PUSH1 0x10 ADD JUMPDEST PUSH4 0x5F5E100 DUP4 LT PUSH2 0x14E4 JUMPI PUSH4 0x5F5E100 DUP4 DIV SWAP3 POP PUSH1 0x8 ADD JUMPDEST PUSH2 0x2710 DUP4 LT PUSH2 0x14F8 JUMPI PUSH2 0x2710 DUP4 DIV SWAP3 POP PUSH1 0x4 ADD JUMPDEST PUSH1 0x64 DUP4 LT PUSH2 0x150A JUMPI PUSH1 0x64 DUP4 DIV SWAP3 POP PUSH1 0x2 ADD JUMPDEST PUSH1 0xA DUP4 LT PUSH2 0x644 JUMPI PUSH1 0x1 ADD SWAP3 SWAP2 POP POP JUMP JUMPDEST PUSH0 DUP1 DUP1 PUSH32 0x7FFFFFFFFFFFFFFFFFFFFFFFFFFFFFFF5D576E7357A4501DDFE92F46681B20A0 DUP5 GT ISZERO PUSH2 0x1554 JUMPI POP PUSH0 SWAP2 POP PUSH1 0x3 SWAP1 POP DUP3 PUSH2 0x15D9 JUMP JUMPDEST PUSH1 0x40 DUP1 MLOAD PUSH0 DUP1 DUP3 MSTORE PUSH1 0x20 DUP3 ADD DUP1 DUP5 MSTORE DUP11 SWAP1 MSTORE PUSH1 0xFF DUP10 AND SWAP3 DUP3 ADD SWAP3 SWAP1 SWAP3 MSTORE PUSH1 0x60 DUP2 ADD DUP8 SWAP1 MSTORE PUSH1 0x80 DUP2 ADD DUP7 SWAP1 MSTORE PUSH1 0x1 SWAP1 PUSH1 0xA0 ADD PUSH1 0x20 PUSH1 0x40 MLOAD PUSH1 0x20 DUP2 SUB SWAP1 DUP1 DUP5 SUB SWAP1 DUP6 GAS STATICCALL ISZERO DUP1 ISZERO PUSH2 0x15A5 JUMPI RETURNDATASIZE PUSH0 PUSH0 RETURNDATACOPY RETURNDATASIZE PUSH0 REVERT JUMPDEST POP POP PUSH1 0x40 MLOAD PUSH1 0x1F NOT ADD MLOAD SWAP2 POP POP PUSH1 0x1 PUSH1 0x1 PUSH1 0xA0 SHL SUB DUP2 AND PUSH2 0x15D0 JUMPI POP PUSH0 SWAP3 POP PUSH1 0x1 SWAP2 POP DUP3 SWAP1 POP PUSH2 0x15D9 JUMP JUMPDEST SWAP3 POP PUSH0 SWAP2 POP DUP2 SWAP1 POP JUMPDEST SWAP5 POP SWAP5 POP SWAP5 SWAP2 POP POP JUMP JUMPDEST DUP3 DUP1 SLOAD DUP3 DUP3 SSTORE SWAP1 PUSH0 MSTORE PUSH1 0x20 PUSH0 KECCAK256 SWAP1 DUP2 ADD SWAP3 DUP3 ISZERO PUSH2 0x1634 JUMPI SWAP2 PUSH1 0x20 MUL DUP3 ADD JUMPDEST DUP3 DUP2 GT ISZERO PUSH2 0x1634 JUMPI DUP2 SLOAD PUSH1 0x1 PUSH1 0x1 PUSH1 0xA0 SHL SUB NOT AND PUSH1 0x1 PUSH1 0x1 PUSH1 0xA0 SHL SUB DUP5 CALLDATALOAD AND OR DUP3 SSTORE PUSH1 0x20 SWAP1 SWAP3 ADD SWAP2 PUSH1 0x1 SWAP1 SWAP2 ADD SWAP1 PUSH2 0x1601 JUMP JUMPDEST POP PUSH2 0x1640 SWAP3 SWAP2 POP PUSH2 0x1644 JUMP JUMPDEST POP SWAP1 JUMP JUMPDEST JUMPDEST DUP1 DUP3 GT ISZERO PUSH2 0x1640 JUMPI PUSH0 DUP2 SSTORE PUSH1 0x1 ADD PUSH2 0x1645 JUMP JUMPDEST PUSH1 0x1 PUSH1 0x1 PUSH1 0xA0 SHL SUB DUP2 AND DUP2 EQ PUSH2 0xAD2 JUMPI PUSH0 PUSH0 REVERT JUMPDEST PUSH1 0xFF DUP2 AND DUP2 EQ PUSH2 0xAD2 JUMPI PUSH0 PUSH0 REVERT JUMPDEST PUSH0 PUSH0 DUP4 PUSH1 0x1F DUP5 ADD SLT PUSH2 0x168A JUMPI PUSH0 PUSH0 REVERT JUMPDEST POP DUP2 CALLDATALOAD PUSH1 0x1 PUSH1 0x1 PUSH1 0x40 SHL SUB DUP2 GT ISZERO PUSH2 0x16A0 JUMPI PUSH0 PUSH0 REVERT JUMPDEST PUSH1 0x20 DUP4 ADD SWAP2 POP DUP4 PUSH1 0x20 DUP3 DUP6 ADD ADD GT ISZERO PUSH2 0x16B7 JUMPI PUSH0 PUSH0 REVERT JUMPDEST SWAP3 POP SWAP3 SWAP1 POP JUMP JUMPDEST PUSH0 PUSH0 PUSH0 PUSH0 PUSH0 PUSH0 PUSH0 PUSH1 0xC0 DUP9 DUP11 SUB SLT ISZERO PUSH2 0x16D4 JUMPI PUSH0 PUSH0 REVERT JUMPDEST DUP8 CALLDATALOAD PUSH2 0x16DF DUP2 PUSH2 0x1658 JUMP JUMPDEST SWAP7 POP PUSH1 0x20 DUP9 ADD CALLDATALOAD PUSH2 0x16EF DUP2 PUSH2 0x166C JUMP JUMPDEST SWAP6 POP PUSH1 0x40 DUP9 ADD CALLDATALOAD SWAP5 POP PUSH1 0x60 DUP9 ADD CALLDATALOAD PUSH2 0x1706 DUP2 PUSH2 0x166C JUMP JUMPDEST SWAP4 POP PUSH1 0x80 DUP9 ADD CALLDATALOAD SWAP3 POP PUSH1 0xA0 DUP9 ADD CALLDATALOAD PUSH1 0x1 PUSH1 0x1 PUSH1 0x40 SHL SUB DUP2 GT ISZERO PUSH2 0x1727 JUMPI PUSH0 PUSH0 REVERT JUMPDEST PUSH2 0x1733 DUP11 DUP3 DUP12 ADD PUSH2 0x167A JUMP JUMPDEST SWAP9 SWAP12 SWAP8 SWAP11 POP SWAP6 SWAP9 POP SWAP4 SWAP7 SWAP3 SWAP6 SWAP3 SWAP4 POP POP POP JUMP JUMPDEST PUSH0 PUSH0 PUSH0 PUSH0 PUSH1 0x60 DUP6 DUP8 SUB SLT ISZERO PUSH2 0x1759 JUMPI PUSH0 PUSH0 REVERT JUMPDEST DUP5 CALLDATALOAD PUSH2 0x1764 DUP2 PUSH2 0x1658 JUMP JUMPDEST SWAP4 POP PUSH1 0x20 DUP6 ADD CALLDATALOAD PUSH2 0x1774 DUP2 PUSH2 0x166C JUMP JUMPDEST SWAP3 POP PUSH1 0x40 DUP6 ADD CALLDATALOAD PUSH1 0x1 PUSH1 0x1 PUSH1 0x40 SHL SUB DUP2 GT ISZERO PUSH2 0x178E JUMPI PUSH0 PUSH0 REVERT JUMPDEST PUSH2 0x179A DUP8 DUP3 DUP9 ADD PUSH2 0x167A JUMP JUMPDEST SWAP6 SWAP9 SWAP5 SWAP8 POP SWAP6 POP POP POP POP JUMP JUMPDEST PUSH0 PUSH0 PUSH0 PUSH0 PUSH0 PUSH1 0x80 DUP7 DUP9 SUB SLT ISZERO PUSH2 0x17BA JUMPI PUSH0 PUSH0 REVERT JUMPDEST DUP6 CALLDATALOAD PUSH2 0x17C5 DUP2 PUSH2 0x1658 JUMP JUMPDEST SWAP5 POP PUSH1 0x20 DUP7 ADD CALLDATALOAD SWAP4 POP PUSH1 0x40 DUP7 ADD CALLDATALOAD PUSH2 0x17DC DUP2 PUSH2 0x166C JUMP JUMPDEST SWAP3 POP PUSH1 0x60 DUP7 ADD CALLDATALOAD PUSH1 0x1 PUSH1 0x1 PUSH1 0x40 SHL SUB DUP2 GT ISZERO PUSH2 0x17F6 JUMPI PUSH0 PUSH0 REVERT JUMPDEST PUSH2 0x1802 DUP9 DUP3 DUP10 ADD PUSH2 0x167A JUMP JUMPDEST SWAP7 SWAP10 SWAP6 SWAP9 POP SWAP4 SWAP7 POP SWAP3 SWAP5 SWAP4 SWAP3 POP POP POP JUMP JUMPDEST PUSH0 PUSH0 PUSH1 0x40 DUP4 DUP6 SUB SLT ISZERO PUSH2 0x1824 JUMPI PUSH0 PUSH0 REVERT JUMPDEST DUP3 CALLDATALOAD PUSH2 0x182F DUP2 PUSH2 0x1658 JUMP JUMPDEST SWAP2 POP PUSH1 0x20 DUP4 ADD CALLDATALOAD DUP1 ISZERO ISZERO DUP2 EQ PUSH2 0x1843 JUMPI PUSH0 PUSH0 REVERT JUMPDEST DUP1 SWAP2 POP POP SWAP3 POP SWAP3 SWAP1 POP JUMP JUMPDEST PUSH0 PUSH1 0x20 DUP3 DUP5 SUB SLT ISZERO PUSH2 0x185E JUMPI PUSH0 PUSH0 REVERT JUMPDEST DUP2 CALLDATALOAD PUSH2 0x1869 DUP2 PUSH2 0x1658 JUMP JUMPDEST SWAP4 SWAP3 POP POP POP JUMP JUMPDEST PUSH0 PUSH0 PUSH1 0x40 DUP4 DUP6 SUB SLT ISZERO PUSH2 0x1881 JUMPI PUSH0 PUSH0 REVERT JUMPDEST DUP3 CALLDATALOAD PUSH2 0x188C DUP2 PUSH2 0x1658 JUMP JUMPDEST SWAP5 PUSH1 0x20 SWAP4 SWAP1 SWAP4 ADD CALLDATALOAD SWAP4 POP POP POP JUMP JUMPDEST PUSH0 PUSH0 DUP4 PUSH1 0x1F DUP5 ADD SLT PUSH2 0x18AA JUMPI PUSH0 PUSH0 REVERT JUMPDEST POP DUP2 CALLDATALOAD PUSH1 0x1 PUSH1 0x1 PUSH1 0x40 SHL SUB DUP2 GT ISZERO PUSH2 0x18C0 JUMPI PUSH0 PUSH0 REVERT JUMPDEST PUSH1 0x20 DUP4 ADD SWAP2 POP DUP4 PUSH1 0x20 DUP3 PUSH1 0x5 SHL DUP6 ADD ADD GT ISZERO PUSH2 0x16B7 JUMPI PUSH0 PUSH0 REVERT JUMPDEST PUSH0 PUSH0 PUSH0 PUSH0 PUSH0 PUSH1 0x60 DUP7 DUP9 SUB SLT ISZERO PUSH2 0x18EE JUMPI PUSH0 PUSH0 REVERT JUMPDEST DUP6 CALLDATALOAD PUSH2 0x18F9 DUP2 PUSH2 0x1658 JUMP JUMPDEST SWAP5 POP PUSH1 0x20 DUP7 ADD CALLDATALOAD PUSH1 0x1 PUSH1 0x1 PUSH1 0x40 SHL SUB DUP2 GT ISZERO PUSH2 0x1913 JUMPI PUSH0 PUSH0 REVERT JUMPDEST PUSH2 0x191F DUP9 DUP3 DUP10 ADD PUSH2 0x189A JUMP JUMPDEST SWAP1 SWAP6 POP SWAP4 POP POP PUSH1 0x40 DUP7 ADD CALLDATALOAD PUSH1 0x1 PUSH1 0x1 PUSH1 0x40 SHL SUB DUP2 GT ISZERO PUSH2 0x193D JUMPI PUSH0 PUSH0 REVERT JUMPDEST PUSH2 0x1802 DUP9 DUP3 DUP10 ADD PUSH2 0x189A JUMP JUMPDEST PUSH0 PUSH0 PUSH0 PUSH0 PUSH0 PUSH1 0x80 DUP7 DUP9 SUB SLT ISZERO PUSH2 0x195D JUMPI PUSH0 PUSH0 REVERT JUMPDEST DUP6 CALLDATALOAD PUSH2 0x1968 DUP2 PUSH2 0x1658 JUMP JUMPDEST SWAP5 POP PUSH1 0x20 DUP7 ADD CALLDATALOAD PUSH2 0x1978 DUP2 PUSH2 0x166C JUMP JUMPDEST SWAP4 POP PUSH1 0x40 DUP7 ADD CALLDATALOAD SWAP3 POP PUSH1 0x60 DUP7 ADD CALLDATALOAD PUSH1 0x1 PUSH1 0x1 PUSH1 0x40 SHL SUB DUP2 GT ISZERO PUSH2 0x17F6 JUMPI PUSH0 PUSH0 REVERT JUMPDEST PUSH4 0x4E487B71 PUSH1 0xE0 SHL PUSH0 MSTORE PUSH1 0x11 PUSH1 0x4 MSTORE PUSH1 0x24 PUSH0 REVERT JUMPDEST PUSH1 0x1 DUP2 JUMPDEST PUSH1 0x1 DUP5 GT ISZERO PUSH2 0x19E8 JUMPI DUP1 DUP6 DIV DUP2 GT ISZERO PUSH2 0x19CC JUMPI PUSH2 0x19CC PUSH2 0x1999 JUMP JUMPDEST PUSH1 0x1 DUP5 AND ISZERO PUSH2 0x19DA JUMPI SWAP1 DUP2 MUL SWAP1 JUMPDEST PUSH1 0x1 SWAP4 SWAP1 SWAP4 SHR SWAP3 DUP1 MUL PUSH2 0x19B1 JUMP JUMPDEST SWAP4 POP SWAP4 SWAP2 POP POP JUMP JUMPDEST PUSH0 DUP3 PUSH2 0x19FE JUMPI POP PUSH1 0x1 PUSH2 0x644 JUMP JUMPDEST DUP2 PUSH2 0x1A0A JUMPI POP PUSH0 PUSH2 0x644 JUMP JUMPDEST DUP2 PUSH1 0x1 DUP2 EQ PUSH2 0x1A20 JUMPI PUSH1 0x2 DUP2 EQ PUSH2 0x1A2A JUMPI PUSH2 0x1A46 JUMP JUMPDEST PUSH1 0x1 SWAP2 POP POP PUSH2 0x644 JUMP JUMPDEST PUSH1 0xFF DUP5 GT ISZERO PUSH2 0x1A3B JUMPI PUSH2 0x1A3B PUSH2 0x1999 JUMP JUMPDEST POP POP PUSH1 0x1 DUP3 SHL PUSH2 0x644 JUMP JUMPDEST POP PUSH1 0x20 DUP4 LT PUSH2 0x133 DUP4 LT AND PUSH1 0x4E DUP5 LT PUSH1 0xB DUP5 LT AND OR ISZERO PUSH2 0x1A69 JUMPI POP DUP2 DUP2 EXP PUSH2 0x644 JUMP JUMPDEST PUSH2 0x1A75 PUSH0 NOT DUP5 DUP5 PUSH2 0x19AD JUMP JUMPDEST DUP1 PUSH0 NOT DIV DUP3 GT ISZERO PUSH2 0x1A88 JUMPI PUSH2 0x1A88 PUSH2 0x1999 JUMP JUMPDEST MUL SWAP4 SWAP3 POP POP POP JUMP JUMPDEST PUSH0 PUSH2 0x1869 PUSH1 0xFF DUP5 AND DUP4 PUSH2 0x19F0 JUMP JUMPDEST DUP1 DUP3 MUL DUP2 ISZERO DUP3 DUP3 DIV DUP5 EQ OR PUSH2 0x644 JUMPI PUSH2 0x644 PUSH2 0x1999 JUMP JUMPDEST PUSH0 DUP3 PUSH2 0x1ACF JUMPI PUSH4 0x4E487B71 PUSH1 0xE0 SHL PUSH0 MSTORE PUSH1 0x12 PUSH1 0x4 MSTORE PUSH1 0x24 PUSH0 REVERT JUMPDEST POP DIV SWAP1 JUMP JUMPDEST DUP2 DUP4 MSTORE PUSH1 0x20 DUP4 ADD SWAP3 POP PUSH0 DUP2 PUSH0 JUMPDEST DUP5 DUP2 LT ISZERO PUSH2 0x1B12 JUMPI DUP2 CALLDATALOAD PUSH2 0x1AF4 DUP2 PUSH2 0x1658 JUMP JUMPDEST PUSH1 0x1 PUSH1 0x1 PUSH1 0xA0 SHL SUB AND DUP7 MSTORE PUSH1 0x20 SWAP6 DUP7 ADD SWAP6 SWAP2 SWAP1 SWAP2 ADD SWAP1 PUSH1 0x1 ADD PUSH2 0x1AE1 JUMP JUMPDEST POP SWAP4 SWAP5 SWAP4 POP POP POP POP JUMP JUMPDEST PUSH1 0x40 DUP2 MSTORE PUSH0 PUSH2 0x1B2F PUSH1 0x40 DUP4 ADD DUP7 DUP9 PUSH2 0x1AD4 JUMP JUMPDEST DUP3 DUP2 SUB PUSH1 0x20 DUP5 ADD MSTORE PUSH2 0x5DD DUP2 DUP6 DUP8 PUSH2 0x1AD4 JUMP JUMPDEST DUP1 DUP3 ADD DUP1 DUP3 GT ISZERO PUSH2 0x644 JUMPI PUSH2 0x644 PUSH2 0x1999 JUMP JUMPDEST PUSH4 0x4E487B71 PUSH1 0xE0 SHL PUSH0 MSTORE PUSH1 0x32 PUSH1 0x4 MSTORE PUSH1 0x24 PUSH0 REVERT JUMPDEST PUSH0 PUSH1 0x20 DUP3 DUP5 SUB SLT ISZERO PUSH2 0x1B79 JUMPI PUSH0 PUSH0 REVERT JUMPDEST DUP2 MLOAD PUSH2 0x1869 DUP2 PUSH2 0x166C JUMP JUMPDEST DUP1 MLOAD PUSH10 0xFFFFFFFFFFFFFFFFFFFF DUP2 AND DUP2 EQ PUSH2 0x1B9D JUMPI PUSH0 PUSH0 REVERT JUMPDEST SWAP2 SWAP1 POP JUMP JUMPDEST PUSH0 PUSH0 PUSH0 PUSH0 PUSH0 PUSH1 0xA0 DUP7 DUP9 SUB SLT ISZERO PUSH2 0x1BB6 JUMPI PUSH0 PUSH0 REVERT JUMPDEST PUSH2 0x1BBF DUP7 PUSH2 0x1B84 JUMP JUMPDEST PUSH1 0x20 DUP8 ADD MLOAD PUSH1 0x40 DUP9 ADD MLOAD PUSH1 0x60 DUP10 ADD MLOAD SWAP3 SWAP8 POP SWAP1 SWAP6 POP SWAP4 POP SWAP2 POP PUSH2 0x1BE4 PUSH1 0x80 DUP8 ADD PUSH2 0x1B84 JUMP JUMPDEST SWAP1 POP SWAP3 SWAP6 POP SWAP3 SWAP6 SWAP1 SWAP4 POP JUMP JUMPDEST PUSH0 PUSH2 0x1869 DUP4 DUP4 PUSH2 0x19F0 JUMP JUMPDEST PUSH4 0x4E487B71 PUSH1 0xE0 SHL PUSH0 MSTORE PUSH1 0x41 PUSH1 0x4 MSTORE PUSH1 0x24 PUSH0 REVERT JUMPDEST PUSH0 DUP3 PUSH1 0x1F DUP4 ADD SLT PUSH2 0x1C1E JUMPI PUSH0 PUSH0 REVERT JUMPDEST DUP2 CALLDATALOAD PUSH1 0x1 PUSH1 0x1 PUSH1 0x40 SHL SUB DUP2 GT ISZERO PUSH2 0x1C37 JUMPI PUSH2 0x1C37 PUSH2 0x1BFB JUMP JUMPDEST PUSH1 0x40 MLOAD PUSH1 0x1F DUP3 ADD PUSH1 0x1F NOT SWAP1 DUP2 AND PUSH1 0x3F ADD AND DUP2 ADD PUSH1 0x1 PUSH1 0x1 PUSH1 0x40 SHL SUB DUP2 GT DUP3 DUP3 LT OR ISZERO PUSH2 0x1C65 JUMPI PUSH2 0x1C65 PUSH2 0x1BFB JUMP JUMPDEST PUSH1 0x40 MSTORE DUP2 DUP2 MSTORE DUP4 DUP3 ADD PUSH1 0x20 ADD DUP6 LT ISZERO PUSH2 0x1C7C JUMPI PUSH0 PUSH0 REVERT JUMPDEST DUP2 PUSH1 0x20 DUP6 ADD PUSH1 0x20 DUP4 ADD CALLDATACOPY PUSH0 SWAP2 DUP2 ADD PUSH1 0x20 ADD SWAP2 SWAP1 SWAP2 MSTORE SWAP4 SWAP3 POP POP POP JUMP JUMPDEST PUSH0 PUSH0 PUSH1 0x40 DUP4 DUP6 SUB SLT ISZERO PUSH2 0x1CA9 JUMPI PUSH0 PUSH0 REVERT JUMPDEST DUP3 CALLDATALOAD PUSH1 0x1 PUSH1 0x1 PUSH1 0x40 SHL SUB DUP2 GT ISZERO PUSH2 0x1CBE JUMPI PUSH0 PUSH0 REVERT JUMPDEST PUSH2 0x1CCA DUP6 DUP3 DUP7 ADD PUSH2 0x1C0F JUMP JUMPDEST SWAP3 POP POP PUSH1 0x20 DUP4 ADD CALLDATALOAD PUSH1 0x1 PUSH1 0x1 PUSH1 0x40 SHL SUB DUP2 GT ISZERO PUSH2 0x1CE5 JUMPI PUSH0 PUSH0 REVERT JUMPDEST PUSH2 0x1CF1 DUP6 DUP3 DUP7 ADD PUSH2 0x1C0F JUMP JUMPDEST SWAP2 POP POP SWAP3 POP SWAP3 SWAP1 POP JUMP JUMPDEST DUP1 MLOAD PUSH1 0x1 PUSH1 0x1 PUSH1 0x60 SHL SUB DUP2 AND DUP2 EQ PUSH2 0x1B9D JUMPI PUSH0 PUSH0 REVERT JUMPDEST PUSH0 PUSH0 PUSH0 PUSH0 PUSH0 PUSH0 PUSH0 PUSH0 PUSH2 0x100 DUP10 DUP12 SUB SLT ISZERO PUSH2 0x1D29 JUMPI PUSH0 PUSH0 REVERT JUMPDEST DUP9 MLOAD PUSH1 0x20 DUP11 ADD MLOAD PUSH1 0x40 DUP12 ADD MLOAD SWAP2 SWAP10 POP SWAP8 POP PUSH2 0x1D43 DUP2 PUSH2 0x1658 JUMP JUMPDEST PUSH1 0x60 DUP11 ADD MLOAD SWAP1 SWAP7 POP PUSH2 0x1D54 DUP2 PUSH2 0x1658 JUMP JUMPDEST PUSH1 0x80 DUP11 ADD MLOAD PUSH1 0xA0 DUP12 ADD MLOAD SWAP2 SWAP7 POP SWAP5 POP PUSH2 0x1D6C DUP2 PUSH2 0x166C JUMP JUMPDEST SWAP3 POP PUSH2 0x1D7A PUSH1 0xC0 DUP11 ADD PUSH2 0x1CFB JUMP JUMPDEST SWAP2 POP PUSH2 0x1D88 PUSH1 0xE0 DUP11 ADD PUSH2 0x1CFB JUMP JUMPDEST SWAP1 POP SWAP3 SWAP6 SWAP9 POP SWAP3 SWAP6 SWAP9 SWAP1 SWAP4 SWAP7 POP JUMP JUMPDEST PUSH0 DUP2 MLOAD DUP1 PUSH1 0x20 DUP5 ADD DUP6 MCOPY PUSH0 SWAP4 ADD SWAP3 DUP4 MSTORE POP SWAP1 SWAP2 SWAP1 POP JUMP JUMPDEST PUSH32 0x19457468657265756D205369676E6564204D6573736167653A0A000000000000 DUP2 MSTORE PUSH0 PUSH2 0x55A PUSH2 0x1DE2 PUSH1 0x1A DUP5 ADD DUP7 PUSH2 0x1D97 JUMP JUMPDEST DUP5 PUSH2 0x1D97 JUMP JUMPDEST PUSH4 0x4E487B71 PUSH1 0xE0 SHL PUSH0 MSTORE PUSH1 0x21 PUSH1 0x4 MSTORE PUSH1 0x24 PUSH0 REVERT INVALID LOG2 PUSH5 0x6970667358 0x22 SLT KECCAK256 JUMP 0x23 COINBASE DUP11 CREATE2 PUSH13 0xF40AD274D0B6EAECD3902AA4AE EXTCODECOPY 0xE8 PUSH10 0x57604CA3420E3E55EF2 PUSH5 0x736F6C6343 STOP ADDMOD 0x1E STOP CALLER "
		},
		"gasEstimates": {
			"creation": {
				"codeDepositCost": "1546000",
				"executionCost": "infinite",
				"totalCost": "infinite"
			},
			"external": {
				"PRECISION()": "314",
				"QUOTE_ADDRESS()": "infinite",
				"QUOTE_DECIMALS()": "infinite",
				"isAuthorizedSigner(address)": "2698",
				"isOnchainOracle(address)": "2632",
				"owner()": "2374",
				"path_div(address,uint256)": "4883",
				"path_mul(address,uint256)": "4861",
				"quoteToken()": "infinite",
				"readAbsoluteCollateralValue(address,uint256,uint8,bytes)": "infinite",
				"readCollateralValues(address,uint8,uint256,uint8,uint256,bytes)": "infinite",
				"readPrice(address,uint8,bytes)": "infinite",
				"readQuoteAmountToCollateralAmount(address,uint8,uint256,bytes)": "infinite",
				"readRelativeCollateralValue(address,uint8,uint256,uint8,uint256,bytes)": "infinite",
				"renounceOwnership()": "infinite",
				"setOracles(address,address[],address[])": "infinite",
				"setSigner(address,bool)": "28239",
				"transferOwnership(address)": "infinite",
				"useAbsoluteCollateralValue(address,uint256,uint8,bytes)": "infinite",
				"useCollateralValues(address,uint8,uint256,uint8,uint256,bytes)": "infinite",
				"usePrice(address,uint8,bytes)": "infinite",
				"useQuoteAmountToCollateralAmount(address,uint8,uint256,bytes)": "infinite",
				"useRelativeCollateralValue(address,uint8,uint256,uint8,uint256,bytes)": "infinite"
			},
			"internal": {
				"calc_chainlink_price(address,uint8)": "infinite"
			}
		},
		"methodIdentifiers": {
			"PRECISION()": "aaf5eb68",
			"QUOTE_ADDRESS()": "fc01d62b",
			"QUOTE_DECIMALS()": "150e89cb",
			"isAuthorizedSigner(address)": "49045e16",
			"isOnchainOracle(address)": "f621a19a",
			"owner()": "8da5cb5b",
			"path_div(address,uint256)": "5d523216",
			"path_mul(address,uint256)": "9ef1f7c2",
			"quoteToken()": "217a4b70",
			"readAbsoluteCollateralValue(address,uint256,uint8,bytes)": "1ff8d6dc",
			"readCollateralValues(address,uint8,uint256,uint8,uint256,bytes)": "3628815c",
			"readPrice(address,uint8,bytes)": "0cd07409",
			"readQuoteAmountToCollateralAmount(address,uint8,uint256,bytes)": "b57a1b0b",
			"readRelativeCollateralValue(address,uint8,uint256,uint8,uint256,bytes)": "4bbf415c",
			"renounceOwnership()": "715018a6",
			"setOracles(address,address[],address[])": "927b0504",
			"setSigner(address,bool)": "31cb6105",
			"transferOwnership(address)": "f2fde38b",
			"useAbsoluteCollateralValue(address,uint256,uint8,bytes)": "6a089215",
			"useCollateralValues(address,uint8,uint256,uint8,uint256,bytes)": "0649b8c2",
			"usePrice(address,uint8,bytes)": "bff734c1",
			"useQuoteAmountToCollateralAmount(address,uint8,uint256,bytes)": "c5801aa3",
			"useRelativeCollateralValue(address,uint8,uint256,uint8,uint256,bytes)": "b4e37cf9"
		}
	},
	"abi": [
		{
			"inputs": [
				{
					"internalType": "address",
					"name": "_quote_addr",
					"type": "address"
				}
			],
			"stateMutability": "nonpayable",
			"type": "constructor"
		},
		{
			"inputs": [],
			"name": "ECDSAInvalidSignature",
			"type": "error"
		},
		{
			"inputs": [
				{
					"internalType": "uint256",
					"name": "length",
					"type": "uint256"
				}
			],
			"name": "ECDSAInvalidSignatureLength",
			"type": "error"
		},
		{
			"inputs": [
				{
					"internalType": "bytes32",
					"name": "s",
					"type": "bytes32"
				}
			],
			"name": "ECDSAInvalidSignatureS",
			"type": "error"
		},
		{
			"inputs": [
				{
					"internalType": "address",
					"name": "owner",
					"type": "address"
				}
			],
			"name": "OwnableInvalidOwner",
			"type": "error"
		},
		{
			"inputs": [
				{
					"internalType": "address",
					"name": "account",
					"type": "address"
				}
			],
			"name": "OwnableUnauthorizedAccount",
			"type": "error"
		},
		{
			"anonymous": false,
			"inputs": [
				{
					"indexed": true,
					"internalType": "address",
					"name": "base_token",
					"type": "address"
				},
				{
					"indexed": false,
					"internalType": "address[]",
					"name": "mul_path",
					"type": "address[]"
				},
				{
					"indexed": false,
					"internalType": "address[]",
					"name": "div_path",
					"type": "address[]"
				}
			],
			"name": "OnChainOracleAdded",
			"type": "event"
		},
		{
			"anonymous": false,
			"inputs": [
				{
					"indexed": true,
					"internalType": "address",
					"name": "previousOwner",
					"type": "address"
				},
				{
					"indexed": true,
					"internalType": "address",
					"name": "newOwner",
					"type": "address"
				}
			],
			"name": "OwnershipTransferred",
			"type": "event"
		},
		{
			"anonymous": false,
			"inputs": [
				{
					"indexed": true,
					"internalType": "address",
					"name": "base_token",
					"type": "address"
				},
				{
					"indexed": false,
					"internalType": "uint256",
					"name": "price",
					"type": "uint256"
				},
				{
					"indexed": false,
					"internalType": "uint256",
					"name": "decimals",
					"type": "uint256"
				}
			],
			"name": "PriceLog",
			"type": "event"
		},
		{
			"anonymous": false,
			"inputs": [
				{
					"indexed": false,
					"internalType": "address",
					"name": "signer",
					"type": "address"
				},
				{
					"indexed": false,
					"internalType": "bool",
					"name": "is_authorized",
					"type": "bool"
				}
			],
			"name": "SignerChanged",
			"type": "event"
		},
		{
			"inputs": [],
			"name": "PRECISION",
			"outputs": [
				{
					"internalType": "uint8",
					"name": "",
					"type": "uint8"
				}
			],
			"stateMutability": "view",
			"type": "function"
		},
		{
			"inputs": [],
			"name": "QUOTE_ADDRESS",
			"outputs": [
				{
					"internalType": "address",
					"name": "",
					"type": "address"
				}
			],
			"stateMutability": "view",
			"type": "function"
		},
		{
			"inputs": [],
			"name": "QUOTE_DECIMALS",
			"outputs": [
				{
					"internalType": "uint8",
					"name": "",
					"type": "uint8"
				}
			],
			"stateMutability": "view",
			"type": "function"
		},
		{
			"inputs": [
				{
					"internalType": "address",
					"name": "_signer",
					"type": "address"
				}
			],
			"name": "isAuthorizedSigner",
			"outputs": [
				{
					"internalType": "bool",
					"name": "",
					"type": "bool"
				}
			],
			"stateMutability": "view",
			"type": "function"
		},
		{
			"inputs": [
				{
					"internalType": "address",
					"name": "",
					"type": "address"
				}
			],
			"name": "isOnchainOracle",
			"outputs": [
				{
					"internalType": "bool",
					"name": "",
					"type": "bool"
				}
			],
			"stateMutability": "view",
			"type": "function"
		},
		{
			"inputs": [],
			"name": "owner",
			"outputs": [
				{
					"internalType": "address",
					"name": "",
					"type": "address"
				}
			],
			"stateMutability": "view",
			"type": "function"
		},
		{
			"inputs": [
				{
					"internalType": "address",
					"name": "",
					"type": "address"
				},
				{
					"internalType": "uint256",
					"name": "",
					"type": "uint256"
				}
			],
			"name": "path_div",
			"outputs": [
				{
					"internalType": "address",
					"name": "",
					"type": "address"
				}
			],
			"stateMutability": "view",
			"type": "function"
		},
		{
			"inputs": [
				{
					"internalType": "address",
					"name": "",
					"type": "address"
				},
				{
					"internalType": "uint256",
					"name": "",
					"type": "uint256"
				}
			],
			"name": "path_mul",
			"outputs": [
				{
					"internalType": "address",
					"name": "",
					"type": "address"
				}
			],
			"stateMutability": "view",
			"type": "function"
		},
		{
			"inputs": [],
			"name": "quoteToken",
			"outputs": [
				{
					"internalType": "address",
					"name": "",
					"type": "address"
				}
			],
			"stateMutability": "view",
			"type": "function"
		},
		{
			"inputs": [
				{
					"internalType": "address",
					"name": "base_addr",
					"type": "address"
				},
				{
					"internalType": "uint256",
					"name": "base_amount",
					"type": "uint256"
				},
				{
					"internalType": "uint8",
					"name": "base_decimals",
					"type": "uint8"
				},
				{
					"internalType": "bytes",
					"name": "offchain_data",
					"type": "bytes"
				}
			],
			"name": "readAbsoluteCollateralValue",
			"outputs": [
				{
					"internalType": "uint256",
					"name": "",
					"type": "uint256"
				}
			],
			"stateMutability": "view",
			"type": "function"
		},
		{
			"inputs": [
				{
					"internalType": "address",
					"name": "base_addr",
					"type": "address"
				},
				{
					"internalType": "uint8",
					"name": "result_decimals",
					"type": "uint8"
				},
				{
					"internalType": "uint256",
					"name": "base_amount",
					"type": "uint256"
				},
				{
					"internalType": "uint8",
					"name": "base_decimals",
					"type": "uint8"
				},
				{
					"internalType": "uint256",
					"name": "quote_amount",
					"type": "uint256"
				},
				{
					"internalType": "bytes",
					"name": "offchain_data",
					"type": "bytes"
				}
			],
			"name": "readCollateralValues",
			"outputs": [
				{
					"internalType": "uint256",
					"name": "",
					"type": "uint256"
				},
				{
					"internalType": "uint256",
					"name": "",
					"type": "uint256"
				}
			],
			"stateMutability": "view",
			"type": "function"
		},
		{
			"inputs": [
				{
					"internalType": "address",
					"name": "base_addr",
					"type": "address"
				},
				{
					"internalType": "uint8",
					"name": "target_decimals",
					"type": "uint8"
				},
				{
					"internalType": "bytes",
					"name": "offchain_data",
					"type": "bytes"
				}
			],
			"name": "readPrice",
			"outputs": [
				{
					"internalType": "uint256",
					"name": "",
					"type": "uint256"
				}
			],
			"stateMutability": "view",
			"type": "function"
		},
		{
			"inputs": [
				{
					"internalType": "address",
					"name": "base_addr",
					"type": "address"
				},
				{
					"internalType": "uint8",
					"name": "base_decimals",
					"type": "uint8"
				},
				{
					"internalType": "uint256",
					"name": "quote_amount",
					"type": "uint256"
				},
				{
					"internalType": "bytes",
					"name": "offchain_data",
					"type": "bytes"
				}
			],
			"name": "readQuoteAmountToCollateralAmount",
			"outputs": [
				{
					"internalType": "uint256",
					"name": "",
					"type": "uint256"
				}
			],
			"stateMutability": "view",
			"type": "function"
		},
		{
			"inputs": [
				{
					"internalType": "address",
					"name": "base_addr",
					"type": "address"
				},
				{
					"internalType": "uint8",
					"name": "result_decimals",
					"type": "uint8"
				},
				{
					"internalType": "uint256",
					"name": "base_amount",
					"type": "uint256"
				},
				{
					"internalType": "uint8",
					"name": "base_decimals",
					"type": "uint8"
				},
				{
					"internalType": "uint256",
					"name": "quote_amount",
					"type": "uint256"
				},
				{
					"internalType": "bytes",
					"name": "offchain_data",
					"type": "bytes"
				}
			],
			"name": "readRelativeCollateralValue",
			"outputs": [
				{
					"internalType": "uint256",
					"name": "",
					"type": "uint256"
				}
			],
			"stateMutability": "view",
			"type": "function"
		},
		{
			"inputs": [],
			"name": "renounceOwnership",
			"outputs": [],
			"stateMutability": "nonpayable",
			"type": "function"
		},
		{
			"inputs": [
				{
					"internalType": "address",
					"name": "base_addr",
					"type": "address"
				},
				{
					"internalType": "address[]",
					"name": "mul",
					"type": "address[]"
				},
				{
					"internalType": "address[]",
					"name": "div",
					"type": "address[]"
				}
			],
			"name": "setOracles",
			"outputs": [],
			"stateMutability": "nonpayable",
			"type": "function"
		},
		{
			"inputs": [
				{
					"internalType": "address",
					"name": "signer",
					"type": "address"
				},
				{
					"internalType": "bool",
					"name": "state",
					"type": "bool"
				}
			],
			"name": "setSigner",
			"outputs": [],
			"stateMutability": "nonpayable",
			"type": "function"
		},
		{
			"inputs": [
				{
					"internalType": "address",
					"name": "newOwner",
					"type": "address"
				}
			],
			"name": "transferOwnership",
			"outputs": [],
			"stateMutability": "nonpayable",
			"type": "function"
		},
		{
			"inputs": [
				{
					"internalType": "address",
					"name": "base_addr",
					"type": "address"
				},
				{
					"internalType": "uint256",
					"name": "base_amount",
					"type": "uint256"
				},
				{
					"internalType": "uint8",
					"name": "base_decimals",
					"type": "uint8"
				},
				{
					"internalType": "bytes",
					"name": "offchain_data",
					"type": "bytes"
				}
			],
			"name": "useAbsoluteCollateralValue",
			"outputs": [
				{
					"internalType": "uint256",
					"name": "",
					"type": "uint256"
				}
			],
			"stateMutability": "nonpayable",
			"type": "function"
		},
		{
			"inputs": [
				{
					"internalType": "address",
					"name": "base_addr",
					"type": "address"
				},
				{
					"internalType": "uint8",
					"name": "result_decimals",
					"type": "uint8"
				},
				{
					"internalType": "uint256",
					"name": "base_amount",
					"type": "uint256"
				},
				{
					"internalType": "uint8",
					"name": "base_decimals",
					"type": "uint8"
				},
				{
					"internalType": "uint256",
					"name": "quote_amount",
					"type": "uint256"
				},
				{
					"internalType": "bytes",
					"name": "offchain_data",
					"type": "bytes"
				}
			],
			"name": "useCollateralValues",
			"outputs": [
				{
					"internalType": "uint256",
					"name": "",
					"type": "uint256"
				},
				{
					"internalType": "uint256",
					"name": "",
					"type": "uint256"
				}
			],
			"stateMutability": "nonpayable",
			"type": "function"
		},
		{
			"inputs": [
				{
					"internalType": "address",
					"name": "base_addr",
					"type": "address"
				},
				{
					"internalType": "uint8",
					"name": "target_decimals",
					"type": "uint8"
				},
				{
					"internalType": "bytes",
					"name": "offchain_data",
					"type": "bytes"
				}
			],
			"name": "usePrice",
			"outputs": [
				{
					"internalType": "uint256",
					"name": "",
					"type": "uint256"
				}
			],
			"stateMutability": "nonpayable",
			"type": "function"
		},
		{
			"inputs": [
				{
					"internalType": "address",
					"name": "base_addr",
					"type": "address"
				},
				{
					"internalType": "uint8",
					"name": "base_decimals",
					"type": "uint8"
				},
				{
					"internalType": "uint256",
					"name": "quote_amount",
					"type": "uint256"
				},
				{
					"internalType": "bytes",
					"name": "offchain_data",
					"type": "bytes"
				}
			],
			"name": "useQuoteAmountToCollateralAmount",
			"outputs": [
				{
					"internalType": "uint256",
					"name": "",
					"type": "uint256"
				}
			],
			"stateMutability": "nonpayable",
			"type": "function"
		},
		{
			"inputs": [
				{
					"internalType": "address",
					"name": "base_addr",
					"type": "address"
				},
				{
					"internalType": "uint8",
					"name": "result_decimals",
					"type": "uint8"
				},
				{
					"internalType": "uint256",
					"name": "base_amount",
					"type": "uint256"
				},
				{
					"internalType": "uint8",
					"name": "base_decimals",
					"type": "uint8"
				},
				{
					"internalType": "uint256",
					"name": "quote_amount",
					"type": "uint256"
				},
				{
					"internalType": "bytes",
					"name": "offchain_data",
					"type": "bytes"
				}
			],
			"name": "useRelativeCollateralValue",
			"outputs": [
				{
					"internalType": "uint256",
					"name": "",
					"type": "uint256"
				}
			],
			"stateMutability": "nonpayable",
			"type": "function"
		}
	]
}