{
	"data": {
		"bytecode": {
			"linkReferences": {},
			"object": "6101406040525f60c090815269021e19e0c9bab240000060e05269043c33c193756480000061010052690a968163f0a57b40000061012052610045906002906004610668565b50604080516080810182526103e881526105dc60208201526107d091810191909152610bb8606082015261007d9060039060046106bc565b50348015610089575f5ffd5b506040516129ec3803806129ec8339810160408190526100a891610740565b33806100ce57604051631e4fbdf760e01b81525f60048201526024015b60405180910390fd5b6100d781610544565b50600180556001600160a01b03821660a081905260408051636a30a4d160e11b8152905163d46149a2916004808201926020929091908290030181865afa158015610124573d5f5f3e3d5ffd5b505050506040513d601f19601f82011682018060405250810190610148919061079a565b6001600160a01b03166080525f805260046020527f17ef568e3e12ab5b9c7254a8d58478811de00f9e6eb34345acd53bf8fd09d3ec805463ffffffff19166103e81790556001600160601b03841661019d4290565b6001600160601b0316106102195760405162461bcd60e51b815260206004820152603360248201527f50726f66697453686172653a456e642074696d65206d7573742062652067726560448201527f61746572207468616e2074696d655f6e6f77210000000000000000000000000060648201526084016100c5565b6102356001600160601b038616426001600160601b0316610593565b9450836001600160601b0316856001600160601b0316106102b35760405162461bcd60e51b815260206004820152603260248201527f50726f66697453686172653a53746172742074696d65206d757374206265206c604482015271657373207468616e20656e642074696d652160701b60648201526084016100c5565b5f6102be86866107c7565b6001600160601b03166102da85683635c9adc5dea000006107e6565b6102e491906107fd565b905060405180610100016040528060a0516001600160a01b0316637c2fdeb56040518163ffffffff1660e01b8152600401602060405180830381865afa158015610330573d5f5f3e3d5ffd5b505050506040513d601f19601f82011682018060405250810190610354919061079a565b6001600160a01b0390811682526001600160601b0389811660208085018290528784166040808701919091528b84166060808801919091525f608080890182905260a0808a018c905260c0808b019390935260e0998a019690965289518a860151908916600160a01b918916820281811760078190558d8801518e880151908d16908c1685028181176008558f8701516009559a8f0151600a55958e0151600b559c909b0151600c80546001600160601b031916918b1691909117905585519a8a16178a529590971617928701929092529190950490911690830152683635c9adc5dea00000928201929092527fdc04d80ebe596008505211bb5ef7b7b76945b378723c7fbc1dd952cd919394bb910160405180910390a1600954600a54600b54600c54600854604080519586526020860194909452848401929092526001600160601b039081166060850152600160a01b909104166080830152517fe111f67a87ace56a1496291914b8e0da23748ffddaa8bc98d0f4d4dfb51796a59181900360a00190a1604080515f81526103e860208201525f5160206129cc5f395f51905f52910160405180910390a161050f6107086105dc6105a7565b61051d6115186107d06105a7565b61052b612a30610bb86105a7565b6105396154606113886105a7565b50505050505061081c565b5f80546001600160a01b038381166001600160a01b0319831681178455604051919092169283917f8be0079c531659141344cd1fd0a4f28419497f9722a3daafe3b4186f6b6457e09190a35050565b5f8282188284110282185b90505b92915050565b6105af61063a565b5f826001600160601b03161180156105dc575063ffffffff81166103e810806105dc575063ffffffff8116155b6105e4575f5ffd5b6001600160601b0382165f81815260046020908152604091829020805463ffffffff191663ffffffff86169081179091558251938452908301525f5160206129cc5f395f51905f52910160405180910390a15050565b5f546001600160a01b031633146106665760405163118cdaa760e01b81523360048201526024016100c5565b565b828054828255905f5260205f209081019282156106ac579160200282015b828111156106ac57825182906001600160501b0316905591602001919060010190610686565b506106b89291506106fb565b5090565b828054828255905f5260205f209081019282156106ac579160200282015b828111156106ac578251829061ffff169055916020019190600101906106da565b5b808211156106b8575f81556001016106fc565b80516001600160601b0381168114610725575f5ffd5b919050565b80516001600160a01b0381168114610725575f5ffd5b5f5f5f5f5f60a08688031215610754575f5ffd5b61075d8661070f565b945061076b6020870161070f565b9350604086015192506107806060870161072a565b915061078e6080870161072a565b90509295509295909350565b5f602082840312156107aa575f5ffd5b61059e8261072a565b634e487b7160e01b5f52601160045260245ffd5b6001600160601b0382811682821603908111156105a1576105a16107b3565b80820281158282048414176105a1576105a16107b3565b5f8261081757634e487b7160e01b5f52601260045260245ffd5b500490565b60805160a05161216c6108605f395f818161037401528181610a9901528181610b640152610dfe01525f818161029701528181610a520152610ac8015261216c5ff3fe608060405234801561000f575f5ffd5b5060043610610152575f3560e01c806399c1e891116100bf578063ce4b5bbe11610079578063ce4b5bbe146103cf578063cfd47663146103df578063d6ef7af014610421578063d93c04a014610434578063da540bbf14610447578063f2fde38b14610450575f5ffd5b806399c1e891146103495780639ebea88c1461035c578063b1da1b2d1461036f578063beceed3914610396578063c96d6635146103a9578063ccc54f2e146103bc575f5ffd5b80636db08f25116101105780636db08f25146102925780637135cd6a146102d1578063715018a6146102e45780638af6e880146102ec5780638c793330146103265780638da5cb5b14610339575f5ffd5b806272c74414610156578063078b0fb71461016b57806316f0115b1461019157806321241dfe1461022d578063372500ab1461024f5780636386c1c714610257575b5f5ffd5b610169610164366004611cfc565b610463565b005b61017e610179366004611d83565b6105b7565b6040519081526020015b60405180910390f35b600754600854600954600a54600b54600c546101d8956001600160a01b03808216966001600160601b03600160a01b93849004811697928216969390910481169491931688565b604080516001600160a01b03998a1681526001600160601b03988916602082015298909616958801959095529285166060870152608086019190915260a085015260c08401521660e082015261010001610188565b6102376234bc0081565b6040516001600160601b039091168152602001610188565b6101696106cc565b61026a610265366004611d83565b6106f3565b604080519586526020860194909452928401919091526060830152608082015260a001610188565b6102b97f000000000000000000000000000000000000000000000000000000000000000081565b6040516001600160a01b039091168152602001610188565b6101696102df366004611db2565b610740565b6101696108c0565b6103116102fa366004611de2565b60046020525f908152604090205463ffffffff1681565b60405163ffffffff9091168152602001610188565b610169610334366004611dfb565b6108d1565b5f546001600160a01b03166102b9565b610169610357366004611e2e565b610a45565b61016961036a366004611e63565b610cb1565b6102b97f000000000000000000000000000000000000000000000000000000000000000081565b6101696103a4366004611e91565b610f07565b6101696103b7366004611ea8565b610f13565b6101696103ca366004611e63565b610fb9565b61017e683635c9adc5dea0000081565b6103f26103ed366004611eda565b61103e565b604051610188949392919093845260208401929092526001600160601b03166040830152606082015260800190565b61016961042f366004611eda565b6110e4565b610169610442366004611e2e565b6111b2565b6103116103e881565b61016961045e366004611d83565b611225565b61046b61125f565b828114801561047957508015155b610481575f5ffd5b6104bc8484808060200260200160405190810160405280939291908181526020018383602002808284375f9201919091525061128b92505050565b80516104d091600291602090910190611c57565b5061050c8282808060200260200160405190810160405280939291908181526020018383602002808284375f9201919091525061128b92505050565b805161052091600391602090910190611c57565b5060025f8154811061053457610534611ef4565b905f5260205f2001545f14801561056e57506103e863ffffffff1660035f8154811061056257610562611ef4565b905f5260205f20015410155b610576575f5ffd5b7f36636bd3caf33bddbd656aadda2fc454e5093f7cec3de1405319ef0ef3aa6ba7600260036040516105a9929190611f45565b60405180910390a150505050565b6001600160a01b0381165f908152600560205260408120600c548290610607906001600160601b0316610602425b6008546001600160601b0391821691600160a01b909104166112a0565b6112b4565b600b54600954919250901580159061062d5750600c546001600160601b03908116908316115b1561067b57600954600a54600c5461064e906001600160601b031685611f7d565b6001600160601b03166106619190611f9c565b61066b9190611fb3565b600b546106789190611fd2565b90505b683635c9adc5dea000008360020154826106959190611fe5565b84546106a0906112c3565b6106aa9190611f9c565b6106b49190611fb3565b83600101546106c39190611fd2565b95945050505050565b6106d4611319565b6106df335f5f611343565b6106e833611587565b6106f160018055565b565b6001600160a01b0381165f9081526005602052604081208054829182918291829161071f600282611618565b60018301546002840154600390940154929a91995097509195509350915050565b61074861125f565b6107535f5f5f611343565b6008544290600160a01b90046001600160601b03908116908216106107a1576001600160601b03841661078f84683635c9adc5dea00000611f9c565b6107999190611fb3565b600a55610805565b600a546008546001600160601b0380871692916107c7918591600160a01b900416611f7d565b6001600160601b03166107da9190611f9c565b6107ed85683635c9adc5dea00000611f9c565b6107f79190611fd2565b6108019190611fb3565b600a555b600c80546bffffffffffffffffffffffff19166001600160601b03831617905561082f8482611ff8565b600880546001600160601b0392909216600160a01b026001600160a01b0390921691909117905581156108655761086582611673565b600954600a54600b54600c546008546040517fe111f67a87ace56a1496291914b8e0da23748ffddaa8bc98d0f4d4dfb51796a5956105a9959094909390926001600160601b0391821692600160a01b90910490911690612017565b6108c861125f565b6106f15f6116e0565b6108d9611319565b335f8181526005602052604090206003015484906108f8906001611fd2565b811061091f5760405162461bcd60e51b815260040161091690612046565b60405180910390fd5b821561093d5761093d336007546001600160a01b031690308661172f565b335f90815260066020908152604080832088845282528083206001600160601b0388168452600490925290912054600282015463ffffffff918216600160601b90910490911611156109dd5760405162461bcd60e51b815260206004820152602360248201527f50726f66697453686172653a557365206c6f6e676572206c6f636b5f706572696044820152626f642160e81b6064820152608401610916565b80545f906109eb9086611fd2565b90506109f933835489611796565b865f03610a2757335f9081526005602052604081206003018054909190610a1f9061207d565b918290555096505b610a333387838a6118a5565b50505050610a4060018055565b505050565b610a4d611319565b610a827f00000000000000000000000000000000000000000000000000000000000000006001600160a01b031633308461172f565b60405163095ea7b360e01b81526001600160a01b037f000000000000000000000000000000000000000000000000000000000000000081166004830152602482018390527f0000000000000000000000000000000000000000000000000000000000000000169063095ea7b3906044016020604051808303815f875af1158015610b0e573d5f5f3e3d5ffd5b505050506040513d601f19601f82011682018060405250810190610b329190612095565b506040516306c9e02560e51b81526001600160601b0383166004820152602481018290525f9081906001600160a01b037f0000000000000000000000000000000000000000000000000000000000000000169063d93c04a09060440160408051808303815f875af1158015610ba9573d5f5f3e3d5ffd5b505050506040513d601f19601f82011682018060405250810190610bcd91906120b0565b915091505f846001600160601b03165f14610c0b57335f9081526005602052604081206003018054909190610c019061207d565b9182905550610c0d565b5f5b90505f8111610c765760405162461bcd60e51b815260206004820152602f60248201527f50726f66697453686172653a7374616b655f6964206d7573742062652067726560448201526e61746572207468616e207a65726f2160881b6064820152608401610916565b335f8181526006602090815260408083208584529091529020600101849055610ca1908684846118a5565b505050610cad60018055565b5050565b610cb9611319565b335f818152600560205260409020600301548390610cd8906001611fd2565b8110610cf65760405162461bcd60e51b815260040161091690612046565b335f908152600660209081526040808320878452909152902060028101546001600160601b03908116429091161015610d885760405162461bcd60e51b815260206004820152602e60248201527f50726f66697453686172653a4561726c79205769746864726177616c2069732060448201526d6e6f74207065726d69747465642160901b6064820152608401610916565b8054610dd65760405162461bcd60e51b815260206004820152601c60248201527f50726f66697453686172653a4e6f7468696e6720746f20636c61696d000000006044820152606401610916565b600181015415610ed3578054600182015460405163379607f560e01b815260048101919091527f00000000000000000000000000000000000000000000000000000000000000006001600160a01b03169063379607f5906024016020604051808303815f875af1158015610e4c573d5f5f3e3d5ffd5b505050506040513d601f19601f82011682018060405250810190610e7091906120d2565b14610ed35760405162461bcd60e51b815260206004820152602d60248201527f50726f66697453686172653a43616e6e6f7420636c61696d207843524544492060448201526c66726f6d204d6f64756c65582160981b6064820152608401610916565b610eec3382546007546001600160a01b03169190611ac2565b610ef833825487611796565b8315610ca157610ca133611587565b610f1081611673565b50565b610f1b61125f565b5f826001600160601b0316118015610f48575063ffffffff81166103e81080610f48575063ffffffff8116155b610f50575f5ffd5b6001600160601b0382165f81815260046020908152604091829020805463ffffffff191663ffffffff86169081179091558251938452908301527f0dfde28ba1cfae98db642e3246355850b37332d75f04945da4676e38ad045386910160405180910390a15050565b610fc1611319565b5f82116110045760405162461bcd60e51b815260206004820152601160248201527043616e6e6f7420756e7374616b6520302160781b6044820152606401610916565b61101b336007546001600160a01b03169084611ac2565b61102633835f611796565b80156110355761103533611587565b610cad60018055565b6001600160a01b0382165f908152600560205260408120600301548190819081908690869061106e906001611fd2565b811061108c5760405162461bcd60e51b815260040161091690612046565b505050506001600160a01b03939093165f908152600660209081526040808320948352939052919091208054600182015460029092015490949193506001600160601b0381169250600160601b900463ffffffff1690565b6110ec61125f565b5f811161110b5760405162461bcd60e51b8152600401610916906120e9565b60085461112c906234bc0090600160a01b90046001600160601b0316611ff8565b6001600160601b0316426001600160601b031610158061114c5750600954155b611154575f5ffd5b60085461116b906001600160a01b03168383611ac2565b816001600160a01b03167f1d3eee4ca001cff39eec6ec7615aacf2f2bd61791273830728ba00ccbd6e1337826040516111a691815260200190565b60405180910390a25050565b6111ba611319565b6111d2336007546001600160a01b031690308461172f565b5f6001600160601b0383161561120b57335f90815260056020526040812060030180549091906112019061207d565b918290555061120d565b5f5b905061121b338484846118a5565b50610cad60018055565b61122d61125f565b6001600160a01b03811661125657604051631e4fbdf760e01b81525f6004820152602401610916565b610f10816116e0565b5f546001600160a01b031633146106f15760405163118cdaa760e01b8152336004820152602401610916565b606061129982611af3611af7565b5090919050565b5f8282188284100282185b90505b92915050565b5f8282188284110282186112ab565b5f5f600360016112d4600286611618565b6112de9190611fe5565b815481106112ee576112ee611ef4565b5f9182526020909120015490506103e86113088483611f9c565b6113129190611fb3565b9392505050565b60026001540361133c57604051633ee5aeb560e01b815260040160405180910390fd5b6002600155565b600c545f9061135e906001600160601b0316610602426105e5565b600954909150158015906113805750600c546001600160601b03908116908216115b156113d557600954600a54600c546113a1906001600160601b031684611f7d565b6001600160601b03166113b49190611f9c565b6113be9190611fb3565b600b80545f906113cf908490611fd2565b90915550505b600c80546bffffffffffffffffffffffff19166001600160601b0383161790556001600160a01b03841615611581576001600160a01b0384165f9081526005602052604081208054909190611429906112c3565b82549091501561147b576002820154600b54683635c9adc5dea000009161144f91611fe5565b6114599083611f9c565b6114639190611fb3565b826001015f8282546114759190611fd2565b90915550505b600b54600283015581548490611492908790611fd2565b61149c9190611fe5565b80835581906114aa906112c3565b6009546114b79190611fd2565b6114c19190611fe5565b600955815460018301546002840154604080519384526020840192909252908201526001600160a01b038716907ff1da46a1ca3e37613208b2a3d7ec556866482d77a0005d6168d73270ced6b26a9060600160405180910390a2600954600a54600b54600c546008546040517fe111f67a87ace56a1496291914b8e0da23748ffddaa8bc98d0f4d4dfb51796a595611576959094909390926001600160601b0391821692600160a01b90910490911690612017565b60405180910390a150505b50505050565b6001600160a01b0381165f908152600560205260409020600181015415610cad5760018101546008546115c7916001600160a01b03909116908490611ac2565b816001600160a01b03167fe2403640ba68fed3a2f88b7557551d1993f84b99bb10ff833f0cf8db0c5e0486826001015460405161160691815260200190565b60405180910390a25f60018201555050565b81545f90819080820361162f575f925050506112ae565b8082101561166b575f6116428383611b0f565b90508461164f8783611b29565b54111561165e57809150611665565b8060010192505b5061162f565b509392505050565b5f81116116925760405162461bcd60e51b8152600401610916906120e9565b6116aa336008546001600160a01b031690308461172f565b6040518181527fde88a922e0d3b88b24e9623efeb464919c6bf9f66857a65e2bfcf2ce87a9433d9060200160405180910390a150565b5f80546001600160a01b038381166001600160a01b0319831681178455604051919092169283917f8be0079c531659141344cd1fd0a4f28419497f9722a3daafe3b4186f6b6457e09190a35050565b6040516001600160a01b0384811660248301528381166044830152606482018390526115819186918216906323b872dd906084015b604051602081830303815290604052915060e01b6020820180516001600160e01b038381831617835250505050611b50565b6001600160a01b0383165f908152600660209081526040808320848452909152902080548311156118135760405162461bcd60e51b815260206004820152602160248201527f50726f66697453686172653a496e73756666696369656e742062616c616e63656044820152602160f81b6064820152608401610916565b60028101545f906103e89061183590600160601b900463ffffffff1686611f9c565b61183f9190611fb3565b905061184c855f83611343565b83825f015f82825461185e9190611fe5565b9091555050604080518481526020810186905233917f459d5aef2c549903c1eeb1736f5728845d5ccf82537ddd5bf8035795eee89263910160405180910390a25050505050565b600754600160a01b90046001600160601b0316426001600160601b0316101580156118ea5750600854600160a01b90046001600160601b0316426001600160601b0316105b6119365760405162461bcd60e51b815260206004820152601f60248201527f50726f66697453686172653a506f6f6c206973206e6f742061637469766521006044820152606401610916565b6001600160601b0383165f9081526004602052604081205463ffffffff16906103e86119628386611f9c565b61196c9190611fb3565b90505f81116119e35760405162461bcd60e51b815260206004820152603960248201527f50726f66697453686172653a616d6f756e7420616e64206d756c7469706c696560448201527f72206d7573742062652067726561746572207468616e203021000000000000006064820152608401610916565b6119ee86825f611343565b335f9081526006602090815260408083208684529091528120805490918691839190611a1b908490611fd2565b90915550611a2b90508642611ff8565b60028201805463ffffffff8616600160601b026fffffffffffffffffffffffffffffffff199091166001600160601b03938416171790819055825460018401546040516001600160a01b038c16947ffb323914bfe99940926cd03fe7969535604dd9a3c82b28853e738744dd6f9aaa94611ab1948b949093909291909116908d90612017565b60405180910390a250505050505050565b6040516001600160a01b03838116602483015260448201839052610a4091859182169063a9059cbb90606401611764565b1190565b606061129960208401611b0985611bbc565b84611bd3565b5f611b1d6002848418611fb3565b6112ab90848416611fd2565b5f82611b48611b4584611b41845f9081526020902090565b0190565b90565b949350505050565b5f5f60205f8451602086015f885af180611b6f576040513d5f823e3d81fd5b50505f513d91508115611b86578060011415611b93565b6001600160a01b0384163b155b1561158157604051635274afe760e01b81526001600160a01b0385166004820152602401610916565b5f8151602002611bcc8360200190565b0192915050565b60408383031015611be357505050565b5f611bec845190565b905083602081015b84811015611c2e57611c11611c07825190565b848663ffffffff16565b15611c26576020919091018051825182528252905b602001611bf4565b508451815186528152611c42858285611bd3565b611c50816020018585611bd3565b5050505050565b828054828255905f5260205f20908101928215611c90579160200282015b82811115611c90578251825591602001919060010190611c75565b50611c9c929150611ca0565b5090565b5b80821115611c9c575f8155600101611ca1565b5f5f83601f840112611cc4575f5ffd5b50813567ffffffffffffffff811115611cdb575f5ffd5b6020830191508360208260051b8501011115611cf5575f5ffd5b9250929050565b5f5f5f5f60408587031215611d0f575f5ffd5b843567ffffffffffffffff811115611d25575f5ffd5b611d3187828801611cb4565b909550935050602085013567ffffffffffffffff811115611d50575f5ffd5b611d5c87828801611cb4565b95989497509550505050565b80356001600160a01b0381168114611d7e575f5ffd5b919050565b5f60208284031215611d93575f5ffd5b6112ab82611d68565b80356001600160601b0381168114611d7e575f5ffd5b5f5f5f60608486031215611dc4575f5ffd5b611dcd84611d9c565b95602085013595506040909401359392505050565b5f60208284031215611df2575f5ffd5b6112ab82611d9c565b5f5f5f60608486031215611e0d575f5ffd5b83359250611e1d60208501611d9c565b929592945050506040919091013590565b5f5f60408385031215611e3f575f5ffd5b611e4883611d9c565b946020939093013593505050565b8015158114610f10575f5ffd5b5f5f60408385031215611e74575f5ffd5b823591506020830135611e8681611e56565b809150509250929050565b5f60208284031215611ea1575f5ffd5b5035919050565b5f5f60408385031215611eb9575f5ffd5b611ec283611d9c565b9150602083013563ffffffff81168114611e86575f5ffd5b5f5f60408385031215611eeb575f5ffd5b611e4883611d68565b634e487b7160e01b5f52603260045260245ffd5b5f8154808452602084019350825f5260205f205f5b82811015611f3b578154865260209095019460019182019101611f1d565b5093949350505050565b604081525f611f576040830185611f08565b82810360208401526106c38185611f08565b634e487b7160e01b5f52601160045260245ffd5b6001600160601b0382811682821603908111156112ae576112ae611f69565b80820281158282048414176112ae576112ae611f69565b5f82611fcd57634e487b7160e01b5f52601260045260245ffd5b500490565b808201808211156112ae576112ae611f69565b818103818111156112ae576112ae611f69565b6001600160601b0381811683821601908111156112ae576112ae611f69565b948552602085019390935260408401919091526001600160601b03908116606084015216608082015260a00190565b6020808252601d908201527f50726f66697453686172653a496e76616c6964205374616b6520494421000000604082015260600190565b5f6001820161208e5761208e611f69565b5060010190565b5f602082840312156120a5575f5ffd5b815161131281611e56565b5f5f604083850312156120c1575f5ffd5b505080516020909101519092909150565b5f602082840312156120e2575f5ffd5b5051919050565b6020808252602d908201527f50726f66697453686172653a616d6f756e74206d75737420626520677265617460408201526c6572207468616e207a65726f2160981b60608201526080019056fea26469706673582212200528b5d59adb561216c312f310549dae489b07a7ba3d54b33cbd9b5412df070164736f6c634300081e00330dfde28ba1cfae98db642e3246355850b37332d75f04945da4676e38ad045386",
			"opcodes": "PUSH2 0x140 PUSH1 0x40 MSTORE PUSH0 PUSH1 0xC0 SWAP1 DUP2 MSTORE PUSH10 0x21E19E0C9BAB2400000 PUSH1 0xE0 MSTORE PUSH10 0x43C33C1937564800000 PUSH2 0x100 MSTORE PUSH10 0xA968163F0A57B400000 PUSH2 0x120 MSTORE PUSH2 0x45 SWAP1 PUSH1 0x2 SWAP1 PUSH1 0x4 PUSH2 0x668 JUMP JUMPDEST POP PUSH1 0x40 DUP1 MLOAD PUSH1 0x80 DUP2 ADD DUP3 MSTORE PUSH2 0x3E8 DUP2 MSTORE PUSH2 0x5DC PUSH1 0x20 DUP3 ADD MSTORE PUSH2 0x7D0 SWAP2 DUP2 ADD SWAP2 SWAP1 SWAP2 MSTORE PUSH2 0xBB8 PUSH1 0x60 DUP3 ADD MSTORE PUSH2 0x7D SWAP1 PUSH1 0x3 SWAP1 PUSH1 0x4 PUSH2 0x6BC JUMP JUMPDEST POP CALLVALUE DUP1 ISZERO PUSH2 0x89 JUMPI PUSH0 PUSH0 REVERT JUMPDEST POP PUSH1 0x40 MLOAD PUSH2 0x29EC CODESIZE SUB DUP1 PUSH2 0x29EC DUP4 CODECOPY DUP2 ADD PUSH1 0x40 DUP2 SWAP1 MSTORE PUSH2 0xA8 SWAP2 PUSH2 0x740 JUMP JUMPDEST CALLER DUP1 PUSH2 0xCE JUMPI PUSH1 0x40 MLOAD PUSH4 0x1E4FBDF7 PUSH1 0xE0 SHL DUP2 MSTORE PUSH0 PUSH1 0x4 DUP3 ADD MSTORE PUSH1 0x24 ADD JUMPDEST PUSH1 0x40 MLOAD DUP1 SWAP2 SUB SWAP1 REVERT JUMPDEST PUSH2 0xD7 DUP2 PUSH2 0x544 JUMP JUMPDEST POP PUSH1 0x1 DUP1 SSTORE PUSH1 0x1 PUSH1 0x1 PUSH1 0xA0 SHL SUB DUP3 AND PUSH1 0xA0 DUP2 SWAP1 MSTORE PUSH1 0x40 DUP1 MLOAD PUSH4 0x6A30A4D1 PUSH1 0xE1 SHL DUP2 MSTORE SWAP1 MLOAD PUSH4 0xD46149A2 SWAP2 PUSH1 0x4 DUP1 DUP3 ADD SWAP3 PUSH1 0x20 SWAP3 SWAP1 SWAP2 SWAP1 DUP3 SWAP1 SUB ADD DUP2 DUP7 GAS STATICCALL ISZERO DUP1 ISZERO PUSH2 0x124 JUMPI RETURNDATASIZE PUSH0 PUSH0 RETURNDATACOPY RETURNDATASIZE PUSH0 REVERT JUMPDEST POP POP POP POP PUSH1 0x40 MLOAD RETURNDATASIZE PUSH1 0x1F NOT PUSH1 0x1F DUP3 ADD AND DUP3 ADD DUP1 PUSH1 0x40 MSTORE POP DUP2 ADD SWAP1 PUSH2 0x148 SWAP2 SWAP1 PUSH2 0x79A JUMP JUMPDEST PUSH1 0x1 PUSH1 0x1 PUSH1 0xA0 SHL SUB AND PUSH1 0x80 MSTORE PUSH0 DUP1 MSTORE PUSH1 0x4 PUSH1 0x20 MSTORE PUSH32 0x17EF568E3E12AB5B9C7254A8D58478811DE00F9E6EB34345ACD53BF8FD09D3EC DUP1 SLOAD PUSH4 0xFFFFFFFF NOT AND PUSH2 0x3E8 OR SWAP1 SSTORE PUSH1 0x1 PUSH1 0x1 PUSH1 0x60 SHL SUB DUP5 AND PUSH2 0x19D TIMESTAMP SWAP1 JUMP JUMPDEST PUSH1 0x1 PUSH1 0x1 PUSH1 0x60 SHL SUB AND LT PUSH2 0x219 JUMPI PUSH1 0x40 MLOAD PUSH3 0x461BCD PUSH1 0xE5 SHL DUP2 MSTORE PUSH1 0x20 PUSH1 0x4 DUP3 ADD MSTORE PUSH1 0x33 PUSH1 0x24 DUP3 ADD MSTORE PUSH32 0x50726F66697453686172653A456E642074696D65206D75737420626520677265 PUSH1 0x44 DUP3 ADD MSTORE PUSH32 0x61746572207468616E2074696D655F6E6F772100000000000000000000000000 PUSH1 0x64 DUP3 ADD MSTORE PUSH1 0x84 ADD PUSH2 0xC5 JUMP JUMPDEST PUSH2 0x235 PUSH1 0x1 PUSH1 0x1 PUSH1 0x60 SHL SUB DUP7 AND TIMESTAMP PUSH1 0x1 PUSH1 0x1 PUSH1 0x60 SHL SUB AND PUSH2 0x593 JUMP JUMPDEST SWAP5 POP DUP4 PUSH1 0x1 PUSH1 0x1 PUSH1 0x60 SHL SUB AND DUP6 PUSH1 0x1 PUSH1 0x1 PUSH1 0x60 SHL SUB AND LT PUSH2 0x2B3 JUMPI PUSH1 0x40 MLOAD PUSH3 0x461BCD PUSH1 0xE5 SHL DUP2 MSTORE PUSH1 0x20 PUSH1 0x4 DUP3 ADD MSTORE PUSH1 0x32 PUSH1 0x24 DUP3 ADD MSTORE PUSH32 0x50726F66697453686172653A53746172742074696D65206D757374206265206C PUSH1 0x44 DUP3 ADD MSTORE PUSH18 0x657373207468616E20656E642074696D6521 PUSH1 0x70 SHL PUSH1 0x64 DUP3 ADD MSTORE PUSH1 0x84 ADD PUSH2 0xC5 JUMP JUMPDEST PUSH0 PUSH2 0x2BE DUP7 DUP7 PUSH2 0x7C7 JUMP JUMPDEST PUSH1 0x1 PUSH1 0x1 PUSH1 0x60 SHL SUB AND PUSH2 0x2DA DUP6 PUSH9 0x3635C9ADC5DEA00000 PUSH2 0x7E6 JUMP JUMPDEST PUSH2 0x2E4 SWAP2 SWAP1 PUSH2 0x7FD JUMP JUMPDEST SWAP1 POP PUSH1 0x40 MLOAD DUP1 PUSH2 0x100 ADD PUSH1 0x40 MSTORE DUP1 PUSH1 0xA0 MLOAD PUSH1 0x1 PUSH1 0x1 PUSH1 0xA0 SHL SUB AND PUSH4 0x7C2FDEB5 PUSH1 0x40 MLOAD DUP2 PUSH4 0xFFFFFFFF AND PUSH1 0xE0 SHL DUP2 MSTORE PUSH1 0x4 ADD PUSH1 0x20 PUSH1 0x40 MLOAD DUP1 DUP4 SUB DUP2 DUP7 GAS STATICCALL ISZERO DUP1 ISZERO PUSH2 0x330 JUMPI RETURNDATASIZE PUSH0 PUSH0 RETURNDATACOPY RETURNDATASIZE PUSH0 REVERT JUMPDEST POP POP POP POP PUSH1 0x40 MLOAD RETURNDATASIZE PUSH1 0x1F NOT PUSH1 0x1F DUP3 ADD AND DUP3 ADD DUP1 PUSH1 0x40 MSTORE POP DUP2 ADD SWAP1 PUSH2 0x354 SWAP2 SWAP1 PUSH2 0x79A JUMP JUMPDEST PUSH1 0x1 PUSH1 0x1 PUSH1 0xA0 SHL SUB SWAP1 DUP2 AND DUP3 MSTORE PUSH1 0x1 PUSH1 0x1 PUSH1 0x60 SHL SUB DUP10 DUP2 AND PUSH1 0x20 DUP1 DUP6 ADD DUP3 SWAP1 MSTORE DUP8 DUP5 AND PUSH1 0x40 DUP1 DUP8 ADD SWAP2 SWAP1 SWAP2 MSTORE DUP12 DUP5 AND PUSH1 0x60 DUP1 DUP9 ADD SWAP2 SWAP1 SWAP2 MSTORE PUSH0 PUSH1 0x80 DUP1 DUP10 ADD DUP3 SWAP1 MSTORE PUSH1 0xA0 DUP1 DUP11 ADD DUP13 SWAP1 MSTORE PUSH1 0xC0 DUP1 DUP12 ADD SWAP4 SWAP1 SWAP4 MSTORE PUSH1 0xE0 SWAP10 DUP11 ADD SWAP7 SWAP1 SWAP7 MSTORE DUP10 MLOAD DUP11 DUP7 ADD MLOAD SWAP1 DUP10 AND PUSH1 0x1 PUSH1 0xA0 SHL SWAP2 DUP10 AND DUP3 MUL DUP2 DUP2 OR PUSH1 0x7 DUP2 SWAP1 SSTORE DUP14 DUP9 ADD MLOAD DUP15 DUP9 ADD MLOAD SWAP1 DUP14 AND SWAP1 DUP13 AND DUP6 MUL DUP2 DUP2 OR PUSH1 0x8 SSTORE DUP16 DUP8 ADD MLOAD PUSH1 0x9 SSTORE SWAP11 DUP16 ADD MLOAD PUSH1 0xA SSTORE SWAP6 DUP15 ADD MLOAD PUSH1 0xB SSTORE SWAP13 SWAP1 SWAP12 ADD MLOAD PUSH1 0xC DUP1 SLOAD PUSH1 0x1 PUSH1 0x1 PUSH1 0x60 SHL SUB NOT AND SWAP2 DUP12 AND SWAP2 SWAP1 SWAP2 OR SWAP1 SSTORE DUP6 MLOAD SWAP11 DUP11 AND OR DUP11 MSTORE SWAP6 SWAP1 SWAP8 AND OR SWAP3 DUP8 ADD SWAP3 SWAP1 SWAP3 MSTORE SWAP2 SWAP1 SWAP6 DIV SWAP1 SWAP2 AND SWAP1 DUP4 ADD MSTORE PUSH9 0x3635C9ADC5DEA00000 SWAP3 DUP3 ADD SWAP3 SWAP1 SWAP3 MSTORE PUSH32 0xDC04D80EBE596008505211BB5EF7B7B76945B378723C7FBC1DD952CD919394BB SWAP2 ADD PUSH1 0x40 MLOAD DUP1 SWAP2 SUB SWAP1 LOG1 PUSH1 0x9 SLOAD PUSH1 0xA SLOAD PUSH1 0xB SLOAD PUSH1 0xC SLOAD PUSH1 0x8 SLOAD PUSH1 0x40 DUP1 MLOAD SWAP6 DUP7 MSTORE PUSH1 0x20 DUP7 ADD SWAP5 SWAP1 SWAP5 MSTORE DUP5 DUP5 ADD SWAP3 SWAP1 SWAP3 MSTORE PUSH1 0x1 PUSH1 0x1 PUSH1 0x60 SHL SUB SWAP1 DUP2 AND PUSH1 0x60 DUP6 ADD MSTORE PUSH1 0x1 PUSH1 0xA0 SHL SWAP1 SWAP2 DIV AND PUSH1 0x80 DUP4 ADD MSTORE MLOAD PUSH32 0xE111F67A87ACE56A1496291914B8E0DA23748FFDDAA8BC98D0F4D4DFB51796A5 SWAP2 DUP2 SWAP1 SUB PUSH1 0xA0 ADD SWAP1 LOG1 PUSH1 0x40 DUP1 MLOAD PUSH0 DUP2 MSTORE PUSH2 0x3E8 PUSH1 0x20 DUP3 ADD MSTORE PUSH0 MLOAD PUSH1 0x20 PUSH2 0x29CC PUSH0 CODECOPY PUSH0 MLOAD SWAP1 PUSH0 MSTORE SWAP2 ADD PUSH1 0x40 MLOAD DUP1 SWAP2 SUB SWAP1 LOG1 PUSH2 0x50F PUSH2 0x708 PUSH2 0x5DC PUSH2 0x5A7 JUMP JUMPDEST PUSH2 0x51D PUSH2 0x1518 PUSH2 0x7D0 PUSH2 0x5A7 JUMP JUMPDEST PUSH2 0x52B PUSH2 0x2A30 PUSH2 0xBB8 PUSH2 0x5A7 JUMP JUMPDEST PUSH2 0x539 PUSH2 0x5460 PUSH2 0x1388 PUSH2 0x5A7 JUMP JUMPDEST POP POP POP POP POP POP PUSH2 0x81C JUMP JUMPDEST PUSH0 DUP1 SLOAD PUSH1 0x1 PUSH1 0x1 PUSH1 0xA0 SHL SUB DUP4 DUP2 AND PUSH1 0x1 PUSH1 0x1 PUSH1 0xA0 SHL SUB NOT DUP4 AND DUP2 OR DUP5 SSTORE PUSH1 0x40 MLOAD SWAP2 SWAP1 SWAP3 AND SWAP3 DUP4 SWAP2 PUSH32 0x8BE0079C531659141344CD1FD0A4F28419497F9722A3DAAFE3B4186F6B6457E0 SWAP2 SWAP1 LOG3 POP POP JUMP JUMPDEST PUSH0 DUP3 DUP3 XOR DUP3 DUP5 GT MUL DUP3 XOR JUMPDEST SWAP1 POP JUMPDEST SWAP3 SWAP2 POP POP JUMP JUMPDEST PUSH2 0x5AF PUSH2 0x63A JUMP JUMPDEST PUSH0 DUP3 PUSH1 0x1 PUSH1 0x1 PUSH1 0x60 SHL SUB AND GT DUP1 ISZERO PUSH2 0x5DC JUMPI POP PUSH4 0xFFFFFFFF DUP2 AND PUSH2 0x3E8 LT DUP1 PUSH2 0x5DC JUMPI POP PUSH4 0xFFFFFFFF DUP2 AND ISZERO JUMPDEST PUSH2 0x5E4 JUMPI PUSH0 PUSH0 REVERT JUMPDEST PUSH1 0x1 PUSH1 0x1 PUSH1 0x60 SHL SUB DUP3 AND PUSH0 DUP2 DUP2 MSTORE PUSH1 0x4 PUSH1 0x20 SWAP1 DUP2 MSTORE PUSH1 0x40 SWAP2 DUP3 SWAP1 KECCAK256 DUP1 SLOAD PUSH4 0xFFFFFFFF NOT AND PUSH4 0xFFFFFFFF DUP7 AND SWAP1 DUP2 OR SWAP1 SWAP2 SSTORE DUP3 MLOAD SWAP4 DUP5 MSTORE SWAP1 DUP4 ADD MSTORE PUSH0 MLOAD PUSH1 0x20 PUSH2 0x29CC PUSH0 CODECOPY PUSH0 MLOAD SWAP1 PUSH0 MSTORE SWAP2 ADD PUSH1 0x40 MLOAD DUP1 SWAP2 SUB SWAP1 LOG1 POP POP JUMP JUMPDEST PUSH0 SLOAD PUSH1 0x1 PUSH1 0x1 PUSH1 0xA0 SHL SUB AND CALLER EQ PUSH2 0x666 JUMPI PUSH1 0x40 MLOAD PUSH4 0x118CDAA7 PUSH1 0xE0 SHL DUP2 MSTORE CALLER PUSH1 0x4 DUP3 ADD MSTORE PUSH1 0x24 ADD PUSH2 0xC5 JUMP JUMPDEST JUMP JUMPDEST DUP3 DUP1 SLOAD DUP3 DUP3 SSTORE SWAP1 PUSH0 MSTORE PUSH1 0x20 PUSH0 KECCAK256 SWAP1 DUP2 ADD SWAP3 DUP3 ISZERO PUSH2 0x6AC JUMPI SWAP2 PUSH1 0x20 MUL DUP3 ADD JUMPDEST DUP3 DUP2 GT ISZERO PUSH2 0x6AC JUMPI DUP3 MLOAD DUP3 SWAP1 PUSH1 0x1 PUSH1 0x1 PUSH1 0x50 SHL SUB AND SWAP1 SSTORE SWAP2 PUSH1 0x20 ADD SWAP2 SWAP1 PUSH1 0x1 ADD SWAP1 PUSH2 0x686 JUMP JUMPDEST POP PUSH2 0x6B8 SWAP3 SWAP2 POP PUSH2 0x6FB JUMP JUMPDEST POP SWAP1 JUMP JUMPDEST DUP3 DUP1 SLOAD DUP3 DUP3 SSTORE SWAP1 PUSH0 MSTORE PUSH1 0x20 PUSH0 KECCAK256 SWAP1 DUP2 ADD SWAP3 DUP3 ISZERO PUSH2 0x6AC JUMPI SWAP2 PUSH1 0x20 MUL DUP3 ADD JUMPDEST DUP3 DUP2 GT ISZERO PUSH2 0x6AC JUMPI DUP3 MLOAD DUP3 SWAP1 PUSH2 0xFFFF AND SWAP1 SSTORE SWAP2 PUSH1 0x20 ADD SWAP2 SWAP1 PUSH1 0x1 ADD SWAP1 PUSH2 0x6DA JUMP JUMPDEST JUMPDEST DUP1 DUP3 GT ISZERO PUSH2 0x6B8 JUMPI PUSH0 DUP2 SSTORE PUSH1 0x1 ADD PUSH2 0x6FC JUMP JUMPDEST DUP1 MLOAD PUSH1 0x1 PUSH1 0x1 PUSH1 0x60 SHL SUB DUP2 AND DUP2 EQ PUSH2 0x725 JUMPI PUSH0 PUSH0 REVERT JUMPDEST SWAP2 SWAP1 POP JUMP JUMPDEST DUP1 MLOAD PUSH1 0x1 PUSH1 0x1 PUSH1 0xA0 SHL SUB DUP2 AND DUP2 EQ PUSH2 0x725 JUMPI PUSH0 PUSH0 REVERT JUMPDEST PUSH0 PUSH0 PUSH0 PUSH0 PUSH0 PUSH1 0xA0 DUP7 DUP9 SUB SLT ISZERO PUSH2 0x754 JUMPI PUSH0 PUSH0 REVERT JUMPDEST PUSH2 0x75D DUP7 PUSH2 0x70F JUMP JUMPDEST SWAP5 POP PUSH2 0x76B PUSH1 0x20 DUP8 ADD PUSH2 0x70F JUMP JUMPDEST SWAP4 POP PUSH1 0x40 DUP7 ADD MLOAD SWAP3 POP PUSH2 0x780 PUSH1 0x60 DUP8 ADD PUSH2 0x72A JUMP JUMPDEST SWAP2 POP PUSH2 0x78E PUSH1 0x80 DUP8 ADD PUSH2 0x72A JUMP JUMPDEST SWAP1 POP SWAP3 SWAP6 POP SWAP3 SWAP6 SWAP1 SWAP4 POP JUMP JUMPDEST PUSH0 PUSH1 0x20 DUP3 DUP5 SUB SLT ISZERO PUSH2 0x7AA JUMPI PUSH0 PUSH0 REVERT JUMPDEST PUSH2 0x59E DUP3 PUSH2 0x72A JUMP JUMPDEST PUSH4 0x4E487B71 PUSH1 0xE0 SHL PUSH0 MSTORE PUSH1 0x11 PUSH1 0x4 MSTORE PUSH1 0x24 PUSH0 REVERT JUMPDEST PUSH1 0x1 PUSH1 0x1 PUSH1 0x60 SHL SUB DUP3 DUP2 AND DUP3 DUP3 AND SUB SWAP1 DUP2 GT ISZERO PUSH2 0x5A1 JUMPI PUSH2 0x5A1 PUSH2 0x7B3 JUMP JUMPDEST DUP1 DUP3 MUL DUP2 ISZERO DUP3 DUP3 DIV DUP5 EQ OR PUSH2 0x5A1 JUMPI PUSH2 0x5A1 PUSH2 0x7B3 JUMP JUMPDEST PUSH0 DUP3 PUSH2 0x817 JUMPI PUSH4 0x4E487B71 PUSH1 0xE0 SHL PUSH0 MSTORE PUSH1 0x12 PUSH1 0x4 MSTORE PUSH1 0x24 PUSH0 REVERT JUMPDEST POP DIV SWAP1 JUMP JUMPDEST PUSH1 0x80 MLOAD PUSH1 0xA0 MLOAD PUSH2 0x216C PUSH2 0x860 PUSH0 CODECOPY PUSH0 DUP2 DUP2 PUSH2 0x374 ADD MSTORE DUP2 DUP2 PUSH2 0xA99 ADD MSTORE DUP2 DUP2 PUSH2 0xB64 ADD MSTORE PUSH2 0xDFE ADD MSTORE PUSH0 DUP2 DUP2 PUSH2 0x297 ADD MSTORE DUP2 DUP2 PUSH2 0xA52 ADD MSTORE PUSH2 0xAC8 ADD MSTORE PUSH2 0x216C PUSH0 RETURN INVALID PUSH1 0x80 PUSH1 0x40 MSTORE CALLVALUE DUP1 ISZERO PUSH2 0xF JUMPI PUSH0 PUSH0 REVERT JUMPDEST POP PUSH1 0x4 CALLDATASIZE LT PUSH2 0x152 JUMPI PUSH0 CALLDATALOAD PUSH1 0xE0 SHR DUP1 PUSH4 0x99C1E891 GT PUSH2 0xBF JUMPI DUP1 PUSH4 0xCE4B5BBE GT PUSH2 0x79 JUMPI DUP1 PUSH4 0xCE4B5BBE EQ PUSH2 0x3CF JUMPI DUP1 PUSH4 0xCFD47663 EQ PUSH2 0x3DF JUMPI DUP1 PUSH4 0xD6EF7AF0 EQ PUSH2 0x421 JUMPI DUP1 PUSH4 0xD93C04A0 EQ PUSH2 0x434 JUMPI DUP1 PUSH4 0xDA540BBF EQ PUSH2 0x447 JUMPI DUP1 PUSH4 0xF2FDE38B EQ PUSH2 0x450 JUMPI PUSH0 PUSH0 REVERT JUMPDEST DUP1 PUSH4 0x99C1E891 EQ PUSH2 0x349 JUMPI DUP1 PUSH4 0x9EBEA88C EQ PUSH2 0x35C JUMPI DUP1 PUSH4 0xB1DA1B2D EQ PUSH2 0x36F JUMPI DUP1 PUSH4 0xBECEED39 EQ PUSH2 0x396 JUMPI DUP1 PUSH4 0xC96D6635 EQ PUSH2 0x3A9 JUMPI DUP1 PUSH4 0xCCC54F2E EQ PUSH2 0x3BC JUMPI PUSH0 PUSH0 REVERT JUMPDEST DUP1 PUSH4 0x6DB08F25 GT PUSH2 0x110 JUMPI DUP1 PUSH4 0x6DB08F25 EQ PUSH2 0x292 JUMPI DUP1 PUSH4 0x7135CD6A EQ PUSH2 0x2D1 JUMPI DUP1 PUSH4 0x715018A6 EQ PUSH2 0x2E4 JUMPI DUP1 PUSH4 0x8AF6E880 EQ PUSH2 0x2EC JUMPI DUP1 PUSH4 0x8C793330 EQ PUSH2 0x326 JUMPI DUP1 PUSH4 0x8DA5CB5B EQ PUSH2 0x339 JUMPI PUSH0 PUSH0 REVERT JUMPDEST DUP1 PUSH3 0x72C744 EQ PUSH2 0x156 JUMPI DUP1 PUSH4 0x78B0FB7 EQ PUSH2 0x16B JUMPI DUP1 PUSH4 0x16F0115B EQ PUSH2 0x191 JUMPI DUP1 PUSH4 0x21241DFE EQ PUSH2 0x22D JUMPI DUP1 PUSH4 0x372500AB EQ PUSH2 0x24F JUMPI DUP1 PUSH4 0x6386C1C7 EQ PUSH2 0x257 JUMPI JUMPDEST PUSH0 PUSH0 REVERT JUMPDEST PUSH2 0x169 PUSH2 0x164 CALLDATASIZE PUSH1 0x4 PUSH2 0x1CFC JUMP JUMPDEST PUSH2 0x463 JUMP JUMPDEST STOP JUMPDEST PUSH2 0x17E PUSH2 0x179 CALLDATASIZE PUSH1 0x4 PUSH2 0x1D83 JUMP JUMPDEST PUSH2 0x5B7 JUMP JUMPDEST PUSH1 0x40 MLOAD SWAP1 DUP2 MSTORE PUSH1 0x20 ADD JUMPDEST PUSH1 0x40 MLOAD DUP1 SWAP2 SUB SWAP1 RETURN JUMPDEST PUSH1 0x7 SLOAD PUSH1 0x8 SLOAD PUSH1 0x9 SLOAD PUSH1 0xA SLOAD PUSH1 0xB SLOAD PUSH1 0xC SLOAD PUSH2 0x1D8 SWAP6 PUSH1 0x1 PUSH1 0x1 PUSH1 0xA0 SHL SUB DUP1 DUP3 AND SWAP7 PUSH1 0x1 PUSH1 0x1 PUSH1 0x60 SHL SUB PUSH1 0x1 PUSH1 0xA0 SHL SWAP4 DUP5 SWAP1 DIV DUP2 AND SWAP8 SWAP3 DUP3 AND SWAP7 SWAP4 SWAP1 SWAP2 DIV DUP2 AND SWAP5 SWAP2 SWAP4 AND DUP9 JUMP JUMPDEST PUSH1 0x40 DUP1 MLOAD PUSH1 0x1 PUSH1 0x1 PUSH1 0xA0 SHL SUB SWAP10 DUP11 AND DUP2 MSTORE PUSH1 0x1 PUSH1 0x1 PUSH1 0x60 SHL SUB SWAP9 DUP10 AND PUSH1 0x20 DUP3 ADD MSTORE SWAP9 SWAP1 SWAP7 AND SWAP6 DUP9 ADD SWAP6 SWAP1 SWAP6 MSTORE SWAP3 DUP6 AND PUSH1 0x60 DUP8 ADD MSTORE PUSH1 0x80 DUP7 ADD SWAP2 SWAP1 SWAP2 MSTORE PUSH1 0xA0 DUP6 ADD MSTORE PUSH1 0xC0 DUP5 ADD MSTORE AND PUSH1 0xE0 DUP3 ADD MSTORE PUSH2 0x100 ADD PUSH2 0x188 JUMP JUMPDEST PUSH2 0x237 PUSH3 0x34BC00 DUP2 JUMP JUMPDEST PUSH1 0x40 MLOAD PUSH1 0x1 PUSH1 0x1 PUSH1 0x60 SHL SUB SWAP1 SWAP2 AND DUP2 MSTORE PUSH1 0x20 ADD PUSH2 0x188 JUMP JUMPDEST PUSH2 0x169 PUSH2 0x6CC JUMP JUMPDEST PUSH2 0x26A PUSH2 0x265 CALLDATASIZE PUSH1 0x4 PUSH2 0x1D83 JUMP JUMPDEST PUSH2 0x6F3 JUMP JUMPDEST PUSH1 0x40 DUP1 MLOAD SWAP6 DUP7 MSTORE PUSH1 0x20 DUP7 ADD SWAP5 SWAP1 SWAP5 MSTORE SWAP3 DUP5 ADD SWAP2 SWAP1 SWAP2 MSTORE PUSH1 0x60 DUP4 ADD MSTORE PUSH1 0x80 DUP3 ADD MSTORE PUSH1 0xA0 ADD PUSH2 0x188 JUMP JUMPDEST PUSH2 0x2B9 PUSH32 0x0 DUP2 JUMP JUMPDEST PUSH1 0x40 MLOAD PUSH1 0x1 PUSH1 0x1 PUSH1 0xA0 SHL SUB SWAP1 SWAP2 AND DUP2 MSTORE PUSH1 0x20 ADD PUSH2 0x188 JUMP JUMPDEST PUSH2 0x169 PUSH2 0x2DF CALLDATASIZE PUSH1 0x4 PUSH2 0x1DB2 JUMP JUMPDEST PUSH2 0x740 JUMP JUMPDEST PUSH2 0x169 PUSH2 0x8C0 JUMP JUMPDEST PUSH2 0x311 PUSH2 0x2FA CALLDATASIZE PUSH1 0x4 PUSH2 0x1DE2 JUMP JUMPDEST PUSH1 0x4 PUSH1 0x20 MSTORE PUSH0 SWAP1 DUP2 MSTORE PUSH1 0x40 SWAP1 KECCAK256 SLOAD PUSH4 0xFFFFFFFF AND DUP2 JUMP JUMPDEST PUSH1 0x40 MLOAD PUSH4 0xFFFFFFFF SWAP1 SWAP2 AND DUP2 MSTORE PUSH1 0x20 ADD PUSH2 0x188 JUMP JUMPDEST PUSH2 0x169 PUSH2 0x334 CALLDATASIZE PUSH1 0x4 PUSH2 0x1DFB JUMP JUMPDEST PUSH2 0x8D1 JUMP JUMPDEST PUSH0 SLOAD PUSH1 0x1 PUSH1 0x1 PUSH1 0xA0 SHL SUB AND PUSH2 0x2B9 JUMP JUMPDEST PUSH2 0x169 PUSH2 0x357 CALLDATASIZE PUSH1 0x4 PUSH2 0x1E2E JUMP JUMPDEST PUSH2 0xA45 JUMP JUMPDEST PUSH2 0x169 PUSH2 0x36A CALLDATASIZE PUSH1 0x4 PUSH2 0x1E63 JUMP JUMPDEST PUSH2 0xCB1 JUMP JUMPDEST PUSH2 0x2B9 PUSH32 0x0 DUP2 JUMP JUMPDEST PUSH2 0x169 PUSH2 0x3A4 CALLDATASIZE PUSH1 0x4 PUSH2 0x1E91 JUMP JUMPDEST PUSH2 0xF07 JUMP JUMPDEST PUSH2 0x169 PUSH2 0x3B7 CALLDATASIZE PUSH1 0x4 PUSH2 0x1EA8 JUMP JUMPDEST PUSH2 0xF13 JUMP JUMPDEST PUSH2 0x169 PUSH2 0x3CA CALLDATASIZE PUSH1 0x4 PUSH2 0x1E63 JUMP JUMPDEST PUSH2 0xFB9 JUMP JUMPDEST PUSH2 0x17E PUSH9 0x3635C9ADC5DEA00000 DUP2 JUMP JUMPDEST PUSH2 0x3F2 PUSH2 0x3ED CALLDATASIZE PUSH1 0x4 PUSH2 0x1EDA JUMP JUMPDEST PUSH2 0x103E JUMP JUMPDEST PUSH1 0x40 MLOAD PUSH2 0x188 SWAP5 SWAP4 SWAP3 SWAP2 SWAP1 SWAP4 DUP5 MSTORE PUSH1 0x20 DUP5 ADD SWAP3 SWAP1 SWAP3 MSTORE PUSH1 0x1 PUSH1 0x1 PUSH1 0x60 SHL SUB AND PUSH1 0x40 DUP4 ADD MSTORE PUSH1 0x60 DUP3 ADD MSTORE PUSH1 0x80 ADD SWAP1 JUMP JUMPDEST PUSH2 0x169 PUSH2 0x42F CALLDATASIZE PUSH1 0x4 PUSH2 0x1EDA JUMP JUMPDEST PUSH2 0x10E4 JUMP JUMPDEST PUSH2 0x169 PUSH2 0x442 CALLDATASIZE PUSH1 0x4 PUSH2 0x1E2E JUMP JUMPDEST PUSH2 0x11B2 JUMP JUMPDEST PUSH2 0x311 PUSH2 0x3E8 DUP2 JUMP JUMPDEST PUSH2 0x169 PUSH2 0x45E CALLDATASIZE PUSH1 0x4 PUSH2 0x1D83 JUMP JUMPDEST PUSH2 0x1225 JUMP JUMPDEST PUSH2 0x46B PUSH2 0x125F JUMP JUMPDEST DUP3 DUP2 EQ DUP1 ISZERO PUSH2 0x479 JUMPI POP DUP1 ISZERO ISZERO JUMPDEST PUSH2 0x481 JUMPI PUSH0 PUSH0 REVERT JUMPDEST PUSH2 0x4BC DUP5 DUP5 DUP1 DUP1 PUSH1 0x20 MUL PUSH1 0x20 ADD PUSH1 0x40 MLOAD SWAP1 DUP2 ADD PUSH1 0x40 MSTORE DUP1 SWAP4 SWAP3 SWAP2 SWAP1 DUP2 DUP2 MSTORE PUSH1 0x20 ADD DUP4 DUP4 PUSH1 0x20 MUL DUP1 DUP3 DUP5 CALLDATACOPY PUSH0 SWAP3 ADD SWAP2 SWAP1 SWAP2 MSTORE POP PUSH2 0x128B SWAP3 POP POP POP JUMP JUMPDEST DUP1 MLOAD PUSH2 0x4D0 SWAP2 PUSH1 0x2 SWAP2 PUSH1 0x20 SWAP1 SWAP2 ADD SWAP1 PUSH2 0x1C57 JUMP JUMPDEST POP PUSH2 0x50C DUP3 DUP3 DUP1 DUP1 PUSH1 0x20 MUL PUSH1 0x20 ADD PUSH1 0x40 MLOAD SWAP1 DUP2 ADD PUSH1 0x40 MSTORE DUP1 SWAP4 SWAP3 SWAP2 SWAP1 DUP2 DUP2 MSTORE PUSH1 0x20 ADD DUP4 DUP4 PUSH1 0x20 MUL DUP1 DUP3 DUP5 CALLDATACOPY PUSH0 SWAP3 ADD SWAP2 SWAP1 SWAP2 MSTORE POP PUSH2 0x128B SWAP3 POP POP POP JUMP JUMPDEST DUP1 MLOAD PUSH2 0x520 SWAP2 PUSH1 0x3 SWAP2 PUSH1 0x20 SWAP1 SWAP2 ADD SWAP1 PUSH2 0x1C57 JUMP JUMPDEST POP PUSH1 0x2 PUSH0 DUP2 SLOAD DUP2 LT PUSH2 0x534 JUMPI PUSH2 0x534 PUSH2 0x1EF4 JUMP JUMPDEST SWAP1 PUSH0 MSTORE PUSH1 0x20 PUSH0 KECCAK256 ADD SLOAD PUSH0 EQ DUP1 ISZERO PUSH2 0x56E JUMPI POP PUSH2 0x3E8 PUSH4 0xFFFFFFFF AND PUSH1 0x3 PUSH0 DUP2 SLOAD DUP2 LT PUSH2 0x562 JUMPI PUSH2 0x562 PUSH2 0x1EF4 JUMP JUMPDEST SWAP1 PUSH0 MSTORE PUSH1 0x20 PUSH0 KECCAK256 ADD SLOAD LT ISZERO JUMPDEST PUSH2 0x576 JUMPI PUSH0 PUSH0 REVERT JUMPDEST PUSH32 0x36636BD3CAF33BDDBD656AADDA2FC454E5093F7CEC3DE1405319EF0EF3AA6BA7 PUSH1 0x2 PUSH1 0x3 PUSH1 0x40 MLOAD PUSH2 0x5A9 SWAP3 SWAP2 SWAP1 PUSH2 0x1F45 JUMP JUMPDEST PUSH1 0x40 MLOAD DUP1 SWAP2 SUB SWAP1 LOG1 POP POP POP POP JUMP JUMPDEST PUSH1 0x1 PUSH1 0x1 PUSH1 0xA0 SHL SUB DUP2 AND PUSH0 SWAP1 DUP2 MSTORE PUSH1 0x5 PUSH1 0x20 MSTORE PUSH1 0x40 DUP2 KECCAK256 PUSH1 0xC SLOAD DUP3 SWAP1 PUSH2 0x607 SWAP1 PUSH1 0x1 PUSH1 0x1 PUSH1 0x60 SHL SUB AND PUSH2 0x602 TIMESTAMP JUMPDEST PUSH1 0x8 SLOAD PUSH1 0x1 PUSH1 0x1 PUSH1 0x60 SHL SUB SWAP2 DUP3 AND SWAP2 PUSH1 0x1 PUSH1 0xA0 SHL SWAP1 SWAP2 DIV AND PUSH2 0x12A0 JUMP JUMPDEST PUSH2 0x12B4 JUMP JUMPDEST PUSH1 0xB SLOAD PUSH1 0x9 SLOAD SWAP2 SWAP3 POP SWAP1 ISZERO DUP1 ISZERO SWAP1 PUSH2 0x62D JUMPI POP PUSH1 0xC SLOAD PUSH1 0x1 PUSH1 0x1 PUSH1 0x60 SHL SUB SWAP1 DUP2 AND SWAP1 DUP4 AND GT JUMPDEST ISZERO PUSH2 0x67B JUMPI PUSH1 0x9 SLOAD PUSH1 0xA SLOAD PUSH1 0xC SLOAD PUSH2 0x64E SWAP1 PUSH1 0x1 PUSH1 0x1 PUSH1 0x60 SHL SUB AND DUP6 PUSH2 0x1F7D JUMP JUMPDEST PUSH1 0x1 PUSH1 0x1 PUSH1 0x60 SHL SUB AND PUSH2 0x661 SWAP2 SWAP1 PUSH2 0x1F9C JUMP JUMPDEST PUSH2 0x66B SWAP2 SWAP1 PUSH2 0x1FB3 JUMP JUMPDEST PUSH1 0xB SLOAD PUSH2 0x678 SWAP2 SWAP1 PUSH2 0x1FD2 JUMP JUMPDEST SWAP1 POP JUMPDEST PUSH9 0x3635C9ADC5DEA00000 DUP4 PUSH1 0x2 ADD SLOAD DUP3 PUSH2 0x695 SWAP2 SWAP1 PUSH2 0x1FE5 JUMP JUMPDEST DUP5 SLOAD PUSH2 0x6A0 SWAP1 PUSH2 0x12C3 JUMP JUMPDEST PUSH2 0x6AA SWAP2 SWAP1 PUSH2 0x1F9C JUMP JUMPDEST PUSH2 0x6B4 SWAP2 SWAP1 PUSH2 0x1FB3 JUMP JUMPDEST DUP4 PUSH1 0x1 ADD SLOAD PUSH2 0x6C3 SWAP2 SWAP1 PUSH2 0x1FD2 JUMP JUMPDEST SWAP6 SWAP5 POP POP POP POP POP JUMP JUMPDEST PUSH2 0x6D4 PUSH2 0x1319 JUMP JUMPDEST PUSH2 0x6DF CALLER PUSH0 PUSH0 PUSH2 0x1343 JUMP JUMPDEST PUSH2 0x6E8 CALLER PUSH2 0x1587 JUMP JUMPDEST PUSH2 0x6F1 PUSH1 0x1 DUP1 SSTORE JUMP JUMPDEST JUMP JUMPDEST PUSH1 0x1 PUSH1 0x1 PUSH1 0xA0 SHL SUB DUP2 AND PUSH0 SWAP1 DUP2 MSTORE PUSH1 0x5 PUSH1 0x20 MSTORE PUSH1 0x40 DUP2 KECCAK256 DUP1 SLOAD DUP3 SWAP2 DUP3 SWAP2 DUP3 SWAP2 DUP3 SWAP2 PUSH2 0x71F PUSH1 0x2 DUP3 PUSH2 0x1618 JUMP JUMPDEST PUSH1 0x1 DUP4 ADD SLOAD PUSH1 0x2 DUP5 ADD SLOAD PUSH1 0x3 SWAP1 SWAP5 ADD SLOAD SWAP3 SWAP11 SWAP2 SWAP10 POP SWAP8 POP SWAP2 SWAP6 POP SWAP4 POP SWAP2 POP POP JUMP JUMPDEST PUSH2 0x748 PUSH2 0x125F JUMP JUMPDEST PUSH2 0x753 PUSH0 PUSH0 PUSH0 PUSH2 0x1343 JUMP JUMPDEST PUSH1 0x8 SLOAD TIMESTAMP SWAP1 PUSH1 0x1 PUSH1 0xA0 SHL SWAP1 DIV PUSH1 0x1 PUSH1 0x1 PUSH1 0x60 SHL SUB SWAP1 DUP2 AND SWAP1 DUP3 AND LT PUSH2 0x7A1 JUMPI PUSH1 0x1 PUSH1 0x1 PUSH1 0x60 SHL SUB DUP5 AND PUSH2 0x78F DUP5 PUSH9 0x3635C9ADC5DEA00000 PUSH2 0x1F9C JUMP JUMPDEST PUSH2 0x799 SWAP2 SWAP1 PUSH2 0x1FB3 JUMP JUMPDEST PUSH1 0xA SSTORE PUSH2 0x805 JUMP JUMPDEST PUSH1 0xA SLOAD PUSH1 0x8 SLOAD PUSH1 0x1 PUSH1 0x1 PUSH1 0x60 SHL SUB DUP1 DUP8 AND SWAP3 SWAP2 PUSH2 0x7C7 SWAP2 DUP6 SWAP2 PUSH1 0x1 PUSH1 0xA0 SHL SWAP1 DIV AND PUSH2 0x1F7D JUMP JUMPDEST PUSH1 0x1 PUSH1 0x1 PUSH1 0x60 SHL SUB AND PUSH2 0x7DA SWAP2 SWAP1 PUSH2 0x1F9C JUMP JUMPDEST PUSH2 0x7ED DUP6 PUSH9 0x3635C9ADC5DEA00000 PUSH2 0x1F9C JUMP JUMPDEST PUSH2 0x7F7 SWAP2 SWAP1 PUSH2 0x1FD2 JUMP JUMPDEST PUSH2 0x801 SWAP2 SWAP1 PUSH2 0x1FB3 JUMP JUMPDEST PUSH1 0xA SSTORE JUMPDEST PUSH1 0xC DUP1 SLOAD PUSH12 0xFFFFFFFFFFFFFFFFFFFFFFFF NOT AND PUSH1 0x1 PUSH1 0x1 PUSH1 0x60 SHL SUB DUP4 AND OR SWAP1 SSTORE PUSH2 0x82F DUP5 DUP3 PUSH2 0x1FF8 JUMP JUMPDEST PUSH1 0x8 DUP1 SLOAD PUSH1 0x1 PUSH1 0x1 PUSH1 0x60 SHL SUB SWAP3 SWAP1 SWAP3 AND PUSH1 0x1 PUSH1 0xA0 SHL MUL PUSH1 0x1 PUSH1 0x1 PUSH1 0xA0 SHL SUB SWAP1 SWAP3 AND SWAP2 SWAP1 SWAP2 OR SWAP1 SSTORE DUP2 ISZERO PUSH2 0x865 JUMPI PUSH2 0x865 DUP3 PUSH2 0x1673 JUMP JUMPDEST PUSH1 0x9 SLOAD PUSH1 0xA SLOAD PUSH1 0xB SLOAD PUSH1 0xC SLOAD PUSH1 0x8 SLOAD PUSH1 0x40 MLOAD PUSH32 0xE111F67A87ACE56A1496291914B8E0DA23748FFDDAA8BC98D0F4D4DFB51796A5 SWAP6 PUSH2 0x5A9 SWAP6 SWAP1 SWAP5 SWAP1 SWAP4 SWAP1 SWAP3 PUSH1 0x1 PUSH1 0x1 PUSH1 0x60 SHL SUB SWAP2 DUP3 AND SWAP3 PUSH1 0x1 PUSH1 0xA0 SHL SWAP1 SWAP2 DIV SWAP1 SWAP2 AND SWAP1 PUSH2 0x2017 JUMP JUMPDEST PUSH2 0x8C8 PUSH2 0x125F JUMP JUMPDEST PUSH2 0x6F1 PUSH0 PUSH2 0x16E0 JUMP JUMPDEST PUSH2 0x8D9 PUSH2 0x1319 JUMP JUMPDEST CALLER PUSH0 DUP2 DUP2 MSTORE PUSH1 0x5 PUSH1 0x20 MSTORE PUSH1 0x40 SWAP1 KECCAK256 PUSH1 0x3 ADD SLOAD DUP5 SWAP1 PUSH2 0x8F8 SWAP1 PUSH1 0x1 PUSH2 0x1FD2 JUMP JUMPDEST DUP2 LT PUSH2 0x91F JUMPI PUSH1 0x40 MLOAD PUSH3 0x461BCD PUSH1 0xE5 SHL DUP2 MSTORE PUSH1 0x4 ADD PUSH2 0x916 SWAP1 PUSH2 0x2046 JUMP JUMPDEST PUSH1 0x40 MLOAD DUP1 SWAP2 SUB SWAP1 REVERT JUMPDEST DUP3 ISZERO PUSH2 0x93D JUMPI PUSH2 0x93D CALLER PUSH1 0x7 SLOAD PUSH1 0x1 PUSH1 0x1 PUSH1 0xA0 SHL SUB AND SWAP1 ADDRESS DUP7 PUSH2 0x172F JUMP JUMPDEST CALLER PUSH0 SWAP1 DUP2 MSTORE PUSH1 0x6 PUSH1 0x20 SWAP1 DUP2 MSTORE PUSH1 0x40 DUP1 DUP4 KECCAK256 DUP9 DUP5 MSTORE DUP3 MSTORE DUP1 DUP4 KECCAK256 PUSH1 0x1 PUSH1 0x1 PUSH1 0x60 SHL SUB DUP9 AND DUP5 MSTORE PUSH1 0x4 SWAP1 SWAP3 MSTORE SWAP1 SWAP2 KECCAK256 SLOAD PUSH1 0x2 DUP3 ADD SLOAD PUSH4 0xFFFFFFFF SWAP2 DUP3 AND PUSH1 0x1 PUSH1 0x60 SHL SWAP1 SWAP2 DIV SWAP1 SWAP2 AND GT ISZERO PUSH2 0x9DD JUMPI PUSH1 0x40 MLOAD PUSH3 0x461BCD PUSH1 0xE5 SHL DUP2 MSTORE PUSH1 0x20 PUSH1 0x4 DUP3 ADD MSTORE PUSH1 0x23 PUSH1 0x24 DUP3 ADD MSTORE PUSH32 0x50726F66697453686172653A557365206C6F6E676572206C6F636B5F70657269 PUSH1 0x44 DUP3 ADD MSTORE PUSH3 0x6F6421 PUSH1 0xE8 SHL PUSH1 0x64 DUP3 ADD MSTORE PUSH1 0x84 ADD PUSH2 0x916 JUMP JUMPDEST DUP1 SLOAD PUSH0 SWAP1 PUSH2 0x9EB SWAP1 DUP7 PUSH2 0x1FD2 JUMP JUMPDEST SWAP1 POP PUSH2 0x9F9 CALLER DUP4 SLOAD DUP10 PUSH2 0x1796 JUMP JUMPDEST DUP7 PUSH0 SUB PUSH2 0xA27 JUMPI CALLER PUSH0 SWAP1 DUP2 MSTORE PUSH1 0x5 PUSH1 0x20 MSTORE PUSH1 0x40 DUP2 KECCAK256 PUSH1 0x3 ADD DUP1 SLOAD SWAP1 SWAP2 SWAP1 PUSH2 0xA1F SWAP1 PUSH2 0x207D JUMP JUMPDEST SWAP2 DUP3 SWAP1 SSTORE POP SWAP7 POP JUMPDEST PUSH2 0xA33 CALLER DUP8 DUP4 DUP11 PUSH2 0x18A5 JUMP JUMPDEST POP POP POP POP PUSH2 0xA40 PUSH1 0x1 DUP1 SSTORE JUMP JUMPDEST POP POP POP JUMP JUMPDEST PUSH2 0xA4D PUSH2 0x1319 JUMP JUMPDEST PUSH2 0xA82 PUSH32 0x0 PUSH1 0x1 PUSH1 0x1 PUSH1 0xA0 SHL SUB AND CALLER ADDRESS DUP5 PUSH2 0x172F JUMP JUMPDEST PUSH1 0x40 MLOAD PUSH4 0x95EA7B3 PUSH1 0xE0 SHL DUP2 MSTORE PUSH1 0x1 PUSH1 0x1 PUSH1 0xA0 SHL SUB PUSH32 0x0 DUP2 AND PUSH1 0x4 DUP4 ADD MSTORE PUSH1 0x24 DUP3 ADD DUP4 SWAP1 MSTORE PUSH32 0x0 AND SWAP1 PUSH4 0x95EA7B3 SWAP1 PUSH1 0x44 ADD PUSH1 0x20 PUSH1 0x40 MLOAD DUP1 DUP4 SUB DUP2 PUSH0 DUP8 GAS CALL ISZERO DUP1 ISZERO PUSH2 0xB0E JUMPI RETURNDATASIZE PUSH0 PUSH0 RETURNDATACOPY RETURNDATASIZE PUSH0 REVERT JUMPDEST POP POP POP POP PUSH1 0x40 MLOAD RETURNDATASIZE PUSH1 0x1F NOT PUSH1 0x1F DUP3 ADD AND DUP3 ADD DUP1 PUSH1 0x40 MSTORE POP DUP2 ADD SWAP1 PUSH2 0xB32 SWAP2 SWAP1 PUSH2 0x2095 JUMP JUMPDEST POP PUSH1 0x40 MLOAD PUSH4 0x6C9E025 PUSH1 0xE5 SHL DUP2 MSTORE PUSH1 0x1 PUSH1 0x1 PUSH1 0x60 SHL SUB DUP4 AND PUSH1 0x4 DUP3 ADD MSTORE PUSH1 0x24 DUP2 ADD DUP3 SWAP1 MSTORE PUSH0 SWAP1 DUP2 SWAP1 PUSH1 0x1 PUSH1 0x1 PUSH1 0xA0 SHL SUB PUSH32 0x0 AND SWAP1 PUSH4 0xD93C04A0 SWAP1 PUSH1 0x44 ADD PUSH1 0x40 DUP1 MLOAD DUP1 DUP4 SUB DUP2 PUSH0 DUP8 GAS CALL ISZERO DUP1 ISZERO PUSH2 0xBA9 JUMPI RETURNDATASIZE PUSH0 PUSH0 RETURNDATACOPY RETURNDATASIZE PUSH0 REVERT JUMPDEST POP POP POP POP PUSH1 0x40 MLOAD RETURNDATASIZE PUSH1 0x1F NOT PUSH1 0x1F DUP3 ADD AND DUP3 ADD DUP1 PUSH1 0x40 MSTORE POP DUP2 ADD SWAP1 PUSH2 0xBCD SWAP2 SWAP1 PUSH2 0x20B0 JUMP JUMPDEST SWAP2 POP SWAP2 POP PUSH0 DUP5 PUSH1 0x1 PUSH1 0x1 PUSH1 0x60 SHL SUB AND PUSH0 EQ PUSH2 0xC0B JUMPI CALLER PUSH0 SWAP1 DUP2 MSTORE PUSH1 0x5 PUSH1 0x20 MSTORE PUSH1 0x40 DUP2 KECCAK256 PUSH1 0x3 ADD DUP1 SLOAD SWAP1 SWAP2 SWAP1 PUSH2 0xC01 SWAP1 PUSH2 0x207D JUMP JUMPDEST SWAP2 DUP3 SWAP1 SSTORE POP PUSH2 0xC0D JUMP JUMPDEST PUSH0 JUMPDEST SWAP1 POP PUSH0 DUP2 GT PUSH2 0xC76 JUMPI PUSH1 0x40 MLOAD PUSH3 0x461BCD PUSH1 0xE5 SHL DUP2 MSTORE PUSH1 0x20 PUSH1 0x4 DUP3 ADD MSTORE PUSH1 0x2F PUSH1 0x24 DUP3 ADD MSTORE PUSH32 0x50726F66697453686172653A7374616B655F6964206D75737420626520677265 PUSH1 0x44 DUP3 ADD MSTORE PUSH15 0x61746572207468616E207A65726F21 PUSH1 0x88 SHL PUSH1 0x64 DUP3 ADD MSTORE PUSH1 0x84 ADD PUSH2 0x916 JUMP JUMPDEST CALLER PUSH0 DUP2 DUP2 MSTORE PUSH1 0x6 PUSH1 0x20 SWAP1 DUP2 MSTORE PUSH1 0x40 DUP1 DUP4 KECCAK256 DUP6 DUP5 MSTORE SWAP1 SWAP2 MSTORE SWAP1 KECCAK256 PUSH1 0x1 ADD DUP5 SWAP1 SSTORE PUSH2 0xCA1 SWAP1 DUP7 DUP5 DUP5 PUSH2 0x18A5 JUMP JUMPDEST POP POP POP PUSH2 0xCAD PUSH1 0x1 DUP1 SSTORE JUMP JUMPDEST POP POP JUMP JUMPDEST PUSH2 0xCB9 PUSH2 0x1319 JUMP JUMPDEST CALLER PUSH0 DUP2 DUP2 MSTORE PUSH1 0x5 PUSH1 0x20 MSTORE PUSH1 0x40 SWAP1 KECCAK256 PUSH1 0x3 ADD SLOAD DUP4 SWAP1 PUSH2 0xCD8 SWAP1 PUSH1 0x1 PUSH2 0x1FD2 JUMP JUMPDEST DUP2 LT PUSH2 0xCF6 JUMPI PUSH1 0x40 MLOAD PUSH3 0x461BCD PUSH1 0xE5 SHL DUP2 MSTORE PUSH1 0x4 ADD PUSH2 0x916 SWAP1 PUSH2 0x2046 JUMP JUMPDEST CALLER PUSH0 SWAP1 DUP2 MSTORE PUSH1 0x6 PUSH1 0x20 SWAP1 DUP2 MSTORE PUSH1 0x40 DUP1 DUP4 KECCAK256 DUP8 DUP5 MSTORE SWAP1 SWAP2 MSTORE SWAP1 KECCAK256 PUSH1 0x2 DUP2 ADD SLOAD PUSH1 0x1 PUSH1 0x1 PUSH1 0x60 SHL SUB SWAP1 DUP2 AND TIMESTAMP SWAP1 SWAP2 AND LT ISZERO PUSH2 0xD88 JUMPI PUSH1 0x40 MLOAD PUSH3 0x461BCD PUSH1 0xE5 SHL DUP2 MSTORE PUSH1 0x20 PUSH1 0x4 DUP3 ADD MSTORE PUSH1 0x2E PUSH1 0x24 DUP3 ADD MSTORE PUSH32 0x50726F66697453686172653A4561726C79205769746864726177616C20697320 PUSH1 0x44 DUP3 ADD MSTORE PUSH14 0x6E6F74207065726D697474656421 PUSH1 0x90 SHL PUSH1 0x64 DUP3 ADD MSTORE PUSH1 0x84 ADD PUSH2 0x916 JUMP JUMPDEST DUP1 SLOAD PUSH2 0xDD6 JUMPI PUSH1 0x40 MLOAD PUSH3 0x461BCD PUSH1 0xE5 SHL DUP2 MSTORE PUSH1 0x20 PUSH1 0x4 DUP3 ADD MSTORE PUSH1 0x1C PUSH1 0x24 DUP3 ADD MSTORE PUSH32 0x50726F66697453686172653A4E6F7468696E6720746F20636C61696D00000000 PUSH1 0x44 DUP3 ADD MSTORE PUSH1 0x64 ADD PUSH2 0x916 JUMP JUMPDEST PUSH1 0x1 DUP2 ADD SLOAD ISZERO PUSH2 0xED3 JUMPI DUP1 SLOAD PUSH1 0x1 DUP3 ADD SLOAD PUSH1 0x40 MLOAD PUSH4 0x379607F5 PUSH1 0xE0 SHL DUP2 MSTORE PUSH1 0x4 DUP2 ADD SWAP2 SWAP1 SWAP2 MSTORE PUSH32 0x0 PUSH1 0x1 PUSH1 0x1 PUSH1 0xA0 SHL SUB AND SWAP1 PUSH4 0x379607F5 SWAP1 PUSH1 0x24 ADD PUSH1 0x20 PUSH1 0x40 MLOAD DUP1 DUP4 SUB DUP2 PUSH0 DUP8 GAS CALL ISZERO DUP1 ISZERO PUSH2 0xE4C JUMPI RETURNDATASIZE PUSH0 PUSH0 RETURNDATACOPY RETURNDATASIZE PUSH0 REVERT JUMPDEST POP POP POP POP PUSH1 0x40 MLOAD RETURNDATASIZE PUSH1 0x1F NOT PUSH1 0x1F DUP3 ADD AND DUP3 ADD DUP1 PUSH1 0x40 MSTORE POP DUP2 ADD SWAP1 PUSH2 0xE70 SWAP2 SWAP1 PUSH2 0x20D2 JUMP JUMPDEST EQ PUSH2 0xED3 JUMPI PUSH1 0x40 MLOAD PUSH3 0x461BCD PUSH1 0xE5 SHL DUP2 MSTORE PUSH1 0x20 PUSH1 0x4 DUP3 ADD MSTORE PUSH1 0x2D PUSH1 0x24 DUP3 ADD MSTORE PUSH32 0x50726F66697453686172653A43616E6E6F7420636C61696D2078435245444920 PUSH1 0x44 DUP3 ADD MSTORE PUSH13 0x66726F6D204D6F64756C655821 PUSH1 0x98 SHL PUSH1 0x64 DUP3 ADD MSTORE PUSH1 0x84 ADD PUSH2 0x916 JUMP JUMPDEST PUSH2 0xEEC CALLER DUP3 SLOAD PUSH1 0x7 SLOAD PUSH1 0x1 PUSH1 0x1 PUSH1 0xA0 SHL SUB AND SWAP2 SWAP1 PUSH2 0x1AC2 JUMP JUMPDEST PUSH2 0xEF8 CALLER DUP3 SLOAD DUP8 PUSH2 0x1796 JUMP JUMPDEST DUP4 ISZERO PUSH2 0xCA1 JUMPI PUSH2 0xCA1 CALLER PUSH2 0x1587 JUMP JUMPDEST PUSH2 0xF10 DUP2 PUSH2 0x1673 JUMP JUMPDEST POP JUMP JUMPDEST PUSH2 0xF1B PUSH2 0x125F JUMP JUMPDEST PUSH0 DUP3 PUSH1 0x1 PUSH1 0x1 PUSH1 0x60 SHL SUB AND GT DUP1 ISZERO PUSH2 0xF48 JUMPI POP PUSH4 0xFFFFFFFF DUP2 AND PUSH2 0x3E8 LT DUP1 PUSH2 0xF48 JUMPI POP PUSH4 0xFFFFFFFF DUP2 AND ISZERO JUMPDEST PUSH2 0xF50 JUMPI PUSH0 PUSH0 REVERT JUMPDEST PUSH1 0x1 PUSH1 0x1 PUSH1 0x60 SHL SUB DUP3 AND PUSH0 DUP2 DUP2 MSTORE PUSH1 0x4 PUSH1 0x20 SWAP1 DUP2 MSTORE PUSH1 0x40 SWAP2 DUP3 SWAP1 KECCAK256 DUP1 SLOAD PUSH4 0xFFFFFFFF NOT AND PUSH4 0xFFFFFFFF DUP7 AND SWAP1 DUP2 OR SWAP1 SWAP2 SSTORE DUP3 MLOAD SWAP4 DUP5 MSTORE SWAP1 DUP4 ADD MSTORE PUSH32 0xDFDE28BA1CFAE98DB642E3246355850B37332D75F04945DA4676E38AD045386 SWAP2 ADD PUSH1 0x40 MLOAD DUP1 SWAP2 SUB SWAP1 LOG1 POP POP JUMP JUMPDEST PUSH2 0xFC1 PUSH2 0x1319 JUMP JUMPDEST PUSH0 DUP3 GT PUSH2 0x1004 JUMPI PUSH1 0x40 MLOAD PUSH3 0x461BCD PUSH1 0xE5 SHL DUP2 MSTORE PUSH1 0x20 PUSH1 0x4 DUP3 ADD MSTORE PUSH1 0x11 PUSH1 0x24 DUP3 ADD MSTORE PUSH17 0x43616E6E6F7420756E7374616B65203021 PUSH1 0x78 SHL PUSH1 0x44 DUP3 ADD MSTORE PUSH1 0x64 ADD PUSH2 0x916 JUMP JUMPDEST PUSH2 0x101B CALLER PUSH1 0x7 SLOAD PUSH1 0x1 PUSH1 0x1 PUSH1 0xA0 SHL SUB AND SWAP1 DUP5 PUSH2 0x1AC2 JUMP JUMPDEST PUSH2 0x1026 CALLER DUP4 PUSH0 PUSH2 0x1796 JUMP JUMPDEST DUP1 ISZERO PUSH2 0x1035 JUMPI PUSH2 0x1035 CALLER PUSH2 0x1587 JUMP JUMPDEST PUSH2 0xCAD PUSH1 0x1 DUP1 SSTORE JUMP JUMPDEST PUSH1 0x1 PUSH1 0x1 PUSH1 0xA0 SHL SUB DUP3 AND PUSH0 SWAP1 DUP2 MSTORE PUSH1 0x5 PUSH1 0x20 MSTORE PUSH1 0x40 DUP2 KECCAK256 PUSH1 0x3 ADD SLOAD DUP2 SWAP1 DUP2 SWAP1 DUP2 SWAP1 DUP7 SWAP1 DUP7 SWAP1 PUSH2 0x106E SWAP1 PUSH1 0x1 PUSH2 0x1FD2 JUMP JUMPDEST DUP2 LT PUSH2 0x108C JUMPI PUSH1 0x40 MLOAD PUSH3 0x461BCD PUSH1 0xE5 SHL DUP2 MSTORE PUSH1 0x4 ADD PUSH2 0x916 SWAP1 PUSH2 0x2046 JUMP JUMPDEST POP POP POP POP PUSH1 0x1 PUSH1 0x1 PUSH1 0xA0 SHL SUB SWAP4 SWAP1 SWAP4 AND PUSH0 SWAP1 DUP2 MSTORE PUSH1 0x6 PUSH1 0x20 SWAP1 DUP2 MSTORE PUSH1 0x40 DUP1 DUP4 KECCAK256 SWAP5 DUP4 MSTORE SWAP4 SWAP1 MSTORE SWAP2 SWAP1 SWAP2 KECCAK256 DUP1 SLOAD PUSH1 0x1 DUP3 ADD SLOAD PUSH1 0x2 SWAP1 SWAP3 ADD SLOAD SWAP1 SWAP5 SWAP2 SWAP4 POP PUSH1 0x1 PUSH1 0x1 PUSH1 0x60 SHL SUB DUP2 AND SWAP3 POP PUSH1 0x1 PUSH1 0x60 SHL SWAP1 DIV PUSH4 0xFFFFFFFF AND SWAP1 JUMP JUMPDEST PUSH2 0x10EC PUSH2 0x125F JUMP JUMPDEST PUSH0 DUP2 GT PUSH2 0x110B JUMPI PUSH1 0x40 MLOAD PUSH3 0x461BCD PUSH1 0xE5 SHL DUP2 MSTORE PUSH1 0x4 ADD PUSH2 0x916 SWAP1 PUSH2 0x20E9 JUMP JUMPDEST PUSH1 0x8 SLOAD PUSH2 0x112C SWAP1 PUSH3 0x34BC00 SWAP1 PUSH1 0x1 PUSH1 0xA0 SHL SWAP1 DIV PUSH1 0x1 PUSH1 0x1 PUSH1 0x60 SHL SUB AND PUSH2 0x1FF8 JUMP JUMPDEST PUSH1 0x1 PUSH1 0x1 PUSH1 0x60 SHL SUB AND TIMESTAMP PUSH1 0x1 PUSH1 0x1 PUSH1 0x60 SHL SUB AND LT ISZERO DUP1 PUSH2 0x114C JUMPI POP PUSH1 0x9 SLOAD ISZERO JUMPDEST PUSH2 0x1154 JUMPI PUSH0 PUSH0 REVERT JUMPDEST PUSH1 0x8 SLOAD PUSH2 0x116B SWAP1 PUSH1 0x1 PUSH1 0x1 PUSH1 0xA0 SHL SUB AND DUP4 DUP4 PUSH2 0x1AC2 JUMP JUMPDEST DUP2 PUSH1 0x1 PUSH1 0x1 PUSH1 0xA0 SHL SUB AND PUSH32 0x1D3EEE4CA001CFF39EEC6EC7615AACF2F2BD61791273830728BA00CCBD6E1337 DUP3 PUSH1 0x40 MLOAD PUSH2 0x11A6 SWAP2 DUP2 MSTORE PUSH1 0x20 ADD SWAP1 JUMP JUMPDEST PUSH1 0x40 MLOAD DUP1 SWAP2 SUB SWAP1 LOG2 POP POP JUMP JUMPDEST PUSH2 0x11BA PUSH2 0x1319 JUMP JUMPDEST PUSH2 0x11D2 CALLER PUSH1 0x7 SLOAD PUSH1 0x1 PUSH1 0x1 PUSH1 0xA0 SHL SUB AND SWAP1 ADDRESS DUP5 PUSH2 0x172F JUMP JUMPDEST PUSH0 PUSH1 0x1 PUSH1 0x1 PUSH1 0x60 SHL SUB DUP4 AND ISZERO PUSH2 0x120B JUMPI CALLER PUSH0 SWAP1 DUP2 MSTORE PUSH1 0x5 PUSH1 0x20 MSTORE PUSH1 0x40 DUP2 KECCAK256 PUSH1 0x3 ADD DUP1 SLOAD SWAP1 SWAP2 SWAP1 PUSH2 0x1201 SWAP1 PUSH2 0x207D JUMP JUMPDEST SWAP2 DUP3 SWAP1 SSTORE POP PUSH2 0x120D JUMP JUMPDEST PUSH0 JUMPDEST SWAP1 POP PUSH2 0x121B CALLER DUP5 DUP5 DUP5 PUSH2 0x18A5 JUMP JUMPDEST POP PUSH2 0xCAD PUSH1 0x1 DUP1 SSTORE JUMP JUMPDEST PUSH2 0x122D PUSH2 0x125F JUMP JUMPDEST PUSH1 0x1 PUSH1 0x1 PUSH1 0xA0 SHL SUB DUP2 AND PUSH2 0x1256 JUMPI PUSH1 0x40 MLOAD PUSH4 0x1E4FBDF7 PUSH1 0xE0 SHL DUP2 MSTORE PUSH0 PUSH1 0x4 DUP3 ADD MSTORE PUSH1 0x24 ADD PUSH2 0x916 JUMP JUMPDEST PUSH2 0xF10 DUP2 PUSH2 0x16E0 JUMP JUMPDEST PUSH0 SLOAD PUSH1 0x1 PUSH1 0x1 PUSH1 0xA0 SHL SUB AND CALLER EQ PUSH2 0x6F1 JUMPI PUSH1 0x40 MLOAD PUSH4 0x118CDAA7 PUSH1 0xE0 SHL DUP2 MSTORE CALLER PUSH1 0x4 DUP3 ADD MSTORE PUSH1 0x24 ADD PUSH2 0x916 JUMP JUMPDEST PUSH1 0x60 PUSH2 0x1299 DUP3 PUSH2 0x1AF3 PUSH2 0x1AF7 JUMP JUMPDEST POP SWAP1 SWAP2 SWAP1 POP JUMP JUMPDEST PUSH0 DUP3 DUP3 XOR DUP3 DUP5 LT MUL DUP3 XOR JUMPDEST SWAP1 POP JUMPDEST SWAP3 SWAP2 POP POP JUMP JUMPDEST PUSH0 DUP3 DUP3 XOR DUP3 DUP5 GT MUL DUP3 XOR PUSH2 0x12AB JUMP JUMPDEST PUSH0 PUSH0 PUSH1 0x3 PUSH1 0x1 PUSH2 0x12D4 PUSH1 0x2 DUP7 PUSH2 0x1618 JUMP JUMPDEST PUSH2 0x12DE SWAP2 SWAP1 PUSH2 0x1FE5 JUMP JUMPDEST DUP2 SLOAD DUP2 LT PUSH2 0x12EE JUMPI PUSH2 0x12EE PUSH2 0x1EF4 JUMP JUMPDEST PUSH0 SWAP2 DUP3 MSTORE PUSH1 0x20 SWAP1 SWAP2 KECCAK256 ADD SLOAD SWAP1 POP PUSH2 0x3E8 PUSH2 0x1308 DUP5 DUP4 PUSH2 0x1F9C JUMP JUMPDEST PUSH2 0x1312 SWAP2 SWAP1 PUSH2 0x1FB3 JUMP JUMPDEST SWAP4 SWAP3 POP POP POP JUMP JUMPDEST PUSH1 0x2 PUSH1 0x1 SLOAD SUB PUSH2 0x133C JUMPI PUSH1 0x40 MLOAD PUSH4 0x3EE5AEB5 PUSH1 0xE0 SHL DUP2 MSTORE PUSH1 0x4 ADD PUSH1 0x40 MLOAD DUP1 SWAP2 SUB SWAP1 REVERT JUMPDEST PUSH1 0x2 PUSH1 0x1 SSTORE JUMP JUMPDEST PUSH1 0xC SLOAD PUSH0 SWAP1 PUSH2 0x135E SWAP1 PUSH1 0x1 PUSH1 0x1 PUSH1 0x60 SHL SUB AND PUSH2 0x602 TIMESTAMP PUSH2 0x5E5 JUMP JUMPDEST PUSH1 0x9 SLOAD SWAP1 SWAP2 POP ISZERO DUP1 ISZERO SWAP1 PUSH2 0x1380 JUMPI POP PUSH1 0xC SLOAD PUSH1 0x1 PUSH1 0x1 PUSH1 0x60 SHL SUB SWAP1 DUP2 AND SWAP1 DUP3 AND GT JUMPDEST ISZERO PUSH2 0x13D5 JUMPI PUSH1 0x9 SLOAD PUSH1 0xA SLOAD PUSH1 0xC SLOAD PUSH2 0x13A1 SWAP1 PUSH1 0x1 PUSH1 0x1 PUSH1 0x60 SHL SUB AND DUP5 PUSH2 0x1F7D JUMP JUMPDEST PUSH1 0x1 PUSH1 0x1 PUSH1 0x60 SHL SUB AND PUSH2 0x13B4 SWAP2 SWAP1 PUSH2 0x1F9C JUMP JUMPDEST PUSH2 0x13BE SWAP2 SWAP1 PUSH2 0x1FB3 JUMP JUMPDEST PUSH1 0xB DUP1 SLOAD PUSH0 SWAP1 PUSH2 0x13CF SWAP1 DUP5 SWAP1 PUSH2 0x1FD2 JUMP JUMPDEST SWAP1 SWAP2 SSTORE POP POP JUMPDEST PUSH1 0xC DUP1 SLOAD PUSH12 0xFFFFFFFFFFFFFFFFFFFFFFFF NOT AND PUSH1 0x1 PUSH1 0x1 PUSH1 0x60 SHL SUB DUP4 AND OR SWAP1 SSTORE PUSH1 0x1 PUSH1 0x1 PUSH1 0xA0 SHL SUB DUP5 AND ISZERO PUSH2 0x1581 JUMPI PUSH1 0x1 PUSH1 0x1 PUSH1 0xA0 SHL SUB DUP5 AND PUSH0 SWAP1 DUP2 MSTORE PUSH1 0x5 PUSH1 0x20 MSTORE PUSH1 0x40 DUP2 KECCAK256 DUP1 SLOAD SWAP1 SWAP2 SWAP1 PUSH2 0x1429 SWAP1 PUSH2 0x12C3 JUMP JUMPDEST DUP3 SLOAD SWAP1 SWAP2 POP ISZERO PUSH2 0x147B JUMPI PUSH1 0x2 DUP3 ADD SLOAD PUSH1 0xB SLOAD PUSH9 0x3635C9ADC5DEA00000 SWAP2 PUSH2 0x144F SWAP2 PUSH2 0x1FE5 JUMP JUMPDEST PUSH2 0x1459 SWAP1 DUP4 PUSH2 0x1F9C JUMP JUMPDEST PUSH2 0x1463 SWAP2 SWAP1 PUSH2 0x1FB3 JUMP JUMPDEST DUP3 PUSH1 0x1 ADD PUSH0 DUP3 DUP3 SLOAD PUSH2 0x1475 SWAP2 SWAP1 PUSH2 0x1FD2 JUMP JUMPDEST SWAP1 SWAP2 SSTORE POP POP JUMPDEST PUSH1 0xB SLOAD PUSH1 0x2 DUP4 ADD SSTORE DUP2 SLOAD DUP5 SWAP1 PUSH2 0x1492 SWAP1 DUP8 SWAP1 PUSH2 0x1FD2 JUMP JUMPDEST PUSH2 0x149C SWAP2 SWAP1 PUSH2 0x1FE5 JUMP JUMPDEST DUP1 DUP4 SSTORE DUP2 SWAP1 PUSH2 0x14AA SWAP1 PUSH2 0x12C3 JUMP JUMPDEST PUSH1 0x9 SLOAD PUSH2 0x14B7 SWAP2 SWAP1 PUSH2 0x1FD2 JUMP JUMPDEST PUSH2 0x14C1 SWAP2 SWAP1 PUSH2 0x1FE5 JUMP JUMPDEST PUSH1 0x9 SSTORE DUP2 SLOAD PUSH1 0x1 DUP4 ADD SLOAD PUSH1 0x2 DUP5 ADD SLOAD PUSH1 0x40 DUP1 MLOAD SWAP4 DUP5 MSTORE PUSH1 0x20 DUP5 ADD SWAP3 SWAP1 SWAP3 MSTORE SWAP1 DUP3 ADD MSTORE PUSH1 0x1 PUSH1 0x1 PUSH1 0xA0 SHL SUB DUP8 AND SWAP1 PUSH32 0xF1DA46A1CA3E37613208B2A3D7EC556866482D77A0005D6168D73270CED6B26A SWAP1 PUSH1 0x60 ADD PUSH1 0x40 MLOAD DUP1 SWAP2 SUB SWAP1 LOG2 PUSH1 0x9 SLOAD PUSH1 0xA SLOAD PUSH1 0xB SLOAD PUSH1 0xC SLOAD PUSH1 0x8 SLOAD PUSH1 0x40 MLOAD PUSH32 0xE111F67A87ACE56A1496291914B8E0DA23748FFDDAA8BC98D0F4D4DFB51796A5 SWAP6 PUSH2 0x1576 SWAP6 SWAP1 SWAP5 SWAP1 SWAP4 SWAP1 SWAP3 PUSH1 0x1 PUSH1 0x1 PUSH1 0x60 SHL SUB SWAP2 DUP3 AND SWAP3 PUSH1 0x1 PUSH1 0xA0 SHL SWAP1 SWAP2 DIV SWAP1 SWAP2 AND SWAP1 PUSH2 0x2017 JUMP JUMPDEST PUSH1 0x40 MLOAD DUP1 SWAP2 SUB SWAP1 LOG1 POP POP JUMPDEST POP POP POP POP JUMP JUMPDEST PUSH1 0x1 PUSH1 0x1 PUSH1 0xA0 SHL SUB DUP2 AND PUSH0 SWAP1 DUP2 MSTORE PUSH1 0x5 PUSH1 0x20 MSTORE PUSH1 0x40 SWAP1 KECCAK256 PUSH1 0x1 DUP2 ADD SLOAD ISZERO PUSH2 0xCAD JUMPI PUSH1 0x1 DUP2 ADD SLOAD PUSH1 0x8 SLOAD PUSH2 0x15C7 SWAP2 PUSH1 0x1 PUSH1 0x1 PUSH1 0xA0 SHL SUB SWAP1 SWAP2 AND SWAP1 DUP5 SWAP1 PUSH2 0x1AC2 JUMP JUMPDEST DUP2 PUSH1 0x1 PUSH1 0x1 PUSH1 0xA0 SHL SUB AND PUSH32 0xE2403640BA68FED3A2F88B7557551D1993F84B99BB10FF833F0CF8DB0C5E0486 DUP3 PUSH1 0x1 ADD SLOAD PUSH1 0x40 MLOAD PUSH2 0x1606 SWAP2 DUP2 MSTORE PUSH1 0x20 ADD SWAP1 JUMP JUMPDEST PUSH1 0x40 MLOAD DUP1 SWAP2 SUB SWAP1 LOG2 PUSH0 PUSH1 0x1 DUP3 ADD SSTORE POP POP JUMP JUMPDEST DUP2 SLOAD PUSH0 SWAP1 DUP2 SWAP1 DUP1 DUP3 SUB PUSH2 0x162F JUMPI PUSH0 SWAP3 POP POP POP PUSH2 0x12AE JUMP JUMPDEST DUP1 DUP3 LT ISZERO PUSH2 0x166B JUMPI PUSH0 PUSH2 0x1642 DUP4 DUP4 PUSH2 0x1B0F JUMP JUMPDEST SWAP1 POP DUP5 PUSH2 0x164F DUP8 DUP4 PUSH2 0x1B29 JUMP JUMPDEST SLOAD GT ISZERO PUSH2 0x165E JUMPI DUP1 SWAP2 POP PUSH2 0x1665 JUMP JUMPDEST DUP1 PUSH1 0x1 ADD SWAP3 POP JUMPDEST POP PUSH2 0x162F JUMP JUMPDEST POP SWAP4 SWAP3 POP POP POP JUMP JUMPDEST PUSH0 DUP2 GT PUSH2 0x1692 JUMPI PUSH1 0x40 MLOAD PUSH3 0x461BCD PUSH1 0xE5 SHL DUP2 MSTORE PUSH1 0x4 ADD PUSH2 0x916 SWAP1 PUSH2 0x20E9 JUMP JUMPDEST PUSH2 0x16AA CALLER PUSH1 0x8 SLOAD PUSH1 0x1 PUSH1 0x1 PUSH1 0xA0 SHL SUB AND SWAP1 ADDRESS DUP5 PUSH2 0x172F JUMP JUMPDEST PUSH1 0x40 MLOAD DUP2 DUP2 MSTORE PUSH32 0xDE88A922E0D3B88B24E9623EFEB464919C6BF9F66857A65E2BFCF2CE87A9433D SWAP1 PUSH1 0x20 ADD PUSH1 0x40 MLOAD DUP1 SWAP2 SUB SWAP1 LOG1 POP JUMP JUMPDEST PUSH0 DUP1 SLOAD PUSH1 0x1 PUSH1 0x1 PUSH1 0xA0 SHL SUB DUP4 DUP2 AND PUSH1 0x1 PUSH1 0x1 PUSH1 0xA0 SHL SUB NOT DUP4 AND DUP2 OR DUP5 SSTORE PUSH1 0x40 MLOAD SWAP2 SWAP1 SWAP3 AND SWAP3 DUP4 SWAP2 PUSH32 0x8BE0079C531659141344CD1FD0A4F28419497F9722A3DAAFE3B4186F6B6457E0 SWAP2 SWAP1 LOG3 POP POP JUMP JUMPDEST PUSH1 0x40 MLOAD PUSH1 0x1 PUSH1 0x1 PUSH1 0xA0 SHL SUB DUP5 DUP2 AND PUSH1 0x24 DUP4 ADD MSTORE DUP4 DUP2 AND PUSH1 0x44 DUP4 ADD MSTORE PUSH1 0x64 DUP3 ADD DUP4 SWAP1 MSTORE PUSH2 0x1581 SWAP2 DUP7 SWAP2 DUP3 AND SWAP1 PUSH4 0x23B872DD SWAP1 PUSH1 0x84 ADD JUMPDEST PUSH1 0x40 MLOAD PUSH1 0x20 DUP2 DUP4 SUB SUB DUP2 MSTORE SWAP1 PUSH1 0x40 MSTORE SWAP2 POP PUSH1 0xE0 SHL PUSH1 0x20 DUP3 ADD DUP1 MLOAD PUSH1 0x1 PUSH1 0x1 PUSH1 0xE0 SHL SUB DUP4 DUP2 DUP4 AND OR DUP4 MSTORE POP POP POP POP PUSH2 0x1B50 JUMP JUMPDEST PUSH1 0x1 PUSH1 0x1 PUSH1 0xA0 SHL SUB DUP4 AND PUSH0 SWAP1 DUP2 MSTORE PUSH1 0x6 PUSH1 0x20 SWAP1 DUP2 MSTORE PUSH1 0x40 DUP1 DUP4 KECCAK256 DUP5 DUP5 MSTORE SWAP1 SWAP2 MSTORE SWAP1 KECCAK256 DUP1 SLOAD DUP4 GT ISZERO PUSH2 0x1813 JUMPI PUSH1 0x40 MLOAD PUSH3 0x461BCD PUSH1 0xE5 SHL DUP2 MSTORE PUSH1 0x20 PUSH1 0x4 DUP3 ADD MSTORE PUSH1 0x21 PUSH1 0x24 DUP3 ADD MSTORE PUSH32 0x50726F66697453686172653A496E73756666696369656E742062616C616E6365 PUSH1 0x44 DUP3 ADD MSTORE PUSH1 0x21 PUSH1 0xF8 SHL PUSH1 0x64 DUP3 ADD MSTORE PUSH1 0x84 ADD PUSH2 0x916 JUMP JUMPDEST PUSH1 0x2 DUP2 ADD SLOAD PUSH0 SWAP1 PUSH2 0x3E8 SWAP1 PUSH2 0x1835 SWAP1 PUSH1 0x1 PUSH1 0x60 SHL SWAP1 DIV PUSH4 0xFFFFFFFF AND DUP7 PUSH2 0x1F9C JUMP JUMPDEST PUSH2 0x183F SWAP2 SWAP1 PUSH2 0x1FB3 JUMP JUMPDEST SWAP1 POP PUSH2 0x184C DUP6 PUSH0 DUP4 PUSH2 0x1343 JUMP JUMPDEST DUP4 DUP3 PUSH0 ADD PUSH0 DUP3 DUP3 SLOAD PUSH2 0x185E SWAP2 SWAP1 PUSH2 0x1FE5 JUMP JUMPDEST SWAP1 SWAP2 SSTORE POP POP PUSH1 0x40 DUP1 MLOAD DUP5 DUP2 MSTORE PUSH1 0x20 DUP2 ADD DUP7 SWAP1 MSTORE CALLER SWAP2 PUSH32 0x459D5AEF2C549903C1EEB1736F5728845D5CCF82537DDD5BF8035795EEE89263 SWAP2 ADD PUSH1 0x40 MLOAD DUP1 SWAP2 SUB SWAP1 LOG2 POP POP POP POP POP JUMP JUMPDEST PUSH1 0x7 SLOAD PUSH1 0x1 PUSH1 0xA0 SHL SWAP1 DIV PUSH1 0x1 PUSH1 0x1 PUSH1 0x60 SHL SUB AND TIMESTAMP PUSH1 0x1 PUSH1 0x1 PUSH1 0x60 SHL SUB AND LT ISZERO DUP1 ISZERO PUSH2 0x18EA JUMPI POP PUSH1 0x8 SLOAD PUSH1 0x1 PUSH1 0xA0 SHL SWAP1 DIV PUSH1 0x1 PUSH1 0x1 PUSH1 0x60 SHL SUB AND TIMESTAMP PUSH1 0x1 PUSH1 0x1 PUSH1 0x60 SHL SUB AND LT JUMPDEST PUSH2 0x1936 JUMPI PUSH1 0x40 MLOAD PUSH3 0x461BCD PUSH1 0xE5 SHL DUP2 MSTORE PUSH1 0x20 PUSH1 0x4 DUP3 ADD MSTORE PUSH1 0x1F PUSH1 0x24 DUP3 ADD MSTORE PUSH32 0x50726F66697453686172653A506F6F6C206973206E6F74206163746976652100 PUSH1 0x44 DUP3 ADD MSTORE PUSH1 0x64 ADD PUSH2 0x916 JUMP JUMPDEST PUSH1 0x1 PUSH1 0x1 PUSH1 0x60 SHL SUB DUP4 AND PUSH0 SWAP1 DUP2 MSTORE PUSH1 0x4 PUSH1 0x20 MSTORE PUSH1 0x40 DUP2 KECCAK256 SLOAD PUSH4 0xFFFFFFFF AND SWAP1 PUSH2 0x3E8 PUSH2 0x1962 DUP4 DUP7 PUSH2 0x1F9C JUMP JUMPDEST PUSH2 0x196C SWAP2 SWAP1 PUSH2 0x1FB3 JUMP JUMPDEST SWAP1 POP PUSH0 DUP2 GT PUSH2 0x19E3 JUMPI PUSH1 0x40 MLOAD PUSH3 0x461BCD PUSH1 0xE5 SHL DUP2 MSTORE PUSH1 0x20 PUSH1 0x4 DUP3 ADD MSTORE PUSH1 0x39 PUSH1 0x24 DUP3 ADD MSTORE PUSH32 0x50726F66697453686172653A616D6F756E7420616E64206D756C7469706C6965 PUSH1 0x44 DUP3 ADD MSTORE PUSH32 0x72206D7573742062652067726561746572207468616E20302100000000000000 PUSH1 0x64 DUP3 ADD MSTORE PUSH1 0x84 ADD PUSH2 0x916 JUMP JUMPDEST PUSH2 0x19EE DUP7 DUP3 PUSH0 PUSH2 0x1343 JUMP JUMPDEST CALLER PUSH0 SWAP1 DUP2 MSTORE PUSH1 0x6 PUSH1 0x20 SWAP1 DUP2 MSTORE PUSH1 0x40 DUP1 DUP4 KECCAK256 DUP7 DUP5 MSTORE SWAP1 SWAP2 MSTORE DUP2 KECCAK256 DUP1 SLOAD SWAP1 SWAP2 DUP7 SWAP2 DUP4 SWAP2 SWAP1 PUSH2 0x1A1B SWAP1 DUP5 SWAP1 PUSH2 0x1FD2 JUMP JUMPDEST SWAP1 SWAP2 SSTORE POP PUSH2 0x1A2B SWAP1 POP DUP7 TIMESTAMP PUSH2 0x1FF8 JUMP JUMPDEST PUSH1 0x2 DUP3 ADD DUP1 SLOAD PUSH4 0xFFFFFFFF DUP7 AND PUSH1 0x1 PUSH1 0x60 SHL MUL PUSH16 0xFFFFFFFFFFFFFFFFFFFFFFFFFFFFFFFF NOT SWAP1 SWAP2 AND PUSH1 0x1 PUSH1 0x1 PUSH1 0x60 SHL SUB SWAP4 DUP5 AND OR OR SWAP1 DUP2 SWAP1 SSTORE DUP3 SLOAD PUSH1 0x1 DUP5 ADD SLOAD PUSH1 0x40 MLOAD PUSH1 0x1 PUSH1 0x1 PUSH1 0xA0 SHL SUB DUP13 AND SWAP5 PUSH32 0xFB323914BFE99940926CD03FE7969535604DD9A3C82B28853E738744DD6F9AAA SWAP5 PUSH2 0x1AB1 SWAP5 DUP12 SWAP5 SWAP1 SWAP4 SWAP1 SWAP3 SWAP2 SWAP1 SWAP2 AND SWAP1 DUP14 SWAP1 PUSH2 0x2017 JUMP JUMPDEST PUSH1 0x40 MLOAD DUP1 SWAP2 SUB SWAP1 LOG2 POP POP POP POP POP POP POP JUMP JUMPDEST PUSH1 0x40 MLOAD PUSH1 0x1 PUSH1 0x1 PUSH1 0xA0 SHL SUB DUP4 DUP2 AND PUSH1 0x24 DUP4 ADD MSTORE PUSH1 0x44 DUP3 ADD DUP4 SWAP1 MSTORE PUSH2 0xA40 SWAP2 DUP6 SWAP2 DUP3 AND SWAP1 PUSH4 0xA9059CBB SWAP1 PUSH1 0x64 ADD PUSH2 0x1764 JUMP JUMPDEST GT SWAP1 JUMP JUMPDEST PUSH1 0x60 PUSH2 0x1299 PUSH1 0x20 DUP5 ADD PUSH2 0x1B09 DUP6 PUSH2 0x1BBC JUMP JUMPDEST DUP5 PUSH2 0x1BD3 JUMP JUMPDEST PUSH0 PUSH2 0x1B1D PUSH1 0x2 DUP5 DUP5 XOR PUSH2 0x1FB3 JUMP JUMPDEST PUSH2 0x12AB SWAP1 DUP5 DUP5 AND PUSH2 0x1FD2 JUMP JUMPDEST PUSH0 DUP3 PUSH2 0x1B48 PUSH2 0x1B45 DUP5 PUSH2 0x1B41 DUP5 PUSH0 SWAP1 DUP2 MSTORE PUSH1 0x20 SWAP1 KECCAK256 SWAP1 JUMP JUMPDEST ADD SWAP1 JUMP JUMPDEST SWAP1 JUMP JUMPDEST SWAP5 SWAP4 POP POP POP POP JUMP JUMPDEST PUSH0 PUSH0 PUSH1 0x20 PUSH0 DUP5 MLOAD PUSH1 0x20 DUP7 ADD PUSH0 DUP9 GAS CALL DUP1 PUSH2 0x1B6F JUMPI PUSH1 0x40 MLOAD RETURNDATASIZE PUSH0 DUP3 RETURNDATACOPY RETURNDATASIZE DUP2 REVERT JUMPDEST POP POP PUSH0 MLOAD RETURNDATASIZE SWAP2 POP DUP2 ISZERO PUSH2 0x1B86 JUMPI DUP1 PUSH1 0x1 EQ ISZERO PUSH2 0x1B93 JUMP JUMPDEST PUSH1 0x1 PUSH1 0x1 PUSH1 0xA0 SHL SUB DUP5 AND EXTCODESIZE ISZERO JUMPDEST ISZERO PUSH2 0x1581 JUMPI PUSH1 0x40 MLOAD PUSH4 0x5274AFE7 PUSH1 0xE0 SHL DUP2 MSTORE PUSH1 0x1 PUSH1 0x1 PUSH1 0xA0 SHL SUB DUP6 AND PUSH1 0x4 DUP3 ADD MSTORE PUSH1 0x24 ADD PUSH2 0x916 JUMP JUMPDEST PUSH0 DUP2 MLOAD PUSH1 0x20 MUL PUSH2 0x1BCC DUP4 PUSH1 0x20 ADD SWAP1 JUMP JUMPDEST ADD SWAP3 SWAP2 POP POP JUMP JUMPDEST PUSH1 0x40 DUP4 DUP4 SUB LT ISZERO PUSH2 0x1BE3 JUMPI POP POP POP JUMP JUMPDEST PUSH0 PUSH2 0x1BEC DUP5 MLOAD SWAP1 JUMP JUMPDEST SWAP1 POP DUP4 PUSH1 0x20 DUP2 ADD JUMPDEST DUP5 DUP2 LT ISZERO PUSH2 0x1C2E JUMPI PUSH2 0x1C11 PUSH2 0x1C07 DUP3 MLOAD SWAP1 JUMP JUMPDEST DUP5 DUP7 PUSH4 0xFFFFFFFF AND JUMP JUMPDEST ISZERO PUSH2 0x1C26 JUMPI PUSH1 0x20 SWAP2 SWAP1 SWAP2 ADD DUP1 MLOAD DUP3 MLOAD DUP3 MSTORE DUP3 MSTORE SWAP1 JUMPDEST PUSH1 0x20 ADD PUSH2 0x1BF4 JUMP JUMPDEST POP DUP5 MLOAD DUP2 MLOAD DUP7 MSTORE DUP2 MSTORE PUSH2 0x1C42 DUP6 DUP3 DUP6 PUSH2 0x1BD3 JUMP JUMPDEST PUSH2 0x1C50 DUP2 PUSH1 0x20 ADD DUP6 DUP6 PUSH2 0x1BD3 JUMP JUMPDEST POP POP POP POP POP JUMP JUMPDEST DUP3 DUP1 SLOAD DUP3 DUP3 SSTORE SWAP1 PUSH0 MSTORE PUSH1 0x20 PUSH0 KECCAK256 SWAP1 DUP2 ADD SWAP3 DUP3 ISZERO PUSH2 0x1C90 JUMPI SWAP2 PUSH1 0x20 MUL DUP3 ADD JUMPDEST DUP3 DUP2 GT ISZERO PUSH2 0x1C90 JUMPI DUP3 MLOAD DUP3 SSTORE SWAP2 PUSH1 0x20 ADD SWAP2 SWAP1 PUSH1 0x1 ADD SWAP1 PUSH2 0x1C75 JUMP JUMPDEST POP PUSH2 0x1C9C SWAP3 SWAP2 POP PUSH2 0x1CA0 JUMP JUMPDEST POP SWAP1 JUMP JUMPDEST JUMPDEST DUP1 DUP3 GT ISZERO PUSH2 0x1C9C JUMPI PUSH0 DUP2 SSTORE PUSH1 0x1 ADD PUSH2 0x1CA1 JUMP JUMPDEST PUSH0 PUSH0 DUP4 PUSH1 0x1F DUP5 ADD SLT PUSH2 0x1CC4 JUMPI PUSH0 PUSH0 REVERT JUMPDEST POP DUP2 CALLDATALOAD PUSH8 0xFFFFFFFFFFFFFFFF DUP2 GT ISZERO PUSH2 0x1CDB JUMPI PUSH0 PUSH0 REVERT JUMPDEST PUSH1 0x20 DUP4 ADD SWAP2 POP DUP4 PUSH1 0x20 DUP3 PUSH1 0x5 SHL DUP6 ADD ADD GT ISZERO PUSH2 0x1CF5 JUMPI PUSH0 PUSH0 REVERT JUMPDEST SWAP3 POP SWAP3 SWAP1 POP JUMP JUMPDEST PUSH0 PUSH0 PUSH0 PUSH0 PUSH1 0x40 DUP6 DUP8 SUB SLT ISZERO PUSH2 0x1D0F JUMPI PUSH0 PUSH0 REVERT JUMPDEST DUP5 CALLDATALOAD PUSH8 0xFFFFFFFFFFFFFFFF DUP2 GT ISZERO PUSH2 0x1D25 JUMPI PUSH0 PUSH0 REVERT JUMPDEST PUSH2 0x1D31 DUP8 DUP3 DUP9 ADD PUSH2 0x1CB4 JUMP JUMPDEST SWAP1 SWAP6 POP SWAP4 POP POP PUSH1 0x20 DUP6 ADD CALLDATALOAD PUSH8 0xFFFFFFFFFFFFFFFF DUP2 GT ISZERO PUSH2 0x1D50 JUMPI PUSH0 PUSH0 REVERT JUMPDEST PUSH2 0x1D5C DUP8 DUP3 DUP9 ADD PUSH2 0x1CB4 JUMP JUMPDEST SWAP6 SWAP9 SWAP5 SWAP8 POP SWAP6 POP POP POP POP JUMP JUMPDEST DUP1 CALLDATALOAD PUSH1 0x1 PUSH1 0x1 PUSH1 0xA0 SHL SUB DUP2 AND DUP2 EQ PUSH2 0x1D7E JUMPI PUSH0 PUSH0 REVERT JUMPDEST SWAP2 SWAP1 POP JUMP JUMPDEST PUSH0 PUSH1 0x20 DUP3 DUP5 SUB SLT ISZERO PUSH2 0x1D93 JUMPI PUSH0 PUSH0 REVERT JUMPDEST PUSH2 0x12AB DUP3 PUSH2 0x1D68 JUMP JUMPDEST DUP1 CALLDATALOAD PUSH1 0x1 PUSH1 0x1 PUSH1 0x60 SHL SUB DUP2 AND DUP2 EQ PUSH2 0x1D7E JUMPI PUSH0 PUSH0 REVERT JUMPDEST PUSH0 PUSH0 PUSH0 PUSH1 0x60 DUP5 DUP7 SUB SLT ISZERO PUSH2 0x1DC4 JUMPI PUSH0 PUSH0 REVERT JUMPDEST PUSH2 0x1DCD DUP5 PUSH2 0x1D9C JUMP JUMPDEST SWAP6 PUSH1 0x20 DUP6 ADD CALLDATALOAD SWAP6 POP PUSH1 0x40 SWAP1 SWAP5 ADD CALLDATALOAD SWAP4 SWAP3 POP POP POP JUMP JUMPDEST PUSH0 PUSH1 0x20 DUP3 DUP5 SUB SLT ISZERO PUSH2 0x1DF2 JUMPI PUSH0 PUSH0 REVERT JUMPDEST PUSH2 0x12AB DUP3 PUSH2 0x1D9C JUMP JUMPDEST PUSH0 PUSH0 PUSH0 PUSH1 0x60 DUP5 DUP7 SUB SLT ISZERO PUSH2 0x1E0D JUMPI PUSH0 PUSH0 REVERT JUMPDEST DUP4 CALLDATALOAD SWAP3 POP PUSH2 0x1E1D PUSH1 0x20 DUP6 ADD PUSH2 0x1D9C JUMP JUMPDEST SWAP3 SWAP6 SWAP3 SWAP5 POP POP POP PUSH1 0x40 SWAP2 SWAP1 SWAP2 ADD CALLDATALOAD SWAP1 JUMP JUMPDEST PUSH0 PUSH0 PUSH1 0x40 DUP4 DUP6 SUB SLT ISZERO PUSH2 0x1E3F JUMPI PUSH0 PUSH0 REVERT JUMPDEST PUSH2 0x1E48 DUP4 PUSH2 0x1D9C JUMP JUMPDEST SWAP5 PUSH1 0x20 SWAP4 SWAP1 SWAP4 ADD CALLDATALOAD SWAP4 POP POP POP JUMP JUMPDEST DUP1 ISZERO ISZERO DUP2 EQ PUSH2 0xF10 JUMPI PUSH0 PUSH0 REVERT JUMPDEST PUSH0 PUSH0 PUSH1 0x40 DUP4 DUP6 SUB SLT ISZERO PUSH2 0x1E74 JUMPI PUSH0 PUSH0 REVERT JUMPDEST DUP3 CALLDATALOAD SWAP2 POP PUSH1 0x20 DUP4 ADD CALLDATALOAD PUSH2 0x1E86 DUP2 PUSH2 0x1E56 JUMP JUMPDEST DUP1 SWAP2 POP POP SWAP3 POP SWAP3 SWAP1 POP JUMP JUMPDEST PUSH0 PUSH1 0x20 DUP3 DUP5 SUB SLT ISZERO PUSH2 0x1EA1 JUMPI PUSH0 PUSH0 REVERT JUMPDEST POP CALLDATALOAD SWAP2 SWAP1 POP JUMP JUMPDEST PUSH0 PUSH0 PUSH1 0x40 DUP4 DUP6 SUB SLT ISZERO PUSH2 0x1EB9 JUMPI PUSH0 PUSH0 REVERT JUMPDEST PUSH2 0x1EC2 DUP4 PUSH2 0x1D9C JUMP JUMPDEST SWAP2 POP PUSH1 0x20 DUP4 ADD CALLDATALOAD PUSH4 0xFFFFFFFF DUP2 AND DUP2 EQ PUSH2 0x1E86 JUMPI PUSH0 PUSH0 REVERT JUMPDEST PUSH0 PUSH0 PUSH1 0x40 DUP4 DUP6 SUB SLT ISZERO PUSH2 0x1EEB JUMPI PUSH0 PUSH0 REVERT JUMPDEST PUSH2 0x1E48 DUP4 PUSH2 0x1D68 JUMP JUMPDEST PUSH4 0x4E487B71 PUSH1 0xE0 SHL PUSH0 MSTORE PUSH1 0x32 PUSH1 0x4 MSTORE PUSH1 0x24 PUSH0 REVERT JUMPDEST PUSH0 DUP2 SLOAD DUP1 DUP5 MSTORE PUSH1 0x20 DUP5 ADD SWAP4 POP DUP3 PUSH0 MSTORE PUSH1 0x20 PUSH0 KECCAK256 PUSH0 JUMPDEST DUP3 DUP2 LT ISZERO PUSH2 0x1F3B JUMPI DUP2 SLOAD DUP7 MSTORE PUSH1 0x20 SWAP1 SWAP6 ADD SWAP5 PUSH1 0x1 SWAP2 DUP3 ADD SWAP2 ADD PUSH2 0x1F1D JUMP JUMPDEST POP SWAP4 SWAP5 SWAP4 POP POP POP POP JUMP JUMPDEST PUSH1 0x40 DUP2 MSTORE PUSH0 PUSH2 0x1F57 PUSH1 0x40 DUP4 ADD DUP6 PUSH2 0x1F08 JUMP JUMPDEST DUP3 DUP2 SUB PUSH1 0x20 DUP5 ADD MSTORE PUSH2 0x6C3 DUP2 DUP6 PUSH2 0x1F08 JUMP JUMPDEST PUSH4 0x4E487B71 PUSH1 0xE0 SHL PUSH0 MSTORE PUSH1 0x11 PUSH1 0x4 MSTORE PUSH1 0x24 PUSH0 REVERT JUMPDEST PUSH1 0x1 PUSH1 0x1 PUSH1 0x60 SHL SUB DUP3 DUP2 AND DUP3 DUP3 AND SUB SWAP1 DUP2 GT ISZERO PUSH2 0x12AE JUMPI PUSH2 0x12AE PUSH2 0x1F69 JUMP JUMPDEST DUP1 DUP3 MUL DUP2 ISZERO DUP3 DUP3 DIV DUP5 EQ OR PUSH2 0x12AE JUMPI PUSH2 0x12AE PUSH2 0x1F69 JUMP JUMPDEST PUSH0 DUP3 PUSH2 0x1FCD JUMPI PUSH4 0x4E487B71 PUSH1 0xE0 SHL PUSH0 MSTORE PUSH1 0x12 PUSH1 0x4 MSTORE PUSH1 0x24 PUSH0 REVERT JUMPDEST POP DIV SWAP1 JUMP JUMPDEST DUP1 DUP3 ADD DUP1 DUP3 GT ISZERO PUSH2 0x12AE JUMPI PUSH2 0x12AE PUSH2 0x1F69 JUMP JUMPDEST DUP2 DUP2 SUB DUP2 DUP2 GT ISZERO PUSH2 0x12AE JUMPI PUSH2 0x12AE PUSH2 0x1F69 JUMP JUMPDEST PUSH1 0x1 PUSH1 0x1 PUSH1 0x60 SHL SUB DUP2 DUP2 AND DUP4 DUP3 AND ADD SWAP1 DUP2 GT ISZERO PUSH2 0x12AE JUMPI PUSH2 0x12AE PUSH2 0x1F69 JUMP JUMPDEST SWAP5 DUP6 MSTORE PUSH1 0x20 DUP6 ADD SWAP4 SWAP1 SWAP4 MSTORE PUSH1 0x40 DUP5 ADD SWAP2 SWAP1 SWAP2 MSTORE PUSH1 0x1 PUSH1 0x1 PUSH1 0x60 SHL SUB SWAP1 DUP2 AND PUSH1 0x60 DUP5 ADD MSTORE AND PUSH1 0x80 DUP3 ADD MSTORE PUSH1 0xA0 ADD SWAP1 JUMP JUMPDEST PUSH1 0x20 DUP1 DUP3 MSTORE PUSH1 0x1D SWAP1 DUP3 ADD MSTORE PUSH32 0x50726F66697453686172653A496E76616C6964205374616B6520494421000000 PUSH1 0x40 DUP3 ADD MSTORE PUSH1 0x60 ADD SWAP1 JUMP JUMPDEST PUSH0 PUSH1 0x1 DUP3 ADD PUSH2 0x208E JUMPI PUSH2 0x208E PUSH2 0x1F69 JUMP JUMPDEST POP PUSH1 0x1 ADD SWAP1 JUMP JUMPDEST PUSH0 PUSH1 0x20 DUP3 DUP5 SUB SLT ISZERO PUSH2 0x20A5 JUMPI PUSH0 PUSH0 REVERT JUMPDEST DUP2 MLOAD PUSH2 0x1312 DUP2 PUSH2 0x1E56 JUMP JUMPDEST PUSH0 PUSH0 PUSH1 0x40 DUP4 DUP6 SUB SLT ISZERO PUSH2 0x20C1 JUMPI PUSH0 PUSH0 REVERT JUMPDEST POP POP DUP1 MLOAD PUSH1 0x20 SWAP1 SWAP2 ADD MLOAD SWAP1 SWAP3 SWAP1 SWAP2 POP JUMP JUMPDEST PUSH0 PUSH1 0x20 DUP3 DUP5 SUB SLT ISZERO PUSH2 0x20E2 JUMPI PUSH0 PUSH0 REVERT JUMPDEST POP MLOAD SWAP2 SWAP1 POP JUMP JUMPDEST PUSH1 0x20 DUP1 DUP3 MSTORE PUSH1 0x2D SWAP1 DUP3 ADD MSTORE PUSH32 0x50726F66697453686172653A616D6F756E74206D757374206265206772656174 PUSH1 0x40 DUP3 ADD MSTORE PUSH13 0x6572207468616E207A65726F21 PUSH1 0x98 SHL PUSH1 0x60 DUP3 ADD MSTORE PUSH1 0x80 ADD SWAP1 JUMP INVALID LOG2 PUSH5 0x6970667358 0x22 SLT KECCAK256 SDIV 0x28 0xB5 0xD5 SWAP11 0xDB JUMP SLT AND 0xC3 SLT RETURN LT SLOAD SWAP14 0xAE BASEFEE SWAP12 SMOD 0xA7 0xBA RETURNDATASIZE SLOAD 0xB3 EXTCODECOPY 0xBD SWAP12 SLOAD SLT 0xDF SMOD ADD PUSH5 0x736F6C6343 STOP ADDMOD 0x1E STOP CALLER 0xD REVERT 0xE2 DUP12 LOG1 0xCF 0xAE SWAP9 0xDB PUSH5 0x2E32463558 POP 0xB3 PUSH20 0x32D75F04945DA4676E38AD045386000000000000 "
		},
		"gasEstimates": {
			"creation": {
				"codeDepositCost": "1711200",
				"executionCost": "infinite",
				"totalCost": "infinite"
			},
			"external": {
				"CLAIM_PERIOD()": "305",
				"CREDI()": "infinite",
				"MODULEX()": "infinite",
				"SCALE_FACTOR()": "205",
				"addRewards(uint256)": "infinite",
				"claimRewards()": "infinite",
				"duration_multiplier(uint96)": "2624",
				"extendRewards(uint96,uint256,uint256)": "infinite",
				"getStake(address,uint256)": "9402",
				"getUserInfo(address)": "infinite",
				"getUserRewards(address)": "infinite",
				"multiplier_BASE()": "313",
				"owner()": "2462",
				"pool()": "13193",
				"renounceOwnership()": "infinite",
				"restake(uint256,uint96,uint256)": "infinite",
				"setDurationMultiplier(uint96,uint32)": "28406",
				"setXTierMultipliers(uint256[],uint256[])": "infinite",
				"stake(uint96,uint256)": "infinite",
				"stakeCREDI(uint96,uint256)": "infinite",
				"transferOwnership(address)": "28465",
				"unstake(uint256,bool)": "infinite",
				"unstakePerpetual(uint256,bool)": "infinite",
				"withdrawRewards(address,uint256)": "infinite"
			},
			"internal": {
				"_addRewards(uint256)": "infinite",
				"_claim(address)": "infinite",
				"_stake(address,uint96,uint256,uint256)": "infinite",
				"_unstake(address,uint256,uint256)": "infinite",
				"effective_xpoints(uint256)": "infinite",
				"time_now()": "infinite",
				"update_pool_and_user(address,uint256,uint256)": "infinite"
			}
		},
		"methodIdentifiers": {
			"CLAIM_PERIOD()": "21241dfe",
			"CREDI()": "6db08f25",
			"MODULEX()": "b1da1b2d",
			"SCALE_FACTOR()": "ce4b5bbe",
			"addRewards(uint256)": "beceed39",
			"claimRewards()": "372500ab",
			"duration_multiplier(uint96)": "8af6e880",
			"extendRewards(uint96,uint256,uint256)": "7135cd6a",
			"getStake(address,uint256)": "cfd47663",
			"getUserInfo(address)": "6386c1c7",
			"getUserRewards(address)": "078b0fb7",
			"multiplier_BASE()": "da540bbf",
			"owner()": "8da5cb5b",
			"pool()": "16f0115b",
			"renounceOwnership()": "715018a6",
			"restake(uint256,uint96,uint256)": "8c793330",
			"setDurationMultiplier(uint96,uint32)": "c96d6635",
			"setXTierMultipliers(uint256[],uint256[])": "0072c744",
			"stake(uint96,uint256)": "d93c04a0",
			"stakeCREDI(uint96,uint256)": "99c1e891",
			"transferOwnership(address)": "f2fde38b",
			"unstake(uint256,bool)": "9ebea88c",
			"unstakePerpetual(uint256,bool)": "ccc54f2e",
			"withdrawRewards(address,uint256)": "d6ef7af0"
		}
	},
	"abi": [
		{
			"inputs": [
				{
					"internalType": "uint96",
					"name": "start_epoch",
					"type": "uint96"
				},
				{
					"internalType": "uint96",
					"name": "end_epoch",
					"type": "uint96"
				},
				{
					"internalType": "uint256",
					"name": "reward_amount",
					"type": "uint256"
				},
				{
					"internalType": "address",
					"name": "_modulex_addr",
					"type": "address"
				},
				{
					"internalType": "address",
					"name": "_rewards_token",
					"type": "address"
				}
			],
			"stateMutability": "nonpayable",
			"type": "constructor"
		},
		{
			"inputs": [
				{
					"internalType": "address",
					"name": "owner",
					"type": "address"
				}
			],
			"name": "OwnableInvalidOwner",
			"type": "error"
		},
		{
			"inputs": [
				{
					"internalType": "address",
					"name": "account",
					"type": "address"
				}
			],
			"name": "OwnableUnauthorizedAccount",
			"type": "error"
		},
		{
			"inputs": [],
			"name": "ReentrancyGuardReentrantCall",
			"type": "error"
		},
		{
			"inputs": [
				{
					"internalType": "address",
					"name": "token",
					"type": "address"
				}
			],
			"name": "SafeERC20FailedOperation",
			"type": "error"
		},
		{
			"anonymous": false,
			"inputs": [
				{
					"indexed": true,
					"internalType": "address",
					"name": "previousOwner",
					"type": "address"
				},
				{
					"indexed": true,
					"internalType": "address",
					"name": "newOwner",
					"type": "address"
				}
			],
			"name": "OwnershipTransferred",
			"type": "event"
		},
		{
			"anonymous": false,
			"inputs": [
				{
					"indexed": false,
					"internalType": "address",
					"name": "staking_token",
					"type": "address"
				},
				{
					"indexed": false,
					"internalType": "address",
					"name": "rewards_token",
					"type": "address"
				},
				{
					"indexed": false,
					"internalType": "uint96",
					"name": "start_epoch",
					"type": "uint96"
				},
				{
					"indexed": false,
					"internalType": "uint256",
					"name": "scale_factor",
					"type": "uint256"
				}
			],
			"name": "PoolCreated",
			"type": "event"
		},
		{
			"anonymous": false,
			"inputs": [
				{
					"indexed": false,
					"internalType": "uint256",
					"name": "effective_xpoints",
					"type": "uint256"
				},
				{
					"indexed": false,
					"internalType": "uint256",
					"name": "reward_rate",
					"type": "uint256"
				},
				{
					"indexed": false,
					"internalType": "uint256",
					"name": "reward_rate_cumsum",
					"type": "uint256"
				},
				{
					"indexed": false,
					"internalType": "uint96",
					"name": "last_update_epoch",
					"type": "uint96"
				},
				{
					"indexed": false,
					"internalType": "uint96",
					"name": "end_epoch",
					"type": "uint96"
				}
			],
			"name": "PoolUpdated",
			"type": "event"
		},
		{
			"anonymous": false,
			"inputs": [
				{
					"indexed": false,
					"internalType": "uint256",
					"name": "amount",
					"type": "uint256"
				}
			],
			"name": "RewardAdded",
			"type": "event"
		},
		{
			"anonymous": false,
			"inputs": [
				{
					"indexed": true,
					"internalType": "address",
					"name": "user",
					"type": "address"
				},
				{
					"indexed": false,
					"internalType": "uint256",
					"name": "amount",
					"type": "uint256"
				}
			],
			"name": "RewardPaid",
			"type": "event"
		},
		{
			"anonymous": false,
			"inputs": [
				{
					"indexed": true,
					"internalType": "address",
					"name": "to",
					"type": "address"
				},
				{
					"indexed": false,
					"internalType": "uint256",
					"name": "amount",
					"type": "uint256"
				}
			],
			"name": "RewardWithdrawn",
			"type": "event"
		},
		{
			"anonymous": false,
			"inputs": [
				{
					"indexed": false,
					"internalType": "uint96",
					"name": "duration",
					"type": "uint96"
				},
				{
					"indexed": false,
					"internalType": "uint32",
					"name": "multiplier",
					"type": "uint32"
				}
			],
			"name": "SetDurationMultiplier",
			"type": "event"
		},
		{
			"anonymous": false,
			"inputs": [
				{
					"indexed": false,
					"internalType": "uint256[]",
					"name": "thresholds",
					"type": "uint256[]"
				},
				{
					"indexed": false,
					"internalType": "uint256[]",
					"name": "multipliers",
					"type": "uint256[]"
				}
			],
			"name": "SetXTierMultipliers",
			"type": "event"
		},
		{
			"anonymous": false,
			"inputs": [
				{
					"indexed": false,
					"internalType": "uint256",
					"name": "stake_id",
					"type": "uint256"
				},
				{
					"indexed": true,
					"internalType": "address",
					"name": "user",
					"type": "address"
				},
				{
					"indexed": false,
					"internalType": "uint256",
					"name": "stake_amount",
					"type": "uint256"
				},
				{
					"indexed": false,
					"internalType": "uint256",
					"name": "modulex_stake_id",
					"type": "uint256"
				},
				{
					"indexed": false,
					"internalType": "uint96",
					"name": "maturity",
					"type": "uint96"
				},
				{
					"indexed": false,
					"internalType": "uint96",
					"name": "lock_period",
					"type": "uint96"
				}
			],
			"name": "StakeUpdated",
			"type": "event"
		},
		{
			"anonymous": false,
			"inputs": [
				{
					"indexed": false,
					"internalType": "uint256",
					"name": "stake_id",
					"type": "uint256"
				},
				{
					"indexed": true,
					"internalType": "address",
					"name": "user",
					"type": "address"
				},
				{
					"indexed": false,
					"internalType": "uint256",
					"name": "amount",
					"type": "uint256"
				}
			],
			"name": "StakeWithdrawn",
			"type": "event"
		},
		{
			"anonymous": false,
			"inputs": [
				{
					"indexed": true,
					"internalType": "address",
					"name": "owner",
					"type": "address"
				},
				{
					"indexed": false,
					"internalType": "uint256",
					"name": "xpoints",
					"type": "uint256"
				},
				{
					"indexed": false,
					"internalType": "uint256",
					"name": "reward_amount",
					"type": "uint256"
				},
				{
					"indexed": false,
					"internalType": "uint256",
					"name": "reward_rate_cumsum",
					"type": "uint256"
				}
			],
			"name": "UserUpdated",
			"type": "event"
		},
		{
			"inputs": [],
			"name": "CLAIM_PERIOD",
			"outputs": [
				{
					"internalType": "uint96",
					"name": "",
					"type": "uint96"
				}
			],
			"stateMutability": "view",
			"type": "function"
		},
		{
			"inputs": [],
			"name": "CREDI",
			"outputs": [
				{
					"internalType": "contract IERC20",
					"name": "",
					"type": "address"
				}
			],
			"stateMutability": "view",
			"type": "function"
		},
		{
			"inputs": [],
			"name": "MODULEX",
			"outputs": [
				{
					"internalType": "address",
					"name": "",
					"type": "address"
				}
			],
			"stateMutability": "view",
			"type": "function"
		},
		{
			"inputs": [],
			"name": "SCALE_FACTOR",
			"outputs": [
				{
					"internalType": "uint256",
					"name": "",
					"type": "uint256"
				}
			],
			"stateMutability": "view",
			"type": "function"
		},
		{
			"inputs": [
				{
					"internalType": "uint256",
					"name": "amount",
					"type": "uint256"
				}
			],
			"name": "addRewards",
			"outputs": [],
			"stateMutability": "nonpayable",
			"type": "function"
		},
		{
			"inputs": [],
			"name": "claimRewards",
			"outputs": [],
			"stateMutability": "nonpayable",
			"type": "function"
		},
		{
			"inputs": [
				{
					"internalType": "uint96",
					"name": "",
					"type": "uint96"
				}
			],
			"name": "duration_multiplier",
			"outputs": [
				{
					"internalType": "uint32",
					"name": "",
					"type": "uint32"
				}
			],
			"stateMutability": "view",
			"type": "function"
		},
		{
			"inputs": [
				{
					"internalType": "uint96",
					"name": "duration",
					"type": "uint96"
				},
				{
					"internalType": "uint256",
					"name": "reward_amount",
					"type": "uint256"
				},
				{
					"internalType": "uint256",
					"name": "transfer_reward_amount",
					"type": "uint256"
				}
			],
			"name": "extendRewards",
			"outputs": [],
			"stateMutability": "nonpayable",
			"type": "function"
		},
		{
			"inputs": [
				{
					"internalType": "address",
					"name": "owner",
					"type": "address"
				},
				{
					"internalType": "uint256",
					"name": "stake_id",
					"type": "uint256"
				}
			],
			"name": "getStake",
			"outputs": [
				{
					"internalType": "uint256",
					"name": "stake_amount",
					"type": "uint256"
				},
				{
					"internalType": "uint256",
					"name": "modulex_stake_id",
					"type": "uint256"
				},
				{
					"internalType": "uint96",
					"name": "maturity",
					"type": "uint96"
				},
				{
					"internalType": "uint256",
					"name": "multiplier",
					"type": "uint256"
				}
			],
			"stateMutability": "view",
			"type": "function"
		},
		{
			"inputs": [
				{
					"internalType": "address",
					"name": "owner",
					"type": "address"
				}
			],
			"name": "getUserInfo",
			"outputs": [
				{
					"internalType": "uint256",
					"name": "xpoints",
					"type": "uint256"
				},
				{
					"internalType": "uint256",
					"name": "xtier",
					"type": "uint256"
				},
				{
					"internalType": "uint256",
					"name": "reward_amount",
					"type": "uint256"
				},
				{
					"internalType": "uint256",
					"name": "reward_rate_cumsum",
					"type": "uint256"
				},
				{
					"internalType": "uint256",
					"name": "stakes_count",
					"type": "uint256"
				}
			],
			"stateMutability": "view",
			"type": "function"
		},
		{
			"inputs": [
				{
					"internalType": "address",
					"name": "owner",
					"type": "address"
				}
			],
			"name": "getUserRewards",
			"outputs": [
				{
					"internalType": "uint256",
					"name": "",
					"type": "uint256"
				}
			],
			"stateMutability": "view",
			"type": "function"
		},
		{
			"inputs": [],
			"name": "multiplier_BASE",
			"outputs": [
				{
					"internalType": "uint32",
					"name": "",
					"type": "uint32"
				}
			],
			"stateMutability": "view",
			"type": "function"
		},
		{
			"inputs": [],
			"name": "owner",
			"outputs": [
				{
					"internalType": "address",
					"name": "",
					"type": "address"
				}
			],
			"stateMutability": "view",
			"type": "function"
		},
		{
			"inputs": [],
			"name": "pool",
			"outputs": [
				{
					"internalType": "contract IERC20",
					"name": "staking_token",
					"type": "address"
				},
				{
					"internalType": "uint96",
					"name": "start_epoch",
					"type": "uint96"
				},
				{
					"internalType": "contract IERC20",
					"name": "rewards_token",
					"type": "address"
				},
				{
					"internalType": "uint96",
					"name": "end_epoch",
					"type": "uint96"
				},
				{
					"internalType": "uint256",
					"name": "effective_xpoints",
					"type": "uint256"
				},
				{
					"internalType": "uint256",
					"name": "reward_rate",
					"type": "uint256"
				},
				{
					"internalType": "uint256",
					"name": "reward_rate_cumsum",
					"type": "uint256"
				},
				{
					"internalType": "uint96",
					"name": "last_update_epoch",
					"type": "uint96"
				}
			],
			"stateMutability": "view",
			"type": "function"
		},
		{
			"inputs": [],
			"name": "renounceOwnership",
			"outputs": [],
			"stateMutability": "nonpayable",
			"type": "function"
		},
		{
			"inputs": [
				{
					"internalType": "uint256",
					"name": "stake_id",
					"type": "uint256"
				},
				{
					"internalType": "uint96",
					"name": "lock_period",
					"type": "uint96"
				},
				{
					"internalType": "uint256",
					"name": "amount",
					"type": "uint256"
				}
			],
			"name": "restake",
			"outputs": [],
			"stateMutability": "nonpayable",
			"type": "function"
		},
		{
			"inputs": [
				{
					"internalType": "uint96",
					"name": "duration",
					"type": "uint96"
				},
				{
					"internalType": "uint32",
					"name": "multiplier",
					"type": "uint32"
				}
			],
			"name": "setDurationMultiplier",
			"outputs": [],
			"stateMutability": "nonpayable",
			"type": "function"
		},
		{
			"inputs": [
				{
					"internalType": "uint256[]",
					"name": "_thresholds",
					"type": "uint256[]"
				},
				{
					"internalType": "uint256[]",
					"name": "_mulitpliers",
					"type": "uint256[]"
				}
			],
			"name": "setXTierMultipliers",
			"outputs": [],
			"stateMutability": "nonpayable",
			"type": "function"
		},
		{
			"inputs": [
				{
					"internalType": "uint96",
					"name": "lock_period",
					"type": "uint96"
				},
				{
					"internalType": "uint256",
					"name": "amount",
					"type": "uint256"
				}
			],
			"name": "stake",
			"outputs": [],
			"stateMutability": "nonpayable",
			"type": "function"
		},
		{
			"inputs": [
				{
					"internalType": "uint96",
					"name": "lock_period",
					"type": "uint96"
				},
				{
					"internalType": "uint256",
					"name": "CREDI_amount",
					"type": "uint256"
				}
			],
			"name": "stakeCREDI",
			"outputs": [],
			"stateMutability": "nonpayable",
			"type": "function"
		},
		{
			"inputs": [
				{
					"internalType": "address",
					"name": "newOwner",
					"type": "address"
				}
			],
			"name": "transferOwnership",
			"outputs": [],
			"stateMutability": "nonpayable",
			"type": "function"
		},
		{
			"inputs": [
				{
					"internalType": "uint256",
					"name": "stake_id",
					"type": "uint256"
				},
				{
					"internalType": "bool",
					"name": "claim_rewards",
					"type": "bool"
				}
			],
			"name": "unstake",
			"outputs": [],
			"stateMutability": "nonpayable",
			"type": "function"
		},
		{
			"inputs": [
				{
					"internalType": "uint256",
					"name": "amount",
					"type": "uint256"
				},
				{
					"internalType": "bool",
					"name": "claim_rewards",
					"type": "bool"
				}
			],
			"name": "unstakePerpetual",
			"outputs": [],
			"stateMutability": "nonpayable",
			"type": "function"
		},
		{
			"inputs": [
				{
					"internalType": "address",
					"name": "to",
					"type": "address"
				},
				{
					"internalType": "uint256",
					"name": "amount",
					"type": "uint256"
				}
			],
			"name": "withdrawRewards",
			"outputs": [],
			"stateMutability": "nonpayable",
			"type": "function"
		}
	]
}