{
	"data": {
		"bytecode": {
			"linkReferences": {},
			"object": "6101006040525f608090815269021e19e0c9bab240000060a05269043c33c193756480000060c052690a968163f0a57b40000060e05261004390600290600461055d565b50604080516080810182526103e881526105dc60208201526107d091810191909152610bb8606082015261007b9060039060046105b1565b50348015610087575f5ffd5b5060405161251d38038061251d8339810160408190526100a691610635565b33806100cc57604051631e4fbdf760e01b81525f60048201526024015b60405180910390fd5b6100d58161043d565b50600180555f805260046020527f17ef568e3e12ab5b9c7254a8d58478811de00f9e6eb34345acd53bf8fd09d3ec805463ffffffff19166103e81790556001600160601b0384166101234290565b6001600160601b03161061019f5760405162461bcd60e51b815260206004820152603360248201527f50726f66697453686172653a456e642074696d65206d7573742062652067726560448201527f61746572207468616e2074696d655f6e6f77210000000000000000000000000060648201526084016100c3565b6101bb6001600160601b038616426001600160601b031661048c565b9450836001600160601b0316856001600160601b0316106102395760405162461bcd60e51b815260206004820152603260248201527f50726f66697453686172653a53746172742074696d65206d757374206265206c604482015271657373207468616e20656e642074696d652160701b60648201526084016100c3565b5f61024486866106a3565b6001600160601b031661026085683635c9adc5dea000006106c2565b61026a91906106d9565b60408051610100810182526001600160a01b038681168083526001600160601b038b811660208086018290528985168688018190528d841660608089018290525f6080808b0182905260a08b018d905260c08b0182905260e0909a01869052600160a01b808702808a1760078190559482028087176008556009849055600a8f9055600b93909355600c80546001600160601b0319169098179097558b51968a16909817865290971690911791830191909152929092041693810193909352683635c9adc5dea00000908301529192507fdc04d80ebe596008505211bb5ef7b7b76945b378723c7fbc1dd952cd919394bb910160405180910390a1600954600a54600b54600c54600854604080519586526020860194909452848401929092526001600160601b039081166060850152600160a01b909104166080830152517fe111f67a87ace56a1496291914b8e0da23748ffddaa8bc98d0f4d4dfb51796a59181900360a00190a1604080515f81526103e860208201525f5160206124fd5f395f51905f52910160405180910390a16104086107086105dc61049c565b6104166115186107d061049c565b610424612a30610bb861049c565b61043261546061138861049c565b5050505050506106f8565b5f80546001600160a01b038381166001600160a01b0319831681178455604051919092169283917f8be0079c531659141344cd1fd0a4f28419497f9722a3daafe3b4186f6b6457e09190a35050565b8082118183180281185b92915050565b6104a461052f565b5f826001600160601b03161180156104d1575063ffffffff81166103e810806104d1575063ffffffff8116155b6104d9575f5ffd5b6001600160601b0382165f81815260046020908152604091829020805463ffffffff191663ffffffff86169081179091558251938452908301525f5160206124fd5f395f51905f52910160405180910390a15050565b5f546001600160a01b0316331461055b5760405163118cdaa760e01b81523360048201526024016100c3565b565b828054828255905f5260205f209081019282156105a1579160200282015b828111156105a157825182906001600160501b031690559160200191906001019061057b565b506105ad9291506105f0565b5090565b828054828255905f5260205f209081019282156105a1579160200282015b828111156105a1578251829061ffff169055916020019190600101906105cf565b5b808211156105ad575f81556001016105f1565b80516001600160601b038116811461061a575f5ffd5b919050565b80516001600160a01b038116811461061a575f5ffd5b5f5f5f5f5f60a08688031215610649575f5ffd5b61065286610604565b945061066060208701610604565b9350604086015192506106756060870161061f565b91506106836080870161061f565b90509295509295909350565b634e487b7160e01b5f52601160045260245ffd5b6001600160601b0382811682821603908111156104965761049661068f565b80820281158282048414176104965761049661068f565b5f826106f357634e487b7160e01b5f52601260045260245ffd5b500490565b611df8806107055f395ff3fe608060405234801561000f575f5ffd5b5060043610610140575f3560e01c80638da5cb5b116100c3578063ce4b5bbe11610088578063d93c04a011610063578063d93c04a0146103b3578063da540bbf146103c6578063f2fde38b146103cf575f5ffd5b8063ce4b5bbe1461034e578063cfd476631461035e578063d6ef7af0146103a0575f5ffd5b80638da5cb5b146102e85780639ebea88c14610302578063beceed3914610315578063c96d663514610328578063ccc54f2e1461033b575f5ffd5b80636386c1c7116101095780636386c1c7146102455780637135cd6a14610280578063715018a6146102935780638af6e8801461029b5780638c793330146102d5575f5ffd5b806272c74414610144578063078b0fb71461015957806316f0115b1461017f57806321241dfe1461021b578063372500ab1461023d575b5f5ffd5b610157610152366004611a98565b6103e2565b005b61016c610167366004611b1f565b610536565b6040519081526020015b60405180910390f35b600754600854600954600a54600b54600c546101c6956001600160a01b03808216966001600160601b03600160a01b93849004811697928216969390910481169491931688565b604080516001600160a01b03998a1681526001600160601b03988916602082015298909616958801959095529285166060870152608086019190915260a085015260c08401521660e082015261010001610176565b6102256234bc0081565b6040516001600160601b039091168152602001610176565b61015761064b565b610258610253366004611b1f565b610672565b604080519586526020860194909452928401919091526060830152608082015260a001610176565b61015761028e366004611b4e565b6106bf565b610157610851565b6102c06102a9366004611b7e565b60046020525f908152604090205463ffffffff1681565b60405163ffffffff9091168152602001610176565b6101576102e3366004611b97565b610862565b5f546040516001600160a01b039091168152602001610176565b610157610310366004611bca565b610a02565b610157610323366004611bfc565b610baa565b610157610336366004611c13565b610bb6565b610157610349366004611bca565b610c5c565b61016c683635c9adc5dea0000081565b61037161036c366004611c45565b610ced565b604051610176949392919093845260208401929092526001600160601b03166040830152606082015260800190565b6101576103ae366004611c45565b610dbe565b6101576103c1366004611c6d565b610ed2565b6102c06103e881565b6101576103dd366004611b1f565b610f45565b6103ea610f7f565b82811480156103f857508015155b610400575f5ffd5b61043b8484808060200260200160405190810160405280939291908181526020018383602002808284375f92019190915250610fab92505050565b805161044f916002916020909101906119f3565b5061048b8282808060200260200160405190810160405280939291908181526020018383602002808284375f92019190915250610fab92505050565b805161049f916003916020909101906119f3565b5060025f815481106104b3576104b3611c87565b905f5260205f2001545f1480156104ed57506103e863ffffffff1660035f815481106104e1576104e1611c87565b905f5260205f20015410155b6104f5575f5ffd5b7f36636bd3caf33bddbd656aadda2fc454e5093f7cec3de1405319ef0ef3aa6ba760026003604051610528929190611cd8565b60405180910390a150505050565b6001600160a01b0381165f908152600560205260408120600c548290610586906001600160601b0316610581425b6008546001600160601b0391821691600160a01b90910416610fc0565b610fd4565b600b5460095491925090158015906105ac5750600c546001600160601b03908116908316115b156105fa57600954600a54600c546105cd906001600160601b031685611d10565b6001600160601b03166105e09190611d2f565b6105ea9190611d46565b600b546105f79190611d65565b90505b683635c9adc5dea000008360020154826106149190611d78565b845461061f90610fe3565b6106299190611d2f565b6106339190611d46565b83600101546106429190611d65565b95945050505050565b610653611039565b61065e335f5f611063565b610667336112b2565b61067060018055565b565b6001600160a01b0381165f9081526005602052604081208054829182918291829161069e600282611343565b60018301546002840154600390940154929a91995097509195509350915050565b6106c7610f7f565b6106d25f5f5f611063565b6008544290600160a01b90046001600160601b0390811690821610610720576001600160601b03841661070e84683635c9adc5dea00000611d2f565b6107189190611d46565b600a55610784565b600a546008546001600160601b038087169291610746918591600160a01b900416611d10565b6001600160601b03166107599190611d2f565b61076c85683635c9adc5dea00000611d2f565b6107769190611d65565b6107809190611d46565b600a555b600c80546bffffffffffffffffffffffff19166001600160601b0383161790556107ae8482611d8b565b600880546001600160601b0392909216600160a01b026001600160a01b0390921691909117905581156107e4576107e48261139e565b600954600a54600b54600c54600854604080519586526020860194909452928401919091526001600160601b039081166060840152600160a01b9091041660808201527fe111f67a87ace56a1496291914b8e0da23748ffddaa8bc98d0f4d4dfb51796a59060a001610528565b610859610f7f565b6106705f611451565b61086a611039565b335f818152600560205260409020600301548490610889906001611d65565b81106108dc5760405162461bcd60e51b815260206004820152601d60248201527f50726f66697453686172653a496e76616c6964205374616b652049442100000060448201526064015b60405180910390fd5b82156108fa576108fa336007546001600160a01b03169030866114ad565b335f90815260066020908152604080832088845282528083206001600160601b0388168452600490925290912054600182015463ffffffff918216600160601b909104909116111561099a5760405162461bcd60e51b815260206004820152602360248201527f50726f66697453686172653a557365206c6f6e676572206c6f636b5f706572696044820152626f642160e81b60648201526084016108d3565b80545f906109a89086611d65565b90506109b633835489611529565b865f036109e457335f90815260056020526040812060030180549091906109dc90611daa565b918290555096505b6109f03387838a611638565b505050506109fd60018055565b505050565b610a0a611039565b335f818152600560205260409020600301548390610a29906001611d65565b8110610a775760405162461bcd60e51b815260206004820152601d60248201527f50726f66697453686172653a496e76616c6964205374616b652049442100000060448201526064016108d3565b335f908152600660209081526040808320878452909152902060018101546001600160601b03908116429091161015610b185760405162461bcd60e51b815260206004820152602e60248201527f50726f66697453686172653a4561726c79205769746864726177616c2069732060448201527f6e6f74207065726d69747465642100000000000000000000000000000000000060648201526084016108d3565b8054610b665760405162461bcd60e51b815260206004820152601c60248201527f50726f66697453686172653a4e6f7468696e6720746f20636c61696d0000000060448201526064016108d3565b610b7f3382546007546001600160a01b0316919061185e565b610b8b33825487611529565b8315610b9a57610b9a336112b2565b505050610ba660018055565b5050565b610bb38161139e565b50565b610bbe610f7f565b5f826001600160601b0316118015610beb575063ffffffff81166103e81080610beb575063ffffffff8116155b610bf3575f5ffd5b6001600160601b0382165f81815260046020908152604091829020805463ffffffff191663ffffffff86169081179091558251938452908301527f0dfde28ba1cfae98db642e3246355850b37332d75f04945da4676e38ad045386910160405180910390a15050565b610c64611039565b5f8211610cb35760405162461bcd60e51b815260206004820152601160248201527f43616e6e6f7420756e7374616b6520302100000000000000000000000000000060448201526064016108d3565b610cca336007546001600160a01b0316908461185e565b610cd533835f611529565b8015610ce457610ce4336112b2565b610ba660018055565b6001600160a01b0382165f9081526005602052604081206003015481908190819086908690610d1d906001611d65565b8110610d6b5760405162461bcd60e51b815260206004820152601d60248201527f50726f66697453686172653a496e76616c6964205374616b652049442100000060448201526064016108d3565b505050506001600160a01b03939093165f908152600660209081526040808320948352939052918220805460019091015490949293506001600160601b03811692600160601b90910463ffffffff169150565b610dc6610f7f565b5f8111610e2b5760405162461bcd60e51b815260206004820152602d60248201527f50726f66697453686172653a616d6f756e74206d75737420626520677265617460448201526c6572207468616e207a65726f2160981b60648201526084016108d3565b600854610e4c906234bc0090600160a01b90046001600160601b0316611d8b565b6001600160601b0316426001600160601b0316101580610e6c5750600954155b610e74575f5ffd5b600854610e8b906001600160a01b0316838361185e565b816001600160a01b03167f1d3eee4ca001cff39eec6ec7615aacf2f2bd61791273830728ba00ccbd6e133782604051610ec691815260200190565b60405180910390a25050565b610eda611039565b610ef2336007546001600160a01b03169030846114ad565b5f6001600160601b03831615610f2b57335f9081526005602052604081206003018054909190610f2190611daa565b9182905550610f2d565b5f5b9050610f3b33848484611638565b50610ba660018055565b610f4d610f7f565b6001600160a01b038116610f7657604051631e4fbdf760e01b81525f60048201526024016108d3565b610bb381611451565b5f546001600160a01b031633146106705760405163118cdaa760e01b81523360048201526024016108d3565b6060610fb98261188f611893565b5090919050565b5f8282188284100282185b90505b92915050565b5f828218828411028218610fcb565b5f5f60036001610ff4600286611343565b610ffe9190611d78565b8154811061100e5761100e611c87565b5f9182526020909120015490506103e86110288483611d2f565b6110329190611d46565b9392505050565b60026001540361105c57604051633ee5aeb560e01b815260040160405180910390fd5b6002600155565b600c545f9061107e906001600160601b031661058142610564565b600954909150158015906110a05750600c546001600160601b03908116908216115b156110f557600954600a54600c546110c1906001600160601b031684611d10565b6001600160601b03166110d49190611d2f565b6110de9190611d46565b600b80545f906110ef908490611d65565b90915550505b600c80546bffffffffffffffffffffffff19166001600160601b0383161790556001600160a01b038416156112ac576001600160a01b0384165f908152600560205260408120805490919061114990610fe3565b82549091501561119b576002820154600b54683635c9adc5dea000009161116f91611d78565b6111799083611d2f565b6111839190611d46565b826001015f8282546111959190611d65565b90915550505b600b546002830155815484906111b2908790611d65565b6111bc9190611d78565b80835581906111ca90610fe3565b6009546111d79190611d65565b6111e19190611d78565b600955815460018301546002840154604080519384526020840192909252908201526001600160a01b038716907ff1da46a1ca3e37613208b2a3d7ec556866482d77a0005d6168d73270ced6b26a9060600160405180910390a2600954600a54600b54600c54600854604080519586526020860194909452848401929092526001600160601b039081166060850152600160a01b909104166080830152517fe111f67a87ace56a1496291914b8e0da23748ffddaa8bc98d0f4d4dfb51796a59181900360a00190a150505b50505050565b6001600160a01b0381165f908152600560205260409020600181015415610ba65760018101546008546112f2916001600160a01b0390911690849061185e565b816001600160a01b03167fe2403640ba68fed3a2f88b7557551d1993f84b99bb10ff833f0cf8db0c5e0486826001015460405161133191815260200190565b60405180910390a25f60018201555050565b81545f90819080820361135a575f92505050610fce565b80821015611396575f61136d83836118ab565b90508461137a87836118c5565b54111561138957809150611390565b8060010192505b5061135a565b509392505050565b5f81116114035760405162461bcd60e51b815260206004820152602d60248201527f50726f66697453686172653a616d6f756e74206d75737420626520677265617460448201526c6572207468616e207a65726f2160981b60648201526084016108d3565b61141b336008546001600160a01b03169030846114ad565b6040518181527fde88a922e0d3b88b24e9623efeb464919c6bf9f66857a65e2bfcf2ce87a9433d9060200160405180910390a150565b5f80546001600160a01b0383811673ffffffffffffffffffffffffffffffffffffffff19831681178455604051919092169283917f8be0079c531659141344cd1fd0a4f28419497f9722a3daafe3b4186f6b6457e09190a35050565b6040516001600160a01b0384811660248301528381166044830152606482018390526112ac9186918216906323b872dd906084015b604051602081830303815290604052915060e01b6020820180517bffffffffffffffffffffffffffffffffffffffffffffffffffffffff83818316178352505050506118ec565b6001600160a01b0383165f908152600660209081526040808320848452909152902080548311156115a65760405162461bcd60e51b815260206004820152602160248201527f50726f66697453686172653a496e73756666696369656e742062616c616e63656044820152602160f81b60648201526084016108d3565b60018101545f906103e8906115c890600160601b900463ffffffff1686611d2f565b6115d29190611d46565b90506115df855f83611063565b83825f015f8282546115f19190611d78565b9091555050604080518481526020810186905233917f459d5aef2c549903c1eeb1736f5728845d5ccf82537ddd5bf8035795eee89263910160405180910390a25050505050565b600754600160a01b90046001600160601b0316426001600160601b03161015801561167d5750600854600160a01b90046001600160601b0316426001600160601b0316105b6116c95760405162461bcd60e51b815260206004820152601f60248201527f50726f66697453686172653a506f6f6c206973206e6f7420616374697665210060448201526064016108d3565b6001600160601b0383165f9081526004602052604081205463ffffffff16906103e86116f58386611d2f565b6116ff9190611d46565b90505f81116117765760405162461bcd60e51b815260206004820152603960248201527f50726f66697453686172653a616d6f756e7420616e64206d756c7469706c696560448201527f72206d7573742062652067726561746572207468616e2030210000000000000060648201526084016108d3565b61178186825f611063565b335f90815260066020908152604080832086845290915281208054909186918391906117ae908490611d65565b909155506117be90508642611d8b565b6001820180546001600160601b039283166fffffffffffffffffffffffffffffffff1990911617600160601b63ffffffff871602179081905582546040805188815260208101929092525f90820152908216606082015290871660808201526001600160a01b038816907ffb323914bfe99940926cd03fe7969535604dd9a3c82b28853e738744dd6f9aaa9060a00160405180910390a250505050505050565b6040516001600160a01b038381166024830152604482018390526109fd91859182169063a9059cbb906064016114e2565b1190565b6060610fb9602084016118a585611958565b8461196f565b5f6118b96002848418611d46565b610fcb90848416611d65565b5f826118e46118e1846118dd845f9081526020902090565b0190565b90565b949350505050565b5f5f60205f8451602086015f885af18061190b576040513d5f823e3d81fd5b50505f513d9150811561192257806001141561192f565b6001600160a01b0384163b155b156112ac57604051635274afe760e01b81526001600160a01b03851660048201526024016108d3565b5f81516020026119688360200190565b0192915050565b6040838303101561197f57505050565b5f611988845190565b905083602081015b848110156119ca576119ad6119a3825190565b848663ffffffff16565b156119c2576020919091018051825182528252905b602001611990565b5084518151865281526119de85828561196f565b6119ec81602001858561196f565b5050505050565b828054828255905f5260205f20908101928215611a2c579160200282015b82811115611a2c578251825591602001919060010190611a11565b50611a38929150611a3c565b5090565b5b80821115611a38575f8155600101611a3d565b5f5f83601f840112611a60575f5ffd5b50813567ffffffffffffffff811115611a77575f5ffd5b6020830191508360208260051b8501011115611a91575f5ffd5b9250929050565b5f5f5f5f60408587031215611aab575f5ffd5b843567ffffffffffffffff811115611ac1575f5ffd5b611acd87828801611a50565b909550935050602085013567ffffffffffffffff811115611aec575f5ffd5b611af887828801611a50565b95989497509550505050565b80356001600160a01b0381168114611b1a575f5ffd5b919050565b5f60208284031215611b2f575f5ffd5b610fcb82611b04565b80356001600160601b0381168114611b1a575f5ffd5b5f5f5f60608486031215611b60575f5ffd5b611b6984611b38565b95602085013595506040909401359392505050565b5f60208284031215611b8e575f5ffd5b610fcb82611b38565b5f5f5f60608486031215611ba9575f5ffd5b83359250611bb960208501611b38565b929592945050506040919091013590565b5f5f60408385031215611bdb575f5ffd5b8235915060208301358015158114611bf1575f5ffd5b809150509250929050565b5f60208284031215611c0c575f5ffd5b5035919050565b5f5f60408385031215611c24575f5ffd5b611c2d83611b38565b9150602083013563ffffffff81168114611bf1575f5ffd5b5f5f60408385031215611c56575f5ffd5b611c5f83611b04565b946020939093013593505050565b5f5f60408385031215611c7e575f5ffd5b611c5f83611b38565b634e487b7160e01b5f52603260045260245ffd5b5f8154808452602084019350825f5260205f205f5b82811015611cce578154865260209095019460019182019101611cb0565b5093949350505050565b604081525f611cea6040830185611c9b565b82810360208401526106428185611c9b565b634e487b7160e01b5f52601160045260245ffd5b6001600160601b038281168282160390811115610fce57610fce611cfc565b8082028115828204841417610fce57610fce611cfc565b5f82611d6057634e487b7160e01b5f52601260045260245ffd5b500490565b80820180821115610fce57610fce611cfc565b81810381811115610fce57610fce611cfc565b6001600160601b038181168382160190811115610fce57610fce611cfc565b5f60018201611dbb57611dbb611cfc565b506001019056fea26469706673582212208c606458eaad472938c3749c4d68d45609aa0a5057680e33da27df3a94a9a35164736f6c634300081e00330dfde28ba1cfae98db642e3246355850b37332d75f04945da4676e38ad045386",
			"opcodes": "PUSH2 0x100 PUSH1 0x40 MSTORE PUSH0 PUSH1 0x80 SWAP1 DUP2 MSTORE PUSH10 0x21E19E0C9BAB2400000 PUSH1 0xA0 MSTORE PUSH10 0x43C33C1937564800000 PUSH1 0xC0 MSTORE PUSH10 0xA968163F0A57B400000 PUSH1 0xE0 MSTORE PUSH2 0x43 SWAP1 PUSH1 0x2 SWAP1 PUSH1 0x4 PUSH2 0x55D JUMP JUMPDEST POP PUSH1 0x40 DUP1 MLOAD PUSH1 0x80 DUP2 ADD DUP3 MSTORE PUSH2 0x3E8 DUP2 MSTORE PUSH2 0x5DC PUSH1 0x20 DUP3 ADD MSTORE PUSH2 0x7D0 SWAP2 DUP2 ADD SWAP2 SWAP1 SWAP2 MSTORE PUSH2 0xBB8 PUSH1 0x60 DUP3 ADD MSTORE PUSH2 0x7B SWAP1 PUSH1 0x3 SWAP1 PUSH1 0x4 PUSH2 0x5B1 JUMP JUMPDEST POP CALLVALUE DUP1 ISZERO PUSH2 0x87 JUMPI PUSH0 PUSH0 REVERT JUMPDEST POP PUSH1 0x40 MLOAD PUSH2 0x251D CODESIZE SUB DUP1 PUSH2 0x251D DUP4 CODECOPY DUP2 ADD PUSH1 0x40 DUP2 SWAP1 MSTORE PUSH2 0xA6 SWAP2 PUSH2 0x635 JUMP JUMPDEST CALLER DUP1 PUSH2 0xCC JUMPI PUSH1 0x40 MLOAD PUSH4 0x1E4FBDF7 PUSH1 0xE0 SHL DUP2 MSTORE PUSH0 PUSH1 0x4 DUP3 ADD MSTORE PUSH1 0x24 ADD JUMPDEST PUSH1 0x40 MLOAD DUP1 SWAP2 SUB SWAP1 REVERT JUMPDEST PUSH2 0xD5 DUP2 PUSH2 0x43D JUMP JUMPDEST POP PUSH1 0x1 DUP1 SSTORE PUSH0 DUP1 MSTORE PUSH1 0x4 PUSH1 0x20 MSTORE PUSH32 0x17EF568E3E12AB5B9C7254A8D58478811DE00F9E6EB34345ACD53BF8FD09D3EC DUP1 SLOAD PUSH4 0xFFFFFFFF NOT AND PUSH2 0x3E8 OR SWAP1 SSTORE PUSH1 0x1 PUSH1 0x1 PUSH1 0x60 SHL SUB DUP5 AND PUSH2 0x123 TIMESTAMP SWAP1 JUMP JUMPDEST PUSH1 0x1 PUSH1 0x1 PUSH1 0x60 SHL SUB AND LT PUSH2 0x19F JUMPI PUSH1 0x40 MLOAD PUSH3 0x461BCD PUSH1 0xE5 SHL DUP2 MSTORE PUSH1 0x20 PUSH1 0x4 DUP3 ADD MSTORE PUSH1 0x33 PUSH1 0x24 DUP3 ADD MSTORE PUSH32 0x50726F66697453686172653A456E642074696D65206D75737420626520677265 PUSH1 0x44 DUP3 ADD MSTORE PUSH32 0x61746572207468616E2074696D655F6E6F772100000000000000000000000000 PUSH1 0x64 DUP3 ADD MSTORE PUSH1 0x84 ADD PUSH2 0xC3 JUMP JUMPDEST PUSH2 0x1BB PUSH1 0x1 PUSH1 0x1 PUSH1 0x60 SHL SUB DUP7 AND TIMESTAMP PUSH1 0x1 PUSH1 0x1 PUSH1 0x60 SHL SUB AND PUSH2 0x48C JUMP JUMPDEST SWAP5 POP DUP4 PUSH1 0x1 PUSH1 0x1 PUSH1 0x60 SHL SUB AND DUP6 PUSH1 0x1 PUSH1 0x1 PUSH1 0x60 SHL SUB AND LT PUSH2 0x239 JUMPI PUSH1 0x40 MLOAD PUSH3 0x461BCD PUSH1 0xE5 SHL DUP2 MSTORE PUSH1 0x20 PUSH1 0x4 DUP3 ADD MSTORE PUSH1 0x32 PUSH1 0x24 DUP3 ADD MSTORE PUSH32 0x50726F66697453686172653A53746172742074696D65206D757374206265206C PUSH1 0x44 DUP3 ADD MSTORE PUSH18 0x657373207468616E20656E642074696D6521 PUSH1 0x70 SHL PUSH1 0x64 DUP3 ADD MSTORE PUSH1 0x84 ADD PUSH2 0xC3 JUMP JUMPDEST PUSH0 PUSH2 0x244 DUP7 DUP7 PUSH2 0x6A3 JUMP JUMPDEST PUSH1 0x1 PUSH1 0x1 PUSH1 0x60 SHL SUB AND PUSH2 0x260 DUP6 PUSH9 0x3635C9ADC5DEA00000 PUSH2 0x6C2 JUMP JUMPDEST PUSH2 0x26A SWAP2 SWAP1 PUSH2 0x6D9 JUMP JUMPDEST PUSH1 0x40 DUP1 MLOAD PUSH2 0x100 DUP2 ADD DUP3 MSTORE PUSH1 0x1 PUSH1 0x1 PUSH1 0xA0 SHL SUB DUP7 DUP2 AND DUP1 DUP4 MSTORE PUSH1 0x1 PUSH1 0x1 PUSH1 0x60 SHL SUB DUP12 DUP2 AND PUSH1 0x20 DUP1 DUP7 ADD DUP3 SWAP1 MSTORE DUP10 DUP6 AND DUP7 DUP9 ADD DUP2 SWAP1 MSTORE DUP14 DUP5 AND PUSH1 0x60 DUP1 DUP10 ADD DUP3 SWAP1 MSTORE PUSH0 PUSH1 0x80 DUP1 DUP12 ADD DUP3 SWAP1 MSTORE PUSH1 0xA0 DUP12 ADD DUP14 SWAP1 MSTORE PUSH1 0xC0 DUP12 ADD DUP3 SWAP1 MSTORE PUSH1 0xE0 SWAP1 SWAP11 ADD DUP7 SWAP1 MSTORE PUSH1 0x1 PUSH1 0xA0 SHL DUP1 DUP8 MUL DUP1 DUP11 OR PUSH1 0x7 DUP2 SWAP1 SSTORE SWAP5 DUP3 MUL DUP1 DUP8 OR PUSH1 0x8 SSTORE PUSH1 0x9 DUP5 SWAP1 SSTORE PUSH1 0xA DUP16 SWAP1 SSTORE PUSH1 0xB SWAP4 SWAP1 SWAP4 SSTORE PUSH1 0xC DUP1 SLOAD PUSH1 0x1 PUSH1 0x1 PUSH1 0x60 SHL SUB NOT AND SWAP1 SWAP9 OR SWAP1 SWAP8 SSTORE DUP12 MLOAD SWAP7 DUP11 AND SWAP1 SWAP9 OR DUP7 MSTORE SWAP1 SWAP8 AND SWAP1 SWAP2 OR SWAP2 DUP4 ADD SWAP2 SWAP1 SWAP2 MSTORE SWAP3 SWAP1 SWAP3 DIV AND SWAP4 DUP2 ADD SWAP4 SWAP1 SWAP4 MSTORE PUSH9 0x3635C9ADC5DEA00000 SWAP1 DUP4 ADD MSTORE SWAP2 SWAP3 POP PUSH32 0xDC04D80EBE596008505211BB5EF7B7B76945B378723C7FBC1DD952CD919394BB SWAP2 ADD PUSH1 0x40 MLOAD DUP1 SWAP2 SUB SWAP1 LOG1 PUSH1 0x9 SLOAD PUSH1 0xA SLOAD PUSH1 0xB SLOAD PUSH1 0xC SLOAD PUSH1 0x8 SLOAD PUSH1 0x40 DUP1 MLOAD SWAP6 DUP7 MSTORE PUSH1 0x20 DUP7 ADD SWAP5 SWAP1 SWAP5 MSTORE DUP5 DUP5 ADD SWAP3 SWAP1 SWAP3 MSTORE PUSH1 0x1 PUSH1 0x1 PUSH1 0x60 SHL SUB SWAP1 DUP2 AND PUSH1 0x60 DUP6 ADD MSTORE PUSH1 0x1 PUSH1 0xA0 SHL SWAP1 SWAP2 DIV AND PUSH1 0x80 DUP4 ADD MSTORE MLOAD PUSH32 0xE111F67A87ACE56A1496291914B8E0DA23748FFDDAA8BC98D0F4D4DFB51796A5 SWAP2 DUP2 SWAP1 SUB PUSH1 0xA0 ADD SWAP1 LOG1 PUSH1 0x40 DUP1 MLOAD PUSH0 DUP2 MSTORE PUSH2 0x3E8 PUSH1 0x20 DUP3 ADD MSTORE PUSH0 MLOAD PUSH1 0x20 PUSH2 0x24FD PUSH0 CODECOPY PUSH0 MLOAD SWAP1 PUSH0 MSTORE SWAP2 ADD PUSH1 0x40 MLOAD DUP1 SWAP2 SUB SWAP1 LOG1 PUSH2 0x408 PUSH2 0x708 PUSH2 0x5DC PUSH2 0x49C JUMP JUMPDEST PUSH2 0x416 PUSH2 0x1518 PUSH2 0x7D0 PUSH2 0x49C JUMP JUMPDEST PUSH2 0x424 PUSH2 0x2A30 PUSH2 0xBB8 PUSH2 0x49C JUMP JUMPDEST PUSH2 0x432 PUSH2 0x5460 PUSH2 0x1388 PUSH2 0x49C JUMP JUMPDEST POP POP POP POP POP POP PUSH2 0x6F8 JUMP JUMPDEST PUSH0 DUP1 SLOAD PUSH1 0x1 PUSH1 0x1 PUSH1 0xA0 SHL SUB DUP4 DUP2 AND PUSH1 0x1 PUSH1 0x1 PUSH1 0xA0 SHL SUB NOT DUP4 AND DUP2 OR DUP5 SSTORE PUSH1 0x40 MLOAD SWAP2 SWAP1 SWAP3 AND SWAP3 DUP4 SWAP2 PUSH32 0x8BE0079C531659141344CD1FD0A4F28419497F9722A3DAAFE3B4186F6B6457E0 SWAP2 SWAP1 LOG3 POP POP JUMP JUMPDEST DUP1 DUP3 GT DUP2 DUP4 XOR MUL DUP2 XOR JUMPDEST SWAP3 SWAP2 POP POP JUMP JUMPDEST PUSH2 0x4A4 PUSH2 0x52F JUMP JUMPDEST PUSH0 DUP3 PUSH1 0x1 PUSH1 0x1 PUSH1 0x60 SHL SUB AND GT DUP1 ISZERO PUSH2 0x4D1 JUMPI POP PUSH4 0xFFFFFFFF DUP2 AND PUSH2 0x3E8 LT DUP1 PUSH2 0x4D1 JUMPI POP PUSH4 0xFFFFFFFF DUP2 AND ISZERO JUMPDEST PUSH2 0x4D9 JUMPI PUSH0 PUSH0 REVERT JUMPDEST PUSH1 0x1 PUSH1 0x1 PUSH1 0x60 SHL SUB DUP3 AND PUSH0 DUP2 DUP2 MSTORE PUSH1 0x4 PUSH1 0x20 SWAP1 DUP2 MSTORE PUSH1 0x40 SWAP2 DUP3 SWAP1 KECCAK256 DUP1 SLOAD PUSH4 0xFFFFFFFF NOT AND PUSH4 0xFFFFFFFF DUP7 AND SWAP1 DUP2 OR SWAP1 SWAP2 SSTORE DUP3 MLOAD SWAP4 DUP5 MSTORE SWAP1 DUP4 ADD MSTORE PUSH0 MLOAD PUSH1 0x20 PUSH2 0x24FD PUSH0 CODECOPY PUSH0 MLOAD SWAP1 PUSH0 MSTORE SWAP2 ADD PUSH1 0x40 MLOAD DUP1 SWAP2 SUB SWAP1 LOG1 POP POP JUMP JUMPDEST PUSH0 SLOAD PUSH1 0x1 PUSH1 0x1 PUSH1 0xA0 SHL SUB AND CALLER EQ PUSH2 0x55B JUMPI PUSH1 0x40 MLOAD PUSH4 0x118CDAA7 PUSH1 0xE0 SHL DUP2 MSTORE CALLER PUSH1 0x4 DUP3 ADD MSTORE PUSH1 0x24 ADD PUSH2 0xC3 JUMP JUMPDEST JUMP JUMPDEST DUP3 DUP1 SLOAD DUP3 DUP3 SSTORE SWAP1 PUSH0 MSTORE PUSH1 0x20 PUSH0 KECCAK256 SWAP1 DUP2 ADD SWAP3 DUP3 ISZERO PUSH2 0x5A1 JUMPI SWAP2 PUSH1 0x20 MUL DUP3 ADD JUMPDEST DUP3 DUP2 GT ISZERO PUSH2 0x5A1 JUMPI DUP3 MLOAD DUP3 SWAP1 PUSH1 0x1 PUSH1 0x1 PUSH1 0x50 SHL SUB AND SWAP1 SSTORE SWAP2 PUSH1 0x20 ADD SWAP2 SWAP1 PUSH1 0x1 ADD SWAP1 PUSH2 0x57B JUMP JUMPDEST POP PUSH2 0x5AD SWAP3 SWAP2 POP PUSH2 0x5F0 JUMP JUMPDEST POP SWAP1 JUMP JUMPDEST DUP3 DUP1 SLOAD DUP3 DUP3 SSTORE SWAP1 PUSH0 MSTORE PUSH1 0x20 PUSH0 KECCAK256 SWAP1 DUP2 ADD SWAP3 DUP3 ISZERO PUSH2 0x5A1 JUMPI SWAP2 PUSH1 0x20 MUL DUP3 ADD JUMPDEST DUP3 DUP2 GT ISZERO PUSH2 0x5A1 JUMPI DUP3 MLOAD DUP3 SWAP1 PUSH2 0xFFFF AND SWAP1 SSTORE SWAP2 PUSH1 0x20 ADD SWAP2 SWAP1 PUSH1 0x1 ADD SWAP1 PUSH2 0x5CF JUMP JUMPDEST JUMPDEST DUP1 DUP3 GT ISZERO PUSH2 0x5AD JUMPI PUSH0 DUP2 SSTORE PUSH1 0x1 ADD PUSH2 0x5F1 JUMP JUMPDEST DUP1 MLOAD PUSH1 0x1 PUSH1 0x1 PUSH1 0x60 SHL SUB DUP2 AND DUP2 EQ PUSH2 0x61A JUMPI PUSH0 PUSH0 REVERT JUMPDEST SWAP2 SWAP1 POP JUMP JUMPDEST DUP1 MLOAD PUSH1 0x1 PUSH1 0x1 PUSH1 0xA0 SHL SUB DUP2 AND DUP2 EQ PUSH2 0x61A JUMPI PUSH0 PUSH0 REVERT JUMPDEST PUSH0 PUSH0 PUSH0 PUSH0 PUSH0 PUSH1 0xA0 DUP7 DUP9 SUB SLT ISZERO PUSH2 0x649 JUMPI PUSH0 PUSH0 REVERT JUMPDEST PUSH2 0x652 DUP7 PUSH2 0x604 JUMP JUMPDEST SWAP5 POP PUSH2 0x660 PUSH1 0x20 DUP8 ADD PUSH2 0x604 JUMP JUMPDEST SWAP4 POP PUSH1 0x40 DUP7 ADD MLOAD SWAP3 POP PUSH2 0x675 PUSH1 0x60 DUP8 ADD PUSH2 0x61F JUMP JUMPDEST SWAP2 POP PUSH2 0x683 PUSH1 0x80 DUP8 ADD PUSH2 0x61F JUMP JUMPDEST SWAP1 POP SWAP3 SWAP6 POP SWAP3 SWAP6 SWAP1 SWAP4 POP JUMP JUMPDEST PUSH4 0x4E487B71 PUSH1 0xE0 SHL PUSH0 MSTORE PUSH1 0x11 PUSH1 0x4 MSTORE PUSH1 0x24 PUSH0 REVERT JUMPDEST PUSH1 0x1 PUSH1 0x1 PUSH1 0x60 SHL SUB DUP3 DUP2 AND DUP3 DUP3 AND SUB SWAP1 DUP2 GT ISZERO PUSH2 0x496 JUMPI PUSH2 0x496 PUSH2 0x68F JUMP JUMPDEST DUP1 DUP3 MUL DUP2 ISZERO DUP3 DUP3 DIV DUP5 EQ OR PUSH2 0x496 JUMPI PUSH2 0x496 PUSH2 0x68F JUMP JUMPDEST PUSH0 DUP3 PUSH2 0x6F3 JUMPI PUSH4 0x4E487B71 PUSH1 0xE0 SHL PUSH0 MSTORE PUSH1 0x12 PUSH1 0x4 MSTORE PUSH1 0x24 PUSH0 REVERT JUMPDEST POP DIV SWAP1 JUMP JUMPDEST PUSH2 0x1DF8 DUP1 PUSH2 0x705 PUSH0 CODECOPY PUSH0 RETURN INVALID PUSH1 0x80 PUSH1 0x40 MSTORE CALLVALUE DUP1 ISZERO PUSH2 0xF JUMPI PUSH0 PUSH0 REVERT JUMPDEST POP PUSH1 0x4 CALLDATASIZE LT PUSH2 0x140 JUMPI PUSH0 CALLDATALOAD PUSH1 0xE0 SHR DUP1 PUSH4 0x8DA5CB5B GT PUSH2 0xC3 JUMPI DUP1 PUSH4 0xCE4B5BBE GT PUSH2 0x88 JUMPI DUP1 PUSH4 0xD93C04A0 GT PUSH2 0x63 JUMPI DUP1 PUSH4 0xD93C04A0 EQ PUSH2 0x3B3 JUMPI DUP1 PUSH4 0xDA540BBF EQ PUSH2 0x3C6 JUMPI DUP1 PUSH4 0xF2FDE38B EQ PUSH2 0x3CF JUMPI PUSH0 PUSH0 REVERT JUMPDEST DUP1 PUSH4 0xCE4B5BBE EQ PUSH2 0x34E JUMPI DUP1 PUSH4 0xCFD47663 EQ PUSH2 0x35E JUMPI DUP1 PUSH4 0xD6EF7AF0 EQ PUSH2 0x3A0 JUMPI PUSH0 PUSH0 REVERT JUMPDEST DUP1 PUSH4 0x8DA5CB5B EQ PUSH2 0x2E8 JUMPI DUP1 PUSH4 0x9EBEA88C EQ PUSH2 0x302 JUMPI DUP1 PUSH4 0xBECEED39 EQ PUSH2 0x315 JUMPI DUP1 PUSH4 0xC96D6635 EQ PUSH2 0x328 JUMPI DUP1 PUSH4 0xCCC54F2E EQ PUSH2 0x33B JUMPI PUSH0 PUSH0 REVERT JUMPDEST DUP1 PUSH4 0x6386C1C7 GT PUSH2 0x109 JUMPI DUP1 PUSH4 0x6386C1C7 EQ PUSH2 0x245 JUMPI DUP1 PUSH4 0x7135CD6A EQ PUSH2 0x280 JUMPI DUP1 PUSH4 0x715018A6 EQ PUSH2 0x293 JUMPI DUP1 PUSH4 0x8AF6E880 EQ PUSH2 0x29B JUMPI DUP1 PUSH4 0x8C793330 EQ PUSH2 0x2D5 JUMPI PUSH0 PUSH0 REVERT JUMPDEST DUP1 PUSH3 0x72C744 EQ PUSH2 0x144 JUMPI DUP1 PUSH4 0x78B0FB7 EQ PUSH2 0x159 JUMPI DUP1 PUSH4 0x16F0115B EQ PUSH2 0x17F JUMPI DUP1 PUSH4 0x21241DFE EQ PUSH2 0x21B JUMPI DUP1 PUSH4 0x372500AB EQ PUSH2 0x23D JUMPI JUMPDEST PUSH0 PUSH0 REVERT JUMPDEST PUSH2 0x157 PUSH2 0x152 CALLDATASIZE PUSH1 0x4 PUSH2 0x1A98 JUMP JUMPDEST PUSH2 0x3E2 JUMP JUMPDEST STOP JUMPDEST PUSH2 0x16C PUSH2 0x167 CALLDATASIZE PUSH1 0x4 PUSH2 0x1B1F JUMP JUMPDEST PUSH2 0x536 JUMP JUMPDEST PUSH1 0x40 MLOAD SWAP1 DUP2 MSTORE PUSH1 0x20 ADD JUMPDEST PUSH1 0x40 MLOAD DUP1 SWAP2 SUB SWAP1 RETURN JUMPDEST PUSH1 0x7 SLOAD PUSH1 0x8 SLOAD PUSH1 0x9 SLOAD PUSH1 0xA SLOAD PUSH1 0xB SLOAD PUSH1 0xC SLOAD PUSH2 0x1C6 SWAP6 PUSH1 0x1 PUSH1 0x1 PUSH1 0xA0 SHL SUB DUP1 DUP3 AND SWAP7 PUSH1 0x1 PUSH1 0x1 PUSH1 0x60 SHL SUB PUSH1 0x1 PUSH1 0xA0 SHL SWAP4 DUP5 SWAP1 DIV DUP2 AND SWAP8 SWAP3 DUP3 AND SWAP7 SWAP4 SWAP1 SWAP2 DIV DUP2 AND SWAP5 SWAP2 SWAP4 AND DUP9 JUMP JUMPDEST PUSH1 0x40 DUP1 MLOAD PUSH1 0x1 PUSH1 0x1 PUSH1 0xA0 SHL SUB SWAP10 DUP11 AND DUP2 MSTORE PUSH1 0x1 PUSH1 0x1 PUSH1 0x60 SHL SUB SWAP9 DUP10 AND PUSH1 0x20 DUP3 ADD MSTORE SWAP9 SWAP1 SWAP7 AND SWAP6 DUP9 ADD SWAP6 SWAP1 SWAP6 MSTORE SWAP3 DUP6 AND PUSH1 0x60 DUP8 ADD MSTORE PUSH1 0x80 DUP7 ADD SWAP2 SWAP1 SWAP2 MSTORE PUSH1 0xA0 DUP6 ADD MSTORE PUSH1 0xC0 DUP5 ADD MSTORE AND PUSH1 0xE0 DUP3 ADD MSTORE PUSH2 0x100 ADD PUSH2 0x176 JUMP JUMPDEST PUSH2 0x225 PUSH3 0x34BC00 DUP2 JUMP JUMPDEST PUSH1 0x40 MLOAD PUSH1 0x1 PUSH1 0x1 PUSH1 0x60 SHL SUB SWAP1 SWAP2 AND DUP2 MSTORE PUSH1 0x20 ADD PUSH2 0x176 JUMP JUMPDEST PUSH2 0x157 PUSH2 0x64B JUMP JUMPDEST PUSH2 0x258 PUSH2 0x253 CALLDATASIZE PUSH1 0x4 PUSH2 0x1B1F JUMP JUMPDEST PUSH2 0x672 JUMP JUMPDEST PUSH1 0x40 DUP1 MLOAD SWAP6 DUP7 MSTORE PUSH1 0x20 DUP7 ADD SWAP5 SWAP1 SWAP5 MSTORE SWAP3 DUP5 ADD SWAP2 SWAP1 SWAP2 MSTORE PUSH1 0x60 DUP4 ADD MSTORE PUSH1 0x80 DUP3 ADD MSTORE PUSH1 0xA0 ADD PUSH2 0x176 JUMP JUMPDEST PUSH2 0x157 PUSH2 0x28E CALLDATASIZE PUSH1 0x4 PUSH2 0x1B4E JUMP JUMPDEST PUSH2 0x6BF JUMP JUMPDEST PUSH2 0x157 PUSH2 0x851 JUMP JUMPDEST PUSH2 0x2C0 PUSH2 0x2A9 CALLDATASIZE PUSH1 0x4 PUSH2 0x1B7E JUMP JUMPDEST PUSH1 0x4 PUSH1 0x20 MSTORE PUSH0 SWAP1 DUP2 MSTORE PUSH1 0x40 SWAP1 KECCAK256 SLOAD PUSH4 0xFFFFFFFF AND DUP2 JUMP JUMPDEST PUSH1 0x40 MLOAD PUSH4 0xFFFFFFFF SWAP1 SWAP2 AND DUP2 MSTORE PUSH1 0x20 ADD PUSH2 0x176 JUMP JUMPDEST PUSH2 0x157 PUSH2 0x2E3 CALLDATASIZE PUSH1 0x4 PUSH2 0x1B97 JUMP JUMPDEST PUSH2 0x862 JUMP JUMPDEST PUSH0 SLOAD PUSH1 0x40 MLOAD PUSH1 0x1 PUSH1 0x1 PUSH1 0xA0 SHL SUB SWAP1 SWAP2 AND DUP2 MSTORE PUSH1 0x20 ADD PUSH2 0x176 JUMP JUMPDEST PUSH2 0x157 PUSH2 0x310 CALLDATASIZE PUSH1 0x4 PUSH2 0x1BCA JUMP JUMPDEST PUSH2 0xA02 JUMP JUMPDEST PUSH2 0x157 PUSH2 0x323 CALLDATASIZE PUSH1 0x4 PUSH2 0x1BFC JUMP JUMPDEST PUSH2 0xBAA JUMP JUMPDEST PUSH2 0x157 PUSH2 0x336 CALLDATASIZE PUSH1 0x4 PUSH2 0x1C13 JUMP JUMPDEST PUSH2 0xBB6 JUMP JUMPDEST PUSH2 0x157 PUSH2 0x349 CALLDATASIZE PUSH1 0x4 PUSH2 0x1BCA JUMP JUMPDEST PUSH2 0xC5C JUMP JUMPDEST PUSH2 0x16C PUSH9 0x3635C9ADC5DEA00000 DUP2 JUMP JUMPDEST PUSH2 0x371 PUSH2 0x36C CALLDATASIZE PUSH1 0x4 PUSH2 0x1C45 JUMP JUMPDEST PUSH2 0xCED JUMP JUMPDEST PUSH1 0x40 MLOAD PUSH2 0x176 SWAP5 SWAP4 SWAP3 SWAP2 SWAP1 SWAP4 DUP5 MSTORE PUSH1 0x20 DUP5 ADD SWAP3 SWAP1 SWAP3 MSTORE PUSH1 0x1 PUSH1 0x1 PUSH1 0x60 SHL SUB AND PUSH1 0x40 DUP4 ADD MSTORE PUSH1 0x60 DUP3 ADD MSTORE PUSH1 0x80 ADD SWAP1 JUMP JUMPDEST PUSH2 0x157 PUSH2 0x3AE CALLDATASIZE PUSH1 0x4 PUSH2 0x1C45 JUMP JUMPDEST PUSH2 0xDBE JUMP JUMPDEST PUSH2 0x157 PUSH2 0x3C1 CALLDATASIZE PUSH1 0x4 PUSH2 0x1C6D JUMP JUMPDEST PUSH2 0xED2 JUMP JUMPDEST PUSH2 0x2C0 PUSH2 0x3E8 DUP2 JUMP JUMPDEST PUSH2 0x157 PUSH2 0x3DD CALLDATASIZE PUSH1 0x4 PUSH2 0x1B1F JUMP JUMPDEST PUSH2 0xF45 JUMP JUMPDEST PUSH2 0x3EA PUSH2 0xF7F JUMP JUMPDEST DUP3 DUP2 EQ DUP1 ISZERO PUSH2 0x3F8 JUMPI POP DUP1 ISZERO ISZERO JUMPDEST PUSH2 0x400 JUMPI PUSH0 PUSH0 REVERT JUMPDEST PUSH2 0x43B DUP5 DUP5 DUP1 DUP1 PUSH1 0x20 MUL PUSH1 0x20 ADD PUSH1 0x40 MLOAD SWAP1 DUP2 ADD PUSH1 0x40 MSTORE DUP1 SWAP4 SWAP3 SWAP2 SWAP1 DUP2 DUP2 MSTORE PUSH1 0x20 ADD DUP4 DUP4 PUSH1 0x20 MUL DUP1 DUP3 DUP5 CALLDATACOPY PUSH0 SWAP3 ADD SWAP2 SWAP1 SWAP2 MSTORE POP PUSH2 0xFAB SWAP3 POP POP POP JUMP JUMPDEST DUP1 MLOAD PUSH2 0x44F SWAP2 PUSH1 0x2 SWAP2 PUSH1 0x20 SWAP1 SWAP2 ADD SWAP1 PUSH2 0x19F3 JUMP JUMPDEST POP PUSH2 0x48B DUP3 DUP3 DUP1 DUP1 PUSH1 0x20 MUL PUSH1 0x20 ADD PUSH1 0x40 MLOAD SWAP1 DUP2 ADD PUSH1 0x40 MSTORE DUP1 SWAP4 SWAP3 SWAP2 SWAP1 DUP2 DUP2 MSTORE PUSH1 0x20 ADD DUP4 DUP4 PUSH1 0x20 MUL DUP1 DUP3 DUP5 CALLDATACOPY PUSH0 SWAP3 ADD SWAP2 SWAP1 SWAP2 MSTORE POP PUSH2 0xFAB SWAP3 POP POP POP JUMP JUMPDEST DUP1 MLOAD PUSH2 0x49F SWAP2 PUSH1 0x3 SWAP2 PUSH1 0x20 SWAP1 SWAP2 ADD SWAP1 PUSH2 0x19F3 JUMP JUMPDEST POP PUSH1 0x2 PUSH0 DUP2 SLOAD DUP2 LT PUSH2 0x4B3 JUMPI PUSH2 0x4B3 PUSH2 0x1C87 JUMP JUMPDEST SWAP1 PUSH0 MSTORE PUSH1 0x20 PUSH0 KECCAK256 ADD SLOAD PUSH0 EQ DUP1 ISZERO PUSH2 0x4ED JUMPI POP PUSH2 0x3E8 PUSH4 0xFFFFFFFF AND PUSH1 0x3 PUSH0 DUP2 SLOAD DUP2 LT PUSH2 0x4E1 JUMPI PUSH2 0x4E1 PUSH2 0x1C87 JUMP JUMPDEST SWAP1 PUSH0 MSTORE PUSH1 0x20 PUSH0 KECCAK256 ADD SLOAD LT ISZERO JUMPDEST PUSH2 0x4F5 JUMPI PUSH0 PUSH0 REVERT JUMPDEST PUSH32 0x36636BD3CAF33BDDBD656AADDA2FC454E5093F7CEC3DE1405319EF0EF3AA6BA7 PUSH1 0x2 PUSH1 0x3 PUSH1 0x40 MLOAD PUSH2 0x528 SWAP3 SWAP2 SWAP1 PUSH2 0x1CD8 JUMP JUMPDEST PUSH1 0x40 MLOAD DUP1 SWAP2 SUB SWAP1 LOG1 POP POP POP POP JUMP JUMPDEST PUSH1 0x1 PUSH1 0x1 PUSH1 0xA0 SHL SUB DUP2 AND PUSH0 SWAP1 DUP2 MSTORE PUSH1 0x5 PUSH1 0x20 MSTORE PUSH1 0x40 DUP2 KECCAK256 PUSH1 0xC SLOAD DUP3 SWAP1 PUSH2 0x586 SWAP1 PUSH1 0x1 PUSH1 0x1 PUSH1 0x60 SHL SUB AND PUSH2 0x581 TIMESTAMP JUMPDEST PUSH1 0x8 SLOAD PUSH1 0x1 PUSH1 0x1 PUSH1 0x60 SHL SUB SWAP2 DUP3 AND SWAP2 PUSH1 0x1 PUSH1 0xA0 SHL SWAP1 SWAP2 DIV AND PUSH2 0xFC0 JUMP JUMPDEST PUSH2 0xFD4 JUMP JUMPDEST PUSH1 0xB SLOAD PUSH1 0x9 SLOAD SWAP2 SWAP3 POP SWAP1 ISZERO DUP1 ISZERO SWAP1 PUSH2 0x5AC JUMPI POP PUSH1 0xC SLOAD PUSH1 0x1 PUSH1 0x1 PUSH1 0x60 SHL SUB SWAP1 DUP2 AND SWAP1 DUP4 AND GT JUMPDEST ISZERO PUSH2 0x5FA JUMPI PUSH1 0x9 SLOAD PUSH1 0xA SLOAD PUSH1 0xC SLOAD PUSH2 0x5CD SWAP1 PUSH1 0x1 PUSH1 0x1 PUSH1 0x60 SHL SUB AND DUP6 PUSH2 0x1D10 JUMP JUMPDEST PUSH1 0x1 PUSH1 0x1 PUSH1 0x60 SHL SUB AND PUSH2 0x5E0 SWAP2 SWAP1 PUSH2 0x1D2F JUMP JUMPDEST PUSH2 0x5EA SWAP2 SWAP1 PUSH2 0x1D46 JUMP JUMPDEST PUSH1 0xB SLOAD PUSH2 0x5F7 SWAP2 SWAP1 PUSH2 0x1D65 JUMP JUMPDEST SWAP1 POP JUMPDEST PUSH9 0x3635C9ADC5DEA00000 DUP4 PUSH1 0x2 ADD SLOAD DUP3 PUSH2 0x614 SWAP2 SWAP1 PUSH2 0x1D78 JUMP JUMPDEST DUP5 SLOAD PUSH2 0x61F SWAP1 PUSH2 0xFE3 JUMP JUMPDEST PUSH2 0x629 SWAP2 SWAP1 PUSH2 0x1D2F JUMP JUMPDEST PUSH2 0x633 SWAP2 SWAP1 PUSH2 0x1D46 JUMP JUMPDEST DUP4 PUSH1 0x1 ADD SLOAD PUSH2 0x642 SWAP2 SWAP1 PUSH2 0x1D65 JUMP JUMPDEST SWAP6 SWAP5 POP POP POP POP POP JUMP JUMPDEST PUSH2 0x653 PUSH2 0x1039 JUMP JUMPDEST PUSH2 0x65E CALLER PUSH0 PUSH0 PUSH2 0x1063 JUMP JUMPDEST PUSH2 0x667 CALLER PUSH2 0x12B2 JUMP JUMPDEST PUSH2 0x670 PUSH1 0x1 DUP1 SSTORE JUMP JUMPDEST JUMP JUMPDEST PUSH1 0x1 PUSH1 0x1 PUSH1 0xA0 SHL SUB DUP2 AND PUSH0 SWAP1 DUP2 MSTORE PUSH1 0x5 PUSH1 0x20 MSTORE PUSH1 0x40 DUP2 KECCAK256 DUP1 SLOAD DUP3 SWAP2 DUP3 SWAP2 DUP3 SWAP2 DUP3 SWAP2 PUSH2 0x69E PUSH1 0x2 DUP3 PUSH2 0x1343 JUMP JUMPDEST PUSH1 0x1 DUP4 ADD SLOAD PUSH1 0x2 DUP5 ADD SLOAD PUSH1 0x3 SWAP1 SWAP5 ADD SLOAD SWAP3 SWAP11 SWAP2 SWAP10 POP SWAP8 POP SWAP2 SWAP6 POP SWAP4 POP SWAP2 POP POP JUMP JUMPDEST PUSH2 0x6C7 PUSH2 0xF7F JUMP JUMPDEST PUSH2 0x6D2 PUSH0 PUSH0 PUSH0 PUSH2 0x1063 JUMP JUMPDEST PUSH1 0x8 SLOAD TIMESTAMP SWAP1 PUSH1 0x1 PUSH1 0xA0 SHL SWAP1 DIV PUSH1 0x1 PUSH1 0x1 PUSH1 0x60 SHL SUB SWAP1 DUP2 AND SWAP1 DUP3 AND LT PUSH2 0x720 JUMPI PUSH1 0x1 PUSH1 0x1 PUSH1 0x60 SHL SUB DUP5 AND PUSH2 0x70E DUP5 PUSH9 0x3635C9ADC5DEA00000 PUSH2 0x1D2F JUMP JUMPDEST PUSH2 0x718 SWAP2 SWAP1 PUSH2 0x1D46 JUMP JUMPDEST PUSH1 0xA SSTORE PUSH2 0x784 JUMP JUMPDEST PUSH1 0xA SLOAD PUSH1 0x8 SLOAD PUSH1 0x1 PUSH1 0x1 PUSH1 0x60 SHL SUB DUP1 DUP8 AND SWAP3 SWAP2 PUSH2 0x746 SWAP2 DUP6 SWAP2 PUSH1 0x1 PUSH1 0xA0 SHL SWAP1 DIV AND PUSH2 0x1D10 JUMP JUMPDEST PUSH1 0x1 PUSH1 0x1 PUSH1 0x60 SHL SUB AND PUSH2 0x759 SWAP2 SWAP1 PUSH2 0x1D2F JUMP JUMPDEST PUSH2 0x76C DUP6 PUSH9 0x3635C9ADC5DEA00000 PUSH2 0x1D2F JUMP JUMPDEST PUSH2 0x776 SWAP2 SWAP1 PUSH2 0x1D65 JUMP JUMPDEST PUSH2 0x780 SWAP2 SWAP1 PUSH2 0x1D46 JUMP JUMPDEST PUSH1 0xA SSTORE JUMPDEST PUSH1 0xC DUP1 SLOAD PUSH12 0xFFFFFFFFFFFFFFFFFFFFFFFF NOT AND PUSH1 0x1 PUSH1 0x1 PUSH1 0x60 SHL SUB DUP4 AND OR SWAP1 SSTORE PUSH2 0x7AE DUP5 DUP3 PUSH2 0x1D8B JUMP JUMPDEST PUSH1 0x8 DUP1 SLOAD PUSH1 0x1 PUSH1 0x1 PUSH1 0x60 SHL SUB SWAP3 SWAP1 SWAP3 AND PUSH1 0x1 PUSH1 0xA0 SHL MUL PUSH1 0x1 PUSH1 0x1 PUSH1 0xA0 SHL SUB SWAP1 SWAP3 AND SWAP2 SWAP1 SWAP2 OR SWAP1 SSTORE DUP2 ISZERO PUSH2 0x7E4 JUMPI PUSH2 0x7E4 DUP3 PUSH2 0x139E JUMP JUMPDEST PUSH1 0x9 SLOAD PUSH1 0xA SLOAD PUSH1 0xB SLOAD PUSH1 0xC SLOAD PUSH1 0x8 SLOAD PUSH1 0x40 DUP1 MLOAD SWAP6 DUP7 MSTORE PUSH1 0x20 DUP7 ADD SWAP5 SWAP1 SWAP5 MSTORE SWAP3 DUP5 ADD SWAP2 SWAP1 SWAP2 MSTORE PUSH1 0x1 PUSH1 0x1 PUSH1 0x60 SHL SUB SWAP1 DUP2 AND PUSH1 0x60 DUP5 ADD MSTORE PUSH1 0x1 PUSH1 0xA0 SHL SWAP1 SWAP2 DIV AND PUSH1 0x80 DUP3 ADD MSTORE PUSH32 0xE111F67A87ACE56A1496291914B8E0DA23748FFDDAA8BC98D0F4D4DFB51796A5 SWAP1 PUSH1 0xA0 ADD PUSH2 0x528 JUMP JUMPDEST PUSH2 0x859 PUSH2 0xF7F JUMP JUMPDEST PUSH2 0x670 PUSH0 PUSH2 0x1451 JUMP JUMPDEST PUSH2 0x86A PUSH2 0x1039 JUMP JUMPDEST CALLER PUSH0 DUP2 DUP2 MSTORE PUSH1 0x5 PUSH1 0x20 MSTORE PUSH1 0x40 SWAP1 KECCAK256 PUSH1 0x3 ADD SLOAD DUP5 SWAP1 PUSH2 0x889 SWAP1 PUSH1 0x1 PUSH2 0x1D65 JUMP JUMPDEST DUP2 LT PUSH2 0x8DC JUMPI PUSH1 0x40 MLOAD PUSH3 0x461BCD PUSH1 0xE5 SHL DUP2 MSTORE PUSH1 0x20 PUSH1 0x4 DUP3 ADD MSTORE PUSH1 0x1D PUSH1 0x24 DUP3 ADD MSTORE PUSH32 0x50726F66697453686172653A496E76616C6964205374616B6520494421000000 PUSH1 0x44 DUP3 ADD MSTORE PUSH1 0x64 ADD JUMPDEST PUSH1 0x40 MLOAD DUP1 SWAP2 SUB SWAP1 REVERT JUMPDEST DUP3 ISZERO PUSH2 0x8FA JUMPI PUSH2 0x8FA CALLER PUSH1 0x7 SLOAD PUSH1 0x1 PUSH1 0x1 PUSH1 0xA0 SHL SUB AND SWAP1 ADDRESS DUP7 PUSH2 0x14AD JUMP JUMPDEST CALLER PUSH0 SWAP1 DUP2 MSTORE PUSH1 0x6 PUSH1 0x20 SWAP1 DUP2 MSTORE PUSH1 0x40 DUP1 DUP4 KECCAK256 DUP9 DUP5 MSTORE DUP3 MSTORE DUP1 DUP4 KECCAK256 PUSH1 0x1 PUSH1 0x1 PUSH1 0x60 SHL SUB DUP9 AND DUP5 MSTORE PUSH1 0x4 SWAP1 SWAP3 MSTORE SWAP1 SWAP2 KECCAK256 SLOAD PUSH1 0x1 DUP3 ADD SLOAD PUSH4 0xFFFFFFFF SWAP2 DUP3 AND PUSH1 0x1 PUSH1 0x60 SHL SWAP1 SWAP2 DIV SWAP1 SWAP2 AND GT ISZERO PUSH2 0x99A JUMPI PUSH1 0x40 MLOAD PUSH3 0x461BCD PUSH1 0xE5 SHL DUP2 MSTORE PUSH1 0x20 PUSH1 0x4 DUP3 ADD MSTORE PUSH1 0x23 PUSH1 0x24 DUP3 ADD MSTORE PUSH32 0x50726F66697453686172653A557365206C6F6E676572206C6F636B5F70657269 PUSH1 0x44 DUP3 ADD MSTORE PUSH3 0x6F6421 PUSH1 0xE8 SHL PUSH1 0x64 DUP3 ADD MSTORE PUSH1 0x84 ADD PUSH2 0x8D3 JUMP JUMPDEST DUP1 SLOAD PUSH0 SWAP1 PUSH2 0x9A8 SWAP1 DUP7 PUSH2 0x1D65 JUMP JUMPDEST SWAP1 POP PUSH2 0x9B6 CALLER DUP4 SLOAD DUP10 PUSH2 0x1529 JUMP JUMPDEST DUP7 PUSH0 SUB PUSH2 0x9E4 JUMPI CALLER PUSH0 SWAP1 DUP2 MSTORE PUSH1 0x5 PUSH1 0x20 MSTORE PUSH1 0x40 DUP2 KECCAK256 PUSH1 0x3 ADD DUP1 SLOAD SWAP1 SWAP2 SWAP1 PUSH2 0x9DC SWAP1 PUSH2 0x1DAA JUMP JUMPDEST SWAP2 DUP3 SWAP1 SSTORE POP SWAP7 POP JUMPDEST PUSH2 0x9F0 CALLER DUP8 DUP4 DUP11 PUSH2 0x1638 JUMP JUMPDEST POP POP POP POP PUSH2 0x9FD PUSH1 0x1 DUP1 SSTORE JUMP JUMPDEST POP POP POP JUMP JUMPDEST PUSH2 0xA0A PUSH2 0x1039 JUMP JUMPDEST CALLER PUSH0 DUP2 DUP2 MSTORE PUSH1 0x5 PUSH1 0x20 MSTORE PUSH1 0x40 SWAP1 KECCAK256 PUSH1 0x3 ADD SLOAD DUP4 SWAP1 PUSH2 0xA29 SWAP1 PUSH1 0x1 PUSH2 0x1D65 JUMP JUMPDEST DUP2 LT PUSH2 0xA77 JUMPI PUSH1 0x40 MLOAD PUSH3 0x461BCD PUSH1 0xE5 SHL DUP2 MSTORE PUSH1 0x20 PUSH1 0x4 DUP3 ADD MSTORE PUSH1 0x1D PUSH1 0x24 DUP3 ADD MSTORE PUSH32 0x50726F66697453686172653A496E76616C6964205374616B6520494421000000 PUSH1 0x44 DUP3 ADD MSTORE PUSH1 0x64 ADD PUSH2 0x8D3 JUMP JUMPDEST CALLER PUSH0 SWAP1 DUP2 MSTORE PUSH1 0x6 PUSH1 0x20 SWAP1 DUP2 MSTORE PUSH1 0x40 DUP1 DUP4 KECCAK256 DUP8 DUP5 MSTORE SWAP1 SWAP2 MSTORE SWAP1 KECCAK256 PUSH1 0x1 DUP2 ADD SLOAD PUSH1 0x1 PUSH1 0x1 PUSH1 0x60 SHL SUB SWAP1 DUP2 AND TIMESTAMP SWAP1 SWAP2 AND LT ISZERO PUSH2 0xB18 JUMPI PUSH1 0x40 MLOAD PUSH3 0x461BCD PUSH1 0xE5 SHL DUP2 MSTORE PUSH1 0x20 PUSH1 0x4 DUP3 ADD MSTORE PUSH1 0x2E PUSH1 0x24 DUP3 ADD MSTORE PUSH32 0x50726F66697453686172653A4561726C79205769746864726177616C20697320 PUSH1 0x44 DUP3 ADD MSTORE PUSH32 0x6E6F74207065726D697474656421000000000000000000000000000000000000 PUSH1 0x64 DUP3 ADD MSTORE PUSH1 0x84 ADD PUSH2 0x8D3 JUMP JUMPDEST DUP1 SLOAD PUSH2 0xB66 JUMPI PUSH1 0x40 MLOAD PUSH3 0x461BCD PUSH1 0xE5 SHL DUP2 MSTORE PUSH1 0x20 PUSH1 0x4 DUP3 ADD MSTORE PUSH1 0x1C PUSH1 0x24 DUP3 ADD MSTORE PUSH32 0x50726F66697453686172653A4E6F7468696E6720746F20636C61696D00000000 PUSH1 0x44 DUP3 ADD MSTORE PUSH1 0x64 ADD PUSH2 0x8D3 JUMP JUMPDEST PUSH2 0xB7F CALLER DUP3 SLOAD PUSH1 0x7 SLOAD PUSH1 0x1 PUSH1 0x1 PUSH1 0xA0 SHL SUB AND SWAP2 SWAP1 PUSH2 0x185E JUMP JUMPDEST PUSH2 0xB8B CALLER DUP3 SLOAD DUP8 PUSH2 0x1529 JUMP JUMPDEST DUP4 ISZERO PUSH2 0xB9A JUMPI PUSH2 0xB9A CALLER PUSH2 0x12B2 JUMP JUMPDEST POP POP POP PUSH2 0xBA6 PUSH1 0x1 DUP1 SSTORE JUMP JUMPDEST POP POP JUMP JUMPDEST PUSH2 0xBB3 DUP2 PUSH2 0x139E JUMP JUMPDEST POP JUMP JUMPDEST PUSH2 0xBBE PUSH2 0xF7F JUMP JUMPDEST PUSH0 DUP3 PUSH1 0x1 PUSH1 0x1 PUSH1 0x60 SHL SUB AND GT DUP1 ISZERO PUSH2 0xBEB JUMPI POP PUSH4 0xFFFFFFFF DUP2 AND PUSH2 0x3E8 LT DUP1 PUSH2 0xBEB JUMPI POP PUSH4 0xFFFFFFFF DUP2 AND ISZERO JUMPDEST PUSH2 0xBF3 JUMPI PUSH0 PUSH0 REVERT JUMPDEST PUSH1 0x1 PUSH1 0x1 PUSH1 0x60 SHL SUB DUP3 AND PUSH0 DUP2 DUP2 MSTORE PUSH1 0x4 PUSH1 0x20 SWAP1 DUP2 MSTORE PUSH1 0x40 SWAP2 DUP3 SWAP1 KECCAK256 DUP1 SLOAD PUSH4 0xFFFFFFFF NOT AND PUSH4 0xFFFFFFFF DUP7 AND SWAP1 DUP2 OR SWAP1 SWAP2 SSTORE DUP3 MLOAD SWAP4 DUP5 MSTORE SWAP1 DUP4 ADD MSTORE PUSH32 0xDFDE28BA1CFAE98DB642E3246355850B37332D75F04945DA4676E38AD045386 SWAP2 ADD PUSH1 0x40 MLOAD DUP1 SWAP2 SUB SWAP1 LOG1 POP POP JUMP JUMPDEST PUSH2 0xC64 PUSH2 0x1039 JUMP JUMPDEST PUSH0 DUP3 GT PUSH2 0xCB3 JUMPI PUSH1 0x40 MLOAD PUSH3 0x461BCD PUSH1 0xE5 SHL DUP2 MSTORE PUSH1 0x20 PUSH1 0x4 DUP3 ADD MSTORE PUSH1 0x11 PUSH1 0x24 DUP3 ADD MSTORE PUSH32 0x43616E6E6F7420756E7374616B65203021000000000000000000000000000000 PUSH1 0x44 DUP3 ADD MSTORE PUSH1 0x64 ADD PUSH2 0x8D3 JUMP JUMPDEST PUSH2 0xCCA CALLER PUSH1 0x7 SLOAD PUSH1 0x1 PUSH1 0x1 PUSH1 0xA0 SHL SUB AND SWAP1 DUP5 PUSH2 0x185E JUMP JUMPDEST PUSH2 0xCD5 CALLER DUP4 PUSH0 PUSH2 0x1529 JUMP JUMPDEST DUP1 ISZERO PUSH2 0xCE4 JUMPI PUSH2 0xCE4 CALLER PUSH2 0x12B2 JUMP JUMPDEST PUSH2 0xBA6 PUSH1 0x1 DUP1 SSTORE JUMP JUMPDEST PUSH1 0x1 PUSH1 0x1 PUSH1 0xA0 SHL SUB DUP3 AND PUSH0 SWAP1 DUP2 MSTORE PUSH1 0x5 PUSH1 0x20 MSTORE PUSH1 0x40 DUP2 KECCAK256 PUSH1 0x3 ADD SLOAD DUP2 SWAP1 DUP2 SWAP1 DUP2 SWAP1 DUP7 SWAP1 DUP7 SWAP1 PUSH2 0xD1D SWAP1 PUSH1 0x1 PUSH2 0x1D65 JUMP JUMPDEST DUP2 LT PUSH2 0xD6B JUMPI PUSH1 0x40 MLOAD PUSH3 0x461BCD PUSH1 0xE5 SHL DUP2 MSTORE PUSH1 0x20 PUSH1 0x4 DUP3 ADD MSTORE PUSH1 0x1D PUSH1 0x24 DUP3 ADD MSTORE PUSH32 0x50726F66697453686172653A496E76616C6964205374616B6520494421000000 PUSH1 0x44 DUP3 ADD MSTORE PUSH1 0x64 ADD PUSH2 0x8D3 JUMP JUMPDEST POP POP POP POP PUSH1 0x1 PUSH1 0x1 PUSH1 0xA0 SHL SUB SWAP4 SWAP1 SWAP4 AND PUSH0 SWAP1 DUP2 MSTORE PUSH1 0x6 PUSH1 0x20 SWAP1 DUP2 MSTORE PUSH1 0x40 DUP1 DUP4 KECCAK256 SWAP5 DUP4 MSTORE SWAP4 SWAP1 MSTORE SWAP2 DUP3 KECCAK256 DUP1 SLOAD PUSH1 0x1 SWAP1 SWAP2 ADD SLOAD SWAP1 SWAP5 SWAP3 SWAP4 POP PUSH1 0x1 PUSH1 0x1 PUSH1 0x60 SHL SUB DUP2 AND SWAP3 PUSH1 0x1 PUSH1 0x60 SHL SWAP1 SWAP2 DIV PUSH4 0xFFFFFFFF AND SWAP2 POP JUMP JUMPDEST PUSH2 0xDC6 PUSH2 0xF7F JUMP JUMPDEST PUSH0 DUP2 GT PUSH2 0xE2B JUMPI PUSH1 0x40 MLOAD PUSH3 0x461BCD PUSH1 0xE5 SHL DUP2 MSTORE PUSH1 0x20 PUSH1 0x4 DUP3 ADD MSTORE PUSH1 0x2D PUSH1 0x24 DUP3 ADD MSTORE PUSH32 0x50726F66697453686172653A616D6F756E74206D757374206265206772656174 PUSH1 0x44 DUP3 ADD MSTORE PUSH13 0x6572207468616E207A65726F21 PUSH1 0x98 SHL PUSH1 0x64 DUP3 ADD MSTORE PUSH1 0x84 ADD PUSH2 0x8D3 JUMP JUMPDEST PUSH1 0x8 SLOAD PUSH2 0xE4C SWAP1 PUSH3 0x34BC00 SWAP1 PUSH1 0x1 PUSH1 0xA0 SHL SWAP1 DIV PUSH1 0x1 PUSH1 0x1 PUSH1 0x60 SHL SUB AND PUSH2 0x1D8B JUMP JUMPDEST PUSH1 0x1 PUSH1 0x1 PUSH1 0x60 SHL SUB AND TIMESTAMP PUSH1 0x1 PUSH1 0x1 PUSH1 0x60 SHL SUB AND LT ISZERO DUP1 PUSH2 0xE6C JUMPI POP PUSH1 0x9 SLOAD ISZERO JUMPDEST PUSH2 0xE74 JUMPI PUSH0 PUSH0 REVERT JUMPDEST PUSH1 0x8 SLOAD PUSH2 0xE8B SWAP1 PUSH1 0x1 PUSH1 0x1 PUSH1 0xA0 SHL SUB AND DUP4 DUP4 PUSH2 0x185E JUMP JUMPDEST DUP2 PUSH1 0x1 PUSH1 0x1 PUSH1 0xA0 SHL SUB AND PUSH32 0x1D3EEE4CA001CFF39EEC6EC7615AACF2F2BD61791273830728BA00CCBD6E1337 DUP3 PUSH1 0x40 MLOAD PUSH2 0xEC6 SWAP2 DUP2 MSTORE PUSH1 0x20 ADD SWAP1 JUMP JUMPDEST PUSH1 0x40 MLOAD DUP1 SWAP2 SUB SWAP1 LOG2 POP POP JUMP JUMPDEST PUSH2 0xEDA PUSH2 0x1039 JUMP JUMPDEST PUSH2 0xEF2 CALLER PUSH1 0x7 SLOAD PUSH1 0x1 PUSH1 0x1 PUSH1 0xA0 SHL SUB AND SWAP1 ADDRESS DUP5 PUSH2 0x14AD JUMP JUMPDEST PUSH0 PUSH1 0x1 PUSH1 0x1 PUSH1 0x60 SHL SUB DUP4 AND ISZERO PUSH2 0xF2B JUMPI CALLER PUSH0 SWAP1 DUP2 MSTORE PUSH1 0x5 PUSH1 0x20 MSTORE PUSH1 0x40 DUP2 KECCAK256 PUSH1 0x3 ADD DUP1 SLOAD SWAP1 SWAP2 SWAP1 PUSH2 0xF21 SWAP1 PUSH2 0x1DAA JUMP JUMPDEST SWAP2 DUP3 SWAP1 SSTORE POP PUSH2 0xF2D JUMP JUMPDEST PUSH0 JUMPDEST SWAP1 POP PUSH2 0xF3B CALLER DUP5 DUP5 DUP5 PUSH2 0x1638 JUMP JUMPDEST POP PUSH2 0xBA6 PUSH1 0x1 DUP1 SSTORE JUMP JUMPDEST PUSH2 0xF4D PUSH2 0xF7F JUMP JUMPDEST PUSH1 0x1 PUSH1 0x1 PUSH1 0xA0 SHL SUB DUP2 AND PUSH2 0xF76 JUMPI PUSH1 0x40 MLOAD PUSH4 0x1E4FBDF7 PUSH1 0xE0 SHL DUP2 MSTORE PUSH0 PUSH1 0x4 DUP3 ADD MSTORE PUSH1 0x24 ADD PUSH2 0x8D3 JUMP JUMPDEST PUSH2 0xBB3 DUP2 PUSH2 0x1451 JUMP JUMPDEST PUSH0 SLOAD PUSH1 0x1 PUSH1 0x1 PUSH1 0xA0 SHL SUB AND CALLER EQ PUSH2 0x670 JUMPI PUSH1 0x40 MLOAD PUSH4 0x118CDAA7 PUSH1 0xE0 SHL DUP2 MSTORE CALLER PUSH1 0x4 DUP3 ADD MSTORE PUSH1 0x24 ADD PUSH2 0x8D3 JUMP JUMPDEST PUSH1 0x60 PUSH2 0xFB9 DUP3 PUSH2 0x188F PUSH2 0x1893 JUMP JUMPDEST POP SWAP1 SWAP2 SWAP1 POP JUMP JUMPDEST PUSH0 DUP3 DUP3 XOR DUP3 DUP5 LT MUL DUP3 XOR JUMPDEST SWAP1 POP JUMPDEST SWAP3 SWAP2 POP POP JUMP JUMPDEST PUSH0 DUP3 DUP3 XOR DUP3 DUP5 GT MUL DUP3 XOR PUSH2 0xFCB JUMP JUMPDEST PUSH0 PUSH0 PUSH1 0x3 PUSH1 0x1 PUSH2 0xFF4 PUSH1 0x2 DUP7 PUSH2 0x1343 JUMP JUMPDEST PUSH2 0xFFE SWAP2 SWAP1 PUSH2 0x1D78 JUMP JUMPDEST DUP2 SLOAD DUP2 LT PUSH2 0x100E JUMPI PUSH2 0x100E PUSH2 0x1C87 JUMP JUMPDEST PUSH0 SWAP2 DUP3 MSTORE PUSH1 0x20 SWAP1 SWAP2 KECCAK256 ADD SLOAD SWAP1 POP PUSH2 0x3E8 PUSH2 0x1028 DUP5 DUP4 PUSH2 0x1D2F JUMP JUMPDEST PUSH2 0x1032 SWAP2 SWAP1 PUSH2 0x1D46 JUMP JUMPDEST SWAP4 SWAP3 POP POP POP JUMP JUMPDEST PUSH1 0x2 PUSH1 0x1 SLOAD SUB PUSH2 0x105C JUMPI PUSH1 0x40 MLOAD PUSH4 0x3EE5AEB5 PUSH1 0xE0 SHL DUP2 MSTORE PUSH1 0x4 ADD PUSH1 0x40 MLOAD DUP1 SWAP2 SUB SWAP1 REVERT JUMPDEST PUSH1 0x2 PUSH1 0x1 SSTORE JUMP JUMPDEST PUSH1 0xC SLOAD PUSH0 SWAP1 PUSH2 0x107E SWAP1 PUSH1 0x1 PUSH1 0x1 PUSH1 0x60 SHL SUB AND PUSH2 0x581 TIMESTAMP PUSH2 0x564 JUMP JUMPDEST PUSH1 0x9 SLOAD SWAP1 SWAP2 POP ISZERO DUP1 ISZERO SWAP1 PUSH2 0x10A0 JUMPI POP PUSH1 0xC SLOAD PUSH1 0x1 PUSH1 0x1 PUSH1 0x60 SHL SUB SWAP1 DUP2 AND SWAP1 DUP3 AND GT JUMPDEST ISZERO PUSH2 0x10F5 JUMPI PUSH1 0x9 SLOAD PUSH1 0xA SLOAD PUSH1 0xC SLOAD PUSH2 0x10C1 SWAP1 PUSH1 0x1 PUSH1 0x1 PUSH1 0x60 SHL SUB AND DUP5 PUSH2 0x1D10 JUMP JUMPDEST PUSH1 0x1 PUSH1 0x1 PUSH1 0x60 SHL SUB AND PUSH2 0x10D4 SWAP2 SWAP1 PUSH2 0x1D2F JUMP JUMPDEST PUSH2 0x10DE SWAP2 SWAP1 PUSH2 0x1D46 JUMP JUMPDEST PUSH1 0xB DUP1 SLOAD PUSH0 SWAP1 PUSH2 0x10EF SWAP1 DUP5 SWAP1 PUSH2 0x1D65 JUMP JUMPDEST SWAP1 SWAP2 SSTORE POP POP JUMPDEST PUSH1 0xC DUP1 SLOAD PUSH12 0xFFFFFFFFFFFFFFFFFFFFFFFF NOT AND PUSH1 0x1 PUSH1 0x1 PUSH1 0x60 SHL SUB DUP4 AND OR SWAP1 SSTORE PUSH1 0x1 PUSH1 0x1 PUSH1 0xA0 SHL SUB DUP5 AND ISZERO PUSH2 0x12AC JUMPI PUSH1 0x1 PUSH1 0x1 PUSH1 0xA0 SHL SUB DUP5 AND PUSH0 SWAP1 DUP2 MSTORE PUSH1 0x5 PUSH1 0x20 MSTORE PUSH1 0x40 DUP2 KECCAK256 DUP1 SLOAD SWAP1 SWAP2 SWAP1 PUSH2 0x1149 SWAP1 PUSH2 0xFE3 JUMP JUMPDEST DUP3 SLOAD SWAP1 SWAP2 POP ISZERO PUSH2 0x119B JUMPI PUSH1 0x2 DUP3 ADD SLOAD PUSH1 0xB SLOAD PUSH9 0x3635C9ADC5DEA00000 SWAP2 PUSH2 0x116F SWAP2 PUSH2 0x1D78 JUMP JUMPDEST PUSH2 0x1179 SWAP1 DUP4 PUSH2 0x1D2F JUMP JUMPDEST PUSH2 0x1183 SWAP2 SWAP1 PUSH2 0x1D46 JUMP JUMPDEST DUP3 PUSH1 0x1 ADD PUSH0 DUP3 DUP3 SLOAD PUSH2 0x1195 SWAP2 SWAP1 PUSH2 0x1D65 JUMP JUMPDEST SWAP1 SWAP2 SSTORE POP POP JUMPDEST PUSH1 0xB SLOAD PUSH1 0x2 DUP4 ADD SSTORE DUP2 SLOAD DUP5 SWAP1 PUSH2 0x11B2 SWAP1 DUP8 SWAP1 PUSH2 0x1D65 JUMP JUMPDEST PUSH2 0x11BC SWAP2 SWAP1 PUSH2 0x1D78 JUMP JUMPDEST DUP1 DUP4 SSTORE DUP2 SWAP1 PUSH2 0x11CA SWAP1 PUSH2 0xFE3 JUMP JUMPDEST PUSH1 0x9 SLOAD PUSH2 0x11D7 SWAP2 SWAP1 PUSH2 0x1D65 JUMP JUMPDEST PUSH2 0x11E1 SWAP2 SWAP1 PUSH2 0x1D78 JUMP JUMPDEST PUSH1 0x9 SSTORE DUP2 SLOAD PUSH1 0x1 DUP4 ADD SLOAD PUSH1 0x2 DUP5 ADD SLOAD PUSH1 0x40 DUP1 MLOAD SWAP4 DUP5 MSTORE PUSH1 0x20 DUP5 ADD SWAP3 SWAP1 SWAP3 MSTORE SWAP1 DUP3 ADD MSTORE PUSH1 0x1 PUSH1 0x1 PUSH1 0xA0 SHL SUB DUP8 AND SWAP1 PUSH32 0xF1DA46A1CA3E37613208B2A3D7EC556866482D77A0005D6168D73270CED6B26A SWAP1 PUSH1 0x60 ADD PUSH1 0x40 MLOAD DUP1 SWAP2 SUB SWAP1 LOG2 PUSH1 0x9 SLOAD PUSH1 0xA SLOAD PUSH1 0xB SLOAD PUSH1 0xC SLOAD PUSH1 0x8 SLOAD PUSH1 0x40 DUP1 MLOAD SWAP6 DUP7 MSTORE PUSH1 0x20 DUP7 ADD SWAP5 SWAP1 SWAP5 MSTORE DUP5 DUP5 ADD SWAP3 SWAP1 SWAP3 MSTORE PUSH1 0x1 PUSH1 0x1 PUSH1 0x60 SHL SUB SWAP1 DUP2 AND PUSH1 0x60 DUP6 ADD MSTORE PUSH1 0x1 PUSH1 0xA0 SHL SWAP1 SWAP2 DIV AND PUSH1 0x80 DUP4 ADD MSTORE MLOAD PUSH32 0xE111F67A87ACE56A1496291914B8E0DA23748FFDDAA8BC98D0F4D4DFB51796A5 SWAP2 DUP2 SWAP1 SUB PUSH1 0xA0 ADD SWAP1 LOG1 POP POP JUMPDEST POP POP POP POP JUMP JUMPDEST PUSH1 0x1 PUSH1 0x1 PUSH1 0xA0 SHL SUB DUP2 AND PUSH0 SWAP1 DUP2 MSTORE PUSH1 0x5 PUSH1 0x20 MSTORE PUSH1 0x40 SWAP1 KECCAK256 PUSH1 0x1 DUP2 ADD SLOAD ISZERO PUSH2 0xBA6 JUMPI PUSH1 0x1 DUP2 ADD SLOAD PUSH1 0x8 SLOAD PUSH2 0x12F2 SWAP2 PUSH1 0x1 PUSH1 0x1 PUSH1 0xA0 SHL SUB SWAP1 SWAP2 AND SWAP1 DUP5 SWAP1 PUSH2 0x185E JUMP JUMPDEST DUP2 PUSH1 0x1 PUSH1 0x1 PUSH1 0xA0 SHL SUB AND PUSH32 0xE2403640BA68FED3A2F88B7557551D1993F84B99BB10FF833F0CF8DB0C5E0486 DUP3 PUSH1 0x1 ADD SLOAD PUSH1 0x40 MLOAD PUSH2 0x1331 SWAP2 DUP2 MSTORE PUSH1 0x20 ADD SWAP1 JUMP JUMPDEST PUSH1 0x40 MLOAD DUP1 SWAP2 SUB SWAP1 LOG2 PUSH0 PUSH1 0x1 DUP3 ADD SSTORE POP POP JUMP JUMPDEST DUP2 SLOAD PUSH0 SWAP1 DUP2 SWAP1 DUP1 DUP3 SUB PUSH2 0x135A JUMPI PUSH0 SWAP3 POP POP POP PUSH2 0xFCE JUMP JUMPDEST DUP1 DUP3 LT ISZERO PUSH2 0x1396 JUMPI PUSH0 PUSH2 0x136D DUP4 DUP4 PUSH2 0x18AB JUMP JUMPDEST SWAP1 POP DUP5 PUSH2 0x137A DUP8 DUP4 PUSH2 0x18C5 JUMP JUMPDEST SLOAD GT ISZERO PUSH2 0x1389 JUMPI DUP1 SWAP2 POP PUSH2 0x1390 JUMP JUMPDEST DUP1 PUSH1 0x1 ADD SWAP3 POP JUMPDEST POP PUSH2 0x135A JUMP JUMPDEST POP SWAP4 SWAP3 POP POP POP JUMP JUMPDEST PUSH0 DUP2 GT PUSH2 0x1403 JUMPI PUSH1 0x40 MLOAD PUSH3 0x461BCD PUSH1 0xE5 SHL DUP2 MSTORE PUSH1 0x20 PUSH1 0x4 DUP3 ADD MSTORE PUSH1 0x2D PUSH1 0x24 DUP3 ADD MSTORE PUSH32 0x50726F66697453686172653A616D6F756E74206D757374206265206772656174 PUSH1 0x44 DUP3 ADD MSTORE PUSH13 0x6572207468616E207A65726F21 PUSH1 0x98 SHL PUSH1 0x64 DUP3 ADD MSTORE PUSH1 0x84 ADD PUSH2 0x8D3 JUMP JUMPDEST PUSH2 0x141B CALLER PUSH1 0x8 SLOAD PUSH1 0x1 PUSH1 0x1 PUSH1 0xA0 SHL SUB AND SWAP1 ADDRESS DUP5 PUSH2 0x14AD JUMP JUMPDEST PUSH1 0x40 MLOAD DUP2 DUP2 MSTORE PUSH32 0xDE88A922E0D3B88B24E9623EFEB464919C6BF9F66857A65E2BFCF2CE87A9433D SWAP1 PUSH1 0x20 ADD PUSH1 0x40 MLOAD DUP1 SWAP2 SUB SWAP1 LOG1 POP JUMP JUMPDEST PUSH0 DUP1 SLOAD PUSH1 0x1 PUSH1 0x1 PUSH1 0xA0 SHL SUB DUP4 DUP2 AND PUSH20 0xFFFFFFFFFFFFFFFFFFFFFFFFFFFFFFFFFFFFFFFF NOT DUP4 AND DUP2 OR DUP5 SSTORE PUSH1 0x40 MLOAD SWAP2 SWAP1 SWAP3 AND SWAP3 DUP4 SWAP2 PUSH32 0x8BE0079C531659141344CD1FD0A4F28419497F9722A3DAAFE3B4186F6B6457E0 SWAP2 SWAP1 LOG3 POP POP JUMP JUMPDEST PUSH1 0x40 MLOAD PUSH1 0x1 PUSH1 0x1 PUSH1 0xA0 SHL SUB DUP5 DUP2 AND PUSH1 0x24 DUP4 ADD MSTORE DUP4 DUP2 AND PUSH1 0x44 DUP4 ADD MSTORE PUSH1 0x64 DUP3 ADD DUP4 SWAP1 MSTORE PUSH2 0x12AC SWAP2 DUP7 SWAP2 DUP3 AND SWAP1 PUSH4 0x23B872DD SWAP1 PUSH1 0x84 ADD JUMPDEST PUSH1 0x40 MLOAD PUSH1 0x20 DUP2 DUP4 SUB SUB DUP2 MSTORE SWAP1 PUSH1 0x40 MSTORE SWAP2 POP PUSH1 0xE0 SHL PUSH1 0x20 DUP3 ADD DUP1 MLOAD PUSH28 0xFFFFFFFFFFFFFFFFFFFFFFFFFFFFFFFFFFFFFFFFFFFFFFFFFFFFFFFF DUP4 DUP2 DUP4 AND OR DUP4 MSTORE POP POP POP POP PUSH2 0x18EC JUMP JUMPDEST PUSH1 0x1 PUSH1 0x1 PUSH1 0xA0 SHL SUB DUP4 AND PUSH0 SWAP1 DUP2 MSTORE PUSH1 0x6 PUSH1 0x20 SWAP1 DUP2 MSTORE PUSH1 0x40 DUP1 DUP4 KECCAK256 DUP5 DUP5 MSTORE SWAP1 SWAP2 MSTORE SWAP1 KECCAK256 DUP1 SLOAD DUP4 GT ISZERO PUSH2 0x15A6 JUMPI PUSH1 0x40 MLOAD PUSH3 0x461BCD PUSH1 0xE5 SHL DUP2 MSTORE PUSH1 0x20 PUSH1 0x4 DUP3 ADD MSTORE PUSH1 0x21 PUSH1 0x24 DUP3 ADD MSTORE PUSH32 0x50726F66697453686172653A496E73756666696369656E742062616C616E6365 PUSH1 0x44 DUP3 ADD MSTORE PUSH1 0x21 PUSH1 0xF8 SHL PUSH1 0x64 DUP3 ADD MSTORE PUSH1 0x84 ADD PUSH2 0x8D3 JUMP JUMPDEST PUSH1 0x1 DUP2 ADD SLOAD PUSH0 SWAP1 PUSH2 0x3E8 SWAP1 PUSH2 0x15C8 SWAP1 PUSH1 0x1 PUSH1 0x60 SHL SWAP1 DIV PUSH4 0xFFFFFFFF AND DUP7 PUSH2 0x1D2F JUMP JUMPDEST PUSH2 0x15D2 SWAP2 SWAP1 PUSH2 0x1D46 JUMP JUMPDEST SWAP1 POP PUSH2 0x15DF DUP6 PUSH0 DUP4 PUSH2 0x1063 JUMP JUMPDEST DUP4 DUP3 PUSH0 ADD PUSH0 DUP3 DUP3 SLOAD PUSH2 0x15F1 SWAP2 SWAP1 PUSH2 0x1D78 JUMP JUMPDEST SWAP1 SWAP2 SSTORE POP POP PUSH1 0x40 DUP1 MLOAD DUP5 DUP2 MSTORE PUSH1 0x20 DUP2 ADD DUP7 SWAP1 MSTORE CALLER SWAP2 PUSH32 0x459D5AEF2C549903C1EEB1736F5728845D5CCF82537DDD5BF8035795EEE89263 SWAP2 ADD PUSH1 0x40 MLOAD DUP1 SWAP2 SUB SWAP1 LOG2 POP POP POP POP POP JUMP JUMPDEST PUSH1 0x7 SLOAD PUSH1 0x1 PUSH1 0xA0 SHL SWAP1 DIV PUSH1 0x1 PUSH1 0x1 PUSH1 0x60 SHL SUB AND TIMESTAMP PUSH1 0x1 PUSH1 0x1 PUSH1 0x60 SHL SUB AND LT ISZERO DUP1 ISZERO PUSH2 0x167D JUMPI POP PUSH1 0x8 SLOAD PUSH1 0x1 PUSH1 0xA0 SHL SWAP1 DIV PUSH1 0x1 PUSH1 0x1 PUSH1 0x60 SHL SUB AND TIMESTAMP PUSH1 0x1 PUSH1 0x1 PUSH1 0x60 SHL SUB AND LT JUMPDEST PUSH2 0x16C9 JUMPI PUSH1 0x40 MLOAD PUSH3 0x461BCD PUSH1 0xE5 SHL DUP2 MSTORE PUSH1 0x20 PUSH1 0x4 DUP3 ADD MSTORE PUSH1 0x1F PUSH1 0x24 DUP3 ADD MSTORE PUSH32 0x50726F66697453686172653A506F6F6C206973206E6F74206163746976652100 PUSH1 0x44 DUP3 ADD MSTORE PUSH1 0x64 ADD PUSH2 0x8D3 JUMP JUMPDEST PUSH1 0x1 PUSH1 0x1 PUSH1 0x60 SHL SUB DUP4 AND PUSH0 SWAP1 DUP2 MSTORE PUSH1 0x4 PUSH1 0x20 MSTORE PUSH1 0x40 DUP2 KECCAK256 SLOAD PUSH4 0xFFFFFFFF AND SWAP1 PUSH2 0x3E8 PUSH2 0x16F5 DUP4 DUP7 PUSH2 0x1D2F JUMP JUMPDEST PUSH2 0x16FF SWAP2 SWAP1 PUSH2 0x1D46 JUMP JUMPDEST SWAP1 POP PUSH0 DUP2 GT PUSH2 0x1776 JUMPI PUSH1 0x40 MLOAD PUSH3 0x461BCD PUSH1 0xE5 SHL DUP2 MSTORE PUSH1 0x20 PUSH1 0x4 DUP3 ADD MSTORE PUSH1 0x39 PUSH1 0x24 DUP3 ADD MSTORE PUSH32 0x50726F66697453686172653A616D6F756E7420616E64206D756C7469706C6965 PUSH1 0x44 DUP3 ADD MSTORE PUSH32 0x72206D7573742062652067726561746572207468616E20302100000000000000 PUSH1 0x64 DUP3 ADD MSTORE PUSH1 0x84 ADD PUSH2 0x8D3 JUMP JUMPDEST PUSH2 0x1781 DUP7 DUP3 PUSH0 PUSH2 0x1063 JUMP JUMPDEST CALLER PUSH0 SWAP1 DUP2 MSTORE PUSH1 0x6 PUSH1 0x20 SWAP1 DUP2 MSTORE PUSH1 0x40 DUP1 DUP4 KECCAK256 DUP7 DUP5 MSTORE SWAP1 SWAP2 MSTORE DUP2 KECCAK256 DUP1 SLOAD SWAP1 SWAP2 DUP7 SWAP2 DUP4 SWAP2 SWAP1 PUSH2 0x17AE SWAP1 DUP5 SWAP1 PUSH2 0x1D65 JUMP JUMPDEST SWAP1 SWAP2 SSTORE POP PUSH2 0x17BE SWAP1 POP DUP7 TIMESTAMP PUSH2 0x1D8B JUMP JUMPDEST PUSH1 0x1 DUP3 ADD DUP1 SLOAD PUSH1 0x1 PUSH1 0x1 PUSH1 0x60 SHL SUB SWAP3 DUP4 AND PUSH16 0xFFFFFFFFFFFFFFFFFFFFFFFFFFFFFFFF NOT SWAP1 SWAP2 AND OR PUSH1 0x1 PUSH1 0x60 SHL PUSH4 0xFFFFFFFF DUP8 AND MUL OR SWAP1 DUP2 SWAP1 SSTORE DUP3 SLOAD PUSH1 0x40 DUP1 MLOAD DUP9 DUP2 MSTORE PUSH1 0x20 DUP2 ADD SWAP3 SWAP1 SWAP3 MSTORE PUSH0 SWAP1 DUP3 ADD MSTORE SWAP1 DUP3 AND PUSH1 0x60 DUP3 ADD MSTORE SWAP1 DUP8 AND PUSH1 0x80 DUP3 ADD MSTORE PUSH1 0x1 PUSH1 0x1 PUSH1 0xA0 SHL SUB DUP9 AND SWAP1 PUSH32 0xFB323914BFE99940926CD03FE7969535604DD9A3C82B28853E738744DD6F9AAA SWAP1 PUSH1 0xA0 ADD PUSH1 0x40 MLOAD DUP1 SWAP2 SUB SWAP1 LOG2 POP POP POP POP POP POP POP JUMP JUMPDEST PUSH1 0x40 MLOAD PUSH1 0x1 PUSH1 0x1 PUSH1 0xA0 SHL SUB DUP4 DUP2 AND PUSH1 0x24 DUP4 ADD MSTORE PUSH1 0x44 DUP3 ADD DUP4 SWAP1 MSTORE PUSH2 0x9FD SWAP2 DUP6 SWAP2 DUP3 AND SWAP1 PUSH4 0xA9059CBB SWAP1 PUSH1 0x64 ADD PUSH2 0x14E2 JUMP JUMPDEST GT SWAP1 JUMP JUMPDEST PUSH1 0x60 PUSH2 0xFB9 PUSH1 0x20 DUP5 ADD PUSH2 0x18A5 DUP6 PUSH2 0x1958 JUMP JUMPDEST DUP5 PUSH2 0x196F JUMP JUMPDEST PUSH0 PUSH2 0x18B9 PUSH1 0x2 DUP5 DUP5 XOR PUSH2 0x1D46 JUMP JUMPDEST PUSH2 0xFCB SWAP1 DUP5 DUP5 AND PUSH2 0x1D65 JUMP JUMPDEST PUSH0 DUP3 PUSH2 0x18E4 PUSH2 0x18E1 DUP5 PUSH2 0x18DD DUP5 PUSH0 SWAP1 DUP2 MSTORE PUSH1 0x20 SWAP1 KECCAK256 SWAP1 JUMP JUMPDEST ADD SWAP1 JUMP JUMPDEST SWAP1 JUMP JUMPDEST SWAP5 SWAP4 POP POP POP POP JUMP JUMPDEST PUSH0 PUSH0 PUSH1 0x20 PUSH0 DUP5 MLOAD PUSH1 0x20 DUP7 ADD PUSH0 DUP9 GAS CALL DUP1 PUSH2 0x190B JUMPI PUSH1 0x40 MLOAD RETURNDATASIZE PUSH0 DUP3 RETURNDATACOPY RETURNDATASIZE DUP2 REVERT JUMPDEST POP POP PUSH0 MLOAD RETURNDATASIZE SWAP2 POP DUP2 ISZERO PUSH2 0x1922 JUMPI DUP1 PUSH1 0x1 EQ ISZERO PUSH2 0x192F JUMP JUMPDEST PUSH1 0x1 PUSH1 0x1 PUSH1 0xA0 SHL SUB DUP5 AND EXTCODESIZE ISZERO JUMPDEST ISZERO PUSH2 0x12AC JUMPI PUSH1 0x40 MLOAD PUSH4 0x5274AFE7 PUSH1 0xE0 SHL DUP2 MSTORE PUSH1 0x1 PUSH1 0x1 PUSH1 0xA0 SHL SUB DUP6 AND PUSH1 0x4 DUP3 ADD MSTORE PUSH1 0x24 ADD PUSH2 0x8D3 JUMP JUMPDEST PUSH0 DUP2 MLOAD PUSH1 0x20 MUL PUSH2 0x1968 DUP4 PUSH1 0x20 ADD SWAP1 JUMP JUMPDEST ADD SWAP3 SWAP2 POP POP JUMP JUMPDEST PUSH1 0x40 DUP4 DUP4 SUB LT ISZERO PUSH2 0x197F JUMPI POP POP POP JUMP JUMPDEST PUSH0 PUSH2 0x1988 DUP5 MLOAD SWAP1 JUMP JUMPDEST SWAP1 POP DUP4 PUSH1 0x20 DUP2 ADD JUMPDEST DUP5 DUP2 LT ISZERO PUSH2 0x19CA JUMPI PUSH2 0x19AD PUSH2 0x19A3 DUP3 MLOAD SWAP1 JUMP JUMPDEST DUP5 DUP7 PUSH4 0xFFFFFFFF AND JUMP JUMPDEST ISZERO PUSH2 0x19C2 JUMPI PUSH1 0x20 SWAP2 SWAP1 SWAP2 ADD DUP1 MLOAD DUP3 MLOAD DUP3 MSTORE DUP3 MSTORE SWAP1 JUMPDEST PUSH1 0x20 ADD PUSH2 0x1990 JUMP JUMPDEST POP DUP5 MLOAD DUP2 MLOAD DUP7 MSTORE DUP2 MSTORE PUSH2 0x19DE DUP6 DUP3 DUP6 PUSH2 0x196F JUMP JUMPDEST PUSH2 0x19EC DUP2 PUSH1 0x20 ADD DUP6 DUP6 PUSH2 0x196F JUMP JUMPDEST POP POP POP POP POP JUMP JUMPDEST DUP3 DUP1 SLOAD DUP3 DUP3 SSTORE SWAP1 PUSH0 MSTORE PUSH1 0x20 PUSH0 KECCAK256 SWAP1 DUP2 ADD SWAP3 DUP3 ISZERO PUSH2 0x1A2C JUMPI SWAP2 PUSH1 0x20 MUL DUP3 ADD JUMPDEST DUP3 DUP2 GT ISZERO PUSH2 0x1A2C JUMPI DUP3 MLOAD DUP3 SSTORE SWAP2 PUSH1 0x20 ADD SWAP2 SWAP1 PUSH1 0x1 ADD SWAP1 PUSH2 0x1A11 JUMP JUMPDEST POP PUSH2 0x1A38 SWAP3 SWAP2 POP PUSH2 0x1A3C JUMP JUMPDEST POP SWAP1 JUMP JUMPDEST JUMPDEST DUP1 DUP3 GT ISZERO PUSH2 0x1A38 JUMPI PUSH0 DUP2 SSTORE PUSH1 0x1 ADD PUSH2 0x1A3D JUMP JUMPDEST PUSH0 PUSH0 DUP4 PUSH1 0x1F DUP5 ADD SLT PUSH2 0x1A60 JUMPI PUSH0 PUSH0 REVERT JUMPDEST POP DUP2 CALLDATALOAD PUSH8 0xFFFFFFFFFFFFFFFF DUP2 GT ISZERO PUSH2 0x1A77 JUMPI PUSH0 PUSH0 REVERT JUMPDEST PUSH1 0x20 DUP4 ADD SWAP2 POP DUP4 PUSH1 0x20 DUP3 PUSH1 0x5 SHL DUP6 ADD ADD GT ISZERO PUSH2 0x1A91 JUMPI PUSH0 PUSH0 REVERT JUMPDEST SWAP3 POP SWAP3 SWAP1 POP JUMP JUMPDEST PUSH0 PUSH0 PUSH0 PUSH0 PUSH1 0x40 DUP6 DUP8 SUB SLT ISZERO PUSH2 0x1AAB JUMPI PUSH0 PUSH0 REVERT JUMPDEST DUP5 CALLDATALOAD PUSH8 0xFFFFFFFFFFFFFFFF DUP2 GT ISZERO PUSH2 0x1AC1 JUMPI PUSH0 PUSH0 REVERT JUMPDEST PUSH2 0x1ACD DUP8 DUP3 DUP9 ADD PUSH2 0x1A50 JUMP JUMPDEST SWAP1 SWAP6 POP SWAP4 POP POP PUSH1 0x20 DUP6 ADD CALLDATALOAD PUSH8 0xFFFFFFFFFFFFFFFF DUP2 GT ISZERO PUSH2 0x1AEC JUMPI PUSH0 PUSH0 REVERT JUMPDEST PUSH2 0x1AF8 DUP8 DUP3 DUP9 ADD PUSH2 0x1A50 JUMP JUMPDEST SWAP6 SWAP9 SWAP5 SWAP8 POP SWAP6 POP POP POP POP JUMP JUMPDEST DUP1 CALLDATALOAD PUSH1 0x1 PUSH1 0x1 PUSH1 0xA0 SHL SUB DUP2 AND DUP2 EQ PUSH2 0x1B1A JUMPI PUSH0 PUSH0 REVERT JUMPDEST SWAP2 SWAP1 POP JUMP JUMPDEST PUSH0 PUSH1 0x20 DUP3 DUP5 SUB SLT ISZERO PUSH2 0x1B2F JUMPI PUSH0 PUSH0 REVERT JUMPDEST PUSH2 0xFCB DUP3 PUSH2 0x1B04 JUMP JUMPDEST DUP1 CALLDATALOAD PUSH1 0x1 PUSH1 0x1 PUSH1 0x60 SHL SUB DUP2 AND DUP2 EQ PUSH2 0x1B1A JUMPI PUSH0 PUSH0 REVERT JUMPDEST PUSH0 PUSH0 PUSH0 PUSH1 0x60 DUP5 DUP7 SUB SLT ISZERO PUSH2 0x1B60 JUMPI PUSH0 PUSH0 REVERT JUMPDEST PUSH2 0x1B69 DUP5 PUSH2 0x1B38 JUMP JUMPDEST SWAP6 PUSH1 0x20 DUP6 ADD CALLDATALOAD SWAP6 POP PUSH1 0x40 SWAP1 SWAP5 ADD CALLDATALOAD SWAP4 SWAP3 POP POP POP JUMP JUMPDEST PUSH0 PUSH1 0x20 DUP3 DUP5 SUB SLT ISZERO PUSH2 0x1B8E JUMPI PUSH0 PUSH0 REVERT JUMPDEST PUSH2 0xFCB DUP3 PUSH2 0x1B38 JUMP JUMPDEST PUSH0 PUSH0 PUSH0 PUSH1 0x60 DUP5 DUP7 SUB SLT ISZERO PUSH2 0x1BA9 JUMPI PUSH0 PUSH0 REVERT JUMPDEST DUP4 CALLDATALOAD SWAP3 POP PUSH2 0x1BB9 PUSH1 0x20 DUP6 ADD PUSH2 0x1B38 JUMP JUMPDEST SWAP3 SWAP6 SWAP3 SWAP5 POP POP POP PUSH1 0x40 SWAP2 SWAP1 SWAP2 ADD CALLDATALOAD SWAP1 JUMP JUMPDEST PUSH0 PUSH0 PUSH1 0x40 DUP4 DUP6 SUB SLT ISZERO PUSH2 0x1BDB JUMPI PUSH0 PUSH0 REVERT JUMPDEST DUP3 CALLDATALOAD SWAP2 POP PUSH1 0x20 DUP4 ADD CALLDATALOAD DUP1 ISZERO ISZERO DUP2 EQ PUSH2 0x1BF1 JUMPI PUSH0 PUSH0 REVERT JUMPDEST DUP1 SWAP2 POP POP SWAP3 POP SWAP3 SWAP1 POP JUMP JUMPDEST PUSH0 PUSH1 0x20 DUP3 DUP5 SUB SLT ISZERO PUSH2 0x1C0C JUMPI PUSH0 PUSH0 REVERT JUMPDEST POP CALLDATALOAD SWAP2 SWAP1 POP JUMP JUMPDEST PUSH0 PUSH0 PUSH1 0x40 DUP4 DUP6 SUB SLT ISZERO PUSH2 0x1C24 JUMPI PUSH0 PUSH0 REVERT JUMPDEST PUSH2 0x1C2D DUP4 PUSH2 0x1B38 JUMP JUMPDEST SWAP2 POP PUSH1 0x20 DUP4 ADD CALLDATALOAD PUSH4 0xFFFFFFFF DUP2 AND DUP2 EQ PUSH2 0x1BF1 JUMPI PUSH0 PUSH0 REVERT JUMPDEST PUSH0 PUSH0 PUSH1 0x40 DUP4 DUP6 SUB SLT ISZERO PUSH2 0x1C56 JUMPI PUSH0 PUSH0 REVERT JUMPDEST PUSH2 0x1C5F DUP4 PUSH2 0x1B04 JUMP JUMPDEST SWAP5 PUSH1 0x20 SWAP4 SWAP1 SWAP4 ADD CALLDATALOAD SWAP4 POP POP POP JUMP JUMPDEST PUSH0 PUSH0 PUSH1 0x40 DUP4 DUP6 SUB SLT ISZERO PUSH2 0x1C7E JUMPI PUSH0 PUSH0 REVERT JUMPDEST PUSH2 0x1C5F DUP4 PUSH2 0x1B38 JUMP JUMPDEST PUSH4 0x4E487B71 PUSH1 0xE0 SHL PUSH0 MSTORE PUSH1 0x32 PUSH1 0x4 MSTORE PUSH1 0x24 PUSH0 REVERT JUMPDEST PUSH0 DUP2 SLOAD DUP1 DUP5 MSTORE PUSH1 0x20 DUP5 ADD SWAP4 POP DUP3 PUSH0 MSTORE PUSH1 0x20 PUSH0 KECCAK256 PUSH0 JUMPDEST DUP3 DUP2 LT ISZERO PUSH2 0x1CCE JUMPI DUP2 SLOAD DUP7 MSTORE PUSH1 0x20 SWAP1 SWAP6 ADD SWAP5 PUSH1 0x1 SWAP2 DUP3 ADD SWAP2 ADD PUSH2 0x1CB0 JUMP JUMPDEST POP SWAP4 SWAP5 SWAP4 POP POP POP POP JUMP JUMPDEST PUSH1 0x40 DUP2 MSTORE PUSH0 PUSH2 0x1CEA PUSH1 0x40 DUP4 ADD DUP6 PUSH2 0x1C9B JUMP JUMPDEST DUP3 DUP2 SUB PUSH1 0x20 DUP5 ADD MSTORE PUSH2 0x642 DUP2 DUP6 PUSH2 0x1C9B JUMP JUMPDEST PUSH4 0x4E487B71 PUSH1 0xE0 SHL PUSH0 MSTORE PUSH1 0x11 PUSH1 0x4 MSTORE PUSH1 0x24 PUSH0 REVERT JUMPDEST PUSH1 0x1 PUSH1 0x1 PUSH1 0x60 SHL SUB DUP3 DUP2 AND DUP3 DUP3 AND SUB SWAP1 DUP2 GT ISZERO PUSH2 0xFCE JUMPI PUSH2 0xFCE PUSH2 0x1CFC JUMP JUMPDEST DUP1 DUP3 MUL DUP2 ISZERO DUP3 DUP3 DIV DUP5 EQ OR PUSH2 0xFCE JUMPI PUSH2 0xFCE PUSH2 0x1CFC JUMP JUMPDEST PUSH0 DUP3 PUSH2 0x1D60 JUMPI PUSH4 0x4E487B71 PUSH1 0xE0 SHL PUSH0 MSTORE PUSH1 0x12 PUSH1 0x4 MSTORE PUSH1 0x24 PUSH0 REVERT JUMPDEST POP DIV SWAP1 JUMP JUMPDEST DUP1 DUP3 ADD DUP1 DUP3 GT ISZERO PUSH2 0xFCE JUMPI PUSH2 0xFCE PUSH2 0x1CFC JUMP JUMPDEST DUP2 DUP2 SUB DUP2 DUP2 GT ISZERO PUSH2 0xFCE JUMPI PUSH2 0xFCE PUSH2 0x1CFC JUMP JUMPDEST PUSH1 0x1 PUSH1 0x1 PUSH1 0x60 SHL SUB DUP2 DUP2 AND DUP4 DUP3 AND ADD SWAP1 DUP2 GT ISZERO PUSH2 0xFCE JUMPI PUSH2 0xFCE PUSH2 0x1CFC JUMP JUMPDEST PUSH0 PUSH1 0x1 DUP3 ADD PUSH2 0x1DBB JUMPI PUSH2 0x1DBB PUSH2 0x1CFC JUMP JUMPDEST POP PUSH1 0x1 ADD SWAP1 JUMP INVALID LOG2 PUSH5 0x6970667358 0x22 SLT KECCAK256 DUP13 PUSH1 0x64 PC 0xEA 0xAD SELFBALANCE 0x29 CODESIZE 0xC3 PUSH21 0x9C4D68D45609AA0A5057680E33DA27DF3A94A9A351 PUSH5 0x736F6C6343 STOP ADDMOD 0x1E STOP CALLER 0xD REVERT 0xE2 DUP12 LOG1 0xCF 0xAE SWAP9 0xDB PUSH5 0x2E32463558 POP 0xB3 PUSH20 0x32D75F04945DA4676E38AD045386000000000000 "
		},
		"gasEstimates": {
			"creation": {
				"codeDepositCost": "1534400",
				"executionCost": "infinite",
				"totalCost": "infinite"
			},
			"external": {
				"CLAIM_PERIOD()": "305",
				"SCALE_FACTOR()": "228",
				"addRewards(uint256)": "infinite",
				"claimRewards()": "infinite",
				"duration_multiplier(uint96)": "2624",
				"extendRewards(uint96,uint256,uint256)": "infinite",
				"getStake(address,uint256)": "7316",
				"getUserInfo(address)": "infinite",
				"getUserRewards(address)": "infinite",
				"multiplier_BASE()": "269",
				"owner()": "2322",
				"pool()": "13193",
				"renounceOwnership()": "infinite",
				"restake(uint256,uint96,uint256)": "infinite",
				"setDurationMultiplier(uint96,uint32)": "28384",
				"setXTierMultipliers(uint256[],uint256[])": "infinite",
				"stake(uint96,uint256)": "infinite",
				"transferOwnership(address)": "28409",
				"unstake(uint256,bool)": "infinite",
				"unstakePerpetual(uint256,bool)": "infinite",
				"withdrawRewards(address,uint256)": "infinite"
			},
			"internal": {
				"_addRewards(uint256)": "infinite",
				"_claim(address)": "infinite",
				"_stake(address,uint96,uint256,uint256)": "infinite",
				"_unstake(address,uint256,uint256)": "infinite",
				"effective_xpoints(uint256)": "infinite",
				"time_now()": "infinite",
				"update_pool_and_user(address,uint256,uint256)": "infinite"
			}
		},
		"methodIdentifiers": {
			"CLAIM_PERIOD()": "21241dfe",
			"SCALE_FACTOR()": "ce4b5bbe",
			"addRewards(uint256)": "beceed39",
			"claimRewards()": "372500ab",
			"duration_multiplier(uint96)": "8af6e880",
			"extendRewards(uint96,uint256,uint256)": "7135cd6a",
			"getStake(address,uint256)": "cfd47663",
			"getUserInfo(address)": "6386c1c7",
			"getUserRewards(address)": "078b0fb7",
			"multiplier_BASE()": "da540bbf",
			"owner()": "8da5cb5b",
			"pool()": "16f0115b",
			"renounceOwnership()": "715018a6",
			"restake(uint256,uint96,uint256)": "8c793330",
			"setDurationMultiplier(uint96,uint32)": "c96d6635",
			"setXTierMultipliers(uint256[],uint256[])": "0072c744",
			"stake(uint96,uint256)": "d93c04a0",
			"transferOwnership(address)": "f2fde38b",
			"unstake(uint256,bool)": "9ebea88c",
			"unstakePerpetual(uint256,bool)": "ccc54f2e",
			"withdrawRewards(address,uint256)": "d6ef7af0"
		}
	},
	"abi": [
		{
			"inputs": [
				{
					"internalType": "uint96",
					"name": "start_epoch",
					"type": "uint96"
				},
				{
					"internalType": "uint96",
					"name": "end_epoch",
					"type": "uint96"
				},
				{
					"internalType": "uint256",
					"name": "reward_amount",
					"type": "uint256"
				},
				{
					"internalType": "address",
					"name": "_xCREDI_addr",
					"type": "address"
				},
				{
					"internalType": "address",
					"name": "_rewards_token",
					"type": "address"
				}
			],
			"stateMutability": "nonpayable",
			"type": "constructor"
		},
		{
			"inputs": [
				{
					"internalType": "address",
					"name": "owner",
					"type": "address"
				}
			],
			"name": "OwnableInvalidOwner",
			"type": "error"
		},
		{
			"inputs": [
				{
					"internalType": "address",
					"name": "account",
					"type": "address"
				}
			],
			"name": "OwnableUnauthorizedAccount",
			"type": "error"
		},
		{
			"inputs": [],
			"name": "ReentrancyGuardReentrantCall",
			"type": "error"
		},
		{
			"inputs": [
				{
					"internalType": "address",
					"name": "token",
					"type": "address"
				}
			],
			"name": "SafeERC20FailedOperation",
			"type": "error"
		},
		{
			"anonymous": false,
			"inputs": [
				{
					"indexed": true,
					"internalType": "address",
					"name": "previousOwner",
					"type": "address"
				},
				{
					"indexed": true,
					"internalType": "address",
					"name": "newOwner",
					"type": "address"
				}
			],
			"name": "OwnershipTransferred",
			"type": "event"
		},
		{
			"anonymous": false,
			"inputs": [
				{
					"indexed": false,
					"internalType": "address",
					"name": "staking_token",
					"type": "address"
				},
				{
					"indexed": false,
					"internalType": "address",
					"name": "rewards_token",
					"type": "address"
				},
				{
					"indexed": false,
					"internalType": "uint96",
					"name": "start_epoch",
					"type": "uint96"
				},
				{
					"indexed": false,
					"internalType": "uint256",
					"name": "scale_factor",
					"type": "uint256"
				}
			],
			"name": "PoolCreated",
			"type": "event"
		},
		{
			"anonymous": false,
			"inputs": [
				{
					"indexed": false,
					"internalType": "uint256",
					"name": "effective_xpoints",
					"type": "uint256"
				},
				{
					"indexed": false,
					"internalType": "uint256",
					"name": "reward_rate",
					"type": "uint256"
				},
				{
					"indexed": false,
					"internalType": "uint256",
					"name": "reward_rate_cumsum",
					"type": "uint256"
				},
				{
					"indexed": false,
					"internalType": "uint96",
					"name": "last_update_epoch",
					"type": "uint96"
				},
				{
					"indexed": false,
					"internalType": "uint96",
					"name": "end_epoch",
					"type": "uint96"
				}
			],
			"name": "PoolUpdated",
			"type": "event"
		},
		{
			"anonymous": false,
			"inputs": [
				{
					"indexed": false,
					"internalType": "uint256",
					"name": "amount",
					"type": "uint256"
				}
			],
			"name": "RewardAdded",
			"type": "event"
		},
		{
			"anonymous": false,
			"inputs": [
				{
					"indexed": true,
					"internalType": "address",
					"name": "user",
					"type": "address"
				},
				{
					"indexed": false,
					"internalType": "uint256",
					"name": "amount",
					"type": "uint256"
				}
			],
			"name": "RewardPaid",
			"type": "event"
		},
		{
			"anonymous": false,
			"inputs": [
				{
					"indexed": true,
					"internalType": "address",
					"name": "to",
					"type": "address"
				},
				{
					"indexed": false,
					"internalType": "uint256",
					"name": "amount",
					"type": "uint256"
				}
			],
			"name": "RewardWithdrawn",
			"type": "event"
		},
		{
			"anonymous": false,
			"inputs": [
				{
					"indexed": false,
					"internalType": "uint96",
					"name": "duration",
					"type": "uint96"
				},
				{
					"indexed": false,
					"internalType": "uint32",
					"name": "multiplier",
					"type": "uint32"
				}
			],
			"name": "SetDurationMultiplier",
			"type": "event"
		},
		{
			"anonymous": false,
			"inputs": [
				{
					"indexed": false,
					"internalType": "uint256[]",
					"name": "thresholds",
					"type": "uint256[]"
				},
				{
					"indexed": false,
					"internalType": "uint256[]",
					"name": "multipliers",
					"type": "uint256[]"
				}
			],
			"name": "SetXTierMultipliers",
			"type": "event"
		},
		{
			"anonymous": false,
			"inputs": [
				{
					"indexed": false,
					"internalType": "uint256",
					"name": "stake_id",
					"type": "uint256"
				},
				{
					"indexed": true,
					"internalType": "address",
					"name": "user",
					"type": "address"
				},
				{
					"indexed": false,
					"internalType": "uint256",
					"name": "stake_amount",
					"type": "uint256"
				},
				{
					"indexed": false,
					"internalType": "uint256",
					"name": "modulex_stake_id",
					"type": "uint256"
				},
				{
					"indexed": false,
					"internalType": "uint96",
					"name": "maturity",
					"type": "uint96"
				},
				{
					"indexed": false,
					"internalType": "uint96",
					"name": "lock_period",
					"type": "uint96"
				}
			],
			"name": "StakeUpdated",
			"type": "event"
		},
		{
			"anonymous": false,
			"inputs": [
				{
					"indexed": false,
					"internalType": "uint256",
					"name": "stake_id",
					"type": "uint256"
				},
				{
					"indexed": true,
					"internalType": "address",
					"name": "user",
					"type": "address"
				},
				{
					"indexed": false,
					"internalType": "uint256",
					"name": "amount",
					"type": "uint256"
				}
			],
			"name": "StakeWithdrawn",
			"type": "event"
		},
		{
			"anonymous": false,
			"inputs": [
				{
					"indexed": true,
					"internalType": "address",
					"name": "owner",
					"type": "address"
				},
				{
					"indexed": false,
					"internalType": "uint256",
					"name": "xpoints",
					"type": "uint256"
				},
				{
					"indexed": false,
					"internalType": "uint256",
					"name": "reward_amount",
					"type": "uint256"
				},
				{
					"indexed": false,
					"internalType": "uint256",
					"name": "reward_rate_cumsum",
					"type": "uint256"
				}
			],
			"name": "UserUpdated",
			"type": "event"
		},
		{
			"inputs": [],
			"name": "CLAIM_PERIOD",
			"outputs": [
				{
					"internalType": "uint96",
					"name": "",
					"type": "uint96"
				}
			],
			"stateMutability": "view",
			"type": "function"
		},
		{
			"inputs": [],
			"name": "SCALE_FACTOR",
			"outputs": [
				{
					"internalType": "uint256",
					"name": "",
					"type": "uint256"
				}
			],
			"stateMutability": "view",
			"type": "function"
		},
		{
			"inputs": [
				{
					"internalType": "uint256",
					"name": "amount",
					"type": "uint256"
				}
			],
			"name": "addRewards",
			"outputs": [],
			"stateMutability": "nonpayable",
			"type": "function"
		},
		{
			"inputs": [],
			"name": "claimRewards",
			"outputs": [],
			"stateMutability": "nonpayable",
			"type": "function"
		},
		{
			"inputs": [
				{
					"internalType": "uint96",
					"name": "",
					"type": "uint96"
				}
			],
			"name": "duration_multiplier",
			"outputs": [
				{
					"internalType": "uint32",
					"name": "",
					"type": "uint32"
				}
			],
			"stateMutability": "view",
			"type": "function"
		},
		{
			"inputs": [
				{
					"internalType": "uint96",
					"name": "duration",
					"type": "uint96"
				},
				{
					"internalType": "uint256",
					"name": "reward_amount",
					"type": "uint256"
				},
				{
					"internalType": "uint256",
					"name": "transfer_reward_amount",
					"type": "uint256"
				}
			],
			"name": "extendRewards",
			"outputs": [],
			"stateMutability": "nonpayable",
			"type": "function"
		},
		{
			"inputs": [
				{
					"internalType": "address",
					"name": "owner",
					"type": "address"
				},
				{
					"internalType": "uint256",
					"name": "stake_id",
					"type": "uint256"
				}
			],
			"name": "getStake",
			"outputs": [
				{
					"internalType": "uint256",
					"name": "stake_amount",
					"type": "uint256"
				},
				{
					"internalType": "uint256",
					"name": "modulex_stake_id",
					"type": "uint256"
				},
				{
					"internalType": "uint96",
					"name": "maturity",
					"type": "uint96"
				},
				{
					"internalType": "uint256",
					"name": "multiplier",
					"type": "uint256"
				}
			],
			"stateMutability": "view",
			"type": "function"
		},
		{
			"inputs": [
				{
					"internalType": "address",
					"name": "owner",
					"type": "address"
				}
			],
			"name": "getUserInfo",
			"outputs": [
				{
					"internalType": "uint256",
					"name": "xpoints",
					"type": "uint256"
				},
				{
					"internalType": "uint256",
					"name": "xtier",
					"type": "uint256"
				},
				{
					"internalType": "uint256",
					"name": "reward_amount",
					"type": "uint256"
				},
				{
					"internalType": "uint256",
					"name": "reward_rate_cumsum",
					"type": "uint256"
				},
				{
					"internalType": "uint256",
					"name": "stakes_count",
					"type": "uint256"
				}
			],
			"stateMutability": "view",
			"type": "function"
		},
		{
			"inputs": [
				{
					"internalType": "address",
					"name": "owner",
					"type": "address"
				}
			],
			"name": "getUserRewards",
			"outputs": [
				{
					"internalType": "uint256",
					"name": "",
					"type": "uint256"
				}
			],
			"stateMutability": "view",
			"type": "function"
		},
		{
			"inputs": [],
			"name": "multiplier_BASE",
			"outputs": [
				{
					"internalType": "uint32",
					"name": "",
					"type": "uint32"
				}
			],
			"stateMutability": "view",
			"type": "function"
		},
		{
			"inputs": [],
			"name": "owner",
			"outputs": [
				{
					"internalType": "address",
					"name": "",
					"type": "address"
				}
			],
			"stateMutability": "view",
			"type": "function"
		},
		{
			"inputs": [],
			"name": "pool",
			"outputs": [
				{
					"internalType": "contract IERC20",
					"name": "staking_token",
					"type": "address"
				},
				{
					"internalType": "uint96",
					"name": "start_epoch",
					"type": "uint96"
				},
				{
					"internalType": "contract IERC20",
					"name": "rewards_token",
					"type": "address"
				},
				{
					"internalType": "uint96",
					"name": "end_epoch",
					"type": "uint96"
				},
				{
					"internalType": "uint256",
					"name": "effective_xpoints",
					"type": "uint256"
				},
				{
					"internalType": "uint256",
					"name": "reward_rate",
					"type": "uint256"
				},
				{
					"internalType": "uint256",
					"name": "reward_rate_cumsum",
					"type": "uint256"
				},
				{
					"internalType": "uint96",
					"name": "last_update_epoch",
					"type": "uint96"
				}
			],
			"stateMutability": "view",
			"type": "function"
		},
		{
			"inputs": [],
			"name": "renounceOwnership",
			"outputs": [],
			"stateMutability": "nonpayable",
			"type": "function"
		},
		{
			"inputs": [
				{
					"internalType": "uint256",
					"name": "stake_id",
					"type": "uint256"
				},
				{
					"internalType": "uint96",
					"name": "lock_period",
					"type": "uint96"
				},
				{
					"internalType": "uint256",
					"name": "amount",
					"type": "uint256"
				}
			],
			"name": "restake",
			"outputs": [],
			"stateMutability": "nonpayable",
			"type": "function"
		},
		{
			"inputs": [
				{
					"internalType": "uint96",
					"name": "duration",
					"type": "uint96"
				},
				{
					"internalType": "uint32",
					"name": "multiplier",
					"type": "uint32"
				}
			],
			"name": "setDurationMultiplier",
			"outputs": [],
			"stateMutability": "nonpayable",
			"type": "function"
		},
		{
			"inputs": [
				{
					"internalType": "uint256[]",
					"name": "_thresholds",
					"type": "uint256[]"
				},
				{
					"internalType": "uint256[]",
					"name": "_mulitpliers",
					"type": "uint256[]"
				}
			],
			"name": "setXTierMultipliers",
			"outputs": [],
			"stateMutability": "nonpayable",
			"type": "function"
		},
		{
			"inputs": [
				{
					"internalType": "uint96",
					"name": "lock_period",
					"type": "uint96"
				},
				{
					"internalType": "uint256",
					"name": "amount",
					"type": "uint256"
				}
			],
			"name": "stake",
			"outputs": [],
			"stateMutability": "nonpayable",
			"type": "function"
		},
		{
			"inputs": [
				{
					"internalType": "address",
					"name": "newOwner",
					"type": "address"
				}
			],
			"name": "transferOwnership",
			"outputs": [],
			"stateMutability": "nonpayable",
			"type": "function"
		},
		{
			"inputs": [
				{
					"internalType": "uint256",
					"name": "stake_id",
					"type": "uint256"
				},
				{
					"internalType": "bool",
					"name": "claim_rewards",
					"type": "bool"
				}
			],
			"name": "unstake",
			"outputs": [],
			"stateMutability": "nonpayable",
			"type": "function"
		},
		{
			"inputs": [
				{
					"internalType": "uint256",
					"name": "amount",
					"type": "uint256"
				},
				{
					"internalType": "bool",
					"name": "claim_rewards",
					"type": "bool"
				}
			],
			"name": "unstakePerpetual",
			"outputs": [],
			"stateMutability": "nonpayable",
			"type": "function"
		},
		{
			"inputs": [
				{
					"internalType": "address",
					"name": "to",
					"type": "address"
				},
				{
					"internalType": "uint256",
					"name": "amount",
					"type": "uint256"
				}
			],
			"name": "withdrawRewards",
			"outputs": [],
			"stateMutability": "nonpayable",
			"type": "function"
		}
	]
}