{
	"data": {
		"bytecode": {
			"linkReferences": {},
			"object": "6101006040525f608090815269021e19e0c9bab240000060a05269054b40b1f852bda0000060c052690a968163f0a57b40000060e052610043906002906004610562565b50604080516080810182526103e881526105dc60208201526107d091810191909152610bb8606082015261007b9060039060046105b6565b50348015610087575f5ffd5b506040516125f43803806125f48339810160408190526100a69161063a565b33806100cc57604051631e4fbdf760e01b81525f60048201526024015b60405180910390fd5b6100d581610442565b50600180555f805260046020527f17ef568e3e12ab5b9c7254a8d58478811de00f9e6eb34345acd53bf8fd09d3ec805463ffffffff19166103e81790556001600160601b0384166101234290565b6001600160601b03161061019f5760405162461bcd60e51b815260206004820152603360248201527f50726f66697453686172653a456e642074696d65206d7573742062652067726560448201527f61746572207468616e2074696d655f6e6f77210000000000000000000000000060648201526084016100c3565b6101bb6001600160601b038616426001600160601b0316610491565b9450836001600160601b0316856001600160601b0316106102395760405162461bcd60e51b815260206004820152603260248201527f50726f66697453686172653a53746172742074696d65206d757374206265206c604482015271657373207468616e20656e642074696d652160701b60648201526084016100c3565b5f61024486866106a8565b6001600160601b031661026085683635c9adc5dea000006106c7565b61026a91906106de565b60408051610100810182526001600160a01b038681168083526001600160601b038b811660208086018290528985168688018190528d841660608089018290525f6080808b0182905260a08b018d905260c08b0182905260e0909a01869052600160a01b808702808a1760078190559482028087176008556009849055600a8f9055600b93909355600c80546001600160601b0319169098179097558b51968a16909817865290971690911791830191909152929092041693810193909352683635c9adc5dea00000908301529192507fdc04d80ebe596008505211bb5ef7b7b76945b378723c7fbc1dd952cd919394bb910160405180910390a1600954600a54600b54600c54600854604080519586526020860194909452848401929092526001600160601b039081166060850152600160a01b909104166080830152517fe111f67a87ace56a1496291914b8e0da23748ffddaa8bc98d0f4d4dfb51796a59181900360a00190a1604080515f81526103e860208201525f5160206125d45f395f51905f52910160405180910390a161040962278d006107d06104a1565b6104186276a700610bb86104a1565b61042762ed4e00610fa06104a1565b6104376301da9c006117706104a1565b5050505050506106fd565b5f80546001600160a01b038381166001600160a01b0319831681178455604051919092169283917f8be0079c531659141344cd1fd0a4f28419497f9722a3daafe3b4186f6b6457e09190a35050565b8082118183180281185b92915050565b6104a9610534565b5f826001600160601b03161180156104d6575063ffffffff81166103e810806104d6575063ffffffff8116155b6104de575f5ffd5b6001600160601b0382165f81815260046020908152604091829020805463ffffffff191663ffffffff86169081179091558251938452908301525f5160206125d45f395f51905f52910160405180910390a15050565b5f546001600160a01b031633146105605760405163118cdaa760e01b81523360048201526024016100c3565b565b828054828255905f5260205f209081019282156105a6579160200282015b828111156105a657825182906001600160501b0316905591602001919060010190610580565b506105b29291506105f5565b5090565b828054828255905f5260205f209081019282156105a6579160200282015b828111156105a6578251829061ffff169055916020019190600101906105d4565b5b808211156105b2575f81556001016105f6565b80516001600160601b038116811461061f575f5ffd5b919050565b80516001600160a01b038116811461061f575f5ffd5b5f5f5f5f5f60a0868803121561064e575f5ffd5b61065786610609565b945061066560208701610609565b93506040860151925061067a60608701610624565b915061068860808701610624565b90509295509295909350565b634e487b7160e01b5f52601160045260245ffd5b6001600160601b03828116828216039081111561049b5761049b610694565b808202811582820484141761049b5761049b610694565b5f826106f857634e487b7160e01b5f52601260045260245ffd5b500490565b611eca8061070a5f395ff3fe608060405234801561000f575f5ffd5b506004361061016d575f3560e01c80638da5cb5b116100d2578063ce4b5bbe11610088578063d93c04a011610063578063d93c04a0146103e0578063da540bbf146103f3578063f2fde38b146103fc575f5ffd5b8063ce4b5bbe1461037b578063cfd476631461038b578063d6ef7af0146103cd575f5ffd5b8063beceed39116100b8578063beceed3914610342578063c96d663514610355578063ccc54f2e14610368575f5ffd5b80638da5cb5b146103155780639ebea88c1461032f575f5ffd5b80636386c1c711610127578063715018a61161010d578063715018a6146102c05780638af6e880146102c85780638c79333014610302575f5ffd5b80636386c1c7146102725780637135cd6a146102ad575f5ffd5b806316f0115b1161015757806316f0115b146101ac57806321241dfe14610248578063372500ab1461026a575f5ffd5b806272c74414610171578063078b0fb714610186575b5f5ffd5b61018461017f366004611b6a565b61040f565b005b610199610194366004611bf1565b610563565b6040519081526020015b60405180910390f35b600754600854600954600a54600b54600c546101f3956001600160a01b03808216966001600160601b03600160a01b93849004811697928216969390910481169491931688565b604080516001600160a01b03998a1681526001600160601b03988916602082015298909616958801959095529285166060870152608086019190915260a085015260c08401521660e0820152610100016101a3565b6102526234bc0081565b6040516001600160601b0390911681526020016101a3565b610184610678565b610285610280366004611bf1565b61069f565b604080519586526020860194909452928401919091526060830152608082015260a0016101a3565b6101846102bb366004611c20565b6106ec565b61018461087e565b6102ed6102d6366004611c50565b60046020525f908152604090205463ffffffff1681565b60405163ffffffff90911681526020016101a3565b610184610310366004611c69565b61088f565b5f546040516001600160a01b0390911681526020016101a3565b61018461033d366004611c9c565b610a49565b610184610350366004611cce565b610bf1565b610184610363366004611ce5565b610bfd565b610184610376366004611c9c565b610ca3565b610199683635c9adc5dea0000081565b61039e610399366004611d17565b610d34565b6040516101a3949392919093845260208401929092526001600160601b03166040830152606082015260800190565b6101846103db366004611d17565b610e05565b6101846103ee366004611d3f565b610f19565b6102ed6103e881565b61018461040a366004611bf1565b610f8c565b610417610fdf565b828114801561042557508015155b61042d575f5ffd5b6104688484808060200260200160405190810160405280939291908181526020018383602002808284375f9201919091525061102492505050565b805161047c91600291602090910190611ac5565b506104b88282808060200260200160405190810160405280939291908181526020018383602002808284375f9201919091525061102492505050565b80516104cc91600391602090910190611ac5565b5060025f815481106104e0576104e0611d59565b905f5260205f2001545f14801561051a57506103e863ffffffff1660035f8154811061050e5761050e611d59565b905f5260205f20015410155b610522575f5ffd5b7f36636bd3caf33bddbd656aadda2fc454e5093f7cec3de1405319ef0ef3aa6ba760026003604051610555929190611daa565b60405180910390a150505050565b6001600160a01b0381165f908152600560205260408120600c5482906105b3906001600160601b03166105ae425b6008546001600160601b0391821691600160a01b90910416611039565b61104d565b600b5460095491925090158015906105d95750600c546001600160601b03908116908316115b1561062757600954600a54600c546105fa906001600160601b031685611de2565b6001600160601b031661060d9190611e01565b6106179190611e18565b600b546106249190611e37565b90505b683635c9adc5dea000008360020154826106419190611e4a565b845461064c9061105c565b6106569190611e01565b6106609190611e18565b836001015461066f9190611e37565b95945050505050565b6106806110b2565b61068b335f5f6110f5565b61069433611344565b61069d60018055565b565b6001600160a01b0381165f908152600560205260408120805482918291829182916106cb6002826113d5565b60018301546002840154600390940154929a91995097509195509350915050565b6106f4610fdf565b6106ff5f5f5f6110f5565b6008544290600160a01b90046001600160601b039081169082161061074d576001600160601b03841661073b84683635c9adc5dea00000611e01565b6107459190611e18565b600a556107b1565b600a546008546001600160601b038087169291610773918591600160a01b900416611de2565b6001600160601b03166107869190611e01565b61079985683635c9adc5dea00000611e01565b6107a39190611e37565b6107ad9190611e18565b600a555b600c80546bffffffffffffffffffffffff19166001600160601b0383161790556107db8482611e5d565b600880546001600160601b0392909216600160a01b026001600160a01b0390921691909117905581156108115761081182611430565b600954600a54600b54600c54600854604080519586526020860194909452928401919091526001600160601b039081166060840152600160a01b9091041660808201527fe111f67a87ace56a1496291914b8e0da23748ffddaa8bc98d0f4d4dfb51796a59060a001610555565b610886610fdf565b61069d5f6114e3565b6108976110b2565b335f8181526005602052604090206003015484906108b6906001611e37565b81106109095760405162461bcd60e51b815260206004820152601d60248201527f50726f66697453686172653a496e76616c6964205374616b652049442100000060448201526064015b60405180910390fd5b821561092757610927336007546001600160a01b031690308661154a565b335f90815260066020908152604080832088845282528083206001600160601b0388168452600490925290912054600182015463ffffffff918216600160601b90910490911611156109e15760405162461bcd60e51b815260206004820152602360248201527f50726f66697453686172653a557365206c6f6e676572206c6f636b5f7065726960448201527f6f642100000000000000000000000000000000000000000000000000000000006064820152608401610900565b80545f906109ef9086611e37565b90506109fd338354896115c6565b865f03610a2b57335f9081526005602052604081206003018054909190610a2390611e7c565b918290555096505b610a373387838a6116f1565b50505050610a4460018055565b505050565b610a516110b2565b335f818152600560205260409020600301548390610a70906001611e37565b8110610abe5760405162461bcd60e51b815260206004820152601d60248201527f50726f66697453686172653a496e76616c6964205374616b65204944210000006044820152606401610900565b335f908152600660209081526040808320878452909152902060018101546001600160601b03908116429091161015610b5f5760405162461bcd60e51b815260206004820152602e60248201527f50726f66697453686172653a4561726c79205769746864726177616c2069732060448201527f6e6f74207065726d6974746564210000000000000000000000000000000000006064820152608401610900565b8054610bad5760405162461bcd60e51b815260206004820152601c60248201527f50726f66697453686172653a4e6f7468696e6720746f20636c61696d000000006044820152606401610900565b610bc63382546007546001600160a01b03169190611917565b610bd2338254876115c6565b8315610be157610be133611344565b505050610bed60018055565b5050565b610bfa81611430565b50565b610c05610fdf565b5f826001600160601b0316118015610c32575063ffffffff81166103e81080610c32575063ffffffff8116155b610c3a575f5ffd5b6001600160601b0382165f81815260046020908152604091829020805463ffffffff191663ffffffff86169081179091558251938452908301527f0dfde28ba1cfae98db642e3246355850b37332d75f04945da4676e38ad045386910160405180910390a15050565b610cab6110b2565b5f8211610cfa5760405162461bcd60e51b815260206004820152601160248201527f43616e6e6f7420756e7374616b652030210000000000000000000000000000006044820152606401610900565b610d11336007546001600160a01b03169084611917565b610d1c33835f6115c6565b8015610d2b57610d2b33611344565b610bed60018055565b6001600160a01b0382165f9081526005602052604081206003015481908190819086908690610d64906001611e37565b8110610db25760405162461bcd60e51b815260206004820152601d60248201527f50726f66697453686172653a496e76616c6964205374616b65204944210000006044820152606401610900565b505050506001600160a01b03939093165f908152600660209081526040808320948352939052918220805460019091015490949293506001600160601b03811692600160601b90910463ffffffff169150565b610e0d610fdf565b5f8111610e725760405162461bcd60e51b815260206004820152602d60248201527f50726f66697453686172653a616d6f756e74206d75737420626520677265617460448201526c6572207468616e207a65726f2160981b6064820152608401610900565b600854610e93906234bc0090600160a01b90046001600160601b0316611e5d565b6001600160601b0316426001600160601b0316101580610eb35750600954155b610ebb575f5ffd5b600854610ed2906001600160a01b03168383611917565b816001600160a01b03167f1d3eee4ca001cff39eec6ec7615aacf2f2bd61791273830728ba00ccbd6e133782604051610f0d91815260200190565b60405180910390a25050565b610f216110b2565b610f39336007546001600160a01b031690308461154a565b5f6001600160601b03831615610f7257335f9081526005602052604081206003018054909190610f6890611e7c565b9182905550610f74565b5f5b9050610f82338484846116f1565b50610bed60018055565b610f94610fdf565b6001600160a01b038116610fd6576040517f1e4fbdf70000000000000000000000000000000000000000000000000000000081525f6004820152602401610900565b610bfa816114e3565b5f546001600160a01b0316331461069d576040517f118cdaa7000000000000000000000000000000000000000000000000000000008152336004820152602401610900565b60606110328261194861194c565b5090919050565b5f8282188284100282185b90505b92915050565b5f828218828411028218611044565b5f5f6003600161106d6002866113d5565b6110779190611e4a565b8154811061108757611087611d59565b5f9182526020909120015490506103e86110a18483611e01565b6110ab9190611e18565b9392505050565b6002600154036110ee576040517f3ee5aeb500000000000000000000000000000000000000000000000000000000815260040160405180910390fd5b6002600155565b600c545f90611110906001600160601b03166105ae42610591565b600954909150158015906111325750600c546001600160601b03908116908216115b1561118757600954600a54600c54611153906001600160601b031684611de2565b6001600160601b03166111669190611e01565b6111709190611e18565b600b80545f90611181908490611e37565b90915550505b600c80546bffffffffffffffffffffffff19166001600160601b0383161790556001600160a01b0384161561133e576001600160a01b0384165f90815260056020526040812080549091906111db9061105c565b82549091501561122d576002820154600b54683635c9adc5dea000009161120191611e4a565b61120b9083611e01565b6112159190611e18565b826001015f8282546112279190611e37565b90915550505b600b54600283015581548490611244908790611e37565b61124e9190611e4a565b808355819061125c9061105c565b6009546112699190611e37565b6112739190611e4a565b600955815460018301546002840154604080519384526020840192909252908201526001600160a01b038716907ff1da46a1ca3e37613208b2a3d7ec556866482d77a0005d6168d73270ced6b26a9060600160405180910390a2600954600a54600b54600c54600854604080519586526020860194909452848401929092526001600160601b039081166060850152600160a01b909104166080830152517fe111f67a87ace56a1496291914b8e0da23748ffddaa8bc98d0f4d4dfb51796a59181900360a00190a150505b50505050565b6001600160a01b0381165f908152600560205260409020600181015415610bed576001810154600854611384916001600160a01b03909116908490611917565b816001600160a01b03167fe2403640ba68fed3a2f88b7557551d1993f84b99bb10ff833f0cf8db0c5e048682600101546040516113c391815260200190565b60405180910390a25f60018201555050565b81545f9081908082036113ec575f92505050611047565b80821015611428575f6113ff8383611964565b90508461140c878361197e565b54111561141b57809150611422565b8060010192505b506113ec565b509392505050565b5f81116114955760405162461bcd60e51b815260206004820152602d60248201527f50726f66697453686172653a616d6f756e74206d75737420626520677265617460448201526c6572207468616e207a65726f2160981b6064820152608401610900565b6114ad336008546001600160a01b031690308461154a565b6040518181527fde88a922e0d3b88b24e9623efeb464919c6bf9f66857a65e2bfcf2ce87a9433d9060200160405180910390a150565b5f80546001600160a01b038381167fffffffffffffffffffffffff0000000000000000000000000000000000000000831681178455604051919092169283917f8be0079c531659141344cd1fd0a4f28419497f9722a3daafe3b4186f6b6457e09190a35050565b6040516001600160a01b03848116602483015283811660448301526064820183905261133e9186918216906323b872dd906084015b604051602081830303815290604052915060e01b6020820180517bffffffffffffffffffffffffffffffffffffffffffffffffffffffff83818316178352505050506119a5565b6001600160a01b0383165f9081526006602090815260408083208484529091529020805483111561165f5760405162461bcd60e51b815260206004820152602160248201527f50726f66697453686172653a496e73756666696369656e742062616c616e636560448201527f21000000000000000000000000000000000000000000000000000000000000006064820152608401610900565b60018101545f906103e89061168190600160601b900463ffffffff1686611e01565b61168b9190611e18565b9050611698855f836110f5565b83825f015f8282546116aa9190611e4a565b9091555050604080518481526020810186905233917f459d5aef2c549903c1eeb1736f5728845d5ccf82537ddd5bf8035795eee89263910160405180910390a25050505050565b600754600160a01b90046001600160601b0316426001600160601b0316101580156117365750600854600160a01b90046001600160601b0316426001600160601b0316105b6117825760405162461bcd60e51b815260206004820152601f60248201527f50726f66697453686172653a506f6f6c206973206e6f742061637469766521006044820152606401610900565b6001600160601b0383165f9081526004602052604081205463ffffffff16906103e86117ae8386611e01565b6117b89190611e18565b90505f811161182f5760405162461bcd60e51b815260206004820152603960248201527f50726f66697453686172653a616d6f756e7420616e64206d756c7469706c696560448201527f72206d7573742062652067726561746572207468616e203021000000000000006064820152608401610900565b61183a86825f6110f5565b335f9081526006602090815260408083208684529091528120805490918691839190611867908490611e37565b9091555061187790508642611e5d565b6001820180546001600160601b039283166fffffffffffffffffffffffffffffffff1990911617600160601b63ffffffff871602179081905582546040805188815260208101929092525f90820152908216606082015290871660808201526001600160a01b038816907ffb323914bfe99940926cd03fe7969535604dd9a3c82b28853e738744dd6f9aaa9060a00160405180910390a250505050505050565b6040516001600160a01b03838116602483015260448201839052610a4491859182169063a9059cbb9060640161157f565b1190565b60606110326020840161195e85611a2a565b84611a41565b5f6119726002848418611e18565b61104490848416611e37565b5f8261199d61199a84611996845f9081526020902090565b0190565b90565b949350505050565b5f5f60205f8451602086015f885af1806119c4576040513d5f823e3d81fd5b50505f513d915081156119db5780600114156119e8565b6001600160a01b0384163b155b1561133e576040517f5274afe70000000000000000000000000000000000000000000000000000000081526001600160a01b0385166004820152602401610900565b5f8151602002611a3a8360200190565b0192915050565b60408383031015611a5157505050565b5f611a5a845190565b905083602081015b84811015611a9c57611a7f611a75825190565b848663ffffffff16565b15611a94576020919091018051825182528252905b602001611a62565b508451815186528152611ab0858285611a41565b611abe816020018585611a41565b5050505050565b828054828255905f5260205f20908101928215611afe579160200282015b82811115611afe578251825591602001919060010190611ae3565b50611b0a929150611b0e565b5090565b5b80821115611b0a575f8155600101611b0f565b5f5f83601f840112611b32575f5ffd5b50813567ffffffffffffffff811115611b49575f5ffd5b6020830191508360208260051b8501011115611b63575f5ffd5b9250929050565b5f5f5f5f60408587031215611b7d575f5ffd5b843567ffffffffffffffff811115611b93575f5ffd5b611b9f87828801611b22565b909550935050602085013567ffffffffffffffff811115611bbe575f5ffd5b611bca87828801611b22565b95989497509550505050565b80356001600160a01b0381168114611bec575f5ffd5b919050565b5f60208284031215611c01575f5ffd5b61104482611bd6565b80356001600160601b0381168114611bec575f5ffd5b5f5f5f60608486031215611c32575f5ffd5b611c3b84611c0a565b95602085013595506040909401359392505050565b5f60208284031215611c60575f5ffd5b61104482611c0a565b5f5f5f60608486031215611c7b575f5ffd5b83359250611c8b60208501611c0a565b929592945050506040919091013590565b5f5f60408385031215611cad575f5ffd5b8235915060208301358015158114611cc3575f5ffd5b809150509250929050565b5f60208284031215611cde575f5ffd5b5035919050565b5f5f60408385031215611cf6575f5ffd5b611cff83611c0a565b9150602083013563ffffffff81168114611cc3575f5ffd5b5f5f60408385031215611d28575f5ffd5b611d3183611bd6565b946020939093013593505050565b5f5f60408385031215611d50575f5ffd5b611d3183611c0a565b634e487b7160e01b5f52603260045260245ffd5b5f8154808452602084019350825f5260205f205f5b82811015611da0578154865260209095019460019182019101611d82565b5093949350505050565b604081525f611dbc6040830185611d6d565b828103602084015261066f8185611d6d565b634e487b7160e01b5f52601160045260245ffd5b6001600160601b03828116828216039081111561104757611047611dce565b808202811582820484141761104757611047611dce565b5f82611e3257634e487b7160e01b5f52601260045260245ffd5b500490565b8082018082111561104757611047611dce565b8181038181111561104757611047611dce565b6001600160601b03818116838216019081111561104757611047611dce565b5f60018201611e8d57611e8d611dce565b506001019056fea2646970667358221220cd063bfd6ba25453e81cb803673c034c5e8a0b5dc80763c0b101dd91e5c068d264736f6c634300081e00330dfde28ba1cfae98db642e3246355850b37332d75f04945da4676e38ad045386",
			"opcodes": "PUSH2 0x100 PUSH1 0x40 MSTORE PUSH0 PUSH1 0x80 SWAP1 DUP2 MSTORE PUSH10 0x21E19E0C9BAB2400000 PUSH1 0xA0 MSTORE PUSH10 0x54B40B1F852BDA00000 PUSH1 0xC0 MSTORE PUSH10 0xA968163F0A57B400000 PUSH1 0xE0 MSTORE PUSH2 0x43 SWAP1 PUSH1 0x2 SWAP1 PUSH1 0x4 PUSH2 0x562 JUMP JUMPDEST POP PUSH1 0x40 DUP1 MLOAD PUSH1 0x80 DUP2 ADD DUP3 MSTORE PUSH2 0x3E8 DUP2 MSTORE PUSH2 0x5DC PUSH1 0x20 DUP3 ADD MSTORE PUSH2 0x7D0 SWAP2 DUP2 ADD SWAP2 SWAP1 SWAP2 MSTORE PUSH2 0xBB8 PUSH1 0x60 DUP3 ADD MSTORE PUSH2 0x7B SWAP1 PUSH1 0x3 SWAP1 PUSH1 0x4 PUSH2 0x5B6 JUMP JUMPDEST POP CALLVALUE DUP1 ISZERO PUSH2 0x87 JUMPI PUSH0 PUSH0 REVERT JUMPDEST POP PUSH1 0x40 MLOAD PUSH2 0x25F4 CODESIZE SUB DUP1 PUSH2 0x25F4 DUP4 CODECOPY DUP2 ADD PUSH1 0x40 DUP2 SWAP1 MSTORE PUSH2 0xA6 SWAP2 PUSH2 0x63A JUMP JUMPDEST CALLER DUP1 PUSH2 0xCC JUMPI PUSH1 0x40 MLOAD PUSH4 0x1E4FBDF7 PUSH1 0xE0 SHL DUP2 MSTORE PUSH0 PUSH1 0x4 DUP3 ADD MSTORE PUSH1 0x24 ADD JUMPDEST PUSH1 0x40 MLOAD DUP1 SWAP2 SUB SWAP1 REVERT JUMPDEST PUSH2 0xD5 DUP2 PUSH2 0x442 JUMP JUMPDEST POP PUSH1 0x1 DUP1 SSTORE PUSH0 DUP1 MSTORE PUSH1 0x4 PUSH1 0x20 MSTORE PUSH32 0x17EF568E3E12AB5B9C7254A8D58478811DE00F9E6EB34345ACD53BF8FD09D3EC DUP1 SLOAD PUSH4 0xFFFFFFFF NOT AND PUSH2 0x3E8 OR SWAP1 SSTORE PUSH1 0x1 PUSH1 0x1 PUSH1 0x60 SHL SUB DUP5 AND PUSH2 0x123 TIMESTAMP SWAP1 JUMP JUMPDEST PUSH1 0x1 PUSH1 0x1 PUSH1 0x60 SHL SUB AND LT PUSH2 0x19F JUMPI PUSH1 0x40 MLOAD PUSH3 0x461BCD PUSH1 0xE5 SHL DUP2 MSTORE PUSH1 0x20 PUSH1 0x4 DUP3 ADD MSTORE PUSH1 0x33 PUSH1 0x24 DUP3 ADD MSTORE PUSH32 0x50726F66697453686172653A456E642074696D65206D75737420626520677265 PUSH1 0x44 DUP3 ADD MSTORE PUSH32 0x61746572207468616E2074696D655F6E6F772100000000000000000000000000 PUSH1 0x64 DUP3 ADD MSTORE PUSH1 0x84 ADD PUSH2 0xC3 JUMP JUMPDEST PUSH2 0x1BB PUSH1 0x1 PUSH1 0x1 PUSH1 0x60 SHL SUB DUP7 AND TIMESTAMP PUSH1 0x1 PUSH1 0x1 PUSH1 0x60 SHL SUB AND PUSH2 0x491 JUMP JUMPDEST SWAP5 POP DUP4 PUSH1 0x1 PUSH1 0x1 PUSH1 0x60 SHL SUB AND DUP6 PUSH1 0x1 PUSH1 0x1 PUSH1 0x60 SHL SUB AND LT PUSH2 0x239 JUMPI PUSH1 0x40 MLOAD PUSH3 0x461BCD PUSH1 0xE5 SHL DUP2 MSTORE PUSH1 0x20 PUSH1 0x4 DUP3 ADD MSTORE PUSH1 0x32 PUSH1 0x24 DUP3 ADD MSTORE PUSH32 0x50726F66697453686172653A53746172742074696D65206D757374206265206C PUSH1 0x44 DUP3 ADD MSTORE PUSH18 0x657373207468616E20656E642074696D6521 PUSH1 0x70 SHL PUSH1 0x64 DUP3 ADD MSTORE PUSH1 0x84 ADD PUSH2 0xC3 JUMP JUMPDEST PUSH0 PUSH2 0x244 DUP7 DUP7 PUSH2 0x6A8 JUMP JUMPDEST PUSH1 0x1 PUSH1 0x1 PUSH1 0x60 SHL SUB AND PUSH2 0x260 DUP6 PUSH9 0x3635C9ADC5DEA00000 PUSH2 0x6C7 JUMP JUMPDEST PUSH2 0x26A SWAP2 SWAP1 PUSH2 0x6DE JUMP JUMPDEST PUSH1 0x40 DUP1 MLOAD PUSH2 0x100 DUP2 ADD DUP3 MSTORE PUSH1 0x1 PUSH1 0x1 PUSH1 0xA0 SHL SUB DUP7 DUP2 AND DUP1 DUP4 MSTORE PUSH1 0x1 PUSH1 0x1 PUSH1 0x60 SHL SUB DUP12 DUP2 AND PUSH1 0x20 DUP1 DUP7 ADD DUP3 SWAP1 MSTORE DUP10 DUP6 AND DUP7 DUP9 ADD DUP2 SWAP1 MSTORE DUP14 DUP5 AND PUSH1 0x60 DUP1 DUP10 ADD DUP3 SWAP1 MSTORE PUSH0 PUSH1 0x80 DUP1 DUP12 ADD DUP3 SWAP1 MSTORE PUSH1 0xA0 DUP12 ADD DUP14 SWAP1 MSTORE PUSH1 0xC0 DUP12 ADD DUP3 SWAP1 MSTORE PUSH1 0xE0 SWAP1 SWAP11 ADD DUP7 SWAP1 MSTORE PUSH1 0x1 PUSH1 0xA0 SHL DUP1 DUP8 MUL DUP1 DUP11 OR PUSH1 0x7 DUP2 SWAP1 SSTORE SWAP5 DUP3 MUL DUP1 DUP8 OR PUSH1 0x8 SSTORE PUSH1 0x9 DUP5 SWAP1 SSTORE PUSH1 0xA DUP16 SWAP1 SSTORE PUSH1 0xB SWAP4 SWAP1 SWAP4 SSTORE PUSH1 0xC DUP1 SLOAD PUSH1 0x1 PUSH1 0x1 PUSH1 0x60 SHL SUB NOT AND SWAP1 SWAP9 OR SWAP1 SWAP8 SSTORE DUP12 MLOAD SWAP7 DUP11 AND SWAP1 SWAP9 OR DUP7 MSTORE SWAP1 SWAP8 AND SWAP1 SWAP2 OR SWAP2 DUP4 ADD SWAP2 SWAP1 SWAP2 MSTORE SWAP3 SWAP1 SWAP3 DIV AND SWAP4 DUP2 ADD SWAP4 SWAP1 SWAP4 MSTORE PUSH9 0x3635C9ADC5DEA00000 SWAP1 DUP4 ADD MSTORE SWAP2 SWAP3 POP PUSH32 0xDC04D80EBE596008505211BB5EF7B7B76945B378723C7FBC1DD952CD919394BB SWAP2 ADD PUSH1 0x40 MLOAD DUP1 SWAP2 SUB SWAP1 LOG1 PUSH1 0x9 SLOAD PUSH1 0xA SLOAD PUSH1 0xB SLOAD PUSH1 0xC SLOAD PUSH1 0x8 SLOAD PUSH1 0x40 DUP1 MLOAD SWAP6 DUP7 MSTORE PUSH1 0x20 DUP7 ADD SWAP5 SWAP1 SWAP5 MSTORE DUP5 DUP5 ADD SWAP3 SWAP1 SWAP3 MSTORE PUSH1 0x1 PUSH1 0x1 PUSH1 0x60 SHL SUB SWAP1 DUP2 AND PUSH1 0x60 DUP6 ADD MSTORE PUSH1 0x1 PUSH1 0xA0 SHL SWAP1 SWAP2 DIV AND PUSH1 0x80 DUP4 ADD MSTORE MLOAD PUSH32 0xE111F67A87ACE56A1496291914B8E0DA23748FFDDAA8BC98D0F4D4DFB51796A5 SWAP2 DUP2 SWAP1 SUB PUSH1 0xA0 ADD SWAP1 LOG1 PUSH1 0x40 DUP1 MLOAD PUSH0 DUP2 MSTORE PUSH2 0x3E8 PUSH1 0x20 DUP3 ADD MSTORE PUSH0 MLOAD PUSH1 0x20 PUSH2 0x25D4 PUSH0 CODECOPY PUSH0 MLOAD SWAP1 PUSH0 MSTORE SWAP2 ADD PUSH1 0x40 MLOAD DUP1 SWAP2 SUB SWAP1 LOG1 PUSH2 0x409 PUSH3 0x278D00 PUSH2 0x7D0 PUSH2 0x4A1 JUMP JUMPDEST PUSH2 0x418 PUSH3 0x76A700 PUSH2 0xBB8 PUSH2 0x4A1 JUMP JUMPDEST PUSH2 0x427 PUSH3 0xED4E00 PUSH2 0xFA0 PUSH2 0x4A1 JUMP JUMPDEST PUSH2 0x437 PUSH4 0x1DA9C00 PUSH2 0x1770 PUSH2 0x4A1 JUMP JUMPDEST POP POP POP POP POP POP PUSH2 0x6FD JUMP JUMPDEST PUSH0 DUP1 SLOAD PUSH1 0x1 PUSH1 0x1 PUSH1 0xA0 SHL SUB DUP4 DUP2 AND PUSH1 0x1 PUSH1 0x1 PUSH1 0xA0 SHL SUB NOT DUP4 AND DUP2 OR DUP5 SSTORE PUSH1 0x40 MLOAD SWAP2 SWAP1 SWAP3 AND SWAP3 DUP4 SWAP2 PUSH32 0x8BE0079C531659141344CD1FD0A4F28419497F9722A3DAAFE3B4186F6B6457E0 SWAP2 SWAP1 LOG3 POP POP JUMP JUMPDEST DUP1 DUP3 GT DUP2 DUP4 XOR MUL DUP2 XOR JUMPDEST SWAP3 SWAP2 POP POP JUMP JUMPDEST PUSH2 0x4A9 PUSH2 0x534 JUMP JUMPDEST PUSH0 DUP3 PUSH1 0x1 PUSH1 0x1 PUSH1 0x60 SHL SUB AND GT DUP1 ISZERO PUSH2 0x4D6 JUMPI POP PUSH4 0xFFFFFFFF DUP2 AND PUSH2 0x3E8 LT DUP1 PUSH2 0x4D6 JUMPI POP PUSH4 0xFFFFFFFF DUP2 AND ISZERO JUMPDEST PUSH2 0x4DE JUMPI PUSH0 PUSH0 REVERT JUMPDEST PUSH1 0x1 PUSH1 0x1 PUSH1 0x60 SHL SUB DUP3 AND PUSH0 DUP2 DUP2 MSTORE PUSH1 0x4 PUSH1 0x20 SWAP1 DUP2 MSTORE PUSH1 0x40 SWAP2 DUP3 SWAP1 KECCAK256 DUP1 SLOAD PUSH4 0xFFFFFFFF NOT AND PUSH4 0xFFFFFFFF DUP7 AND SWAP1 DUP2 OR SWAP1 SWAP2 SSTORE DUP3 MLOAD SWAP4 DUP5 MSTORE SWAP1 DUP4 ADD MSTORE PUSH0 MLOAD PUSH1 0x20 PUSH2 0x25D4 PUSH0 CODECOPY PUSH0 MLOAD SWAP1 PUSH0 MSTORE SWAP2 ADD PUSH1 0x40 MLOAD DUP1 SWAP2 SUB SWAP1 LOG1 POP POP JUMP JUMPDEST PUSH0 SLOAD PUSH1 0x1 PUSH1 0x1 PUSH1 0xA0 SHL SUB AND CALLER EQ PUSH2 0x560 JUMPI PUSH1 0x40 MLOAD PUSH4 0x118CDAA7 PUSH1 0xE0 SHL DUP2 MSTORE CALLER PUSH1 0x4 DUP3 ADD MSTORE PUSH1 0x24 ADD PUSH2 0xC3 JUMP JUMPDEST JUMP JUMPDEST DUP3 DUP1 SLOAD DUP3 DUP3 SSTORE SWAP1 PUSH0 MSTORE PUSH1 0x20 PUSH0 KECCAK256 SWAP1 DUP2 ADD SWAP3 DUP3 ISZERO PUSH2 0x5A6 JUMPI SWAP2 PUSH1 0x20 MUL DUP3 ADD JUMPDEST DUP3 DUP2 GT ISZERO PUSH2 0x5A6 JUMPI DUP3 MLOAD DUP3 SWAP1 PUSH1 0x1 PUSH1 0x1 PUSH1 0x50 SHL SUB AND SWAP1 SSTORE SWAP2 PUSH1 0x20 ADD SWAP2 SWAP1 PUSH1 0x1 ADD SWAP1 PUSH2 0x580 JUMP JUMPDEST POP PUSH2 0x5B2 SWAP3 SWAP2 POP PUSH2 0x5F5 JUMP JUMPDEST POP SWAP1 JUMP JUMPDEST DUP3 DUP1 SLOAD DUP3 DUP3 SSTORE SWAP1 PUSH0 MSTORE PUSH1 0x20 PUSH0 KECCAK256 SWAP1 DUP2 ADD SWAP3 DUP3 ISZERO PUSH2 0x5A6 JUMPI SWAP2 PUSH1 0x20 MUL DUP3 ADD JUMPDEST DUP3 DUP2 GT ISZERO PUSH2 0x5A6 JUMPI DUP3 MLOAD DUP3 SWAP1 PUSH2 0xFFFF AND SWAP1 SSTORE SWAP2 PUSH1 0x20 ADD SWAP2 SWAP1 PUSH1 0x1 ADD SWAP1 PUSH2 0x5D4 JUMP JUMPDEST JUMPDEST DUP1 DUP3 GT ISZERO PUSH2 0x5B2 JUMPI PUSH0 DUP2 SSTORE PUSH1 0x1 ADD PUSH2 0x5F6 JUMP JUMPDEST DUP1 MLOAD PUSH1 0x1 PUSH1 0x1 PUSH1 0x60 SHL SUB DUP2 AND DUP2 EQ PUSH2 0x61F JUMPI PUSH0 PUSH0 REVERT JUMPDEST SWAP2 SWAP1 POP JUMP JUMPDEST DUP1 MLOAD PUSH1 0x1 PUSH1 0x1 PUSH1 0xA0 SHL SUB DUP2 AND DUP2 EQ PUSH2 0x61F JUMPI PUSH0 PUSH0 REVERT JUMPDEST PUSH0 PUSH0 PUSH0 PUSH0 PUSH0 PUSH1 0xA0 DUP7 DUP9 SUB SLT ISZERO PUSH2 0x64E JUMPI PUSH0 PUSH0 REVERT JUMPDEST PUSH2 0x657 DUP7 PUSH2 0x609 JUMP JUMPDEST SWAP5 POP PUSH2 0x665 PUSH1 0x20 DUP8 ADD PUSH2 0x609 JUMP JUMPDEST SWAP4 POP PUSH1 0x40 DUP7 ADD MLOAD SWAP3 POP PUSH2 0x67A PUSH1 0x60 DUP8 ADD PUSH2 0x624 JUMP JUMPDEST SWAP2 POP PUSH2 0x688 PUSH1 0x80 DUP8 ADD PUSH2 0x624 JUMP JUMPDEST SWAP1 POP SWAP3 SWAP6 POP SWAP3 SWAP6 SWAP1 SWAP4 POP JUMP JUMPDEST PUSH4 0x4E487B71 PUSH1 0xE0 SHL PUSH0 MSTORE PUSH1 0x11 PUSH1 0x4 MSTORE PUSH1 0x24 PUSH0 REVERT JUMPDEST PUSH1 0x1 PUSH1 0x1 PUSH1 0x60 SHL SUB DUP3 DUP2 AND DUP3 DUP3 AND SUB SWAP1 DUP2 GT ISZERO PUSH2 0x49B JUMPI PUSH2 0x49B PUSH2 0x694 JUMP JUMPDEST DUP1 DUP3 MUL DUP2 ISZERO DUP3 DUP3 DIV DUP5 EQ OR PUSH2 0x49B JUMPI PUSH2 0x49B PUSH2 0x694 JUMP JUMPDEST PUSH0 DUP3 PUSH2 0x6F8 JUMPI PUSH4 0x4E487B71 PUSH1 0xE0 SHL PUSH0 MSTORE PUSH1 0x12 PUSH1 0x4 MSTORE PUSH1 0x24 PUSH0 REVERT JUMPDEST POP DIV SWAP1 JUMP JUMPDEST PUSH2 0x1ECA DUP1 PUSH2 0x70A PUSH0 CODECOPY PUSH0 RETURN INVALID PUSH1 0x80 PUSH1 0x40 MSTORE CALLVALUE DUP1 ISZERO PUSH2 0xF JUMPI PUSH0 PUSH0 REVERT JUMPDEST POP PUSH1 0x4 CALLDATASIZE LT PUSH2 0x16D JUMPI PUSH0 CALLDATALOAD PUSH1 0xE0 SHR DUP1 PUSH4 0x8DA5CB5B GT PUSH2 0xD2 JUMPI DUP1 PUSH4 0xCE4B5BBE GT PUSH2 0x88 JUMPI DUP1 PUSH4 0xD93C04A0 GT PUSH2 0x63 JUMPI DUP1 PUSH4 0xD93C04A0 EQ PUSH2 0x3E0 JUMPI DUP1 PUSH4 0xDA540BBF EQ PUSH2 0x3F3 JUMPI DUP1 PUSH4 0xF2FDE38B EQ PUSH2 0x3FC JUMPI PUSH0 PUSH0 REVERT JUMPDEST DUP1 PUSH4 0xCE4B5BBE EQ PUSH2 0x37B JUMPI DUP1 PUSH4 0xCFD47663 EQ PUSH2 0x38B JUMPI DUP1 PUSH4 0xD6EF7AF0 EQ PUSH2 0x3CD JUMPI PUSH0 PUSH0 REVERT JUMPDEST DUP1 PUSH4 0xBECEED39 GT PUSH2 0xB8 JUMPI DUP1 PUSH4 0xBECEED39 EQ PUSH2 0x342 JUMPI DUP1 PUSH4 0xC96D6635 EQ PUSH2 0x355 JUMPI DUP1 PUSH4 0xCCC54F2E EQ PUSH2 0x368 JUMPI PUSH0 PUSH0 REVERT JUMPDEST DUP1 PUSH4 0x8DA5CB5B EQ PUSH2 0x315 JUMPI DUP1 PUSH4 0x9EBEA88C EQ PUSH2 0x32F JUMPI PUSH0 PUSH0 REVERT JUMPDEST DUP1 PUSH4 0x6386C1C7 GT PUSH2 0x127 JUMPI DUP1 PUSH4 0x715018A6 GT PUSH2 0x10D JUMPI DUP1 PUSH4 0x715018A6 EQ PUSH2 0x2C0 JUMPI DUP1 PUSH4 0x8AF6E880 EQ PUSH2 0x2C8 JUMPI DUP1 PUSH4 0x8C793330 EQ PUSH2 0x302 JUMPI PUSH0 PUSH0 REVERT JUMPDEST DUP1 PUSH4 0x6386C1C7 EQ PUSH2 0x272 JUMPI DUP1 PUSH4 0x7135CD6A EQ PUSH2 0x2AD JUMPI PUSH0 PUSH0 REVERT JUMPDEST DUP1 PUSH4 0x16F0115B GT PUSH2 0x157 JUMPI DUP1 PUSH4 0x16F0115B EQ PUSH2 0x1AC JUMPI DUP1 PUSH4 0x21241DFE EQ PUSH2 0x248 JUMPI DUP1 PUSH4 0x372500AB EQ PUSH2 0x26A JUMPI PUSH0 PUSH0 REVERT JUMPDEST DUP1 PUSH3 0x72C744 EQ PUSH2 0x171 JUMPI DUP1 PUSH4 0x78B0FB7 EQ PUSH2 0x186 JUMPI JUMPDEST PUSH0 PUSH0 REVERT JUMPDEST PUSH2 0x184 PUSH2 0x17F CALLDATASIZE PUSH1 0x4 PUSH2 0x1B6A JUMP JUMPDEST PUSH2 0x40F JUMP JUMPDEST STOP JUMPDEST PUSH2 0x199 PUSH2 0x194 CALLDATASIZE PUSH1 0x4 PUSH2 0x1BF1 JUMP JUMPDEST PUSH2 0x563 JUMP JUMPDEST PUSH1 0x40 MLOAD SWAP1 DUP2 MSTORE PUSH1 0x20 ADD JUMPDEST PUSH1 0x40 MLOAD DUP1 SWAP2 SUB SWAP1 RETURN JUMPDEST PUSH1 0x7 SLOAD PUSH1 0x8 SLOAD PUSH1 0x9 SLOAD PUSH1 0xA SLOAD PUSH1 0xB SLOAD PUSH1 0xC SLOAD PUSH2 0x1F3 SWAP6 PUSH1 0x1 PUSH1 0x1 PUSH1 0xA0 SHL SUB DUP1 DUP3 AND SWAP7 PUSH1 0x1 PUSH1 0x1 PUSH1 0x60 SHL SUB PUSH1 0x1 PUSH1 0xA0 SHL SWAP4 DUP5 SWAP1 DIV DUP2 AND SWAP8 SWAP3 DUP3 AND SWAP7 SWAP4 SWAP1 SWAP2 DIV DUP2 AND SWAP5 SWAP2 SWAP4 AND DUP9 JUMP JUMPDEST PUSH1 0x40 DUP1 MLOAD PUSH1 0x1 PUSH1 0x1 PUSH1 0xA0 SHL SUB SWAP10 DUP11 AND DUP2 MSTORE PUSH1 0x1 PUSH1 0x1 PUSH1 0x60 SHL SUB SWAP9 DUP10 AND PUSH1 0x20 DUP3 ADD MSTORE SWAP9 SWAP1 SWAP7 AND SWAP6 DUP9 ADD SWAP6 SWAP1 SWAP6 MSTORE SWAP3 DUP6 AND PUSH1 0x60 DUP8 ADD MSTORE PUSH1 0x80 DUP7 ADD SWAP2 SWAP1 SWAP2 MSTORE PUSH1 0xA0 DUP6 ADD MSTORE PUSH1 0xC0 DUP5 ADD MSTORE AND PUSH1 0xE0 DUP3 ADD MSTORE PUSH2 0x100 ADD PUSH2 0x1A3 JUMP JUMPDEST PUSH2 0x252 PUSH3 0x34BC00 DUP2 JUMP JUMPDEST PUSH1 0x40 MLOAD PUSH1 0x1 PUSH1 0x1 PUSH1 0x60 SHL SUB SWAP1 SWAP2 AND DUP2 MSTORE PUSH1 0x20 ADD PUSH2 0x1A3 JUMP JUMPDEST PUSH2 0x184 PUSH2 0x678 JUMP JUMPDEST PUSH2 0x285 PUSH2 0x280 CALLDATASIZE PUSH1 0x4 PUSH2 0x1BF1 JUMP JUMPDEST PUSH2 0x69F JUMP JUMPDEST PUSH1 0x40 DUP1 MLOAD SWAP6 DUP7 MSTORE PUSH1 0x20 DUP7 ADD SWAP5 SWAP1 SWAP5 MSTORE SWAP3 DUP5 ADD SWAP2 SWAP1 SWAP2 MSTORE PUSH1 0x60 DUP4 ADD MSTORE PUSH1 0x80 DUP3 ADD MSTORE PUSH1 0xA0 ADD PUSH2 0x1A3 JUMP JUMPDEST PUSH2 0x184 PUSH2 0x2BB CALLDATASIZE PUSH1 0x4 PUSH2 0x1C20 JUMP JUMPDEST PUSH2 0x6EC JUMP JUMPDEST PUSH2 0x184 PUSH2 0x87E JUMP JUMPDEST PUSH2 0x2ED PUSH2 0x2D6 CALLDATASIZE PUSH1 0x4 PUSH2 0x1C50 JUMP JUMPDEST PUSH1 0x4 PUSH1 0x20 MSTORE PUSH0 SWAP1 DUP2 MSTORE PUSH1 0x40 SWAP1 KECCAK256 SLOAD PUSH4 0xFFFFFFFF AND DUP2 JUMP JUMPDEST PUSH1 0x40 MLOAD PUSH4 0xFFFFFFFF SWAP1 SWAP2 AND DUP2 MSTORE PUSH1 0x20 ADD PUSH2 0x1A3 JUMP JUMPDEST PUSH2 0x184 PUSH2 0x310 CALLDATASIZE PUSH1 0x4 PUSH2 0x1C69 JUMP JUMPDEST PUSH2 0x88F JUMP JUMPDEST PUSH0 SLOAD PUSH1 0x40 MLOAD PUSH1 0x1 PUSH1 0x1 PUSH1 0xA0 SHL SUB SWAP1 SWAP2 AND DUP2 MSTORE PUSH1 0x20 ADD PUSH2 0x1A3 JUMP JUMPDEST PUSH2 0x184 PUSH2 0x33D CALLDATASIZE PUSH1 0x4 PUSH2 0x1C9C JUMP JUMPDEST PUSH2 0xA49 JUMP JUMPDEST PUSH2 0x184 PUSH2 0x350 CALLDATASIZE PUSH1 0x4 PUSH2 0x1CCE JUMP JUMPDEST PUSH2 0xBF1 JUMP JUMPDEST PUSH2 0x184 PUSH2 0x363 CALLDATASIZE PUSH1 0x4 PUSH2 0x1CE5 JUMP JUMPDEST PUSH2 0xBFD JUMP JUMPDEST PUSH2 0x184 PUSH2 0x376 CALLDATASIZE PUSH1 0x4 PUSH2 0x1C9C JUMP JUMPDEST PUSH2 0xCA3 JUMP JUMPDEST PUSH2 0x199 PUSH9 0x3635C9ADC5DEA00000 DUP2 JUMP JUMPDEST PUSH2 0x39E PUSH2 0x399 CALLDATASIZE PUSH1 0x4 PUSH2 0x1D17 JUMP JUMPDEST PUSH2 0xD34 JUMP JUMPDEST PUSH1 0x40 MLOAD PUSH2 0x1A3 SWAP5 SWAP4 SWAP3 SWAP2 SWAP1 SWAP4 DUP5 MSTORE PUSH1 0x20 DUP5 ADD SWAP3 SWAP1 SWAP3 MSTORE PUSH1 0x1 PUSH1 0x1 PUSH1 0x60 SHL SUB AND PUSH1 0x40 DUP4 ADD MSTORE PUSH1 0x60 DUP3 ADD MSTORE PUSH1 0x80 ADD SWAP1 JUMP JUMPDEST PUSH2 0x184 PUSH2 0x3DB CALLDATASIZE PUSH1 0x4 PUSH2 0x1D17 JUMP JUMPDEST PUSH2 0xE05 JUMP JUMPDEST PUSH2 0x184 PUSH2 0x3EE CALLDATASIZE PUSH1 0x4 PUSH2 0x1D3F JUMP JUMPDEST PUSH2 0xF19 JUMP JUMPDEST PUSH2 0x2ED PUSH2 0x3E8 DUP2 JUMP JUMPDEST PUSH2 0x184 PUSH2 0x40A CALLDATASIZE PUSH1 0x4 PUSH2 0x1BF1 JUMP JUMPDEST PUSH2 0xF8C JUMP JUMPDEST PUSH2 0x417 PUSH2 0xFDF JUMP JUMPDEST DUP3 DUP2 EQ DUP1 ISZERO PUSH2 0x425 JUMPI POP DUP1 ISZERO ISZERO JUMPDEST PUSH2 0x42D JUMPI PUSH0 PUSH0 REVERT JUMPDEST PUSH2 0x468 DUP5 DUP5 DUP1 DUP1 PUSH1 0x20 MUL PUSH1 0x20 ADD PUSH1 0x40 MLOAD SWAP1 DUP2 ADD PUSH1 0x40 MSTORE DUP1 SWAP4 SWAP3 SWAP2 SWAP1 DUP2 DUP2 MSTORE PUSH1 0x20 ADD DUP4 DUP4 PUSH1 0x20 MUL DUP1 DUP3 DUP5 CALLDATACOPY PUSH0 SWAP3 ADD SWAP2 SWAP1 SWAP2 MSTORE POP PUSH2 0x1024 SWAP3 POP POP POP JUMP JUMPDEST DUP1 MLOAD PUSH2 0x47C SWAP2 PUSH1 0x2 SWAP2 PUSH1 0x20 SWAP1 SWAP2 ADD SWAP1 PUSH2 0x1AC5 JUMP JUMPDEST POP PUSH2 0x4B8 DUP3 DUP3 DUP1 DUP1 PUSH1 0x20 MUL PUSH1 0x20 ADD PUSH1 0x40 MLOAD SWAP1 DUP2 ADD PUSH1 0x40 MSTORE DUP1 SWAP4 SWAP3 SWAP2 SWAP1 DUP2 DUP2 MSTORE PUSH1 0x20 ADD DUP4 DUP4 PUSH1 0x20 MUL DUP1 DUP3 DUP5 CALLDATACOPY PUSH0 SWAP3 ADD SWAP2 SWAP1 SWAP2 MSTORE POP PUSH2 0x1024 SWAP3 POP POP POP JUMP JUMPDEST DUP1 MLOAD PUSH2 0x4CC SWAP2 PUSH1 0x3 SWAP2 PUSH1 0x20 SWAP1 SWAP2 ADD SWAP1 PUSH2 0x1AC5 JUMP JUMPDEST POP PUSH1 0x2 PUSH0 DUP2 SLOAD DUP2 LT PUSH2 0x4E0 JUMPI PUSH2 0x4E0 PUSH2 0x1D59 JUMP JUMPDEST SWAP1 PUSH0 MSTORE PUSH1 0x20 PUSH0 KECCAK256 ADD SLOAD PUSH0 EQ DUP1 ISZERO PUSH2 0x51A JUMPI POP PUSH2 0x3E8 PUSH4 0xFFFFFFFF AND PUSH1 0x3 PUSH0 DUP2 SLOAD DUP2 LT PUSH2 0x50E JUMPI PUSH2 0x50E PUSH2 0x1D59 JUMP JUMPDEST SWAP1 PUSH0 MSTORE PUSH1 0x20 PUSH0 KECCAK256 ADD SLOAD LT ISZERO JUMPDEST PUSH2 0x522 JUMPI PUSH0 PUSH0 REVERT JUMPDEST PUSH32 0x36636BD3CAF33BDDBD656AADDA2FC454E5093F7CEC3DE1405319EF0EF3AA6BA7 PUSH1 0x2 PUSH1 0x3 PUSH1 0x40 MLOAD PUSH2 0x555 SWAP3 SWAP2 SWAP1 PUSH2 0x1DAA JUMP JUMPDEST PUSH1 0x40 MLOAD DUP1 SWAP2 SUB SWAP1 LOG1 POP POP POP POP JUMP JUMPDEST PUSH1 0x1 PUSH1 0x1 PUSH1 0xA0 SHL SUB DUP2 AND PUSH0 SWAP1 DUP2 MSTORE PUSH1 0x5 PUSH1 0x20 MSTORE PUSH1 0x40 DUP2 KECCAK256 PUSH1 0xC SLOAD DUP3 SWAP1 PUSH2 0x5B3 SWAP1 PUSH1 0x1 PUSH1 0x1 PUSH1 0x60 SHL SUB AND PUSH2 0x5AE TIMESTAMP JUMPDEST PUSH1 0x8 SLOAD PUSH1 0x1 PUSH1 0x1 PUSH1 0x60 SHL SUB SWAP2 DUP3 AND SWAP2 PUSH1 0x1 PUSH1 0xA0 SHL SWAP1 SWAP2 DIV AND PUSH2 0x1039 JUMP JUMPDEST PUSH2 0x104D JUMP JUMPDEST PUSH1 0xB SLOAD PUSH1 0x9 SLOAD SWAP2 SWAP3 POP SWAP1 ISZERO DUP1 ISZERO SWAP1 PUSH2 0x5D9 JUMPI POP PUSH1 0xC SLOAD PUSH1 0x1 PUSH1 0x1 PUSH1 0x60 SHL SUB SWAP1 DUP2 AND SWAP1 DUP4 AND GT JUMPDEST ISZERO PUSH2 0x627 JUMPI PUSH1 0x9 SLOAD PUSH1 0xA SLOAD PUSH1 0xC SLOAD PUSH2 0x5FA SWAP1 PUSH1 0x1 PUSH1 0x1 PUSH1 0x60 SHL SUB AND DUP6 PUSH2 0x1DE2 JUMP JUMPDEST PUSH1 0x1 PUSH1 0x1 PUSH1 0x60 SHL SUB AND PUSH2 0x60D SWAP2 SWAP1 PUSH2 0x1E01 JUMP JUMPDEST PUSH2 0x617 SWAP2 SWAP1 PUSH2 0x1E18 JUMP JUMPDEST PUSH1 0xB SLOAD PUSH2 0x624 SWAP2 SWAP1 PUSH2 0x1E37 JUMP JUMPDEST SWAP1 POP JUMPDEST PUSH9 0x3635C9ADC5DEA00000 DUP4 PUSH1 0x2 ADD SLOAD DUP3 PUSH2 0x641 SWAP2 SWAP1 PUSH2 0x1E4A JUMP JUMPDEST DUP5 SLOAD PUSH2 0x64C SWAP1 PUSH2 0x105C JUMP JUMPDEST PUSH2 0x656 SWAP2 SWAP1 PUSH2 0x1E01 JUMP JUMPDEST PUSH2 0x660 SWAP2 SWAP1 PUSH2 0x1E18 JUMP JUMPDEST DUP4 PUSH1 0x1 ADD SLOAD PUSH2 0x66F SWAP2 SWAP1 PUSH2 0x1E37 JUMP JUMPDEST SWAP6 SWAP5 POP POP POP POP POP JUMP JUMPDEST PUSH2 0x680 PUSH2 0x10B2 JUMP JUMPDEST PUSH2 0x68B CALLER PUSH0 PUSH0 PUSH2 0x10F5 JUMP JUMPDEST PUSH2 0x694 CALLER PUSH2 0x1344 JUMP JUMPDEST PUSH2 0x69D PUSH1 0x1 DUP1 SSTORE JUMP JUMPDEST JUMP JUMPDEST PUSH1 0x1 PUSH1 0x1 PUSH1 0xA0 SHL SUB DUP2 AND PUSH0 SWAP1 DUP2 MSTORE PUSH1 0x5 PUSH1 0x20 MSTORE PUSH1 0x40 DUP2 KECCAK256 DUP1 SLOAD DUP3 SWAP2 DUP3 SWAP2 DUP3 SWAP2 DUP3 SWAP2 PUSH2 0x6CB PUSH1 0x2 DUP3 PUSH2 0x13D5 JUMP JUMPDEST PUSH1 0x1 DUP4 ADD SLOAD PUSH1 0x2 DUP5 ADD SLOAD PUSH1 0x3 SWAP1 SWAP5 ADD SLOAD SWAP3 SWAP11 SWAP2 SWAP10 POP SWAP8 POP SWAP2 SWAP6 POP SWAP4 POP SWAP2 POP POP JUMP JUMPDEST PUSH2 0x6F4 PUSH2 0xFDF JUMP JUMPDEST PUSH2 0x6FF PUSH0 PUSH0 PUSH0 PUSH2 0x10F5 JUMP JUMPDEST PUSH1 0x8 SLOAD TIMESTAMP SWAP1 PUSH1 0x1 PUSH1 0xA0 SHL SWAP1 DIV PUSH1 0x1 PUSH1 0x1 PUSH1 0x60 SHL SUB SWAP1 DUP2 AND SWAP1 DUP3 AND LT PUSH2 0x74D JUMPI PUSH1 0x1 PUSH1 0x1 PUSH1 0x60 SHL SUB DUP5 AND PUSH2 0x73B DUP5 PUSH9 0x3635C9ADC5DEA00000 PUSH2 0x1E01 JUMP JUMPDEST PUSH2 0x745 SWAP2 SWAP1 PUSH2 0x1E18 JUMP JUMPDEST PUSH1 0xA SSTORE PUSH2 0x7B1 JUMP JUMPDEST PUSH1 0xA SLOAD PUSH1 0x8 SLOAD PUSH1 0x1 PUSH1 0x1 PUSH1 0x60 SHL SUB DUP1 DUP8 AND SWAP3 SWAP2 PUSH2 0x773 SWAP2 DUP6 SWAP2 PUSH1 0x1 PUSH1 0xA0 SHL SWAP1 DIV AND PUSH2 0x1DE2 JUMP JUMPDEST PUSH1 0x1 PUSH1 0x1 PUSH1 0x60 SHL SUB AND PUSH2 0x786 SWAP2 SWAP1 PUSH2 0x1E01 JUMP JUMPDEST PUSH2 0x799 DUP6 PUSH9 0x3635C9ADC5DEA00000 PUSH2 0x1E01 JUMP JUMPDEST PUSH2 0x7A3 SWAP2 SWAP1 PUSH2 0x1E37 JUMP JUMPDEST PUSH2 0x7AD SWAP2 SWAP1 PUSH2 0x1E18 JUMP JUMPDEST PUSH1 0xA SSTORE JUMPDEST PUSH1 0xC DUP1 SLOAD PUSH12 0xFFFFFFFFFFFFFFFFFFFFFFFF NOT AND PUSH1 0x1 PUSH1 0x1 PUSH1 0x60 SHL SUB DUP4 AND OR SWAP1 SSTORE PUSH2 0x7DB DUP5 DUP3 PUSH2 0x1E5D JUMP JUMPDEST PUSH1 0x8 DUP1 SLOAD PUSH1 0x1 PUSH1 0x1 PUSH1 0x60 SHL SUB SWAP3 SWAP1 SWAP3 AND PUSH1 0x1 PUSH1 0xA0 SHL MUL PUSH1 0x1 PUSH1 0x1 PUSH1 0xA0 SHL SUB SWAP1 SWAP3 AND SWAP2 SWAP1 SWAP2 OR SWAP1 SSTORE DUP2 ISZERO PUSH2 0x811 JUMPI PUSH2 0x811 DUP3 PUSH2 0x1430 JUMP JUMPDEST PUSH1 0x9 SLOAD PUSH1 0xA SLOAD PUSH1 0xB SLOAD PUSH1 0xC SLOAD PUSH1 0x8 SLOAD PUSH1 0x40 DUP1 MLOAD SWAP6 DUP7 MSTORE PUSH1 0x20 DUP7 ADD SWAP5 SWAP1 SWAP5 MSTORE SWAP3 DUP5 ADD SWAP2 SWAP1 SWAP2 MSTORE PUSH1 0x1 PUSH1 0x1 PUSH1 0x60 SHL SUB SWAP1 DUP2 AND PUSH1 0x60 DUP5 ADD MSTORE PUSH1 0x1 PUSH1 0xA0 SHL SWAP1 SWAP2 DIV AND PUSH1 0x80 DUP3 ADD MSTORE PUSH32 0xE111F67A87ACE56A1496291914B8E0DA23748FFDDAA8BC98D0F4D4DFB51796A5 SWAP1 PUSH1 0xA0 ADD PUSH2 0x555 JUMP JUMPDEST PUSH2 0x886 PUSH2 0xFDF JUMP JUMPDEST PUSH2 0x69D PUSH0 PUSH2 0x14E3 JUMP JUMPDEST PUSH2 0x897 PUSH2 0x10B2 JUMP JUMPDEST CALLER PUSH0 DUP2 DUP2 MSTORE PUSH1 0x5 PUSH1 0x20 MSTORE PUSH1 0x40 SWAP1 KECCAK256 PUSH1 0x3 ADD SLOAD DUP5 SWAP1 PUSH2 0x8B6 SWAP1 PUSH1 0x1 PUSH2 0x1E37 JUMP JUMPDEST DUP2 LT PUSH2 0x909 JUMPI PUSH1 0x40 MLOAD PUSH3 0x461BCD PUSH1 0xE5 SHL DUP2 MSTORE PUSH1 0x20 PUSH1 0x4 DUP3 ADD MSTORE PUSH1 0x1D PUSH1 0x24 DUP3 ADD MSTORE PUSH32 0x50726F66697453686172653A496E76616C6964205374616B6520494421000000 PUSH1 0x44 DUP3 ADD MSTORE PUSH1 0x64 ADD JUMPDEST PUSH1 0x40 MLOAD DUP1 SWAP2 SUB SWAP1 REVERT JUMPDEST DUP3 ISZERO PUSH2 0x927 JUMPI PUSH2 0x927 CALLER PUSH1 0x7 SLOAD PUSH1 0x1 PUSH1 0x1 PUSH1 0xA0 SHL SUB AND SWAP1 ADDRESS DUP7 PUSH2 0x154A JUMP JUMPDEST CALLER PUSH0 SWAP1 DUP2 MSTORE PUSH1 0x6 PUSH1 0x20 SWAP1 DUP2 MSTORE PUSH1 0x40 DUP1 DUP4 KECCAK256 DUP9 DUP5 MSTORE DUP3 MSTORE DUP1 DUP4 KECCAK256 PUSH1 0x1 PUSH1 0x1 PUSH1 0x60 SHL SUB DUP9 AND DUP5 MSTORE PUSH1 0x4 SWAP1 SWAP3 MSTORE SWAP1 SWAP2 KECCAK256 SLOAD PUSH1 0x1 DUP3 ADD SLOAD PUSH4 0xFFFFFFFF SWAP2 DUP3 AND PUSH1 0x1 PUSH1 0x60 SHL SWAP1 SWAP2 DIV SWAP1 SWAP2 AND GT ISZERO PUSH2 0x9E1 JUMPI PUSH1 0x40 MLOAD PUSH3 0x461BCD PUSH1 0xE5 SHL DUP2 MSTORE PUSH1 0x20 PUSH1 0x4 DUP3 ADD MSTORE PUSH1 0x23 PUSH1 0x24 DUP3 ADD MSTORE PUSH32 0x50726F66697453686172653A557365206C6F6E676572206C6F636B5F70657269 PUSH1 0x44 DUP3 ADD MSTORE PUSH32 0x6F64210000000000000000000000000000000000000000000000000000000000 PUSH1 0x64 DUP3 ADD MSTORE PUSH1 0x84 ADD PUSH2 0x900 JUMP JUMPDEST DUP1 SLOAD PUSH0 SWAP1 PUSH2 0x9EF SWAP1 DUP7 PUSH2 0x1E37 JUMP JUMPDEST SWAP1 POP PUSH2 0x9FD CALLER DUP4 SLOAD DUP10 PUSH2 0x15C6 JUMP JUMPDEST DUP7 PUSH0 SUB PUSH2 0xA2B JUMPI CALLER PUSH0 SWAP1 DUP2 MSTORE PUSH1 0x5 PUSH1 0x20 MSTORE PUSH1 0x40 DUP2 KECCAK256 PUSH1 0x3 ADD DUP1 SLOAD SWAP1 SWAP2 SWAP1 PUSH2 0xA23 SWAP1 PUSH2 0x1E7C JUMP JUMPDEST SWAP2 DUP3 SWAP1 SSTORE POP SWAP7 POP JUMPDEST PUSH2 0xA37 CALLER DUP8 DUP4 DUP11 PUSH2 0x16F1 JUMP JUMPDEST POP POP POP POP PUSH2 0xA44 PUSH1 0x1 DUP1 SSTORE JUMP JUMPDEST POP POP POP JUMP JUMPDEST PUSH2 0xA51 PUSH2 0x10B2 JUMP JUMPDEST CALLER PUSH0 DUP2 DUP2 MSTORE PUSH1 0x5 PUSH1 0x20 MSTORE PUSH1 0x40 SWAP1 KECCAK256 PUSH1 0x3 ADD SLOAD DUP4 SWAP1 PUSH2 0xA70 SWAP1 PUSH1 0x1 PUSH2 0x1E37 JUMP JUMPDEST DUP2 LT PUSH2 0xABE JUMPI PUSH1 0x40 MLOAD PUSH3 0x461BCD PUSH1 0xE5 SHL DUP2 MSTORE PUSH1 0x20 PUSH1 0x4 DUP3 ADD MSTORE PUSH1 0x1D PUSH1 0x24 DUP3 ADD MSTORE PUSH32 0x50726F66697453686172653A496E76616C6964205374616B6520494421000000 PUSH1 0x44 DUP3 ADD MSTORE PUSH1 0x64 ADD PUSH2 0x900 JUMP JUMPDEST CALLER PUSH0 SWAP1 DUP2 MSTORE PUSH1 0x6 PUSH1 0x20 SWAP1 DUP2 MSTORE PUSH1 0x40 DUP1 DUP4 KECCAK256 DUP8 DUP5 MSTORE SWAP1 SWAP2 MSTORE SWAP1 KECCAK256 PUSH1 0x1 DUP2 ADD SLOAD PUSH1 0x1 PUSH1 0x1 PUSH1 0x60 SHL SUB SWAP1 DUP2 AND TIMESTAMP SWAP1 SWAP2 AND LT ISZERO PUSH2 0xB5F JUMPI PUSH1 0x40 MLOAD PUSH3 0x461BCD PUSH1 0xE5 SHL DUP2 MSTORE PUSH1 0x20 PUSH1 0x4 DUP3 ADD MSTORE PUSH1 0x2E PUSH1 0x24 DUP3 ADD MSTORE PUSH32 0x50726F66697453686172653A4561726C79205769746864726177616C20697320 PUSH1 0x44 DUP3 ADD MSTORE PUSH32 0x6E6F74207065726D697474656421000000000000000000000000000000000000 PUSH1 0x64 DUP3 ADD MSTORE PUSH1 0x84 ADD PUSH2 0x900 JUMP JUMPDEST DUP1 SLOAD PUSH2 0xBAD JUMPI PUSH1 0x40 MLOAD PUSH3 0x461BCD PUSH1 0xE5 SHL DUP2 MSTORE PUSH1 0x20 PUSH1 0x4 DUP3 ADD MSTORE PUSH1 0x1C PUSH1 0x24 DUP3 ADD MSTORE PUSH32 0x50726F66697453686172653A4E6F7468696E6720746F20636C61696D00000000 PUSH1 0x44 DUP3 ADD MSTORE PUSH1 0x64 ADD PUSH2 0x900 JUMP JUMPDEST PUSH2 0xBC6 CALLER DUP3 SLOAD PUSH1 0x7 SLOAD PUSH1 0x1 PUSH1 0x1 PUSH1 0xA0 SHL SUB AND SWAP2 SWAP1 PUSH2 0x1917 JUMP JUMPDEST PUSH2 0xBD2 CALLER DUP3 SLOAD DUP8 PUSH2 0x15C6 JUMP JUMPDEST DUP4 ISZERO PUSH2 0xBE1 JUMPI PUSH2 0xBE1 CALLER PUSH2 0x1344 JUMP JUMPDEST POP POP POP PUSH2 0xBED PUSH1 0x1 DUP1 SSTORE JUMP JUMPDEST POP POP JUMP JUMPDEST PUSH2 0xBFA DUP2 PUSH2 0x1430 JUMP JUMPDEST POP JUMP JUMPDEST PUSH2 0xC05 PUSH2 0xFDF JUMP JUMPDEST PUSH0 DUP3 PUSH1 0x1 PUSH1 0x1 PUSH1 0x60 SHL SUB AND GT DUP1 ISZERO PUSH2 0xC32 JUMPI POP PUSH4 0xFFFFFFFF DUP2 AND PUSH2 0x3E8 LT DUP1 PUSH2 0xC32 JUMPI POP PUSH4 0xFFFFFFFF DUP2 AND ISZERO JUMPDEST PUSH2 0xC3A JUMPI PUSH0 PUSH0 REVERT JUMPDEST PUSH1 0x1 PUSH1 0x1 PUSH1 0x60 SHL SUB DUP3 AND PUSH0 DUP2 DUP2 MSTORE PUSH1 0x4 PUSH1 0x20 SWAP1 DUP2 MSTORE PUSH1 0x40 SWAP2 DUP3 SWAP1 KECCAK256 DUP1 SLOAD PUSH4 0xFFFFFFFF NOT AND PUSH4 0xFFFFFFFF DUP7 AND SWAP1 DUP2 OR SWAP1 SWAP2 SSTORE DUP3 MLOAD SWAP4 DUP5 MSTORE SWAP1 DUP4 ADD MSTORE PUSH32 0xDFDE28BA1CFAE98DB642E3246355850B37332D75F04945DA4676E38AD045386 SWAP2 ADD PUSH1 0x40 MLOAD DUP1 SWAP2 SUB SWAP1 LOG1 POP POP JUMP JUMPDEST PUSH2 0xCAB PUSH2 0x10B2 JUMP JUMPDEST PUSH0 DUP3 GT PUSH2 0xCFA JUMPI PUSH1 0x40 MLOAD PUSH3 0x461BCD PUSH1 0xE5 SHL DUP2 MSTORE PUSH1 0x20 PUSH1 0x4 DUP3 ADD MSTORE PUSH1 0x11 PUSH1 0x24 DUP3 ADD MSTORE PUSH32 0x43616E6E6F7420756E7374616B65203021000000000000000000000000000000 PUSH1 0x44 DUP3 ADD MSTORE PUSH1 0x64 ADD PUSH2 0x900 JUMP JUMPDEST PUSH2 0xD11 CALLER PUSH1 0x7 SLOAD PUSH1 0x1 PUSH1 0x1 PUSH1 0xA0 SHL SUB AND SWAP1 DUP5 PUSH2 0x1917 JUMP JUMPDEST PUSH2 0xD1C CALLER DUP4 PUSH0 PUSH2 0x15C6 JUMP JUMPDEST DUP1 ISZERO PUSH2 0xD2B JUMPI PUSH2 0xD2B CALLER PUSH2 0x1344 JUMP JUMPDEST PUSH2 0xBED PUSH1 0x1 DUP1 SSTORE JUMP JUMPDEST PUSH1 0x1 PUSH1 0x1 PUSH1 0xA0 SHL SUB DUP3 AND PUSH0 SWAP1 DUP2 MSTORE PUSH1 0x5 PUSH1 0x20 MSTORE PUSH1 0x40 DUP2 KECCAK256 PUSH1 0x3 ADD SLOAD DUP2 SWAP1 DUP2 SWAP1 DUP2 SWAP1 DUP7 SWAP1 DUP7 SWAP1 PUSH2 0xD64 SWAP1 PUSH1 0x1 PUSH2 0x1E37 JUMP JUMPDEST DUP2 LT PUSH2 0xDB2 JUMPI PUSH1 0x40 MLOAD PUSH3 0x461BCD PUSH1 0xE5 SHL DUP2 MSTORE PUSH1 0x20 PUSH1 0x4 DUP3 ADD MSTORE PUSH1 0x1D PUSH1 0x24 DUP3 ADD MSTORE PUSH32 0x50726F66697453686172653A496E76616C6964205374616B6520494421000000 PUSH1 0x44 DUP3 ADD MSTORE PUSH1 0x64 ADD PUSH2 0x900 JUMP JUMPDEST POP POP POP POP PUSH1 0x1 PUSH1 0x1 PUSH1 0xA0 SHL SUB SWAP4 SWAP1 SWAP4 AND PUSH0 SWAP1 DUP2 MSTORE PUSH1 0x6 PUSH1 0x20 SWAP1 DUP2 MSTORE PUSH1 0x40 DUP1 DUP4 KECCAK256 SWAP5 DUP4 MSTORE SWAP4 SWAP1 MSTORE SWAP2 DUP3 KECCAK256 DUP1 SLOAD PUSH1 0x1 SWAP1 SWAP2 ADD SLOAD SWAP1 SWAP5 SWAP3 SWAP4 POP PUSH1 0x1 PUSH1 0x1 PUSH1 0x60 SHL SUB DUP2 AND SWAP3 PUSH1 0x1 PUSH1 0x60 SHL SWAP1 SWAP2 DIV PUSH4 0xFFFFFFFF AND SWAP2 POP JUMP JUMPDEST PUSH2 0xE0D PUSH2 0xFDF JUMP JUMPDEST PUSH0 DUP2 GT PUSH2 0xE72 JUMPI PUSH1 0x40 MLOAD PUSH3 0x461BCD PUSH1 0xE5 SHL DUP2 MSTORE PUSH1 0x20 PUSH1 0x4 DUP3 ADD MSTORE PUSH1 0x2D PUSH1 0x24 DUP3 ADD MSTORE PUSH32 0x50726F66697453686172653A616D6F756E74206D757374206265206772656174 PUSH1 0x44 DUP3 ADD MSTORE PUSH13 0x6572207468616E207A65726F21 PUSH1 0x98 SHL PUSH1 0x64 DUP3 ADD MSTORE PUSH1 0x84 ADD PUSH2 0x900 JUMP JUMPDEST PUSH1 0x8 SLOAD PUSH2 0xE93 SWAP1 PUSH3 0x34BC00 SWAP1 PUSH1 0x1 PUSH1 0xA0 SHL SWAP1 DIV PUSH1 0x1 PUSH1 0x1 PUSH1 0x60 SHL SUB AND PUSH2 0x1E5D JUMP JUMPDEST PUSH1 0x1 PUSH1 0x1 PUSH1 0x60 SHL SUB AND TIMESTAMP PUSH1 0x1 PUSH1 0x1 PUSH1 0x60 SHL SUB AND LT ISZERO DUP1 PUSH2 0xEB3 JUMPI POP PUSH1 0x9 SLOAD ISZERO JUMPDEST PUSH2 0xEBB JUMPI PUSH0 PUSH0 REVERT JUMPDEST PUSH1 0x8 SLOAD PUSH2 0xED2 SWAP1 PUSH1 0x1 PUSH1 0x1 PUSH1 0xA0 SHL SUB AND DUP4 DUP4 PUSH2 0x1917 JUMP JUMPDEST DUP2 PUSH1 0x1 PUSH1 0x1 PUSH1 0xA0 SHL SUB AND PUSH32 0x1D3EEE4CA001CFF39EEC6EC7615AACF2F2BD61791273830728BA00CCBD6E1337 DUP3 PUSH1 0x40 MLOAD PUSH2 0xF0D SWAP2 DUP2 MSTORE PUSH1 0x20 ADD SWAP1 JUMP JUMPDEST PUSH1 0x40 MLOAD DUP1 SWAP2 SUB SWAP1 LOG2 POP POP JUMP JUMPDEST PUSH2 0xF21 PUSH2 0x10B2 JUMP JUMPDEST PUSH2 0xF39 CALLER PUSH1 0x7 SLOAD PUSH1 0x1 PUSH1 0x1 PUSH1 0xA0 SHL SUB AND SWAP1 ADDRESS DUP5 PUSH2 0x154A JUMP JUMPDEST PUSH0 PUSH1 0x1 PUSH1 0x1 PUSH1 0x60 SHL SUB DUP4 AND ISZERO PUSH2 0xF72 JUMPI CALLER PUSH0 SWAP1 DUP2 MSTORE PUSH1 0x5 PUSH1 0x20 MSTORE PUSH1 0x40 DUP2 KECCAK256 PUSH1 0x3 ADD DUP1 SLOAD SWAP1 SWAP2 SWAP1 PUSH2 0xF68 SWAP1 PUSH2 0x1E7C JUMP JUMPDEST SWAP2 DUP3 SWAP1 SSTORE POP PUSH2 0xF74 JUMP JUMPDEST PUSH0 JUMPDEST SWAP1 POP PUSH2 0xF82 CALLER DUP5 DUP5 DUP5 PUSH2 0x16F1 JUMP JUMPDEST POP PUSH2 0xBED PUSH1 0x1 DUP1 SSTORE JUMP JUMPDEST PUSH2 0xF94 PUSH2 0xFDF JUMP JUMPDEST PUSH1 0x1 PUSH1 0x1 PUSH1 0xA0 SHL SUB DUP2 AND PUSH2 0xFD6 JUMPI PUSH1 0x40 MLOAD PUSH32 0x1E4FBDF700000000000000000000000000000000000000000000000000000000 DUP2 MSTORE PUSH0 PUSH1 0x4 DUP3 ADD MSTORE PUSH1 0x24 ADD PUSH2 0x900 JUMP JUMPDEST PUSH2 0xBFA DUP2 PUSH2 0x14E3 JUMP JUMPDEST PUSH0 SLOAD PUSH1 0x1 PUSH1 0x1 PUSH1 0xA0 SHL SUB AND CALLER EQ PUSH2 0x69D JUMPI PUSH1 0x40 MLOAD PUSH32 0x118CDAA700000000000000000000000000000000000000000000000000000000 DUP2 MSTORE CALLER PUSH1 0x4 DUP3 ADD MSTORE PUSH1 0x24 ADD PUSH2 0x900 JUMP JUMPDEST PUSH1 0x60 PUSH2 0x1032 DUP3 PUSH2 0x1948 PUSH2 0x194C JUMP JUMPDEST POP SWAP1 SWAP2 SWAP1 POP JUMP JUMPDEST PUSH0 DUP3 DUP3 XOR DUP3 DUP5 LT MUL DUP3 XOR JUMPDEST SWAP1 POP JUMPDEST SWAP3 SWAP2 POP POP JUMP JUMPDEST PUSH0 DUP3 DUP3 XOR DUP3 DUP5 GT MUL DUP3 XOR PUSH2 0x1044 JUMP JUMPDEST PUSH0 PUSH0 PUSH1 0x3 PUSH1 0x1 PUSH2 0x106D PUSH1 0x2 DUP7 PUSH2 0x13D5 JUMP JUMPDEST PUSH2 0x1077 SWAP2 SWAP1 PUSH2 0x1E4A JUMP JUMPDEST DUP2 SLOAD DUP2 LT PUSH2 0x1087 JUMPI PUSH2 0x1087 PUSH2 0x1D59 JUMP JUMPDEST PUSH0 SWAP2 DUP3 MSTORE PUSH1 0x20 SWAP1 SWAP2 KECCAK256 ADD SLOAD SWAP1 POP PUSH2 0x3E8 PUSH2 0x10A1 DUP5 DUP4 PUSH2 0x1E01 JUMP JUMPDEST PUSH2 0x10AB SWAP2 SWAP1 PUSH2 0x1E18 JUMP JUMPDEST SWAP4 SWAP3 POP POP POP JUMP JUMPDEST PUSH1 0x2 PUSH1 0x1 SLOAD SUB PUSH2 0x10EE JUMPI PUSH1 0x40 MLOAD PUSH32 0x3EE5AEB500000000000000000000000000000000000000000000000000000000 DUP2 MSTORE PUSH1 0x4 ADD PUSH1 0x40 MLOAD DUP1 SWAP2 SUB SWAP1 REVERT JUMPDEST PUSH1 0x2 PUSH1 0x1 SSTORE JUMP JUMPDEST PUSH1 0xC SLOAD PUSH0 SWAP1 PUSH2 0x1110 SWAP1 PUSH1 0x1 PUSH1 0x1 PUSH1 0x60 SHL SUB AND PUSH2 0x5AE TIMESTAMP PUSH2 0x591 JUMP JUMPDEST PUSH1 0x9 SLOAD SWAP1 SWAP2 POP ISZERO DUP1 ISZERO SWAP1 PUSH2 0x1132 JUMPI POP PUSH1 0xC SLOAD PUSH1 0x1 PUSH1 0x1 PUSH1 0x60 SHL SUB SWAP1 DUP2 AND SWAP1 DUP3 AND GT JUMPDEST ISZERO PUSH2 0x1187 JUMPI PUSH1 0x9 SLOAD PUSH1 0xA SLOAD PUSH1 0xC SLOAD PUSH2 0x1153 SWAP1 PUSH1 0x1 PUSH1 0x1 PUSH1 0x60 SHL SUB AND DUP5 PUSH2 0x1DE2 JUMP JUMPDEST PUSH1 0x1 PUSH1 0x1 PUSH1 0x60 SHL SUB AND PUSH2 0x1166 SWAP2 SWAP1 PUSH2 0x1E01 JUMP JUMPDEST PUSH2 0x1170 SWAP2 SWAP1 PUSH2 0x1E18 JUMP JUMPDEST PUSH1 0xB DUP1 SLOAD PUSH0 SWAP1 PUSH2 0x1181 SWAP1 DUP5 SWAP1 PUSH2 0x1E37 JUMP JUMPDEST SWAP1 SWAP2 SSTORE POP POP JUMPDEST PUSH1 0xC DUP1 SLOAD PUSH12 0xFFFFFFFFFFFFFFFFFFFFFFFF NOT AND PUSH1 0x1 PUSH1 0x1 PUSH1 0x60 SHL SUB DUP4 AND OR SWAP1 SSTORE PUSH1 0x1 PUSH1 0x1 PUSH1 0xA0 SHL SUB DUP5 AND ISZERO PUSH2 0x133E JUMPI PUSH1 0x1 PUSH1 0x1 PUSH1 0xA0 SHL SUB DUP5 AND PUSH0 SWAP1 DUP2 MSTORE PUSH1 0x5 PUSH1 0x20 MSTORE PUSH1 0x40 DUP2 KECCAK256 DUP1 SLOAD SWAP1 SWAP2 SWAP1 PUSH2 0x11DB SWAP1 PUSH2 0x105C JUMP JUMPDEST DUP3 SLOAD SWAP1 SWAP2 POP ISZERO PUSH2 0x122D JUMPI PUSH1 0x2 DUP3 ADD SLOAD PUSH1 0xB SLOAD PUSH9 0x3635C9ADC5DEA00000 SWAP2 PUSH2 0x1201 SWAP2 PUSH2 0x1E4A JUMP JUMPDEST PUSH2 0x120B SWAP1 DUP4 PUSH2 0x1E01 JUMP JUMPDEST PUSH2 0x1215 SWAP2 SWAP1 PUSH2 0x1E18 JUMP JUMPDEST DUP3 PUSH1 0x1 ADD PUSH0 DUP3 DUP3 SLOAD PUSH2 0x1227 SWAP2 SWAP1 PUSH2 0x1E37 JUMP JUMPDEST SWAP1 SWAP2 SSTORE POP POP JUMPDEST PUSH1 0xB SLOAD PUSH1 0x2 DUP4 ADD SSTORE DUP2 SLOAD DUP5 SWAP1 PUSH2 0x1244 SWAP1 DUP8 SWAP1 PUSH2 0x1E37 JUMP JUMPDEST PUSH2 0x124E SWAP2 SWAP1 PUSH2 0x1E4A JUMP JUMPDEST DUP1 DUP4 SSTORE DUP2 SWAP1 PUSH2 0x125C SWAP1 PUSH2 0x105C JUMP JUMPDEST PUSH1 0x9 SLOAD PUSH2 0x1269 SWAP2 SWAP1 PUSH2 0x1E37 JUMP JUMPDEST PUSH2 0x1273 SWAP2 SWAP1 PUSH2 0x1E4A JUMP JUMPDEST PUSH1 0x9 SSTORE DUP2 SLOAD PUSH1 0x1 DUP4 ADD SLOAD PUSH1 0x2 DUP5 ADD SLOAD PUSH1 0x40 DUP1 MLOAD SWAP4 DUP5 MSTORE PUSH1 0x20 DUP5 ADD SWAP3 SWAP1 SWAP3 MSTORE SWAP1 DUP3 ADD MSTORE PUSH1 0x1 PUSH1 0x1 PUSH1 0xA0 SHL SUB DUP8 AND SWAP1 PUSH32 0xF1DA46A1CA3E37613208B2A3D7EC556866482D77A0005D6168D73270CED6B26A SWAP1 PUSH1 0x60 ADD PUSH1 0x40 MLOAD DUP1 SWAP2 SUB SWAP1 LOG2 PUSH1 0x9 SLOAD PUSH1 0xA SLOAD PUSH1 0xB SLOAD PUSH1 0xC SLOAD PUSH1 0x8 SLOAD PUSH1 0x40 DUP1 MLOAD SWAP6 DUP7 MSTORE PUSH1 0x20 DUP7 ADD SWAP5 SWAP1 SWAP5 MSTORE DUP5 DUP5 ADD SWAP3 SWAP1 SWAP3 MSTORE PUSH1 0x1 PUSH1 0x1 PUSH1 0x60 SHL SUB SWAP1 DUP2 AND PUSH1 0x60 DUP6 ADD MSTORE PUSH1 0x1 PUSH1 0xA0 SHL SWAP1 SWAP2 DIV AND PUSH1 0x80 DUP4 ADD MSTORE MLOAD PUSH32 0xE111F67A87ACE56A1496291914B8E0DA23748FFDDAA8BC98D0F4D4DFB51796A5 SWAP2 DUP2 SWAP1 SUB PUSH1 0xA0 ADD SWAP1 LOG1 POP POP JUMPDEST POP POP POP POP JUMP JUMPDEST PUSH1 0x1 PUSH1 0x1 PUSH1 0xA0 SHL SUB DUP2 AND PUSH0 SWAP1 DUP2 MSTORE PUSH1 0x5 PUSH1 0x20 MSTORE PUSH1 0x40 SWAP1 KECCAK256 PUSH1 0x1 DUP2 ADD SLOAD ISZERO PUSH2 0xBED JUMPI PUSH1 0x1 DUP2 ADD SLOAD PUSH1 0x8 SLOAD PUSH2 0x1384 SWAP2 PUSH1 0x1 PUSH1 0x1 PUSH1 0xA0 SHL SUB SWAP1 SWAP2 AND SWAP1 DUP5 SWAP1 PUSH2 0x1917 JUMP JUMPDEST DUP2 PUSH1 0x1 PUSH1 0x1 PUSH1 0xA0 SHL SUB AND PUSH32 0xE2403640BA68FED3A2F88B7557551D1993F84B99BB10FF833F0CF8DB0C5E0486 DUP3 PUSH1 0x1 ADD SLOAD PUSH1 0x40 MLOAD PUSH2 0x13C3 SWAP2 DUP2 MSTORE PUSH1 0x20 ADD SWAP1 JUMP JUMPDEST PUSH1 0x40 MLOAD DUP1 SWAP2 SUB SWAP1 LOG2 PUSH0 PUSH1 0x1 DUP3 ADD SSTORE POP POP JUMP JUMPDEST DUP2 SLOAD PUSH0 SWAP1 DUP2 SWAP1 DUP1 DUP3 SUB PUSH2 0x13EC JUMPI PUSH0 SWAP3 POP POP POP PUSH2 0x1047 JUMP JUMPDEST DUP1 DUP3 LT ISZERO PUSH2 0x1428 JUMPI PUSH0 PUSH2 0x13FF DUP4 DUP4 PUSH2 0x1964 JUMP JUMPDEST SWAP1 POP DUP5 PUSH2 0x140C DUP8 DUP4 PUSH2 0x197E JUMP JUMPDEST SLOAD GT ISZERO PUSH2 0x141B JUMPI DUP1 SWAP2 POP PUSH2 0x1422 JUMP JUMPDEST DUP1 PUSH1 0x1 ADD SWAP3 POP JUMPDEST POP PUSH2 0x13EC JUMP JUMPDEST POP SWAP4 SWAP3 POP POP POP JUMP JUMPDEST PUSH0 DUP2 GT PUSH2 0x1495 JUMPI PUSH1 0x40 MLOAD PUSH3 0x461BCD PUSH1 0xE5 SHL DUP2 MSTORE PUSH1 0x20 PUSH1 0x4 DUP3 ADD MSTORE PUSH1 0x2D PUSH1 0x24 DUP3 ADD MSTORE PUSH32 0x50726F66697453686172653A616D6F756E74206D757374206265206772656174 PUSH1 0x44 DUP3 ADD MSTORE PUSH13 0x6572207468616E207A65726F21 PUSH1 0x98 SHL PUSH1 0x64 DUP3 ADD MSTORE PUSH1 0x84 ADD PUSH2 0x900 JUMP JUMPDEST PUSH2 0x14AD CALLER PUSH1 0x8 SLOAD PUSH1 0x1 PUSH1 0x1 PUSH1 0xA0 SHL SUB AND SWAP1 ADDRESS DUP5 PUSH2 0x154A JUMP JUMPDEST PUSH1 0x40 MLOAD DUP2 DUP2 MSTORE PUSH32 0xDE88A922E0D3B88B24E9623EFEB464919C6BF9F66857A65E2BFCF2CE87A9433D SWAP1 PUSH1 0x20 ADD PUSH1 0x40 MLOAD DUP1 SWAP2 SUB SWAP1 LOG1 POP JUMP JUMPDEST PUSH0 DUP1 SLOAD PUSH1 0x1 PUSH1 0x1 PUSH1 0xA0 SHL SUB DUP4 DUP2 AND PUSH32 0xFFFFFFFFFFFFFFFFFFFFFFFF0000000000000000000000000000000000000000 DUP4 AND DUP2 OR DUP5 SSTORE PUSH1 0x40 MLOAD SWAP2 SWAP1 SWAP3 AND SWAP3 DUP4 SWAP2 PUSH32 0x8BE0079C531659141344CD1FD0A4F28419497F9722A3DAAFE3B4186F6B6457E0 SWAP2 SWAP1 LOG3 POP POP JUMP JUMPDEST PUSH1 0x40 MLOAD PUSH1 0x1 PUSH1 0x1 PUSH1 0xA0 SHL SUB DUP5 DUP2 AND PUSH1 0x24 DUP4 ADD MSTORE DUP4 DUP2 AND PUSH1 0x44 DUP4 ADD MSTORE PUSH1 0x64 DUP3 ADD DUP4 SWAP1 MSTORE PUSH2 0x133E SWAP2 DUP7 SWAP2 DUP3 AND SWAP1 PUSH4 0x23B872DD SWAP1 PUSH1 0x84 ADD JUMPDEST PUSH1 0x40 MLOAD PUSH1 0x20 DUP2 DUP4 SUB SUB DUP2 MSTORE SWAP1 PUSH1 0x40 MSTORE SWAP2 POP PUSH1 0xE0 SHL PUSH1 0x20 DUP3 ADD DUP1 MLOAD PUSH28 0xFFFFFFFFFFFFFFFFFFFFFFFFFFFFFFFFFFFFFFFFFFFFFFFFFFFFFFFF DUP4 DUP2 DUP4 AND OR DUP4 MSTORE POP POP POP POP PUSH2 0x19A5 JUMP JUMPDEST PUSH1 0x1 PUSH1 0x1 PUSH1 0xA0 SHL SUB DUP4 AND PUSH0 SWAP1 DUP2 MSTORE PUSH1 0x6 PUSH1 0x20 SWAP1 DUP2 MSTORE PUSH1 0x40 DUP1 DUP4 KECCAK256 DUP5 DUP5 MSTORE SWAP1 SWAP2 MSTORE SWAP1 KECCAK256 DUP1 SLOAD DUP4 GT ISZERO PUSH2 0x165F JUMPI PUSH1 0x40 MLOAD PUSH3 0x461BCD PUSH1 0xE5 SHL DUP2 MSTORE PUSH1 0x20 PUSH1 0x4 DUP3 ADD MSTORE PUSH1 0x21 PUSH1 0x24 DUP3 ADD MSTORE PUSH32 0x50726F66697453686172653A496E73756666696369656E742062616C616E6365 PUSH1 0x44 DUP3 ADD MSTORE PUSH32 0x2100000000000000000000000000000000000000000000000000000000000000 PUSH1 0x64 DUP3 ADD MSTORE PUSH1 0x84 ADD PUSH2 0x900 JUMP JUMPDEST PUSH1 0x1 DUP2 ADD SLOAD PUSH0 SWAP1 PUSH2 0x3E8 SWAP1 PUSH2 0x1681 SWAP1 PUSH1 0x1 PUSH1 0x60 SHL SWAP1 DIV PUSH4 0xFFFFFFFF AND DUP7 PUSH2 0x1E01 JUMP JUMPDEST PUSH2 0x168B SWAP2 SWAP1 PUSH2 0x1E18 JUMP JUMPDEST SWAP1 POP PUSH2 0x1698 DUP6 PUSH0 DUP4 PUSH2 0x10F5 JUMP JUMPDEST DUP4 DUP3 PUSH0 ADD PUSH0 DUP3 DUP3 SLOAD PUSH2 0x16AA SWAP2 SWAP1 PUSH2 0x1E4A JUMP JUMPDEST SWAP1 SWAP2 SSTORE POP POP PUSH1 0x40 DUP1 MLOAD DUP5 DUP2 MSTORE PUSH1 0x20 DUP2 ADD DUP7 SWAP1 MSTORE CALLER SWAP2 PUSH32 0x459D5AEF2C549903C1EEB1736F5728845D5CCF82537DDD5BF8035795EEE89263 SWAP2 ADD PUSH1 0x40 MLOAD DUP1 SWAP2 SUB SWAP1 LOG2 POP POP POP POP POP JUMP JUMPDEST PUSH1 0x7 SLOAD PUSH1 0x1 PUSH1 0xA0 SHL SWAP1 DIV PUSH1 0x1 PUSH1 0x1 PUSH1 0x60 SHL SUB AND TIMESTAMP PUSH1 0x1 PUSH1 0x1 PUSH1 0x60 SHL SUB AND LT ISZERO DUP1 ISZERO PUSH2 0x1736 JUMPI POP PUSH1 0x8 SLOAD PUSH1 0x1 PUSH1 0xA0 SHL SWAP1 DIV PUSH1 0x1 PUSH1 0x1 PUSH1 0x60 SHL SUB AND TIMESTAMP PUSH1 0x1 PUSH1 0x1 PUSH1 0x60 SHL SUB AND LT JUMPDEST PUSH2 0x1782 JUMPI PUSH1 0x40 MLOAD PUSH3 0x461BCD PUSH1 0xE5 SHL DUP2 MSTORE PUSH1 0x20 PUSH1 0x4 DUP3 ADD MSTORE PUSH1 0x1F PUSH1 0x24 DUP3 ADD MSTORE PUSH32 0x50726F66697453686172653A506F6F6C206973206E6F74206163746976652100 PUSH1 0x44 DUP3 ADD MSTORE PUSH1 0x64 ADD PUSH2 0x900 JUMP JUMPDEST PUSH1 0x1 PUSH1 0x1 PUSH1 0x60 SHL SUB DUP4 AND PUSH0 SWAP1 DUP2 MSTORE PUSH1 0x4 PUSH1 0x20 MSTORE PUSH1 0x40 DUP2 KECCAK256 SLOAD PUSH4 0xFFFFFFFF AND SWAP1 PUSH2 0x3E8 PUSH2 0x17AE DUP4 DUP7 PUSH2 0x1E01 JUMP JUMPDEST PUSH2 0x17B8 SWAP2 SWAP1 PUSH2 0x1E18 JUMP JUMPDEST SWAP1 POP PUSH0 DUP2 GT PUSH2 0x182F JUMPI PUSH1 0x40 MLOAD PUSH3 0x461BCD PUSH1 0xE5 SHL DUP2 MSTORE PUSH1 0x20 PUSH1 0x4 DUP3 ADD MSTORE PUSH1 0x39 PUSH1 0x24 DUP3 ADD MSTORE PUSH32 0x50726F66697453686172653A616D6F756E7420616E64206D756C7469706C6965 PUSH1 0x44 DUP3 ADD MSTORE PUSH32 0x72206D7573742062652067726561746572207468616E20302100000000000000 PUSH1 0x64 DUP3 ADD MSTORE PUSH1 0x84 ADD PUSH2 0x900 JUMP JUMPDEST PUSH2 0x183A DUP7 DUP3 PUSH0 PUSH2 0x10F5 JUMP JUMPDEST CALLER PUSH0 SWAP1 DUP2 MSTORE PUSH1 0x6 PUSH1 0x20 SWAP1 DUP2 MSTORE PUSH1 0x40 DUP1 DUP4 KECCAK256 DUP7 DUP5 MSTORE SWAP1 SWAP2 MSTORE DUP2 KECCAK256 DUP1 SLOAD SWAP1 SWAP2 DUP7 SWAP2 DUP4 SWAP2 SWAP1 PUSH2 0x1867 SWAP1 DUP5 SWAP1 PUSH2 0x1E37 JUMP JUMPDEST SWAP1 SWAP2 SSTORE POP PUSH2 0x1877 SWAP1 POP DUP7 TIMESTAMP PUSH2 0x1E5D JUMP JUMPDEST PUSH1 0x1 DUP3 ADD DUP1 SLOAD PUSH1 0x1 PUSH1 0x1 PUSH1 0x60 SHL SUB SWAP3 DUP4 AND PUSH16 0xFFFFFFFFFFFFFFFFFFFFFFFFFFFFFFFF NOT SWAP1 SWAP2 AND OR PUSH1 0x1 PUSH1 0x60 SHL PUSH4 0xFFFFFFFF DUP8 AND MUL OR SWAP1 DUP2 SWAP1 SSTORE DUP3 SLOAD PUSH1 0x40 DUP1 MLOAD DUP9 DUP2 MSTORE PUSH1 0x20 DUP2 ADD SWAP3 SWAP1 SWAP3 MSTORE PUSH0 SWAP1 DUP3 ADD MSTORE SWAP1 DUP3 AND PUSH1 0x60 DUP3 ADD MSTORE SWAP1 DUP8 AND PUSH1 0x80 DUP3 ADD MSTORE PUSH1 0x1 PUSH1 0x1 PUSH1 0xA0 SHL SUB DUP9 AND SWAP1 PUSH32 0xFB323914BFE99940926CD03FE7969535604DD9A3C82B28853E738744DD6F9AAA SWAP1 PUSH1 0xA0 ADD PUSH1 0x40 MLOAD DUP1 SWAP2 SUB SWAP1 LOG2 POP POP POP POP POP POP POP JUMP JUMPDEST PUSH1 0x40 MLOAD PUSH1 0x1 PUSH1 0x1 PUSH1 0xA0 SHL SUB DUP4 DUP2 AND PUSH1 0x24 DUP4 ADD MSTORE PUSH1 0x44 DUP3 ADD DUP4 SWAP1 MSTORE PUSH2 0xA44 SWAP2 DUP6 SWAP2 DUP3 AND SWAP1 PUSH4 0xA9059CBB SWAP1 PUSH1 0x64 ADD PUSH2 0x157F JUMP JUMPDEST GT SWAP1 JUMP JUMPDEST PUSH1 0x60 PUSH2 0x1032 PUSH1 0x20 DUP5 ADD PUSH2 0x195E DUP6 PUSH2 0x1A2A JUMP JUMPDEST DUP5 PUSH2 0x1A41 JUMP JUMPDEST PUSH0 PUSH2 0x1972 PUSH1 0x2 DUP5 DUP5 XOR PUSH2 0x1E18 JUMP JUMPDEST PUSH2 0x1044 SWAP1 DUP5 DUP5 AND PUSH2 0x1E37 JUMP JUMPDEST PUSH0 DUP3 PUSH2 0x199D PUSH2 0x199A DUP5 PUSH2 0x1996 DUP5 PUSH0 SWAP1 DUP2 MSTORE PUSH1 0x20 SWAP1 KECCAK256 SWAP1 JUMP JUMPDEST ADD SWAP1 JUMP JUMPDEST SWAP1 JUMP JUMPDEST SWAP5 SWAP4 POP POP POP POP JUMP JUMPDEST PUSH0 PUSH0 PUSH1 0x20 PUSH0 DUP5 MLOAD PUSH1 0x20 DUP7 ADD PUSH0 DUP9 GAS CALL DUP1 PUSH2 0x19C4 JUMPI PUSH1 0x40 MLOAD RETURNDATASIZE PUSH0 DUP3 RETURNDATACOPY RETURNDATASIZE DUP2 REVERT JUMPDEST POP POP PUSH0 MLOAD RETURNDATASIZE SWAP2 POP DUP2 ISZERO PUSH2 0x19DB JUMPI DUP1 PUSH1 0x1 EQ ISZERO PUSH2 0x19E8 JUMP JUMPDEST PUSH1 0x1 PUSH1 0x1 PUSH1 0xA0 SHL SUB DUP5 AND EXTCODESIZE ISZERO JUMPDEST ISZERO PUSH2 0x133E JUMPI PUSH1 0x40 MLOAD PUSH32 0x5274AFE700000000000000000000000000000000000000000000000000000000 DUP2 MSTORE PUSH1 0x1 PUSH1 0x1 PUSH1 0xA0 SHL SUB DUP6 AND PUSH1 0x4 DUP3 ADD MSTORE PUSH1 0x24 ADD PUSH2 0x900 JUMP JUMPDEST PUSH0 DUP2 MLOAD PUSH1 0x20 MUL PUSH2 0x1A3A DUP4 PUSH1 0x20 ADD SWAP1 JUMP JUMPDEST ADD SWAP3 SWAP2 POP POP JUMP JUMPDEST PUSH1 0x40 DUP4 DUP4 SUB LT ISZERO PUSH2 0x1A51 JUMPI POP POP POP JUMP JUMPDEST PUSH0 PUSH2 0x1A5A DUP5 MLOAD SWAP1 JUMP JUMPDEST SWAP1 POP DUP4 PUSH1 0x20 DUP2 ADD JUMPDEST DUP5 DUP2 LT ISZERO PUSH2 0x1A9C JUMPI PUSH2 0x1A7F PUSH2 0x1A75 DUP3 MLOAD SWAP1 JUMP JUMPDEST DUP5 DUP7 PUSH4 0xFFFFFFFF AND JUMP JUMPDEST ISZERO PUSH2 0x1A94 JUMPI PUSH1 0x20 SWAP2 SWAP1 SWAP2 ADD DUP1 MLOAD DUP3 MLOAD DUP3 MSTORE DUP3 MSTORE SWAP1 JUMPDEST PUSH1 0x20 ADD PUSH2 0x1A62 JUMP JUMPDEST POP DUP5 MLOAD DUP2 MLOAD DUP7 MSTORE DUP2 MSTORE PUSH2 0x1AB0 DUP6 DUP3 DUP6 PUSH2 0x1A41 JUMP JUMPDEST PUSH2 0x1ABE DUP2 PUSH1 0x20 ADD DUP6 DUP6 PUSH2 0x1A41 JUMP JUMPDEST POP POP POP POP POP JUMP JUMPDEST DUP3 DUP1 SLOAD DUP3 DUP3 SSTORE SWAP1 PUSH0 MSTORE PUSH1 0x20 PUSH0 KECCAK256 SWAP1 DUP2 ADD SWAP3 DUP3 ISZERO PUSH2 0x1AFE JUMPI SWAP2 PUSH1 0x20 MUL DUP3 ADD JUMPDEST DUP3 DUP2 GT ISZERO PUSH2 0x1AFE JUMPI DUP3 MLOAD DUP3 SSTORE SWAP2 PUSH1 0x20 ADD SWAP2 SWAP1 PUSH1 0x1 ADD SWAP1 PUSH2 0x1AE3 JUMP JUMPDEST POP PUSH2 0x1B0A SWAP3 SWAP2 POP PUSH2 0x1B0E JUMP JUMPDEST POP SWAP1 JUMP JUMPDEST JUMPDEST DUP1 DUP3 GT ISZERO PUSH2 0x1B0A JUMPI PUSH0 DUP2 SSTORE PUSH1 0x1 ADD PUSH2 0x1B0F JUMP JUMPDEST PUSH0 PUSH0 DUP4 PUSH1 0x1F DUP5 ADD SLT PUSH2 0x1B32 JUMPI PUSH0 PUSH0 REVERT JUMPDEST POP DUP2 CALLDATALOAD PUSH8 0xFFFFFFFFFFFFFFFF DUP2 GT ISZERO PUSH2 0x1B49 JUMPI PUSH0 PUSH0 REVERT JUMPDEST PUSH1 0x20 DUP4 ADD SWAP2 POP DUP4 PUSH1 0x20 DUP3 PUSH1 0x5 SHL DUP6 ADD ADD GT ISZERO PUSH2 0x1B63 JUMPI PUSH0 PUSH0 REVERT JUMPDEST SWAP3 POP SWAP3 SWAP1 POP JUMP JUMPDEST PUSH0 PUSH0 PUSH0 PUSH0 PUSH1 0x40 DUP6 DUP8 SUB SLT ISZERO PUSH2 0x1B7D JUMPI PUSH0 PUSH0 REVERT JUMPDEST DUP5 CALLDATALOAD PUSH8 0xFFFFFFFFFFFFFFFF DUP2 GT ISZERO PUSH2 0x1B93 JUMPI PUSH0 PUSH0 REVERT JUMPDEST PUSH2 0x1B9F DUP8 DUP3 DUP9 ADD PUSH2 0x1B22 JUMP JUMPDEST SWAP1 SWAP6 POP SWAP4 POP POP PUSH1 0x20 DUP6 ADD CALLDATALOAD PUSH8 0xFFFFFFFFFFFFFFFF DUP2 GT ISZERO PUSH2 0x1BBE JUMPI PUSH0 PUSH0 REVERT JUMPDEST PUSH2 0x1BCA DUP8 DUP3 DUP9 ADD PUSH2 0x1B22 JUMP JUMPDEST SWAP6 SWAP9 SWAP5 SWAP8 POP SWAP6 POP POP POP POP JUMP JUMPDEST DUP1 CALLDATALOAD PUSH1 0x1 PUSH1 0x1 PUSH1 0xA0 SHL SUB DUP2 AND DUP2 EQ PUSH2 0x1BEC JUMPI PUSH0 PUSH0 REVERT JUMPDEST SWAP2 SWAP1 POP JUMP JUMPDEST PUSH0 PUSH1 0x20 DUP3 DUP5 SUB SLT ISZERO PUSH2 0x1C01 JUMPI PUSH0 PUSH0 REVERT JUMPDEST PUSH2 0x1044 DUP3 PUSH2 0x1BD6 JUMP JUMPDEST DUP1 CALLDATALOAD PUSH1 0x1 PUSH1 0x1 PUSH1 0x60 SHL SUB DUP2 AND DUP2 EQ PUSH2 0x1BEC JUMPI PUSH0 PUSH0 REVERT JUMPDEST PUSH0 PUSH0 PUSH0 PUSH1 0x60 DUP5 DUP7 SUB SLT ISZERO PUSH2 0x1C32 JUMPI PUSH0 PUSH0 REVERT JUMPDEST PUSH2 0x1C3B DUP5 PUSH2 0x1C0A JUMP JUMPDEST SWAP6 PUSH1 0x20 DUP6 ADD CALLDATALOAD SWAP6 POP PUSH1 0x40 SWAP1 SWAP5 ADD CALLDATALOAD SWAP4 SWAP3 POP POP POP JUMP JUMPDEST PUSH0 PUSH1 0x20 DUP3 DUP5 SUB SLT ISZERO PUSH2 0x1C60 JUMPI PUSH0 PUSH0 REVERT JUMPDEST PUSH2 0x1044 DUP3 PUSH2 0x1C0A JUMP JUMPDEST PUSH0 PUSH0 PUSH0 PUSH1 0x60 DUP5 DUP7 SUB SLT ISZERO PUSH2 0x1C7B JUMPI PUSH0 PUSH0 REVERT JUMPDEST DUP4 CALLDATALOAD SWAP3 POP PUSH2 0x1C8B PUSH1 0x20 DUP6 ADD PUSH2 0x1C0A JUMP JUMPDEST SWAP3 SWAP6 SWAP3 SWAP5 POP POP POP PUSH1 0x40 SWAP2 SWAP1 SWAP2 ADD CALLDATALOAD SWAP1 JUMP JUMPDEST PUSH0 PUSH0 PUSH1 0x40 DUP4 DUP6 SUB SLT ISZERO PUSH2 0x1CAD JUMPI PUSH0 PUSH0 REVERT JUMPDEST DUP3 CALLDATALOAD SWAP2 POP PUSH1 0x20 DUP4 ADD CALLDATALOAD DUP1 ISZERO ISZERO DUP2 EQ PUSH2 0x1CC3 JUMPI PUSH0 PUSH0 REVERT JUMPDEST DUP1 SWAP2 POP POP SWAP3 POP SWAP3 SWAP1 POP JUMP JUMPDEST PUSH0 PUSH1 0x20 DUP3 DUP5 SUB SLT ISZERO PUSH2 0x1CDE JUMPI PUSH0 PUSH0 REVERT JUMPDEST POP CALLDATALOAD SWAP2 SWAP1 POP JUMP JUMPDEST PUSH0 PUSH0 PUSH1 0x40 DUP4 DUP6 SUB SLT ISZERO PUSH2 0x1CF6 JUMPI PUSH0 PUSH0 REVERT JUMPDEST PUSH2 0x1CFF DUP4 PUSH2 0x1C0A JUMP JUMPDEST SWAP2 POP PUSH1 0x20 DUP4 ADD CALLDATALOAD PUSH4 0xFFFFFFFF DUP2 AND DUP2 EQ PUSH2 0x1CC3 JUMPI PUSH0 PUSH0 REVERT JUMPDEST PUSH0 PUSH0 PUSH1 0x40 DUP4 DUP6 SUB SLT ISZERO PUSH2 0x1D28 JUMPI PUSH0 PUSH0 REVERT JUMPDEST PUSH2 0x1D31 DUP4 PUSH2 0x1BD6 JUMP JUMPDEST SWAP5 PUSH1 0x20 SWAP4 SWAP1 SWAP4 ADD CALLDATALOAD SWAP4 POP POP POP JUMP JUMPDEST PUSH0 PUSH0 PUSH1 0x40 DUP4 DUP6 SUB SLT ISZERO PUSH2 0x1D50 JUMPI PUSH0 PUSH0 REVERT JUMPDEST PUSH2 0x1D31 DUP4 PUSH2 0x1C0A JUMP JUMPDEST PUSH4 0x4E487B71 PUSH1 0xE0 SHL PUSH0 MSTORE PUSH1 0x32 PUSH1 0x4 MSTORE PUSH1 0x24 PUSH0 REVERT JUMPDEST PUSH0 DUP2 SLOAD DUP1 DUP5 MSTORE PUSH1 0x20 DUP5 ADD SWAP4 POP DUP3 PUSH0 MSTORE PUSH1 0x20 PUSH0 KECCAK256 PUSH0 JUMPDEST DUP3 DUP2 LT ISZERO PUSH2 0x1DA0 JUMPI DUP2 SLOAD DUP7 MSTORE PUSH1 0x20 SWAP1 SWAP6 ADD SWAP5 PUSH1 0x1 SWAP2 DUP3 ADD SWAP2 ADD PUSH2 0x1D82 JUMP JUMPDEST POP SWAP4 SWAP5 SWAP4 POP POP POP POP JUMP JUMPDEST PUSH1 0x40 DUP2 MSTORE PUSH0 PUSH2 0x1DBC PUSH1 0x40 DUP4 ADD DUP6 PUSH2 0x1D6D JUMP JUMPDEST DUP3 DUP2 SUB PUSH1 0x20 DUP5 ADD MSTORE PUSH2 0x66F DUP2 DUP6 PUSH2 0x1D6D JUMP JUMPDEST PUSH4 0x4E487B71 PUSH1 0xE0 SHL PUSH0 MSTORE PUSH1 0x11 PUSH1 0x4 MSTORE PUSH1 0x24 PUSH0 REVERT JUMPDEST PUSH1 0x1 PUSH1 0x1 PUSH1 0x60 SHL SUB DUP3 DUP2 AND DUP3 DUP3 AND SUB SWAP1 DUP2 GT ISZERO PUSH2 0x1047 JUMPI PUSH2 0x1047 PUSH2 0x1DCE JUMP JUMPDEST DUP1 DUP3 MUL DUP2 ISZERO DUP3 DUP3 DIV DUP5 EQ OR PUSH2 0x1047 JUMPI PUSH2 0x1047 PUSH2 0x1DCE JUMP JUMPDEST PUSH0 DUP3 PUSH2 0x1E32 JUMPI PUSH4 0x4E487B71 PUSH1 0xE0 SHL PUSH0 MSTORE PUSH1 0x12 PUSH1 0x4 MSTORE PUSH1 0x24 PUSH0 REVERT JUMPDEST POP DIV SWAP1 JUMP JUMPDEST DUP1 DUP3 ADD DUP1 DUP3 GT ISZERO PUSH2 0x1047 JUMPI PUSH2 0x1047 PUSH2 0x1DCE JUMP JUMPDEST DUP2 DUP2 SUB DUP2 DUP2 GT ISZERO PUSH2 0x1047 JUMPI PUSH2 0x1047 PUSH2 0x1DCE JUMP JUMPDEST PUSH1 0x1 PUSH1 0x1 PUSH1 0x60 SHL SUB DUP2 DUP2 AND DUP4 DUP3 AND ADD SWAP1 DUP2 GT ISZERO PUSH2 0x1047 JUMPI PUSH2 0x1047 PUSH2 0x1DCE JUMP JUMPDEST PUSH0 PUSH1 0x1 DUP3 ADD PUSH2 0x1E8D JUMPI PUSH2 0x1E8D PUSH2 0x1DCE JUMP JUMPDEST POP PUSH1 0x1 ADD SWAP1 JUMP INVALID LOG2 PUSH5 0x6970667358 0x22 SLT KECCAK256 0xCD MOD EXTCODESIZE REVERT PUSH12 0xA25453E81CB803673C034C5E DUP11 SIGNEXTEND TSTORE 0xC8 SMOD PUSH4 0xC0B101DD SWAP2 JUMPF 0xC068 0xD2 PUSH5 0x736F6C6343 STOP ADDMOD 0x1E STOP CALLER 0xD REVERT 0xE2 DUP12 LOG1 0xCF 0xAE SWAP9 0xDB PUSH5 0x2E32463558 POP 0xB3 PUSH20 0x32D75F04945DA4676E38AD045386000000000000 "
		},
		"gasEstimates": {
			"creation": {
				"codeDepositCost": "1576400",
				"executionCost": "infinite",
				"totalCost": "infinite"
			},
			"external": {
				"CLAIM_PERIOD()": "283",
				"SCALE_FACTOR()": "228",
				"addRewards(uint256)": "infinite",
				"claimRewards()": "infinite",
				"duration_multiplier(uint96)": "2602",
				"extendRewards(uint96,uint256,uint256)": "infinite",
				"getStake(address,uint256)": "7316",
				"getUserInfo(address)": "infinite",
				"getUserRewards(address)": "infinite",
				"multiplier_BASE()": "269",
				"owner()": "2345",
				"pool()": "13171",
				"renounceOwnership()": "infinite",
				"restake(uint256,uint96,uint256)": "infinite",
				"setDurationMultiplier(uint96,uint32)": "28362",
				"setXTierMultipliers(uint256[],uint256[])": "infinite",
				"stake(uint96,uint256)": "infinite",
				"transferOwnership(address)": "28406",
				"unstake(uint256,bool)": "infinite",
				"unstakePerpetual(uint256,bool)": "infinite",
				"withdrawRewards(address,uint256)": "infinite"
			},
			"internal": {
				"_addRewards(uint256)": "infinite",
				"_claim(address)": "infinite",
				"_stake(address,uint96,uint256,uint256)": "infinite",
				"_unstake(address,uint256,uint256)": "infinite",
				"effective_xpoints(uint256)": "infinite",
				"time_now()": "infinite",
				"update_pool_and_user(address,uint256,uint256)": "infinite"
			}
		},
		"methodIdentifiers": {
			"CLAIM_PERIOD()": "21241dfe",
			"SCALE_FACTOR()": "ce4b5bbe",
			"addRewards(uint256)": "beceed39",
			"claimRewards()": "372500ab",
			"duration_multiplier(uint96)": "8af6e880",
			"extendRewards(uint96,uint256,uint256)": "7135cd6a",
			"getStake(address,uint256)": "cfd47663",
			"getUserInfo(address)": "6386c1c7",
			"getUserRewards(address)": "078b0fb7",
			"multiplier_BASE()": "da540bbf",
			"owner()": "8da5cb5b",
			"pool()": "16f0115b",
			"renounceOwnership()": "715018a6",
			"restake(uint256,uint96,uint256)": "8c793330",
			"setDurationMultiplier(uint96,uint32)": "c96d6635",
			"setXTierMultipliers(uint256[],uint256[])": "0072c744",
			"stake(uint96,uint256)": "d93c04a0",
			"transferOwnership(address)": "f2fde38b",
			"unstake(uint256,bool)": "9ebea88c",
			"unstakePerpetual(uint256,bool)": "ccc54f2e",
			"withdrawRewards(address,uint256)": "d6ef7af0"
		}
	},
	"abi": [
		{
			"inputs": [
				{
					"internalType": "uint96",
					"name": "start_epoch",
					"type": "uint96"
				},
				{
					"internalType": "uint96",
					"name": "end_epoch",
					"type": "uint96"
				},
				{
					"internalType": "uint256",
					"name": "reward_amount",
					"type": "uint256"
				},
				{
					"internalType": "address",
					"name": "_xCREDI_addr",
					"type": "address"
				},
				{
					"internalType": "address",
					"name": "_rewards_token",
					"type": "address"
				}
			],
			"stateMutability": "nonpayable",
			"type": "constructor"
		},
		{
			"inputs": [
				{
					"internalType": "address",
					"name": "owner",
					"type": "address"
				}
			],
			"name": "OwnableInvalidOwner",
			"type": "error"
		},
		{
			"inputs": [
				{
					"internalType": "address",
					"name": "account",
					"type": "address"
				}
			],
			"name": "OwnableUnauthorizedAccount",
			"type": "error"
		},
		{
			"inputs": [],
			"name": "ReentrancyGuardReentrantCall",
			"type": "error"
		},
		{
			"inputs": [
				{
					"internalType": "address",
					"name": "token",
					"type": "address"
				}
			],
			"name": "SafeERC20FailedOperation",
			"type": "error"
		},
		{
			"anonymous": false,
			"inputs": [
				{
					"indexed": true,
					"internalType": "address",
					"name": "previousOwner",
					"type": "address"
				},
				{
					"indexed": true,
					"internalType": "address",
					"name": "newOwner",
					"type": "address"
				}
			],
			"name": "OwnershipTransferred",
			"type": "event"
		},
		{
			"anonymous": false,
			"inputs": [
				{
					"indexed": false,
					"internalType": "address",
					"name": "staking_token",
					"type": "address"
				},
				{
					"indexed": false,
					"internalType": "address",
					"name": "rewards_token",
					"type": "address"
				},
				{
					"indexed": false,
					"internalType": "uint96",
					"name": "start_epoch",
					"type": "uint96"
				},
				{
					"indexed": false,
					"internalType": "uint256",
					"name": "scale_factor",
					"type": "uint256"
				}
			],
			"name": "PoolCreated",
			"type": "event"
		},
		{
			"anonymous": false,
			"inputs": [
				{
					"indexed": false,
					"internalType": "uint256",
					"name": "effective_xpoints",
					"type": "uint256"
				},
				{
					"indexed": false,
					"internalType": "uint256",
					"name": "reward_rate",
					"type": "uint256"
				},
				{
					"indexed": false,
					"internalType": "uint256",
					"name": "reward_rate_cumsum",
					"type": "uint256"
				},
				{
					"indexed": false,
					"internalType": "uint96",
					"name": "last_update_epoch",
					"type": "uint96"
				},
				{
					"indexed": false,
					"internalType": "uint96",
					"name": "end_epoch",
					"type": "uint96"
				}
			],
			"name": "PoolUpdated",
			"type": "event"
		},
		{
			"anonymous": false,
			"inputs": [
				{
					"indexed": false,
					"internalType": "uint256",
					"name": "amount",
					"type": "uint256"
				}
			],
			"name": "RewardAdded",
			"type": "event"
		},
		{
			"anonymous": false,
			"inputs": [
				{
					"indexed": true,
					"internalType": "address",
					"name": "user",
					"type": "address"
				},
				{
					"indexed": false,
					"internalType": "uint256",
					"name": "amount",
					"type": "uint256"
				}
			],
			"name": "RewardPaid",
			"type": "event"
		},
		{
			"anonymous": false,
			"inputs": [
				{
					"indexed": true,
					"internalType": "address",
					"name": "to",
					"type": "address"
				},
				{
					"indexed": false,
					"internalType": "uint256",
					"name": "amount",
					"type": "uint256"
				}
			],
			"name": "RewardWithdrawn",
			"type": "event"
		},
		{
			"anonymous": false,
			"inputs": [
				{
					"indexed": false,
					"internalType": "uint96",
					"name": "duration",
					"type": "uint96"
				},
				{
					"indexed": false,
					"internalType": "uint32",
					"name": "multiplier",
					"type": "uint32"
				}
			],
			"name": "SetDurationMultiplier",
			"type": "event"
		},
		{
			"anonymous": false,
			"inputs": [
				{
					"indexed": false,
					"internalType": "uint256[]",
					"name": "thresholds",
					"type": "uint256[]"
				},
				{
					"indexed": false,
					"internalType": "uint256[]",
					"name": "multipliers",
					"type": "uint256[]"
				}
			],
			"name": "SetXTierMultipliers",
			"type": "event"
		},
		{
			"anonymous": false,
			"inputs": [
				{
					"indexed": false,
					"internalType": "uint256",
					"name": "stake_id",
					"type": "uint256"
				},
				{
					"indexed": true,
					"internalType": "address",
					"name": "user",
					"type": "address"
				},
				{
					"indexed": false,
					"internalType": "uint256",
					"name": "stake_amount",
					"type": "uint256"
				},
				{
					"indexed": false,
					"internalType": "uint256",
					"name": "modulex_stake_id",
					"type": "uint256"
				},
				{
					"indexed": false,
					"internalType": "uint96",
					"name": "maturity",
					"type": "uint96"
				},
				{
					"indexed": false,
					"internalType": "uint96",
					"name": "lock_period",
					"type": "uint96"
				}
			],
			"name": "StakeUpdated",
			"type": "event"
		},
		{
			"anonymous": false,
			"inputs": [
				{
					"indexed": false,
					"internalType": "uint256",
					"name": "stake_id",
					"type": "uint256"
				},
				{
					"indexed": true,
					"internalType": "address",
					"name": "user",
					"type": "address"
				},
				{
					"indexed": false,
					"internalType": "uint256",
					"name": "amount",
					"type": "uint256"
				}
			],
			"name": "StakeWithdrawn",
			"type": "event"
		},
		{
			"anonymous": false,
			"inputs": [
				{
					"indexed": true,
					"internalType": "address",
					"name": "owner",
					"type": "address"
				},
				{
					"indexed": false,
					"internalType": "uint256",
					"name": "xpoints",
					"type": "uint256"
				},
				{
					"indexed": false,
					"internalType": "uint256",
					"name": "reward_amount",
					"type": "uint256"
				},
				{
					"indexed": false,
					"internalType": "uint256",
					"name": "reward_rate_cumsum",
					"type": "uint256"
				}
			],
			"name": "UserUpdated",
			"type": "event"
		},
		{
			"inputs": [],
			"name": "CLAIM_PERIOD",
			"outputs": [
				{
					"internalType": "uint96",
					"name": "",
					"type": "uint96"
				}
			],
			"stateMutability": "view",
			"type": "function"
		},
		{
			"inputs": [],
			"name": "SCALE_FACTOR",
			"outputs": [
				{
					"internalType": "uint256",
					"name": "",
					"type": "uint256"
				}
			],
			"stateMutability": "view",
			"type": "function"
		},
		{
			"inputs": [
				{
					"internalType": "uint256",
					"name": "amount",
					"type": "uint256"
				}
			],
			"name": "addRewards",
			"outputs": [],
			"stateMutability": "nonpayable",
			"type": "function"
		},
		{
			"inputs": [],
			"name": "claimRewards",
			"outputs": [],
			"stateMutability": "nonpayable",
			"type": "function"
		},
		{
			"inputs": [
				{
					"internalType": "uint96",
					"name": "",
					"type": "uint96"
				}
			],
			"name": "duration_multiplier",
			"outputs": [
				{
					"internalType": "uint32",
					"name": "",
					"type": "uint32"
				}
			],
			"stateMutability": "view",
			"type": "function"
		},
		{
			"inputs": [
				{
					"internalType": "uint96",
					"name": "duration",
					"type": "uint96"
				},
				{
					"internalType": "uint256",
					"name": "reward_amount",
					"type": "uint256"
				},
				{
					"internalType": "uint256",
					"name": "transfer_reward_amount",
					"type": "uint256"
				}
			],
			"name": "extendRewards",
			"outputs": [],
			"stateMutability": "nonpayable",
			"type": "function"
		},
		{
			"inputs": [
				{
					"internalType": "address",
					"name": "owner",
					"type": "address"
				},
				{
					"internalType": "uint256",
					"name": "stake_id",
					"type": "uint256"
				}
			],
			"name": "getStake",
			"outputs": [
				{
					"internalType": "uint256",
					"name": "stake_amount",
					"type": "uint256"
				},
				{
					"internalType": "uint256",
					"name": "modulex_stake_id",
					"type": "uint256"
				},
				{
					"internalType": "uint96",
					"name": "maturity",
					"type": "uint96"
				},
				{
					"internalType": "uint256",
					"name": "multiplier",
					"type": "uint256"
				}
			],
			"stateMutability": "view",
			"type": "function"
		},
		{
			"inputs": [
				{
					"internalType": "address",
					"name": "owner",
					"type": "address"
				}
			],
			"name": "getUserInfo",
			"outputs": [
				{
					"internalType": "uint256",
					"name": "xpoints",
					"type": "uint256"
				},
				{
					"internalType": "uint256",
					"name": "xtier",
					"type": "uint256"
				},
				{
					"internalType": "uint256",
					"name": "reward_amount",
					"type": "uint256"
				},
				{
					"internalType": "uint256",
					"name": "reward_rate_cumsum",
					"type": "uint256"
				},
				{
					"internalType": "uint256",
					"name": "stakes_count",
					"type": "uint256"
				}
			],
			"stateMutability": "view",
			"type": "function"
		},
		{
			"inputs": [
				{
					"internalType": "address",
					"name": "owner",
					"type": "address"
				}
			],
			"name": "getUserRewards",
			"outputs": [
				{
					"internalType": "uint256",
					"name": "",
					"type": "uint256"
				}
			],
			"stateMutability": "view",
			"type": "function"
		},
		{
			"inputs": [],
			"name": "multiplier_BASE",
			"outputs": [
				{
					"internalType": "uint32",
					"name": "",
					"type": "uint32"
				}
			],
			"stateMutability": "view",
			"type": "function"
		},
		{
			"inputs": [],
			"name": "owner",
			"outputs": [
				{
					"internalType": "address",
					"name": "",
					"type": "address"
				}
			],
			"stateMutability": "view",
			"type": "function"
		},
		{
			"inputs": [],
			"name": "pool",
			"outputs": [
				{
					"internalType": "contract IERC20",
					"name": "staking_token",
					"type": "address"
				},
				{
					"internalType": "uint96",
					"name": "start_epoch",
					"type": "uint96"
				},
				{
					"internalType": "contract IERC20",
					"name": "rewards_token",
					"type": "address"
				},
				{
					"internalType": "uint96",
					"name": "end_epoch",
					"type": "uint96"
				},
				{
					"internalType": "uint256",
					"name": "effective_xpoints",
					"type": "uint256"
				},
				{
					"internalType": "uint256",
					"name": "reward_rate",
					"type": "uint256"
				},
				{
					"internalType": "uint256",
					"name": "reward_rate_cumsum",
					"type": "uint256"
				},
				{
					"internalType": "uint96",
					"name": "last_update_epoch",
					"type": "uint96"
				}
			],
			"stateMutability": "view",
			"type": "function"
		},
		{
			"inputs": [],
			"name": "renounceOwnership",
			"outputs": [],
			"stateMutability": "nonpayable",
			"type": "function"
		},
		{
			"inputs": [
				{
					"internalType": "uint256",
					"name": "stake_id",
					"type": "uint256"
				},
				{
					"internalType": "uint96",
					"name": "lock_period",
					"type": "uint96"
				},
				{
					"internalType": "uint256",
					"name": "amount",
					"type": "uint256"
				}
			],
			"name": "restake",
			"outputs": [],
			"stateMutability": "nonpayable",
			"type": "function"
		},
		{
			"inputs": [
				{
					"internalType": "uint96",
					"name": "duration",
					"type": "uint96"
				},
				{
					"internalType": "uint32",
					"name": "multiplier",
					"type": "uint32"
				}
			],
			"name": "setDurationMultiplier",
			"outputs": [],
			"stateMutability": "nonpayable",
			"type": "function"
		},
		{
			"inputs": [
				{
					"internalType": "uint256[]",
					"name": "_thresholds",
					"type": "uint256[]"
				},
				{
					"internalType": "uint256[]",
					"name": "_mulitpliers",
					"type": "uint256[]"
				}
			],
			"name": "setXTierMultipliers",
			"outputs": [],
			"stateMutability": "nonpayable",
			"type": "function"
		},
		{
			"inputs": [
				{
					"internalType": "uint96",
					"name": "lock_period",
					"type": "uint96"
				},
				{
					"internalType": "uint256",
					"name": "amount",
					"type": "uint256"
				}
			],
			"name": "stake",
			"outputs": [],
			"stateMutability": "nonpayable",
			"type": "function"
		},
		{
			"inputs": [
				{
					"internalType": "address",
					"name": "newOwner",
					"type": "address"
				}
			],
			"name": "transferOwnership",
			"outputs": [],
			"stateMutability": "nonpayable",
			"type": "function"
		},
		{
			"inputs": [
				{
					"internalType": "uint256",
					"name": "stake_id",
					"type": "uint256"
				},
				{
					"internalType": "bool",
					"name": "claim_rewards",
					"type": "bool"
				}
			],
			"name": "unstake",
			"outputs": [],
			"stateMutability": "nonpayable",
			"type": "function"
		},
		{
			"inputs": [
				{
					"internalType": "uint256",
					"name": "amount",
					"type": "uint256"
				},
				{
					"internalType": "bool",
					"name": "claim_rewards",
					"type": "bool"
				}
			],
			"name": "unstakePerpetual",
			"outputs": [],
			"stateMutability": "nonpayable",
			"type": "function"
		},
		{
			"inputs": [
				{
					"internalType": "address",
					"name": "to",
					"type": "address"
				},
				{
					"internalType": "uint256",
					"name": "amount",
					"type": "uint256"
				}
			],
			"name": "withdrawRewards",
			"outputs": [],
			"stateMutability": "nonpayable",
			"type": "function"
		}
	]
}