{
	"data": {
		"bytecode": {
			"linkReferences": {},
			"object": "6101406040525f60c090815269021e19e0c9bab240000060e05269054b40b1f852bda0000061010052690a968163f0a57b4000006101205261004590600290600461067d565b50604080516080810182526103e881526105dc60208201526107d091810191909152610bb8606082015261007d9060039060046106d1565b50600d80546001600160a01b0319169055348015610099575f5ffd5b50604051612eea380380612eea8339810160408190526100b891610755565b33806100de57604051631e4fbdf760e01b81525f60048201526024015b60405180910390fd5b6100e781610559565b50600180556001600160a01b03821660a081905260408051636a30a4d160e11b8152905163d46149a2916004808201926020929091908290030181865afa158015610134573d5f5f3e3d5ffd5b505050506040513d601f19601f8201168201806040525081019061015891906107af565b6001600160a01b03166080525f805260046020527f17ef568e3e12ab5b9c7254a8d58478811de00f9e6eb34345acd53bf8fd09d3ec805463ffffffff19166103e81790556001600160601b0384166101ad4290565b6001600160601b0316106102295760405162461bcd60e51b815260206004820152603360248201527f50726f66697453686172653a456e642074696d65206d7573742062652067726560448201527f61746572207468616e2074696d655f6e6f77210000000000000000000000000060648201526084016100d5565b6102456001600160601b038616426001600160601b03166105a8565b9450836001600160601b0316856001600160601b0316106102c35760405162461bcd60e51b815260206004820152603260248201527f50726f66697453686172653a53746172742074696d65206d757374206265206c604482015271657373207468616e20656e642074696d652160701b60648201526084016100d5565b5f6102ce86866107dc565b6001600160601b03166102ea85683635c9adc5dea000006107fb565b6102f49190610812565b905060405180610100016040528060a0516001600160a01b0316637c2fdeb56040518163ffffffff1660e01b8152600401602060405180830381865afa158015610340573d5f5f3e3d5ffd5b505050506040513d601f19601f8201168201806040525081019061036491906107af565b6001600160a01b0390811682526001600160601b0389811660208085018290528784166040808701919091528b84166060808801919091525f608080890182905260a0808a018c905260c0808b019390935260e0998a019690965289518a860151908916600160a01b918916820281811760078190558d8801518e880151908d16908c1685028181176008558f8701516009559a8f0151600a55958e0151600b559c909b0151600c80546001600160601b031916918b1691909117905585519a8a16178a529590971617928701929092529190950490911690830152683635c9adc5dea00000928201929092527fdc04d80ebe596008505211bb5ef7b7b76945b378723c7fbc1dd952cd919394bb910160405180910390a1600954600a54600b54600c54600854604080519586526020860194909452848401929092526001600160601b039081166060850152600160a01b909104166080830152517fe111f67a87ace56a1496291914b8e0da23748ffddaa8bc98d0f4d4dfb51796a59181900360a00190a1604080515f81526103e860208201525f516020612eca5f395f51905f52910160405180910390a161052062278d006107d06105bc565b61052f6276a700610bb86105bc565b61053e62ed4e00610fa06105bc565b61054e6301da9c006117706105bc565b505050505050610831565b5f80546001600160a01b038381166001600160a01b0319831681178455604051919092169283917f8be0079c531659141344cd1fd0a4f28419497f9722a3daafe3b4186f6b6457e09190a35050565b5f8282188284110282185b90505b92915050565b6105c461064f565b5f826001600160601b03161180156105f1575063ffffffff81166103e810806105f1575063ffffffff8116155b6105f9575f5ffd5b6001600160601b0382165f81815260046020908152604091829020805463ffffffff191663ffffffff86169081179091558251938452908301525f516020612eca5f395f51905f52910160405180910390a15050565b5f546001600160a01b0316331461067b5760405163118cdaa760e01b81523360048201526024016100d5565b565b828054828255905f5260205f209081019282156106c1579160200282015b828111156106c157825182906001600160501b031690559160200191906001019061069b565b506106cd929150610710565b5090565b828054828255905f5260205f209081019282156106c1579160200282015b828111156106c1578251829061ffff169055916020019190600101906106ef565b5b808211156106cd575f8155600101610711565b80516001600160601b038116811461073a575f5ffd5b919050565b80516001600160a01b038116811461073a575f5ffd5b5f5f5f5f5f60a08688031215610769575f5ffd5b61077286610724565b945061078060208701610724565b9350604086015192506107956060870161073f565b91506107a36080870161073f565b90509295509295909350565b5f602082840312156107bf575f5ffd5b6105b38261073f565b634e487b7160e01b5f52601160045260245ffd5b6001600160601b0382811682821603908111156105b6576105b66107c8565b80820281158282048414176105b6576105b66107c8565b5f8261082c57634e487b7160e01b5f52601260045260245ffd5b500490565b60805160a0516126556108755f395f81816103be01528181610b8601528181610c6a015261138b01525f81816102e101528181610b3f0152610bb501526126555ff3fe608060405234801561000f575f5ffd5b50600436106101a4575f3560e01c8063b1da1b2d116100e8578063cfd4766311610093578063da540bbf1161006e578063da540bbf146104a4578063e190febc146104ad578063f2fde38b146104c0578063fe89a82d146104d3575f5ffd5b8063cfd476631461043c578063d6ef7af01461047e578063d93c04a014610491575f5ffd5b8063c105635b116100c3578063c105635b14610406578063c96d663514610419578063ce4b5bbe1461042c575f5ffd5b8063b1da1b2d146103b9578063be28b8b3146103e0578063beceed39146103f3575f5ffd5b80637135cd6a116101535780638c7933301161012e5780638c793330146103705780638da5cb5b1461038357806398d183fc1461039357806399c1e891146103a6575f5ffd5b80637135cd6a1461031b578063715018a61461032e5780638af6e88014610336575f5ffd5b806321241dfe1161018357806321241dfe1461027f5780636386c1c7146102a15780636db08f25146102dc575f5ffd5b806272c744146101a8578063078b0fb7146101bd57806316f0115b146101e3575b5f5ffd5b6101bb6101b63660046121ad565b6104e6565b005b6101d06101cb366004612234565b61063a565b6040519081526020015b60405180910390f35b600754600854600954600a54600b54600c5461022a956001600160a01b03808216966001600160601b03600160a01b93849004811697928216969390910481169491931688565b604080516001600160a01b03998a1681526001600160601b03988916602082015298909616958801959095529285166060870152608086019190915260a085015260c08401521660e0820152610100016101da565b6102896234bc0081565b6040516001600160601b0390911681526020016101da565b6102b46102af366004612234565b61074f565b604080519586526020860194909452928401919091526060830152608082015260a0016101da565b6103037f000000000000000000000000000000000000000000000000000000000000000081565b6040516001600160a01b0390911681526020016101da565b6101bb610329366004612263565b61079c565b6101bb61092e565b61035b610344366004612293565b60046020525f908152604090205463ffffffff1681565b60405163ffffffff90911681526020016101da565b6101bb61037e3660046122ac565b610941565b5f546001600160a01b0316610303565b6101bb6103a1366004612234565b610afb565b6101bb6103b43660046122df565b610b32565b6103037f000000000000000000000000000000000000000000000000000000000000000081565b600d54610303906001600160a01b031681565b6101bb610401366004612307565b610dc5565b6101bb610414366004612369565b610dd1565b6101bb6104273660046123b5565b610e6b565b6101d0683635c9adc5dea0000081565b61044f61044a3660046123f2565b610f11565b6040516101da949392919093845260208401929092526001600160601b03166040830152606082015260800190565b6101bb61048c3660046123f2565b610fe7565b6101bb61049f3660046122df565b6110fb565b61035b6103e881565b6101bb6104bb36600461240c565b61116e565b6101bb6104ce366004612234565b611193565b6101bb6104e1366004612369565b6111e6565b6104ee6114b7565b82811480156104fc57508015155b610504575f5ffd5b61053f8484808060200260200160405190810160405280939291908181526020018383602002808284375f920191909152506114fc92505050565b805161055391600291602090910190612108565b5061058f8282808060200260200160405190810160405280939291908181526020018383602002808284375f920191909152506114fc92505050565b80516105a391600391602090910190612108565b5060025f815481106105b7576105b761244b565b905f5260205f2001545f1480156105f157506103e863ffffffff1660035f815481106105e5576105e561244b565b905f5260205f20015410155b6105f9575f5ffd5b7f36636bd3caf33bddbd656aadda2fc454e5093f7cec3de1405319ef0ef3aa6ba76002600360405161062c92919061249c565b60405180910390a150505050565b6001600160a01b0381165f908152600560205260408120600c54829061068a906001600160601b0316610685425b6008546001600160601b0391821691600160a01b90910416611511565b611525565b600b5460095491925090158015906106b05750600c546001600160601b03908116908316115b156106fe57600954600a54600c546106d1906001600160601b0316856124d4565b6001600160601b03166106e491906124f3565b6106ee919061250a565b600b546106fb9190612529565b90505b683635c9adc5dea00000836002015482610718919061253c565b845461072390611534565b61072d91906124f3565b610737919061250a565b83600101546107469190612529565b95945050505050565b6001600160a01b0381165f9081526005602052604081208054829182918291829161077b60028261158a565b60018301546002840154600390940154929a91995097509195509350915050565b6107a46114b7565b6107af5f5f5f6115e5565b6008544290600160a01b90046001600160601b03908116908216106107fd576001600160601b0384166107eb84683635c9adc5dea000006124f3565b6107f5919061250a565b600a55610861565b600a546008546001600160601b038087169291610823918591600160a01b9004166124d4565b6001600160601b031661083691906124f3565b61084985683635c9adc5dea000006124f3565b6108539190612529565b61085d919061250a565b600a555b600c80546bffffffffffffffffffffffff19166001600160601b03831617905561088b848261254f565b600880546001600160601b0392909216600160a01b026001600160a01b0390921691909117905581156108c1576108c182611833565b600954600a54600b54600c54600854604080519586526020860194909452928401919091526001600160601b039081166060840152600160a01b9091041660808201527fe111f67a87ace56a1496291914b8e0da23748ffddaa8bc98d0f4d4dfb51796a59060a00161062c565b6109366114b7565b61093f5f6118e6565b565b610949611942565b335f818152600560205260409020600301548490610968906001612529565b81106109bb5760405162461bcd60e51b815260206004820152601d60248201527f50726f66697453686172653a496e76616c6964205374616b652049442100000060448201526064015b60405180910390fd5b82156109d9576109d9336007546001600160a01b0316903086611985565b335f90815260066020908152604080832088845282528083206001600160601b0388168452600490925290912054600282015463ffffffff918216600160601b9091049091161115610a935760405162461bcd60e51b815260206004820152602360248201527f50726f66697453686172653a557365206c6f6e676572206c6f636b5f7065726960448201527f6f6421000000000000000000000000000000000000000000000000000000000060648201526084016109b2565b80545f90610aa19086612529565b9050610aaf33835489611a01565b865f03610add57335f9081526005602052604081206003018054909190610ad59061256e565b918290555096505b610ae93387838a611b2c565b50505050610af660018055565b505050565b610b036114b7565b600d805473ffffffffffffffffffffffffffffffffffffffff19166001600160a01b0392909216919091179055565b610b3a611942565b610b6f7f00000000000000000000000000000000000000000000000000000000000000006001600160a01b0316333084611985565b60405163095ea7b360e01b81526001600160a01b037f000000000000000000000000000000000000000000000000000000000000000081166004830152602482018390527f0000000000000000000000000000000000000000000000000000000000000000169063095ea7b3906044016020604051808303815f875af1158015610bfb573d5f5f3e3d5ffd5b505050506040513d601f19601f82011682018060405250810190610c1f9190612586565b506040517fd93c04a00000000000000000000000000000000000000000000000000000000081526001600160601b0383166004820152602481018290525f9081906001600160a01b037f0000000000000000000000000000000000000000000000000000000000000000169063d93c04a09060440160408051808303815f875af1158015610caf573d5f5f3e3d5ffd5b505050506040513d601f19601f82011682018060405250810190610cd391906125a1565b915091505f846001600160601b03165f14610d1157335f9081526005602052604081206003018054909190610d079061256e565b9182905550610d13565b5f5b90505f8111610d8a5760405162461bcd60e51b815260206004820152602f60248201527f50726f66697453686172653a7374616b655f6964206d7573742062652067726560448201527f61746572207468616e207a65726f21000000000000000000000000000000000060648201526084016109b2565b335f8181526006602090815260408083208584529091529020600101849055610db590868484611b2c565b505050610dc160018055565b5050565b610dce81611833565b50565b610dd9611942565b5f8411610e285760405162461bcd60e51b815260206004820152601160248201527f43616e6e6f7420756e7374616b6520302100000000000000000000000000000060448201526064016109b2565b610e3f336007546001600160a01b03169086611d55565b610e4a33855f611a01565b8215610e5c57610e5c335b8383611d86565b610e6560018055565b50505050565b610e736114b7565b5f826001600160601b0316118015610ea0575063ffffffff81166103e81080610ea0575063ffffffff8116155b610ea8575f5ffd5b6001600160601b0382165f81815260046020908152604091829020805463ffffffff191663ffffffff86169081179091558251938452908301527f0dfde28ba1cfae98db642e3246355850b37332d75f04945da4676e38ad045386910160405180910390a15050565b6001600160a01b0382165f9081526005602052604081206003015481908190819086908690610f41906001612529565b8110610f8f5760405162461bcd60e51b815260206004820152601d60248201527f50726f66697453686172653a496e76616c6964205374616b652049442100000060448201526064016109b2565b505050506001600160a01b03939093165f908152600660209081526040808320948352939052919091208054600182015460029092015490949193506001600160601b0381169250600160601b900463ffffffff1690565b610fef6114b7565b5f81116110545760405162461bcd60e51b815260206004820152602d60248201527f50726f66697453686172653a616d6f756e74206d75737420626520677265617460448201526c6572207468616e207a65726f2160981b60648201526084016109b2565b600854611075906234bc0090600160a01b90046001600160601b031661254f565b6001600160601b0316426001600160601b03161015806110955750600954155b61109d575f5ffd5b6008546110b4906001600160a01b03168383611d55565b816001600160a01b03167f1d3eee4ca001cff39eec6ec7615aacf2f2bd61791273830728ba00ccbd6e1337826040516110ef91815260200190565b60405180910390a25050565b611103611942565b61111b336007546001600160a01b0316903084611985565b5f6001600160601b0383161561115457335f908152600560205260408120600301805490919061114a9061256e565b9182905550611156565b5f5b905061116433848484611b2c565b50610dc160018055565b611176611942565b611181335f5f6115e5565b61118a33610e55565b610dc160018055565b61119b6114b7565b6001600160a01b0381166111dd576040517f1e4fbdf70000000000000000000000000000000000000000000000000000000081525f60048201526024016109b2565b610dce816118e6565b6111ee611942565b335f81815260056020526040902060030154859061120d906001612529565b811061125b5760405162461bcd60e51b815260206004820152601d60248201527f50726f66697453686172653a496e76616c6964205374616b652049442100000060448201526064016109b2565b335f908152600660209081526040808320898452909152902060028101546001600160601b039081164290911610156112fc5760405162461bcd60e51b815260206004820152602e60248201527f50726f66697453686172653a4561726c79205769746864726177616c2069732060448201527f6e6f74207065726d69747465642100000000000000000000000000000000000060648201526084016109b2565b805461134a5760405162461bcd60e51b815260206004820152601c60248201527f50726f66697453686172653a4e6f7468696e6720746f20636c61696d0000000060448201526064016109b2565b6001810154156114755760018101546040517f379607f50000000000000000000000000000000000000000000000000000000081525f916001600160a01b037f0000000000000000000000000000000000000000000000000000000000000000169163379607f5916113c29160040190815260200190565b6020604051808303815f875af11580156113de573d5f5f3e3d5ffd5b505050506040513d601f19601f8201168201806040525081019061140291906125c3565b116114755760405162461bcd60e51b815260206004820152602d60248201527f50726f66697453686172653a43616e6e6f7420636c61696d207843524544492060448201527f66726f6d204d6f64756c6558210000000000000000000000000000000000000060648201526084016109b2565b61148e3382546007546001600160a01b03169190611d55565b61149a33825489611a01565b85156114ab576114ab338686611d86565b505050610e6560018055565b5f546001600160a01b0316331461093f576040517f118cdaa70000000000000000000000000000000000000000000000000000000081523360048201526024016109b2565b606061150a82611f8b611f8f565b5090919050565b5f8282188284100282185b90505b92915050565b5f82821882841102821861151c565b5f5f6003600161154560028661158a565b61154f919061253c565b8154811061155f5761155f61244b565b5f9182526020909120015490506103e861157984836124f3565b611583919061250a565b9392505050565b81545f9081908082036115a1575f9250505061151f565b808210156115dd575f6115b48383611fa7565b9050846115c18783611fc1565b5411156115d0578091506115d7565b8060010192505b506115a1565b509392505050565b600c545f90611600906001600160601b031661068542610668565b600954909150158015906116225750600c546001600160601b03908116908216115b1561167757600954600a54600c54611643906001600160601b0316846124d4565b6001600160601b031661165691906124f3565b611660919061250a565b600b80545f90611671908490612529565b90915550505b600c80546bffffffffffffffffffffffff19166001600160601b0383161790556001600160a01b03841615610e65576001600160a01b0384165f90815260056020526040812080549091906116cb90611534565b82549091501561171d576002820154600b54683635c9adc5dea00000916116f19161253c565b6116fb90836124f3565b611705919061250a565b826001015f8282546117179190612529565b90915550505b600b54600283015581548490611734908790612529565b61173e919061253c565b808355819061174c90611534565b6009546117599190612529565b611763919061253c565b600955815460018301546002840154604080519384526020840192909252908201526001600160a01b038716907ff1da46a1ca3e37613208b2a3d7ec556866482d77a0005d6168d73270ced6b26a9060600160405180910390a2600954600a54600b54600c54600854604080519586526020860194909452848401929092526001600160601b039081166060850152600160a01b909104166080830152517fe111f67a87ace56a1496291914b8e0da23748ffddaa8bc98d0f4d4dfb51796a59181900360a00190a1505050505050565b5f81116118985760405162461bcd60e51b815260206004820152602d60248201527f50726f66697453686172653a616d6f756e74206d75737420626520677265617460448201526c6572207468616e207a65726f2160981b60648201526084016109b2565b6118b0336008546001600160a01b0316903084611985565b6040518181527fde88a922e0d3b88b24e9623efeb464919c6bf9f66857a65e2bfcf2ce87a9433d9060200160405180910390a150565b5f80546001600160a01b0383811673ffffffffffffffffffffffffffffffffffffffff19831681178455604051919092169283917f8be0079c531659141344cd1fd0a4f28419497f9722a3daafe3b4186f6b6457e09190a35050565b60026001540361197e576040517f3ee5aeb500000000000000000000000000000000000000000000000000000000815260040160405180910390fd5b6002600155565b6040516001600160a01b038481166024830152838116604483015260648201839052610e659186918216906323b872dd906084015b604051602081830303815290604052915060e01b6020820180517bffffffffffffffffffffffffffffffffffffffffffffffffffffffff8381831617835250505050611fe8565b6001600160a01b0383165f90815260066020908152604080832084845290915290208054831115611a9a5760405162461bcd60e51b815260206004820152602160248201527f50726f66697453686172653a496e73756666696369656e742062616c616e636560448201527f210000000000000000000000000000000000000000000000000000000000000060648201526084016109b2565b60028101545f906103e890611abc90600160601b900463ffffffff16866124f3565b611ac6919061250a565b9050611ad3855f836115e5565b83825f015f828254611ae5919061253c565b9091555050604080518481526020810186905233917f459d5aef2c549903c1eeb1736f5728845d5ccf82537ddd5bf8035795eee89263910160405180910390a25050505050565b600754600160a01b90046001600160601b0316426001600160601b031610158015611b715750600854600160a01b90046001600160601b0316426001600160601b0316105b611bbd5760405162461bcd60e51b815260206004820152601f60248201527f50726f66697453686172653a506f6f6c206973206e6f7420616374697665210060448201526064016109b2565b6001600160601b0383165f9081526004602052604081205463ffffffff16906103e8611be983866124f3565b611bf3919061250a565b90505f8111611c6a5760405162461bcd60e51b815260206004820152603960248201527f50726f66697453686172653a616d6f756e7420616e64206d756c7469706c696560448201527f72206d7573742062652067726561746572207468616e2030210000000000000060648201526084016109b2565b611c7586825f6115e5565b335f9081526006602090815260408083208684529091528120805490918691839190611ca2908490612529565b90915550611cb29050864261254f565b6002820180546001600160601b039283166fffffffffffffffffffffffffffffffff1990911617600160601b63ffffffff871602179081905582546001840154604080518981526020810193909352820152908216606082015290871660808201526001600160a01b038816907ffb323914bfe99940926cd03fe7969535604dd9a3c82b28853e738744dd6f9aaa9060a00160405180910390a250505050505050565b6040516001600160a01b03838116602483015260448201839052610af691859182169063a9059cbb906064016119ba565b6001600160a01b0383165f908152600560205260409020600181015415610e6557600d546001600160a01b031615611f1957600854600d54600183015460405163095ea7b360e01b81526001600160a01b039283166004820152602481019190915291169063095ea7b3906044016020604051808303815f875af1158015611e10573d5f5f3e3d5ffd5b505050506040513d601f19601f82011682018060405250810190611e349190612586565b50600d5460018201546040517f39aca1c10000000000000000000000000000000000000000000000000000000081525f926001600160a01b0316916339aca1c191611e87918991899089906004016125da565b6020604051808303815f875af1158015611ea3573d5f5f3e3d5ffd5b505050506040513d601f19601f82011682018060405250810190611ec791906125c3565b11611f145760405162461bcd60e51b815260206004820152601760248201527f50726f66697453686172653a53776170206661696c656400000000000000000060448201526064016109b2565b611f38565b6001810154600854611f38916001600160a01b03909116908690611d55565b836001600160a01b03167fe2403640ba68fed3a2f88b7557551d1993f84b99bb10ff833f0cf8db0c5e04868260010154604051611f7791815260200190565b60405180910390a25f600182015550505050565b1190565b606061150a60208401611fa18561206d565b84612084565b5f611fb5600284841861250a565b61151c90848416612529565b5f82611fe0611fdd84611fd9845f9081526020902090565b0190565b90565b949350505050565b5f5f60205f8451602086015f885af180612007576040513d5f823e3d81fd5b50505f513d9150811561201e57806001141561202b565b6001600160a01b0384163b155b15610e65576040517f5274afe70000000000000000000000000000000000000000000000000000000081526001600160a01b03851660048201526024016109b2565b5f815160200261207d8360200190565b0192915050565b6040838303101561209457505050565b5f61209d845190565b905083602081015b848110156120df576120c26120b8825190565b848663ffffffff16565b156120d7576020919091018051825182528252905b6020016120a5565b5084518151865281526120f3858285612084565b612101816020018585612084565b5050505050565b828054828255905f5260205f20908101928215612141579160200282015b82811115612141578251825591602001919060010190612126565b5061214d929150612151565b5090565b5b8082111561214d575f8155600101612152565b5f5f83601f840112612175575f5ffd5b50813567ffffffffffffffff81111561218c575f5ffd5b6020830191508360208260051b85010111156121a6575f5ffd5b9250929050565b5f5f5f5f604085870312156121c0575f5ffd5b843567ffffffffffffffff8111156121d6575f5ffd5b6121e287828801612165565b909550935050602085013567ffffffffffffffff811115612201575f5ffd5b61220d87828801612165565b95989497509550505050565b80356001600160a01b038116811461222f575f5ffd5b919050565b5f60208284031215612244575f5ffd5b61151c82612219565b80356001600160601b038116811461222f575f5ffd5b5f5f5f60608486031215612275575f5ffd5b61227e8461224d565b95602085013595506040909401359392505050565b5f602082840312156122a3575f5ffd5b61151c8261224d565b5f5f5f606084860312156122be575f5ffd5b833592506122ce6020850161224d565b929592945050506040919091013590565b5f5f604083850312156122f0575f5ffd5b6122f98361224d565b946020939093013593505050565b5f60208284031215612317575f5ffd5b5035919050565b8015158114610dce575f5ffd5b5f5f83601f84011261233b575f5ffd5b50813567ffffffffffffffff811115612352575f5ffd5b6020830191508360208285010111156121a6575f5ffd5b5f5f5f5f6060858703121561237c575f5ffd5b84359350602085013561238e8161231e565b9250604085013567ffffffffffffffff8111156123a9575f5ffd5b61220d8782880161232b565b5f5f604083850312156123c6575f5ffd5b6123cf8361224d565b9150602083013563ffffffff811681146123e7575f5ffd5b809150509250929050565b5f5f60408385031215612403575f5ffd5b6122f983612219565b5f5f6020838503121561241d575f5ffd5b823567ffffffffffffffff811115612433575f5ffd5b61243f8582860161232b565b90969095509350505050565b634e487b7160e01b5f52603260045260245ffd5b5f8154808452602084019350825f5260205f205f5b82811015612492578154865260209095019460019182019101612474565b5093949350505050565b604081525f6124ae604083018561245f565b8281036020840152610746818561245f565b634e487b7160e01b5f52601160045260245ffd5b6001600160601b03828116828216039081111561151f5761151f6124c0565b808202811582820484141761151f5761151f6124c0565b5f8261252457634e487b7160e01b5f52601260045260245ffd5b500490565b8082018082111561151f5761151f6124c0565b8181038181111561151f5761151f6124c0565b6001600160601b03818116838216019081111561151f5761151f6124c0565b5f6001820161257f5761257f6124c0565b5060010190565b5f60208284031215612596575f5ffd5b81516115838161231e565b5f5f604083850312156125b2575f5ffd5b505080516020909101519092909150565b5f602082840312156125d3575f5ffd5b5051919050565b6001600160a01b038516815283602082015260606040820152816060820152818360808301375f818301608090810191909152601f909201601f19160101939250505056fea2646970667358221220225ef5a279425a2ccee972e684c65650a2d8a861569980d9211eeec87f66cf1464736f6c634300081e00330dfde28ba1cfae98db642e3246355850b37332d75f04945da4676e38ad045386",
			"opcodes": "PUSH2 0x140 PUSH1 0x40 MSTORE PUSH0 PUSH1 0xC0 SWAP1 DUP2 MSTORE PUSH10 0x21E19E0C9BAB2400000 PUSH1 0xE0 MSTORE PUSH10 0x54B40B1F852BDA00000 PUSH2 0x100 MSTORE PUSH10 0xA968163F0A57B400000 PUSH2 0x120 MSTORE PUSH2 0x45 SWAP1 PUSH1 0x2 SWAP1 PUSH1 0x4 PUSH2 0x67D JUMP JUMPDEST POP PUSH1 0x40 DUP1 MLOAD PUSH1 0x80 DUP2 ADD DUP3 MSTORE PUSH2 0x3E8 DUP2 MSTORE PUSH2 0x5DC PUSH1 0x20 DUP3 ADD MSTORE PUSH2 0x7D0 SWAP2 DUP2 ADD SWAP2 SWAP1 SWAP2 MSTORE PUSH2 0xBB8 PUSH1 0x60 DUP3 ADD MSTORE PUSH2 0x7D SWAP1 PUSH1 0x3 SWAP1 PUSH1 0x4 PUSH2 0x6D1 JUMP JUMPDEST POP PUSH1 0xD DUP1 SLOAD PUSH1 0x1 PUSH1 0x1 PUSH1 0xA0 SHL SUB NOT AND SWAP1 SSTORE CALLVALUE DUP1 ISZERO PUSH2 0x99 JUMPI PUSH0 PUSH0 REVERT JUMPDEST POP PUSH1 0x40 MLOAD PUSH2 0x2EEA CODESIZE SUB DUP1 PUSH2 0x2EEA DUP4 CODECOPY DUP2 ADD PUSH1 0x40 DUP2 SWAP1 MSTORE PUSH2 0xB8 SWAP2 PUSH2 0x755 JUMP JUMPDEST CALLER DUP1 PUSH2 0xDE JUMPI PUSH1 0x40 MLOAD PUSH4 0x1E4FBDF7 PUSH1 0xE0 SHL DUP2 MSTORE PUSH0 PUSH1 0x4 DUP3 ADD MSTORE PUSH1 0x24 ADD JUMPDEST PUSH1 0x40 MLOAD DUP1 SWAP2 SUB SWAP1 REVERT JUMPDEST PUSH2 0xE7 DUP2 PUSH2 0x559 JUMP JUMPDEST POP PUSH1 0x1 DUP1 SSTORE PUSH1 0x1 PUSH1 0x1 PUSH1 0xA0 SHL SUB DUP3 AND PUSH1 0xA0 DUP2 SWAP1 MSTORE PUSH1 0x40 DUP1 MLOAD PUSH4 0x6A30A4D1 PUSH1 0xE1 SHL DUP2 MSTORE SWAP1 MLOAD PUSH4 0xD46149A2 SWAP2 PUSH1 0x4 DUP1 DUP3 ADD SWAP3 PUSH1 0x20 SWAP3 SWAP1 SWAP2 SWAP1 DUP3 SWAP1 SUB ADD DUP2 DUP7 GAS STATICCALL ISZERO DUP1 ISZERO PUSH2 0x134 JUMPI RETURNDATASIZE PUSH0 PUSH0 RETURNDATACOPY RETURNDATASIZE PUSH0 REVERT JUMPDEST POP POP POP POP PUSH1 0x40 MLOAD RETURNDATASIZE PUSH1 0x1F NOT PUSH1 0x1F DUP3 ADD AND DUP3 ADD DUP1 PUSH1 0x40 MSTORE POP DUP2 ADD SWAP1 PUSH2 0x158 SWAP2 SWAP1 PUSH2 0x7AF JUMP JUMPDEST PUSH1 0x1 PUSH1 0x1 PUSH1 0xA0 SHL SUB AND PUSH1 0x80 MSTORE PUSH0 DUP1 MSTORE PUSH1 0x4 PUSH1 0x20 MSTORE PUSH32 0x17EF568E3E12AB5B9C7254A8D58478811DE00F9E6EB34345ACD53BF8FD09D3EC DUP1 SLOAD PUSH4 0xFFFFFFFF NOT AND PUSH2 0x3E8 OR SWAP1 SSTORE PUSH1 0x1 PUSH1 0x1 PUSH1 0x60 SHL SUB DUP5 AND PUSH2 0x1AD TIMESTAMP SWAP1 JUMP JUMPDEST PUSH1 0x1 PUSH1 0x1 PUSH1 0x60 SHL SUB AND LT PUSH2 0x229 JUMPI PUSH1 0x40 MLOAD PUSH3 0x461BCD PUSH1 0xE5 SHL DUP2 MSTORE PUSH1 0x20 PUSH1 0x4 DUP3 ADD MSTORE PUSH1 0x33 PUSH1 0x24 DUP3 ADD MSTORE PUSH32 0x50726F66697453686172653A456E642074696D65206D75737420626520677265 PUSH1 0x44 DUP3 ADD MSTORE PUSH32 0x61746572207468616E2074696D655F6E6F772100000000000000000000000000 PUSH1 0x64 DUP3 ADD MSTORE PUSH1 0x84 ADD PUSH2 0xD5 JUMP JUMPDEST PUSH2 0x245 PUSH1 0x1 PUSH1 0x1 PUSH1 0x60 SHL SUB DUP7 AND TIMESTAMP PUSH1 0x1 PUSH1 0x1 PUSH1 0x60 SHL SUB AND PUSH2 0x5A8 JUMP JUMPDEST SWAP5 POP DUP4 PUSH1 0x1 PUSH1 0x1 PUSH1 0x60 SHL SUB AND DUP6 PUSH1 0x1 PUSH1 0x1 PUSH1 0x60 SHL SUB AND LT PUSH2 0x2C3 JUMPI PUSH1 0x40 MLOAD PUSH3 0x461BCD PUSH1 0xE5 SHL DUP2 MSTORE PUSH1 0x20 PUSH1 0x4 DUP3 ADD MSTORE PUSH1 0x32 PUSH1 0x24 DUP3 ADD MSTORE PUSH32 0x50726F66697453686172653A53746172742074696D65206D757374206265206C PUSH1 0x44 DUP3 ADD MSTORE PUSH18 0x657373207468616E20656E642074696D6521 PUSH1 0x70 SHL PUSH1 0x64 DUP3 ADD MSTORE PUSH1 0x84 ADD PUSH2 0xD5 JUMP JUMPDEST PUSH0 PUSH2 0x2CE DUP7 DUP7 PUSH2 0x7DC JUMP JUMPDEST PUSH1 0x1 PUSH1 0x1 PUSH1 0x60 SHL SUB AND PUSH2 0x2EA DUP6 PUSH9 0x3635C9ADC5DEA00000 PUSH2 0x7FB JUMP JUMPDEST PUSH2 0x2F4 SWAP2 SWAP1 PUSH2 0x812 JUMP JUMPDEST SWAP1 POP PUSH1 0x40 MLOAD DUP1 PUSH2 0x100 ADD PUSH1 0x40 MSTORE DUP1 PUSH1 0xA0 MLOAD PUSH1 0x1 PUSH1 0x1 PUSH1 0xA0 SHL SUB AND PUSH4 0x7C2FDEB5 PUSH1 0x40 MLOAD DUP2 PUSH4 0xFFFFFFFF AND PUSH1 0xE0 SHL DUP2 MSTORE PUSH1 0x4 ADD PUSH1 0x20 PUSH1 0x40 MLOAD DUP1 DUP4 SUB DUP2 DUP7 GAS STATICCALL ISZERO DUP1 ISZERO PUSH2 0x340 JUMPI RETURNDATASIZE PUSH0 PUSH0 RETURNDATACOPY RETURNDATASIZE PUSH0 REVERT JUMPDEST POP POP POP POP PUSH1 0x40 MLOAD RETURNDATASIZE PUSH1 0x1F NOT PUSH1 0x1F DUP3 ADD AND DUP3 ADD DUP1 PUSH1 0x40 MSTORE POP DUP2 ADD SWAP1 PUSH2 0x364 SWAP2 SWAP1 PUSH2 0x7AF JUMP JUMPDEST PUSH1 0x1 PUSH1 0x1 PUSH1 0xA0 SHL SUB SWAP1 DUP2 AND DUP3 MSTORE PUSH1 0x1 PUSH1 0x1 PUSH1 0x60 SHL SUB DUP10 DUP2 AND PUSH1 0x20 DUP1 DUP6 ADD DUP3 SWAP1 MSTORE DUP8 DUP5 AND PUSH1 0x40 DUP1 DUP8 ADD SWAP2 SWAP1 SWAP2 MSTORE DUP12 DUP5 AND PUSH1 0x60 DUP1 DUP9 ADD SWAP2 SWAP1 SWAP2 MSTORE PUSH0 PUSH1 0x80 DUP1 DUP10 ADD DUP3 SWAP1 MSTORE PUSH1 0xA0 DUP1 DUP11 ADD DUP13 SWAP1 MSTORE PUSH1 0xC0 DUP1 DUP12 ADD SWAP4 SWAP1 SWAP4 MSTORE PUSH1 0xE0 SWAP10 DUP11 ADD SWAP7 SWAP1 SWAP7 MSTORE DUP10 MLOAD DUP11 DUP7 ADD MLOAD SWAP1 DUP10 AND PUSH1 0x1 PUSH1 0xA0 SHL SWAP2 DUP10 AND DUP3 MUL DUP2 DUP2 OR PUSH1 0x7 DUP2 SWAP1 SSTORE DUP14 DUP9 ADD MLOAD DUP15 DUP9 ADD MLOAD SWAP1 DUP14 AND SWAP1 DUP13 AND DUP6 MUL DUP2 DUP2 OR PUSH1 0x8 SSTORE DUP16 DUP8 ADD MLOAD PUSH1 0x9 SSTORE SWAP11 DUP16 ADD MLOAD PUSH1 0xA SSTORE SWAP6 DUP15 ADD MLOAD PUSH1 0xB SSTORE SWAP13 SWAP1 SWAP12 ADD MLOAD PUSH1 0xC DUP1 SLOAD PUSH1 0x1 PUSH1 0x1 PUSH1 0x60 SHL SUB NOT AND SWAP2 DUP12 AND SWAP2 SWAP1 SWAP2 OR SWAP1 SSTORE DUP6 MLOAD SWAP11 DUP11 AND OR DUP11 MSTORE SWAP6 SWAP1 SWAP8 AND OR SWAP3 DUP8 ADD SWAP3 SWAP1 SWAP3 MSTORE SWAP2 SWAP1 SWAP6 DIV SWAP1 SWAP2 AND SWAP1 DUP4 ADD MSTORE PUSH9 0x3635C9ADC5DEA00000 SWAP3 DUP3 ADD SWAP3 SWAP1 SWAP3 MSTORE PUSH32 0xDC04D80EBE596008505211BB5EF7B7B76945B378723C7FBC1DD952CD919394BB SWAP2 ADD PUSH1 0x40 MLOAD DUP1 SWAP2 SUB SWAP1 LOG1 PUSH1 0x9 SLOAD PUSH1 0xA SLOAD PUSH1 0xB SLOAD PUSH1 0xC SLOAD PUSH1 0x8 SLOAD PUSH1 0x40 DUP1 MLOAD SWAP6 DUP7 MSTORE PUSH1 0x20 DUP7 ADD SWAP5 SWAP1 SWAP5 MSTORE DUP5 DUP5 ADD SWAP3 SWAP1 SWAP3 MSTORE PUSH1 0x1 PUSH1 0x1 PUSH1 0x60 SHL SUB SWAP1 DUP2 AND PUSH1 0x60 DUP6 ADD MSTORE PUSH1 0x1 PUSH1 0xA0 SHL SWAP1 SWAP2 DIV AND PUSH1 0x80 DUP4 ADD MSTORE MLOAD PUSH32 0xE111F67A87ACE56A1496291914B8E0DA23748FFDDAA8BC98D0F4D4DFB51796A5 SWAP2 DUP2 SWAP1 SUB PUSH1 0xA0 ADD SWAP1 LOG1 PUSH1 0x40 DUP1 MLOAD PUSH0 DUP2 MSTORE PUSH2 0x3E8 PUSH1 0x20 DUP3 ADD MSTORE PUSH0 MLOAD PUSH1 0x20 PUSH2 0x2ECA PUSH0 CODECOPY PUSH0 MLOAD SWAP1 PUSH0 MSTORE SWAP2 ADD PUSH1 0x40 MLOAD DUP1 SWAP2 SUB SWAP1 LOG1 PUSH2 0x520 PUSH3 0x278D00 PUSH2 0x7D0 PUSH2 0x5BC JUMP JUMPDEST PUSH2 0x52F PUSH3 0x76A700 PUSH2 0xBB8 PUSH2 0x5BC JUMP JUMPDEST PUSH2 0x53E PUSH3 0xED4E00 PUSH2 0xFA0 PUSH2 0x5BC JUMP JUMPDEST PUSH2 0x54E PUSH4 0x1DA9C00 PUSH2 0x1770 PUSH2 0x5BC JUMP JUMPDEST POP POP POP POP POP POP PUSH2 0x831 JUMP JUMPDEST PUSH0 DUP1 SLOAD PUSH1 0x1 PUSH1 0x1 PUSH1 0xA0 SHL SUB DUP4 DUP2 AND PUSH1 0x1 PUSH1 0x1 PUSH1 0xA0 SHL SUB NOT DUP4 AND DUP2 OR DUP5 SSTORE PUSH1 0x40 MLOAD SWAP2 SWAP1 SWAP3 AND SWAP3 DUP4 SWAP2 PUSH32 0x8BE0079C531659141344CD1FD0A4F28419497F9722A3DAAFE3B4186F6B6457E0 SWAP2 SWAP1 LOG3 POP POP JUMP JUMPDEST PUSH0 DUP3 DUP3 XOR DUP3 DUP5 GT MUL DUP3 XOR JUMPDEST SWAP1 POP JUMPDEST SWAP3 SWAP2 POP POP JUMP JUMPDEST PUSH2 0x5C4 PUSH2 0x64F JUMP JUMPDEST PUSH0 DUP3 PUSH1 0x1 PUSH1 0x1 PUSH1 0x60 SHL SUB AND GT DUP1 ISZERO PUSH2 0x5F1 JUMPI POP PUSH4 0xFFFFFFFF DUP2 AND PUSH2 0x3E8 LT DUP1 PUSH2 0x5F1 JUMPI POP PUSH4 0xFFFFFFFF DUP2 AND ISZERO JUMPDEST PUSH2 0x5F9 JUMPI PUSH0 PUSH0 REVERT JUMPDEST PUSH1 0x1 PUSH1 0x1 PUSH1 0x60 SHL SUB DUP3 AND PUSH0 DUP2 DUP2 MSTORE PUSH1 0x4 PUSH1 0x20 SWAP1 DUP2 MSTORE PUSH1 0x40 SWAP2 DUP3 SWAP1 KECCAK256 DUP1 SLOAD PUSH4 0xFFFFFFFF NOT AND PUSH4 0xFFFFFFFF DUP7 AND SWAP1 DUP2 OR SWAP1 SWAP2 SSTORE DUP3 MLOAD SWAP4 DUP5 MSTORE SWAP1 DUP4 ADD MSTORE PUSH0 MLOAD PUSH1 0x20 PUSH2 0x2ECA PUSH0 CODECOPY PUSH0 MLOAD SWAP1 PUSH0 MSTORE SWAP2 ADD PUSH1 0x40 MLOAD DUP1 SWAP2 SUB SWAP1 LOG1 POP POP JUMP JUMPDEST PUSH0 SLOAD PUSH1 0x1 PUSH1 0x1 PUSH1 0xA0 SHL SUB AND CALLER EQ PUSH2 0x67B JUMPI PUSH1 0x40 MLOAD PUSH4 0x118CDAA7 PUSH1 0xE0 SHL DUP2 MSTORE CALLER PUSH1 0x4 DUP3 ADD MSTORE PUSH1 0x24 ADD PUSH2 0xD5 JUMP JUMPDEST JUMP JUMPDEST DUP3 DUP1 SLOAD DUP3 DUP3 SSTORE SWAP1 PUSH0 MSTORE PUSH1 0x20 PUSH0 KECCAK256 SWAP1 DUP2 ADD SWAP3 DUP3 ISZERO PUSH2 0x6C1 JUMPI SWAP2 PUSH1 0x20 MUL DUP3 ADD JUMPDEST DUP3 DUP2 GT ISZERO PUSH2 0x6C1 JUMPI DUP3 MLOAD DUP3 SWAP1 PUSH1 0x1 PUSH1 0x1 PUSH1 0x50 SHL SUB AND SWAP1 SSTORE SWAP2 PUSH1 0x20 ADD SWAP2 SWAP1 PUSH1 0x1 ADD SWAP1 PUSH2 0x69B JUMP JUMPDEST POP PUSH2 0x6CD SWAP3 SWAP2 POP PUSH2 0x710 JUMP JUMPDEST POP SWAP1 JUMP JUMPDEST DUP3 DUP1 SLOAD DUP3 DUP3 SSTORE SWAP1 PUSH0 MSTORE PUSH1 0x20 PUSH0 KECCAK256 SWAP1 DUP2 ADD SWAP3 DUP3 ISZERO PUSH2 0x6C1 JUMPI SWAP2 PUSH1 0x20 MUL DUP3 ADD JUMPDEST DUP3 DUP2 GT ISZERO PUSH2 0x6C1 JUMPI DUP3 MLOAD DUP3 SWAP1 PUSH2 0xFFFF AND SWAP1 SSTORE SWAP2 PUSH1 0x20 ADD SWAP2 SWAP1 PUSH1 0x1 ADD SWAP1 PUSH2 0x6EF JUMP JUMPDEST JUMPDEST DUP1 DUP3 GT ISZERO PUSH2 0x6CD JUMPI PUSH0 DUP2 SSTORE PUSH1 0x1 ADD PUSH2 0x711 JUMP JUMPDEST DUP1 MLOAD PUSH1 0x1 PUSH1 0x1 PUSH1 0x60 SHL SUB DUP2 AND DUP2 EQ PUSH2 0x73A JUMPI PUSH0 PUSH0 REVERT JUMPDEST SWAP2 SWAP1 POP JUMP JUMPDEST DUP1 MLOAD PUSH1 0x1 PUSH1 0x1 PUSH1 0xA0 SHL SUB DUP2 AND DUP2 EQ PUSH2 0x73A JUMPI PUSH0 PUSH0 REVERT JUMPDEST PUSH0 PUSH0 PUSH0 PUSH0 PUSH0 PUSH1 0xA0 DUP7 DUP9 SUB SLT ISZERO PUSH2 0x769 JUMPI PUSH0 PUSH0 REVERT JUMPDEST PUSH2 0x772 DUP7 PUSH2 0x724 JUMP JUMPDEST SWAP5 POP PUSH2 0x780 PUSH1 0x20 DUP8 ADD PUSH2 0x724 JUMP JUMPDEST SWAP4 POP PUSH1 0x40 DUP7 ADD MLOAD SWAP3 POP PUSH2 0x795 PUSH1 0x60 DUP8 ADD PUSH2 0x73F JUMP JUMPDEST SWAP2 POP PUSH2 0x7A3 PUSH1 0x80 DUP8 ADD PUSH2 0x73F JUMP JUMPDEST SWAP1 POP SWAP3 SWAP6 POP SWAP3 SWAP6 SWAP1 SWAP4 POP JUMP JUMPDEST PUSH0 PUSH1 0x20 DUP3 DUP5 SUB SLT ISZERO PUSH2 0x7BF JUMPI PUSH0 PUSH0 REVERT JUMPDEST PUSH2 0x5B3 DUP3 PUSH2 0x73F JUMP JUMPDEST PUSH4 0x4E487B71 PUSH1 0xE0 SHL PUSH0 MSTORE PUSH1 0x11 PUSH1 0x4 MSTORE PUSH1 0x24 PUSH0 REVERT JUMPDEST PUSH1 0x1 PUSH1 0x1 PUSH1 0x60 SHL SUB DUP3 DUP2 AND DUP3 DUP3 AND SUB SWAP1 DUP2 GT ISZERO PUSH2 0x5B6 JUMPI PUSH2 0x5B6 PUSH2 0x7C8 JUMP JUMPDEST DUP1 DUP3 MUL DUP2 ISZERO DUP3 DUP3 DIV DUP5 EQ OR PUSH2 0x5B6 JUMPI PUSH2 0x5B6 PUSH2 0x7C8 JUMP JUMPDEST PUSH0 DUP3 PUSH2 0x82C JUMPI PUSH4 0x4E487B71 PUSH1 0xE0 SHL PUSH0 MSTORE PUSH1 0x12 PUSH1 0x4 MSTORE PUSH1 0x24 PUSH0 REVERT JUMPDEST POP DIV SWAP1 JUMP JUMPDEST PUSH1 0x80 MLOAD PUSH1 0xA0 MLOAD PUSH2 0x2655 PUSH2 0x875 PUSH0 CODECOPY PUSH0 DUP2 DUP2 PUSH2 0x3BE ADD MSTORE DUP2 DUP2 PUSH2 0xB86 ADD MSTORE DUP2 DUP2 PUSH2 0xC6A ADD MSTORE PUSH2 0x138B ADD MSTORE PUSH0 DUP2 DUP2 PUSH2 0x2E1 ADD MSTORE DUP2 DUP2 PUSH2 0xB3F ADD MSTORE PUSH2 0xBB5 ADD MSTORE PUSH2 0x2655 PUSH0 RETURN INVALID PUSH1 0x80 PUSH1 0x40 MSTORE CALLVALUE DUP1 ISZERO PUSH2 0xF JUMPI PUSH0 PUSH0 REVERT JUMPDEST POP PUSH1 0x4 CALLDATASIZE LT PUSH2 0x1A4 JUMPI PUSH0 CALLDATALOAD PUSH1 0xE0 SHR DUP1 PUSH4 0xB1DA1B2D GT PUSH2 0xE8 JUMPI DUP1 PUSH4 0xCFD47663 GT PUSH2 0x93 JUMPI DUP1 PUSH4 0xDA540BBF GT PUSH2 0x6E JUMPI DUP1 PUSH4 0xDA540BBF EQ PUSH2 0x4A4 JUMPI DUP1 PUSH4 0xE190FEBC EQ PUSH2 0x4AD JUMPI DUP1 PUSH4 0xF2FDE38B EQ PUSH2 0x4C0 JUMPI DUP1 PUSH4 0xFE89A82D EQ PUSH2 0x4D3 JUMPI PUSH0 PUSH0 REVERT JUMPDEST DUP1 PUSH4 0xCFD47663 EQ PUSH2 0x43C JUMPI DUP1 PUSH4 0xD6EF7AF0 EQ PUSH2 0x47E JUMPI DUP1 PUSH4 0xD93C04A0 EQ PUSH2 0x491 JUMPI PUSH0 PUSH0 REVERT JUMPDEST DUP1 PUSH4 0xC105635B GT PUSH2 0xC3 JUMPI DUP1 PUSH4 0xC105635B EQ PUSH2 0x406 JUMPI DUP1 PUSH4 0xC96D6635 EQ PUSH2 0x419 JUMPI DUP1 PUSH4 0xCE4B5BBE EQ PUSH2 0x42C JUMPI PUSH0 PUSH0 REVERT JUMPDEST DUP1 PUSH4 0xB1DA1B2D EQ PUSH2 0x3B9 JUMPI DUP1 PUSH4 0xBE28B8B3 EQ PUSH2 0x3E0 JUMPI DUP1 PUSH4 0xBECEED39 EQ PUSH2 0x3F3 JUMPI PUSH0 PUSH0 REVERT JUMPDEST DUP1 PUSH4 0x7135CD6A GT PUSH2 0x153 JUMPI DUP1 PUSH4 0x8C793330 GT PUSH2 0x12E JUMPI DUP1 PUSH4 0x8C793330 EQ PUSH2 0x370 JUMPI DUP1 PUSH4 0x8DA5CB5B EQ PUSH2 0x383 JUMPI DUP1 PUSH4 0x98D183FC EQ PUSH2 0x393 JUMPI DUP1 PUSH4 0x99C1E891 EQ PUSH2 0x3A6 JUMPI PUSH0 PUSH0 REVERT JUMPDEST DUP1 PUSH4 0x7135CD6A EQ PUSH2 0x31B JUMPI DUP1 PUSH4 0x715018A6 EQ PUSH2 0x32E JUMPI DUP1 PUSH4 0x8AF6E880 EQ PUSH2 0x336 JUMPI PUSH0 PUSH0 REVERT JUMPDEST DUP1 PUSH4 0x21241DFE GT PUSH2 0x183 JUMPI DUP1 PUSH4 0x21241DFE EQ PUSH2 0x27F JUMPI DUP1 PUSH4 0x6386C1C7 EQ PUSH2 0x2A1 JUMPI DUP1 PUSH4 0x6DB08F25 EQ PUSH2 0x2DC JUMPI PUSH0 PUSH0 REVERT JUMPDEST DUP1 PUSH3 0x72C744 EQ PUSH2 0x1A8 JUMPI DUP1 PUSH4 0x78B0FB7 EQ PUSH2 0x1BD JUMPI DUP1 PUSH4 0x16F0115B EQ PUSH2 0x1E3 JUMPI JUMPDEST PUSH0 PUSH0 REVERT JUMPDEST PUSH2 0x1BB PUSH2 0x1B6 CALLDATASIZE PUSH1 0x4 PUSH2 0x21AD JUMP JUMPDEST PUSH2 0x4E6 JUMP JUMPDEST STOP JUMPDEST PUSH2 0x1D0 PUSH2 0x1CB CALLDATASIZE PUSH1 0x4 PUSH2 0x2234 JUMP JUMPDEST PUSH2 0x63A JUMP JUMPDEST PUSH1 0x40 MLOAD SWAP1 DUP2 MSTORE PUSH1 0x20 ADD JUMPDEST PUSH1 0x40 MLOAD DUP1 SWAP2 SUB SWAP1 RETURN JUMPDEST PUSH1 0x7 SLOAD PUSH1 0x8 SLOAD PUSH1 0x9 SLOAD PUSH1 0xA SLOAD PUSH1 0xB SLOAD PUSH1 0xC SLOAD PUSH2 0x22A SWAP6 PUSH1 0x1 PUSH1 0x1 PUSH1 0xA0 SHL SUB DUP1 DUP3 AND SWAP7 PUSH1 0x1 PUSH1 0x1 PUSH1 0x60 SHL SUB PUSH1 0x1 PUSH1 0xA0 SHL SWAP4 DUP5 SWAP1 DIV DUP2 AND SWAP8 SWAP3 DUP3 AND SWAP7 SWAP4 SWAP1 SWAP2 DIV DUP2 AND SWAP5 SWAP2 SWAP4 AND DUP9 JUMP JUMPDEST PUSH1 0x40 DUP1 MLOAD PUSH1 0x1 PUSH1 0x1 PUSH1 0xA0 SHL SUB SWAP10 DUP11 AND DUP2 MSTORE PUSH1 0x1 PUSH1 0x1 PUSH1 0x60 SHL SUB SWAP9 DUP10 AND PUSH1 0x20 DUP3 ADD MSTORE SWAP9 SWAP1 SWAP7 AND SWAP6 DUP9 ADD SWAP6 SWAP1 SWAP6 MSTORE SWAP3 DUP6 AND PUSH1 0x60 DUP8 ADD MSTORE PUSH1 0x80 DUP7 ADD SWAP2 SWAP1 SWAP2 MSTORE PUSH1 0xA0 DUP6 ADD MSTORE PUSH1 0xC0 DUP5 ADD MSTORE AND PUSH1 0xE0 DUP3 ADD MSTORE PUSH2 0x100 ADD PUSH2 0x1DA JUMP JUMPDEST PUSH2 0x289 PUSH3 0x34BC00 DUP2 JUMP JUMPDEST PUSH1 0x40 MLOAD PUSH1 0x1 PUSH1 0x1 PUSH1 0x60 SHL SUB SWAP1 SWAP2 AND DUP2 MSTORE PUSH1 0x20 ADD PUSH2 0x1DA JUMP JUMPDEST PUSH2 0x2B4 PUSH2 0x2AF CALLDATASIZE PUSH1 0x4 PUSH2 0x2234 JUMP JUMPDEST PUSH2 0x74F JUMP JUMPDEST PUSH1 0x40 DUP1 MLOAD SWAP6 DUP7 MSTORE PUSH1 0x20 DUP7 ADD SWAP5 SWAP1 SWAP5 MSTORE SWAP3 DUP5 ADD SWAP2 SWAP1 SWAP2 MSTORE PUSH1 0x60 DUP4 ADD MSTORE PUSH1 0x80 DUP3 ADD MSTORE PUSH1 0xA0 ADD PUSH2 0x1DA JUMP JUMPDEST PUSH2 0x303 PUSH32 0x0 DUP2 JUMP JUMPDEST PUSH1 0x40 MLOAD PUSH1 0x1 PUSH1 0x1 PUSH1 0xA0 SHL SUB SWAP1 SWAP2 AND DUP2 MSTORE PUSH1 0x20 ADD PUSH2 0x1DA JUMP JUMPDEST PUSH2 0x1BB PUSH2 0x329 CALLDATASIZE PUSH1 0x4 PUSH2 0x2263 JUMP JUMPDEST PUSH2 0x79C JUMP JUMPDEST PUSH2 0x1BB PUSH2 0x92E JUMP JUMPDEST PUSH2 0x35B PUSH2 0x344 CALLDATASIZE PUSH1 0x4 PUSH2 0x2293 JUMP JUMPDEST PUSH1 0x4 PUSH1 0x20 MSTORE PUSH0 SWAP1 DUP2 MSTORE PUSH1 0x40 SWAP1 KECCAK256 SLOAD PUSH4 0xFFFFFFFF AND DUP2 JUMP JUMPDEST PUSH1 0x40 MLOAD PUSH4 0xFFFFFFFF SWAP1 SWAP2 AND DUP2 MSTORE PUSH1 0x20 ADD PUSH2 0x1DA JUMP JUMPDEST PUSH2 0x1BB PUSH2 0x37E CALLDATASIZE PUSH1 0x4 PUSH2 0x22AC JUMP JUMPDEST PUSH2 0x941 JUMP JUMPDEST PUSH0 SLOAD PUSH1 0x1 PUSH1 0x1 PUSH1 0xA0 SHL SUB AND PUSH2 0x303 JUMP JUMPDEST PUSH2 0x1BB PUSH2 0x3A1 CALLDATASIZE PUSH1 0x4 PUSH2 0x2234 JUMP JUMPDEST PUSH2 0xAFB JUMP JUMPDEST PUSH2 0x1BB PUSH2 0x3B4 CALLDATASIZE PUSH1 0x4 PUSH2 0x22DF JUMP JUMPDEST PUSH2 0xB32 JUMP JUMPDEST PUSH2 0x303 PUSH32 0x0 DUP2 JUMP JUMPDEST PUSH1 0xD SLOAD PUSH2 0x303 SWAP1 PUSH1 0x1 PUSH1 0x1 PUSH1 0xA0 SHL SUB AND DUP2 JUMP JUMPDEST PUSH2 0x1BB PUSH2 0x401 CALLDATASIZE PUSH1 0x4 PUSH2 0x2307 JUMP JUMPDEST PUSH2 0xDC5 JUMP JUMPDEST PUSH2 0x1BB PUSH2 0x414 CALLDATASIZE PUSH1 0x4 PUSH2 0x2369 JUMP JUMPDEST PUSH2 0xDD1 JUMP JUMPDEST PUSH2 0x1BB PUSH2 0x427 CALLDATASIZE PUSH1 0x4 PUSH2 0x23B5 JUMP JUMPDEST PUSH2 0xE6B JUMP JUMPDEST PUSH2 0x1D0 PUSH9 0x3635C9ADC5DEA00000 DUP2 JUMP JUMPDEST PUSH2 0x44F PUSH2 0x44A CALLDATASIZE PUSH1 0x4 PUSH2 0x23F2 JUMP JUMPDEST PUSH2 0xF11 JUMP JUMPDEST PUSH1 0x40 MLOAD PUSH2 0x1DA SWAP5 SWAP4 SWAP3 SWAP2 SWAP1 SWAP4 DUP5 MSTORE PUSH1 0x20 DUP5 ADD SWAP3 SWAP1 SWAP3 MSTORE PUSH1 0x1 PUSH1 0x1 PUSH1 0x60 SHL SUB AND PUSH1 0x40 DUP4 ADD MSTORE PUSH1 0x60 DUP3 ADD MSTORE PUSH1 0x80 ADD SWAP1 JUMP JUMPDEST PUSH2 0x1BB PUSH2 0x48C CALLDATASIZE PUSH1 0x4 PUSH2 0x23F2 JUMP JUMPDEST PUSH2 0xFE7 JUMP JUMPDEST PUSH2 0x1BB PUSH2 0x49F CALLDATASIZE PUSH1 0x4 PUSH2 0x22DF JUMP JUMPDEST PUSH2 0x10FB JUMP JUMPDEST PUSH2 0x35B PUSH2 0x3E8 DUP2 JUMP JUMPDEST PUSH2 0x1BB PUSH2 0x4BB CALLDATASIZE PUSH1 0x4 PUSH2 0x240C JUMP JUMPDEST PUSH2 0x116E JUMP JUMPDEST PUSH2 0x1BB PUSH2 0x4CE CALLDATASIZE PUSH1 0x4 PUSH2 0x2234 JUMP JUMPDEST PUSH2 0x1193 JUMP JUMPDEST PUSH2 0x1BB PUSH2 0x4E1 CALLDATASIZE PUSH1 0x4 PUSH2 0x2369 JUMP JUMPDEST PUSH2 0x11E6 JUMP JUMPDEST PUSH2 0x4EE PUSH2 0x14B7 JUMP JUMPDEST DUP3 DUP2 EQ DUP1 ISZERO PUSH2 0x4FC JUMPI POP DUP1 ISZERO ISZERO JUMPDEST PUSH2 0x504 JUMPI PUSH0 PUSH0 REVERT JUMPDEST PUSH2 0x53F DUP5 DUP5 DUP1 DUP1 PUSH1 0x20 MUL PUSH1 0x20 ADD PUSH1 0x40 MLOAD SWAP1 DUP2 ADD PUSH1 0x40 MSTORE DUP1 SWAP4 SWAP3 SWAP2 SWAP1 DUP2 DUP2 MSTORE PUSH1 0x20 ADD DUP4 DUP4 PUSH1 0x20 MUL DUP1 DUP3 DUP5 CALLDATACOPY PUSH0 SWAP3 ADD SWAP2 SWAP1 SWAP2 MSTORE POP PUSH2 0x14FC SWAP3 POP POP POP JUMP JUMPDEST DUP1 MLOAD PUSH2 0x553 SWAP2 PUSH1 0x2 SWAP2 PUSH1 0x20 SWAP1 SWAP2 ADD SWAP1 PUSH2 0x2108 JUMP JUMPDEST POP PUSH2 0x58F DUP3 DUP3 DUP1 DUP1 PUSH1 0x20 MUL PUSH1 0x20 ADD PUSH1 0x40 MLOAD SWAP1 DUP2 ADD PUSH1 0x40 MSTORE DUP1 SWAP4 SWAP3 SWAP2 SWAP1 DUP2 DUP2 MSTORE PUSH1 0x20 ADD DUP4 DUP4 PUSH1 0x20 MUL DUP1 DUP3 DUP5 CALLDATACOPY PUSH0 SWAP3 ADD SWAP2 SWAP1 SWAP2 MSTORE POP PUSH2 0x14FC SWAP3 POP POP POP JUMP JUMPDEST DUP1 MLOAD PUSH2 0x5A3 SWAP2 PUSH1 0x3 SWAP2 PUSH1 0x20 SWAP1 SWAP2 ADD SWAP1 PUSH2 0x2108 JUMP JUMPDEST POP PUSH1 0x2 PUSH0 DUP2 SLOAD DUP2 LT PUSH2 0x5B7 JUMPI PUSH2 0x5B7 PUSH2 0x244B JUMP JUMPDEST SWAP1 PUSH0 MSTORE PUSH1 0x20 PUSH0 KECCAK256 ADD SLOAD PUSH0 EQ DUP1 ISZERO PUSH2 0x5F1 JUMPI POP PUSH2 0x3E8 PUSH4 0xFFFFFFFF AND PUSH1 0x3 PUSH0 DUP2 SLOAD DUP2 LT PUSH2 0x5E5 JUMPI PUSH2 0x5E5 PUSH2 0x244B JUMP JUMPDEST SWAP1 PUSH0 MSTORE PUSH1 0x20 PUSH0 KECCAK256 ADD SLOAD LT ISZERO JUMPDEST PUSH2 0x5F9 JUMPI PUSH0 PUSH0 REVERT JUMPDEST PUSH32 0x36636BD3CAF33BDDBD656AADDA2FC454E5093F7CEC3DE1405319EF0EF3AA6BA7 PUSH1 0x2 PUSH1 0x3 PUSH1 0x40 MLOAD PUSH2 0x62C SWAP3 SWAP2 SWAP1 PUSH2 0x249C JUMP JUMPDEST PUSH1 0x40 MLOAD DUP1 SWAP2 SUB SWAP1 LOG1 POP POP POP POP JUMP JUMPDEST PUSH1 0x1 PUSH1 0x1 PUSH1 0xA0 SHL SUB DUP2 AND PUSH0 SWAP1 DUP2 MSTORE PUSH1 0x5 PUSH1 0x20 MSTORE PUSH1 0x40 DUP2 KECCAK256 PUSH1 0xC SLOAD DUP3 SWAP1 PUSH2 0x68A SWAP1 PUSH1 0x1 PUSH1 0x1 PUSH1 0x60 SHL SUB AND PUSH2 0x685 TIMESTAMP JUMPDEST PUSH1 0x8 SLOAD PUSH1 0x1 PUSH1 0x1 PUSH1 0x60 SHL SUB SWAP2 DUP3 AND SWAP2 PUSH1 0x1 PUSH1 0xA0 SHL SWAP1 SWAP2 DIV AND PUSH2 0x1511 JUMP JUMPDEST PUSH2 0x1525 JUMP JUMPDEST PUSH1 0xB SLOAD PUSH1 0x9 SLOAD SWAP2 SWAP3 POP SWAP1 ISZERO DUP1 ISZERO SWAP1 PUSH2 0x6B0 JUMPI POP PUSH1 0xC SLOAD PUSH1 0x1 PUSH1 0x1 PUSH1 0x60 SHL SUB SWAP1 DUP2 AND SWAP1 DUP4 AND GT JUMPDEST ISZERO PUSH2 0x6FE JUMPI PUSH1 0x9 SLOAD PUSH1 0xA SLOAD PUSH1 0xC SLOAD PUSH2 0x6D1 SWAP1 PUSH1 0x1 PUSH1 0x1 PUSH1 0x60 SHL SUB AND DUP6 PUSH2 0x24D4 JUMP JUMPDEST PUSH1 0x1 PUSH1 0x1 PUSH1 0x60 SHL SUB AND PUSH2 0x6E4 SWAP2 SWAP1 PUSH2 0x24F3 JUMP JUMPDEST PUSH2 0x6EE SWAP2 SWAP1 PUSH2 0x250A JUMP JUMPDEST PUSH1 0xB SLOAD PUSH2 0x6FB SWAP2 SWAP1 PUSH2 0x2529 JUMP JUMPDEST SWAP1 POP JUMPDEST PUSH9 0x3635C9ADC5DEA00000 DUP4 PUSH1 0x2 ADD SLOAD DUP3 PUSH2 0x718 SWAP2 SWAP1 PUSH2 0x253C JUMP JUMPDEST DUP5 SLOAD PUSH2 0x723 SWAP1 PUSH2 0x1534 JUMP JUMPDEST PUSH2 0x72D SWAP2 SWAP1 PUSH2 0x24F3 JUMP JUMPDEST PUSH2 0x737 SWAP2 SWAP1 PUSH2 0x250A JUMP JUMPDEST DUP4 PUSH1 0x1 ADD SLOAD PUSH2 0x746 SWAP2 SWAP1 PUSH2 0x2529 JUMP JUMPDEST SWAP6 SWAP5 POP POP POP POP POP JUMP JUMPDEST PUSH1 0x1 PUSH1 0x1 PUSH1 0xA0 SHL SUB DUP2 AND PUSH0 SWAP1 DUP2 MSTORE PUSH1 0x5 PUSH1 0x20 MSTORE PUSH1 0x40 DUP2 KECCAK256 DUP1 SLOAD DUP3 SWAP2 DUP3 SWAP2 DUP3 SWAP2 DUP3 SWAP2 PUSH2 0x77B PUSH1 0x2 DUP3 PUSH2 0x158A JUMP JUMPDEST PUSH1 0x1 DUP4 ADD SLOAD PUSH1 0x2 DUP5 ADD SLOAD PUSH1 0x3 SWAP1 SWAP5 ADD SLOAD SWAP3 SWAP11 SWAP2 SWAP10 POP SWAP8 POP SWAP2 SWAP6 POP SWAP4 POP SWAP2 POP POP JUMP JUMPDEST PUSH2 0x7A4 PUSH2 0x14B7 JUMP JUMPDEST PUSH2 0x7AF PUSH0 PUSH0 PUSH0 PUSH2 0x15E5 JUMP JUMPDEST PUSH1 0x8 SLOAD TIMESTAMP SWAP1 PUSH1 0x1 PUSH1 0xA0 SHL SWAP1 DIV PUSH1 0x1 PUSH1 0x1 PUSH1 0x60 SHL SUB SWAP1 DUP2 AND SWAP1 DUP3 AND LT PUSH2 0x7FD JUMPI PUSH1 0x1 PUSH1 0x1 PUSH1 0x60 SHL SUB DUP5 AND PUSH2 0x7EB DUP5 PUSH9 0x3635C9ADC5DEA00000 PUSH2 0x24F3 JUMP JUMPDEST PUSH2 0x7F5 SWAP2 SWAP1 PUSH2 0x250A JUMP JUMPDEST PUSH1 0xA SSTORE PUSH2 0x861 JUMP JUMPDEST PUSH1 0xA SLOAD PUSH1 0x8 SLOAD PUSH1 0x1 PUSH1 0x1 PUSH1 0x60 SHL SUB DUP1 DUP8 AND SWAP3 SWAP2 PUSH2 0x823 SWAP2 DUP6 SWAP2 PUSH1 0x1 PUSH1 0xA0 SHL SWAP1 DIV AND PUSH2 0x24D4 JUMP JUMPDEST PUSH1 0x1 PUSH1 0x1 PUSH1 0x60 SHL SUB AND PUSH2 0x836 SWAP2 SWAP1 PUSH2 0x24F3 JUMP JUMPDEST PUSH2 0x849 DUP6 PUSH9 0x3635C9ADC5DEA00000 PUSH2 0x24F3 JUMP JUMPDEST PUSH2 0x853 SWAP2 SWAP1 PUSH2 0x2529 JUMP JUMPDEST PUSH2 0x85D SWAP2 SWAP1 PUSH2 0x250A JUMP JUMPDEST PUSH1 0xA SSTORE JUMPDEST PUSH1 0xC DUP1 SLOAD PUSH12 0xFFFFFFFFFFFFFFFFFFFFFFFF NOT AND PUSH1 0x1 PUSH1 0x1 PUSH1 0x60 SHL SUB DUP4 AND OR SWAP1 SSTORE PUSH2 0x88B DUP5 DUP3 PUSH2 0x254F JUMP JUMPDEST PUSH1 0x8 DUP1 SLOAD PUSH1 0x1 PUSH1 0x1 PUSH1 0x60 SHL SUB SWAP3 SWAP1 SWAP3 AND PUSH1 0x1 PUSH1 0xA0 SHL MUL PUSH1 0x1 PUSH1 0x1 PUSH1 0xA0 SHL SUB SWAP1 SWAP3 AND SWAP2 SWAP1 SWAP2 OR SWAP1 SSTORE DUP2 ISZERO PUSH2 0x8C1 JUMPI PUSH2 0x8C1 DUP3 PUSH2 0x1833 JUMP JUMPDEST PUSH1 0x9 SLOAD PUSH1 0xA SLOAD PUSH1 0xB SLOAD PUSH1 0xC SLOAD PUSH1 0x8 SLOAD PUSH1 0x40 DUP1 MLOAD SWAP6 DUP7 MSTORE PUSH1 0x20 DUP7 ADD SWAP5 SWAP1 SWAP5 MSTORE SWAP3 DUP5 ADD SWAP2 SWAP1 SWAP2 MSTORE PUSH1 0x1 PUSH1 0x1 PUSH1 0x60 SHL SUB SWAP1 DUP2 AND PUSH1 0x60 DUP5 ADD MSTORE PUSH1 0x1 PUSH1 0xA0 SHL SWAP1 SWAP2 DIV AND PUSH1 0x80 DUP3 ADD MSTORE PUSH32 0xE111F67A87ACE56A1496291914B8E0DA23748FFDDAA8BC98D0F4D4DFB51796A5 SWAP1 PUSH1 0xA0 ADD PUSH2 0x62C JUMP JUMPDEST PUSH2 0x936 PUSH2 0x14B7 JUMP JUMPDEST PUSH2 0x93F PUSH0 PUSH2 0x18E6 JUMP JUMPDEST JUMP JUMPDEST PUSH2 0x949 PUSH2 0x1942 JUMP JUMPDEST CALLER PUSH0 DUP2 DUP2 MSTORE PUSH1 0x5 PUSH1 0x20 MSTORE PUSH1 0x40 SWAP1 KECCAK256 PUSH1 0x3 ADD SLOAD DUP5 SWAP1 PUSH2 0x968 SWAP1 PUSH1 0x1 PUSH2 0x2529 JUMP JUMPDEST DUP2 LT PUSH2 0x9BB JUMPI PUSH1 0x40 MLOAD PUSH3 0x461BCD PUSH1 0xE5 SHL DUP2 MSTORE PUSH1 0x20 PUSH1 0x4 DUP3 ADD MSTORE PUSH1 0x1D PUSH1 0x24 DUP3 ADD MSTORE PUSH32 0x50726F66697453686172653A496E76616C6964205374616B6520494421000000 PUSH1 0x44 DUP3 ADD MSTORE PUSH1 0x64 ADD JUMPDEST PUSH1 0x40 MLOAD DUP1 SWAP2 SUB SWAP1 REVERT JUMPDEST DUP3 ISZERO PUSH2 0x9D9 JUMPI PUSH2 0x9D9 CALLER PUSH1 0x7 SLOAD PUSH1 0x1 PUSH1 0x1 PUSH1 0xA0 SHL SUB AND SWAP1 ADDRESS DUP7 PUSH2 0x1985 JUMP JUMPDEST CALLER PUSH0 SWAP1 DUP2 MSTORE PUSH1 0x6 PUSH1 0x20 SWAP1 DUP2 MSTORE PUSH1 0x40 DUP1 DUP4 KECCAK256 DUP9 DUP5 MSTORE DUP3 MSTORE DUP1 DUP4 KECCAK256 PUSH1 0x1 PUSH1 0x1 PUSH1 0x60 SHL SUB DUP9 AND DUP5 MSTORE PUSH1 0x4 SWAP1 SWAP3 MSTORE SWAP1 SWAP2 KECCAK256 SLOAD PUSH1 0x2 DUP3 ADD SLOAD PUSH4 0xFFFFFFFF SWAP2 DUP3 AND PUSH1 0x1 PUSH1 0x60 SHL SWAP1 SWAP2 DIV SWAP1 SWAP2 AND GT ISZERO PUSH2 0xA93 JUMPI PUSH1 0x40 MLOAD PUSH3 0x461BCD PUSH1 0xE5 SHL DUP2 MSTORE PUSH1 0x20 PUSH1 0x4 DUP3 ADD MSTORE PUSH1 0x23 PUSH1 0x24 DUP3 ADD MSTORE PUSH32 0x50726F66697453686172653A557365206C6F6E676572206C6F636B5F70657269 PUSH1 0x44 DUP3 ADD MSTORE PUSH32 0x6F64210000000000000000000000000000000000000000000000000000000000 PUSH1 0x64 DUP3 ADD MSTORE PUSH1 0x84 ADD PUSH2 0x9B2 JUMP JUMPDEST DUP1 SLOAD PUSH0 SWAP1 PUSH2 0xAA1 SWAP1 DUP7 PUSH2 0x2529 JUMP JUMPDEST SWAP1 POP PUSH2 0xAAF CALLER DUP4 SLOAD DUP10 PUSH2 0x1A01 JUMP JUMPDEST DUP7 PUSH0 SUB PUSH2 0xADD JUMPI CALLER PUSH0 SWAP1 DUP2 MSTORE PUSH1 0x5 PUSH1 0x20 MSTORE PUSH1 0x40 DUP2 KECCAK256 PUSH1 0x3 ADD DUP1 SLOAD SWAP1 SWAP2 SWAP1 PUSH2 0xAD5 SWAP1 PUSH2 0x256E JUMP JUMPDEST SWAP2 DUP3 SWAP1 SSTORE POP SWAP7 POP JUMPDEST PUSH2 0xAE9 CALLER DUP8 DUP4 DUP11 PUSH2 0x1B2C JUMP JUMPDEST POP POP POP POP PUSH2 0xAF6 PUSH1 0x1 DUP1 SSTORE JUMP JUMPDEST POP POP POP JUMP JUMPDEST PUSH2 0xB03 PUSH2 0x14B7 JUMP JUMPDEST PUSH1 0xD DUP1 SLOAD PUSH20 0xFFFFFFFFFFFFFFFFFFFFFFFFFFFFFFFFFFFFFFFF NOT AND PUSH1 0x1 PUSH1 0x1 PUSH1 0xA0 SHL SUB SWAP3 SWAP1 SWAP3 AND SWAP2 SWAP1 SWAP2 OR SWAP1 SSTORE JUMP JUMPDEST PUSH2 0xB3A PUSH2 0x1942 JUMP JUMPDEST PUSH2 0xB6F PUSH32 0x0 PUSH1 0x1 PUSH1 0x1 PUSH1 0xA0 SHL SUB AND CALLER ADDRESS DUP5 PUSH2 0x1985 JUMP JUMPDEST PUSH1 0x40 MLOAD PUSH4 0x95EA7B3 PUSH1 0xE0 SHL DUP2 MSTORE PUSH1 0x1 PUSH1 0x1 PUSH1 0xA0 SHL SUB PUSH32 0x0 DUP2 AND PUSH1 0x4 DUP4 ADD MSTORE PUSH1 0x24 DUP3 ADD DUP4 SWAP1 MSTORE PUSH32 0x0 AND SWAP1 PUSH4 0x95EA7B3 SWAP1 PUSH1 0x44 ADD PUSH1 0x20 PUSH1 0x40 MLOAD DUP1 DUP4 SUB DUP2 PUSH0 DUP8 GAS CALL ISZERO DUP1 ISZERO PUSH2 0xBFB JUMPI RETURNDATASIZE PUSH0 PUSH0 RETURNDATACOPY RETURNDATASIZE PUSH0 REVERT JUMPDEST POP POP POP POP PUSH1 0x40 MLOAD RETURNDATASIZE PUSH1 0x1F NOT PUSH1 0x1F DUP3 ADD AND DUP3 ADD DUP1 PUSH1 0x40 MSTORE POP DUP2 ADD SWAP1 PUSH2 0xC1F SWAP2 SWAP1 PUSH2 0x2586 JUMP JUMPDEST POP PUSH1 0x40 MLOAD PUSH32 0xD93C04A000000000000000000000000000000000000000000000000000000000 DUP2 MSTORE PUSH1 0x1 PUSH1 0x1 PUSH1 0x60 SHL SUB DUP4 AND PUSH1 0x4 DUP3 ADD MSTORE PUSH1 0x24 DUP2 ADD DUP3 SWAP1 MSTORE PUSH0 SWAP1 DUP2 SWAP1 PUSH1 0x1 PUSH1 0x1 PUSH1 0xA0 SHL SUB PUSH32 0x0 AND SWAP1 PUSH4 0xD93C04A0 SWAP1 PUSH1 0x44 ADD PUSH1 0x40 DUP1 MLOAD DUP1 DUP4 SUB DUP2 PUSH0 DUP8 GAS CALL ISZERO DUP1 ISZERO PUSH2 0xCAF JUMPI RETURNDATASIZE PUSH0 PUSH0 RETURNDATACOPY RETURNDATASIZE PUSH0 REVERT JUMPDEST POP POP POP POP PUSH1 0x40 MLOAD RETURNDATASIZE PUSH1 0x1F NOT PUSH1 0x1F DUP3 ADD AND DUP3 ADD DUP1 PUSH1 0x40 MSTORE POP DUP2 ADD SWAP1 PUSH2 0xCD3 SWAP2 SWAP1 PUSH2 0x25A1 JUMP JUMPDEST SWAP2 POP SWAP2 POP PUSH0 DUP5 PUSH1 0x1 PUSH1 0x1 PUSH1 0x60 SHL SUB AND PUSH0 EQ PUSH2 0xD11 JUMPI CALLER PUSH0 SWAP1 DUP2 MSTORE PUSH1 0x5 PUSH1 0x20 MSTORE PUSH1 0x40 DUP2 KECCAK256 PUSH1 0x3 ADD DUP1 SLOAD SWAP1 SWAP2 SWAP1 PUSH2 0xD07 SWAP1 PUSH2 0x256E JUMP JUMPDEST SWAP2 DUP3 SWAP1 SSTORE POP PUSH2 0xD13 JUMP JUMPDEST PUSH0 JUMPDEST SWAP1 POP PUSH0 DUP2 GT PUSH2 0xD8A JUMPI PUSH1 0x40 MLOAD PUSH3 0x461BCD PUSH1 0xE5 SHL DUP2 MSTORE PUSH1 0x20 PUSH1 0x4 DUP3 ADD MSTORE PUSH1 0x2F PUSH1 0x24 DUP3 ADD MSTORE PUSH32 0x50726F66697453686172653A7374616B655F6964206D75737420626520677265 PUSH1 0x44 DUP3 ADD MSTORE PUSH32 0x61746572207468616E207A65726F210000000000000000000000000000000000 PUSH1 0x64 DUP3 ADD MSTORE PUSH1 0x84 ADD PUSH2 0x9B2 JUMP JUMPDEST CALLER PUSH0 DUP2 DUP2 MSTORE PUSH1 0x6 PUSH1 0x20 SWAP1 DUP2 MSTORE PUSH1 0x40 DUP1 DUP4 KECCAK256 DUP6 DUP5 MSTORE SWAP1 SWAP2 MSTORE SWAP1 KECCAK256 PUSH1 0x1 ADD DUP5 SWAP1 SSTORE PUSH2 0xDB5 SWAP1 DUP7 DUP5 DUP5 PUSH2 0x1B2C JUMP JUMPDEST POP POP POP PUSH2 0xDC1 PUSH1 0x1 DUP1 SSTORE JUMP JUMPDEST POP POP JUMP JUMPDEST PUSH2 0xDCE DUP2 PUSH2 0x1833 JUMP JUMPDEST POP JUMP JUMPDEST PUSH2 0xDD9 PUSH2 0x1942 JUMP JUMPDEST PUSH0 DUP5 GT PUSH2 0xE28 JUMPI PUSH1 0x40 MLOAD PUSH3 0x461BCD PUSH1 0xE5 SHL DUP2 MSTORE PUSH1 0x20 PUSH1 0x4 DUP3 ADD MSTORE PUSH1 0x11 PUSH1 0x24 DUP3 ADD MSTORE PUSH32 0x43616E6E6F7420756E7374616B65203021000000000000000000000000000000 PUSH1 0x44 DUP3 ADD MSTORE PUSH1 0x64 ADD PUSH2 0x9B2 JUMP JUMPDEST PUSH2 0xE3F CALLER PUSH1 0x7 SLOAD PUSH1 0x1 PUSH1 0x1 PUSH1 0xA0 SHL SUB AND SWAP1 DUP7 PUSH2 0x1D55 JUMP JUMPDEST PUSH2 0xE4A CALLER DUP6 PUSH0 PUSH2 0x1A01 JUMP JUMPDEST DUP3 ISZERO PUSH2 0xE5C JUMPI PUSH2 0xE5C CALLER JUMPDEST DUP4 DUP4 PUSH2 0x1D86 JUMP JUMPDEST PUSH2 0xE65 PUSH1 0x1 DUP1 SSTORE JUMP JUMPDEST POP POP POP POP JUMP JUMPDEST PUSH2 0xE73 PUSH2 0x14B7 JUMP JUMPDEST PUSH0 DUP3 PUSH1 0x1 PUSH1 0x1 PUSH1 0x60 SHL SUB AND GT DUP1 ISZERO PUSH2 0xEA0 JUMPI POP PUSH4 0xFFFFFFFF DUP2 AND PUSH2 0x3E8 LT DUP1 PUSH2 0xEA0 JUMPI POP PUSH4 0xFFFFFFFF DUP2 AND ISZERO JUMPDEST PUSH2 0xEA8 JUMPI PUSH0 PUSH0 REVERT JUMPDEST PUSH1 0x1 PUSH1 0x1 PUSH1 0x60 SHL SUB DUP3 AND PUSH0 DUP2 DUP2 MSTORE PUSH1 0x4 PUSH1 0x20 SWAP1 DUP2 MSTORE PUSH1 0x40 SWAP2 DUP3 SWAP1 KECCAK256 DUP1 SLOAD PUSH4 0xFFFFFFFF NOT AND PUSH4 0xFFFFFFFF DUP7 AND SWAP1 DUP2 OR SWAP1 SWAP2 SSTORE DUP3 MLOAD SWAP4 DUP5 MSTORE SWAP1 DUP4 ADD MSTORE PUSH32 0xDFDE28BA1CFAE98DB642E3246355850B37332D75F04945DA4676E38AD045386 SWAP2 ADD PUSH1 0x40 MLOAD DUP1 SWAP2 SUB SWAP1 LOG1 POP POP JUMP JUMPDEST PUSH1 0x1 PUSH1 0x1 PUSH1 0xA0 SHL SUB DUP3 AND PUSH0 SWAP1 DUP2 MSTORE PUSH1 0x5 PUSH1 0x20 MSTORE PUSH1 0x40 DUP2 KECCAK256 PUSH1 0x3 ADD SLOAD DUP2 SWAP1 DUP2 SWAP1 DUP2 SWAP1 DUP7 SWAP1 DUP7 SWAP1 PUSH2 0xF41 SWAP1 PUSH1 0x1 PUSH2 0x2529 JUMP JUMPDEST DUP2 LT PUSH2 0xF8F JUMPI PUSH1 0x40 MLOAD PUSH3 0x461BCD PUSH1 0xE5 SHL DUP2 MSTORE PUSH1 0x20 PUSH1 0x4 DUP3 ADD MSTORE PUSH1 0x1D PUSH1 0x24 DUP3 ADD MSTORE PUSH32 0x50726F66697453686172653A496E76616C6964205374616B6520494421000000 PUSH1 0x44 DUP3 ADD MSTORE PUSH1 0x64 ADD PUSH2 0x9B2 JUMP JUMPDEST POP POP POP POP PUSH1 0x1 PUSH1 0x1 PUSH1 0xA0 SHL SUB SWAP4 SWAP1 SWAP4 AND PUSH0 SWAP1 DUP2 MSTORE PUSH1 0x6 PUSH1 0x20 SWAP1 DUP2 MSTORE PUSH1 0x40 DUP1 DUP4 KECCAK256 SWAP5 DUP4 MSTORE SWAP4 SWAP1 MSTORE SWAP2 SWAP1 SWAP2 KECCAK256 DUP1 SLOAD PUSH1 0x1 DUP3 ADD SLOAD PUSH1 0x2 SWAP1 SWAP3 ADD SLOAD SWAP1 SWAP5 SWAP2 SWAP4 POP PUSH1 0x1 PUSH1 0x1 PUSH1 0x60 SHL SUB DUP2 AND SWAP3 POP PUSH1 0x1 PUSH1 0x60 SHL SWAP1 DIV PUSH4 0xFFFFFFFF AND SWAP1 JUMP JUMPDEST PUSH2 0xFEF PUSH2 0x14B7 JUMP JUMPDEST PUSH0 DUP2 GT PUSH2 0x1054 JUMPI PUSH1 0x40 MLOAD PUSH3 0x461BCD PUSH1 0xE5 SHL DUP2 MSTORE PUSH1 0x20 PUSH1 0x4 DUP3 ADD MSTORE PUSH1 0x2D PUSH1 0x24 DUP3 ADD MSTORE PUSH32 0x50726F66697453686172653A616D6F756E74206D757374206265206772656174 PUSH1 0x44 DUP3 ADD MSTORE PUSH13 0x6572207468616E207A65726F21 PUSH1 0x98 SHL PUSH1 0x64 DUP3 ADD MSTORE PUSH1 0x84 ADD PUSH2 0x9B2 JUMP JUMPDEST PUSH1 0x8 SLOAD PUSH2 0x1075 SWAP1 PUSH3 0x34BC00 SWAP1 PUSH1 0x1 PUSH1 0xA0 SHL SWAP1 DIV PUSH1 0x1 PUSH1 0x1 PUSH1 0x60 SHL SUB AND PUSH2 0x254F JUMP JUMPDEST PUSH1 0x1 PUSH1 0x1 PUSH1 0x60 SHL SUB AND TIMESTAMP PUSH1 0x1 PUSH1 0x1 PUSH1 0x60 SHL SUB AND LT ISZERO DUP1 PUSH2 0x1095 JUMPI POP PUSH1 0x9 SLOAD ISZERO JUMPDEST PUSH2 0x109D JUMPI PUSH0 PUSH0 REVERT JUMPDEST PUSH1 0x8 SLOAD PUSH2 0x10B4 SWAP1 PUSH1 0x1 PUSH1 0x1 PUSH1 0xA0 SHL SUB AND DUP4 DUP4 PUSH2 0x1D55 JUMP JUMPDEST DUP2 PUSH1 0x1 PUSH1 0x1 PUSH1 0xA0 SHL SUB AND PUSH32 0x1D3EEE4CA001CFF39EEC6EC7615AACF2F2BD61791273830728BA00CCBD6E1337 DUP3 PUSH1 0x40 MLOAD PUSH2 0x10EF SWAP2 DUP2 MSTORE PUSH1 0x20 ADD SWAP1 JUMP JUMPDEST PUSH1 0x40 MLOAD DUP1 SWAP2 SUB SWAP1 LOG2 POP POP JUMP JUMPDEST PUSH2 0x1103 PUSH2 0x1942 JUMP JUMPDEST PUSH2 0x111B CALLER PUSH1 0x7 SLOAD PUSH1 0x1 PUSH1 0x1 PUSH1 0xA0 SHL SUB AND SWAP1 ADDRESS DUP5 PUSH2 0x1985 JUMP JUMPDEST PUSH0 PUSH1 0x1 PUSH1 0x1 PUSH1 0x60 SHL SUB DUP4 AND ISZERO PUSH2 0x1154 JUMPI CALLER PUSH0 SWAP1 DUP2 MSTORE PUSH1 0x5 PUSH1 0x20 MSTORE PUSH1 0x40 DUP2 KECCAK256 PUSH1 0x3 ADD DUP1 SLOAD SWAP1 SWAP2 SWAP1 PUSH2 0x114A SWAP1 PUSH2 0x256E JUMP JUMPDEST SWAP2 DUP3 SWAP1 SSTORE POP PUSH2 0x1156 JUMP JUMPDEST PUSH0 JUMPDEST SWAP1 POP PUSH2 0x1164 CALLER DUP5 DUP5 DUP5 PUSH2 0x1B2C JUMP JUMPDEST POP PUSH2 0xDC1 PUSH1 0x1 DUP1 SSTORE JUMP JUMPDEST PUSH2 0x1176 PUSH2 0x1942 JUMP JUMPDEST PUSH2 0x1181 CALLER PUSH0 PUSH0 PUSH2 0x15E5 JUMP JUMPDEST PUSH2 0x118A CALLER PUSH2 0xE55 JUMP JUMPDEST PUSH2 0xDC1 PUSH1 0x1 DUP1 SSTORE JUMP JUMPDEST PUSH2 0x119B PUSH2 0x14B7 JUMP JUMPDEST PUSH1 0x1 PUSH1 0x1 PUSH1 0xA0 SHL SUB DUP2 AND PUSH2 0x11DD JUMPI PUSH1 0x40 MLOAD PUSH32 0x1E4FBDF700000000000000000000000000000000000000000000000000000000 DUP2 MSTORE PUSH0 PUSH1 0x4 DUP3 ADD MSTORE PUSH1 0x24 ADD PUSH2 0x9B2 JUMP JUMPDEST PUSH2 0xDCE DUP2 PUSH2 0x18E6 JUMP JUMPDEST PUSH2 0x11EE PUSH2 0x1942 JUMP JUMPDEST CALLER PUSH0 DUP2 DUP2 MSTORE PUSH1 0x5 PUSH1 0x20 MSTORE PUSH1 0x40 SWAP1 KECCAK256 PUSH1 0x3 ADD SLOAD DUP6 SWAP1 PUSH2 0x120D SWAP1 PUSH1 0x1 PUSH2 0x2529 JUMP JUMPDEST DUP2 LT PUSH2 0x125B JUMPI PUSH1 0x40 MLOAD PUSH3 0x461BCD PUSH1 0xE5 SHL DUP2 MSTORE PUSH1 0x20 PUSH1 0x4 DUP3 ADD MSTORE PUSH1 0x1D PUSH1 0x24 DUP3 ADD MSTORE PUSH32 0x50726F66697453686172653A496E76616C6964205374616B6520494421000000 PUSH1 0x44 DUP3 ADD MSTORE PUSH1 0x64 ADD PUSH2 0x9B2 JUMP JUMPDEST CALLER PUSH0 SWAP1 DUP2 MSTORE PUSH1 0x6 PUSH1 0x20 SWAP1 DUP2 MSTORE PUSH1 0x40 DUP1 DUP4 KECCAK256 DUP10 DUP5 MSTORE SWAP1 SWAP2 MSTORE SWAP1 KECCAK256 PUSH1 0x2 DUP2 ADD SLOAD PUSH1 0x1 PUSH1 0x1 PUSH1 0x60 SHL SUB SWAP1 DUP2 AND TIMESTAMP SWAP1 SWAP2 AND LT ISZERO PUSH2 0x12FC JUMPI PUSH1 0x40 MLOAD PUSH3 0x461BCD PUSH1 0xE5 SHL DUP2 MSTORE PUSH1 0x20 PUSH1 0x4 DUP3 ADD MSTORE PUSH1 0x2E PUSH1 0x24 DUP3 ADD MSTORE PUSH32 0x50726F66697453686172653A4561726C79205769746864726177616C20697320 PUSH1 0x44 DUP3 ADD MSTORE PUSH32 0x6E6F74207065726D697474656421000000000000000000000000000000000000 PUSH1 0x64 DUP3 ADD MSTORE PUSH1 0x84 ADD PUSH2 0x9B2 JUMP JUMPDEST DUP1 SLOAD PUSH2 0x134A JUMPI PUSH1 0x40 MLOAD PUSH3 0x461BCD PUSH1 0xE5 SHL DUP2 MSTORE PUSH1 0x20 PUSH1 0x4 DUP3 ADD MSTORE PUSH1 0x1C PUSH1 0x24 DUP3 ADD MSTORE PUSH32 0x50726F66697453686172653A4E6F7468696E6720746F20636C61696D00000000 PUSH1 0x44 DUP3 ADD MSTORE PUSH1 0x64 ADD PUSH2 0x9B2 JUMP JUMPDEST PUSH1 0x1 DUP2 ADD SLOAD ISZERO PUSH2 0x1475 JUMPI PUSH1 0x1 DUP2 ADD SLOAD PUSH1 0x40 MLOAD PUSH32 0x379607F500000000000000000000000000000000000000000000000000000000 DUP2 MSTORE PUSH0 SWAP2 PUSH1 0x1 PUSH1 0x1 PUSH1 0xA0 SHL SUB PUSH32 0x0 AND SWAP2 PUSH4 0x379607F5 SWAP2 PUSH2 0x13C2 SWAP2 PUSH1 0x4 ADD SWAP1 DUP2 MSTORE PUSH1 0x20 ADD SWAP1 JUMP JUMPDEST PUSH1 0x20 PUSH1 0x40 MLOAD DUP1 DUP4 SUB DUP2 PUSH0 DUP8 GAS CALL ISZERO DUP1 ISZERO PUSH2 0x13DE JUMPI RETURNDATASIZE PUSH0 PUSH0 RETURNDATACOPY RETURNDATASIZE PUSH0 REVERT JUMPDEST POP POP POP POP PUSH1 0x40 MLOAD RETURNDATASIZE PUSH1 0x1F NOT PUSH1 0x1F DUP3 ADD AND DUP3 ADD DUP1 PUSH1 0x40 MSTORE POP DUP2 ADD SWAP1 PUSH2 0x1402 SWAP2 SWAP1 PUSH2 0x25C3 JUMP JUMPDEST GT PUSH2 0x1475 JUMPI PUSH1 0x40 MLOAD PUSH3 0x461BCD PUSH1 0xE5 SHL DUP2 MSTORE PUSH1 0x20 PUSH1 0x4 DUP3 ADD MSTORE PUSH1 0x2D PUSH1 0x24 DUP3 ADD MSTORE PUSH32 0x50726F66697453686172653A43616E6E6F7420636C61696D2078435245444920 PUSH1 0x44 DUP3 ADD MSTORE PUSH32 0x66726F6D204D6F64756C65582100000000000000000000000000000000000000 PUSH1 0x64 DUP3 ADD MSTORE PUSH1 0x84 ADD PUSH2 0x9B2 JUMP JUMPDEST PUSH2 0x148E CALLER DUP3 SLOAD PUSH1 0x7 SLOAD PUSH1 0x1 PUSH1 0x1 PUSH1 0xA0 SHL SUB AND SWAP2 SWAP1 PUSH2 0x1D55 JUMP JUMPDEST PUSH2 0x149A CALLER DUP3 SLOAD DUP10 PUSH2 0x1A01 JUMP JUMPDEST DUP6 ISZERO PUSH2 0x14AB JUMPI PUSH2 0x14AB CALLER DUP7 DUP7 PUSH2 0x1D86 JUMP JUMPDEST POP POP POP PUSH2 0xE65 PUSH1 0x1 DUP1 SSTORE JUMP JUMPDEST PUSH0 SLOAD PUSH1 0x1 PUSH1 0x1 PUSH1 0xA0 SHL SUB AND CALLER EQ PUSH2 0x93F JUMPI PUSH1 0x40 MLOAD PUSH32 0x118CDAA700000000000000000000000000000000000000000000000000000000 DUP2 MSTORE CALLER PUSH1 0x4 DUP3 ADD MSTORE PUSH1 0x24 ADD PUSH2 0x9B2 JUMP JUMPDEST PUSH1 0x60 PUSH2 0x150A DUP3 PUSH2 0x1F8B PUSH2 0x1F8F JUMP JUMPDEST POP SWAP1 SWAP2 SWAP1 POP JUMP JUMPDEST PUSH0 DUP3 DUP3 XOR DUP3 DUP5 LT MUL DUP3 XOR JUMPDEST SWAP1 POP JUMPDEST SWAP3 SWAP2 POP POP JUMP JUMPDEST PUSH0 DUP3 DUP3 XOR DUP3 DUP5 GT MUL DUP3 XOR PUSH2 0x151C JUMP JUMPDEST PUSH0 PUSH0 PUSH1 0x3 PUSH1 0x1 PUSH2 0x1545 PUSH1 0x2 DUP7 PUSH2 0x158A JUMP JUMPDEST PUSH2 0x154F SWAP2 SWAP1 PUSH2 0x253C JUMP JUMPDEST DUP2 SLOAD DUP2 LT PUSH2 0x155F JUMPI PUSH2 0x155F PUSH2 0x244B JUMP JUMPDEST PUSH0 SWAP2 DUP3 MSTORE PUSH1 0x20 SWAP1 SWAP2 KECCAK256 ADD SLOAD SWAP1 POP PUSH2 0x3E8 PUSH2 0x1579 DUP5 DUP4 PUSH2 0x24F3 JUMP JUMPDEST PUSH2 0x1583 SWAP2 SWAP1 PUSH2 0x250A JUMP JUMPDEST SWAP4 SWAP3 POP POP POP JUMP JUMPDEST DUP2 SLOAD PUSH0 SWAP1 DUP2 SWAP1 DUP1 DUP3 SUB PUSH2 0x15A1 JUMPI PUSH0 SWAP3 POP POP POP PUSH2 0x151F JUMP JUMPDEST DUP1 DUP3 LT ISZERO PUSH2 0x15DD JUMPI PUSH0 PUSH2 0x15B4 DUP4 DUP4 PUSH2 0x1FA7 JUMP JUMPDEST SWAP1 POP DUP5 PUSH2 0x15C1 DUP8 DUP4 PUSH2 0x1FC1 JUMP JUMPDEST SLOAD GT ISZERO PUSH2 0x15D0 JUMPI DUP1 SWAP2 POP PUSH2 0x15D7 JUMP JUMPDEST DUP1 PUSH1 0x1 ADD SWAP3 POP JUMPDEST POP PUSH2 0x15A1 JUMP JUMPDEST POP SWAP4 SWAP3 POP POP POP JUMP JUMPDEST PUSH1 0xC SLOAD PUSH0 SWAP1 PUSH2 0x1600 SWAP1 PUSH1 0x1 PUSH1 0x1 PUSH1 0x60 SHL SUB AND PUSH2 0x685 TIMESTAMP PUSH2 0x668 JUMP JUMPDEST PUSH1 0x9 SLOAD SWAP1 SWAP2 POP ISZERO DUP1 ISZERO SWAP1 PUSH2 0x1622 JUMPI POP PUSH1 0xC SLOAD PUSH1 0x1 PUSH1 0x1 PUSH1 0x60 SHL SUB SWAP1 DUP2 AND SWAP1 DUP3 AND GT JUMPDEST ISZERO PUSH2 0x1677 JUMPI PUSH1 0x9 SLOAD PUSH1 0xA SLOAD PUSH1 0xC SLOAD PUSH2 0x1643 SWAP1 PUSH1 0x1 PUSH1 0x1 PUSH1 0x60 SHL SUB AND DUP5 PUSH2 0x24D4 JUMP JUMPDEST PUSH1 0x1 PUSH1 0x1 PUSH1 0x60 SHL SUB AND PUSH2 0x1656 SWAP2 SWAP1 PUSH2 0x24F3 JUMP JUMPDEST PUSH2 0x1660 SWAP2 SWAP1 PUSH2 0x250A JUMP JUMPDEST PUSH1 0xB DUP1 SLOAD PUSH0 SWAP1 PUSH2 0x1671 SWAP1 DUP5 SWAP1 PUSH2 0x2529 JUMP JUMPDEST SWAP1 SWAP2 SSTORE POP POP JUMPDEST PUSH1 0xC DUP1 SLOAD PUSH12 0xFFFFFFFFFFFFFFFFFFFFFFFF NOT AND PUSH1 0x1 PUSH1 0x1 PUSH1 0x60 SHL SUB DUP4 AND OR SWAP1 SSTORE PUSH1 0x1 PUSH1 0x1 PUSH1 0xA0 SHL SUB DUP5 AND ISZERO PUSH2 0xE65 JUMPI PUSH1 0x1 PUSH1 0x1 PUSH1 0xA0 SHL SUB DUP5 AND PUSH0 SWAP1 DUP2 MSTORE PUSH1 0x5 PUSH1 0x20 MSTORE PUSH1 0x40 DUP2 KECCAK256 DUP1 SLOAD SWAP1 SWAP2 SWAP1 PUSH2 0x16CB SWAP1 PUSH2 0x1534 JUMP JUMPDEST DUP3 SLOAD SWAP1 SWAP2 POP ISZERO PUSH2 0x171D JUMPI PUSH1 0x2 DUP3 ADD SLOAD PUSH1 0xB SLOAD PUSH9 0x3635C9ADC5DEA00000 SWAP2 PUSH2 0x16F1 SWAP2 PUSH2 0x253C JUMP JUMPDEST PUSH2 0x16FB SWAP1 DUP4 PUSH2 0x24F3 JUMP JUMPDEST PUSH2 0x1705 SWAP2 SWAP1 PUSH2 0x250A JUMP JUMPDEST DUP3 PUSH1 0x1 ADD PUSH0 DUP3 DUP3 SLOAD PUSH2 0x1717 SWAP2 SWAP1 PUSH2 0x2529 JUMP JUMPDEST SWAP1 SWAP2 SSTORE POP POP JUMPDEST PUSH1 0xB SLOAD PUSH1 0x2 DUP4 ADD SSTORE DUP2 SLOAD DUP5 SWAP1 PUSH2 0x1734 SWAP1 DUP8 SWAP1 PUSH2 0x2529 JUMP JUMPDEST PUSH2 0x173E SWAP2 SWAP1 PUSH2 0x253C JUMP JUMPDEST DUP1 DUP4 SSTORE DUP2 SWAP1 PUSH2 0x174C SWAP1 PUSH2 0x1534 JUMP JUMPDEST PUSH1 0x9 SLOAD PUSH2 0x1759 SWAP2 SWAP1 PUSH2 0x2529 JUMP JUMPDEST PUSH2 0x1763 SWAP2 SWAP1 PUSH2 0x253C JUMP JUMPDEST PUSH1 0x9 SSTORE DUP2 SLOAD PUSH1 0x1 DUP4 ADD SLOAD PUSH1 0x2 DUP5 ADD SLOAD PUSH1 0x40 DUP1 MLOAD SWAP4 DUP5 MSTORE PUSH1 0x20 DUP5 ADD SWAP3 SWAP1 SWAP3 MSTORE SWAP1 DUP3 ADD MSTORE PUSH1 0x1 PUSH1 0x1 PUSH1 0xA0 SHL SUB DUP8 AND SWAP1 PUSH32 0xF1DA46A1CA3E37613208B2A3D7EC556866482D77A0005D6168D73270CED6B26A SWAP1 PUSH1 0x60 ADD PUSH1 0x40 MLOAD DUP1 SWAP2 SUB SWAP1 LOG2 PUSH1 0x9 SLOAD PUSH1 0xA SLOAD PUSH1 0xB SLOAD PUSH1 0xC SLOAD PUSH1 0x8 SLOAD PUSH1 0x40 DUP1 MLOAD SWAP6 DUP7 MSTORE PUSH1 0x20 DUP7 ADD SWAP5 SWAP1 SWAP5 MSTORE DUP5 DUP5 ADD SWAP3 SWAP1 SWAP3 MSTORE PUSH1 0x1 PUSH1 0x1 PUSH1 0x60 SHL SUB SWAP1 DUP2 AND PUSH1 0x60 DUP6 ADD MSTORE PUSH1 0x1 PUSH1 0xA0 SHL SWAP1 SWAP2 DIV AND PUSH1 0x80 DUP4 ADD MSTORE MLOAD PUSH32 0xE111F67A87ACE56A1496291914B8E0DA23748FFDDAA8BC98D0F4D4DFB51796A5 SWAP2 DUP2 SWAP1 SUB PUSH1 0xA0 ADD SWAP1 LOG1 POP POP POP POP POP POP JUMP JUMPDEST PUSH0 DUP2 GT PUSH2 0x1898 JUMPI PUSH1 0x40 MLOAD PUSH3 0x461BCD PUSH1 0xE5 SHL DUP2 MSTORE PUSH1 0x20 PUSH1 0x4 DUP3 ADD MSTORE PUSH1 0x2D PUSH1 0x24 DUP3 ADD MSTORE PUSH32 0x50726F66697453686172653A616D6F756E74206D757374206265206772656174 PUSH1 0x44 DUP3 ADD MSTORE PUSH13 0x6572207468616E207A65726F21 PUSH1 0x98 SHL PUSH1 0x64 DUP3 ADD MSTORE PUSH1 0x84 ADD PUSH2 0x9B2 JUMP JUMPDEST PUSH2 0x18B0 CALLER PUSH1 0x8 SLOAD PUSH1 0x1 PUSH1 0x1 PUSH1 0xA0 SHL SUB AND SWAP1 ADDRESS DUP5 PUSH2 0x1985 JUMP JUMPDEST PUSH1 0x40 MLOAD DUP2 DUP2 MSTORE PUSH32 0xDE88A922E0D3B88B24E9623EFEB464919C6BF9F66857A65E2BFCF2CE87A9433D SWAP1 PUSH1 0x20 ADD PUSH1 0x40 MLOAD DUP1 SWAP2 SUB SWAP1 LOG1 POP JUMP JUMPDEST PUSH0 DUP1 SLOAD PUSH1 0x1 PUSH1 0x1 PUSH1 0xA0 SHL SUB DUP4 DUP2 AND PUSH20 0xFFFFFFFFFFFFFFFFFFFFFFFFFFFFFFFFFFFFFFFF NOT DUP4 AND DUP2 OR DUP5 SSTORE PUSH1 0x40 MLOAD SWAP2 SWAP1 SWAP3 AND SWAP3 DUP4 SWAP2 PUSH32 0x8BE0079C531659141344CD1FD0A4F28419497F9722A3DAAFE3B4186F6B6457E0 SWAP2 SWAP1 LOG3 POP POP JUMP JUMPDEST PUSH1 0x2 PUSH1 0x1 SLOAD SUB PUSH2 0x197E JUMPI PUSH1 0x40 MLOAD PUSH32 0x3EE5AEB500000000000000000000000000000000000000000000000000000000 DUP2 MSTORE PUSH1 0x4 ADD PUSH1 0x40 MLOAD DUP1 SWAP2 SUB SWAP1 REVERT JUMPDEST PUSH1 0x2 PUSH1 0x1 SSTORE JUMP JUMPDEST PUSH1 0x40 MLOAD PUSH1 0x1 PUSH1 0x1 PUSH1 0xA0 SHL SUB DUP5 DUP2 AND PUSH1 0x24 DUP4 ADD MSTORE DUP4 DUP2 AND PUSH1 0x44 DUP4 ADD MSTORE PUSH1 0x64 DUP3 ADD DUP4 SWAP1 MSTORE PUSH2 0xE65 SWAP2 DUP7 SWAP2 DUP3 AND SWAP1 PUSH4 0x23B872DD SWAP1 PUSH1 0x84 ADD JUMPDEST PUSH1 0x40 MLOAD PUSH1 0x20 DUP2 DUP4 SUB SUB DUP2 MSTORE SWAP1 PUSH1 0x40 MSTORE SWAP2 POP PUSH1 0xE0 SHL PUSH1 0x20 DUP3 ADD DUP1 MLOAD PUSH28 0xFFFFFFFFFFFFFFFFFFFFFFFFFFFFFFFFFFFFFFFFFFFFFFFFFFFFFFFF DUP4 DUP2 DUP4 AND OR DUP4 MSTORE POP POP POP POP PUSH2 0x1FE8 JUMP JUMPDEST PUSH1 0x1 PUSH1 0x1 PUSH1 0xA0 SHL SUB DUP4 AND PUSH0 SWAP1 DUP2 MSTORE PUSH1 0x6 PUSH1 0x20 SWAP1 DUP2 MSTORE PUSH1 0x40 DUP1 DUP4 KECCAK256 DUP5 DUP5 MSTORE SWAP1 SWAP2 MSTORE SWAP1 KECCAK256 DUP1 SLOAD DUP4 GT ISZERO PUSH2 0x1A9A JUMPI PUSH1 0x40 MLOAD PUSH3 0x461BCD PUSH1 0xE5 SHL DUP2 MSTORE PUSH1 0x20 PUSH1 0x4 DUP3 ADD MSTORE PUSH1 0x21 PUSH1 0x24 DUP3 ADD MSTORE PUSH32 0x50726F66697453686172653A496E73756666696369656E742062616C616E6365 PUSH1 0x44 DUP3 ADD MSTORE PUSH32 0x2100000000000000000000000000000000000000000000000000000000000000 PUSH1 0x64 DUP3 ADD MSTORE PUSH1 0x84 ADD PUSH2 0x9B2 JUMP JUMPDEST PUSH1 0x2 DUP2 ADD SLOAD PUSH0 SWAP1 PUSH2 0x3E8 SWAP1 PUSH2 0x1ABC SWAP1 PUSH1 0x1 PUSH1 0x60 SHL SWAP1 DIV PUSH4 0xFFFFFFFF AND DUP7 PUSH2 0x24F3 JUMP JUMPDEST PUSH2 0x1AC6 SWAP2 SWAP1 PUSH2 0x250A JUMP JUMPDEST SWAP1 POP PUSH2 0x1AD3 DUP6 PUSH0 DUP4 PUSH2 0x15E5 JUMP JUMPDEST DUP4 DUP3 PUSH0 ADD PUSH0 DUP3 DUP3 SLOAD PUSH2 0x1AE5 SWAP2 SWAP1 PUSH2 0x253C JUMP JUMPDEST SWAP1 SWAP2 SSTORE POP POP PUSH1 0x40 DUP1 MLOAD DUP5 DUP2 MSTORE PUSH1 0x20 DUP2 ADD DUP7 SWAP1 MSTORE CALLER SWAP2 PUSH32 0x459D5AEF2C549903C1EEB1736F5728845D5CCF82537DDD5BF8035795EEE89263 SWAP2 ADD PUSH1 0x40 MLOAD DUP1 SWAP2 SUB SWAP1 LOG2 POP POP POP POP POP JUMP JUMPDEST PUSH1 0x7 SLOAD PUSH1 0x1 PUSH1 0xA0 SHL SWAP1 DIV PUSH1 0x1 PUSH1 0x1 PUSH1 0x60 SHL SUB AND TIMESTAMP PUSH1 0x1 PUSH1 0x1 PUSH1 0x60 SHL SUB AND LT ISZERO DUP1 ISZERO PUSH2 0x1B71 JUMPI POP PUSH1 0x8 SLOAD PUSH1 0x1 PUSH1 0xA0 SHL SWAP1 DIV PUSH1 0x1 PUSH1 0x1 PUSH1 0x60 SHL SUB AND TIMESTAMP PUSH1 0x1 PUSH1 0x1 PUSH1 0x60 SHL SUB AND LT JUMPDEST PUSH2 0x1BBD JUMPI PUSH1 0x40 MLOAD PUSH3 0x461BCD PUSH1 0xE5 SHL DUP2 MSTORE PUSH1 0x20 PUSH1 0x4 DUP3 ADD MSTORE PUSH1 0x1F PUSH1 0x24 DUP3 ADD MSTORE PUSH32 0x50726F66697453686172653A506F6F6C206973206E6F74206163746976652100 PUSH1 0x44 DUP3 ADD MSTORE PUSH1 0x64 ADD PUSH2 0x9B2 JUMP JUMPDEST PUSH1 0x1 PUSH1 0x1 PUSH1 0x60 SHL SUB DUP4 AND PUSH0 SWAP1 DUP2 MSTORE PUSH1 0x4 PUSH1 0x20 MSTORE PUSH1 0x40 DUP2 KECCAK256 SLOAD PUSH4 0xFFFFFFFF AND SWAP1 PUSH2 0x3E8 PUSH2 0x1BE9 DUP4 DUP7 PUSH2 0x24F3 JUMP JUMPDEST PUSH2 0x1BF3 SWAP2 SWAP1 PUSH2 0x250A JUMP JUMPDEST SWAP1 POP PUSH0 DUP2 GT PUSH2 0x1C6A JUMPI PUSH1 0x40 MLOAD PUSH3 0x461BCD PUSH1 0xE5 SHL DUP2 MSTORE PUSH1 0x20 PUSH1 0x4 DUP3 ADD MSTORE PUSH1 0x39 PUSH1 0x24 DUP3 ADD MSTORE PUSH32 0x50726F66697453686172653A616D6F756E7420616E64206D756C7469706C6965 PUSH1 0x44 DUP3 ADD MSTORE PUSH32 0x72206D7573742062652067726561746572207468616E20302100000000000000 PUSH1 0x64 DUP3 ADD MSTORE PUSH1 0x84 ADD PUSH2 0x9B2 JUMP JUMPDEST PUSH2 0x1C75 DUP7 DUP3 PUSH0 PUSH2 0x15E5 JUMP JUMPDEST CALLER PUSH0 SWAP1 DUP2 MSTORE PUSH1 0x6 PUSH1 0x20 SWAP1 DUP2 MSTORE PUSH1 0x40 DUP1 DUP4 KECCAK256 DUP7 DUP5 MSTORE SWAP1 SWAP2 MSTORE DUP2 KECCAK256 DUP1 SLOAD SWAP1 SWAP2 DUP7 SWAP2 DUP4 SWAP2 SWAP1 PUSH2 0x1CA2 SWAP1 DUP5 SWAP1 PUSH2 0x2529 JUMP JUMPDEST SWAP1 SWAP2 SSTORE POP PUSH2 0x1CB2 SWAP1 POP DUP7 TIMESTAMP PUSH2 0x254F JUMP JUMPDEST PUSH1 0x2 DUP3 ADD DUP1 SLOAD PUSH1 0x1 PUSH1 0x1 PUSH1 0x60 SHL SUB SWAP3 DUP4 AND PUSH16 0xFFFFFFFFFFFFFFFFFFFFFFFFFFFFFFFF NOT SWAP1 SWAP2 AND OR PUSH1 0x1 PUSH1 0x60 SHL PUSH4 0xFFFFFFFF DUP8 AND MUL OR SWAP1 DUP2 SWAP1 SSTORE DUP3 SLOAD PUSH1 0x1 DUP5 ADD SLOAD PUSH1 0x40 DUP1 MLOAD DUP10 DUP2 MSTORE PUSH1 0x20 DUP2 ADD SWAP4 SWAP1 SWAP4 MSTORE DUP3 ADD MSTORE SWAP1 DUP3 AND PUSH1 0x60 DUP3 ADD MSTORE SWAP1 DUP8 AND PUSH1 0x80 DUP3 ADD MSTORE PUSH1 0x1 PUSH1 0x1 PUSH1 0xA0 SHL SUB DUP9 AND SWAP1 PUSH32 0xFB323914BFE99940926CD03FE7969535604DD9A3C82B28853E738744DD6F9AAA SWAP1 PUSH1 0xA0 ADD PUSH1 0x40 MLOAD DUP1 SWAP2 SUB SWAP1 LOG2 POP POP POP POP POP POP POP JUMP JUMPDEST PUSH1 0x40 MLOAD PUSH1 0x1 PUSH1 0x1 PUSH1 0xA0 SHL SUB DUP4 DUP2 AND PUSH1 0x24 DUP4 ADD MSTORE PUSH1 0x44 DUP3 ADD DUP4 SWAP1 MSTORE PUSH2 0xAF6 SWAP2 DUP6 SWAP2 DUP3 AND SWAP1 PUSH4 0xA9059CBB SWAP1 PUSH1 0x64 ADD PUSH2 0x19BA JUMP JUMPDEST PUSH1 0x1 PUSH1 0x1 PUSH1 0xA0 SHL SUB DUP4 AND PUSH0 SWAP1 DUP2 MSTORE PUSH1 0x5 PUSH1 0x20 MSTORE PUSH1 0x40 SWAP1 KECCAK256 PUSH1 0x1 DUP2 ADD SLOAD ISZERO PUSH2 0xE65 JUMPI PUSH1 0xD SLOAD PUSH1 0x1 PUSH1 0x1 PUSH1 0xA0 SHL SUB AND ISZERO PUSH2 0x1F19 JUMPI PUSH1 0x8 SLOAD PUSH1 0xD SLOAD PUSH1 0x1 DUP4 ADD SLOAD PUSH1 0x40 MLOAD PUSH4 0x95EA7B3 PUSH1 0xE0 SHL DUP2 MSTORE PUSH1 0x1 PUSH1 0x1 PUSH1 0xA0 SHL SUB SWAP3 DUP4 AND PUSH1 0x4 DUP3 ADD MSTORE PUSH1 0x24 DUP2 ADD SWAP2 SWAP1 SWAP2 MSTORE SWAP2 AND SWAP1 PUSH4 0x95EA7B3 SWAP1 PUSH1 0x44 ADD PUSH1 0x20 PUSH1 0x40 MLOAD DUP1 DUP4 SUB DUP2 PUSH0 DUP8 GAS CALL ISZERO DUP1 ISZERO PUSH2 0x1E10 JUMPI RETURNDATASIZE PUSH0 PUSH0 RETURNDATACOPY RETURNDATASIZE PUSH0 REVERT JUMPDEST POP POP POP POP PUSH1 0x40 MLOAD RETURNDATASIZE PUSH1 0x1F NOT PUSH1 0x1F DUP3 ADD AND DUP3 ADD DUP1 PUSH1 0x40 MSTORE POP DUP2 ADD SWAP1 PUSH2 0x1E34 SWAP2 SWAP1 PUSH2 0x2586 JUMP JUMPDEST POP PUSH1 0xD SLOAD PUSH1 0x1 DUP3 ADD SLOAD PUSH1 0x40 MLOAD PUSH32 0x39ACA1C100000000000000000000000000000000000000000000000000000000 DUP2 MSTORE PUSH0 SWAP3 PUSH1 0x1 PUSH1 0x1 PUSH1 0xA0 SHL SUB AND SWAP2 PUSH4 0x39ACA1C1 SWAP2 PUSH2 0x1E87 SWAP2 DUP10 SWAP2 DUP10 SWAP1 DUP10 SWAP1 PUSH1 0x4 ADD PUSH2 0x25DA JUMP JUMPDEST PUSH1 0x20 PUSH1 0x40 MLOAD DUP1 DUP4 SUB DUP2 PUSH0 DUP8 GAS CALL ISZERO DUP1 ISZERO PUSH2 0x1EA3 JUMPI RETURNDATASIZE PUSH0 PUSH0 RETURNDATACOPY RETURNDATASIZE PUSH0 REVERT JUMPDEST POP POP POP POP PUSH1 0x40 MLOAD RETURNDATASIZE PUSH1 0x1F NOT PUSH1 0x1F DUP3 ADD AND DUP3 ADD DUP1 PUSH1 0x40 MSTORE POP DUP2 ADD SWAP1 PUSH2 0x1EC7 SWAP2 SWAP1 PUSH2 0x25C3 JUMP JUMPDEST GT PUSH2 0x1F14 JUMPI PUSH1 0x40 MLOAD PUSH3 0x461BCD PUSH1 0xE5 SHL DUP2 MSTORE PUSH1 0x20 PUSH1 0x4 DUP3 ADD MSTORE PUSH1 0x17 PUSH1 0x24 DUP3 ADD MSTORE PUSH32 0x50726F66697453686172653A53776170206661696C6564000000000000000000 PUSH1 0x44 DUP3 ADD MSTORE PUSH1 0x64 ADD PUSH2 0x9B2 JUMP JUMPDEST PUSH2 0x1F38 JUMP JUMPDEST PUSH1 0x1 DUP2 ADD SLOAD PUSH1 0x8 SLOAD PUSH2 0x1F38 SWAP2 PUSH1 0x1 PUSH1 0x1 PUSH1 0xA0 SHL SUB SWAP1 SWAP2 AND SWAP1 DUP7 SWAP1 PUSH2 0x1D55 JUMP JUMPDEST DUP4 PUSH1 0x1 PUSH1 0x1 PUSH1 0xA0 SHL SUB AND PUSH32 0xE2403640BA68FED3A2F88B7557551D1993F84B99BB10FF833F0CF8DB0C5E0486 DUP3 PUSH1 0x1 ADD SLOAD PUSH1 0x40 MLOAD PUSH2 0x1F77 SWAP2 DUP2 MSTORE PUSH1 0x20 ADD SWAP1 JUMP JUMPDEST PUSH1 0x40 MLOAD DUP1 SWAP2 SUB SWAP1 LOG2 PUSH0 PUSH1 0x1 DUP3 ADD SSTORE POP POP POP POP JUMP JUMPDEST GT SWAP1 JUMP JUMPDEST PUSH1 0x60 PUSH2 0x150A PUSH1 0x20 DUP5 ADD PUSH2 0x1FA1 DUP6 PUSH2 0x206D JUMP JUMPDEST DUP5 PUSH2 0x2084 JUMP JUMPDEST PUSH0 PUSH2 0x1FB5 PUSH1 0x2 DUP5 DUP5 XOR PUSH2 0x250A JUMP JUMPDEST PUSH2 0x151C SWAP1 DUP5 DUP5 AND PUSH2 0x2529 JUMP JUMPDEST PUSH0 DUP3 PUSH2 0x1FE0 PUSH2 0x1FDD DUP5 PUSH2 0x1FD9 DUP5 PUSH0 SWAP1 DUP2 MSTORE PUSH1 0x20 SWAP1 KECCAK256 SWAP1 JUMP JUMPDEST ADD SWAP1 JUMP JUMPDEST SWAP1 JUMP JUMPDEST SWAP5 SWAP4 POP POP POP POP JUMP JUMPDEST PUSH0 PUSH0 PUSH1 0x20 PUSH0 DUP5 MLOAD PUSH1 0x20 DUP7 ADD PUSH0 DUP9 GAS CALL DUP1 PUSH2 0x2007 JUMPI PUSH1 0x40 MLOAD RETURNDATASIZE PUSH0 DUP3 RETURNDATACOPY RETURNDATASIZE DUP2 REVERT JUMPDEST POP POP PUSH0 MLOAD RETURNDATASIZE SWAP2 POP DUP2 ISZERO PUSH2 0x201E JUMPI DUP1 PUSH1 0x1 EQ ISZERO PUSH2 0x202B JUMP JUMPDEST PUSH1 0x1 PUSH1 0x1 PUSH1 0xA0 SHL SUB DUP5 AND EXTCODESIZE ISZERO JUMPDEST ISZERO PUSH2 0xE65 JUMPI PUSH1 0x40 MLOAD PUSH32 0x5274AFE700000000000000000000000000000000000000000000000000000000 DUP2 MSTORE PUSH1 0x1 PUSH1 0x1 PUSH1 0xA0 SHL SUB DUP6 AND PUSH1 0x4 DUP3 ADD MSTORE PUSH1 0x24 ADD PUSH2 0x9B2 JUMP JUMPDEST PUSH0 DUP2 MLOAD PUSH1 0x20 MUL PUSH2 0x207D DUP4 PUSH1 0x20 ADD SWAP1 JUMP JUMPDEST ADD SWAP3 SWAP2 POP POP JUMP JUMPDEST PUSH1 0x40 DUP4 DUP4 SUB LT ISZERO PUSH2 0x2094 JUMPI POP POP POP JUMP JUMPDEST PUSH0 PUSH2 0x209D DUP5 MLOAD SWAP1 JUMP JUMPDEST SWAP1 POP DUP4 PUSH1 0x20 DUP2 ADD JUMPDEST DUP5 DUP2 LT ISZERO PUSH2 0x20DF JUMPI PUSH2 0x20C2 PUSH2 0x20B8 DUP3 MLOAD SWAP1 JUMP JUMPDEST DUP5 DUP7 PUSH4 0xFFFFFFFF AND JUMP JUMPDEST ISZERO PUSH2 0x20D7 JUMPI PUSH1 0x20 SWAP2 SWAP1 SWAP2 ADD DUP1 MLOAD DUP3 MLOAD DUP3 MSTORE DUP3 MSTORE SWAP1 JUMPDEST PUSH1 0x20 ADD PUSH2 0x20A5 JUMP JUMPDEST POP DUP5 MLOAD DUP2 MLOAD DUP7 MSTORE DUP2 MSTORE PUSH2 0x20F3 DUP6 DUP3 DUP6 PUSH2 0x2084 JUMP JUMPDEST PUSH2 0x2101 DUP2 PUSH1 0x20 ADD DUP6 DUP6 PUSH2 0x2084 JUMP JUMPDEST POP POP POP POP POP JUMP JUMPDEST DUP3 DUP1 SLOAD DUP3 DUP3 SSTORE SWAP1 PUSH0 MSTORE PUSH1 0x20 PUSH0 KECCAK256 SWAP1 DUP2 ADD SWAP3 DUP3 ISZERO PUSH2 0x2141 JUMPI SWAP2 PUSH1 0x20 MUL DUP3 ADD JUMPDEST DUP3 DUP2 GT ISZERO PUSH2 0x2141 JUMPI DUP3 MLOAD DUP3 SSTORE SWAP2 PUSH1 0x20 ADD SWAP2 SWAP1 PUSH1 0x1 ADD SWAP1 PUSH2 0x2126 JUMP JUMPDEST POP PUSH2 0x214D SWAP3 SWAP2 POP PUSH2 0x2151 JUMP JUMPDEST POP SWAP1 JUMP JUMPDEST JUMPDEST DUP1 DUP3 GT ISZERO PUSH2 0x214D JUMPI PUSH0 DUP2 SSTORE PUSH1 0x1 ADD PUSH2 0x2152 JUMP JUMPDEST PUSH0 PUSH0 DUP4 PUSH1 0x1F DUP5 ADD SLT PUSH2 0x2175 JUMPI PUSH0 PUSH0 REVERT JUMPDEST POP DUP2 CALLDATALOAD PUSH8 0xFFFFFFFFFFFFFFFF DUP2 GT ISZERO PUSH2 0x218C JUMPI PUSH0 PUSH0 REVERT JUMPDEST PUSH1 0x20 DUP4 ADD SWAP2 POP DUP4 PUSH1 0x20 DUP3 PUSH1 0x5 SHL DUP6 ADD ADD GT ISZERO PUSH2 0x21A6 JUMPI PUSH0 PUSH0 REVERT JUMPDEST SWAP3 POP SWAP3 SWAP1 POP JUMP JUMPDEST PUSH0 PUSH0 PUSH0 PUSH0 PUSH1 0x40 DUP6 DUP8 SUB SLT ISZERO PUSH2 0x21C0 JUMPI PUSH0 PUSH0 REVERT JUMPDEST DUP5 CALLDATALOAD PUSH8 0xFFFFFFFFFFFFFFFF DUP2 GT ISZERO PUSH2 0x21D6 JUMPI PUSH0 PUSH0 REVERT JUMPDEST PUSH2 0x21E2 DUP8 DUP3 DUP9 ADD PUSH2 0x2165 JUMP JUMPDEST SWAP1 SWAP6 POP SWAP4 POP POP PUSH1 0x20 DUP6 ADD CALLDATALOAD PUSH8 0xFFFFFFFFFFFFFFFF DUP2 GT ISZERO PUSH2 0x2201 JUMPI PUSH0 PUSH0 REVERT JUMPDEST PUSH2 0x220D DUP8 DUP3 DUP9 ADD PUSH2 0x2165 JUMP JUMPDEST SWAP6 SWAP9 SWAP5 SWAP8 POP SWAP6 POP POP POP POP JUMP JUMPDEST DUP1 CALLDATALOAD PUSH1 0x1 PUSH1 0x1 PUSH1 0xA0 SHL SUB DUP2 AND DUP2 EQ PUSH2 0x222F JUMPI PUSH0 PUSH0 REVERT JUMPDEST SWAP2 SWAP1 POP JUMP JUMPDEST PUSH0 PUSH1 0x20 DUP3 DUP5 SUB SLT ISZERO PUSH2 0x2244 JUMPI PUSH0 PUSH0 REVERT JUMPDEST PUSH2 0x151C DUP3 PUSH2 0x2219 JUMP JUMPDEST DUP1 CALLDATALOAD PUSH1 0x1 PUSH1 0x1 PUSH1 0x60 SHL SUB DUP2 AND DUP2 EQ PUSH2 0x222F JUMPI PUSH0 PUSH0 REVERT JUMPDEST PUSH0 PUSH0 PUSH0 PUSH1 0x60 DUP5 DUP7 SUB SLT ISZERO PUSH2 0x2275 JUMPI PUSH0 PUSH0 REVERT JUMPDEST PUSH2 0x227E DUP5 PUSH2 0x224D JUMP JUMPDEST SWAP6 PUSH1 0x20 DUP6 ADD CALLDATALOAD SWAP6 POP PUSH1 0x40 SWAP1 SWAP5 ADD CALLDATALOAD SWAP4 SWAP3 POP POP POP JUMP JUMPDEST PUSH0 PUSH1 0x20 DUP3 DUP5 SUB SLT ISZERO PUSH2 0x22A3 JUMPI PUSH0 PUSH0 REVERT JUMPDEST PUSH2 0x151C DUP3 PUSH2 0x224D JUMP JUMPDEST PUSH0 PUSH0 PUSH0 PUSH1 0x60 DUP5 DUP7 SUB SLT ISZERO PUSH2 0x22BE JUMPI PUSH0 PUSH0 REVERT JUMPDEST DUP4 CALLDATALOAD SWAP3 POP PUSH2 0x22CE PUSH1 0x20 DUP6 ADD PUSH2 0x224D JUMP JUMPDEST SWAP3 SWAP6 SWAP3 SWAP5 POP POP POP PUSH1 0x40 SWAP2 SWAP1 SWAP2 ADD CALLDATALOAD SWAP1 JUMP JUMPDEST PUSH0 PUSH0 PUSH1 0x40 DUP4 DUP6 SUB SLT ISZERO PUSH2 0x22F0 JUMPI PUSH0 PUSH0 REVERT JUMPDEST PUSH2 0x22F9 DUP4 PUSH2 0x224D JUMP JUMPDEST SWAP5 PUSH1 0x20 SWAP4 SWAP1 SWAP4 ADD CALLDATALOAD SWAP4 POP POP POP JUMP JUMPDEST PUSH0 PUSH1 0x20 DUP3 DUP5 SUB SLT ISZERO PUSH2 0x2317 JUMPI PUSH0 PUSH0 REVERT JUMPDEST POP CALLDATALOAD SWAP2 SWAP1 POP JUMP JUMPDEST DUP1 ISZERO ISZERO DUP2 EQ PUSH2 0xDCE JUMPI PUSH0 PUSH0 REVERT JUMPDEST PUSH0 PUSH0 DUP4 PUSH1 0x1F DUP5 ADD SLT PUSH2 0x233B JUMPI PUSH0 PUSH0 REVERT JUMPDEST POP DUP2 CALLDATALOAD PUSH8 0xFFFFFFFFFFFFFFFF DUP2 GT ISZERO PUSH2 0x2352 JUMPI PUSH0 PUSH0 REVERT JUMPDEST PUSH1 0x20 DUP4 ADD SWAP2 POP DUP4 PUSH1 0x20 DUP3 DUP6 ADD ADD GT ISZERO PUSH2 0x21A6 JUMPI PUSH0 PUSH0 REVERT JUMPDEST PUSH0 PUSH0 PUSH0 PUSH0 PUSH1 0x60 DUP6 DUP8 SUB SLT ISZERO PUSH2 0x237C JUMPI PUSH0 PUSH0 REVERT JUMPDEST DUP5 CALLDATALOAD SWAP4 POP PUSH1 0x20 DUP6 ADD CALLDATALOAD PUSH2 0x238E DUP2 PUSH2 0x231E JUMP JUMPDEST SWAP3 POP PUSH1 0x40 DUP6 ADD CALLDATALOAD PUSH8 0xFFFFFFFFFFFFFFFF DUP2 GT ISZERO PUSH2 0x23A9 JUMPI PUSH0 PUSH0 REVERT JUMPDEST PUSH2 0x220D DUP8 DUP3 DUP9 ADD PUSH2 0x232B JUMP JUMPDEST PUSH0 PUSH0 PUSH1 0x40 DUP4 DUP6 SUB SLT ISZERO PUSH2 0x23C6 JUMPI PUSH0 PUSH0 REVERT JUMPDEST PUSH2 0x23CF DUP4 PUSH2 0x224D JUMP JUMPDEST SWAP2 POP PUSH1 0x20 DUP4 ADD CALLDATALOAD PUSH4 0xFFFFFFFF DUP2 AND DUP2 EQ PUSH2 0x23E7 JUMPI PUSH0 PUSH0 REVERT JUMPDEST DUP1 SWAP2 POP POP SWAP3 POP SWAP3 SWAP1 POP JUMP JUMPDEST PUSH0 PUSH0 PUSH1 0x40 DUP4 DUP6 SUB SLT ISZERO PUSH2 0x2403 JUMPI PUSH0 PUSH0 REVERT JUMPDEST PUSH2 0x22F9 DUP4 PUSH2 0x2219 JUMP JUMPDEST PUSH0 PUSH0 PUSH1 0x20 DUP4 DUP6 SUB SLT ISZERO PUSH2 0x241D JUMPI PUSH0 PUSH0 REVERT JUMPDEST DUP3 CALLDATALOAD PUSH8 0xFFFFFFFFFFFFFFFF DUP2 GT ISZERO PUSH2 0x2433 JUMPI PUSH0 PUSH0 REVERT JUMPDEST PUSH2 0x243F DUP6 DUP3 DUP7 ADD PUSH2 0x232B JUMP JUMPDEST SWAP1 SWAP7 SWAP1 SWAP6 POP SWAP4 POP POP POP POP JUMP JUMPDEST PUSH4 0x4E487B71 PUSH1 0xE0 SHL PUSH0 MSTORE PUSH1 0x32 PUSH1 0x4 MSTORE PUSH1 0x24 PUSH0 REVERT JUMPDEST PUSH0 DUP2 SLOAD DUP1 DUP5 MSTORE PUSH1 0x20 DUP5 ADD SWAP4 POP DUP3 PUSH0 MSTORE PUSH1 0x20 PUSH0 KECCAK256 PUSH0 JUMPDEST DUP3 DUP2 LT ISZERO PUSH2 0x2492 JUMPI DUP2 SLOAD DUP7 MSTORE PUSH1 0x20 SWAP1 SWAP6 ADD SWAP5 PUSH1 0x1 SWAP2 DUP3 ADD SWAP2 ADD PUSH2 0x2474 JUMP JUMPDEST POP SWAP4 SWAP5 SWAP4 POP POP POP POP JUMP JUMPDEST PUSH1 0x40 DUP2 MSTORE PUSH0 PUSH2 0x24AE PUSH1 0x40 DUP4 ADD DUP6 PUSH2 0x245F JUMP JUMPDEST DUP3 DUP2 SUB PUSH1 0x20 DUP5 ADD MSTORE PUSH2 0x746 DUP2 DUP6 PUSH2 0x245F JUMP JUMPDEST PUSH4 0x4E487B71 PUSH1 0xE0 SHL PUSH0 MSTORE PUSH1 0x11 PUSH1 0x4 MSTORE PUSH1 0x24 PUSH0 REVERT JUMPDEST PUSH1 0x1 PUSH1 0x1 PUSH1 0x60 SHL SUB DUP3 DUP2 AND DUP3 DUP3 AND SUB SWAP1 DUP2 GT ISZERO PUSH2 0x151F JUMPI PUSH2 0x151F PUSH2 0x24C0 JUMP JUMPDEST DUP1 DUP3 MUL DUP2 ISZERO DUP3 DUP3 DIV DUP5 EQ OR PUSH2 0x151F JUMPI PUSH2 0x151F PUSH2 0x24C0 JUMP JUMPDEST PUSH0 DUP3 PUSH2 0x2524 JUMPI PUSH4 0x4E487B71 PUSH1 0xE0 SHL PUSH0 MSTORE PUSH1 0x12 PUSH1 0x4 MSTORE PUSH1 0x24 PUSH0 REVERT JUMPDEST POP DIV SWAP1 JUMP JUMPDEST DUP1 DUP3 ADD DUP1 DUP3 GT ISZERO PUSH2 0x151F JUMPI PUSH2 0x151F PUSH2 0x24C0 JUMP JUMPDEST DUP2 DUP2 SUB DUP2 DUP2 GT ISZERO PUSH2 0x151F JUMPI PUSH2 0x151F PUSH2 0x24C0 JUMP JUMPDEST PUSH1 0x1 PUSH1 0x1 PUSH1 0x60 SHL SUB DUP2 DUP2 AND DUP4 DUP3 AND ADD SWAP1 DUP2 GT ISZERO PUSH2 0x151F JUMPI PUSH2 0x151F PUSH2 0x24C0 JUMP JUMPDEST PUSH0 PUSH1 0x1 DUP3 ADD PUSH2 0x257F JUMPI PUSH2 0x257F PUSH2 0x24C0 JUMP JUMPDEST POP PUSH1 0x1 ADD SWAP1 JUMP JUMPDEST PUSH0 PUSH1 0x20 DUP3 DUP5 SUB SLT ISZERO PUSH2 0x2596 JUMPI PUSH0 PUSH0 REVERT JUMPDEST DUP2 MLOAD PUSH2 0x1583 DUP2 PUSH2 0x231E JUMP JUMPDEST PUSH0 PUSH0 PUSH1 0x40 DUP4 DUP6 SUB SLT ISZERO PUSH2 0x25B2 JUMPI PUSH0 PUSH0 REVERT JUMPDEST POP POP DUP1 MLOAD PUSH1 0x20 SWAP1 SWAP2 ADD MLOAD SWAP1 SWAP3 SWAP1 SWAP2 POP JUMP JUMPDEST PUSH0 PUSH1 0x20 DUP3 DUP5 SUB SLT ISZERO PUSH2 0x25D3 JUMPI PUSH0 PUSH0 REVERT JUMPDEST POP MLOAD SWAP2 SWAP1 POP JUMP JUMPDEST PUSH1 0x1 PUSH1 0x1 PUSH1 0xA0 SHL SUB DUP6 AND DUP2 MSTORE DUP4 PUSH1 0x20 DUP3 ADD MSTORE PUSH1 0x60 PUSH1 0x40 DUP3 ADD MSTORE DUP2 PUSH1 0x60 DUP3 ADD MSTORE DUP2 DUP4 PUSH1 0x80 DUP4 ADD CALLDATACOPY PUSH0 DUP2 DUP4 ADD PUSH1 0x80 SWAP1 DUP2 ADD SWAP2 SWAP1 SWAP2 MSTORE PUSH1 0x1F SWAP1 SWAP3 ADD PUSH1 0x1F NOT AND ADD ADD SWAP4 SWAP3 POP POP POP JUMP INVALID LOG2 PUSH5 0x6970667358 0x22 SLT KECCAK256 0x22 MCOPY CREATE2 LOG2 PUSH26 0x425A2CCEE972E684C65650A2D8A861569980D9211EEEC87F66CF EQ PUSH5 0x736F6C6343 STOP ADDMOD 0x1E STOP CALLER 0xD REVERT 0xE2 DUP12 LOG1 0xCF 0xAE SWAP9 0xDB PUSH5 0x2E32463558 POP 0xB3 PUSH20 0x32D75F04945DA4676E38AD045386000000000000 "
		},
		"gasEstimates": {
			"creation": {
				"codeDepositCost": "1962600",
				"executionCost": "infinite",
				"totalCost": "infinite"
			},
			"external": {
				"CLAIM_PERIOD()": "261",
				"CREDI()": "infinite",
				"MODULEX()": "infinite",
				"SCALE_FACTOR()": "272",
				"SWAP_LIBRARY()": "2404",
				"addRewards(uint256)": "infinite",
				"claimRewards(bytes)": "infinite",
				"duration_multiplier(uint96)": "2625",
				"extendRewards(uint96,uint256,uint256)": "infinite",
				"getStake(address,uint256)": "9403",
				"getUserInfo(address)": "infinite",
				"getUserRewards(address)": "infinite",
				"multiplier_BASE()": "247",
				"owner()": "2396",
				"pool()": "13216",
				"renounceOwnership()": "infinite",
				"restake(uint256,uint96,uint256)": "infinite",
				"setDurationMultiplier(uint96,uint32)": "28362",
				"setSwapLibraryAddress(address)": "26813",
				"setXTierMultipliers(uint256[],uint256[])": "infinite",
				"stake(uint96,uint256)": "infinite",
				"stakeCREDI(uint96,uint256)": "infinite",
				"transferOwnership(address)": "28409",
				"unstake(uint256,bool,bytes)": "infinite",
				"unstakePerpetual(uint256,bool,bytes)": "infinite",
				"withdrawRewards(address,uint256)": "infinite"
			},
			"internal": {
				"_addRewards(uint256)": "infinite",
				"_claim(address,bytes calldata)": "infinite",
				"_stake(address,uint96,uint256,uint256)": "infinite",
				"_unstake(address,uint256,uint256)": "infinite",
				"effective_xpoints(uint256)": "infinite",
				"time_now()": "infinite",
				"update_pool_and_user(address,uint256,uint256)": "infinite"
			}
		},
		"methodIdentifiers": {
			"CLAIM_PERIOD()": "21241dfe",
			"CREDI()": "6db08f25",
			"MODULEX()": "b1da1b2d",
			"SCALE_FACTOR()": "ce4b5bbe",
			"SWAP_LIBRARY()": "be28b8b3",
			"addRewards(uint256)": "beceed39",
			"claimRewards(bytes)": "e190febc",
			"duration_multiplier(uint96)": "8af6e880",
			"extendRewards(uint96,uint256,uint256)": "7135cd6a",
			"getStake(address,uint256)": "cfd47663",
			"getUserInfo(address)": "6386c1c7",
			"getUserRewards(address)": "078b0fb7",
			"multiplier_BASE()": "da540bbf",
			"owner()": "8da5cb5b",
			"pool()": "16f0115b",
			"renounceOwnership()": "715018a6",
			"restake(uint256,uint96,uint256)": "8c793330",
			"setDurationMultiplier(uint96,uint32)": "c96d6635",
			"setSwapLibraryAddress(address)": "98d183fc",
			"setXTierMultipliers(uint256[],uint256[])": "0072c744",
			"stake(uint96,uint256)": "d93c04a0",
			"stakeCREDI(uint96,uint256)": "99c1e891",
			"transferOwnership(address)": "f2fde38b",
			"unstake(uint256,bool,bytes)": "fe89a82d",
			"unstakePerpetual(uint256,bool,bytes)": "c105635b",
			"withdrawRewards(address,uint256)": "d6ef7af0"
		}
	},
	"abi": [
		{
			"inputs": [
				{
					"internalType": "uint96",
					"name": "start_epoch",
					"type": "uint96"
				},
				{
					"internalType": "uint96",
					"name": "end_epoch",
					"type": "uint96"
				},
				{
					"internalType": "uint256",
					"name": "reward_amount",
					"type": "uint256"
				},
				{
					"internalType": "address",
					"name": "_modulex_addr",
					"type": "address"
				},
				{
					"internalType": "address",
					"name": "_rewards_token",
					"type": "address"
				}
			],
			"stateMutability": "nonpayable",
			"type": "constructor"
		},
		{
			"inputs": [
				{
					"internalType": "address",
					"name": "owner",
					"type": "address"
				}
			],
			"name": "OwnableInvalidOwner",
			"type": "error"
		},
		{
			"inputs": [
				{
					"internalType": "address",
					"name": "account",
					"type": "address"
				}
			],
			"name": "OwnableUnauthorizedAccount",
			"type": "error"
		},
		{
			"inputs": [],
			"name": "ReentrancyGuardReentrantCall",
			"type": "error"
		},
		{
			"inputs": [
				{
					"internalType": "address",
					"name": "token",
					"type": "address"
				}
			],
			"name": "SafeERC20FailedOperation",
			"type": "error"
		},
		{
			"anonymous": false,
			"inputs": [
				{
					"indexed": true,
					"internalType": "address",
					"name": "previousOwner",
					"type": "address"
				},
				{
					"indexed": true,
					"internalType": "address",
					"name": "newOwner",
					"type": "address"
				}
			],
			"name": "OwnershipTransferred",
			"type": "event"
		},
		{
			"anonymous": false,
			"inputs": [
				{
					"indexed": false,
					"internalType": "address",
					"name": "staking_token",
					"type": "address"
				},
				{
					"indexed": false,
					"internalType": "address",
					"name": "rewards_token",
					"type": "address"
				},
				{
					"indexed": false,
					"internalType": "uint96",
					"name": "start_epoch",
					"type": "uint96"
				},
				{
					"indexed": false,
					"internalType": "uint256",
					"name": "scale_factor",
					"type": "uint256"
				}
			],
			"name": "PoolCreated",
			"type": "event"
		},
		{
			"anonymous": false,
			"inputs": [
				{
					"indexed": false,
					"internalType": "uint256",
					"name": "effective_xpoints",
					"type": "uint256"
				},
				{
					"indexed": false,
					"internalType": "uint256",
					"name": "reward_rate",
					"type": "uint256"
				},
				{
					"indexed": false,
					"internalType": "uint256",
					"name": "reward_rate_cumsum",
					"type": "uint256"
				},
				{
					"indexed": false,
					"internalType": "uint96",
					"name": "last_update_epoch",
					"type": "uint96"
				},
				{
					"indexed": false,
					"internalType": "uint96",
					"name": "end_epoch",
					"type": "uint96"
				}
			],
			"name": "PoolUpdated",
			"type": "event"
		},
		{
			"anonymous": false,
			"inputs": [
				{
					"indexed": false,
					"internalType": "uint256",
					"name": "amount",
					"type": "uint256"
				}
			],
			"name": "RewardAdded",
			"type": "event"
		},
		{
			"anonymous": false,
			"inputs": [
				{
					"indexed": true,
					"internalType": "address",
					"name": "user",
					"type": "address"
				},
				{
					"indexed": false,
					"internalType": "uint256",
					"name": "amount",
					"type": "uint256"
				}
			],
			"name": "RewardPaid",
			"type": "event"
		},
		{
			"anonymous": false,
			"inputs": [
				{
					"indexed": true,
					"internalType": "address",
					"name": "to",
					"type": "address"
				},
				{
					"indexed": false,
					"internalType": "uint256",
					"name": "amount",
					"type": "uint256"
				}
			],
			"name": "RewardWithdrawn",
			"type": "event"
		},
		{
			"anonymous": false,
			"inputs": [
				{
					"indexed": false,
					"internalType": "uint96",
					"name": "duration",
					"type": "uint96"
				},
				{
					"indexed": false,
					"internalType": "uint32",
					"name": "multiplier",
					"type": "uint32"
				}
			],
			"name": "SetDurationMultiplier",
			"type": "event"
		},
		{
			"anonymous": false,
			"inputs": [
				{
					"indexed": false,
					"internalType": "uint256[]",
					"name": "thresholds",
					"type": "uint256[]"
				},
				{
					"indexed": false,
					"internalType": "uint256[]",
					"name": "multipliers",
					"type": "uint256[]"
				}
			],
			"name": "SetXTierMultipliers",
			"type": "event"
		},
		{
			"anonymous": false,
			"inputs": [
				{
					"indexed": false,
					"internalType": "uint256",
					"name": "stake_id",
					"type": "uint256"
				},
				{
					"indexed": true,
					"internalType": "address",
					"name": "user",
					"type": "address"
				},
				{
					"indexed": false,
					"internalType": "uint256",
					"name": "stake_amount",
					"type": "uint256"
				},
				{
					"indexed": false,
					"internalType": "uint256",
					"name": "modulex_stake_id",
					"type": "uint256"
				},
				{
					"indexed": false,
					"internalType": "uint96",
					"name": "maturity",
					"type": "uint96"
				},
				{
					"indexed": false,
					"internalType": "uint96",
					"name": "lock_period",
					"type": "uint96"
				}
			],
			"name": "StakeUpdated",
			"type": "event"
		},
		{
			"anonymous": false,
			"inputs": [
				{
					"indexed": false,
					"internalType": "uint256",
					"name": "stake_id",
					"type": "uint256"
				},
				{
					"indexed": true,
					"internalType": "address",
					"name": "user",
					"type": "address"
				},
				{
					"indexed": false,
					"internalType": "uint256",
					"name": "amount",
					"type": "uint256"
				}
			],
			"name": "StakeWithdrawn",
			"type": "event"
		},
		{
			"anonymous": false,
			"inputs": [
				{
					"indexed": true,
					"internalType": "address",
					"name": "owner",
					"type": "address"
				},
				{
					"indexed": false,
					"internalType": "uint256",
					"name": "xpoints",
					"type": "uint256"
				},
				{
					"indexed": false,
					"internalType": "uint256",
					"name": "reward_amount",
					"type": "uint256"
				},
				{
					"indexed": false,
					"internalType": "uint256",
					"name": "reward_rate_cumsum",
					"type": "uint256"
				}
			],
			"name": "UserUpdated",
			"type": "event"
		},
		{
			"inputs": [],
			"name": "CLAIM_PERIOD",
			"outputs": [
				{
					"internalType": "uint96",
					"name": "",
					"type": "uint96"
				}
			],
			"stateMutability": "view",
			"type": "function"
		},
		{
			"inputs": [],
			"name": "CREDI",
			"outputs": [
				{
					"internalType": "contract IERC20",
					"name": "",
					"type": "address"
				}
			],
			"stateMutability": "view",
			"type": "function"
		},
		{
			"inputs": [],
			"name": "MODULEX",
			"outputs": [
				{
					"internalType": "address",
					"name": "",
					"type": "address"
				}
			],
			"stateMutability": "view",
			"type": "function"
		},
		{
			"inputs": [],
			"name": "SCALE_FACTOR",
			"outputs": [
				{
					"internalType": "uint256",
					"name": "",
					"type": "uint256"
				}
			],
			"stateMutability": "view",
			"type": "function"
		},
		{
			"inputs": [],
			"name": "SWAP_LIBRARY",
			"outputs": [
				{
					"internalType": "address",
					"name": "",
					"type": "address"
				}
			],
			"stateMutability": "view",
			"type": "function"
		},
		{
			"inputs": [
				{
					"internalType": "uint256",
					"name": "amount",
					"type": "uint256"
				}
			],
			"name": "addRewards",
			"outputs": [],
			"stateMutability": "nonpayable",
			"type": "function"
		},
		{
			"inputs": [
				{
					"internalType": "bytes",
					"name": "options",
					"type": "bytes"
				}
			],
			"name": "claimRewards",
			"outputs": [],
			"stateMutability": "nonpayable",
			"type": "function"
		},
		{
			"inputs": [
				{
					"internalType": "uint96",
					"name": "",
					"type": "uint96"
				}
			],
			"name": "duration_multiplier",
			"outputs": [
				{
					"internalType": "uint32",
					"name": "",
					"type": "uint32"
				}
			],
			"stateMutability": "view",
			"type": "function"
		},
		{
			"inputs": [
				{
					"internalType": "uint96",
					"name": "duration",
					"type": "uint96"
				},
				{
					"internalType": "uint256",
					"name": "reward_amount",
					"type": "uint256"
				},
				{
					"internalType": "uint256",
					"name": "transfer_reward_amount",
					"type": "uint256"
				}
			],
			"name": "extendRewards",
			"outputs": [],
			"stateMutability": "nonpayable",
			"type": "function"
		},
		{
			"inputs": [
				{
					"internalType": "address",
					"name": "owner",
					"type": "address"
				},
				{
					"internalType": "uint256",
					"name": "stake_id",
					"type": "uint256"
				}
			],
			"name": "getStake",
			"outputs": [
				{
					"internalType": "uint256",
					"name": "stake_amount",
					"type": "uint256"
				},
				{
					"internalType": "uint256",
					"name": "modulex_stake_id",
					"type": "uint256"
				},
				{
					"internalType": "uint96",
					"name": "maturity",
					"type": "uint96"
				},
				{
					"internalType": "uint256",
					"name": "multiplier",
					"type": "uint256"
				}
			],
			"stateMutability": "view",
			"type": "function"
		},
		{
			"inputs": [
				{
					"internalType": "address",
					"name": "owner",
					"type": "address"
				}
			],
			"name": "getUserInfo",
			"outputs": [
				{
					"internalType": "uint256",
					"name": "xpoints",
					"type": "uint256"
				},
				{
					"internalType": "uint256",
					"name": "xtier",
					"type": "uint256"
				},
				{
					"internalType": "uint256",
					"name": "reward_amount",
					"type": "uint256"
				},
				{
					"internalType": "uint256",
					"name": "reward_rate_cumsum",
					"type": "uint256"
				},
				{
					"internalType": "uint256",
					"name": "stakes_count",
					"type": "uint256"
				}
			],
			"stateMutability": "view",
			"type": "function"
		},
		{
			"inputs": [
				{
					"internalType": "address",
					"name": "owner",
					"type": "address"
				}
			],
			"name": "getUserRewards",
			"outputs": [
				{
					"internalType": "uint256",
					"name": "",
					"type": "uint256"
				}
			],
			"stateMutability": "view",
			"type": "function"
		},
		{
			"inputs": [],
			"name": "multiplier_BASE",
			"outputs": [
				{
					"internalType": "uint32",
					"name": "",
					"type": "uint32"
				}
			],
			"stateMutability": "view",
			"type": "function"
		},
		{
			"inputs": [],
			"name": "owner",
			"outputs": [
				{
					"internalType": "address",
					"name": "",
					"type": "address"
				}
			],
			"stateMutability": "view",
			"type": "function"
		},
		{
			"inputs": [],
			"name": "pool",
			"outputs": [
				{
					"internalType": "contract IERC20",
					"name": "staking_token",
					"type": "address"
				},
				{
					"internalType": "uint96",
					"name": "start_epoch",
					"type": "uint96"
				},
				{
					"internalType": "contract IERC20",
					"name": "rewards_token",
					"type": "address"
				},
				{
					"internalType": "uint96",
					"name": "end_epoch",
					"type": "uint96"
				},
				{
					"internalType": "uint256",
					"name": "effective_xpoints",
					"type": "uint256"
				},
				{
					"internalType": "uint256",
					"name": "reward_rate",
					"type": "uint256"
				},
				{
					"internalType": "uint256",
					"name": "reward_rate_cumsum",
					"type": "uint256"
				},
				{
					"internalType": "uint96",
					"name": "last_update_epoch",
					"type": "uint96"
				}
			],
			"stateMutability": "view",
			"type": "function"
		},
		{
			"inputs": [],
			"name": "renounceOwnership",
			"outputs": [],
			"stateMutability": "nonpayable",
			"type": "function"
		},
		{
			"inputs": [
				{
					"internalType": "uint256",
					"name": "stake_id",
					"type": "uint256"
				},
				{
					"internalType": "uint96",
					"name": "lock_period",
					"type": "uint96"
				},
				{
					"internalType": "uint256",
					"name": "amount",
					"type": "uint256"
				}
			],
			"name": "restake",
			"outputs": [],
			"stateMutability": "nonpayable",
			"type": "function"
		},
		{
			"inputs": [
				{
					"internalType": "uint96",
					"name": "duration",
					"type": "uint96"
				},
				{
					"internalType": "uint32",
					"name": "multiplier",
					"type": "uint32"
				}
			],
			"name": "setDurationMultiplier",
			"outputs": [],
			"stateMutability": "nonpayable",
			"type": "function"
		},
		{
			"inputs": [
				{
					"internalType": "address",
					"name": "_SWAP_LIBRARY",
					"type": "address"
				}
			],
			"name": "setSwapLibraryAddress",
			"outputs": [],
			"stateMutability": "nonpayable",
			"type": "function"
		},
		{
			"inputs": [
				{
					"internalType": "uint256[]",
					"name": "_thresholds",
					"type": "uint256[]"
				},
				{
					"internalType": "uint256[]",
					"name": "_mulitpliers",
					"type": "uint256[]"
				}
			],
			"name": "setXTierMultipliers",
			"outputs": [],
			"stateMutability": "nonpayable",
			"type": "function"
		},
		{
			"inputs": [
				{
					"internalType": "uint96",
					"name": "lock_period",
					"type": "uint96"
				},
				{
					"internalType": "uint256",
					"name": "amount",
					"type": "uint256"
				}
			],
			"name": "stake",
			"outputs": [],
			"stateMutability": "nonpayable",
			"type": "function"
		},
		{
			"inputs": [
				{
					"internalType": "uint96",
					"name": "lock_period",
					"type": "uint96"
				},
				{
					"internalType": "uint256",
					"name": "CREDI_amount",
					"type": "uint256"
				}
			],
			"name": "stakeCREDI",
			"outputs": [],
			"stateMutability": "nonpayable",
			"type": "function"
		},
		{
			"inputs": [
				{
					"internalType": "address",
					"name": "newOwner",
					"type": "address"
				}
			],
			"name": "transferOwnership",
			"outputs": [],
			"stateMutability": "nonpayable",
			"type": "function"
		},
		{
			"inputs": [
				{
					"internalType": "uint256",
					"name": "stake_id",
					"type": "uint256"
				},
				{
					"internalType": "bool",
					"name": "claim_rewards",
					"type": "bool"
				},
				{
					"internalType": "bytes",
					"name": "options",
					"type": "bytes"
				}
			],
			"name": "unstake",
			"outputs": [],
			"stateMutability": "nonpayable",
			"type": "function"
		},
		{
			"inputs": [
				{
					"internalType": "uint256",
					"name": "amount",
					"type": "uint256"
				},
				{
					"internalType": "bool",
					"name": "claim_rewards",
					"type": "bool"
				},
				{
					"internalType": "bytes",
					"name": "options",
					"type": "bytes"
				}
			],
			"name": "unstakePerpetual",
			"outputs": [],
			"stateMutability": "nonpayable",
			"type": "function"
		},
		{
			"inputs": [
				{
					"internalType": "address",
					"name": "to",
					"type": "address"
				},
				{
					"internalType": "uint256",
					"name": "amount",
					"type": "uint256"
				}
			],
			"name": "withdrawRewards",
			"outputs": [],
			"stateMutability": "nonpayable",
			"type": "function"
		}
	]
}